{
  "address": "0x25E05c24E3c753EDBcc15563230a476669F3E0C9",
  "abi": [
    {
      "inputs": [],
      "name": "DELAY",
      "outputs": [
        {
          "internalType": "uint256",
          "name": "",
          "type": "uint256"
        }
      ],
      "stateMutability": "view",
      "type": "function"
    },
    {
      "inputs": [],
      "name": "duration",
      "outputs": [
        {
          "internalType": "uint256",
          "name": "",
          "type": "uint256"
        }
      ],
      "stateMutability": "pure",
      "type": "function"
    },
    {
      "inputs": [
        {
          "internalType": "uint256",
          "name": "",
          "type": "uint256"
        },
        {
          "internalType": "uint256",
          "name": "_configured",
          "type": "uint256"
        }
      ],
      "name": "stateOf",
      "outputs": [
        {
          "internalType": "enum JBBallotState",
          "name": "",
          "type": "uint8"
        }
      ],
      "stateMutability": "view",
      "type": "function"
    }
  ],
  "transactionHash": "0xae41ef4507fb0889c2cdcb7b1d53f2de34eb241c51c2132b9aa6021d9201e273",
  "args": [],
  "numDeployments": 1,
  "solcInputHash": "b9f0ce443e8cbb4775420bd5109f455a",
  "bytecode": "0x608060405234801561001057600080fd5b50610186806100206000396000f3fe608060405234801561001057600080fd5b50600436106100415760003560e01c80630fb5a6b41461004657806369b411701461005e578063f94633fb14610068575b600080fd5b62093a805b6040519081526020015b60405180910390f35b61004b62093a8081565b61007b6100763660046100ae565b610088565b60405161005591906100d0565b600061009762093a8083610111565b42116100a45760016100a7565b60005b9392505050565b600080604083850312156100c157600080fd5b50508035926020909101359150565b602081016003831061010b577f4e487b7100000000000000000000000000000000000000000000000000000000600052602160045260246000fd5b91905290565b6000821982111561014b577f4e487b7100000000000000000000000000000000000000000000000000000000600052601160045260246000fd5b50019056fea264697066735822122019657563b5d66859ae5e6910f7aae0d1f9f995eb32945f2071843e639f77105064736f6c63430008060033",
  "devdoc": {
    "kind": "dev",
    "methods": {
      "duration()": {
        "details": "A ballot should not be considered final until the duration has passed.",
        "returns": {
          "_0": "The duration in seconds."
        }
      },
      "stateOf(uint256,uint256)": {
        "params": {
          "_configured": "The configuration of the funding cycle to check the state of."
        },
        "returns": {
          "_0": "The state of the provided ballot."
        }
      }
    },
    "version": 1
  },
  "userdoc": {
    "kind": "user",
    "methods": {
      "DELAY()": {
        "notice": "The number of seconds that must pass for a funding cycle reconfiguration to become active."
      },
      "duration()": {
        "notice": " The time that this ballot is active for."
      },
      "stateOf(uint256,uint256)": {
        "notice": " The approval state of a particular funding cycle."
      }
    },
    "notice": "Manages approving funding cycle reconfigurations automatically after a buffer period of 7 days.",
    "version": 1
  },
  "storageLayout": {
    "storage": [],
    "types": null
  }
}