{
  "address": "0xD02C85Ce534388095a6e3A49793A9c403Bac5e88",
  "abi": [
    {
      "inputs": [
        {
          "internalType": "contract IJBOperatorStore",
          "name": "_operatorStore",
          "type": "address"
        },
        {
          "internalType": "contract IJBProjects",
          "name": "_projects",
          "type": "address"
        },
        {
          "internalType": "contract IJBDirectory",
          "name": "_directory",
          "type": "address"
        },
        {
          "internalType": "contract IJBFundingCycleStore",
          "name": "_fundingCycleStore",
          "type": "address"
        },
        {
          "internalType": "contract IJBTokenStore",
          "name": "_tokenStore",
          "type": "address"
        },
        {
          "internalType": "contract IJBSplitsStore",
          "name": "_splitsStore",
          "type": "address"
        },
        {
          "internalType": "address",
          "name": "_owner",
          "type": "address"
        }
      ],
      "stateMutability": "nonpayable",
      "type": "constructor"
    },
    {
      "inputs": [
        {
          "internalType": "uint256",
          "name": "prod1",
          "type": "uint256"
        },
        {
          "internalType": "uint256",
          "name": "denominator",
          "type": "uint256"
        }
      ],
      "name": "PRBMath__MulDivOverflow",
      "type": "error"
    },
    {
      "anonymous": false,
      "inputs": [
        {
          "indexed": true,
          "internalType": "address",
          "name": "holder",
          "type": "address"
        },
        {
          "indexed": true,
          "internalType": "uint256",
          "name": "projectId",
          "type": "uint256"
        },
        {
          "indexed": false,
          "internalType": "uint256",
          "name": "count",
          "type": "uint256"
        },
        {
          "indexed": false,
          "internalType": "string",
          "name": "memo",
          "type": "string"
        },
        {
          "indexed": false,
          "internalType": "address",
          "name": "caller",
          "type": "address"
        }
      ],
      "name": "BurnTokens",
      "type": "event"
    },
    {
      "anonymous": false,
      "inputs": [
        {
          "indexed": true,
          "internalType": "uint256",
          "name": "fundingCycleId",
          "type": "uint256"
        },
        {
          "indexed": true,
          "internalType": "uint256",
          "name": "projectId",
          "type": "uint256"
        },
        {
          "indexed": true,
          "internalType": "address",
          "name": "beneficiary",
          "type": "address"
        },
        {
          "indexed": false,
          "internalType": "uint256",
          "name": "count",
          "type": "uint256"
        },
        {
          "indexed": false,
          "internalType": "uint256",
          "name": "projectOwnerTokenCount",
          "type": "uint256"
        },
        {
          "indexed": false,
          "internalType": "string",
          "name": "memo",
          "type": "string"
        },
        {
          "indexed": false,
          "internalType": "address",
          "name": "caller",
          "type": "address"
        }
      ],
      "name": "DistributeReservedTokens",
      "type": "event"
    },
    {
      "anonymous": false,
      "inputs": [
        {
          "indexed": true,
          "internalType": "uint256",
          "name": "fundingCycleId",
          "type": "uint256"
        },
        {
          "indexed": true,
          "internalType": "uint256",
          "name": "projectId",
          "type": "uint256"
        },
        {
          "components": [
            {
              "internalType": "bool",
              "name": "preferClaimed",
              "type": "bool"
            },
            {
              "internalType": "uint24",
              "name": "percent",
              "type": "uint24"
            },
            {
              "internalType": "uint48",
              "name": "lockedUntil",
              "type": "uint48"
            },
            {
              "internalType": "address payable",
              "name": "beneficiary",
              "type": "address"
            },
            {
              "internalType": "contract IJBSplitAllocator",
              "name": "allocator",
              "type": "address"
            },
            {
              "internalType": "uint56",
              "name": "projectId",
              "type": "uint56"
            }
          ],
          "indexed": false,
          "internalType": "struct JBSplit",
          "name": "split",
          "type": "tuple"
        },
        {
          "indexed": false,
          "internalType": "uint256",
          "name": "count",
          "type": "uint256"
        },
        {
          "indexed": false,
          "internalType": "address",
          "name": "caller",
          "type": "address"
        }
      ],
      "name": "DistributeToReservedTokenSplit",
      "type": "event"
    },
    {
      "anonymous": false,
      "inputs": [
        {
          "indexed": true,
          "internalType": "uint256",
          "name": "projectId",
          "type": "uint256"
        },
        {
          "indexed": false,
          "internalType": "contract IJBController",
          "name": "to",
          "type": "address"
        },
        {
          "indexed": false,
          "internalType": "address",
          "name": "caller",
          "type": "address"
        }
      ],
      "name": "Migrate",
      "type": "event"
    },
    {
      "anonymous": false,
      "inputs": [
        {
          "indexed": true,
          "internalType": "address",
          "name": "beneficiary",
          "type": "address"
        },
        {
          "indexed": true,
          "internalType": "uint256",
          "name": "projectId",
          "type": "uint256"
        },
        {
          "indexed": true,
          "internalType": "uint256",
          "name": "count",
          "type": "uint256"
        },
        {
          "indexed": false,
          "internalType": "string",
          "name": "memo",
          "type": "string"
        },
        {
          "indexed": false,
          "internalType": "uint256",
          "name": "reservedRate",
          "type": "uint256"
        },
        {
          "indexed": false,
          "internalType": "address",
          "name": "caller",
          "type": "address"
        }
      ],
      "name": "MintTokens",
      "type": "event"
    },
    {
      "anonymous": false,
      "inputs": [
        {
          "indexed": true,
          "internalType": "address",
          "name": "previousOwner",
          "type": "address"
        },
        {
          "indexed": true,
          "internalType": "address",
          "name": "newOwner",
          "type": "address"
        }
      ],
      "name": "OwnershipTransferred",
      "type": "event"
    },
    {
      "anonymous": false,
      "inputs": [
        {
          "indexed": false,
          "internalType": "uint256",
          "name": "fee",
          "type": "uint256"
        },
        {
          "indexed": false,
          "internalType": "address",
          "name": "caller",
          "type": "address"
        }
      ],
      "name": "SetFee",
      "type": "event"
    },
    {
      "anonymous": false,
      "inputs": [
        {
          "indexed": true,
          "internalType": "uint256",
          "name": "projectId",
          "type": "uint256"
        },
        {
          "indexed": true,
          "internalType": "uint256",
          "name": "configuration",
          "type": "uint256"
        },
        {
          "components": [
            {
              "internalType": "contract IJBTerminal",
              "name": "terminal",
              "type": "address"
            },
            {
              "internalType": "uint256",
              "name": "amount",
              "type": "uint256"
            }
          ],
          "indexed": false,
          "internalType": "struct JBOverflowAllowance",
          "name": "allowance",
          "type": "tuple"
        },
        {
          "indexed": false,
          "internalType": "address",
          "name": "caller",
          "type": "address"
        }
      ],
      "name": "SetOverflowAllowance",
      "type": "event"
    },
    {
      "inputs": [
        {
          "internalType": "address",
          "name": "_holder",
          "type": "address"
        },
        {
          "internalType": "uint256",
          "name": "_projectId",
          "type": "uint256"
        },
        {
          "internalType": "uint256",
          "name": "_tokenCount",
          "type": "uint256"
        },
        {
          "internalType": "string",
          "name": "_memo",
          "type": "string"
        },
        {
          "internalType": "bool",
          "name": "_preferClaimedTokens",
          "type": "bool"
        }
      ],
      "name": "burnTokensOf",
      "outputs": [],
      "stateMutability": "nonpayable",
      "type": "function"
    },
    {
      "inputs": [],
      "name": "directory",
      "outputs": [
        {
          "internalType": "contract IJBDirectory",
          "name": "",
          "type": "address"
        }
      ],
      "stateMutability": "view",
      "type": "function"
    },
    {
      "inputs": [
        {
          "internalType": "uint256",
          "name": "_projectId",
          "type": "uint256"
        },
        {
          "internalType": "string",
          "name": "_memo",
          "type": "string"
        }
      ],
      "name": "distributeReservedTokensOf",
      "outputs": [
        {
          "internalType": "uint256",
          "name": "",
          "type": "uint256"
        }
      ],
      "stateMutability": "nonpayable",
      "type": "function"
    },
    {
      "inputs": [],
      "name": "fee",
      "outputs": [
        {
          "internalType": "uint256",
          "name": "",
          "type": "uint256"
        }
      ],
      "stateMutability": "view",
      "type": "function"
    },
    {
      "inputs": [],
      "name": "fundingCycleStore",
      "outputs": [
        {
          "internalType": "contract IJBFundingCycleStore",
          "name": "",
          "type": "address"
        }
      ],
      "stateMutability": "view",
      "type": "function"
    },
    {
      "inputs": [
        {
          "internalType": "address",
          "name": "_owner",
          "type": "address"
        },
        {
          "internalType": "bytes32",
          "name": "_handle",
          "type": "bytes32"
        },
        {
          "internalType": "string",
          "name": "_metadataCid",
          "type": "string"
        },
        {
          "components": [
            {
              "internalType": "uint256",
              "name": "target",
              "type": "uint256"
            },
            {
              "internalType": "uint256",
              "name": "currency",
              "type": "uint256"
            },
            {
              "internalType": "uint256",
              "name": "duration",
              "type": "uint256"
            },
            {
              "internalType": "uint256",
              "name": "weight",
              "type": "uint256"
            },
            {
              "internalType": "uint256",
              "name": "discountRate",
              "type": "uint256"
            },
            {
              "internalType": "contract IJBFundingCycleBallot",
              "name": "ballot",
              "type": "address"
            }
          ],
          "internalType": "struct JBFundingCycleData",
          "name": "_data",
          "type": "tuple"
        },
        {
          "components": [
            {
              "internalType": "uint256",
              "name": "reservedRate",
              "type": "uint256"
            },
            {
              "internalType": "uint256",
              "name": "redemptionRate",
              "type": "uint256"
            },
            {
              "internalType": "uint256",
              "name": "ballotRedemptionRate",
              "type": "uint256"
            },
            {
              "internalType": "bool",
              "name": "pausePay",
              "type": "bool"
            },
            {
              "internalType": "bool",
              "name": "pauseWithdrawals",
              "type": "bool"
            },
            {
              "internalType": "bool",
              "name": "pauseRedeem",
              "type": "bool"
            },
            {
              "internalType": "bool",
              "name": "pauseMint",
              "type": "bool"
            },
            {
              "internalType": "bool",
              "name": "pauseBurn",
              "type": "bool"
            },
            {
              "internalType": "bool",
              "name": "allowTerminalMigration",
              "type": "bool"
            },
            {
              "internalType": "bool",
              "name": "allowControllerMigration",
              "type": "bool"
            },
            {
              "internalType": "bool",
              "name": "holdFees",
              "type": "bool"
            },
            {
              "internalType": "bool",
              "name": "useDataSourceForPay",
              "type": "bool"
            },
            {
              "internalType": "bool",
              "name": "useDataSourceForRedeem",
              "type": "bool"
            },
            {
              "internalType": "contract IJBFundingCycleDataSource",
              "name": "dataSource",
              "type": "address"
            }
          ],
          "internalType": "struct JBFundingCycleMetadata",
          "name": "_metadata",
          "type": "tuple"
        },
        {
          "components": [
            {
              "internalType": "contract IJBTerminal",
              "name": "terminal",
              "type": "address"
            },
            {
              "internalType": "uint256",
              "name": "amount",
              "type": "uint256"
            }
          ],
          "internalType": "struct JBOverflowAllowance[]",
          "name": "_overflowAllowances",
          "type": "tuple[]"
        },
        {
          "components": [
            {
              "internalType": "bool",
              "name": "preferClaimed",
              "type": "bool"
            },
            {
              "internalType": "uint24",
              "name": "percent",
              "type": "uint24"
            },
            {
              "internalType": "uint48",
              "name": "lockedUntil",
              "type": "uint48"
            },
            {
              "internalType": "address payable",
              "name": "beneficiary",
              "type": "address"
            },
            {
              "internalType": "contract IJBSplitAllocator",
              "name": "allocator",
              "type": "address"
            },
            {
              "internalType": "uint56",
              "name": "projectId",
              "type": "uint56"
            }
          ],
          "internalType": "struct JBSplit[]",
          "name": "_payoutSplits",
          "type": "tuple[]"
        },
        {
          "components": [
            {
              "internalType": "bool",
              "name": "preferClaimed",
              "type": "bool"
            },
            {
              "internalType": "uint24",
              "name": "percent",
              "type": "uint24"
            },
            {
              "internalType": "uint48",
              "name": "lockedUntil",
              "type": "uint48"
            },
            {
              "internalType": "address payable",
              "name": "beneficiary",
              "type": "address"
            },
            {
              "internalType": "contract IJBSplitAllocator",
              "name": "allocator",
              "type": "address"
            },
            {
              "internalType": "uint56",
              "name": "projectId",
              "type": "uint56"
            }
          ],
          "internalType": "struct JBSplit[]",
          "name": "_reservedTokenSplits",
          "type": "tuple[]"
        },
        {
          "internalType": "contract IJBTerminal",
          "name": "_terminal",
          "type": "address"
        }
      ],
      "name": "launchProjectFor",
      "outputs": [
        {
          "internalType": "uint256",
          "name": "projectId",
          "type": "uint256"
        }
      ],
      "stateMutability": "nonpayable",
      "type": "function"
    },
    {
      "inputs": [
        {
          "internalType": "uint256",
          "name": "_projectId",
          "type": "uint256"
        },
        {
          "internalType": "contract IJBController",
          "name": "_to",
          "type": "address"
        }
      ],
      "name": "migrate",
      "outputs": [],
      "stateMutability": "nonpayable",
      "type": "function"
    },
    {
      "inputs": [
        {
          "internalType": "uint256",
          "name": "_projectId",
          "type": "uint256"
        },
        {
          "internalType": "uint256",
          "name": "_tokenCount",
          "type": "uint256"
        },
        {
          "internalType": "address",
          "name": "_beneficiary",
          "type": "address"
        },
        {
          "internalType": "string",
          "name": "_memo",
          "type": "string"
        },
        {
          "internalType": "bool",
          "name": "_preferClaimedTokens",
          "type": "bool"
        },
        {
          "internalType": "uint256",
          "name": "_reservedRate",
          "type": "uint256"
        }
      ],
      "name": "mintTokensOf",
      "outputs": [
        {
          "internalType": "uint256",
          "name": "beneficiaryTokenCount",
          "type": "uint256"
        }
      ],
      "stateMutability": "nonpayable",
      "type": "function"
    },
    {
      "inputs": [],
      "name": "operatorStore",
      "outputs": [
        {
          "internalType": "contract IJBOperatorStore",
          "name": "",
          "type": "address"
        }
      ],
      "stateMutability": "view",
      "type": "function"
    },
    {
      "inputs": [
        {
          "internalType": "uint256",
          "name": "",
          "type": "uint256"
        },
        {
          "internalType": "uint256",
          "name": "",
          "type": "uint256"
        },
        {
          "internalType": "contract IJBTerminal",
          "name": "",
          "type": "address"
        }
      ],
      "name": "overflowAllowanceOf",
      "outputs": [
        {
          "internalType": "uint256",
          "name": "",
          "type": "uint256"
        }
      ],
      "stateMutability": "view",
      "type": "function"
    },
    {
      "inputs": [],
      "name": "owner",
      "outputs": [
        {
          "internalType": "address",
          "name": "",
          "type": "address"
        }
      ],
      "stateMutability": "view",
      "type": "function"
    },
    {
      "inputs": [
        {
          "internalType": "uint256",
          "name": "_projectId",
          "type": "uint256"
        },
        {
          "internalType": "contract IJBController",
          "name": "",
          "type": "address"
        }
      ],
      "name": "prepForMigrationOf",
      "outputs": [],
      "stateMutability": "nonpayable",
      "type": "function"
    },
    {
      "inputs": [],
      "name": "projects",
      "outputs": [
        {
          "internalType": "contract IJBProjects",
          "name": "",
          "type": "address"
        }
      ],
      "stateMutability": "view",
      "type": "function"
    },
    {
      "inputs": [
        {
          "internalType": "uint256",
          "name": "_projectId",
          "type": "uint256"
        },
        {
          "components": [
            {
              "internalType": "uint256",
              "name": "target",
              "type": "uint256"
            },
            {
              "internalType": "uint256",
              "name": "currency",
              "type": "uint256"
            },
            {
              "internalType": "uint256",
              "name": "duration",
              "type": "uint256"
            },
            {
              "internalType": "uint256",
              "name": "weight",
              "type": "uint256"
            },
            {
              "internalType": "uint256",
              "name": "discountRate",
              "type": "uint256"
            },
            {
              "internalType": "contract IJBFundingCycleBallot",
              "name": "ballot",
              "type": "address"
            }
          ],
          "internalType": "struct JBFundingCycleData",
          "name": "_data",
          "type": "tuple"
        },
        {
          "components": [
            {
              "internalType": "uint256",
              "name": "reservedRate",
              "type": "uint256"
            },
            {
              "internalType": "uint256",
              "name": "redemptionRate",
              "type": "uint256"
            },
            {
              "internalType": "uint256",
              "name": "ballotRedemptionRate",
              "type": "uint256"
            },
            {
              "internalType": "bool",
              "name": "pausePay",
              "type": "bool"
            },
            {
              "internalType": "bool",
              "name": "pauseWithdrawals",
              "type": "bool"
            },
            {
              "internalType": "bool",
              "name": "pauseRedeem",
              "type": "bool"
            },
            {
              "internalType": "bool",
              "name": "pauseMint",
              "type": "bool"
            },
            {
              "internalType": "bool",
              "name": "pauseBurn",
              "type": "bool"
            },
            {
              "internalType": "bool",
              "name": "allowTerminalMigration",
              "type": "bool"
            },
            {
              "internalType": "bool",
              "name": "allowControllerMigration",
              "type": "bool"
            },
            {
              "internalType": "bool",
              "name": "holdFees",
              "type": "bool"
            },
            {
              "internalType": "bool",
              "name": "useDataSourceForPay",
              "type": "bool"
            },
            {
              "internalType": "bool",
              "name": "useDataSourceForRedeem",
              "type": "bool"
            },
            {
              "internalType": "contract IJBFundingCycleDataSource",
              "name": "dataSource",
              "type": "address"
            }
          ],
          "internalType": "struct JBFundingCycleMetadata",
          "name": "_metadata",
          "type": "tuple"
        },
        {
          "components": [
            {
              "internalType": "contract IJBTerminal",
              "name": "terminal",
              "type": "address"
            },
            {
              "internalType": "uint256",
              "name": "amount",
              "type": "uint256"
            }
          ],
          "internalType": "struct JBOverflowAllowance[]",
          "name": "_overflowAllowances",
          "type": "tuple[]"
        },
        {
          "components": [
            {
              "internalType": "bool",
              "name": "preferClaimed",
              "type": "bool"
            },
            {
              "internalType": "uint24",
              "name": "percent",
              "type": "uint24"
            },
            {
              "internalType": "uint48",
              "name": "lockedUntil",
              "type": "uint48"
            },
            {
              "internalType": "address payable",
              "name": "beneficiary",
              "type": "address"
            },
            {
              "internalType": "contract IJBSplitAllocator",
              "name": "allocator",
              "type": "address"
            },
            {
              "internalType": "uint56",
              "name": "projectId",
              "type": "uint56"
            }
          ],
          "internalType": "struct JBSplit[]",
          "name": "_payoutSplits",
          "type": "tuple[]"
        },
        {
          "components": [
            {
              "internalType": "bool",
              "name": "preferClaimed",
              "type": "bool"
            },
            {
              "internalType": "uint24",
              "name": "percent",
              "type": "uint24"
            },
            {
              "internalType": "uint48",
              "name": "lockedUntil",
              "type": "uint48"
            },
            {
              "internalType": "address payable",
              "name": "beneficiary",
              "type": "address"
            },
            {
              "internalType": "contract IJBSplitAllocator",
              "name": "allocator",
              "type": "address"
            },
            {
              "internalType": "uint56",
              "name": "projectId",
              "type": "uint56"
            }
          ],
          "internalType": "struct JBSplit[]",
          "name": "_reservedTokenSplits",
          "type": "tuple[]"
        }
      ],
      "name": "reconfigureFundingCyclesOf",
      "outputs": [
        {
          "internalType": "uint256",
          "name": "",
          "type": "uint256"
        }
      ],
      "stateMutability": "nonpayable",
      "type": "function"
    },
    {
      "inputs": [],
      "name": "renounceOwnership",
      "outputs": [],
      "stateMutability": "nonpayable",
      "type": "function"
    },
    {
      "inputs": [
        {
          "internalType": "uint256",
          "name": "_projectId",
          "type": "uint256"
        },
        {
          "internalType": "uint256",
          "name": "_reservedRate",
          "type": "uint256"
        }
      ],
      "name": "reservedTokenBalanceOf",
      "outputs": [
        {
          "internalType": "uint256",
          "name": "",
          "type": "uint256"
        }
      ],
      "stateMutability": "view",
      "type": "function"
    },
    {
      "inputs": [
        {
          "internalType": "uint256",
          "name": "_fee",
          "type": "uint256"
        }
      ],
      "name": "setFee",
      "outputs": [],
      "stateMutability": "nonpayable",
      "type": "function"
    },
    {
      "inputs": [
        {
          "internalType": "uint256",
          "name": "_projectId",
          "type": "uint256"
        },
        {
          "internalType": "uint256",
          "name": "_amount",
          "type": "uint256"
        }
      ],
      "name": "signalWithdrawlFrom",
      "outputs": [
        {
          "components": [
            {
              "internalType": "uint256",
              "name": "id",
              "type": "uint256"
            },
            {
              "internalType": "uint256",
              "name": "projectId",
              "type": "uint256"
            },
            {
              "internalType": "uint256",
              "name": "number",
              "type": "uint256"
            },
            {
              "internalType": "uint256",
              "name": "basedOn",
              "type": "uint256"
            },
            {
              "internalType": "uint256",
              "name": "configured",
              "type": "uint256"
            },
            {
              "internalType": "uint256",
              "name": "weight",
              "type": "uint256"
            },
            {
              "internalType": "contract IJBFundingCycleBallot",
              "name": "ballot",
              "type": "address"
            },
            {
              "internalType": "uint256",
              "name": "start",
              "type": "uint256"
            },
            {
              "internalType": "uint256",
              "name": "duration",
              "type": "uint256"
            },
            {
              "internalType": "uint256",
              "name": "target",
              "type": "uint256"
            },
            {
              "internalType": "uint256",
              "name": "currency",
              "type": "uint256"
            },
            {
              "internalType": "uint256",
              "name": "fee",
              "type": "uint256"
            },
            {
              "internalType": "uint256",
              "name": "discountRate",
              "type": "uint256"
            },
            {
              "internalType": "uint256",
              "name": "tapped",
              "type": "uint256"
            },
            {
              "internalType": "uint256",
              "name": "metadata",
              "type": "uint256"
            }
          ],
          "internalType": "struct JBFundingCycle",
          "name": "",
          "type": "tuple"
        }
      ],
      "stateMutability": "nonpayable",
      "type": "function"
    },
    {
      "inputs": [],
      "name": "splitsStore",
      "outputs": [
        {
          "internalType": "contract IJBSplitsStore",
          "name": "",
          "type": "address"
        }
      ],
      "stateMutability": "view",
      "type": "function"
    },
    {
      "inputs": [],
      "name": "tokenStore",
      "outputs": [
        {
          "internalType": "contract IJBTokenStore",
          "name": "",
          "type": "address"
        }
      ],
      "stateMutability": "view",
      "type": "function"
    },
    {
      "inputs": [
        {
          "internalType": "address",
          "name": "newOwner",
          "type": "address"
        }
      ],
      "name": "transferOwnership",
      "outputs": [],
      "stateMutability": "nonpayable",
      "type": "function"
    }
  ],
  "transactionHash": "0x8c73d182f475265e7fd7678063c3f97d44be478f578d322235f45d96de7e0916",
  "args": [
    "0x21c1E45E7EBC41f3ED0aB6660204d63c911c93a9",
    "0x53e1FD0CA79fDC56502E0bba68A8D9b267ABc730",
    "0x78CDd6fACE27d184634E17a85C9F6B43902EF5E4",
    "0x9b8F3F633f8A1A4A1248AdefCd633fCa0EC5C22e",
    "0x1fca8498Bfe76d1252A6F4cA0F3e9BFA6519Cd23",
    "0x6AeC1Fb1190586F5e9C0D5c1B22E15Fd872fC46E",
    "0x69C6026e3938adE9e1ddE8Ff6A37eC96595bF1e1"
  ],
  "solcInputHash": "12ce77e8870d3973a4bc817761b50cf5",
  "bytecode": "0x610140604052600a6004553480156200001757600080fd5b5060405162004f8838038062004f888339810160408190526200003a91620001d3565b6001600160601b0319606086811b821660805288901b1660a05262000066620000603390565b620000ae565b600180556001600160601b0319606087811b821660c05285811b821660e05284811b82166101005283901b1661012052620000a181620000fe565b5050505050505062000294565b600080546001600160a01b038381166001600160a01b0319831681178455604051919092169283917f8be0079c531659141344cd1fd0a4f28419497f9722a3daafe3b4186f6b6457e09190a35050565b6000546001600160a01b031633146200015e5760405162461bcd60e51b815260206004820181905260248201527f4f776e61626c653a2063616c6c6572206973206e6f7420746865206f776e657260448201526064015b60405180910390fd5b6001600160a01b038116620001c55760405162461bcd60e51b815260206004820152602660248201527f4f776e61626c653a206e6577206f776e657220697320746865207a65726f206160448201526564647265737360d01b606482015260840162000155565b620001d081620000ae565b50565b600080600080600080600060e0888a031215620001ef57600080fd5b8751620001fc816200027e565b60208901519097506200020f816200027e565b604089015190965062000222816200027e565b606089015190955062000235816200027e565b608089015190945062000248816200027e565b60a08901519093506200025b816200027e565b60c08901519092506200026e816200027e565b8091505092959891949750929550565b6001600160a01b0381168114620001d057600080fd5b60805160601c60a05160601c60c05160601c60e05160601c6101005160601c6101205160601c614b7362000415600039600081816101bc01528181612d2801528181612dde015261357a015260008181610299015281816109e5015281816115b70152818161186701528181611eac015281816128f2015281816131820152818161337f0152613694015260008181610272015281816107a7015281816113c101528181611d910152818161243601528181612c2a01526130bd0152600081816102db01528181610ad901528181610f420152818161193b0152818161262501528181613272015261371a015260008181610353015281816105860152818161065f01528181610be301528181610cbc0152818161111a015281816111f301528181611a450152611b1e01526000818161037a0152818161047701528181610883015281816110200152818161149d0152818161175a01528181611c820152818161203a01528181612325015281816126ea01526127c30152614b736000f3fe608060405234801561001057600080fd5b50600436106101775760003560e01c8063715018a6116100d8578063ad007d631161008c578063e867c59c11610066578063e867c59c146103a5578063f033b3b4146103b8578063f2fde38b146103cb57600080fd5b8063ad007d631461034e578063c41c2f2414610375578063ddca3f431461039c57600080fd5b80638da5cb5b116100bd5780638da5cb5b146102fd578063974698f71461031b578063a90145ee1461033b57600080fd5b8063715018a6146102ce5780638b79543c146102d657600080fd5b8063405b84fa1161012f578063557e715511610114578063557e71551461026d578063619306301461029457806369fe0e2d146102bb57600080fd5b8063405b84fa146102295780635172a2bf1461023c57600080fd5b80632bdfe004116101605780632bdfe004146101b7578063369e6f34146102035780633e8c615b1461021657600080fd5b80631665bc0f1461017c57806322910eed14610191575b600080fd5b61018f61018a366004613d0c565b6103de565b005b6101a461019f366004614198565b610aa7565b6040519081526020015b60405180910390f35b6101de7f000000000000000000000000000000000000000000000000000000000000000081565b60405173ffffffffffffffffffffffffffffffffffffffff90911681526020016101ae565b6101a4610211366004614272565b610eb9565b61018f6102243660046140ab565b611714565b61018f6102373660046140ab565b61190c565b6101a461024a3660046142f9565b600360209081526000938452604080852082529284528284209052825290205481565b6101de7f000000000000000000000000000000000000000000000000000000000000000081565b6101de7f000000000000000000000000000000000000000000000000000000000000000081565b61018f6102c9366004614079565b6120f4565b61018f6121ec565b6101de7f000000000000000000000000000000000000000000000000000000000000000081565b60005473ffffffffffffffffffffffffffffffffffffffff166101de565b61032e610329366004614250565b61225f565b6040516101ae91906143fc565b6101a4610349366004613c03565b6124d0565b6101de7f000000000000000000000000000000000000000000000000000000000000000081565b6101de7f000000000000000000000000000000000000000000000000000000000000000081565b6101a460045481565b6101a46103b33660046140db565b61283e565b6101a46103c6366004614250565b6128ad565b61018f6103d9366004613bc9565b61298d565b600260015414156104365760405162461bcd60e51b815260206004820152601f60248201527f5265656e7472616e637947756172643a207265656e7472616e742063616c6c0060448201526064015b60405180910390fd5b60026001556040517f898370ee0000000000000000000000000000000000000000000000000000000081526004810186905233602482015286908690600e907f000000000000000000000000000000000000000000000000000000000000000073ffffffffffffffffffffffffffffffffffffffff169063898370ee9060440160206040518083038186803b1580156104ce57600080fd5b505afa1580156104e2573d6000803e3d6000fd5b505050506040513d601f19601f820116820180604052508101906105069190613e9f565b808061052757503373ffffffffffffffffffffffffffffffffffffffff8516145b8061060057506040517fc161c93f00000000000000000000000000000000000000000000000000000000815233600482015273ffffffffffffffffffffffffffffffffffffffff858116602483015260448201859052606482018490527f0000000000000000000000000000000000000000000000000000000000000000169063c161c93f9060840160206040518083038186803b1580156105c857600080fd5b505afa1580156105dc573d6000803e3d6000fd5b505050506040513d601f19601f820116820180604052508101906106009190613e9f565b806106d957506040517fc161c93f00000000000000000000000000000000000000000000000000000000815233600482015273ffffffffffffffffffffffffffffffffffffffff858116602483015260006044830152606482018490527f0000000000000000000000000000000000000000000000000000000000000000169063c161c93f9060840160206040518083038186803b1580156106a157600080fd5b505afa1580156106b5573d6000803e3d6000fd5b505050506040513d601f19601f820116820180604052508101906106d99190613e9f565b6107255760405162461bcd60e51b815260206004820152601860248201527f4f706572617461626c653a20554e415554484f52495a45440000000000000000604482015260640161042d565b600088116107755760405162461bcd60e51b815260206004820152600b60248201527f307833323a204e4f5f4f50000000000000000000000000000000000000000000604482015260640161042d565b6040517f43a266c2000000000000000000000000000000000000000000000000000000008152600481018a90526000907f000000000000000000000000000000000000000000000000000000000000000073ffffffffffffffffffffffffffffffffffffffff16906343a266c2906024016101e06040518083038186803b1580156107ff57600080fd5b505afa158015610813573d6000803e3d6000fd5b505050506040513d601f19601f820116820180604052508101906108379190613fb7565b6101c0810151909150602c1c60011615158061091257506040517f898370ee000000000000000000000000000000000000000000000000000000008152600481018b90523360248201527f000000000000000000000000000000000000000000000000000000000000000073ffffffffffffffffffffffffffffffffffffffff169063898370ee9060440160206040518083038186803b1580156108da57600080fd5b505afa1580156108ee573d6000803e3d6000fd5b505050506040513d601f19601f820116820180604052508101906109129190613e9f565b61095e5760405162461bcd60e51b815260206004820152600c60248201527f307833333a205041555345440000000000000000000000000000000000000000604482015260640161042d565b60008a815260026020526040902054610978908a9061491a565b60008b8152600260205260409081902091909155517f906ebd0f00000000000000000000000000000000000000000000000000000000815273ffffffffffffffffffffffffffffffffffffffff8c81166004830152602482018c9052604482018b905287151560648301527f0000000000000000000000000000000000000000000000000000000000000000169063906ebd0f90608401600060405180830381600087803b158015610a2957600080fd5b505af1158015610a3d573d6000803e3d6000fd5b50505050898b73ffffffffffffffffffffffffffffffffffffffff167fdf04e13ee4fcd48a81ab2fd114757093740a3efa9b6475d86e05878b4c59d0798b8b8b33604051610a8e9493929190614563565b60405180910390a3505060018055505050505050505050565b6040517f6352211e000000000000000000000000000000000000000000000000000000008152600481018790526000907f000000000000000000000000000000000000000000000000000000000000000073ffffffffffffffffffffffffffffffffffffffff1690636352211e9060240160206040518083038186803b158015610b3057600080fd5b505afa158015610b44573d6000803e3d6000fd5b505050506040513d601f19601f82011682018060405250810190610b689190613be6565b8760013373ffffffffffffffffffffffffffffffffffffffff84161480610c5d57506040517fc161c93f00000000000000000000000000000000000000000000000000000000815233600482015273ffffffffffffffffffffffffffffffffffffffff848116602483015260448201849052606482018390527f0000000000000000000000000000000000000000000000000000000000000000169063c161c93f9060840160206040518083038186803b158015610c2557600080fd5b505afa158015610c39573d6000803e3d6000fd5b505050506040513d601f19601f82011682018060405250810190610c5d9190613e9f565b80610d3657506040517fc161c93f00000000000000000000000000000000000000000000000000000000815233600482015273ffffffffffffffffffffffffffffffffffffffff848116602483015260006044830152606482018390527f0000000000000000000000000000000000000000000000000000000000000000169063c161c93f9060840160206040518083038186803b158015610cfe57600080fd5b505afa158015610d12573d6000803e3d6000fd5b505050506040513d601f19601f82011682018060405250810190610d369190613e9f565b610d825760405162461bcd60e51b815260206004820152601860248201527f4f706572617461626c653a20554e415554484f52495a45440000000000000000604482015260640161042d565b61271088351115610dd55760405162461bcd60e51b815260206004820152601760248201527f307835313a204241445f52455345525645445f52415445000000000000000000604482015260640161042d565b61271088602001351115610e2b5760405162461bcd60e51b815260206004820152601960248201527f307835323a204241445f524544454d5054494f4e5f5241544500000000000000604482015260640161042d565b61271088604001351115610e815760405162461bcd60e51b815260206004820181905260248201527f307835333a204241445f42414c4c4f545f524544454d5054494f4e5f52415445604482015260640161042d565b6000610e9a610e95368b90038b018b613ebc565b612a89565b9050610eaa8b8b838b8b8b612c25565b9b9a5050505050505050505050565b600060026001541415610f0e5760405162461bcd60e51b815260206004820152601f60248201527f5265656e7472616e637947756172643a207265656e7472616e742063616c6c00604482015260640161042d565b60026001556040517f6352211e000000000000000000000000000000000000000000000000000000008152600481018990527f000000000000000000000000000000000000000000000000000000000000000073ffffffffffffffffffffffffffffffffffffffff1690636352211e9060240160206040518083038186803b158015610f9957600080fd5b505afa158015610fad573d6000803e3d6000fd5b505050506040513d601f19601f82011682018060405250810190610fd19190613be6565b6040517f898370ee000000000000000000000000000000000000000000000000000000008152600481018a90523360248201528990600d9073ffffffffffffffffffffffffffffffffffffffff7f0000000000000000000000000000000000000000000000000000000000000000169063898370ee9060440160206040518083038186803b15801561106257600080fd5b505afa158015611076573d6000803e3d6000fd5b505050506040513d601f19601f8201168201806040525081019061109a9190613e9f565b80806110bb57503373ffffffffffffffffffffffffffffffffffffffff8516145b8061119457506040517fc161c93f00000000000000000000000000000000000000000000000000000000815233600482015273ffffffffffffffffffffffffffffffffffffffff858116602483015260448201859052606482018490527f0000000000000000000000000000000000000000000000000000000000000000169063c161c93f9060840160206040518083038186803b15801561115c57600080fd5b505afa158015611170573d6000803e3d6000fd5b505050506040513d601f19601f820116820180604052508101906111949190613e9f565b8061126d57506040517fc161c93f00000000000000000000000000000000000000000000000000000000815233600482015273ffffffffffffffffffffffffffffffffffffffff858116602483015260006044830152606482018490527f0000000000000000000000000000000000000000000000000000000000000000169063c161c93f9060840160206040518083038186803b15801561123557600080fd5b505afa158015611249573d6000803e3d6000fd5b505050506040513d601f19601f8201168201806040525081019061126d9190613e9f565b6112b95760405162461bcd60e51b815260206004820152601860248201527f4f706572617461626c653a20554e415554484f52495a45440000000000000000604482015260640161042d565b8561271014806112de575073ffffffffffffffffffffffffffffffffffffffff8a1615155b61132a5760405162461bcd60e51b815260206004820152601260248201527f307832663a205a45524f5f414444524553530000000000000000000000000000604482015260640161042d565b60008b1161137a5760405162461bcd60e51b815260206004820152600b60248201527f307833303a204e4f5f4f50000000000000000000000000000000000000000000604482015260640161042d565b6040517f43a266c2000000000000000000000000000000000000000000000000000000008152600481018d905260009073ffffffffffffffffffffffffffffffffffffffff7f000000000000000000000000000000000000000000000000000000000000000016906343a266c2906024016101e06040518083038186803b15801561140457600080fd5b505afa158015611418573d6000803e3d6000fd5b505050506040513d601f19601f8201168201806040525081019061143c9190613fb7565b6101c0810151909150602b1c60011615158061151757506040517f898370ee000000000000000000000000000000000000000000000000000000008152600481018e905233602482015273ffffffffffffffffffffffffffffffffffffffff7f0000000000000000000000000000000000000000000000000000000000000000169063898370ee9060440160206040518083038186803b1580156114df57600080fd5b505afa1580156114f3573d6000803e3d6000fd5b505050506040513d601f19601f820116820180604052508101906115179190613e9f565b6115635760405162461bcd60e51b815260206004820152600c60248201527f307833313a205041555345440000000000000000000000000000000000000000604482015260640161042d565b86612710141561159b5760008d815260026020526040902054611587908d9061491a565b60008e8152600260205260409020556116a9565b6115b38c6115ab8961271061498e565b612710612f70565b95507f000000000000000000000000000000000000000000000000000000000000000073ffffffffffffffffffffffffffffffffffffffff1663ceddd3e48c8f898c6040518563ffffffff1660e01b8152600401611644949392919073ffffffffffffffffffffffffffffffffffffffff949094168452602084019290925260408301521515606082015260800190565b600060405180830381600087803b15801561165e57600080fd5b505af1158015611672573d6000803e3d6000fd5b5050505086600014156116a95760008d81526002602052604090205461169990879061488e565b60008e8152600260205260409020555b8b8d8c73ffffffffffffffffffffffffffffffffffffffff167f795e99b6853d7eafe7c0ccc6fb02e87770a8284e2be638ef327b6347587bde2c8d8d8c336040516116f794939291906143bb565b60405180910390a450506001805550919998505050505050505050565b6040517f5dd8f6aa00000000000000000000000000000000000000000000000000000000815260048101839052309073ffffffffffffffffffffffffffffffffffffffff7f00000000000000000000000000000000000000000000000000000000000000001690635dd8f6aa9060240160206040518083038186803b15801561179c57600080fd5b505afa1580156117b0573d6000803e3d6000fd5b505050506040513d601f19601f820116820180604052508101906117d49190613be6565b73ffffffffffffffffffffffffffffffffffffffff1614156118385760405162461bcd60e51b815260206004820152600b60248201527f307833343a204e4f5f4f50000000000000000000000000000000000000000000604482015260640161042d565b6040517f75b0d9cd000000000000000000000000000000000000000000000000000000008152600481018390527f000000000000000000000000000000000000000000000000000000000000000073ffffffffffffffffffffffffffffffffffffffff16906375b0d9cd9060240160206040518083038186803b1580156118be57600080fd5b505afa1580156118d2573d6000803e3d6000fd5b505050506040513d601f19601f820116820180604052508101906118f69190614092565b6000928352600260205260409092209190915550565b6040517f6352211e000000000000000000000000000000000000000000000000000000008152600481018390527f000000000000000000000000000000000000000000000000000000000000000073ffffffffffffffffffffffffffffffffffffffff1690636352211e9060240160206040518083038186803b15801561199257600080fd5b505afa1580156119a6573d6000803e3d6000fd5b505050506040513d601f19601f820116820180604052508101906119ca9190613be6565b8260043373ffffffffffffffffffffffffffffffffffffffff84161480611abf57506040517fc161c93f00000000000000000000000000000000000000000000000000000000815233600482015273ffffffffffffffffffffffffffffffffffffffff848116602483015260448201849052606482018390527f0000000000000000000000000000000000000000000000000000000000000000169063c161c93f9060840160206040518083038186803b158015611a8757600080fd5b505afa158015611a9b573d6000803e3d6000fd5b505050506040513d601f19601f82011682018060405250810190611abf9190613e9f565b80611b9857506040517fc161c93f00000000000000000000000000000000000000000000000000000000815233600482015273ffffffffffffffffffffffffffffffffffffffff848116602483015260006044830152606482018390527f0000000000000000000000000000000000000000000000000000000000000000169063c161c93f9060840160206040518083038186803b158015611b6057600080fd5b505afa158015611b74573d6000803e3d6000fd5b505050506040513d601f19601f82011682018060405250810190611b989190613e9f565b611be45760405162461bcd60e51b815260206004820152601860248201527f4f706572617461626c653a20554e415554484f52495a45440000000000000000604482015260640161042d565b60026001541415611c375760405162461bcd60e51b815260206004820152601f60248201527f5265656e7472616e637947756172643a207265656e7472616e742063616c6c00604482015260640161042d565b60026001556040517f5dd8f6aa00000000000000000000000000000000000000000000000000000000815260048101869052309073ffffffffffffffffffffffffffffffffffffffff7f00000000000000000000000000000000000000000000000000000000000000001690635dd8f6aa9060240160206040518083038186803b158015611cc457600080fd5b505afa158015611cd8573d6000803e3d6000fd5b505050506040513d601f19601f82011682018060405250810190611cfc9190613be6565b73ffffffffffffffffffffffffffffffffffffffff1614611d5f5760405162461bcd60e51b815260206004820152600b60248201527f307833353a204e4f5f4f50000000000000000000000000000000000000000000604482015260640161042d565b6040517f43a266c2000000000000000000000000000000000000000000000000000000008152600481018690526000907f000000000000000000000000000000000000000000000000000000000000000073ffffffffffffffffffffffffffffffffffffffff16906343a266c2906024016101e06040518083038186803b158015611de957600080fd5b505afa158015611dfd573d6000803e3d6000fd5b505050506040513d601f19601f82011682018060405250810190611e219190613fb7565b6101c0810151909150602e1c60011615611e7d5760405162461bcd60e51b815260206004820152601160248201527f307833363a204e4f545f414c4c4f574544000000000000000000000000000000604482015260640161042d565b6040517f75b0d9cd000000000000000000000000000000000000000000000000000000008152600481018790527f000000000000000000000000000000000000000000000000000000000000000073ffffffffffffffffffffffffffffffffffffffff16906375b0d9cd9060240160206040518083038186803b158015611f0357600080fd5b505afa158015611f17573d6000803e3d6000fd5b505050506040513d601f19601f82011682018060405250810190611f3b9190614092565b60008781526002602052604090205414611f6a57611f688660405180602001604052806000815250613074565b505b6040517f3e8c615b0000000000000000000000000000000000000000000000000000000081526004810187905230602482015273ffffffffffffffffffffffffffffffffffffffff861690633e8c615b90604401600060405180830381600087803b158015611fd857600080fd5b505af1158015611fec573d6000803e3d6000fd5b50506040517f714e7f320000000000000000000000000000000000000000000000000000000081526004810189905273ffffffffffffffffffffffffffffffffffffffff88811660248301527f000000000000000000000000000000000000000000000000000000000000000016925063714e7f329150604401600060405180830381600087803b15801561208057600080fd5b505af1158015612094573d6000803e3d6000fd5b50506040805173ffffffffffffffffffffffffffffffffffffffff891681523360208201528993507f01f954abace731a88ab86e71186040cc2be49fe517ea06bc0d24f25b82b8345692500160405180910390a250506001805550505050565b60005473ffffffffffffffffffffffffffffffffffffffff16331461215b5760405162461bcd60e51b815260206004820181905260248201527f4f776e61626c653a2063616c6c6572206973206e6f7420746865206f776e6572604482015260640161042d565b600a8111156121ac5760405162461bcd60e51b815260206004820152600d60248201527f307833363a204241445f46454500000000000000000000000000000000000000604482015260640161042d565b6004819055604080518281523360208201527fd7414e590e1cb532989ab2a34c8f4c2c17f7ab6f006efeeaef2e87cd5008c202910160405180910390a150565b60005473ffffffffffffffffffffffffffffffffffffffff1633146122535760405162461bcd60e51b815260206004820181905260248201527f4f776e61626c653a2063616c6c6572206973206e6f7420746865206f776e6572604482015260640161042d565b61225d6000613440565b565b6122ee604051806101e00160405280600081526020016000815260200160008152602001600081526020016000815260200160008152602001600073ffffffffffffffffffffffffffffffffffffffff16815260200160008152602001600081526020016000815260200160008152602001600081526020016000815260200160008152602001600081525090565b6040517f898370ee0000000000000000000000000000000000000000000000000000000081526004810184905233602482015283907f000000000000000000000000000000000000000000000000000000000000000073ffffffffffffffffffffffffffffffffffffffff169063898370ee9060440160206040518083038186803b15801561237c57600080fd5b505afa158015612390573d6000803e3d6000fd5b505050506040513d601f19601f820116820180604052508101906123b49190613e9f565b6124005760405162461bcd60e51b815260206004820152601260248201527f307835303a20554e415554484f52495a45440000000000000000000000000000604482015260640161042d565b6040517fa7f166b500000000000000000000000000000000000000000000000000000000815260048101859052602481018490527f000000000000000000000000000000000000000000000000000000000000000073ffffffffffffffffffffffffffffffffffffffff169063a7f166b5906044016101e060405180830381600087803b15801561249057600080fd5b505af11580156124a4573d6000803e3d6000fd5b505050506040513d601f19601f820116820180604052508101906124c89190613fb7565b949350505050565b6000612710863511156125255760405162461bcd60e51b815260206004820152601760248201527f307833373a204241445f52455345525645445f52415445000000000000000000604482015260640161042d565b6127108660200135111561257b5760405162461bcd60e51b815260206004820152601960248201527f307833383a204241445f524544454d5054494f4e5f5241544500000000000000604482015260640161042d565b612710866040013511156125d15760405162461bcd60e51b815260206004820181905260248201527f307833393a204241445f42414c4c4f545f524544454d5054494f4e5f52415445604482015260640161042d565b60006125e5610e9536899003890189613ebc565b6040517f733f012700000000000000000000000000000000000000000000000000000000815290915073ffffffffffffffffffffffffffffffffffffffff7f0000000000000000000000000000000000000000000000000000000000000000169063733f012790612660908f908f908f908f9060040161437b565b602060405180830381600087803b15801561267a57600080fd5b505af115801561268e573d6000803e3d6000fd5b505050506040513d601f19601f820116820180604052508101906126b29190614092565b6040517f714e7f32000000000000000000000000000000000000000000000000000000008152600481018290523060248201529092507f000000000000000000000000000000000000000000000000000000000000000073ffffffffffffffffffffffffffffffffffffffff169063714e7f3290604401600060405180830381600087803b15801561274357600080fd5b505af1158015612757573d6000803e3d6000fd5b5050505073ffffffffffffffffffffffffffffffffffffffff831615612820576040517f6eba4a0d0000000000000000000000000000000000000000000000000000000081526004810183905273ffffffffffffffffffffffffffffffffffffffff84811660248301527f00000000000000000000000000000000000000000000000000000000000000001690636eba4a0d90604401600060405180830381600087803b15801561280757600080fd5b505af115801561281b573d6000803e3d6000fd5b505050505b61282e828983898989612c25565b50509a9950505050505050505050565b6000600260015414156128935760405162461bcd60e51b815260206004820152601f60248201527f5265656e7472616e637947756172643a207265656e7472616e742063616c6c00604482015260640161042d565b60026001556128a28383613074565b600180559392505050565b6000828152600260205260408082205490517f75b0d9cd00000000000000000000000000000000000000000000000000000000815260048101859052612986919084907f000000000000000000000000000000000000000000000000000000000000000073ffffffffffffffffffffffffffffffffffffffff16906375b0d9cd9060240160206040518083038186803b15801561294957600080fd5b505afa15801561295d573d6000803e3d6000fd5b505050506040513d601f19601f820116820180604052508101906129819190614092565b6134b5565b9392505050565b60005473ffffffffffffffffffffffffffffffffffffffff1633146129f45760405162461bcd60e51b815260206004820181905260248201527f4f776e61626c653a2063616c6c6572206973206e6f7420746865206f776e6572604482015260640161042d565b73ffffffffffffffffffffffffffffffffffffffff8116612a7d5760405162461bcd60e51b815260206004820152602660248201527f4f776e61626c653a206e6577206f776e657220697320746865207a65726f206160448201527f6464726573730000000000000000000000000000000000000000000000000000606482015260840161042d565b612a8681613440565b50565b80516020808301516040840151606085015160189190911b60109290921b60089490941b939093171760011791612ac1576000612ac4565b60015b60ff16901b60ff168117905060218260800151612ae2576000612ae5565b60015b60ff16901b60ff168117905060228260a00151612b03576000612b06565b60015b60ff16901b60ff168117905060238260c00151612b24576000612b27565b60015b60ff16901b60ff168117905060248260e00151612b45576000612b48565b60015b60ff16901b60ff16811790506025826101000151612b67576000612b6a565b60015b60ff16901b60ff16811790506026826101200151612b89576000612b8c565b60015b60ff16901b60ff16811790506027826101400151612bab576000612bae565b60015b60ff16901b60ff16811790506028826101600151612bcd576000612bd0565b60015b60ff16901b60ff16811790506029826101800151612bef576000612bf2565b60015b6101a09093015173fffffffffffffffffffffffffffffc0000000000602a9190911b1660ff93841690911b909216171790565b6000807f000000000000000000000000000000000000000000000000000000000000000073ffffffffffffffffffffffffffffffffffffffff16639dada0d98989896004546040518563ffffffff1660e01b8152600401612c8994939291906145a4565b6101e060405180830381600087803b158015612ca457600080fd5b505af1158015612cb8573d6000803e3d6000fd5b505050506040513d601f19601f82011682018060405250810190612cdc9190613fb7565b845190915015612d955760808101516040517f3e00f98000000000000000000000000000000000000000000000000000000000815273ffffffffffffffffffffffffffffffffffffffff7f00000000000000000000000000000000000000000000000000000000000000001691633e00f98091612d62918c916001908a906004016146b8565b600060405180830381600087803b158015612d7c57600080fd5b505af1158015612d90573d6000803e3d6000fd5b505050505b825115612e4b5760808101516040517f3e00f98000000000000000000000000000000000000000000000000000000000815273ffffffffffffffffffffffffffffffffffffffff7f00000000000000000000000000000000000000000000000000000000000000001691633e00f98091612e18918c9160029089906004016146b8565b600060405180830381600087803b158015612e3257600080fd5b505af1158015612e46573d6000803e3d6000fd5b505050505b60005b8551811015612f63576000868281518110612e6b57612e6b614a75565b60209081029190910181015160008c8152600383526040808220608088015183528452808220835173ffffffffffffffffffffffffffffffffffffffff16835284529020549181015190925014612f50576020818101805160008d81526003845260408082206080890180518452908652818320875173ffffffffffffffffffffffffffffffffffffffff9081168552908752928290209390935591518251865190921682529251938101939093523390830152908b907ffcac803527061e0475e179cb5537831df4b93f982b586436e2c9073a50b2d0389060600160405180910390a35b5080612f5b816149a5565b915050612e4e565b5051979650505050505050565b600080807fffffffffffffffffffffffffffffffffffffffffffffffffffffffffffffffff8587098587029250828110838203039150508060001415612fc957838281612fbf57612fbf614a46565b0492505050612986565b83811061300c576040517f773cc18c000000000000000000000000000000000000000000000000000000008152600481018290526024810185905260440161042d565b600084868809600260036001881981018916988990049182028318808302840302808302840302808302840302808302840302808302840302918202909203026000889003889004909101858311909403939093029303949094049190911702949350505050565b6040517f43a266c200000000000000000000000000000000000000000000000000000000815260048101839052600090819073ffffffffffffffffffffffffffffffffffffffff7f000000000000000000000000000000000000000000000000000000000000000016906343a266c2906024016101e06040518083038186803b15801561310057600080fd5b505afa158015613114573d6000803e3d6000fd5b505050506040513d601f19601f820116820180604052508101906131389190613fb7565b6040517f75b0d9cd0000000000000000000000000000000000000000000000000000000081526004810186905290915060009073ffffffffffffffffffffffffffffffffffffffff7f000000000000000000000000000000000000000000000000000000000000000016906375b0d9cd9060240160206040518083038186803b1580156131c457600080fd5b505afa1580156131d8573d6000803e3d6000fd5b505050506040513d601f19601f820116820180604052508101906131fc9190614092565b6000868152600260205260409020546101c08401519192506132259160081c61ffff16836134b5565b92506132318382614902565b6000868152600260205260408082209290925590517f6352211e000000000000000000000000000000000000000000000000000000008152600481018790527f000000000000000000000000000000000000000000000000000000000000000073ffffffffffffffffffffffffffffffffffffffff1690636352211e9060240160206040518083038186803b1580156132c957600080fd5b505afa1580156132dd573d6000803e3d6000fd5b505050506040513d601f19601f820116820180604052508101906133019190613be6565b90506000841561331a57613315848661352f565b61331d565b60005b905080156133dc576040517fceddd3e400000000000000000000000000000000000000000000000000000000815273ffffffffffffffffffffffffffffffffffffffff83811660048301526024820189905260448201839052600060648301527f0000000000000000000000000000000000000000000000000000000000000000169063ceddd3e490608401600060405180830381600087803b1580156133c357600080fd5b505af11580156133d7573d6000803e3d6000fd5b505050505b8173ffffffffffffffffffffffffffffffffffffffff168785600001517f2a88b15c2f1b02de6e8fb5d10418f617d190e0cae82227aa8792a023fe8f24f788858b3360405161342e949392919061461b565b60405180910390a45050505092915050565b6000805473ffffffffffffffffffffffffffffffffffffffff8381167fffffffffffffffffffffffff0000000000000000000000000000000000000000831681178455604051919092169283917f8be0079c531659141344cd1fd0a4f28419497f9722a3daafe3b4186f6b6457e09190a35050565b60008060008512156134d9576134ca856149de565b6134d49084614902565b6134e3565b6134e3858461498e565b9050806134f4576000915050612986565b836127101415613505579050612986565b8061351c81612710613517888261498e565b612f70565b613526919061498e565b95945050505050565b602082015160808301516040517f69e11cc5000000000000000000000000000000000000000000000000000000008152600481019290925260248201526002604482015281906000907f000000000000000000000000000000000000000000000000000000000000000073ffffffffffffffffffffffffffffffffffffffff16906369e11cc59060640160006040518083038186803b1580156135d157600080fd5b505afa1580156135e5573d6000803e3d6000fd5b505050506040513d6000823e601f3d9081017fffffffffffffffffffffffffffffffffffffffffffffffffffffffffffffffe016820160405261362b9190810190613d88565b905060005b815181101561399b57600082828151811061364d5761364d614a75565b60200260200101519050600061367086836020015162ffffff1662989680612f70565b9050801561394357608082015173ffffffffffffffffffffffffffffffffffffffff7f000000000000000000000000000000000000000000000000000000000000000081169163ceddd3e491166137ae5760a084015166ffffffffffffff166136dd5783606001516137b4565b60a08401516040517f6352211e00000000000000000000000000000000000000000000000000000000815266ffffffffffffff90911660048201527f000000000000000000000000000000000000000000000000000000000000000073ffffffffffffffffffffffffffffffffffffffff1690636352211e9060240160206040518083038186803b15801561377157600080fd5b505afa158015613785573d6000803e3d6000fd5b505050506040513d601f19601f820116820180604052508101906137a99190613be6565b6137b4565b83608001515b60208a0151855160405160e085901b7fffffffff0000000000000000000000000000000000000000000000000000000016815273ffffffffffffffffffffffffffffffffffffffff909316600484015260248301919091526044820185905215156064820152608401600060405180830381600087803b15801561383757600080fd5b505af115801561384b573d6000803e3d6000fd5b50505050608082015173ffffffffffffffffffffffffffffffffffffffff1615613936576080820151602088015160a0840151606085015185516040517fc8e84e020000000000000000000000000000000000000000000000000000000081526004810187905260026024820152604481019490945266ffffffffffffff909216606484015273ffffffffffffffffffffffffffffffffffffffff908116608484015290151560a48301529091169063c8e84e029060c401600060405180830381600087803b15801561391d57600080fd5b505af1158015613931573d6000803e3d6000fd5b505050505b613940818661498e565b94505b602087015187516040517fcde151c6bf713769ed15b857d275c588534b6ede846994d19eae4a5d72a88b429061397e908690869033906144c1565b60405180910390a350508080613993906149a5565b915050613630565b505092915050565b80356139ae81614ad3565b919050565b600082601f8301126139c457600080fd5b813560206139d96139d48361486a565b61481b565b80838252828201915082860187848660061b89010111156139f957600080fd5b6000805b86811015613a4457604080848c031215613a15578283fd5b613a1d614787565b8435613a2881614ad3565b81528488013588820152865294860194909201916001016139fd565b509198975050505050505050565b600082601f830112613a6357600080fd5b81356020613a736139d48361486a565b8281528181019085830160c080860288018501891015613a9257600080fd5b6000805b87811015613b305782848c031215613aac578182fd5b613ab46147b0565b8435613abf81614af5565b815284880135613ace81614b03565b81890152604085810135613ae181614b14565b90820152606085810135613af481614ad3565b90820152608085810135613b0781614ad3565b9082015260a085810135613b1a81614b28565b9082015286529486019492820192600101613a96565b50929998505050505050505050565b80356139ae81614af5565b80516139ae81614ad3565b60008083601f840112613b6757600080fd5b50813567ffffffffffffffff811115613b7f57600080fd5b602083019150836020828501011115613b9757600080fd5b9250929050565b600060c08284031215613bb057600080fd5b50919050565b60006101c08284031215613bb057600080fd5b600060208284031215613bdb57600080fd5b813561298681614ad3565b600060208284031215613bf857600080fd5b815161298681614ad3565b6000806000806000806000806000806103608b8d031215613c2357600080fd5b613c2c8b6139a3565b995060208b0135985060408b013567ffffffffffffffff80821115613c5057600080fd5b613c5c8e838f01613b55565b909a509850889150613c718e60608f01613b9e565b9750613c818e6101208f01613bb6565b96506102e08d0135915080821115613c9857600080fd5b613ca48e838f016139b3565b95506103008d0135915080821115613cbb57600080fd5b613cc78e838f01613a52565b94506103208d0135915080821115613cde57600080fd5b50613ceb8d828e01613a52565b925050613cfb6103408c016139a3565b90509295989b9194979a5092959850565b60008060008060008060a08789031215613d2557600080fd5b8635613d3081614ad3565b95506020870135945060408701359350606087013567ffffffffffffffff811115613d5a57600080fd5b613d6689828a01613b55565b9094509250506080870135613d7a81614af5565b809150509295509295509295565b60006020808385031215613d9b57600080fd5b825167ffffffffffffffff811115613db257600080fd5b8301601f81018513613dc357600080fd5b8051613dd16139d48261486a565b8181528381019083850160c0808502860187018a1015613df057600080fd5b60009550855b85811015613e905781838c031215613e0c578687fd5b613e146147b0565b8351613e1f81614af5565b815283890151613e2e81614b03565b818a0152604084810151613e4181614b14565b90820152606084810151613e5481614ad3565b90820152608084810151613e6781614ad3565b9082015260a084810151613e7a81614b28565b9082015285529387019391810191600101613df6565b50919998505050505050505050565b600060208284031215613eb157600080fd5b815161298681614af5565b60006101c08284031215613ecf57600080fd5b613ed76147d3565b823581526020830135602082015260408301356040820152613efb60608401613b3f565b6060820152613f0c60808401613b3f565b6080820152613f1d60a08401613b3f565b60a0820152613f2e60c08401613b3f565b60c0820152613f3f60e08401613b3f565b60e0820152610100613f52818501613b3f565b90820152610120613f64848201613b3f565b90820152610140613f76848201613b3f565b90820152610160613f88848201613b3f565b90820152610180613f9a848201613b3f565b908201526101a0613fac8482016139a3565b908201529392505050565b60006101e08284031215613fca57600080fd5b613fd26147f7565b825181526020830151602082015260408301516040820152606083015160608201526080830151608082015260a083015160a082015261401460c08401613b4a565b60c082015260e08381015190820152610100808401519082015261012080840151908201526101408084015190820152610160808401519082015261018080840151908201526101a080840151908201526101c0928301519281019290925250919050565b60006020828403121561408b57600080fd5b5035919050565b6000602082840312156140a457600080fd5b5051919050565b600080604083850312156140be57600080fd5b8235915060208301356140d081614ad3565b809150509250929050565b600080604083850312156140ee57600080fd5b8235915060208084013567ffffffffffffffff8082111561410e57600080fd5b818601915086601f83011261412257600080fd5b81358181111561413457614134614aa4565b614164847fffffffffffffffffffffffffffffffffffffffffffffffffffffffffffffffe0601f8401160161481b565b9150808252878482850101111561417a57600080fd5b80848401858401376000848284010152508093505050509250929050565b60008060008060008061030087890312156141b257600080fd5b863595506141c38860208901613b9e565b94506141d28860e08901613bb6565b93506102a087013567ffffffffffffffff808211156141f057600080fd5b6141fc8a838b016139b3565b94506102c089013591508082111561421357600080fd5b61421f8a838b01613a52565b93506102e089013591508082111561423657600080fd5b5061424389828a01613a52565b9150509295509295509295565b6000806040838503121561426357600080fd5b50508035926020909101359150565b600080600080600080600060c0888a03121561428d57600080fd5b873596506020880135955060408801356142a681614ad3565b9450606088013567ffffffffffffffff8111156142c257600080fd5b6142ce8a828b01613b55565b90955093505060808801356142e281614af5565b8092505060a0880135905092959891949750929550565b60008060006060848603121561430e57600080fd5b8335925060208401359150604084013561432781614ad3565b809150509250925092565b8183528181602085013750600060208284010152600060207fffffffffffffffffffffffffffffffffffffffffffffffffffffffffffffffe0601f840116840101905092915050565b73ffffffffffffffffffffffffffffffffffffffff851681528360208201526060604082015260006143b1606083018486614332565b9695505050505050565b6060815260006143cf606083018688614332565b905083602083015273ffffffffffffffffffffffffffffffffffffffff8316604083015295945050505050565b60006101e082019050825182526020830151602083015260408301516040830152606083015160608301526080830151608083015260a083015160a083015260c083015161446260c084018273ffffffffffffffffffffffffffffffffffffffff169052565b5060e08381015190830152610100808401519083015261012080840151908301526101408084015190830152610160808401519083015261018080840151908301526101a080840151908301526101c092830151929091019190915290565b6101008101614539828680511515825262ffffff602082015116602083015265ffffffffffff6040820151166040830152606081015173ffffffffffffffffffffffffffffffffffffffff8082166060850152806080840151166080850152505066ffffffffffffff60a08201511660a08301525050565b8360c083015273ffffffffffffffffffffffffffffffffffffffff831660e0830152949350505050565b84815260606020820152600061457d606083018587614332565b905073ffffffffffffffffffffffffffffffffffffffff8316604083015295945050505050565b60006101208201905085825284356020830152602085013560408301526040850135606083015260608501356080830152608085013560a083015260a08501356145ed81614ad3565b73ffffffffffffffffffffffffffffffffffffffff1660c083015260e0820193909352610100015292915050565b84815260006020858184015260806040840152845180608085015260005b818110156146555786810183015185820160a001528201614639565b8181111561466757600060a083870101525b50601f017fffffffffffffffffffffffffffffffffffffffffffffffffffffffffffffffe016830160a00191506135269050606083018473ffffffffffffffffffffffffffffffffffffffff169052565b600060808201868352602086818501528560408501526080606085015281855180845260a086019150828701935060005b818110156147785761476583865180511515825262ffffff602082015116602083015265ffffffffffff6040820151166040830152606081015173ffffffffffffffffffffffffffffffffffffffff8082166060850152806080840151166080850152505066ffffffffffffff60a08201511660a08301525050565b9383019360c092909201916001016146e9565b50909998505050505050505050565b6040805190810167ffffffffffffffff811182821017156147aa576147aa614aa4565b60405290565b60405160c0810167ffffffffffffffff811182821017156147aa576147aa614aa4565b6040516101c0810167ffffffffffffffff811182821017156147aa576147aa614aa4565b6040516101e0810167ffffffffffffffff811182821017156147aa576147aa614aa4565b604051601f82017fffffffffffffffffffffffffffffffffffffffffffffffffffffffffffffffe016810167ffffffffffffffff8111828210171561486257614862614aa4565b604052919050565b600067ffffffffffffffff82111561488457614884614aa4565b5060051b60200190565b6000808212827f7fffffffffffffffffffffffffffffffffffffffffffffffffffffffffffffff038413811516156148c8576148c8614a17565b827f80000000000000000000000000000000000000000000000000000000000000000384128116156148fc576148fc614a17565b50500190565b6000821982111561491557614915614a17565b500190565b6000808312837f80000000000000000000000000000000000000000000000000000000000000000183128115161561495457614954614a17565b837f7fffffffffffffffffffffffffffffffffffffffffffffffffffffffffffffff01831381161561498857614988614a17565b50500390565b6000828210156149a0576149a0614a17565b500390565b60007fffffffffffffffffffffffffffffffffffffffffffffffffffffffffffffffff8214156149d7576149d7614a17565b5060010190565b60007f8000000000000000000000000000000000000000000000000000000000000000821415614a1057614a10614a17565b5060000390565b7f4e487b7100000000000000000000000000000000000000000000000000000000600052601160045260246000fd5b7f4e487b7100000000000000000000000000000000000000000000000000000000600052601260045260246000fd5b7f4e487b7100000000000000000000000000000000000000000000000000000000600052603260045260246000fd5b7f4e487b7100000000000000000000000000000000000000000000000000000000600052604160045260246000fd5b73ffffffffffffffffffffffffffffffffffffffff81168114612a8657600080fd5b8015158114612a8657600080fd5b62ffffff81168114612a8657600080fd5b65ffffffffffff81168114612a8657600080fd5b66ffffffffffffff81168114612a8657600080fdfea26469706673582212206c6c75531b5a4199b9ae6c9aa3ca83333aab0429377b236b692408ee129b246264736f6c63430008060033",
  "devdoc": {
    "details": " A project can transfer control from this contract to another allowed controller contract at any time. Inherits from: IJBController - general interface for the generic controller methods in this contract that interacts with funding cycles and tokens according to the Juicebox protocol's rules. JBOperatable - several functions in this contract can only be accessed by a project owner, or an address that has been preconfifigured to be an operator of the project. Ownable - includes convenience functionality for specifying an address that owns the contract, with modifiers that only allow access by the owner. ReentrencyGuard - several function in this contract shouldn't be accessible recursively.",
    "kind": "dev",
    "methods": {
      "burnTokensOf(address,uint256,uint256,string,bool)": {
        "details": "Only a token's holder, a designated operator, or a project's terminal's delegate can burn it.",
        "params": {
          "_holder": "The account that is having its tokens burned.",
          "_memo": "A memo to pass along to the emitted event.",
          "_preferClaimedTokens": "A flag indicating whether ERC20's should be burned first if they have been issued.",
          "_projectId": "The ID of the project to which the tokens being burned belong.",
          "_tokenCount": "The number of tokens to burn."
        }
      },
      "constructor": {
        "params": {
          "_directory": "A contract storing directories of terminals and controllers for each project.",
          "_fundingCycleStore": "A contract storing all funding cycle configurations.",
          "_operatorStore": "A contract storing operator assignments.",
          "_owner": "The address that will own the contract.",
          "_projects": "A contract which mints ERC-721's that represent project ownership and transfers.",
          "_splitsStore": "A contract that stores splits for each project.",
          "_tokenStore": "A contract that manages token minting and burning."
        }
      },
      "distributeReservedTokensOf(uint256,string)": {
        "params": {
          "_memo": "A memo to pass along to the emitted event.",
          "_projectId": "The ID of the project to which the reserved tokens belong."
        },
        "returns": {
          "_0": "The amount of minted reserved tokens."
        }
      },
      "launchProjectFor(address,bytes32,string,(uint256,uint256,uint256,uint256,uint256,address),(uint256,uint256,uint256,bool,bool,bool,bool,bool,bool,bool,bool,bool,bool,address),(address,uint256)[],(bool,uint24,uint48,address,address,uint56)[],(bool,uint24,uint48,address,address,uint56)[],address)": {
        "details": "Each operation within this transaction can be done in sequence separately.Anyone can deploy a project on an owner's behalf._data.target The amount that the project wants to payout during a funding cycle. Sent as a wad (18 decimals)._data.currency The currency of the `target`. Send 0 for ETH or 1 for USD._data.duration The duration of the funding cycle for which the `target` amount is needed. Measured in days. Send 0 for cycles that are reconfigurable at any time._data.discountRate A number from 0-10000 indicating how valuable a contribution to this funding cycle is compared to previous funding cycles. If it's 0, each funding cycle will have equal weight. If the number is 9000, a contribution to the next funding cycle will only give you 10% of tickets given to a contribution of the same amoutn during the current funding cycle. If the number is 10001, an non-recurring funding cycle will get made._data.ballot The ballot contract that will be used to approve subsequent reconfigurations. Must adhere to the IFundingCycleBallot interface._metadata.reservedRate A number from 0-10000 (0-100%) indicating the percentage of each contribution's newly minted tokens that will be reserved for the token splits._metadata.redemptionRate The rate from 0-10000 (0-100%) that tunes the bonding curve according to which a project's tokens can be redeemed for overflow. The bonding curve formula is https://www.desmos.com/calculator/sp9ru6zbpk where x is _count, o is _currentOverflow, s is _totalSupply, and r is _redemptionRate._metadata.ballotRedemptionRate The redemption rate to apply when there is an active ballot._metadata.pausePay Whether or not the pay functionality should be paused during this cycle._metadata.pauseWithdrawals Whether or not the withdraw functionality should be paused during this cycle._metadata.pauseRedeem Whether or not the redeem functionality should be paused during this cycle._metadata.pauseMint Whether or not the mint functionality should be paused during this cycle._metadata.pauseBurn Whether or not the burn functionality should be paused during this cycle._metadata.allowTerminalMigration Whether or not the terminal migration functionality should be paused during this cycle._metadata.allowControllerMigration Whether or not the controller migration functionality should be paused during this cycle._metadata.holdFees Whether or not fees should be held to be processed at a later time during this cycle._metadata.useDataSourceForPay Whether or not the data source should be used when processing a payment._metadata.useDataSourceForRedeem Whether or not the data source should be used when processing a redemption._metadata.dataSource A contract that exposes data that can be used within pay and redeem transactions. Must adhere to IJBFundingCycleDataSource.",
        "params": {
          "_data": "A JBFundingCycleData data structure that defines the project's first funding cycle. These properties will remain fixed for the duration of the funding cycle.",
          "_handle": "The project's unique handle. This can be updated any time by the owner of the project.",
          "_metadata": "A JBFundingCycleMetadata data structure specifying the controller specific params that a funding cycle can have.",
          "_metadataCid": "A link to associate with the project. This can be updated any time by the owner of the project.",
          "_overflowAllowances": "An array containing amounts, in wei (18 decimals), that a project can use from its own overflow on-demand for each payment terminal.",
          "_owner": "The address to set as the owner of the project. The project ERC-721 will be owned by this address.",
          "_payoutSplits": "An array of payout splits to set.",
          "_reservedTokenSplits": "An array of reserved token splits to set.",
          "_terminal": "A payment terminal to add for the project."
        },
        "returns": {
          "projectId": "The ID of the project."
        }
      },
      "migrate(uint256,address)": {
        "details": "Only a project's owner or a designated operator can migrate it.",
        "params": {
          "_projectId": "The ID of the project that will be migrated from this controller.",
          "_to": "The controller to which the project is migrating."
        }
      },
      "mintTokensOf(uint256,uint256,address,string,bool,uint256)": {
        "details": "Only a project's owner, a designated operator, or one of its terminal's delegate can mint its tokens.",
        "params": {
          "_beneficiary": "The account that the tokens are being minted for.",
          "_memo": "A memo to pass along to the emitted event.",
          "_preferClaimedTokens": "A flag indicating whether ERC20's should be minted if they have been issued.",
          "_projectId": "The ID of the project to which the tokens being minted belong.",
          "_reservedRate": "The reserved rate to use when minting tokens. A positive amount will reduce the token count minted to the beneficiary, instead being reserved for preprogrammed splits. This number is out of 10000.",
          "_tokenCount": "The amount of tokens to mint."
        },
        "returns": {
          "beneficiaryTokenCount": "The amount of tokens minted for the beneficiary."
        }
      },
      "owner()": {
        "details": "Returns the address of the current owner."
      },
      "prepForMigrationOf(uint256,address)": {
        "params": {
          "_projectId": "The ID of the project that will be migrated to this controller."
        }
      },
      "reconfigureFundingCyclesOf(uint256,(uint256,uint256,uint256,uint256,uint256,address),(uint256,uint256,uint256,bool,bool,bool,bool,bool,bool,bool,bool,bool,bool,address),(address,uint256)[],(bool,uint24,uint48,address,address,uint56)[],(bool,uint24,uint48,address,address,uint56)[])": {
        "details": "Only a project's owner or a designated operator can configure its funding cycles._data.target The amount that the project wants to payout during a funding cycle. Sent as a wad (18 decimals)._data.currency The currency of the `target`. Send 0 for ETH or 1 for USD._data.duration The duration of the funding cycle for which the `target` amount is needed. Measured in days. Send 0 for cycles that are reconfigurable at any time._data.discountRate A number from 0-10000 indicating how valuable a contribution to this funding cycle is compared to previous funding cycles. If it's 0, each funding cycle will have equal weight. If the number is 9000, a contribution to the next funding cycle will only give you 10% of tickets given to a contribution of the same amoutn during the current funding cycle. If the number is 10001, an non-recurring funding cycle will get made._data.ballot The ballot contract that will be used to approve subsequent reconfigurations. Must adhere to the IFundingCycleBallot interface._metadata.reservedRate A number from 0-10000 (0-100%) indicating the percentage of each contribution's newly minted tokens that will be reserved for the token splits._metadata.redemptionRate The rate from 0-10000 (0-100%) that tunes the bonding curve according to which a project's tokens can be redeemed for overflow. The bonding curve formula is https://www.desmos.com/calculator/sp9ru6zbpk where x is _count, o is _currentOverflow, s is _totalSupply, and r is _redemptionRate._metadata.ballotRedemptionRate The redemption rate to apply when there is an active ballot._metadata.pausePay Whether or not the pay functionality should be paused during this cycle._metadata.pauseWithdrawals Whether or not the withdraw functionality should be paused during this cycle._metadata.pauseRedeem Whether or not the redeem functionality should be paused during this cycle._metadata.pauseMint Whether or not the mint functionality should be paused during this cycle._metadata.pauseBurn Whether or not the burn functionality should be paused during this cycle._metadata.allowTerminalMigration Whether or not the terminal migration functionality should be paused during this cycle._metadata.allowControllerMigration Whether or not the controller migration functionality should be paused during this cycle._metadata.holdFees Whether or not fees should be held to be processed at a later time during this cycle._metadata.useDataSourceForPay Whether or not the data source should be used when processing a payment._metadata.useDataSourceForRedeem Whether or not the data source should be used when processing a redemption._metadata.dataSource A contract that exposes data that can be used within pay and redeem transactions. Must adhere to IJBFundingCycleDataSource.",
        "params": {
          "_data": "A JBFundingCycleData data structure that defines the project's funding cycle that will be queued. These properties will remain fixed for the duration of the funding cycle.",
          "_metadata": "A JBFundingCycleMetadata data structure specifying the controller specific params that a funding cycle can have.",
          "_overflowAllowances": "An array containing amounts, in wei (18 decimals), that a project can use from its own overflow on-demand for each payment terminal.",
          "_payoutSplits": "An array of payout splits to set.",
          "_projectId": "The ID of the project whose funding cycles are being reconfigured.",
          "_reservedTokenSplits": "An array of reserved token splits to set."
        },
        "returns": {
          "_0": "The ID of the funding cycle that was successfully configured."
        }
      },
      "renounceOwnership()": {
        "details": "Leaves the contract without owner. It will not be possible to call `onlyOwner` functions anymore. Can only be called by the current owner. NOTE: Renouncing ownership will leave the contract without an owner, thereby removing any functionality that is only available to the owner."
      },
      "reservedTokenBalanceOf(uint256,uint256)": {
        "params": {
          "_projectId": "The ID of the project to get a reserved token balance of.",
          "_reservedRate": "The reserved rate to use when making the calculation."
        },
        "returns": {
          "_0": "The current amount of reserved tokens."
        }
      },
      "setFee(uint256)": {
        "details": "Only the owner of this contract can change the fee.",
        "params": {
          "_fee": "The new fee."
        }
      },
      "signalWithdrawlFrom(uint256,uint256)": {
        "details": "Only a project's terminal can signal a withdrawal.",
        "params": {
          "_amount": "The amount being withdraw.",
          "_projectId": "The ID of the project that is being withdrawn from."
        }
      },
      "transferOwnership(address)": {
        "details": "Transfers ownership of the contract to a new account (`newOwner`). Can only be called by the current owner."
      }
    },
    "stateVariables": {
      "fee": {
        "details": " Out of 200."
      }
    },
    "version": 1
  },
  "userdoc": {
    "errors": {
      "PRBMath__MulDivOverflow(uint256,uint256)": [
        {
          "notice": "Emitted when the result overflows uint256."
        }
      ]
    },
    "kind": "user",
    "methods": {
      "burnTokensOf(address,uint256,uint256,string,bool)": {
        "notice": "Burns a token holder's supply."
      },
      "directory()": {
        "notice": " The directory of terminals and controllers for projects."
      },
      "distributeReservedTokensOf(uint256,string)": {
        "notice": "Distributes all outstanding reserved tokens for a project."
      },
      "fee()": {
        "notice": " The platform fee percent."
      },
      "fundingCycleStore()": {
        "notice": " The contract storing all funding cycle configurations."
      },
      "launchProjectFor(address,bytes32,string,(uint256,uint256,uint256,uint256,uint256,address),(uint256,uint256,uint256,bool,bool,bool,bool,bool,bool,bool,bool,bool,bool,address),(address,uint256)[],(bool,uint24,uint48,address,address,uint56)[],(bool,uint24,uint48,address,address,uint56)[],address)": {
        "notice": "Creates a project. This will mint an ERC-721 into the specified owner's account, configure a first funding cycle, and set up any splits."
      },
      "migrate(uint256,address)": {
        "notice": "Allows a project to migrate from this controller to another."
      },
      "mintTokensOf(uint256,uint256,address,string,bool,uint256)": {
        "notice": "Mint new token supply into an account."
      },
      "operatorStore()": {
        "notice": " A contract storing operator assignments."
      },
      "overflowAllowanceOf(uint256,uint256,address)": {
        "notice": " The amount of overflow that a project is allowed to tap into on-demand. _projectId The ID of the project to get the current overflow allowance of. _configuration The configuration of the during which the allowance applies. _terminal The terminal managing the overflow."
      },
      "prepForMigrationOf(uint256,address)": {
        "notice": "Allows other controllers to signal to this one that a migration is expected for the specified project."
      },
      "projects()": {
        "notice": " The Projects contract which mints ERC-721's that represent project ownership."
      },
      "reconfigureFundingCyclesOf(uint256,(uint256,uint256,uint256,uint256,uint256,address),(uint256,uint256,uint256,bool,bool,bool,bool,bool,bool,bool,bool,bool,bool,address),(address,uint256)[],(bool,uint24,uint48,address,address,uint56)[],(bool,uint24,uint48,address,address,uint56)[])": {
        "notice": "Configures the properties of the current funding cycle if the project hasn't distributed tokens yet, or sets the properties of the proposed funding cycle that will take effect once the current one expires if it is approved by the current funding cycle's ballot."
      },
      "reservedTokenBalanceOf(uint256,uint256)": {
        "notice": "Gets the amount of reserved tokens that a project has available to distribute."
      },
      "setFee(uint256)": {
        "notice": "Allows the fee to be updated for subsequent funding cycle configurations."
      },
      "signalWithdrawlFrom(uint256,uint256)": {
        "notice": "Signals that a project's funds are being withdrawn."
      },
      "splitsStore()": {
        "notice": " The contract that stores splits for each project."
      },
      "tokenStore()": {
        "notice": " The contract that manages token minting and burning."
      }
    },
    "notice": "Stitches together funding cycles and community tokens, making sure all activity is accounted for and correct.",
    "version": 1
  },
  "storageLayout": {
    "storage": [
      {
        "astId": 53,
        "contract": "contracts/v2/JBController.sol:JBController",
        "label": "_owner",
        "offset": 0,
        "slot": "0",
        "type": "t_address"
      },
      {
        "astId": 160,
        "contract": "contracts/v2/JBController.sol:JBController",
        "label": "_status",
        "offset": 0,
        "slot": "1",
        "type": "t_uint256"
      },
      {
        "astId": 15749,
        "contract": "contracts/v2/JBController.sol:JBController",
        "label": "_processedTokenTrackerOf",
        "offset": 0,
        "slot": "2",
        "type": "t_mapping(t_uint256,t_int256)"
      },
      {
        "astId": 15776,
        "contract": "contracts/v2/JBController.sol:JBController",
        "label": "overflowAllowanceOf",
        "offset": 0,
        "slot": "3",
        "type": "t_mapping(t_uint256,t_mapping(t_uint256,t_mapping(t_contract(IJBTerminal)25151,t_uint256)))"
      },
      {
        "astId": 15780,
        "contract": "contracts/v2/JBController.sol:JBController",
        "label": "fee",
        "offset": 0,
        "slot": "4",
        "type": "t_uint256"
      }
    ],
    "types": {
      "t_address": {
        "encoding": "inplace",
        "label": "address",
        "numberOfBytes": "20"
      },
      "t_contract(IJBTerminal)25151": {
        "encoding": "inplace",
        "label": "contract IJBTerminal",
        "numberOfBytes": "20"
      },
      "t_int256": {
        "encoding": "inplace",
        "label": "int256",
        "numberOfBytes": "32"
      },
      "t_mapping(t_contract(IJBTerminal)25151,t_uint256)": {
        "encoding": "mapping",
        "key": "t_contract(IJBTerminal)25151",
        "label": "mapping(contract IJBTerminal => uint256)",
        "numberOfBytes": "32",
        "value": "t_uint256"
      },
      "t_mapping(t_uint256,t_int256)": {
        "encoding": "mapping",
        "key": "t_uint256",
        "label": "mapping(uint256 => int256)",
        "numberOfBytes": "32",
        "value": "t_int256"
      },
      "t_mapping(t_uint256,t_mapping(t_contract(IJBTerminal)25151,t_uint256))": {
        "encoding": "mapping",
        "key": "t_uint256",
        "label": "mapping(uint256 => mapping(contract IJBTerminal => uint256))",
        "numberOfBytes": "32",
        "value": "t_mapping(t_contract(IJBTerminal)25151,t_uint256)"
      },
      "t_mapping(t_uint256,t_mapping(t_uint256,t_mapping(t_contract(IJBTerminal)25151,t_uint256)))": {
        "encoding": "mapping",
        "key": "t_uint256",
        "label": "mapping(uint256 => mapping(uint256 => mapping(contract IJBTerminal => uint256)))",
        "numberOfBytes": "32",
        "value": "t_mapping(t_uint256,t_mapping(t_contract(IJBTerminal)25151,t_uint256))"
      },
      "t_uint256": {
        "encoding": "inplace",
        "label": "uint256",
        "numberOfBytes": "32"
      }
    }
  }
}