{
  "address": "0xf56adc723D82218E86d5b5075d8c7B35F7B3625f",
  "abi": [
    {
      "inputs": [
        {
          "internalType": "contract IJBOperatorStore",
          "name": "_operatorStore",
          "type": "address"
        },
        {
          "internalType": "contract IJBProjects",
          "name": "_projects",
          "type": "address"
        },
        {
          "internalType": "contract IJBFundingCycleStore",
          "name": "_fundingCycleStore",
          "type": "address"
        },
        {
          "internalType": "contract IJBTokenStore",
          "name": "_tokenStore",
          "type": "address"
        },
        {
          "internalType": "contract IJBSplitsStore",
          "name": "_splitsStore",
          "type": "address"
        },
        {
          "internalType": "contract IJBDirectory",
          "name": "_directory",
          "type": "address"
        }
      ],
      "stateMutability": "nonpayable",
      "type": "constructor"
    },
    {
      "inputs": [
        {
          "internalType": "uint256",
          "name": "prod1",
          "type": "uint256"
        },
        {
          "internalType": "uint256",
          "name": "denominator",
          "type": "uint256"
        }
      ],
      "name": "PRBMath__MulDivOverflow",
      "type": "error"
    },
    {
      "anonymous": false,
      "inputs": [
        {
          "indexed": true,
          "internalType": "address",
          "name": "holder",
          "type": "address"
        },
        {
          "indexed": true,
          "internalType": "uint256",
          "name": "projectId",
          "type": "uint256"
        },
        {
          "indexed": false,
          "internalType": "uint256",
          "name": "count",
          "type": "uint256"
        },
        {
          "indexed": false,
          "internalType": "string",
          "name": "memo",
          "type": "string"
        },
        {
          "indexed": false,
          "internalType": "address",
          "name": "caller",
          "type": "address"
        }
      ],
      "name": "BurnTokens",
      "type": "event"
    },
    {
      "anonymous": false,
      "inputs": [
        {
          "indexed": true,
          "internalType": "uint256",
          "name": "fundingCycleId",
          "type": "uint256"
        },
        {
          "indexed": true,
          "internalType": "uint256",
          "name": "projectId",
          "type": "uint256"
        },
        {
          "indexed": true,
          "internalType": "address",
          "name": "beneficiary",
          "type": "address"
        },
        {
          "indexed": false,
          "internalType": "uint256",
          "name": "count",
          "type": "uint256"
        },
        {
          "indexed": false,
          "internalType": "uint256",
          "name": "projectOwnerTokenCount",
          "type": "uint256"
        },
        {
          "indexed": false,
          "internalType": "string",
          "name": "memo",
          "type": "string"
        },
        {
          "indexed": false,
          "internalType": "address",
          "name": "caller",
          "type": "address"
        }
      ],
      "name": "DistributeReservedTokens",
      "type": "event"
    },
    {
      "anonymous": false,
      "inputs": [
        {
          "indexed": true,
          "internalType": "uint256",
          "name": "fundingCycleId",
          "type": "uint256"
        },
        {
          "indexed": true,
          "internalType": "uint256",
          "name": "projectId",
          "type": "uint256"
        },
        {
          "components": [
            {
              "internalType": "bool",
              "name": "preferUnstaked",
              "type": "bool"
            },
            {
              "internalType": "uint16",
              "name": "percent",
              "type": "uint16"
            },
            {
              "internalType": "uint48",
              "name": "lockedUntil",
              "type": "uint48"
            },
            {
              "internalType": "address payable",
              "name": "beneficiary",
              "type": "address"
            },
            {
              "internalType": "contract IJBSplitAllocator",
              "name": "allocator",
              "type": "address"
            },
            {
              "internalType": "uint56",
              "name": "projectId",
              "type": "uint56"
            }
          ],
          "indexed": false,
          "internalType": "struct Split",
          "name": "split",
          "type": "tuple"
        },
        {
          "indexed": false,
          "internalType": "uint256",
          "name": "tokenCount",
          "type": "uint256"
        },
        {
          "indexed": false,
          "internalType": "address",
          "name": "caller",
          "type": "address"
        }
      ],
      "name": "DistributeToReservedTokenSplit",
      "type": "event"
    },
    {
      "anonymous": false,
      "inputs": [
        {
          "indexed": true,
          "internalType": "address",
          "name": "beneficiary",
          "type": "address"
        },
        {
          "indexed": true,
          "internalType": "uint256",
          "name": "projectId",
          "type": "uint256"
        },
        {
          "indexed": true,
          "internalType": "uint256",
          "name": "count",
          "type": "uint256"
        },
        {
          "indexed": false,
          "internalType": "string",
          "name": "memo",
          "type": "string"
        },
        {
          "indexed": false,
          "internalType": "bool",
          "name": "shouldReserveTokens",
          "type": "bool"
        },
        {
          "indexed": false,
          "internalType": "address",
          "name": "caller",
          "type": "address"
        }
      ],
      "name": "MintTokens",
      "type": "event"
    },
    {
      "anonymous": false,
      "inputs": [
        {
          "indexed": true,
          "internalType": "address",
          "name": "previousOwner",
          "type": "address"
        },
        {
          "indexed": true,
          "internalType": "address",
          "name": "newOwner",
          "type": "address"
        }
      ],
      "name": "OwnershipTransferred",
      "type": "event"
    },
    {
      "anonymous": false,
      "inputs": [
        {
          "indexed": true,
          "internalType": "uint256",
          "name": "projectId",
          "type": "uint256"
        },
        {
          "indexed": true,
          "internalType": "uint256",
          "name": "configuration",
          "type": "uint256"
        },
        {
          "components": [
            {
              "internalType": "contract IJBTerminal",
              "name": "terminal",
              "type": "address"
            },
            {
              "internalType": "uint256",
              "name": "amount",
              "type": "uint256"
            }
          ],
          "indexed": false,
          "internalType": "struct OverflowAllowance",
          "name": "allowance",
          "type": "tuple"
        },
        {
          "indexed": false,
          "internalType": "address",
          "name": "caller",
          "type": "address"
        }
      ],
      "name": "SetOverflowAllowance",
      "type": "event"
    },
    {
      "inputs": [
        {
          "internalType": "address",
          "name": "_holder",
          "type": "address"
        },
        {
          "internalType": "uint256",
          "name": "_projectId",
          "type": "uint256"
        },
        {
          "internalType": "uint256",
          "name": "_tokenCount",
          "type": "uint256"
        },
        {
          "internalType": "string",
          "name": "_memo",
          "type": "string"
        },
        {
          "internalType": "bool",
          "name": "_preferUnstakedTokens",
          "type": "bool"
        }
      ],
      "name": "burnTokensOf",
      "outputs": [],
      "stateMutability": "nonpayable",
      "type": "function"
    },
    {
      "inputs": [],
      "name": "directory",
      "outputs": [
        {
          "internalType": "contract IJBDirectory",
          "name": "",
          "type": "address"
        }
      ],
      "stateMutability": "view",
      "type": "function"
    },
    {
      "inputs": [
        {
          "internalType": "uint256",
          "name": "_projectId",
          "type": "uint256"
        },
        {
          "internalType": "string",
          "name": "_memo",
          "type": "string"
        }
      ],
      "name": "distributeReservedTokensOf",
      "outputs": [
        {
          "internalType": "uint256",
          "name": "",
          "type": "uint256"
        }
      ],
      "stateMutability": "nonpayable",
      "type": "function"
    },
    {
      "inputs": [],
      "name": "fee",
      "outputs": [
        {
          "internalType": "uint256",
          "name": "",
          "type": "uint256"
        }
      ],
      "stateMutability": "view",
      "type": "function"
    },
    {
      "inputs": [],
      "name": "fundingCycleStore",
      "outputs": [
        {
          "internalType": "contract IJBFundingCycleStore",
          "name": "",
          "type": "address"
        }
      ],
      "stateMutability": "view",
      "type": "function"
    },
    {
      "inputs": [
        {
          "internalType": "bytes32",
          "name": "_handle",
          "type": "bytes32"
        },
        {
          "internalType": "string",
          "name": "_uri",
          "type": "string"
        },
        {
          "components": [
            {
              "internalType": "uint256",
              "name": "target",
              "type": "uint256"
            },
            {
              "internalType": "uint256",
              "name": "currency",
              "type": "uint256"
            },
            {
              "internalType": "uint256",
              "name": "duration",
              "type": "uint256"
            },
            {
              "internalType": "uint256",
              "name": "cycleLimit",
              "type": "uint256"
            },
            {
              "internalType": "uint256",
              "name": "discountRate",
              "type": "uint256"
            },
            {
              "internalType": "contract IJBFundingCycleBallot",
              "name": "ballot",
              "type": "address"
            }
          ],
          "internalType": "struct FundingCycleProperties",
          "name": "_properties",
          "type": "tuple"
        },
        {
          "components": [
            {
              "internalType": "uint256",
              "name": "reservedRate",
              "type": "uint256"
            },
            {
              "internalType": "uint256",
              "name": "redemptionRate",
              "type": "uint256"
            },
            {
              "internalType": "uint256",
              "name": "ballotRedemptionRate",
              "type": "uint256"
            },
            {
              "internalType": "bool",
              "name": "pausePay",
              "type": "bool"
            },
            {
              "internalType": "bool",
              "name": "pauseWithdraw",
              "type": "bool"
            },
            {
              "internalType": "bool",
              "name": "pauseRedeem",
              "type": "bool"
            },
            {
              "internalType": "bool",
              "name": "pauseMint",
              "type": "bool"
            },
            {
              "internalType": "bool",
              "name": "pauseBurn",
              "type": "bool"
            },
            {
              "internalType": "bool",
              "name": "useDataSourceForPay",
              "type": "bool"
            },
            {
              "internalType": "bool",
              "name": "useDataSourceForRedeem",
              "type": "bool"
            },
            {
              "internalType": "contract IJBFundingCycleDataSource",
              "name": "dataSource",
              "type": "address"
            }
          ],
          "internalType": "struct FundingCycleMetadata",
          "name": "_metadata",
          "type": "tuple"
        },
        {
          "components": [
            {
              "internalType": "contract IJBTerminal",
              "name": "terminal",
              "type": "address"
            },
            {
              "internalType": "uint256",
              "name": "amount",
              "type": "uint256"
            }
          ],
          "internalType": "struct OverflowAllowance[]",
          "name": "_overflowAllowances",
          "type": "tuple[]"
        },
        {
          "components": [
            {
              "internalType": "bool",
              "name": "preferUnstaked",
              "type": "bool"
            },
            {
              "internalType": "uint16",
              "name": "percent",
              "type": "uint16"
            },
            {
              "internalType": "uint48",
              "name": "lockedUntil",
              "type": "uint48"
            },
            {
              "internalType": "address payable",
              "name": "beneficiary",
              "type": "address"
            },
            {
              "internalType": "contract IJBSplitAllocator",
              "name": "allocator",
              "type": "address"
            },
            {
              "internalType": "uint56",
              "name": "projectId",
              "type": "uint56"
            }
          ],
          "internalType": "struct Split[]",
          "name": "_payoutSplits",
          "type": "tuple[]"
        },
        {
          "components": [
            {
              "internalType": "bool",
              "name": "preferUnstaked",
              "type": "bool"
            },
            {
              "internalType": "uint16",
              "name": "percent",
              "type": "uint16"
            },
            {
              "internalType": "uint48",
              "name": "lockedUntil",
              "type": "uint48"
            },
            {
              "internalType": "address payable",
              "name": "beneficiary",
              "type": "address"
            },
            {
              "internalType": "contract IJBSplitAllocator",
              "name": "allocator",
              "type": "address"
            },
            {
              "internalType": "uint56",
              "name": "projectId",
              "type": "uint56"
            }
          ],
          "internalType": "struct Split[]",
          "name": "_reservedTokenSplits",
          "type": "tuple[]"
        },
        {
          "internalType": "contract IJBTerminal",
          "name": "_terminal",
          "type": "address"
        }
      ],
      "name": "launchProjectFor",
      "outputs": [],
      "stateMutability": "nonpayable",
      "type": "function"
    },
    {
      "inputs": [
        {
          "internalType": "uint256",
          "name": "_projectId",
          "type": "uint256"
        },
        {
          "internalType": "uint256",
          "name": "_tokenCount",
          "type": "uint256"
        },
        {
          "internalType": "address",
          "name": "_beneficiary",
          "type": "address"
        },
        {
          "internalType": "string",
          "name": "_memo",
          "type": "string"
        },
        {
          "internalType": "bool",
          "name": "_preferUnstakedTokens",
          "type": "bool"
        },
        {
          "internalType": "bool",
          "name": "_shouldReserveTokens",
          "type": "bool"
        }
      ],
      "name": "mintTokensOf",
      "outputs": [],
      "stateMutability": "nonpayable",
      "type": "function"
    },
    {
      "inputs": [],
      "name": "operatorStore",
      "outputs": [
        {
          "internalType": "contract IJBOperatorStore",
          "name": "",
          "type": "address"
        }
      ],
      "stateMutability": "view",
      "type": "function"
    },
    {
      "inputs": [
        {
          "internalType": "uint256",
          "name": "",
          "type": "uint256"
        },
        {
          "internalType": "uint256",
          "name": "",
          "type": "uint256"
        },
        {
          "internalType": "contract IJBTerminal",
          "name": "",
          "type": "address"
        }
      ],
      "name": "overflowAllowanceOf",
      "outputs": [
        {
          "internalType": "uint256",
          "name": "",
          "type": "uint256"
        }
      ],
      "stateMutability": "view",
      "type": "function"
    },
    {
      "inputs": [],
      "name": "owner",
      "outputs": [
        {
          "internalType": "address",
          "name": "",
          "type": "address"
        }
      ],
      "stateMutability": "view",
      "type": "function"
    },
    {
      "inputs": [],
      "name": "projects",
      "outputs": [
        {
          "internalType": "contract IJBProjects",
          "name": "",
          "type": "address"
        }
      ],
      "stateMutability": "view",
      "type": "function"
    },
    {
      "inputs": [
        {
          "internalType": "uint256",
          "name": "_projectId",
          "type": "uint256"
        },
        {
          "components": [
            {
              "internalType": "uint256",
              "name": "target",
              "type": "uint256"
            },
            {
              "internalType": "uint256",
              "name": "currency",
              "type": "uint256"
            },
            {
              "internalType": "uint256",
              "name": "duration",
              "type": "uint256"
            },
            {
              "internalType": "uint256",
              "name": "cycleLimit",
              "type": "uint256"
            },
            {
              "internalType": "uint256",
              "name": "discountRate",
              "type": "uint256"
            },
            {
              "internalType": "contract IJBFundingCycleBallot",
              "name": "ballot",
              "type": "address"
            }
          ],
          "internalType": "struct FundingCycleProperties",
          "name": "_properties",
          "type": "tuple"
        },
        {
          "components": [
            {
              "internalType": "uint256",
              "name": "reservedRate",
              "type": "uint256"
            },
            {
              "internalType": "uint256",
              "name": "redemptionRate",
              "type": "uint256"
            },
            {
              "internalType": "uint256",
              "name": "ballotRedemptionRate",
              "type": "uint256"
            },
            {
              "internalType": "bool",
              "name": "pausePay",
              "type": "bool"
            },
            {
              "internalType": "bool",
              "name": "pauseWithdraw",
              "type": "bool"
            },
            {
              "internalType": "bool",
              "name": "pauseRedeem",
              "type": "bool"
            },
            {
              "internalType": "bool",
              "name": "pauseMint",
              "type": "bool"
            },
            {
              "internalType": "bool",
              "name": "pauseBurn",
              "type": "bool"
            },
            {
              "internalType": "bool",
              "name": "useDataSourceForPay",
              "type": "bool"
            },
            {
              "internalType": "bool",
              "name": "useDataSourceForRedeem",
              "type": "bool"
            },
            {
              "internalType": "contract IJBFundingCycleDataSource",
              "name": "dataSource",
              "type": "address"
            }
          ],
          "internalType": "struct FundingCycleMetadata",
          "name": "_metadata",
          "type": "tuple"
        },
        {
          "components": [
            {
              "internalType": "contract IJBTerminal",
              "name": "terminal",
              "type": "address"
            },
            {
              "internalType": "uint256",
              "name": "amount",
              "type": "uint256"
            }
          ],
          "internalType": "struct OverflowAllowance[]",
          "name": "_overflowAllowances",
          "type": "tuple[]"
        },
        {
          "components": [
            {
              "internalType": "bool",
              "name": "preferUnstaked",
              "type": "bool"
            },
            {
              "internalType": "uint16",
              "name": "percent",
              "type": "uint16"
            },
            {
              "internalType": "uint48",
              "name": "lockedUntil",
              "type": "uint48"
            },
            {
              "internalType": "address payable",
              "name": "beneficiary",
              "type": "address"
            },
            {
              "internalType": "contract IJBSplitAllocator",
              "name": "allocator",
              "type": "address"
            },
            {
              "internalType": "uint56",
              "name": "projectId",
              "type": "uint56"
            }
          ],
          "internalType": "struct Split[]",
          "name": "_payoutSplits",
          "type": "tuple[]"
        },
        {
          "components": [
            {
              "internalType": "bool",
              "name": "preferUnstaked",
              "type": "bool"
            },
            {
              "internalType": "uint16",
              "name": "percent",
              "type": "uint16"
            },
            {
              "internalType": "uint48",
              "name": "lockedUntil",
              "type": "uint48"
            },
            {
              "internalType": "address payable",
              "name": "beneficiary",
              "type": "address"
            },
            {
              "internalType": "contract IJBSplitAllocator",
              "name": "allocator",
              "type": "address"
            },
            {
              "internalType": "uint56",
              "name": "projectId",
              "type": "uint56"
            }
          ],
          "internalType": "struct Split[]",
          "name": "_reservedTokenSplits",
          "type": "tuple[]"
        }
      ],
      "name": "reconfigureFundingCyclesOf",
      "outputs": [
        {
          "internalType": "uint256",
          "name": "",
          "type": "uint256"
        }
      ],
      "stateMutability": "nonpayable",
      "type": "function"
    },
    {
      "inputs": [],
      "name": "renounceOwnership",
      "outputs": [],
      "stateMutability": "nonpayable",
      "type": "function"
    },
    {
      "inputs": [
        {
          "internalType": "uint256",
          "name": "_projectId",
          "type": "uint256"
        },
        {
          "internalType": "uint256",
          "name": "_reservedRate",
          "type": "uint256"
        }
      ],
      "name": "reservedTokenBalanceOf",
      "outputs": [
        {
          "internalType": "uint256",
          "name": "",
          "type": "uint256"
        }
      ],
      "stateMutability": "view",
      "type": "function"
    },
    {
      "inputs": [],
      "name": "splitsStore",
      "outputs": [
        {
          "internalType": "contract IJBSplitsStore",
          "name": "",
          "type": "address"
        }
      ],
      "stateMutability": "view",
      "type": "function"
    },
    {
      "inputs": [
        {
          "internalType": "contract IJBTerminal",
          "name": "_terminal",
          "type": "address"
        }
      ],
      "name": "swapTerminal",
      "outputs": [],
      "stateMutability": "nonpayable",
      "type": "function"
    },
    {
      "inputs": [],
      "name": "tokenStore",
      "outputs": [
        {
          "internalType": "contract IJBTokenStore",
          "name": "",
          "type": "address"
        }
      ],
      "stateMutability": "view",
      "type": "function"
    },
    {
      "inputs": [
        {
          "internalType": "address",
          "name": "newOwner",
          "type": "address"
        }
      ],
      "name": "transferOwnership",
      "outputs": [],
      "stateMutability": "nonpayable",
      "type": "function"
    },
    {
      "inputs": [
        {
          "internalType": "uint256",
          "name": "_projectId",
          "type": "uint256"
        },
        {
          "internalType": "uint256",
          "name": "_amount",
          "type": "uint256"
        }
      ],
      "name": "withdrawFrom",
      "outputs": [
        {
          "components": [
            {
              "internalType": "uint256",
              "name": "id",
              "type": "uint256"
            },
            {
              "internalType": "uint256",
              "name": "projectId",
              "type": "uint256"
            },
            {
              "internalType": "uint256",
              "name": "number",
              "type": "uint256"
            },
            {
              "internalType": "uint256",
              "name": "basedOn",
              "type": "uint256"
            },
            {
              "internalType": "uint256",
              "name": "configured",
              "type": "uint256"
            },
            {
              "internalType": "uint256",
              "name": "cycleLimit",
              "type": "uint256"
            },
            {
              "internalType": "uint256",
              "name": "weight",
              "type": "uint256"
            },
            {
              "internalType": "contract IJBFundingCycleBallot",
              "name": "ballot",
              "type": "address"
            },
            {
              "internalType": "uint256",
              "name": "start",
              "type": "uint256"
            },
            {
              "internalType": "uint256",
              "name": "duration",
              "type": "uint256"
            },
            {
              "internalType": "uint256",
              "name": "target",
              "type": "uint256"
            },
            {
              "internalType": "uint256",
              "name": "currency",
              "type": "uint256"
            },
            {
              "internalType": "uint256",
              "name": "fee",
              "type": "uint256"
            },
            {
              "internalType": "uint256",
              "name": "discountRate",
              "type": "uint256"
            },
            {
              "internalType": "uint256",
              "name": "tapped",
              "type": "uint256"
            },
            {
              "internalType": "uint256",
              "name": "metadata",
              "type": "uint256"
            }
          ],
          "internalType": "struct FundingCycle",
          "name": "",
          "type": "tuple"
        }
      ],
      "stateMutability": "nonpayable",
      "type": "function"
    }
  ],
  "transactionHash": "0xbf1387fe9d179d001e12d1333db4cc209fb8815a39d21283ead16c8d626800cf",
  "args": [
    "0xC4D620E189b420249005FD38b22B1EA138cc0BeE",
    "0x2DC1D364e52FCC7A3F3b5225813F0fcEC1ff715A",
    "0x7Bf5Aa19778644B314fFC6f781c6f89CD873E71c",
    "0x61d095f86c36B05446edd5a19DEAd11c703Be3F0",
    "0xa63F15EcCA0fE86B48716CE53aAA8685A596e82f",
    "0xf835913B60B870A3a14b6C7179fEDF0fEba49D93"
  ],
  "solcInputHash": "096d8193c9ef3fa94853075f8aa2d2db",
  "bytecode": "0x610140604052600a6004553480156200001757600080fd5b5060405162003a3538038062003a358339810160408190526200003a91620000e5565b606086901b6001600160601b031916608052620000573362000095565b600180556001600160601b0319606095861b811660a05293851b841660c05291841b831660e052831b82166101005290911b16610120525062000192565b600080546001600160a01b038381166001600160a01b0319831681178455604051919092169283917f8be0079c531659141344cd1fd0a4f28419497f9722a3daafe3b4186f6b6457e09190a35050565b60008060008060008060c08789031215620000ff57600080fd5b86516200010c8162000179565b60208801519096506200011f8162000179565b6040880151909550620001328162000179565b6060880151909450620001458162000179565b6080880151909350620001588162000179565b60a08801519092506200016b8162000179565b809150509295509295509295565b6001600160a01b03811681146200018f57600080fd5b50565b60805160601c60a05160601c60c05160601c60e05160601c6101005160601c6101205160601c61378b620002aa600039600081816102e1015261048b01526000818161018301528181611a6801528181611b1101526121ca015260008181610240015281816108fe01528181610f210152818161125001528181611333015281816115dc01528181611e670152818161205101526122bb015260008181610219015281816107c701528181610d7a0152818161149a015281816119820152611da10152600081816102820152818161039701528181610af90152818161106101528181611f5e01526123450152600081816102ba015281816105b30152818161067f01528181610bdc0152611144015261378b6000f3fe608060405234801561001057600080fd5b50600436106101515760003560e01c80638b79543c116100cd578063cf169f8411610081578063e867c59c11610066578063e867c59c1461033f578063f033b3b414610352578063f2fde38b1461036557600080fd5b8063cf169f8414610316578063ddca3f431461033657600080fd5b8063ad007d63116100b2578063ad007d63146102b5578063c41c2f24146102dc578063c63e51881461030357600080fd5b80638b79543c1461027d5780638da5cb5b146102a457600080fd5b80635172a2bf116101245780636193063011610109578063619306301461023b578063715018a6146102625780638ae9c07b1461026a57600080fd5b80635172a2bf146101d5578063557e71551461021457600080fd5b8063029c7b97146101565780631665bc0f1461016b5780632bdfe0041461017e5780632dc28a30146101c2575b600080fd5b610169610164366004612aa6565b610378565b005b6101696101793660046128f6565b6104f4565b6101a57f000000000000000000000000000000000000000000000000000000000000000081565b6040516001600160a01b0390911681526020015b60405180910390f35b6101696101d03660046128bc565b6109b2565b6102066101e3366004612f70565b600360209081526000938452604080852082529284528284209052825290205481565b6040519081526020016101b9565b6101a57f000000000000000000000000000000000000000000000000000000000000000081565b6101a57f000000000000000000000000000000000000000000000000000000000000000081565b610169610a0c565b610169610278366004612ee0565b610a72565b6101a57f000000000000000000000000000000000000000000000000000000000000000081565b6000546001600160a01b03166101a5565b6101a57f000000000000000000000000000000000000000000000000000000000000000081565b6101a57f000000000000000000000000000000000000000000000000000000000000000081565b610206610311366004612e06565b610fd8565b610329610324366004612ebe565b6113db565b6040516101b991906130fa565b61020660045481565b61020661034d366004612d49565b611528565b610206610360366004612ebe565b611597565b6101696103733660046128bc565b611663565b600061039161038c36889003880188612b9e565b611745565b905060007f00000000000000000000000000000000000000000000000000000000000000006001600160a01b031663733f0127338d8d8d6040518563ffffffff1660e01b81526004016103e79493929190613092565b602060405180830381600087803b15801561040157600080fd5b505af1158015610415573d6000803e3d6000fd5b505050506040513d601f19601f820116820180604052508101906104399190612d30565b905061044b818984898989600161197d565b506040517f6eba4a0d000000000000000000000000000000000000000000000000000000008152600481018290526001600160a01b0384811660248301527f00000000000000000000000000000000000000000000000000000000000000001690636eba4a0d90604401600060405180830381600087803b1580156104cf57600080fd5b505af11580156104e3573d6000803e3d6000fd5b505050505050505050505050505050565b6002600154141561054c5760405162461bcd60e51b815260206004820152601f60248201527f5265656e7472616e637947756172643a207265656e7472616e742063616c6c0060448201526064015b60405180910390fd5b600260015585856010336001600160a01b038416148061062d57506040517fc161c93f0000000000000000000000000000000000000000000000000000000081523360048201526001600160a01b03848116602483015260448201849052606482018390527f0000000000000000000000000000000000000000000000000000000000000000169063c161c93f9060840160206040518083038186803b1580156105f557600080fd5b505afa158015610609573d6000803e3d6000fd5b505050506040513d601f19601f8201168201806040525081019061062d9190612a89565b806106f957506040517fc161c93f0000000000000000000000000000000000000000000000000000000081523360048201526001600160a01b03848116602483015260006044830152606482018390527f0000000000000000000000000000000000000000000000000000000000000000169063c161c93f9060840160206040518083038186803b1580156106c157600080fd5b505afa1580156106d5573d6000803e3d6000fd5b505050506040513d601f19601f820116820180604052508101906106f99190612a89565b6107455760405162461bcd60e51b815260206004820152601860248201527f4f706572617461626c653a20554e415554484f52495a454400000000000000006044820152606401610543565b600087116107955760405162461bcd60e51b815260206004820152600560248201527f4e4f5f4f500000000000000000000000000000000000000000000000000000006044820152606401610543565b6040517f43a266c2000000000000000000000000000000000000000000000000000000008152600481018990526000907f00000000000000000000000000000000000000000000000000000000000000006001600160a01b0316906343a266c2906024016102006040518083038186803b15801561081257600080fd5b505afa158015610826573d6000803e3d6000fd5b505050506040513d601f19601f8201168201806040525081019061084a9190612c63565b6101e081015190915060241c600116156108a65760405162461bcd60e51b815260206004820152600660248201527f50415553454400000000000000000000000000000000000000000000000000006044820152606401610543565b6108b08989611c8a565b6040517f906ebd0f0000000000000000000000000000000000000000000000000000000081526001600160a01b038b81166004830152602482018b9052604482018a905286151560648301527f0000000000000000000000000000000000000000000000000000000000000000169063906ebd0f90608401600060405180830381600087803b15801561094257600080fd5b505af1158015610956573d6000803e3d6000fd5b50505050888a6001600160a01b03167fdf04e13ee4fcd48a81ab2fd114757093740a3efa9b6475d86e05878b4c59d0798a8a8a3360405161099a9493929190613244565b60405180910390a35050600180555050505050505050565b60026001541415610a055760405162461bcd60e51b815260206004820152601f60248201527f5265656e7472616e637947756172643a207265656e7472616e742063616c6c006044820152606401610543565b5060018055565b6000546001600160a01b03163314610a665760405162461bcd60e51b815260206004820181905260248201527f4f776e61626c653a2063616c6c6572206973206e6f7420746865206f776e65726044820152606401610543565b610a706000611cfd565b565b60026001541415610ac55760405162461bcd60e51b815260206004820152601f60248201527f5265656e7472616e637947756172643a207265656e7472616e742063616c6c006044820152606401610543565b60026001556040517f6352211e000000000000000000000000000000000000000000000000000000008152600481018890527f00000000000000000000000000000000000000000000000000000000000000006001600160a01b031690636352211e9060240160206040518083038186803b158015610b4357600080fd5b505afa158015610b57573d6000803e3d6000fd5b505050506040513d601f19601f82011682018060405250810190610b7b91906128d9565b876011336001600160a01b0384161480610c5657506040517fc161c93f0000000000000000000000000000000000000000000000000000000081523360048201526001600160a01b03848116602483015260448201849052606482018390527f0000000000000000000000000000000000000000000000000000000000000000169063c161c93f9060840160206040518083038186803b158015610c1e57600080fd5b505afa158015610c32573d6000803e3d6000fd5b505050506040513d601f19601f82011682018060405250810190610c569190612a89565b610ca25760405162461bcd60e51b815260206004820152601860248201527f4f706572617461626c653a20554e415554484f52495a454400000000000000006044820152606401610543565b6001600160a01b038816610cf85760405162461bcd60e51b815260206004820152600c60248201527f5a45524f5f4144445245535300000000000000000000000000000000000000006044820152606401610543565b60008911610d485760405162461bcd60e51b815260206004820152600560248201527f4e4f5f4f500000000000000000000000000000000000000000000000000000006044820152606401610543565b6040517f43a266c2000000000000000000000000000000000000000000000000000000008152600481018b90526000907f00000000000000000000000000000000000000000000000000000000000000006001600160a01b0316906343a266c2906024016102006040518083038186803b158015610dc557600080fd5b505afa158015610dd9573d6000803e3d6000fd5b505050506040513d601f19601f82011682018060405250810190610dfd9190612c63565b6101e081015190915060231c60011615610e595760405162461bcd60e51b815260206004820152600660248201527f50415553454400000000000000000000000000000000000000000000000000006044820152606401610543565b848015610e7157506101e081015160081c60ff1660c8145b15610ea45760008b815260026020526040902054610e90908b90613540565b60008c815260026020526040902055610f7e565b84610ed35760008b815260026020526040902054610ec3908b906134b4565b60008c8152600260205260409020555b6040517fceddd3e40000000000000000000000000000000000000000000000000000000081526001600160a01b038a81166004830152602482018d9052604482018c905287151560648301527f0000000000000000000000000000000000000000000000000000000000000000169063ceddd3e490608401600060405180830381600087803b158015610f6557600080fd5b505af1158015610f79573d6000803e3d6000fd5b505050505b898b8a6001600160a01b03167f0a5b29746c316202b4734deae6c8fe692b0f829c1387e75e2ade1e34f14146c48b8b8a33604051610fbf94939291906130c5565b60405180910390a4505060018055505050505050505050565b60006002600154141561102d5760405162461bcd60e51b815260206004820152601f60248201527f5265656e7472616e637947756172643a207265656e7472616e742063616c6c006044820152606401610543565b60026001556040517f6352211e000000000000000000000000000000000000000000000000000000008152600481018890527f00000000000000000000000000000000000000000000000000000000000000006001600160a01b031690636352211e9060240160206040518083038186803b1580156110ab57600080fd5b505afa1580156110bf573d6000803e3d6000fd5b505050506040513d601f19601f820116820180604052508101906110e391906128d9565b876001336001600160a01b03841614806111be57506040517fc161c93f0000000000000000000000000000000000000000000000000000000081523360048201526001600160a01b03848116602483015260448201849052606482018390527f0000000000000000000000000000000000000000000000000000000000000000169063c161c93f9060840160206040518083038186803b15801561118657600080fd5b505afa15801561119a573d6000803e3d6000fd5b505050506040513d601f19601f820116820180604052508101906111be9190612a89565b61120a5760405162461bcd60e51b815260206004820152601860248201527f4f706572617461626c653a20554e415554484f52495a454400000000000000006044820152606401610543565b600061121e61038c368b90038b018b612b9e565b6040517f75b0d9cd000000000000000000000000000000000000000000000000000000008152600481018d90529091507f00000000000000000000000000000000000000000000000000000000000000006001600160a01b0316906375b0d9cd9060240160206040518083038186803b15801561129a57600080fd5b505afa1580156112ae573d6000803e3d6000fd5b505050506040513d601f19601f820116820180604052508101906112d29190612d30565b60008c81526002602052604090205414611301576112ff8b60405180602001604052806000815250611d65565b505b6040517f75b0d9cd000000000000000000000000000000000000000000000000000000008152600481018c90526000907f00000000000000000000000000000000000000000000000000000000000000006001600160a01b0316906375b0d9cd9060240160206040518083038186803b15801561137d57600080fd5b505afa158015611391573d6000803e3d6000fd5b505050506040513d601f19601f820116820180604052508101906113b59190612d30565b1590506113c78c8c848c8c8c8761197d565b600180559c9b505050505050505050505050565b6114646040518061020001604052806000815260200160008152602001600081526020016000815260200160008152602001600081526020016000815260200160006001600160a01b0316815260200160008152602001600081526020016000815260200160008152602001600081526020016000815260200160008152602001600081525090565b6040517fa7f166b500000000000000000000000000000000000000000000000000000000815260048101849052602481018390527f00000000000000000000000000000000000000000000000000000000000000006001600160a01b03169063a7f166b59060440161020060405180830381600087803b1580156114e757600080fd5b505af11580156114fb573d6000803e3d6000fd5b505050506040513d601f19601f8201168201806040525081019061151f9190612c63565b90505b92915050565b60006002600154141561157d5760405162461bcd60e51b815260206004820152601f60248201527f5265656e7472616e637947756172643a207265656e7472616e742063616c6c006044820152606401610543565b600260015561158c8383611d65565b600180559392505050565b6000828152600260205260408082205490517f75b0d9cd0000000000000000000000000000000000000000000000000000000081526004810185905261151f919084907f00000000000000000000000000000000000000000000000000000000000000006001600160a01b0316906375b0d9cd9060240160206040518083038186803b15801561162657600080fd5b505afa15801561163a573d6000803e3d6000fd5b505050506040513d601f19601f8201168201806040525081019061165e9190612d30565b612105565b6000546001600160a01b031633146116bd5760405162461bcd60e51b815260206004820181905260248201527f4f776e61626c653a2063616c6c6572206973206e6f7420746865206f776e65726044820152606401610543565b6001600160a01b0381166117395760405162461bcd60e51b815260206004820152602660248201527f4f776e61626c653a206e6577206f776e657220697320746865207a65726f206160448201527f64647265737300000000000000000000000000000000000000000000000000006064820152608401610543565b61174281611cfd565b50565b600060c88260000151111561179c5760405162461bcd60e51b815260206004820152601160248201527f4241445f52455345525645445f524154450000000000000000000000000000006044820152606401610543565b60c8826020015111156117f15760405162461bcd60e51b815260206004820152601360248201527f4241445f524544454d5054494f4e5f52415445000000000000000000000000006044820152606401610543565b60c8826040015111156118465760405162461bcd60e51b815260206004820152601a60248201527f4241445f42414c4c4f545f524544454d5054494f4e5f524154450000000000006044820152606401610543565b5080516020808301516040840151606085015160189190911b60109290921b60089490941b93909317176001179161187f576000611882565b60015b60ff16901b60ff1681179050602182608001516118a05760006118a3565b60015b60ff16901b60ff168117905060228260a001516118c15760006118c4565b60015b60ff16901b60ff168117905060238260c001516118e25760006118e5565b60015b60ff16901b60ff168117905060248260e00151611903576000611906565b60015b60ff16901b60ff16811790506025826101000151611925576000611928565b60015b60ff16901b60ff1681179050602682610120015161194757600061194a565b60015b6101409093015173ffffffffffffffffffffffffffffff800000000060279190911b1660ff93841690911b909216171790565b6000807f00000000000000000000000000000000000000000000000000000000000000006001600160a01b031663ca2148f08a8a8a600454886040518663ffffffff1660e01b81526004016119d6959493929190613278565b61020060405180830381600087803b1580156119f157600080fd5b505af1158015611a05573d6000803e3d6000fd5b505050506040513d601f19601f82011682018060405250810190611a299190612c63565b855190915015611ad55760808101516040517fa1aa95b10000000000000000000000000000000000000000000000000000000081526001600160a01b037f0000000000000000000000000000000000000000000000000000000000000000169163a1aa95b191611aa2918d916001908b906004016132ef565b600060405180830381600087803b158015611abc57600080fd5b505af1158015611ad0573d6000803e3d6000fd5b505050505b835115611b7e5760808101516040517fa1aa95b10000000000000000000000000000000000000000000000000000000081526001600160a01b037f0000000000000000000000000000000000000000000000000000000000000000169163a1aa95b191611b4b918d916002908a906004016132ef565b600060405180830381600087803b158015611b6557600080fd5b505af1158015611b79573d6000803e3d6000fd5b505050505b60005b8651811015611c7c576000878281518110611b9e57611b9e61369b565b60209081029190910181015160008d815260038352604080822060808801518352845280822083516001600160a01b0316835284529020549181015190925014611c69576020818101805160008e8152600384526040808220608089018051845290865281832087516001600160a01b039081168552908752928290209390935591518251865190921682529251938101939093523390830152908c907ffcac803527061e0475e179cb5537831df4b93f982b586436e2c9073a50b2d0389060600160405180910390a35b5080611c74816135cb565b915050611b81565b505198975050505050505050565b600082815260026020526040812054908112611cc957818112611cb657611cb18282613540565b611ce6565b611cc08183613540565b611cb190613604565b81611cd382613604565b611cdd9190613528565b611ce690613604565b600093845260026020526040909320929092555050565b600080546001600160a01b038381167fffffffffffffffffffffffff0000000000000000000000000000000000000000831681178455604051919092169283917f8be0079c531659141344cd1fd0a4f28419497f9722a3daafe3b4186f6b6457e09190a35050565b6040517f43a266c20000000000000000000000000000000000000000000000000000000081526004810183905260009081906001600160a01b037f000000000000000000000000000000000000000000000000000000000000000016906343a266c2906024016102006040518083038186803b158015611de457600080fd5b505afa158015611df8573d6000803e3d6000fd5b505050506040513d601f19601f82011682018060405250810190611e1c9190612c63565b9050806040015160001415611e35576000915050611522565b6040517f75b0d9cd000000000000000000000000000000000000000000000000000000008152600481018590526000907f00000000000000000000000000000000000000000000000000000000000000006001600160a01b0316906375b0d9cd9060240160206040518083038186803b158015611eb157600080fd5b505afa158015611ec5573d6000803e3d6000fd5b505050506040513d601f19601f82011682018060405250810190611ee99190612d30565b6000868152600260205260409020546101e0840151919250611f119160081c60ff1683612105565b9250611f1d8382613528565b6000868152600260205260408082209290925590517f6352211e000000000000000000000000000000000000000000000000000000008152600481018790527f00000000000000000000000000000000000000000000000000000000000000006001600160a01b031690636352211e9060240160206040518083038186803b158015611fa857600080fd5b505afa158015611fbc573d6000803e3d6000fd5b505050506040513d601f19601f82011682018060405250810190611fe091906128d9565b905060008415611ff957611ff4848661217f565b611ffc565b60005b905080156120ae576040517fceddd3e40000000000000000000000000000000000000000000000000000000081526001600160a01b0383811660048301526024820189905260448201839052600060648301527f0000000000000000000000000000000000000000000000000000000000000000169063ceddd3e490608401600060405180830381600087803b15801561209557600080fd5b505af11580156120a9573d6000803e3d6000fd5b505050505b816001600160a01b03168785600001517f2a88b15c2f1b02de6e8fb5d10418f617d190e0cae82227aa8792a023fe8f24f788858b336040516120f39493929190613314565b60405180910390a45050505092915050565b60008060008512156121295761211a85613604565b6121249084613528565b612133565b61213385846135b4565b905080612144576000915050612178565b8360c81415612154579050612178565b8061216a8160c861216588826135b4565b612591565b61217491906135b4565b9150505b9392505050565b602082015160808301516040517f69e11cc5000000000000000000000000000000000000000000000000000000008152600481019290925260248201526002604482015281906000907f00000000000000000000000000000000000000000000000000000000000000006001600160a01b0316906369e11cc59060640160006040518083038186803b15801561221457600080fd5b505afa158015612228573d6000803e3d6000fd5b505050506040513d6000823e601f3d9081017fffffffffffffffffffffffffffffffffffffffffffffffffffffffffffffffe016820160405261226e9190810190612972565b905060005b81518110156125895760008282815181106122905761229061369b565b6020026020010151905060006122b186836020015161ffff16612710612591565b90508015612456577f00000000000000000000000000000000000000000000000000000000000000006001600160a01b031663ceddd3e48360a0015166ffffffffffffff16600014156123085783606001516123c7565b60a08401516040517f6352211e00000000000000000000000000000000000000000000000000000000815266ffffffffffffff90911660048201527f00000000000000000000000000000000000000000000000000000000000000006001600160a01b031690636352211e9060240160206040518083038186803b15801561238f57600080fd5b505afa1580156123a3573d6000803e3d6000fd5b505050506040513d601f19601f820116820180604052508101906123c791906128d9565b60208a0151855160405160e085901b7fffffffff000000000000000000000000000000000000000000000000000000001681526001600160a01b03909316600484015260248301919091526044820185905215156064820152608401600060405180830381600087803b15801561243d57600080fd5b505af1158015612451573d6000803e3d6000fd5b505050505b60808201516001600160a01b031615612523576080820151602088015160a0840151606085015185516040517fc8e84e020000000000000000000000000000000000000000000000000000000081526004810187905260026024820152604481019490945266ffffffffffffff90921660648401526001600160a01b03908116608484015290151560a48301529091169063c8e84e029060c401600060405180830381600087803b15801561250a57600080fd5b505af115801561251e573d6000803e3d6000fd5b505050505b61252d81866135b4565b9450866020015187600001517f28f59891af39713bbdff0e034b0309239c78191339edd51f4f8478f297d42f0684843360405161256c939291906131bd565b60405180910390a350508080612581906135cb565b915050612273565b505092915050565b600080807fffffffffffffffffffffffffffffffffffffffffffffffffffffffffffffffff85870985870292508281108382030391505080600014156125ea578382816125e0576125e061366c565b0492505050612178565b83811061262d576040517f773cc18c0000000000000000000000000000000000000000000000000000000081526004810182905260248101859052604401610543565b60008486880960026001871981018816978890046003810283188082028403028082028403028082028403028082028403028082028403029081029092039091026000889003889004909101858311909403939093029303949094049190911702949350505050565b600082601f8301126126a757600080fd5b813560206126bc6126b783613490565b613441565b80838252828201915082860187848660061b89010111156126dc57600080fd5b6000805b8681101561272757604080848c0312156126f8578283fd5b6127006133ad565b843561270b816136f9565b81528488013588820152865294860194909201916001016126e0565b509198975050505050505050565b600082601f83011261274657600080fd5b813560206127566126b783613490565b8281528181019085830160c08086028801850189101561277557600080fd5b6000805b878110156128135782848c03121561278f578182fd5b6127976133d6565b84356127a28161370e565b8152848801356127b18161371c565b818901526040858101356127c48161372c565b908201526060858101356127d7816136f9565b908201526080858101356127ea816136f9565b9082015260a0858101356127fd81613740565b9082015286529486019492820192600101612779565b50929998505050505050505050565b803561282d8161370e565b919050565b805161282d816136f9565b803561282d816136f9565b60008083601f84011261285a57600080fd5b50813567ffffffffffffffff81111561287257600080fd5b60208301915083602082850101111561288a57600080fd5b9250929050565b600061016082840312156128a457600080fd5b50919050565b600060c082840312156128a457600080fd5b6000602082840312156128ce57600080fd5b8135612178816136f9565b6000602082840312156128eb57600080fd5b8151612178816136f9565b60008060008060008060a0878903121561290f57600080fd5b863561291a816136f9565b95506020870135945060408701359350606087013567ffffffffffffffff81111561294457600080fd5b61295089828a01612848565b90945092505060808701356129648161370e565b809150509295509295509295565b6000602080838503121561298557600080fd5b825167ffffffffffffffff81111561299c57600080fd5b8301601f810185136129ad57600080fd5b80516129bb6126b782613490565b8181528381019083850160c0808502860187018a10156129da57600080fd5b60009550855b85811015612a7a5781838c0312156129f6578687fd5b6129fe6133d6565b8351612a098161370e565b815283890151612a188161371c565b818a0152604084810151612a2b8161372c565b90820152606084810151612a3e816136f9565b90820152608084810151612a51816136f9565b9082015260a084810151612a6481613740565b90820152855293870193918101916001016129e0565b50919998505050505050505050565b600060208284031215612a9b57600080fd5b81516121788161370e565b60008060008060008060008060006102e08a8c031215612ac557600080fd5b8935985060208a013567ffffffffffffffff80821115612ae457600080fd5b612af08d838e01612848565b909a509850889150612b058d60408e016128aa565b9750612b158d6101008e01612891565b96506102608c0135915080821115612b2c57600080fd5b612b388d838e01612696565b95506102808c0135915080821115612b4f57600080fd5b612b5b8d838e01612735565b94506102a08c0135915080821115612b7257600080fd5b50612b7f8c828d01612735565b925050612b8f6102c08b0161283d565b90509295985092959850929598565b60006101608284031215612bb157600080fd5b612bb96133f9565b823581526020830135602082015260408301356040820152612bdd60608401612822565b6060820152612bee60808401612822565b6080820152612bff60a08401612822565b60a0820152612c1060c08401612822565b60c0820152612c2160e08401612822565b60e0820152610100612c34818501612822565b90820152610120612c46848201612822565b90820152610140612c5884820161283d565b908201529392505050565b60006102008284031215612c7657600080fd5b612c7e61341d565b825181526020830151602082015260408301516040820152606083015160608201526080830151608082015260a083015160a082015260c083015160c0820152612cca60e08401612832565b60e0820152610100838101519082015261012080840151908201526101408084015190820152610160808401519082015261018080840151908201526101a080840151908201526101c080840151908201526101e0928301519281019290925250919050565b600060208284031215612d4257600080fd5b5051919050565b60008060408385031215612d5c57600080fd5b8235915060208084013567ffffffffffffffff80821115612d7c57600080fd5b818601915086601f830112612d9057600080fd5b813581811115612da257612da26136ca565b612dd2847fffffffffffffffffffffffffffffffffffffffffffffffffffffffffffffffe0601f84011601613441565b91508082528784828501011115612de857600080fd5b80848401858401376000848284010152508093505050509250929050565b6000806000806000806102a08789031215612e2057600080fd5b86359550612e3188602089016128aa565b9450612e408860e08901612891565b935061024087013567ffffffffffffffff80821115612e5e57600080fd5b612e6a8a838b01612696565b9450610260890135915080821115612e8157600080fd5b612e8d8a838b01612735565b9350610280890135915080821115612ea457600080fd5b50612eb189828a01612735565b9150509295509295509295565b60008060408385031215612ed157600080fd5b50508035926020909101359150565b600080600080600080600060c0888a031215612efb57600080fd5b87359650602088013595506040880135612f14816136f9565b9450606088013567ffffffffffffffff811115612f3057600080fd5b612f3c8a828b01612848565b9095509350506080880135612f508161370e565b915060a0880135612f608161370e565b8091505092959891949750929550565b600080600060608486031215612f8557600080fd5b83359250602084013591506040840135612f9e816136f9565b809150509250925092565b600081518084526020808501945080840160005b8381101561303e5761302b87835180511515825261ffff602082015116602083015265ffffffffffff604082015116604083015260608101516001600160a01b038082166060850152806080840151166080850152505066ffffffffffffff60a08201511660a08301525050565b60c0969096019590820190600101612fbd565b509495945050505050565b8183528181602085013750600060208284010152600060207fffffffffffffffffffffffffffffffffffffffffffffffffffffffffffffffe0601f840116840101905092915050565b6001600160a01b03851681528360208201526060604082015260006130bb606083018486613049565b9695505050505050565b6060815260006130d9606083018688613049565b9315156020830152506001600160a01b039190911660409091015292915050565b600061020082019050825182526020830151602083015260408301516040830152606083015160608301526080830151608083015260a083015160a083015260c083015160c083015260e083015161315d60e08401826001600160a01b03169052565b50610100838101519083015261012080840151908301526101408084015190830152610160808401519083015261018080840151908301526101a080840151908301526101c080840151908301526101e092830151929091019190915290565b6101008101613227828680511515825261ffff602082015116602083015265ffffffffffff604082015116604083015260608101516001600160a01b038082166060850152806080840151166080850152505066ffffffffffffff60a08201511660a08301525050565b8360c08301526001600160a01b03831660e0830152949350505050565b84815260606020820152600061325e606083018587613049565b90506001600160a01b038316604083015295945050505050565b60006101408201905086825285356020830152602086013560408301526040860135606083015260608601356080830152608086013560a083015260a08601356132c1816136f9565b6001600160a01b031660c083015260e082019490945261010081019290925215156101209091015292915050565b8481528360208201528260408201526080606082015260006130bb6080830184612fa9565b84815260006020858184015260806040840152845180608085015260005b8181101561334e5786810183015185820160a001528201613332565b8181111561336057600060a083870101525b50601f017fffffffffffffffffffffffffffffffffffffffffffffffffffffffffffffffe016830160a00191506133a4905060608301846001600160a01b03169052565b95945050505050565b6040805190810167ffffffffffffffff811182821017156133d0576133d06136ca565b60405290565b60405160c0810167ffffffffffffffff811182821017156133d0576133d06136ca565b604051610160810167ffffffffffffffff811182821017156133d0576133d06136ca565b604051610200810167ffffffffffffffff811182821017156133d0576133d06136ca565b604051601f82017fffffffffffffffffffffffffffffffffffffffffffffffffffffffffffffffe016810167ffffffffffffffff81118282101715613488576134886136ca565b604052919050565b600067ffffffffffffffff8211156134aa576134aa6136ca565b5060051b60200190565b6000808212827f7fffffffffffffffffffffffffffffffffffffffffffffffffffffffffffffff038413811516156134ee576134ee61363d565b827f80000000000000000000000000000000000000000000000000000000000000000384128116156135225761352261363d565b50500190565b6000821982111561353b5761353b61363d565b500190565b6000808312837f80000000000000000000000000000000000000000000000000000000000000000183128115161561357a5761357a61363d565b837f7fffffffffffffffffffffffffffffffffffffffffffffffffffffffffffffff0183138116156135ae576135ae61363d565b50500390565b6000828210156135c6576135c661363d565b500390565b60007fffffffffffffffffffffffffffffffffffffffffffffffffffffffffffffffff8214156135fd576135fd61363d565b5060010190565b60007f80000000000000000000000000000000000000000000000000000000000000008214156136365761363661363d565b5060000390565b7f4e487b7100000000000000000000000000000000000000000000000000000000600052601160045260246000fd5b7f4e487b7100000000000000000000000000000000000000000000000000000000600052601260045260246000fd5b7f4e487b7100000000000000000000000000000000000000000000000000000000600052603260045260246000fd5b7f4e487b7100000000000000000000000000000000000000000000000000000000600052604160045260246000fd5b6001600160a01b038116811461174257600080fd5b801515811461174257600080fd5b61ffff8116811461174257600080fd5b65ffffffffffff8116811461174257600080fd5b66ffffffffffffff8116811461174257600080fdfea2646970667358221220f8bccfbb649c74c35a9471b42012a7890a9ba3e3be62c3e01183f26cc842c9d564736f6c63430008060033",
  "devdoc": {
    "kind": "dev",
    "methods": {
      "burnTokensOf(address,uint256,uint256,string,bool)": {
        "details": "Only a token's holder or a designated operator can burn it.",
        "params": {
          "_holder": "The account that is having its tokens burned.",
          "_memo": "A memo to pass along to the emitted event.",
          "_preferUnstakedTokens": "Whether ERC20's should be burned first if they have been issued.",
          "_projectId": "The ID of the project to which the tokens being burned belong.",
          "_tokenCount": "The number of tokens to burn."
        }
      },
      "constructor": {
        "params": {
          "_directory": "The directory of terminals.",
          "_fundingCycleStore": "The contract storing all funding cycle configurations.",
          "_operatorStore": "A contract storing operator assignments.",
          "_projects": "A Projects contract which mints ERC-721's that represent project ownership and transfers.",
          "_splitsStore": "The contract that stores splits for each project.",
          "_tokenStore": "The contract that manages token minting and burning."
        }
      },
      "distributeReservedTokensOf(uint256,string)": {
        "params": {
          "_memo": "A memo to leave with the emitted event.",
          "_projectId": "The ID of the project to which the reserved tokens belong."
        },
        "returns": {
          "_0": "The amount of reserved tokens that were minted."
        }
      },
      "launchProjectFor(bytes32,string,(uint256,uint256,uint256,uint256,uint256,address),(uint256,uint256,uint256,bool,bool,bool,bool,bool,bool,bool,address),(address,uint256)[],(bool,uint16,uint48,address,address,uint56)[],(bool,uint16,uint48,address,address,uint56)[],address)": {
        "details": "Each operation withing this transaction can be done in sequence separately.Anyone can deploy a project on an owner's behalf. A project owner will be able to reconfigure the funding cycle's properties as long as it has not yet received a payment._properties.target The amount that the project wants to payout during a funding cycle. Sent as a wad (18 decimals)._properties.currency The currency of the `target`. Send 0 for ETH or 1 for USD._properties.duration The duration of the funding cycle for which the `target` amount is needed. Measured in days. Send 0 for cycles that are reconfigurable at any time._properties.cycleLimit The number of cycles that this configuration should last for before going back to the last permanent cycle. This has no effect for a project's first funding cycle._properties.discountRate A number from 0-200 (0-20%) indicating how many tokens will be minted as a result of a contribution made to this funding cycle compared to one made to the project's next funding cycle. If it's 0 (0%), each funding cycle's will have equal weight. If the number is 100 (10%), a contribution to the next funding cycle will only mint 90% of tokens that a contribution of the same amount made during the current funding cycle mints. If the number is 200 (20%), the difference will be 20%.  There's a special case: If the number is 201, the funding cycle will be non-recurring and one-time only._properties.ballot The ballot contract that will be used to approve subsequent reconfigurations. Must adhere to the IFundingCycleBallot interface._metadata.reservedRate A number from 0-200 (0-100%) indicating the percentage of each contribution's newly minted tokens that will be reserved for the token splits._metadata.redemptionRate The rate from 0-200 (0-100%) that tunes the bonding curve according to which a project's tokens can be redeemed for overflow. The bonding curve formula is https://www.desmos.com/calculator/sp9ru6zbpk where x is _count, o is _currentOverflow, s is _totalSupply, and r is _redemptionRate._metadata.ballotRedemptionRate The redemption rate to apply when there is an active ballot._metadata.pausePay Whether or not the pay functionality should be paused during this cycle._metadata.pauseWithdraw Whether or not the withdraw functionality should be paused during this cycle._metadata.pauseRedeem Whether or not the redeem functionality should be paused during this cycle._metadata.pauseMint Whether or not the mint functionality should be paused during this cycle._metadata.pauseBurn Whether or not the burn functionality should be paused during this cycle._metadata.useDataSourceForPay Whether or not the data source should be used when processing a payment._metadata.useDataSourceForRedeem Whether or not the data source should be used when processing a redemption._metadata.dataSource A contract that exposes data that can be used within pay and redeem transactions. Must adhere to IJBFundingCycleDataSource.",
        "params": {
          "_handle": "The project's unique handle. This can be updated any time by the owner of the project.",
          "_metadata": "A struct specifying the TerminalV2 specific params that a funding cycle can have.",
          "_overflowAllowances": "The amount, in wei (18 decimals), of ETH that a project can use from its own overflow on-demand.",
          "_payoutSplits": "Any payout splits to set.",
          "_properties": "The funding cycle configuration properties. These properties will remain fixed for the duration of the funding cycle.",
          "_reservedTokenSplits": "Any reserved token splits to set.",
          "_uri": "A link to associate with the project. This can be updated any time by the owner of the project."
        }
      },
      "mintTokensOf(uint256,uint256,address,string,bool,bool)": {
        "details": "Only a project's owner or a designated operator can mint it.",
        "params": {
          "_beneficiary": "The account that the tokens are being minted for.",
          "_memo": "A memo to pass along to the emitted event.",
          "_preferUnstakedTokens": "Whether ERC20's should be burned first if they have been issued.",
          "_projectId": "The ID of the project to which the tokens being burned belong.",
          "_tokenCount": "The amount of tokens to mint."
        }
      },
      "owner()": {
        "details": "Returns the address of the current owner."
      },
      "reconfigureFundingCyclesOf(uint256,(uint256,uint256,uint256,uint256,uint256,address),(uint256,uint256,uint256,bool,bool,bool,bool,bool,bool,bool,address),(address,uint256)[],(bool,uint16,uint48,address,address,uint56)[],(bool,uint16,uint48,address,address,uint56)[])": {
        "details": "Only a project's owner or a designated operator can configure its funding cycles._properties.target The amount that the project wants to payout during a funding cycle. Sent as a wad (18 decimals)._properties.currency The currency of the `target`. Send 0 for ETH or 1 for USD._properties.duration The duration of the funding cycle for which the `target` amount is needed. Measured in days. Send 0 for cycles that are reconfigurable at any time._properties.cycleLimit The number of cycles that this configuration should last for before going back to the last permanent cycle. This has no effect for a project's first funding cycle._properties.discountRate A number from 0-200 (0-20%) indicating how many tokens will be minted as a result of a contribution made to this funding cycle compared to one made to the project's next funding cycle. If it's 0 (0%), each funding cycle's will have equal weight. If the number is 100 (10%), a contribution to the next funding cycle will only mint 90% of tokens that a contribution of the same amount made during the current funding cycle mints. If the number is 200 (20%), the difference will be 20%.  There's a special case: If the number is 201, the funding cycle will be non-recurring and one-time only._properties.ballot The ballot contract that will be used to approve subsequent reconfigurations. Must adhere to the IFundingCycleBallot interface._metadata.reservedRate A number from 0-200 (0-100%) indicating the percentage of each contribution's newly minted tokens that will be reserved for the token splits._metadata.redemptionRate The rate from 0-200 (0-100%) that tunes the bonding curve according to which a project's tokens can be redeemed for overflow. The bonding curve formula is https://www.desmos.com/calculator/sp9ru6zbpk where x is _count, o is _currentOverflow, s is _totalSupply, and r is _redemptionRate._metadata.ballotRedemptionRate The redemption rate to apply when there is an active ballot._metadata.pausePay Whether or not the pay functionality should be paused during this cycle._metadata.pauseWithdraw Whether or not the withdraw functionality should be paused during this cycle._metadata.pauseRedeem Whether or not the redeem functionality should be paused during this cycle._metadata.pauseMint Whether or not the mint functionality should be paused during this cycle._metadata.pauseBurn Whether or not the burn functionality should be paused during this cycle._metadata.useDataSourceForPay Whether or not the data source should be used when processing a payment._metadata.useDataSourceForRedeem Whether or not the data source should be used when processing a redemption._metadata.dataSource A contract that exposes data that can be used within pay and redeem transactions. Must adhere to IJBFundingCycleDataSource.",
        "params": {
          "_metadata": "A struct specifying the TerminalV2 specific params that a funding cycle can have.",
          "_overflowAllowances": "The amount, in wei (18 decimals), of ETH that a project can use from its own overflow on-demand.",
          "_payoutSplits": "Any payout splits to set.",
          "_projectId": "The ID of the project whos funding cycles are being reconfigured.",
          "_properties": "The funding cycle configuration properties. These properties will remain fixed for the duration of the funding cycle.",
          "_reservedTokenSplits": "Any reserved token splits to set."
        },
        "returns": {
          "_0": "The ID of the funding cycle that was successfully configured."
        }
      },
      "renounceOwnership()": {
        "details": "Leaves the contract without owner. It will not be possible to call `onlyOwner` functions anymore. Can only be called by the current owner. NOTE: Renouncing ownership will leave the contract without an owner, thereby removing any functionality that is only available to the owner."
      },
      "reservedTokenBalanceOf(uint256,uint256)": {
        "params": {
          "_projectId": "The ID of the project to get a reserved token balance of.",
          "_reservedRate": "The reserved rate to use when making the calculation."
        },
        "returns": {
          "_0": "The current amount of reserved tokens."
        }
      },
      "transferOwnership(address)": {
        "details": "Transfers ownership of the contract to a new account (`newOwner`). Can only be called by the current owner."
      }
    },
    "stateVariables": {
      "fee": {
        "details": " Out of 200."
      },
      "overflowAllowanceOf": {
        "details": "[_projectId][_configuration][_terminal] _projectId The ID of the project to get the current overflow allowance of. _configuration The configuration of the during which the allowance applies. _terminal The terminal managing the overflow.",
        "return": "The current overflow allowance for the specified project configuration. Decreases as projects use of the allowance.",
        "returns": {
          "_0": "The current overflow allowance for the specified project configuration. Decreases as projects use of the allowance."
        }
      }
    },
    "version": 1
  },
  "userdoc": {
    "errors": {
      "PRBMath__MulDivOverflow(uint256,uint256)": [
        {
          "notice": "Emitted when the result overflows uint256."
        }
      ]
    },
    "kind": "user",
    "methods": {
      "burnTokensOf(address,uint256,uint256,string,bool)": {
        "notice": "Burns a token holder's supply."
      },
      "directory()": {
        "notice": "The directory of terminals."
      },
      "distributeReservedTokensOf(uint256,string)": {
        "notice": "Mints and distributes all outstanding reserved tokens for a project."
      },
      "fee()": {
        "notice": " The platform fee percent."
      },
      "fundingCycleStore()": {
        "notice": " The contract storing all funding cycle configurations."
      },
      "launchProjectFor(bytes32,string,(uint256,uint256,uint256,uint256,uint256,address),(uint256,uint256,uint256,bool,bool,bool,bool,bool,bool,bool,address),(address,uint256)[],(bool,uint16,uint48,address,address,uint56)[],(bool,uint16,uint48,address,address,uint56)[],address)": {
        "notice": "Creates a project. This will mint an ERC-721 into the `_owner`'s account, configure a first funding cycle, and set up any splits."
      },
      "mintTokensOf(uint256,uint256,address,string,bool,bool)": {
        "notice": "Mint new token supply into an account."
      },
      "operatorStore()": {
        "notice": "A contract storing operator assignments."
      },
      "overflowAllowanceOf(uint256,uint256,address)": {
        "notice": " The amount of overflow that a project is allowed to tap into on-demand."
      },
      "projects()": {
        "notice": " The Projects contract which mints ERC-721's that represent project ownership."
      },
      "reconfigureFundingCyclesOf(uint256,(uint256,uint256,uint256,uint256,uint256,address),(uint256,uint256,uint256,bool,bool,bool,bool,bool,bool,bool,address),(address,uint256)[],(bool,uint16,uint48,address,address,uint56)[],(bool,uint16,uint48,address,address,uint56)[])": {
        "notice": "Configures the properties of the current funding cycle if the project hasn't distributed tokens yet, or sets the properties of the proposed funding cycle that will take effect once the current one expires if it is approved by the current funding cycle's ballot."
      },
      "reservedTokenBalanceOf(uint256,uint256)": {
        "notice": "Gets the amount of reserved tokens that a project has available to distribute."
      },
      "splitsStore()": {
        "notice": " The contract that stores splits for each project."
      },
      "tokenStore()": {
        "notice": " The contract that manages token minting and burning."
      }
    },
    "version": 1
  },
  "storageLayout": {
    "storage": [
      {
        "astId": 53,
        "contract": "contracts/v2/JBController.sol:JBController",
        "label": "_owner",
        "offset": 0,
        "slot": "0",
        "type": "t_address"
      },
      {
        "astId": 160,
        "contract": "contracts/v2/JBController.sol:JBController",
        "label": "_status",
        "offset": 0,
        "slot": "1",
        "type": "t_uint256"
      },
      {
        "astId": 15651,
        "contract": "contracts/v2/JBController.sol:JBController",
        "label": "_processedTokenTrackerOf",
        "offset": 0,
        "slot": "2",
        "type": "t_mapping(t_uint256,t_int256)"
      },
      {
        "astId": 15687,
        "contract": "contracts/v2/JBController.sol:JBController",
        "label": "overflowAllowanceOf",
        "offset": 0,
        "slot": "3",
        "type": "t_mapping(t_uint256,t_mapping(t_uint256,t_mapping(t_contract(IJBTerminal)25212,t_uint256)))"
      },
      {
        "astId": 15692,
        "contract": "contracts/v2/JBController.sol:JBController",
        "label": "fee",
        "offset": 0,
        "slot": "4",
        "type": "t_uint256"
      }
    ],
    "types": {
      "t_address": {
        "encoding": "inplace",
        "label": "address",
        "numberOfBytes": "20"
      },
      "t_contract(IJBTerminal)25212": {
        "encoding": "inplace",
        "label": "contract IJBTerminal",
        "numberOfBytes": "20"
      },
      "t_int256": {
        "encoding": "inplace",
        "label": "int256",
        "numberOfBytes": "32"
      },
      "t_mapping(t_contract(IJBTerminal)25212,t_uint256)": {
        "encoding": "mapping",
        "key": "t_contract(IJBTerminal)25212",
        "label": "mapping(contract IJBTerminal => uint256)",
        "numberOfBytes": "32",
        "value": "t_uint256"
      },
      "t_mapping(t_uint256,t_int256)": {
        "encoding": "mapping",
        "key": "t_uint256",
        "label": "mapping(uint256 => int256)",
        "numberOfBytes": "32",
        "value": "t_int256"
      },
      "t_mapping(t_uint256,t_mapping(t_contract(IJBTerminal)25212,t_uint256))": {
        "encoding": "mapping",
        "key": "t_uint256",
        "label": "mapping(uint256 => mapping(contract IJBTerminal => uint256))",
        "numberOfBytes": "32",
        "value": "t_mapping(t_contract(IJBTerminal)25212,t_uint256)"
      },
      "t_mapping(t_uint256,t_mapping(t_uint256,t_mapping(t_contract(IJBTerminal)25212,t_uint256)))": {
        "encoding": "mapping",
        "key": "t_uint256",
        "label": "mapping(uint256 => mapping(uint256 => mapping(contract IJBTerminal => uint256)))",
        "numberOfBytes": "32",
        "value": "t_mapping(t_uint256,t_mapping(t_contract(IJBTerminal)25212,t_uint256))"
      },
      "t_uint256": {
        "encoding": "inplace",
        "label": "uint256",
        "numberOfBytes": "32"
      }
    }
  }
}