{
  "address": "0x32802D81D94Bd3E349dE6c7A83C2FeAEA21ee68A",
  "abi": [
    {
      "inputs": [
        {
          "internalType": "contract IJBOperatorStore",
          "name": "_operatorStore",
          "type": "address"
        },
        {
          "internalType": "contract IJBProjects",
          "name": "_projects",
          "type": "address"
        },
        {
          "internalType": "contract IJBDirectory",
          "name": "_directory",
          "type": "address"
        },
        {
          "internalType": "contract IJBFundingCycleStore",
          "name": "_fundingCycleStore",
          "type": "address"
        },
        {
          "internalType": "contract IJBTokenStore",
          "name": "_tokenStore",
          "type": "address"
        },
        {
          "internalType": "contract IJBSplitsStore",
          "name": "_splitsStore",
          "type": "address"
        }
      ],
      "stateMutability": "nonpayable",
      "type": "constructor"
    },
    {
      "inputs": [
        {
          "internalType": "uint256",
          "name": "prod1",
          "type": "uint256"
        },
        {
          "internalType": "uint256",
          "name": "denominator",
          "type": "uint256"
        }
      ],
      "name": "PRBMath__MulDivOverflow",
      "type": "error"
    },
    {
      "anonymous": false,
      "inputs": [
        {
          "indexed": true,
          "internalType": "address",
          "name": "holder",
          "type": "address"
        },
        {
          "indexed": true,
          "internalType": "uint256",
          "name": "projectId",
          "type": "uint256"
        },
        {
          "indexed": false,
          "internalType": "uint256",
          "name": "count",
          "type": "uint256"
        },
        {
          "indexed": false,
          "internalType": "string",
          "name": "memo",
          "type": "string"
        },
        {
          "indexed": false,
          "internalType": "address",
          "name": "caller",
          "type": "address"
        }
      ],
      "name": "BurnTokens",
      "type": "event"
    },
    {
      "anonymous": false,
      "inputs": [
        {
          "indexed": true,
          "internalType": "uint256",
          "name": "fundingCycleConfiguration",
          "type": "uint256"
        },
        {
          "indexed": true,
          "internalType": "uint256",
          "name": "fundingCycleNumber",
          "type": "uint256"
        },
        {
          "indexed": true,
          "internalType": "uint256",
          "name": "projectId",
          "type": "uint256"
        },
        {
          "indexed": false,
          "internalType": "address",
          "name": "beneficiary",
          "type": "address"
        },
        {
          "indexed": false,
          "internalType": "uint256",
          "name": "count",
          "type": "uint256"
        },
        {
          "indexed": false,
          "internalType": "uint256",
          "name": "beneficiaryTokenCount",
          "type": "uint256"
        },
        {
          "indexed": false,
          "internalType": "string",
          "name": "memo",
          "type": "string"
        },
        {
          "indexed": false,
          "internalType": "address",
          "name": "caller",
          "type": "address"
        }
      ],
      "name": "DistributeReservedTokens",
      "type": "event"
    },
    {
      "anonymous": false,
      "inputs": [
        {
          "indexed": true,
          "internalType": "uint256",
          "name": "fundingCycleConfiguration",
          "type": "uint256"
        },
        {
          "indexed": true,
          "internalType": "uint256",
          "name": "fundingCycleNumber",
          "type": "uint256"
        },
        {
          "indexed": true,
          "internalType": "uint256",
          "name": "projectId",
          "type": "uint256"
        },
        {
          "components": [
            {
              "internalType": "bool",
              "name": "preferClaimed",
              "type": "bool"
            },
            {
              "internalType": "uint24",
              "name": "percent",
              "type": "uint24"
            },
            {
              "internalType": "uint48",
              "name": "lockedUntil",
              "type": "uint48"
            },
            {
              "internalType": "address payable",
              "name": "beneficiary",
              "type": "address"
            },
            {
              "internalType": "contract IJBSplitAllocator",
              "name": "allocator",
              "type": "address"
            },
            {
              "internalType": "uint56",
              "name": "projectId",
              "type": "uint56"
            }
          ],
          "indexed": false,
          "internalType": "struct JBSplit",
          "name": "split",
          "type": "tuple"
        },
        {
          "indexed": false,
          "internalType": "uint256",
          "name": "count",
          "type": "uint256"
        },
        {
          "indexed": false,
          "internalType": "address",
          "name": "caller",
          "type": "address"
        }
      ],
      "name": "DistributeToReservedTokenSplit",
      "type": "event"
    },
    {
      "anonymous": false,
      "inputs": [
        {
          "indexed": true,
          "internalType": "uint256",
          "name": "projectId",
          "type": "uint256"
        },
        {
          "indexed": false,
          "internalType": "contract IJBController",
          "name": "to",
          "type": "address"
        },
        {
          "indexed": false,
          "internalType": "address",
          "name": "caller",
          "type": "address"
        }
      ],
      "name": "Migrate",
      "type": "event"
    },
    {
      "anonymous": false,
      "inputs": [
        {
          "indexed": true,
          "internalType": "address",
          "name": "beneficiary",
          "type": "address"
        },
        {
          "indexed": true,
          "internalType": "uint256",
          "name": "projectId",
          "type": "uint256"
        },
        {
          "indexed": true,
          "internalType": "uint256",
          "name": "count",
          "type": "uint256"
        },
        {
          "indexed": false,
          "internalType": "string",
          "name": "memo",
          "type": "string"
        },
        {
          "indexed": false,
          "internalType": "uint256",
          "name": "reservedRate",
          "type": "uint256"
        },
        {
          "indexed": false,
          "internalType": "address",
          "name": "caller",
          "type": "address"
        }
      ],
      "name": "MintTokens",
      "type": "event"
    },
    {
      "anonymous": false,
      "inputs": [
        {
          "indexed": true,
          "internalType": "uint256",
          "name": "fundingCycleConfiguration",
          "type": "uint256"
        },
        {
          "indexed": true,
          "internalType": "uint256",
          "name": "fundingCycleNumber",
          "type": "uint256"
        },
        {
          "indexed": true,
          "internalType": "uint256",
          "name": "projectId",
          "type": "uint256"
        },
        {
          "components": [
            {
              "internalType": "contract IJBTerminal",
              "name": "terminal",
              "type": "address"
            },
            {
              "internalType": "uint256",
              "name": "distributionLimit",
              "type": "uint256"
            },
            {
              "internalType": "uint256",
              "name": "overflowAllowance",
              "type": "uint256"
            },
            {
              "internalType": "uint256",
              "name": "currency",
              "type": "uint256"
            }
          ],
          "indexed": false,
          "internalType": "struct JBFundAccessConstraints",
          "name": "constraints",
          "type": "tuple"
        },
        {
          "indexed": false,
          "internalType": "address",
          "name": "caller",
          "type": "address"
        }
      ],
      "name": "SetFundAccessConstraints",
      "type": "event"
    },
    {
      "inputs": [
        {
          "internalType": "address",
          "name": "_holder",
          "type": "address"
        },
        {
          "internalType": "uint256",
          "name": "_projectId",
          "type": "uint256"
        },
        {
          "internalType": "uint256",
          "name": "_tokenCount",
          "type": "uint256"
        },
        {
          "internalType": "string",
          "name": "_memo",
          "type": "string"
        },
        {
          "internalType": "bool",
          "name": "_preferClaimedTokens",
          "type": "bool"
        }
      ],
      "name": "burnTokensOf",
      "outputs": [],
      "stateMutability": "nonpayable",
      "type": "function"
    },
    {
      "inputs": [
        {
          "internalType": "uint256",
          "name": "_projectId",
          "type": "uint256"
        },
        {
          "internalType": "contract IJBToken",
          "name": "_token",
          "type": "address"
        },
        {
          "internalType": "address",
          "name": "_newOwner",
          "type": "address"
        }
      ],
      "name": "changeTokenOf",
      "outputs": [],
      "stateMutability": "nonpayable",
      "type": "function"
    },
    {
      "inputs": [
        {
          "internalType": "uint256",
          "name": "",
          "type": "uint256"
        },
        {
          "internalType": "uint256",
          "name": "",
          "type": "uint256"
        },
        {
          "internalType": "contract IJBTerminal",
          "name": "",
          "type": "address"
        }
      ],
      "name": "currencyOf",
      "outputs": [
        {
          "internalType": "uint256",
          "name": "",
          "type": "uint256"
        }
      ],
      "stateMutability": "view",
      "type": "function"
    },
    {
      "inputs": [],
      "name": "directory",
      "outputs": [
        {
          "internalType": "contract IJBDirectory",
          "name": "",
          "type": "address"
        }
      ],
      "stateMutability": "view",
      "type": "function"
    },
    {
      "inputs": [
        {
          "internalType": "uint256",
          "name": "_projectId",
          "type": "uint256"
        },
        {
          "internalType": "string",
          "name": "_memo",
          "type": "string"
        }
      ],
      "name": "distributeReservedTokensOf",
      "outputs": [
        {
          "internalType": "uint256",
          "name": "",
          "type": "uint256"
        }
      ],
      "stateMutability": "nonpayable",
      "type": "function"
    },
    {
      "inputs": [
        {
          "internalType": "uint256",
          "name": "",
          "type": "uint256"
        },
        {
          "internalType": "uint256",
          "name": "",
          "type": "uint256"
        },
        {
          "internalType": "contract IJBTerminal",
          "name": "",
          "type": "address"
        }
      ],
      "name": "distributionLimitOf",
      "outputs": [
        {
          "internalType": "uint256",
          "name": "",
          "type": "uint256"
        }
      ],
      "stateMutability": "view",
      "type": "function"
    },
    {
      "inputs": [],
      "name": "fundingCycleStore",
      "outputs": [
        {
          "internalType": "contract IJBFundingCycleStore",
          "name": "",
          "type": "address"
        }
      ],
      "stateMutability": "view",
      "type": "function"
    },
    {
      "inputs": [
        {
          "internalType": "uint256",
          "name": "_projectId",
          "type": "uint256"
        },
        {
          "internalType": "string",
          "name": "_name",
          "type": "string"
        },
        {
          "internalType": "string",
          "name": "_symbol",
          "type": "string"
        }
      ],
      "name": "issueTokenFor",
      "outputs": [
        {
          "internalType": "contract IJBToken",
          "name": "token",
          "type": "address"
        }
      ],
      "stateMutability": "nonpayable",
      "type": "function"
    },
    {
      "inputs": [
        {
          "internalType": "address",
          "name": "_owner",
          "type": "address"
        },
        {
          "internalType": "bytes32",
          "name": "_handle",
          "type": "bytes32"
        },
        {
          "internalType": "string",
          "name": "_metadataCid",
          "type": "string"
        },
        {
          "components": [
            {
              "internalType": "uint256",
              "name": "duration",
              "type": "uint256"
            },
            {
              "internalType": "uint256",
              "name": "weight",
              "type": "uint256"
            },
            {
              "internalType": "uint256",
              "name": "discountRate",
              "type": "uint256"
            },
            {
              "internalType": "contract IJBFundingCycleBallot",
              "name": "ballot",
              "type": "address"
            }
          ],
          "internalType": "struct JBFundingCycleData",
          "name": "_data",
          "type": "tuple"
        },
        {
          "components": [
            {
              "internalType": "uint256",
              "name": "reservedRate",
              "type": "uint256"
            },
            {
              "internalType": "uint256",
              "name": "redemptionRate",
              "type": "uint256"
            },
            {
              "internalType": "uint256",
              "name": "ballotRedemptionRate",
              "type": "uint256"
            },
            {
              "internalType": "bool",
              "name": "pausePay",
              "type": "bool"
            },
            {
              "internalType": "bool",
              "name": "pauseDistributions",
              "type": "bool"
            },
            {
              "internalType": "bool",
              "name": "pauseRedeem",
              "type": "bool"
            },
            {
              "internalType": "bool",
              "name": "pauseMint",
              "type": "bool"
            },
            {
              "internalType": "bool",
              "name": "pauseBurn",
              "type": "bool"
            },
            {
              "internalType": "bool",
              "name": "allowChangeToken",
              "type": "bool"
            },
            {
              "internalType": "bool",
              "name": "allowTerminalMigration",
              "type": "bool"
            },
            {
              "internalType": "bool",
              "name": "allowControllerMigration",
              "type": "bool"
            },
            {
              "internalType": "bool",
              "name": "holdFees",
              "type": "bool"
            },
            {
              "internalType": "bool",
              "name": "useLocalBalanceForRedemptions",
              "type": "bool"
            },
            {
              "internalType": "bool",
              "name": "useDataSourceForPay",
              "type": "bool"
            },
            {
              "internalType": "bool",
              "name": "useDataSourceForRedeem",
              "type": "bool"
            },
            {
              "internalType": "contract IJBFundingCycleDataSource",
              "name": "dataSource",
              "type": "address"
            }
          ],
          "internalType": "struct JBFundingCycleMetadata",
          "name": "_metadata",
          "type": "tuple"
        },
        {
          "components": [
            {
              "internalType": "uint256",
              "name": "group",
              "type": "uint256"
            },
            {
              "components": [
                {
                  "internalType": "bool",
                  "name": "preferClaimed",
                  "type": "bool"
                },
                {
                  "internalType": "uint24",
                  "name": "percent",
                  "type": "uint24"
                },
                {
                  "internalType": "uint48",
                  "name": "lockedUntil",
                  "type": "uint48"
                },
                {
                  "internalType": "address payable",
                  "name": "beneficiary",
                  "type": "address"
                },
                {
                  "internalType": "contract IJBSplitAllocator",
                  "name": "allocator",
                  "type": "address"
                },
                {
                  "internalType": "uint56",
                  "name": "projectId",
                  "type": "uint56"
                }
              ],
              "internalType": "struct JBSplit[]",
              "name": "splits",
              "type": "tuple[]"
            }
          ],
          "internalType": "struct JBGroupedSplits[]",
          "name": "_groupedSplits",
          "type": "tuple[]"
        },
        {
          "components": [
            {
              "internalType": "contract IJBTerminal",
              "name": "terminal",
              "type": "address"
            },
            {
              "internalType": "uint256",
              "name": "distributionLimit",
              "type": "uint256"
            },
            {
              "internalType": "uint256",
              "name": "overflowAllowance",
              "type": "uint256"
            },
            {
              "internalType": "uint256",
              "name": "currency",
              "type": "uint256"
            }
          ],
          "internalType": "struct JBFundAccessConstraints[]",
          "name": "_fundAccessConstraints",
          "type": "tuple[]"
        },
        {
          "internalType": "contract IJBTerminal[]",
          "name": "_terminals",
          "type": "address[]"
        }
      ],
      "name": "launchProjectFor",
      "outputs": [
        {
          "internalType": "uint256",
          "name": "projectId",
          "type": "uint256"
        }
      ],
      "stateMutability": "nonpayable",
      "type": "function"
    },
    {
      "inputs": [
        {
          "internalType": "uint256",
          "name": "_projectId",
          "type": "uint256"
        },
        {
          "internalType": "contract IJBController",
          "name": "_to",
          "type": "address"
        }
      ],
      "name": "migrate",
      "outputs": [],
      "stateMutability": "nonpayable",
      "type": "function"
    },
    {
      "inputs": [
        {
          "internalType": "uint256",
          "name": "_projectId",
          "type": "uint256"
        },
        {
          "internalType": "uint256",
          "name": "_tokenCount",
          "type": "uint256"
        },
        {
          "internalType": "address",
          "name": "_beneficiary",
          "type": "address"
        },
        {
          "internalType": "string",
          "name": "_memo",
          "type": "string"
        },
        {
          "internalType": "bool",
          "name": "_preferClaimedTokens",
          "type": "bool"
        },
        {
          "internalType": "uint256",
          "name": "_reservedRate",
          "type": "uint256"
        }
      ],
      "name": "mintTokensOf",
      "outputs": [
        {
          "internalType": "uint256",
          "name": "beneficiaryTokenCount",
          "type": "uint256"
        }
      ],
      "stateMutability": "nonpayable",
      "type": "function"
    },
    {
      "inputs": [],
      "name": "operatorStore",
      "outputs": [
        {
          "internalType": "contract IJBOperatorStore",
          "name": "",
          "type": "address"
        }
      ],
      "stateMutability": "view",
      "type": "function"
    },
    {
      "inputs": [
        {
          "internalType": "uint256",
          "name": "",
          "type": "uint256"
        },
        {
          "internalType": "uint256",
          "name": "",
          "type": "uint256"
        },
        {
          "internalType": "contract IJBTerminal",
          "name": "",
          "type": "address"
        }
      ],
      "name": "overflowAllowanceOf",
      "outputs": [
        {
          "internalType": "uint256",
          "name": "",
          "type": "uint256"
        }
      ],
      "stateMutability": "view",
      "type": "function"
    },
    {
      "inputs": [
        {
          "internalType": "uint256",
          "name": "_projectId",
          "type": "uint256"
        },
        {
          "internalType": "contract IJBController",
          "name": "",
          "type": "address"
        }
      ],
      "name": "prepForMigrationOf",
      "outputs": [],
      "stateMutability": "nonpayable",
      "type": "function"
    },
    {
      "inputs": [],
      "name": "projects",
      "outputs": [
        {
          "internalType": "contract IJBProjects",
          "name": "",
          "type": "address"
        }
      ],
      "stateMutability": "view",
      "type": "function"
    },
    {
      "inputs": [
        {
          "internalType": "uint256",
          "name": "_projectId",
          "type": "uint256"
        },
        {
          "components": [
            {
              "internalType": "uint256",
              "name": "duration",
              "type": "uint256"
            },
            {
              "internalType": "uint256",
              "name": "weight",
              "type": "uint256"
            },
            {
              "internalType": "uint256",
              "name": "discountRate",
              "type": "uint256"
            },
            {
              "internalType": "contract IJBFundingCycleBallot",
              "name": "ballot",
              "type": "address"
            }
          ],
          "internalType": "struct JBFundingCycleData",
          "name": "_data",
          "type": "tuple"
        },
        {
          "components": [
            {
              "internalType": "uint256",
              "name": "reservedRate",
              "type": "uint256"
            },
            {
              "internalType": "uint256",
              "name": "redemptionRate",
              "type": "uint256"
            },
            {
              "internalType": "uint256",
              "name": "ballotRedemptionRate",
              "type": "uint256"
            },
            {
              "internalType": "bool",
              "name": "pausePay",
              "type": "bool"
            },
            {
              "internalType": "bool",
              "name": "pauseDistributions",
              "type": "bool"
            },
            {
              "internalType": "bool",
              "name": "pauseRedeem",
              "type": "bool"
            },
            {
              "internalType": "bool",
              "name": "pauseMint",
              "type": "bool"
            },
            {
              "internalType": "bool",
              "name": "pauseBurn",
              "type": "bool"
            },
            {
              "internalType": "bool",
              "name": "allowChangeToken",
              "type": "bool"
            },
            {
              "internalType": "bool",
              "name": "allowTerminalMigration",
              "type": "bool"
            },
            {
              "internalType": "bool",
              "name": "allowControllerMigration",
              "type": "bool"
            },
            {
              "internalType": "bool",
              "name": "holdFees",
              "type": "bool"
            },
            {
              "internalType": "bool",
              "name": "useLocalBalanceForRedemptions",
              "type": "bool"
            },
            {
              "internalType": "bool",
              "name": "useDataSourceForPay",
              "type": "bool"
            },
            {
              "internalType": "bool",
              "name": "useDataSourceForRedeem",
              "type": "bool"
            },
            {
              "internalType": "contract IJBFundingCycleDataSource",
              "name": "dataSource",
              "type": "address"
            }
          ],
          "internalType": "struct JBFundingCycleMetadata",
          "name": "_metadata",
          "type": "tuple"
        },
        {
          "components": [
            {
              "internalType": "uint256",
              "name": "group",
              "type": "uint256"
            },
            {
              "components": [
                {
                  "internalType": "bool",
                  "name": "preferClaimed",
                  "type": "bool"
                },
                {
                  "internalType": "uint24",
                  "name": "percent",
                  "type": "uint24"
                },
                {
                  "internalType": "uint48",
                  "name": "lockedUntil",
                  "type": "uint48"
                },
                {
                  "internalType": "address payable",
                  "name": "beneficiary",
                  "type": "address"
                },
                {
                  "internalType": "contract IJBSplitAllocator",
                  "name": "allocator",
                  "type": "address"
                },
                {
                  "internalType": "uint56",
                  "name": "projectId",
                  "type": "uint56"
                }
              ],
              "internalType": "struct JBSplit[]",
              "name": "splits",
              "type": "tuple[]"
            }
          ],
          "internalType": "struct JBGroupedSplits[]",
          "name": "_groupedSplits",
          "type": "tuple[]"
        },
        {
          "components": [
            {
              "internalType": "contract IJBTerminal",
              "name": "terminal",
              "type": "address"
            },
            {
              "internalType": "uint256",
              "name": "distributionLimit",
              "type": "uint256"
            },
            {
              "internalType": "uint256",
              "name": "overflowAllowance",
              "type": "uint256"
            },
            {
              "internalType": "uint256",
              "name": "currency",
              "type": "uint256"
            }
          ],
          "internalType": "struct JBFundAccessConstraints[]",
          "name": "_fundAccessConstraints",
          "type": "tuple[]"
        }
      ],
      "name": "reconfigureFundingCyclesOf",
      "outputs": [
        {
          "internalType": "uint256",
          "name": "",
          "type": "uint256"
        }
      ],
      "stateMutability": "nonpayable",
      "type": "function"
    },
    {
      "inputs": [
        {
          "internalType": "uint256",
          "name": "_projectId",
          "type": "uint256"
        },
        {
          "internalType": "uint256",
          "name": "_reservedRate",
          "type": "uint256"
        }
      ],
      "name": "reservedTokenBalanceOf",
      "outputs": [
        {
          "internalType": "uint256",
          "name": "",
          "type": "uint256"
        }
      ],
      "stateMutability": "view",
      "type": "function"
    },
    {
      "inputs": [],
      "name": "splitsStore",
      "outputs": [
        {
          "internalType": "contract IJBSplitsStore",
          "name": "",
          "type": "address"
        }
      ],
      "stateMutability": "view",
      "type": "function"
    },
    {
      "inputs": [],
      "name": "tokenStore",
      "outputs": [
        {
          "internalType": "contract IJBTokenStore",
          "name": "",
          "type": "address"
        }
      ],
      "stateMutability": "view",
      "type": "function"
    }
  ],
  "transactionHash": "0x6d3890318d32fe1d225a177e49b301dab8be044528462becf21bc91fe41d6b41",
  "args": [
    "0x21c1E45E7EBC41f3ED0aB6660204d63c911c93a9",
    "0x0a75928644d0E25Dc9340c33d0D946Fabef2046C",
    "0xf4326041BE30a4b7fc4db9Bb6286fef458F71fe2",
    "0x1bd2d2D0a5F5981636a4EC1b28195722E1D333bD",
    "0x9afc7156d8034A6Bbd4297D450f17cB4027BF9F5",
    "0x703d932403408d1a4Ae3Ea2921207d2f550e2e67"
  ],
  "solcInputHash": "5f321124cef92f5734094814cf45799b",
  "bytecode": "0x6101406040523480156200001257600080fd5b506040516200534838038062005348833981016040819052620000359162000079565b6001600160601b0319606094851b811660805295841b861660a052600160005593831b851660c05290821b841660e052811b8316610100521b166101205262000126565b60008060008060008060c087890312156200009357600080fd5b8651620000a0816200010d565b6020880151909650620000b3816200010d565b6040880151909550620000c6816200010d565b6060880151909450620000d9816200010d565b6080880151909350620000ec816200010d565b60a0880151909250620000ff816200010d565b809150509295509295509295565b6001600160a01b03811681146200012357600080fd5b50565b60805160601c60a05160601c60c05160601c60e05160601c6101005160601c6101205160601c615077620002d160003960008181610183015281816133ba01526137090152600081816102d5015281816109d201528181610f370152818161169f0152818161195001528181611f9501528181612833015281816129770152818161300b0152818161320901526138230152600081816102ae0152818161079401528181610df7015281816114a901528181611e7a01528181612f4601526132d40152600081816102fc01528181610b1c0152818161102a01528181611a240152818161231c0152818161254d01528181612a44015281816130fb01526138a9015260008181610323015281816105730152818161064c01528181610c2601528181610cff01528181611202015281816112db01528181611b2e01528181611c07015281816126570152818161273001528181612b4e0152612c2701526000818161035d015281816104640152818161087001528181611108015281816115850152818161184301528181611d6b01528181612123015281816123e101526124a401526150776000f3fe608060405234801561001057600080fd5b50600436106101515760003560e01c8063557e7155116100cd578063c41c2f2411610081578063e867c59c11610066578063e867c59c14610392578063f033b3b4146103a5578063f232e098146103b857600080fd5b8063c41c2f2414610358578063d10130731461037f57600080fd5b80638b79543c116100b25780638b79543c146102f7578063ad007d631461031e578063adb9a00f1461034557600080fd5b8063557e7155146102a957806361930630146102d057600080fd5b80633732d12c11610124578063405b84fa11610109578063405b84fa146102345780635172a2bf146102475780635578dfd71461027857600080fd5b80633732d12c146101f05780633e8c615b1461022157600080fd5b80631665bc0f14610156578063229bb8241461016b5780632bdfe0041461017e578063369e6f34146101cf575b600080fd5b6101696101643660046141c6565b6103cb565b005b61016961017936600461455e565b610a95565b6101a57f000000000000000000000000000000000000000000000000000000000000000081565b60405173ffffffffffffffffffffffffffffffffffffffff90911681526020015b60405180910390f35b6101e26101dd36600461478d565b610fa1565b6040519081526020016101c6565b6101e26101fe366004614814565b600460209081526000938452604080852082529284528284209052825290205481565b61016961022f36600461452e565b6117fd565b61016961024236600461452e565b6119f5565b6101e2610255366004614814565b600260209081526000938452604080852082529284528284209052825290205481565b6101e2610286366004614814565b600360209081526000938452604080852082529284528284209052825290205481565b6101a57f000000000000000000000000000000000000000000000000000000000000000081565b6101a57f000000000000000000000000000000000000000000000000000000000000000081565b6101a57f000000000000000000000000000000000000000000000000000000000000000081565b6101a57f000000000000000000000000000000000000000000000000000000000000000081565b6101e26103533660046140d0565b6121de565b6101a57f000000000000000000000000000000000000000000000000000000000000000081565b6101a561038d3660046145a0565b61251b565b6101e26103a036600461461a565b6128c2565b6101e26103b336600461476b565b612932565b6101e26103c63660046146d7565b612a12565b600260005414156104235760405162461bcd60e51b815260206004820152601f60248201527f5265656e7472616e637947756172643a207265656e7472616e742063616c6c0060448201526064015b60405180910390fd5b60026000556040517f898370ee0000000000000000000000000000000000000000000000000000000081526004810186905233602482015286908690600d907f000000000000000000000000000000000000000000000000000000000000000073ffffffffffffffffffffffffffffffffffffffff169063898370ee9060440160206040518083038186803b1580156104bb57600080fd5b505afa1580156104cf573d6000803e3d6000fd5b505050506040513d601f19601f820116820180604052508101906104f39190614359565b808061051457503373ffffffffffffffffffffffffffffffffffffffff8516145b806105ed57506040517fc161c93f00000000000000000000000000000000000000000000000000000000815233600482015273ffffffffffffffffffffffffffffffffffffffff858116602483015260448201859052606482018490527f0000000000000000000000000000000000000000000000000000000000000000169063c161c93f9060840160206040518083038186803b1580156105b557600080fd5b505afa1580156105c9573d6000803e3d6000fd5b505050506040513d601f19601f820116820180604052508101906105ed9190614359565b806106c657506040517fc161c93f00000000000000000000000000000000000000000000000000000000815233600482015273ffffffffffffffffffffffffffffffffffffffff858116602483015260006044830152606482018490527f0000000000000000000000000000000000000000000000000000000000000000169063c161c93f9060840160206040518083038186803b15801561068e57600080fd5b505afa1580156106a2573d6000803e3d6000fd5b505050506040513d601f19601f820116820180604052508101906106c69190614359565b6107125760405162461bcd60e51b815260206004820152601860248201527f4f706572617461626c653a20554e415554484f52495a45440000000000000000604482015260640161041a565b600088116107625760405162461bcd60e51b815260206004820152600b60248201527f307833323a204e4f5f4f50000000000000000000000000000000000000000000604482015260640161041a565b6040517f43a266c2000000000000000000000000000000000000000000000000000000008152600481018a90526000907f000000000000000000000000000000000000000000000000000000000000000073ffffffffffffffffffffffffffffffffffffffff16906343a266c2906024016101206040518083038186803b1580156107ec57600080fd5b505afa158015610800573d6000803e3d6000fd5b505050506040513d601f19601f820116820180604052508101906108249190614495565b610100810151909150603c1c6001161515806108ff57506040517f898370ee000000000000000000000000000000000000000000000000000000008152600481018b90523360248201527f000000000000000000000000000000000000000000000000000000000000000073ffffffffffffffffffffffffffffffffffffffff169063898370ee9060440160206040518083038186803b1580156108c757600080fd5b505afa1580156108db573d6000803e3d6000fd5b505050506040513d601f19601f820116820180604052508101906108ff9190614359565b61094b5760405162461bcd60e51b815260206004820152600c60248201527f307833333a205041555345440000000000000000000000000000000000000000604482015260640161041a565b60008a815260016020526040902054610965908a90614e1b565b60008b8152600160205260409081902091909155517f906ebd0f00000000000000000000000000000000000000000000000000000000815273ffffffffffffffffffffffffffffffffffffffff8c81166004830152602482018c9052604482018b905287151560648301527f0000000000000000000000000000000000000000000000000000000000000000169063906ebd0f90608401600060405180830381600087803b158015610a1657600080fd5b505af1158015610a2a573d6000803e3d6000fd5b50505050898b73ffffffffffffffffffffffffffffffffffffffff167fdf04e13ee4fcd48a81ab2fd114757093740a3efa9b6475d86e05878b4c59d0798b8b8b33604051610a7b9493929190614abe565b60405180910390a350506001600055505050505050505050565b60026000541415610ae85760405162461bcd60e51b815260206004820152601f60248201527f5265656e7472616e637947756172643a207265656e7472616e742063616c6c00604482015260640161041a565b60026000556040517f6352211e000000000000000000000000000000000000000000000000000000008152600481018490527f000000000000000000000000000000000000000000000000000000000000000073ffffffffffffffffffffffffffffffffffffffff1690636352211e9060240160206040518083038186803b158015610b7357600080fd5b505afa158015610b87573d6000803e3d6000fd5b505050506040513d601f19601f82011682018060405250810190610bab91906140b3565b83600b3373ffffffffffffffffffffffffffffffffffffffff84161480610ca057506040517fc161c93f00000000000000000000000000000000000000000000000000000000815233600482015273ffffffffffffffffffffffffffffffffffffffff848116602483015260448201849052606482018390527f0000000000000000000000000000000000000000000000000000000000000000169063c161c93f9060840160206040518083038186803b158015610c6857600080fd5b505afa158015610c7c573d6000803e3d6000fd5b505050506040513d601f19601f82011682018060405250810190610ca09190614359565b80610d7957506040517fc161c93f00000000000000000000000000000000000000000000000000000000815233600482015273ffffffffffffffffffffffffffffffffffffffff848116602483015260006044830152606482018390527f0000000000000000000000000000000000000000000000000000000000000000169063c161c93f9060840160206040518083038186803b158015610d4157600080fd5b505afa158015610d55573d6000803e3d6000fd5b505050506040513d601f19601f82011682018060405250810190610d799190614359565b610dc55760405162461bcd60e51b815260206004820152601860248201527f4f706572617461626c653a20554e415554484f52495a45440000000000000000604482015260640161041a565b6040517f43a266c2000000000000000000000000000000000000000000000000000000008152600481018790526000907f000000000000000000000000000000000000000000000000000000000000000073ffffffffffffffffffffffffffffffffffffffff16906343a266c2906024016101206040518083038186803b158015610e4f57600080fd5b505afa158015610e63573d6000803e3d6000fd5b505050506040513d601f19601f82011682018060405250810190610e879190614495565b610100810151909150603d1c60011615610ee35760405162461bcd60e51b815260206004820152601160248201527f307830353a204e4f545f414c4c4f574544000000000000000000000000000000604482015260640161041a565b6040517f57e4c7780000000000000000000000000000000000000000000000000000000081526004810188905273ffffffffffffffffffffffffffffffffffffffff878116602483015286811660448301527f000000000000000000000000000000000000000000000000000000000000000016906357e4c77890606401600060405180830381600087803b158015610f7b57600080fd5b505af1158015610f8f573d6000803e3d6000fd5b50506001600055505050505050505050565b600060026000541415610ff65760405162461bcd60e51b815260206004820152601f60248201527f5265656e7472616e637947756172643a207265656e7472616e742063616c6c00604482015260640161041a565b60026000556040517f6352211e000000000000000000000000000000000000000000000000000000008152600481018990527f000000000000000000000000000000000000000000000000000000000000000073ffffffffffffffffffffffffffffffffffffffff1690636352211e9060240160206040518083038186803b15801561108157600080fd5b505afa158015611095573d6000803e3d6000fd5b505050506040513d601f19601f820116820180604052508101906110b991906140b3565b6040517f898370ee000000000000000000000000000000000000000000000000000000008152600481018a90523360248201528990600c9073ffffffffffffffffffffffffffffffffffffffff7f0000000000000000000000000000000000000000000000000000000000000000169063898370ee9060440160206040518083038186803b15801561114a57600080fd5b505afa15801561115e573d6000803e3d6000fd5b505050506040513d601f19601f820116820180604052508101906111829190614359565b80806111a357503373ffffffffffffffffffffffffffffffffffffffff8516145b8061127c57506040517fc161c93f00000000000000000000000000000000000000000000000000000000815233600482015273ffffffffffffffffffffffffffffffffffffffff858116602483015260448201859052606482018490527f0000000000000000000000000000000000000000000000000000000000000000169063c161c93f9060840160206040518083038186803b15801561124457600080fd5b505afa158015611258573d6000803e3d6000fd5b505050506040513d601f19601f8201168201806040525081019061127c9190614359565b8061135557506040517fc161c93f00000000000000000000000000000000000000000000000000000000815233600482015273ffffffffffffffffffffffffffffffffffffffff858116602483015260006044830152606482018490527f0000000000000000000000000000000000000000000000000000000000000000169063c161c93f9060840160206040518083038186803b15801561131d57600080fd5b505afa158015611331573d6000803e3d6000fd5b505050506040513d601f19601f820116820180604052508101906113559190614359565b6113a15760405162461bcd60e51b815260206004820152601860248201527f4f706572617461626c653a20554e415554484f52495a45440000000000000000604482015260640161041a565b8561271014806113c6575073ffffffffffffffffffffffffffffffffffffffff8a1615155b6114125760405162461bcd60e51b815260206004820152601260248201527f307832663a205a45524f5f414444524553530000000000000000000000000000604482015260640161041a565b60008b116114625760405162461bcd60e51b815260206004820152600b60248201527f307833303a204e4f5f4f50000000000000000000000000000000000000000000604482015260640161041a565b6040517f43a266c2000000000000000000000000000000000000000000000000000000008152600481018d905260009073ffffffffffffffffffffffffffffffffffffffff7f000000000000000000000000000000000000000000000000000000000000000016906343a266c2906024016101206040518083038186803b1580156114ec57600080fd5b505afa158015611500573d6000803e3d6000fd5b505050506040513d601f19601f820116820180604052508101906115249190614495565b610100810151909150603b1c6001161515806115ff57506040517f898370ee000000000000000000000000000000000000000000000000000000008152600481018e905233602482015273ffffffffffffffffffffffffffffffffffffffff7f0000000000000000000000000000000000000000000000000000000000000000169063898370ee9060440160206040518083038186803b1580156115c757600080fd5b505afa1580156115db573d6000803e3d6000fd5b505050506040513d601f19601f820116820180604052508101906115ff9190614359565b61164b5760405162461bcd60e51b815260206004820152600c60248201527f307833313a205041555345440000000000000000000000000000000000000000604482015260640161041a565b8661271014156116835760008d81526001602052604090205461166f908d90614e1b565b60008e815260016020526040902055611791565b61169b8c61169389612710614e8f565b612710612df9565b95507f000000000000000000000000000000000000000000000000000000000000000073ffffffffffffffffffffffffffffffffffffffff1663ceddd3e48c8f898c6040518563ffffffff1660e01b815260040161172c949392919073ffffffffffffffffffffffffffffffffffffffff949094168452602084019290925260408301521515606082015260800190565b600060405180830381600087803b15801561174657600080fd5b505af115801561175a573d6000803e3d6000fd5b5050505086600014156117915760008d815260016020526040902054611781908790614d8f565b60008e8152600160205260409020555b8b8d8c73ffffffffffffffffffffffffffffffffffffffff167f795e99b6853d7eafe7c0ccc6fb02e87770a8284e2be638ef327b6347587bde2c8d8d8c336040516117df9493929190614984565b60405180910390a45050600160005550919998505050505050505050565b6040517f5dd8f6aa00000000000000000000000000000000000000000000000000000000815260048101839052309073ffffffffffffffffffffffffffffffffffffffff7f00000000000000000000000000000000000000000000000000000000000000001690635dd8f6aa9060240160206040518083038186803b15801561188557600080fd5b505afa158015611899573d6000803e3d6000fd5b505050506040513d601f19601f820116820180604052508101906118bd91906140b3565b73ffffffffffffffffffffffffffffffffffffffff1614156119215760405162461bcd60e51b815260206004820152600b60248201527f307833343a204e4f5f4f50000000000000000000000000000000000000000000604482015260640161041a565b6040517f75b0d9cd000000000000000000000000000000000000000000000000000000008152600481018390527f000000000000000000000000000000000000000000000000000000000000000073ffffffffffffffffffffffffffffffffffffffff16906375b0d9cd9060240160206040518083038186803b1580156119a757600080fd5b505afa1580156119bb573d6000803e3d6000fd5b505050506040513d601f19601f820116820180604052508101906119df9190614515565b6000928352600160205260409092209190915550565b6040517f6352211e000000000000000000000000000000000000000000000000000000008152600481018390527f000000000000000000000000000000000000000000000000000000000000000073ffffffffffffffffffffffffffffffffffffffff1690636352211e9060240160206040518083038186803b158015611a7b57600080fd5b505afa158015611a8f573d6000803e3d6000fd5b505050506040513d601f19601f82011682018060405250810190611ab391906140b3565b8260033373ffffffffffffffffffffffffffffffffffffffff84161480611ba857506040517fc161c93f00000000000000000000000000000000000000000000000000000000815233600482015273ffffffffffffffffffffffffffffffffffffffff848116602483015260448201849052606482018390527f0000000000000000000000000000000000000000000000000000000000000000169063c161c93f9060840160206040518083038186803b158015611b7057600080fd5b505afa158015611b84573d6000803e3d6000fd5b505050506040513d601f19601f82011682018060405250810190611ba89190614359565b80611c8157506040517fc161c93f00000000000000000000000000000000000000000000000000000000815233600482015273ffffffffffffffffffffffffffffffffffffffff848116602483015260006044830152606482018390527f0000000000000000000000000000000000000000000000000000000000000000169063c161c93f9060840160206040518083038186803b158015611c4957600080fd5b505afa158015611c5d573d6000803e3d6000fd5b505050506040513d601f19601f82011682018060405250810190611c819190614359565b611ccd5760405162461bcd60e51b815260206004820152601860248201527f4f706572617461626c653a20554e415554484f52495a45440000000000000000604482015260640161041a565b60026000541415611d205760405162461bcd60e51b815260206004820152601f60248201527f5265656e7472616e637947756172643a207265656e7472616e742063616c6c00604482015260640161041a565b60026000556040517f5dd8f6aa00000000000000000000000000000000000000000000000000000000815260048101869052309073ffffffffffffffffffffffffffffffffffffffff7f00000000000000000000000000000000000000000000000000000000000000001690635dd8f6aa9060240160206040518083038186803b158015611dad57600080fd5b505afa158015611dc1573d6000803e3d6000fd5b505050506040513d601f19601f82011682018060405250810190611de591906140b3565b73ffffffffffffffffffffffffffffffffffffffff1614611e485760405162461bcd60e51b815260206004820152600b60248201527f307833353a204e4f5f4f50000000000000000000000000000000000000000000604482015260640161041a565b6040517f43a266c2000000000000000000000000000000000000000000000000000000008152600481018690526000907f000000000000000000000000000000000000000000000000000000000000000073ffffffffffffffffffffffffffffffffffffffff16906343a266c2906024016101206040518083038186803b158015611ed257600080fd5b505afa158015611ee6573d6000803e3d6000fd5b505050506040513d601f19601f82011682018060405250810190611f0a9190614495565b610100810151909150603f1c60011615611f665760405162461bcd60e51b815260206004820152601160248201527f307833363a204e4f545f414c4c4f574544000000000000000000000000000000604482015260640161041a565b6040517f75b0d9cd000000000000000000000000000000000000000000000000000000008152600481018790527f000000000000000000000000000000000000000000000000000000000000000073ffffffffffffffffffffffffffffffffffffffff16906375b0d9cd9060240160206040518083038186803b158015611fec57600080fd5b505afa158015612000573d6000803e3d6000fd5b505050506040513d601f19601f820116820180604052508101906120249190614515565b60008781526001602052604090205414612053576120518660405180602001604052806000815250612efd565b505b6040517f3e8c615b0000000000000000000000000000000000000000000000000000000081526004810187905230602482015273ffffffffffffffffffffffffffffffffffffffff861690633e8c615b90604401600060405180830381600087803b1580156120c157600080fd5b505af11580156120d5573d6000803e3d6000fd5b50506040517f714e7f320000000000000000000000000000000000000000000000000000000081526004810189905273ffffffffffffffffffffffffffffffffffffffff88811660248301527f000000000000000000000000000000000000000000000000000000000000000016925063714e7f329150604401600060405180830381600087803b15801561216957600080fd5b505af115801561217d573d6000803e3d6000fd5b50506040805173ffffffffffffffffffffffffffffffffffffffff891681523360208201528993507f01f954abace731a88ab86e71186040cc2be49fe517ea06bc0d24f25b82b8345692500160405180910390a25050600160005550505050565b6000612710853511156122335760405162461bcd60e51b815260206004820152601760248201527f307833373a204241445f52455345525645445f52415445000000000000000000604482015260640161041a565b612710856020013511156122895760405162461bcd60e51b815260206004820152601960248201527f307833383a204241445f524544454d5054494f4e5f5241544500000000000000604482015260640161041a565b612710856040013511156122df5760405162461bcd60e51b815260206004820181905260248201527f307833393a204241445f42414c4c4f545f524544454d5054494f4e5f52415445604482015260640161041a565b6040517f733f012700000000000000000000000000000000000000000000000000000000815273ffffffffffffffffffffffffffffffffffffffff7f0000000000000000000000000000000000000000000000000000000000000000169063733f012790612357908d908d908d908d9060040161488b565b602060405180830381600087803b15801561237157600080fd5b505af1158015612385573d6000803e3d6000fd5b505050506040513d601f19601f820116820180604052508101906123a99190614515565b6040517f714e7f32000000000000000000000000000000000000000000000000000000008152600481018290523060248201529091507f000000000000000000000000000000000000000000000000000000000000000073ffffffffffffffffffffffffffffffffffffffff169063714e7f3290604401600060405180830381600087803b15801561243a57600080fd5b505af115801561244e573d6000803e3d6000fd5b5050505061245f81878787876132ba565b5081511561250e576040517f1cda3bfe00000000000000000000000000000000000000000000000000000000815273ffffffffffffffffffffffffffffffffffffffff7f00000000000000000000000000000000000000000000000000000000000000001690631cda3bfe906124db9084908690600401614a67565b600060405180830381600087803b1580156124f557600080fd5b505af1158015612509573d6000803e3d6000fd5b505050505b9998505050505050505050565b6040517f6352211e000000000000000000000000000000000000000000000000000000008152600481018690526000907f000000000000000000000000000000000000000000000000000000000000000073ffffffffffffffffffffffffffffffffffffffff1690636352211e9060240160206040518083038186803b1580156125a457600080fd5b505afa1580156125b8573d6000803e3d6000fd5b505050506040513d601f19601f820116820180604052508101906125dc91906140b3565b86600a3373ffffffffffffffffffffffffffffffffffffffff841614806126d157506040517fc161c93f00000000000000000000000000000000000000000000000000000000815233600482015273ffffffffffffffffffffffffffffffffffffffff848116602483015260448201849052606482018390527f0000000000000000000000000000000000000000000000000000000000000000169063c161c93f9060840160206040518083038186803b15801561269957600080fd5b505afa1580156126ad573d6000803e3d6000fd5b505050506040513d601f19601f820116820180604052508101906126d19190614359565b806127aa57506040517fc161c93f00000000000000000000000000000000000000000000000000000000815233600482015273ffffffffffffffffffffffffffffffffffffffff848116602483015260006044830152606482018390527f0000000000000000000000000000000000000000000000000000000000000000169063c161c93f9060840160206040518083038186803b15801561277257600080fd5b505afa158015612786573d6000803e3d6000fd5b505050506040513d601f19601f820116820180604052508101906127aa9190614359565b6127f65760405162461bcd60e51b815260206004820152601860248201527f4f706572617461626c653a20554e415554484f52495a45440000000000000000604482015260640161041a565b6040517fa7f2a70b00000000000000000000000000000000000000000000000000000000815273ffffffffffffffffffffffffffffffffffffffff7f0000000000000000000000000000000000000000000000000000000000000000169063a7f2a70b90612870908c908c908c908c908c90600401614aff565b602060405180830381600087803b15801561288a57600080fd5b505af115801561289e573d6000803e3d6000fd5b505050506040513d601f19601f8201168201806040525081019061250e91906140b3565b6000600260005414156129175760405162461bcd60e51b815260206004820152601f60248201527f5265656e7472616e637947756172643a207265656e7472616e742063616c6c00604482015260640161041a565b60026000556129268383612efd565b60016000559392505050565b6000828152600160205260408082205490517f75b0d9cd00000000000000000000000000000000000000000000000000000000815260048101859052612a0b919084907f000000000000000000000000000000000000000000000000000000000000000073ffffffffffffffffffffffffffffffffffffffff16906375b0d9cd9060240160206040518083038186803b1580156129ce57600080fd5b505afa1580156129e2573d6000803e3d6000fd5b505050506040513d601f19601f82011682018060405250810190612a069190614515565b613647565b9392505050565b6040517f6352211e000000000000000000000000000000000000000000000000000000008152600481018690526000907f000000000000000000000000000000000000000000000000000000000000000073ffffffffffffffffffffffffffffffffffffffff1690636352211e9060240160206040518083038186803b158015612a9b57600080fd5b505afa158015612aaf573d6000803e3d6000fd5b505050506040513d601f19601f82011682018060405250810190612ad391906140b3565b8660013373ffffffffffffffffffffffffffffffffffffffff84161480612bc857506040517fc161c93f00000000000000000000000000000000000000000000000000000000815233600482015273ffffffffffffffffffffffffffffffffffffffff848116602483015260448201849052606482018390527f0000000000000000000000000000000000000000000000000000000000000000169063c161c93f9060840160206040518083038186803b158015612b9057600080fd5b505afa158015612ba4573d6000803e3d6000fd5b505050506040513d601f19601f82011682018060405250810190612bc89190614359565b80612ca157506040517fc161c93f00000000000000000000000000000000000000000000000000000000815233600482015273ffffffffffffffffffffffffffffffffffffffff848116602483015260006044830152606482018390527f0000000000000000000000000000000000000000000000000000000000000000169063c161c93f9060840160206040518083038186803b158015612c6957600080fd5b505afa158015612c7d573d6000803e3d6000fd5b505050506040513d601f19601f82011682018060405250810190612ca19190614359565b612ced5760405162461bcd60e51b815260206004820152601860248201527f4f706572617461626c653a20554e415554484f52495a45440000000000000000604482015260640161041a565b61271087351115612d405760405162461bcd60e51b815260206004820152601760248201527f307835313a204241445f52455345525645445f52415445000000000000000000604482015260640161041a565b61271087602001351115612d965760405162461bcd60e51b815260206004820152601960248201527f307835323a204241445f524544454d5054494f4e5f5241544500000000000000604482015260640161041a565b61271087604001351115612dec5760405162461bcd60e51b815260206004820181905260248201527f307835333a204241445f42414c4c4f545f524544454d5054494f4e5f52415445604482015260640161041a565b61250e89898989896132ba565b600080807fffffffffffffffffffffffffffffffffffffffffffffffffffffffffffffffff8587098587029250828110838203039150508060001415612e5257838281612e4857612e48614f47565b0492505050612a0b565b838110612e95576040517f773cc18c000000000000000000000000000000000000000000000000000000008152600481018290526024810185905260440161041a565b600084868809600260036001881981018916988990049182028318808302840302808302840302808302840302808302840302808302840302918202909203026000889003889004909101858311909403939093029303949094049190911702949350505050565b6040517f43a266c200000000000000000000000000000000000000000000000000000000815260048101839052600090819073ffffffffffffffffffffffffffffffffffffffff7f000000000000000000000000000000000000000000000000000000000000000016906343a266c2906024016101206040518083038186803b158015612f8957600080fd5b505afa158015612f9d573d6000803e3d6000fd5b505050506040513d601f19601f82011682018060405250810190612fc19190614495565b6040517f75b0d9cd0000000000000000000000000000000000000000000000000000000081526004810186905290915060009073ffffffffffffffffffffffffffffffffffffffff7f000000000000000000000000000000000000000000000000000000000000000016906375b0d9cd9060240160206040518083038186803b15801561304d57600080fd5b505afa158015613061573d6000803e3d6000fd5b505050506040513d601f19601f820116820180604052508101906130859190614515565b6000868152600160205260409020546101008401519192506130ae9160081c61ffff1683613647565b92506130ba8382614e03565b6000868152600160205260408082209290925590517f6352211e000000000000000000000000000000000000000000000000000000008152600481018790527f000000000000000000000000000000000000000000000000000000000000000073ffffffffffffffffffffffffffffffffffffffff1690636352211e9060240160206040518083038186803b15801561315257600080fd5b505afa158015613166573d6000803e3d6000fd5b505050506040513d601f19601f8201168201806040525081019061318a91906140b3565b9050600084156131a45761319f8785876136c1565b6131a7565b60005b90508015613266576040517fceddd3e400000000000000000000000000000000000000000000000000000000815273ffffffffffffffffffffffffffffffffffffffff83811660048301526024820189905260448201839052600060648301527f0000000000000000000000000000000000000000000000000000000000000000169063ceddd3e490608401600060405180830381600087803b15801561324d57600080fd5b505af1158015613261573d6000803e3d6000fd5b505050505b86846000015185602001517fb12d7a78048433f69fe6d30145bf08aad8e82985b96e4db6d5c6a7e94d57086e8589868c336040516132a89594939291906148cb565b60405180910390a45050505092915050565b60008073ffffffffffffffffffffffffffffffffffffffff7f00000000000000000000000000000000000000000000000000000000000000001663753dd3e8888861331261330d368b90038b018b614376565b613b29565b6040518463ffffffff1660e01b815260040161333093929190614b38565b61012060405180830381600087803b15801561334b57600080fd5b505af115801561335f573d6000803e3d6000fd5b505050506040513d601f19601f820116820180604052508101906133839190614495565b905060005b845181101561349a5760008582815181106133a5576133a5614f76565b602002602001015160200151511115613488577f000000000000000000000000000000000000000000000000000000000000000073ffffffffffffffffffffffffffffffffffffffff16633e00f98089846020015188858151811061340c5761340c614f76565b60200260200101516000015189868151811061342a5761342a614f76565b6020026020010151602001516040518563ffffffff1660e01b81526004016134559493929190614b96565b600060405180830381600087803b15801561346f57600080fd5b505af1158015613483573d6000803e3d6000fd5b505050505b8061349281614ea6565b915050613388565b5060005b83518110156136385760008482815181106134bb576134bb614f76565b602002602001015190506000816020015111156135145760208082015160008b81526003835260408082208785015183528452808220855173ffffffffffffffffffffffffffffffffffffffff16835290935291909120555b6040810151156135605760408082015160008b8152600260209081528382208782015183528152838220855173ffffffffffffffffffffffffffffffffffffffff168352905291909120555b6060810151156135ac57606081015160008a81526004602090815260408083208783015184528252808320855173ffffffffffffffffffffffffffffffffffffffff1684529091529020555b825160208085015160408051855173ffffffffffffffffffffffffffffffffffffffff16815285840151938101939093528085015190830152606080850151908301523360808301528b92917f4373d55550febf23c67fd3818555c81987610ecea24d3c2448ef0f4a66e8c0c19060a00160405180910390a4508061363081614ea6565b91505061349e565b50602001519695505050505050565b600080600085121561366b5761365c85614edf565b6136669084614e03565b613675565b6136758584614e8f565b905080613686576000915050612a0b565b836127101415613697579050612a0b565b806136ae816127106136a98882614e8f565b612df9565b6136b89190614e8f565b95945050505050565b60208201516040517f69e11cc50000000000000000000000000000000000000000000000000000000081526004810185905260248101919091526002604482015281906000907f000000000000000000000000000000000000000000000000000000000000000073ffffffffffffffffffffffffffffffffffffffff16906369e11cc59060640160006040518083038186803b15801561376057600080fd5b505afa158015613774573d6000803e3d6000fd5b505050506040513d6000823e601f3d9081017fffffffffffffffffffffffffffffffffffffffffffffffffffffffffffffffe01682016040526137ba9190810190614242565b905060005b8151811015613b205760008282815181106137dc576137dc614f76565b6020026020010151905060006137ff86836020015162ffffff1662989680612df9565b90508015613ac557608082015173ffffffffffffffffffffffffffffffffffffffff7f000000000000000000000000000000000000000000000000000000000000000081169163ceddd3e4911661393d5760a084015166ffffffffffffff1661386c578360600151613943565b60a08401516040517f6352211e00000000000000000000000000000000000000000000000000000000815266ffffffffffffff90911660048201527f000000000000000000000000000000000000000000000000000000000000000073ffffffffffffffffffffffffffffffffffffffff1690636352211e9060240160206040518083038186803b15801561390057600080fd5b505afa158015613914573d6000803e3d6000fd5b505050506040513d601f19601f8201168201806040525081019061393891906140b3565b613943565b83608001515b845160405160e084901b7fffffffff0000000000000000000000000000000000000000000000000000000016815273ffffffffffffffffffffffffffffffffffffffff9092166004830152602482018c90526044820185905215156064820152608401600060405180830381600087803b1580156139c057600080fd5b505af11580156139d4573d6000803e3d6000fd5b50505050608082015173ffffffffffffffffffffffffffffffffffffffff1615613ab857608082015160a0830151606084015184516040517fc8e84e020000000000000000000000000000000000000000000000000000000081526004810186905260026024820152604481018d905266ffffffffffffff909316606484015273ffffffffffffffffffffffffffffffffffffffff9182166084840152151560a48301529091169063c8e84e029060c401600060405180830381600087803b158015613a9f57600080fd5b505af1158015613ab3573d6000803e3d6000fd5b505050505b613ac28186614e8f565b94505b87876000015188602001517f66915e990d6b0ae61ce989619f3a071ca92b1b338ea6549f8372354296add74f858533604051613b03939291906149c5565b60405180910390a450508080613b1890614ea6565b9150506137bf565b50509392505050565b8051602082015160089190911b60011790601890613b4990612710614e8f565b901b8117905060328260400151612710613b639190614e8f565b901b8117905060388260600151613b7b576000613b7e565b60015b60ff16901b60ff168117905060398260800151613b9c576000613b9f565b60015b60ff16901b60ff1681179050603a8260a00151613bbd576000613bc0565b60015b60ff16901b60ff1681179050603b8260c00151613bde576000613be1565b60015b60ff16901b60ff1681179050603c8260e00151613bff576000613c02565b60015b60ff16901b60ff1681179050603d826101000151613c21576000613c24565b60015b60ff16901b60ff1681179050603e826101200151613c43576000613c46565b60015b60ff16901b60ff1681179050603f826101400151613c65576000613c68565b60015b60ff16901b60ff16811790506040826101600151613c87576000613c8a565b60015b60ff16901b60ff16811790506041826101800151613ca9576000613cac565b60015b60ff16901b60ff16811790506042826101a00151613ccb576000613cce565b60015b60ff16901b60ff16811790506043826101c00151613ced576000613cf0565b60015b6101e09093015173fffffffffffffffffffffff0000000000000000060449190911b1660ff93841690911b909216171790565b8035613d2e81614fd4565b919050565b600082601f830112613d4457600080fd5b81356020613d59613d5483614d6b565b614d1c565b80838252828201915082860187848660051b8901011115613d7957600080fd5b60005b85811015613da1578135613d8f81614fd4565b84529284019290840190600101613d7c565b5090979650505050505050565b600082601f830112613dbf57600080fd5b81356020613dcf613d5483614d6b565b80838252828201915082860187848660071b8901011115613def57600080fd5b6000805b86811015613e4e57608080848c031215613e0b578283fd5b613e13614c65565b8435613e1e81614fd4565b81528488013588820152604080860135908201526060808601359082015286529486019490920191600101613df3565b509198975050505050505050565b600082601f830112613e6d57600080fd5b6020613e7c613d548435614d6b565b808435825282820191508285018684873560051b8801011115613e9e57600080fd5b60005b863581101561401d5767ffffffffffffffff8083351115613ec157600080fd5b8235880160407fffffffffffffffffffffffffffffffffffffffffffffffffffffffffffffffe0828c03011215613ef757600080fd5b613eff614c8e565b878201358152604082013583811115613f1757600080fd5b82019250603f83018b13613f2a57600080fd5b878301359150613f3c613d5483614d6b565b808382528982019150604085018d604060c087028801011115613f5e57600080fd5b600095505b848610156140035760c0818f031215613f7b57600080fd5b613f83614cb1565b613f8d8235614ff9565b813581528b820135613f9e81615007565b818d01526040820135613fb081615018565b60408201526060820135613fc381614fd4565b60608201526080820135613fd681614fd4565b608082015260a0820135613fe98161502c565b60a0820152835260019590950194918a019160c001613f63565b50828a015250865250509284019290840190600101613ea1565b50909695505050505050565b8035613d2e81614ff9565b8051613d2e81614fd4565b60008083601f84011261405157600080fd5b50813567ffffffffffffffff81111561406957600080fd5b60208301915083602082850101111561408157600080fd5b9250929050565b60006080828403121561409a57600080fd5b50919050565b6000610200828403121561409a57600080fd5b6000602082840312156140c557600080fd5b8151612a0b81614fd4565b60008060008060008060008060006103408a8c0312156140ef57600080fd5b6140f88a613d23565b985060208a0135975060408a013567ffffffffffffffff8082111561411c57600080fd5b6141288d838e0161403f565b909950975087915061413d8d60608e01614088565b965061414c8d60e08e016140a0565b95506102e08c013591508082111561416357600080fd5b61416f8d838e01613e5c565b94506103008c013591508082111561418657600080fd5b6141928d838e01613dae565b93506103208c01359150808211156141a957600080fd5b506141b68c828d01613d33565b9150509295985092959850929598565b60008060008060008060a087890312156141df57600080fd5b86356141ea81614fd4565b95506020870135945060408701359350606087013567ffffffffffffffff81111561421457600080fd5b61422089828a0161403f565b909450925050608087013561423481614ff9565b809150509295509295509295565b6000602080838503121561425557600080fd5b825167ffffffffffffffff81111561426c57600080fd5b8301601f8101851361427d57600080fd5b805161428b613d5482614d6b565b8181528381019083850160c0808502860187018a10156142aa57600080fd5b60009550855b8581101561434a5781838c0312156142c6578687fd5b6142ce614cb1565b83516142d981614ff9565b8152838901516142e881615007565b818a01526040848101516142fb81615018565b9082015260608481015161430e81614fd4565b9082015260808481015161432181614fd4565b9082015260a0848101516143348161502c565b90820152855293870193918101916001016142b0565b50919998505050505050505050565b60006020828403121561436b57600080fd5b8151612a0b81614ff9565b6000610200828403121561438957600080fd5b614391614cd4565b8235815260208301356020820152604083013560408201526143b560608401614029565b60608201526143c660808401614029565b60808201526143d760a08401614029565b60a08201526143e860c08401614029565b60c08201526143f960e08401614029565b60e082015261010061440c818501614029565b9082015261012061441e848201614029565b90820152610140614430848201614029565b90820152610160614442848201614029565b90820152610180614454848201614029565b908201526101a0614466848201614029565b908201526101c0614478848201614029565b908201526101e061448a848201613d23565b908201529392505050565b600061012082840312156144a857600080fd5b6144b0614cf8565b825181526020830151602082015260408301516040820152606083015160608201526080830151608082015260a083015160a082015260c083015160c08201526144fc60e08401614034565b60e0820152610100928301519281019290925250919050565b60006020828403121561452757600080fd5b5051919050565b6000806040838503121561454157600080fd5b82359150602083013561455381614fd4565b809150509250929050565b60008060006060848603121561457357600080fd5b83359250602084013561458581614fd4565b9150604084013561459581614fd4565b809150509250925092565b6000806000806000606086880312156145b857600080fd5b85359450602086013567ffffffffffffffff808211156145d757600080fd5b6145e389838a0161403f565b909650945060408801359150808211156145fc57600080fd5b506146098882890161403f565b969995985093965092949392505050565b6000806040838503121561462d57600080fd5b8235915060208084013567ffffffffffffffff8082111561464d57600080fd5b818601915086601f83011261466157600080fd5b81358181111561467357614673614fa5565b6146a3847fffffffffffffffffffffffffffffffffffffffffffffffffffffffffffffffe0601f84011601614d1c565b915080825287848285010111156146b957600080fd5b80848401858401376000848284010152508093505050509250929050565b60008060008060006102e086880312156146f057600080fd5b853594506147018760208801614088565b93506147108760a088016140a0565b92506102a086013567ffffffffffffffff8082111561472e57600080fd5b61473a89838a01613e5c565b93506102c088013591508082111561475157600080fd5b5061475e88828901613dae565b9150509295509295909350565b6000806040838503121561477e57600080fd5b50508035926020909101359150565b600080600080600080600060c0888a0312156147a857600080fd5b873596506020880135955060408801356147c181614fd4565b9450606088013567ffffffffffffffff8111156147dd57600080fd5b6147e98a828b0161403f565b90955093505060808801356147fd81614ff9565b8092505060a0880135905092959891949750929550565b60008060006060848603121561482957600080fd5b8335925060208401359150604084013561459581614fd4565b8183528181602085013750600060208284010152600060207fffffffffffffffffffffffffffffffffffffffffffffffffffffffffffffffe0601f840116840101905092915050565b73ffffffffffffffffffffffffffffffffffffffff851681528360208201526060604082015260006148c1606083018486614842565b9695505050505050565b73ffffffffffffffffffffffffffffffffffffffff8616815260006020868184015285604084015260a0606084015284518060a085015260005b818110156149215786810183015185820160c001528201614905565b8181111561493357600060c083870101525b50601f017fffffffffffffffffffffffffffffffffffffffffffffffffffffffffffffffe016830160c00191506148c19050608083018473ffffffffffffffffffffffffffffffffffffffff169052565b606081526000614998606083018688614842565b905083602083015273ffffffffffffffffffffffffffffffffffffffff8316604083015295945050505050565b6101008101614a3d828680511515825262ffffff602082015116602083015265ffffffffffff6040820151166040830152606081015173ffffffffffffffffffffffffffffffffffffffff8082166060850152806080840151166080850152505066ffffffffffffff60a08201511660a08301525050565b8360c083015273ffffffffffffffffffffffffffffffffffffffff831660e0830152949350505050565b6000604082018483526020604081850152818551808452606086019150828701935060005b81811015613da157845173ffffffffffffffffffffffffffffffffffffffff1683529383019391830191600101614a8c565b848152606060208201526000614ad8606083018587614842565b905073ffffffffffffffffffffffffffffffffffffffff8316604083015295945050505050565b858152606060208201526000614b19606083018688614842565b8281036040840152614b2c818587614842565b98975050505050505050565b600060c0820190508482528335602083015260208401356040830152604084013560608301526060840135614b6c81614fd4565b73ffffffffffffffffffffffffffffffffffffffff16608083015260a09091019190915292915050565b600060808201868352602086818501528560408501526080606085015281855180845260a086019150828701935060005b81811015614c5657614c4383865180511515825262ffffff602082015116602083015265ffffffffffff6040820151166040830152606081015173ffffffffffffffffffffffffffffffffffffffff8082166060850152806080840151166080850152505066ffffffffffffff60a08201511660a08301525050565b9383019360c09290920191600101614bc7565b50909998505050505050505050565b6040516080810167ffffffffffffffff81118282101715614c8857614c88614fa5565b60405290565b6040805190810167ffffffffffffffff81118282101715614c8857614c88614fa5565b60405160c0810167ffffffffffffffff81118282101715614c8857614c88614fa5565b604051610200810167ffffffffffffffff81118282101715614c8857614c88614fa5565b604051610120810167ffffffffffffffff81118282101715614c8857614c88614fa5565b604051601f82017fffffffffffffffffffffffffffffffffffffffffffffffffffffffffffffffe016810167ffffffffffffffff81118282101715614d6357614d63614fa5565b604052919050565b600067ffffffffffffffff821115614d8557614d85614fa5565b5060051b60200190565b6000808212827f7fffffffffffffffffffffffffffffffffffffffffffffffffffffffffffffff03841381151615614dc957614dc9614f18565b827f8000000000000000000000000000000000000000000000000000000000000000038412811615614dfd57614dfd614f18565b50500190565b60008219821115614e1657614e16614f18565b500190565b6000808312837f800000000000000000000000000000000000000000000000000000000000000001831281151615614e5557614e55614f18565b837f7fffffffffffffffffffffffffffffffffffffffffffffffffffffffffffffff018313811615614e8957614e89614f18565b50500390565b600082821015614ea157614ea1614f18565b500390565b60007fffffffffffffffffffffffffffffffffffffffffffffffffffffffffffffffff821415614ed857614ed8614f18565b5060010190565b60007f8000000000000000000000000000000000000000000000000000000000000000821415614f1157614f11614f18565b5060000390565b7f4e487b7100000000000000000000000000000000000000000000000000000000600052601160045260246000fd5b7f4e487b7100000000000000000000000000000000000000000000000000000000600052601260045260246000fd5b7f4e487b7100000000000000000000000000000000000000000000000000000000600052603260045260246000fd5b7f4e487b7100000000000000000000000000000000000000000000000000000000600052604160045260246000fd5b73ffffffffffffffffffffffffffffffffffffffff81168114614ff657600080fd5b50565b8015158114614ff657600080fd5b62ffffff81168114614ff657600080fd5b65ffffffffffff81168114614ff657600080fd5b66ffffffffffffff81168114614ff657600080fdfea26469706673582212200d9134e61d069390e52a35a64794310ce7508ff4c445f0918e90f7b084931f7464736f6c63430008060033",
  "devdoc": {
    "details": " A project can transfer control from this contract to another allowed controller contract at any time. Inherits from: IJBController - general interface for the generic controller methods in this contract that interacts with funding cycles and tokens according to the Juicebox protocol's rules. JBTerminalUtility - provides tools for contracts that has functionality that can only be accessed by a project's terminals.  JBOperatable - several functions in this contract can only be accessed by a project owner, or an address that has been preconfifigured to be an operator of the project. ReentrencyGuard - several function in this contract shouldn't be accessible recursively.",
    "kind": "dev",
    "methods": {
      "burnTokensOf(address,uint256,uint256,string,bool)": {
        "details": "Only a token's holder, a designated operator, or a project's terminal's delegate can burn it.",
        "params": {
          "_holder": "The account that is having its tokens burned.",
          "_memo": "A memo to pass along to the emitted event.",
          "_preferClaimedTokens": "A flag indicating whether ERC20's should be burned first if they have been issued.",
          "_projectId": "The ID of the project to which the tokens being burned belong.",
          "_tokenCount": "The number of tokens to burn."
        }
      },
      "changeTokenOf(uint256,address,address)": {
        "details": "Only a project owner or operator can change its token.",
        "params": {
          "_newOwner": "An address to transfer the current token's ownership to. This is optional, but it cannot be done later.",
          "_projectId": "The ID of the project to which the changed token belongs.",
          "_token": "The new token."
        }
      },
      "constructor": {
        "params": {
          "_directory": "A contract storing directories of terminals and controllers for each project.",
          "_fundingCycleStore": "A contract storing all funding cycle configurations.",
          "_operatorStore": "A contract storing operator assignments.",
          "_projects": "A contract which mints ERC-721's that represent project ownership and transfers.",
          "_splitsStore": "A contract that stores splits for each project.",
          "_tokenStore": "A contract that manages token minting and burning."
        }
      },
      "distributeReservedTokensOf(uint256,string)": {
        "params": {
          "_memo": "A memo to pass along to the emitted event.",
          "_projectId": "The ID of the project to which the reserved tokens belong."
        },
        "returns": {
          "_0": "The amount of minted reserved tokens."
        }
      },
      "issueTokenFor(uint256,string,string)": {
        "details": " Deploys a project's ERC-20 token contract.Only a project owner or operator can issue its token.",
        "params": {
          "_name": "The ERC-20's name.",
          "_projectId": "The ID of the project being issued tokens.",
          "_symbol": "The ERC-20's symbol."
        }
      },
      "launchProjectFor(address,bytes32,string,(uint256,uint256,uint256,address),(uint256,uint256,uint256,bool,bool,bool,bool,bool,bool,bool,bool,bool,bool,bool,bool,address),(uint256,(bool,uint24,uint48,address,address,uint56)[])[],(address,uint256,uint256,uint256)[],address[])": {
        "details": "Each operation within this transaction can be done in sequence separately.Anyone can deploy a project on an owner's behalf._data.target The amount that the project wants to payout during a funding cycle. Sent as a wad (18 decimals)._data.currency The currency of the `target`. Send 0 for ETH or 1 for USD._data.duration The duration of the funding cycle for which the `target` amount is needed. Measured in days. Send 0 for cycles that are reconfigurable at any time._data.weight The weight of the funding cycle. This number is interpreted as a wad, meaning it has 18 decimal places. The protocol uses the weight to determine how many tokens to mint upon receiving a payment during a funding cycle. A value of 0 means that the weight should be inherited and potentially discounted from the currently active cycle if possible. Otherwise a weight of 0 will be used. A value of 1 means that no tokens should be minted regardless of how many ETH was paid. The protocol will set the stored weight value to 0. A value of 1 X 10^18 means that one token should be minted per ETH received._data.discountRate A number from 0-1000000001 indicating how valuable a contribution to this funding cycle is compared to previous funding cycles. If it's 0, each funding cycle will have equal weight. If the number is 900000000, a contribution to the next funding cycle will only give you 10% of tickets given to a contribution of the same amoutn during the current funding cycle. If the number is 1000000001, an non-recurring funding cycle will get made._data.ballot The ballot contract that will be used to approve subsequent reconfigurations. Must adhere to the IFundingCycleBallot interface._metadata.reservedRate A number from 0-10000 (0-100%) indicating the percentage of each contribution's newly minted tokens that will be reserved for the token splits._metadata.redemptionRate The rate from 0-10000 (0-100%) that tunes the bonding curve according to which a project's tokens can be redeemed for overflow. The bonding curve formula is https://www.desmos.com/calculator/sp9ru6zbpk where x is _count, o is _currentOverflow, s is _totalSupply, and r is _redemptionRate._metadata.ballotRedemptionRate The redemption rate to apply when there is an active ballot._metadata.pausePay Whether or not the pay functionality should be paused during this cycle._metadata.pauseWithdrawals Whether or not the withdraw functionality should be paused during this cycle._metadata.pauseRedeem Whether or not the redeem functionality should be paused during this cycle._metadata.pauseMint Whether or not the mint functionality should be paused during this cycle._metadata.pauseBurn Whether or not the burn functionality should be paused during this cycle._metadata.allowTerminalMigration Whether or not the terminal migration functionality should be paused during this cycle._metadata.allowControllerMigration Whether or not the controller migration functionality should be paused during this cycle._metadata.holdFees Whether or not fees should be held to be processed at a later time during this cycle._metadata.useDataSourceForPay Whether or not the data source should be used when processing a payment._metadata.useDataSourceForRedeem Whether or not the data source should be used when processing a redemption._metadata.dataSource A contract that exposes data that can be used within pay and redeem transactions. Must adhere to IJBFundingCycleDataSource.",
        "params": {
          "_data": "A JBFundingCycleData data structure that defines the project's first funding cycle. These properties will remain fixed for the duration of the funding cycle.",
          "_fundAccessConstraints": "An array containing amounts, in wei (18 decimals), that a project can use from its own overflow on-demand for each payment terminal.",
          "_groupedSplits": "An array of splits to set for any number of group.",
          "_handle": "The project's unique handle. This can be updated any time by the owner of the project.",
          "_metadata": "A JBFundingCycleMetadata data structure specifying the controller specific params that a funding cycle can have. These properties will remain fixed for the duration of the funding cycle.",
          "_metadataCid": "A link to associate with the project. This can be updated any time by the owner of the project.",
          "_owner": "The address to set as the owner of the project. The project ERC-721 will be owned by this address.",
          "_terminals": "Payment terminals to add for the project."
        },
        "returns": {
          "projectId": "The ID of the project."
        }
      },
      "migrate(uint256,address)": {
        "details": "Only a project's owner or a designated operator can migrate it.",
        "params": {
          "_projectId": "The ID of the project that will be migrated from this controller.",
          "_to": "The controller to which the project is migrating."
        }
      },
      "mintTokensOf(uint256,uint256,address,string,bool,uint256)": {
        "details": "Only a project's owner, a designated operator, or one of its terminal's delegate can mint its tokens.",
        "params": {
          "_beneficiary": "The account that the tokens are being minted for.",
          "_memo": "A memo to pass along to the emitted event.",
          "_preferClaimedTokens": "A flag indicating whether ERC20's should be minted if they have been issued.",
          "_projectId": "The ID of the project to which the tokens being minted belong.",
          "_reservedRate": "The reserved rate to use when minting tokens. A positive amount will reduce the token count minted to the beneficiary, instead being reserved for preprogrammed splits. This number is out of 10000.",
          "_tokenCount": "The amount of tokens to mint."
        },
        "returns": {
          "beneficiaryTokenCount": "The amount of tokens minted for the beneficiary."
        }
      },
      "prepForMigrationOf(uint256,address)": {
        "params": {
          "_projectId": "The ID of the project that will be migrated to this controller."
        }
      },
      "reconfigureFundingCyclesOf(uint256,(uint256,uint256,uint256,address),(uint256,uint256,uint256,bool,bool,bool,bool,bool,bool,bool,bool,bool,bool,bool,bool,address),(uint256,(bool,uint24,uint48,address,address,uint56)[])[],(address,uint256,uint256,uint256)[])": {
        "details": "Only a project's owner or a designated operator can configure its funding cycles._data.target The amount that the project wants to payout during a funding cycle. Sent as a wad (18 decimals)._data.currency The currency of the `target`. Send 0 for ETH or 1 for USD._data.duration The duration of the funding cycle for which the `target` amount is needed. Measured in days. Send 0 for cycles that are reconfigurable at any time._data.weight The weight of the funding cycle. This number is interpreted as a wad, meaning it has 18 decimal places. The protocol uses the weight to determine how many tokens to mint upon receiving a payment during a funding cycle. A value of 0 means that the weight should be inherited and potentially discounted from the currently active cycle if possible. Otherwise a weight of 0 will be used. A value of 1 means that no tokens should be minted regardless of how many ETH was paid. The protocol will set the stored weight value to 0. A value of 1 X 10^18 means that one token should be minted per ETH received._data.discountRate A number from 0-1000000001 indicating how valuable a contribution to this funding cycle is compared to previous funding cycles. If it's 0, each funding cycle will have equal weight. If the number is 900000000, a contribution to the next funding cycle will only give you 10% of tickets given to a contribution of the same amoutn during the current funding cycle. If the number is 1000000001, an non-recurring funding cycle will get made._data.ballot The ballot contract that will be used to approve subsequent reconfigurations. Must adhere to the IFundingCycleBallot interface._metadata.reservedRate A number from 0-10000 (0-100%) indicating the percentage of each contribution's newly minted tokens that will be reserved for the token splits._metadata.redemptionRate The rate from 0-10000 (0-100%) that tunes the bonding curve according to which a project's tokens can be redeemed for overflow. The bonding curve formula is https://www.desmos.com/calculator/sp9ru6zbpk where x is _count, o is _currentOverflow, s is _totalSupply, and r is _redemptionRate._metadata.ballotRedemptionRate The redemption rate to apply when there is an active ballot._metadata.pausePay Whether or not the pay functionality should be paused during this cycle._metadata.pauseWithdrawals Whether or not the withdraw functionality should be paused during this cycle._metadata.pauseRedeem Whether or not the redeem functionality should be paused during this cycle._metadata.pauseMint Whether or not the mint functionality should be paused during this cycle._metadata.pauseBurn Whether or not the burn functionality should be paused during this cycle._metadata.allowTerminalMigration Whether or not the terminal migration functionality should be paused during this cycle._metadata.allowControllerMigration Whether or not the controller migration functionality should be paused during this cycle._metadata.holdFees Whether or not fees should be held to be processed at a later time during this cycle._metadata.useDataSourceForPay Whether or not the data source should be used when processing a payment._metadata.useDataSourceForRedeem Whether or not the data source should be used when processing a redemption._metadata.dataSource A contract that exposes data that can be used within pay and redeem transactions. Must adhere to IJBFundingCycleDataSource.",
        "params": {
          "_data": "A JBFundingCycleData data structure that defines the project's funding cycle that will be queued. These properties will remain fixed for the duration of the funding cycle.",
          "_fundAccessConstraints": "An array containing amounts, in wei (18 decimals), that a project can use from its own overflow on-demand for each payment terminal.",
          "_groupedSplits": "An array of splits to set for any number of group.",
          "_metadata": "A JBFundingCycleMetadata data structure specifying the controller specific params that a funding cycle can have. These properties will remain fixed for the duration of the funding cycle.",
          "_projectId": "The ID of the project whose funding cycles are being reconfigured."
        },
        "returns": {
          "_0": "The configuration of the funding cycle that was successfully reconfigured."
        }
      },
      "reservedTokenBalanceOf(uint256,uint256)": {
        "params": {
          "_projectId": "The ID of the project to get a reserved token balance of.",
          "_reservedRate": "The reserved rate to use when making the calculation."
        },
        "returns": {
          "_0": "The current amount of reserved tokens."
        }
      }
    },
    "version": 1
  },
  "userdoc": {
    "errors": {
      "PRBMath__MulDivOverflow(uint256,uint256)": [
        {
          "notice": "Emitted when the result overflows uint256."
        }
      ]
    },
    "kind": "user",
    "methods": {
      "burnTokensOf(address,uint256,uint256,string,bool)": {
        "notice": "Burns a token holder's supply."
      },
      "changeTokenOf(uint256,address,address)": {
        "notice": " Swap the current project's token that is minted and burned for another, and transfer ownership of the current token to another address if needed."
      },
      "currencyOf(uint256,uint256,address)": {
        "notice": " The currency that overflow allowances and distribution limits are measured in for a particular funding cycle configuration, applied only to the specified terminal. _projectId The ID of the project to get the currency of. _configuration The configuration during which the currency applies. _terminal The terminal for which the currency should be used. "
      },
      "directory()": {
        "notice": " The directory of terminals and controllers for projects."
      },
      "distributeReservedTokensOf(uint256,string)": {
        "notice": "Distributes all outstanding reserved tokens for a project."
      },
      "distributionLimitOf(uint256,uint256,address)": {
        "notice": " The amount of that a project can withdraw per funding cycle. _projectId The ID of the project to get the current distribution limit of. _configuration The configuration during which the distribution limit applies. _terminal The terminal from which distributions are being limited. "
      },
      "fundingCycleStore()": {
        "notice": " The contract storing all funding cycle configurations."
      },
      "issueTokenFor(uint256,string,string)": {
        "notice": " Issues an owner's ERC-20 Tokens that'll be used when claiming tokens."
      },
      "launchProjectFor(address,bytes32,string,(uint256,uint256,uint256,address),(uint256,uint256,uint256,bool,bool,bool,bool,bool,bool,bool,bool,bool,bool,bool,bool,address),(uint256,(bool,uint24,uint48,address,address,uint56)[])[],(address,uint256,uint256,uint256)[],address[])": {
        "notice": "Creates a project. This will mint an ERC-721 into the specified owner's account, configure a first funding cycle, and set up any splits."
      },
      "migrate(uint256,address)": {
        "notice": "Allows a project to migrate from this controller to another."
      },
      "mintTokensOf(uint256,uint256,address,string,bool,uint256)": {
        "notice": "Mint new token supply into an account."
      },
      "operatorStore()": {
        "notice": " A contract storing operator assignments."
      },
      "overflowAllowanceOf(uint256,uint256,address)": {
        "notice": " The amount of overflow that a project is allowed to tap into on-demand throughout configuration. _projectId The ID of the project to get the current overflow allowance of. _configuration The configuration of the during which the allowance applies. _terminal The terminal managing the overflow."
      },
      "prepForMigrationOf(uint256,address)": {
        "notice": "Allows other controllers to signal to this one that a migration is expected for the specified project."
      },
      "projects()": {
        "notice": " The Projects contract which mints ERC-721's that represent project ownership."
      },
      "reconfigureFundingCyclesOf(uint256,(uint256,uint256,uint256,address),(uint256,uint256,uint256,bool,bool,bool,bool,bool,bool,bool,bool,bool,bool,bool,bool,address),(uint256,(bool,uint24,uint48,address,address,uint56)[])[],(address,uint256,uint256,uint256)[])": {
        "notice": "Configures the properties of the current funding cycle if the project hasn't distributed tokens yet, or sets the properties of the proposed funding cycle that will take effect once the current one expires if it is approved by the current funding cycle's ballot."
      },
      "reservedTokenBalanceOf(uint256,uint256)": {
        "notice": "Gets the amount of reserved tokens that a project has available to distribute."
      },
      "splitsStore()": {
        "notice": " The contract that stores splits for each project."
      },
      "tokenStore()": {
        "notice": " The contract that manages token minting and burning."
      }
    },
    "notice": "Stitches together funding cycles and community tokens, making sure all activity is accounted for and correct.",
    "version": 1
  },
  "storageLayout": {
    "storage": [
      {
        "astId": 160,
        "contract": "contracts/v2/JBController.sol:JBController",
        "label": "_status",
        "offset": 0,
        "slot": "0",
        "type": "t_uint256"
      },
      {
        "astId": 15748,
        "contract": "contracts/v2/JBController.sol:JBController",
        "label": "_processedTokenTrackerOf",
        "offset": 0,
        "slot": "1",
        "type": "t_mapping(t_uint256,t_int256)"
      },
      {
        "astId": 15775,
        "contract": "contracts/v2/JBController.sol:JBController",
        "label": "overflowAllowanceOf",
        "offset": 0,
        "slot": "2",
        "type": "t_mapping(t_uint256,t_mapping(t_uint256,t_mapping(t_contract(IJBTerminal)25094,t_uint256)))"
      },
      {
        "astId": 15786,
        "contract": "contracts/v2/JBController.sol:JBController",
        "label": "distributionLimitOf",
        "offset": 0,
        "slot": "3",
        "type": "t_mapping(t_uint256,t_mapping(t_uint256,t_mapping(t_contract(IJBTerminal)25094,t_uint256)))"
      },
      {
        "astId": 15797,
        "contract": "contracts/v2/JBController.sol:JBController",
        "label": "currencyOf",
        "offset": 0,
        "slot": "4",
        "type": "t_mapping(t_uint256,t_mapping(t_uint256,t_mapping(t_contract(IJBTerminal)25094,t_uint256)))"
      }
    ],
    "types": {
      "t_contract(IJBTerminal)25094": {
        "encoding": "inplace",
        "label": "contract IJBTerminal",
        "numberOfBytes": "20"
      },
      "t_int256": {
        "encoding": "inplace",
        "label": "int256",
        "numberOfBytes": "32"
      },
      "t_mapping(t_contract(IJBTerminal)25094,t_uint256)": {
        "encoding": "mapping",
        "key": "t_contract(IJBTerminal)25094",
        "label": "mapping(contract IJBTerminal => uint256)",
        "numberOfBytes": "32",
        "value": "t_uint256"
      },
      "t_mapping(t_uint256,t_int256)": {
        "encoding": "mapping",
        "key": "t_uint256",
        "label": "mapping(uint256 => int256)",
        "numberOfBytes": "32",
        "value": "t_int256"
      },
      "t_mapping(t_uint256,t_mapping(t_contract(IJBTerminal)25094,t_uint256))": {
        "encoding": "mapping",
        "key": "t_uint256",
        "label": "mapping(uint256 => mapping(contract IJBTerminal => uint256))",
        "numberOfBytes": "32",
        "value": "t_mapping(t_contract(IJBTerminal)25094,t_uint256)"
      },
      "t_mapping(t_uint256,t_mapping(t_uint256,t_mapping(t_contract(IJBTerminal)25094,t_uint256)))": {
        "encoding": "mapping",
        "key": "t_uint256",
        "label": "mapping(uint256 => mapping(uint256 => mapping(contract IJBTerminal => uint256)))",
        "numberOfBytes": "32",
        "value": "t_mapping(t_uint256,t_mapping(t_contract(IJBTerminal)25094,t_uint256))"
      },
      "t_uint256": {
        "encoding": "inplace",
        "label": "uint256",
        "numberOfBytes": "32"
      }
    }
  }
}