{
  "address": "0xd8605ef911eF05a8ad2F55E11e2873C20D5355Cc",
  "abi": [
    {
      "inputs": [
        {
          "internalType": "contract IJBOperatorStore",
          "name": "_operatorStore",
          "type": "address"
        },
        {
          "internalType": "contract IJBProjects",
          "name": "_projects",
          "type": "address"
        },
        {
          "internalType": "contract IJBDirectory",
          "name": "_directory",
          "type": "address"
        },
        {
          "internalType": "contract IJBFundingCycleStore",
          "name": "_fundingCycleStore",
          "type": "address"
        },
        {
          "internalType": "contract IJBTokenStore",
          "name": "_tokenStore",
          "type": "address"
        },
        {
          "internalType": "contract IJBSplitsStore",
          "name": "_splitsStore",
          "type": "address"
        }
      ],
      "stateMutability": "nonpayable",
      "type": "constructor"
    },
    {
      "inputs": [],
      "name": "BURN_PAUSED_AND_SENDER_NOT_VALID_TERMINAL_DELEGATE",
      "type": "error"
    },
    {
      "inputs": [],
      "name": "CANT_MIGRATE_TO_CURRENT_CONTROLLER",
      "type": "error"
    },
    {
      "inputs": [],
      "name": "CHANGE_TOKEN_NOT_ALLOWED",
      "type": "error"
    },
    {
      "inputs": [],
      "name": "FUNDING_CYCLE_ALREADY_LAUNCHED",
      "type": "error"
    },
    {
      "inputs": [],
      "name": "INVALID_BALLOT_REDEMPTION_RATE",
      "type": "error"
    },
    {
      "inputs": [],
      "name": "INVALID_DISTRIBUTION_LIMIT",
      "type": "error"
    },
    {
      "inputs": [],
      "name": "INVALID_DISTRIBUTION_LIMIT_CURRENCY",
      "type": "error"
    },
    {
      "inputs": [],
      "name": "INVALID_OVERFLOW_ALLOWANCE",
      "type": "error"
    },
    {
      "inputs": [],
      "name": "INVALID_OVERFLOW_ALLOWANCE_CURRENCY",
      "type": "error"
    },
    {
      "inputs": [],
      "name": "INVALID_REDEMPTION_RATE",
      "type": "error"
    },
    {
      "inputs": [],
      "name": "INVALID_RESERVED_RATE",
      "type": "error"
    },
    {
      "inputs": [],
      "name": "MIGRATION_NOT_ALLOWED",
      "type": "error"
    },
    {
      "inputs": [],
      "name": "MINT_NOT_ALLOWED_AND_NOT_TERMINAL_DELEGATE",
      "type": "error"
    },
    {
      "inputs": [],
      "name": "NOT_CURRENT_CONTROLLER",
      "type": "error"
    },
    {
      "inputs": [],
      "name": "NO_BURNABLE_TOKENS",
      "type": "error"
    },
    {
      "inputs": [
        {
          "internalType": "uint256",
          "name": "prod1",
          "type": "uint256"
        },
        {
          "internalType": "uint256",
          "name": "denominator",
          "type": "uint256"
        }
      ],
      "name": "PRBMath__MulDivOverflow",
      "type": "error"
    },
    {
      "inputs": [],
      "name": "UNAUTHORIZED",
      "type": "error"
    },
    {
      "inputs": [],
      "name": "ZERO_TOKENS_TO_MINT",
      "type": "error"
    },
    {
      "anonymous": false,
      "inputs": [
        {
          "indexed": true,
          "internalType": "address",
          "name": "holder",
          "type": "address"
        },
        {
          "indexed": true,
          "internalType": "uint256",
          "name": "projectId",
          "type": "uint256"
        },
        {
          "indexed": false,
          "internalType": "uint256",
          "name": "tokenCount",
          "type": "uint256"
        },
        {
          "indexed": false,
          "internalType": "string",
          "name": "memo",
          "type": "string"
        },
        {
          "indexed": false,
          "internalType": "address",
          "name": "caller",
          "type": "address"
        }
      ],
      "name": "BurnTokens",
      "type": "event"
    },
    {
      "anonymous": false,
      "inputs": [
        {
          "indexed": true,
          "internalType": "uint256",
          "name": "fundingCycleConfiguration",
          "type": "uint256"
        },
        {
          "indexed": true,
          "internalType": "uint256",
          "name": "fundingCycleNumber",
          "type": "uint256"
        },
        {
          "indexed": true,
          "internalType": "uint256",
          "name": "projectId",
          "type": "uint256"
        },
        {
          "indexed": false,
          "internalType": "address",
          "name": "beneficiary",
          "type": "address"
        },
        {
          "indexed": false,
          "internalType": "uint256",
          "name": "tokenCount",
          "type": "uint256"
        },
        {
          "indexed": false,
          "internalType": "uint256",
          "name": "beneficiaryTokenCount",
          "type": "uint256"
        },
        {
          "indexed": false,
          "internalType": "string",
          "name": "memo",
          "type": "string"
        },
        {
          "indexed": false,
          "internalType": "address",
          "name": "caller",
          "type": "address"
        }
      ],
      "name": "DistributeReservedTokens",
      "type": "event"
    },
    {
      "anonymous": false,
      "inputs": [
        {
          "indexed": true,
          "internalType": "uint256",
          "name": "fundingCycleConfiguration",
          "type": "uint256"
        },
        {
          "indexed": true,
          "internalType": "uint256",
          "name": "fundingCycleNumber",
          "type": "uint256"
        },
        {
          "indexed": true,
          "internalType": "uint256",
          "name": "projectId",
          "type": "uint256"
        },
        {
          "components": [
            {
              "internalType": "bool",
              "name": "preferClaimed",
              "type": "bool"
            },
            {
              "internalType": "uint256",
              "name": "percent",
              "type": "uint256"
            },
            {
              "internalType": "uint256",
              "name": "projectId",
              "type": "uint256"
            },
            {
              "internalType": "address payable",
              "name": "beneficiary",
              "type": "address"
            },
            {
              "internalType": "uint256",
              "name": "lockedUntil",
              "type": "uint256"
            },
            {
              "internalType": "contract IJBSplitAllocator",
              "name": "allocator",
              "type": "address"
            }
          ],
          "indexed": false,
          "internalType": "struct JBSplit",
          "name": "split",
          "type": "tuple"
        },
        {
          "indexed": false,
          "internalType": "uint256",
          "name": "tokenCount",
          "type": "uint256"
        },
        {
          "indexed": false,
          "internalType": "address",
          "name": "caller",
          "type": "address"
        }
      ],
      "name": "DistributeToReservedTokenSplit",
      "type": "event"
    },
    {
      "anonymous": false,
      "inputs": [
        {
          "indexed": false,
          "internalType": "uint256",
          "name": "configuration",
          "type": "uint256"
        },
        {
          "indexed": false,
          "internalType": "uint256",
          "name": "projectId",
          "type": "uint256"
        },
        {
          "indexed": false,
          "internalType": "string",
          "name": "memo",
          "type": "string"
        },
        {
          "indexed": false,
          "internalType": "address",
          "name": "caller",
          "type": "address"
        }
      ],
      "name": "LaunchFundingCycles",
      "type": "event"
    },
    {
      "anonymous": false,
      "inputs": [
        {
          "indexed": false,
          "internalType": "uint256",
          "name": "configuration",
          "type": "uint256"
        },
        {
          "indexed": false,
          "internalType": "uint256",
          "name": "projectId",
          "type": "uint256"
        },
        {
          "indexed": false,
          "internalType": "string",
          "name": "memo",
          "type": "string"
        },
        {
          "indexed": false,
          "internalType": "address",
          "name": "caller",
          "type": "address"
        }
      ],
      "name": "LaunchProject",
      "type": "event"
    },
    {
      "anonymous": false,
      "inputs": [
        {
          "indexed": true,
          "internalType": "uint256",
          "name": "projectId",
          "type": "uint256"
        },
        {
          "indexed": false,
          "internalType": "contract IJBController",
          "name": "to",
          "type": "address"
        },
        {
          "indexed": false,
          "internalType": "address",
          "name": "caller",
          "type": "address"
        }
      ],
      "name": "Migrate",
      "type": "event"
    },
    {
      "anonymous": false,
      "inputs": [
        {
          "indexed": true,
          "internalType": "address",
          "name": "beneficiary",
          "type": "address"
        },
        {
          "indexed": true,
          "internalType": "uint256",
          "name": "projectId",
          "type": "uint256"
        },
        {
          "indexed": false,
          "internalType": "uint256",
          "name": "tokenCount",
          "type": "uint256"
        },
        {
          "indexed": false,
          "internalType": "uint256",
          "name": "beneficiaryTokenCount",
          "type": "uint256"
        },
        {
          "indexed": false,
          "internalType": "string",
          "name": "memo",
          "type": "string"
        },
        {
          "indexed": false,
          "internalType": "uint256",
          "name": "reservedRate",
          "type": "uint256"
        },
        {
          "indexed": false,
          "internalType": "address",
          "name": "caller",
          "type": "address"
        }
      ],
      "name": "MintTokens",
      "type": "event"
    },
    {
      "anonymous": false,
      "inputs": [
        {
          "indexed": true,
          "internalType": "uint256",
          "name": "projectId",
          "type": "uint256"
        },
        {
          "indexed": false,
          "internalType": "contract IJBController",
          "name": "from",
          "type": "address"
        },
        {
          "indexed": false,
          "internalType": "address",
          "name": "caller",
          "type": "address"
        }
      ],
      "name": "PrepMigration",
      "type": "event"
    },
    {
      "anonymous": false,
      "inputs": [
        {
          "indexed": false,
          "internalType": "uint256",
          "name": "configuration",
          "type": "uint256"
        },
        {
          "indexed": false,
          "internalType": "uint256",
          "name": "projectId",
          "type": "uint256"
        },
        {
          "indexed": false,
          "internalType": "string",
          "name": "memo",
          "type": "string"
        },
        {
          "indexed": false,
          "internalType": "address",
          "name": "caller",
          "type": "address"
        }
      ],
      "name": "ReconfigureFundingCycles",
      "type": "event"
    },
    {
      "anonymous": false,
      "inputs": [
        {
          "indexed": true,
          "internalType": "uint256",
          "name": "fundingCycleConfiguration",
          "type": "uint256"
        },
        {
          "indexed": true,
          "internalType": "uint256",
          "name": "fundingCycleNumber",
          "type": "uint256"
        },
        {
          "indexed": true,
          "internalType": "uint256",
          "name": "projectId",
          "type": "uint256"
        },
        {
          "components": [
            {
              "internalType": "contract IJBPaymentTerminal",
              "name": "terminal",
              "type": "address"
            },
            {
              "internalType": "uint256",
              "name": "distributionLimit",
              "type": "uint256"
            },
            {
              "internalType": "uint256",
              "name": "distributionLimitCurrency",
              "type": "uint256"
            },
            {
              "internalType": "uint256",
              "name": "overflowAllowance",
              "type": "uint256"
            },
            {
              "internalType": "uint256",
              "name": "overflowAllowanceCurrency",
              "type": "uint256"
            }
          ],
          "indexed": false,
          "internalType": "struct JBFundAccessConstraints",
          "name": "constraints",
          "type": "tuple"
        },
        {
          "indexed": false,
          "internalType": "address",
          "name": "caller",
          "type": "address"
        }
      ],
      "name": "SetFundAccessConstraints",
      "type": "event"
    },
    {
      "inputs": [
        {
          "internalType": "address",
          "name": "_holder",
          "type": "address"
        },
        {
          "internalType": "uint256",
          "name": "_projectId",
          "type": "uint256"
        },
        {
          "internalType": "uint256",
          "name": "_tokenCount",
          "type": "uint256"
        },
        {
          "internalType": "string",
          "name": "_memo",
          "type": "string"
        },
        {
          "internalType": "bool",
          "name": "_preferClaimedTokens",
          "type": "bool"
        }
      ],
      "name": "burnTokensOf",
      "outputs": [],
      "stateMutability": "nonpayable",
      "type": "function"
    },
    {
      "inputs": [
        {
          "internalType": "uint256",
          "name": "_projectId",
          "type": "uint256"
        },
        {
          "internalType": "contract IJBToken",
          "name": "_token",
          "type": "address"
        },
        {
          "internalType": "address",
          "name": "_newOwner",
          "type": "address"
        }
      ],
      "name": "changeTokenOf",
      "outputs": [],
      "stateMutability": "nonpayable",
      "type": "function"
    },
    {
      "inputs": [],
      "name": "directory",
      "outputs": [
        {
          "internalType": "contract IJBDirectory",
          "name": "",
          "type": "address"
        }
      ],
      "stateMutability": "view",
      "type": "function"
    },
    {
      "inputs": [
        {
          "internalType": "uint256",
          "name": "_projectId",
          "type": "uint256"
        },
        {
          "internalType": "string",
          "name": "_memo",
          "type": "string"
        }
      ],
      "name": "distributeReservedTokensOf",
      "outputs": [
        {
          "internalType": "uint256",
          "name": "",
          "type": "uint256"
        }
      ],
      "stateMutability": "nonpayable",
      "type": "function"
    },
    {
      "inputs": [
        {
          "internalType": "uint256",
          "name": "_projectId",
          "type": "uint256"
        },
        {
          "internalType": "uint256",
          "name": "_configuration",
          "type": "uint256"
        },
        {
          "internalType": "contract IJBPaymentTerminal",
          "name": "_terminal",
          "type": "address"
        }
      ],
      "name": "distributionLimitOf",
      "outputs": [
        {
          "internalType": "uint256",
          "name": "",
          "type": "uint256"
        },
        {
          "internalType": "uint256",
          "name": "",
          "type": "uint256"
        }
      ],
      "stateMutability": "view",
      "type": "function"
    },
    {
      "inputs": [],
      "name": "fundingCycleStore",
      "outputs": [
        {
          "internalType": "contract IJBFundingCycleStore",
          "name": "",
          "type": "address"
        }
      ],
      "stateMutability": "view",
      "type": "function"
    },
    {
      "inputs": [
        {
          "internalType": "uint256",
          "name": "_projectId",
          "type": "uint256"
        },
        {
          "internalType": "string",
          "name": "_name",
          "type": "string"
        },
        {
          "internalType": "string",
          "name": "_symbol",
          "type": "string"
        }
      ],
      "name": "issueTokenFor",
      "outputs": [
        {
          "internalType": "contract IJBToken",
          "name": "token",
          "type": "address"
        }
      ],
      "stateMutability": "nonpayable",
      "type": "function"
    },
    {
      "inputs": [
        {
          "internalType": "uint256",
          "name": "_projectId",
          "type": "uint256"
        },
        {
          "components": [
            {
              "internalType": "uint256",
              "name": "duration",
              "type": "uint256"
            },
            {
              "internalType": "uint256",
              "name": "weight",
              "type": "uint256"
            },
            {
              "internalType": "uint256",
              "name": "discountRate",
              "type": "uint256"
            },
            {
              "internalType": "contract IJBFundingCycleBallot",
              "name": "ballot",
              "type": "address"
            }
          ],
          "internalType": "struct JBFundingCycleData",
          "name": "_data",
          "type": "tuple"
        },
        {
          "components": [
            {
              "internalType": "uint256",
              "name": "reservedRate",
              "type": "uint256"
            },
            {
              "internalType": "uint256",
              "name": "redemptionRate",
              "type": "uint256"
            },
            {
              "internalType": "uint256",
              "name": "ballotRedemptionRate",
              "type": "uint256"
            },
            {
              "internalType": "bool",
              "name": "pausePay",
              "type": "bool"
            },
            {
              "internalType": "bool",
              "name": "pauseDistributions",
              "type": "bool"
            },
            {
              "internalType": "bool",
              "name": "pauseRedeem",
              "type": "bool"
            },
            {
              "internalType": "bool",
              "name": "pauseMint",
              "type": "bool"
            },
            {
              "internalType": "bool",
              "name": "pauseBurn",
              "type": "bool"
            },
            {
              "internalType": "bool",
              "name": "allowChangeToken",
              "type": "bool"
            },
            {
              "internalType": "bool",
              "name": "allowTerminalMigration",
              "type": "bool"
            },
            {
              "internalType": "bool",
              "name": "allowControllerMigration",
              "type": "bool"
            },
            {
              "internalType": "bool",
              "name": "allowSetTerminals",
              "type": "bool"
            },
            {
              "internalType": "bool",
              "name": "allowSetController",
              "type": "bool"
            },
            {
              "internalType": "bool",
              "name": "holdFees",
              "type": "bool"
            },
            {
              "internalType": "bool",
              "name": "useTotalOverflowForRedemptions",
              "type": "bool"
            },
            {
              "internalType": "bool",
              "name": "useDataSourceForPay",
              "type": "bool"
            },
            {
              "internalType": "bool",
              "name": "useDataSourceForRedeem",
              "type": "bool"
            },
            {
              "internalType": "contract IJBFundingCycleDataSource",
              "name": "dataSource",
              "type": "address"
            }
          ],
          "internalType": "struct JBFundingCycleMetadata",
          "name": "_metadata",
          "type": "tuple"
        },
        {
          "internalType": "uint256",
          "name": "_mustStartAtOrAfter",
          "type": "uint256"
        },
        {
          "components": [
            {
              "internalType": "uint256",
              "name": "group",
              "type": "uint256"
            },
            {
              "components": [
                {
                  "internalType": "bool",
                  "name": "preferClaimed",
                  "type": "bool"
                },
                {
                  "internalType": "uint256",
                  "name": "percent",
                  "type": "uint256"
                },
                {
                  "internalType": "uint256",
                  "name": "projectId",
                  "type": "uint256"
                },
                {
                  "internalType": "address payable",
                  "name": "beneficiary",
                  "type": "address"
                },
                {
                  "internalType": "uint256",
                  "name": "lockedUntil",
                  "type": "uint256"
                },
                {
                  "internalType": "contract IJBSplitAllocator",
                  "name": "allocator",
                  "type": "address"
                }
              ],
              "internalType": "struct JBSplit[]",
              "name": "splits",
              "type": "tuple[]"
            }
          ],
          "internalType": "struct JBGroupedSplits[]",
          "name": "_groupedSplits",
          "type": "tuple[]"
        },
        {
          "components": [
            {
              "internalType": "contract IJBPaymentTerminal",
              "name": "terminal",
              "type": "address"
            },
            {
              "internalType": "uint256",
              "name": "distributionLimit",
              "type": "uint256"
            },
            {
              "internalType": "uint256",
              "name": "distributionLimitCurrency",
              "type": "uint256"
            },
            {
              "internalType": "uint256",
              "name": "overflowAllowance",
              "type": "uint256"
            },
            {
              "internalType": "uint256",
              "name": "overflowAllowanceCurrency",
              "type": "uint256"
            }
          ],
          "internalType": "struct JBFundAccessConstraints[]",
          "name": "_fundAccessConstraints",
          "type": "tuple[]"
        },
        {
          "internalType": "contract IJBPaymentTerminal[]",
          "name": "_terminals",
          "type": "address[]"
        },
        {
          "internalType": "string",
          "name": "_memo",
          "type": "string"
        }
      ],
      "name": "launchFundingCyclesFor",
      "outputs": [
        {
          "internalType": "uint256",
          "name": "configuration",
          "type": "uint256"
        }
      ],
      "stateMutability": "nonpayable",
      "type": "function"
    },
    {
      "inputs": [
        {
          "internalType": "address",
          "name": "_owner",
          "type": "address"
        },
        {
          "components": [
            {
              "internalType": "string",
              "name": "content",
              "type": "string"
            },
            {
              "internalType": "uint256",
              "name": "domain",
              "type": "uint256"
            }
          ],
          "internalType": "struct JBProjectMetadata",
          "name": "_projectMetadata",
          "type": "tuple"
        },
        {
          "components": [
            {
              "internalType": "uint256",
              "name": "duration",
              "type": "uint256"
            },
            {
              "internalType": "uint256",
              "name": "weight",
              "type": "uint256"
            },
            {
              "internalType": "uint256",
              "name": "discountRate",
              "type": "uint256"
            },
            {
              "internalType": "contract IJBFundingCycleBallot",
              "name": "ballot",
              "type": "address"
            }
          ],
          "internalType": "struct JBFundingCycleData",
          "name": "_data",
          "type": "tuple"
        },
        {
          "components": [
            {
              "internalType": "uint256",
              "name": "reservedRate",
              "type": "uint256"
            },
            {
              "internalType": "uint256",
              "name": "redemptionRate",
              "type": "uint256"
            },
            {
              "internalType": "uint256",
              "name": "ballotRedemptionRate",
              "type": "uint256"
            },
            {
              "internalType": "bool",
              "name": "pausePay",
              "type": "bool"
            },
            {
              "internalType": "bool",
              "name": "pauseDistributions",
              "type": "bool"
            },
            {
              "internalType": "bool",
              "name": "pauseRedeem",
              "type": "bool"
            },
            {
              "internalType": "bool",
              "name": "pauseMint",
              "type": "bool"
            },
            {
              "internalType": "bool",
              "name": "pauseBurn",
              "type": "bool"
            },
            {
              "internalType": "bool",
              "name": "allowChangeToken",
              "type": "bool"
            },
            {
              "internalType": "bool",
              "name": "allowTerminalMigration",
              "type": "bool"
            },
            {
              "internalType": "bool",
              "name": "allowControllerMigration",
              "type": "bool"
            },
            {
              "internalType": "bool",
              "name": "allowSetTerminals",
              "type": "bool"
            },
            {
              "internalType": "bool",
              "name": "allowSetController",
              "type": "bool"
            },
            {
              "internalType": "bool",
              "name": "holdFees",
              "type": "bool"
            },
            {
              "internalType": "bool",
              "name": "useTotalOverflowForRedemptions",
              "type": "bool"
            },
            {
              "internalType": "bool",
              "name": "useDataSourceForPay",
              "type": "bool"
            },
            {
              "internalType": "bool",
              "name": "useDataSourceForRedeem",
              "type": "bool"
            },
            {
              "internalType": "contract IJBFundingCycleDataSource",
              "name": "dataSource",
              "type": "address"
            }
          ],
          "internalType": "struct JBFundingCycleMetadata",
          "name": "_metadata",
          "type": "tuple"
        },
        {
          "internalType": "uint256",
          "name": "_mustStartAtOrAfter",
          "type": "uint256"
        },
        {
          "components": [
            {
              "internalType": "uint256",
              "name": "group",
              "type": "uint256"
            },
            {
              "components": [
                {
                  "internalType": "bool",
                  "name": "preferClaimed",
                  "type": "bool"
                },
                {
                  "internalType": "uint256",
                  "name": "percent",
                  "type": "uint256"
                },
                {
                  "internalType": "uint256",
                  "name": "projectId",
                  "type": "uint256"
                },
                {
                  "internalType": "address payable",
                  "name": "beneficiary",
                  "type": "address"
                },
                {
                  "internalType": "uint256",
                  "name": "lockedUntil",
                  "type": "uint256"
                },
                {
                  "internalType": "contract IJBSplitAllocator",
                  "name": "allocator",
                  "type": "address"
                }
              ],
              "internalType": "struct JBSplit[]",
              "name": "splits",
              "type": "tuple[]"
            }
          ],
          "internalType": "struct JBGroupedSplits[]",
          "name": "_groupedSplits",
          "type": "tuple[]"
        },
        {
          "components": [
            {
              "internalType": "contract IJBPaymentTerminal",
              "name": "terminal",
              "type": "address"
            },
            {
              "internalType": "uint256",
              "name": "distributionLimit",
              "type": "uint256"
            },
            {
              "internalType": "uint256",
              "name": "distributionLimitCurrency",
              "type": "uint256"
            },
            {
              "internalType": "uint256",
              "name": "overflowAllowance",
              "type": "uint256"
            },
            {
              "internalType": "uint256",
              "name": "overflowAllowanceCurrency",
              "type": "uint256"
            }
          ],
          "internalType": "struct JBFundAccessConstraints[]",
          "name": "_fundAccessConstraints",
          "type": "tuple[]"
        },
        {
          "internalType": "contract IJBPaymentTerminal[]",
          "name": "_terminals",
          "type": "address[]"
        },
        {
          "internalType": "string",
          "name": "_memo",
          "type": "string"
        }
      ],
      "name": "launchProjectFor",
      "outputs": [
        {
          "internalType": "uint256",
          "name": "projectId",
          "type": "uint256"
        }
      ],
      "stateMutability": "nonpayable",
      "type": "function"
    },
    {
      "inputs": [
        {
          "internalType": "uint256",
          "name": "_projectId",
          "type": "uint256"
        },
        {
          "internalType": "contract IJBController",
          "name": "_to",
          "type": "address"
        }
      ],
      "name": "migrate",
      "outputs": [],
      "stateMutability": "nonpayable",
      "type": "function"
    },
    {
      "inputs": [
        {
          "internalType": "uint256",
          "name": "_projectId",
          "type": "uint256"
        },
        {
          "internalType": "uint256",
          "name": "_tokenCount",
          "type": "uint256"
        },
        {
          "internalType": "address",
          "name": "_beneficiary",
          "type": "address"
        },
        {
          "internalType": "string",
          "name": "_memo",
          "type": "string"
        },
        {
          "internalType": "bool",
          "name": "_preferClaimedTokens",
          "type": "bool"
        },
        {
          "internalType": "bool",
          "name": "_useReservedRate",
          "type": "bool"
        }
      ],
      "name": "mintTokensOf",
      "outputs": [
        {
          "internalType": "uint256",
          "name": "beneficiaryTokenCount",
          "type": "uint256"
        }
      ],
      "stateMutability": "nonpayable",
      "type": "function"
    },
    {
      "inputs": [],
      "name": "operatorStore",
      "outputs": [
        {
          "internalType": "contract IJBOperatorStore",
          "name": "",
          "type": "address"
        }
      ],
      "stateMutability": "view",
      "type": "function"
    },
    {
      "inputs": [
        {
          "internalType": "uint256",
          "name": "_projectId",
          "type": "uint256"
        },
        {
          "internalType": "uint256",
          "name": "_configuration",
          "type": "uint256"
        },
        {
          "internalType": "contract IJBPaymentTerminal",
          "name": "_terminal",
          "type": "address"
        }
      ],
      "name": "overflowAllowanceOf",
      "outputs": [
        {
          "internalType": "uint256",
          "name": "",
          "type": "uint256"
        },
        {
          "internalType": "uint256",
          "name": "",
          "type": "uint256"
        }
      ],
      "stateMutability": "view",
      "type": "function"
    },
    {
      "inputs": [
        {
          "internalType": "uint256",
          "name": "_projectId",
          "type": "uint256"
        },
        {
          "internalType": "contract IJBController",
          "name": "_from",
          "type": "address"
        }
      ],
      "name": "prepForMigrationOf",
      "outputs": [],
      "stateMutability": "nonpayable",
      "type": "function"
    },
    {
      "inputs": [],
      "name": "projects",
      "outputs": [
        {
          "internalType": "contract IJBProjects",
          "name": "",
          "type": "address"
        }
      ],
      "stateMutability": "view",
      "type": "function"
    },
    {
      "inputs": [
        {
          "internalType": "uint256",
          "name": "_projectId",
          "type": "uint256"
        },
        {
          "components": [
            {
              "internalType": "uint256",
              "name": "duration",
              "type": "uint256"
            },
            {
              "internalType": "uint256",
              "name": "weight",
              "type": "uint256"
            },
            {
              "internalType": "uint256",
              "name": "discountRate",
              "type": "uint256"
            },
            {
              "internalType": "contract IJBFundingCycleBallot",
              "name": "ballot",
              "type": "address"
            }
          ],
          "internalType": "struct JBFundingCycleData",
          "name": "_data",
          "type": "tuple"
        },
        {
          "components": [
            {
              "internalType": "uint256",
              "name": "reservedRate",
              "type": "uint256"
            },
            {
              "internalType": "uint256",
              "name": "redemptionRate",
              "type": "uint256"
            },
            {
              "internalType": "uint256",
              "name": "ballotRedemptionRate",
              "type": "uint256"
            },
            {
              "internalType": "bool",
              "name": "pausePay",
              "type": "bool"
            },
            {
              "internalType": "bool",
              "name": "pauseDistributions",
              "type": "bool"
            },
            {
              "internalType": "bool",
              "name": "pauseRedeem",
              "type": "bool"
            },
            {
              "internalType": "bool",
              "name": "pauseMint",
              "type": "bool"
            },
            {
              "internalType": "bool",
              "name": "pauseBurn",
              "type": "bool"
            },
            {
              "internalType": "bool",
              "name": "allowChangeToken",
              "type": "bool"
            },
            {
              "internalType": "bool",
              "name": "allowTerminalMigration",
              "type": "bool"
            },
            {
              "internalType": "bool",
              "name": "allowControllerMigration",
              "type": "bool"
            },
            {
              "internalType": "bool",
              "name": "allowSetTerminals",
              "type": "bool"
            },
            {
              "internalType": "bool",
              "name": "allowSetController",
              "type": "bool"
            },
            {
              "internalType": "bool",
              "name": "holdFees",
              "type": "bool"
            },
            {
              "internalType": "bool",
              "name": "useTotalOverflowForRedemptions",
              "type": "bool"
            },
            {
              "internalType": "bool",
              "name": "useDataSourceForPay",
              "type": "bool"
            },
            {
              "internalType": "bool",
              "name": "useDataSourceForRedeem",
              "type": "bool"
            },
            {
              "internalType": "contract IJBFundingCycleDataSource",
              "name": "dataSource",
              "type": "address"
            }
          ],
          "internalType": "struct JBFundingCycleMetadata",
          "name": "_metadata",
          "type": "tuple"
        },
        {
          "internalType": "uint256",
          "name": "_mustStartAtOrAfter",
          "type": "uint256"
        },
        {
          "components": [
            {
              "internalType": "uint256",
              "name": "group",
              "type": "uint256"
            },
            {
              "components": [
                {
                  "internalType": "bool",
                  "name": "preferClaimed",
                  "type": "bool"
                },
                {
                  "internalType": "uint256",
                  "name": "percent",
                  "type": "uint256"
                },
                {
                  "internalType": "uint256",
                  "name": "projectId",
                  "type": "uint256"
                },
                {
                  "internalType": "address payable",
                  "name": "beneficiary",
                  "type": "address"
                },
                {
                  "internalType": "uint256",
                  "name": "lockedUntil",
                  "type": "uint256"
                },
                {
                  "internalType": "contract IJBSplitAllocator",
                  "name": "allocator",
                  "type": "address"
                }
              ],
              "internalType": "struct JBSplit[]",
              "name": "splits",
              "type": "tuple[]"
            }
          ],
          "internalType": "struct JBGroupedSplits[]",
          "name": "_groupedSplits",
          "type": "tuple[]"
        },
        {
          "components": [
            {
              "internalType": "contract IJBPaymentTerminal",
              "name": "terminal",
              "type": "address"
            },
            {
              "internalType": "uint256",
              "name": "distributionLimit",
              "type": "uint256"
            },
            {
              "internalType": "uint256",
              "name": "distributionLimitCurrency",
              "type": "uint256"
            },
            {
              "internalType": "uint256",
              "name": "overflowAllowance",
              "type": "uint256"
            },
            {
              "internalType": "uint256",
              "name": "overflowAllowanceCurrency",
              "type": "uint256"
            }
          ],
          "internalType": "struct JBFundAccessConstraints[]",
          "name": "_fundAccessConstraints",
          "type": "tuple[]"
        },
        {
          "internalType": "string",
          "name": "_memo",
          "type": "string"
        }
      ],
      "name": "reconfigureFundingCyclesOf",
      "outputs": [
        {
          "internalType": "uint256",
          "name": "configuration",
          "type": "uint256"
        }
      ],
      "stateMutability": "nonpayable",
      "type": "function"
    },
    {
      "inputs": [
        {
          "internalType": "uint256",
          "name": "_projectId",
          "type": "uint256"
        },
        {
          "internalType": "uint256",
          "name": "_reservedRate",
          "type": "uint256"
        }
      ],
      "name": "reservedTokenBalanceOf",
      "outputs": [
        {
          "internalType": "uint256",
          "name": "",
          "type": "uint256"
        }
      ],
      "stateMutability": "view",
      "type": "function"
    },
    {
      "inputs": [],
      "name": "splitsStore",
      "outputs": [
        {
          "internalType": "contract IJBSplitsStore",
          "name": "",
          "type": "address"
        }
      ],
      "stateMutability": "view",
      "type": "function"
    },
    {
      "inputs": [],
      "name": "tokenStore",
      "outputs": [
        {
          "internalType": "contract IJBTokenStore",
          "name": "",
          "type": "address"
        }
      ],
      "stateMutability": "view",
      "type": "function"
    },
    {
      "inputs": [
        {
          "internalType": "uint256",
          "name": "_projectId",
          "type": "uint256"
        },
        {
          "internalType": "uint256",
          "name": "_reservedRate",
          "type": "uint256"
        }
      ],
      "name": "totalOutstandingTokensOf",
      "outputs": [
        {
          "internalType": "uint256",
          "name": "",
          "type": "uint256"
        }
      ],
      "stateMutability": "view",
      "type": "function"
    }
  ],
  "transactionHash": "0x85e9de6840dbc58f48ee98e8846054912bb2d6049b5075c024b794c5939e0917",
  "args": [
    "0x2186Eca004D07eBd5c66c2FF371107d81455f9b3",
    "0xBa2048C29C24344A5F98E82f3C597305fF9F1d45",
    "0x06249fe92f19Ed8c493d0265b2B8480bE265338A",
    "0x1994b525F394F1dde3fd221Be55923343e78e66f",
    "0x444f9447E57721b69fFb1E3CF9fa94238B09b20f",
    "0x4404F1182e250590D30Cbc2CaB018D857F21cA6c"
  ],
  "numDeployments": 2,
  "solcInputHash": "c53e8ea435a365144e05257e9146f0fc",
  "bytecode": "0x6101406040523480156200001257600080fd5b5060405162005bd538038062005bd5833981016040819052620000359162000076565b6001600160601b0319606096871b811660805294861b851660a05292851b84166101205290841b831660c052831b821660e05290911b166101005262000123565b60008060008060008060c087890312156200009057600080fd5b86516200009d816200010a565b6020880151909650620000b0816200010a565b6040880151909550620000c3816200010a565b6060880151909450620000d6816200010a565b6080880151909350620000e9816200010a565b60a0880151909250620000fc816200010a565b809150509295509295509295565b6001600160a01b03811681146200012057600080fd5b50565b60805160601c60a05160601c60c05160601c60e05160601c6101005160601c6101205160601c6158d6620002ff60003960008181610419015281816104c50152818161089901528181610f9a0152818161149801528181611826015281816119dd01528181611b030152818161204b0152818161243601528181612ab80152612b3a01526000818161019e015281816137510152613caf015260008181610358015281816109e801528181610ece0152818161109101528181611698015281816125e201528181612c5c0152818161301301528181613140015281816132e2015281816134e00152613dc5015260008181610331015281816107bb01528181610da20152818161159101528181612358015281816129bc0152818161321d01526136690152600081816103a501528181610ad5015281816111b70152818161191c01528181611bec01528181611f6d015281816126da01528181612d3b015281816133d20152613e5f0152600081816103df015281816105c30152818161069f01528181610be101528181610cbd015281816112c30152818161139f01528181611cf801528181611dd40152818161214901528181612225015281816127e6015281816128c201528181612e470152612f2301526158d66000f3fe608060405234801561001057600080fd5b506004361061016c5760003560e01c806371b4d94c116100cd578063b5f1e34d11610081578063d101307311610066578063d10130731461043b578063e867c59c1461044e578063f033b3b41461046157600080fd5b8063b5f1e34d14610401578063c41c2f241461041457600080fd5b80638b79543c116100b25780638b79543c146103a0578063a85a0c18146103c7578063ad007d63146103da57600080fd5b806371b4d94c1461037a5780638ae9c07b1461038d57600080fd5b80634a9171b0116101245780635578dfd7116101095780635578dfd7146102b9578063557e71551461032c578063619306301461035357600080fd5b80634a9171b0146102105780635172a2bf1461023157600080fd5b80632bdfe004116101555780632bdfe004146101995780633e8c615b146101ea578063405b84fa146101fd57600080fd5b80631665bc0f14610171578063229bb82414610186575b600080fd5b61018461017f36600461473e565b610474565b005b610184610194366004614afb565b610aa6565b6101c07f000000000000000000000000000000000000000000000000000000000000000081565b60405173ffffffffffffffffffffffffffffffffffffffff90911681526020015b60405180910390f35b6101846101f8366004614acb565b610f54565b61018461020b366004614acb565b611188565b61022361021e366004614614565b6118dc565b6040519081526020016101e1565b6102a461023f366004614e7b565b600092835260026020908152604080852093855292815282842073ffffffffffffffffffffffffffffffffffffffff929092168452529020547effffffffffffffffffffffffffffffffffffffffffffffffffffffffffffff81169160f89190911c90565b604080519283526020830191909152016101e1565b6102a46102c7366004614e7b565b600092835260016020908152604080852093855292815282842073ffffffffffffffffffffffffffffffffffffffff929092168452529020547effffffffffffffffffffffffffffffffffffffffffffffffffffffffffffff81169160f89190911c90565b6101c07f000000000000000000000000000000000000000000000000000000000000000081565b6101c07f000000000000000000000000000000000000000000000000000000000000000081565b610223610388366004614c03565b611bba565b61022361039b366004614deb565b611f3b565b6101c07f000000000000000000000000000000000000000000000000000000000000000081565b6102236103d5366004614cdb565b6126a8565b6101c07f000000000000000000000000000000000000000000000000000000000000000081565b61022361040f366004614dc9565b612c13565b6101c07f000000000000000000000000000000000000000000000000000000000000000081565b6101c0610449366004614b89565b612d09565b61022361045c366004614b3d565b6130af565b61022361046f366004614dc9565b6130fb565b6040517f6e49181f0000000000000000000000000000000000000000000000000000000081526004810186905233602482015286908690600a9073ffffffffffffffffffffffffffffffffffffffff7f00000000000000000000000000000000000000000000000000000000000000001690636e49181f9060440160206040518083038186803b15801561050757600080fd5b505afa15801561051b573d6000803e3d6000fd5b505050506040513d601f19601f8201168201806040525081019061053f91906148b6565b8015801561056357503373ffffffffffffffffffffffffffffffffffffffff851614155b801561063f57506040517fc161c93f00000000000000000000000000000000000000000000000000000000815233600482015273ffffffffffffffffffffffffffffffffffffffff858116602483015260448201859052606482018490527f0000000000000000000000000000000000000000000000000000000000000000169063c161c93f9060840160206040518083038186803b15801561060557600080fd5b505afa158015610619573d6000803e3d6000fd5b505050506040513d601f19601f8201168201806040525081019061063d91906148b6565b155b801561071b57506040517fc161c93f00000000000000000000000000000000000000000000000000000000815233600482015273ffffffffffffffffffffffffffffffffffffffff858116602483015260006044830152606482018490527f0000000000000000000000000000000000000000000000000000000000000000169063c161c93f9060840160206040518083038186803b1580156106e157600080fd5b505afa1580156106f5573d6000803e3d6000fd5b505050506040513d601f19601f8201168201806040525081019061071991906148b6565b155b15610752576040517f075fd2b100000000000000000000000000000000000000000000000000000000815260040160405180910390fd5b87610789576040517f7b38547b00000000000000000000000000000000000000000000000000000000815260040160405180910390fd5b6040517f43a266c2000000000000000000000000000000000000000000000000000000008152600481018a90526000907f000000000000000000000000000000000000000000000000000000000000000073ffffffffffffffffffffffffffffffffffffffff16906343a266c2906024016101206040518083038186803b15801561081357600080fd5b505afa158015610827573d6000803e3d6000fd5b505050506040513d601f19601f8201168201806040525081019061084b9190614a32565b610100810151909150603c1c600190811614801561092a57506040517f6e49181f000000000000000000000000000000000000000000000000000000008152600481018b90523360248201527f000000000000000000000000000000000000000000000000000000000000000073ffffffffffffffffffffffffffffffffffffffff1690636e49181f9060440160206040518083038186803b1580156108f057600080fd5b505afa158015610904573d6000803e3d6000fd5b505050506040513d601f19601f8201168201806040525081019061092891906148b6565b155b15610961576040517f78a4871800000000000000000000000000000000000000000000000000000000815260040160405180910390fd5b60008a81526020819052604090205461097b908a90615540565b60008b8152602081905260409081902091909155517f906ebd0f00000000000000000000000000000000000000000000000000000000815273ffffffffffffffffffffffffffffffffffffffff8c81166004830152602482018c9052604482018b905287151560648301527f0000000000000000000000000000000000000000000000000000000000000000169063906ebd0f90608401600060405180830381600087803b158015610a2c57600080fd5b505af1158015610a40573d6000803e3d6000fd5b50505050898b73ffffffffffffffffffffffffffffffffffffffff167fdf04e13ee4fcd48a81ab2fd114757093740a3efa9b6475d86e05878b4c59d0798b8b8b33604051610a91949392919061513c565b60405180910390a35050505050505050505050565b6040517f6352211e000000000000000000000000000000000000000000000000000000008152600481018490527f000000000000000000000000000000000000000000000000000000000000000073ffffffffffffffffffffffffffffffffffffffff1690636352211e9060240160206040518083038186803b158015610b2c57600080fd5b505afa158015610b40573d6000803e3d6000fd5b505050506040513d601f19601f82011682018060405250810190610b6491906145f7565b8360083373ffffffffffffffffffffffffffffffffffffffff841614801590610c5d57506040517fc161c93f00000000000000000000000000000000000000000000000000000000815233600482015273ffffffffffffffffffffffffffffffffffffffff848116602483015260448201849052606482018390527f0000000000000000000000000000000000000000000000000000000000000000169063c161c93f9060840160206040518083038186803b158015610c2357600080fd5b505afa158015610c37573d6000803e3d6000fd5b505050506040513d601f19601f82011682018060405250810190610c5b91906148b6565b155b8015610d3957506040517fc161c93f00000000000000000000000000000000000000000000000000000000815233600482015273ffffffffffffffffffffffffffffffffffffffff848116602483015260006044830152606482018390527f0000000000000000000000000000000000000000000000000000000000000000169063c161c93f9060840160206040518083038186803b158015610cff57600080fd5b505afa158015610d13573d6000803e3d6000fd5b505050506040513d601f19601f82011682018060405250810190610d3791906148b6565b155b15610d70576040517f075fd2b100000000000000000000000000000000000000000000000000000000815260040160405180910390fd5b6040517f43a266c2000000000000000000000000000000000000000000000000000000008152600481018790526000907f000000000000000000000000000000000000000000000000000000000000000073ffffffffffffffffffffffffffffffffffffffff16906343a266c2906024016101206040518083038186803b158015610dfa57600080fd5b505afa158015610e0e573d6000803e3d6000fd5b505050506040513d601f19601f82011682018060405250810190610e329190614a32565b610100810151909150603d1c600190811614610e7a576040517f2ebc601300000000000000000000000000000000000000000000000000000000815260040160405180910390fd5b6040517f57e4c7780000000000000000000000000000000000000000000000000000000081526004810188905273ffffffffffffffffffffffffffffffffffffffff878116602483015286811660448301527f000000000000000000000000000000000000000000000000000000000000000016906357e4c77890606401602060405180830381600087803b158015610f1257600080fd5b505af1158015610f26573d6000803e3d6000fd5b505050506040513d601f19601f82011682018060405250810190610f4a91906145f7565b5050505050505050565b6040517f5dd8f6aa00000000000000000000000000000000000000000000000000000000815260048101839052309073ffffffffffffffffffffffffffffffffffffffff7f00000000000000000000000000000000000000000000000000000000000000001690635dd8f6aa9060240160206040518083038186803b158015610fdc57600080fd5b505afa158015610ff0573d6000803e3d6000fd5b505050506040513d601f19601f8201168201806040525081019061101491906145f7565b73ffffffffffffffffffffffffffffffffffffffff161415611062576040517ffc2ce25a00000000000000000000000000000000000000000000000000000000815260040160405180910390fd5b6040517f75b0d9cd000000000000000000000000000000000000000000000000000000008152600481018390527f000000000000000000000000000000000000000000000000000000000000000073ffffffffffffffffffffffffffffffffffffffff16906375b0d9cd9060240160206040518083038186803b1580156110e857600080fd5b505afa1580156110fc573d6000803e3d6000fd5b505050506040513d601f19601f820116820180604052508101906111209190614ab2565b6000838152602081815260409182902092909255805173ffffffffffffffffffffffffffffffffffffffff84168152339281019290925283917ff389f4f5d01fe4903d6a7a63b8790b7bf80d374b6afed808c03795c3b323d4d3910160405180910390a25050565b6040517f6352211e000000000000000000000000000000000000000000000000000000008152600481018390527f000000000000000000000000000000000000000000000000000000000000000073ffffffffffffffffffffffffffffffffffffffff1690636352211e9060240160206040518083038186803b15801561120e57600080fd5b505afa158015611222573d6000803e3d6000fd5b505050506040513d601f19601f8201168201806040525081019061124691906145f7565b8260033373ffffffffffffffffffffffffffffffffffffffff84161480159061133f57506040517fc161c93f00000000000000000000000000000000000000000000000000000000815233600482015273ffffffffffffffffffffffffffffffffffffffff848116602483015260448201849052606482018390527f0000000000000000000000000000000000000000000000000000000000000000169063c161c93f9060840160206040518083038186803b15801561130557600080fd5b505afa158015611319573d6000803e3d6000fd5b505050506040513d601f19601f8201168201806040525081019061133d91906148b6565b155b801561141b57506040517fc161c93f00000000000000000000000000000000000000000000000000000000815233600482015273ffffffffffffffffffffffffffffffffffffffff848116602483015260006044830152606482018390527f0000000000000000000000000000000000000000000000000000000000000000169063c161c93f9060840160206040518083038186803b1580156113e157600080fd5b505afa1580156113f5573d6000803e3d6000fd5b505050506040513d601f19601f8201168201806040525081019061141991906148b6565b155b15611452576040517f075fd2b100000000000000000000000000000000000000000000000000000000815260040160405180910390fd5b6040517f5dd8f6aa00000000000000000000000000000000000000000000000000000000815260048101869052309073ffffffffffffffffffffffffffffffffffffffff7f00000000000000000000000000000000000000000000000000000000000000001690635dd8f6aa9060240160206040518083038186803b1580156114da57600080fd5b505afa1580156114ee573d6000803e3d6000fd5b505050506040513d601f19601f8201168201806040525081019061151291906145f7565b73ffffffffffffffffffffffffffffffffffffffff161461155f576040517fe0a0a87d00000000000000000000000000000000000000000000000000000000815260040160405180910390fd5b6040517f43a266c2000000000000000000000000000000000000000000000000000000008152600481018690526000907f000000000000000000000000000000000000000000000000000000000000000073ffffffffffffffffffffffffffffffffffffffff16906343a266c2906024016101206040518083038186803b1580156115e957600080fd5b505afa1580156115fd573d6000803e3d6000fd5b505050506040513d601f19601f820116820180604052508101906116219190614a32565b610100810151909150603f1c600190811614611669576040517f46ace3f900000000000000000000000000000000000000000000000000000000815260040160405180910390fd5b6040517f75b0d9cd000000000000000000000000000000000000000000000000000000008152600481018790527f000000000000000000000000000000000000000000000000000000000000000073ffffffffffffffffffffffffffffffffffffffff16906375b0d9cd9060240160206040518083038186803b1580156116ef57600080fd5b505afa158015611703573d6000803e3d6000fd5b505050506040513d601f19601f820116820180604052508101906117279190614ab2565b600087815260208190526040902054146117565761175486604051806020016040528060008152506131d4565b505b6040517f3e8c615b0000000000000000000000000000000000000000000000000000000081526004810187905230602482015273ffffffffffffffffffffffffffffffffffffffff861690633e8c615b90604401600060405180830381600087803b1580156117c457600080fd5b505af11580156117d8573d6000803e3d6000fd5b50506040517f714e7f320000000000000000000000000000000000000000000000000000000081526004810189905273ffffffffffffffffffffffffffffffffffffffff88811660248301527f000000000000000000000000000000000000000000000000000000000000000016925063714e7f329150604401600060405180830381600087803b15801561186c57600080fd5b505af1158015611880573d6000803e3d6000fd5b50506040805173ffffffffffffffffffffffffffffffffffffffff891681523360208201528993507f01f954abace731a88ab86e71186040cc2be49fe517ea06bc0d24f25b82b8345692500160405180910390a2505050505050565b6040517f666d87a000000000000000000000000000000000000000000000000000000000815260009073ffffffffffffffffffffffffffffffffffffffff7f0000000000000000000000000000000000000000000000000000000000000000169063666d87a090611953908f908f90600401614f5d565b602060405180830381600087803b15801561196d57600080fd5b505af1158015611981573d6000803e3d6000fd5b505050506040513d601f19601f820116820180604052508101906119a59190614ab2565b6040517f714e7f32000000000000000000000000000000000000000000000000000000008152600481018290523060248201529091507f000000000000000000000000000000000000000000000000000000000000000073ffffffffffffffffffffffffffffffffffffffff169063714e7f3290604401600060405180830381600087803b158015611a3657600080fd5b505af1158015611a4a573d6000803e3d6000fd5b505050506000611abc828c8c8c8c8c90611a6491906155cb565b8b8b808060200260200160405190810160405280939291908181526020016000905b82821015611ab257611aa360a083028601368190038101906148d3565b81526020019060010190611a86565b5050505050613591565b845190915015611b6d576040517f821b9fd800000000000000000000000000000000000000000000000000000000815273ffffffffffffffffffffffffffffffffffffffff7f0000000000000000000000000000000000000000000000000000000000000000169063821b9fd890611b3a90859088906004016150e5565b600060405180830381600087803b158015611b5457600080fd5b505af1158015611b68573d6000803e3d6000fd5b505050505b7ff3e6948ba8b32d557363ea08470121c47c0127659aed09320812174d373afef281838533604051611ba294939291906152ae565b60405180910390a1509b9a5050505050505050505050565b6040517f6352211e000000000000000000000000000000000000000000000000000000008152600481018b90526000907f000000000000000000000000000000000000000000000000000000000000000073ffffffffffffffffffffffffffffffffffffffff1690636352211e9060240160206040518083038186803b158015611c4357600080fd5b505afa158015611c57573d6000803e3d6000fd5b505050506040513d601f19601f82011682018060405250810190611c7b91906145f7565b8b60013373ffffffffffffffffffffffffffffffffffffffff841614801590611d7457506040517fc161c93f00000000000000000000000000000000000000000000000000000000815233600482015273ffffffffffffffffffffffffffffffffffffffff848116602483015260448201849052606482018390527f0000000000000000000000000000000000000000000000000000000000000000169063c161c93f9060840160206040518083038186803b158015611d3a57600080fd5b505afa158015611d4e573d6000803e3d6000fd5b505050506040513d601f19601f82011682018060405250810190611d7291906148b6565b155b8015611e5057506040517fc161c93f00000000000000000000000000000000000000000000000000000000815233600482015273ffffffffffffffffffffffffffffffffffffffff848116602483015260006044830152606482018390527f0000000000000000000000000000000000000000000000000000000000000000169063c161c93f9060840160206040518083038186803b158015611e1657600080fd5b505afa158015611e2a573d6000803e3d6000fd5b505050506040513d601f19601f82011682018060405250810190611e4e91906148b6565b155b15611e87576040517f075fd2b100000000000000000000000000000000000000000000000000000000815260040160405180910390fd5b611ee98e8e8e8e8e8e90611e9b91906155cb565b8d8d808060200260200160405190810160405280939291908181526020016000905b82821015611ab257611eda60a083028601368190038101906148d3565b81526020019060010190611ebd565b93507f1a08ad37c93969a586fd0605d240c17113b20a9c9ac3847595d0ab425225f6af848f888833604051611f22959493929190615217565b60405180910390a15050509a9950505050505050505050565b6040517f6352211e000000000000000000000000000000000000000000000000000000008152600481018890526000907f000000000000000000000000000000000000000000000000000000000000000073ffffffffffffffffffffffffffffffffffffffff1690636352211e9060240160206040518083038186803b158015611fc457600080fd5b505afa158015611fd8573d6000803e3d6000fd5b505050506040513d601f19601f82011682018060405250810190611ffc91906145f7565b6040517f6e49181f000000000000000000000000000000000000000000000000000000008152600481018a9052336024820152899060099073ffffffffffffffffffffffffffffffffffffffff7f00000000000000000000000000000000000000000000000000000000000000001690636e49181f9060440160206040518083038186803b15801561208d57600080fd5b505afa1580156120a1573d6000803e3d6000fd5b505050506040513d601f19601f820116820180604052508101906120c591906148b6565b801580156120e957503373ffffffffffffffffffffffffffffffffffffffff851614155b80156121c557506040517fc161c93f00000000000000000000000000000000000000000000000000000000815233600482015273ffffffffffffffffffffffffffffffffffffffff858116602483015260448201859052606482018490527f0000000000000000000000000000000000000000000000000000000000000000169063c161c93f9060840160206040518083038186803b15801561218b57600080fd5b505afa15801561219f573d6000803e3d6000fd5b505050506040513d601f19601f820116820180604052508101906121c391906148b6565b155b80156122a157506040517fc161c93f00000000000000000000000000000000000000000000000000000000815233600482015273ffffffffffffffffffffffffffffffffffffffff858116602483015260006044830152606482018490527f0000000000000000000000000000000000000000000000000000000000000000169063c161c93f9060840160206040518083038186803b15801561226757600080fd5b505afa15801561227b573d6000803e3d6000fd5b505050506040513d601f19601f8201168201806040525081019061229f91906148b6565b155b156122d8576040517f075fd2b100000000000000000000000000000000000000000000000000000000815260040160405180910390fd5b8a61230f576040517f9fd13e5400000000000000000000000000000000000000000000000000000000815260040160405180910390fd5b6040517f43a266c2000000000000000000000000000000000000000000000000000000008152600481018d9052600090819073ffffffffffffffffffffffffffffffffffffffff7f000000000000000000000000000000000000000000000000000000000000000016906343a266c2906024016101206040518083038186803b15801561239b57600080fd5b505afa1580156123af573d6000803e3d6000fd5b505050506040513d601f19601f820116820180604052508101906123d39190614a32565b610100810151909150603b1c60019081161480156124b257506040517f6e49181f000000000000000000000000000000000000000000000000000000008152600481018f905233602482015273ffffffffffffffffffffffffffffffffffffffff7f00000000000000000000000000000000000000000000000000000000000000001690636e49181f9060440160206040518083038186803b15801561247857600080fd5b505afa15801561248c573d6000803e3d6000fd5b505050506040513d601f19601f820116820180604052508101906124b091906148b6565b155b156124e9576040517f8c5fb46100000000000000000000000000000000000000000000000000000000815260040160405180910390fd5b876124f5576000612503565b61010081015160081c61ffff165b91505061271081141561253e5760008d81526020819052604090205461252a908d90615540565b60008e81526020819052604090205561263f565b6125568c61254e836127106155b4565b612710613aed565b9550806125875760008d8152602081905260409020546125779087906154b4565b60008e8152602081905260409020555b6040517fceddd3e400000000000000000000000000000000000000000000000000000000815273ffffffffffffffffffffffffffffffffffffffff8c81166004830152602482018f90526044820188905289151560648301527f0000000000000000000000000000000000000000000000000000000000000000169063ceddd3e490608401600060405180830381600087803b15801561262657600080fd5b505af115801561263a573d6000803e3d6000fd5b505050505b8c8b73ffffffffffffffffffffffffffffffffffffffff167fe6fee9c572244c0c2238c3112ac12d411750a7ee00eeebd32521c3e5a666c14b8e898e8e87336040516126909695949392919061525f565b60405180910390a35050505050979650505050505050565b6040517f6352211e000000000000000000000000000000000000000000000000000000008152600481018a90526000907f000000000000000000000000000000000000000000000000000000000000000073ffffffffffffffffffffffffffffffffffffffff1690636352211e9060240160206040518083038186803b15801561273157600080fd5b505afa158015612745573d6000803e3d6000fd5b505050506040513d601f19601f8201168201806040525081019061276991906145f7565b8a60013373ffffffffffffffffffffffffffffffffffffffff84161480159061286257506040517fc161c93f00000000000000000000000000000000000000000000000000000000815233600482015273ffffffffffffffffffffffffffffffffffffffff848116602483015260448201849052606482018390527f0000000000000000000000000000000000000000000000000000000000000000169063c161c93f9060840160206040518083038186803b15801561282857600080fd5b505afa15801561283c573d6000803e3d6000fd5b505050506040513d601f19601f8201168201806040525081019061286091906148b6565b155b801561293e57506040517fc161c93f00000000000000000000000000000000000000000000000000000000815233600482015273ffffffffffffffffffffffffffffffffffffffff848116602483015260006044830152606482018390527f0000000000000000000000000000000000000000000000000000000000000000169063c161c93f9060840160206040518083038186803b15801561290457600080fd5b505afa158015612918573d6000803e3d6000fd5b505050506040513d601f19601f8201168201806040525081019061293c91906148b6565b155b15612975576040517f075fd2b100000000000000000000000000000000000000000000000000000000815260040160405180910390fd5b6040517f2cee6deb000000000000000000000000000000000000000000000000000000008152600481018e905260009073ffffffffffffffffffffffffffffffffffffffff7f00000000000000000000000000000000000000000000000000000000000000001690632cee6deb9060240160206040518083038186803b1580156129fe57600080fd5b505afa158015612a12573d6000803e3d6000fd5b505050506040513d601f19601f82011682018060405250810190612a369190614ab2565b1115612a6e576040517fffd0bc1200000000000000000000000000000000000000000000000000000000815260040160405180910390fd5b6040517f714e7f32000000000000000000000000000000000000000000000000000000008152600481018e905230602482015273ffffffffffffffffffffffffffffffffffffffff7f0000000000000000000000000000000000000000000000000000000000000000169063714e7f3290604401600060405180830381600087803b158015612afc57600080fd5b505af1158015612b10573d6000803e3d6000fd5b50505050612b2e8d8d8d8d8d8d90612b2891906155cb565b8c613591565b865190945015612bc6577f000000000000000000000000000000000000000000000000000000000000000073ffffffffffffffffffffffffffffffffffffffff1663821b9fd88e886040518363ffffffff1660e01b8152600401612b939291906150e5565b600060405180830381600087803b158015612bad57600080fd5b505af1158015612bc1573d6000803e3d6000fd5b505050505b7f8621c3692c18d8ddd4cd26457d6a3e1d916e7001c4243a6c8dfa862a7e10a823848e8733604051612bfb94939291906152ae565b60405180910390a15050509998505050505050505050565b6040517f75b0d9cd00000000000000000000000000000000000000000000000000000000815260048101839052600090819073ffffffffffffffffffffffffffffffffffffffff7f000000000000000000000000000000000000000000000000000000000000000016906375b0d9cd9060240160206040518083038186803b158015612c9e57600080fd5b505afa158015612cb2573d6000803e3d6000fd5b505050506040513d601f19601f82011682018060405250810190612cd69190614ab2565b60008581526020819052604081205491925090612cf4908584613bf6565b9050612d008183615528565b95945050505050565b6040517f6352211e000000000000000000000000000000000000000000000000000000008152600481018690526000907f000000000000000000000000000000000000000000000000000000000000000073ffffffffffffffffffffffffffffffffffffffff1690636352211e9060240160206040518083038186803b158015612d9257600080fd5b505afa158015612da6573d6000803e3d6000fd5b505050506040513d601f19601f82011682018060405250810190612dca91906145f7565b8660073373ffffffffffffffffffffffffffffffffffffffff841614801590612ec357506040517fc161c93f00000000000000000000000000000000000000000000000000000000815233600482015273ffffffffffffffffffffffffffffffffffffffff848116602483015260448201849052606482018390527f0000000000000000000000000000000000000000000000000000000000000000169063c161c93f9060840160206040518083038186803b158015612e8957600080fd5b505afa158015612e9d573d6000803e3d6000fd5b505050506040513d601f19601f82011682018060405250810190612ec191906148b6565b155b8015612f9f57506040517fc161c93f00000000000000000000000000000000000000000000000000000000815233600482015273ffffffffffffffffffffffffffffffffffffffff848116602483015260006044830152606482018390527f0000000000000000000000000000000000000000000000000000000000000000169063c161c93f9060840160206040518083038186803b158015612f6557600080fd5b505afa158015612f79573d6000803e3d6000fd5b505050506040513d601f19601f82011682018060405250810190612f9d91906148b6565b155b15612fd6576040517f075fd2b100000000000000000000000000000000000000000000000000000000815260040160405180910390fd5b6040517fa7f2a70b00000000000000000000000000000000000000000000000000000000815273ffffffffffffffffffffffffffffffffffffffff7f0000000000000000000000000000000000000000000000000000000000000000169063a7f2a70b90613050908c908c908c908c908c9060040161517d565b602060405180830381600087803b15801561306a57600080fd5b505af115801561307e573d6000803e3d6000fd5b505050506040513d601f19601f820116820180604052508101906130a291906145f7565b9998505050505050505050565b60006130f18484848080601f0160208091040260200160405190810160405280939291908181526020018383808284376000920191909152506131d492505050565b90505b9392505050565b6000828152602081905260408082205490517f75b0d9cd000000000000000000000000000000000000000000000000000000008152600481018590526130f4919084907f000000000000000000000000000000000000000000000000000000000000000073ffffffffffffffffffffffffffffffffffffffff16906375b0d9cd9060240160206040518083038186803b15801561319757600080fd5b505afa1580156131ab573d6000803e3d6000fd5b505050506040513d601f19601f820116820180604052508101906131cf9190614ab2565b613bf6565b6040517f43a266c200000000000000000000000000000000000000000000000000000000815260048101839052600090819073ffffffffffffffffffffffffffffffffffffffff7f000000000000000000000000000000000000000000000000000000000000000016906343a266c2906024016101206040518083038186803b15801561326057600080fd5b505afa158015613274573d6000803e3d6000fd5b505050506040513d601f19601f820116820180604052508101906132989190614a32565b6040517f75b0d9cd0000000000000000000000000000000000000000000000000000000081526004810186905290915060009073ffffffffffffffffffffffffffffffffffffffff7f000000000000000000000000000000000000000000000000000000000000000016906375b0d9cd9060240160206040518083038186803b15801561332457600080fd5b505afa158015613338573d6000803e3d6000fd5b505050506040513d601f19601f8201168201806040525081019061335c9190614ab2565b6000868152602081905260409020546101008401519192506133859160081c61ffff1683613bf6565b92506133918382615528565b6000868152602081905260408082209290925590517f6352211e000000000000000000000000000000000000000000000000000000008152600481018790527f000000000000000000000000000000000000000000000000000000000000000073ffffffffffffffffffffffffffffffffffffffff1690636352211e9060240160206040518083038186803b15801561342957600080fd5b505afa15801561343d573d6000803e3d6000fd5b505050506040513d601f19601f8201168201806040525081019061346191906145f7565b90506000841561347b57613476878587613c67565b61347e565b60005b9050801561353d576040517fceddd3e400000000000000000000000000000000000000000000000000000000815273ffffffffffffffffffffffffffffffffffffffff83811660048301526024820189905260448201839052600060648301527f0000000000000000000000000000000000000000000000000000000000000000169063ceddd3e490608401600060405180830381600087803b15801561352457600080fd5b505af1158015613538573d6000803e3d6000fd5b505050505b86846000015185602001517fb12d7a78048433f69fe6d30145bf08aad8e82985b96e4db6d5c6a7e94d57086e8589868c3360405161357f959493929190615008565b60405180910390a45050505092915050565b6000612710853511156135d0576040517f5623289500000000000000000000000000000000000000000000000000000000815260040160405180910390fd5b61271085602001351115613610576040517f9db9ee9300000000000000000000000000000000000000000000000000000000815260040160405180910390fd5b61271085604001351115613650576040517fddbf1bc600000000000000000000000000000000000000000000000000000000815260040160405180910390fd5b600073ffffffffffffffffffffffffffffffffffffffff7f00000000000000000000000000000000000000000000000000000000000000001663a249d42589896136a76136a2368c90038c018c6148ef565b614127565b896040518563ffffffff1660e01b81526004016136c794939291906151b6565b61012060405180830381600087803b1580156136e257600080fd5b505af11580156136f6573d6000803e3d6000fd5b505050506040513d601f19601f8201168201806040525081019061371a9190614a32565b905060005b845181101561383157600085828151811061373c5761373c61580f565b60200260200101516020015151111561381f577f000000000000000000000000000000000000000000000000000000000000000073ffffffffffffffffffffffffffffffffffffffff16639acff5ac8a84602001518885815181106137a3576137a361580f565b6020026020010151600001518986815181106137c1576137c161580f565b6020026020010151602001516040518563ffffffff1660e01b81526004016137ec94939291906152f4565b600060405180830381600087803b15801561380657600080fd5b505af115801561381a573d6000803e3d6000fd5b505050505b806138298161573f565b91505061371f565b5060005b8351811015613add5760008482815181106138525761385261580f565b602002602001015190507effffffffffffffffffffffffffffffffffffffffffffffffffffffffffffff8016816020015111156138bb576040517fa9b8fbcf00000000000000000000000000000000000000000000000000000000815260040160405180910390fd5b604081015160ff10156138fa576040517f9583faed00000000000000000000000000000000000000000000000000000000815260040160405180910390fd5b60608101517effffffffffffffffffffffffffffffffffffffffffffffffffffffffffffff1015613957576040517f5730278300000000000000000000000000000000000000000000000000000000815260040160405180910390fd5b608081015160ff1015613996576040517fd9b93c2500000000000000000000000000000000000000000000000000000000815260040160405180910390fd5b6020810151156139ef5760408181015160208084015160008e8152600183528481208884015182528352848120865173ffffffffffffffffffffffffffffffffffffffff16825290925292902060f89190911b90911790555b606081015115613a48576080810151606082015160008c81526002602090815260408083208883015184528252808320865173ffffffffffffffffffffffffffffffffffffffff168452909152902060f89290921b1790555b825160208085015160408051855173ffffffffffffffffffffffffffffffffffffffff1681528584015193810193909352808501519083015260608085015190830152608080850151908301523360a08301528c92917e506dbcdf2e70275bf246b8f39ca18ebea55b7253498928a3de5c5bae26bd849060c00160405180910390a45080613ad58161573f565b915050613835565b5060200151979650505050505050565b600080807fffffffffffffffffffffffffffffffffffffffffffffffffffffffffffffffff8587098587029250828110838203039150508060001415613b4657838281613b3c57613b3c6157e0565b04925050506130f4565b838110613b8d576040517f773cc18c000000000000000000000000000000000000000000000000000000008152600481018290526024810185905260440160405180910390fd5b60008486880960026001871981018816978890046003810283188082028403028082028403028082028403028082028403028082028403029081029092039091026000889003889004909101858311909403939093029303949094049190911702949350505050565b6000806000851215613c1a57613c0b85615778565b613c159084615528565b613c24565b613c2485846155b4565b905080613c355760009150506130f4565b612710841415613c465790506130f4565b80613c5d81612710613c5888826155b4565b613aed565b612d0091906155b4565b60208201516040517f69e11cc50000000000000000000000000000000000000000000000000000000081526004810185905260248101919091526002604482015281906000907f000000000000000000000000000000000000000000000000000000000000000073ffffffffffffffffffffffffffffffffffffffff16906369e11cc59060640160006040518083038186803b158015613d0657600080fd5b505afa158015613d1a573d6000803e3d6000fd5b505050506040513d6000823e601f3d9081017fffffffffffffffffffffffffffffffffffffffffffffffffffffffffffffffe0168201604052613d6091908101906147ba565b905060005b815181101561411e576000828281518110613d8257613d8261580f565b602002602001015190506000613da1868360200151633b9aca00613aed565b905080156140c35760a082015173ffffffffffffffffffffffffffffffffffffffff7f000000000000000000000000000000000000000000000000000000000000000081169163ceddd3e49116613ef3576040840151613e2a57606084015173ffffffffffffffffffffffffffffffffffffffff16613e205733613ef9565b8360600151613ef9565b60408481015190517f6352211e00000000000000000000000000000000000000000000000000000000815260048101919091527f000000000000000000000000000000000000000000000000000000000000000073ffffffffffffffffffffffffffffffffffffffff1690636352211e9060240160206040518083038186803b158015613eb657600080fd5b505afa158015613eca573d6000803e3d6000fd5b505050506040513d601f19601f82011682018060405250810190613eee91906145f7565b613ef9565b8360a001515b845160405160e084901b7fffffffff0000000000000000000000000000000000000000000000000000000016815273ffffffffffffffffffffffffffffffffffffffff9092166004830152602482018c90526044820185905215156064820152608401600060405180830381600087803b158015613f7657600080fd5b505af1158015613f8a573d6000803e3d6000fd5b5050505060a082015173ffffffffffffffffffffffffffffffffffffffff16156140b65760a080830151604080518084018252848152601260208083019182528284018e81526002606080860191825260808087018c815288517fe7cd77f20000000000000000000000000000000000000000000000000000000081529751600489015295516024880152925160448701529051606486015292518051151560848601529182015160a48501529381015160c48401529081015173ffffffffffffffffffffffffffffffffffffffff90811660e484015292810151610104830152909301518116610124840152169063e7cd77f29061014401600060405180830381600087803b15801561409d57600080fd5b505af11580156140b1573d6000803e3d6000fd5b505050505b6140c081866155b4565b94505b87876000015188602001517f08b272f627530027641b54430e5e88cf4de5feb60e3df46d714a426e3cabb99f85853360405161410193929190615059565b60405180910390a4505080806141169061573f565b915050613d65565b50509392505050565b8051602082015160089190911b60011790601890614147906127106155b4565b901b811790506028826040015161271061416191906155b4565b901b8117905081606001511561417c57670100000000000000175b81608001511561419157670200000000000000175b8160a00151156141a657670400000000000000175b8160c00151156141bb57670800000000000000175b8160e00151156141d057671000000000000000175b816101000151156141e657672000000000000000175b816101200151156141fc57674000000000000000175b8161014001511561421257678000000000000000175b816101600151156142295768010000000000000000175b816101800151156142405768020000000000000000175b816101a00151156142575768040000000000000000175b816101c001511561426e5768080000000000000000175b816101e00151156142855768100000000000000000175b8161020001511561429c5768200000000000000000175b610220919091015160461b7c3fffffffffffffffffffffffffffffffffffffffc00000000000000000161790565b80356142d58161586d565b919050565b600082601f8301126142eb57600080fd5b813560206143006142fb83615490565b615441565b80838252828201915082860187848660051b890101111561432057600080fd5b60005b858110156143485781356143368161586d565b84529284019290840190600101614323565b5090979650505050505050565b60008083601f84011261436757600080fd5b50813567ffffffffffffffff81111561437f57600080fd5b60208301915083602060a08302850101111561439a57600080fd5b9250929050565b600082601f8301126143b257600080fd5b813560206143c26142fb83615490565b8281528181019085830160a0808602880185018910156143e157600080fd5b60005b86811015614408576143f68a84614541565b855293850193918101916001016143e4565b509198975050505050505050565b60008083601f84011261442857600080fd5b50813567ffffffffffffffff81111561444057600080fd5b6020830191508360208260051b850101111561439a57600080fd5b80356142d581615892565b80516142d58161586d565b60008083601f84011261448357600080fd5b50813567ffffffffffffffff81111561449b57600080fd5b60208301915083602082850101111561439a57600080fd5b600082601f8301126144c457600080fd5b813567ffffffffffffffff8111156144de576144de61583e565b61450f60207fffffffffffffffffffffffffffffffffffffffffffffffffffffffffffffffe0601f84011601615441565b81815284602083860101111561452457600080fd5b816020850160208301376000918101602001919091529392505050565b600060a0828403121561455357600080fd5b60405160a0810181811067ffffffffffffffff821117156145765761457661583e565b60405290508082356145878161586d565b80825250602083013560208201526040830135604082015260608301356060820152608083013560808201525092915050565b6000608082840312156145cc57600080fd5b50919050565b600061024082840312156145cc57600080fd5b6000604082840312156145cc57600080fd5b60006020828403121561460957600080fd5b81516130f48161586d565b60008060008060008060008060008060006103a08c8e03121561463657600080fd5b61463f8c6142ca565b9a5067ffffffffffffffff8060208e0135111561465b57600080fd5b61466b8e60208f01358f016145e5565b9a5061467a8e60408f016145ba565b99506146898e60c08f016145d2565b98506103008d01359750806103208e013511156146a557600080fd5b6146b68e6103208f01358f01614416565b90975095506103408d01358110156146cd57600080fd5b6146de8e6103408f01358f01614355565b90955093506103608d01358110156146f557600080fd5b6147068e6103608f01358f016142da565b9250806103808e0135111561471a57600080fd5b5061472c8d6103808e01358e016144b3565b90509295989b509295989b9093969950565b60008060008060008060a0878903121561475757600080fd5b86356147628161586d565b95506020870135945060408701359350606087013567ffffffffffffffff81111561478c57600080fd5b61479889828a01614471565b90945092505060808701356147ac81615892565b809150509295509295509295565b600060208083850312156147cd57600080fd5b825167ffffffffffffffff8111156147e457600080fd5b8301601f810185136147f557600080fd5b80516148036142fb82615490565b8181528381019083850160c0808502860187018a101561482257600080fd5b60009550855b858110156148a75781838c03121561483e578687fd5b6148466153ad565b835161485181615892565b81528389015189820152604080850151908201526060808501516148748161586d565b908201526080848101519082015260a0808501516148918161586d565b9082015285529387019391810191600101614828565b50919998505050505050505050565b6000602082840312156148c857600080fd5b81516130f481615892565b600060a082840312156148e557600080fd5b6130f48383614541565b6000610240828403121561490257600080fd5b61490a6153d6565b82358152602083013560208201526040830135604082015261492e6060840161445b565b606082015261493f6080840161445b565b608082015261495060a0840161445b565b60a082015261496160c0840161445b565b60c082015261497260e0840161445b565b60e082015261010061498581850161445b565b9082015261012061499784820161445b565b908201526101406149a984820161445b565b908201526101606149bb84820161445b565b908201526101806149cd84820161445b565b908201526101a06149df84820161445b565b908201526101c06149f184820161445b565b908201526101e0614a0384820161445b565b90820152610200614a1584820161445b565b90820152610220614a278482016142ca565b908201529392505050565b60006101208284031215614a4557600080fd5b614a4d6153fa565b825181526020830151602082015260408301516040820152606083015160608201526080830151608082015260a083015160a082015260c083015160c0820152614a9960e08401614466565b60e0820152610100928301519281019290925250919050565b600060208284031215614ac457600080fd5b5051919050565b60008060408385031215614ade57600080fd5b823591506020830135614af08161586d565b809150509250929050565b600080600060608486031215614b1057600080fd5b833592506020840135614b228161586d565b91506040840135614b328161586d565b809150509250925092565b600080600060408486031215614b5257600080fd5b83359250602084013567ffffffffffffffff811115614b7057600080fd5b614b7c86828701614471565b9497909650939450505050565b600080600080600060608688031215614ba157600080fd5b85359450602086013567ffffffffffffffff80821115614bc057600080fd5b614bcc89838a01614471565b90965094506040880135915080821115614be557600080fd5b50614bf288828901614471565b969995985093965092949392505050565b6000806000806000806000806000806103608b8d031215614c2357600080fd5b8a359950614c348c60208d016145ba565b9850614c438c60a08d016145d2565b97506102e08b013596506103008b013567ffffffffffffffff80821115614c6957600080fd5b614c758e838f01614416565b90985096506103208d0135915080821115614c8f57600080fd5b614c9b8e838f01614355565b90965094506103408d0135915080821115614cb557600080fd5b50614cc28d828e01614471565b915080935050809150509295989b9194979a5092959850565b60008060008060008060008060006103808a8c031215614cfa57600080fd5b89359850614d0b8b60208c016145ba565b9750614d1a8b60a08c016145d2565b96506102e08a013595506103008a013567ffffffffffffffff80821115614d4057600080fd5b614d4c8d838e01614416565b90975095506103208c0135915080821115614d6657600080fd5b614d728d838e016143a1565b94506103408c0135915080821115614d8957600080fd5b614d958d838e016142da565b93506103608c0135915080821115614dac57600080fd5b50614db98c828d016144b3565b9150509295985092959850929598565b60008060408385031215614ddc57600080fd5b50508035926020909101359150565b600080600080600080600060c0888a031215614e0657600080fd5b87359650602088013595506040880135614e1f8161586d565b9450606088013567ffffffffffffffff811115614e3b57600080fd5b614e478a828b01614471565b9095509350506080880135614e5b81615892565b915060a0880135614e6b81615892565b8091505092959891949750929550565b600080600060608486031215614e9057600080fd5b83359250602084013591506040840135614b328161586d565b8183528181602085013750600060208284010152600060207fffffffffffffffffffffffffffffffffffffffffffffffffffffffffffffffe0601f840116840101905092915050565b6000815180845260005b81811015614f1857602081850181015186830182015201614efc565b81811115614f2a576000602083870101525b50601f017fffffffffffffffffffffffffffffffffffffffffffffffffffffffffffffffe0169290920160200192915050565b73ffffffffffffffffffffffffffffffffffffffff8316815260406020820152600082357fffffffffffffffffffffffffffffffffffffffffffffffffffffffffffffffe1843603018112614fb157600080fd5b8301803567ffffffffffffffff811115614fca57600080fd5b803603851315614fd957600080fd5b604080850152614ff0608085018260208501614ea9565b91505060208401356060840152809150509392505050565b600073ffffffffffffffffffffffffffffffffffffffff808816835286602084015285604084015260a0606084015261504460a0840186614ef2565b91508084166080840152509695505050505050565b61010081016150bb82868051151582526020810151602083015260408101516040830152606081015173ffffffffffffffffffffffffffffffffffffffff8082166060850152608083015160808501528060a08401511660a085015250505050565b8360c083015273ffffffffffffffffffffffffffffffffffffffff831660e0830152949350505050565b6000604082018483526020604081850152818551808452606086019150828701935060005b8181101561434857845173ffffffffffffffffffffffffffffffffffffffff168352938301939183019160010161510a565b848152606060208201526000615156606083018587614ea9565b905073ffffffffffffffffffffffffffffffffffffffff8316604083015295945050505050565b858152606060208201526000615197606083018688614ea9565b82810360408401526151aa818587614ea9565b98975050505050505050565b600060e08201905085825284356020830152602085013560408301526040850135606083015260608501356151ea8161586d565b73ffffffffffffffffffffffffffffffffffffffff16608083015260a082019390935260c0015292915050565b858152846020820152608060408201526000615237608083018587614ea9565b905073ffffffffffffffffffffffffffffffffffffffff831660608301529695505050505050565b86815285602082015260a06040820152600061527f60a083018688614ea9565b905083606083015273ffffffffffffffffffffffffffffffffffffffff83166080830152979650505050505050565b8481528360208201526080604082015260006152cd6080830185614ef2565b905073ffffffffffffffffffffffffffffffffffffffff8316606083015295945050505050565b600060808201868352602086818501528560408501526080606085015281855180845260a086019150828701935060005b8181101561539e5761538b8386518051151582526020810151602083015260408101516040830152606081015173ffffffffffffffffffffffffffffffffffffffff8082166060850152608083015160808501528060a08401511660a085015250505050565b9383019360c09290920191600101615325565b50909998505050505050505050565b60405160c0810167ffffffffffffffff811182821017156153d0576153d061583e565b60405290565b604051610240810167ffffffffffffffff811182821017156153d0576153d061583e565b604051610120810167ffffffffffffffff811182821017156153d0576153d061583e565b6040805190810167ffffffffffffffff811182821017156153d0576153d061583e565b604051601f82017fffffffffffffffffffffffffffffffffffffffffffffffffffffffffffffffe016810167ffffffffffffffff811182821017156154885761548861583e565b604052919050565b600067ffffffffffffffff8211156154aa576154aa61583e565b5060051b60200190565b6000808212827f7fffffffffffffffffffffffffffffffffffffffffffffffffffffffffffffff038413811516156154ee576154ee6157b1565b827f8000000000000000000000000000000000000000000000000000000000000000038412811615615522576155226157b1565b50500190565b6000821982111561553b5761553b6157b1565b500190565b6000808312837f80000000000000000000000000000000000000000000000000000000000000000183128115161561557a5761557a6157b1565b837f7fffffffffffffffffffffffffffffffffffffffffffffffffffffffffffffff0183138116156155ae576155ae6157b1565b50500390565b6000828210156155c6576155c66157b1565b500390565b60006155d96142fb84615490565b808482526020808301925084368760051b870111156155f757600080fd5b60005b8781101561573357813567ffffffffffffffff8082111561561a57600080fd5b8189019150604080833603121561563057600080fd5b61563861541e565b83358152868401358381111561564d57600080fd5b939093019236601f85011261566157600080fd5b833592506156716142fb84615490565b8381528781019085890160c03681880289018c01111561569057600080fd5b600097505b86881015615717578082360312156156ac57600080fd5b6156b46153ad565b82356156bf81615892565b8152828c01358c82015286830135878201526060808401356156e08161586d565b908201526080838101359082015260a0808401356156fd8161586d565b90820152845260019790970196928a019290810190615695565b50508289015250885250505093820193908201906001016155fa565b50919695505050505050565b60007fffffffffffffffffffffffffffffffffffffffffffffffffffffffffffffffff821415615771576157716157b1565b5060010190565b60007f80000000000000000000000000000000000000000000000000000000000000008214156157aa576157aa6157b1565b5060000390565b7f4e487b7100000000000000000000000000000000000000000000000000000000600052601160045260246000fd5b7f4e487b7100000000000000000000000000000000000000000000000000000000600052601260045260246000fd5b7f4e487b7100000000000000000000000000000000000000000000000000000000600052603260045260246000fd5b7f4e487b7100000000000000000000000000000000000000000000000000000000600052604160045260246000fd5b73ffffffffffffffffffffffffffffffffffffffff8116811461588f57600080fd5b50565b801515811461588f57600080fdfea26469706673582212207842a2068ef9efbd194b2dd21ccd95d06235a39fd5624be8fedd5784ec92e9a564736f6c63430008060033",
  "devdoc": {
    "details": "Adheres to: IJBController - general interface for the generic controller methods in this contract that interacts with funding cycles and tokens according to the protocol's rules.Inherits from: JBOperatable - several functions in this contract can only be accessed by a project owner, or an address that has been preconfifigured to be an operator of the project. ReentrencyGuard - several function in this contract shouldn't be accessible recursively.",
    "kind": "dev",
    "methods": {
      "burnTokensOf(address,uint256,uint256,string,bool)": {
        "details": "Only a token's holder, a designated operator, or a project's terminal can burn it.",
        "params": {
          "_holder": "The account that is having its tokens burned.",
          "_memo": "A memo to pass along to the emitted event.",
          "_preferClaimedTokens": "A flag indicating whether a project's attached token contract should be burned first if they have been issued.",
          "_projectId": "The ID of the project to which the tokens being burned belong.",
          "_tokenCount": "The number of tokens to burn."
        }
      },
      "changeTokenOf(uint256,address,address)": {
        "details": "Only a project's owner or operator can change its token.",
        "params": {
          "_newOwner": "An address to transfer the current token's ownership to. This is optional, but it cannot be done later.",
          "_projectId": "The ID of the project to which the changed token belongs.",
          "_token": "The new token."
        }
      },
      "constructor": {
        "params": {
          "_directory": "A contract storing directories of terminals and controllers for each project.",
          "_fundingCycleStore": "A contract storing all funding cycle configurations.",
          "_operatorStore": "A contract storing operator assignments.",
          "_projects": "A contract which mints ERC-721's that represent project ownership and transfers.",
          "_splitsStore": "A contract that stores splits for each project.",
          "_tokenStore": "A contract that manages token minting and burning."
        }
      },
      "distributeReservedTokensOf(uint256,string)": {
        "params": {
          "_memo": "A memo to pass along to the emitted event.",
          "_projectId": "The ID of the project to which the reserved tokens belong."
        },
        "returns": {
          "_0": "The amount of minted reserved tokens."
        }
      },
      "distributionLimitOf(uint256,uint256,address)": {
        "details": "The number of decimals in the returned fixed point amount is the same as that of the specified terminal. ",
        "params": {
          "_configuration": "The configuration during which the distribution limit applies.",
          "_projectId": "The ID of the project to get the distribution limit of.",
          "_terminal": "The terminal from which distributions are being limited."
        },
        "returns": {
          "_0": "The distribution limit, as a fixed point number with the same number of decimals as the provided terminal.",
          "_1": "The currency of the distribution limit."
        }
      },
      "issueTokenFor(uint256,string,string)": {
        "details": "Deploys a project's ERC20 JBToken contract.Only a project's owner or operator can issue its token.",
        "params": {
          "_name": "The ERC20's name.",
          "_projectId": "The ID of the project being issued tokens.",
          "_symbol": "The ERC20's symbol."
        }
      },
      "launchFundingCyclesFor(uint256,(uint256,uint256,uint256,address),(uint256,uint256,uint256,bool,bool,bool,bool,bool,bool,bool,bool,bool,bool,bool,bool,bool,bool,address),uint256,(uint256,(bool,uint256,uint256,address,uint256,address)[])[],(address,uint256,uint256,uint256,uint256)[],address[],string)": {
        "details": "Each operation within this transaction can be done in sequence separately.Only a project owner or operator can launch its funding cycles.",
        "params": {
          "_data": "Data that defines the project's first funding cycle. These properties will remain fixed for the duration of the funding cycle.",
          "_fundAccessConstraints": "An array containing amounts that a project can use from its treasury for each payment terminal. Amounts are fixed point numbers using the same number of decimals as the accompanying terminal.",
          "_groupedSplits": "An array of splits to set for any number of groups. ",
          "_memo": "A memo to pass along to the emitted event.",
          "_metadata": "Metadata specifying the controller specific params that a funding cycle can have. These properties will remain fixed for the duration of the funding cycle.",
          "_mustStartAtOrAfter": "The time before which the configured funding cycle cannot start.",
          "_projectId": "The ID of the project to launch funding cycles for.",
          "_terminals": "Payment terminals to add for the project."
        },
        "returns": {
          "configuration": "The configuration of the funding cycle that was successfully created."
        }
      },
      "launchProjectFor(address,(string,uint256),(uint256,uint256,uint256,address),(uint256,uint256,uint256,bool,bool,bool,bool,bool,bool,bool,bool,bool,bool,bool,bool,bool,bool,address),uint256,(uint256,(bool,uint256,uint256,address,uint256,address)[])[],(address,uint256,uint256,uint256,uint256)[],address[],string)": {
        "details": "Each operation within this transaction can be done in sequence separately.Anyone can deploy a project on an owner's behalf.",
        "params": {
          "_data": "Data that defines the project's first funding cycle. These properties will remain fixed for the duration of the funding cycle.",
          "_fundAccessConstraints": "An array containing amounts that a project can use from its treasury for each payment terminal. Amounts are fixed point numbers using the same number of decimals as the accompanying terminal.",
          "_groupedSplits": "An array of splits to set for any number of groups. ",
          "_memo": "A memo to pass along to the emitted event.",
          "_metadata": "Metadata specifying the controller specific params that a funding cycle can have. These properties will remain fixed for the duration of the funding cycle.",
          "_mustStartAtOrAfter": "The time before which the configured funding cycle cannot start.",
          "_owner": "The address to set as the owner of the project. The project ERC-721 will be owned by this address.",
          "_projectMetadata": "Metadata to associate with the project within a particular domain. This can be updated any time by the owner of the project.",
          "_terminals": "Payment terminals to add for the project."
        },
        "returns": {
          "projectId": "The ID of the project."
        }
      },
      "migrate(uint256,address)": {
        "details": "Only a project's owner or a designated operator can migrate it.",
        "params": {
          "_projectId": "The ID of the project that will be migrated from this controller.",
          "_to": "The controller to which the project is migrating."
        }
      },
      "mintTokensOf(uint256,uint256,address,string,bool,bool)": {
        "details": "Only a project's owner, a designated operator, or one of its terminals can mint its tokens.",
        "params": {
          "_beneficiary": "The account that the tokens are being minted for.",
          "_memo": "A memo to pass along to the emitted event.",
          "_preferClaimedTokens": "A flag indicating whether a project's attached token contract should be minted if they have been issued.",
          "_projectId": "The ID of the project to which the tokens being minted belong.",
          "_tokenCount": "The amount of tokens to mint in total, counting however many should be reserved.",
          "_useReservedRate": "Whether to use the current funding cycle's reserved rate in the mint calculation."
        },
        "returns": {
          "beneficiaryTokenCount": "The amount of tokens minted for the beneficiary."
        }
      },
      "overflowAllowanceOf(uint256,uint256,address)": {
        "details": "The number of decimals in the returned fixed point amount is the same as that of the specified terminal. ",
        "params": {
          "_configuration": "The configuration of the during which the allowance applies.",
          "_projectId": "The ID of the project to get the overflow allowance of.",
          "_terminal": "The terminal managing the overflow."
        },
        "returns": {
          "_0": "The overflow allowance, as a fixed point number with the same number of decimals as the provided terminal.",
          "_1": "The currency of the overflow allowance."
        }
      },
      "prepForMigrationOf(uint256,address)": {
        "details": "This controller should not yet be the project's controller.",
        "params": {
          "_from": "The controller being migrated from.",
          "_projectId": "The ID of the project that will be migrated to this controller."
        }
      },
      "reconfigureFundingCyclesOf(uint256,(uint256,uint256,uint256,address),(uint256,uint256,uint256,bool,bool,bool,bool,bool,bool,bool,bool,bool,bool,bool,bool,bool,bool,address),uint256,(uint256,(bool,uint256,uint256,address,uint256,address)[])[],(address,uint256,uint256,uint256,uint256)[],string)": {
        "details": "Only a project's owner or a designated operator can configure its funding cycles.",
        "params": {
          "_data": "Data that defines the funding cycle. These properties will remain fixed for the duration of the funding cycle.",
          "_fundAccessConstraints": "An array containing amounts that a project can use from its treasury for each payment terminal. Amounts are fixed point numbers using the same number of decimals as the accompanying terminal.",
          "_groupedSplits": "An array of splits to set for any number of groups. ",
          "_memo": "A memo to pass along to the emitted event.",
          "_metadata": "Metadata specifying the controller specific params that a funding cycle can have. These properties will remain fixed for the duration of the funding cycle.",
          "_mustStartAtOrAfter": "The time before which the configured funding cycle cannot start.",
          "_projectId": "The ID of the project whose funding cycles are being reconfigured."
        },
        "returns": {
          "configuration": "The configuration of the funding cycle that was successfully reconfigured."
        }
      },
      "reservedTokenBalanceOf(uint256,uint256)": {
        "params": {
          "_projectId": "The ID of the project to get a reserved token balance of.",
          "_reservedRate": "The reserved rate to use when making the calculation."
        },
        "returns": {
          "_0": "The current amount of reserved tokens."
        }
      },
      "totalOutstandingTokensOf(uint256,uint256)": {
        "params": {
          "_projectId": "The ID of the project to get total outstanding tokens of.",
          "_reservedRate": "The reserved rate to use when making the calculation."
        },
        "returns": {
          "_0": "The current total amount of outstanding tokens for the project."
        }
      }
    },
    "stateVariables": {
      "_packedDistributionLimitDataOf": {
        "details": "bits 0-247: The amount of token that a project can distribute per funding cycle.bits 248-255: The currency of amount that a project can distribute. _projectId The ID of the project to get the packed distribution limit data of. _configuration The configuration during which the packed distribution limit data applies. _terminal The terminal from which distributions are being limited."
      },
      "_packedOverflowAllowanceDataOf": {
        "details": "bits 0-247: The amount of overflow that a project is allowed to tap into on-demand throughout the configuration.bits 248-255: The currency of the amount of overflow that a project is allowed to tap. _projectId The ID of the project to get the packed overflow allowance data of. _configuration The configuration during which the packed overflow allowance data applies. _terminal The terminal managing the overflow."
      }
    },
    "version": 1
  },
  "userdoc": {
    "errors": {
      "PRBMath__MulDivOverflow(uint256,uint256)": [
        {
          "notice": "Emitted when the result overflows uint256."
        }
      ]
    },
    "kind": "user",
    "methods": {
      "burnTokensOf(address,uint256,uint256,string,bool)": {
        "notice": "Burns a token holder's supply."
      },
      "changeTokenOf(uint256,address,address)": {
        "notice": "Swap the current project's token that is minted and burned for another, and transfer ownership of the current token to another address if needed."
      },
      "directory()": {
        "notice": "The directory of terminals and controllers for projects."
      },
      "distributeReservedTokensOf(uint256,string)": {
        "notice": "Distributes all outstanding reserved tokens for a project."
      },
      "distributionLimitOf(uint256,uint256,address)": {
        "notice": "The amount of token that a project can distribute per funding cycle, and the currency it's in terms of."
      },
      "fundingCycleStore()": {
        "notice": "The contract storing all funding cycle configurations."
      },
      "issueTokenFor(uint256,string,string)": {
        "notice": "Issues an owner's ERC20 JBTokens that'll be used when claiming tokens."
      },
      "launchFundingCyclesFor(uint256,(uint256,uint256,uint256,address),(uint256,uint256,uint256,bool,bool,bool,bool,bool,bool,bool,bool,bool,bool,bool,bool,bool,bool,address),uint256,(uint256,(bool,uint256,uint256,address,uint256,address)[])[],(address,uint256,uint256,uint256,uint256)[],address[],string)": {
        "notice": "Creates a funding cycle for an already existing project ERC-721."
      },
      "launchProjectFor(address,(string,uint256),(uint256,uint256,uint256,address),(uint256,uint256,uint256,bool,bool,bool,bool,bool,bool,bool,bool,bool,bool,bool,bool,bool,bool,address),uint256,(uint256,(bool,uint256,uint256,address,uint256,address)[])[],(address,uint256,uint256,uint256,uint256)[],address[],string)": {
        "notice": "Creates a project. This will mint an ERC-721 into the specified owner's account, configure a first funding cycle, and set up any splits."
      },
      "migrate(uint256,address)": {
        "notice": "Allows a project to migrate from this controller to another."
      },
      "mintTokensOf(uint256,uint256,address,string,bool,bool)": {
        "notice": "Mint new token supply into an account, and optionally reserve a supply to be distributed according to the project's current funding cycle configuration."
      },
      "operatorStore()": {
        "notice": " A contract storing operator assignments."
      },
      "overflowAllowanceOf(uint256,uint256,address)": {
        "notice": "The amount of overflow that a project is allowed to tap into on-demand throughout a configuration, and the currency it's in terms of."
      },
      "prepForMigrationOf(uint256,address)": {
        "notice": "Allows other controllers to signal to this one that a migration is expected for the specified project."
      },
      "projects()": {
        "notice": "The Projects contract which mints ERC-721's that represent project ownership."
      },
      "reconfigureFundingCyclesOf(uint256,(uint256,uint256,uint256,address),(uint256,uint256,uint256,bool,bool,bool,bool,bool,bool,bool,bool,bool,bool,bool,bool,bool,bool,address),uint256,(uint256,(bool,uint256,uint256,address,uint256,address)[])[],(address,uint256,uint256,uint256,uint256)[],string)": {
        "notice": "Proposes a configuration of a subsequent funding cycle that will take effect once the current one expires if it is approved by the current funding cycle's ballot."
      },
      "reservedTokenBalanceOf(uint256,uint256)": {
        "notice": "Gets the amount of reserved tokens that a project has available to distribute."
      },
      "splitsStore()": {
        "notice": "The contract that stores splits for each project."
      },
      "tokenStore()": {
        "notice": "The contract that manages token minting and burning."
      },
      "totalOutstandingTokensOf(uint256,uint256)": {
        "notice": "Gets the current total amount of outstanding tokens for a project, given a reserved rate."
      }
    },
    "notice": "Stitches together funding cycles and community tokens, making sure all activity is accounted for and correct.",
    "version": 1
  },
  "storageLayout": {
    "storage": [
      {
        "astId": 4599,
        "contract": "contracts/JBController.sol:JBController",
        "label": "_processedTokenTrackerOf",
        "offset": 0,
        "slot": "0",
        "type": "t_mapping(t_uint256,t_int256)"
      },
      {
        "astId": 4609,
        "contract": "contracts/JBController.sol:JBController",
        "label": "_packedDistributionLimitDataOf",
        "offset": 0,
        "slot": "1",
        "type": "t_mapping(t_uint256,t_mapping(t_uint256,t_mapping(t_contract(IJBPaymentTerminal)15193,t_uint256)))"
      },
      {
        "astId": 4619,
        "contract": "contracts/JBController.sol:JBController",
        "label": "_packedOverflowAllowanceDataOf",
        "offset": 0,
        "slot": "2",
        "type": "t_mapping(t_uint256,t_mapping(t_uint256,t_mapping(t_contract(IJBPaymentTerminal)15193,t_uint256)))"
      }
    ],
    "types": {
      "t_contract(IJBPaymentTerminal)15193": {
        "encoding": "inplace",
        "label": "contract IJBPaymentTerminal",
        "numberOfBytes": "20"
      },
      "t_int256": {
        "encoding": "inplace",
        "label": "int256",
        "numberOfBytes": "32"
      },
      "t_mapping(t_contract(IJBPaymentTerminal)15193,t_uint256)": {
        "encoding": "mapping",
        "key": "t_contract(IJBPaymentTerminal)15193",
        "label": "mapping(contract IJBPaymentTerminal => uint256)",
        "numberOfBytes": "32",
        "value": "t_uint256"
      },
      "t_mapping(t_uint256,t_int256)": {
        "encoding": "mapping",
        "key": "t_uint256",
        "label": "mapping(uint256 => int256)",
        "numberOfBytes": "32",
        "value": "t_int256"
      },
      "t_mapping(t_uint256,t_mapping(t_contract(IJBPaymentTerminal)15193,t_uint256))": {
        "encoding": "mapping",
        "key": "t_uint256",
        "label": "mapping(uint256 => mapping(contract IJBPaymentTerminal => uint256))",
        "numberOfBytes": "32",
        "value": "t_mapping(t_contract(IJBPaymentTerminal)15193,t_uint256)"
      },
      "t_mapping(t_uint256,t_mapping(t_uint256,t_mapping(t_contract(IJBPaymentTerminal)15193,t_uint256)))": {
        "encoding": "mapping",
        "key": "t_uint256",
        "label": "mapping(uint256 => mapping(uint256 => mapping(contract IJBPaymentTerminal => uint256)))",
        "numberOfBytes": "32",
        "value": "t_mapping(t_uint256,t_mapping(t_contract(IJBPaymentTerminal)15193,t_uint256))"
      },
      "t_uint256": {
        "encoding": "inplace",
        "label": "uint256",
        "numberOfBytes": "32"
      }
    }
  }
}