{
  "address": "0xC4764344B3026540d14aF0626449f5C5313DC056",
  "abi": [
    {
      "inputs": [
        {
          "internalType": "contract IJBOperatorStore",
          "name": "_operatorStore",
          "type": "address"
        },
        {
          "internalType": "contract IJBProjects",
          "name": "_projects",
          "type": "address"
        },
        {
          "internalType": "contract IJBDirectory",
          "name": "_directory",
          "type": "address"
        },
        {
          "internalType": "contract IJBFundingCycleStore",
          "name": "_fundingCycleStore",
          "type": "address"
        },
        {
          "internalType": "contract IJBTokenStore",
          "name": "_tokenStore",
          "type": "address"
        },
        {
          "internalType": "contract IJBSplitsStore",
          "name": "_splitsStore",
          "type": "address"
        }
      ],
      "stateMutability": "nonpayable",
      "type": "constructor"
    },
    {
      "inputs": [],
      "name": "BURN_PAUSED_AND_SENDER_NOT_VALID_TERMINAL_DELEGATE",
      "type": "error"
    },
    {
      "inputs": [],
      "name": "CANT_MIGRATE_TO_CURRENT_CONTROLLER",
      "type": "error"
    },
    {
      "inputs": [],
      "name": "CHANGE_TOKEN_NOT_ALLOWED",
      "type": "error"
    },
    {
      "inputs": [],
      "name": "FUNDING_CYCLE_ALREADY_LAUNCHED",
      "type": "error"
    },
    {
      "inputs": [],
      "name": "INVALID_BALLOT_REDEMPTION_RATE",
      "type": "error"
    },
    {
      "inputs": [],
      "name": "INVALID_DISTRIBUTION_LIMIT",
      "type": "error"
    },
    {
      "inputs": [],
      "name": "INVALID_DISTRIBUTION_LIMIT_CURRENCY",
      "type": "error"
    },
    {
      "inputs": [],
      "name": "INVALID_OVERFLOW_ALLOWANCE",
      "type": "error"
    },
    {
      "inputs": [],
      "name": "INVALID_OVERFLOW_ALLOWANCE_CURRENCY",
      "type": "error"
    },
    {
      "inputs": [],
      "name": "INVALID_REDEMPTION_RATE",
      "type": "error"
    },
    {
      "inputs": [],
      "name": "INVALID_RESERVED_RATE",
      "type": "error"
    },
    {
      "inputs": [],
      "name": "MIGRATION_NOT_ALLOWED",
      "type": "error"
    },
    {
      "inputs": [],
      "name": "MINT_PAUSED_AND_NOT_TERMINAL_DELEGATE",
      "type": "error"
    },
    {
      "inputs": [],
      "name": "NOT_CURRENT_CONTROLLER",
      "type": "error"
    },
    {
      "inputs": [],
      "name": "NO_BURNABLE_TOKENS",
      "type": "error"
    },
    {
      "inputs": [
        {
          "internalType": "uint256",
          "name": "prod1",
          "type": "uint256"
        },
        {
          "internalType": "uint256",
          "name": "denominator",
          "type": "uint256"
        }
      ],
      "name": "PRBMath__MulDivOverflow",
      "type": "error"
    },
    {
      "inputs": [],
      "name": "UNAUTHORIZED",
      "type": "error"
    },
    {
      "inputs": [],
      "name": "ZERO_TOKENS_TO_MINT",
      "type": "error"
    },
    {
      "anonymous": false,
      "inputs": [
        {
          "indexed": true,
          "internalType": "address",
          "name": "holder",
          "type": "address"
        },
        {
          "indexed": true,
          "internalType": "uint256",
          "name": "projectId",
          "type": "uint256"
        },
        {
          "indexed": false,
          "internalType": "uint256",
          "name": "tokenCount",
          "type": "uint256"
        },
        {
          "indexed": false,
          "internalType": "string",
          "name": "memo",
          "type": "string"
        },
        {
          "indexed": false,
          "internalType": "address",
          "name": "caller",
          "type": "address"
        }
      ],
      "name": "BurnTokens",
      "type": "event"
    },
    {
      "anonymous": false,
      "inputs": [
        {
          "indexed": true,
          "internalType": "uint256",
          "name": "fundingCycleConfiguration",
          "type": "uint256"
        },
        {
          "indexed": true,
          "internalType": "uint256",
          "name": "fundingCycleNumber",
          "type": "uint256"
        },
        {
          "indexed": true,
          "internalType": "uint256",
          "name": "projectId",
          "type": "uint256"
        },
        {
          "indexed": false,
          "internalType": "address",
          "name": "beneficiary",
          "type": "address"
        },
        {
          "indexed": false,
          "internalType": "uint256",
          "name": "tokenCount",
          "type": "uint256"
        },
        {
          "indexed": false,
          "internalType": "uint256",
          "name": "beneficiaryTokenCount",
          "type": "uint256"
        },
        {
          "indexed": false,
          "internalType": "string",
          "name": "memo",
          "type": "string"
        },
        {
          "indexed": false,
          "internalType": "address",
          "name": "caller",
          "type": "address"
        }
      ],
      "name": "DistributeReservedTokens",
      "type": "event"
    },
    {
      "anonymous": false,
      "inputs": [
        {
          "indexed": true,
          "internalType": "uint256",
          "name": "fundingCycleConfiguration",
          "type": "uint256"
        },
        {
          "indexed": true,
          "internalType": "uint256",
          "name": "fundingCycleNumber",
          "type": "uint256"
        },
        {
          "indexed": true,
          "internalType": "uint256",
          "name": "projectId",
          "type": "uint256"
        },
        {
          "components": [
            {
              "internalType": "bool",
              "name": "preferClaimed",
              "type": "bool"
            },
            {
              "internalType": "uint256",
              "name": "percent",
              "type": "uint256"
            },
            {
              "internalType": "uint256",
              "name": "projectId",
              "type": "uint256"
            },
            {
              "internalType": "address payable",
              "name": "beneficiary",
              "type": "address"
            },
            {
              "internalType": "uint256",
              "name": "lockedUntil",
              "type": "uint256"
            },
            {
              "internalType": "contract IJBSplitAllocator",
              "name": "allocator",
              "type": "address"
            }
          ],
          "indexed": false,
          "internalType": "struct JBSplit",
          "name": "split",
          "type": "tuple"
        },
        {
          "indexed": false,
          "internalType": "uint256",
          "name": "tokenCount",
          "type": "uint256"
        },
        {
          "indexed": false,
          "internalType": "address",
          "name": "caller",
          "type": "address"
        }
      ],
      "name": "DistributeToReservedTokenSplit",
      "type": "event"
    },
    {
      "anonymous": false,
      "inputs": [
        {
          "indexed": false,
          "internalType": "uint256",
          "name": "configuration",
          "type": "uint256"
        },
        {
          "indexed": false,
          "internalType": "uint256",
          "name": "projectId",
          "type": "uint256"
        },
        {
          "indexed": false,
          "internalType": "string",
          "name": "memo",
          "type": "string"
        },
        {
          "indexed": false,
          "internalType": "address",
          "name": "caller",
          "type": "address"
        }
      ],
      "name": "LaunchFundingCycles",
      "type": "event"
    },
    {
      "anonymous": false,
      "inputs": [
        {
          "indexed": false,
          "internalType": "uint256",
          "name": "configuration",
          "type": "uint256"
        },
        {
          "indexed": false,
          "internalType": "uint256",
          "name": "projectId",
          "type": "uint256"
        },
        {
          "indexed": false,
          "internalType": "string",
          "name": "memo",
          "type": "string"
        },
        {
          "indexed": false,
          "internalType": "address",
          "name": "caller",
          "type": "address"
        }
      ],
      "name": "LaunchProject",
      "type": "event"
    },
    {
      "anonymous": false,
      "inputs": [
        {
          "indexed": true,
          "internalType": "uint256",
          "name": "projectId",
          "type": "uint256"
        },
        {
          "indexed": false,
          "internalType": "contract IJBController",
          "name": "to",
          "type": "address"
        },
        {
          "indexed": false,
          "internalType": "address",
          "name": "caller",
          "type": "address"
        }
      ],
      "name": "Migrate",
      "type": "event"
    },
    {
      "anonymous": false,
      "inputs": [
        {
          "indexed": true,
          "internalType": "address",
          "name": "beneficiary",
          "type": "address"
        },
        {
          "indexed": true,
          "internalType": "uint256",
          "name": "projectId",
          "type": "uint256"
        },
        {
          "indexed": false,
          "internalType": "uint256",
          "name": "tokenCount",
          "type": "uint256"
        },
        {
          "indexed": false,
          "internalType": "uint256",
          "name": "beneficiaryTokenCount",
          "type": "uint256"
        },
        {
          "indexed": false,
          "internalType": "string",
          "name": "memo",
          "type": "string"
        },
        {
          "indexed": false,
          "internalType": "uint256",
          "name": "reservedRate",
          "type": "uint256"
        },
        {
          "indexed": false,
          "internalType": "address",
          "name": "caller",
          "type": "address"
        }
      ],
      "name": "MintTokens",
      "type": "event"
    },
    {
      "anonymous": false,
      "inputs": [
        {
          "indexed": true,
          "internalType": "uint256",
          "name": "projectId",
          "type": "uint256"
        },
        {
          "indexed": false,
          "internalType": "contract IJBController",
          "name": "from",
          "type": "address"
        },
        {
          "indexed": false,
          "internalType": "address",
          "name": "caller",
          "type": "address"
        }
      ],
      "name": "PrepMigration",
      "type": "event"
    },
    {
      "anonymous": false,
      "inputs": [
        {
          "indexed": false,
          "internalType": "uint256",
          "name": "configuration",
          "type": "uint256"
        },
        {
          "indexed": false,
          "internalType": "uint256",
          "name": "projectId",
          "type": "uint256"
        },
        {
          "indexed": false,
          "internalType": "string",
          "name": "memo",
          "type": "string"
        },
        {
          "indexed": false,
          "internalType": "address",
          "name": "caller",
          "type": "address"
        }
      ],
      "name": "ReconfigureFundingCycles",
      "type": "event"
    },
    {
      "anonymous": false,
      "inputs": [
        {
          "indexed": true,
          "internalType": "uint256",
          "name": "fundingCycleConfiguration",
          "type": "uint256"
        },
        {
          "indexed": true,
          "internalType": "uint256",
          "name": "fundingCycleNumber",
          "type": "uint256"
        },
        {
          "indexed": true,
          "internalType": "uint256",
          "name": "projectId",
          "type": "uint256"
        },
        {
          "components": [
            {
              "internalType": "contract IJBPaymentTerminal",
              "name": "terminal",
              "type": "address"
            },
            {
              "internalType": "uint256",
              "name": "distributionLimit",
              "type": "uint256"
            },
            {
              "internalType": "uint256",
              "name": "distributionLimitCurrency",
              "type": "uint256"
            },
            {
              "internalType": "uint256",
              "name": "overflowAllowance",
              "type": "uint256"
            },
            {
              "internalType": "uint256",
              "name": "overflowAllowanceCurrency",
              "type": "uint256"
            }
          ],
          "indexed": false,
          "internalType": "struct JBFundAccessConstraints",
          "name": "constraints",
          "type": "tuple"
        },
        {
          "indexed": false,
          "internalType": "address",
          "name": "caller",
          "type": "address"
        }
      ],
      "name": "SetFundAccessConstraints",
      "type": "event"
    },
    {
      "inputs": [
        {
          "internalType": "address",
          "name": "_holder",
          "type": "address"
        },
        {
          "internalType": "uint256",
          "name": "_projectId",
          "type": "uint256"
        },
        {
          "internalType": "uint256",
          "name": "_tokenCount",
          "type": "uint256"
        },
        {
          "internalType": "string",
          "name": "_memo",
          "type": "string"
        },
        {
          "internalType": "bool",
          "name": "_preferClaimedTokens",
          "type": "bool"
        }
      ],
      "name": "burnTokensOf",
      "outputs": [],
      "stateMutability": "nonpayable",
      "type": "function"
    },
    {
      "inputs": [
        {
          "internalType": "uint256",
          "name": "_projectId",
          "type": "uint256"
        },
        {
          "internalType": "contract IJBToken",
          "name": "_token",
          "type": "address"
        },
        {
          "internalType": "address",
          "name": "_newOwner",
          "type": "address"
        }
      ],
      "name": "changeTokenOf",
      "outputs": [],
      "stateMutability": "nonpayable",
      "type": "function"
    },
    {
      "inputs": [],
      "name": "directory",
      "outputs": [
        {
          "internalType": "contract IJBDirectory",
          "name": "",
          "type": "address"
        }
      ],
      "stateMutability": "view",
      "type": "function"
    },
    {
      "inputs": [
        {
          "internalType": "uint256",
          "name": "_projectId",
          "type": "uint256"
        },
        {
          "internalType": "string",
          "name": "_memo",
          "type": "string"
        }
      ],
      "name": "distributeReservedTokensOf",
      "outputs": [
        {
          "internalType": "uint256",
          "name": "",
          "type": "uint256"
        }
      ],
      "stateMutability": "nonpayable",
      "type": "function"
    },
    {
      "inputs": [
        {
          "internalType": "uint256",
          "name": "_projectId",
          "type": "uint256"
        },
        {
          "internalType": "uint256",
          "name": "_configuration",
          "type": "uint256"
        },
        {
          "internalType": "contract IJBPaymentTerminal",
          "name": "_terminal",
          "type": "address"
        }
      ],
      "name": "distributionLimitOf",
      "outputs": [
        {
          "internalType": "uint256",
          "name": "",
          "type": "uint256"
        },
        {
          "internalType": "uint256",
          "name": "",
          "type": "uint256"
        }
      ],
      "stateMutability": "view",
      "type": "function"
    },
    {
      "inputs": [],
      "name": "fundingCycleStore",
      "outputs": [
        {
          "internalType": "contract IJBFundingCycleStore",
          "name": "",
          "type": "address"
        }
      ],
      "stateMutability": "view",
      "type": "function"
    },
    {
      "inputs": [
        {
          "internalType": "uint256",
          "name": "_projectId",
          "type": "uint256"
        },
        {
          "internalType": "string",
          "name": "_name",
          "type": "string"
        },
        {
          "internalType": "string",
          "name": "_symbol",
          "type": "string"
        }
      ],
      "name": "issueTokenFor",
      "outputs": [
        {
          "internalType": "contract IJBToken",
          "name": "token",
          "type": "address"
        }
      ],
      "stateMutability": "nonpayable",
      "type": "function"
    },
    {
      "inputs": [
        {
          "internalType": "uint256",
          "name": "_projectId",
          "type": "uint256"
        },
        {
          "components": [
            {
              "internalType": "uint256",
              "name": "duration",
              "type": "uint256"
            },
            {
              "internalType": "uint256",
              "name": "weight",
              "type": "uint256"
            },
            {
              "internalType": "uint256",
              "name": "discountRate",
              "type": "uint256"
            },
            {
              "internalType": "contract IJBFundingCycleBallot",
              "name": "ballot",
              "type": "address"
            }
          ],
          "internalType": "struct JBFundingCycleData",
          "name": "_data",
          "type": "tuple"
        },
        {
          "components": [
            {
              "internalType": "uint256",
              "name": "reservedRate",
              "type": "uint256"
            },
            {
              "internalType": "uint256",
              "name": "redemptionRate",
              "type": "uint256"
            },
            {
              "internalType": "uint256",
              "name": "ballotRedemptionRate",
              "type": "uint256"
            },
            {
              "internalType": "bool",
              "name": "pausePay",
              "type": "bool"
            },
            {
              "internalType": "bool",
              "name": "pauseDistributions",
              "type": "bool"
            },
            {
              "internalType": "bool",
              "name": "pauseRedeem",
              "type": "bool"
            },
            {
              "internalType": "bool",
              "name": "pauseMint",
              "type": "bool"
            },
            {
              "internalType": "bool",
              "name": "pauseBurn",
              "type": "bool"
            },
            {
              "internalType": "bool",
              "name": "allowChangeToken",
              "type": "bool"
            },
            {
              "internalType": "bool",
              "name": "allowTerminalMigration",
              "type": "bool"
            },
            {
              "internalType": "bool",
              "name": "allowControllerMigration",
              "type": "bool"
            },
            {
              "internalType": "bool",
              "name": "holdFees",
              "type": "bool"
            },
            {
              "internalType": "bool",
              "name": "useTotalOverflowForRedemptions",
              "type": "bool"
            },
            {
              "internalType": "bool",
              "name": "useDataSourceForPay",
              "type": "bool"
            },
            {
              "internalType": "bool",
              "name": "useDataSourceForRedeem",
              "type": "bool"
            },
            {
              "internalType": "contract IJBFundingCycleDataSource",
              "name": "dataSource",
              "type": "address"
            }
          ],
          "internalType": "struct JBFundingCycleMetadata",
          "name": "_metadata",
          "type": "tuple"
        },
        {
          "internalType": "uint256",
          "name": "_mustStartAtOrAfter",
          "type": "uint256"
        },
        {
          "components": [
            {
              "internalType": "uint256",
              "name": "group",
              "type": "uint256"
            },
            {
              "components": [
                {
                  "internalType": "bool",
                  "name": "preferClaimed",
                  "type": "bool"
                },
                {
                  "internalType": "uint256",
                  "name": "percent",
                  "type": "uint256"
                },
                {
                  "internalType": "uint256",
                  "name": "projectId",
                  "type": "uint256"
                },
                {
                  "internalType": "address payable",
                  "name": "beneficiary",
                  "type": "address"
                },
                {
                  "internalType": "uint256",
                  "name": "lockedUntil",
                  "type": "uint256"
                },
                {
                  "internalType": "contract IJBSplitAllocator",
                  "name": "allocator",
                  "type": "address"
                }
              ],
              "internalType": "struct JBSplit[]",
              "name": "splits",
              "type": "tuple[]"
            }
          ],
          "internalType": "struct JBGroupedSplits[]",
          "name": "_groupedSplits",
          "type": "tuple[]"
        },
        {
          "components": [
            {
              "internalType": "contract IJBPaymentTerminal",
              "name": "terminal",
              "type": "address"
            },
            {
              "internalType": "uint256",
              "name": "distributionLimit",
              "type": "uint256"
            },
            {
              "internalType": "uint256",
              "name": "distributionLimitCurrency",
              "type": "uint256"
            },
            {
              "internalType": "uint256",
              "name": "overflowAllowance",
              "type": "uint256"
            },
            {
              "internalType": "uint256",
              "name": "overflowAllowanceCurrency",
              "type": "uint256"
            }
          ],
          "internalType": "struct JBFundAccessConstraints[]",
          "name": "_fundAccessConstraints",
          "type": "tuple[]"
        },
        {
          "internalType": "contract IJBPaymentTerminal[]",
          "name": "_terminals",
          "type": "address[]"
        },
        {
          "internalType": "string",
          "name": "_memo",
          "type": "string"
        }
      ],
      "name": "launchFundingCyclesFor",
      "outputs": [
        {
          "internalType": "uint256",
          "name": "configuration",
          "type": "uint256"
        }
      ],
      "stateMutability": "nonpayable",
      "type": "function"
    },
    {
      "inputs": [
        {
          "internalType": "address",
          "name": "_owner",
          "type": "address"
        },
        {
          "components": [
            {
              "internalType": "string",
              "name": "content",
              "type": "string"
            },
            {
              "internalType": "uint256",
              "name": "domain",
              "type": "uint256"
            }
          ],
          "internalType": "struct JBProjectMetadata",
          "name": "_projectMetadata",
          "type": "tuple"
        },
        {
          "components": [
            {
              "internalType": "uint256",
              "name": "duration",
              "type": "uint256"
            },
            {
              "internalType": "uint256",
              "name": "weight",
              "type": "uint256"
            },
            {
              "internalType": "uint256",
              "name": "discountRate",
              "type": "uint256"
            },
            {
              "internalType": "contract IJBFundingCycleBallot",
              "name": "ballot",
              "type": "address"
            }
          ],
          "internalType": "struct JBFundingCycleData",
          "name": "_data",
          "type": "tuple"
        },
        {
          "components": [
            {
              "internalType": "uint256",
              "name": "reservedRate",
              "type": "uint256"
            },
            {
              "internalType": "uint256",
              "name": "redemptionRate",
              "type": "uint256"
            },
            {
              "internalType": "uint256",
              "name": "ballotRedemptionRate",
              "type": "uint256"
            },
            {
              "internalType": "bool",
              "name": "pausePay",
              "type": "bool"
            },
            {
              "internalType": "bool",
              "name": "pauseDistributions",
              "type": "bool"
            },
            {
              "internalType": "bool",
              "name": "pauseRedeem",
              "type": "bool"
            },
            {
              "internalType": "bool",
              "name": "pauseMint",
              "type": "bool"
            },
            {
              "internalType": "bool",
              "name": "pauseBurn",
              "type": "bool"
            },
            {
              "internalType": "bool",
              "name": "allowChangeToken",
              "type": "bool"
            },
            {
              "internalType": "bool",
              "name": "allowTerminalMigration",
              "type": "bool"
            },
            {
              "internalType": "bool",
              "name": "allowControllerMigration",
              "type": "bool"
            },
            {
              "internalType": "bool",
              "name": "holdFees",
              "type": "bool"
            },
            {
              "internalType": "bool",
              "name": "useTotalOverflowForRedemptions",
              "type": "bool"
            },
            {
              "internalType": "bool",
              "name": "useDataSourceForPay",
              "type": "bool"
            },
            {
              "internalType": "bool",
              "name": "useDataSourceForRedeem",
              "type": "bool"
            },
            {
              "internalType": "contract IJBFundingCycleDataSource",
              "name": "dataSource",
              "type": "address"
            }
          ],
          "internalType": "struct JBFundingCycleMetadata",
          "name": "_metadata",
          "type": "tuple"
        },
        {
          "internalType": "uint256",
          "name": "_mustStartAtOrAfter",
          "type": "uint256"
        },
        {
          "components": [
            {
              "internalType": "uint256",
              "name": "group",
              "type": "uint256"
            },
            {
              "components": [
                {
                  "internalType": "bool",
                  "name": "preferClaimed",
                  "type": "bool"
                },
                {
                  "internalType": "uint256",
                  "name": "percent",
                  "type": "uint256"
                },
                {
                  "internalType": "uint256",
                  "name": "projectId",
                  "type": "uint256"
                },
                {
                  "internalType": "address payable",
                  "name": "beneficiary",
                  "type": "address"
                },
                {
                  "internalType": "uint256",
                  "name": "lockedUntil",
                  "type": "uint256"
                },
                {
                  "internalType": "contract IJBSplitAllocator",
                  "name": "allocator",
                  "type": "address"
                }
              ],
              "internalType": "struct JBSplit[]",
              "name": "splits",
              "type": "tuple[]"
            }
          ],
          "internalType": "struct JBGroupedSplits[]",
          "name": "_groupedSplits",
          "type": "tuple[]"
        },
        {
          "components": [
            {
              "internalType": "contract IJBPaymentTerminal",
              "name": "terminal",
              "type": "address"
            },
            {
              "internalType": "uint256",
              "name": "distributionLimit",
              "type": "uint256"
            },
            {
              "internalType": "uint256",
              "name": "distributionLimitCurrency",
              "type": "uint256"
            },
            {
              "internalType": "uint256",
              "name": "overflowAllowance",
              "type": "uint256"
            },
            {
              "internalType": "uint256",
              "name": "overflowAllowanceCurrency",
              "type": "uint256"
            }
          ],
          "internalType": "struct JBFundAccessConstraints[]",
          "name": "_fundAccessConstraints",
          "type": "tuple[]"
        },
        {
          "internalType": "contract IJBPaymentTerminal[]",
          "name": "_terminals",
          "type": "address[]"
        },
        {
          "internalType": "string",
          "name": "_memo",
          "type": "string"
        }
      ],
      "name": "launchProjectFor",
      "outputs": [
        {
          "internalType": "uint256",
          "name": "projectId",
          "type": "uint256"
        }
      ],
      "stateMutability": "nonpayable",
      "type": "function"
    },
    {
      "inputs": [
        {
          "internalType": "uint256",
          "name": "_projectId",
          "type": "uint256"
        },
        {
          "internalType": "contract IJBController",
          "name": "_to",
          "type": "address"
        }
      ],
      "name": "migrate",
      "outputs": [],
      "stateMutability": "nonpayable",
      "type": "function"
    },
    {
      "inputs": [
        {
          "internalType": "uint256",
          "name": "_projectId",
          "type": "uint256"
        },
        {
          "internalType": "uint256",
          "name": "_tokenCount",
          "type": "uint256"
        },
        {
          "internalType": "address",
          "name": "_beneficiary",
          "type": "address"
        },
        {
          "internalType": "string",
          "name": "_memo",
          "type": "string"
        },
        {
          "internalType": "bool",
          "name": "_preferClaimedTokens",
          "type": "bool"
        },
        {
          "internalType": "bool",
          "name": "_useReservedRate",
          "type": "bool"
        }
      ],
      "name": "mintTokensOf",
      "outputs": [
        {
          "internalType": "uint256",
          "name": "beneficiaryTokenCount",
          "type": "uint256"
        }
      ],
      "stateMutability": "nonpayable",
      "type": "function"
    },
    {
      "inputs": [],
      "name": "operatorStore",
      "outputs": [
        {
          "internalType": "contract IJBOperatorStore",
          "name": "",
          "type": "address"
        }
      ],
      "stateMutability": "view",
      "type": "function"
    },
    {
      "inputs": [
        {
          "internalType": "uint256",
          "name": "_projectId",
          "type": "uint256"
        },
        {
          "internalType": "uint256",
          "name": "_configuration",
          "type": "uint256"
        },
        {
          "internalType": "contract IJBPaymentTerminal",
          "name": "_terminal",
          "type": "address"
        }
      ],
      "name": "overflowAllowanceOf",
      "outputs": [
        {
          "internalType": "uint256",
          "name": "",
          "type": "uint256"
        },
        {
          "internalType": "uint256",
          "name": "",
          "type": "uint256"
        }
      ],
      "stateMutability": "view",
      "type": "function"
    },
    {
      "inputs": [
        {
          "internalType": "uint256",
          "name": "_projectId",
          "type": "uint256"
        },
        {
          "internalType": "contract IJBController",
          "name": "_from",
          "type": "address"
        }
      ],
      "name": "prepForMigrationOf",
      "outputs": [],
      "stateMutability": "nonpayable",
      "type": "function"
    },
    {
      "inputs": [],
      "name": "projects",
      "outputs": [
        {
          "internalType": "contract IJBProjects",
          "name": "",
          "type": "address"
        }
      ],
      "stateMutability": "view",
      "type": "function"
    },
    {
      "inputs": [
        {
          "internalType": "uint256",
          "name": "_projectId",
          "type": "uint256"
        },
        {
          "components": [
            {
              "internalType": "uint256",
              "name": "duration",
              "type": "uint256"
            },
            {
              "internalType": "uint256",
              "name": "weight",
              "type": "uint256"
            },
            {
              "internalType": "uint256",
              "name": "discountRate",
              "type": "uint256"
            },
            {
              "internalType": "contract IJBFundingCycleBallot",
              "name": "ballot",
              "type": "address"
            }
          ],
          "internalType": "struct JBFundingCycleData",
          "name": "_data",
          "type": "tuple"
        },
        {
          "components": [
            {
              "internalType": "uint256",
              "name": "reservedRate",
              "type": "uint256"
            },
            {
              "internalType": "uint256",
              "name": "redemptionRate",
              "type": "uint256"
            },
            {
              "internalType": "uint256",
              "name": "ballotRedemptionRate",
              "type": "uint256"
            },
            {
              "internalType": "bool",
              "name": "pausePay",
              "type": "bool"
            },
            {
              "internalType": "bool",
              "name": "pauseDistributions",
              "type": "bool"
            },
            {
              "internalType": "bool",
              "name": "pauseRedeem",
              "type": "bool"
            },
            {
              "internalType": "bool",
              "name": "pauseMint",
              "type": "bool"
            },
            {
              "internalType": "bool",
              "name": "pauseBurn",
              "type": "bool"
            },
            {
              "internalType": "bool",
              "name": "allowChangeToken",
              "type": "bool"
            },
            {
              "internalType": "bool",
              "name": "allowTerminalMigration",
              "type": "bool"
            },
            {
              "internalType": "bool",
              "name": "allowControllerMigration",
              "type": "bool"
            },
            {
              "internalType": "bool",
              "name": "holdFees",
              "type": "bool"
            },
            {
              "internalType": "bool",
              "name": "useTotalOverflowForRedemptions",
              "type": "bool"
            },
            {
              "internalType": "bool",
              "name": "useDataSourceForPay",
              "type": "bool"
            },
            {
              "internalType": "bool",
              "name": "useDataSourceForRedeem",
              "type": "bool"
            },
            {
              "internalType": "contract IJBFundingCycleDataSource",
              "name": "dataSource",
              "type": "address"
            }
          ],
          "internalType": "struct JBFundingCycleMetadata",
          "name": "_metadata",
          "type": "tuple"
        },
        {
          "internalType": "uint256",
          "name": "_mustStartAtOrAfter",
          "type": "uint256"
        },
        {
          "components": [
            {
              "internalType": "uint256",
              "name": "group",
              "type": "uint256"
            },
            {
              "components": [
                {
                  "internalType": "bool",
                  "name": "preferClaimed",
                  "type": "bool"
                },
                {
                  "internalType": "uint256",
                  "name": "percent",
                  "type": "uint256"
                },
                {
                  "internalType": "uint256",
                  "name": "projectId",
                  "type": "uint256"
                },
                {
                  "internalType": "address payable",
                  "name": "beneficiary",
                  "type": "address"
                },
                {
                  "internalType": "uint256",
                  "name": "lockedUntil",
                  "type": "uint256"
                },
                {
                  "internalType": "contract IJBSplitAllocator",
                  "name": "allocator",
                  "type": "address"
                }
              ],
              "internalType": "struct JBSplit[]",
              "name": "splits",
              "type": "tuple[]"
            }
          ],
          "internalType": "struct JBGroupedSplits[]",
          "name": "_groupedSplits",
          "type": "tuple[]"
        },
        {
          "components": [
            {
              "internalType": "contract IJBPaymentTerminal",
              "name": "terminal",
              "type": "address"
            },
            {
              "internalType": "uint256",
              "name": "distributionLimit",
              "type": "uint256"
            },
            {
              "internalType": "uint256",
              "name": "distributionLimitCurrency",
              "type": "uint256"
            },
            {
              "internalType": "uint256",
              "name": "overflowAllowance",
              "type": "uint256"
            },
            {
              "internalType": "uint256",
              "name": "overflowAllowanceCurrency",
              "type": "uint256"
            }
          ],
          "internalType": "struct JBFundAccessConstraints[]",
          "name": "_fundAccessConstraints",
          "type": "tuple[]"
        },
        {
          "internalType": "string",
          "name": "_memo",
          "type": "string"
        }
      ],
      "name": "reconfigureFundingCyclesOf",
      "outputs": [
        {
          "internalType": "uint256",
          "name": "configuration",
          "type": "uint256"
        }
      ],
      "stateMutability": "nonpayable",
      "type": "function"
    },
    {
      "inputs": [
        {
          "internalType": "uint256",
          "name": "_projectId",
          "type": "uint256"
        },
        {
          "internalType": "uint256",
          "name": "_reservedRate",
          "type": "uint256"
        }
      ],
      "name": "reservedTokenBalanceOf",
      "outputs": [
        {
          "internalType": "uint256",
          "name": "",
          "type": "uint256"
        }
      ],
      "stateMutability": "view",
      "type": "function"
    },
    {
      "inputs": [],
      "name": "splitsStore",
      "outputs": [
        {
          "internalType": "contract IJBSplitsStore",
          "name": "",
          "type": "address"
        }
      ],
      "stateMutability": "view",
      "type": "function"
    },
    {
      "inputs": [],
      "name": "tokenStore",
      "outputs": [
        {
          "internalType": "contract IJBTokenStore",
          "name": "",
          "type": "address"
        }
      ],
      "stateMutability": "view",
      "type": "function"
    },
    {
      "inputs": [
        {
          "internalType": "uint256",
          "name": "_projectId",
          "type": "uint256"
        },
        {
          "internalType": "uint256",
          "name": "_reservedRate",
          "type": "uint256"
        }
      ],
      "name": "totalOutstandingTokensOf",
      "outputs": [
        {
          "internalType": "uint256",
          "name": "",
          "type": "uint256"
        }
      ],
      "stateMutability": "view",
      "type": "function"
    }
  ],
  "transactionHash": "0xce4f9e6b214a5280f05b8fe801432832b68f6f1ee861cc2d66bfda5020377f2e",
  "args": [
    "0xd2Ec3f195035A377F8bC6b1eDf20114Efac25Fc8",
    "0x23f9A854Ae122d9D2579788D3C3A41244B18D903",
    "0x7A0A0682514c5ecBE164a3CB98F070a7f4569751",
    "0xCE2F40E3C3e80F89Fe9e8Ba48c55B22beDC76c2D",
    "0xc94555ba2BF82222B37F4fAF1008000562cEcE24",
    "0x9Fb90042a8BA5249473476C0405fC1009652956D"
  ],
  "numDeployments": 2,
  "solcInputHash": "fb46a49ce0c01845614dbe0b4d49b298",
  "bytecode": "0x6101406040523480156200001257600080fd5b5060405162005b8338038062005b83833981016040819052620000359162000076565b6001600160601b0319606096871b811660805294861b851660a05292851b84166101205290841b831660c052831b821660e05290911b166101005262000123565b60008060008060008060c087890312156200009057600080fd5b86516200009d816200010a565b6020880151909650620000b0816200010a565b6040880151909550620000c3816200010a565b6060880151909450620000d6816200010a565b6080880151909350620000e9816200010a565b60a0880151909250620000fc816200010a565b809150509295509295509295565b6001600160a01b03811681146200012057600080fd5b50565b60805160601c60a05160601c60c05160601c60e05160601c6101005160601c6101205160601c615884620002ff60003960008181610419015281816108840152818161090601528181610a3001528181610e040152818161150501528181611a0301528181611d9101528181611f570152818161234201528181612a400152612b5c0152600081816101c4015281816133940152613e2401526000818161035801528181610f5301528181611439015281816115fc01528181611c03015281816124ee01528181612c5c01528181613013015281816131400152818161383e01528181613a3c0152613f3a0152600081816103310152818161078801528181610d260152818161130d01528181611afc01528181612264015281816132ac0152613779015260008181610392015281816104a6015281816110400152818161172201528181611e79015281816125e60152818161297f01528181612d3b0152818161392e0152613fd40152600081816103cc015281816105b20152818161068e01528181610b2e01528181610c0a0152818161114c015281816112280152818161182e0152818161190a0152818161205501528181612131015281816126f2015281816127ce01528181612e470152612f2301526158846000f3fe608060405234801561001057600080fd5b506004361061016c5760003560e01c80638ae9c07b116100cd578063b5f1e34d11610081578063d101307311610066578063d10130731461043b578063e867c59c1461044e578063f033b3b41461046157600080fd5b8063b5f1e34d14610401578063c41c2f241461041457600080fd5b80639f797583116100b25780639f797583146103b4578063ad007d63146103c7578063aeb4f02b146103ee57600080fd5b80638ae9c07b1461037a5780638b79543c1461038d57600080fd5b8063405b84fa116101245780635578dfd7116101095780635578dfd7146102b9578063557e71551461032c578063619306301461035357600080fd5b8063405b84fa1461021e5780635172a2bf1461023157600080fd5b8063229bb82411610155578063229bb824146101ac5780632bdfe004146101bf5780633e8c615b1461020b57600080fd5b80630e48d182146101715780631665bc0f14610197575b600080fd5b61018461017f366004614c89565b610474565b6040519081526020015b60405180910390f35b6101aa6101a5366004614710565b6109df565b005b6101aa6101ba366004614aa9565b611011565b6101e67f000000000000000000000000000000000000000000000000000000000000000081565b60405173ffffffffffffffffffffffffffffffffffffffff909116815260200161018e565b6101aa610219366004614a79565b6114bf565b6101aa61022c366004614a79565b6116f3565b6102a461023f366004614e29565b600092835260026020908152604080852093855292815282842073ffffffffffffffffffffffffffffffffffffffff929092168452529020547effffffffffffffffffffffffffffffffffffffffffffffffffffffffffffff81169160f89190911c90565b6040805192835260208301919091520161018e565b6102a46102c7366004614e29565b600092835260016020908152604080852093855292815282842073ffffffffffffffffffffffffffffffffffffffff929092168452529020547effffffffffffffffffffffffffffffffffffffffffffffffffffffffffffff81169160f89190911c90565b6101e67f000000000000000000000000000000000000000000000000000000000000000081565b6101e67f000000000000000000000000000000000000000000000000000000000000000081565b610184610388366004614d99565b611e47565b6101e67f000000000000000000000000000000000000000000000000000000000000000081565b6101846103c2366004614bb1565b6125b4565b6101e67f000000000000000000000000000000000000000000000000000000000000000081565b6101846103fc3660046145e6565b61293f565b61018461040f366004614d77565b612c13565b6101e67f000000000000000000000000000000000000000000000000000000000000000081565b6101e6610449366004614b37565b612d09565b61018461045c366004614aeb565b6130af565b61018461046f366004614d77565b6130fb565b6040517f6352211e000000000000000000000000000000000000000000000000000000008152600481018a90526000907f000000000000000000000000000000000000000000000000000000000000000073ffffffffffffffffffffffffffffffffffffffff1690636352211e9060240160206040518083038186803b1580156104fd57600080fd5b505afa158015610511573d6000803e3d6000fd5b505050506040513d601f19601f8201168201806040525081019061053591906145c9565b8a60013373ffffffffffffffffffffffffffffffffffffffff84161480159061062e57506040517fc161c93f00000000000000000000000000000000000000000000000000000000815233600482015273ffffffffffffffffffffffffffffffffffffffff848116602483015260448201849052606482018390527f0000000000000000000000000000000000000000000000000000000000000000169063c161c93f9060840160206040518083038186803b1580156105f457600080fd5b505afa158015610608573d6000803e3d6000fd5b505050506040513d601f19601f8201168201806040525081019061062c9190614888565b155b801561070a57506040517fc161c93f00000000000000000000000000000000000000000000000000000000815233600482015273ffffffffffffffffffffffffffffffffffffffff848116602483015260006044830152606482018390527f0000000000000000000000000000000000000000000000000000000000000000169063c161c93f9060840160206040518083038186803b1580156106d057600080fd5b505afa1580156106e4573d6000803e3d6000fd5b505050506040513d601f19601f820116820180604052508101906107089190614888565b155b15610741576040517f075fd2b100000000000000000000000000000000000000000000000000000000815260040160405180910390fd5b6040517f2cee6deb000000000000000000000000000000000000000000000000000000008152600481018e905260009073ffffffffffffffffffffffffffffffffffffffff7f00000000000000000000000000000000000000000000000000000000000000001690632cee6deb9060240160206040518083038186803b1580156107ca57600080fd5b505afa1580156107de573d6000803e3d6000fd5b505050506040513d601f19601f820116820180604052508101906108029190614a60565b111561083a576040517fffd0bc1200000000000000000000000000000000000000000000000000000000815260040160405180910390fd5b6040517f714e7f32000000000000000000000000000000000000000000000000000000008152600481018e905230602482015273ffffffffffffffffffffffffffffffffffffffff7f0000000000000000000000000000000000000000000000000000000000000000169063714e7f3290604401600060405180830381600087803b1580156108c857600080fd5b505af11580156108dc573d6000803e3d6000fd5b505050506108fa8d8d8d8d8d8d906108f49190615579565b8c6131d4565b865190945015610992577f000000000000000000000000000000000000000000000000000000000000000073ffffffffffffffffffffffffffffffffffffffff1663821b9fd88e886040518363ffffffff1660e01b815260040161095f929190615093565b600060405180830381600087803b15801561097957600080fd5b505af115801561098d573d6000803e3d6000fd5b505050505b7f8621c3692c18d8ddd4cd26457d6a3e1d916e7001c4243a6c8dfa862a7e10a823848e87336040516109c7949392919061525c565b60405180910390a15050509998505050505050505050565b6040517f6e49181f0000000000000000000000000000000000000000000000000000000081526004810186905233602482015286908690600a9073ffffffffffffffffffffffffffffffffffffffff7f00000000000000000000000000000000000000000000000000000000000000001690636e49181f9060440160206040518083038186803b158015610a7257600080fd5b505afa158015610a86573d6000803e3d6000fd5b505050506040513d601f19601f82011682018060405250810190610aaa9190614888565b80158015610ace57503373ffffffffffffffffffffffffffffffffffffffff851614155b8015610baa57506040517fc161c93f00000000000000000000000000000000000000000000000000000000815233600482015273ffffffffffffffffffffffffffffffffffffffff858116602483015260448201859052606482018490527f0000000000000000000000000000000000000000000000000000000000000000169063c161c93f9060840160206040518083038186803b158015610b7057600080fd5b505afa158015610b84573d6000803e3d6000fd5b505050506040513d601f19601f82011682018060405250810190610ba89190614888565b155b8015610c8657506040517fc161c93f00000000000000000000000000000000000000000000000000000000815233600482015273ffffffffffffffffffffffffffffffffffffffff858116602483015260006044830152606482018490527f0000000000000000000000000000000000000000000000000000000000000000169063c161c93f9060840160206040518083038186803b158015610c4c57600080fd5b505afa158015610c60573d6000803e3d6000fd5b505050506040513d601f19601f82011682018060405250810190610c849190614888565b155b15610cbd576040517f075fd2b100000000000000000000000000000000000000000000000000000000815260040160405180910390fd5b87610cf4576040517f7b38547b00000000000000000000000000000000000000000000000000000000815260040160405180910390fd5b6040517f43a266c2000000000000000000000000000000000000000000000000000000008152600481018a90526000907f000000000000000000000000000000000000000000000000000000000000000073ffffffffffffffffffffffffffffffffffffffff16906343a266c2906024016101206040518083038186803b158015610d7e57600080fd5b505afa158015610d92573d6000803e3d6000fd5b505050506040513d601f19601f82011682018060405250810190610db691906149e0565b610100810151909150603c1c6001908116148015610e9557506040517f6e49181f000000000000000000000000000000000000000000000000000000008152600481018b90523360248201527f000000000000000000000000000000000000000000000000000000000000000073ffffffffffffffffffffffffffffffffffffffff1690636e49181f9060440160206040518083038186803b158015610e5b57600080fd5b505afa158015610e6f573d6000803e3d6000fd5b505050506040513d601f19601f82011682018060405250810190610e939190614888565b155b15610ecc576040517f78a4871800000000000000000000000000000000000000000000000000000000815260040160405180910390fd5b60008a815260208190526040902054610ee6908a906154ee565b60008b8152602081905260409081902091909155517f906ebd0f00000000000000000000000000000000000000000000000000000000815273ffffffffffffffffffffffffffffffffffffffff8c81166004830152602482018c9052604482018b905287151560648301527f0000000000000000000000000000000000000000000000000000000000000000169063906ebd0f90608401600060405180830381600087803b158015610f9757600080fd5b505af1158015610fab573d6000803e3d6000fd5b50505050898b73ffffffffffffffffffffffffffffffffffffffff167fdf04e13ee4fcd48a81ab2fd114757093740a3efa9b6475d86e05878b4c59d0798b8b8b33604051610ffc94939291906150ea565b60405180910390a35050505050505050505050565b6040517f6352211e000000000000000000000000000000000000000000000000000000008152600481018490527f000000000000000000000000000000000000000000000000000000000000000073ffffffffffffffffffffffffffffffffffffffff1690636352211e9060240160206040518083038186803b15801561109757600080fd5b505afa1580156110ab573d6000803e3d6000fd5b505050506040513d601f19601f820116820180604052508101906110cf91906145c9565b8360083373ffffffffffffffffffffffffffffffffffffffff8416148015906111c857506040517fc161c93f00000000000000000000000000000000000000000000000000000000815233600482015273ffffffffffffffffffffffffffffffffffffffff848116602483015260448201849052606482018390527f0000000000000000000000000000000000000000000000000000000000000000169063c161c93f9060840160206040518083038186803b15801561118e57600080fd5b505afa1580156111a2573d6000803e3d6000fd5b505050506040513d601f19601f820116820180604052508101906111c69190614888565b155b80156112a457506040517fc161c93f00000000000000000000000000000000000000000000000000000000815233600482015273ffffffffffffffffffffffffffffffffffffffff848116602483015260006044830152606482018390527f0000000000000000000000000000000000000000000000000000000000000000169063c161c93f9060840160206040518083038186803b15801561126a57600080fd5b505afa15801561127e573d6000803e3d6000fd5b505050506040513d601f19601f820116820180604052508101906112a29190614888565b155b156112db576040517f075fd2b100000000000000000000000000000000000000000000000000000000815260040160405180910390fd5b6040517f43a266c2000000000000000000000000000000000000000000000000000000008152600481018790526000907f000000000000000000000000000000000000000000000000000000000000000073ffffffffffffffffffffffffffffffffffffffff16906343a266c2906024016101206040518083038186803b15801561136557600080fd5b505afa158015611379573d6000803e3d6000fd5b505050506040513d601f19601f8201168201806040525081019061139d91906149e0565b610100810151909150603d1c6001908116146113e5576040517f2ebc601300000000000000000000000000000000000000000000000000000000815260040160405180910390fd5b6040517f57e4c7780000000000000000000000000000000000000000000000000000000081526004810188905273ffffffffffffffffffffffffffffffffffffffff878116602483015286811660448301527f000000000000000000000000000000000000000000000000000000000000000016906357e4c77890606401602060405180830381600087803b15801561147d57600080fd5b505af1158015611491573d6000803e3d6000fd5b505050506040513d601f19601f820116820180604052508101906114b591906145c9565b5050505050505050565b6040517f5dd8f6aa00000000000000000000000000000000000000000000000000000000815260048101839052309073ffffffffffffffffffffffffffffffffffffffff7f00000000000000000000000000000000000000000000000000000000000000001690635dd8f6aa9060240160206040518083038186803b15801561154757600080fd5b505afa15801561155b573d6000803e3d6000fd5b505050506040513d601f19601f8201168201806040525081019061157f91906145c9565b73ffffffffffffffffffffffffffffffffffffffff1614156115cd576040517ffc2ce25a00000000000000000000000000000000000000000000000000000000815260040160405180910390fd5b6040517f75b0d9cd000000000000000000000000000000000000000000000000000000008152600481018390527f000000000000000000000000000000000000000000000000000000000000000073ffffffffffffffffffffffffffffffffffffffff16906375b0d9cd9060240160206040518083038186803b15801561165357600080fd5b505afa158015611667573d6000803e3d6000fd5b505050506040513d601f19601f8201168201806040525081019061168b9190614a60565b6000838152602081815260409182902092909255805173ffffffffffffffffffffffffffffffffffffffff84168152339281019290925283917ff389f4f5d01fe4903d6a7a63b8790b7bf80d374b6afed808c03795c3b323d4d3910160405180910390a25050565b6040517f6352211e000000000000000000000000000000000000000000000000000000008152600481018390527f000000000000000000000000000000000000000000000000000000000000000073ffffffffffffffffffffffffffffffffffffffff1690636352211e9060240160206040518083038186803b15801561177957600080fd5b505afa15801561178d573d6000803e3d6000fd5b505050506040513d601f19601f820116820180604052508101906117b191906145c9565b8260033373ffffffffffffffffffffffffffffffffffffffff8416148015906118aa57506040517fc161c93f00000000000000000000000000000000000000000000000000000000815233600482015273ffffffffffffffffffffffffffffffffffffffff848116602483015260448201849052606482018390527f0000000000000000000000000000000000000000000000000000000000000000169063c161c93f9060840160206040518083038186803b15801561187057600080fd5b505afa158015611884573d6000803e3d6000fd5b505050506040513d601f19601f820116820180604052508101906118a89190614888565b155b801561198657506040517fc161c93f00000000000000000000000000000000000000000000000000000000815233600482015273ffffffffffffffffffffffffffffffffffffffff848116602483015260006044830152606482018390527f0000000000000000000000000000000000000000000000000000000000000000169063c161c93f9060840160206040518083038186803b15801561194c57600080fd5b505afa158015611960573d6000803e3d6000fd5b505050506040513d601f19601f820116820180604052508101906119849190614888565b155b156119bd576040517f075fd2b100000000000000000000000000000000000000000000000000000000815260040160405180910390fd5b6040517f5dd8f6aa00000000000000000000000000000000000000000000000000000000815260048101869052309073ffffffffffffffffffffffffffffffffffffffff7f00000000000000000000000000000000000000000000000000000000000000001690635dd8f6aa9060240160206040518083038186803b158015611a4557600080fd5b505afa158015611a59573d6000803e3d6000fd5b505050506040513d601f19601f82011682018060405250810190611a7d91906145c9565b73ffffffffffffffffffffffffffffffffffffffff1614611aca576040517fe0a0a87d00000000000000000000000000000000000000000000000000000000815260040160405180910390fd5b6040517f43a266c2000000000000000000000000000000000000000000000000000000008152600481018690526000907f000000000000000000000000000000000000000000000000000000000000000073ffffffffffffffffffffffffffffffffffffffff16906343a266c2906024016101206040518083038186803b158015611b5457600080fd5b505afa158015611b68573d6000803e3d6000fd5b505050506040513d601f19601f82011682018060405250810190611b8c91906149e0565b610100810151909150603f1c600190811614611bd4576040517f46ace3f900000000000000000000000000000000000000000000000000000000815260040160405180910390fd5b6040517f75b0d9cd000000000000000000000000000000000000000000000000000000008152600481018790527f000000000000000000000000000000000000000000000000000000000000000073ffffffffffffffffffffffffffffffffffffffff16906375b0d9cd9060240160206040518083038186803b158015611c5a57600080fd5b505afa158015611c6e573d6000803e3d6000fd5b505050506040513d601f19601f82011682018060405250810190611c929190614a60565b60008781526020819052604090205414611cc157611cbf8660405180602001604052806000815250613730565b505b6040517f3e8c615b0000000000000000000000000000000000000000000000000000000081526004810187905230602482015273ffffffffffffffffffffffffffffffffffffffff861690633e8c615b90604401600060405180830381600087803b158015611d2f57600080fd5b505af1158015611d43573d6000803e3d6000fd5b50506040517f714e7f320000000000000000000000000000000000000000000000000000000081526004810189905273ffffffffffffffffffffffffffffffffffffffff88811660248301527f000000000000000000000000000000000000000000000000000000000000000016925063714e7f329150604401600060405180830381600087803b158015611dd757600080fd5b505af1158015611deb573d6000803e3d6000fd5b50506040805173ffffffffffffffffffffffffffffffffffffffff891681523360208201528993507f01f954abace731a88ab86e71186040cc2be49fe517ea06bc0d24f25b82b8345692500160405180910390a2505050505050565b6040517f6352211e000000000000000000000000000000000000000000000000000000008152600481018890526000907f000000000000000000000000000000000000000000000000000000000000000073ffffffffffffffffffffffffffffffffffffffff1690636352211e9060240160206040518083038186803b158015611ed057600080fd5b505afa158015611ee4573d6000803e3d6000fd5b505050506040513d601f19601f82011682018060405250810190611f0891906145c9565b6040517f6e49181f000000000000000000000000000000000000000000000000000000008152600481018a9052336024820152899060099073ffffffffffffffffffffffffffffffffffffffff7f00000000000000000000000000000000000000000000000000000000000000001690636e49181f9060440160206040518083038186803b158015611f9957600080fd5b505afa158015611fad573d6000803e3d6000fd5b505050506040513d601f19601f82011682018060405250810190611fd19190614888565b80158015611ff557503373ffffffffffffffffffffffffffffffffffffffff851614155b80156120d157506040517fc161c93f00000000000000000000000000000000000000000000000000000000815233600482015273ffffffffffffffffffffffffffffffffffffffff858116602483015260448201859052606482018490527f0000000000000000000000000000000000000000000000000000000000000000169063c161c93f9060840160206040518083038186803b15801561209757600080fd5b505afa1580156120ab573d6000803e3d6000fd5b505050506040513d601f19601f820116820180604052508101906120cf9190614888565b155b80156121ad57506040517fc161c93f00000000000000000000000000000000000000000000000000000000815233600482015273ffffffffffffffffffffffffffffffffffffffff858116602483015260006044830152606482018490527f0000000000000000000000000000000000000000000000000000000000000000169063c161c93f9060840160206040518083038186803b15801561217357600080fd5b505afa158015612187573d6000803e3d6000fd5b505050506040513d601f19601f820116820180604052508101906121ab9190614888565b155b156121e4576040517f075fd2b100000000000000000000000000000000000000000000000000000000815260040160405180910390fd5b8a61221b576040517f9fd13e5400000000000000000000000000000000000000000000000000000000815260040160405180910390fd5b6040517f43a266c2000000000000000000000000000000000000000000000000000000008152600481018d9052600090819073ffffffffffffffffffffffffffffffffffffffff7f000000000000000000000000000000000000000000000000000000000000000016906343a266c2906024016101206040518083038186803b1580156122a757600080fd5b505afa1580156122bb573d6000803e3d6000fd5b505050506040513d601f19601f820116820180604052508101906122df91906149e0565b610100810151909150603b1c60019081161480156123be57506040517f6e49181f000000000000000000000000000000000000000000000000000000008152600481018f905233602482015273ffffffffffffffffffffffffffffffffffffffff7f00000000000000000000000000000000000000000000000000000000000000001690636e49181f9060440160206040518083038186803b15801561238457600080fd5b505afa158015612398573d6000803e3d6000fd5b505050506040513d601f19601f820116820180604052508101906123bc9190614888565b155b156123f5576040517f8c5fb46100000000000000000000000000000000000000000000000000000000815260040160405180910390fd5b8761240157600061240f565b61010081015160081c61ffff165b91505061271081141561244a5760008d815260208190526040902054612436908d906154ee565b60008e81526020819052604090205561254b565b6124628c61245a83612710615562565b612710613aed565b9550806124935760008d815260208190526040902054612483908790615462565b60008e8152602081905260409020555b6040517fceddd3e400000000000000000000000000000000000000000000000000000000815273ffffffffffffffffffffffffffffffffffffffff8c81166004830152602482018f90526044820188905289151560648301527f0000000000000000000000000000000000000000000000000000000000000000169063ceddd3e490608401600060405180830381600087803b15801561253257600080fd5b505af1158015612546573d6000803e3d6000fd5b505050505b8c8b73ffffffffffffffffffffffffffffffffffffffff167fe6fee9c572244c0c2238c3112ac12d411750a7ee00eeebd32521c3e5a666c14b8e898e8e873360405161259c9695949392919061520d565b60405180910390a35050505050979650505050505050565b6040517f6352211e000000000000000000000000000000000000000000000000000000008152600481018b90526000907f000000000000000000000000000000000000000000000000000000000000000073ffffffffffffffffffffffffffffffffffffffff1690636352211e9060240160206040518083038186803b15801561263d57600080fd5b505afa158015612651573d6000803e3d6000fd5b505050506040513d601f19601f8201168201806040525081019061267591906145c9565b8b60013373ffffffffffffffffffffffffffffffffffffffff84161480159061276e57506040517fc161c93f00000000000000000000000000000000000000000000000000000000815233600482015273ffffffffffffffffffffffffffffffffffffffff848116602483015260448201849052606482018390527f0000000000000000000000000000000000000000000000000000000000000000169063c161c93f9060840160206040518083038186803b15801561273457600080fd5b505afa158015612748573d6000803e3d6000fd5b505050506040513d601f19601f8201168201806040525081019061276c9190614888565b155b801561284a57506040517fc161c93f00000000000000000000000000000000000000000000000000000000815233600482015273ffffffffffffffffffffffffffffffffffffffff848116602483015260006044830152606482018390527f0000000000000000000000000000000000000000000000000000000000000000169063c161c93f9060840160206040518083038186803b15801561281057600080fd5b505afa158015612824573d6000803e3d6000fd5b505050506040513d601f19601f820116820180604052508101906128489190614888565b155b15612881576040517f075fd2b100000000000000000000000000000000000000000000000000000000815260040160405180910390fd5b6128ed8e8e8e8e8e8e906128959190615579565b8d8d808060200260200160405190810160405280939291908181526020016000905b828210156128e3576128d460a083028601368190038101906148a5565b815260200190600101906128b7565b50505050506131d4565b93507f1a08ad37c93969a586fd0605d240c17113b20a9c9ac3847595d0ab425225f6af848f8888336040516129269594939291906151c5565b60405180910390a15050509a9950505050505050505050565b6040517f666d87a000000000000000000000000000000000000000000000000000000000815260009073ffffffffffffffffffffffffffffffffffffffff7f0000000000000000000000000000000000000000000000000000000000000000169063666d87a0906129b6908f908f90600401614f0b565b602060405180830381600087803b1580156129d057600080fd5b505af11580156129e4573d6000803e3d6000fd5b505050506040513d601f19601f82011682018060405250810190612a089190614a60565b6040517f714e7f32000000000000000000000000000000000000000000000000000000008152600481018290523060248201529091507f000000000000000000000000000000000000000000000000000000000000000073ffffffffffffffffffffffffffffffffffffffff169063714e7f3290604401600060405180830381600087803b158015612a9957600080fd5b505af1158015612aad573d6000803e3d6000fd5b505050506000612b15828c8c8c8c8c90612ac79190615579565b8b8b808060200260200160405190810160405280939291908181526020016000905b828210156128e357612b0660a083028601368190038101906148a5565b81526020019060010190612ae9565b845190915015612bc6576040517f821b9fd800000000000000000000000000000000000000000000000000000000815273ffffffffffffffffffffffffffffffffffffffff7f0000000000000000000000000000000000000000000000000000000000000000169063821b9fd890612b939085908890600401615093565b600060405180830381600087803b158015612bad57600080fd5b505af1158015612bc1573d6000803e3d6000fd5b505050505b7ff3e6948ba8b32d557363ea08470121c47c0127659aed09320812174d373afef281838533604051612bfb949392919061525c565b60405180910390a1509b9a5050505050505050505050565b6040517f75b0d9cd00000000000000000000000000000000000000000000000000000000815260048101839052600090819073ffffffffffffffffffffffffffffffffffffffff7f000000000000000000000000000000000000000000000000000000000000000016906375b0d9cd9060240160206040518083038186803b158015612c9e57600080fd5b505afa158015612cb2573d6000803e3d6000fd5b505050506040513d601f19601f82011682018060405250810190612cd69190614a60565b60008581526020819052604081205491925090612cf4908584613bf6565b9050612d0081836154d6565b95945050505050565b6040517f6352211e000000000000000000000000000000000000000000000000000000008152600481018690526000907f000000000000000000000000000000000000000000000000000000000000000073ffffffffffffffffffffffffffffffffffffffff1690636352211e9060240160206040518083038186803b158015612d9257600080fd5b505afa158015612da6573d6000803e3d6000fd5b505050506040513d601f19601f82011682018060405250810190612dca91906145c9565b8660073373ffffffffffffffffffffffffffffffffffffffff841614801590612ec357506040517fc161c93f00000000000000000000000000000000000000000000000000000000815233600482015273ffffffffffffffffffffffffffffffffffffffff848116602483015260448201849052606482018390527f0000000000000000000000000000000000000000000000000000000000000000169063c161c93f9060840160206040518083038186803b158015612e8957600080fd5b505afa158015612e9d573d6000803e3d6000fd5b505050506040513d601f19601f82011682018060405250810190612ec19190614888565b155b8015612f9f57506040517fc161c93f00000000000000000000000000000000000000000000000000000000815233600482015273ffffffffffffffffffffffffffffffffffffffff848116602483015260006044830152606482018390527f0000000000000000000000000000000000000000000000000000000000000000169063c161c93f9060840160206040518083038186803b158015612f6557600080fd5b505afa158015612f79573d6000803e3d6000fd5b505050506040513d601f19601f82011682018060405250810190612f9d9190614888565b155b15612fd6576040517f075fd2b100000000000000000000000000000000000000000000000000000000815260040160405180910390fd5b6040517fa7f2a70b00000000000000000000000000000000000000000000000000000000815273ffffffffffffffffffffffffffffffffffffffff7f0000000000000000000000000000000000000000000000000000000000000000169063a7f2a70b90613050908c908c908c908c908c9060040161512b565b602060405180830381600087803b15801561306a57600080fd5b505af115801561307e573d6000803e3d6000fd5b505050506040513d601f19601f820116820180604052508101906130a291906145c9565b9998505050505050505050565b60006130f18484848080601f01602080910402602001604051908101604052809392919081815260200183838082843760009201919091525061373092505050565b90505b9392505050565b6000828152602081905260408082205490517f75b0d9cd000000000000000000000000000000000000000000000000000000008152600481018590526130f4919084907f000000000000000000000000000000000000000000000000000000000000000073ffffffffffffffffffffffffffffffffffffffff16906375b0d9cd9060240160206040518083038186803b15801561319757600080fd5b505afa1580156131ab573d6000803e3d6000fd5b505050506040513d601f19601f820116820180604052508101906131cf9190614a60565b613bf6565b600061271085351115613213576040517f5623289500000000000000000000000000000000000000000000000000000000815260040160405180910390fd5b61271085602001351115613253576040517f9db9ee9300000000000000000000000000000000000000000000000000000000815260040160405180910390fd5b61271085604001351115613293576040517fddbf1bc600000000000000000000000000000000000000000000000000000000815260040160405180910390fd5b600073ffffffffffffffffffffffffffffffffffffffff7f00000000000000000000000000000000000000000000000000000000000000001663a249d42589896132ea6132e5368c90038c018c6148c1565b613c67565b896040518563ffffffff1660e01b815260040161330a9493929190615164565b61012060405180830381600087803b15801561332557600080fd5b505af1158015613339573d6000803e3d6000fd5b505050506040513d601f19601f8201168201806040525081019061335d91906149e0565b905060005b845181101561347457600085828151811061337f5761337f6157bd565b602002602001015160200151511115613462577f000000000000000000000000000000000000000000000000000000000000000073ffffffffffffffffffffffffffffffffffffffff16639acff5ac8a84602001518885815181106133e6576133e66157bd565b602002602001015160000151898681518110613404576134046157bd565b6020026020010151602001516040518563ffffffff1660e01b815260040161342f94939291906152a2565b600060405180830381600087803b15801561344957600080fd5b505af115801561345d573d6000803e3d6000fd5b505050505b8061346c816156ed565b915050613362565b5060005b8351811015613720576000848281518110613495576134956157bd565b602002602001015190507effffffffffffffffffffffffffffffffffffffffffffffffffffffffffffff8016816020015111156134fe576040517fa9b8fbcf00000000000000000000000000000000000000000000000000000000815260040160405180910390fd5b604081015160ff101561353d576040517f9583faed00000000000000000000000000000000000000000000000000000000815260040160405180910390fd5b60608101517effffffffffffffffffffffffffffffffffffffffffffffffffffffffffffff101561359a576040517f5730278300000000000000000000000000000000000000000000000000000000815260040160405180910390fd5b608081015160ff10156135d9576040517fd9b93c2500000000000000000000000000000000000000000000000000000000815260040160405180910390fd5b6020810151156136325760408181015160208084015160008e8152600183528481208884015182528352848120865173ffffffffffffffffffffffffffffffffffffffff16825290925292902060f89190911b90911790555b60608101511561368b576080810151606082015160008c81526002602090815260408083208883015184528252808320865173ffffffffffffffffffffffffffffffffffffffff168452909152902060f89290921b1790555b825160208085015160408051855173ffffffffffffffffffffffffffffffffffffffff1681528584015193810193909352808501519083015260608085015190830152608080850151908301523360a08301528c92917e506dbcdf2e70275bf246b8f39ca18ebea55b7253498928a3de5c5bae26bd849060c00160405180910390a45080613718816156ed565b915050613478565b5060200151979650505050505050565b6040517f43a266c200000000000000000000000000000000000000000000000000000000815260048101839052600090819073ffffffffffffffffffffffffffffffffffffffff7f000000000000000000000000000000000000000000000000000000000000000016906343a266c2906024016101206040518083038186803b1580156137bc57600080fd5b505afa1580156137d0573d6000803e3d6000fd5b505050506040513d601f19601f820116820180604052508101906137f491906149e0565b6040517f75b0d9cd0000000000000000000000000000000000000000000000000000000081526004810186905290915060009073ffffffffffffffffffffffffffffffffffffffff7f000000000000000000000000000000000000000000000000000000000000000016906375b0d9cd9060240160206040518083038186803b15801561388057600080fd5b505afa158015613894573d6000803e3d6000fd5b505050506040513d601f19601f820116820180604052508101906138b89190614a60565b6000868152602081905260409020546101008401519192506138e19160081c61ffff1683613bf6565b92506138ed83826154d6565b6000868152602081905260408082209290925590517f6352211e000000000000000000000000000000000000000000000000000000008152600481018790527f000000000000000000000000000000000000000000000000000000000000000073ffffffffffffffffffffffffffffffffffffffff1690636352211e9060240160206040518083038186803b15801561398557600080fd5b505afa158015613999573d6000803e3d6000fd5b505050506040513d601f19601f820116820180604052508101906139bd91906145c9565b9050600084156139d7576139d2878587613ddc565b6139da565b60005b90508015613a99576040517fceddd3e400000000000000000000000000000000000000000000000000000000815273ffffffffffffffffffffffffffffffffffffffff83811660048301526024820189905260448201839052600060648301527f0000000000000000000000000000000000000000000000000000000000000000169063ceddd3e490608401600060405180830381600087803b158015613a8057600080fd5b505af1158015613a94573d6000803e3d6000fd5b505050505b86846000015185602001517fb12d7a78048433f69fe6d30145bf08aad8e82985b96e4db6d5c6a7e94d57086e8589868c33604051613adb959493929190614fb6565b60405180910390a45050505092915050565b600080807fffffffffffffffffffffffffffffffffffffffffffffffffffffffffffffffff8587098587029250828110838203039150508060001415613b4657838281613b3c57613b3c61578e565b04925050506130f4565b838110613b8d576040517f773cc18c000000000000000000000000000000000000000000000000000000008152600481018290526024810185905260440160405180910390fd5b60008486880960026001871981018816978890046003810283188082028403028082028403028082028403028082028403028082028403029081029092039091026000889003889004909101858311909403939093029303949094049190911702949350505050565b6000806000851215613c1a57613c0b85615726565b613c1590846154d6565b613c24565b613c248584615562565b905080613c355760009150506130f4565b612710841415613c465790506130f4565b80613c5d81612710613c588882615562565b613aed565b612d009190615562565b8051602082015160089190911b60011790601890613c8790612710615562565b901b8117905060288260400151612710613ca19190615562565b901b81179050816060015115613cbc57670100000000000000175b816080015115613cd157670200000000000000175b8160a0015115613ce657670400000000000000175b8160c0015115613cfb57670800000000000000175b8160e0015115613d1057671000000000000000175b81610100015115613d2657672000000000000000175b81610120015115613d3c57674000000000000000175b81610140015115613d5257678000000000000000175b81610160015115613d695768010000000000000000175b81610180015115613d805768020000000000000000175b816101a0015115613d975768040000000000000000175b816101c0015115613dae5768080000000000000000175b6101e0919091015160441b7c0ffffffffffffffffffffffffffffffffffffffff00000000000000000161790565b60208201516040517f69e11cc50000000000000000000000000000000000000000000000000000000081526004810185905260248101919091526002604482015281906000907f000000000000000000000000000000000000000000000000000000000000000073ffffffffffffffffffffffffffffffffffffffff16906369e11cc59060640160006040518083038186803b158015613e7b57600080fd5b505afa158015613e8f573d6000803e3d6000fd5b505050506040513d6000823e601f3d9081017fffffffffffffffffffffffffffffffffffffffffffffffffffffffffffffffe0168201604052613ed5919081019061478c565b905060005b8151811015614293576000828281518110613ef757613ef76157bd565b602002602001015190506000613f16868360200151633b9aca00613aed565b905080156142385760a082015173ffffffffffffffffffffffffffffffffffffffff7f000000000000000000000000000000000000000000000000000000000000000081169163ceddd3e49116614068576040840151613f9f57606084015173ffffffffffffffffffffffffffffffffffffffff16613f95573361406e565b836060015161406e565b60408481015190517f6352211e00000000000000000000000000000000000000000000000000000000815260048101919091527f000000000000000000000000000000000000000000000000000000000000000073ffffffffffffffffffffffffffffffffffffffff1690636352211e9060240160206040518083038186803b15801561402b57600080fd5b505afa15801561403f573d6000803e3d6000fd5b505050506040513d601f19601f8201168201806040525081019061406391906145c9565b61406e565b8360a001515b845160405160e084901b7fffffffff0000000000000000000000000000000000000000000000000000000016815273ffffffffffffffffffffffffffffffffffffffff9092166004830152602482018c90526044820185905215156064820152608401600060405180830381600087803b1580156140eb57600080fd5b505af11580156140ff573d6000803e3d6000fd5b5050505060a082015173ffffffffffffffffffffffffffffffffffffffff161561422b5760a080830151604080518084018252848152601260208083019182528284018e81526002606080860191825260808087018c815288517fe7cd77f20000000000000000000000000000000000000000000000000000000081529751600489015295516024880152925160448701529051606486015292518051151560848601529182015160a48501529381015160c48401529081015173ffffffffffffffffffffffffffffffffffffffff90811660e484015292810151610104830152909301518116610124840152169063e7cd77f29061014401600060405180830381600087803b15801561421257600080fd5b505af1158015614226573d6000803e3d6000fd5b505050505b6142358186615562565b94505b87876000015188602001517f08b272f627530027641b54430e5e88cf4de5feb60e3df46d714a426e3cabb99f85853360405161427693929190615007565b60405180910390a45050808061428b906156ed565b915050613eda565b50509392505050565b80356142a78161581b565b919050565b600082601f8301126142bd57600080fd5b813560206142d26142cd8361543e565b6153ef565b80838252828201915082860187848660051b89010111156142f257600080fd5b60005b8581101561431a5781356143088161581b565b845292840192908401906001016142f5565b5090979650505050505050565b60008083601f84011261433957600080fd5b50813567ffffffffffffffff81111561435157600080fd5b60208301915083602060a08302850101111561436c57600080fd5b9250929050565b600082601f83011261438457600080fd5b813560206143946142cd8361543e565b8281528181019085830160a0808602880185018910156143b357600080fd5b60005b868110156143da576143c88a84614513565b855293850193918101916001016143b6565b509198975050505050505050565b60008083601f8401126143fa57600080fd5b50813567ffffffffffffffff81111561441257600080fd5b6020830191508360208260051b850101111561436c57600080fd5b80356142a781615840565b80516142a78161581b565b60008083601f84011261445557600080fd5b50813567ffffffffffffffff81111561446d57600080fd5b60208301915083602082850101111561436c57600080fd5b600082601f83011261449657600080fd5b813567ffffffffffffffff8111156144b0576144b06157ec565b6144e160207fffffffffffffffffffffffffffffffffffffffffffffffffffffffffffffffe0601f840116016153ef565b8181528460208386010111156144f657600080fd5b816020850160208301376000918101602001919091529392505050565b600060a0828403121561452557600080fd5b60405160a0810181811067ffffffffffffffff82111715614548576145486157ec565b60405290508082356145598161581b565b80825250602083013560208201526040830135604082015260608301356060820152608083013560808201525092915050565b60006080828403121561459e57600080fd5b50919050565b6000610200828403121561459e57600080fd5b60006040828403121561459e57600080fd5b6000602082840312156145db57600080fd5b81516130f48161581b565b60008060008060008060008060008060006103608c8e03121561460857600080fd5b6146118c61429c565b9a5067ffffffffffffffff8060208e0135111561462d57600080fd5b61463d8e60208f01358f016145b7565b9a5061464c8e60408f0161458c565b995061465b8e60c08f016145a4565b98506102c08d01359750806102e08e0135111561467757600080fd5b6146888e6102e08f01358f016143e8565b90975095506103008d013581101561469f57600080fd5b6146b08e6103008f01358f01614327565b90955093506103208d01358110156146c757600080fd5b6146d88e6103208f01358f016142ac565b9250806103408e013511156146ec57600080fd5b506146fe8d6103408e01358e01614485565b90509295989b509295989b9093969950565b60008060008060008060a0878903121561472957600080fd5b86356147348161581b565b95506020870135945060408701359350606087013567ffffffffffffffff81111561475e57600080fd5b61476a89828a01614443565b909450925050608087013561477e81615840565b809150509295509295509295565b6000602080838503121561479f57600080fd5b825167ffffffffffffffff8111156147b657600080fd5b8301601f810185136147c757600080fd5b80516147d56142cd8261543e565b8181528381019083850160c0808502860187018a10156147f457600080fd5b60009550855b858110156148795781838c031215614810578687fd5b61481861535b565b835161482381615840565b81528389015189820152604080850151908201526060808501516148468161581b565b908201526080848101519082015260a0808501516148638161581b565b90820152855293870193918101916001016147fa565b50919998505050505050505050565b60006020828403121561489a57600080fd5b81516130f481615840565b600060a082840312156148b757600080fd5b6130f48383614513565b600061020082840312156148d457600080fd5b6148dc615384565b8235815260208301356020820152604083013560408201526149006060840161442d565b60608201526149116080840161442d565b608082015261492260a0840161442d565b60a082015261493360c0840161442d565b60c082015261494460e0840161442d565b60e082015261010061495781850161442d565b9082015261012061496984820161442d565b9082015261014061497b84820161442d565b9082015261016061498d84820161442d565b9082015261018061499f84820161442d565b908201526101a06149b184820161442d565b908201526101c06149c384820161442d565b908201526101e06149d584820161429c565b908201529392505050565b600061012082840312156149f357600080fd5b6149fb6153a8565b825181526020830151602082015260408301516040820152606083015160608201526080830151608082015260a083015160a082015260c083015160c0820152614a4760e08401614438565b60e0820152610100928301519281019290925250919050565b600060208284031215614a7257600080fd5b5051919050565b60008060408385031215614a8c57600080fd5b823591506020830135614a9e8161581b565b809150509250929050565b600080600060608486031215614abe57600080fd5b833592506020840135614ad08161581b565b91506040840135614ae08161581b565b809150509250925092565b600080600060408486031215614b0057600080fd5b83359250602084013567ffffffffffffffff811115614b1e57600080fd5b614b2a86828701614443565b9497909650939450505050565b600080600080600060608688031215614b4f57600080fd5b85359450602086013567ffffffffffffffff80821115614b6e57600080fd5b614b7a89838a01614443565b90965094506040880135915080821115614b9357600080fd5b50614ba088828901614443565b969995985093965092949392505050565b6000806000806000806000806000806103208b8d031215614bd157600080fd5b8a359950614be28c60208d0161458c565b9850614bf18c60a08d016145a4565b97506102a08b013596506102c08b013567ffffffffffffffff80821115614c1757600080fd5b614c238e838f016143e8565b90985096506102e08d0135915080821115614c3d57600080fd5b614c498e838f01614327565b90965094506103008d0135915080821115614c6357600080fd5b50614c708d828e01614443565b915080935050809150509295989b9194979a5092959850565b60008060008060008060008060006103408a8c031215614ca857600080fd5b89359850614cb98b60208c0161458c565b9750614cc88b60a08c016145a4565b96506102a08a013595506102c08a013567ffffffffffffffff80821115614cee57600080fd5b614cfa8d838e016143e8565b90975095506102e08c0135915080821115614d1457600080fd5b614d208d838e01614373565b94506103008c0135915080821115614d3757600080fd5b614d438d838e016142ac565b93506103208c0135915080821115614d5a57600080fd5b50614d678c828d01614485565b9150509295985092959850929598565b60008060408385031215614d8a57600080fd5b50508035926020909101359150565b600080600080600080600060c0888a031215614db457600080fd5b87359650602088013595506040880135614dcd8161581b565b9450606088013567ffffffffffffffff811115614de957600080fd5b614df58a828b01614443565b9095509350506080880135614e0981615840565b915060a0880135614e1981615840565b8091505092959891949750929550565b600080600060608486031215614e3e57600080fd5b83359250602084013591506040840135614ae08161581b565b8183528181602085013750600060208284010152600060207fffffffffffffffffffffffffffffffffffffffffffffffffffffffffffffffe0601f840116840101905092915050565b6000815180845260005b81811015614ec657602081850181015186830182015201614eaa565b81811115614ed8576000602083870101525b50601f017fffffffffffffffffffffffffffffffffffffffffffffffffffffffffffffffe0169290920160200192915050565b73ffffffffffffffffffffffffffffffffffffffff8316815260406020820152600082357fffffffffffffffffffffffffffffffffffffffffffffffffffffffffffffffe1843603018112614f5f57600080fd5b8301803567ffffffffffffffff811115614f7857600080fd5b803603851315614f8757600080fd5b604080850152614f9e608085018260208501614e57565b91505060208401356060840152809150509392505050565b600073ffffffffffffffffffffffffffffffffffffffff808816835286602084015285604084015260a06060840152614ff260a0840186614ea0565b91508084166080840152509695505050505050565b610100810161506982868051151582526020810151602083015260408101516040830152606081015173ffffffffffffffffffffffffffffffffffffffff8082166060850152608083015160808501528060a08401511660a085015250505050565b8360c083015273ffffffffffffffffffffffffffffffffffffffff831660e0830152949350505050565b6000604082018483526020604081850152818551808452606086019150828701935060005b8181101561431a57845173ffffffffffffffffffffffffffffffffffffffff16835293830193918301916001016150b8565b848152606060208201526000615104606083018587614e57565b905073ffffffffffffffffffffffffffffffffffffffff8316604083015295945050505050565b858152606060208201526000615145606083018688614e57565b8281036040840152615158818587614e57565b98975050505050505050565b600060e08201905085825284356020830152602085013560408301526040850135606083015260608501356151988161581b565b73ffffffffffffffffffffffffffffffffffffffff16608083015260a082019390935260c0015292915050565b8581528460208201526080604082015260006151e5608083018587614e57565b905073ffffffffffffffffffffffffffffffffffffffff831660608301529695505050505050565b86815285602082015260a06040820152600061522d60a083018688614e57565b905083606083015273ffffffffffffffffffffffffffffffffffffffff83166080830152979650505050505050565b84815283602082015260806040820152600061527b6080830185614ea0565b905073ffffffffffffffffffffffffffffffffffffffff8316606083015295945050505050565b600060808201868352602086818501528560408501526080606085015281855180845260a086019150828701935060005b8181101561534c576153398386518051151582526020810151602083015260408101516040830152606081015173ffffffffffffffffffffffffffffffffffffffff8082166060850152608083015160808501528060a08401511660a085015250505050565b9383019360c092909201916001016152d3565b50909998505050505050505050565b60405160c0810167ffffffffffffffff8111828210171561537e5761537e6157ec565b60405290565b604051610200810167ffffffffffffffff8111828210171561537e5761537e6157ec565b604051610120810167ffffffffffffffff8111828210171561537e5761537e6157ec565b6040805190810167ffffffffffffffff8111828210171561537e5761537e6157ec565b604051601f82017fffffffffffffffffffffffffffffffffffffffffffffffffffffffffffffffe016810167ffffffffffffffff81118282101715615436576154366157ec565b604052919050565b600067ffffffffffffffff821115615458576154586157ec565b5060051b60200190565b6000808212827f7fffffffffffffffffffffffffffffffffffffffffffffffffffffffffffffff0384138115161561549c5761549c61575f565b827f80000000000000000000000000000000000000000000000000000000000000000384128116156154d0576154d061575f565b50500190565b600082198211156154e9576154e961575f565b500190565b6000808312837f8000000000000000000000000000000000000000000000000000000000000000018312811516156155285761552861575f565b837f7fffffffffffffffffffffffffffffffffffffffffffffffffffffffffffffff01831381161561555c5761555c61575f565b50500390565b6000828210156155745761557461575f565b500390565b60006155876142cd8461543e565b808482526020808301925084368760051b870111156155a557600080fd5b60005b878110156156e157813567ffffffffffffffff808211156155c857600080fd5b818901915060408083360312156155de57600080fd5b6155e66153cc565b8335815286840135838111156155fb57600080fd5b939093019236601f85011261560f57600080fd5b8335925061561f6142cd8461543e565b8381528781019085890160c03681880289018c01111561563e57600080fd5b600097505b868810156156c55780823603121561565a57600080fd5b61566261535b565b823561566d81615840565b8152828c01358c820152868301358782015260608084013561568e8161581b565b908201526080838101359082015260a0808401356156ab8161581b565b90820152845260019790970196928a019290810190615643565b50508289015250885250505093820193908201906001016155a8565b50919695505050505050565b60007fffffffffffffffffffffffffffffffffffffffffffffffffffffffffffffffff82141561571f5761571f61575f565b5060010190565b60007f80000000000000000000000000000000000000000000000000000000000000008214156157585761575861575f565b5060000390565b7f4e487b7100000000000000000000000000000000000000000000000000000000600052601160045260246000fd5b7f4e487b7100000000000000000000000000000000000000000000000000000000600052601260045260246000fd5b7f4e487b7100000000000000000000000000000000000000000000000000000000600052603260045260246000fd5b7f4e487b7100000000000000000000000000000000000000000000000000000000600052604160045260246000fd5b73ffffffffffffffffffffffffffffffffffffffff8116811461583d57600080fd5b50565b801515811461583d57600080fdfea26469706673582212204336b50057f04ae157c9d617ae2839409c499140fddff3abfe0fa0a8f4a627a864736f6c63430008060033",
  "devdoc": {
    "details": "Adheres to: IJBController - general interface for the generic controller methods in this contract that interacts with funding cycles and tokens according to the protocol's rules.Inherits from: JBOperatable - several functions in this contract can only be accessed by a project owner, or an address that has been preconfifigured to be an operator of the project. ReentrencyGuard - several function in this contract shouldn't be accessible recursively.",
    "kind": "dev",
    "methods": {
      "burnTokensOf(address,uint256,uint256,string,bool)": {
        "details": "Only a token's holder, a designated operator, or a project's terminal can burn it.",
        "params": {
          "_holder": "The account that is having its tokens burned.",
          "_memo": "A memo to pass along to the emitted event.",
          "_preferClaimedTokens": "A flag indicating whether a project's attached token contract should be burned first if they have been issued.",
          "_projectId": "The ID of the project to which the tokens being burned belong.",
          "_tokenCount": "The number of tokens to burn."
        }
      },
      "changeTokenOf(uint256,address,address)": {
        "details": "Only a project's owner or operator can change its token.",
        "params": {
          "_newOwner": "An address to transfer the current token's ownership to. This is optional, but it cannot be done later.",
          "_projectId": "The ID of the project to which the changed token belongs.",
          "_token": "The new token."
        }
      },
      "constructor": {
        "params": {
          "_directory": "A contract storing directories of terminals and controllers for each project.",
          "_fundingCycleStore": "A contract storing all funding cycle configurations.",
          "_operatorStore": "A contract storing operator assignments.",
          "_projects": "A contract which mints ERC-721's that represent project ownership and transfers.",
          "_splitsStore": "A contract that stores splits for each project.",
          "_tokenStore": "A contract that manages token minting and burning."
        }
      },
      "distributeReservedTokensOf(uint256,string)": {
        "params": {
          "_memo": "A memo to pass along to the emitted event.",
          "_projectId": "The ID of the project to which the reserved tokens belong."
        },
        "returns": {
          "_0": "The amount of minted reserved tokens."
        }
      },
      "distributionLimitOf(uint256,uint256,address)": {
        "details": "The number of decimals in the returned fixed point amount is the same as that of the specified terminal. ",
        "params": {
          "_configuration": "The configuration during which the distribution limit applies.",
          "_projectId": "The ID of the project to get the distribution limit of.",
          "_terminal": "The terminal from which distributions are being limited."
        },
        "returns": {
          "_0": "The distribution limit, as a fixed point number with the same number of decimals as the provided terminal.",
          "_1": "The currency of the distribution limit."
        }
      },
      "issueTokenFor(uint256,string,string)": {
        "details": "Deploys a project's ERC20 JBToken contract.Only a project's owner or operator can issue its token.",
        "params": {
          "_name": "The ERC20's name.",
          "_projectId": "The ID of the project being issued tokens.",
          "_symbol": "The ERC20's symbol."
        }
      },
      "launchFundingCyclesFor(uint256,(uint256,uint256,uint256,address),(uint256,uint256,uint256,bool,bool,bool,bool,bool,bool,bool,bool,bool,bool,bool,bool,address),uint256,(uint256,(bool,uint256,uint256,address,uint256,address)[])[],(address,uint256,uint256,uint256,uint256)[],address[],string)": {
        "details": "Each operation within this transaction can be done in sequence separately.Only a project owner or operator can launch its funding cycles.",
        "params": {
          "_data": "Data that defines the project's first funding cycle. These properties will remain fixed for the duration of the funding cycle.",
          "_fundAccessConstraints": "An array containing amounts that a project can use from its treasury for each payment terminal. Amounts are fixed point numbers using the same number of decimals as the accompanying terminal.",
          "_groupedSplits": "An array of splits to set for any number of groups. ",
          "_memo": "A memo to pass along to the emitted event.",
          "_metadata": "Metadata specifying the controller specific params that a funding cycle can have. These properties will remain fixed for the duration of the funding cycle.",
          "_mustStartAtOrAfter": "The time before which the configured funding cycle cannot start.",
          "_projectId": "The ID of the project to launch funding cycles for.",
          "_terminals": "Payment terminals to add for the project."
        },
        "returns": {
          "configuration": "The configuration of the funding cycle that was successfully created."
        }
      },
      "launchProjectFor(address,(string,uint256),(uint256,uint256,uint256,address),(uint256,uint256,uint256,bool,bool,bool,bool,bool,bool,bool,bool,bool,bool,bool,bool,address),uint256,(uint256,(bool,uint256,uint256,address,uint256,address)[])[],(address,uint256,uint256,uint256,uint256)[],address[],string)": {
        "details": "Each operation within this transaction can be done in sequence separately.Anyone can deploy a project on an owner's behalf.",
        "params": {
          "_data": "Data that defines the project's first funding cycle. These properties will remain fixed for the duration of the funding cycle.",
          "_fundAccessConstraints": "An array containing amounts that a project can use from its treasury for each payment terminal. Amounts are fixed point numbers using the same number of decimals as the accompanying terminal.",
          "_groupedSplits": "An array of splits to set for any number of groups. ",
          "_memo": "A memo to pass along to the emitted event.",
          "_metadata": "Metadata specifying the controller specific params that a funding cycle can have. These properties will remain fixed for the duration of the funding cycle.",
          "_mustStartAtOrAfter": "The time before which the configured funding cycle cannot start.",
          "_owner": "The address to set as the owner of the project. The project ERC-721 will be owned by this address.",
          "_projectMetadata": "Metadata to associate with the project within a particular domain. This can be updated any time by the owner of the project.",
          "_terminals": "Payment terminals to add for the project."
        },
        "returns": {
          "projectId": "The ID of the project."
        }
      },
      "migrate(uint256,address)": {
        "details": "Only a project's owner or a designated operator can migrate it.",
        "params": {
          "_projectId": "The ID of the project that will be migrated from this controller.",
          "_to": "The controller to which the project is migrating."
        }
      },
      "mintTokensOf(uint256,uint256,address,string,bool,bool)": {
        "details": "Only a project's owner, a designated operator, or one of its terminals can mint its tokens.",
        "params": {
          "_beneficiary": "The account that the tokens are being minted for.",
          "_memo": "A memo to pass along to the emitted event.",
          "_preferClaimedTokens": "A flag indicating whether a project's attached token contract should be minted if they have been issued.",
          "_projectId": "The ID of the project to which the tokens being minted belong.",
          "_tokenCount": "The amount of tokens to mint in total, counting however many should be reserved.",
          "_useReservedRate": "Whether to use the current funding cycle's reserved rate in the mint calculation."
        },
        "returns": {
          "beneficiaryTokenCount": "The amount of tokens minted for the beneficiary."
        }
      },
      "overflowAllowanceOf(uint256,uint256,address)": {
        "details": "The number of decimals in the returned fixed point amount is the same as that of the specified terminal. ",
        "params": {
          "_configuration": "The configuration of the during which the allowance applies.",
          "_projectId": "The ID of the project to get the overflow allowance of.",
          "_terminal": "The terminal managing the overflow."
        },
        "returns": {
          "_0": "The overflow allowance, as a fixed point number with the same number of decimals as the provided terminal.",
          "_1": "The currency of the overflow allowance."
        }
      },
      "prepForMigrationOf(uint256,address)": {
        "details": "This controller should not yet be the project's controller.",
        "params": {
          "_from": "The controller being migrated from.",
          "_projectId": "The ID of the project that will be migrated to this controller."
        }
      },
      "reconfigureFundingCyclesOf(uint256,(uint256,uint256,uint256,address),(uint256,uint256,uint256,bool,bool,bool,bool,bool,bool,bool,bool,bool,bool,bool,bool,address),uint256,(uint256,(bool,uint256,uint256,address,uint256,address)[])[],(address,uint256,uint256,uint256,uint256)[],string)": {
        "details": "Only a project's owner or a designated operator can configure its funding cycles.",
        "params": {
          "_data": "Data that defines the funding cycle. These properties will remain fixed for the duration of the funding cycle.",
          "_fundAccessConstraints": "An array containing amounts that a project can use from its treasury for each payment terminal. Amounts are fixed point numbers using the same number of decimals as the accompanying terminal.",
          "_groupedSplits": "An array of splits to set for any number of groups. ",
          "_memo": "A memo to pass along to the emitted event.",
          "_metadata": "Metadata specifying the controller specific params that a funding cycle can have. These properties will remain fixed for the duration of the funding cycle.",
          "_mustStartAtOrAfter": "The time before which the configured funding cycle cannot start.",
          "_projectId": "The ID of the project whose funding cycles are being reconfigured."
        },
        "returns": {
          "configuration": "The configuration of the funding cycle that was successfully reconfigured."
        }
      },
      "reservedTokenBalanceOf(uint256,uint256)": {
        "params": {
          "_projectId": "The ID of the project to get a reserved token balance of.",
          "_reservedRate": "The reserved rate to use when making the calculation."
        },
        "returns": {
          "_0": "The current amount of reserved tokens."
        }
      },
      "totalOutstandingTokensOf(uint256,uint256)": {
        "params": {
          "_projectId": "The ID of the project to get total outstanding tokens of.",
          "_reservedRate": "The reserved rate to use when making the calculation."
        },
        "returns": {
          "_0": "The current total amount of outstanding tokens for the project."
        }
      }
    },
    "stateVariables": {
      "_packedDistributionLimitDataOf": {
        "details": "bits 0-247: The amount of token that a project can distribute per funding cycle.bits 248-255: The currency of amount that a project can distribute. _projectId The ID of the project to get the packed distribution limit data of. _configuration The configuration during which the packed distribution limit data applies. _terminal The terminal from which distributions are being limited."
      },
      "_packedOverflowAllowanceDataOf": {
        "details": "bits 0-247: The amount of overflow that a project is allowed to tap into on-demand throughout the configuration.bits 248-255: The currency of the amount of overflow that a project is allowed to tap. _projectId The ID of the project to get the packed overflow allowance data of. _configuration The configuration during which the packed overflow allowance data applies. _terminal The terminal managing the overflow."
      }
    },
    "version": 1
  },
  "userdoc": {
    "errors": {
      "PRBMath__MulDivOverflow(uint256,uint256)": [
        {
          "notice": "Emitted when the result overflows uint256."
        }
      ]
    },
    "kind": "user",
    "methods": {
      "burnTokensOf(address,uint256,uint256,string,bool)": {
        "notice": "Burns a token holder's supply."
      },
      "changeTokenOf(uint256,address,address)": {
        "notice": "Swap the current project's token that is minted and burned for another, and transfer ownership of the current token to another address if needed."
      },
      "directory()": {
        "notice": "The directory of terminals and controllers for projects."
      },
      "distributeReservedTokensOf(uint256,string)": {
        "notice": "Distributes all outstanding reserved tokens for a project."
      },
      "distributionLimitOf(uint256,uint256,address)": {
        "notice": "The amount of token that a project can distribute per funding cycle, and the currency it's in terms of."
      },
      "fundingCycleStore()": {
        "notice": "The contract storing all funding cycle configurations."
      },
      "issueTokenFor(uint256,string,string)": {
        "notice": "Issues an owner's ERC20 JBTokens that'll be used when claiming tokens."
      },
      "launchFundingCyclesFor(uint256,(uint256,uint256,uint256,address),(uint256,uint256,uint256,bool,bool,bool,bool,bool,bool,bool,bool,bool,bool,bool,bool,address),uint256,(uint256,(bool,uint256,uint256,address,uint256,address)[])[],(address,uint256,uint256,uint256,uint256)[],address[],string)": {
        "notice": "Creates a funding cycle for an already existing project ERC-721."
      },
      "launchProjectFor(address,(string,uint256),(uint256,uint256,uint256,address),(uint256,uint256,uint256,bool,bool,bool,bool,bool,bool,bool,bool,bool,bool,bool,bool,address),uint256,(uint256,(bool,uint256,uint256,address,uint256,address)[])[],(address,uint256,uint256,uint256,uint256)[],address[],string)": {
        "notice": "Creates a project. This will mint an ERC-721 into the specified owner's account, configure a first funding cycle, and set up any splits."
      },
      "migrate(uint256,address)": {
        "notice": "Allows a project to migrate from this controller to another."
      },
      "mintTokensOf(uint256,uint256,address,string,bool,bool)": {
        "notice": "Mint new token supply into an account, and optionally reserve a supply to be distributed according to the project's current funding cycle configuration."
      },
      "operatorStore()": {
        "notice": " A contract storing operator assignments."
      },
      "overflowAllowanceOf(uint256,uint256,address)": {
        "notice": "The amount of overflow that a project is allowed to tap into on-demand throughout a configuration, and the currency it's in terms of."
      },
      "prepForMigrationOf(uint256,address)": {
        "notice": "Allows other controllers to signal to this one that a migration is expected for the specified project."
      },
      "projects()": {
        "notice": "The Projects contract which mints ERC-721's that represent project ownership."
      },
      "reconfigureFundingCyclesOf(uint256,(uint256,uint256,uint256,address),(uint256,uint256,uint256,bool,bool,bool,bool,bool,bool,bool,bool,bool,bool,bool,bool,address),uint256,(uint256,(bool,uint256,uint256,address,uint256,address)[])[],(address,uint256,uint256,uint256,uint256)[],string)": {
        "notice": "Proposes a configuration of a subsequent funding cycle that will take effect once the current one expires if it is approved by the current funding cycle's ballot."
      },
      "reservedTokenBalanceOf(uint256,uint256)": {
        "notice": "Gets the amount of reserved tokens that a project has available to distribute."
      },
      "splitsStore()": {
        "notice": "The contract that stores splits for each project."
      },
      "tokenStore()": {
        "notice": "The contract that manages token minting and burning."
      },
      "totalOutstandingTokensOf(uint256,uint256)": {
        "notice": "Gets the current total amount of outstanding tokens for a project, given a reserved rate."
      }
    },
    "notice": "Stitches together funding cycles and community tokens, making sure all activity is accounted for and correct.",
    "version": 1
  },
  "storageLayout": {
    "storage": [
      {
        "astId": 4601,
        "contract": "contracts/JBController.sol:JBController",
        "label": "_processedTokenTrackerOf",
        "offset": 0,
        "slot": "0",
        "type": "t_mapping(t_uint256,t_int256)"
      },
      {
        "astId": 4611,
        "contract": "contracts/JBController.sol:JBController",
        "label": "_packedDistributionLimitDataOf",
        "offset": 0,
        "slot": "1",
        "type": "t_mapping(t_uint256,t_mapping(t_uint256,t_mapping(t_contract(IJBPaymentTerminal)14896,t_uint256)))"
      },
      {
        "astId": 4621,
        "contract": "contracts/JBController.sol:JBController",
        "label": "_packedOverflowAllowanceDataOf",
        "offset": 0,
        "slot": "2",
        "type": "t_mapping(t_uint256,t_mapping(t_uint256,t_mapping(t_contract(IJBPaymentTerminal)14896,t_uint256)))"
      }
    ],
    "types": {
      "t_contract(IJBPaymentTerminal)14896": {
        "encoding": "inplace",
        "label": "contract IJBPaymentTerminal",
        "numberOfBytes": "20"
      },
      "t_int256": {
        "encoding": "inplace",
        "label": "int256",
        "numberOfBytes": "32"
      },
      "t_mapping(t_contract(IJBPaymentTerminal)14896,t_uint256)": {
        "encoding": "mapping",
        "key": "t_contract(IJBPaymentTerminal)14896",
        "label": "mapping(contract IJBPaymentTerminal => uint256)",
        "numberOfBytes": "32",
        "value": "t_uint256"
      },
      "t_mapping(t_uint256,t_int256)": {
        "encoding": "mapping",
        "key": "t_uint256",
        "label": "mapping(uint256 => int256)",
        "numberOfBytes": "32",
        "value": "t_int256"
      },
      "t_mapping(t_uint256,t_mapping(t_contract(IJBPaymentTerminal)14896,t_uint256))": {
        "encoding": "mapping",
        "key": "t_uint256",
        "label": "mapping(uint256 => mapping(contract IJBPaymentTerminal => uint256))",
        "numberOfBytes": "32",
        "value": "t_mapping(t_contract(IJBPaymentTerminal)14896,t_uint256)"
      },
      "t_mapping(t_uint256,t_mapping(t_uint256,t_mapping(t_contract(IJBPaymentTerminal)14896,t_uint256)))": {
        "encoding": "mapping",
        "key": "t_uint256",
        "label": "mapping(uint256 => mapping(uint256 => mapping(contract IJBPaymentTerminal => uint256)))",
        "numberOfBytes": "32",
        "value": "t_mapping(t_uint256,t_mapping(t_contract(IJBPaymentTerminal)14896,t_uint256))"
      },
      "t_uint256": {
        "encoding": "inplace",
        "label": "uint256",
        "numberOfBytes": "32"
      }
    }
  }
}