{
  "address": "0x7b47F48361aD243b4E076BC6B34F1cb154419FD7",
  "abi": [
    {
      "inputs": [],
      "name": "ETH",
      "outputs": [
        {
          "internalType": "uint256",
          "name": "",
          "type": "uint256"
        }
      ],
      "stateMutability": "view",
      "type": "function"
    },
    {
      "inputs": [],
      "name": "USD",
      "outputs": [
        {
          "internalType": "uint256",
          "name": "",
          "type": "uint256"
        }
      ],
      "stateMutability": "view",
      "type": "function"
    }
  ],
  "transactionHash": "0xa1b341d0aed873f297e4230d8aa6f2644f2a69b5c8351567a56ebc6b1df8a4e5",
  "args": [],
  "numDeployments": 1,
  "solcInputHash": "b9f0ce443e8cbb4775420bd5109f455a",
  "bytecode": "0x6098610038600b82828239805160001a607314602b57634e487b7160e01b600052600060045260246000fd5b30600052607381538281f3fe7300000000000000000000000000000000000000003014608060405260043610603d5760003560e01c80631bf6c21b1460425780638322fff214605b575b600080fd5b6049600281565b60405190815260200160405180910390f35b604960018156fea26469706673582212203c4bfdbaa08bda967efffad8c36365b4949596a2b503daa6d1934cb6e4516ec764736f6c63430008060033",
  "devdoc": {
    "kind": "dev",
    "methods": {},
    "version": 1
  },
  "userdoc": {
    "kind": "user",
    "methods": {},
    "version": 1
  },
  "storageLayout": {
    "storage": [],
    "types": null
  }
}