{
  "address": "0xCc8f7a89d89c2AB3559f484E0C656423E979ac9C",
  "abi": [
    {
      "inputs": [],
      "name": "ETH",
      "outputs": [
        {
          "internalType": "uint256",
          "name": "",
          "type": "uint256"
        }
      ],
      "stateMutability": "view",
      "type": "function"
    },
    {
      "inputs": [],
      "name": "USD",
      "outputs": [
        {
          "internalType": "uint256",
          "name": "",
          "type": "uint256"
        }
      ],
      "stateMutability": "view",
      "type": "function"
    }
  ],
  "transactionHash": "0x12fd4d7da56965f768e56188cbb4fc7e96391407877759becd125d827c05427a",
  "args": [],
  "numDeployments": 1,
  "solcInputHash": "cfeedd60e64586c9fe70f04938d7f4c3",
  "bytecode": "0x6098610038600b82828239805160001a607314602b57634e487b7160e01b600052600060045260246000fd5b30600052607381538281f3fe7300000000000000000000000000000000000000003014608060405260043610603d5760003560e01c80631bf6c21b1460425780638322fff214605b575b600080fd5b6049600281565b60405190815260200160405180910390f35b604960018156fea26469706673582212207d47bd2bd3831f5f84f2aa3c8361da779ee993e64684b0359d7a87cbb3ceca2b64736f6c63430008060033",
  "devdoc": {
    "kind": "dev",
    "methods": {},
    "version": 1
  },
  "userdoc": {
    "kind": "user",
    "methods": {},
    "version": 1
  },
  "storageLayout": {
    "storage": [],
    "types": null
  }
}