{
  "address": "0xb7e8eb6bB402cceAF55A14E135d754D36E4736fa",
  "abi": [
    {
      "inputs": [
        {
          "internalType": "contract IJBOperatorStore",
          "name": "_operatorStore",
          "type": "address"
        },
        {
          "internalType": "contract IJBProjects",
          "name": "_projects",
          "type": "address"
        },
        {
          "internalType": "contract IJBFundingCycleStore",
          "name": "_fundingCycleStore",
          "type": "address"
        },
        {
          "internalType": "address",
          "name": "_owner",
          "type": "address"
        }
      ],
      "stateMutability": "nonpayable",
      "type": "constructor"
    },
    {
      "inputs": [],
      "name": "DUPLICATE_TERMINALS",
      "type": "error"
    },
    {
      "inputs": [],
      "name": "INVALID_PROJECT_ID_IN_DIRECTORY",
      "type": "error"
    },
    {
      "inputs": [],
      "name": "SET_CONTROLLER_NOT_ALLOWED",
      "type": "error"
    },
    {
      "inputs": [],
      "name": "SET_TERMINALS_NOT_ALLOWED",
      "type": "error"
    },
    {
      "inputs": [],
      "name": "TOKEN_NOT_ACCEPTED",
      "type": "error"
    },
    {
      "inputs": [],
      "name": "UNAUTHORIZED",
      "type": "error"
    },
    {
      "anonymous": false,
      "inputs": [
        {
          "indexed": true,
          "internalType": "uint256",
          "name": "projectId",
          "type": "uint256"
        },
        {
          "indexed": true,
          "internalType": "contract IJBPaymentTerminal",
          "name": "terminal",
          "type": "address"
        },
        {
          "indexed": false,
          "internalType": "address",
          "name": "caller",
          "type": "address"
        }
      ],
      "name": "AddTerminal",
      "type": "event"
    },
    {
      "anonymous": false,
      "inputs": [
        {
          "indexed": true,
          "internalType": "address",
          "name": "previousOwner",
          "type": "address"
        },
        {
          "indexed": true,
          "internalType": "address",
          "name": "newOwner",
          "type": "address"
        }
      ],
      "name": "OwnershipTransferred",
      "type": "event"
    },
    {
      "anonymous": false,
      "inputs": [
        {
          "indexed": true,
          "internalType": "uint256",
          "name": "projectId",
          "type": "uint256"
        },
        {
          "indexed": true,
          "internalType": "contract IJBController",
          "name": "controller",
          "type": "address"
        },
        {
          "indexed": false,
          "internalType": "address",
          "name": "caller",
          "type": "address"
        }
      ],
      "name": "SetController",
      "type": "event"
    },
    {
      "anonymous": false,
      "inputs": [
        {
          "indexed": true,
          "internalType": "address",
          "name": "addr",
          "type": "address"
        },
        {
          "indexed": true,
          "internalType": "bool",
          "name": "flag",
          "type": "bool"
        },
        {
          "indexed": false,
          "internalType": "address",
          "name": "caller",
          "type": "address"
        }
      ],
      "name": "SetIsAllowedToSetFirstController",
      "type": "event"
    },
    {
      "anonymous": false,
      "inputs": [
        {
          "indexed": true,
          "internalType": "uint256",
          "name": "projectId",
          "type": "uint256"
        },
        {
          "indexed": true,
          "internalType": "address",
          "name": "token",
          "type": "address"
        },
        {
          "indexed": true,
          "internalType": "contract IJBPaymentTerminal",
          "name": "terminal",
          "type": "address"
        },
        {
          "indexed": false,
          "internalType": "address",
          "name": "caller",
          "type": "address"
        }
      ],
      "name": "SetPrimaryTerminal",
      "type": "event"
    },
    {
      "anonymous": false,
      "inputs": [
        {
          "indexed": true,
          "internalType": "uint256",
          "name": "projectId",
          "type": "uint256"
        },
        {
          "indexed": false,
          "internalType": "contract IJBPaymentTerminal[]",
          "name": "terminals",
          "type": "address[]"
        },
        {
          "indexed": false,
          "internalType": "address",
          "name": "caller",
          "type": "address"
        }
      ],
      "name": "SetTerminals",
      "type": "event"
    },
    {
      "inputs": [
        {
          "internalType": "uint256",
          "name": "",
          "type": "uint256"
        }
      ],
      "name": "controllerOf",
      "outputs": [
        {
          "internalType": "contract IJBController",
          "name": "",
          "type": "address"
        }
      ],
      "stateMutability": "view",
      "type": "function"
    },
    {
      "inputs": [],
      "name": "fundingCycleStore",
      "outputs": [
        {
          "internalType": "contract IJBFundingCycleStore",
          "name": "",
          "type": "address"
        }
      ],
      "stateMutability": "view",
      "type": "function"
    },
    {
      "inputs": [
        {
          "internalType": "address",
          "name": "",
          "type": "address"
        }
      ],
      "name": "isAllowedToSetFirstController",
      "outputs": [
        {
          "internalType": "bool",
          "name": "",
          "type": "bool"
        }
      ],
      "stateMutability": "view",
      "type": "function"
    },
    {
      "inputs": [
        {
          "internalType": "uint256",
          "name": "_projectId",
          "type": "uint256"
        },
        {
          "internalType": "contract IJBPaymentTerminal",
          "name": "_terminal",
          "type": "address"
        }
      ],
      "name": "isTerminalOf",
      "outputs": [
        {
          "internalType": "bool",
          "name": "",
          "type": "bool"
        }
      ],
      "stateMutability": "view",
      "type": "function"
    },
    {
      "inputs": [],
      "name": "operatorStore",
      "outputs": [
        {
          "internalType": "contract IJBOperatorStore",
          "name": "",
          "type": "address"
        }
      ],
      "stateMutability": "view",
      "type": "function"
    },
    {
      "inputs": [],
      "name": "owner",
      "outputs": [
        {
          "internalType": "address",
          "name": "",
          "type": "address"
        }
      ],
      "stateMutability": "view",
      "type": "function"
    },
    {
      "inputs": [
        {
          "internalType": "uint256",
          "name": "_projectId",
          "type": "uint256"
        },
        {
          "internalType": "address",
          "name": "_token",
          "type": "address"
        }
      ],
      "name": "primaryTerminalOf",
      "outputs": [
        {
          "internalType": "contract IJBPaymentTerminal",
          "name": "",
          "type": "address"
        }
      ],
      "stateMutability": "view",
      "type": "function"
    },
    {
      "inputs": [],
      "name": "projects",
      "outputs": [
        {
          "internalType": "contract IJBProjects",
          "name": "",
          "type": "address"
        }
      ],
      "stateMutability": "view",
      "type": "function"
    },
    {
      "inputs": [],
      "name": "renounceOwnership",
      "outputs": [],
      "stateMutability": "nonpayable",
      "type": "function"
    },
    {
      "inputs": [
        {
          "internalType": "uint256",
          "name": "_projectId",
          "type": "uint256"
        },
        {
          "internalType": "contract IJBController",
          "name": "_controller",
          "type": "address"
        }
      ],
      "name": "setControllerOf",
      "outputs": [],
      "stateMutability": "nonpayable",
      "type": "function"
    },
    {
      "inputs": [
        {
          "internalType": "address",
          "name": "_address",
          "type": "address"
        },
        {
          "internalType": "bool",
          "name": "_flag",
          "type": "bool"
        }
      ],
      "name": "setIsAllowedToSetFirstController",
      "outputs": [],
      "stateMutability": "nonpayable",
      "type": "function"
    },
    {
      "inputs": [
        {
          "internalType": "uint256",
          "name": "_projectId",
          "type": "uint256"
        },
        {
          "internalType": "address",
          "name": "_token",
          "type": "address"
        },
        {
          "internalType": "contract IJBPaymentTerminal",
          "name": "_terminal",
          "type": "address"
        }
      ],
      "name": "setPrimaryTerminalOf",
      "outputs": [],
      "stateMutability": "nonpayable",
      "type": "function"
    },
    {
      "inputs": [
        {
          "internalType": "uint256",
          "name": "_projectId",
          "type": "uint256"
        },
        {
          "internalType": "contract IJBPaymentTerminal[]",
          "name": "_terminals",
          "type": "address[]"
        }
      ],
      "name": "setTerminalsOf",
      "outputs": [],
      "stateMutability": "nonpayable",
      "type": "function"
    },
    {
      "inputs": [
        {
          "internalType": "uint256",
          "name": "_projectId",
          "type": "uint256"
        }
      ],
      "name": "terminalsOf",
      "outputs": [
        {
          "internalType": "contract IJBPaymentTerminal[]",
          "name": "",
          "type": "address[]"
        }
      ],
      "stateMutability": "view",
      "type": "function"
    },
    {
      "inputs": [
        {
          "internalType": "address",
          "name": "newOwner",
          "type": "address"
        }
      ],
      "name": "transferOwnership",
      "outputs": [],
      "stateMutability": "nonpayable",
      "type": "function"
    }
  ],
  "transactionHash": "0x8d8c068423e5bdff8af888c20fb02dda961979bcf7f93cd2769d9efb7c46aba2",
  "args": [
    "0xA2e4ffE69A28226858A70D3fba94C10C53088029",
    "0xe63eCb9784D96E5D9be81b8b78c550Be309acb26",
    "0x3939f9f5EB709Cf346058204D0a0BD589F89a66a",
    "0xE9bE6df23C7f9CaBa3005DA2fa2d8714d340D0aF"
  ],
  "numDeployments": 1,
  "solcInputHash": "122fb715eefa62c2e442108fed43e375",
  "bytecode": "0x60e06040523480156200001157600080fd5b5060405162001fd238038062001fd28339810160408190526200003491620000d0565b606084901b6001600160601b031916608052620000513362000080565b6001600160601b0319606084811b821660a05283901b1660c052620000768162000080565b5050505062000151565b600080546001600160a01b038381166001600160a01b0319831681178455604051919092169283917f8be0079c531659141344cd1fd0a4f28419497f9722a3daafe3b4186f6b6457e09190a35050565b60008060008060808587031215620000e757600080fd5b8451620000f48162000138565b6020860151909450620001078162000138565b60408601519093506200011a8162000138565b60608601519092506200012d8162000138565b939692955090935050565b6001600160a01b03811681146200014e57600080fd5b50565b60805160601c60a05160601c60c05160601c611dfc620001d66000396000818160ff015281816107fe01528181610b7f01526114b50152600081816101ff015281816102fe015281816105e7015281816106f80152610a86015260008181610257015281816112dc015281816113b8015281816116dc01526117b80152611dfc6000f3fe608060405234801561001057600080fd5b50600436106100f55760003560e01c80638620265011610097578063ad007d6311610066578063ad007d6314610252578063c5664e2114610279578063d17541531461029c578063f2fde38b146102bc57600080fd5b806386202650146101e75780638b79543c146101fa5780638da5cb5b14610221578063a1ed31751461023f57600080fd5b80636e49181f116100d35780636e49181f14610196578063714e7f32146101b9578063715018a6146101cc578063821b9fd8146101d457600080fd5b8063557e7155146100fa5780635dd8f6aa1461014b57806363d0850a14610181575b600080fd5b6101217f000000000000000000000000000000000000000000000000000000000000000081565b60405173ffffffffffffffffffffffffffffffffffffffff90911681526020015b60405180910390f35b610121610159366004611aaa565b60036020526000908152604090205473ffffffffffffffffffffffffffffffffffffffff1681565b61019461018f366004611b01565b6102cf565b005b6101a96101a4366004611adc565b610515565b6040519015158152602001610142565b6101946101c7366004611adc565b6105b8565b6101946109c5565b6101946101e2366004611b43565b610a57565b6101216101f5366004611adc565b610dee565b6101217f000000000000000000000000000000000000000000000000000000000000000081565b60005473ffffffffffffffffffffffffffffffffffffffff16610121565b61019461024d3660046119d4565b610fab565b6101217f000000000000000000000000000000000000000000000000000000000000000081565b6101a9610287366004611993565b60046020526000908152604090205460ff1681565b6102af6102aa366004611aaa565b6110b9565b6040516101429190611c3c565b6101946102ca366004611993565b611132565b6040517f6352211e000000000000000000000000000000000000000000000000000000008152600481018490527f000000000000000000000000000000000000000000000000000000000000000073ffffffffffffffffffffffffffffffffffffffff1690636352211e9060240160206040518083038186803b15801561035557600080fd5b505afa158015610369573d6000803e3d6000fd5b505050506040513d601f19601f8201168201806040525081019061038d91906119b7565b83601061039b838383611262565b6040517f868399a500000000000000000000000000000000000000000000000000000000815273ffffffffffffffffffffffffffffffffffffffff868116600483015285169063868399a59060240160206040518083038186803b15801561040257600080fd5b505afa158015610416573d6000803e3d6000fd5b505050506040513d601f19601f8201168201806040525081019061043a9190611a0d565b610470576040517f1f5522f600000000000000000000000000000000000000000000000000000000815260040160405180910390fd5b61047a8685611470565b600086815260026020908152604080832073ffffffffffffffffffffffffffffffffffffffff8981168086529184529382902080547fffffffffffffffffffffffff00000000000000000000000000000000000000001694891694851790559051338152909189917fc670a502bbb9f8a4315f95eca901a9f99b65f89a2eb5705a58050e5c00f9d672910160405180910390a4505050505050565b6000805b6000848152600160205260409020548110156105ac576000848152600160205260409020805473ffffffffffffffffffffffffffffffffffffffff851691908390811061056857610568611d67565b60009182526020909120015473ffffffffffffffffffffffffffffffffffffffff16141561059a5760019150506105b2565b806105a481611cff565b915050610519565b50600090505b92915050565b6040517f6352211e000000000000000000000000000000000000000000000000000000008152600481018390527f000000000000000000000000000000000000000000000000000000000000000073ffffffffffffffffffffffffffffffffffffffff1690636352211e9060240160206040518083038186803b15801561063e57600080fd5b505afa158015610652573d6000803e3d6000fd5b505050506040513d601f19601f8201168201806040525081019061067691906119b7565b6000838152600360205260409020548390600e9073ffffffffffffffffffffffffffffffffffffffff163314806106e957503360009081526004602052604090205460ff1680156106e9575060008581526003602052604090205473ffffffffffffffffffffffffffffffffffffffff16155b6106f584848484611658565b857f000000000000000000000000000000000000000000000000000000000000000073ffffffffffffffffffffffffffffffffffffffff166306661abd6040518163ffffffff1660e01b815260040160206040518083038186803b15801561075c57600080fd5b505afa158015610770573d6000803e3d6000fd5b505050506040513d601f19601f820116820180604052508101906107949190611ac3565b10156107cc576040517f945074a600000000000000000000000000000000000000000000000000000000815260040160405180910390fd5b6040517f43a266c2000000000000000000000000000000000000000000000000000000008152600481018790526000907f000000000000000000000000000000000000000000000000000000000000000073ffffffffffffffffffffffffffffffffffffffff16906343a266c2906024016101206040518083038186803b15801561085657600080fd5b505afa15801561086a573d6000803e3d6000fd5b505050506040513d601f19601f8201168201806040525081019061088e9190611a2a565b60008881526003602052604090205490915073ffffffffffffffffffffffffffffffffffffffff1633148015906108e8575060008781526003602052604090205473ffffffffffffffffffffffffffffffffffffffff1615155b8015610900575061010081015160411c600190811614155b15610937576040517fa33db4cb00000000000000000000000000000000000000000000000000000000815260040160405180910390fd5b60008781526003602090815260409182902080547fffffffffffffffffffffffff00000000000000000000000000000000000000001673ffffffffffffffffffffffffffffffffffffffff8a16908117909155915133815289917f7f9a7dcb234c909a09de2f344661ad9e5b24067adb97c908647c2edcbb121c30910160405180910390a350505050505050565b60005473ffffffffffffffffffffffffffffffffffffffff163314610a4b576040517f08c379a000000000000000000000000000000000000000000000000000000000815260206004820181905260248201527f4f776e61626c653a2063616c6c6572206973206e6f7420746865206f776e657260448201526064015b60405180910390fd5b610a556000611871565b565b6040517f6352211e000000000000000000000000000000000000000000000000000000008152600481018490527f000000000000000000000000000000000000000000000000000000000000000073ffffffffffffffffffffffffffffffffffffffff1690636352211e9060240160206040518083038186803b158015610add57600080fd5b505afa158015610af1573d6000803e3d6000fd5b505050506040513d601f19601f82011682018060405250810190610b1591906119b7565b6000848152600360205260409020548490600f9073ffffffffffffffffffffffffffffffffffffffff163314610b4d84848484611658565b6040517f43a266c2000000000000000000000000000000000000000000000000000000008152600481018890526000907f000000000000000000000000000000000000000000000000000000000000000073ffffffffffffffffffffffffffffffffffffffff16906343a266c2906024016101206040518083038186803b158015610bd757600080fd5b505afa158015610beb573d6000803e3d6000fd5b505050506040513d601f19601f82011682018060405250810190610c0f9190611a2a565b60008981526003602052604090205490915073ffffffffffffffffffffffffffffffffffffffff163314801590610c52575061010081015160401c600190811614155b15610c89576040517febfde6be00000000000000000000000000000000000000000000000000000000815260040160405180910390fd5b6000888152600160205260409020610ca29088886118e6565b506001861115610da85760005b86811015610da6576000610cc4826001611ce7565b90505b87811015610d9357888882818110610ce157610ce1611d67565b9050602002016020810190610cf69190611993565b73ffffffffffffffffffffffffffffffffffffffff16898984818110610d1e57610d1e611d67565b9050602002016020810190610d339190611993565b73ffffffffffffffffffffffffffffffffffffffff161415610d81576040517f7c70615600000000000000000000000000000000000000000000000000000000815260040160405180910390fd5b80610d8b81611cff565b915050610cc7565b5080610d9e81611cff565b915050610caf565b505b877fb648241d83df6540fc10f2acc641e4bf80a1e84e7ae2f1f6b0ad204b8fee635b888833604051610ddc93929190611bc2565b60405180910390a25050505050505050565b600082815260026020908152604080832073ffffffffffffffffffffffffffffffffffffffff858116855292528220541615801590610e655750600083815260026020908152604080832073ffffffffffffffffffffffffffffffffffffffff8087168552925290912054610e6591859116610515565b15610ea25750600082815260026020908152604080832073ffffffffffffffffffffffffffffffffffffffff8086168552925290912054166105b2565b60005b6000848152600160205260409020548110156105ac576000848152600160205260408120805483908110610edb57610edb611d67565b6000918252602090912001546040517f868399a500000000000000000000000000000000000000000000000000000000815273ffffffffffffffffffffffffffffffffffffffff86811660048301529091169150819063868399a59060240160206040518083038186803b158015610f5257600080fd5b505afa158015610f66573d6000803e3d6000fd5b505050506040513d601f19601f82011682018060405250810190610f8a9190611a0d565b15610f985791506105b29050565b5080610fa381611cff565b915050610ea5565b60005473ffffffffffffffffffffffffffffffffffffffff16331461102c576040517f08c379a000000000000000000000000000000000000000000000000000000000815260206004820181905260248201527f4f776e61626c653a2063616c6c6572206973206e6f7420746865206f776e65726044820152606401610a42565b73ffffffffffffffffffffffffffffffffffffffff821660008181526004602090815260409182902080547fffffffffffffffffffffffffffffffffffffffffffffffffffffffffffffff001685151590811790915591513381529192917f11207664cc48b0fa81c8674795f1d8f642960f38d5d2d305ad813093bed85fab910160405180910390a35050565b60008181526001602090815260409182902080548351818402810184019094528084526060939283018282801561112657602002820191906000526020600020905b815473ffffffffffffffffffffffffffffffffffffffff1681526001909101906020018083116110fb575b50505050509050919050565b60005473ffffffffffffffffffffffffffffffffffffffff1633146111b3576040517f08c379a000000000000000000000000000000000000000000000000000000000815260206004820181905260248201527f4f776e61626c653a2063616c6c6572206973206e6f7420746865206f776e65726044820152606401610a42565b73ffffffffffffffffffffffffffffffffffffffff8116611256576040517f08c379a000000000000000000000000000000000000000000000000000000000815260206004820152602660248201527f4f776e61626c653a206e6577206f776e657220697320746865207a65726f206160448201527f64647265737300000000000000000000000000000000000000000000000000006064820152608401610a42565b61125f81611871565b50565b3373ffffffffffffffffffffffffffffffffffffffff84161480159061135857506040517fc161c93f00000000000000000000000000000000000000000000000000000000815233600482015273ffffffffffffffffffffffffffffffffffffffff848116602483015260448201849052606482018390527f0000000000000000000000000000000000000000000000000000000000000000169063c161c93f9060840160206040518083038186803b15801561131e57600080fd5b505afa158015611332573d6000803e3d6000fd5b505050506040513d601f19601f820116820180604052508101906113569190611a0d565b155b801561143457506040517fc161c93f00000000000000000000000000000000000000000000000000000000815233600482015273ffffffffffffffffffffffffffffffffffffffff848116602483015260006044830152606482018390527f0000000000000000000000000000000000000000000000000000000000000000169063c161c93f9060840160206040518083038186803b1580156113fa57600080fd5b505afa15801561140e573d6000803e3d6000fd5b505050506040513d601f19601f820116820180604052508101906114329190611a0d565b155b1561146b576040517f075fd2b100000000000000000000000000000000000000000000000000000000815260040160405180910390fd5b505050565b61147a8282610515565b15611483575050565b6040517f43a266c2000000000000000000000000000000000000000000000000000000008152600481018390526000907f000000000000000000000000000000000000000000000000000000000000000073ffffffffffffffffffffffffffffffffffffffff16906343a266c2906024016101206040518083038186803b15801561150d57600080fd5b505afa158015611521573d6000803e3d6000fd5b505050506040513d601f19601f820116820180604052508101906115459190611a2a565b60008481526003602052604090205490915073ffffffffffffffffffffffffffffffffffffffff163314801590611588575061010081015160401c600190811614155b156115bf576040517febfde6be00000000000000000000000000000000000000000000000000000000815260040160405180910390fd5b60008381526001602081815260408084208054938401815584529281902090910180547fffffffffffffffffffffffff00000000000000000000000000000000000000001673ffffffffffffffffffffffffffffffffffffffff8616908117909155915133815285917f409bccc07b7cf7807930526a24318212d614c59f2dde05a017a41efee144e7c8910160405180910390a3505050565b8015801561167c57503373ffffffffffffffffffffffffffffffffffffffff851614155b801561175857506040517fc161c93f00000000000000000000000000000000000000000000000000000000815233600482015273ffffffffffffffffffffffffffffffffffffffff858116602483015260448201859052606482018490527f0000000000000000000000000000000000000000000000000000000000000000169063c161c93f9060840160206040518083038186803b15801561171e57600080fd5b505afa158015611732573d6000803e3d6000fd5b505050506040513d601f19601f820116820180604052508101906117569190611a0d565b155b801561183457506040517fc161c93f00000000000000000000000000000000000000000000000000000000815233600482015273ffffffffffffffffffffffffffffffffffffffff858116602483015260006044830152606482018490527f0000000000000000000000000000000000000000000000000000000000000000169063c161c93f9060840160206040518083038186803b1580156117fa57600080fd5b505afa15801561180e573d6000803e3d6000fd5b505050506040513d601f19601f820116820180604052508101906118329190611a0d565b155b1561186b576040517f075fd2b100000000000000000000000000000000000000000000000000000000815260040160405180910390fd5b50505050565b6000805473ffffffffffffffffffffffffffffffffffffffff8381167fffffffffffffffffffffffff0000000000000000000000000000000000000000831681178455604051919092169283917f8be0079c531659141344cd1fd0a4f28419497f9722a3daafe3b4186f6b6457e09190a35050565b82805482825590600052602060002090810192821561195e579160200282015b8281111561195e5781547fffffffffffffffffffffffff00000000000000000000000000000000000000001673ffffffffffffffffffffffffffffffffffffffff843516178255602090920191600190910190611906565b5061196a92915061196e565b5090565b5b8082111561196a576000815560010161196f565b805161198e81611d96565b919050565b6000602082840312156119a557600080fd5b81356119b081611d96565b9392505050565b6000602082840312156119c957600080fd5b81516119b081611d96565b600080604083850312156119e757600080fd5b82356119f281611d96565b91506020830135611a0281611db8565b809150509250929050565b600060208284031215611a1f57600080fd5b81516119b081611db8565b60006101208284031215611a3d57600080fd5b611a45611c96565b825181526020830151602082015260408301516040820152606083015160608201526080830151608082015260a083015160a082015260c083015160c0820152611a9160e08401611983565b60e0820152610100928301519281019290925250919050565b600060208284031215611abc57600080fd5b5035919050565b600060208284031215611ad557600080fd5b5051919050565b60008060408385031215611aef57600080fd5b823591506020830135611a0281611d96565b600080600060608486031215611b1657600080fd5b833592506020840135611b2881611d96565b91506040840135611b3881611d96565b809150509250925092565b600080600060408486031215611b5857600080fd5b83359250602084013567ffffffffffffffff80821115611b7757600080fd5b818601915086601f830112611b8b57600080fd5b813581811115611b9a57600080fd5b8760208260051b8501011115611baf57600080fd5b6020830194508093505050509250925092565b6040808252810183905260008460608301825b86811015611c12578235611be881611d96565b73ffffffffffffffffffffffffffffffffffffffff16825260209283019290910190600101611bd5565b50809250505073ffffffffffffffffffffffffffffffffffffffff83166020830152949350505050565b6020808252825182820181905260009190848201906040850190845b81811015611c8a57835173ffffffffffffffffffffffffffffffffffffffff1683529284019291840191600101611c58565b50909695505050505050565b604051610120810167ffffffffffffffff81118282101715611ce1577f4e487b7100000000000000000000000000000000000000000000000000000000600052604160045260246000fd5b60405290565b60008219821115611cfa57611cfa611d38565b500190565b60007fffffffffffffffffffffffffffffffffffffffffffffffffffffffffffffffff821415611d3157611d31611d38565b5060010190565b7f4e487b7100000000000000000000000000000000000000000000000000000000600052601160045260246000fd5b7f4e487b7100000000000000000000000000000000000000000000000000000000600052603260045260246000fd5b73ffffffffffffffffffffffffffffffffffffffff8116811461125f57600080fd5b801515811461125f57600080fdfea2646970667358221220c499bf0804a4201e4ea0cbbeb1ca11930c8c68833c41f34adc813a298b167e5464736f6c63430008060033",
  "devdoc": {
    "details": "Adheres to: IJBDirectory: General interface for the methods in this contract that interact with the blockchain's state according to the protocol's rules.Inherits from: JBOperatable: Includes convenience functionality for checking a message sender's permissions before executing certain transactions. Ownable: Includes convenience functionality for checking a message sender's permissions before executing certain transactions.",
    "kind": "dev",
    "methods": {
      "constructor": {
        "params": {
          "_fundingCycleStore": "A contract storing all funding cycle configurations.",
          "_operatorStore": "A contract storing operator assignments.",
          "_owner": "The address that will own the contract.",
          "_projects": "A contract which mints ERC-721's that represent project ownership and transfers."
        }
      },
      "isTerminalOf(uint256,address)": {
        "params": {
          "_projectId": "The ID of the project to check within.",
          "_terminal": "The address of the terminal to check for."
        },
        "returns": {
          "_0": "A flag indicating whether or not the specified terminal is a terminal of the specified project."
        }
      },
      "owner()": {
        "details": "Returns the address of the current owner."
      },
      "primaryTerminalOf(uint256,address)": {
        "details": "The zero address is returned if a terminal isn't found for the specified token.",
        "params": {
          "_projectId": "The ID of the project to get a terminal for.",
          "_token": "The token the terminal accepts."
        },
        "returns": {
          "_0": "The primary terminal for the project for the specified token."
        }
      },
      "renounceOwnership()": {
        "details": "Leaves the contract without owner. It will not be possible to call `onlyOwner` functions anymore. Can only be called by the current owner. NOTE: Renouncing ownership will leave the contract without an owner, thereby removing any functionality that is only available to the owner."
      },
      "setControllerOf(uint256,address)": {
        "details": "A controller can be set if: - the message sender is the project owner or an operator having the correct authorization. - the message sender is the project's current controller. - or, an allowedlisted address is setting a controller for a project that doesn't already have a controller.",
        "params": {
          "_controller": "The new controller to set.",
          "_projectId": "The ID of the project to set a new controller for."
        }
      },
      "setIsAllowedToSetFirstController(address,bool)": {
        "details": "The owner can add addresses which are allowed to change projects' first controllers.  These addresses are known and vetted controllers as well as contracts designed to launch new projects.  A project can set its own controller without it being on the allow list.If you would like an address/contract allowlisted, please reach out to the contract owner.",
        "params": {
          "_address": "The address to allow or revoke allowance from.",
          "_flag": "Whether allowance is being added or revoked."
        }
      },
      "setPrimaryTerminalOf(uint256,address,address)": {
        "details": "The terminal will be set as the primary terminal where ecosystem contracts should route tokens.If setting a newly added terminal and the funding cycle doesn't allow new terminals, the caller must be the current controller.",
        "params": {
          "_projectId": "The ID of the project for which a primary token is being set.",
          "_terminal": "The terminal to make primary.",
          "_token": "The token to set the primary terminal of."
        }
      },
      "setTerminalsOf(uint256,address[])": {
        "details": "Only a project owner, an operator, or its controller can set its terminals.",
        "params": {
          "_projectId": "The ID of the project having terminals set.",
          "_terminals": "The terminal to set."
        }
      },
      "terminalsOf(uint256)": {
        "params": {
          "_projectId": "The ID of the project to get terminals of."
        },
        "returns": {
          "_0": "An array of terminal addresses."
        }
      },
      "transferOwnership(address)": {
        "details": "Transfers ownership of the contract to a new account (`newOwner`). Can only be called by the current owner."
      }
    },
    "version": 1
  },
  "userdoc": {
    "kind": "user",
    "methods": {
      "controllerOf(uint256)": {
        "notice": " For each project ID, the controller that manages how terminals interact with tokens and funding cycles. _projectId The ID of the project to get the controller of."
      },
      "fundingCycleStore()": {
        "notice": "The contract storing all funding cycle configurations."
      },
      "isAllowedToSetFirstController(address)": {
        "notice": "Addresses that can set a project's first controller on their behalf. These addresses/contracts have been vetted and verified by this contract's owner. _address The address that is either allowed or not."
      },
      "isTerminalOf(uint256,address)": {
        "notice": "Whether or not a specified terminal is a terminal of the specified project."
      },
      "operatorStore()": {
        "notice": " A contract storing operator assignments."
      },
      "primaryTerminalOf(uint256,address)": {
        "notice": "The primary terminal that is managing funds for a project for a specified token."
      },
      "projects()": {
        "notice": "Mints ERC-721's that represent project ownership and transfers."
      },
      "setControllerOf(uint256,address)": {
        "notice": "Update the controller that manages how terminals interact with the ecosystem."
      },
      "setIsAllowedToSetFirstController(address,bool)": {
        "notice": " Set a contract to the list of trusted addresses that can set a first controller for any project.\t"
      },
      "setPrimaryTerminalOf(uint256,address,address)": {
        "notice": "Project's can set which terminal should be their primary for a particular token. This is useful in case a project has several terminals connected for a particular token."
      },
      "setTerminalsOf(uint256,address[])": {
        "notice": " Set a project's terminals."
      },
      "terminalsOf(uint256)": {
        "notice": "For each project ID, the terminals that are currently managing its funds."
      }
    },
    "notice": "Keeps a reference of which terminal contracts each project is currently accepting funds through, and which controller contract is managing each project's tokens and funding cycles.",
    "version": 1
  },
  "storageLayout": {
    "storage": [
      {
        "astId": 53,
        "contract": "contracts/JBDirectory.sol:JBDirectory",
        "label": "_owner",
        "offset": 0,
        "slot": "0",
        "type": "t_address"
      },
      {
        "astId": 6284,
        "contract": "contracts/JBDirectory.sol:JBDirectory",
        "label": "_terminalsOf",
        "offset": 0,
        "slot": "1",
        "type": "t_mapping(t_uint256,t_array(t_contract(IJBPaymentTerminal)17004)dyn_storage)"
      },
      {
        "astId": 6292,
        "contract": "contracts/JBDirectory.sol:JBDirectory",
        "label": "_primaryTerminalOf",
        "offset": 0,
        "slot": "2",
        "type": "t_mapping(t_uint256,t_mapping(t_address,t_contract(IJBPaymentTerminal)17004))"
      },
      {
        "astId": 6309,
        "contract": "contracts/JBDirectory.sol:JBDirectory",
        "label": "controllerOf",
        "offset": 0,
        "slot": "3",
        "type": "t_mapping(t_uint256,t_contract(IJBController)16427)"
      },
      {
        "astId": 6315,
        "contract": "contracts/JBDirectory.sol:JBDirectory",
        "label": "isAllowedToSetFirstController",
        "offset": 0,
        "slot": "4",
        "type": "t_mapping(t_address,t_bool)"
      }
    ],
    "types": {
      "t_address": {
        "encoding": "inplace",
        "label": "address",
        "numberOfBytes": "20"
      },
      "t_array(t_contract(IJBPaymentTerminal)17004)dyn_storage": {
        "base": "t_contract(IJBPaymentTerminal)17004",
        "encoding": "dynamic_array",
        "label": "contract IJBPaymentTerminal[]",
        "numberOfBytes": "32"
      },
      "t_bool": {
        "encoding": "inplace",
        "label": "bool",
        "numberOfBytes": "1"
      },
      "t_contract(IJBController)16427": {
        "encoding": "inplace",
        "label": "contract IJBController",
        "numberOfBytes": "20"
      },
      "t_contract(IJBPaymentTerminal)17004": {
        "encoding": "inplace",
        "label": "contract IJBPaymentTerminal",
        "numberOfBytes": "20"
      },
      "t_mapping(t_address,t_bool)": {
        "encoding": "mapping",
        "key": "t_address",
        "label": "mapping(address => bool)",
        "numberOfBytes": "32",
        "value": "t_bool"
      },
      "t_mapping(t_address,t_contract(IJBPaymentTerminal)17004)": {
        "encoding": "mapping",
        "key": "t_address",
        "label": "mapping(address => contract IJBPaymentTerminal)",
        "numberOfBytes": "32",
        "value": "t_contract(IJBPaymentTerminal)17004"
      },
      "t_mapping(t_uint256,t_array(t_contract(IJBPaymentTerminal)17004)dyn_storage)": {
        "encoding": "mapping",
        "key": "t_uint256",
        "label": "mapping(uint256 => contract IJBPaymentTerminal[])",
        "numberOfBytes": "32",
        "value": "t_array(t_contract(IJBPaymentTerminal)17004)dyn_storage"
      },
      "t_mapping(t_uint256,t_contract(IJBController)16427)": {
        "encoding": "mapping",
        "key": "t_uint256",
        "label": "mapping(uint256 => contract IJBController)",
        "numberOfBytes": "32",
        "value": "t_contract(IJBController)16427"
      },
      "t_mapping(t_uint256,t_mapping(t_address,t_contract(IJBPaymentTerminal)17004))": {
        "encoding": "mapping",
        "key": "t_uint256",
        "label": "mapping(uint256 => mapping(address => contract IJBPaymentTerminal))",
        "numberOfBytes": "32",
        "value": "t_mapping(t_address,t_contract(IJBPaymentTerminal)17004)"
      },
      "t_uint256": {
        "encoding": "inplace",
        "label": "uint256",
        "numberOfBytes": "32"
      }
    }
  }
}