{
  "address": "0xC9aB3626ACB308C48feb4833B9d9F6ED9111AEce",
  "abi": [
    {
      "inputs": [
        {
          "internalType": "contract IJBOperatorStore",
          "name": "_operatorStore",
          "type": "address"
        },
        {
          "internalType": "contract IJBProjects",
          "name": "_projects",
          "type": "address"
        },
        {
          "internalType": "address",
          "name": "_owner",
          "type": "address"
        }
      ],
      "stateMutability": "nonpayable",
      "type": "constructor"
    },
    {
      "inputs": [],
      "name": "DUPLICATE_TERMINALS",
      "type": "error"
    },
    {
      "inputs": [],
      "name": "INVALID_PROJECT_ID_IN_DIRECTORY",
      "type": "error"
    },
    {
      "inputs": [],
      "name": "UNAUTHORIZED",
      "type": "error"
    },
    {
      "anonymous": false,
      "inputs": [
        {
          "indexed": true,
          "internalType": "uint256",
          "name": "projectId",
          "type": "uint256"
        },
        {
          "indexed": true,
          "internalType": "contract IJBPaymentTerminal",
          "name": "terminal",
          "type": "address"
        },
        {
          "indexed": false,
          "internalType": "address",
          "name": "caller",
          "type": "address"
        }
      ],
      "name": "AddTerminal",
      "type": "event"
    },
    {
      "anonymous": false,
      "inputs": [
        {
          "indexed": true,
          "internalType": "address",
          "name": "previousOwner",
          "type": "address"
        },
        {
          "indexed": true,
          "internalType": "address",
          "name": "newOwner",
          "type": "address"
        }
      ],
      "name": "OwnershipTransferred",
      "type": "event"
    },
    {
      "anonymous": false,
      "inputs": [
        {
          "indexed": true,
          "internalType": "uint256",
          "name": "projectId",
          "type": "uint256"
        },
        {
          "indexed": true,
          "internalType": "contract IJBController",
          "name": "controller",
          "type": "address"
        },
        {
          "indexed": false,
          "internalType": "address",
          "name": "caller",
          "type": "address"
        }
      ],
      "name": "SetController",
      "type": "event"
    },
    {
      "anonymous": false,
      "inputs": [
        {
          "indexed": true,
          "internalType": "address",
          "name": "addr",
          "type": "address"
        },
        {
          "indexed": true,
          "internalType": "bool",
          "name": "flag",
          "type": "bool"
        },
        {
          "indexed": false,
          "internalType": "address",
          "name": "caller",
          "type": "address"
        }
      ],
      "name": "SetIsAllowedToSetFirstController",
      "type": "event"
    },
    {
      "anonymous": false,
      "inputs": [
        {
          "indexed": true,
          "internalType": "uint256",
          "name": "projectId",
          "type": "uint256"
        },
        {
          "indexed": true,
          "internalType": "address",
          "name": "token",
          "type": "address"
        },
        {
          "indexed": true,
          "internalType": "contract IJBPaymentTerminal",
          "name": "terminal",
          "type": "address"
        },
        {
          "indexed": false,
          "internalType": "address",
          "name": "caller",
          "type": "address"
        }
      ],
      "name": "SetPrimaryTerminal",
      "type": "event"
    },
    {
      "anonymous": false,
      "inputs": [
        {
          "indexed": true,
          "internalType": "uint256",
          "name": "projectId",
          "type": "uint256"
        },
        {
          "indexed": false,
          "internalType": "contract IJBPaymentTerminal[]",
          "name": "terminals",
          "type": "address[]"
        },
        {
          "indexed": false,
          "internalType": "address",
          "name": "caller",
          "type": "address"
        }
      ],
      "name": "SetTerminals",
      "type": "event"
    },
    {
      "inputs": [
        {
          "internalType": "uint256",
          "name": "",
          "type": "uint256"
        }
      ],
      "name": "controllerOf",
      "outputs": [
        {
          "internalType": "contract IJBController",
          "name": "",
          "type": "address"
        }
      ],
      "stateMutability": "view",
      "type": "function"
    },
    {
      "inputs": [
        {
          "internalType": "address",
          "name": "",
          "type": "address"
        }
      ],
      "name": "isAllowedToSetFirstController",
      "outputs": [
        {
          "internalType": "bool",
          "name": "",
          "type": "bool"
        }
      ],
      "stateMutability": "view",
      "type": "function"
    },
    {
      "inputs": [
        {
          "internalType": "uint256",
          "name": "_projectId",
          "type": "uint256"
        },
        {
          "internalType": "contract IJBPaymentTerminal",
          "name": "_terminal",
          "type": "address"
        }
      ],
      "name": "isTerminalOf",
      "outputs": [
        {
          "internalType": "bool",
          "name": "",
          "type": "bool"
        }
      ],
      "stateMutability": "view",
      "type": "function"
    },
    {
      "inputs": [],
      "name": "operatorStore",
      "outputs": [
        {
          "internalType": "contract IJBOperatorStore",
          "name": "",
          "type": "address"
        }
      ],
      "stateMutability": "view",
      "type": "function"
    },
    {
      "inputs": [],
      "name": "owner",
      "outputs": [
        {
          "internalType": "address",
          "name": "",
          "type": "address"
        }
      ],
      "stateMutability": "view",
      "type": "function"
    },
    {
      "inputs": [
        {
          "internalType": "uint256",
          "name": "_projectId",
          "type": "uint256"
        },
        {
          "internalType": "address",
          "name": "_token",
          "type": "address"
        }
      ],
      "name": "primaryTerminalOf",
      "outputs": [
        {
          "internalType": "contract IJBPaymentTerminal",
          "name": "",
          "type": "address"
        }
      ],
      "stateMutability": "view",
      "type": "function"
    },
    {
      "inputs": [],
      "name": "projects",
      "outputs": [
        {
          "internalType": "contract IJBProjects",
          "name": "",
          "type": "address"
        }
      ],
      "stateMutability": "view",
      "type": "function"
    },
    {
      "inputs": [],
      "name": "renounceOwnership",
      "outputs": [],
      "stateMutability": "nonpayable",
      "type": "function"
    },
    {
      "inputs": [
        {
          "internalType": "uint256",
          "name": "_projectId",
          "type": "uint256"
        },
        {
          "internalType": "contract IJBController",
          "name": "_controller",
          "type": "address"
        }
      ],
      "name": "setControllerOf",
      "outputs": [],
      "stateMutability": "nonpayable",
      "type": "function"
    },
    {
      "inputs": [
        {
          "internalType": "address",
          "name": "_address",
          "type": "address"
        },
        {
          "internalType": "bool",
          "name": "_flag",
          "type": "bool"
        }
      ],
      "name": "setIsAllowedToSetFirstController",
      "outputs": [],
      "stateMutability": "nonpayable",
      "type": "function"
    },
    {
      "inputs": [
        {
          "internalType": "uint256",
          "name": "_projectId",
          "type": "uint256"
        },
        {
          "internalType": "contract IJBPaymentTerminal",
          "name": "_terminal",
          "type": "address"
        }
      ],
      "name": "setPrimaryTerminalOf",
      "outputs": [],
      "stateMutability": "nonpayable",
      "type": "function"
    },
    {
      "inputs": [
        {
          "internalType": "uint256",
          "name": "_projectId",
          "type": "uint256"
        },
        {
          "internalType": "contract IJBPaymentTerminal[]",
          "name": "_terminals",
          "type": "address[]"
        }
      ],
      "name": "setTerminalsOf",
      "outputs": [],
      "stateMutability": "nonpayable",
      "type": "function"
    },
    {
      "inputs": [
        {
          "internalType": "uint256",
          "name": "_projectId",
          "type": "uint256"
        }
      ],
      "name": "terminalsOf",
      "outputs": [
        {
          "internalType": "contract IJBPaymentTerminal[]",
          "name": "",
          "type": "address[]"
        }
      ],
      "stateMutability": "view",
      "type": "function"
    },
    {
      "inputs": [
        {
          "internalType": "address",
          "name": "newOwner",
          "type": "address"
        }
      ],
      "name": "transferOwnership",
      "outputs": [],
      "stateMutability": "nonpayable",
      "type": "function"
    }
  ],
  "transactionHash": "0xb5bd189750cb60ce6f3aae9717c56f2a917e52429ca50019d17c50b9489f4e5d",
  "args": [
    "0x138D6d59afC6DbBD1DC0bDdF05Ae27f645Eb4305",
    "0x0E7714Ec817F07B792df62b4BE186c0F49bE67e9",
    "0xE9bE6df23C7f9CaBa3005DA2fa2d8714d340D0aF"
  ],
  "numDeployments": 1,
  "solcInputHash": "cfeedd60e64586c9fe70f04938d7f4c3",
  "bytecode": "0x60c06040523480156200001157600080fd5b5060405162001f2738038062001f278339810160408190526200003491620000c7565b606083901b6001600160601b031916608052620000513362000077565b6001600160601b0319606083901b1660a0526200006e8162000077565b50505062000134565b600080546001600160a01b038381166001600160a01b0319831681178455604051919092169283917f8be0079c531659141344cd1fd0a4f28419497f9722a3daafe3b4186f6b6457e09190a35050565b600080600060608486031215620000dd57600080fd5b8351620000ea816200011b565b6020850151909350620000fd816200011b565b604085015190925062000110816200011b565b809150509250925092565b6001600160a01b03811681146200013157600080fd5b50565b60805160601c60a05160601c611d81620001a6600039600081816101ba0152818161036f01528181610687015281816108a901526112fb015260008181610212015281816104f5015281816105d1015281816109e701528181610ac30152818161140701526114e30152611d816000f3fe608060405234801561001057600080fd5b50600436106100ea5760003560e01c80638da5cb5b1161008c578063c5664e2111610066578063c5664e2114610234578063d175415314610257578063df14411814610277578063f2fde38b1461028a57600080fd5b80638da5cb5b146101dc578063a1ed3175146101fa578063ad007d631461020d57600080fd5b8063715018a6116100c8578063715018a614610187578063821b9fd81461018f57806386202650146101a25780638b79543c146101b557600080fd5b80635dd8f6aa146100ef5780636e49181f1461014f578063714e7f3214610172575b600080fd5b6101256100fd366004611ac2565b60036020526000908152604090205473ffffffffffffffffffffffffffffffffffffffff1681565b60405173ffffffffffffffffffffffffffffffffffffffff90911681526020015b60405180910390f35b61016261015d366004611af4565b61029d565b6040519015158152602001610146565b610185610180366004611af4565b610340565b005b6101856107e8565b61018561019d366004611b19565b61087a565b6101256101b0366004611af4565b610fa3565b6101257f000000000000000000000000000000000000000000000000000000000000000081565b60005473ffffffffffffffffffffffffffffffffffffffff16610125565b610185610208366004611a6c565b611144565b6101257f000000000000000000000000000000000000000000000000000000000000000081565b610162610242366004611a32565b60046020526000908152604090205460ff1681565b61026a610265366004611ac2565b611253565b6040516101469190611c12565b610185610285366004611af4565b6112cc565b610185610298366004611a32565b6116bd565b6000805b600084815260016020526040902054811015610334576000848152600160205260409020805473ffffffffffffffffffffffffffffffffffffffff85169190839081106102f0576102f0611cec565b60009182526020909120015473ffffffffffffffffffffffffffffffffffffffff16141561032257600191505061033a565b8061032c81611c84565b9150506102a1565b50600090505b92915050565b6040517f6352211e000000000000000000000000000000000000000000000000000000008152600481018390527f000000000000000000000000000000000000000000000000000000000000000073ffffffffffffffffffffffffffffffffffffffff1690636352211e9060240160206040518083038186803b1580156103c657600080fd5b505afa1580156103da573d6000803e3d6000fd5b505050506040513d601f19601f820116820180604052508101906103fe9190611a4f565b6000838152600360205260409020548390600e9073ffffffffffffffffffffffffffffffffffffffff1633148061047157503360009081526004602052604090205460ff168015610471575060008581526003602052604090205473ffffffffffffffffffffffffffffffffffffffff16155b8015801561049557503373ffffffffffffffffffffffffffffffffffffffff851614155b801561057157506040517fc161c93f00000000000000000000000000000000000000000000000000000000815233600482015273ffffffffffffffffffffffffffffffffffffffff858116602483015260448201859052606482018490527f0000000000000000000000000000000000000000000000000000000000000000169063c161c93f9060840160206040518083038186803b15801561053757600080fd5b505afa15801561054b573d6000803e3d6000fd5b505050506040513d601f19601f8201168201806040525081019061056f9190611aa5565b155b801561064d57506040517fc161c93f00000000000000000000000000000000000000000000000000000000815233600482015273ffffffffffffffffffffffffffffffffffffffff858116602483015260006044830152606482018490527f0000000000000000000000000000000000000000000000000000000000000000169063c161c93f9060840160206040518083038186803b15801561061357600080fd5b505afa158015610627573d6000803e3d6000fd5b505050506040513d601f19601f8201168201806040525081019061064b9190611aa5565b155b15610684576040517f075fd2b100000000000000000000000000000000000000000000000000000000815260040160405180910390fd5b857f000000000000000000000000000000000000000000000000000000000000000073ffffffffffffffffffffffffffffffffffffffff166306661abd6040518163ffffffff1660e01b815260040160206040518083038186803b1580156106eb57600080fd5b505afa1580156106ff573d6000803e3d6000fd5b505050506040513d601f19601f820116820180604052508101906107239190611adb565b101561075b576040517f945074a600000000000000000000000000000000000000000000000000000000815260040160405180910390fd5b60008681526003602090815260409182902080547fffffffffffffffffffffffff00000000000000000000000000000000000000001673ffffffffffffffffffffffffffffffffffffffff8916908117909155915133815288917f7f9a7dcb234c909a09de2f344661ad9e5b24067adb97c908647c2edcbb121c30910160405180910390a3505050505050565b60005473ffffffffffffffffffffffffffffffffffffffff16331461086e576040517f08c379a000000000000000000000000000000000000000000000000000000000815260206004820181905260248201527f4f776e61626c653a2063616c6c6572206973206e6f7420746865206f776e657260448201526064015b60405180910390fd5b61087860006117ed565b565b6040517f6352211e000000000000000000000000000000000000000000000000000000008152600481018490527f000000000000000000000000000000000000000000000000000000000000000073ffffffffffffffffffffffffffffffffffffffff1690636352211e9060240160206040518083038186803b15801561090057600080fd5b505afa158015610914573d6000803e3d6000fd5b505050506040513d601f19601f820116820180604052508101906109389190611a4f565b6000848152600360205260409020548490600f9073ffffffffffffffffffffffffffffffffffffffff16331480158161098757503373ffffffffffffffffffffffffffffffffffffffff851614155b8015610a6357506040517fc161c93f00000000000000000000000000000000000000000000000000000000815233600482015273ffffffffffffffffffffffffffffffffffffffff858116602483015260448201859052606482018490527f0000000000000000000000000000000000000000000000000000000000000000169063c161c93f9060840160206040518083038186803b158015610a2957600080fd5b505afa158015610a3d573d6000803e3d6000fd5b505050506040513d601f19601f82011682018060405250810190610a619190611aa5565b155b8015610b3f57506040517fc161c93f00000000000000000000000000000000000000000000000000000000815233600482015273ffffffffffffffffffffffffffffffffffffffff858116602483015260006044830152606482018490527f0000000000000000000000000000000000000000000000000000000000000000169063c161c93f9060840160206040518083038186803b158015610b0557600080fd5b505afa158015610b19573d6000803e3d6000fd5b505050506040513d601f19601f82011682018060405250810190610b3d9190611aa5565b155b15610b76576040517f075fd2b100000000000000000000000000000000000000000000000000000000815260040160405180910390fd5b600087815260016020908152604080832080548251818502810185019093528083529192909190830182828015610be357602002820191906000526020600020905b815473ffffffffffffffffffffffffffffffffffffffff168152600190910190602001808311610bb8575b50505060008b8152600160205260409020929350610c0692915089905088611995565b506001861115610d0c5760005b86811015610d0a576000610c28826001611c6c565b90505b87811015610cf757888882818110610c4557610c45611cec565b9050602002016020810190610c5a9190611a32565b73ffffffffffffffffffffffffffffffffffffffff16898984818110610c8257610c82611cec565b9050602002016020810190610c979190611a32565b73ffffffffffffffffffffffffffffffffffffffff161415610ce5576040517f7c70615600000000000000000000000000000000000000000000000000000000815260040160405180910390fd5b80610cef81611c84565b915050610c2b565b5080610d0281611c84565b915050610c13565b505b60005b8151811015610f5c57818181518110610d2a57610d2a611cec565b602002602001015173ffffffffffffffffffffffffffffffffffffffff16600260008b81526020019081526020016000206000848481518110610d6f57610d6f611cec565b602002602001015173ffffffffffffffffffffffffffffffffffffffff1663fc0c546a6040518163ffffffff1660e01b815260040160206040518083038186803b158015610dbc57600080fd5b505afa158015610dd0573d6000803e3d6000fd5b505050506040513d601f19601f82011682018060405250810190610df49190611a4f565b73ffffffffffffffffffffffffffffffffffffffff908116825260208201929092526040016000205416148015610e4c5750610e4a8888848481518110610e3d57610e3d611cec565b6020026020010151611862565b155b15610f4a57600260008a81526020019081526020016000206000838381518110610e7857610e78611cec565b602002602001015173ffffffffffffffffffffffffffffffffffffffff1663fc0c546a6040518163ffffffff1660e01b815260040160206040518083038186803b158015610ec557600080fd5b505afa158015610ed9573d6000803e3d6000fd5b505050506040513d601f19601f82011682018060405250810190610efd9190611a4f565b73ffffffffffffffffffffffffffffffffffffffff168152602081019190915260400160002080547fffffffffffffffffffffffff00000000000000000000000000000000000000001690555b80610f5481611c84565b915050610d0f565b50877fb648241d83df6540fc10f2acc641e4bf80a1e84e7ae2f1f6b0ad204b8fee635b888833604051610f9193929190611b98565b60405180910390a25050505050505050565b600082815260026020908152604080832073ffffffffffffffffffffffffffffffffffffffff8581168552925282205416156110115750600082815260026020908152604080832073ffffffffffffffffffffffffffffffffffffffff80861685529252909120541661033a565b60005b60008481526001602052604090205481101561033457600084815260016020526040812080548390811061104a5761104a611cec565b9060005260206000200160009054906101000a900473ffffffffffffffffffffffffffffffffffffffff1690508373ffffffffffffffffffffffffffffffffffffffff168173ffffffffffffffffffffffffffffffffffffffff1663fc0c546a6040518163ffffffff1660e01b815260040160206040518083038186803b1580156110d457600080fd5b505afa1580156110e8573d6000803e3d6000fd5b505050506040513d601f19601f8201168201806040525081019061110c9190611a4f565b73ffffffffffffffffffffffffffffffffffffffff16141561113157915061033a9050565b508061113c81611c84565b915050611014565b60005473ffffffffffffffffffffffffffffffffffffffff1633146111c5576040517f08c379a000000000000000000000000000000000000000000000000000000000815260206004820181905260248201527f4f776e61626c653a2063616c6c6572206973206e6f7420746865206f776e65726044820152606401610865565b73ffffffffffffffffffffffffffffffffffffffff821660008181526004602090815260409182902080547fffffffffffffffffffffffffffffffffffffffffffffffffffffffffffffff001685151590811790915591513381529192917f11207664cc48b0fa81c8674795f1d8f642960f38d5d2d305ad813093bed85fab91015b60405180910390a35050565b6000818152600160209081526040918290208054835181840281018401909452808452606093928301828280156112c057602002820191906000526020600020905b815473ffffffffffffffffffffffffffffffffffffffff168152600190910190602001808311611295575b50505050509050919050565b6040517f6352211e000000000000000000000000000000000000000000000000000000008152600481018390527f000000000000000000000000000000000000000000000000000000000000000073ffffffffffffffffffffffffffffffffffffffff1690636352211e9060240160206040518083038186803b15801561135257600080fd5b505afa158015611366573d6000803e3d6000fd5b505050506040513d601f19601f8201168201806040525081019061138a9190611a4f565b8260103373ffffffffffffffffffffffffffffffffffffffff84161480159061148357506040517fc161c93f00000000000000000000000000000000000000000000000000000000815233600482015273ffffffffffffffffffffffffffffffffffffffff848116602483015260448201849052606482018390527f0000000000000000000000000000000000000000000000000000000000000000169063c161c93f9060840160206040518083038186803b15801561144957600080fd5b505afa15801561145d573d6000803e3d6000fd5b505050506040513d601f19601f820116820180604052508101906114819190611aa5565b155b801561155f57506040517fc161c93f00000000000000000000000000000000000000000000000000000000815233600482015273ffffffffffffffffffffffffffffffffffffffff848116602483015260006044830152606482018390527f0000000000000000000000000000000000000000000000000000000000000000169063c161c93f9060840160206040518083038186803b15801561152557600080fd5b505afa158015611539573d6000803e3d6000fd5b505050506040513d601f19601f8201168201806040525081019061155d9190611aa5565b155b15611596576040517f075fd2b100000000000000000000000000000000000000000000000000000000815260040160405180910390fd5b60008473ffffffffffffffffffffffffffffffffffffffff1663fc0c546a6040518163ffffffff1660e01b815260040160206040518083038186803b1580156115de57600080fd5b505afa1580156115f2573d6000803e3d6000fd5b505050506040513d601f19601f820116820180604052508101906116169190611a4f565b905061162286866118f1565b600086815260026020908152604080832073ffffffffffffffffffffffffffffffffffffffff8581168086529184529382902080547fffffffffffffffffffffffff000000000000000000000000000000000000000016948a1694851790559051338152909189917fc670a502bbb9f8a4315f95eca901a9f99b65f89a2eb5705a58050e5c00f9d672910160405180910390a4505050505050565b60005473ffffffffffffffffffffffffffffffffffffffff16331461173e576040517f08c379a000000000000000000000000000000000000000000000000000000000815260206004820181905260248201527f4f776e61626c653a2063616c6c6572206973206e6f7420746865206f776e65726044820152606401610865565b73ffffffffffffffffffffffffffffffffffffffff81166117e1576040517f08c379a000000000000000000000000000000000000000000000000000000000815260206004820152602660248201527f4f776e61626c653a206e6577206f776e657220697320746865207a65726f206160448201527f64647265737300000000000000000000000000000000000000000000000000006064820152608401610865565b6117ea816117ed565b50565b6000805473ffffffffffffffffffffffffffffffffffffffff8381167fffffffffffffffffffffffff0000000000000000000000000000000000000000831681178455604051919092169283917f8be0079c531659141344cd1fd0a4f28419497f9722a3daafe3b4186f6b6457e09190a35050565b6000805b838110156118e4578273ffffffffffffffffffffffffffffffffffffffff1685858381811061189757611897611cec565b90506020020160208101906118ac9190611a32565b73ffffffffffffffffffffffffffffffffffffffff1614156118d25760019150506118ea565b806118dc81611c84565b915050611866565b50600090505b9392505050565b6118fb828261029d565b15611904575050565b60008281526001602081815260408084208054938401815584529281902090910180547fffffffffffffffffffffffff00000000000000000000000000000000000000001673ffffffffffffffffffffffffffffffffffffffff8516908117909155915133815284917f409bccc07b7cf7807930526a24318212d614c59f2dde05a017a41efee144e7c89101611247565b828054828255906000526020600020908101928215611a0d579160200282015b82811115611a0d5781547fffffffffffffffffffffffff00000000000000000000000000000000000000001673ffffffffffffffffffffffffffffffffffffffff8435161782556020909201916001909101906119b5565b50611a19929150611a1d565b5090565b5b80821115611a195760008155600101611a1e565b600060208284031215611a4457600080fd5b81356118ea81611d1b565b600060208284031215611a6157600080fd5b81516118ea81611d1b565b60008060408385031215611a7f57600080fd5b8235611a8a81611d1b565b91506020830135611a9a81611d3d565b809150509250929050565b600060208284031215611ab757600080fd5b81516118ea81611d3d565b600060208284031215611ad457600080fd5b5035919050565b600060208284031215611aed57600080fd5b5051919050565b60008060408385031215611b0757600080fd5b823591506020830135611a9a81611d1b565b600080600060408486031215611b2e57600080fd5b83359250602084013567ffffffffffffffff80821115611b4d57600080fd5b818601915086601f830112611b6157600080fd5b813581811115611b7057600080fd5b8760208260051b8501011115611b8557600080fd5b6020830194508093505050509250925092565b6040808252810183905260008460608301825b86811015611be8578235611bbe81611d1b565b73ffffffffffffffffffffffffffffffffffffffff16825260209283019290910190600101611bab565b50809250505073ffffffffffffffffffffffffffffffffffffffff83166020830152949350505050565b6020808252825182820181905260009190848201906040850190845b81811015611c6057835173ffffffffffffffffffffffffffffffffffffffff1683529284019291840191600101611c2e565b50909695505050505050565b60008219821115611c7f57611c7f611cbd565b500190565b60007fffffffffffffffffffffffffffffffffffffffffffffffffffffffffffffffff821415611cb657611cb6611cbd565b5060010190565b7f4e487b7100000000000000000000000000000000000000000000000000000000600052601160045260246000fd5b7f4e487b7100000000000000000000000000000000000000000000000000000000600052603260045260246000fd5b73ffffffffffffffffffffffffffffffffffffffff811681146117ea57600080fd5b80151581146117ea57600080fdfea264697066735822122007e6ce5410e3e3346616986e8721ff8c0f120237dd872ea0a8b397c982b0b3e964736f6c63430008060033",
  "devdoc": {
    "details": "Adheres to: IJBDirectory: General interface for the methods in this contract that interact with the blockchain's state according to the protocol's rules.Inherits from: JBOperatable: Includes convenience functionality for checking a message sender's permissions before executing certain transactions. Ownable: Includes convenience functionality for checking a message sender's permissions before executing certain transactions.",
    "kind": "dev",
    "methods": {
      "constructor": {
        "params": {
          "_operatorStore": "A contract storing operator assignments.",
          "_owner": "The address that will own the contract.",
          "_projects": "A contract which mints ERC-721's that represent project ownership and transfers."
        }
      },
      "isTerminalOf(uint256,address)": {
        "params": {
          "_projectId": "The ID of the project to check within.",
          "_terminal": "The address of the terminal to check for."
        },
        "returns": {
          "_0": "A flag indicating whether or not the specified terminal is a terminal of the specified project."
        }
      },
      "owner()": {
        "details": "Returns the address of the current owner."
      },
      "primaryTerminalOf(uint256,address)": {
        "details": "The zero address is returned if a terminal isn't found for the specified token.",
        "params": {
          "_projectId": "The ID of the project to get a terminal for.",
          "_token": "The token the terminal accepts."
        },
        "returns": {
          "_0": "The primary terminal for the project for the specified token."
        }
      },
      "renounceOwnership()": {
        "details": "Leaves the contract without owner. It will not be possible to call `onlyOwner` functions anymore. Can only be called by the current owner. NOTE: Renouncing ownership will leave the contract without an owner, thereby removing any functionality that is only available to the owner."
      },
      "setControllerOf(uint256,address)": {
        "details": " A controller can be set if: - the message sender is the project owner or an operator having the correct authorization. - the message sender is the project's current controller. - or, an allowedlisted address is setting a controller for a project that doesn't already have a controller.",
        "params": {
          "_controller": "The new controller to set.",
          "_projectId": "The ID of the project to set a new controller for."
        }
      },
      "setIsAllowedToSetFirstController(address,bool)": {
        "details": "The owner can add addresses which are allowed to change projects' first controllers.  These addresses are known and vetted controllers as well as contracts designed to launch new projects.  A project can set its own controller without it being on the allow list.If you would like an address/contract allowlisted, please reach out to the contract owner.",
        "params": {
          "_address": "The address to allow or revoke allowance from.",
          "_flag": "Whether allowance is being added or revoked."
        }
      },
      "setPrimaryTerminalOf(uint256,address)": {
        "details": "The terminal will be set as the primary terminal where ecosystem contracts should route tokens.",
        "params": {
          "_projectId": "The ID of the project for which a primary token is being set.",
          "_terminal": "The terminal to make primary."
        }
      },
      "setTerminalsOf(uint256,address[])": {
        "details": "Only a project owner, an operator, or its controller can set its terminals.",
        "params": {
          "_projectId": "The ID of the project having terminals set.",
          "_terminals": "The terminal to set."
        }
      },
      "terminalsOf(uint256)": {
        "params": {
          "_projectId": "The ID of the project to get terminals of."
        },
        "returns": {
          "_0": "An array of terminal addresses."
        }
      },
      "transferOwnership(address)": {
        "details": "Transfers ownership of the contract to a new account (`newOwner`). Can only be called by the current owner."
      }
    },
    "version": 1
  },
  "userdoc": {
    "kind": "user",
    "methods": {
      "controllerOf(uint256)": {
        "notice": " For each project ID, the controller that manages how terminals interact with tokens and funding cycles. _projectId The ID of the project to get the controller of."
      },
      "isAllowedToSetFirstController(address)": {
        "notice": "Addresses that can set a project's first controller on their behalf. These addresses/contracts have been vetted and verified by this contract's owner. _address The address that is either allowed or not."
      },
      "isTerminalOf(uint256,address)": {
        "notice": "Whether or not a specified terminal is a terminal of the specified project."
      },
      "operatorStore()": {
        "notice": " A contract storing operator assignments."
      },
      "primaryTerminalOf(uint256,address)": {
        "notice": "The primary terminal that is managing funds for a project for a specified token."
      },
      "projects()": {
        "notice": " The Projects contract which mints ERC-721's that represent project ownership and transfers."
      },
      "setControllerOf(uint256,address)": {
        "notice": "Update the controller that manages how terminals interact with the ecosystem."
      },
      "setIsAllowedToSetFirstController(address,bool)": {
        "notice": " Set a contract to the list of trusted addresses that can set a first controller for any project.\t"
      },
      "setPrimaryTerminalOf(uint256,address)": {
        "notice": "Project's can set which terminal should be their primary for a particular token. This is useful in case a project has several terminals connected for a particular token."
      },
      "setTerminalsOf(uint256,address[])": {
        "notice": " Set a project's terminals."
      },
      "terminalsOf(uint256)": {
        "notice": "For each project ID, the terminals that are currently managing its funds."
      }
    },
    "notice": "Keeps a reference of which terminal contracts each project is currently accepting funds through, and which controller contract is managing each project's tokens and funding cycles.",
    "version": 1
  },
  "storageLayout": {
    "storage": [
      {
        "astId": 53,
        "contract": "contracts/JBDirectory.sol:JBDirectory",
        "label": "_owner",
        "offset": 0,
        "slot": "0",
        "type": "t_address"
      },
      {
        "astId": 6082,
        "contract": "contracts/JBDirectory.sol:JBDirectory",
        "label": "_terminalsOf",
        "offset": 0,
        "slot": "1",
        "type": "t_mapping(t_uint256,t_array(t_contract(IJBPaymentTerminal)14896)dyn_storage)"
      },
      {
        "astId": 6090,
        "contract": "contracts/JBDirectory.sol:JBDirectory",
        "label": "_primaryTerminalOf",
        "offset": 0,
        "slot": "2",
        "type": "t_mapping(t_uint256,t_mapping(t_address,t_contract(IJBPaymentTerminal)14896))"
      },
      {
        "astId": 6102,
        "contract": "contracts/JBDirectory.sol:JBDirectory",
        "label": "controllerOf",
        "offset": 0,
        "slot": "3",
        "type": "t_mapping(t_uint256,t_contract(IJBController)14462)"
      },
      {
        "astId": 6108,
        "contract": "contracts/JBDirectory.sol:JBDirectory",
        "label": "isAllowedToSetFirstController",
        "offset": 0,
        "slot": "4",
        "type": "t_mapping(t_address,t_bool)"
      }
    ],
    "types": {
      "t_address": {
        "encoding": "inplace",
        "label": "address",
        "numberOfBytes": "20"
      },
      "t_array(t_contract(IJBPaymentTerminal)14896)dyn_storage": {
        "base": "t_contract(IJBPaymentTerminal)14896",
        "encoding": "dynamic_array",
        "label": "contract IJBPaymentTerminal[]",
        "numberOfBytes": "32"
      },
      "t_bool": {
        "encoding": "inplace",
        "label": "bool",
        "numberOfBytes": "1"
      },
      "t_contract(IJBController)14462": {
        "encoding": "inplace",
        "label": "contract IJBController",
        "numberOfBytes": "20"
      },
      "t_contract(IJBPaymentTerminal)14896": {
        "encoding": "inplace",
        "label": "contract IJBPaymentTerminal",
        "numberOfBytes": "20"
      },
      "t_mapping(t_address,t_bool)": {
        "encoding": "mapping",
        "key": "t_address",
        "label": "mapping(address => bool)",
        "numberOfBytes": "32",
        "value": "t_bool"
      },
      "t_mapping(t_address,t_contract(IJBPaymentTerminal)14896)": {
        "encoding": "mapping",
        "key": "t_address",
        "label": "mapping(address => contract IJBPaymentTerminal)",
        "numberOfBytes": "32",
        "value": "t_contract(IJBPaymentTerminal)14896"
      },
      "t_mapping(t_uint256,t_array(t_contract(IJBPaymentTerminal)14896)dyn_storage)": {
        "encoding": "mapping",
        "key": "t_uint256",
        "label": "mapping(uint256 => contract IJBPaymentTerminal[])",
        "numberOfBytes": "32",
        "value": "t_array(t_contract(IJBPaymentTerminal)14896)dyn_storage"
      },
      "t_mapping(t_uint256,t_contract(IJBController)14462)": {
        "encoding": "mapping",
        "key": "t_uint256",
        "label": "mapping(uint256 => contract IJBController)",
        "numberOfBytes": "32",
        "value": "t_contract(IJBController)14462"
      },
      "t_mapping(t_uint256,t_mapping(t_address,t_contract(IJBPaymentTerminal)14896))": {
        "encoding": "mapping",
        "key": "t_uint256",
        "label": "mapping(uint256 => mapping(address => contract IJBPaymentTerminal))",
        "numberOfBytes": "32",
        "value": "t_mapping(t_address,t_contract(IJBPaymentTerminal)14896)"
      },
      "t_uint256": {
        "encoding": "inplace",
        "label": "uint256",
        "numberOfBytes": "32"
      }
    }
  }
}