{
  "address": "0x47F214f5e7D8589FEFe2946716aeA5fDfa53932a",
  "abi": [
    {
      "inputs": [
        {
          "internalType": "contract IJBOperatorStore",
          "name": "_operatorStore",
          "type": "address"
        },
        {
          "internalType": "contract IJBProjects",
          "name": "_projects",
          "type": "address"
        }
      ],
      "stateMutability": "nonpayable",
      "type": "constructor"
    },
    {
      "inputs": [],
      "name": "ADD_TERMINAL_ZERO_ADDRESS",
      "type": "error"
    },
    {
      "inputs": [],
      "name": "CONTROLLER_ALREADY_IN_ALLOWLIST",
      "type": "error"
    },
    {
      "inputs": [],
      "name": "CONTROLLER_NOT_IN_ALLOWLIST",
      "type": "error"
    },
    {
      "inputs": [],
      "name": "INVALID_PROJECT_ID",
      "type": "error"
    },
    {
      "inputs": [],
      "name": "PRIMARY_TERMINAL_ALREADY_SET",
      "type": "error"
    },
    {
      "inputs": [],
      "name": "SET_CONTROLLER_ZERO_ADDRESS",
      "type": "error"
    },
    {
      "inputs": [],
      "name": "SET_PRIMARY_TERMINAL_ZERO_ADDRESS",
      "type": "error"
    },
    {
      "inputs": [],
      "name": "UNAUTHORIZED",
      "type": "error"
    },
    {
      "anonymous": false,
      "inputs": [
        {
          "indexed": true,
          "internalType": "uint256",
          "name": "projectId",
          "type": "uint256"
        },
        {
          "indexed": true,
          "internalType": "contract IJBTerminal",
          "name": "terminal",
          "type": "address"
        },
        {
          "indexed": false,
          "internalType": "address",
          "name": "caller",
          "type": "address"
        }
      ],
      "name": "AddTerminal",
      "type": "event"
    },
    {
      "anonymous": false,
      "inputs": [
        {
          "indexed": true,
          "internalType": "address",
          "name": "_address",
          "type": "address"
        },
        {
          "indexed": false,
          "internalType": "address",
          "name": "caller",
          "type": "address"
        }
      ],
      "name": "AddToSetControllerAllowlist",
      "type": "event"
    },
    {
      "anonymous": false,
      "inputs": [
        {
          "indexed": true,
          "internalType": "address",
          "name": "previousOwner",
          "type": "address"
        },
        {
          "indexed": true,
          "internalType": "address",
          "name": "newOwner",
          "type": "address"
        }
      ],
      "name": "OwnershipTransferred",
      "type": "event"
    },
    {
      "anonymous": false,
      "inputs": [
        {
          "indexed": true,
          "internalType": "address",
          "name": "_address",
          "type": "address"
        },
        {
          "indexed": false,
          "internalType": "address",
          "name": "caller",
          "type": "address"
        }
      ],
      "name": "RemoveFromSetControllerAllowlist",
      "type": "event"
    },
    {
      "anonymous": false,
      "inputs": [
        {
          "indexed": true,
          "internalType": "uint256",
          "name": "projectId",
          "type": "uint256"
        },
        {
          "indexed": true,
          "internalType": "contract IJBTerminal",
          "name": "terminal",
          "type": "address"
        },
        {
          "indexed": false,
          "internalType": "address",
          "name": "caller",
          "type": "address"
        }
      ],
      "name": "RemoveTerminal",
      "type": "event"
    },
    {
      "anonymous": false,
      "inputs": [
        {
          "indexed": true,
          "internalType": "uint256",
          "name": "projectId",
          "type": "uint256"
        },
        {
          "indexed": true,
          "internalType": "contract IJBController",
          "name": "controller",
          "type": "address"
        },
        {
          "indexed": false,
          "internalType": "address",
          "name": "caller",
          "type": "address"
        }
      ],
      "name": "SetController",
      "type": "event"
    },
    {
      "anonymous": false,
      "inputs": [
        {
          "indexed": true,
          "internalType": "uint256",
          "name": "projectId",
          "type": "uint256"
        },
        {
          "indexed": true,
          "internalType": "address",
          "name": "token",
          "type": "address"
        },
        {
          "indexed": true,
          "internalType": "contract IJBTerminal",
          "name": "terminal",
          "type": "address"
        },
        {
          "indexed": false,
          "internalType": "address",
          "name": "caller",
          "type": "address"
        }
      ],
      "name": "SetPrimaryTerminal",
      "type": "event"
    },
    {
      "inputs": [
        {
          "internalType": "uint256",
          "name": "_projectId",
          "type": "uint256"
        },
        {
          "internalType": "contract IJBTerminal[]",
          "name": "_terminals",
          "type": "address[]"
        }
      ],
      "name": "addTerminalsOf",
      "outputs": [],
      "stateMutability": "nonpayable",
      "type": "function"
    },
    {
      "inputs": [
        {
          "internalType": "address",
          "name": "_address",
          "type": "address"
        }
      ],
      "name": "addToSetControllerAllowlist",
      "outputs": [],
      "stateMutability": "nonpayable",
      "type": "function"
    },
    {
      "inputs": [
        {
          "internalType": "uint256",
          "name": "",
          "type": "uint256"
        }
      ],
      "name": "controllerOf",
      "outputs": [
        {
          "internalType": "contract IJBController",
          "name": "",
          "type": "address"
        }
      ],
      "stateMutability": "view",
      "type": "function"
    },
    {
      "inputs": [
        {
          "internalType": "address",
          "name": "_address",
          "type": "address"
        }
      ],
      "name": "isAllowedToSetController",
      "outputs": [
        {
          "internalType": "bool",
          "name": "",
          "type": "bool"
        }
      ],
      "stateMutability": "view",
      "type": "function"
    },
    {
      "inputs": [
        {
          "internalType": "uint256",
          "name": "_projectId",
          "type": "uint256"
        },
        {
          "internalType": "address",
          "name": "_contract",
          "type": "address"
        }
      ],
      "name": "isTerminalDelegateOf",
      "outputs": [
        {
          "internalType": "bool",
          "name": "",
          "type": "bool"
        }
      ],
      "stateMutability": "view",
      "type": "function"
    },
    {
      "inputs": [
        {
          "internalType": "uint256",
          "name": "_projectId",
          "type": "uint256"
        },
        {
          "internalType": "contract IJBTerminal",
          "name": "_terminal",
          "type": "address"
        }
      ],
      "name": "isTerminalOf",
      "outputs": [
        {
          "internalType": "bool",
          "name": "",
          "type": "bool"
        }
      ],
      "stateMutability": "view",
      "type": "function"
    },
    {
      "inputs": [],
      "name": "operatorStore",
      "outputs": [
        {
          "internalType": "contract IJBOperatorStore",
          "name": "",
          "type": "address"
        }
      ],
      "stateMutability": "view",
      "type": "function"
    },
    {
      "inputs": [],
      "name": "owner",
      "outputs": [
        {
          "internalType": "address",
          "name": "",
          "type": "address"
        }
      ],
      "stateMutability": "view",
      "type": "function"
    },
    {
      "inputs": [
        {
          "internalType": "uint256",
          "name": "_projectId",
          "type": "uint256"
        },
        {
          "internalType": "address",
          "name": "_token",
          "type": "address"
        }
      ],
      "name": "primaryTerminalOf",
      "outputs": [
        {
          "internalType": "contract IJBTerminal",
          "name": "",
          "type": "address"
        }
      ],
      "stateMutability": "view",
      "type": "function"
    },
    {
      "inputs": [],
      "name": "projects",
      "outputs": [
        {
          "internalType": "contract IJBProjects",
          "name": "",
          "type": "address"
        }
      ],
      "stateMutability": "view",
      "type": "function"
    },
    {
      "inputs": [
        {
          "internalType": "address",
          "name": "_address",
          "type": "address"
        }
      ],
      "name": "removeFromSetControllerAllowlist",
      "outputs": [],
      "stateMutability": "nonpayable",
      "type": "function"
    },
    {
      "inputs": [
        {
          "internalType": "uint256",
          "name": "_projectId",
          "type": "uint256"
        },
        {
          "internalType": "contract IJBTerminal",
          "name": "_terminal",
          "type": "address"
        }
      ],
      "name": "removeTerminalOf",
      "outputs": [],
      "stateMutability": "nonpayable",
      "type": "function"
    },
    {
      "inputs": [],
      "name": "renounceOwnership",
      "outputs": [],
      "stateMutability": "nonpayable",
      "type": "function"
    },
    {
      "inputs": [
        {
          "internalType": "uint256",
          "name": "_projectId",
          "type": "uint256"
        },
        {
          "internalType": "contract IJBController",
          "name": "_controller",
          "type": "address"
        }
      ],
      "name": "setControllerOf",
      "outputs": [],
      "stateMutability": "nonpayable",
      "type": "function"
    },
    {
      "inputs": [
        {
          "internalType": "uint256",
          "name": "_projectId",
          "type": "uint256"
        },
        {
          "internalType": "contract IJBTerminal",
          "name": "_terminal",
          "type": "address"
        }
      ],
      "name": "setPrimaryTerminalOf",
      "outputs": [],
      "stateMutability": "nonpayable",
      "type": "function"
    },
    {
      "inputs": [
        {
          "internalType": "uint256",
          "name": "_projectId",
          "type": "uint256"
        }
      ],
      "name": "terminalsOf",
      "outputs": [
        {
          "internalType": "contract IJBTerminal[]",
          "name": "",
          "type": "address[]"
        }
      ],
      "stateMutability": "view",
      "type": "function"
    },
    {
      "inputs": [
        {
          "internalType": "address",
          "name": "newOwner",
          "type": "address"
        }
      ],
      "name": "transferOwnership",
      "outputs": [],
      "stateMutability": "nonpayable",
      "type": "function"
    }
  ],
  "transactionHash": "0x8a368d0478568152d058ce066bcac9eda3da4f4b4f2f634e851b8c302aab436b",
  "args": [
    "0xacD28185AE65adc711481c0aECB0B99Ac8608698",
    "0xA08dD15247f67742eF1597Bcb2a0D829a7A3C5e1"
  ],
  "solcInputHash": "6296389d5d0c73c3ff767c6895895650",
  "bytecode": "0x60c06040523480156200001157600080fd5b506040516200249d3803806200249d8339810160408190526200003491620000b8565b606082901b6001600160601b031916608052620000513362000068565b60601b6001600160601b03191660a0525062000110565b600080546001600160a01b038381166001600160a01b0319831681178455604051919092169283917f8be0079c531659141344cd1fd0a4f28419497f9722a3daafe3b4186f6b6457e09190a35050565b60008060408385031215620000cc57600080fd5b8251620000d981620000f7565b6020840151909250620000ec81620000f7565b809150509250929050565b6001600160a01b03811681146200010d57600080fd5b50565b60805160601c60a05160601c61230662000197600039600081816102240152818161034c01528181610a0a01528181610d79015281816112e401526117920152600081816102690152818161048a0152818161056601528181610b6601528181610c42015281816113f0015281816114cc0152818161189e015261197a01526123066000f3fe608060405234801561001057600080fd5b506004361061011b5760003560e01c8063898370ee116100b2578063d175415311610081578063df14411811610066578063df144118146102e4578063e527757a146102f7578063f2fde38b1461030a57600080fd5b8063d17541531461028b578063d1880449146102ab57600080fd5b8063898370ee1461020c5780638b79543c1461021f5780638da5cb5b14610246578063ad007d631461026457600080fd5b80636e49181f116100ee5780636e49181f146101bb578063714e7f32146101de578063715018a6146101f157806386202650146101f957600080fd5b80631cda3bfe146101205780634a1f1df4146101355780635dd8f6aa146101485780636ca35c8a146101a8575b600080fd5b61013361012e366004612146565b61031d565b005b610133610143366004612081565b610671565b61017e6101563660046120e4565b60046020526000908152604090205473ffffffffffffffffffffffffffffffffffffffff1681565b60405173ffffffffffffffffffffffffffffffffffffffff90911681526020015b60405180910390f35b6101336101b6366004612081565b6107d9565b6101ce6101c9366004612116565b610938565b604051901515815260200161019f565b6101336101ec366004612116565b6109db565b610133610edc565b61017e610207366004612116565b610f69565b6101ce61021a366004612116565b61110a565b61017e7f000000000000000000000000000000000000000000000000000000000000000081565b60005473ffffffffffffffffffffffffffffffffffffffff1661017e565b61017e7f000000000000000000000000000000000000000000000000000000000000000081565b61029e6102993660046120e4565b61123c565b60405161019f91906121c5565b6101ce6102b9366004612081565b73ffffffffffffffffffffffffffffffffffffffff1660009081526003602052604090205460ff1690565b6101336102f2366004612116565b6112b5565b610133610305366004612116565b611763565b610133610318366004612081565b611dad565b6040517f6352211e000000000000000000000000000000000000000000000000000000008152600481018490527f000000000000000000000000000000000000000000000000000000000000000073ffffffffffffffffffffffffffffffffffffffff1690636352211e9060240160206040518083038186803b1580156103a357600080fd5b505afa1580156103b7573d6000803e3d6000fd5b505050506040513d601f19601f820116820180604052508101906103db91906120a5565b600084815260046020526040902054849060119073ffffffffffffffffffffffffffffffffffffffff16331480158161042a57503373ffffffffffffffffffffffffffffffffffffffff851614155b801561050657506040517fc161c93f00000000000000000000000000000000000000000000000000000000815233600482015273ffffffffffffffffffffffffffffffffffffffff858116602483015260448201859052606482018490527f0000000000000000000000000000000000000000000000000000000000000000169063c161c93f9060840160206040518083038186803b1580156104cc57600080fd5b505afa1580156104e0573d6000803e3d6000fd5b505050506040513d601f19601f8201168201806040525081019061050491906120c2565b155b80156105e257506040517fc161c93f00000000000000000000000000000000000000000000000000000000815233600482015273ffffffffffffffffffffffffffffffffffffffff858116602483015260006044830152606482018490527f0000000000000000000000000000000000000000000000000000000000000000169063c161c93f9060840160206040518083038186803b1580156105a857600080fd5b505afa1580156105bc573d6000803e3d6000fd5b505050506040513d601f19601f820116820180604052508101906105e091906120c2565b155b15610619576040517f075fd2b100000000000000000000000000000000000000000000000000000000815260040160405180910390fd5b60005b85811015610667576106558888888481811061063a5761063a61227f565b905060200201602081019061064f9190612081565b33611edd565b8061065f8161221f565b91505061061c565b5050505050505050565b60005473ffffffffffffffffffffffffffffffffffffffff1633146106f7576040517f08c379a000000000000000000000000000000000000000000000000000000000815260206004820181905260248201527f4f776e61626c653a2063616c6c6572206973206e6f7420746865206f776e657260448201526064015b60405180910390fd5b73ffffffffffffffffffffffffffffffffffffffff811660009081526003602052604090205460ff16610756576040517f31b69c3900000000000000000000000000000000000000000000000000000000815260040160405180910390fd5b73ffffffffffffffffffffffffffffffffffffffff811660008181526003602090815260409182902080547fffffffffffffffffffffffffffffffffffffffffffffffffffffffffffffff0016905590513381527f627b6b323d459a0b1a57687e03a8e2899cee037277c9d3b13874b295be31c3db91015b60405180910390a250565b60005473ffffffffffffffffffffffffffffffffffffffff16331461085a576040517f08c379a000000000000000000000000000000000000000000000000000000000815260206004820181905260248201527f4f776e61626c653a2063616c6c6572206973206e6f7420746865206f776e657260448201526064016106ee565b73ffffffffffffffffffffffffffffffffffffffff811660009081526003602052604090205460ff16156108b9576040517ec1a9e800000000000000000000000000000000000000000000000000000000815260040160405180910390fd5b73ffffffffffffffffffffffffffffffffffffffff811660008181526003602090815260409182902080547fffffffffffffffffffffffffffffffffffffffffffffffffffffffffffffff0016600117905590513381527fdfd2bc577e70beb5e792777b0667811f285a3479332a67b6c6adbe7c33a337e591016107ce565b6000805b6000848152600160205260409020548110156109cf576000848152600160205260409020805473ffffffffffffffffffffffffffffffffffffffff851691908390811061098b5761098b61227f565b60009182526020909120015473ffffffffffffffffffffffffffffffffffffffff1614156109bd5760019150506109d5565b806109c78161221f565b91505061093c565b50600090505b92915050565b6040517f6352211e000000000000000000000000000000000000000000000000000000008152600481018390527f000000000000000000000000000000000000000000000000000000000000000073ffffffffffffffffffffffffffffffffffffffff1690636352211e9060240160206040518083038186803b158015610a6157600080fd5b505afa158015610a75573d6000803e3d6000fd5b505050506040513d601f19601f82011682018060405250810190610a9991906120a5565b73ffffffffffffffffffffffffffffffffffffffff8216600090815260036020526040902054839060109060ff168015610ae257503360009081526003602052604090205460ff165b80158015610b0657503373ffffffffffffffffffffffffffffffffffffffff851614155b8015610be257506040517fc161c93f00000000000000000000000000000000000000000000000000000000815233600482015273ffffffffffffffffffffffffffffffffffffffff858116602483015260448201859052606482018490527f0000000000000000000000000000000000000000000000000000000000000000169063c161c93f9060840160206040518083038186803b158015610ba857600080fd5b505afa158015610bbc573d6000803e3d6000fd5b505050506040513d601f19601f82011682018060405250810190610be091906120c2565b155b8015610cbe57506040517fc161c93f00000000000000000000000000000000000000000000000000000000815233600482015273ffffffffffffffffffffffffffffffffffffffff858116602483015260006044830152606482018490527f0000000000000000000000000000000000000000000000000000000000000000169063c161c93f9060840160206040518083038186803b158015610c8457600080fd5b505afa158015610c98573d6000803e3d6000fd5b505050506040513d601f19601f82011682018060405250810190610cbc91906120c2565b155b15610cf5576040517f075fd2b100000000000000000000000000000000000000000000000000000000815260040160405180910390fd5b73ffffffffffffffffffffffffffffffffffffffff8516610d42576040517f16908dd200000000000000000000000000000000000000000000000000000000815260040160405180910390fd5b60008681526004602052604090205473ffffffffffffffffffffffffffffffffffffffff86811691161415610d7657610ed4565b857f000000000000000000000000000000000000000000000000000000000000000073ffffffffffffffffffffffffffffffffffffffff166306661abd6040518163ffffffff1660e01b815260040160206040518083038186803b158015610ddd57600080fd5b505afa158015610df1573d6000803e3d6000fd5b505050506040513d601f19601f82011682018060405250810190610e1591906120fd565b1015610e4d576040517f3b44d99200000000000000000000000000000000000000000000000000000000815260040160405180910390fd5b60008681526004602090815260409182902080547fffffffffffffffffffffffff00000000000000000000000000000000000000001673ffffffffffffffffffffffffffffffffffffffff8916908117909155915133815288917f7f9a7dcb234c909a09de2f344661ad9e5b24067adb97c908647c2edcbb121c3091015b60405180910390a35b505050505050565b60005473ffffffffffffffffffffffffffffffffffffffff163314610f5d576040517f08c379a000000000000000000000000000000000000000000000000000000000815260206004820181905260248201527f4f776e61626c653a2063616c6c6572206973206e6f7420746865206f776e657260448201526064016106ee565b610f676000611fda565b565b600082815260026020908152604080832073ffffffffffffffffffffffffffffffffffffffff858116855292528220541615610fd75750600082815260026020908152604080832073ffffffffffffffffffffffffffffffffffffffff8086168552925290912054166109d5565b60005b6000848152600160205260409020548110156109cf5760008481526001602052604081208054839081106110105761101061227f565b9060005260206000200160009054906101000a900473ffffffffffffffffffffffffffffffffffffffff1690508373ffffffffffffffffffffffffffffffffffffffff168173ffffffffffffffffffffffffffffffffffffffff1663fc0c546a6040518163ffffffff1660e01b815260040160206040518083038186803b15801561109a57600080fd5b505afa1580156110ae573d6000803e3d6000fd5b505050506040513d601f19601f820116820180604052508101906110d291906120a5565b73ffffffffffffffffffffffffffffffffffffffff1614156110f75791506109d59050565b50806111028161221f565b915050610fda565b6000805b6000848152600160205260409020548110156109cf576000848152600160205260409020805473ffffffffffffffffffffffffffffffffffffffff851691908390811061115d5761115d61227f565b60009182526020918290200154604080517fc89e4361000000000000000000000000000000000000000000000000000000008152905173ffffffffffffffffffffffffffffffffffffffff9092169263c89e436192600480840193829003018186803b1580156111cc57600080fd5b505afa1580156111e0573d6000803e3d6000fd5b505050506040513d601f19601f8201168201806040525081019061120491906120a5565b73ffffffffffffffffffffffffffffffffffffffff16141561122a5760019150506109d5565b806112348161221f565b91505061110e565b6000818152600160209081526040918290208054835181840281018401909452808452606093928301828280156112a957602002820191906000526020600020905b815473ffffffffffffffffffffffffffffffffffffffff16815260019091019060200180831161127e575b50505050509050919050565b6040517f6352211e000000000000000000000000000000000000000000000000000000008152600481018390527f000000000000000000000000000000000000000000000000000000000000000073ffffffffffffffffffffffffffffffffffffffff1690636352211e9060240160206040518083038186803b15801561133b57600080fd5b505afa15801561134f573d6000803e3d6000fd5b505050506040513d601f19601f8201168201806040525081019061137391906120a5565b8260133373ffffffffffffffffffffffffffffffffffffffff84161480159061146c57506040517fc161c93f00000000000000000000000000000000000000000000000000000000815233600482015273ffffffffffffffffffffffffffffffffffffffff848116602483015260448201849052606482018390527f0000000000000000000000000000000000000000000000000000000000000000169063c161c93f9060840160206040518083038186803b15801561143257600080fd5b505afa158015611446573d6000803e3d6000fd5b505050506040513d601f19601f8201168201806040525081019061146a91906120c2565b155b801561154857506040517fc161c93f00000000000000000000000000000000000000000000000000000000815233600482015273ffffffffffffffffffffffffffffffffffffffff848116602483015260006044830152606482018390527f0000000000000000000000000000000000000000000000000000000000000000169063c161c93f9060840160206040518083038186803b15801561150e57600080fd5b505afa158015611522573d6000803e3d6000fd5b505050506040513d601f19601f8201168201806040525081019061154691906120c2565b155b1561157f576040517f075fd2b100000000000000000000000000000000000000000000000000000000815260040160405180910390fd5b73ffffffffffffffffffffffffffffffffffffffff84166115cc576040517f0d8fcd8e00000000000000000000000000000000000000000000000000000000815260040160405180910390fd5b60008473ffffffffffffffffffffffffffffffffffffffff1663fc0c546a6040518163ffffffff1660e01b815260040160206040518083038186803b15801561161457600080fd5b505afa158015611628573d6000803e3d6000fd5b505050506040513d601f19601f8201168201806040525081019061164c91906120a5565b600087815260026020908152604080832073ffffffffffffffffffffffffffffffffffffffff8086168552925290912054919250868116911614156116bd576040517f9d9fc9f100000000000000000000000000000000000000000000000000000000815260040160405180910390fd5b6116c8868633611edd565b600086815260026020908152604080832073ffffffffffffffffffffffffffffffffffffffff8581168086529184529382902080547fffffffffffffffffffffffff000000000000000000000000000000000000000016948a1694851790559051338152909189917fc670a502bbb9f8a4315f95eca901a9f99b65f89a2eb5705a58050e5c00f9d672910160405180910390a4505050505050565b6040517f6352211e000000000000000000000000000000000000000000000000000000008152600481018390527f000000000000000000000000000000000000000000000000000000000000000073ffffffffffffffffffffffffffffffffffffffff1690636352211e9060240160206040518083038186803b1580156117e957600080fd5b505afa1580156117fd573d6000803e3d6000fd5b505050506040513d601f19601f8201168201806040525081019061182191906120a5565b8260123373ffffffffffffffffffffffffffffffffffffffff84161480159061191a57506040517fc161c93f00000000000000000000000000000000000000000000000000000000815233600482015273ffffffffffffffffffffffffffffffffffffffff848116602483015260448201849052606482018390527f0000000000000000000000000000000000000000000000000000000000000000169063c161c93f9060840160206040518083038186803b1580156118e057600080fd5b505afa1580156118f4573d6000803e3d6000fd5b505050506040513d601f19601f8201168201806040525081019061191891906120c2565b155b80156119f657506040517fc161c93f00000000000000000000000000000000000000000000000000000000815233600482015273ffffffffffffffffffffffffffffffffffffffff848116602483015260006044830152606482018390527f0000000000000000000000000000000000000000000000000000000000000000169063c161c93f9060840160206040518083038186803b1580156119bc57600080fd5b505afa1580156119d0573d6000803e3d6000fd5b505050506040513d601f19601f820116820180604052508101906119f491906120c2565b155b15611a2d576040517f075fd2b100000000000000000000000000000000000000000000000000000000815260040160405180910390fd5b600085815260016020908152604080832080548251818502810185019093528083529192909190830182828015611a9a57602002820191906000526020600020905b815473ffffffffffffffffffffffffffffffffffffffff168152600190910190602001808311611a6f575b5050506000898152600160205260408120939450611abb939250905061204f565b60005b8151811015611ba8578573ffffffffffffffffffffffffffffffffffffffff16828281518110611af057611af061227f565b602002602001015173ffffffffffffffffffffffffffffffffffffffff1614611b965760008781526001602052604090208251839083908110611b3557611b3561227f565b60209081029190910181015182546001810184556000938452919092200180547fffffffffffffffffffffffff00000000000000000000000000000000000000001673ffffffffffffffffffffffffffffffffffffffff9092169190911790555b80611ba08161221f565b915050611abe565b508473ffffffffffffffffffffffffffffffffffffffff166002600088815260200190815260200160002060008773ffffffffffffffffffffffffffffffffffffffff1663fc0c546a6040518163ffffffff1660e01b815260040160206040518083038186803b158015611c1b57600080fd5b505afa158015611c2f573d6000803e3d6000fd5b505050506040513d601f19601f82011682018060405250810190611c5391906120a5565b73ffffffffffffffffffffffffffffffffffffffff9081168252602082019290925260400160002054161415611d63576002600087815260200190815260200160002060008673ffffffffffffffffffffffffffffffffffffffff1663fc0c546a6040518163ffffffff1660e01b815260040160206040518083038186803b158015611cde57600080fd5b505afa158015611cf2573d6000803e3d6000fd5b505050506040513d601f19601f82011682018060405250810190611d1691906120a5565b73ffffffffffffffffffffffffffffffffffffffff168152602081019190915260400160002080547fffffffffffffffffffffffff00000000000000000000000000000000000000001690555b60405133815273ffffffffffffffffffffffffffffffffffffffff86169087907fbf79cd9af545aa6edcc5ac76aa264b34ccb6e59a51b44998a766f828ec9b7c8690602001610ecb565b60005473ffffffffffffffffffffffffffffffffffffffff163314611e2e576040517f08c379a000000000000000000000000000000000000000000000000000000000815260206004820181905260248201527f4f776e61626c653a2063616c6c6572206973206e6f7420746865206f776e657260448201526064016106ee565b73ffffffffffffffffffffffffffffffffffffffff8116611ed1576040517f08c379a000000000000000000000000000000000000000000000000000000000815260206004820152602660248201527f4f776e61626c653a206e6577206f776e657220697320746865207a65726f206160448201527f646472657373000000000000000000000000000000000000000000000000000060648201526084016106ee565b611eda81611fda565b50565b73ffffffffffffffffffffffffffffffffffffffff8216611f2a576040517f0264fce300000000000000000000000000000000000000000000000000000000815260040160405180910390fd5b611f348383610938565b15611f3e57505050565b60008381526001602081815260408084208054938401815584529281902090910180547fffffffffffffffffffffffff00000000000000000000000000000000000000001673ffffffffffffffffffffffffffffffffffffffff8681169182179092559251908416815285917f409bccc07b7cf7807930526a24318212d614c59f2dde05a017a41efee144e7c8910160405180910390a3505050565b6000805473ffffffffffffffffffffffffffffffffffffffff8381167fffffffffffffffffffffffff0000000000000000000000000000000000000000831681178455604051919092169283917f8be0079c531659141344cd1fd0a4f28419497f9722a3daafe3b4186f6b6457e09190a35050565b5080546000825590600052602060002090810190611eda91905b8082111561207d5760008155600101612069565b5090565b60006020828403121561209357600080fd5b813561209e816122ae565b9392505050565b6000602082840312156120b757600080fd5b815161209e816122ae565b6000602082840312156120d457600080fd5b8151801515811461209e57600080fd5b6000602082840312156120f657600080fd5b5035919050565b60006020828403121561210f57600080fd5b5051919050565b6000806040838503121561212957600080fd5b82359150602083013561213b816122ae565b809150509250929050565b60008060006040848603121561215b57600080fd5b83359250602084013567ffffffffffffffff8082111561217a57600080fd5b818601915086601f83011261218e57600080fd5b81358181111561219d57600080fd5b8760208260051b85010111156121b257600080fd5b6020830194508093505050509250925092565b6020808252825182820181905260009190848201906040850190845b8181101561221357835173ffffffffffffffffffffffffffffffffffffffff16835292840192918401916001016121e1565b50909695505050505050565b60007fffffffffffffffffffffffffffffffffffffffffffffffffffffffffffffffff821415612278577f4e487b7100000000000000000000000000000000000000000000000000000000600052601160045260246000fd5b5060010190565b7f4e487b7100000000000000000000000000000000000000000000000000000000600052603260045260246000fd5b73ffffffffffffffffffffffffffffffffffffffff81168114611eda57600080fdfea26469706673582212205bdd079952dcf764d6d78cc64bbd51321154361aec19d3b5cd8e03dfde86e92a64736f6c63430008060033",
  "devdoc": {
    "kind": "dev",
    "methods": {
      "addTerminalsOf(uint256,address[])": {
        "details": "Only a project owner, an operator, or its controller can add terminals.",
        "params": {
          "_projectId": "The ID of the project having a terminal added.",
          "_terminals": "The terminals to add."
        }
      },
      "addToSetControllerAllowlist(address)": {
        "details": "If you would like an address/contract allowlisted, please reach out to the Juicebox dev team.",
        "params": {
          "_address": "the allowed address to be added."
        }
      },
      "constructor": {
        "params": {
          "_operatorStore": "A contract storing operator assignments.",
          "_projects": "A contract which mints ERC-721's that represent project ownership and transfers."
        }
      },
      "isAllowedToSetController(address)": {
        "params": {
          "_address": "the address to check"
        },
        "returns": {
          "_0": "A flag indicating whether or not the specified address can change controllers."
        }
      },
      "isTerminalDelegateOf(uint256,address)": {
        "params": {
          "_contract": "The address of the terminal to check for.",
          "_projectId": "The ID of the project to check within."
        },
        "returns": {
          "_0": "A flag indicating whether or not the specified terminal is a terminal of the specified project."
        }
      },
      "isTerminalOf(uint256,address)": {
        "params": {
          "_projectId": "The ID of the project to check within.",
          "_terminal": "The address of the terminal to check for."
        },
        "returns": {
          "_0": "A flag indicating whether or not the specified terminal is a terminal of the specified project."
        }
      },
      "owner()": {
        "details": "Returns the address of the current owner."
      },
      "primaryTerminalOf(uint256,address)": {
        "details": "The zero address is returned if a terminal isn't found for the specified token.",
        "params": {
          "_projectId": "The ID of the project to get a terminal for.",
          "_token": "The token the terminal accepts."
        },
        "returns": {
          "_0": "The primary terminal for the project for the specified token."
        }
      },
      "removeFromSetControllerAllowlist(address)": {
        "params": {
          "_address": "The address to be removed."
        }
      },
      "removeTerminalOf(uint256,address)": {
        "details": "Only a project owner or an operator can remove one of its terminals. ",
        "params": {
          "_projectId": "The ID of the project having a terminal removed.",
          "_terminal": "The terminal to remove."
        }
      },
      "renounceOwnership()": {
        "details": "Leaves the contract without owner. It will not be possible to call `onlyOwner` functions anymore. Can only be called by the current owner. NOTE: Renouncing ownership will leave the contract without an owner, thereby removing any functionality that is only available to the owner."
      },
      "setControllerOf(uint256,address)": {
        "details": " A controller can be set if: - the message sender is the project owner or an operator having the correct authorization. - or, an allowedlisted address is setting an allowlisted controller.",
        "params": {
          "_controller": "The new controller to set.",
          "_projectId": "The ID of the project to set a new controller for."
        }
      },
      "setPrimaryTerminalOf(uint256,address)": {
        "details": "The terminal will be set as the primary for the token that its vault accepts. ",
        "params": {
          "_projectId": "The ID of the project for which a primary token is being set.",
          "_terminal": "The terminal to make primary."
        }
      },
      "terminalsOf(uint256)": {
        "params": {
          "_projectId": "The ID of the project to get terminals of."
        },
        "returns": {
          "_0": "An array of terminal addresses."
        }
      },
      "transferOwnership(address)": {
        "details": "Transfers ownership of the contract to a new account (`newOwner`). Can only be called by the current owner."
      }
    },
    "version": 1
  },
  "userdoc": {
    "kind": "user",
    "methods": {
      "addTerminalsOf(uint256,address[])": {
        "notice": " Add terminals to project's list of terminals."
      },
      "addToSetControllerAllowlist(address)": {
        "notice": "The owner (Juicebox multisig) can add addresses which are allowed to change a project's controller. Those addresses are known and vetted controllers as well as contracts designed to launch new projects. This is not a requirement for all controllers. However, unknown controllers may require additional transactions to perform certain operations."
      },
      "controllerOf(uint256)": {
        "notice": " For each project ID, the controller that manages how terminals interact with tokens and funding cycles. _projectId The ID of the project to get the controller of."
      },
      "isAllowedToSetController(address)": {
        "notice": "Whether or not a specified address is allowed to set controllers."
      },
      "isTerminalDelegateOf(uint256,address)": {
        "notice": "Whether or not a specified terminal is a terminal of the specified project."
      },
      "isTerminalOf(uint256,address)": {
        "notice": "Whether or not a specified terminal is a terminal of the specified project."
      },
      "operatorStore()": {
        "notice": " A contract storing operator assignments."
      },
      "primaryTerminalOf(uint256,address)": {
        "notice": "The primary terminal that is managing funds for a project for a specified token."
      },
      "projects()": {
        "notice": " The Projects contract which mints ERC-721's that represent project ownership and transfers."
      },
      "removeFromSetControllerAllowlist(address)": {
        "notice": "See `addKnownController(...)` for context. Removes an address from the allowlist."
      },
      "removeTerminalOf(uint256,address)": {
        "notice": " Remove a terminal from a project's list of terminals."
      },
      "setControllerOf(uint256,address)": {
        "notice": "Update the controller that manages how terminals interact with the ecosystem."
      },
      "setPrimaryTerminalOf(uint256,address)": {
        "notice": "Project's can set which terminal should be their primary for a particular token. This is useful in case a project has several terminals connected for a particular token."
      },
      "terminalsOf(uint256)": {
        "notice": "For each project ID, the terminals that are currently managing its funds."
      }
    },
    "notice": "Keeps a reference of which terminal contracts each project is currently accepting funds through, and which controller contract is managing each project's tokens and funding cycles.",
    "version": 1
  },
  "storageLayout": {
    "storage": [
      {
        "astId": 53,
        "contract": "contracts/JBDirectory.sol:JBDirectory",
        "label": "_owner",
        "offset": 0,
        "slot": "0",
        "type": "t_address"
      },
      {
        "astId": 5704,
        "contract": "contracts/JBDirectory.sol:JBDirectory",
        "label": "_terminalsOf",
        "offset": 0,
        "slot": "1",
        "type": "t_mapping(t_uint256,t_array(t_contract(IJBTerminal)14122)dyn_storage)"
      },
      {
        "astId": 5712,
        "contract": "contracts/JBDirectory.sol:JBDirectory",
        "label": "_primaryTerminalOf",
        "offset": 0,
        "slot": "2",
        "type": "t_mapping(t_uint256,t_mapping(t_address,t_contract(IJBTerminal)14122))"
      },
      {
        "astId": 5717,
        "contract": "contracts/JBDirectory.sol:JBDirectory",
        "label": "_setControllerAllowlist",
        "offset": 0,
        "slot": "3",
        "type": "t_mapping(t_address,t_bool)"
      },
      {
        "astId": 5729,
        "contract": "contracts/JBDirectory.sol:JBDirectory",
        "label": "controllerOf",
        "offset": 0,
        "slot": "4",
        "type": "t_mapping(t_uint256,t_contract(IJBController)13117)"
      }
    ],
    "types": {
      "t_address": {
        "encoding": "inplace",
        "label": "address",
        "numberOfBytes": "20"
      },
      "t_array(t_contract(IJBTerminal)14122)dyn_storage": {
        "base": "t_contract(IJBTerminal)14122",
        "encoding": "dynamic_array",
        "label": "contract IJBTerminal[]",
        "numberOfBytes": "32"
      },
      "t_bool": {
        "encoding": "inplace",
        "label": "bool",
        "numberOfBytes": "1"
      },
      "t_contract(IJBController)13117": {
        "encoding": "inplace",
        "label": "contract IJBController",
        "numberOfBytes": "20"
      },
      "t_contract(IJBTerminal)14122": {
        "encoding": "inplace",
        "label": "contract IJBTerminal",
        "numberOfBytes": "20"
      },
      "t_mapping(t_address,t_bool)": {
        "encoding": "mapping",
        "key": "t_address",
        "label": "mapping(address => bool)",
        "numberOfBytes": "32",
        "value": "t_bool"
      },
      "t_mapping(t_address,t_contract(IJBTerminal)14122)": {
        "encoding": "mapping",
        "key": "t_address",
        "label": "mapping(address => contract IJBTerminal)",
        "numberOfBytes": "32",
        "value": "t_contract(IJBTerminal)14122"
      },
      "t_mapping(t_uint256,t_array(t_contract(IJBTerminal)14122)dyn_storage)": {
        "encoding": "mapping",
        "key": "t_uint256",
        "label": "mapping(uint256 => contract IJBTerminal[])",
        "numberOfBytes": "32",
        "value": "t_array(t_contract(IJBTerminal)14122)dyn_storage"
      },
      "t_mapping(t_uint256,t_contract(IJBController)13117)": {
        "encoding": "mapping",
        "key": "t_uint256",
        "label": "mapping(uint256 => contract IJBController)",
        "numberOfBytes": "32",
        "value": "t_contract(IJBController)13117"
      },
      "t_mapping(t_uint256,t_mapping(t_address,t_contract(IJBTerminal)14122))": {
        "encoding": "mapping",
        "key": "t_uint256",
        "label": "mapping(uint256 => mapping(address => contract IJBTerminal))",
        "numberOfBytes": "32",
        "value": "t_mapping(t_address,t_contract(IJBTerminal)14122)"
      },
      "t_uint256": {
        "encoding": "inplace",
        "label": "uint256",
        "numberOfBytes": "32"
      }
    }
  }
}