{
  "address": "0xf4326041BE30a4b7fc4db9Bb6286fef458F71fe2",
  "abi": [
    {
      "inputs": [
        {
          "internalType": "contract IJBOperatorStore",
          "name": "_operatorStore",
          "type": "address"
        },
        {
          "internalType": "contract IJBProjects",
          "name": "_projects",
          "type": "address"
        }
      ],
      "stateMutability": "nonpayable",
      "type": "constructor"
    },
    {
      "anonymous": false,
      "inputs": [
        {
          "indexed": true,
          "internalType": "uint256",
          "name": "projectId",
          "type": "uint256"
        },
        {
          "indexed": true,
          "internalType": "contract IJBTerminal",
          "name": "terminal",
          "type": "address"
        },
        {
          "indexed": false,
          "internalType": "address",
          "name": "caller",
          "type": "address"
        }
      ],
      "name": "AddTerminal",
      "type": "event"
    },
    {
      "anonymous": false,
      "inputs": [
        {
          "indexed": true,
          "internalType": "uint256",
          "name": "projectId",
          "type": "uint256"
        },
        {
          "indexed": true,
          "internalType": "contract IJBTerminal",
          "name": "terminal",
          "type": "address"
        },
        {
          "indexed": false,
          "internalType": "address",
          "name": "caller",
          "type": "address"
        }
      ],
      "name": "RemoveTerminal",
      "type": "event"
    },
    {
      "anonymous": false,
      "inputs": [
        {
          "indexed": true,
          "internalType": "uint256",
          "name": "projectId",
          "type": "uint256"
        },
        {
          "indexed": true,
          "internalType": "contract IJBController",
          "name": "controller",
          "type": "address"
        },
        {
          "indexed": false,
          "internalType": "address",
          "name": "caller",
          "type": "address"
        }
      ],
      "name": "SetController",
      "type": "event"
    },
    {
      "anonymous": false,
      "inputs": [
        {
          "indexed": true,
          "internalType": "uint256",
          "name": "projectId",
          "type": "uint256"
        },
        {
          "indexed": true,
          "internalType": "address",
          "name": "token",
          "type": "address"
        },
        {
          "indexed": true,
          "internalType": "contract IJBTerminal",
          "name": "terminal",
          "type": "address"
        },
        {
          "indexed": false,
          "internalType": "address",
          "name": "caller",
          "type": "address"
        }
      ],
      "name": "SetPrimaryTerminal",
      "type": "event"
    },
    {
      "inputs": [
        {
          "internalType": "uint256",
          "name": "_projectId",
          "type": "uint256"
        },
        {
          "internalType": "contract IJBTerminal[]",
          "name": "_terminals",
          "type": "address[]"
        }
      ],
      "name": "addTerminalsOf",
      "outputs": [],
      "stateMutability": "nonpayable",
      "type": "function"
    },
    {
      "inputs": [
        {
          "internalType": "uint256",
          "name": "",
          "type": "uint256"
        }
      ],
      "name": "controllerOf",
      "outputs": [
        {
          "internalType": "contract IJBController",
          "name": "",
          "type": "address"
        }
      ],
      "stateMutability": "view",
      "type": "function"
    },
    {
      "inputs": [
        {
          "internalType": "uint256",
          "name": "_projectId",
          "type": "uint256"
        },
        {
          "internalType": "address",
          "name": "_contract",
          "type": "address"
        }
      ],
      "name": "isTerminalDelegateOf",
      "outputs": [
        {
          "internalType": "bool",
          "name": "",
          "type": "bool"
        }
      ],
      "stateMutability": "view",
      "type": "function"
    },
    {
      "inputs": [
        {
          "internalType": "uint256",
          "name": "_projectId",
          "type": "uint256"
        },
        {
          "internalType": "contract IJBTerminal",
          "name": "_terminal",
          "type": "address"
        }
      ],
      "name": "isTerminalOf",
      "outputs": [
        {
          "internalType": "bool",
          "name": "",
          "type": "bool"
        }
      ],
      "stateMutability": "view",
      "type": "function"
    },
    {
      "inputs": [],
      "name": "operatorStore",
      "outputs": [
        {
          "internalType": "contract IJBOperatorStore",
          "name": "",
          "type": "address"
        }
      ],
      "stateMutability": "view",
      "type": "function"
    },
    {
      "inputs": [
        {
          "internalType": "uint256",
          "name": "_projectId",
          "type": "uint256"
        },
        {
          "internalType": "address",
          "name": "_token",
          "type": "address"
        }
      ],
      "name": "primaryTerminalOf",
      "outputs": [
        {
          "internalType": "contract IJBTerminal",
          "name": "",
          "type": "address"
        }
      ],
      "stateMutability": "view",
      "type": "function"
    },
    {
      "inputs": [],
      "name": "projects",
      "outputs": [
        {
          "internalType": "contract IJBProjects",
          "name": "",
          "type": "address"
        }
      ],
      "stateMutability": "view",
      "type": "function"
    },
    {
      "inputs": [
        {
          "internalType": "uint256",
          "name": "_projectId",
          "type": "uint256"
        },
        {
          "internalType": "contract IJBTerminal",
          "name": "_terminal",
          "type": "address"
        }
      ],
      "name": "removeTerminalOf",
      "outputs": [],
      "stateMutability": "nonpayable",
      "type": "function"
    },
    {
      "inputs": [
        {
          "internalType": "uint256",
          "name": "_projectId",
          "type": "uint256"
        },
        {
          "internalType": "contract IJBController",
          "name": "_controller",
          "type": "address"
        }
      ],
      "name": "setControllerOf",
      "outputs": [],
      "stateMutability": "nonpayable",
      "type": "function"
    },
    {
      "inputs": [
        {
          "internalType": "uint256",
          "name": "_projectId",
          "type": "uint256"
        },
        {
          "internalType": "contract IJBTerminal",
          "name": "_terminal",
          "type": "address"
        }
      ],
      "name": "setPrimaryTerminalOf",
      "outputs": [],
      "stateMutability": "nonpayable",
      "type": "function"
    },
    {
      "inputs": [
        {
          "internalType": "uint256",
          "name": "_projectId",
          "type": "uint256"
        }
      ],
      "name": "terminalsOf",
      "outputs": [
        {
          "internalType": "contract IJBTerminal[]",
          "name": "",
          "type": "address[]"
        }
      ],
      "stateMutability": "view",
      "type": "function"
    }
  ],
  "transactionHash": "0xa2cda532ace1046d1d33b373f7f74e86f1dc70d1ec4a8ed546bd09f06fd83410",
  "args": [
    "0x21c1E45E7EBC41f3ED0aB6660204d63c911c93a9",
    "0x0a75928644d0E25Dc9340c33d0D946Fabef2046C"
  ],
  "solcInputHash": "5f321124cef92f5734094814cf45799b",
  "bytecode": "0x60c06040523480156200001157600080fd5b506040516200200438038062002004833981016040819052620000349162000053565b6001600160601b0319606092831b8116608052911b1660a052620000ab565b600080604083850312156200006757600080fd5b8251620000748162000092565b6020840151909250620000878162000092565b809150509250929050565b6001600160a01b0381168114620000a857600080fd5b50565b60805160601c60a05160601c611ed262000132600039600081816101a4015281816102620152818161083401528181610bb00152818161113a01526115c70152600081816101cb0152818161039d01528181610476015281816109bd01528181610a96015281816112440152818161131d015281816116d101526117aa0152611ed26000f3fe608060405234801561001057600080fd5b50600436106100c95760003560e01c8063898370ee11610081578063d17541531161005b578063d1754153146101ed578063df1441181461020d578063e527757a1461022057600080fd5b8063898370ee1461018c5780638b79543c1461019f578063ad007d63146101c657600080fd5b80636e49181f116100b25780636e49181f14610143578063714e7f3214610166578063862026501461017957600080fd5b80631cda3bfe146100ce5780635dd8f6aa146100e3575b600080fd5b6100e16100dc366004611d12565b610233565b005b6101196100f1366004611cb0565b60026020526000908152604090205473ffffffffffffffffffffffffffffffffffffffff1681565b60405173ffffffffffffffffffffffffffffffffffffffff90911681526020015b60405180910390f35b610156610151366004611ce2565b610761565b604051901515815260200161013a565b6100e1610174366004611ce2565b610805565b610119610187366004611ce2565b610dc0565b61015661019a366004611ce2565b610f61565b6101197f000000000000000000000000000000000000000000000000000000000000000081565b6101197f000000000000000000000000000000000000000000000000000000000000000081565b6102006101fb366004611cb0565b611094565b60405161013a9190611d91565b6100e161021b366004611ce2565b61110b565b6100e161022e366004611ce2565b611598565b6040517f6352211e000000000000000000000000000000000000000000000000000000008152600481018490527f000000000000000000000000000000000000000000000000000000000000000073ffffffffffffffffffffffffffffffffffffffff1690636352211e9060240160206040518083038186803b1580156102b957600080fd5b505afa1580156102cd573d6000803e3d6000fd5b505050506040513d601f19601f820116820180604052508101906102f19190611c4d565b600084815260026020526040902054849060119073ffffffffffffffffffffffffffffffffffffffff163314808061033e57503373ffffffffffffffffffffffffffffffffffffffff8516145b8061041757506040517fc161c93f00000000000000000000000000000000000000000000000000000000815233600482015273ffffffffffffffffffffffffffffffffffffffff858116602483015260448201859052606482018490527f0000000000000000000000000000000000000000000000000000000000000000169063c161c93f9060840160206040518083038186803b1580156103df57600080fd5b505afa1580156103f3573d6000803e3d6000fd5b505050506040513d601f19601f820116820180604052508101906104179190611c71565b806104f057506040517fc161c93f00000000000000000000000000000000000000000000000000000000815233600482015273ffffffffffffffffffffffffffffffffffffffff858116602483015260006044830152606482018490527f0000000000000000000000000000000000000000000000000000000000000000169063c161c93f9060840160206040518083038186803b1580156104b857600080fd5b505afa1580156104cc573d6000803e3d6000fd5b505050506040513d601f19601f820116820180604052508101906104f09190611c71565b61055b576040517f08c379a000000000000000000000000000000000000000000000000000000000815260206004820152601860248201527f4f706572617461626c653a20554e415554484f52495a4544000000000000000060448201526064015b60405180910390fd5b60005b8581101561075757600087878381811061057a5761057a611e4b565b905060200201602081019061058f9190611c93565b73ffffffffffffffffffffffffffffffffffffffff16141561060d576040517f08c379a000000000000000000000000000000000000000000000000000000000815260206004820152601260248201527f307832643a205a45524f5f4144445245535300000000000000000000000000006044820152606401610552565b6106388888888481811061062357610623611e4b565b90506020020160208101906101519190611c93565b1561064257610745565b600088815260208190526040902087878381811061066257610662611e4b565b90506020020160208101906106779190611c93565b81546001810183556000928352602090922090910180547fffffffffffffffffffffffff00000000000000000000000000000000000000001673ffffffffffffffffffffffffffffffffffffffff9092169190911790558686828181106106e0576106e0611e4b565b90506020020160208101906106f59190611c93565b60405133815273ffffffffffffffffffffffffffffffffffffffff919091169089907f409bccc07b7cf7807930526a24318212d614c59f2dde05a017a41efee144e7c89060200160405180910390a35b8061074f81611deb565b91505061055e565b5050505050505050565b6000805b6000848152602081905260409020548110156107f9578273ffffffffffffffffffffffffffffffffffffffff1660008086815260200190815260200160002082815481106107b5576107b5611e4b565b60009182526020909120015473ffffffffffffffffffffffffffffffffffffffff1614156107e75760019150506107ff565b806107f181611deb565b915050610765565b50600090505b92915050565b6040517f6352211e000000000000000000000000000000000000000000000000000000008152600481018390527f000000000000000000000000000000000000000000000000000000000000000073ffffffffffffffffffffffffffffffffffffffff1690636352211e9060240160206040518083038186803b15801561088b57600080fd5b505afa15801561089f573d6000803e3d6000fd5b505050506040513d601f19601f820116820180604052508101906108c39190611c4d565b600083815260026020526040902054839060109073ffffffffffffffffffffffffffffffffffffffff1615801561090f57503373ffffffffffffffffffffffffffffffffffffffff8516145b8061093d575060008581526002602052604090205473ffffffffffffffffffffffffffffffffffffffff1633145b808061095e57503373ffffffffffffffffffffffffffffffffffffffff8516145b80610a3757506040517fc161c93f00000000000000000000000000000000000000000000000000000000815233600482015273ffffffffffffffffffffffffffffffffffffffff858116602483015260448201859052606482018490527f0000000000000000000000000000000000000000000000000000000000000000169063c161c93f9060840160206040518083038186803b1580156109ff57600080fd5b505afa158015610a13573d6000803e3d6000fd5b505050506040513d601f19601f82011682018060405250810190610a379190611c71565b80610b1057506040517fc161c93f00000000000000000000000000000000000000000000000000000000815233600482015273ffffffffffffffffffffffffffffffffffffffff858116602483015260006044830152606482018490527f0000000000000000000000000000000000000000000000000000000000000000169063c161c93f9060840160206040518083038186803b158015610ad857600080fd5b505afa158015610aec573d6000803e3d6000fd5b505050506040513d601f19601f82011682018060405250810190610b109190611c71565b610b76576040517f08c379a000000000000000000000000000000000000000000000000000000000815260206004820152601860248201527f4f706572617461626c653a20554e415554484f52495a454400000000000000006044820152606401610552565b60008681526002602052604090205473ffffffffffffffffffffffffffffffffffffffff908116908616811415610bad5750610db8565b867f000000000000000000000000000000000000000000000000000000000000000073ffffffffffffffffffffffffffffffffffffffff166306661abd6040518163ffffffff1660e01b815260040160206040518083038186803b158015610c1457600080fd5b505afa158015610c28573d6000803e3d6000fd5b505050506040513d601f19601f82011682018060405250810190610c4c9190611cc9565b1015610cb4576040517f08c379a000000000000000000000000000000000000000000000000000000000815260206004820152600f60248201527f307832623a204e4f545f464f554e4400000000000000000000000000000000006044820152606401610552565b73ffffffffffffffffffffffffffffffffffffffff8616610d31576040517f08c379a000000000000000000000000000000000000000000000000000000000815260206004820152601260248201527f307832633a205a45524f5f4144445245535300000000000000000000000000006044820152606401610552565b60008781526002602090815260409182902080547fffffffffffffffffffffffff00000000000000000000000000000000000000001673ffffffffffffffffffffffffffffffffffffffff8a16908117909155915133815289917f7f9a7dcb234c909a09de2f344661ad9e5b24067adb97c908647c2edcbb121c30910160405180910390a3505b505050505050565b600082815260016020908152604080832073ffffffffffffffffffffffffffffffffffffffff858116855292528220541615610e2e5750600082815260016020908152604080832073ffffffffffffffffffffffffffffffffffffffff8086168552925290912054166107ff565b60005b6000848152602081905260409020548110156107f9576000848152602081905260408120805483908110610e6757610e67611e4b565b9060005260206000200160009054906101000a900473ffffffffffffffffffffffffffffffffffffffff1690508373ffffffffffffffffffffffffffffffffffffffff168173ffffffffffffffffffffffffffffffffffffffff1663fc0c546a6040518163ffffffff1660e01b815260040160206040518083038186803b158015610ef157600080fd5b505afa158015610f05573d6000803e3d6000fd5b505050506040513d601f19601f82011682018060405250810190610f299190611c4d565b73ffffffffffffffffffffffffffffffffffffffff161415610f4e5791506107ff9050565b5080610f5981611deb565b915050610e31565b6000805b6000848152602081905260409020548110156107f9578273ffffffffffffffffffffffffffffffffffffffff166000808681526020019081526020016000208281548110610fb557610fb5611e4b565b60009182526020918290200154604080517fc89e4361000000000000000000000000000000000000000000000000000000008152905173ffffffffffffffffffffffffffffffffffffffff9092169263c89e436192600480840193829003018186803b15801561102457600080fd5b505afa158015611038573d6000803e3d6000fd5b505050506040513d601f19601f8201168201806040525081019061105c9190611c4d565b73ffffffffffffffffffffffffffffffffffffffff1614156110825760019150506107ff565b8061108c81611deb565b915050610f65565b600081815260208181526040918290208054835181840281018401909452808452606093928301828280156110ff57602002820191906000526020600020905b815473ffffffffffffffffffffffffffffffffffffffff1681526001909101906020018083116110d4575b50505050509050919050565b6040517f6352211e000000000000000000000000000000000000000000000000000000008152600481018390527f000000000000000000000000000000000000000000000000000000000000000073ffffffffffffffffffffffffffffffffffffffff1690636352211e9060240160206040518083038186803b15801561119157600080fd5b505afa1580156111a5573d6000803e3d6000fd5b505050506040513d601f19601f820116820180604052508101906111c99190611c4d565b8260133373ffffffffffffffffffffffffffffffffffffffff841614806112be57506040517fc161c93f00000000000000000000000000000000000000000000000000000000815233600482015273ffffffffffffffffffffffffffffffffffffffff848116602483015260448201849052606482018390527f0000000000000000000000000000000000000000000000000000000000000000169063c161c93f9060840160206040518083038186803b15801561128657600080fd5b505afa15801561129a573d6000803e3d6000fd5b505050506040513d601f19601f820116820180604052508101906112be9190611c71565b8061139757506040517fc161c93f00000000000000000000000000000000000000000000000000000000815233600482015273ffffffffffffffffffffffffffffffffffffffff848116602483015260006044830152606482018390527f0000000000000000000000000000000000000000000000000000000000000000169063c161c93f9060840160206040518083038186803b15801561135f57600080fd5b505afa158015611373573d6000803e3d6000fd5b505050506040513d601f19601f820116820180604052508101906113979190611c71565b6113fd576040517f08c379a000000000000000000000000000000000000000000000000000000000815260206004820152601860248201527f4f706572617461626c653a20554e415554484f52495a454400000000000000006044820152606401610552565b73ffffffffffffffffffffffffffffffffffffffff841661147a576040517f08c379a000000000000000000000000000000000000000000000000000000000815260206004820152601260248201527f307832653a205a45524f5f4144445245535300000000000000000000000000006044820152606401610552565b60008473ffffffffffffffffffffffffffffffffffffffff1663fc0c546a6040518163ffffffff1660e01b815260040160206040518083038186803b1580156114c257600080fd5b505afa1580156114d6573d6000803e3d6000fd5b505050506040513d601f19601f820116820180604052508101906114fa9190611c4d565b600087815260016020908152604080832073ffffffffffffffffffffffffffffffffffffffff8581168086529184529382902080547fffffffffffffffffffffffff000000000000000000000000000000000000000016948b1694851790559051338152939450919289917fc670a502bbb9f8a4315f95eca901a9f99b65f89a2eb5705a58050e5c00f9d672910160405180910390a4505050505050565b6040517f6352211e000000000000000000000000000000000000000000000000000000008152600481018390527f000000000000000000000000000000000000000000000000000000000000000073ffffffffffffffffffffffffffffffffffffffff1690636352211e9060240160206040518083038186803b15801561161e57600080fd5b505afa158015611632573d6000803e3d6000fd5b505050506040513d601f19601f820116820180604052508101906116569190611c4d565b8260123373ffffffffffffffffffffffffffffffffffffffff8416148061174b57506040517fc161c93f00000000000000000000000000000000000000000000000000000000815233600482015273ffffffffffffffffffffffffffffffffffffffff848116602483015260448201849052606482018390527f0000000000000000000000000000000000000000000000000000000000000000169063c161c93f9060840160206040518083038186803b15801561171357600080fd5b505afa158015611727573d6000803e3d6000fd5b505050506040513d601f19601f8201168201806040525081019061174b9190611c71565b8061182457506040517fc161c93f00000000000000000000000000000000000000000000000000000000815233600482015273ffffffffffffffffffffffffffffffffffffffff848116602483015260006044830152606482018390527f0000000000000000000000000000000000000000000000000000000000000000169063c161c93f9060840160206040518083038186803b1580156117ec57600080fd5b505afa158015611800573d6000803e3d6000fd5b505050506040513d601f19601f820116820180604052508101906118249190611c71565b61188a576040517f08c379a000000000000000000000000000000000000000000000000000000000815260206004820152601860248201527f4f706572617461626c653a20554e415554484f52495a454400000000000000006044820152606401610552565b600085815260208181526040808320805482518185028101850190935280835291929091908301828280156118f557602002820191906000526020600020905b815473ffffffffffffffffffffffffffffffffffffffff1681526001909101906020018083116118ca575b50505060008981526020819052604081209394506119169392509050611c13565b60005b8151811015611a03578573ffffffffffffffffffffffffffffffffffffffff1682828151811061194b5761194b611e4b565b602002602001015173ffffffffffffffffffffffffffffffffffffffff16146119f1576000878152602081905260409020825183908390811061199057611990611e4b565b60209081029190910181015182546001810184556000938452919092200180547fffffffffffffffffffffffff00000000000000000000000000000000000000001673ffffffffffffffffffffffffffffffffffffffff9092169190911790555b806119fb81611deb565b915050611919565b508473ffffffffffffffffffffffffffffffffffffffff166001600088815260200190815260200160002060008773ffffffffffffffffffffffffffffffffffffffff1663fc0c546a6040518163ffffffff1660e01b815260040160206040518083038186803b158015611a7657600080fd5b505afa158015611a8a573d6000803e3d6000fd5b505050506040513d601f19601f82011682018060405250810190611aae9190611c4d565b73ffffffffffffffffffffffffffffffffffffffff9081168252602082019290925260400160002054161415611bbe576001600087815260200190815260200160002060008673ffffffffffffffffffffffffffffffffffffffff1663fc0c546a6040518163ffffffff1660e01b815260040160206040518083038186803b158015611b3957600080fd5b505afa158015611b4d573d6000803e3d6000fd5b505050506040513d601f19601f82011682018060405250810190611b719190611c4d565b73ffffffffffffffffffffffffffffffffffffffff168152602081019190915260400160002080547fffffffffffffffffffffffff00000000000000000000000000000000000000001690555b60405133815273ffffffffffffffffffffffffffffffffffffffff86169087907fbf79cd9af545aa6edcc5ac76aa264b34ccb6e59a51b44998a766f828ec9b7c869060200160405180910390a3505050505050565b5080546000825590600052602060002090810190611c319190611c34565b50565b5b80821115611c495760008155600101611c35565b5090565b600060208284031215611c5f57600080fd5b8151611c6a81611e7a565b9392505050565b600060208284031215611c8357600080fd5b81518015158114611c6a57600080fd5b600060208284031215611ca557600080fd5b8135611c6a81611e7a565b600060208284031215611cc257600080fd5b5035919050565b600060208284031215611cdb57600080fd5b5051919050565b60008060408385031215611cf557600080fd5b823591506020830135611d0781611e7a565b809150509250929050565b600080600060408486031215611d2757600080fd5b83359250602084013567ffffffffffffffff80821115611d4657600080fd5b818601915086601f830112611d5a57600080fd5b813581811115611d6957600080fd5b8760208260051b8501011115611d7e57600080fd5b6020830194508093505050509250925092565b6020808252825182820181905260009190848201906040850190845b81811015611ddf57835173ffffffffffffffffffffffffffffffffffffffff1683529284019291840191600101611dad565b50909695505050505050565b60007fffffffffffffffffffffffffffffffffffffffffffffffffffffffffffffffff821415611e44577f4e487b7100000000000000000000000000000000000000000000000000000000600052601160045260246000fd5b5060010190565b7f4e487b7100000000000000000000000000000000000000000000000000000000600052603260045260246000fd5b73ffffffffffffffffffffffffffffffffffffffff81168114611c3157600080fdfea26469706673582212203befe9ee3dbcd96ebb4bec3cfb7f2bcbd8feb0c7770409a249dfde81350bb19164736f6c63430008060033",
  "devdoc": {
    "kind": "dev",
    "methods": {
      "addTerminalsOf(uint256,address[])": {
        "details": "Only a project owner, an operator, or its controller can add terminals.",
        "params": {
          "_projectId": "The ID of the project having a terminal added.",
          "_terminals": "The terminals to add."
        }
      },
      "constructor": {
        "params": {
          "_operatorStore": "A contract storing operator assignments.",
          "_projects": "A contract which mints ERC-721's that represent project ownership and transfers."
        }
      },
      "isTerminalDelegateOf(uint256,address)": {
        "params": {
          "_contract": "The address of the terminal to check for.",
          "_projectId": "The ID of the project to check within."
        },
        "returns": {
          "_0": "A flag indicating whether or not the specified terminal is a terminal of the specified project."
        }
      },
      "isTerminalOf(uint256,address)": {
        "params": {
          "_projectId": "The ID of the project to check within.",
          "_terminal": "The address of the terminal to check for."
        },
        "returns": {
          "_0": "A flag indicating whether or not the specified terminal is a terminal of the specified project."
        }
      },
      "primaryTerminalOf(uint256,address)": {
        "details": "The zero address is returned if a terminal isn't found for the specified token.",
        "params": {
          "_projectId": "The ID of the project to get a terminal for.",
          "_token": "The token the terminal accepts."
        },
        "returns": {
          "_0": "The primary terminal for the project for the specified token."
        }
      },
      "removeTerminalOf(uint256,address)": {
        "details": "Only a project owner or an operator can remove one of its terminals. ",
        "params": {
          "_projectId": "The ID of the project having a terminal removed.",
          "_terminal": "The terminal to remove."
        }
      },
      "setControllerOf(uint256,address)": {
        "details": " A controller can be set if: - the message sender is the project owner or an operator is changing the controller. - or, the controller hasn't been set yet and the message sender is the controller being set. - or, the current controller is setting a new controller.",
        "params": {
          "_controller": "The new controller to set.",
          "_projectId": "The ID of the project to set a new controller for."
        }
      },
      "setPrimaryTerminalOf(uint256,address)": {
        "details": "The terminal will be set as the primary for the token that its vault accepts. ",
        "params": {
          "_projectId": "The ID of the project for which a primary token is being set.",
          "_terminal": "The terminal to make primary."
        }
      },
      "terminalsOf(uint256)": {
        "params": {
          "_projectId": "The ID of the project to get terminals of."
        },
        "returns": {
          "_0": "An array of terminal addresses."
        }
      }
    },
    "version": 1
  },
  "userdoc": {
    "kind": "user",
    "methods": {
      "addTerminalsOf(uint256,address[])": {
        "notice": " Add terminals to project's list of terminals."
      },
      "controllerOf(uint256)": {
        "notice": " For each project ID, the controller that manages how terminals interact with tokens and funding cycles. _projectId The ID of the project to get the controller of."
      },
      "isTerminalDelegateOf(uint256,address)": {
        "notice": "Whether or not a specified terminal is a terminal of the specified project."
      },
      "isTerminalOf(uint256,address)": {
        "notice": "Whether or not a specified terminal is a terminal of the specified project."
      },
      "operatorStore()": {
        "notice": " A contract storing operator assignments."
      },
      "primaryTerminalOf(uint256,address)": {
        "notice": "The primary terminal that is managing funds for a project for a specified token."
      },
      "projects()": {
        "notice": " The Projects contract which mints ERC-721's that represent project ownership and transfers."
      },
      "removeTerminalOf(uint256,address)": {
        "notice": " Remove a terminal from a project's list of terminals."
      },
      "setControllerOf(uint256,address)": {
        "notice": "Update the controller that manages how terminals interact with the ecosystem."
      },
      "setPrimaryTerminalOf(uint256,address)": {
        "notice": "Project's can set which terminal should be their primary for a particular token. This is useful in case a project has several terminals connected for a particular token."
      },
      "terminalsOf(uint256)": {
        "notice": "For each project ID, the terminals that are currently managing its funds."
      }
    },
    "notice": "Keeps a reference of which terminal contracts each project is currently accepting funds through, and which controller contract is managing each project's tokens and funding cycles.",
    "version": 1
  },
  "storageLayout": {
    "storage": [
      {
        "astId": 16946,
        "contract": "contracts/v2/JBDirectory.sol:JBDirectory",
        "label": "_terminalsOf",
        "offset": 0,
        "slot": "0",
        "type": "t_mapping(t_uint256,t_array(t_contract(IJBTerminal)25094)dyn_storage)"
      },
      {
        "astId": 16954,
        "contract": "contracts/v2/JBDirectory.sol:JBDirectory",
        "label": "_primaryTerminalOf",
        "offset": 0,
        "slot": "1",
        "type": "t_mapping(t_uint256,t_mapping(t_address,t_contract(IJBTerminal)25094))"
      },
      {
        "astId": 16966,
        "contract": "contracts/v2/JBDirectory.sol:JBDirectory",
        "label": "controllerOf",
        "offset": 0,
        "slot": "2",
        "type": "t_mapping(t_uint256,t_contract(IJBController)24133)"
      }
    ],
    "types": {
      "t_address": {
        "encoding": "inplace",
        "label": "address",
        "numberOfBytes": "20"
      },
      "t_array(t_contract(IJBTerminal)25094)dyn_storage": {
        "base": "t_contract(IJBTerminal)25094",
        "encoding": "dynamic_array",
        "label": "contract IJBTerminal[]",
        "numberOfBytes": "32"
      },
      "t_contract(IJBController)24133": {
        "encoding": "inplace",
        "label": "contract IJBController",
        "numberOfBytes": "20"
      },
      "t_contract(IJBTerminal)25094": {
        "encoding": "inplace",
        "label": "contract IJBTerminal",
        "numberOfBytes": "20"
      },
      "t_mapping(t_address,t_contract(IJBTerminal)25094)": {
        "encoding": "mapping",
        "key": "t_address",
        "label": "mapping(address => contract IJBTerminal)",
        "numberOfBytes": "32",
        "value": "t_contract(IJBTerminal)25094"
      },
      "t_mapping(t_uint256,t_array(t_contract(IJBTerminal)25094)dyn_storage)": {
        "encoding": "mapping",
        "key": "t_uint256",
        "label": "mapping(uint256 => contract IJBTerminal[])",
        "numberOfBytes": "32",
        "value": "t_array(t_contract(IJBTerminal)25094)dyn_storage"
      },
      "t_mapping(t_uint256,t_contract(IJBController)24133)": {
        "encoding": "mapping",
        "key": "t_uint256",
        "label": "mapping(uint256 => contract IJBController)",
        "numberOfBytes": "32",
        "value": "t_contract(IJBController)24133"
      },
      "t_mapping(t_uint256,t_mapping(t_address,t_contract(IJBTerminal)25094))": {
        "encoding": "mapping",
        "key": "t_uint256",
        "label": "mapping(uint256 => mapping(address => contract IJBTerminal))",
        "numberOfBytes": "32",
        "value": "t_mapping(t_address,t_contract(IJBTerminal)25094)"
      },
      "t_uint256": {
        "encoding": "inplace",
        "label": "uint256",
        "numberOfBytes": "32"
      }
    }
  }
}