{
  "address": "0xf835913B60B870A3a14b6C7179fEDF0fEba49D93",
  "abi": [
    {
      "inputs": [
        {
          "internalType": "contract IJBProjects",
          "name": "_projects",
          "type": "address"
        },
        {
          "internalType": "contract IJBOperatorStore",
          "name": "_operatorStore",
          "type": "address"
        }
      ],
      "stateMutability": "nonpayable",
      "type": "constructor"
    },
    {
      "anonymous": false,
      "inputs": [
        {
          "indexed": true,
          "internalType": "uint256",
          "name": "projectId",
          "type": "uint256"
        },
        {
          "indexed": true,
          "internalType": "contract IJBTerminal",
          "name": "terminal",
          "type": "address"
        },
        {
          "indexed": false,
          "internalType": "address",
          "name": "caller",
          "type": "address"
        }
      ],
      "name": "SetTerminal",
      "type": "event"
    },
    {
      "inputs": [
        {
          "internalType": "uint256",
          "name": "_projectId",
          "type": "uint256"
        },
        {
          "internalType": "contract IJBTerminal",
          "name": "_terminal",
          "type": "address"
        }
      ],
      "name": "addTerminalOf",
      "outputs": [],
      "stateMutability": "nonpayable",
      "type": "function"
    },
    {
      "inputs": [
        {
          "internalType": "uint256",
          "name": "_projectId",
          "type": "uint256"
        },
        {
          "internalType": "address",
          "name": "_terminal",
          "type": "address"
        }
      ],
      "name": "isTerminalOf",
      "outputs": [
        {
          "internalType": "bool",
          "name": "",
          "type": "bool"
        }
      ],
      "stateMutability": "view",
      "type": "function"
    },
    {
      "inputs": [],
      "name": "operatorStore",
      "outputs": [
        {
          "internalType": "contract IJBOperatorStore",
          "name": "",
          "type": "address"
        }
      ],
      "stateMutability": "view",
      "type": "function"
    },
    {
      "inputs": [],
      "name": "projects",
      "outputs": [
        {
          "internalType": "contract IJBProjects",
          "name": "",
          "type": "address"
        }
      ],
      "stateMutability": "view",
      "type": "function"
    },
    {
      "inputs": [
        {
          "internalType": "uint256",
          "name": "",
          "type": "uint256"
        },
        {
          "internalType": "address",
          "name": "",
          "type": "address"
        }
      ],
      "name": "terminalOf",
      "outputs": [
        {
          "internalType": "contract IJBTerminal",
          "name": "",
          "type": "address"
        }
      ],
      "stateMutability": "view",
      "type": "function"
    },
    {
      "inputs": [
        {
          "internalType": "uint256",
          "name": "_projectId",
          "type": "uint256"
        }
      ],
      "name": "terminalsOf",
      "outputs": [
        {
          "internalType": "contract IJBTerminal[]",
          "name": "",
          "type": "address[]"
        }
      ],
      "stateMutability": "view",
      "type": "function"
    },
    {
      "inputs": [
        {
          "internalType": "uint256",
          "name": "_projectId",
          "type": "uint256"
        },
        {
          "internalType": "contract IJBTerminal",
          "name": "_terminal",
          "type": "address"
        }
      ],
      "name": "transferTerminalOf",
      "outputs": [],
      "stateMutability": "nonpayable",
      "type": "function"
    }
  ],
  "transactionHash": "0x22b177db51308de9527c86c3082d8c83c2453d36392965a5e76fba4c35956a7e",
  "args": [
    "0x2DC1D364e52FCC7A3F3b5225813F0fcEC1ff715A",
    "0xC4D620E189b420249005FD38b22B1EA138cc0BeE"
  ],
  "solcInputHash": "096d8193c9ef3fa94853075f8aa2d2db",
  "bytecode": "0x60c060405234801561001057600080fd5b506040516106ec3803806106ec83398101604081905261002f9161004e565b6001600160601b0319606091821b811660805291901b1660a0526100a0565b6000806040838503121561006157600080fd5b825161006c81610088565b602084015190925061007d81610088565b809150509250929050565b6001600160a01b038116811461009d57600080fd5b50565b60805160601c60a05160601c6106216100cb600039600061012a0152600061015101526106216000f3fe608060405234801561001057600080fd5b506004361061007d5760003560e01c80638b79543c1161005b5780638b79543c14610125578063ad007d631461014c578063d175415314610173578063dc30d7f21461019357600080fd5b8063532fbaee146100825780636e49181f146100ed5780636eba4a0d14610110575b600080fd5b6100c36100903660046104ad565b600160209081526000928352604080842090915290825290205473ffffffffffffffffffffffffffffffffffffffff1681565b60405173ffffffffffffffffffffffffffffffffffffffff90911681526020015b60405180910390f35b6101006100fb3660046104ad565b6101a5565b60405190151581526020016100e4565b61012361011e3660046104ad565b610249565b005b6100c37f000000000000000000000000000000000000000000000000000000000000000081565b6100c37f000000000000000000000000000000000000000000000000000000000000000081565b610186610181366004610494565b61041d565b6040516100e491906104dd565b6101236101a13660046104ad565b5050565b6000805b60008481526020819052604090205481101561023d578273ffffffffffffffffffffffffffffffffffffffff1660008086815260200190815260200160002082815481106101f9576101f9610597565b60009182526020909120015473ffffffffffffffffffffffffffffffffffffffff16141561022b576001915050610243565b8061023581610537565b9150506101a9565b50600090505b92915050565b60008281526020819052604090205415801561027a57503373ffffffffffffffffffffffffffffffffffffffff8216145b8061028a575061028a82336101a5565b6102f5576040517f08c379a000000000000000000000000000000000000000000000000000000000815260206004820152600c60248201527f554e415554484f52495a4544000000000000000000000000000000000000000060448201526064015b60405180910390fd5b73ffffffffffffffffffffffffffffffffffffffff8116610372576040517f08c379a000000000000000000000000000000000000000000000000000000000815260206004820152600c60248201527f5a45524f5f41444452455353000000000000000000000000000000000000000060448201526064016102ec565b61037c82826101a5565b15610385575050565b60008281526020818152604080832080546001810182559084529282902090920180547fffffffffffffffffffffffff00000000000000000000000000000000000000001673ffffffffffffffffffffffffffffffffffffffff8516908117909155915133815284917f6780b115550b4a9f66ac0fa6f3eed2769911165bc5d87ad966769dbbbfae1dbe910160405180910390a35050565b6000818152602081815260409182902080548351818402810184019094528084526060939283018282801561048857602002820191906000526020600020905b815473ffffffffffffffffffffffffffffffffffffffff16815260019091019060200180831161045d575b50505050509050919050565b6000602082840312156104a657600080fd5b5035919050565b600080604083850312156104c057600080fd5b8235915060208301356104d2816105c6565b809150509250929050565b6020808252825182820181905260009190848201906040850190845b8181101561052b57835173ffffffffffffffffffffffffffffffffffffffff16835292840192918401916001016104f9565b50909695505050505050565b60007fffffffffffffffffffffffffffffffffffffffffffffffffffffffffffffffff821415610590577f4e487b7100000000000000000000000000000000000000000000000000000000600052601160045260246000fd5b5060010190565b7f4e487b7100000000000000000000000000000000000000000000000000000000600052603260045260246000fd5b73ffffffffffffffffffffffffffffffffffffffff811681146105e857600080fd5b5056fea26469706673582212204c6007d87adf2b20b07f545ab05d4f6beb8e2441b104021a1ea4aba12d5ca0e864736f6c63430008060033",
  "devdoc": {
    "kind": "dev",
    "methods": {
      "constructor": {
        "params": {
          "_operatorStore": "A contract storing operator assignments.",
          "_projects": "A Projects contract which mints ERC-721's that represent project ownership and transfers."
        }
      }
    },
    "version": 1
  },
  "userdoc": {
    "kind": "user",
    "methods": {
      "operatorStore()": {
        "notice": "A contract storing operator assignments."
      },
      "projects()": {
        "notice": "The Projects contract which mints ERC-721's that represent project ownership and transfers."
      },
      "terminalOf(uint256,address)": {
        "notice": "For each project ID, the juicebox terminal that the direct payment addresses are proxies for."
      }
    },
    "notice": "Allows project owners to deploy proxy contracts that can pay them when receiving funds directly.",
    "version": 1
  },
  "storageLayout": {
    "storage": [
      {
        "astId": 16783,
        "contract": "contracts/v2/JBDirectory.sol:JBDirectory",
        "label": "_terminalsOf",
        "offset": 0,
        "slot": "0",
        "type": "t_mapping(t_uint256,t_array(t_contract(IJBTerminal)25212)dyn_storage)"
      },
      {
        "astId": 16792,
        "contract": "contracts/v2/JBDirectory.sol:JBDirectory",
        "label": "terminalOf",
        "offset": 0,
        "slot": "1",
        "type": "t_mapping(t_uint256,t_mapping(t_address,t_contract(IJBTerminal)25212))"
      }
    ],
    "types": {
      "t_address": {
        "encoding": "inplace",
        "label": "address",
        "numberOfBytes": "20"
      },
      "t_array(t_contract(IJBTerminal)25212)dyn_storage": {
        "base": "t_contract(IJBTerminal)25212",
        "encoding": "dynamic_array",
        "label": "contract IJBTerminal[]",
        "numberOfBytes": "32"
      },
      "t_contract(IJBTerminal)25212": {
        "encoding": "inplace",
        "label": "contract IJBTerminal",
        "numberOfBytes": "20"
      },
      "t_mapping(t_address,t_contract(IJBTerminal)25212)": {
        "encoding": "mapping",
        "key": "t_address",
        "label": "mapping(address => contract IJBTerminal)",
        "numberOfBytes": "32",
        "value": "t_contract(IJBTerminal)25212"
      },
      "t_mapping(t_uint256,t_array(t_contract(IJBTerminal)25212)dyn_storage)": {
        "encoding": "mapping",
        "key": "t_uint256",
        "label": "mapping(uint256 => contract IJBTerminal[])",
        "numberOfBytes": "32",
        "value": "t_array(t_contract(IJBTerminal)25212)dyn_storage"
      },
      "t_mapping(t_uint256,t_mapping(t_address,t_contract(IJBTerminal)25212))": {
        "encoding": "mapping",
        "key": "t_uint256",
        "label": "mapping(uint256 => mapping(address => contract IJBTerminal))",
        "numberOfBytes": "32",
        "value": "t_mapping(t_address,t_contract(IJBTerminal)25212)"
      },
      "t_uint256": {
        "encoding": "inplace",
        "label": "uint256",
        "numberOfBytes": "32"
      }
    }
  }
}