{
  "address": "0xF77Cc21F7Ffdb0700D6d01FCF32EBE654f1A389b",
  "abi": [
    {
      "inputs": [
        {
          "internalType": "contract IJBOperatorStore",
          "name": "_operatorStore",
          "type": "address"
        },
        {
          "internalType": "contract IJBProjects",
          "name": "_projects",
          "type": "address"
        }
      ],
      "stateMutability": "nonpayable",
      "type": "constructor"
    },
    {
      "anonymous": false,
      "inputs": [
        {
          "indexed": true,
          "internalType": "uint256",
          "name": "projectId",
          "type": "uint256"
        },
        {
          "indexed": true,
          "internalType": "contract IJBTerminal",
          "name": "terminal",
          "type": "address"
        },
        {
          "indexed": false,
          "internalType": "address",
          "name": "caller",
          "type": "address"
        }
      ],
      "name": "AddTerminal",
      "type": "event"
    },
    {
      "anonymous": false,
      "inputs": [
        {
          "indexed": true,
          "internalType": "uint256",
          "name": "projectId",
          "type": "uint256"
        },
        {
          "indexed": true,
          "internalType": "contract IJBTerminal",
          "name": "terminal",
          "type": "address"
        },
        {
          "indexed": false,
          "internalType": "address",
          "name": "caller",
          "type": "address"
        }
      ],
      "name": "RemoveTerminal",
      "type": "event"
    },
    {
      "anonymous": false,
      "inputs": [
        {
          "indexed": true,
          "internalType": "uint256",
          "name": "projectId",
          "type": "uint256"
        },
        {
          "indexed": true,
          "internalType": "contract IJBController",
          "name": "controller",
          "type": "address"
        },
        {
          "indexed": false,
          "internalType": "address",
          "name": "caller",
          "type": "address"
        }
      ],
      "name": "SetController",
      "type": "event"
    },
    {
      "anonymous": false,
      "inputs": [
        {
          "indexed": true,
          "internalType": "uint256",
          "name": "projectId",
          "type": "uint256"
        },
        {
          "indexed": true,
          "internalType": "address",
          "name": "token",
          "type": "address"
        },
        {
          "indexed": true,
          "internalType": "contract IJBTerminal",
          "name": "terminal",
          "type": "address"
        },
        {
          "indexed": false,
          "internalType": "address",
          "name": "caller",
          "type": "address"
        }
      ],
      "name": "SetPrimaryTerminal",
      "type": "event"
    },
    {
      "inputs": [
        {
          "internalType": "uint256",
          "name": "_projectId",
          "type": "uint256"
        },
        {
          "internalType": "contract IJBTerminal",
          "name": "_terminal",
          "type": "address"
        }
      ],
      "name": "addTerminalOf",
      "outputs": [],
      "stateMutability": "nonpayable",
      "type": "function"
    },
    {
      "inputs": [
        {
          "internalType": "uint256",
          "name": "",
          "type": "uint256"
        }
      ],
      "name": "controllerOf",
      "outputs": [
        {
          "internalType": "contract IJBController",
          "name": "",
          "type": "address"
        }
      ],
      "stateMutability": "view",
      "type": "function"
    },
    {
      "inputs": [
        {
          "internalType": "uint256",
          "name": "_projectId",
          "type": "uint256"
        },
        {
          "internalType": "address",
          "name": "_contract",
          "type": "address"
        }
      ],
      "name": "isTerminalDelegateOf",
      "outputs": [
        {
          "internalType": "bool",
          "name": "",
          "type": "bool"
        }
      ],
      "stateMutability": "view",
      "type": "function"
    },
    {
      "inputs": [
        {
          "internalType": "uint256",
          "name": "_projectId",
          "type": "uint256"
        },
        {
          "internalType": "contract IJBTerminal",
          "name": "_terminal",
          "type": "address"
        }
      ],
      "name": "isTerminalOf",
      "outputs": [
        {
          "internalType": "bool",
          "name": "",
          "type": "bool"
        }
      ],
      "stateMutability": "view",
      "type": "function"
    },
    {
      "inputs": [],
      "name": "operatorStore",
      "outputs": [
        {
          "internalType": "contract IJBOperatorStore",
          "name": "",
          "type": "address"
        }
      ],
      "stateMutability": "view",
      "type": "function"
    },
    {
      "inputs": [
        {
          "internalType": "uint256",
          "name": "_projectId",
          "type": "uint256"
        },
        {
          "internalType": "address",
          "name": "_token",
          "type": "address"
        }
      ],
      "name": "primaryTerminalOf",
      "outputs": [
        {
          "internalType": "contract IJBTerminal",
          "name": "",
          "type": "address"
        }
      ],
      "stateMutability": "view",
      "type": "function"
    },
    {
      "inputs": [],
      "name": "projects",
      "outputs": [
        {
          "internalType": "contract IJBProjects",
          "name": "",
          "type": "address"
        }
      ],
      "stateMutability": "view",
      "type": "function"
    },
    {
      "inputs": [
        {
          "internalType": "uint256",
          "name": "_projectId",
          "type": "uint256"
        },
        {
          "internalType": "contract IJBTerminal",
          "name": "_terminal",
          "type": "address"
        }
      ],
      "name": "removeTerminalOf",
      "outputs": [],
      "stateMutability": "nonpayable",
      "type": "function"
    },
    {
      "inputs": [
        {
          "internalType": "uint256",
          "name": "_projectId",
          "type": "uint256"
        },
        {
          "internalType": "contract IJBController",
          "name": "_controller",
          "type": "address"
        }
      ],
      "name": "setControllerOf",
      "outputs": [],
      "stateMutability": "nonpayable",
      "type": "function"
    },
    {
      "inputs": [
        {
          "internalType": "uint256",
          "name": "_projectId",
          "type": "uint256"
        },
        {
          "internalType": "contract IJBTerminal",
          "name": "_terminal",
          "type": "address"
        }
      ],
      "name": "setPrimaryTerminalOf",
      "outputs": [],
      "stateMutability": "nonpayable",
      "type": "function"
    },
    {
      "inputs": [
        {
          "internalType": "uint256",
          "name": "_projectId",
          "type": "uint256"
        }
      ],
      "name": "terminalsOf",
      "outputs": [
        {
          "internalType": "contract IJBTerminal[]",
          "name": "",
          "type": "address[]"
        }
      ],
      "stateMutability": "view",
      "type": "function"
    }
  ],
  "transactionHash": "0xe52a0ca252c0efb25e61c89b0bbe729cc48e09a613195963eda82409cb3d69e8",
  "args": [
    "0x55d4dfb578daA4d60380995ffF7a706471d7c719",
    "0x2B0b6BD05a2F1f2a399F73528a99a495555C4c52"
  ],
  "solcInputHash": "3b4710394790e6b2fbe3ff5eb3b8549b",
  "bytecode": "0x60c06040523480156200001157600080fd5b5060405162001e8538038062001e85833981016040819052620000349162000053565b6001600160601b0319606092831b8116608052911b1660a052620000ab565b600080604083850312156200006757600080fd5b8251620000748162000092565b6020840151909250620000878162000092565b809150509250929050565b6001600160a01b0381168114620000a857600080fd5b50565b60805160601c60a05160601c611d5362000132600039600081816101a4015281816103060152818161075d01528181610ad90152818161106201526114ef0152600081816101cb015281816104410152818161051a015281816108e6015281816109bf0152818161116c01528181611245015281816115f901526116d20152611d536000f3fe608060405234801561001057600080fd5b50600436106100c95760003560e01c8063898370ee11610081578063d17541531161005b578063d1754153146101ed578063df1441181461020d578063e527757a1461022057600080fd5b8063898370ee1461018c5780638b79543c1461019f578063ad007d63146101c657600080fd5b80636eba4a0d116100b25780636eba4a0d14610151578063714e7f3214610166578063862026501461017957600080fd5b80635dd8f6aa146100ce5780636e49181f1461012e575b600080fd5b6101046100dc366004611bb0565b60026020526000908152604090205473ffffffffffffffffffffffffffffffffffffffff1681565b60405173ffffffffffffffffffffffffffffffffffffffff90911681526020015b60405180910390f35b61014161013c366004611be2565b610233565b6040519015158152602001610125565b61016461015f366004611be2565b6102d7565b005b610164610174366004611be2565b61072e565b610104610187366004611be2565b610ce8565b61014161019a366004611be2565b610e89565b6101047f000000000000000000000000000000000000000000000000000000000000000081565b6101047f000000000000000000000000000000000000000000000000000000000000000081565b6102006101fb366004611bb0565b610fbc565b6040516101259190611c12565b61016461021b366004611be2565b611033565b61016461022e366004611be2565b6114c0565b6000805b6000848152602081905260409020548110156102cb578273ffffffffffffffffffffffffffffffffffffffff16600080868152602001908152602001600020828154811061028757610287611ccc565b60009182526020909120015473ffffffffffffffffffffffffffffffffffffffff1614156102b95760019150506102d1565b806102c381611c6c565b915050610237565b50600090505b92915050565b6040517f6352211e000000000000000000000000000000000000000000000000000000008152600481018390527f000000000000000000000000000000000000000000000000000000000000000073ffffffffffffffffffffffffffffffffffffffff1690636352211e9060240160206040518083038186803b15801561035d57600080fd5b505afa158015610371573d6000803e3d6000fd5b505050506040513d601f19601f820116820180604052508101906103959190611b6a565b600083815260026020526040902054839060129073ffffffffffffffffffffffffffffffffffffffff16331480806103e257503373ffffffffffffffffffffffffffffffffffffffff8516145b806104bb57506040517fc161c93f00000000000000000000000000000000000000000000000000000000815233600482015273ffffffffffffffffffffffffffffffffffffffff858116602483015260448201859052606482018490527f0000000000000000000000000000000000000000000000000000000000000000169063c161c93f9060840160206040518083038186803b15801561048357600080fd5b505afa158015610497573d6000803e3d6000fd5b505050506040513d601f19601f820116820180604052508101906104bb9190611b8e565b8061059457506040517fc161c93f00000000000000000000000000000000000000000000000000000000815233600482015273ffffffffffffffffffffffffffffffffffffffff858116602483015260006044830152606482018490527f0000000000000000000000000000000000000000000000000000000000000000169063c161c93f9060840160206040518083038186803b15801561055c57600080fd5b505afa158015610570573d6000803e3d6000fd5b505050506040513d601f19601f820116820180604052508101906105949190611b8e565b6105ff576040517f08c379a000000000000000000000000000000000000000000000000000000000815260206004820152601860248201527f4f706572617461626c653a20554e415554484f52495a4544000000000000000060448201526064015b60405180910390fd5b73ffffffffffffffffffffffffffffffffffffffff851661067c576040517f08c379a000000000000000000000000000000000000000000000000000000000815260206004820152601260248201527f307832643a205a45524f5f41444452455353000000000000000000000000000060448201526064016105f6565b6106868686610233565b1561069057610726565b60008681526020818152604080832080546001810182559084529282902090920180547fffffffffffffffffffffffff00000000000000000000000000000000000000001673ffffffffffffffffffffffffffffffffffffffff8916908117909155915133815288917f409bccc07b7cf7807930526a24318212d614c59f2dde05a017a41efee144e7c891015b60405180910390a35b505050505050565b6040517f6352211e000000000000000000000000000000000000000000000000000000008152600481018390527f000000000000000000000000000000000000000000000000000000000000000073ffffffffffffffffffffffffffffffffffffffff1690636352211e9060240160206040518083038186803b1580156107b457600080fd5b505afa1580156107c8573d6000803e3d6000fd5b505050506040513d601f19601f820116820180604052508101906107ec9190611b6a565b600083815260026020526040902054839060119073ffffffffffffffffffffffffffffffffffffffff1615801561083857503373ffffffffffffffffffffffffffffffffffffffff8516145b80610866575060008581526002602052604090205473ffffffffffffffffffffffffffffffffffffffff1633145b808061088757503373ffffffffffffffffffffffffffffffffffffffff8516145b8061096057506040517fc161c93f00000000000000000000000000000000000000000000000000000000815233600482015273ffffffffffffffffffffffffffffffffffffffff858116602483015260448201859052606482018490527f0000000000000000000000000000000000000000000000000000000000000000169063c161c93f9060840160206040518083038186803b15801561092857600080fd5b505afa15801561093c573d6000803e3d6000fd5b505050506040513d601f19601f820116820180604052508101906109609190611b8e565b80610a3957506040517fc161c93f00000000000000000000000000000000000000000000000000000000815233600482015273ffffffffffffffffffffffffffffffffffffffff858116602483015260006044830152606482018490527f0000000000000000000000000000000000000000000000000000000000000000169063c161c93f9060840160206040518083038186803b158015610a0157600080fd5b505afa158015610a15573d6000803e3d6000fd5b505050506040513d601f19601f82011682018060405250810190610a399190611b8e565b610a9f576040517f08c379a000000000000000000000000000000000000000000000000000000000815260206004820152601860248201527f4f706572617461626c653a20554e415554484f52495a4544000000000000000060448201526064016105f6565b60008681526002602052604090205473ffffffffffffffffffffffffffffffffffffffff908116908616811415610ad65750610726565b867f000000000000000000000000000000000000000000000000000000000000000073ffffffffffffffffffffffffffffffffffffffff166306661abd6040518163ffffffff1660e01b815260040160206040518083038186803b158015610b3d57600080fd5b505afa158015610b51573d6000803e3d6000fd5b505050506040513d601f19601f82011682018060405250810190610b759190611bc9565b1015610bdd576040517f08c379a000000000000000000000000000000000000000000000000000000000815260206004820152600f60248201527f307832623a204e4f545f464f554e44000000000000000000000000000000000060448201526064016105f6565b73ffffffffffffffffffffffffffffffffffffffff8616610c5a576040517f08c379a000000000000000000000000000000000000000000000000000000000815260206004820152601260248201527f307832633a205a45524f5f41444452455353000000000000000000000000000060448201526064016105f6565b60008781526002602090815260409182902080547fffffffffffffffffffffffff00000000000000000000000000000000000000001673ffffffffffffffffffffffffffffffffffffffff8a16908117909155915133815289917f7f9a7dcb234c909a09de2f344661ad9e5b24067adb97c908647c2edcbb121c30910160405180910390a350505050505050565b600082815260016020908152604080832073ffffffffffffffffffffffffffffffffffffffff858116855292528220541615610d565750600082815260016020908152604080832073ffffffffffffffffffffffffffffffffffffffff8086168552925290912054166102d1565b60005b6000848152602081905260409020548110156102cb576000848152602081905260408120805483908110610d8f57610d8f611ccc565b9060005260206000200160009054906101000a900473ffffffffffffffffffffffffffffffffffffffff1690508373ffffffffffffffffffffffffffffffffffffffff168173ffffffffffffffffffffffffffffffffffffffff1663fc0c546a6040518163ffffffff1660e01b815260040160206040518083038186803b158015610e1957600080fd5b505afa158015610e2d573d6000803e3d6000fd5b505050506040513d601f19601f82011682018060405250810190610e519190611b6a565b73ffffffffffffffffffffffffffffffffffffffff161415610e765791506102d19050565b5080610e8181611c6c565b915050610d59565b6000805b6000848152602081905260409020548110156102cb578273ffffffffffffffffffffffffffffffffffffffff166000808681526020019081526020016000208281548110610edd57610edd611ccc565b60009182526020918290200154604080517fc89e4361000000000000000000000000000000000000000000000000000000008152905173ffffffffffffffffffffffffffffffffffffffff9092169263c89e436192600480840193829003018186803b158015610f4c57600080fd5b505afa158015610f60573d6000803e3d6000fd5b505050506040513d601f19601f82011682018060405250810190610f849190611b6a565b73ffffffffffffffffffffffffffffffffffffffff161415610faa5760019150506102d1565b80610fb481611c6c565b915050610e8d565b6000818152602081815260409182902080548351818402810184019094528084526060939283018282801561102757602002820191906000526020600020905b815473ffffffffffffffffffffffffffffffffffffffff168152600190910190602001808311610ffc575b50505050509050919050565b6040517f6352211e000000000000000000000000000000000000000000000000000000008152600481018390527f000000000000000000000000000000000000000000000000000000000000000073ffffffffffffffffffffffffffffffffffffffff1690636352211e9060240160206040518083038186803b1580156110b957600080fd5b505afa1580156110cd573d6000803e3d6000fd5b505050506040513d601f19601f820116820180604052508101906110f19190611b6a565b8260143373ffffffffffffffffffffffffffffffffffffffff841614806111e657506040517fc161c93f00000000000000000000000000000000000000000000000000000000815233600482015273ffffffffffffffffffffffffffffffffffffffff848116602483015260448201849052606482018390527f0000000000000000000000000000000000000000000000000000000000000000169063c161c93f9060840160206040518083038186803b1580156111ae57600080fd5b505afa1580156111c2573d6000803e3d6000fd5b505050506040513d601f19601f820116820180604052508101906111e69190611b8e565b806112bf57506040517fc161c93f00000000000000000000000000000000000000000000000000000000815233600482015273ffffffffffffffffffffffffffffffffffffffff848116602483015260006044830152606482018390527f0000000000000000000000000000000000000000000000000000000000000000169063c161c93f9060840160206040518083038186803b15801561128757600080fd5b505afa15801561129b573d6000803e3d6000fd5b505050506040513d601f19601f820116820180604052508101906112bf9190611b8e565b611325576040517f08c379a000000000000000000000000000000000000000000000000000000000815260206004820152601860248201527f4f706572617461626c653a20554e415554484f52495a4544000000000000000060448201526064016105f6565b73ffffffffffffffffffffffffffffffffffffffff84166113a2576040517f08c379a000000000000000000000000000000000000000000000000000000000815260206004820152601260248201527f307832653a205a45524f5f41444452455353000000000000000000000000000060448201526064016105f6565b60008473ffffffffffffffffffffffffffffffffffffffff1663fc0c546a6040518163ffffffff1660e01b815260040160206040518083038186803b1580156113ea57600080fd5b505afa1580156113fe573d6000803e3d6000fd5b505050506040513d601f19601f820116820180604052508101906114229190611b6a565b600087815260016020908152604080832073ffffffffffffffffffffffffffffffffffffffff8581168086529184529382902080547fffffffffffffffffffffffff000000000000000000000000000000000000000016948b1694851790559051338152939450919289917fc670a502bbb9f8a4315f95eca901a9f99b65f89a2eb5705a58050e5c00f9d672910160405180910390a4505050505050565b6040517f6352211e000000000000000000000000000000000000000000000000000000008152600481018390527f000000000000000000000000000000000000000000000000000000000000000073ffffffffffffffffffffffffffffffffffffffff1690636352211e9060240160206040518083038186803b15801561154657600080fd5b505afa15801561155a573d6000803e3d6000fd5b505050506040513d601f19601f8201168201806040525081019061157e9190611b6a565b8260133373ffffffffffffffffffffffffffffffffffffffff8416148061167357506040517fc161c93f00000000000000000000000000000000000000000000000000000000815233600482015273ffffffffffffffffffffffffffffffffffffffff848116602483015260448201849052606482018390527f0000000000000000000000000000000000000000000000000000000000000000169063c161c93f9060840160206040518083038186803b15801561163b57600080fd5b505afa15801561164f573d6000803e3d6000fd5b505050506040513d601f19601f820116820180604052508101906116739190611b8e565b8061174c57506040517fc161c93f00000000000000000000000000000000000000000000000000000000815233600482015273ffffffffffffffffffffffffffffffffffffffff848116602483015260006044830152606482018390527f0000000000000000000000000000000000000000000000000000000000000000169063c161c93f9060840160206040518083038186803b15801561171457600080fd5b505afa158015611728573d6000803e3d6000fd5b505050506040513d601f19601f8201168201806040525081019061174c9190611b8e565b6117b2576040517f08c379a000000000000000000000000000000000000000000000000000000000815260206004820152601860248201527f4f706572617461626c653a20554e415554484f52495a4544000000000000000060448201526064016105f6565b6000858152602081815260408083208054825181850281018501909352808352919290919083018282801561181d57602002820191906000526020600020905b815473ffffffffffffffffffffffffffffffffffffffff1681526001909101906020018083116117f2575b505050600089815260208190526040812093945061183e9392509050611b30565b60005b815181101561192b578573ffffffffffffffffffffffffffffffffffffffff1682828151811061187357611873611ccc565b602002602001015173ffffffffffffffffffffffffffffffffffffffff161461191957600087815260208190526040902082518390839081106118b8576118b8611ccc565b60209081029190910181015182546001810184556000938452919092200180547fffffffffffffffffffffffff00000000000000000000000000000000000000001673ffffffffffffffffffffffffffffffffffffffff9092169190911790555b8061192381611c6c565b915050611841565b508473ffffffffffffffffffffffffffffffffffffffff166001600088815260200190815260200160002060008773ffffffffffffffffffffffffffffffffffffffff1663fc0c546a6040518163ffffffff1660e01b815260040160206040518083038186803b15801561199e57600080fd5b505afa1580156119b2573d6000803e3d6000fd5b505050506040513d601f19601f820116820180604052508101906119d69190611b6a565b73ffffffffffffffffffffffffffffffffffffffff9081168252602082019290925260400160002054161415611ae6576001600087815260200190815260200160002060008673ffffffffffffffffffffffffffffffffffffffff1663fc0c546a6040518163ffffffff1660e01b815260040160206040518083038186803b158015611a6157600080fd5b505afa158015611a75573d6000803e3d6000fd5b505050506040513d601f19601f82011682018060405250810190611a999190611b6a565b73ffffffffffffffffffffffffffffffffffffffff168152602081019190915260400160002080547fffffffffffffffffffffffff00000000000000000000000000000000000000001690555b60405133815273ffffffffffffffffffffffffffffffffffffffff86169087907fbf79cd9af545aa6edcc5ac76aa264b34ccb6e59a51b44998a766f828ec9b7c869060200161071d565b5080546000825590600052602060002090810190611b4e9190611b51565b50565b5b80821115611b665760008155600101611b52565b5090565b600060208284031215611b7c57600080fd5b8151611b8781611cfb565b9392505050565b600060208284031215611ba057600080fd5b81518015158114611b8757600080fd5b600060208284031215611bc257600080fd5b5035919050565b600060208284031215611bdb57600080fd5b5051919050565b60008060408385031215611bf557600080fd5b823591506020830135611c0781611cfb565b809150509250929050565b6020808252825182820181905260009190848201906040850190845b81811015611c6057835173ffffffffffffffffffffffffffffffffffffffff1683529284019291840191600101611c2e565b50909695505050505050565b60007fffffffffffffffffffffffffffffffffffffffffffffffffffffffffffffffff821415611cc5577f4e487b7100000000000000000000000000000000000000000000000000000000600052601160045260246000fd5b5060010190565b7f4e487b7100000000000000000000000000000000000000000000000000000000600052603260045260246000fd5b73ffffffffffffffffffffffffffffffffffffffff81168114611b4e57600080fdfea264697066735822122021f5e9673fd52f898662532a08f5a987079c82baf8b5a0eac6df33a60a0221f264736f6c63430008060033",
  "devdoc": {
    "kind": "dev",
    "methods": {
      "addTerminalOf(uint256,address)": {
        "details": "Only a project owner, an operator, or its controller can add a terminal.",
        "params": {
          "_projectId": "The ID of the project having a terminal added.",
          "_terminal": "The terminal to add."
        }
      },
      "constructor": {
        "params": {
          "_operatorStore": "A contract storing operator assignments.",
          "_projects": "A contract which mints ERC-721's that represent project ownership and transfers."
        }
      },
      "isTerminalDelegateOf(uint256,address)": {
        "params": {
          "_contract": "The address of the terminal to check for.",
          "_projectId": "The ID of the project to check within."
        },
        "returns": {
          "_0": "A flag indicating whether or not the specified terminal is a terminal of the specified project."
        }
      },
      "isTerminalOf(uint256,address)": {
        "params": {
          "_projectId": "The ID of the project to check within.",
          "_terminal": "The address of the terminal to check for."
        },
        "returns": {
          "_0": "A flag indicating whether or not the specified terminal is a terminal of the specified project."
        }
      },
      "primaryTerminalOf(uint256,address)": {
        "details": "The zero address is returned if a terminal isn't found for the specified token.",
        "params": {
          "_projectId": "The ID of the project to get a terminal for.",
          "_token": "The token the terminal accepts."
        },
        "returns": {
          "_0": "The primary terminal for the project for the specified token."
        }
      },
      "removeTerminalOf(uint256,address)": {
        "details": "Only a project owner or an operator can remove one of its terminals. ",
        "params": {
          "_projectId": "The ID of the project having a terminal removed.",
          "_terminal": "The terminal to remove."
        }
      },
      "setControllerOf(uint256,address)": {
        "details": " A controller can be set if: - the message sender is the project owner or an operator is changing the controller. - or, the controller hasn't been set yet and the message sender is the controller being set. - or, the current controller is setting a new controller.",
        "params": {
          "_controller": "The new controller to set.",
          "_projectId": "The ID of the project to set a new controller for."
        }
      },
      "setPrimaryTerminalOf(uint256,address)": {
        "details": "The terminal will be set as the primary for the token that its vault accepts. ",
        "params": {
          "_projectId": "The ID of the project for which a primary token is being set.",
          "_terminal": "The terminal to make primary."
        }
      },
      "terminalsOf(uint256)": {
        "params": {
          "_projectId": "The ID of the project to get terminals of."
        },
        "returns": {
          "_0": "An array of terminal addresses."
        }
      }
    },
    "version": 1
  },
  "userdoc": {
    "kind": "user",
    "methods": {
      "addTerminalOf(uint256,address)": {
        "notice": " Add a terminal to project's list of terminals."
      },
      "controllerOf(uint256)": {
        "notice": " For each project ID, the controller that manages how terminals interact with tokens and funding cycles. _projectId The ID of the project to get the controller of."
      },
      "isTerminalDelegateOf(uint256,address)": {
        "notice": "Whether or not a specified terminal is a terminal of the specified project."
      },
      "isTerminalOf(uint256,address)": {
        "notice": "Whether or not a specified terminal is a terminal of the specified project."
      },
      "operatorStore()": {
        "notice": " A contract storing operator assignments."
      },
      "primaryTerminalOf(uint256,address)": {
        "notice": "The primary terminal that is managing funds for a project for a specified token."
      },
      "projects()": {
        "notice": " The Projects contract which mints ERC-721's that represent project ownership and transfers."
      },
      "removeTerminalOf(uint256,address)": {
        "notice": " Remove a terminal from a project's list of terminals."
      },
      "setControllerOf(uint256,address)": {
        "notice": "Update the controller that manages how terminals interact with the ecosystem."
      },
      "setPrimaryTerminalOf(uint256,address)": {
        "notice": "Project's can set which terminal should be their primary for a particular token. This is useful in case a project has several terminals connected for a particular token."
      },
      "terminalsOf(uint256)": {
        "notice": "For each project ID, the terminals that are currently managing its funds."
      }
    },
    "notice": "Keeps a reference of which terminal contracts each project is currently accepting funds through, and which controller contract is managing each project's tokens and funding cycles.",
    "version": 1
  },
  "storageLayout": {
    "storage": [
      {
        "astId": 16900,
        "contract": "contracts/v2/JBDirectory.sol:JBDirectory",
        "label": "_terminalsOf",
        "offset": 0,
        "slot": "0",
        "type": "t_mapping(t_uint256,t_array(t_contract(IJBTerminal)25151)dyn_storage)"
      },
      {
        "astId": 16908,
        "contract": "contracts/v2/JBDirectory.sol:JBDirectory",
        "label": "_primaryTerminalOf",
        "offset": 0,
        "slot": "1",
        "type": "t_mapping(t_uint256,t_mapping(t_address,t_contract(IJBTerminal)25151))"
      },
      {
        "astId": 16920,
        "contract": "contracts/v2/JBDirectory.sol:JBDirectory",
        "label": "controllerOf",
        "offset": 0,
        "slot": "2",
        "type": "t_mapping(t_uint256,t_contract(IJBController)24178)"
      }
    ],
    "types": {
      "t_address": {
        "encoding": "inplace",
        "label": "address",
        "numberOfBytes": "20"
      },
      "t_array(t_contract(IJBTerminal)25151)dyn_storage": {
        "base": "t_contract(IJBTerminal)25151",
        "encoding": "dynamic_array",
        "label": "contract IJBTerminal[]",
        "numberOfBytes": "32"
      },
      "t_contract(IJBController)24178": {
        "encoding": "inplace",
        "label": "contract IJBController",
        "numberOfBytes": "20"
      },
      "t_contract(IJBTerminal)25151": {
        "encoding": "inplace",
        "label": "contract IJBTerminal",
        "numberOfBytes": "20"
      },
      "t_mapping(t_address,t_contract(IJBTerminal)25151)": {
        "encoding": "mapping",
        "key": "t_address",
        "label": "mapping(address => contract IJBTerminal)",
        "numberOfBytes": "32",
        "value": "t_contract(IJBTerminal)25151"
      },
      "t_mapping(t_uint256,t_array(t_contract(IJBTerminal)25151)dyn_storage)": {
        "encoding": "mapping",
        "key": "t_uint256",
        "label": "mapping(uint256 => contract IJBTerminal[])",
        "numberOfBytes": "32",
        "value": "t_array(t_contract(IJBTerminal)25151)dyn_storage"
      },
      "t_mapping(t_uint256,t_contract(IJBController)24178)": {
        "encoding": "mapping",
        "key": "t_uint256",
        "label": "mapping(uint256 => contract IJBController)",
        "numberOfBytes": "32",
        "value": "t_contract(IJBController)24178"
      },
      "t_mapping(t_uint256,t_mapping(t_address,t_contract(IJBTerminal)25151))": {
        "encoding": "mapping",
        "key": "t_uint256",
        "label": "mapping(uint256 => mapping(address => contract IJBTerminal))",
        "numberOfBytes": "32",
        "value": "t_mapping(t_address,t_contract(IJBTerminal)25151)"
      },
      "t_uint256": {
        "encoding": "inplace",
        "label": "uint256",
        "numberOfBytes": "32"
      }
    }
  }
}