{
  "address": "0x06249fe92f19Ed8c493d0265b2B8480bE265338A",
  "abi": [
    {
      "inputs": [
        {
          "internalType": "contract IJBOperatorStore",
          "name": "_operatorStore",
          "type": "address"
        },
        {
          "internalType": "contract IJBProjects",
          "name": "_projects",
          "type": "address"
        },
        {
          "internalType": "contract IJBFundingCycleStore",
          "name": "_fundingCycleStore",
          "type": "address"
        },
        {
          "internalType": "address",
          "name": "_owner",
          "type": "address"
        }
      ],
      "stateMutability": "nonpayable",
      "type": "constructor"
    },
    {
      "inputs": [],
      "name": "DUPLICATE_TERMINALS",
      "type": "error"
    },
    {
      "inputs": [],
      "name": "INVALID_PROJECT_ID_IN_DIRECTORY",
      "type": "error"
    },
    {
      "inputs": [],
      "name": "SET_CONTROLLER_NOT_ALLOWED",
      "type": "error"
    },
    {
      "inputs": [],
      "name": "SET_TERMINALS_NOT_ALLOWED",
      "type": "error"
    },
    {
      "inputs": [],
      "name": "UNAUTHORIZED",
      "type": "error"
    },
    {
      "anonymous": false,
      "inputs": [
        {
          "indexed": true,
          "internalType": "uint256",
          "name": "projectId",
          "type": "uint256"
        },
        {
          "indexed": true,
          "internalType": "contract IJBPaymentTerminal",
          "name": "terminal",
          "type": "address"
        },
        {
          "indexed": false,
          "internalType": "address",
          "name": "caller",
          "type": "address"
        }
      ],
      "name": "AddTerminal",
      "type": "event"
    },
    {
      "anonymous": false,
      "inputs": [
        {
          "indexed": true,
          "internalType": "address",
          "name": "previousOwner",
          "type": "address"
        },
        {
          "indexed": true,
          "internalType": "address",
          "name": "newOwner",
          "type": "address"
        }
      ],
      "name": "OwnershipTransferred",
      "type": "event"
    },
    {
      "anonymous": false,
      "inputs": [
        {
          "indexed": true,
          "internalType": "uint256",
          "name": "projectId",
          "type": "uint256"
        },
        {
          "indexed": true,
          "internalType": "contract IJBController",
          "name": "controller",
          "type": "address"
        },
        {
          "indexed": false,
          "internalType": "address",
          "name": "caller",
          "type": "address"
        }
      ],
      "name": "SetController",
      "type": "event"
    },
    {
      "anonymous": false,
      "inputs": [
        {
          "indexed": true,
          "internalType": "address",
          "name": "addr",
          "type": "address"
        },
        {
          "indexed": true,
          "internalType": "bool",
          "name": "flag",
          "type": "bool"
        },
        {
          "indexed": false,
          "internalType": "address",
          "name": "caller",
          "type": "address"
        }
      ],
      "name": "SetIsAllowedToSetFirstController",
      "type": "event"
    },
    {
      "anonymous": false,
      "inputs": [
        {
          "indexed": true,
          "internalType": "uint256",
          "name": "projectId",
          "type": "uint256"
        },
        {
          "indexed": true,
          "internalType": "address",
          "name": "token",
          "type": "address"
        },
        {
          "indexed": true,
          "internalType": "contract IJBPaymentTerminal",
          "name": "terminal",
          "type": "address"
        },
        {
          "indexed": false,
          "internalType": "address",
          "name": "caller",
          "type": "address"
        }
      ],
      "name": "SetPrimaryTerminal",
      "type": "event"
    },
    {
      "anonymous": false,
      "inputs": [
        {
          "indexed": true,
          "internalType": "uint256",
          "name": "projectId",
          "type": "uint256"
        },
        {
          "indexed": false,
          "internalType": "contract IJBPaymentTerminal[]",
          "name": "terminals",
          "type": "address[]"
        },
        {
          "indexed": false,
          "internalType": "address",
          "name": "caller",
          "type": "address"
        }
      ],
      "name": "SetTerminals",
      "type": "event"
    },
    {
      "inputs": [
        {
          "internalType": "uint256",
          "name": "",
          "type": "uint256"
        }
      ],
      "name": "controllerOf",
      "outputs": [
        {
          "internalType": "contract IJBController",
          "name": "",
          "type": "address"
        }
      ],
      "stateMutability": "view",
      "type": "function"
    },
    {
      "inputs": [],
      "name": "fundingCycleStore",
      "outputs": [
        {
          "internalType": "contract IJBFundingCycleStore",
          "name": "",
          "type": "address"
        }
      ],
      "stateMutability": "view",
      "type": "function"
    },
    {
      "inputs": [
        {
          "internalType": "address",
          "name": "",
          "type": "address"
        }
      ],
      "name": "isAllowedToSetFirstController",
      "outputs": [
        {
          "internalType": "bool",
          "name": "",
          "type": "bool"
        }
      ],
      "stateMutability": "view",
      "type": "function"
    },
    {
      "inputs": [
        {
          "internalType": "uint256",
          "name": "_projectId",
          "type": "uint256"
        },
        {
          "internalType": "contract IJBPaymentTerminal",
          "name": "_terminal",
          "type": "address"
        }
      ],
      "name": "isTerminalOf",
      "outputs": [
        {
          "internalType": "bool",
          "name": "",
          "type": "bool"
        }
      ],
      "stateMutability": "view",
      "type": "function"
    },
    {
      "inputs": [],
      "name": "operatorStore",
      "outputs": [
        {
          "internalType": "contract IJBOperatorStore",
          "name": "",
          "type": "address"
        }
      ],
      "stateMutability": "view",
      "type": "function"
    },
    {
      "inputs": [],
      "name": "owner",
      "outputs": [
        {
          "internalType": "address",
          "name": "",
          "type": "address"
        }
      ],
      "stateMutability": "view",
      "type": "function"
    },
    {
      "inputs": [
        {
          "internalType": "uint256",
          "name": "_projectId",
          "type": "uint256"
        },
        {
          "internalType": "address",
          "name": "_token",
          "type": "address"
        }
      ],
      "name": "primaryTerminalOf",
      "outputs": [
        {
          "internalType": "contract IJBPaymentTerminal",
          "name": "",
          "type": "address"
        }
      ],
      "stateMutability": "view",
      "type": "function"
    },
    {
      "inputs": [],
      "name": "projects",
      "outputs": [
        {
          "internalType": "contract IJBProjects",
          "name": "",
          "type": "address"
        }
      ],
      "stateMutability": "view",
      "type": "function"
    },
    {
      "inputs": [],
      "name": "renounceOwnership",
      "outputs": [],
      "stateMutability": "nonpayable",
      "type": "function"
    },
    {
      "inputs": [
        {
          "internalType": "uint256",
          "name": "_projectId",
          "type": "uint256"
        },
        {
          "internalType": "contract IJBController",
          "name": "_controller",
          "type": "address"
        }
      ],
      "name": "setControllerOf",
      "outputs": [],
      "stateMutability": "nonpayable",
      "type": "function"
    },
    {
      "inputs": [
        {
          "internalType": "address",
          "name": "_address",
          "type": "address"
        },
        {
          "internalType": "bool",
          "name": "_flag",
          "type": "bool"
        }
      ],
      "name": "setIsAllowedToSetFirstController",
      "outputs": [],
      "stateMutability": "nonpayable",
      "type": "function"
    },
    {
      "inputs": [
        {
          "internalType": "uint256",
          "name": "_projectId",
          "type": "uint256"
        },
        {
          "internalType": "contract IJBPaymentTerminal",
          "name": "_terminal",
          "type": "address"
        }
      ],
      "name": "setPrimaryTerminalOf",
      "outputs": [],
      "stateMutability": "nonpayable",
      "type": "function"
    },
    {
      "inputs": [
        {
          "internalType": "uint256",
          "name": "_projectId",
          "type": "uint256"
        },
        {
          "internalType": "contract IJBPaymentTerminal[]",
          "name": "_terminals",
          "type": "address[]"
        }
      ],
      "name": "setTerminalsOf",
      "outputs": [],
      "stateMutability": "nonpayable",
      "type": "function"
    },
    {
      "inputs": [
        {
          "internalType": "uint256",
          "name": "_projectId",
          "type": "uint256"
        }
      ],
      "name": "terminalsOf",
      "outputs": [
        {
          "internalType": "contract IJBPaymentTerminal[]",
          "name": "",
          "type": "address[]"
        }
      ],
      "stateMutability": "view",
      "type": "function"
    },
    {
      "inputs": [
        {
          "internalType": "address",
          "name": "newOwner",
          "type": "address"
        }
      ],
      "name": "transferOwnership",
      "outputs": [],
      "stateMutability": "nonpayable",
      "type": "function"
    }
  ],
  "transactionHash": "0x130f1534ede71610f8ed7de9b1e3144521ecd61fc88cf8e3908194743c37fe92",
  "args": [
    "0x2186Eca004D07eBd5c66c2FF371107d81455f9b3",
    "0xBa2048C29C24344A5F98E82f3C597305fF9F1d45",
    "0x1994b525F394F1dde3fd221Be55923343e78e66f",
    "0xE9bE6df23C7f9CaBa3005DA2fa2d8714d340D0aF"
  ],
  "numDeployments": 2,
  "solcInputHash": "c53e8ea435a365144e05257e9146f0fc",
  "bytecode": "0x60e06040523480156200001157600080fd5b5060405162002464380380620024648339810160408190526200003491620000d0565b606084901b6001600160601b031916608052620000513362000080565b6001600160601b0319606084811b821660a05283901b1660c052620000768162000080565b5050505062000151565b600080546001600160a01b038381166001600160a01b0319831681178455604051919092169283917f8be0079c531659141344cd1fd0a4f28419497f9722a3daafe3b4186f6b6457e09190a35050565b60008060008060808587031215620000e757600080fd5b8451620000f48162000138565b6020860151909450620001078162000138565b60408601519093506200011a8162000138565b60608601519092506200012d8162000138565b939692955090935050565b6001600160a01b03811681146200014e57600080fd5b50565b60805160601c60a05160601c60c05160601c612280620001e46000396000818160ff015281816107bf01528181610d460152611c100152600081816101ec015281816103a1015281816106b901528181610a4701526115d5015260008181610244015281816105270152818161060301528181610b8501528181610c61015281816116e101526117bd01526122806000f3fe608060405234801561001057600080fd5b50600436106100f55760003560e01c80638b79543c11610097578063c5664e2111610066578063c5664e2114610266578063d175415314610289578063df144118146102a9578063f2fde38b146102bc57600080fd5b80638b79543c146101e75780638da5cb5b1461020e578063a1ed31751461022c578063ad007d631461023f57600080fd5b8063714e7f32116100d3578063714e7f32146101a4578063715018a6146101b9578063821b9fd8146101c157806386202650146101d457600080fd5b8063557e7155146100fa5780635dd8f6aa1461014b5780636e49181f14610181575b600080fd5b6101217f000000000000000000000000000000000000000000000000000000000000000081565b60405173ffffffffffffffffffffffffffffffffffffffff90911681526020015b60405180910390f35b610121610159366004611f70565b60036020526000908152604090205473ffffffffffffffffffffffffffffffffffffffff1681565b61019461018f366004611fa2565b6102cf565b6040519015158152602001610142565b6101b76101b2366004611fa2565b610372565b005b6101b7610986565b6101b76101cf366004611fc7565b610a18565b6101216101e2366004611fa2565b61127e565b6101217f000000000000000000000000000000000000000000000000000000000000000081565b60005473ffffffffffffffffffffffffffffffffffffffff16610121565b6101b761023a366004611e9a565b61141f565b6101217f000000000000000000000000000000000000000000000000000000000000000081565b610194610274366004611e60565b60046020526000908152604090205460ff1681565b61029c610297366004611f70565b61152d565b60405161014291906120c0565b6101b76102b7366004611fa2565b6115a6565b6101b76102ca366004611e60565b611997565b6000805b600084815260016020526040902054811015610366576000848152600160205260409020805473ffffffffffffffffffffffffffffffffffffffff8516919083908110610322576103226121eb565b60009182526020909120015473ffffffffffffffffffffffffffffffffffffffff16141561035457600191505061036c565b8061035e81612183565b9150506102d3565b50600090505b92915050565b6040517f6352211e000000000000000000000000000000000000000000000000000000008152600481018390527f000000000000000000000000000000000000000000000000000000000000000073ffffffffffffffffffffffffffffffffffffffff1690636352211e9060240160206040518083038186803b1580156103f857600080fd5b505afa15801561040c573d6000803e3d6000fd5b505050506040513d601f19601f820116820180604052508101906104309190611e7d565b6000838152600360205260409020548390600e9073ffffffffffffffffffffffffffffffffffffffff163314806104a357503360009081526004602052604090205460ff1680156104a3575060008581526003602052604090205473ffffffffffffffffffffffffffffffffffffffff16155b801580156104c757503373ffffffffffffffffffffffffffffffffffffffff851614155b80156105a357506040517fc161c93f00000000000000000000000000000000000000000000000000000000815233600482015273ffffffffffffffffffffffffffffffffffffffff858116602483015260448201859052606482018490527f0000000000000000000000000000000000000000000000000000000000000000169063c161c93f9060840160206040518083038186803b15801561056957600080fd5b505afa15801561057d573d6000803e3d6000fd5b505050506040513d601f19601f820116820180604052508101906105a19190611ed3565b155b801561067f57506040517fc161c93f00000000000000000000000000000000000000000000000000000000815233600482015273ffffffffffffffffffffffffffffffffffffffff858116602483015260006044830152606482018490527f0000000000000000000000000000000000000000000000000000000000000000169063c161c93f9060840160206040518083038186803b15801561064557600080fd5b505afa158015610659573d6000803e3d6000fd5b505050506040513d601f19601f8201168201806040525081019061067d9190611ed3565b155b156106b6576040517f075fd2b100000000000000000000000000000000000000000000000000000000815260040160405180910390fd5b857f000000000000000000000000000000000000000000000000000000000000000073ffffffffffffffffffffffffffffffffffffffff166306661abd6040518163ffffffff1660e01b815260040160206040518083038186803b15801561071d57600080fd5b505afa158015610731573d6000803e3d6000fd5b505050506040513d601f19601f820116820180604052508101906107559190611f89565b101561078d576040517f945074a600000000000000000000000000000000000000000000000000000000815260040160405180910390fd5b6040517f43a266c2000000000000000000000000000000000000000000000000000000008152600481018790526000907f000000000000000000000000000000000000000000000000000000000000000073ffffffffffffffffffffffffffffffffffffffff16906343a266c2906024016101206040518083038186803b15801561081757600080fd5b505afa15801561082b573d6000803e3d6000fd5b505050506040513d601f19601f8201168201806040525081019061084f9190611ef0565b60008881526003602052604090205490915073ffffffffffffffffffffffffffffffffffffffff1633148015906108a9575060008781526003602052604090205473ffffffffffffffffffffffffffffffffffffffff1615155b80156108c1575061010081015160411c600190811614155b156108f8576040517fa33db4cb00000000000000000000000000000000000000000000000000000000815260040160405180910390fd5b60008781526003602090815260409182902080547fffffffffffffffffffffffff00000000000000000000000000000000000000001673ffffffffffffffffffffffffffffffffffffffff8a16908117909155915133815289917f7f9a7dcb234c909a09de2f344661ad9e5b24067adb97c908647c2edcbb121c30910160405180910390a350505050505050565b60005473ffffffffffffffffffffffffffffffffffffffff163314610a0c576040517f08c379a000000000000000000000000000000000000000000000000000000000815260206004820181905260248201527f4f776e61626c653a2063616c6c6572206973206e6f7420746865206f776e657260448201526064015b60405180910390fd5b610a166000611ac7565b565b6040517f6352211e000000000000000000000000000000000000000000000000000000008152600481018490527f000000000000000000000000000000000000000000000000000000000000000073ffffffffffffffffffffffffffffffffffffffff1690636352211e9060240160206040518083038186803b158015610a9e57600080fd5b505afa158015610ab2573d6000803e3d6000fd5b505050506040513d601f19601f82011682018060405250810190610ad69190611e7d565b6000848152600360205260409020548490600f9073ffffffffffffffffffffffffffffffffffffffff163314801581610b2557503373ffffffffffffffffffffffffffffffffffffffff851614155b8015610c0157506040517fc161c93f00000000000000000000000000000000000000000000000000000000815233600482015273ffffffffffffffffffffffffffffffffffffffff858116602483015260448201859052606482018490527f0000000000000000000000000000000000000000000000000000000000000000169063c161c93f9060840160206040518083038186803b158015610bc757600080fd5b505afa158015610bdb573d6000803e3d6000fd5b505050506040513d601f19601f82011682018060405250810190610bff9190611ed3565b155b8015610cdd57506040517fc161c93f00000000000000000000000000000000000000000000000000000000815233600482015273ffffffffffffffffffffffffffffffffffffffff858116602483015260006044830152606482018490527f0000000000000000000000000000000000000000000000000000000000000000169063c161c93f9060840160206040518083038186803b158015610ca357600080fd5b505afa158015610cb7573d6000803e3d6000fd5b505050506040513d601f19601f82011682018060405250810190610cdb9190611ed3565b155b15610d14576040517f075fd2b100000000000000000000000000000000000000000000000000000000815260040160405180910390fd5b6040517f43a266c2000000000000000000000000000000000000000000000000000000008152600481018890526000907f000000000000000000000000000000000000000000000000000000000000000073ffffffffffffffffffffffffffffffffffffffff16906343a266c2906024016101206040518083038186803b158015610d9e57600080fd5b505afa158015610db2573d6000803e3d6000fd5b505050506040513d601f19601f82011682018060405250810190610dd69190611ef0565b60008981526003602052604090205490915073ffffffffffffffffffffffffffffffffffffffff163314801590610e19575061010081015160401c600190811614155b15610e50576040517febfde6be00000000000000000000000000000000000000000000000000000000815260040160405180910390fd5b600088815260016020908152604080832080548251818502810185019093528083529192909190830182828015610ebd57602002820191906000526020600020905b815473ffffffffffffffffffffffffffffffffffffffff168152600190910190602001808311610e92575b50505060008c8152600160205260409020929350610ee09291508a905089611db3565b506001871115610fe65760005b87811015610fe4576000610f0282600161216b565b90505b88811015610fd157898982818110610f1f57610f1f6121eb565b9050602002016020810190610f349190611e60565b73ffffffffffffffffffffffffffffffffffffffff168a8a84818110610f5c57610f5c6121eb565b9050602002016020810190610f719190611e60565b73ffffffffffffffffffffffffffffffffffffffff161415610fbf576040517f7c70615600000000000000000000000000000000000000000000000000000000815260040160405180910390fd5b80610fc981612183565b915050610f05565b5080610fdc81612183565b915050610eed565b505b60005b815181101561123657818181518110611004576110046121eb565b602002602001015173ffffffffffffffffffffffffffffffffffffffff16600260008c81526020019081526020016000206000848481518110611049576110496121eb565b602002602001015173ffffffffffffffffffffffffffffffffffffffff1663fc0c546a6040518163ffffffff1660e01b815260040160206040518083038186803b15801561109657600080fd5b505afa1580156110aa573d6000803e3d6000fd5b505050506040513d601f19601f820116820180604052508101906110ce9190611e7d565b73ffffffffffffffffffffffffffffffffffffffff90811682526020820192909252604001600020541614801561112657506111248989848481518110611117576111176121eb565b6020026020010151611b3c565b155b1561122457600260008b81526020019081526020016000206000838381518110611152576111526121eb565b602002602001015173ffffffffffffffffffffffffffffffffffffffff1663fc0c546a6040518163ffffffff1660e01b815260040160206040518083038186803b15801561119f57600080fd5b505afa1580156111b3573d6000803e3d6000fd5b505050506040513d601f19601f820116820180604052508101906111d79190611e7d565b73ffffffffffffffffffffffffffffffffffffffff168152602081019190915260400160002080547fffffffffffffffffffffffff00000000000000000000000000000000000000001690555b8061122e81612183565b915050610fe9565b50887fb648241d83df6540fc10f2acc641e4bf80a1e84e7ae2f1f6b0ad204b8fee635b89893360405161126b93929190612046565b60405180910390a2505050505050505050565b600082815260026020908152604080832073ffffffffffffffffffffffffffffffffffffffff8581168552925282205416156112ec5750600082815260026020908152604080832073ffffffffffffffffffffffffffffffffffffffff80861685529252909120541661036c565b60005b600084815260016020526040902054811015610366576000848152600160205260408120805483908110611325576113256121eb565b9060005260206000200160009054906101000a900473ffffffffffffffffffffffffffffffffffffffff1690508373ffffffffffffffffffffffffffffffffffffffff168173ffffffffffffffffffffffffffffffffffffffff1663fc0c546a6040518163ffffffff1660e01b815260040160206040518083038186803b1580156113af57600080fd5b505afa1580156113c3573d6000803e3d6000fd5b505050506040513d601f19601f820116820180604052508101906113e79190611e7d565b73ffffffffffffffffffffffffffffffffffffffff16141561140c57915061036c9050565b508061141781612183565b9150506112ef565b60005473ffffffffffffffffffffffffffffffffffffffff1633146114a0576040517f08c379a000000000000000000000000000000000000000000000000000000000815260206004820181905260248201527f4f776e61626c653a2063616c6c6572206973206e6f7420746865206f776e65726044820152606401610a03565b73ffffffffffffffffffffffffffffffffffffffff821660008181526004602090815260409182902080547fffffffffffffffffffffffffffffffffffffffffffffffffffffffffffffff001685151590811790915591513381529192917f11207664cc48b0fa81c8674795f1d8f642960f38d5d2d305ad813093bed85fab910160405180910390a35050565b60008181526001602090815260409182902080548351818402810184019094528084526060939283018282801561159a57602002820191906000526020600020905b815473ffffffffffffffffffffffffffffffffffffffff16815260019091019060200180831161156f575b50505050509050919050565b6040517f6352211e000000000000000000000000000000000000000000000000000000008152600481018390527f000000000000000000000000000000000000000000000000000000000000000073ffffffffffffffffffffffffffffffffffffffff1690636352211e9060240160206040518083038186803b15801561162c57600080fd5b505afa158015611640573d6000803e3d6000fd5b505050506040513d601f19601f820116820180604052508101906116649190611e7d565b8260103373ffffffffffffffffffffffffffffffffffffffff84161480159061175d57506040517fc161c93f00000000000000000000000000000000000000000000000000000000815233600482015273ffffffffffffffffffffffffffffffffffffffff848116602483015260448201849052606482018390527f0000000000000000000000000000000000000000000000000000000000000000169063c161c93f9060840160206040518083038186803b15801561172357600080fd5b505afa158015611737573d6000803e3d6000fd5b505050506040513d601f19601f8201168201806040525081019061175b9190611ed3565b155b801561183957506040517fc161c93f00000000000000000000000000000000000000000000000000000000815233600482015273ffffffffffffffffffffffffffffffffffffffff848116602483015260006044830152606482018390527f0000000000000000000000000000000000000000000000000000000000000000169063c161c93f9060840160206040518083038186803b1580156117ff57600080fd5b505afa158015611813573d6000803e3d6000fd5b505050506040513d601f19601f820116820180604052508101906118379190611ed3565b155b15611870576040517f075fd2b100000000000000000000000000000000000000000000000000000000815260040160405180910390fd5b60008473ffffffffffffffffffffffffffffffffffffffff1663fc0c546a6040518163ffffffff1660e01b815260040160206040518083038186803b1580156118b857600080fd5b505afa1580156118cc573d6000803e3d6000fd5b505050506040513d601f19601f820116820180604052508101906118f09190611e7d565b90506118fc8686611bcb565b600086815260026020908152604080832073ffffffffffffffffffffffffffffffffffffffff8581168086529184529382902080547fffffffffffffffffffffffff000000000000000000000000000000000000000016948a1694851790559051338152909189917fc670a502bbb9f8a4315f95eca901a9f99b65f89a2eb5705a58050e5c00f9d672910160405180910390a4505050505050565b60005473ffffffffffffffffffffffffffffffffffffffff163314611a18576040517f08c379a000000000000000000000000000000000000000000000000000000000815260206004820181905260248201527f4f776e61626c653a2063616c6c6572206973206e6f7420746865206f776e65726044820152606401610a03565b73ffffffffffffffffffffffffffffffffffffffff8116611abb576040517f08c379a000000000000000000000000000000000000000000000000000000000815260206004820152602660248201527f4f776e61626c653a206e6577206f776e657220697320746865207a65726f206160448201527f64647265737300000000000000000000000000000000000000000000000000006064820152608401610a03565b611ac481611ac7565b50565b6000805473ffffffffffffffffffffffffffffffffffffffff8381167fffffffffffffffffffffffff0000000000000000000000000000000000000000831681178455604051919092169283917f8be0079c531659141344cd1fd0a4f28419497f9722a3daafe3b4186f6b6457e09190a35050565b6000805b83811015611bbe578273ffffffffffffffffffffffffffffffffffffffff16858583818110611b7157611b716121eb565b9050602002016020810190611b869190611e60565b73ffffffffffffffffffffffffffffffffffffffff161415611bac576001915050611bc4565b80611bb681612183565b915050611b40565b50600090505b9392505050565b611bd582826102cf565b15611bde575050565b6040517f43a266c2000000000000000000000000000000000000000000000000000000008152600481018390526000907f000000000000000000000000000000000000000000000000000000000000000073ffffffffffffffffffffffffffffffffffffffff16906343a266c2906024016101206040518083038186803b158015611c6857600080fd5b505afa158015611c7c573d6000803e3d6000fd5b505050506040513d601f19601f82011682018060405250810190611ca09190611ef0565b60008481526003602052604090205490915073ffffffffffffffffffffffffffffffffffffffff163314801590611ce3575061010081015160401c600190811614155b15611d1a576040517febfde6be00000000000000000000000000000000000000000000000000000000815260040160405180910390fd5b60008381526001602081815260408084208054938401815584529281902090910180547fffffffffffffffffffffffff00000000000000000000000000000000000000001673ffffffffffffffffffffffffffffffffffffffff8616908117909155915133815285917f409bccc07b7cf7807930526a24318212d614c59f2dde05a017a41efee144e7c8910160405180910390a3505050565b828054828255906000526020600020908101928215611e2b579160200282015b82811115611e2b5781547fffffffffffffffffffffffff00000000000000000000000000000000000000001673ffffffffffffffffffffffffffffffffffffffff843516178255602090920191600190910190611dd3565b50611e37929150611e3b565b5090565b5b80821115611e375760008155600101611e3c565b8051611e5b8161221a565b919050565b600060208284031215611e7257600080fd5b8135611bc48161221a565b600060208284031215611e8f57600080fd5b8151611bc48161221a565b60008060408385031215611ead57600080fd5b8235611eb88161221a565b91506020830135611ec88161223c565b809150509250929050565b600060208284031215611ee557600080fd5b8151611bc48161223c565b60006101208284031215611f0357600080fd5b611f0b61211a565b825181526020830151602082015260408301516040820152606083015160608201526080830151608082015260a083015160a082015260c083015160c0820152611f5760e08401611e50565b60e0820152610100928301519281019290925250919050565b600060208284031215611f8257600080fd5b5035919050565b600060208284031215611f9b57600080fd5b5051919050565b60008060408385031215611fb557600080fd5b823591506020830135611ec88161221a565b600080600060408486031215611fdc57600080fd5b83359250602084013567ffffffffffffffff80821115611ffb57600080fd5b818601915086601f83011261200f57600080fd5b81358181111561201e57600080fd5b8760208260051b850101111561203357600080fd5b6020830194508093505050509250925092565b6040808252810183905260008460608301825b8681101561209657823561206c8161221a565b73ffffffffffffffffffffffffffffffffffffffff16825260209283019290910190600101612059565b50809250505073ffffffffffffffffffffffffffffffffffffffff83166020830152949350505050565b6020808252825182820181905260009190848201906040850190845b8181101561210e57835173ffffffffffffffffffffffffffffffffffffffff16835292840192918401916001016120dc565b50909695505050505050565b604051610120810167ffffffffffffffff81118282101715612165577f4e487b7100000000000000000000000000000000000000000000000000000000600052604160045260246000fd5b60405290565b6000821982111561217e5761217e6121bc565b500190565b60007fffffffffffffffffffffffffffffffffffffffffffffffffffffffffffffffff8214156121b5576121b56121bc565b5060010190565b7f4e487b7100000000000000000000000000000000000000000000000000000000600052601160045260246000fd5b7f4e487b7100000000000000000000000000000000000000000000000000000000600052603260045260246000fd5b73ffffffffffffffffffffffffffffffffffffffff81168114611ac457600080fd5b8015158114611ac457600080fdfea2646970667358221220aedf1f17e4b89d1d6c363b285f4bc643b3cb0e6cd6f879c59626e78244a6216864736f6c63430008060033",
  "devdoc": {
    "details": "Adheres to: IJBDirectory: General interface for the methods in this contract that interact with the blockchain's state according to the protocol's rules.Inherits from: JBOperatable: Includes convenience functionality for checking a message sender's permissions before executing certain transactions. Ownable: Includes convenience functionality for checking a message sender's permissions before executing certain transactions.",
    "kind": "dev",
    "methods": {
      "constructor": {
        "params": {
          "_fundingCycleStore": "A contract storing all funding cycle configurations.",
          "_operatorStore": "A contract storing operator assignments.",
          "_owner": "The address that will own the contract.",
          "_projects": "A contract which mints ERC-721's that represent project ownership and transfers."
        }
      },
      "isTerminalOf(uint256,address)": {
        "params": {
          "_projectId": "The ID of the project to check within.",
          "_terminal": "The address of the terminal to check for."
        },
        "returns": {
          "_0": "A flag indicating whether or not the specified terminal is a terminal of the specified project."
        }
      },
      "owner()": {
        "details": "Returns the address of the current owner."
      },
      "primaryTerminalOf(uint256,address)": {
        "details": "The zero address is returned if a terminal isn't found for the specified token.",
        "params": {
          "_projectId": "The ID of the project to get a terminal for.",
          "_token": "The token the terminal accepts."
        },
        "returns": {
          "_0": "The primary terminal for the project for the specified token."
        }
      },
      "renounceOwnership()": {
        "details": "Leaves the contract without owner. It will not be possible to call `onlyOwner` functions anymore. Can only be called by the current owner. NOTE: Renouncing ownership will leave the contract without an owner, thereby removing any functionality that is only available to the owner."
      },
      "setControllerOf(uint256,address)": {
        "details": " A controller can be set if: - the message sender is the project owner or an operator having the correct authorization. - the message sender is the project's current controller. - or, an allowedlisted address is setting a controller for a project that doesn't already have a controller.",
        "params": {
          "_controller": "The new controller to set.",
          "_projectId": "The ID of the project to set a new controller for."
        }
      },
      "setIsAllowedToSetFirstController(address,bool)": {
        "details": "The owner can add addresses which are allowed to change projects' first controllers.  These addresses are known and vetted controllers as well as contracts designed to launch new projects.  A project can set its own controller without it being on the allow list.If you would like an address/contract allowlisted, please reach out to the contract owner.",
        "params": {
          "_address": "The address to allow or revoke allowance from.",
          "_flag": "Whether allowance is being added or revoked."
        }
      },
      "setPrimaryTerminalOf(uint256,address)": {
        "details": "The terminal will be set as the primary terminal where ecosystem contracts should route tokens.If setting a newly added terminal and the funding cycle doesn't allow new terminals, the caller must be the current controller.",
        "params": {
          "_projectId": "The ID of the project for which a primary token is being set.",
          "_terminal": "The terminal to make primary."
        }
      },
      "setTerminalsOf(uint256,address[])": {
        "details": "Only a project owner, an operator, or its controller can set its terminals.",
        "params": {
          "_projectId": "The ID of the project having terminals set.",
          "_terminals": "The terminal to set."
        }
      },
      "terminalsOf(uint256)": {
        "params": {
          "_projectId": "The ID of the project to get terminals of."
        },
        "returns": {
          "_0": "An array of terminal addresses."
        }
      },
      "transferOwnership(address)": {
        "details": "Transfers ownership of the contract to a new account (`newOwner`). Can only be called by the current owner."
      }
    },
    "version": 1
  },
  "userdoc": {
    "kind": "user",
    "methods": {
      "controllerOf(uint256)": {
        "notice": " For each project ID, the controller that manages how terminals interact with tokens and funding cycles. _projectId The ID of the project to get the controller of."
      },
      "fundingCycleStore()": {
        "notice": "The contract storing all funding cycle configurations."
      },
      "isAllowedToSetFirstController(address)": {
        "notice": "Addresses that can set a project's first controller on their behalf. These addresses/contracts have been vetted and verified by this contract's owner. _address The address that is either allowed or not."
      },
      "isTerminalOf(uint256,address)": {
        "notice": "Whether or not a specified terminal is a terminal of the specified project."
      },
      "operatorStore()": {
        "notice": " A contract storing operator assignments."
      },
      "primaryTerminalOf(uint256,address)": {
        "notice": "The primary terminal that is managing funds for a project for a specified token."
      },
      "projects()": {
        "notice": " The Projects contract which mints ERC-721's that represent project ownership and transfers."
      },
      "setControllerOf(uint256,address)": {
        "notice": "Update the controller that manages how terminals interact with the ecosystem."
      },
      "setIsAllowedToSetFirstController(address,bool)": {
        "notice": " Set a contract to the list of trusted addresses that can set a first controller for any project.\t"
      },
      "setPrimaryTerminalOf(uint256,address)": {
        "notice": "Project's can set which terminal should be their primary for a particular token. This is useful in case a project has several terminals connected for a particular token."
      },
      "setTerminalsOf(uint256,address[])": {
        "notice": " Set a project's terminals."
      },
      "terminalsOf(uint256)": {
        "notice": "For each project ID, the terminals that are currently managing its funds."
      }
    },
    "notice": "Keeps a reference of which terminal contracts each project is currently accepting funds through, and which controller contract is managing each project's tokens and funding cycles.",
    "version": 1
  },
  "storageLayout": {
    "storage": [
      {
        "astId": 53,
        "contract": "contracts/JBDirectory.sol:JBDirectory",
        "label": "_owner",
        "offset": 0,
        "slot": "0",
        "type": "t_address"
      },
      {
        "astId": 6087,
        "contract": "contracts/JBDirectory.sol:JBDirectory",
        "label": "_terminalsOf",
        "offset": 0,
        "slot": "1",
        "type": "t_mapping(t_uint256,t_array(t_contract(IJBPaymentTerminal)15193)dyn_storage)"
      },
      {
        "astId": 6095,
        "contract": "contracts/JBDirectory.sol:JBDirectory",
        "label": "_primaryTerminalOf",
        "offset": 0,
        "slot": "2",
        "type": "t_mapping(t_uint256,t_mapping(t_address,t_contract(IJBPaymentTerminal)15193))"
      },
      {
        "astId": 6112,
        "contract": "contracts/JBDirectory.sol:JBDirectory",
        "label": "controllerOf",
        "offset": 0,
        "slot": "3",
        "type": "t_mapping(t_uint256,t_contract(IJBController)14704)"
      },
      {
        "astId": 6118,
        "contract": "contracts/JBDirectory.sol:JBDirectory",
        "label": "isAllowedToSetFirstController",
        "offset": 0,
        "slot": "4",
        "type": "t_mapping(t_address,t_bool)"
      }
    ],
    "types": {
      "t_address": {
        "encoding": "inplace",
        "label": "address",
        "numberOfBytes": "20"
      },
      "t_array(t_contract(IJBPaymentTerminal)15193)dyn_storage": {
        "base": "t_contract(IJBPaymentTerminal)15193",
        "encoding": "dynamic_array",
        "label": "contract IJBPaymentTerminal[]",
        "numberOfBytes": "32"
      },
      "t_bool": {
        "encoding": "inplace",
        "label": "bool",
        "numberOfBytes": "1"
      },
      "t_contract(IJBController)14704": {
        "encoding": "inplace",
        "label": "contract IJBController",
        "numberOfBytes": "20"
      },
      "t_contract(IJBPaymentTerminal)15193": {
        "encoding": "inplace",
        "label": "contract IJBPaymentTerminal",
        "numberOfBytes": "20"
      },
      "t_mapping(t_address,t_bool)": {
        "encoding": "mapping",
        "key": "t_address",
        "label": "mapping(address => bool)",
        "numberOfBytes": "32",
        "value": "t_bool"
      },
      "t_mapping(t_address,t_contract(IJBPaymentTerminal)15193)": {
        "encoding": "mapping",
        "key": "t_address",
        "label": "mapping(address => contract IJBPaymentTerminal)",
        "numberOfBytes": "32",
        "value": "t_contract(IJBPaymentTerminal)15193"
      },
      "t_mapping(t_uint256,t_array(t_contract(IJBPaymentTerminal)15193)dyn_storage)": {
        "encoding": "mapping",
        "key": "t_uint256",
        "label": "mapping(uint256 => contract IJBPaymentTerminal[])",
        "numberOfBytes": "32",
        "value": "t_array(t_contract(IJBPaymentTerminal)15193)dyn_storage"
      },
      "t_mapping(t_uint256,t_contract(IJBController)14704)": {
        "encoding": "mapping",
        "key": "t_uint256",
        "label": "mapping(uint256 => contract IJBController)",
        "numberOfBytes": "32",
        "value": "t_contract(IJBController)14704"
      },
      "t_mapping(t_uint256,t_mapping(t_address,t_contract(IJBPaymentTerminal)15193))": {
        "encoding": "mapping",
        "key": "t_uint256",
        "label": "mapping(uint256 => mapping(address => contract IJBPaymentTerminal))",
        "numberOfBytes": "32",
        "value": "t_mapping(t_address,t_contract(IJBPaymentTerminal)15193)"
      },
      "t_uint256": {
        "encoding": "inplace",
        "label": "uint256",
        "numberOfBytes": "32"
      }
    }
  }
}