{
  "address": "0xedfCFdCB621aFA76781eFBe7586fAe83D1578Ac2",
  "abi": [
    {
      "inputs": [
        {
          "internalType": "contract IJBOperatorStore",
          "name": "_operatorStore",
          "type": "address"
        },
        {
          "internalType": "contract IJBProjects",
          "name": "_projects",
          "type": "address"
        }
      ],
      "stateMutability": "nonpayable",
      "type": "constructor"
    },
    {
      "inputs": [],
      "name": "ADD_TERMINAL_ZERO_ADDRESS",
      "type": "error"
    },
    {
      "inputs": [],
      "name": "CONTROLLER_ALREADY_IN_ALLOWLIST",
      "type": "error"
    },
    {
      "inputs": [],
      "name": "CONTROLLER_ALREADY_SET",
      "type": "error"
    },
    {
      "inputs": [],
      "name": "CONTROLLER_NOT_IN_ALLOWLIST",
      "type": "error"
    },
    {
      "inputs": [],
      "name": "INVALID_PROJECT_ID",
      "type": "error"
    },
    {
      "inputs": [],
      "name": "PRIMARY_TERMINAL_ALREADY_SET",
      "type": "error"
    },
    {
      "inputs": [],
      "name": "SET_CONTROLLER_ZERO_ADDRESS",
      "type": "error"
    },
    {
      "inputs": [],
      "name": "SET_PRIMARY_TERMINAL_ZERO_ADDRESS",
      "type": "error"
    },
    {
      "inputs": [],
      "name": "UNAUTHORIZED",
      "type": "error"
    },
    {
      "anonymous": false,
      "inputs": [
        {
          "indexed": true,
          "internalType": "uint256",
          "name": "projectId",
          "type": "uint256"
        },
        {
          "indexed": true,
          "internalType": "contract IJBTerminal",
          "name": "terminal",
          "type": "address"
        },
        {
          "indexed": false,
          "internalType": "address",
          "name": "caller",
          "type": "address"
        }
      ],
      "name": "AddTerminal",
      "type": "event"
    },
    {
      "anonymous": false,
      "inputs": [
        {
          "indexed": true,
          "internalType": "address",
          "name": "_address",
          "type": "address"
        },
        {
          "indexed": false,
          "internalType": "address",
          "name": "caller",
          "type": "address"
        }
      ],
      "name": "AddToSetControllerAllowlist",
      "type": "event"
    },
    {
      "anonymous": false,
      "inputs": [
        {
          "indexed": true,
          "internalType": "address",
          "name": "previousOwner",
          "type": "address"
        },
        {
          "indexed": true,
          "internalType": "address",
          "name": "newOwner",
          "type": "address"
        }
      ],
      "name": "OwnershipTransferred",
      "type": "event"
    },
    {
      "anonymous": false,
      "inputs": [
        {
          "indexed": true,
          "internalType": "address",
          "name": "_address",
          "type": "address"
        },
        {
          "indexed": false,
          "internalType": "address",
          "name": "caller",
          "type": "address"
        }
      ],
      "name": "RemoveFromSetControllerAllowlist",
      "type": "event"
    },
    {
      "anonymous": false,
      "inputs": [
        {
          "indexed": true,
          "internalType": "uint256",
          "name": "projectId",
          "type": "uint256"
        },
        {
          "indexed": true,
          "internalType": "contract IJBTerminal",
          "name": "terminal",
          "type": "address"
        },
        {
          "indexed": false,
          "internalType": "address",
          "name": "caller",
          "type": "address"
        }
      ],
      "name": "RemoveTerminal",
      "type": "event"
    },
    {
      "anonymous": false,
      "inputs": [
        {
          "indexed": true,
          "internalType": "uint256",
          "name": "projectId",
          "type": "uint256"
        },
        {
          "indexed": true,
          "internalType": "contract IJBController",
          "name": "controller",
          "type": "address"
        },
        {
          "indexed": false,
          "internalType": "address",
          "name": "caller",
          "type": "address"
        }
      ],
      "name": "SetController",
      "type": "event"
    },
    {
      "anonymous": false,
      "inputs": [
        {
          "indexed": true,
          "internalType": "uint256",
          "name": "projectId",
          "type": "uint256"
        },
        {
          "indexed": true,
          "internalType": "address",
          "name": "token",
          "type": "address"
        },
        {
          "indexed": true,
          "internalType": "contract IJBTerminal",
          "name": "terminal",
          "type": "address"
        },
        {
          "indexed": false,
          "internalType": "address",
          "name": "caller",
          "type": "address"
        }
      ],
      "name": "SetPrimaryTerminal",
      "type": "event"
    },
    {
      "inputs": [
        {
          "internalType": "uint256",
          "name": "_projectId",
          "type": "uint256"
        },
        {
          "internalType": "contract IJBTerminal[]",
          "name": "_terminals",
          "type": "address[]"
        }
      ],
      "name": "addTerminalsOf",
      "outputs": [],
      "stateMutability": "nonpayable",
      "type": "function"
    },
    {
      "inputs": [
        {
          "internalType": "address",
          "name": "_address",
          "type": "address"
        }
      ],
      "name": "addToSetControllerAllowlist",
      "outputs": [],
      "stateMutability": "nonpayable",
      "type": "function"
    },
    {
      "inputs": [
        {
          "internalType": "uint256",
          "name": "",
          "type": "uint256"
        }
      ],
      "name": "controllerOf",
      "outputs": [
        {
          "internalType": "contract IJBController",
          "name": "",
          "type": "address"
        }
      ],
      "stateMutability": "view",
      "type": "function"
    },
    {
      "inputs": [
        {
          "internalType": "address",
          "name": "",
          "type": "address"
        }
      ],
      "name": "isAllowedToSetController",
      "outputs": [
        {
          "internalType": "bool",
          "name": "",
          "type": "bool"
        }
      ],
      "stateMutability": "view",
      "type": "function"
    },
    {
      "inputs": [
        {
          "internalType": "uint256",
          "name": "_projectId",
          "type": "uint256"
        },
        {
          "internalType": "address",
          "name": "_contract",
          "type": "address"
        }
      ],
      "name": "isTerminalDelegateOf",
      "outputs": [
        {
          "internalType": "bool",
          "name": "",
          "type": "bool"
        }
      ],
      "stateMutability": "view",
      "type": "function"
    },
    {
      "inputs": [
        {
          "internalType": "uint256",
          "name": "_projectId",
          "type": "uint256"
        },
        {
          "internalType": "contract IJBTerminal",
          "name": "_terminal",
          "type": "address"
        }
      ],
      "name": "isTerminalOf",
      "outputs": [
        {
          "internalType": "bool",
          "name": "",
          "type": "bool"
        }
      ],
      "stateMutability": "view",
      "type": "function"
    },
    {
      "inputs": [],
      "name": "operatorStore",
      "outputs": [
        {
          "internalType": "contract IJBOperatorStore",
          "name": "",
          "type": "address"
        }
      ],
      "stateMutability": "view",
      "type": "function"
    },
    {
      "inputs": [],
      "name": "owner",
      "outputs": [
        {
          "internalType": "address",
          "name": "",
          "type": "address"
        }
      ],
      "stateMutability": "view",
      "type": "function"
    },
    {
      "inputs": [
        {
          "internalType": "uint256",
          "name": "_projectId",
          "type": "uint256"
        },
        {
          "internalType": "address",
          "name": "_token",
          "type": "address"
        }
      ],
      "name": "primaryTerminalOf",
      "outputs": [
        {
          "internalType": "contract IJBTerminal",
          "name": "",
          "type": "address"
        }
      ],
      "stateMutability": "view",
      "type": "function"
    },
    {
      "inputs": [],
      "name": "projects",
      "outputs": [
        {
          "internalType": "contract IJBProjects",
          "name": "",
          "type": "address"
        }
      ],
      "stateMutability": "view",
      "type": "function"
    },
    {
      "inputs": [
        {
          "internalType": "address",
          "name": "_address",
          "type": "address"
        }
      ],
      "name": "removeFromSetControllerAllowlist",
      "outputs": [],
      "stateMutability": "nonpayable",
      "type": "function"
    },
    {
      "inputs": [
        {
          "internalType": "uint256",
          "name": "_projectId",
          "type": "uint256"
        },
        {
          "internalType": "contract IJBTerminal",
          "name": "_terminal",
          "type": "address"
        }
      ],
      "name": "removeTerminalOf",
      "outputs": [],
      "stateMutability": "nonpayable",
      "type": "function"
    },
    {
      "inputs": [],
      "name": "renounceOwnership",
      "outputs": [],
      "stateMutability": "nonpayable",
      "type": "function"
    },
    {
      "inputs": [
        {
          "internalType": "uint256",
          "name": "_projectId",
          "type": "uint256"
        },
        {
          "internalType": "contract IJBController",
          "name": "_controller",
          "type": "address"
        }
      ],
      "name": "setControllerOf",
      "outputs": [],
      "stateMutability": "nonpayable",
      "type": "function"
    },
    {
      "inputs": [
        {
          "internalType": "uint256",
          "name": "_projectId",
          "type": "uint256"
        },
        {
          "internalType": "contract IJBTerminal",
          "name": "_terminal",
          "type": "address"
        }
      ],
      "name": "setPrimaryTerminalOf",
      "outputs": [],
      "stateMutability": "nonpayable",
      "type": "function"
    },
    {
      "inputs": [
        {
          "internalType": "uint256",
          "name": "_projectId",
          "type": "uint256"
        }
      ],
      "name": "terminalsOf",
      "outputs": [
        {
          "internalType": "contract IJBTerminal[]",
          "name": "",
          "type": "address[]"
        }
      ],
      "stateMutability": "view",
      "type": "function"
    },
    {
      "inputs": [
        {
          "internalType": "address",
          "name": "newOwner",
          "type": "address"
        }
      ],
      "name": "transferOwnership",
      "outputs": [],
      "stateMutability": "nonpayable",
      "type": "function"
    }
  ],
  "transactionHash": "0x96cdda1435a17868874068f34101d58277b8228cfd8fabeccf85724b99da5dc7",
  "args": [
    "0xacD28185AE65adc711481c0aECB0B99Ac8608698",
    "0x05ea48673d41DC75fbDC8f32fA825be69c1BD5B2"
  ],
  "numDeployments": 2,
  "solcInputHash": "84ad828d78fb9f44a0d0346f7fab757e",
  "bytecode": "0x60c06040523480156200001157600080fd5b50604051620024d6380380620024d68339810160408190526200003491620000b8565b606082901b6001600160601b031916608052620000513362000068565b60601b6001600160601b03191660a0525062000110565b600080546001600160a01b038381166001600160a01b0319831681178455604051919092169283917f8be0079c531659141344cd1fd0a4f28419497f9722a3daafe3b4186f6b6457e09190a35050565b60008060408385031215620000cc57600080fd5b8251620000d981620000f7565b6020840151909250620000ec81620000f7565b809150509250929050565b6001600160a01b03811681146200010d57600080fd5b50565b60805160601c60a05160601c61233f62000197600039600081816102240152818161033601528181610a6a01528181610e0601528181611370015261181d015260008181610269015281816104740152818161055001528181610bc601528181610ca20152818161147c01528181611558015281816119290152611a05015261233f6000f3fe608060405234801561001057600080fd5b506004361061011b5760003560e01c8063898370ee116100b2578063d175415311610081578063df14411811610066578063df144118146102ce578063e527757a146102e1578063f2fde38b146102f457600080fd5b8063d17541531461028b578063d1880449146102ab57600080fd5b8063898370ee1461020c5780638b79543c1461021f5780638da5cb5b14610246578063ad007d631461026457600080fd5b80636e49181f116100ee5780636e49181f146101bb578063714e7f32146101de578063715018a6146101f157806386202650146101f957600080fd5b80631cda3bfe146101205780634a1f1df4146101355780635dd8f6aa146101485780636ca35c8a146101a8575b600080fd5b61013361012e36600461217f565b610307565b005b6101336101433660046120ba565b6106d1565b61017e61015636600461211d565b60046020526000908152604090205473ffffffffffffffffffffffffffffffffffffffff1681565b60405173ffffffffffffffffffffffffffffffffffffffff90911681526020015b60405180910390f35b6101336101b63660046120ba565b610839565b6101ce6101c936600461214f565b610998565b604051901515815260200161019f565b6101336101ec36600461214f565b610a3b565b610133610f68565b61017e61020736600461214f565b610ff5565b6101ce61021a36600461214f565b611196565b61017e7f000000000000000000000000000000000000000000000000000000000000000081565b60005473ffffffffffffffffffffffffffffffffffffffff1661017e565b61017e7f000000000000000000000000000000000000000000000000000000000000000081565b61029e61029936600461211d565b6112c8565b60405161019f91906121fe565b6101ce6102b93660046120ba565b60036020526000908152604090205460ff1681565b6101336102dc36600461214f565b611341565b6101336102ef36600461214f565b6117ee565b6101336103023660046120ba565b611e38565b6040517f6352211e000000000000000000000000000000000000000000000000000000008152600481018490527f000000000000000000000000000000000000000000000000000000000000000073ffffffffffffffffffffffffffffffffffffffff1690636352211e9060240160206040518083038186803b15801561038d57600080fd5b505afa1580156103a1573d6000803e3d6000fd5b505050506040513d601f19601f820116820180604052508101906103c591906120de565b6000848152600460205260409020548490600f9073ffffffffffffffffffffffffffffffffffffffff16331480158161041457503373ffffffffffffffffffffffffffffffffffffffff851614155b80156104f057506040517fc161c93f00000000000000000000000000000000000000000000000000000000815233600482015273ffffffffffffffffffffffffffffffffffffffff858116602483015260448201859052606482018490527f0000000000000000000000000000000000000000000000000000000000000000169063c161c93f9060840160206040518083038186803b1580156104b657600080fd5b505afa1580156104ca573d6000803e3d6000fd5b505050506040513d601f19601f820116820180604052508101906104ee91906120fb565b155b80156105cc57506040517fc161c93f00000000000000000000000000000000000000000000000000000000815233600482015273ffffffffffffffffffffffffffffffffffffffff858116602483015260006044830152606482018490527f0000000000000000000000000000000000000000000000000000000000000000169063c161c93f9060840160206040518083038186803b15801561059257600080fd5b505afa1580156105a6573d6000803e3d6000fd5b505050506040513d601f19601f820116820180604052508101906105ca91906120fb565b155b15610603576040517f075fd2b100000000000000000000000000000000000000000000000000000000815260040160405180910390fd5b60005b858110156106c7576000878783818110610622576106226122b8565b905060200201602081019061063791906120ba565b73ffffffffffffffffffffffffffffffffffffffff161415610685576040517f0264fce300000000000000000000000000000000000000000000000000000000815260040160405180910390fd5b6106b58888888481811061069b5761069b6122b8565b90506020020160208101906106b091906120ba565b611f68565b806106bf81612258565b915050610606565b5050505050505050565b60005473ffffffffffffffffffffffffffffffffffffffff163314610757576040517f08c379a000000000000000000000000000000000000000000000000000000000815260206004820181905260248201527f4f776e61626c653a2063616c6c6572206973206e6f7420746865206f776e657260448201526064015b60405180910390fd5b73ffffffffffffffffffffffffffffffffffffffff811660009081526003602052604090205460ff166107b6576040517f31b69c3900000000000000000000000000000000000000000000000000000000815260040160405180910390fd5b73ffffffffffffffffffffffffffffffffffffffff811660008181526003602090815260409182902080547fffffffffffffffffffffffffffffffffffffffffffffffffffffffffffffff0016905590513381527f627b6b323d459a0b1a57687e03a8e2899cee037277c9d3b13874b295be31c3db91015b60405180910390a250565b60005473ffffffffffffffffffffffffffffffffffffffff1633146108ba576040517f08c379a000000000000000000000000000000000000000000000000000000000815260206004820181905260248201527f4f776e61626c653a2063616c6c6572206973206e6f7420746865206f776e6572604482015260640161074e565b73ffffffffffffffffffffffffffffffffffffffff811660009081526003602052604090205460ff1615610919576040517ec1a9e800000000000000000000000000000000000000000000000000000000815260040160405180910390fd5b73ffffffffffffffffffffffffffffffffffffffff811660008181526003602090815260409182902080547fffffffffffffffffffffffffffffffffffffffffffffffffffffffffffffff0016600117905590513381527fdfd2bc577e70beb5e792777b0667811f285a3479332a67b6c6adbe7c33a337e5910161082e565b6000805b600084815260016020526040902054811015610a2f576000848152600160205260409020805473ffffffffffffffffffffffffffffffffffffffff85169190839081106109eb576109eb6122b8565b60009182526020909120015473ffffffffffffffffffffffffffffffffffffffff161415610a1d576001915050610a35565b80610a2781612258565b91505061099c565b50600090505b92915050565b6040517f6352211e000000000000000000000000000000000000000000000000000000008152600481018390527f000000000000000000000000000000000000000000000000000000000000000073ffffffffffffffffffffffffffffffffffffffff1690636352211e9060240160206040518083038186803b158015610ac157600080fd5b505afa158015610ad5573d6000803e3d6000fd5b505050506040513d601f19601f82011682018060405250810190610af991906120de565b73ffffffffffffffffffffffffffffffffffffffff82166000908152600360205260409020548390600e9060ff168015610b4257503360009081526003602052604090205460ff165b80158015610b6657503373ffffffffffffffffffffffffffffffffffffffff851614155b8015610c4257506040517fc161c93f00000000000000000000000000000000000000000000000000000000815233600482015273ffffffffffffffffffffffffffffffffffffffff858116602483015260448201859052606482018490527f0000000000000000000000000000000000000000000000000000000000000000169063c161c93f9060840160206040518083038186803b158015610c0857600080fd5b505afa158015610c1c573d6000803e3d6000fd5b505050506040513d601f19601f82011682018060405250810190610c4091906120fb565b155b8015610d1e57506040517fc161c93f00000000000000000000000000000000000000000000000000000000815233600482015273ffffffffffffffffffffffffffffffffffffffff858116602483015260006044830152606482018490527f0000000000000000000000000000000000000000000000000000000000000000169063c161c93f9060840160206040518083038186803b158015610ce457600080fd5b505afa158015610cf8573d6000803e3d6000fd5b505050506040513d601f19601f82011682018060405250810190610d1c91906120fb565b155b15610d55576040517f075fd2b100000000000000000000000000000000000000000000000000000000815260040160405180910390fd5b73ffffffffffffffffffffffffffffffffffffffff8516610da2576040517f16908dd200000000000000000000000000000000000000000000000000000000815260040160405180910390fd5b60008681526004602052604090205473ffffffffffffffffffffffffffffffffffffffff86811691161415610e03576040517ffe78094100000000000000000000000000000000000000000000000000000000815260040160405180910390fd5b857f000000000000000000000000000000000000000000000000000000000000000073ffffffffffffffffffffffffffffffffffffffff166306661abd6040518163ffffffff1660e01b815260040160206040518083038186803b158015610e6a57600080fd5b505afa158015610e7e573d6000803e3d6000fd5b505050506040513d601f19601f82011682018060405250810190610ea29190612136565b1015610eda576040517f3b44d99200000000000000000000000000000000000000000000000000000000815260040160405180910390fd5b60008681526004602090815260409182902080547fffffffffffffffffffffffff00000000000000000000000000000000000000001673ffffffffffffffffffffffffffffffffffffffff8916908117909155915133815288917f7f9a7dcb234c909a09de2f344661ad9e5b24067adb97c908647c2edcbb121c3091015b60405180910390a3505050505050565b60005473ffffffffffffffffffffffffffffffffffffffff163314610fe9576040517f08c379a000000000000000000000000000000000000000000000000000000000815260206004820181905260248201527f4f776e61626c653a2063616c6c6572206973206e6f7420746865206f776e6572604482015260640161074e565b610ff36000612013565b565b600082815260026020908152604080832073ffffffffffffffffffffffffffffffffffffffff8581168552925282205416156110635750600082815260026020908152604080832073ffffffffffffffffffffffffffffffffffffffff808616855292529091205416610a35565b60005b600084815260016020526040902054811015610a2f57600084815260016020526040812080548390811061109c5761109c6122b8565b9060005260206000200160009054906101000a900473ffffffffffffffffffffffffffffffffffffffff1690508373ffffffffffffffffffffffffffffffffffffffff168173ffffffffffffffffffffffffffffffffffffffff1663fc0c546a6040518163ffffffff1660e01b815260040160206040518083038186803b15801561112657600080fd5b505afa15801561113a573d6000803e3d6000fd5b505050506040513d601f19601f8201168201806040525081019061115e91906120de565b73ffffffffffffffffffffffffffffffffffffffff161415611183579150610a359050565b508061118e81612258565b915050611066565b6000805b600084815260016020526040902054811015610a2f576000848152600160205260409020805473ffffffffffffffffffffffffffffffffffffffff85169190839081106111e9576111e96122b8565b60009182526020918290200154604080517fc89e4361000000000000000000000000000000000000000000000000000000008152905173ffffffffffffffffffffffffffffffffffffffff9092169263c89e436192600480840193829003018186803b15801561125857600080fd5b505afa15801561126c573d6000803e3d6000fd5b505050506040513d601f19601f8201168201806040525081019061129091906120de565b73ffffffffffffffffffffffffffffffffffffffff1614156112b6576001915050610a35565b806112c081612258565b91505061119a565b60008181526001602090815260409182902080548351818402810184019094528084526060939283018282801561133557602002820191906000526020600020905b815473ffffffffffffffffffffffffffffffffffffffff16815260019091019060200180831161130a575b50505050509050919050565b6040517f6352211e000000000000000000000000000000000000000000000000000000008152600481018390527f000000000000000000000000000000000000000000000000000000000000000073ffffffffffffffffffffffffffffffffffffffff1690636352211e9060240160206040518083038186803b1580156113c757600080fd5b505afa1580156113db573d6000803e3d6000fd5b505050506040513d601f19601f820116820180604052508101906113ff91906120de565b8260113373ffffffffffffffffffffffffffffffffffffffff8416148015906114f857506040517fc161c93f00000000000000000000000000000000000000000000000000000000815233600482015273ffffffffffffffffffffffffffffffffffffffff848116602483015260448201849052606482018390527f0000000000000000000000000000000000000000000000000000000000000000169063c161c93f9060840160206040518083038186803b1580156114be57600080fd5b505afa1580156114d2573d6000803e3d6000fd5b505050506040513d601f19601f820116820180604052508101906114f691906120fb565b155b80156115d457506040517fc161c93f00000000000000000000000000000000000000000000000000000000815233600482015273ffffffffffffffffffffffffffffffffffffffff848116602483015260006044830152606482018390527f0000000000000000000000000000000000000000000000000000000000000000169063c161c93f9060840160206040518083038186803b15801561159a57600080fd5b505afa1580156115ae573d6000803e3d6000fd5b505050506040513d601f19601f820116820180604052508101906115d291906120fb565b155b1561160b576040517f075fd2b100000000000000000000000000000000000000000000000000000000815260040160405180910390fd5b73ffffffffffffffffffffffffffffffffffffffff8416611658576040517f0d8fcd8e00000000000000000000000000000000000000000000000000000000815260040160405180910390fd5b60008473ffffffffffffffffffffffffffffffffffffffff1663fc0c546a6040518163ffffffff1660e01b815260040160206040518083038186803b1580156116a057600080fd5b505afa1580156116b4573d6000803e3d6000fd5b505050506040513d601f19601f820116820180604052508101906116d891906120de565b600087815260026020908152604080832073ffffffffffffffffffffffffffffffffffffffff808616855292529091205491925086811691161415611749576040517f9d9fc9f100000000000000000000000000000000000000000000000000000000815260040160405180910390fd5b6117538686611f68565b600086815260026020908152604080832073ffffffffffffffffffffffffffffffffffffffff8581168086529184529382902080547fffffffffffffffffffffffff000000000000000000000000000000000000000016948a1694851790559051338152909189917fc670a502bbb9f8a4315f95eca901a9f99b65f89a2eb5705a58050e5c00f9d672910160405180910390a4505050505050565b6040517f6352211e000000000000000000000000000000000000000000000000000000008152600481018390527f000000000000000000000000000000000000000000000000000000000000000073ffffffffffffffffffffffffffffffffffffffff1690636352211e9060240160206040518083038186803b15801561187457600080fd5b505afa158015611888573d6000803e3d6000fd5b505050506040513d601f19601f820116820180604052508101906118ac91906120de565b8260103373ffffffffffffffffffffffffffffffffffffffff8416148015906119a557506040517fc161c93f00000000000000000000000000000000000000000000000000000000815233600482015273ffffffffffffffffffffffffffffffffffffffff848116602483015260448201849052606482018390527f0000000000000000000000000000000000000000000000000000000000000000169063c161c93f9060840160206040518083038186803b15801561196b57600080fd5b505afa15801561197f573d6000803e3d6000fd5b505050506040513d601f19601f820116820180604052508101906119a391906120fb565b155b8015611a8157506040517fc161c93f00000000000000000000000000000000000000000000000000000000815233600482015273ffffffffffffffffffffffffffffffffffffffff848116602483015260006044830152606482018390527f0000000000000000000000000000000000000000000000000000000000000000169063c161c93f9060840160206040518083038186803b158015611a4757600080fd5b505afa158015611a5b573d6000803e3d6000fd5b505050506040513d601f19601f82011682018060405250810190611a7f91906120fb565b155b15611ab8576040517f075fd2b100000000000000000000000000000000000000000000000000000000815260040160405180910390fd5b600085815260016020908152604080832080548251818502810185019093528083529192909190830182828015611b2557602002820191906000526020600020905b815473ffffffffffffffffffffffffffffffffffffffff168152600190910190602001808311611afa575b5050506000898152600160205260408120939450611b469392509050612088565b60005b8151811015611c33578573ffffffffffffffffffffffffffffffffffffffff16828281518110611b7b57611b7b6122b8565b602002602001015173ffffffffffffffffffffffffffffffffffffffff1614611c215760008781526001602052604090208251839083908110611bc057611bc06122b8565b60209081029190910181015182546001810184556000938452919092200180547fffffffffffffffffffffffff00000000000000000000000000000000000000001673ffffffffffffffffffffffffffffffffffffffff9092169190911790555b80611c2b81612258565b915050611b49565b508473ffffffffffffffffffffffffffffffffffffffff166002600088815260200190815260200160002060008773ffffffffffffffffffffffffffffffffffffffff1663fc0c546a6040518163ffffffff1660e01b815260040160206040518083038186803b158015611ca657600080fd5b505afa158015611cba573d6000803e3d6000fd5b505050506040513d601f19601f82011682018060405250810190611cde91906120de565b73ffffffffffffffffffffffffffffffffffffffff9081168252602082019290925260400160002054161415611dee576002600087815260200190815260200160002060008673ffffffffffffffffffffffffffffffffffffffff1663fc0c546a6040518163ffffffff1660e01b815260040160206040518083038186803b158015611d6957600080fd5b505afa158015611d7d573d6000803e3d6000fd5b505050506040513d601f19601f82011682018060405250810190611da191906120de565b73ffffffffffffffffffffffffffffffffffffffff168152602081019190915260400160002080547fffffffffffffffffffffffff00000000000000000000000000000000000000001690555b60405133815273ffffffffffffffffffffffffffffffffffffffff86169087907fbf79cd9af545aa6edcc5ac76aa264b34ccb6e59a51b44998a766f828ec9b7c8690602001610f58565b60005473ffffffffffffffffffffffffffffffffffffffff163314611eb9576040517f08c379a000000000000000000000000000000000000000000000000000000000815260206004820181905260248201527f4f776e61626c653a2063616c6c6572206973206e6f7420746865206f776e6572604482015260640161074e565b73ffffffffffffffffffffffffffffffffffffffff8116611f5c576040517f08c379a000000000000000000000000000000000000000000000000000000000815260206004820152602660248201527f4f776e61626c653a206e6577206f776e657220697320746865207a65726f206160448201527f6464726573730000000000000000000000000000000000000000000000000000606482015260840161074e565b611f6581612013565b50565b611f728282610998565b15611f7b575050565b60008281526001602081815260408084208054938401815584529281902090910180547fffffffffffffffffffffffff00000000000000000000000000000000000000001673ffffffffffffffffffffffffffffffffffffffff8516908117909155915133815284917f409bccc07b7cf7807930526a24318212d614c59f2dde05a017a41efee144e7c8910160405180910390a35050565b6000805473ffffffffffffffffffffffffffffffffffffffff8381167fffffffffffffffffffffffff0000000000000000000000000000000000000000831681178455604051919092169283917f8be0079c531659141344cd1fd0a4f28419497f9722a3daafe3b4186f6b6457e09190a35050565b5080546000825590600052602060002090810190611f6591905b808211156120b657600081556001016120a2565b5090565b6000602082840312156120cc57600080fd5b81356120d7816122e7565b9392505050565b6000602082840312156120f057600080fd5b81516120d7816122e7565b60006020828403121561210d57600080fd5b815180151581146120d757600080fd5b60006020828403121561212f57600080fd5b5035919050565b60006020828403121561214857600080fd5b5051919050565b6000806040838503121561216257600080fd5b823591506020830135612174816122e7565b809150509250929050565b60008060006040848603121561219457600080fd5b83359250602084013567ffffffffffffffff808211156121b357600080fd5b818601915086601f8301126121c757600080fd5b8135818111156121d657600080fd5b8760208260051b85010111156121eb57600080fd5b6020830194508093505050509250925092565b6020808252825182820181905260009190848201906040850190845b8181101561224c57835173ffffffffffffffffffffffffffffffffffffffff168352928401929184019160010161221a565b50909695505050505050565b60007fffffffffffffffffffffffffffffffffffffffffffffffffffffffffffffffff8214156122b1577f4e487b7100000000000000000000000000000000000000000000000000000000600052601160045260246000fd5b5060010190565b7f4e487b7100000000000000000000000000000000000000000000000000000000600052603260045260246000fd5b73ffffffffffffffffffffffffffffffffffffffff81168114611f6557600080fdfea26469706673582212204721d41879e6184dfbb3245ef26daef9eb1eb3cf9fba872d0e6581a61bf3bb8e64736f6c63430008060033",
  "devdoc": {
    "kind": "dev",
    "methods": {
      "addTerminalsOf(uint256,address[])": {
        "details": "Only a project owner, an operator, or its controller can add terminals.",
        "params": {
          "_projectId": "The ID of the project having a terminal added.",
          "_terminals": "The terminals to add."
        }
      },
      "addToSetControllerAllowlist(address)": {
        "details": "The owner (Juicebox multisig) can add addresses which are allowed to change a project's controller. Those addresses are known and vetted controllers as well as contracts designed to launch new projects. This is not a requirement for all controllers. However, unknown controllers may require additional transactions to perform certain operations.If you would like an address/contract allowlisted, please reach out to JuiceboxDAO.",
        "params": {
          "_address": "the allowed address to be added."
        }
      },
      "constructor": {
        "params": {
          "_operatorStore": "A contract storing operator assignments.",
          "_projects": "A contract which mints ERC-721's that represent project ownership and transfers."
        }
      },
      "isTerminalDelegateOf(uint256,address)": {
        "params": {
          "_contract": "The address of the terminal to check for.",
          "_projectId": "The ID of the project to check within."
        },
        "returns": {
          "_0": "A flag indicating whether or not the specified terminal is a terminal of the specified project."
        }
      },
      "isTerminalOf(uint256,address)": {
        "params": {
          "_projectId": "The ID of the project to check within.",
          "_terminal": "The address of the terminal to check for."
        },
        "returns": {
          "_0": "A flag indicating whether or not the specified terminal is a terminal of the specified project."
        }
      },
      "owner()": {
        "details": "Returns the address of the current owner."
      },
      "primaryTerminalOf(uint256,address)": {
        "details": "The zero address is returned if a terminal isn't found for the specified token.",
        "params": {
          "_projectId": "The ID of the project to get a terminal for.",
          "_token": "The token the terminal accepts."
        },
        "returns": {
          "_0": "The primary terminal for the project for the specified token."
        }
      },
      "removeFromSetControllerAllowlist(address)": {
        "details": " See `addToSetControllerAllowlist(...)` for context.",
        "params": {
          "_address": "The address to be removed."
        }
      },
      "removeTerminalOf(uint256,address)": {
        "details": "Only a project owner or an operator can remove one of its terminals. ",
        "params": {
          "_projectId": "The ID of the project having a terminal removed.",
          "_terminal": "The terminal to remove."
        }
      },
      "renounceOwnership()": {
        "details": "Leaves the contract without owner. It will not be possible to call `onlyOwner` functions anymore. Can only be called by the current owner. NOTE: Renouncing ownership will leave the contract without an owner, thereby removing any functionality that is only available to the owner."
      },
      "setControllerOf(uint256,address)": {
        "details": " A controller can be set if: - the message sender is the project owner or an operator having the correct authorization. - or, an allowedlisted address is setting an allowlisted controller.",
        "params": {
          "_controller": "The new controller to set.",
          "_projectId": "The ID of the project to set a new controller for."
        }
      },
      "setPrimaryTerminalOf(uint256,address)": {
        "details": "The terminal will be set as the primary for the token that its vault accepts. ",
        "params": {
          "_projectId": "The ID of the project for which a primary token is being set.",
          "_terminal": "The terminal to make primary."
        }
      },
      "terminalsOf(uint256)": {
        "params": {
          "_projectId": "The ID of the project to get terminals of."
        },
        "returns": {
          "_0": "An array of terminal addresses."
        }
      },
      "transferOwnership(address)": {
        "details": "Transfers ownership of the contract to a new account (`newOwner`). Can only be called by the current owner."
      }
    },
    "version": 1
  },
  "userdoc": {
    "kind": "user",
    "methods": {
      "addTerminalsOf(uint256,address[])": {
        "notice": " Add terminals to project's list of terminals."
      },
      "addToSetControllerAllowlist(address)": {
        "notice": " Add a controller to the list of trusted controllers.\t"
      },
      "controllerOf(uint256)": {
        "notice": " For each project ID, the controller that manages how terminals interact with tokens and funding cycles. _projectId The ID of the project to get the controller of."
      },
      "isAllowedToSetController(address)": {
        "notice": "Addresses that can set a project's controller. These addresses/contracts have been vetted and verified by Juicebox owners."
      },
      "isTerminalDelegateOf(uint256,address)": {
        "notice": "Whether or not a specified terminal is a terminal of the specified project."
      },
      "isTerminalOf(uint256,address)": {
        "notice": "Whether or not a specified terminal is a terminal of the specified project."
      },
      "operatorStore()": {
        "notice": " A contract storing operator assignments."
      },
      "primaryTerminalOf(uint256,address)": {
        "notice": "The primary terminal that is managing funds for a project for a specified token."
      },
      "projects()": {
        "notice": " The Projects contract which mints ERC-721's that represent project ownership and transfers."
      },
      "removeFromSetControllerAllowlist(address)": {
        "notice": " Remove a controller to the list of trusted controllers.\t"
      },
      "removeTerminalOf(uint256,address)": {
        "notice": " Remove a terminal from a project's list of terminals."
      },
      "setControllerOf(uint256,address)": {
        "notice": "Update the controller that manages how terminals interact with the ecosystem."
      },
      "setPrimaryTerminalOf(uint256,address)": {
        "notice": "Project's can set which terminal should be their primary for a particular token. This is useful in case a project has several terminals connected for a particular token."
      },
      "terminalsOf(uint256)": {
        "notice": "For each project ID, the terminals that are currently managing its funds."
      }
    },
    "notice": "Keeps a reference of which terminal contracts each project is currently accepting funds through, and which controller contract is managing each project's tokens and funding cycles.",
    "version": 1
  },
  "storageLayout": {
    "storage": [
      {
        "astId": 53,
        "contract": "contracts/JBDirectory.sol:JBDirectory",
        "label": "_owner",
        "offset": 0,
        "slot": "0",
        "type": "t_address"
      },
      {
        "astId": 6840,
        "contract": "contracts/JBDirectory.sol:JBDirectory",
        "label": "_terminalsOf",
        "offset": 0,
        "slot": "1",
        "type": "t_mapping(t_uint256,t_array(t_contract(IJBTerminal)15109)dyn_storage)"
      },
      {
        "astId": 6848,
        "contract": "contracts/JBDirectory.sol:JBDirectory",
        "label": "_primaryTerminalOf",
        "offset": 0,
        "slot": "2",
        "type": "t_mapping(t_uint256,t_mapping(t_address,t_contract(IJBTerminal)15109))"
      },
      {
        "astId": 6859,
        "contract": "contracts/JBDirectory.sol:JBDirectory",
        "label": "isAllowedToSetController",
        "offset": 0,
        "slot": "3",
        "type": "t_mapping(t_address,t_bool)"
      },
      {
        "astId": 6866,
        "contract": "contracts/JBDirectory.sol:JBDirectory",
        "label": "controllerOf",
        "offset": 0,
        "slot": "4",
        "type": "t_mapping(t_uint256,t_contract(IJBController)14190)"
      }
    ],
    "types": {
      "t_address": {
        "encoding": "inplace",
        "label": "address",
        "numberOfBytes": "20"
      },
      "t_array(t_contract(IJBTerminal)15109)dyn_storage": {
        "base": "t_contract(IJBTerminal)15109",
        "encoding": "dynamic_array",
        "label": "contract IJBTerminal[]",
        "numberOfBytes": "32"
      },
      "t_bool": {
        "encoding": "inplace",
        "label": "bool",
        "numberOfBytes": "1"
      },
      "t_contract(IJBController)14190": {
        "encoding": "inplace",
        "label": "contract IJBController",
        "numberOfBytes": "20"
      },
      "t_contract(IJBTerminal)15109": {
        "encoding": "inplace",
        "label": "contract IJBTerminal",
        "numberOfBytes": "20"
      },
      "t_mapping(t_address,t_bool)": {
        "encoding": "mapping",
        "key": "t_address",
        "label": "mapping(address => bool)",
        "numberOfBytes": "32",
        "value": "t_bool"
      },
      "t_mapping(t_address,t_contract(IJBTerminal)15109)": {
        "encoding": "mapping",
        "key": "t_address",
        "label": "mapping(address => contract IJBTerminal)",
        "numberOfBytes": "32",
        "value": "t_contract(IJBTerminal)15109"
      },
      "t_mapping(t_uint256,t_array(t_contract(IJBTerminal)15109)dyn_storage)": {
        "encoding": "mapping",
        "key": "t_uint256",
        "label": "mapping(uint256 => contract IJBTerminal[])",
        "numberOfBytes": "32",
        "value": "t_array(t_contract(IJBTerminal)15109)dyn_storage"
      },
      "t_mapping(t_uint256,t_contract(IJBController)14190)": {
        "encoding": "mapping",
        "key": "t_uint256",
        "label": "mapping(uint256 => contract IJBController)",
        "numberOfBytes": "32",
        "value": "t_contract(IJBController)14190"
      },
      "t_mapping(t_uint256,t_mapping(t_address,t_contract(IJBTerminal)15109))": {
        "encoding": "mapping",
        "key": "t_uint256",
        "label": "mapping(uint256 => mapping(address => contract IJBTerminal))",
        "numberOfBytes": "32",
        "value": "t_mapping(t_address,t_contract(IJBTerminal)15109)"
      },
      "t_uint256": {
        "encoding": "inplace",
        "label": "uint256",
        "numberOfBytes": "32"
      }
    }
  }
}