{
  "address": "0x98579A3B537D6B2713eB90a2e7b8F1C5709A2943",
  "abi": [
    {
      "anonymous": false,
      "inputs": [
        {
          "indexed": true,
          "internalType": "contract IJBProjectPayer",
          "name": "projectPayer",
          "type": "address"
        },
        {
          "indexed": true,
          "internalType": "uint256",
          "name": "defaultProjectId",
          "type": "uint256"
        },
        {
          "indexed": true,
          "internalType": "address",
          "name": "defaultBeneficiary",
          "type": "address"
        },
        {
          "indexed": false,
          "internalType": "bool",
          "name": "defaultPreferClaimedTokens",
          "type": "bool"
        },
        {
          "indexed": false,
          "internalType": "string",
          "name": "defaultMemo",
          "type": "string"
        },
        {
          "indexed": false,
          "internalType": "bytes",
          "name": "defaultMetadata",
          "type": "bytes"
        },
        {
          "indexed": false,
          "internalType": "contract IJBDirectory",
          "name": "directory",
          "type": "address"
        },
        {
          "indexed": false,
          "internalType": "address",
          "name": "owner",
          "type": "address"
        },
        {
          "indexed": false,
          "internalType": "address",
          "name": "caller",
          "type": "address"
        }
      ],
      "name": "DeployProjectPayer",
      "type": "event"
    },
    {
      "inputs": [
        {
          "internalType": "uint256",
          "name": "_defaultProjectId",
          "type": "uint256"
        },
        {
          "internalType": "address payable",
          "name": "_defaultBeneficiary",
          "type": "address"
        },
        {
          "internalType": "bool",
          "name": "_defaultPreferClaimedTokens",
          "type": "bool"
        },
        {
          "internalType": "string",
          "name": "_defaultMemo",
          "type": "string"
        },
        {
          "internalType": "bytes",
          "name": "_defaultMetadata",
          "type": "bytes"
        },
        {
          "internalType": "contract IJBDirectory",
          "name": "_directory",
          "type": "address"
        },
        {
          "internalType": "address",
          "name": "_owner",
          "type": "address"
        }
      ],
      "name": "deployProjectPayer",
      "outputs": [
        {
          "internalType": "contract IJBProjectPayer",
          "name": "projectPayer",
          "type": "address"
        }
      ],
      "stateMutability": "nonpayable",
      "type": "function"
    }
  ],
  "transactionHash": "0xdd0996f859c93abd5e85e12b4101eab3ff75b77ddf02bf5ee8e5987b61dcb87e",
  "args": [],
  "numDeployments": 2,
  "solcInputHash": "3e35075663fe161f7a408c81b1886434",
  "bytecode": "0x608060405234801561001057600080fd5b50611de3806100206000396000f3fe608060405234801561001057600080fd5b506004361061002b5760003560e01c8063270f319f14610030575b600080fd5b61004361003e3660046101f3565b61006c565b60405173ffffffffffffffffffffffffffffffffffffffff909116815260200160405180910390f35b6000878787878787876040516100819061012b565b610091979695949392919061037d565b604051809103906000f0801580156100ad573d6000803e3d6000fd5b5090508673ffffffffffffffffffffffffffffffffffffffff16888273ffffffffffffffffffffffffffffffffffffffff167fe0efc06c487322eaaa82cb135a5f378f3d7d0830d03ad9bd5508b5b3c2113adf89898989893360405161011896959493929190610317565b60405180910390a4979650505050505050565b61196f8061043f83390190565b803561014381610419565b919050565b600082601f83011261015957600080fd5b813567ffffffffffffffff80821115610174576101746103ea565b604051601f83017fffffffffffffffffffffffffffffffffffffffffffffffffffffffffffffffe0908116603f011681019082821181831017156101ba576101ba6103ea565b816040528381528660208588010111156101d357600080fd5b836020870160208301376000602085830101528094505050505092915050565b600080600080600080600060e0888a03121561020e57600080fd5b87359650602088013561022081610419565b95506040880135801515811461023557600080fd5b9450606088013567ffffffffffffffff8082111561025257600080fd5b61025e8b838c01610148565b955060808a013591508082111561027457600080fd5b506102818a828b01610148565b93505061029060a08901610138565b915061029e60c08901610138565b905092959891949750929550565b6000815180845260005b818110156102d2576020818501810151868301820152016102b6565b818111156102e4576000602083870101525b50601f017fffffffffffffffffffffffffffffffffffffffffffffffffffffffffffffffe0169290920160200192915050565b861515815260c06020820152600061033260c08301886102ac565b828103604084015261034481886102ac565b73ffffffffffffffffffffffffffffffffffffffff968716606085015294861660808401525050921660a0909201919091529392505050565b878152600073ffffffffffffffffffffffffffffffffffffffff8089166020840152871515604084015260e060608401526103bb60e08401886102ac565b83810360808501526103cd81886102ac565b95821660a0850152509290921660c0909101525095945050505050565b7f4e487b7100000000000000000000000000000000000000000000000000000000600052604160045260246000fd5b73ffffffffffffffffffffffffffffffffffffffff8116811461043b57600080fd5b5056fe60a06040523480156200001157600080fd5b506040516200196f3803806200196f833981016040819052620000349162000280565b6200003f33620000c1565b6001600160601b0319606083901b16608052600187905560028054861515600160a01b026001600160a81b03199091166001600160a01b0389161717905583516200009290600390602087019062000111565b508251620000a890600490602086019062000111565b50620000b481620000c1565b50505050505050620003b4565b600080546001600160a01b038381166001600160a01b0319831681178455604051919092169283917f8be0079c531659141344cd1fd0a4f28419497f9722a3daafe3b4186f6b6457e09190a35050565b8280546200011f9062000348565b90600052602060002090601f0160209004810192826200014357600085556200018e565b82601f106200015e57805160ff19168380011785556200018e565b828001600101855582156200018e579182015b828111156200018e57825182559160200191906001019062000171565b506200019c929150620001a0565b5090565b5b808211156200019c5760008155600101620001a1565b8051620001c4816200039b565b919050565b600082601f830112620001db57600080fd5b81516001600160401b0380821115620001f857620001f862000385565b604051601f8301601f19908116603f0116810190828211818310171562000223576200022362000385565b816040528381526020925086838588010111156200024057600080fd5b600091505b8382101562000264578582018301518183018401529082019062000245565b83821115620002765760008385830101525b9695505050505050565b600080600080600080600060e0888a0312156200029c57600080fd5b875196506020880151620002b0816200039b565b60408901519096508015158114620002c757600080fd5b60608901519095506001600160401b0380821115620002e557600080fd5b620002f38b838c01620001c9565b955060808a01519150808211156200030a57600080fd5b50620003198a828b01620001c9565b9350506200032a60a08901620001b7565b91506200033a60c08901620001b7565b905092959891949750929550565b600181811c908216806200035d57607f821691505b602082108114156200037f57634e487b7160e01b600052602260045260246000fd5b50919050565b634e487b7160e01b600052604160045260246000fd5b6001600160a01b0381168114620003b157600080fd5b50565b60805160601c611595620003da600039600081816103c1015261045201526115956000f3fe6080604052600436106100c05760003560e01c80638293fee611610074578063b96053df1161004e578063b96053df1461039a578063c41c2f24146103af578063f2fde38b146103e357600080fd5b80638293fee61461031a5780638da5cb5b1461032d578063a4919eb11461035857600080fd5b806354ab58af116100a557806354ab58af14610291578063715018a6146102e35780637e646549146102f857600080fd5b806301b11c1c146102485780633ce9830b1461026857600080fd5b3661024357600154600254610241919061eeee90479060129073ffffffffffffffffffffffffffffffffffffffff16156101125760025473ffffffffffffffffffffffffffffffffffffffff16610114565b335b6000600260149054906101000a900460ff1660038054610133906114ac565b80601f016020809104026020016040519081016040528092919081815260200182805461015f906114ac565b80156101ac5780601f10610181576101008083540402835291602001916101ac565b820191906000526020600020905b81548152906001019060200180831161018f57829003601f168201915b5050505050600480546101be906114ac565b80601f01602080910402602001604051908101604052809291908181526020018280546101ea906114ac565b80156102375780601f1061020c57610100808354040283529160200191610237565b820191906000526020600020905b81548152906001019060200180831161021a57829003601f168201915b5050505050610403565b005b600080fd5b34801561025457600080fd5b506102416102633660046110f3565b61081a565b34801561027457600080fd5b5061027e60015481565b6040519081526020015b60405180910390f35b34801561029d57600080fd5b506002546102be9073ffffffffffffffffffffffffffffffffffffffff1681565b60405173ffffffffffffffffffffffffffffffffffffffff9091168152602001610288565b3480156102ef57600080fd5b50610241610a9e565b34801561030457600080fd5b5061030d610b2b565b60405161028891906113d8565b6102416103283660046111b1565b610bb9565b34801561033957600080fd5b5060005473ffffffffffffffffffffffffffffffffffffffff166102be565b34801561036457600080fd5b5060025461038a9074010000000000000000000000000000000000000000900460ff1681565b6040519015158152602001610288565b3480156103a657600080fd5b5061030d610d44565b3480156103bb57600080fd5b506102be7f000000000000000000000000000000000000000000000000000000000000000081565b3480156103ef57600080fd5b506102416103fe36600461107c565b610d51565b6040517f86202650000000000000000000000000000000000000000000000000000000008152600481018a905273ffffffffffffffffffffffffffffffffffffffff89811660248301526000917f00000000000000000000000000000000000000000000000000000000000000009091169063862026509060440160206040518083038186803b15801561049657600080fd5b505afa1580156104aa573d6000803e3d6000fd5b505050506040513d601f19601f820116820180604052508101906104ce91906110bd565b905073ffffffffffffffffffffffffffffffffffffffff811661051d576040517ffba10dd600000000000000000000000000000000000000000000000000000000815260040160405180910390fd5b868173ffffffffffffffffffffffffffffffffffffffff1663313ce5676040518163ffffffff1660e01b815260040160206040518083038186803b15801561056457600080fd5b505afa158015610578573d6000803e3d6000fd5b505050506040513d601f19601f8201168201806040525081019061059c91906110da565b146105d3576040517fb972592400000000000000000000000000000000000000000000000000000000815260040160405180910390fd5b73ffffffffffffffffffffffffffffffffffffffff891661eeee1461069c576040517f095ea7b300000000000000000000000000000000000000000000000000000000815273ffffffffffffffffffffffffffffffffffffffff8281166004830152602482018a90528a169063095ea7b390604401602060405180830381600087803b15801561066257600080fd5b505af1158015610676573d6000803e3d6000fd5b505050506040513d601f19601f8201168201806040525081019061069a91906110a0565b505b600073ffffffffffffffffffffffffffffffffffffffff8a1661eeee146106c45760006106c6565b885b905073ffffffffffffffffffffffffffffffffffffffff871615610782578173ffffffffffffffffffffffffffffffffffffffff1663abe151b7828b8e8b8b8b8b8b6040518963ffffffff1660e01b815260040161072a97969594939291906113eb565b6020604051808303818588803b15801561074357600080fd5b505af1158015610757573d6000803e3d6000fd5b50505050506040513d601f19601f8201168201806040525081019061077c91906110da565b5061080d565b6040517f84a2aacd00000000000000000000000000000000000000000000000000000000815273ffffffffffffffffffffffffffffffffffffffff8316906384a2aacd9083906107da908f908e908a90600401611454565b6000604051808303818588803b1580156107f357600080fd5b505af1158015610807573d6000803e3d6000fd5b50505050505b5050505050505050505050565b60005473ffffffffffffffffffffffffffffffffffffffff1633146108a0576040517f08c379a000000000000000000000000000000000000000000000000000000000815260206004820181905260248201527f4f776e61626c653a2063616c6c6572206973206e6f7420746865206f776e657260448201526064015b60405180910390fd5b60015485146108af5760018590555b60025473ffffffffffffffffffffffffffffffffffffffff85811691161461091257600280547fffffffffffffffffffffffff00000000000000000000000000000000000000001673ffffffffffffffffffffffffffffffffffffffff86161790555b600260149054906101000a900460ff1615158315151461097057600280547fffffffffffffffffffffff00ffffffffffffffffffffffffffffffffffffffff1674010000000000000000000000000000000000000000851515021790555b600360405160200161098291906112f3565b60405160208183030381529060405280519060200120826040516020016109a991906112d7565b60405160208183030381529060405280519060200120146109d95781516109d7906003906020850190610ef6565b505b60046040516020016109eb91906112f3565b6040516020818303038152906040528051906020012081604051602001610a1291906112d7565b6040516020818303038152906040528051906020012014610a42578051610a40906004906020840190610ef6565b505b8373ffffffffffffffffffffffffffffffffffffffff16857f29c2865076a72ab47a4be4ee7f9b9212f657a606e78358afd3ebf8569b2330db85858533604051610a8f9493929190611383565b60405180910390a35050505050565b60005473ffffffffffffffffffffffffffffffffffffffff163314610b1f576040517f08c379a000000000000000000000000000000000000000000000000000000000815260206004820181905260248201527f4f776e61626c653a2063616c6c6572206973206e6f7420746865206f776e65726044820152606401610897565b610b296000610e81565b565b60048054610b38906114ac565b80601f0160208091040260200160405190810160405280929190818152602001828054610b64906114ac565b8015610bb15780601f10610b8657610100808354040283529160200191610bb1565b820191906000526020600020905b815481529060010190602001808311610b9457829003601f168201915b505050505081565b73ffffffffffffffffffffffffffffffffffffffff8a1661eeee14610cc2573415610c10576040517fbcfd35be00000000000000000000000000000000000000000000000000000000815260040160405180910390fd5b6040517f23b872dd000000000000000000000000000000000000000000000000000000008152336004820152306024820152604481018a905273ffffffffffffffffffffffffffffffffffffffff8b16906323b872dd90606401602060405180830381600087803b158015610c8457600080fd5b505af1158015610c98573d6000803e3d6000fd5b505050506040513d601f19601f82011682018060405250810190610cbc91906110a0565b50610cca565b349850601297505b61080d8b8b8b8b8b8b8b8b8b8080601f01602080910402602001604051908101604052809392919081815260200183838082843760009201919091525050604080516020601f8f018190048102820181019092528d815292508d91508c908190840183828082843760009201919091525061040392505050565b60038054610b38906114ac565b60005473ffffffffffffffffffffffffffffffffffffffff163314610dd2576040517f08c379a000000000000000000000000000000000000000000000000000000000815260206004820181905260248201527f4f776e61626c653a2063616c6c6572206973206e6f7420746865206f776e65726044820152606401610897565b73ffffffffffffffffffffffffffffffffffffffff8116610e75576040517f08c379a000000000000000000000000000000000000000000000000000000000815260206004820152602660248201527f4f776e61626c653a206e6577206f776e657220697320746865207a65726f206160448201527f64647265737300000000000000000000000000000000000000000000000000006064820152608401610897565b610e7e81610e81565b50565b6000805473ffffffffffffffffffffffffffffffffffffffff8381167fffffffffffffffffffffffff0000000000000000000000000000000000000000831681178455604051919092169283917f8be0079c531659141344cd1fd0a4f28419497f9722a3daafe3b4186f6b6457e09190a35050565b828054610f02906114ac565b90600052602060002090601f016020900481019282610f245760008555610f6a565b82601f10610f3d57805160ff1916838001178555610f6a565b82800160010185558215610f6a579182015b82811115610f6a578251825591602001919060010190610f4f565b50610f76929150610f7a565b5090565b5b80821115610f765760008155600101610f7b565b600067ffffffffffffffff80841115610faa57610faa611500565b604051601f85017fffffffffffffffffffffffffffffffffffffffffffffffffffffffffffffffe0908116603f01168101908282118183101715610ff057610ff0611500565b8160405280935085815286868601111561100957600080fd5b858560208301376000602087830101525050509392505050565b803561102e81611551565b919050565b60008083601f84011261104557600080fd5b50813567ffffffffffffffff81111561105d57600080fd5b60208301915083602082850101111561107557600080fd5b9250929050565b60006020828403121561108e57600080fd5b81356110998161152f565b9392505050565b6000602082840312156110b257600080fd5b815161109981611551565b6000602082840312156110cf57600080fd5b81516110998161152f565b6000602082840312156110ec57600080fd5b5051919050565b600080600080600060a0868803121561110b57600080fd5b85359450602086013561111d8161152f565b9350604086013561112d81611551565b9250606086013567ffffffffffffffff8082111561114a57600080fd5b818801915088601f83011261115e57600080fd5b61116d89833560208501610f8f565b9350608088013591508082111561118357600080fd5b508601601f8101881361119557600080fd5b6111a488823560208401610f8f565b9150509295509295909350565b60008060008060008060008060008060006101208c8e0312156111d357600080fd5b8b359a506111e460208d013561152f565b60208c0135995060408c0135985060608c0135975061120660808d013561152f565b60808c0135965060a08c0135955061122060c08d01611023565b945067ffffffffffffffff8060e08e0135111561123c57600080fd5b61124c8e60e08f01358f01611033565b90955093506101008d013581101561126357600080fd5b506112758d6101008e01358e01611033565b81935080925050509295989b509295989b9093969950565b600081518084526112a581602086016020860161147c565b601f017fffffffffffffffffffffffffffffffffffffffffffffffffffffffffffffffe0169290920160200192915050565b600082516112e981846020870161147c565b9190910192915050565b6000808354611301816114ac565b60018281168015611319576001811461134857611377565b7fffffffffffffffffffffffffffffffffffffffffffffffffffffffffffffff00841687528287019450611377565b8760005260208060002060005b8581101561136e5781548a820152908401908201611355565b50505082870194505b50929695505050505050565b841515815260806020820152600061139e608083018661128d565b82810360408401526113b0818661128d565b91505073ffffffffffffffffffffffffffffffffffffffff8316606083015295945050505050565b602081526000611099602083018461128d565b87815286602082015273ffffffffffffffffffffffffffffffffffffffff86166040820152846060820152831515608082015260e060a0820152600061143460e083018561128d565b82810360c0840152611446818561128d565b9a9950505050505050505050565b838152826020820152606060408201526000611473606083018461128d565b95945050505050565b60005b8381101561149757818101518382015260200161147f565b838111156114a6576000848401525b50505050565b600181811c908216806114c057607f821691505b602082108114156114fa577f4e487b7100000000000000000000000000000000000000000000000000000000600052602260045260246000fd5b50919050565b7f4e487b7100000000000000000000000000000000000000000000000000000000600052604160045260246000fd5b73ffffffffffffffffffffffffffffffffffffffff81168114610e7e57600080fd5b8015158114610e7e57600080fdfea264697066735822122032941b98d1dbb7646fe3115bb8a6e3b0bc0afbd330ab315472514c288789222664736f6c63430008060033a26469706673582212200945ea3087fda9ac568e29f179236b05dd5d79b95bc3e45bc181762150ff426764736f6c63430008060033",
  "devdoc": {
    "details": "Inherits from: IJBETHERC20ProjectPayerDeployer:  General interface for the methods in this contract that interact with the blockchain's state according to the protocol's rules.",
    "kind": "dev",
    "methods": {
      "deployProjectPayer(uint256,address,bool,string,bytes,address,address)": {
        "params": {
          "_defaultBeneficiary": "The address that'll receive the project's tokens when the project payer receives payments. ",
          "_defaultMemo": "The memo that'll be forwarded with the project payer's received payments. ",
          "_defaultMetadata": "The metadata that'll be forwarded with the project payer's received payments. ",
          "_defaultPreferClaimedTokens": "A flag indicating whether issued tokens from the project payer's received payments should be automatically claimed into the beneficiary's wallet. ",
          "_defaultProjectId": "The ID of the project whose treasury should be forwarded the project payer contract's received payments.",
          "_directory": "A contract storing directories of terminals and controllers for each project.",
          "_owner": "The address that will own the project payer."
        },
        "returns": {
          "projectPayer": "The project payer contract."
        }
      }
    },
    "version": 1
  },
  "userdoc": {
    "kind": "user",
    "methods": {
      "deployProjectPayer(uint256,address,bool,string,bytes,address,address)": {
        "notice": " Allows anyone to deploy a new project payer contract."
      }
    },
    "notice": " Deploys project payer contracts.",
    "version": 1
  },
  "storageLayout": {
    "storage": [],
    "types": null
  }
}