{
  "address": "0xcBCe91f1b794A8cE3F64e340d2a0eE0b0c08C992",
  "abi": [
    {
      "anonymous": false,
      "inputs": [
        {
          "indexed": true,
          "internalType": "contract IJBProjectPayer",
          "name": "projectPayer",
          "type": "address"
        },
        {
          "indexed": true,
          "internalType": "uint256",
          "name": "defaultProjectId",
          "type": "uint256"
        },
        {
          "indexed": true,
          "internalType": "address",
          "name": "defaultBeneficiary",
          "type": "address"
        },
        {
          "indexed": false,
          "internalType": "bool",
          "name": "defaultPreferClaimedTokens",
          "type": "bool"
        },
        {
          "indexed": false,
          "internalType": "string",
          "name": "defaultMemo",
          "type": "string"
        },
        {
          "indexed": false,
          "internalType": "bytes",
          "name": "defaultMetadata",
          "type": "bytes"
        },
        {
          "indexed": false,
          "internalType": "contract IJBDirectory",
          "name": "directory",
          "type": "address"
        },
        {
          "indexed": false,
          "internalType": "address",
          "name": "owner",
          "type": "address"
        },
        {
          "indexed": false,
          "internalType": "address",
          "name": "caller",
          "type": "address"
        }
      ],
      "name": "DeployProjectPayer",
      "type": "event"
    },
    {
      "inputs": [
        {
          "internalType": "uint256",
          "name": "_defaultProjectId",
          "type": "uint256"
        },
        {
          "internalType": "address payable",
          "name": "_defaultBeneficiary",
          "type": "address"
        },
        {
          "internalType": "bool",
          "name": "_defaultPreferClaimedTokens",
          "type": "bool"
        },
        {
          "internalType": "string",
          "name": "_defaultMemo",
          "type": "string"
        },
        {
          "internalType": "bytes",
          "name": "_defaultMetadata",
          "type": "bytes"
        },
        {
          "internalType": "contract IJBDirectory",
          "name": "_directory",
          "type": "address"
        },
        {
          "internalType": "address",
          "name": "_owner",
          "type": "address"
        }
      ],
      "name": "deployProjectPayer",
      "outputs": [
        {
          "internalType": "contract IJBProjectPayer",
          "name": "projectPayer",
          "type": "address"
        }
      ],
      "stateMutability": "nonpayable",
      "type": "function"
    }
  ],
  "transactionHash": "0xf04bf978a11408ed35127fa3d242304799ea281f9032a5dd798fd7bac8e86e3f",
  "args": [],
  "numDeployments": 1,
  "solcInputHash": "9a36e097281c7d56056478f1945ea852",
  "bytecode": "0x608060405234801561001057600080fd5b50611cde806100206000396000f3fe608060405234801561001057600080fd5b506004361061002b5760003560e01c8063270f319f14610030575b600080fd5b61004361003e3660046101f3565b61006c565b60405173ffffffffffffffffffffffffffffffffffffffff909116815260200160405180910390f35b6000878787878787876040516100819061012b565b610091979695949392919061037d565b604051809103906000f0801580156100ad573d6000803e3d6000fd5b5090508673ffffffffffffffffffffffffffffffffffffffff16888273ffffffffffffffffffffffffffffffffffffffff167fe0efc06c487322eaaa82cb135a5f378f3d7d0830d03ad9bd5508b5b3c2113adf89898989893360405161011896959493929190610317565b60405180910390a4979650505050505050565b61186a8061043f83390190565b803561014381610419565b919050565b600082601f83011261015957600080fd5b813567ffffffffffffffff80821115610174576101746103ea565b604051601f83017fffffffffffffffffffffffffffffffffffffffffffffffffffffffffffffffe0908116603f011681019082821181831017156101ba576101ba6103ea565b816040528381528660208588010111156101d357600080fd5b836020870160208301376000602085830101528094505050505092915050565b600080600080600080600060e0888a03121561020e57600080fd5b87359650602088013561022081610419565b95506040880135801515811461023557600080fd5b9450606088013567ffffffffffffffff8082111561025257600080fd5b61025e8b838c01610148565b955060808a013591508082111561027457600080fd5b506102818a828b01610148565b93505061029060a08901610138565b915061029e60c08901610138565b905092959891949750929550565b6000815180845260005b818110156102d2576020818501810151868301820152016102b6565b818111156102e4576000602083870101525b50601f017fffffffffffffffffffffffffffffffffffffffffffffffffffffffffffffffe0169290920160200192915050565b861515815260c06020820152600061033260c08301886102ac565b828103604084015261034481886102ac565b73ffffffffffffffffffffffffffffffffffffffff968716606085015294861660808401525050921660a0909201919091529392505050565b878152600073ffffffffffffffffffffffffffffffffffffffff8089166020840152871515604084015260e060608401526103bb60e08401886102ac565b83810360808501526103cd81886102ac565b95821660a0850152509290921660c0909101525095945050505050565b7f4e487b7100000000000000000000000000000000000000000000000000000000600052604160045260246000fd5b73ffffffffffffffffffffffffffffffffffffffff8116811461043b57600080fd5b5056fe60a06040523480156200001157600080fd5b506040516200186a3803806200186a833981016040819052620000349162000280565b6200003f33620000c1565b6001600160601b0319606083901b16608052600187905560028054861515600160a01b026001600160a81b03199091166001600160a01b0389161717905583516200009290600390602087019062000111565b508251620000a890600490602086019062000111565b50620000b481620000c1565b50505050505050620003b4565b600080546001600160a01b038381166001600160a01b0319831681178455604051919092169283917f8be0079c531659141344cd1fd0a4f28419497f9722a3daafe3b4186f6b6457e09190a35050565b8280546200011f9062000348565b90600052602060002090601f0160209004810192826200014357600085556200018e565b82601f106200015e57805160ff19168380011785556200018e565b828001600101855582156200018e579182015b828111156200018e57825182559160200191906001019062000171565b506200019c929150620001a0565b5090565b5b808211156200019c5760008155600101620001a1565b8051620001c4816200039b565b919050565b600082601f830112620001db57600080fd5b81516001600160401b0380821115620001f857620001f862000385565b604051601f8301601f19908116603f0116810190828211818310171562000223576200022362000385565b816040528381526020925086838588010111156200024057600080fd5b600091505b8382101562000264578582018301518183018401529082019062000245565b83821115620002765760008385830101525b9695505050505050565b600080600080600080600060e0888a0312156200029c57600080fd5b875196506020880151620002b0816200039b565b60408901519096508015158114620002c757600080fd5b60608901519095506001600160401b0380821115620002e557600080fd5b620002f38b838c01620001c9565b955060808a01519150808211156200030a57600080fd5b50620003198a828b01620001c9565b9350506200032a60a08901620001b7565b91506200033a60c08901620001b7565b905092959891949750929550565b600181811c908216806200035d57607f821691505b602082108114156200037f57634e487b7160e01b600052602260045260246000fd5b50919050565b634e487b7160e01b600052604160045260246000fd5b6001600160a01b0381168114620003b157600080fd5b50565b60805160601c611490620003da600039600081816103be015261044f01526114906000f3fe6080604052600436106100c05760003560e01c80637e64654911610074578063b96053df1161004e578063b96053df14610397578063c41c2f24146103ac578063f2fde38b146103e057600080fd5b80637e646549146103085780638da5cb5b1461032a578063a4919eb11461035557600080fd5b80633ce9830b116100a55780633ce9830b1461027857806354ab58af146102a1578063715018a6146102f357600080fd5b806301b11c1c146102455780632d8a19471461026557600080fd5b366102405760015460025461023e919061eeee90479073ffffffffffffffffffffffffffffffffffffffff161561010f5760025473ffffffffffffffffffffffffffffffffffffffff16610111565b335b6000600260149054906101000a900460ff1660038054610130906113a7565b80601f016020809104026020016040519081016040528092919081815260200182805461015c906113a7565b80156101a95780601f1061017e576101008083540402835291602001916101a9565b820191906000526020600020905b81548152906001019060200180831161018c57829003601f168201915b5050505050600480546101bb906113a7565b80601f01602080910402602001604051908101604052809291908181526020018280546101e7906113a7565b80156102345780601f1061020957610100808354040283529160200191610234565b820191906000526020600020905b81548152906001019060200180831161021757829003601f168201915b5050505050610400565b005b600080fd5b34801561025157600080fd5b5061023e610260366004610ff0565b610759565b61023e6102733660046110ae565b6109c9565b34801561028457600080fd5b5061028e60015481565b6040519081526020015b60405180910390f35b3480156102ad57600080fd5b506002546102ce9073ffffffffffffffffffffffffffffffffffffffff1681565b60405173ffffffffffffffffffffffffffffffffffffffff9091168152602001610298565b3480156102ff57600080fd5b5061023e610b4f565b34801561031457600080fd5b5061031d610bdc565b604051610298919061126c565b34801561033657600080fd5b5060005473ffffffffffffffffffffffffffffffffffffffff166102ce565b34801561036157600080fd5b506002546103879074010000000000000000000000000000000000000000900460ff1681565b6040519015158152602001610298565b3480156103a357600080fd5b5061031d610c6a565b3480156103b857600080fd5b506102ce7f000000000000000000000000000000000000000000000000000000000000000081565b3480156103ec57600080fd5b5061023e6103fb366004610f92565b610c77565b6040517f862026500000000000000000000000000000000000000000000000000000000081526004810189905273ffffffffffffffffffffffffffffffffffffffff88811660248301526000917f00000000000000000000000000000000000000000000000000000000000000009091169063862026509060440160206040518083038186803b15801561049357600080fd5b505afa1580156104a7573d6000803e3d6000fd5b505050506040513d601f19601f820116820180604052508101906104cb9190610fd3565b905073ffffffffffffffffffffffffffffffffffffffff811661051a576040517ffba10dd600000000000000000000000000000000000000000000000000000000815260040160405180910390fd5b73ffffffffffffffffffffffffffffffffffffffff881661eeee146105e3576040517f095ea7b300000000000000000000000000000000000000000000000000000000815273ffffffffffffffffffffffffffffffffffffffff82811660048301526024820189905289169063095ea7b390604401602060405180830381600087803b1580156105a957600080fd5b505af11580156105bd573d6000803e3d6000fd5b505050506040513d601f19601f820116820180604052508101906105e19190610fb6565b505b600073ffffffffffffffffffffffffffffffffffffffff891661eeee1461060b57600061060d565b875b905073ffffffffffffffffffffffffffffffffffffffff8716156106c2576040517fabe151b700000000000000000000000000000000000000000000000000000000815273ffffffffffffffffffffffffffffffffffffffff83169063abe151b790839061068b908c908f908d908d908d908d908d906004016112e6565b6000604051808303818588803b1580156106a457600080fd5b505af11580156106b8573d6000803e3d6000fd5b505050505061074d565b6040517f84a2aacd00000000000000000000000000000000000000000000000000000000815273ffffffffffffffffffffffffffffffffffffffff8316906384a2aacd90839061071a908e908d908a9060040161134f565b6000604051808303818588803b15801561073357600080fd5b505af1158015610747573d6000803e3d6000fd5b50505050505b50505050505050505050565b60005473ffffffffffffffffffffffffffffffffffffffff1633146107df576040517f08c379a000000000000000000000000000000000000000000000000000000000815260206004820181905260248201527f4f776e61626c653a2063616c6c6572206973206e6f7420746865206f776e657260448201526064015b60405180910390fd5b60015485146107ee5760018590555b60025473ffffffffffffffffffffffffffffffffffffffff85811691161461085157600280547fffffffffffffffffffffffff00000000000000000000000000000000000000001673ffffffffffffffffffffffffffffffffffffffff86161790555b600260149054906101000a900460ff161515831515146108af57600280547fffffffffffffffffffffff00ffffffffffffffffffffffffffffffffffffffff1674010000000000000000000000000000000000000000851515021790555b60036040516020016108c191906111dc565b60405160208183030381529060405280519060200120826040516020016108e891906111c0565b6040516020818303038152906040528051906020012014610918578151610916906003906020850190610e1c565b505b600460405160200161092a91906111dc565b604051602081830303815290604052805190602001208160405160200161095191906111c0565b604051602081830303815290604052805190602001201461098157805161097f906004906020840190610e1c565b505b7f29c2865076a72ab47a4be4ee7f9b9212f657a606e78358afd3ebf8569b2330db8585858585336040516109ba9695949392919061127f565b60405180910390a15050505050565b73ffffffffffffffffffffffffffffffffffffffff891661eeee14610ad2573415610a20576040517fbcfd35be00000000000000000000000000000000000000000000000000000000815260040160405180910390fd5b6040517f23b872dd0000000000000000000000000000000000000000000000000000000081523360048201523060248201526044810189905273ffffffffffffffffffffffffffffffffffffffff8a16906323b872dd90606401602060405180830381600087803b158015610a9457600080fd5b505af1158015610aa8573d6000803e3d6000fd5b505050506040513d601f19601f82011682018060405250810190610acc9190610fb6565b50610ad6565b3497505b61074d8a8a8a8a8a8a8a8a8080601f01602080910402602001604051908101604052809392919081815260200183838082843760009201919091525050604080516020601f8e018190048102820181019092528c815292508c91508b908190840183828082843760009201919091525061040092505050565b60005473ffffffffffffffffffffffffffffffffffffffff163314610bd0576040517f08c379a000000000000000000000000000000000000000000000000000000000815260206004820181905260248201527f4f776e61626c653a2063616c6c6572206973206e6f7420746865206f776e657260448201526064016107d6565b610bda6000610da7565b565b60048054610be9906113a7565b80601f0160208091040260200160405190810160405280929190818152602001828054610c15906113a7565b8015610c625780601f10610c3757610100808354040283529160200191610c62565b820191906000526020600020905b815481529060010190602001808311610c4557829003601f168201915b505050505081565b60038054610be9906113a7565b60005473ffffffffffffffffffffffffffffffffffffffff163314610cf8576040517f08c379a000000000000000000000000000000000000000000000000000000000815260206004820181905260248201527f4f776e61626c653a2063616c6c6572206973206e6f7420746865206f776e657260448201526064016107d6565b73ffffffffffffffffffffffffffffffffffffffff8116610d9b576040517f08c379a000000000000000000000000000000000000000000000000000000000815260206004820152602660248201527f4f776e61626c653a206e6577206f776e657220697320746865207a65726f206160448201527f646472657373000000000000000000000000000000000000000000000000000060648201526084016107d6565b610da481610da7565b50565b6000805473ffffffffffffffffffffffffffffffffffffffff8381167fffffffffffffffffffffffff0000000000000000000000000000000000000000831681178455604051919092169283917f8be0079c531659141344cd1fd0a4f28419497f9722a3daafe3b4186f6b6457e09190a35050565b828054610e28906113a7565b90600052602060002090601f016020900481019282610e4a5760008555610e90565b82601f10610e6357805160ff1916838001178555610e90565b82800160010185558215610e90579182015b82811115610e90578251825591602001919060010190610e75565b50610e9c929150610ea0565b5090565b5b80821115610e9c5760008155600101610ea1565b600067ffffffffffffffff80841115610ed057610ed06113fb565b604051601f85017fffffffffffffffffffffffffffffffffffffffffffffffffffffffffffffffe0908116603f01168101908282118183101715610f1657610f166113fb565b81604052809350858152868686011115610f2f57600080fd5b858560208301376000602087830101525050509392505050565b60008083601f840112610f5b57600080fd5b50813567ffffffffffffffff811115610f7357600080fd5b602083019150836020828501011115610f8b57600080fd5b9250929050565b600060208284031215610fa457600080fd5b8135610faf8161142a565b9392505050565b600060208284031215610fc857600080fd5b8151610faf8161144c565b600060208284031215610fe557600080fd5b8151610faf8161142a565b600080600080600060a0868803121561100857600080fd5b85359450602086013561101a8161142a565b9350604086013561102a8161144c565b9250606086013567ffffffffffffffff8082111561104757600080fd5b818801915088601f83011261105b57600080fd5b61106a89833560208501610eb5565b9350608088013591508082111561108057600080fd5b508601601f8101881361109257600080fd5b6110a188823560208401610eb5565b9150509295509295909350565b6000806000806000806000806000806101008b8d0312156110ce57600080fd5b8a35995060208b01356110e08161142a565b985060408b0135975060608b01356110f78161142a565b965060808b0135955060a08b013561110e8161144c565b945060c08b013567ffffffffffffffff8082111561112b57600080fd5b6111378e838f01610f49565b909650945060e08d013591508082111561115057600080fd5b5061115d8d828e01610f49565b915080935050809150509295989b9194979a5092959850565b6000815180845261118e816020860160208601611377565b601f017fffffffffffffffffffffffffffffffffffffffffffffffffffffffffffffffe0169290920160200192915050565b600082516111d2818460208701611377565b9190910192915050565b60008083546111ea816113a7565b60018281168015611202576001811461123157611260565b7fffffffffffffffffffffffffffffffffffffffffffffffffffffffffffffff00841687528287019450611260565b8760005260208060002060005b858110156112575781548a82015290840190820161123e565b50505082870194505b50929695505050505050565b602081526000610faf6020830184611176565b868152600073ffffffffffffffffffffffffffffffffffffffff8088166020840152861515604084015260c060608401526112bd60c0840187611176565b83810360808501526112cf8187611176565b92505080841660a084015250979650505050505050565b87815286602082015273ffffffffffffffffffffffffffffffffffffffff86166040820152846060820152831515608082015260e060a0820152600061132f60e0830185611176565b82810360c08401526113418185611176565b9a9950505050505050505050565b83815282602082015260606040820152600061136e6060830184611176565b95945050505050565b60005b8381101561139257818101518382015260200161137a565b838111156113a1576000848401525b50505050565b600181811c908216806113bb57607f821691505b602082108114156113f5577f4e487b7100000000000000000000000000000000000000000000000000000000600052602260045260246000fd5b50919050565b7f4e487b7100000000000000000000000000000000000000000000000000000000600052604160045260246000fd5b73ffffffffffffffffffffffffffffffffffffffff81168114610da457600080fd5b8015158114610da457600080fdfea264697066735822122074c6f14b0cc064c01051c1a98e2e8a94cb82862e55c976366a99d6ea6bc8889564736f6c63430008060033a2646970667358221220a83a35d35d5779198c7671f2ac040a36823d22b5e3b9dfc7d0f20600b0d3272264736f6c63430008060033",
  "devdoc": {
    "details": "Inherits from: IJBETHERC20ProjectPayerDeployer:  General interface for the methods in this contract that interact with the blockchain's state according to the protocol's rules.",
    "kind": "dev",
    "methods": {
      "deployProjectPayer(uint256,address,bool,string,bytes,address,address)": {
        "params": {
          "_defaultBeneficiary": "The address that'll receive the project's tokens when the project payer receives payments. ",
          "_defaultMemo": "The memo that'll be forwarded with the project payer's received payments. ",
          "_defaultMetadata": "The metadata that'll be forwarded with the project payer's received payments. ",
          "_defaultPreferClaimedTokens": "A flag indicating whether issued tokens from the project payer's received payments should be automatically claimed into the beneficiary's wallet. ",
          "_defaultProjectId": "The ID of the project that should be used to forward the project payer's received payments.",
          "_directory": "A contract storing directories of terminals and controllers for each project."
        },
        "returns": {
          "projectPayer": "The project payer contract."
        }
      }
    },
    "version": 1
  },
  "userdoc": {
    "kind": "user",
    "methods": {
      "deployProjectPayer(uint256,address,bool,string,bytes,address,address)": {
        "notice": " Allows anyone to deploy a new project payer contract."
      }
    },
    "notice": " Deploys project payer contracts.",
    "version": 1
  },
  "storageLayout": {
    "storage": [],
    "types": null
  }
}