{
  "address": "0x2d110f9DDa8d019B453299151631e9dfb69cfcb7",
  "abi": [
    {
      "inputs": [
        {
          "internalType": "contract IJBOperatorStore",
          "name": "_operatorStore",
          "type": "address"
        },
        {
          "internalType": "contract IJBProjects",
          "name": "_projects",
          "type": "address"
        },
        {
          "internalType": "contract IJBDirectory",
          "name": "_directory",
          "type": "address"
        },
        {
          "internalType": "contract IJBSplitsStore",
          "name": "_splitsStore",
          "type": "address"
        },
        {
          "internalType": "contract JBETHPaymentTerminalStore",
          "name": "_store",
          "type": "address"
        },
        {
          "internalType": "address",
          "name": "_owner",
          "type": "address"
        }
      ],
      "stateMutability": "nonpayable",
      "type": "constructor"
    },
    {
      "inputs": [],
      "name": "FEE_TOO_HIGH",
      "type": "error"
    },
    {
      "inputs": [],
      "name": "PAY_TO_ZERO_ADDRESS",
      "type": "error"
    },
    {
      "inputs": [
        {
          "internalType": "uint256",
          "name": "prod1",
          "type": "uint256"
        },
        {
          "internalType": "uint256",
          "name": "denominator",
          "type": "uint256"
        }
      ],
      "name": "PRBMath__MulDivOverflow",
      "type": "error"
    },
    {
      "inputs": [],
      "name": "REDEEM_TO_ZERO_ADDRESS",
      "type": "error"
    },
    {
      "inputs": [],
      "name": "TERMINAL_IN_SPLIT_ZERO_ADDRESS",
      "type": "error"
    },
    {
      "inputs": [],
      "name": "TERMINAL_TOKENS_INCOMPATIBLE",
      "type": "error"
    },
    {
      "inputs": [],
      "name": "UNAUTHORIZED",
      "type": "error"
    },
    {
      "inputs": [],
      "name": "ZERO_VALUE_SENT",
      "type": "error"
    },
    {
      "anonymous": false,
      "inputs": [
        {
          "indexed": true,
          "internalType": "uint256",
          "name": "projectId",
          "type": "uint256"
        },
        {
          "indexed": false,
          "internalType": "uint256",
          "name": "amount",
          "type": "uint256"
        },
        {
          "indexed": false,
          "internalType": "string",
          "name": "memo",
          "type": "string"
        },
        {
          "indexed": false,
          "internalType": "address",
          "name": "caller",
          "type": "address"
        }
      ],
      "name": "AddToBalance",
      "type": "event"
    },
    {
      "anonymous": false,
      "inputs": [
        {
          "indexed": true,
          "internalType": "uint256",
          "name": "fundingCycleConfiguration",
          "type": "uint256"
        },
        {
          "indexed": true,
          "internalType": "uint256",
          "name": "fundingCycleNumber",
          "type": "uint256"
        },
        {
          "indexed": true,
          "internalType": "uint256",
          "name": "projectId",
          "type": "uint256"
        },
        {
          "indexed": false,
          "internalType": "address",
          "name": "beneficiary",
          "type": "address"
        },
        {
          "indexed": false,
          "internalType": "uint256",
          "name": "amount",
          "type": "uint256"
        },
        {
          "indexed": false,
          "internalType": "uint256",
          "name": "distributedAmount",
          "type": "uint256"
        },
        {
          "indexed": false,
          "internalType": "uint256",
          "name": "feeAmount",
          "type": "uint256"
        },
        {
          "indexed": false,
          "internalType": "uint256",
          "name": "beneficiaryDistributionAmount",
          "type": "uint256"
        },
        {
          "indexed": false,
          "internalType": "string",
          "name": "memo",
          "type": "string"
        },
        {
          "indexed": false,
          "internalType": "address",
          "name": "caller",
          "type": "address"
        }
      ],
      "name": "DistributePayouts",
      "type": "event"
    },
    {
      "anonymous": false,
      "inputs": [
        {
          "indexed": true,
          "internalType": "uint256",
          "name": "fundingCycleConfiguration",
          "type": "uint256"
        },
        {
          "indexed": true,
          "internalType": "uint256",
          "name": "fundingCycleNumber",
          "type": "uint256"
        },
        {
          "indexed": true,
          "internalType": "uint256",
          "name": "projectId",
          "type": "uint256"
        },
        {
          "components": [
            {
              "internalType": "bool",
              "name": "preferClaimed",
              "type": "bool"
            },
            {
              "internalType": "uint256",
              "name": "percent",
              "type": "uint256"
            },
            {
              "internalType": "uint256",
              "name": "projectId",
              "type": "uint256"
            },
            {
              "internalType": "address payable",
              "name": "beneficiary",
              "type": "address"
            },
            {
              "internalType": "uint256",
              "name": "lockedUntil",
              "type": "uint256"
            },
            {
              "internalType": "contract IJBSplitAllocator",
              "name": "allocator",
              "type": "address"
            }
          ],
          "indexed": false,
          "internalType": "struct JBSplit",
          "name": "split",
          "type": "tuple"
        },
        {
          "indexed": false,
          "internalType": "uint256",
          "name": "amount",
          "type": "uint256"
        },
        {
          "indexed": false,
          "internalType": "address",
          "name": "caller",
          "type": "address"
        }
      ],
      "name": "DistributeToPayoutSplit",
      "type": "event"
    },
    {
      "anonymous": false,
      "inputs": [
        {
          "indexed": true,
          "internalType": "uint256",
          "name": "projectId",
          "type": "uint256"
        },
        {
          "indexed": true,
          "internalType": "contract IJBPaymentTerminal",
          "name": "to",
          "type": "address"
        },
        {
          "indexed": false,
          "internalType": "uint256",
          "name": "amount",
          "type": "uint256"
        },
        {
          "indexed": false,
          "internalType": "address",
          "name": "caller",
          "type": "address"
        }
      ],
      "name": "Migrate",
      "type": "event"
    },
    {
      "anonymous": false,
      "inputs": [
        {
          "indexed": true,
          "internalType": "address",
          "name": "previousOwner",
          "type": "address"
        },
        {
          "indexed": true,
          "internalType": "address",
          "name": "newOwner",
          "type": "address"
        }
      ],
      "name": "OwnershipTransferred",
      "type": "event"
    },
    {
      "anonymous": false,
      "inputs": [
        {
          "indexed": true,
          "internalType": "uint256",
          "name": "fundingCycleConfiguration",
          "type": "uint256"
        },
        {
          "indexed": true,
          "internalType": "uint256",
          "name": "fundingCycleNumber",
          "type": "uint256"
        },
        {
          "indexed": true,
          "internalType": "uint256",
          "name": "projectId",
          "type": "uint256"
        },
        {
          "indexed": false,
          "internalType": "address",
          "name": "beneficiary",
          "type": "address"
        },
        {
          "indexed": false,
          "internalType": "uint256",
          "name": "amount",
          "type": "uint256"
        },
        {
          "indexed": false,
          "internalType": "uint256",
          "name": "weight",
          "type": "uint256"
        },
        {
          "indexed": false,
          "internalType": "uint256",
          "name": "tokenCount",
          "type": "uint256"
        },
        {
          "indexed": false,
          "internalType": "string",
          "name": "memo",
          "type": "string"
        },
        {
          "indexed": false,
          "internalType": "address",
          "name": "caller",
          "type": "address"
        }
      ],
      "name": "Pay",
      "type": "event"
    },
    {
      "anonymous": false,
      "inputs": [
        {
          "indexed": true,
          "internalType": "uint256",
          "name": "projectId",
          "type": "uint256"
        },
        {
          "components": [
            {
              "internalType": "uint256",
              "name": "amount",
              "type": "uint256"
            },
            {
              "internalType": "uint8",
              "name": "fee",
              "type": "uint8"
            },
            {
              "internalType": "address",
              "name": "beneficiary",
              "type": "address"
            }
          ],
          "indexed": false,
          "internalType": "struct JBFee[]",
          "name": "fees",
          "type": "tuple[]"
        },
        {
          "indexed": false,
          "internalType": "address",
          "name": "caller",
          "type": "address"
        }
      ],
      "name": "ProcessFees",
      "type": "event"
    },
    {
      "anonymous": false,
      "inputs": [
        {
          "indexed": true,
          "internalType": "uint256",
          "name": "fundingCycleConfiguration",
          "type": "uint256"
        },
        {
          "indexed": true,
          "internalType": "uint256",
          "name": "fundingCycleNumber",
          "type": "uint256"
        },
        {
          "indexed": true,
          "internalType": "uint256",
          "name": "projectId",
          "type": "uint256"
        },
        {
          "indexed": false,
          "internalType": "address",
          "name": "holder",
          "type": "address"
        },
        {
          "indexed": false,
          "internalType": "address",
          "name": "beneficiary",
          "type": "address"
        },
        {
          "indexed": false,
          "internalType": "uint256",
          "name": "tokenCount",
          "type": "uint256"
        },
        {
          "indexed": false,
          "internalType": "uint256",
          "name": "claimedAmount",
          "type": "uint256"
        },
        {
          "indexed": false,
          "internalType": "string",
          "name": "memo",
          "type": "string"
        },
        {
          "indexed": false,
          "internalType": "address",
          "name": "caller",
          "type": "address"
        }
      ],
      "name": "RedeemTokens",
      "type": "event"
    },
    {
      "anonymous": false,
      "inputs": [
        {
          "indexed": false,
          "internalType": "uint256",
          "name": "fee",
          "type": "uint256"
        },
        {
          "indexed": false,
          "internalType": "address",
          "name": "caller",
          "type": "address"
        }
      ],
      "name": "SetFee",
      "type": "event"
    },
    {
      "anonymous": false,
      "inputs": [
        {
          "indexed": false,
          "internalType": "contract IJBFeeGauge",
          "name": "feeGauge",
          "type": "address"
        },
        {
          "indexed": false,
          "internalType": "address",
          "name": "caller",
          "type": "address"
        }
      ],
      "name": "SetFeeGauge",
      "type": "event"
    },
    {
      "anonymous": false,
      "inputs": [
        {
          "indexed": true,
          "internalType": "uint256",
          "name": "fundingCycleConfiguration",
          "type": "uint256"
        },
        {
          "indexed": true,
          "internalType": "uint256",
          "name": "fundingCycleNumber",
          "type": "uint256"
        },
        {
          "indexed": true,
          "internalType": "uint256",
          "name": "projectId",
          "type": "uint256"
        },
        {
          "indexed": false,
          "internalType": "address",
          "name": "beneficiary",
          "type": "address"
        },
        {
          "indexed": false,
          "internalType": "uint256",
          "name": "amount",
          "type": "uint256"
        },
        {
          "indexed": false,
          "internalType": "uint256",
          "name": "feeAmount",
          "type": "uint256"
        },
        {
          "indexed": false,
          "internalType": "uint256",
          "name": "transferAmount",
          "type": "uint256"
        },
        {
          "indexed": false,
          "internalType": "address",
          "name": "caller",
          "type": "address"
        }
      ],
      "name": "UseAllowance",
      "type": "event"
    },
    {
      "inputs": [
        {
          "internalType": "uint256",
          "name": "_projectId",
          "type": "uint256"
        },
        {
          "internalType": "string",
          "name": "_memo",
          "type": "string"
        }
      ],
      "name": "addToBalanceOf",
      "outputs": [],
      "stateMutability": "payable",
      "type": "function"
    },
    {
      "inputs": [],
      "name": "delegate",
      "outputs": [
        {
          "internalType": "address",
          "name": "",
          "type": "address"
        }
      ],
      "stateMutability": "view",
      "type": "function"
    },
    {
      "inputs": [],
      "name": "directory",
      "outputs": [
        {
          "internalType": "contract IJBDirectory",
          "name": "",
          "type": "address"
        }
      ],
      "stateMutability": "view",
      "type": "function"
    },
    {
      "inputs": [
        {
          "internalType": "uint256",
          "name": "_projectId",
          "type": "uint256"
        },
        {
          "internalType": "uint256",
          "name": "_amount",
          "type": "uint256"
        },
        {
          "internalType": "uint256",
          "name": "_currency",
          "type": "uint256"
        },
        {
          "internalType": "uint256",
          "name": "_minReturnedWei",
          "type": "uint256"
        },
        {
          "internalType": "string",
          "name": "_memo",
          "type": "string"
        }
      ],
      "name": "distributePayoutsOf",
      "outputs": [],
      "stateMutability": "nonpayable",
      "type": "function"
    },
    {
      "inputs": [
        {
          "internalType": "uint256",
          "name": "_projectId",
          "type": "uint256"
        }
      ],
      "name": "ethBalanceOf",
      "outputs": [
        {
          "internalType": "uint256",
          "name": "",
          "type": "uint256"
        }
      ],
      "stateMutability": "view",
      "type": "function"
    },
    {
      "inputs": [],
      "name": "fee",
      "outputs": [
        {
          "internalType": "uint256",
          "name": "",
          "type": "uint256"
        }
      ],
      "stateMutability": "view",
      "type": "function"
    },
    {
      "inputs": [],
      "name": "feeGauge",
      "outputs": [
        {
          "internalType": "contract IJBFeeGauge",
          "name": "",
          "type": "address"
        }
      ],
      "stateMutability": "view",
      "type": "function"
    },
    {
      "inputs": [
        {
          "internalType": "uint256",
          "name": "_projectId",
          "type": "uint256"
        }
      ],
      "name": "heldFeesOf",
      "outputs": [
        {
          "components": [
            {
              "internalType": "uint256",
              "name": "amount",
              "type": "uint256"
            },
            {
              "internalType": "uint8",
              "name": "fee",
              "type": "uint8"
            },
            {
              "internalType": "address",
              "name": "beneficiary",
              "type": "address"
            }
          ],
          "internalType": "struct JBFee[]",
          "name": "",
          "type": "tuple[]"
        }
      ],
      "stateMutability": "view",
      "type": "function"
    },
    {
      "inputs": [
        {
          "internalType": "uint256",
          "name": "_projectId",
          "type": "uint256"
        },
        {
          "internalType": "contract IJBPaymentTerminal",
          "name": "_to",
          "type": "address"
        }
      ],
      "name": "migrate",
      "outputs": [],
      "stateMutability": "nonpayable",
      "type": "function"
    },
    {
      "inputs": [],
      "name": "operatorStore",
      "outputs": [
        {
          "internalType": "contract IJBOperatorStore",
          "name": "",
          "type": "address"
        }
      ],
      "stateMutability": "view",
      "type": "function"
    },
    {
      "inputs": [],
      "name": "owner",
      "outputs": [
        {
          "internalType": "address",
          "name": "",
          "type": "address"
        }
      ],
      "stateMutability": "view",
      "type": "function"
    },
    {
      "inputs": [
        {
          "internalType": "uint256",
          "name": "_projectId",
          "type": "uint256"
        },
        {
          "internalType": "address",
          "name": "_beneficiary",
          "type": "address"
        },
        {
          "internalType": "uint256",
          "name": "_minReturnedTokens",
          "type": "uint256"
        },
        {
          "internalType": "bool",
          "name": "_preferClaimedTokens",
          "type": "bool"
        },
        {
          "internalType": "string",
          "name": "_memo",
          "type": "string"
        },
        {
          "internalType": "bytes",
          "name": "_delegateMetadata",
          "type": "bytes"
        }
      ],
      "name": "pay",
      "outputs": [],
      "stateMutability": "payable",
      "type": "function"
    },
    {
      "inputs": [
        {
          "internalType": "uint256",
          "name": "_projectId",
          "type": "uint256"
        }
      ],
      "name": "processFees",
      "outputs": [],
      "stateMutability": "nonpayable",
      "type": "function"
    },
    {
      "inputs": [],
      "name": "projects",
      "outputs": [
        {
          "internalType": "contract IJBProjects",
          "name": "",
          "type": "address"
        }
      ],
      "stateMutability": "view",
      "type": "function"
    },
    {
      "inputs": [
        {
          "internalType": "address",
          "name": "_holder",
          "type": "address"
        },
        {
          "internalType": "uint256",
          "name": "_projectId",
          "type": "uint256"
        },
        {
          "internalType": "uint256",
          "name": "_tokenCount",
          "type": "uint256"
        },
        {
          "internalType": "uint256",
          "name": "_minReturnedWei",
          "type": "uint256"
        },
        {
          "internalType": "address payable",
          "name": "_beneficiary",
          "type": "address"
        },
        {
          "internalType": "string",
          "name": "_memo",
          "type": "string"
        },
        {
          "internalType": "bytes",
          "name": "_delegateMetadata",
          "type": "bytes"
        }
      ],
      "name": "redeemTokensOf",
      "outputs": [
        {
          "internalType": "uint256",
          "name": "claimAmount",
          "type": "uint256"
        }
      ],
      "stateMutability": "nonpayable",
      "type": "function"
    },
    {
      "inputs": [
        {
          "internalType": "uint256",
          "name": "_projectId",
          "type": "uint256"
        },
        {
          "internalType": "uint256",
          "name": "_fundingCycleConfiguration",
          "type": "uint256"
        },
        {
          "internalType": "uint256",
          "name": "_fundingCycleNumber",
          "type": "uint256"
        }
      ],
      "name": "remainingDistributionLimitOf",
      "outputs": [
        {
          "internalType": "uint256",
          "name": "",
          "type": "uint256"
        }
      ],
      "stateMutability": "view",
      "type": "function"
    },
    {
      "inputs": [],
      "name": "renounceOwnership",
      "outputs": [],
      "stateMutability": "nonpayable",
      "type": "function"
    },
    {
      "inputs": [
        {
          "internalType": "uint256",
          "name": "_fee",
          "type": "uint256"
        }
      ],
      "name": "setFee",
      "outputs": [],
      "stateMutability": "nonpayable",
      "type": "function"
    },
    {
      "inputs": [
        {
          "internalType": "contract IJBFeeGauge",
          "name": "_feeGauge",
          "type": "address"
        }
      ],
      "name": "setFeeGauge",
      "outputs": [],
      "stateMutability": "nonpayable",
      "type": "function"
    },
    {
      "inputs": [],
      "name": "splitsStore",
      "outputs": [
        {
          "internalType": "contract IJBSplitsStore",
          "name": "",
          "type": "address"
        }
      ],
      "stateMutability": "view",
      "type": "function"
    },
    {
      "inputs": [],
      "name": "store",
      "outputs": [
        {
          "internalType": "contract JBETHPaymentTerminalStore",
          "name": "",
          "type": "address"
        }
      ],
      "stateMutability": "view",
      "type": "function"
    },
    {
      "inputs": [],
      "name": "token",
      "outputs": [
        {
          "internalType": "address",
          "name": "",
          "type": "address"
        }
      ],
      "stateMutability": "view",
      "type": "function"
    },
    {
      "inputs": [
        {
          "internalType": "address",
          "name": "newOwner",
          "type": "address"
        }
      ],
      "name": "transferOwnership",
      "outputs": [],
      "stateMutability": "nonpayable",
      "type": "function"
    },
    {
      "inputs": [
        {
          "internalType": "uint256",
          "name": "_projectId",
          "type": "uint256"
        },
        {
          "internalType": "uint256",
          "name": "_amount",
          "type": "uint256"
        },
        {
          "internalType": "uint256",
          "name": "_currency",
          "type": "uint256"
        },
        {
          "internalType": "uint256",
          "name": "_minReturnedWei",
          "type": "uint256"
        },
        {
          "internalType": "address payable",
          "name": "_beneficiary",
          "type": "address"
        }
      ],
      "name": "useAllowanceOf",
      "outputs": [],
      "stateMutability": "nonpayable",
      "type": "function"
    }
  ],
  "transactionHash": "0x13d222afc32490aea37a87a7a16b5d4f6af2691a6f6215996cacb9730b937ee1",
  "args": [
    "0xacD28185AE65adc711481c0aECB0B99Ac8608698",
    "0x05ea48673d41DC75fbDC8f32fA825be69c1BD5B2",
    "0xedfCFdCB621aFA76781eFBe7586fAe83D1578Ac2",
    "0x53C0CE78b61B29816b548C705dAc4cD4839693b6",
    "0x224628D88858cBc535486C3BC3bB25bBB487fa8A",
    "0x69C6026e3938adE9e1ddE8Ff6A37eC96595bF1e1"
  ],
  "numDeployments": 2,
  "solcInputHash": "84ad828d78fb9f44a0d0346f7fab757e",
  "bytecode": "0x6101406040526deeee00000000000000000000000061012052600a6003553480156200002a57600080fd5b50604051620049aa380380620049aa8339810160408190526200004d916200023a565b606086901b6001600160601b0319166080526200006a3362000115565b600180556001600160601b0319606086811b821660a05285811b821660c05284901b1660e05260405163ddeae03360e01b81523060048201526001600160a01b0383169063ddeae03390602401600060405180830381600087803b158015620000d257600080fd5b505af1158015620000e7573d6000803e3d6000fd5b5050506001600160601b0319606084901b166101005250620001098162000165565b505050505050620002e4565b600080546001600160a01b038381166001600160a01b0319831681178455604051919092169283917f8be0079c531659141344cd1fd0a4f28419497f9722a3daafe3b4186f6b6457e09190a35050565b6000546001600160a01b03163314620001c55760405162461bcd60e51b815260206004820181905260248201527f4f776e61626c653a2063616c6c6572206973206e6f7420746865206f776e657260448201526064015b60405180910390fd5b6001600160a01b0381166200022c5760405162461bcd60e51b815260206004820152602660248201527f4f776e61626c653a206e6577206f776e657220697320746865207a65726f206160448201526564647265737360d01b6064820152608401620001bc565b620002378162000115565b50565b60008060008060008060c087890312156200025457600080fd5b86516200026181620002ce565b60208801519096506200027481620002ce565b60408801519095506200028781620002ce565b60608801519094506200029a81620002ce565b6080880151909350620002ad81620002ce565b60a0880151909250620002c081620002ce565b809150509295509295509295565b6001600160a01b03811681146200023757600080fd5b60805160601c60a05160601c60c05160601c60e05160601c6101005160601c6101205160601c6145996200041160003960008181610529015281816109a501528181612da401526134e50152600081816103770152818161045001528181610a4301528181610c3901528181610d48015281816119e901528181611f6a015281816120ce01528181612397015261278b0152600081816101b701526132d301526000818161041f0152818161218c01528181612dcf01526134b8015260008181610318015281816106740152818161108f015281816116f001528181611ab201526124750152600081816103ab015281816107800152818161085c015281816111f2015281816112ce015281816117fc015281816118d801528181611cec0152611dc801526145996000f3fe60806040526004361061018b5760003560e01c8063975057e7116100d6578063c99d3e831161007f578063ddca3f4311610059578063ddca3f43146104e1578063f2fde38b146104f7578063fc0c546a1461051757600080fd5b8063c99d3e8314610474578063d6dacc5314610494578063d930c60c146104c157600080fd5b8063b6cf978e116100b0578063b6cf978e146103ed578063c41c2f241461040d578063c89e43611461044157600080fd5b8063975057e714610365578063ad007d6314610399578063b5a6aed7146103cd57600080fd5b806369fe0e2d116101385780638af56094116101125780638af56094146102d95780638b79543c146103065780638da5cb5b1461033a57600080fd5b806369fe0e2d14610284578063715018a6146102a457806389701db5146102b957600080fd5b8063423734721161016957806342373472146102235780635de6031414610236578063637913ac1461026457600080fd5b806303930453146101905780632bdfe004146101a5578063405b84fa14610203575b600080fd5b6101a361019e366004613c8e565b61054b565b005b3480156101b157600080fd5b506101d97f000000000000000000000000000000000000000000000000000000000000000081565b60405173ffffffffffffffffffffffffffffffffffffffff90911681526020015b60405180910390f35b34801561020f57600080fd5b506101a361021e366004613d36565b6105ce565b6101a3610231366004613d66565b610bcd565b34801561024257600080fd5b50610256610251366004613c5c565b610d16565b6040519081526020016101fa565b34801561027057600080fd5b506101a361027f36600461392b565b610ddd565b34801561029057600080fd5b506101a361029f366004613c5c565b610edd565b3480156102b057600080fd5b506101a3610fd3565b3480156102c557600080fd5b506101a36102d4366004613c5c565b611060565b3480156102e557600080fd5b506102f96102f4366004613c5c565b6115aa565b6040516101fa91906140eb565b34801561031257600080fd5b506101d97f000000000000000000000000000000000000000000000000000000000000000081565b34801561034657600080fd5b5060005473ffffffffffffffffffffffffffffffffffffffff166101d9565b34801561037157600080fd5b506101d97f000000000000000000000000000000000000000000000000000000000000000081565b3480156103a557600080fd5b506101d97f000000000000000000000000000000000000000000000000000000000000000081565b3480156103d957600080fd5b506101a36103e8366004613dd9565b61164f565b3480156103f957600080fd5b50610256610408366004613965565b611bf8565b34801561041957600080fd5b506101d97f000000000000000000000000000000000000000000000000000000000000000081565b34801561044d57600080fd5b507f00000000000000000000000000000000000000000000000000000000000000006101d9565b34801561048057600080fd5b5061025661048f366004613dad565b612095565b3480156104a057600080fd5b506004546101d99073ffffffffffffffffffffffffffffffffffffffff1681565b3480156104cd57600080fd5b506101a36104dc366004613e26565b6122dc565b3480156104ed57600080fd5b5061025660035481565b34801561050357600080fd5b506101a361051236600461392b565b6125a4565b34801561052357600080fd5b506101d97f000000000000000000000000000000000000000000000000000000000000000081565b6105c434338a8a8a8a8a8a8080601f01602080910402602001604051908101604052809392919081815260200183838082843760009201919091525050604080516020601f8e018190048102820181019092528c815292508c91508b90819084018382808284376000920191909152506126d492505050565b5050505050505050565b60026001541415610640576040517f08c379a000000000000000000000000000000000000000000000000000000000815260206004820152601f60248201527f5265656e7472616e637947756172643a207265656e7472616e742063616c6c0060448201526064015b60405180910390fd5b60026001556040517f6352211e000000000000000000000000000000000000000000000000000000008152600481018390527f000000000000000000000000000000000000000000000000000000000000000073ffffffffffffffffffffffffffffffffffffffff1690636352211e9060240160206040518083038186803b1580156106cb57600080fd5b505afa1580156106df573d6000803e3d6000fd5b505050506040513d601f19601f820116820180604052508101906107039190613948565b8260043373ffffffffffffffffffffffffffffffffffffffff8416148015906107fc57506040517fc161c93f00000000000000000000000000000000000000000000000000000000815233600482015273ffffffffffffffffffffffffffffffffffffffff848116602483015260448201849052606482018390527f0000000000000000000000000000000000000000000000000000000000000000169063c161c93f9060840160206040518083038186803b1580156107c257600080fd5b505afa1580156107d6573d6000803e3d6000fd5b505050506040513d601f19601f820116820180604052508101906107fa9190613b32565b155b80156108d857506040517fc161c93f00000000000000000000000000000000000000000000000000000000815233600482015273ffffffffffffffffffffffffffffffffffffffff848116602483015260006044830152606482018390527f0000000000000000000000000000000000000000000000000000000000000000169063c161c93f9060840160206040518083038186803b15801561089e57600080fd5b505afa1580156108b2573d6000803e3d6000fd5b505050506040513d601f19601f820116820180604052508101906108d69190613b32565b155b1561090f576040517f075fd2b100000000000000000000000000000000000000000000000000000000815260040160405180910390fd5b8373ffffffffffffffffffffffffffffffffffffffff1663fc0c546a6040518163ffffffff1660e01b815260040160206040518083038186803b15801561095557600080fd5b505afa158015610969573d6000803e3d6000fd5b505050506040513d601f19601f8201168201806040525081019061098d9190613948565b73ffffffffffffffffffffffffffffffffffffffff167f000000000000000000000000000000000000000000000000000000000000000073ffffffffffffffffffffffffffffffffffffffff1614610a11576040517f581010ed00000000000000000000000000000000000000000000000000000000815260040160405180910390fd5b6040517f6bb6a5ad000000000000000000000000000000000000000000000000000000008152600481018690526000907f000000000000000000000000000000000000000000000000000000000000000073ffffffffffffffffffffffffffffffffffffffff1690636bb6a5ad90602401602060405180830381600087803b158015610a9c57600080fd5b505af1158015610ab0573d6000803e3d6000fd5b505050506040513d601f19601f82011682018060405250810190610ad49190613c75565b90508015610b6f57604080517f423734720000000000000000000000000000000000000000000000000000000081526004810188905260248101919091526000604482015273ffffffffffffffffffffffffffffffffffffffff86169063423734729083906064016000604051808303818588803b158015610b5557600080fd5b505af1158015610b69573d6000803e3d6000fd5b50505050505b6040805182815233602082015273ffffffffffffffffffffffffffffffffffffffff87169188917fa7519e5f94697b7f53e97c5eb46a0c730a296ab686ab8fd333835c5f735784eb910160405180910390a350506001805550505050565b34610c04576040517f839a437b00000000000000000000000000000000000000000000000000000000815260040160405180910390fd5b6040517fe7c8e3e3000000000000000000000000000000000000000000000000000000008152600481018390523460248201527f000000000000000000000000000000000000000000000000000000000000000073ffffffffffffffffffffffffffffffffffffffff169063e7c8e3e39060440161012060405180830381600087803b158015610c9357600080fd5b505af1158015610ca7573d6000803e3d6000fd5b505050506040513d601f19601f82011682018060405250810190610ccb9190613b4f565b50610cd682346128f8565b817f4ce42b42caaa564737146f357a8fa7fe24940fac843d392a69e23b32a1d766a3348333604051610d0a9392919061421e565b60405180910390a25050565b6040517f9cc7f708000000000000000000000000000000000000000000000000000000008152600481018290526000907f000000000000000000000000000000000000000000000000000000000000000073ffffffffffffffffffffffffffffffffffffffff1690639cc7f7089060240160206040518083038186803b158015610d9f57600080fd5b505afa158015610db3573d6000803e3d6000fd5b505050506040513d601f19601f82011682018060405250810190610dd79190613c75565b92915050565b60005473ffffffffffffffffffffffffffffffffffffffff163314610e5e576040517f08c379a000000000000000000000000000000000000000000000000000000000815260206004820181905260248201527f4f776e61626c653a2063616c6c6572206973206e6f7420746865206f776e65726044820152606401610637565b600480547fffffffffffffffffffffffff00000000000000000000000000000000000000001673ffffffffffffffffffffffffffffffffffffffff8316908117909155604080519182523360208301527f0a9a80fe9716605b3e52abb3d792d6a4e7816d6afc02a5a4ef023081feaf9f6091015b60405180910390a150565b60005473ffffffffffffffffffffffffffffffffffffffff163314610f5e576040517f08c379a000000000000000000000000000000000000000000000000000000000815260206004820181905260248201527f4f776e61626c653a2063616c6c6572206973206e6f7420746865206f776e65726044820152606401610637565b600a811115610f99576040517f45fbd9c100000000000000000000000000000000000000000000000000000000815260040160405180910390fd5b6003819055604080518281523360208201527fd7414e590e1cb532989ab2a34c8f4c2c17f7ab6f006efeeaef2e87cd5008c2029101610ed2565b60005473ffffffffffffffffffffffffffffffffffffffff163314611054576040517f08c379a000000000000000000000000000000000000000000000000000000000815260206004820181905260248201527f4f776e61626c653a2063616c6c6572206973206e6f7420746865206f776e65726044820152606401610637565b61105e6000612be6565b565b6040517f6352211e000000000000000000000000000000000000000000000000000000008152600481018290527f000000000000000000000000000000000000000000000000000000000000000073ffffffffffffffffffffffffffffffffffffffff1690636352211e9060240160206040518083038186803b1580156110e657600080fd5b505afa1580156110fa573d6000803e3d6000fd5b505050506040513d601f19601f8201168201806040525081019061111e9190613948565b81600561114060005473ffffffffffffffffffffffffffffffffffffffff1690565b73ffffffffffffffffffffffffffffffffffffffff163373ffffffffffffffffffffffffffffffffffffffff16148015801561119257503373ffffffffffffffffffffffffffffffffffffffff851614155b801561126e57506040517fc161c93f00000000000000000000000000000000000000000000000000000000815233600482015273ffffffffffffffffffffffffffffffffffffffff858116602483015260448201859052606482018490527f0000000000000000000000000000000000000000000000000000000000000000169063c161c93f9060840160206040518083038186803b15801561123457600080fd5b505afa158015611248573d6000803e3d6000fd5b505050506040513d601f19601f8201168201806040525081019061126c9190613b32565b155b801561134a57506040517fc161c93f00000000000000000000000000000000000000000000000000000000815233600482015273ffffffffffffffffffffffffffffffffffffffff858116602483015260006044830152606482018490527f0000000000000000000000000000000000000000000000000000000000000000169063c161c93f9060840160206040518083038186803b15801561131057600080fd5b505afa158015611324573d6000803e3d6000fd5b505050506040513d601f19601f820116820180604052508101906113489190613b32565b155b15611381576040517f075fd2b100000000000000000000000000000000000000000000000000000000815260040160405180910390fd5b600260015414156113ee576040517f08c379a000000000000000000000000000000000000000000000000000000000815260206004820152601f60248201527f5265656e7472616e637947756172643a207265656e7472616e742063616c6c006044820152606401610637565b600260018190556000868152602091825260408082208054825181860281018601909352808352929391929091849084015b8282101561148557600084815260209081902060408051606081018252600286029092018054835260019081015460ff811684860152610100900473ffffffffffffffffffffffffffffffffffffffff16918301919091529083529092019101611420565b50505050905060005b815181101561154c5761153a6114ef8383815181106114af576114af6144d5565b60200260200101516000015160c88585815181106114cf576114cf6144d5565b60200260200101516020015160c86114e791906143d6565b60ff16612c5b565b838381518110611501576115016144d5565b60200260200101516000015161151791906143fb565b838381518110611529576115296144d5565b602002602001015160400151612d60565b806115448161443e565b91505061148e565b50600086815260026020526040812061156491613750565b857f7a6ebe79493892d575cf9b125f19a323884c853d586d17f79635ae352833465582336040516115969291906140fe565b60405180910390a250506001805550505050565b606060026000838152602001908152602001600020805480602002602001604051908101604052809291908181526020016000905b8282101561164457600084815260209081902060408051606081018252600286029092018054835260019081015460ff811684860152610100900473ffffffffffffffffffffffffffffffffffffffff169183019190915290835290920191016115df565b505050509050919050565b600260015414156116bc576040517f08c379a000000000000000000000000000000000000000000000000000000000815260206004820152601f60248201527f5265656e7472616e637947756172643a207265656e7472616e742063616c6c006044820152606401610637565b60026001556040517f6352211e000000000000000000000000000000000000000000000000000000008152600481018690527f000000000000000000000000000000000000000000000000000000000000000073ffffffffffffffffffffffffffffffffffffffff1690636352211e9060240160206040518083038186803b15801561174757600080fd5b505afa15801561175b573d6000803e3d6000fd5b505050506040513d601f19601f8201168201806040525081019061177f9190613948565b8560123373ffffffffffffffffffffffffffffffffffffffff84161480159061187857506040517fc161c93f00000000000000000000000000000000000000000000000000000000815233600482015273ffffffffffffffffffffffffffffffffffffffff848116602483015260448201849052606482018390527f0000000000000000000000000000000000000000000000000000000000000000169063c161c93f9060840160206040518083038186803b15801561183e57600080fd5b505afa158015611852573d6000803e3d6000fd5b505050506040513d601f19601f820116820180604052508101906118769190613b32565b155b801561195457506040517fc161c93f00000000000000000000000000000000000000000000000000000000815233600482015273ffffffffffffffffffffffffffffffffffffffff848116602483015260006044830152606482018390527f0000000000000000000000000000000000000000000000000000000000000000169063c161c93f9060840160206040518083038186803b15801561191a57600080fd5b505afa15801561192e573d6000803e3d6000fd5b505050506040513d601f19601f820116820180604052508101906119529190613b32565b155b1561198b576040517f075fd2b100000000000000000000000000000000000000000000000000000000815260040160405180910390fd5b6040517f1837d6e300000000000000000000000000000000000000000000000000000000815260048101899052602481018890526044810187905260648101869052600090819073ffffffffffffffffffffffffffffffffffffffff7f00000000000000000000000000000000000000000000000000000000000000001690631837d6e39060840161014060405180830381600087803b158015611a2e57600080fd5b505af1158015611a42573d6000803e3d6000fd5b505050506040513d601f19601f82011682018060405250810190611a669190613b6c565b6040517f6352211e000000000000000000000000000000000000000000000000000000008152600481018d9052919350915060009073ffffffffffffffffffffffffffffffffffffffff7f00000000000000000000000000000000000000000000000000000000000000001690636352211e9060240160206040518083038186803b158015611af457600080fd5b505afa158015611b08573d6000803e3d6000fd5b505050506040513d601f19601f82011682018060405250810190611b2c9190613948565b9050600060035460001480611b4157508b6001145b611b5657611b518c858585612f34565b611b59565b60005b9050611b6e88611b6983866143fb565b613131565b835160208501518d91907f4d0b119651438cfed12585fc57e8ec9d9cc98bb1e5da27bdc4b7419d084500c28b8786611ba681836143fb565b6040805173ffffffffffffffffffffffffffffffffffffffff9095168552602085019390935291830152606082015233608082015260a00160405180910390a450506001805550505050505050505050565b600060026001541415611c67576040517f08c379a000000000000000000000000000000000000000000000000000000000815260206004820152601f60248201527f5265656e7472616e637947756172643a207265656e7472616e742063616c6c006044820152606401610637565b60026001819055889088903373ffffffffffffffffffffffffffffffffffffffff841614801590611d6857506040517fc161c93f00000000000000000000000000000000000000000000000000000000815233600482015273ffffffffffffffffffffffffffffffffffffffff848116602483015260448201849052606482018390527f0000000000000000000000000000000000000000000000000000000000000000169063c161c93f9060840160206040518083038186803b158015611d2e57600080fd5b505afa158015611d42573d6000803e3d6000fd5b505050506040513d601f19601f82011682018060405250810190611d669190613b32565b155b8015611e4457506040517fc161c93f00000000000000000000000000000000000000000000000000000000815233600482015273ffffffffffffffffffffffffffffffffffffffff848116602483015260006044830152606482018390527f0000000000000000000000000000000000000000000000000000000000000000169063c161c93f9060840160206040518083038186803b158015611e0a57600080fd5b505afa158015611e1e573d6000803e3d6000fd5b505050506040513d601f19601f82011682018060405250810190611e429190613b32565b155b15611e7b576040517f075fd2b100000000000000000000000000000000000000000000000000000000815260040160405180910390fd5b73ffffffffffffffffffffffffffffffffffffffff8716611ec8576040517ff74a1b6600000000000000000000000000000000000000000000000000000000815260040160405180910390fd5b611f2d60405180610120016040528060008152602001600081526020016000815260200160008152602001600081526020016000815260200160008152602001600073ffffffffffffffffffffffffffffffffffffffff168152602001600081525090565b6040517f9225bf1a00000000000000000000000000000000000000000000000000000000815273ffffffffffffffffffffffffffffffffffffffff7f00000000000000000000000000000000000000000000000000000000000000001690639225bf1a90611fab908f908f908f908f908f908f908f90600401613ff7565b600060405180830381600087803b158015611fc557600080fd5b505af1158015611fd9573d6000803e3d6000fd5b505050506040513d6000823e601f3d9081017fffffffffffffffffffffffffffffffffffffffffffffffffffffffffffffffe016820160405261201f9190810190613b9b565b9850955090508415612035576120358886613131565b8a816000015182602001517fd2b8b011245528ed3c6d92b102e0cd9895bb1910613b04dd42d7c9ac3781612d8f8c8f8b8e3360405161207996959493929190613f9d565b60405180910390a4505060018055509098975050505050505050565b6040517fdcc3041b00000000000000000000000000000000000000000000000000000000815260048101849052602481018290526000907f000000000000000000000000000000000000000000000000000000000000000073ffffffffffffffffffffffffffffffffffffffff169063dcc3041b9060440160206040518083038186803b15801561212557600080fd5b505afa158015612139573d6000803e3d6000fd5b505050506040513d601f19601f8201168201806040525081019061215d9190613c75565b6040517f5dd8f6aa000000000000000000000000000000000000000000000000000000008152600481018690527f000000000000000000000000000000000000000000000000000000000000000073ffffffffffffffffffffffffffffffffffffffff1690635dd8f6aa9060240160206040518083038186803b1580156121e357600080fd5b505afa1580156121f7573d6000803e3d6000fd5b505050506040513d601f19601f8201168201806040525081019061221b9190613948565b6040517f5578dfd7000000000000000000000000000000000000000000000000000000008152600481018790526024810186905230604482015273ffffffffffffffffffffffffffffffffffffffff9190911690635578dfd79060640160206040518083038186803b15801561229057600080fd5b505afa1580156122a4573d6000803e3d6000fd5b505050506040513d601f19601f820116820180604052508101906122c89190613c75565b6122d291906143fb565b90505b9392505050565b60026001541415612349576040517f08c379a000000000000000000000000000000000000000000000000000000000815260206004820152601f60248201527f5265656e7472616e637947756172643a207265656e7472616e742063616c6c006044820152606401610637565b60026001556040517f4d9cd5ac0000000000000000000000000000000000000000000000000000000081526004810186905260248101859052604481018490526064810183905260009081907f000000000000000000000000000000000000000000000000000000000000000073ffffffffffffffffffffffffffffffffffffffff1690634d9cd5ac9060840161014060405180830381600087803b1580156123f157600080fd5b505af1158015612405573d6000803e3d6000fd5b505050506040513d601f19601f820116820180604052508101906124299190613b6c565b6040517f6352211e000000000000000000000000000000000000000000000000000000008152600481018a9052919350915060009073ffffffffffffffffffffffffffffffffffffffff7f00000000000000000000000000000000000000000000000000000000000000001690636352211e9060240160206040518083038186803b1580156124b757600080fd5b505afa1580156124cb573d6000803e3d6000fd5b505050506040513d601f19601f820116820180604052508101906124ef9190613948565b90506000600354600014806125045750886001145b6125195761251489858585612f34565b61251c565b60005b905060006125348a8661252f85886143fb565b61328b565b90508015612546576125468382613131565b89856000015186602001517f24352f49df447b14e0e08a323625c663d865ce20c343c4638af12e1dc48aa760868d8988888e3360405161258c9796959493929190613f3e565b60405180910390a45050600180555050505050505050565b60005473ffffffffffffffffffffffffffffffffffffffff163314612625576040517f08c379a000000000000000000000000000000000000000000000000000000000815260206004820181905260248201527f4f776e61626c653a2063616c6c6572206973206e6f7420746865206f776e65726044820152606401610637565b73ffffffffffffffffffffffffffffffffffffffff81166126c8576040517f08c379a000000000000000000000000000000000000000000000000000000000815260206004820152602660248201527f4f776e61626c653a206e6577206f776e657220697320746865207a65726f206160448201527f64647265737300000000000000000000000000000000000000000000000000006064820152608401610637565b6126d181612be6565b50565b73ffffffffffffffffffffffffffffffffffffffff8516612721576040517fa762251300000000000000000000000000000000000000000000000000000000815260040160405180910390fd5b61278660405180610120016040528060008152602001600081526020016000815260200160008152602001600081526020016000815260200160008152602001600073ffffffffffffffffffffffffffffffffffffffff168152602001600081525090565b6000807f000000000000000000000000000000000000000000000000000000000000000073ffffffffffffffffffffffffffffffffffffffff166329c705c78b8d8c60018d73ffffffffffffffffffffffffffffffffffffffff16901b8b6127ef5760006127f2565b60015b60ff16178c8b8b6040518863ffffffff1660e01b815260040161281b97969594939291906140a4565b600060405180830381600087803b15801561283557600080fd5b505af1158015612849573d6000803e3d6000fd5b505050506040513d6000823e601f3d9081017fffffffffffffffffffffffffffffffffffffffffffffffffffffffffffffffe016820160405261288f9190810190613bf6565b8098508194508295508396505050505088836000015184602001517f48d03a5fc1af697513321cb1c46d64e8bd022e7ac66677b2cd1ea5ac3dddb1238b8f87878c336040516128e396959493929190614062565b60405180910390a45050505050505050505050565b600082815260026020908152604080832080548251818502810185019093528083529192909190849084015b8282101561298957600084815260209081902060408051606081018252600286029092018054835260019081015460ff811684860152610100900473ffffffffffffffffffffffffffffffffffffffff16918301919091529083529092019101612924565b50505060008581526002602052604081209293506129a8929150613750565b60005b8151811015612be05782612a6657600084815260026020526040902082518390839081106129db576129db6144d5565b60209081029190910181015182546001818101855560009485529383902082516002909202019081559181015191909201805460409093015173ffffffffffffffffffffffffffffffffffffffff16610100027fffffffffffffffffffffff00000000000000000000000000000000000000000090931660ff90921691909117919091179055612bce565b818181518110612a7857612a786144d5565b6020026020010151600001518310612aba57818181518110612a9c57612a9c6144d5565b60200260200101516000015183612ab391906143fb565b9250612bce565b60026000858152602001908152602001600020604051806060016040528085858581518110612aeb57612aeb6144d5565b602002602001015160000151612b0191906143fb565b8152602001848481518110612b1857612b186144d5565b60200260200101516020015160ff168152602001848481518110612b3e57612b3e6144d5565b60209081029190910181015160409081015173ffffffffffffffffffffffffffffffffffffffff9081169093528454600181810187556000968752838720865160029093020191825592850151920180549490910151909216610100027fffffffffffffffffffffff00000000000000000000000000000000000000000090931660ff9091161791909117905592505b80612bd88161443e565b9150506129ab565b50505050565b6000805473ffffffffffffffffffffffffffffffffffffffff8381167fffffffffffffffffffffffff0000000000000000000000000000000000000000831681178455604051919092169283917f8be0079c531659141344cd1fd0a4f28419497f9722a3daafe3b4186f6b6457e09190a35050565b600080807fffffffffffffffffffffffffffffffffffffffffffffffffffffffffffffffff8587098587029250828110838203039150508060001415612cb457838281612caa57612caa6144a6565b04925050506122d5565b838110612cf7576040517f773cc18c0000000000000000000000000000000000000000000000000000000081526004810182905260248101859052604401610637565b60008486880960026001871981018816978890046003810283188082028403028082028403028082028403028082028403028082028403029081029092039091026000889003889004909101858311909403939093029303949094049190911702949350505050565b6040517f862026500000000000000000000000000000000000000000000000000000000081526001600482015273ffffffffffffffffffffffffffffffffffffffff7f0000000000000000000000000000000000000000000000000000000000000000811660248301526000917f00000000000000000000000000000000000000000000000000000000000000009091169063862026509060440160206040518083038186803b158015612e1357600080fd5b505afa158015612e27573d6000803e3d6000fd5b505050506040513d601f19601f82011682018060405250810190612e4b9190613948565b905073ffffffffffffffffffffffffffffffffffffffff81163014612eff5760408051602081018252600080825291517f0393045300000000000000000000000000000000000000000000000000000000815273ffffffffffffffffffffffffffffffffffffffff8416926303930453928792612ed2926001928992829190600401614136565b6000604051808303818588803b158015612eeb57600080fd5b505af11580156105c4573d6000803e3d6000fd5b612f2f833060018560008060405180602001604052806000815250604051806020016040528060008152506126d4565b505050565b600454600090819073ffffffffffffffffffffffffffffffffffffffff1615612ffc57600480546040517f7769589600000000000000000000000000000000000000000000000000000000815291820188905273ffffffffffffffffffffffffffffffffffffffff169063776958969060240160206040518083038186803b158015612fbf57600080fd5b505afa158015612fd3573d6000803e3d6000fd5b505050506040513d601f19601f82011682018060405250810190612ff79190613c75565b612fff565b60005b9050633b9aca00811115613011575060005b600061302460035483633b9aca00612c5b565b60035461303191906143fb565b90506130488560c861304384826143be565b612c5b565b61305290866143fb565b92508261306457600092505050613129565b61010086015160401c600190811614613086576130818385612d60565b613126565b600087815260026020818152604080842081516060810183528a815260035460ff90811682860190815273ffffffffffffffffffffffffffffffffffffffff808d16958401958652845460018181018755958a52969098209251959096029091019384559351920180549151909416610100027fffffffffffffffffffffff00000000000000000000000000000000000000000090911691909216171790555b50505b949350505050565b8047101561319b576040517f08c379a000000000000000000000000000000000000000000000000000000000815260206004820152601d60248201527f416464726573733a20696e73756666696369656e742062616c616e63650000006044820152606401610637565b60008273ffffffffffffffffffffffffffffffffffffffff168260405160006040518083038185875af1925050503d80600081146131f5576040519150601f19603f3d011682016040523d82523d6000602084013e6131fa565b606091505b5050905080612f2f576040517f08c379a000000000000000000000000000000000000000000000000000000000815260206004820152603a60248201527f416464726573733a20756e61626c6520746f2073656e642076616c75652c207260448201527f6563697069656e74206d617920686176652072657665727465640000000000006064820152608401610637565b60208201516040517f69e11cc50000000000000000000000000000000000000000000000000000000081526004810185905260248101919091526001604482015281906000907f000000000000000000000000000000000000000000000000000000000000000073ffffffffffffffffffffffffffffffffffffffff16906369e11cc59060640160006040518083038186803b15801561332a57600080fd5b505afa15801561333e573d6000803e3d6000fd5b505050506040513d6000823e601f3d9081017fffffffffffffffffffffffffffffffffffffffffffffffffffffffffffffffe01682016040526133849190810190613a1f565b905060005b81518110156137475760008282815181106133a6576133a66144d5565b6020026020010151905060006133c5868360200151633b9aca00612c5b565b905080156136ec5760a082015173ffffffffffffffffffffffffffffffffffffffff1615613469578160a0015173ffffffffffffffffffffffffffffffffffffffff1663550b043282838b6001876040518663ffffffff1660e01b8152600401613432949392919061425d565b6000604051808303818588803b15801561344b57600080fd5b505af115801561345f573d6000803e3d6000fd5b50505050506136df565b6040820151156136d15760408083015190517f8620265000000000000000000000000000000000000000000000000000000000815260009173ffffffffffffffffffffffffffffffffffffffff7f0000000000000000000000000000000000000000000000000000000000000000169163862026509161352c917f00000000000000000000000000000000000000000000000000000000000000009060040191825273ffffffffffffffffffffffffffffffffffffffff16602082015260400190565b60206040518083038186803b15801561354457600080fd5b505afa158015613558573d6000803e3d6000fd5b505050506040513d601f19601f8201168201806040525081019061357c9190613948565b905073ffffffffffffffffffffffffffffffffffffffff81166135cb576040517f6921234300000000000000000000000000000000000000000000000000000000815260040160405180910390fd5b73ffffffffffffffffffffffffffffffffffffffff8116301415613629576136248230856040015186606001516000886000015160405180602001604052806000815250604051806020016040528060008152506126d4565b6136cb565b604080840151606085015185518351602081018552600080825294517f0393045300000000000000000000000000000000000000000000000000000000815273ffffffffffffffffffffffffffffffffffffffff87169563039304539589956136989591949093600401614136565b6000604051808303818588803b1580156136b157600080fd5b505af11580156136c5573d6000803e3d6000fd5b50505050505b506136df565b6136df826060015182613131565b6136e981866143fb565b94505b87876000015188602001517fd5a0ea197eec97b08a67e43169564f3b9b9aaa22f7b3e1652c8e6417b7cf031685853360405161372a93929190614192565b60405180910390a45050808061373f9061443e565b915050613389565b50509392505050565b50805460008255600202906000526020600020908101906126d191905b808211156137ab57600081556001810180547fffffffffffffffffffffff00000000000000000000000000000000000000000016905560020161376d565b5090565b60006137c26137bd84614378565b614329565b90508281528383830111156137d657600080fd5b828260208301376000602084830101529392505050565b60008083601f8401126137ff57600080fd5b50813567ffffffffffffffff81111561381757600080fd5b60208301915083602082850101111561382f57600080fd5b9250929050565b805161384181614533565b919050565b600082601f83011261385757600080fd5b6122d5838335602085016137af565b600082601f83011261387757600080fd5b81516138856137bd82614378565b81815284602083860101111561389a57600080fd5b613129826020830160208701614412565b600061012082840312156138be57600080fd5b6138c66142dc565b9050815181526020820151602082015260408201516040820152606082015160608201526080820151608082015260a082015160a082015260c082015160c082015261391460e08301613836565b60e082015261010080830151818301525092915050565b60006020828403121561393d57600080fd5b81356122d581614533565b60006020828403121561395a57600080fd5b81516122d581614533565b600080600080600080600060e0888a03121561398057600080fd5b873561398b81614533565b965060208801359550604088013594506060880135935060808801356139b081614533565b925060a088013567ffffffffffffffff808211156139cd57600080fd5b6139d98b838c01613846565b935060c08a01359150808211156139ef57600080fd5b508801601f81018a13613a0157600080fd5b613a108a8235602084016137af565b91505092959891949750929550565b60006020808385031215613a3257600080fd5b825167ffffffffffffffff80821115613a4a57600080fd5b818501915085601f830112613a5e57600080fd5b815181811115613a7057613a70614504565b613a7e848260051b01614329565b818152848101925083850160c0808402860187018a1015613a9e57600080fd5b60009550855b84811015613b235781838c031215613aba578687fd5b613ac2614306565b8351613acd81614555565b8152838901518982015260408085015190820152606080850151613af081614533565b908201526080848101519082015260a080850151613b0d81614533565b9082015286529487019491810191600101613aa4565b50919998505050505050505050565b600060208284031215613b4457600080fd5b81516122d581614555565b60006101208284031215613b6257600080fd5b6122d583836138ab565b6000806101408385031215613b8057600080fd5b613b8a84846138ab565b915061012083015190509250929050565b60008060006101608486031215613bb157600080fd5b613bbb85856138ab565b9250610120840151915061014084015167ffffffffffffffff811115613be057600080fd5b613bec86828701613866565b9150509250925092565b6000806000806101808587031215613c0d57600080fd5b613c1786866138ab565b93506101208501519250610140850151915061016085015167ffffffffffffffff811115613c4457600080fd5b613c5087828801613866565b91505092959194509250565b600060208284031215613c6e57600080fd5b5035919050565b600060208284031215613c8757600080fd5b5051919050565b60008060008060008060008060c0898b031215613caa57600080fd5b883597506020890135613cbc81614533565b9650604089013595506060890135613cd381614555565b9450608089013567ffffffffffffffff80821115613cf057600080fd5b613cfc8c838d016137ed565b909650945060a08b0135915080821115613d1557600080fd5b50613d228b828c016137ed565b999c989b5096995094979396929594505050565b60008060408385031215613d4957600080fd5b823591506020830135613d5b81614533565b809150509250929050565b60008060408385031215613d7957600080fd5b82359150602083013567ffffffffffffffff811115613d9757600080fd5b613da385828601613846565b9150509250929050565b600080600060608486031215613dc257600080fd5b505081359360208301359350604090920135919050565b600080600080600060a08688031215613df157600080fd5b853594506020860135935060408601359250606086013591506080860135613e1881614533565b809150509295509295909350565b600080600080600060a08688031215613e3e57600080fd5b85359450602086013593506040860135925060608601359150608086013567ffffffffffffffff811115613e7157600080fd5b613e7d88828901613846565b9150509295509295909350565b600081518084526020808501945080840160005b83811015613ee9578151805188528381015160ff168489015260409081015173ffffffffffffffffffffffffffffffffffffffff169088015260609096019590820190600101613e9e565b509495945050505050565b60008151808452613f0c816020860160208601614412565b601f017fffffffffffffffffffffffffffffffffffffffffffffffffffffffffffffffe0169290920160200192915050565b600073ffffffffffffffffffffffffffffffffffffffff808a16835288602084015287604084015286606084015285608084015260e060a0840152613f8660e0840186613ef4565b915080841660c08401525098975050505050505050565b600073ffffffffffffffffffffffffffffffffffffffff8089168352808816602084015286604084015285606084015260c06080840152613fe160c0840186613ef4565b915080841660a084015250979650505050505050565b600073ffffffffffffffffffffffffffffffffffffffff808a16835288602084015287604084015286606084015280861660808401525060e060a083015261404260e0830185613ef4565b82810360c08401526140548185613ef4565b9a9950505050505050505050565b600073ffffffffffffffffffffffffffffffffffffffff808916835287602084015286604084015285606084015260c06080840152613fe160c0840186613ef4565b73ffffffffffffffffffffffffffffffffffffffff8816815286602082015285604082015284606082015283608082015260e060a0820152600061404260e0830185613ef4565b6020815260006122d56020830184613e8a565b6040815260006141116040830185613e8a565b905073ffffffffffffffffffffffffffffffffffffffff831660208301529392505050565b85815273ffffffffffffffffffffffffffffffffffffffff85166020820152836040820152821515606082015260c06080820152600060c082015260e060a0820152600061418760e0830184613ef4565b979650505050505050565b61010081016141f482868051151582526020810151602083015260408101516040830152606081015173ffffffffffffffffffffffffffffffffffffffff8082166060850152608083015160808501528060a08401511660a085015250505050565b8360c083015273ffffffffffffffffffffffffffffffffffffffff831660e0830152949350505050565b8381526060602082015260006142376060830185613ef4565b905073ffffffffffffffffffffffffffffffffffffffff83166040830152949350505050565b848152602081018490526040810183905261012081016142d360608301848051151582526020810151602083015260408101516040830152606081015173ffffffffffffffffffffffffffffffffffffffff8082166060850152608083015160808501528060a08401511660a085015250505050565b95945050505050565b604051610120810167ffffffffffffffff8111828210171561430057614300614504565b60405290565b60405160c0810167ffffffffffffffff8111828210171561430057614300614504565b604051601f82017fffffffffffffffffffffffffffffffffffffffffffffffffffffffffffffffe016810167ffffffffffffffff8111828210171561437057614370614504565b604052919050565b600067ffffffffffffffff82111561439257614392614504565b50601f017fffffffffffffffffffffffffffffffffffffffffffffffffffffffffffffffe01660200190565b600082198211156143d1576143d1614477565b500190565b600060ff821660ff84168060ff038211156143f3576143f3614477565b019392505050565b60008282101561440d5761440d614477565b500390565b60005b8381101561442d578181015183820152602001614415565b83811115612be05750506000910152565b60007fffffffffffffffffffffffffffffffffffffffffffffffffffffffffffffffff82141561447057614470614477565b5060010190565b7f4e487b7100000000000000000000000000000000000000000000000000000000600052601160045260246000fd5b7f4e487b7100000000000000000000000000000000000000000000000000000000600052601260045260246000fd5b7f4e487b7100000000000000000000000000000000000000000000000000000000600052603260045260246000fd5b7f4e487b7100000000000000000000000000000000000000000000000000000000600052604160045260246000fd5b73ffffffffffffffffffffffffffffffffffffffff811681146126d157600080fd5b80151581146126d157600080fdfea26469706673582212207a026197826408f4cb647e116829af46adb74edbf0b07acbb2a4fcf07c53553464736f6c63430008060033",
  "devdoc": {
    "details": "A project can transfer its funds, along with the power to reconfigure and mint/burn their tokens, from this contract to another allowed terminal contract at any time. Inherits from: IJBPayoutRedemptionPaymentTerminal - general interface for the methods in this contract that send and receive funds according to the protocol's rules. JBOperatable - several functions in this contract can only be accessed by a project owner, or an address that has been preconfifigured to be an operator of the project. ReentrencyGuard - several function in this contract shouldn't be accessible recursively.",
    "kind": "dev",
    "methods": {
      "addToBalanceOf(uint256,string)": {
        "params": {
          "_memo": "A memo to pass along to the emitted event.",
          "_projectId": "The ID of the project to which the funds received belong."
        }
      },
      "constructor": {
        "params": {
          "_directory": "A contract storing directories of terminals and controllers for each project.",
          "_operatorStore": "A contract storing operator assignments.",
          "_owner": "The address that will own this contract.",
          "_projects": "A contract which mints ERC-721's that represent project ownership and transfers.",
          "_splitsStore": "A contract that stores splits for each project.",
          "_store": "A contract that stores the terminal's data."
        }
      },
      "delegate()": {
        "returns": {
          "_0": "The delegate address."
        }
      },
      "distributePayoutsOf(uint256,uint256,uint256,uint256,string)": {
        "details": "Payouts are sent to the preprogrammed splits.Anyone can distribute payouts on a project's behalf.",
        "params": {
          "_amount": "The amount being distributed.",
          "_currency": "The expected currency of the amount being distributed. Must match the project's current funding cycle's currency.",
          "_minReturnedWei": "The minimum number of wei that the amount should be valued at.",
          "_projectId": "The ID of the project having its payouts distributed."
        }
      },
      "ethBalanceOf(uint256)": {
        "params": {
          "_projectId": "The ID of the project to which the balance belongs."
        },
        "returns": {
          "_0": "The ETH balance."
        }
      },
      "heldFeesOf(uint256)": {
        "params": {
          "_projectId": "The ID of the project for which fees are being held."
        },
        "returns": {
          "_0": "An array of fees that are being held."
        }
      },
      "migrate(uint256,address)": {
        "details": "Only a project's owner or a designated operator can migrate it.",
        "params": {
          "_projectId": "The ID of the project being migrated.",
          "_to": "The terminal contract that will gain the project's funds."
        }
      },
      "owner()": {
        "details": "Returns the address of the current owner."
      },
      "pay(uint256,address,uint256,bool,string,bytes)": {
        "details": "The msg.value is the amount of the contribution in wei.",
        "params": {
          "_beneficiary": "The address to mint tokens for and pass along to the funding cycle's data source and delegate.",
          "_delegateMetadata": "Bytes to send along to the delegate, if one is provided.",
          "_memo": "A memo to pass along to the emitted event, and passed along the the funding cycle's data source and delegate.",
          "_minReturnedTokens": "The minimum number of tokens expected in return.",
          "_preferClaimedTokens": "A flag indicating whether the request prefers to issue tokens unstaked rather than staked.",
          "_projectId": "The ID of the project being paid."
        }
      },
      "processFees(uint256)": {
        "details": "Only a project owner, an operator, or the contract's owner can process held fees.",
        "params": {
          "_projectId": "The ID of the project whos held fees should be processed."
        }
      },
      "redeemTokensOf(address,uint256,uint256,uint256,address,string,bytes)": {
        "details": "Only a token's holder or a designated operator can redeem it.",
        "params": {
          "_beneficiary": "The address to send the ETH to. Send the address this contract to burn the count.",
          "_delegateMetadata": "Bytes to send along to the delegate, if one is provided.",
          "_holder": "The account to redeem tokens for.",
          "_memo": "A memo to pass along to the emitted event.",
          "_minReturnedWei": "The minimum amount of Wei expected in return.",
          "_projectId": "The ID of the project to which the tokens being redeemed belong.",
          "_tokenCount": "The number of tokens to redeem."
        },
        "returns": {
          "claimAmount": "The amount of ETH that the tokens were redeemed for, in wei."
        }
      },
      "remainingDistributionLimitOf(uint256,uint256,uint256)": {
        "params": {
          "_fundingCycleConfiguration": "The funding cycle configuration during which the limit remaining is being calculated.",
          "_fundingCycleNumber": "The number of the funding cycle during which the limit remaining is being calculated.",
          "_projectId": "The ID of the project to which the remaining limit belongs."
        },
        "returns": {
          "_0": "The remaining distribution limit for this terminal."
        }
      },
      "renounceOwnership()": {
        "details": "Leaves the contract without owner. It will not be possible to call `onlyOwner` functions anymore. Can only be called by the current owner. NOTE: Renouncing ownership will leave the contract without an owner, thereby removing any functionality that is only available to the owner."
      },
      "setFee(uint256)": {
        "details": "Only the owner of this contract can change the fee.",
        "params": {
          "_fee": "The new fee."
        }
      },
      "setFeeGauge(address)": {
        "details": "Only the owner of this contract can change the fee gauge.",
        "params": {
          "_feeGauge": "The new fee gauge."
        }
      },
      "transferOwnership(address)": {
        "details": "Transfers ownership of the contract to a new account (`newOwner`). Can only be called by the current owner."
      },
      "useAllowanceOf(uint256,uint256,uint256,uint256,address)": {
        "details": "Only a project's owner or a designated operator can migrate it.",
        "params": {
          "_amount": "The amount of the allowance to use.",
          "_beneficiary": "The address to send the funds to.",
          "_projectId": "The ID of the project to use the allowance of."
        }
      }
    },
    "stateVariables": {
      "fee": {
        "details": "Out of 200."
      }
    },
    "version": 1
  },
  "userdoc": {
    "errors": {
      "PRBMath__MulDivOverflow(uint256,uint256)": [
        {
          "notice": "Emitted when the result overflows uint256."
        }
      ]
    },
    "kind": "user",
    "methods": {
      "addToBalanceOf(uint256,string)": {
        "notice": "Receives funds belonging to the specified project."
      },
      "delegate()": {
        "notice": "An address that serves as this terminal's delegate when making requests to ecosystem contracts."
      },
      "directory()": {
        "notice": "The directory of terminals and controllers for projects."
      },
      "distributePayoutsOf(uint256,uint256,uint256,uint256,string)": {
        "notice": "Distributes payouts for a project according to the constraints of its current funding cycle."
      },
      "ethBalanceOf(uint256)": {
        "notice": "The ETH balance that this terminal holds for each project."
      },
      "fee()": {
        "notice": "The platform fee percent."
      },
      "feeGauge()": {
        "notice": "The data source that returns a discount to apply to a project's fee."
      },
      "heldFeesOf(uint256)": {
        "notice": "The fees that are currently being held to be processed later for each project."
      },
      "migrate(uint256,address)": {
        "notice": "Allows a project owner to migrate its funds and operations to a new terminal."
      },
      "operatorStore()": {
        "notice": " A contract storing operator assignments."
      },
      "pay(uint256,address,uint256,bool,string,bytes)": {
        "notice": "Contribute ETH to a project."
      },
      "processFees(uint256)": {
        "notice": "Process any fees that are being held for the project."
      },
      "projects()": {
        "notice": "The Projects contract which mints ERC-721's that represent project ownership and transfers."
      },
      "redeemTokensOf(address,uint256,uint256,uint256,address,string,bytes)": {
        "notice": "Addresses can redeem their tokens to claim the project's overflowed ETH, or to trigger rules determined by the project's current funding cycle's data source."
      },
      "remainingDistributionLimitOf(uint256,uint256,uint256)": {
        "notice": "The amount of funds that can still be distributed within the preconfigured limit."
      },
      "setFee(uint256)": {
        "notice": "Allows the fee to be updated for subsequent funding cycle configurations."
      },
      "setFeeGauge(address)": {
        "notice": "Allows the fee gauge to be updated."
      },
      "splitsStore()": {
        "notice": "The contract that stores splits for each project."
      },
      "store()": {
        "notice": "The contract that stores and manages the terminal's data."
      },
      "token()": {
        "notice": "The token that this terminal accepts."
      },
      "useAllowanceOf(uint256,uint256,uint256,uint256,address)": {
        "notice": "Allows a project to send funds from its overflow up to the preconfigured allowance."
      }
    },
    "notice": "This contract manages all inflows and outflows of funds into the Juicebox ecosystem.",
    "version": 1
  },
  "storageLayout": {
    "storage": [
      {
        "astId": 53,
        "contract": "contracts/JBETHPaymentTerminal.sol:JBETHPaymentTerminal",
        "label": "_owner",
        "offset": 0,
        "slot": "0",
        "type": "t_address"
      },
      {
        "astId": 693,
        "contract": "contracts/JBETHPaymentTerminal.sol:JBETHPaymentTerminal",
        "label": "_status",
        "offset": 0,
        "slot": "1",
        "type": "t_uint256"
      },
      {
        "astId": 7496,
        "contract": "contracts/JBETHPaymentTerminal.sol:JBETHPaymentTerminal",
        "label": "_heldFeesOf",
        "offset": 0,
        "slot": "2",
        "type": "t_mapping(t_uint256,t_array(t_struct(JBFee)16040_storage)dyn_storage)"
      },
      {
        "astId": 7526,
        "contract": "contracts/JBETHPaymentTerminal.sol:JBETHPaymentTerminal",
        "label": "fee",
        "offset": 0,
        "slot": "3",
        "type": "t_uint256"
      },
      {
        "astId": 7531,
        "contract": "contracts/JBETHPaymentTerminal.sol:JBETHPaymentTerminal",
        "label": "feeGauge",
        "offset": 0,
        "slot": "4",
        "type": "t_contract(IJBFeeGauge)14613"
      }
    ],
    "types": {
      "t_address": {
        "encoding": "inplace",
        "label": "address",
        "numberOfBytes": "20"
      },
      "t_array(t_struct(JBFee)16040_storage)dyn_storage": {
        "base": "t_struct(JBFee)16040_storage",
        "encoding": "dynamic_array",
        "label": "struct JBFee[]",
        "numberOfBytes": "32"
      },
      "t_contract(IJBFeeGauge)14613": {
        "encoding": "inplace",
        "label": "contract IJBFeeGauge",
        "numberOfBytes": "20"
      },
      "t_mapping(t_uint256,t_array(t_struct(JBFee)16040_storage)dyn_storage)": {
        "encoding": "mapping",
        "key": "t_uint256",
        "label": "mapping(uint256 => struct JBFee[])",
        "numberOfBytes": "32",
        "value": "t_array(t_struct(JBFee)16040_storage)dyn_storage"
      },
      "t_struct(JBFee)16040_storage": {
        "encoding": "inplace",
        "label": "struct JBFee",
        "members": [
          {
            "astId": 16035,
            "contract": "contracts/JBETHPaymentTerminal.sol:JBETHPaymentTerminal",
            "label": "amount",
            "offset": 0,
            "slot": "0",
            "type": "t_uint256"
          },
          {
            "astId": 16037,
            "contract": "contracts/JBETHPaymentTerminal.sol:JBETHPaymentTerminal",
            "label": "fee",
            "offset": 0,
            "slot": "1",
            "type": "t_uint8"
          },
          {
            "astId": 16039,
            "contract": "contracts/JBETHPaymentTerminal.sol:JBETHPaymentTerminal",
            "label": "beneficiary",
            "offset": 1,
            "slot": "1",
            "type": "t_address"
          }
        ],
        "numberOfBytes": "64"
      },
      "t_uint256": {
        "encoding": "inplace",
        "label": "uint256",
        "numberOfBytes": "32"
      },
      "t_uint8": {
        "encoding": "inplace",
        "label": "uint8",
        "numberOfBytes": "1"
      }
    }
  }
}