{
  "address": "0xD5ad0bD38db22E021549EA31dFd79244c0cFe60b",
  "abi": [
    {
      "inputs": [
        {
          "internalType": "contract IJBOperatorStore",
          "name": "_operatorStore",
          "type": "address"
        },
        {
          "internalType": "contract IJBProjects",
          "name": "_projects",
          "type": "address"
        },
        {
          "internalType": "contract IJBDirectory",
          "name": "_directory",
          "type": "address"
        },
        {
          "internalType": "contract IJBSplitsStore",
          "name": "_splitsStore",
          "type": "address"
        },
        {
          "internalType": "contract JBETHPaymentTerminalStore",
          "name": "_store",
          "type": "address"
        },
        {
          "internalType": "address",
          "name": "_owner",
          "type": "address"
        }
      ],
      "stateMutability": "nonpayable",
      "type": "constructor"
    },
    {
      "inputs": [
        {
          "internalType": "uint256",
          "name": "prod1",
          "type": "uint256"
        },
        {
          "internalType": "uint256",
          "name": "denominator",
          "type": "uint256"
        }
      ],
      "name": "PRBMath__MulDivOverflow",
      "type": "error"
    },
    {
      "anonymous": false,
      "inputs": [
        {
          "indexed": true,
          "internalType": "uint256",
          "name": "projectId",
          "type": "uint256"
        },
        {
          "indexed": false,
          "internalType": "uint256",
          "name": "amount",
          "type": "uint256"
        },
        {
          "indexed": false,
          "internalType": "string",
          "name": "memo",
          "type": "string"
        },
        {
          "indexed": false,
          "internalType": "address",
          "name": "caller",
          "type": "address"
        }
      ],
      "name": "AddToBalance",
      "type": "event"
    },
    {
      "anonymous": false,
      "inputs": [
        {
          "indexed": true,
          "internalType": "uint256",
          "name": "fundingCycleConfiguration",
          "type": "uint256"
        },
        {
          "indexed": true,
          "internalType": "uint256",
          "name": "fundingCycleNumber",
          "type": "uint256"
        },
        {
          "indexed": true,
          "internalType": "uint256",
          "name": "projectId",
          "type": "uint256"
        },
        {
          "indexed": false,
          "internalType": "address",
          "name": "beneficiary",
          "type": "address"
        },
        {
          "indexed": false,
          "internalType": "uint256",
          "name": "amount",
          "type": "uint256"
        },
        {
          "indexed": false,
          "internalType": "uint256",
          "name": "distributedAmount",
          "type": "uint256"
        },
        {
          "indexed": false,
          "internalType": "uint256",
          "name": "feeAmount",
          "type": "uint256"
        },
        {
          "indexed": false,
          "internalType": "uint256",
          "name": "beneficiaryDistributionAmount",
          "type": "uint256"
        },
        {
          "indexed": false,
          "internalType": "string",
          "name": "memo",
          "type": "string"
        },
        {
          "indexed": false,
          "internalType": "address",
          "name": "caller",
          "type": "address"
        }
      ],
      "name": "DistributePayouts",
      "type": "event"
    },
    {
      "anonymous": false,
      "inputs": [
        {
          "indexed": true,
          "internalType": "uint256",
          "name": "fundingCycleConfiguration",
          "type": "uint256"
        },
        {
          "indexed": true,
          "internalType": "uint256",
          "name": "fundingCycleNumber",
          "type": "uint256"
        },
        {
          "indexed": true,
          "internalType": "uint256",
          "name": "projectId",
          "type": "uint256"
        },
        {
          "components": [
            {
              "internalType": "bool",
              "name": "preferClaimed",
              "type": "bool"
            },
            {
              "internalType": "uint24",
              "name": "percent",
              "type": "uint24"
            },
            {
              "internalType": "uint48",
              "name": "lockedUntil",
              "type": "uint48"
            },
            {
              "internalType": "address payable",
              "name": "beneficiary",
              "type": "address"
            },
            {
              "internalType": "contract IJBSplitAllocator",
              "name": "allocator",
              "type": "address"
            },
            {
              "internalType": "uint56",
              "name": "projectId",
              "type": "uint56"
            }
          ],
          "indexed": false,
          "internalType": "struct JBSplit",
          "name": "split",
          "type": "tuple"
        },
        {
          "indexed": false,
          "internalType": "uint256",
          "name": "amount",
          "type": "uint256"
        },
        {
          "indexed": false,
          "internalType": "address",
          "name": "caller",
          "type": "address"
        }
      ],
      "name": "DistributeToPayoutSplit",
      "type": "event"
    },
    {
      "anonymous": false,
      "inputs": [
        {
          "indexed": true,
          "internalType": "uint256",
          "name": "projectId",
          "type": "uint256"
        },
        {
          "indexed": true,
          "internalType": "contract IJBTerminal",
          "name": "to",
          "type": "address"
        },
        {
          "indexed": false,
          "internalType": "uint256",
          "name": "amount",
          "type": "uint256"
        },
        {
          "indexed": false,
          "internalType": "address",
          "name": "caller",
          "type": "address"
        }
      ],
      "name": "Migrate",
      "type": "event"
    },
    {
      "anonymous": false,
      "inputs": [
        {
          "indexed": true,
          "internalType": "address",
          "name": "previousOwner",
          "type": "address"
        },
        {
          "indexed": true,
          "internalType": "address",
          "name": "newOwner",
          "type": "address"
        }
      ],
      "name": "OwnershipTransferred",
      "type": "event"
    },
    {
      "anonymous": false,
      "inputs": [
        {
          "indexed": true,
          "internalType": "uint256",
          "name": "fundingCycleConfiguration",
          "type": "uint256"
        },
        {
          "indexed": true,
          "internalType": "uint256",
          "name": "fundingCycleNumber",
          "type": "uint256"
        },
        {
          "indexed": true,
          "internalType": "uint256",
          "name": "projectId",
          "type": "uint256"
        },
        {
          "indexed": false,
          "internalType": "address",
          "name": "beneficiary",
          "type": "address"
        },
        {
          "indexed": false,
          "internalType": "uint256",
          "name": "amount",
          "type": "uint256"
        },
        {
          "indexed": false,
          "internalType": "uint256",
          "name": "weight",
          "type": "uint256"
        },
        {
          "indexed": false,
          "internalType": "uint256",
          "name": "tokenCount",
          "type": "uint256"
        },
        {
          "indexed": false,
          "internalType": "string",
          "name": "memo",
          "type": "string"
        },
        {
          "indexed": false,
          "internalType": "address",
          "name": "caller",
          "type": "address"
        }
      ],
      "name": "Pay",
      "type": "event"
    },
    {
      "anonymous": false,
      "inputs": [
        {
          "indexed": true,
          "internalType": "uint256",
          "name": "projectId",
          "type": "uint256"
        },
        {
          "components": [
            {
              "internalType": "uint256",
              "name": "amount",
              "type": "uint256"
            },
            {
              "internalType": "uint8",
              "name": "fee",
              "type": "uint8"
            },
            {
              "internalType": "address",
              "name": "beneficiary",
              "type": "address"
            },
            {
              "internalType": "string",
              "name": "memo",
              "type": "string"
            }
          ],
          "indexed": false,
          "internalType": "struct JBFee[]",
          "name": "fees",
          "type": "tuple[]"
        },
        {
          "indexed": false,
          "internalType": "address",
          "name": "caller",
          "type": "address"
        }
      ],
      "name": "ProcessFees",
      "type": "event"
    },
    {
      "anonymous": false,
      "inputs": [
        {
          "indexed": true,
          "internalType": "uint256",
          "name": "fundingCycleConfiguration",
          "type": "uint256"
        },
        {
          "indexed": true,
          "internalType": "uint256",
          "name": "fundingCycleNumber",
          "type": "uint256"
        },
        {
          "indexed": true,
          "internalType": "uint256",
          "name": "projectId",
          "type": "uint256"
        },
        {
          "indexed": false,
          "internalType": "address",
          "name": "holder",
          "type": "address"
        },
        {
          "indexed": false,
          "internalType": "address",
          "name": "beneficiary",
          "type": "address"
        },
        {
          "indexed": false,
          "internalType": "uint256",
          "name": "tokenCount",
          "type": "uint256"
        },
        {
          "indexed": false,
          "internalType": "uint256",
          "name": "claimedAmount",
          "type": "uint256"
        },
        {
          "indexed": false,
          "internalType": "string",
          "name": "memo",
          "type": "string"
        },
        {
          "indexed": false,
          "internalType": "address",
          "name": "caller",
          "type": "address"
        }
      ],
      "name": "RedeemTokens",
      "type": "event"
    },
    {
      "anonymous": false,
      "inputs": [
        {
          "indexed": false,
          "internalType": "uint256",
          "name": "fee",
          "type": "uint256"
        },
        {
          "indexed": false,
          "internalType": "address",
          "name": "caller",
          "type": "address"
        }
      ],
      "name": "SetFee",
      "type": "event"
    },
    {
      "anonymous": false,
      "inputs": [
        {
          "indexed": true,
          "internalType": "uint256",
          "name": "fundingCycleConfiguration",
          "type": "uint256"
        },
        {
          "indexed": true,
          "internalType": "uint256",
          "name": "fundingCycleNumber",
          "type": "uint256"
        },
        {
          "indexed": true,
          "internalType": "uint256",
          "name": "projectId",
          "type": "uint256"
        },
        {
          "indexed": false,
          "internalType": "address",
          "name": "beneficiary",
          "type": "address"
        },
        {
          "indexed": false,
          "internalType": "uint256",
          "name": "amount",
          "type": "uint256"
        },
        {
          "indexed": false,
          "internalType": "uint256",
          "name": "feeAmount",
          "type": "uint256"
        },
        {
          "indexed": false,
          "internalType": "uint256",
          "name": "transferAmount",
          "type": "uint256"
        },
        {
          "indexed": false,
          "internalType": "address",
          "name": "caller",
          "type": "address"
        }
      ],
      "name": "UseAllowance",
      "type": "event"
    },
    {
      "inputs": [
        {
          "internalType": "uint256",
          "name": "_projectId",
          "type": "uint256"
        },
        {
          "internalType": "string",
          "name": "_memo",
          "type": "string"
        }
      ],
      "name": "addToBalanceOf",
      "outputs": [],
      "stateMutability": "payable",
      "type": "function"
    },
    {
      "inputs": [],
      "name": "delegate",
      "outputs": [
        {
          "internalType": "address",
          "name": "",
          "type": "address"
        }
      ],
      "stateMutability": "view",
      "type": "function"
    },
    {
      "inputs": [],
      "name": "directory",
      "outputs": [
        {
          "internalType": "contract IJBDirectory",
          "name": "",
          "type": "address"
        }
      ],
      "stateMutability": "view",
      "type": "function"
    },
    {
      "inputs": [
        {
          "internalType": "uint256",
          "name": "_projectId",
          "type": "uint256"
        },
        {
          "internalType": "uint256",
          "name": "_amount",
          "type": "uint256"
        },
        {
          "internalType": "uint256",
          "name": "_currency",
          "type": "uint256"
        },
        {
          "internalType": "uint256",
          "name": "_minReturnedWei",
          "type": "uint256"
        },
        {
          "internalType": "string",
          "name": "_memo",
          "type": "string"
        }
      ],
      "name": "distributePayoutsOf",
      "outputs": [],
      "stateMutability": "nonpayable",
      "type": "function"
    },
    {
      "inputs": [
        {
          "internalType": "uint256",
          "name": "_projectId",
          "type": "uint256"
        }
      ],
      "name": "ethBalanceOf",
      "outputs": [
        {
          "internalType": "uint256",
          "name": "",
          "type": "uint256"
        }
      ],
      "stateMutability": "view",
      "type": "function"
    },
    {
      "inputs": [],
      "name": "fee",
      "outputs": [
        {
          "internalType": "uint256",
          "name": "",
          "type": "uint256"
        }
      ],
      "stateMutability": "view",
      "type": "function"
    },
    {
      "inputs": [
        {
          "internalType": "uint256",
          "name": "_projectId",
          "type": "uint256"
        }
      ],
      "name": "heldFeesOf",
      "outputs": [
        {
          "components": [
            {
              "internalType": "uint256",
              "name": "amount",
              "type": "uint256"
            },
            {
              "internalType": "uint8",
              "name": "fee",
              "type": "uint8"
            },
            {
              "internalType": "address",
              "name": "beneficiary",
              "type": "address"
            },
            {
              "internalType": "string",
              "name": "memo",
              "type": "string"
            }
          ],
          "internalType": "struct JBFee[]",
          "name": "",
          "type": "tuple[]"
        }
      ],
      "stateMutability": "view",
      "type": "function"
    },
    {
      "inputs": [
        {
          "internalType": "uint256",
          "name": "_projectId",
          "type": "uint256"
        },
        {
          "internalType": "contract IJBTerminal",
          "name": "_to",
          "type": "address"
        }
      ],
      "name": "migrate",
      "outputs": [],
      "stateMutability": "nonpayable",
      "type": "function"
    },
    {
      "inputs": [],
      "name": "operatorStore",
      "outputs": [
        {
          "internalType": "contract IJBOperatorStore",
          "name": "",
          "type": "address"
        }
      ],
      "stateMutability": "view",
      "type": "function"
    },
    {
      "inputs": [],
      "name": "owner",
      "outputs": [
        {
          "internalType": "address",
          "name": "",
          "type": "address"
        }
      ],
      "stateMutability": "view",
      "type": "function"
    },
    {
      "inputs": [
        {
          "internalType": "uint256",
          "name": "_projectId",
          "type": "uint256"
        },
        {
          "internalType": "address",
          "name": "_beneficiary",
          "type": "address"
        },
        {
          "internalType": "uint256",
          "name": "_minReturnedTokens",
          "type": "uint256"
        },
        {
          "internalType": "bool",
          "name": "_preferClaimedTokens",
          "type": "bool"
        },
        {
          "internalType": "string",
          "name": "_memo",
          "type": "string"
        },
        {
          "internalType": "bytes",
          "name": "_delegateMetadata",
          "type": "bytes"
        }
      ],
      "name": "pay",
      "outputs": [],
      "stateMutability": "payable",
      "type": "function"
    },
    {
      "inputs": [
        {
          "internalType": "uint256",
          "name": "_projectId",
          "type": "uint256"
        }
      ],
      "name": "processFees",
      "outputs": [],
      "stateMutability": "nonpayable",
      "type": "function"
    },
    {
      "inputs": [],
      "name": "projects",
      "outputs": [
        {
          "internalType": "contract IJBProjects",
          "name": "",
          "type": "address"
        }
      ],
      "stateMutability": "view",
      "type": "function"
    },
    {
      "inputs": [
        {
          "internalType": "address",
          "name": "_holder",
          "type": "address"
        },
        {
          "internalType": "uint256",
          "name": "_projectId",
          "type": "uint256"
        },
        {
          "internalType": "uint256",
          "name": "_tokenCount",
          "type": "uint256"
        },
        {
          "internalType": "uint256",
          "name": "_minReturnedWei",
          "type": "uint256"
        },
        {
          "internalType": "address payable",
          "name": "_beneficiary",
          "type": "address"
        },
        {
          "internalType": "string",
          "name": "_memo",
          "type": "string"
        },
        {
          "internalType": "bytes",
          "name": "_delegateMetadata",
          "type": "bytes"
        }
      ],
      "name": "redeemTokensOf",
      "outputs": [
        {
          "internalType": "uint256",
          "name": "claimAmount",
          "type": "uint256"
        }
      ],
      "stateMutability": "nonpayable",
      "type": "function"
    },
    {
      "inputs": [
        {
          "internalType": "uint256",
          "name": "_projectId",
          "type": "uint256"
        },
        {
          "internalType": "uint256",
          "name": "_fundingCycleConfiguration",
          "type": "uint256"
        },
        {
          "internalType": "uint256",
          "name": "_fundingCycleNumber",
          "type": "uint256"
        }
      ],
      "name": "remainingDistributionLimitOf",
      "outputs": [
        {
          "internalType": "uint256",
          "name": "",
          "type": "uint256"
        }
      ],
      "stateMutability": "view",
      "type": "function"
    },
    {
      "inputs": [],
      "name": "renounceOwnership",
      "outputs": [],
      "stateMutability": "nonpayable",
      "type": "function"
    },
    {
      "inputs": [
        {
          "internalType": "uint256",
          "name": "_fee",
          "type": "uint256"
        }
      ],
      "name": "setFee",
      "outputs": [],
      "stateMutability": "nonpayable",
      "type": "function"
    },
    {
      "inputs": [],
      "name": "splitsStore",
      "outputs": [
        {
          "internalType": "contract IJBSplitsStore",
          "name": "",
          "type": "address"
        }
      ],
      "stateMutability": "view",
      "type": "function"
    },
    {
      "inputs": [],
      "name": "store",
      "outputs": [
        {
          "internalType": "contract JBETHPaymentTerminalStore",
          "name": "",
          "type": "address"
        }
      ],
      "stateMutability": "view",
      "type": "function"
    },
    {
      "inputs": [],
      "name": "token",
      "outputs": [
        {
          "internalType": "address",
          "name": "",
          "type": "address"
        }
      ],
      "stateMutability": "view",
      "type": "function"
    },
    {
      "inputs": [
        {
          "internalType": "address",
          "name": "newOwner",
          "type": "address"
        }
      ],
      "name": "transferOwnership",
      "outputs": [],
      "stateMutability": "nonpayable",
      "type": "function"
    },
    {
      "inputs": [
        {
          "internalType": "uint256",
          "name": "_projectId",
          "type": "uint256"
        },
        {
          "internalType": "uint256",
          "name": "_amount",
          "type": "uint256"
        },
        {
          "internalType": "uint256",
          "name": "_currency",
          "type": "uint256"
        },
        {
          "internalType": "uint256",
          "name": "_minReturnedWei",
          "type": "uint256"
        },
        {
          "internalType": "address payable",
          "name": "_beneficiary",
          "type": "address"
        }
      ],
      "name": "useAllowanceOf",
      "outputs": [],
      "stateMutability": "nonpayable",
      "type": "function"
    }
  ],
  "transactionHash": "0x41def25b42e73290884a55798194eacbb72d620c505658fbe355e3b9210fbe7b",
  "args": [
    "0x21c1E45E7EBC41f3ED0aB6660204d63c911c93a9",
    "0x0a75928644d0E25Dc9340c33d0D946Fabef2046C",
    "0xf4326041BE30a4b7fc4db9Bb6286fef458F71fe2",
    "0x703d932403408d1a4Ae3Ea2921207d2f550e2e67",
    "0x5eaBF1D7A8c6942534cCb3489Ff221b2CBc0255b",
    "0x69C6026e3938adE9e1ddE8Ff6A37eC96595bF1e1"
  ],
  "solcInputHash": "5f321124cef92f5734094814cf45799b",
  "bytecode": "0x6101406040526134a160651b61012052600a6003553480156200002157600080fd5b5060405162004f9d38038062004f9d833981016040819052620000449162000231565b606086901b6001600160601b03191660805262000061336200010c565b600180556001600160601b0319606086811b821660a05285811b821660c05284901b1660e05260405163ddeae03360e01b81523060048201526001600160a01b0383169063ddeae03390602401600060405180830381600087803b158015620000c957600080fd5b505af1158015620000de573d6000803e3d6000fd5b5050506001600160601b0319606084901b16610100525062000100816200015c565b505050505050620002db565b600080546001600160a01b038381166001600160a01b0319831681178455604051919092169283917f8be0079c531659141344cd1fd0a4f28419497f9722a3daafe3b4186f6b6457e09190a35050565b6000546001600160a01b03163314620001bc5760405162461bcd60e51b815260206004820181905260248201527f4f776e61626c653a2063616c6c6572206973206e6f7420746865206f776e657260448201526064015b60405180910390fd5b6001600160a01b038116620002235760405162461bcd60e51b815260206004820152602660248201527f4f776e61626c653a206e6577206f776e657220697320746865207a65726f206160448201526564647265737360d01b6064820152608401620001b3565b6200022e816200010c565b50565b60008060008060008060c087890312156200024b57600080fd5b86516200025881620002c5565b60208801519096506200026b81620002c5565b60408801519095506200027e81620002c5565b60608801519094506200029181620002c5565b6080880151909350620002a481620002c5565b60a0880151909250620002b781620002c5565b809150509295509295509295565b6001600160a01b03811681146200022e57600080fd5b60805160601c60a05160601c60c05160601c60e05160601c6101005160601c6101205160601c614b8762000416600039600081816104c6015281816109690152818161327801526139170152600081816103410152818161041a01528181610a3701528181610c6001528181610d6f01528181611aea015281816121d60152818161233a015281816126030152612b680152600081816101a101526136ce0152600081816103e9015281816123f8015281816132a301526139420152600081816102e20152818161061001528181610fec015281816117c901528181611bb301528181611c77015281816126e101526127a50152600081816103750152818161071a015281816107f30152818161114b01528181611224015281816118d3015281816119ac01528181611efe0152611fd70152614b876000f3fe6080604052600436106101755760003560e01c8063975057e7116100cb578063c89e43611161007f578063ddca3f4311610059578063ddca3f431461047e578063f2fde38b14610494578063fc0c546a146104b457600080fd5b8063c89e43611461040b578063c99d3e831461043e578063d930c60c1461045e57600080fd5b8063b5a6aed7116100b0578063b5a6aed714610397578063b6cf978e146103b7578063c41c2f24146103d757600080fd5b8063975057e71461032f578063ad007d631461036357600080fd5b806369fe0e2d1161012d5780638af56094116101075780638af56094146102a35780638b79543c146102d05780638da5cb5b1461030457600080fd5b806369fe0e2d1461024e578063715018a61461026e57806389701db51461028357600080fd5b8063405b84fa1161015e578063405b84fa146101ed578063423734721461020d5780635de603141461022057600080fd5b8063039304531461017a5780632bdfe0041461018f575b600080fd5b61018d610188366004614217565b6104e8565b005b34801561019b57600080fd5b506101c37f000000000000000000000000000000000000000000000000000000000000000081565b60405173ffffffffffffffffffffffffffffffffffffffff90911681526020015b60405180910390f35b3480156101f957600080fd5b5061018d6102083660046142bf565b61056a565b61018d61021b3660046142ef565b610bc1565b34801561022c57600080fd5b5061024061023b3660046141fe565b610d3d565b6040519081526020016101e4565b34801561025a57600080fd5b5061018d6102693660046141fe565b610e04565b34801561027a57600080fd5b5061018d610f30565b34801561028f57600080fd5b5061018d61029e3660046141fe565b610fbd565b3480156102af57600080fd5b506102c36102be3660046141fe565b6115e7565b6040516101e491906146a3565b3480156102dc57600080fd5b506101c37f000000000000000000000000000000000000000000000000000000000000000081565b34801561031057600080fd5b5060005473ffffffffffffffffffffffffffffffffffffffff166101c3565b34801561033b57600080fd5b506101c37f000000000000000000000000000000000000000000000000000000000000000081565b34801561036f57600080fd5b506101c37f000000000000000000000000000000000000000000000000000000000000000081565b3480156103a357600080fd5b5061018d6103b2366004614362565b611728565b3480156103c357600080fd5b506102406103d2366004613ec3565b611e0c565b3480156103e357600080fd5b506101c37f000000000000000000000000000000000000000000000000000000000000000081565b34801561041757600080fd5b507f00000000000000000000000000000000000000000000000000000000000000006101c3565b34801561044a57600080fd5b50610240610459366004614336565b612301565b34801561046a57600080fd5b5061018d6104793660046143af565b612548565b34801561048a57600080fd5b5061024060035481565b3480156104a057600080fd5b5061018d6104af366004613e89565b612951565b3480156104c057600080fd5b506101c37f000000000000000000000000000000000000000000000000000000000000000081565b610560348989898989898080601f01602080910402602001604051908101604052809392919081815260200183838082843760009201919091525050604080516020601f8d018190048102820181019092528b815292508b91508a9081908401838280828437600092019190915250612a8192505050565b5050505050505050565b600260015414156105dc576040517f08c379a000000000000000000000000000000000000000000000000000000000815260206004820152601f60248201527f5265656e7472616e637947756172643a207265656e7472616e742063616c6c0060448201526064015b60405180910390fd5b60026001556040517f6352211e000000000000000000000000000000000000000000000000000000008152600481018390527f000000000000000000000000000000000000000000000000000000000000000073ffffffffffffffffffffffffffffffffffffffff1690636352211e9060240160206040518083038186803b15801561066757600080fd5b505afa15801561067b573d6000803e3d6000fd5b505050506040513d601f19601f8201168201806040525081019061069f9190613ea6565b8260043373ffffffffffffffffffffffffffffffffffffffff8416148061079457506040517fc161c93f00000000000000000000000000000000000000000000000000000000815233600482015273ffffffffffffffffffffffffffffffffffffffff848116602483015260448201849052606482018390527f0000000000000000000000000000000000000000000000000000000000000000169063c161c93f9060840160206040518083038186803b15801561075c57600080fd5b505afa158015610770573d6000803e3d6000fd5b505050506040513d601f19601f8201168201806040525081019061079491906140bb565b8061086d57506040517fc161c93f00000000000000000000000000000000000000000000000000000000815233600482015273ffffffffffffffffffffffffffffffffffffffff848116602483015260006044830152606482018390527f0000000000000000000000000000000000000000000000000000000000000000169063c161c93f9060840160206040518083038186803b15801561083557600080fd5b505afa158015610849573d6000803e3d6000fd5b505050506040513d601f19601f8201168201806040525081019061086d91906140bb565b6108d3576040517f08c379a000000000000000000000000000000000000000000000000000000000815260206004820152601860248201527f4f706572617461626c653a20554e415554484f52495a4544000000000000000060448201526064016105d3565b8373ffffffffffffffffffffffffffffffffffffffff1663fc0c546a6040518163ffffffff1660e01b815260040160206040518083038186803b15801561091957600080fd5b505afa15801561092d573d6000803e3d6000fd5b505050506040513d601f19601f820116820180604052508101906109519190613ea6565b73ffffffffffffffffffffffffffffffffffffffff167f000000000000000000000000000000000000000000000000000000000000000073ffffffffffffffffffffffffffffffffffffffff1614610a05576040517f08c379a000000000000000000000000000000000000000000000000000000000815260206004820152601260248201527f307834643a20494e434f4d50415449424c45000000000000000000000000000060448201526064016105d3565b6040517f6bb6a5ad000000000000000000000000000000000000000000000000000000008152600481018690526000907f000000000000000000000000000000000000000000000000000000000000000073ffffffffffffffffffffffffffffffffffffffff1690636bb6a5ad90602401602060405180830381600087803b158015610a9057600080fd5b505af1158015610aa4573d6000803e3d6000fd5b505050506040513d601f19601f82011682018060405250810190610ac891906140d8565b90508015610b6357604080517f423734720000000000000000000000000000000000000000000000000000000081526004810188905260248101919091526000604482015273ffffffffffffffffffffffffffffffffffffffff86169063423734729083906064016000604051808303818588803b158015610b4957600080fd5b505af1158015610b5d573d6000803e3d6000fd5b50505050505b6040805182815233602082015273ffffffffffffffffffffffffffffffffffffffff87169188917fa7519e5f94697b7f53e97c5eb46a0c730a296ab686ab8fd333835c5f735784eb910160405180910390a350506001805550505050565b60003411610c2b576040517f08c379a000000000000000000000000000000000000000000000000000000000815260206004820152600b60248201527f307834633a204e4f5f4f5000000000000000000000000000000000000000000060448201526064016105d3565b6040517fe7c8e3e3000000000000000000000000000000000000000000000000000000008152600481018390523460248201527f000000000000000000000000000000000000000000000000000000000000000073ffffffffffffffffffffffffffffffffffffffff169063e7c8e3e39060440161012060405180830381600087803b158015610cba57600080fd5b505af1158015610cce573d6000803e3d6000fd5b505050506040513d601f19601f82011682018060405250810190610cf291906140f1565b50610cfd8234612cba565b817f4ce42b42caaa564737146f357a8fa7fe24940fac843d392a69e23b32a1d766a3348333604051610d31939291906147eb565b60405180910390a25050565b6040517f9cc7f708000000000000000000000000000000000000000000000000000000008152600481018290526000907f000000000000000000000000000000000000000000000000000000000000000073ffffffffffffffffffffffffffffffffffffffff1690639cc7f7089060240160206040518083038186803b158015610dc657600080fd5b505afa158015610dda573d6000803e3d6000fd5b505050506040513d601f19601f82011682018060405250810190610dfe91906140d8565b92915050565b60005473ffffffffffffffffffffffffffffffffffffffff163314610e85576040517f08c379a000000000000000000000000000000000000000000000000000000000815260206004820181905260248201527f4f776e61626c653a2063616c6c6572206973206e6f7420746865206f776e657260448201526064016105d3565b600a811115610ef0576040517f08c379a000000000000000000000000000000000000000000000000000000000815260206004820152600d60248201527f307833363a204241445f4645450000000000000000000000000000000000000060448201526064016105d3565b6003819055604080518281523360208201527fd7414e590e1cb532989ab2a34c8f4c2c17f7ab6f006efeeaef2e87cd5008c202910160405180910390a150565b60005473ffffffffffffffffffffffffffffffffffffffff163314610fb1576040517f08c379a000000000000000000000000000000000000000000000000000000000815260206004820181905260248201527f4f776e61626c653a2063616c6c6572206973206e6f7420746865206f776e657260448201526064016105d3565b610fbb60006130ba565b565b6040517f6352211e000000000000000000000000000000000000000000000000000000008152600481018290527f000000000000000000000000000000000000000000000000000000000000000073ffffffffffffffffffffffffffffffffffffffff1690636352211e9060240160206040518083038186803b15801561104357600080fd5b505afa158015611057573d6000803e3d6000fd5b505050506040513d601f19601f8201168201806040525081019061107b9190613ea6565b81600561109d60005473ffffffffffffffffffffffffffffffffffffffff1690565b73ffffffffffffffffffffffffffffffffffffffff163373ffffffffffffffffffffffffffffffffffffffff161480806110ec57503373ffffffffffffffffffffffffffffffffffffffff8516145b806111c557506040517fc161c93f00000000000000000000000000000000000000000000000000000000815233600482015273ffffffffffffffffffffffffffffffffffffffff858116602483015260448201859052606482018490527f0000000000000000000000000000000000000000000000000000000000000000169063c161c93f9060840160206040518083038186803b15801561118d57600080fd5b505afa1580156111a1573d6000803e3d6000fd5b505050506040513d601f19601f820116820180604052508101906111c591906140bb565b8061129e57506040517fc161c93f00000000000000000000000000000000000000000000000000000000815233600482015273ffffffffffffffffffffffffffffffffffffffff858116602483015260006044830152606482018490527f0000000000000000000000000000000000000000000000000000000000000000169063c161c93f9060840160206040518083038186803b15801561126657600080fd5b505afa15801561127a573d6000803e3d6000fd5b505050506040513d601f19601f8201168201806040525081019061129e91906140bb565b611304576040517f08c379a000000000000000000000000000000000000000000000000000000000815260206004820152601860248201527f4f706572617461626c653a20554e415554484f52495a4544000000000000000060448201526064016105d3565b60026001541415611371576040517f08c379a000000000000000000000000000000000000000000000000000000000815260206004820152601f60248201527f5265656e7472616e637947756172643a207265656e7472616e742063616c6c0060448201526064016105d3565b600260018190556000868152602091825260408082208054825181860281018601909352808352929391929091849084015b828210156114a4576000848152602090819020604080516080810182526003860290920180548352600181015460ff81169484019490945261010090930473ffffffffffffffffffffffffffffffffffffffff1690820152600282018054919291606084019190611413906149d8565b80601f016020809104026020016040519081016040528092919081815260200182805461143f906149d8565b801561148c5780601f106114615761010080835404028352916020019161148c565b820191906000526020600020905b81548152906001019060200180831161146f57829003601f168201915b505050505081525050815260200190600101906113a3565b50505050905060005b81518110156115895761157761150e8383815181106114ce576114ce614ac3565b60200260200101516000015160c88585815181106114ee576114ee614ac3565b60200260200101516020015160c86115069190614970565b60ff1661312f565b83838151811061152057611520614ac3565b6020026020010151600001516115369190614995565b83838151811061154857611548614ac3565b60200260200101516040015184848151811061156657611566614ac3565b602002602001015160600151613234565b8061158181614a2c565b9150506114ad565b5060008681526002602052604081206115a191613bad565b857f07f39a5fd95cd3da676e5dfb4d483177812480a919520e362527c826bb0900a782336040516115d39291906146b6565b60405180910390a250506001805550505050565b606060026000838152602001908152602001600020805480602002602001604051908101604052809291908181526020016000905b8282101561171d576000848152602090819020604080516080810182526003860290920180548352600181015460ff81169484019490945261010090930473ffffffffffffffffffffffffffffffffffffffff169082015260028201805491929160608401919061168c906149d8565b80601f01602080910402602001604051908101604052809291908181526020018280546116b8906149d8565b80156117055780601f106116da57610100808354040283529160200191611705565b820191906000526020600020905b8154815290600101906020018083116116e857829003601f168201915b5050505050815250508152602001906001019061161c565b505050509050919050565b60026001541415611795576040517f08c379a000000000000000000000000000000000000000000000000000000000815260206004820152601f60248201527f5265656e7472616e637947756172643a207265656e7472616e742063616c6c0060448201526064016105d3565b60026001556040517f6352211e000000000000000000000000000000000000000000000000000000008152600481018690527f000000000000000000000000000000000000000000000000000000000000000073ffffffffffffffffffffffffffffffffffffffff1690636352211e9060240160206040518083038186803b15801561182057600080fd5b505afa158015611834573d6000803e3d6000fd5b505050506040513d601f19601f820116820180604052508101906118589190613ea6565b8560143373ffffffffffffffffffffffffffffffffffffffff8416148061194d57506040517fc161c93f00000000000000000000000000000000000000000000000000000000815233600482015273ffffffffffffffffffffffffffffffffffffffff848116602483015260448201849052606482018390527f0000000000000000000000000000000000000000000000000000000000000000169063c161c93f9060840160206040518083038186803b15801561191557600080fd5b505afa158015611929573d6000803e3d6000fd5b505050506040513d601f19601f8201168201806040525081019061194d91906140bb565b80611a2657506040517fc161c93f00000000000000000000000000000000000000000000000000000000815233600482015273ffffffffffffffffffffffffffffffffffffffff848116602483015260006044830152606482018390527f0000000000000000000000000000000000000000000000000000000000000000169063c161c93f9060840160206040518083038186803b1580156119ee57600080fd5b505afa158015611a02573d6000803e3d6000fd5b505050506040513d601f19601f82011682018060405250810190611a2691906140bb565b611a8c576040517f08c379a000000000000000000000000000000000000000000000000000000000815260206004820152601860248201527f4f706572617461626c653a20554e415554484f52495a4544000000000000000060448201526064016105d3565b6040517f1837d6e300000000000000000000000000000000000000000000000000000000815260048101899052602481018890526044810187905260648101869052600090819073ffffffffffffffffffffffffffffffffffffffff7f00000000000000000000000000000000000000000000000000000000000000001690631837d6e39060840161014060405180830381600087803b158015611b2f57600080fd5b505af1158015611b43573d6000803e3d6000fd5b505050506040513d601f19601f82011682018060405250810190611b67919061410e565b6040517f6352211e000000000000000000000000000000000000000000000000000000008152600481018d9052919350915060009073ffffffffffffffffffffffffffffffffffffffff7f00000000000000000000000000000000000000000000000000000000000000001690636352211e9060240160206040518083038186803b158015611bf557600080fd5b505afa158015611c09573d6000803e3d6000fd5b505050506040513d601f19601f82011682018060405250810190611c2d9190613ea6565b6040517f49491987000000000000000000000000000000000000000000000000000000008152600481018d905290915060009073ffffffffffffffffffffffffffffffffffffffff7f00000000000000000000000000000000000000000000000000000000000000001690634949198790602401602060405180830381600087803b158015611cbb57600080fd5b505af1158015611ccf573d6000803e3d6000fd5b505050506040513d601f19601f82011682018060405250810190611cf391906140d8565b9050600060035460001480611d0857508c6001145b611d6957611d648d86868686604051602001611d5091907f4665652066726f6d2040000000000000000000000000000000000000000000008152600a810191909152602a0190565b6040516020818303038152906040526133fe565b611d6c565b60005b9050611d8189611d7c8387614995565b613527565b845160208601518e91907f4d0b119651438cfed12585fc57e8ec9d9cc98bb1e5da27bdc4b7419d084500c28c8886611db98183614995565b6040805173ffffffffffffffffffffffffffffffffffffffff9095168552602085019390935291830152606082015233608082015260a00160405180910390a45050600180555050505050505050505050565b600060026001541415611e7b576040517f08c379a000000000000000000000000000000000000000000000000000000000815260206004820152601f60248201527f5265656e7472616e637947756172643a207265656e7472616e742063616c6c0060448201526064016105d3565b60026001819055889088903373ffffffffffffffffffffffffffffffffffffffff84161480611f7857506040517fc161c93f00000000000000000000000000000000000000000000000000000000815233600482015273ffffffffffffffffffffffffffffffffffffffff848116602483015260448201849052606482018390527f0000000000000000000000000000000000000000000000000000000000000000169063c161c93f9060840160206040518083038186803b158015611f4057600080fd5b505afa158015611f54573d6000803e3d6000fd5b505050506040513d601f19601f82011682018060405250810190611f7891906140bb565b8061205157506040517fc161c93f00000000000000000000000000000000000000000000000000000000815233600482015273ffffffffffffffffffffffffffffffffffffffff848116602483015260006044830152606482018390527f0000000000000000000000000000000000000000000000000000000000000000169063c161c93f9060840160206040518083038186803b15801561201957600080fd5b505afa15801561202d573d6000803e3d6000fd5b505050506040513d601f19601f8201168201806040525081019061205191906140bb565b6120b7576040517f08c379a000000000000000000000000000000000000000000000000000000000815260206004820152601860248201527f4f706572617461626c653a20554e415554484f52495a4544000000000000000060448201526064016105d3565b73ffffffffffffffffffffffffffffffffffffffff8716612134576040517f08c379a000000000000000000000000000000000000000000000000000000000815260206004820152601260248201527f307834633a205a45524f5f41444452455353000000000000000000000000000060448201526064016105d3565b61219960405180610120016040528060008152602001600081526020016000815260200160008152602001600081526020016000815260200160008152602001600073ffffffffffffffffffffffffffffffffffffffff168152602001600081525090565b6040517f9225bf1a00000000000000000000000000000000000000000000000000000000815273ffffffffffffffffffffffffffffffffffffffff7f00000000000000000000000000000000000000000000000000000000000000001690639225bf1a90612217908f908f908f908f908f908f908f90600401614616565b600060405180830381600087803b15801561223157600080fd5b505af1158015612245573d6000803e3d6000fd5b505050506040513d6000823e601f3d9081017fffffffffffffffffffffffffffffffffffffffffffffffffffffffffffffffe016820160405261228b919081019061413d565b98509550905084156122a1576122a18886613527565b8a816000015182602001517fd2b8b011245528ed3c6d92b102e0cd9895bb1910613b04dd42d7c9ac3781612d8f8c8f8b8e336040516122e596959493929190614551565b60405180910390a4505060018055509098975050505050505050565b6040517fdcc3041b00000000000000000000000000000000000000000000000000000000815260048101849052602481018290526000907f000000000000000000000000000000000000000000000000000000000000000073ffffffffffffffffffffffffffffffffffffffff169063dcc3041b9060440160206040518083038186803b15801561239157600080fd5b505afa1580156123a5573d6000803e3d6000fd5b505050506040513d601f19601f820116820180604052508101906123c991906140d8565b6040517f5dd8f6aa000000000000000000000000000000000000000000000000000000008152600481018690527f000000000000000000000000000000000000000000000000000000000000000073ffffffffffffffffffffffffffffffffffffffff1690635dd8f6aa9060240160206040518083038186803b15801561244f57600080fd5b505afa158015612463573d6000803e3d6000fd5b505050506040513d601f19601f820116820180604052508101906124879190613ea6565b6040517f5578dfd7000000000000000000000000000000000000000000000000000000008152600481018790526024810186905230604482015273ffffffffffffffffffffffffffffffffffffffff9190911690635578dfd79060640160206040518083038186803b1580156124fc57600080fd5b505afa158015612510573d6000803e3d6000fd5b505050506040513d601f19601f8201168201806040525081019061253491906140d8565b61253e9190614995565b90505b9392505050565b600260015414156125b5576040517f08c379a000000000000000000000000000000000000000000000000000000000815260206004820152601f60248201527f5265656e7472616e637947756172643a207265656e7472616e742063616c6c0060448201526064016105d3565b60026001556040517f4d9cd5ac0000000000000000000000000000000000000000000000000000000081526004810186905260248101859052604481018490526064810183905260009081907f000000000000000000000000000000000000000000000000000000000000000073ffffffffffffffffffffffffffffffffffffffff1690634d9cd5ac9060840161014060405180830381600087803b15801561265d57600080fd5b505af1158015612671573d6000803e3d6000fd5b505050506040513d601f19601f82011682018060405250810190612695919061410e565b6040517f6352211e000000000000000000000000000000000000000000000000000000008152600481018a9052919350915060009073ffffffffffffffffffffffffffffffffffffffff7f00000000000000000000000000000000000000000000000000000000000000001690636352211e9060240160206040518083038186803b15801561272357600080fd5b505afa158015612737573d6000803e3d6000fd5b505050506040513d601f19601f8201168201806040525081019061275b9190613ea6565b6040517f49491987000000000000000000000000000000000000000000000000000000008152600481018a905290915060009073ffffffffffffffffffffffffffffffffffffffff7f00000000000000000000000000000000000000000000000000000000000000001690634949198790602401602060405180830381600087803b1580156127e957600080fd5b505af11580156127fd573d6000803e3d6000fd5b505050506040513d601f19601f8201168201806040525081019061282191906140d8565b90506000600354600014806128365750896001145b6128835761287e8a86868686604051602001611d5091907f4665652066726f6d2040000000000000000000000000000000000000000000008152600a810191909152602a0190565b612886565b60005b905060006128e08b876128998589614995565b6040517f5061796f75742066726f6d2040000000000000000000000000000000000000006020820152602d8101889052604d01604051602081830303815290604052613686565b905080156128f2576128f28482613527565b8a866000015187602001517f24352f49df447b14e0e08a323625c663d865ce20c343c4638af12e1dc48aa760878e8a88888f3360405161293897969594939291906144f2565b60405180910390a4505060018055505050505050505050565b60005473ffffffffffffffffffffffffffffffffffffffff1633146129d2576040517f08c379a000000000000000000000000000000000000000000000000000000000815260206004820181905260248201527f4f776e61626c653a2063616c6c6572206973206e6f7420746865206f776e657260448201526064016105d3565b73ffffffffffffffffffffffffffffffffffffffff8116612a75576040517f08c379a000000000000000000000000000000000000000000000000000000000815260206004820152602660248201527f4f776e61626c653a206e6577206f776e657220697320746865207a65726f206160448201527f646472657373000000000000000000000000000000000000000000000000000060648201526084016105d3565b612a7e816130ba565b50565b73ffffffffffffffffffffffffffffffffffffffff8516612afe576040517f08c379a000000000000000000000000000000000000000000000000000000000815260206004820152601260248201527f307834653a205a45524f5f41444452455353000000000000000000000000000060448201526064016105d3565b612b6360405180610120016040528060008152602001600081526020016000815260200160008152602001600081526020016000815260200160008152602001600073ffffffffffffffffffffffffffffffffffffffff168152602001600081525090565b6000807f000000000000000000000000000000000000000000000000000000000000000073ffffffffffffffffffffffffffffffffffffffff166329c705c7338c8c8c8b612bb2576000612bb5565b60015b60ff16178c8b8b6040518863ffffffff1660e01b8152600401612bde97969594939291906145ab565b600060405180830381600087803b158015612bf857600080fd5b505af1158015612c0c573d6000803e3d6000fd5b505050506040513d6000823e601f3d9081017fffffffffffffffffffffffffffffffffffffffffffffffffffffffffffffffe0168201604052612c529190810190614198565b8098508194508295508396505050505088836000015184602001517f48d03a5fc1af697513321cb1c46d64e8bd022e7ac66677b2cd1ea5ac3dddb1238b8e87878c33604051612ca696959493929190614661565b60405180910390a450505050505050505050565b600082815260026020908152604080832080548251818502810185019093528083529192909190849084015b82821015612de7576000848152602090819020604080516080810182526003860290920180548352600181015460ff81169484019490945261010090930473ffffffffffffffffffffffffffffffffffffffff1690820152600282018054919291606084019190612d56906149d8565b80601f0160208091040260200160405190810160405280929190818152602001828054612d82906149d8565b8015612dcf5780601f10612da457610100808354040283529160200191612dcf565b820191906000526020600020905b815481529060010190602001808311612db257829003601f168201915b50505050508152505081526020019060010190612ce6565b5050506000858152600260205260408120929350612e06929150613bad565b60005b81518110156130b45782612ee25760008481526002602052604090208251839083908110612e3957612e39614ac3565b6020908102919091018101518254600181810185556000948552938390208251600390920201908155818301519381018054604084015173ffffffffffffffffffffffffffffffffffffffff16610100027fffffffffffffffffffffff00000000000000000000000000000000000000000090911660ff909616959095179490941790935560608101518051919392612eda92600285019290910190613bce565b5050506130a2565b818181518110612ef457612ef4614ac3565b6020026020010151600001518310612f3657818181518110612f1857612f18614ac3565b60200260200101516000015183612f2f9190614995565b92506130a2565b60026000858152602001908152602001600020604051806080016040528085858581518110612f6757612f67614ac3565b602002602001015160000151612f7d9190614995565b8152602001848481518110612f9457612f94614ac3565b60200260200101516020015160ff168152602001848481518110612fba57612fba614ac3565b60200260200101516040015173ffffffffffffffffffffffffffffffffffffffff168152602001848481518110612ff357612ff3614ac3565b6020908102919091018101516060908101519092528354600181810186556000958652948290208451600390920201908155838201519481018054604086015173ffffffffffffffffffffffffffffffffffffffff16610100027fffffffffffffffffffffff00000000000000000000000000000000000000000090911660ff909716969096179590951790945590820151805192939261309a9260028501920190613bce565b505050600092505b806130ac81614a2c565b915050612e09565b50505050565b6000805473ffffffffffffffffffffffffffffffffffffffff8381167fffffffffffffffffffffffff0000000000000000000000000000000000000000831681178455604051919092169283917f8be0079c531659141344cd1fd0a4f28419497f9722a3daafe3b4186f6b6457e09190a35050565b600080807fffffffffffffffffffffffffffffffffffffffffffffffffffffffffffffffff85870985870292508281108382030391505080600014156131885783828161317e5761317e614a94565b0492505050612541565b8381106131cb576040517f773cc18c00000000000000000000000000000000000000000000000000000000815260048101829052602481018590526044016105d3565b60008486880960026001871981018816978890046003810283188082028403028082028403028082028403028082028403028082028403029081029092039091026000889003889004909101858311909403939093029303949094049190911702949350505050565b6040517f862026500000000000000000000000000000000000000000000000000000000081526001600482015273ffffffffffffffffffffffffffffffffffffffff7f0000000000000000000000000000000000000000000000000000000000000000811660248301526000917f00000000000000000000000000000000000000000000000000000000000000009091169063862026509060440160206040518083038186803b1580156132e757600080fd5b505afa1580156132fb573d6000803e3d6000fd5b505050506040513d601f19601f8201168201806040525081019061331f9190613ea6565b905073ffffffffffffffffffffffffffffffffffffffff811630146133de5760408051602081018252600080825291517f0393045300000000000000000000000000000000000000000000000000000000815273ffffffffffffffffffffffffffffffffffffffff84169263039304539288926133a7926001928a9282918b916004016146ee565b6000604051808303818588803b1580156133c057600080fd5b505af11580156133d4573d6000803e3d6000fd5b50505050506130b4565b6130b4846001856000808760405180602001604052806000815250612a81565b600061341a8460c860035460c86134159190614958565b61312f565b6134249085614995565b9050806134335750600061351e565b61010085015160401c600116156134545761344f818484613234565b61351e565b600086815260026020818152604080842081516080810183528981526003805460ff90811683870190815273ffffffffffffffffffffffffffffffffffffffff808d16968501968752606085018c8152865460018181018955978c529a89902086519b909502909401998a55905194890180549651909116610100027fffffffffffffffffffffff0000000000000000000000000000000000000000009096169490911693909317939093179091559051805191949361351a9390850192910190613bce565b5050505b95945050505050565b80471015613591576040517f08c379a000000000000000000000000000000000000000000000000000000000815260206004820152601d60248201527f416464726573733a20696e73756666696369656e742062616c616e636500000060448201526064016105d3565b60008273ffffffffffffffffffffffffffffffffffffffff168260405160006040518083038185875af1925050503d80600081146135eb576040519150601f19603f3d011682016040523d82523d6000602084013e6135f0565b606091505b5050905080613681576040517f08c379a000000000000000000000000000000000000000000000000000000000815260206004820152603a60248201527f416464726573733a20756e61626c6520746f2073656e642076616c75652c207260448201527f6563697069656e74206d6179206861766520726576657274656400000000000060648201526084016105d3565b505050565b60208301516040517f69e11cc50000000000000000000000000000000000000000000000000000000081526004810186905260248101919091526001604482015282906000907f000000000000000000000000000000000000000000000000000000000000000073ffffffffffffffffffffffffffffffffffffffff16906369e11cc59060640160006040518083038186803b15801561372557600080fd5b505afa158015613739573d6000803e3d6000fd5b505050506040513d6000823e601f3d9081017fffffffffffffffffffffffffffffffffffffffffffffffffffffffffffffffe016820160405261377f9190810190613f7d565b905060005b8151811015613ba35760008282815181106137a1576137a1614ac3565b6020026020010151905060006137c487836020015162ffffff166298968061312f565b90508015613b4857608082015173ffffffffffffffffffffffffffffffffffffffff16156138b257608082015160a0830151606084015184516040517fc8e84e020000000000000000000000000000000000000000000000000000000081526004810186905260016024820152604481018e905266ffffffffffffff909316606484015273ffffffffffffffffffffffffffffffffffffffff9182166084840152151560a48301529091169063c8e84e0290839060c4016000604051808303818588803b15801561389457600080fd5b505af11580156138a8573d6000803e3d6000fd5b5050505050613b3b565b60a082015166ffffffffffffff1615613b2d5760a08201516040517f8620265000000000000000000000000000000000000000000000000000000000815266ffffffffffffff909116600482015273ffffffffffffffffffffffffffffffffffffffff7f0000000000000000000000000000000000000000000000000000000000000000811660248301526000917f00000000000000000000000000000000000000000000000000000000000000009091169063862026509060440160206040518083038186803b15801561398657600080fd5b505afa15801561399a573d6000803e3d6000fd5b505050506040513d601f19601f820116820180604052508101906139be9190613ea6565b905073ffffffffffffffffffffffffffffffffffffffff8116613a3d576040517f08c379a000000000000000000000000000000000000000000000000000000000815260206004820152600f60248201527f307834643a204241445f53504c4954000000000000000000000000000000000060448201526064016105d3565b73ffffffffffffffffffffffffffffffffffffffff8116301415613a9457613a8f828460a0015166ffffffffffffff168560600151600087600001518c60405180602001604052806000815250612a81565b613b27565b8073ffffffffffffffffffffffffffffffffffffffff166303930453838560a001518660600151600088600001518d604051806020016040528060008152506040518863ffffffff1660e01b8152600401613af49695949392919061482a565b6000604051808303818588803b158015613b0d57600080fd5b505af1158015613b21573d6000803e3d6000fd5b50505050505b50613b3b565b613b3b826060015182613527565b613b458186614995565b94505b88886000015189602001517fc73cc9f177400b05d720ad3d28476321ead9adcd5e8a9e135e58f54458e35e3b858533604051613b8693929190614750565b60405180910390a450508080613b9b90614a2c565b915050613784565b5050949350505050565b5080546000825560030290600052602060002090810190612a7e9190613c52565b828054613bda906149d8565b90600052602060002090601f016020900481019282613bfc5760008555613c42565b82601f10613c1557805160ff1916838001178555613c42565b82800160010185558215613c42579182015b82811115613c42578251825591602001919060010190613c27565b50613c4e929150613c9f565b5090565b80821115613c4e5760008082556001820180547fffffffffffffffffffffff000000000000000000000000000000000000000000169055613c966002830182613cb4565b50600301613c52565b5b80821115613c4e5760008155600101613ca0565b508054613cc0906149d8565b6000825580601f10613cd0575050565b601f016020900490600052602060002090810190612a7e9190613c9f565b6000613d01613cfc84614912565b6148c3565b9050828152838383011115613d1557600080fd5b828260208301376000602084830101529392505050565b8051613d3781614b21565b919050565b60008083601f840112613d4e57600080fd5b50813567ffffffffffffffff811115613d6657600080fd5b602083019150836020828501011115613d7e57600080fd5b9250929050565b600082601f830112613d9657600080fd5b61254183833560208501613cee565b600082601f830112613db657600080fd5b8151613dc4613cfc82614912565b818152846020838601011115613dd957600080fd5b613dea8260208301602087016149ac565b949350505050565b60006101208284031215613e0557600080fd5b613e0d614876565b9050815181526020820151602082015260408201516040820152606082015160608201526080820151608082015260a082015160a082015260c082015160c0820152613e5b60e08301613d2c565b60e082015261010080830151818301525092915050565b805166ffffffffffffff81168114613d3757600080fd5b600060208284031215613e9b57600080fd5b813561254181614b21565b600060208284031215613eb857600080fd5b815161254181614b21565b600080600080600080600060e0888a031215613ede57600080fd5b8735613ee981614b21565b96506020880135955060408801359450606088013593506080880135613f0e81614b21565b925060a088013567ffffffffffffffff80821115613f2b57600080fd5b613f378b838c01613d85565b935060c08a0135915080821115613f4d57600080fd5b508801601f81018a13613f5f57600080fd5b613f6e8a823560208401613cee565b91505092959891949750929550565b60006020808385031215613f9057600080fd5b825167ffffffffffffffff80821115613fa857600080fd5b818501915085601f830112613fbc57600080fd5b815181811115613fce57613fce614af2565b613fdc848260051b016148c3565b818152848101925083850160c0808402860187018a1015613ffc57600080fd5b600095505b838610156140ad5780828b03121561401857600080fd5b6140206148a0565b825161402b81614b43565b81528288015162ffffff8116811461404257600080fd5b8189015260408381015165ffffffffffff8116811461406057600080fd5b908201526060614071848201613d2c565b908201526080614082848201613d2c565b9082015260a0614093848201613e72565b908201528552600195909501949386019390810190614001565b509098975050505050505050565b6000602082840312156140cd57600080fd5b815161254181614b43565b6000602082840312156140ea57600080fd5b5051919050565b6000610120828403121561410457600080fd5b6125418383613df2565b600080610140838503121561412257600080fd5b61412c8484613df2565b915061012083015190509250929050565b6000806000610160848603121561415357600080fd5b61415d8585613df2565b9250610120840151915061014084015167ffffffffffffffff81111561418257600080fd5b61418e86828701613da5565b9150509250925092565b60008060008061018085870312156141af57600080fd5b6141b98686613df2565b93506101208501519250610140850151915061016085015167ffffffffffffffff8111156141e657600080fd5b6141f287828801613da5565b91505092959194509250565b60006020828403121561421057600080fd5b5035919050565b60008060008060008060008060c0898b03121561423357600080fd5b88359750602089013561424581614b21565b965060408901359550606089013561425c81614b43565b9450608089013567ffffffffffffffff8082111561427957600080fd5b6142858c838d01613d3c565b909650945060a08b013591508082111561429e57600080fd5b506142ab8b828c01613d3c565b999c989b5096995094979396929594505050565b600080604083850312156142d257600080fd5b8235915060208301356142e481614b21565b809150509250929050565b6000806040838503121561430257600080fd5b82359150602083013567ffffffffffffffff81111561432057600080fd5b61432c85828601613d85565b9150509250929050565b60008060006060848603121561434b57600080fd5b505081359360208301359350604090920135919050565b600080600080600060a0868803121561437a57600080fd5b8535945060208601359350604086013592506060860135915060808601356143a181614b21565b809150509295509295909350565b600080600080600060a086880312156143c757600080fd5b85359450602086013593506040860135925060608601359150608086013567ffffffffffffffff8111156143fa57600080fd5b61440688828901613d85565b9150509295509295909350565b6000815180845260208085019450848260051b860182860160005b8581101561449b5783830389528151805184528581015160ff168685015260408082015173ffffffffffffffffffffffffffffffffffffffff1690850152606090810151608091850182905290614487818601836144a8565b9a87019a945050509084019060010161442e565b5090979650505050505050565b600081518084526144c08160208601602086016149ac565b601f017fffffffffffffffffffffffffffffffffffffffffffffffffffffffffffffffe0169290920160200192915050565b600073ffffffffffffffffffffffffffffffffffffffff808a16835288602084015287604084015286606084015285608084015260e060a084015261453a60e08401866144a8565b915080841660c08401525098975050505050505050565b600073ffffffffffffffffffffffffffffffffffffffff8089168352808816602084015286604084015285606084015260c0608084015261459560c08401866144a8565b915080841660a084015250979650505050505050565b600073ffffffffffffffffffffffffffffffffffffffff808a16835288602084015287604084015280871660608401525084608083015260e060a08301526145f660e08301856144a8565b82810360c084015261460881856144a8565b9a9950505050505050505050565b600073ffffffffffffffffffffffffffffffffffffffff808a16835288602084015287604084015286606084015280861660808401525060e060a08301526145f660e08301856144a8565b600073ffffffffffffffffffffffffffffffffffffffff808916835287602084015286604084015285606084015260c0608084015261459560c08401866144a8565b6020815260006125416020830184614413565b6040815260006146c96040830185614413565b905073ffffffffffffffffffffffffffffffffffffffff831660208301529392505050565b86815273ffffffffffffffffffffffffffffffffffffffff86166020820152846040820152831515606082015260c06080820152600061473160c08301856144a8565b82810360a084015261474381856144a8565b9998505050505050505050565b60006101008201905084511515825262ffffff602086015116602083015265ffffffffffff6040860151166040830152606085015173ffffffffffffffffffffffffffffffffffffffff8082166060850152806080880151166080850152505066ffffffffffffff60a08601511660a08301528360c0830152613dea60e083018473ffffffffffffffffffffffffffffffffffffffff169052565b83815260606020820152600061480460608301856144a8565b905073ffffffffffffffffffffffffffffffffffffffff83166040830152949350505050565b66ffffffffffffff8716815273ffffffffffffffffffffffffffffffffffffffff86166020820152846040820152831515606082015260c06080820152600061473160c08301856144a8565b604051610120810167ffffffffffffffff8111828210171561489a5761489a614af2565b60405290565b60405160c0810167ffffffffffffffff8111828210171561489a5761489a614af2565b604051601f82017fffffffffffffffffffffffffffffffffffffffffffffffffffffffffffffffe016810167ffffffffffffffff8111828210171561490a5761490a614af2565b604052919050565b600067ffffffffffffffff82111561492c5761492c614af2565b50601f017fffffffffffffffffffffffffffffffffffffffffffffffffffffffffffffffe01660200190565b6000821982111561496b5761496b614a65565b500190565b600060ff821660ff84168060ff0382111561498d5761498d614a65565b019392505050565b6000828210156149a7576149a7614a65565b500390565b60005b838110156149c75781810151838201526020016149af565b838111156130b45750506000910152565b600181811c908216806149ec57607f821691505b60208210811415614a26577f4e487b7100000000000000000000000000000000000000000000000000000000600052602260045260246000fd5b50919050565b60007fffffffffffffffffffffffffffffffffffffffffffffffffffffffffffffffff821415614a5e57614a5e614a65565b5060010190565b7f4e487b7100000000000000000000000000000000000000000000000000000000600052601160045260246000fd5b7f4e487b7100000000000000000000000000000000000000000000000000000000600052601260045260246000fd5b7f4e487b7100000000000000000000000000000000000000000000000000000000600052603260045260246000fd5b7f4e487b7100000000000000000000000000000000000000000000000000000000600052604160045260246000fd5b73ffffffffffffffffffffffffffffffffffffffff81168114612a7e57600080fd5b8015158114612a7e57600080fdfea26469706673582212204c7a0e9b005deeb2e0cd8a9e8d9ab90805541106ec76d326c7c132587209084864736f6c63430008060033",
  "devdoc": {
    "details": " A project can transfer its funds, along with the power to reconfigure and mint/burn their tokens, from this contract to another allowed terminal contract at any time. Inherits from: IJBPaymentTerminal - general interface for the methods in this contract that send and receive funds according to the Juicebox protocol's rules. JBOperatable - several functions in this contract can only be accessed by a project owner, or an address that has been preconfifigured to be an operator of the project. ReentrencyGuard - several function in this contract shouldn't be accessible recursively.",
    "kind": "dev",
    "methods": {
      "addToBalanceOf(uint256,string)": {
        "params": {
          "_memo": "A memo to pass along to the emitted event.",
          "_projectId": "The ID of the project to which the funds received belong."
        }
      },
      "constructor": {
        "params": {
          "_directory": "A contract storing directories of terminals and controllers for each project.",
          "_operatorStore": "A contract storing operator assignments.",
          "_owner": "The address that will own this contract.",
          "_projects": "A contract which mints ERC-721's that represent project ownership and transfers.",
          "_splitsStore": "A contract that stores splits for each project.",
          "_store": "A contract that stores the terminal's data."
        }
      },
      "delegate()": {
        "returns": {
          "_0": "The delegate address."
        }
      },
      "distributePayoutsOf(uint256,uint256,uint256,uint256,string)": {
        "details": "Payouts are sent to the preprogrammed splits. Anyone can distribute payouts on a project's behalf.",
        "params": {
          "_amount": "The amount being distributed.",
          "_currency": "The expected currency of the amount being distributed. Must match the project's current funding cycle's currency.",
          "_minReturnedWei": "The minimum number of wei that the amount should be valued at.",
          "_projectId": "The ID of the project having its payouts distributed."
        }
      },
      "ethBalanceOf(uint256)": {
        "params": {
          "_projectId": "The ID of the project to which the balance belongs."
        },
        "returns": {
          "_0": "The ETH balance."
        }
      },
      "heldFeesOf(uint256)": {
        "params": {
          "_projectId": "The ID of the project for which fees are being held."
        },
        "returns": {
          "_0": "An array of fees that are being held."
        }
      },
      "migrate(uint256,address)": {
        "details": "Only a project's owner or a designated operator can migrate it.",
        "params": {
          "_projectId": "The ID of the project being migrated.",
          "_to": "The terminal contract that will gain the project's funds."
        }
      },
      "owner()": {
        "details": "Returns the address of the current owner."
      },
      "pay(uint256,address,uint256,bool,string,bytes)": {
        "details": "The msg.value is the amount of the contribution in wei.",
        "params": {
          "_beneficiary": "The address to mint tokens for and pass along to the funding cycle's data source and delegate.",
          "_delegateMetadata": "Bytes to send along to the delegate, if one is provided.",
          "_memo": "A memo to pass along to the emitted event, and passed along the the funding cycle's data source and delegate.",
          "_minReturnedTokens": "The minimum number of tokens expected in return.",
          "_preferClaimedTokens": "A flag indicating whether the request prefers to issue tokens unstaked rather than staked.",
          "_projectId": "The ID of the project being paid."
        }
      },
      "processFees(uint256)": {
        "details": "Only a project owner, an operator, or the contract's owner can process held fees.",
        "params": {
          "_projectId": "The ID of the project whos held fees should be processed."
        }
      },
      "redeemTokensOf(address,uint256,uint256,uint256,address,string,bytes)": {
        "details": "Only a token's holder or a designated operator can redeem it.",
        "params": {
          "_beneficiary": "The address to send the ETH to. Send the address this contract to burn the count.",
          "_delegateMetadata": "Bytes to send along to the delegate, if one is provided.",
          "_holder": "The account to redeem tokens for.",
          "_memo": "A memo to pass along to the emitted event.",
          "_minReturnedWei": "The minimum amount of Wei expected in return.",
          "_projectId": "The ID of the project to which the tokens being redeemed belong.",
          "_tokenCount": "The number of tokens to redeem."
        },
        "returns": {
          "claimAmount": "The amount of ETH that the tokens were redeemed for, in wei."
        }
      },
      "remainingDistributionLimitOf(uint256,uint256,uint256)": {
        "params": {
          "_fundingCycleConfiguration": "The funding cycle configuration during which the limit remaining is being calculated. ",
          "_fundingCycleNumber": "The number of the funding cycle during which the limit remaining is being calculated. ",
          "_projectId": "The ID of the project to which the remaining limit belongs."
        },
        "returns": {
          "_0": "The remaining distribution limit for this terminal."
        }
      },
      "renounceOwnership()": {
        "details": "Leaves the contract without owner. It will not be possible to call `onlyOwner` functions anymore. Can only be called by the current owner. NOTE: Renouncing ownership will leave the contract without an owner, thereby removing any functionality that is only available to the owner."
      },
      "setFee(uint256)": {
        "details": "Only the owner of this contract can change the fee.",
        "params": {
          "_fee": "The new fee."
        }
      },
      "transferOwnership(address)": {
        "details": "Transfers ownership of the contract to a new account (`newOwner`). Can only be called by the current owner."
      },
      "useAllowanceOf(uint256,uint256,uint256,uint256,address)": {
        "details": " Only a project's owner or a designated operator can migrate it.",
        "params": {
          "_amount": "The amount of the allowance to use.",
          "_beneficiary": "The address to send the funds to.",
          "_projectId": "The ID of the project to use the allowance of."
        }
      }
    },
    "stateVariables": {
      "fee": {
        "details": " Out of 200."
      },
      "token": {
        "details": "ETH is represented as address 0x0000000000000000000000000000000000069420."
      }
    },
    "version": 1
  },
  "userdoc": {
    "errors": {
      "PRBMath__MulDivOverflow(uint256,uint256)": [
        {
          "notice": "Emitted when the result overflows uint256."
        }
      ]
    },
    "kind": "user",
    "methods": {
      "addToBalanceOf(uint256,string)": {
        "notice": "Receives funds belonging to the specified project."
      },
      "delegate()": {
        "notice": "An address that serves as this terminal's delegate when making requests to juicebox ecosystem contracts."
      },
      "directory()": {
        "notice": "The directory of terminals and controllers for projects."
      },
      "distributePayoutsOf(uint256,uint256,uint256,uint256,string)": {
        "notice": " Distributes payouts for a project according to the constraints of its current funding cycle."
      },
      "ethBalanceOf(uint256)": {
        "notice": " The ETH balance that this terminal holds for each project."
      },
      "fee()": {
        "notice": " The platform fee percent."
      },
      "heldFeesOf(uint256)": {
        "notice": " The fees that are currently being held to be processed later for each project."
      },
      "migrate(uint256,address)": {
        "notice": "Allows a project owner to migrate its funds and operations to a new terminal."
      },
      "operatorStore()": {
        "notice": " A contract storing operator assignments."
      },
      "pay(uint256,address,uint256,bool,string,bytes)": {
        "notice": "Contribute ETH to a project."
      },
      "processFees(uint256)": {
        "notice": "Process any fees that are being held for the project."
      },
      "projects()": {
        "notice": "The Projects contract which mints ERC-721's that represent project ownership and transfers."
      },
      "redeemTokensOf(address,uint256,uint256,uint256,address,string,bytes)": {
        "notice": "Addresses can redeem their tokens to claim the project's overflowed ETH, or to trigger rules determined by the project's current funding cycle's data source."
      },
      "remainingDistributionLimitOf(uint256,uint256,uint256)": {
        "notice": " The amount of funds that can still be distributed within the preconfigured limit."
      },
      "setFee(uint256)": {
        "notice": "Allows the fee to be updated for subsequent funding cycle configurations."
      },
      "splitsStore()": {
        "notice": "The contract that stores splits for each project."
      },
      "store()": {
        "notice": " The contract that stores and manages the terminal's data."
      },
      "token()": {
        "notice": " The token that this terminal accepts. "
      },
      "useAllowanceOf(uint256,uint256,uint256,uint256,address)": {
        "notice": " Allows a project to send funds from its overflow up to the preconfigured allowance."
      }
    },
    "notice": "This contract manages all inflows and outflows of funds into the Juicebox ecosystem.",
    "version": 1
  },
  "storageLayout": {
    "storage": [
      {
        "astId": 53,
        "contract": "contracts/v2/JBETHPaymentTerminal.sol:JBETHPaymentTerminal",
        "label": "_owner",
        "offset": 0,
        "slot": "0",
        "type": "t_address"
      },
      {
        "astId": 160,
        "contract": "contracts/v2/JBETHPaymentTerminal.sol:JBETHPaymentTerminal",
        "label": "_status",
        "offset": 0,
        "slot": "1",
        "type": "t_uint256"
      },
      {
        "astId": 17507,
        "contract": "contracts/v2/JBETHPaymentTerminal.sol:JBETHPaymentTerminal",
        "label": "_heldFeesOf",
        "offset": 0,
        "slot": "2",
        "type": "t_mapping(t_uint256,t_array(t_struct(JBFee)26049_storage)dyn_storage)"
      },
      {
        "astId": 17535,
        "contract": "contracts/v2/JBETHPaymentTerminal.sol:JBETHPaymentTerminal",
        "label": "fee",
        "offset": 0,
        "slot": "3",
        "type": "t_uint256"
      }
    ],
    "types": {
      "t_address": {
        "encoding": "inplace",
        "label": "address",
        "numberOfBytes": "20"
      },
      "t_array(t_struct(JBFee)26049_storage)dyn_storage": {
        "base": "t_struct(JBFee)26049_storage",
        "encoding": "dynamic_array",
        "label": "struct JBFee[]",
        "numberOfBytes": "32"
      },
      "t_mapping(t_uint256,t_array(t_struct(JBFee)26049_storage)dyn_storage)": {
        "encoding": "mapping",
        "key": "t_uint256",
        "label": "mapping(uint256 => struct JBFee[])",
        "numberOfBytes": "32",
        "value": "t_array(t_struct(JBFee)26049_storage)dyn_storage"
      },
      "t_string_storage": {
        "encoding": "bytes",
        "label": "string",
        "numberOfBytes": "32"
      },
      "t_struct(JBFee)26049_storage": {
        "encoding": "inplace",
        "label": "struct JBFee",
        "members": [
          {
            "astId": 26042,
            "contract": "contracts/v2/JBETHPaymentTerminal.sol:JBETHPaymentTerminal",
            "label": "amount",
            "offset": 0,
            "slot": "0",
            "type": "t_uint256"
          },
          {
            "astId": 26044,
            "contract": "contracts/v2/JBETHPaymentTerminal.sol:JBETHPaymentTerminal",
            "label": "fee",
            "offset": 0,
            "slot": "1",
            "type": "t_uint8"
          },
          {
            "astId": 26046,
            "contract": "contracts/v2/JBETHPaymentTerminal.sol:JBETHPaymentTerminal",
            "label": "beneficiary",
            "offset": 1,
            "slot": "1",
            "type": "t_address"
          },
          {
            "astId": 26048,
            "contract": "contracts/v2/JBETHPaymentTerminal.sol:JBETHPaymentTerminal",
            "label": "memo",
            "offset": 0,
            "slot": "2",
            "type": "t_string_storage"
          }
        ],
        "numberOfBytes": "96"
      },
      "t_uint256": {
        "encoding": "inplace",
        "label": "uint256",
        "numberOfBytes": "32"
      },
      "t_uint8": {
        "encoding": "inplace",
        "label": "uint8",
        "numberOfBytes": "1"
      }
    }
  }
}