{
  "address": "0x470cc25f219ccDD58C9A2Ab0B633bA50aBeE22b8",
  "abi": [
    {
      "inputs": [
        {
          "internalType": "contract IJBOperatorStore",
          "name": "_operatorStore",
          "type": "address"
        },
        {
          "internalType": "contract IJBProjects",
          "name": "_projects",
          "type": "address"
        },
        {
          "internalType": "contract IJBDirectory",
          "name": "_directory",
          "type": "address"
        },
        {
          "internalType": "contract IJBSplitsStore",
          "name": "_splitsStore",
          "type": "address"
        },
        {
          "internalType": "contract JBETHPaymentTerminalStore",
          "name": "_store",
          "type": "address"
        },
        {
          "internalType": "address",
          "name": "_owner",
          "type": "address"
        }
      ],
      "stateMutability": "nonpayable",
      "type": "constructor"
    },
    {
      "inputs": [],
      "name": "FEE_TOO_HIGH",
      "type": "error"
    },
    {
      "inputs": [],
      "name": "PAY_TO_ZERO_ADDRESS",
      "type": "error"
    },
    {
      "inputs": [
        {
          "internalType": "uint256",
          "name": "prod1",
          "type": "uint256"
        },
        {
          "internalType": "uint256",
          "name": "denominator",
          "type": "uint256"
        }
      ],
      "name": "PRBMath__MulDivOverflow",
      "type": "error"
    },
    {
      "inputs": [],
      "name": "REDEEM_TO_ZERO_ADDRESS",
      "type": "error"
    },
    {
      "inputs": [],
      "name": "TERMINAL_IN_SPLIT_ZERO_ADDRESS",
      "type": "error"
    },
    {
      "inputs": [],
      "name": "TERMINAL_TOKENS_INCOMPATIBLE",
      "type": "error"
    },
    {
      "inputs": [],
      "name": "UNAUTHORIZED",
      "type": "error"
    },
    {
      "inputs": [],
      "name": "ZERO_VALUE_SENT",
      "type": "error"
    },
    {
      "anonymous": false,
      "inputs": [
        {
          "indexed": true,
          "internalType": "uint256",
          "name": "projectId",
          "type": "uint256"
        },
        {
          "indexed": false,
          "internalType": "uint256",
          "name": "amount",
          "type": "uint256"
        },
        {
          "indexed": false,
          "internalType": "string",
          "name": "memo",
          "type": "string"
        },
        {
          "indexed": false,
          "internalType": "address",
          "name": "caller",
          "type": "address"
        }
      ],
      "name": "AddToBalance",
      "type": "event"
    },
    {
      "anonymous": false,
      "inputs": [
        {
          "indexed": true,
          "internalType": "uint256",
          "name": "fundingCycleConfiguration",
          "type": "uint256"
        },
        {
          "indexed": true,
          "internalType": "uint256",
          "name": "fundingCycleNumber",
          "type": "uint256"
        },
        {
          "indexed": true,
          "internalType": "uint256",
          "name": "projectId",
          "type": "uint256"
        },
        {
          "indexed": false,
          "internalType": "address",
          "name": "beneficiary",
          "type": "address"
        },
        {
          "indexed": false,
          "internalType": "uint256",
          "name": "amount",
          "type": "uint256"
        },
        {
          "indexed": false,
          "internalType": "uint256",
          "name": "distributedAmount",
          "type": "uint256"
        },
        {
          "indexed": false,
          "internalType": "uint256",
          "name": "feeAmount",
          "type": "uint256"
        },
        {
          "indexed": false,
          "internalType": "uint256",
          "name": "beneficiaryDistributionAmount",
          "type": "uint256"
        },
        {
          "indexed": false,
          "internalType": "string",
          "name": "memo",
          "type": "string"
        },
        {
          "indexed": false,
          "internalType": "address",
          "name": "caller",
          "type": "address"
        }
      ],
      "name": "DistributePayouts",
      "type": "event"
    },
    {
      "anonymous": false,
      "inputs": [
        {
          "indexed": true,
          "internalType": "uint256",
          "name": "fundingCycleConfiguration",
          "type": "uint256"
        },
        {
          "indexed": true,
          "internalType": "uint256",
          "name": "fundingCycleNumber",
          "type": "uint256"
        },
        {
          "indexed": true,
          "internalType": "uint256",
          "name": "projectId",
          "type": "uint256"
        },
        {
          "components": [
            {
              "internalType": "bool",
              "name": "preferClaimed",
              "type": "bool"
            },
            {
              "internalType": "uint32",
              "name": "percent",
              "type": "uint32"
            },
            {
              "internalType": "uint56",
              "name": "projectId",
              "type": "uint56"
            },
            {
              "internalType": "address payable",
              "name": "beneficiary",
              "type": "address"
            },
            {
              "internalType": "contract IJBSplitAllocator",
              "name": "allocator",
              "type": "address"
            },
            {
              "internalType": "uint48",
              "name": "lockedUntil",
              "type": "uint48"
            }
          ],
          "indexed": false,
          "internalType": "struct JBSplit",
          "name": "split",
          "type": "tuple"
        },
        {
          "indexed": false,
          "internalType": "uint256",
          "name": "amount",
          "type": "uint256"
        },
        {
          "indexed": false,
          "internalType": "address",
          "name": "caller",
          "type": "address"
        }
      ],
      "name": "DistributeToPayoutSplit",
      "type": "event"
    },
    {
      "anonymous": false,
      "inputs": [
        {
          "indexed": true,
          "internalType": "uint256",
          "name": "projectId",
          "type": "uint256"
        },
        {
          "indexed": true,
          "internalType": "contract IJBTerminal",
          "name": "to",
          "type": "address"
        },
        {
          "indexed": false,
          "internalType": "uint256",
          "name": "amount",
          "type": "uint256"
        },
        {
          "indexed": false,
          "internalType": "address",
          "name": "caller",
          "type": "address"
        }
      ],
      "name": "Migrate",
      "type": "event"
    },
    {
      "anonymous": false,
      "inputs": [
        {
          "indexed": true,
          "internalType": "address",
          "name": "previousOwner",
          "type": "address"
        },
        {
          "indexed": true,
          "internalType": "address",
          "name": "newOwner",
          "type": "address"
        }
      ],
      "name": "OwnershipTransferred",
      "type": "event"
    },
    {
      "anonymous": false,
      "inputs": [
        {
          "indexed": true,
          "internalType": "uint256",
          "name": "fundingCycleConfiguration",
          "type": "uint256"
        },
        {
          "indexed": true,
          "internalType": "uint256",
          "name": "fundingCycleNumber",
          "type": "uint256"
        },
        {
          "indexed": true,
          "internalType": "uint256",
          "name": "projectId",
          "type": "uint256"
        },
        {
          "indexed": false,
          "internalType": "address",
          "name": "beneficiary",
          "type": "address"
        },
        {
          "indexed": false,
          "internalType": "uint256",
          "name": "amount",
          "type": "uint256"
        },
        {
          "indexed": false,
          "internalType": "uint256",
          "name": "weight",
          "type": "uint256"
        },
        {
          "indexed": false,
          "internalType": "uint256",
          "name": "tokenCount",
          "type": "uint256"
        },
        {
          "indexed": false,
          "internalType": "string",
          "name": "memo",
          "type": "string"
        },
        {
          "indexed": false,
          "internalType": "address",
          "name": "caller",
          "type": "address"
        }
      ],
      "name": "Pay",
      "type": "event"
    },
    {
      "anonymous": false,
      "inputs": [
        {
          "indexed": true,
          "internalType": "uint256",
          "name": "projectId",
          "type": "uint256"
        },
        {
          "components": [
            {
              "internalType": "uint256",
              "name": "amount",
              "type": "uint256"
            },
            {
              "internalType": "uint8",
              "name": "fee",
              "type": "uint8"
            },
            {
              "internalType": "address",
              "name": "beneficiary",
              "type": "address"
            },
            {
              "internalType": "string",
              "name": "memo",
              "type": "string"
            }
          ],
          "indexed": false,
          "internalType": "struct JBFee[]",
          "name": "fees",
          "type": "tuple[]"
        },
        {
          "indexed": false,
          "internalType": "address",
          "name": "caller",
          "type": "address"
        }
      ],
      "name": "ProcessFees",
      "type": "event"
    },
    {
      "anonymous": false,
      "inputs": [
        {
          "indexed": true,
          "internalType": "uint256",
          "name": "fundingCycleConfiguration",
          "type": "uint256"
        },
        {
          "indexed": true,
          "internalType": "uint256",
          "name": "fundingCycleNumber",
          "type": "uint256"
        },
        {
          "indexed": true,
          "internalType": "uint256",
          "name": "projectId",
          "type": "uint256"
        },
        {
          "indexed": false,
          "internalType": "address",
          "name": "holder",
          "type": "address"
        },
        {
          "indexed": false,
          "internalType": "address",
          "name": "beneficiary",
          "type": "address"
        },
        {
          "indexed": false,
          "internalType": "uint256",
          "name": "tokenCount",
          "type": "uint256"
        },
        {
          "indexed": false,
          "internalType": "uint256",
          "name": "claimedAmount",
          "type": "uint256"
        },
        {
          "indexed": false,
          "internalType": "string",
          "name": "memo",
          "type": "string"
        },
        {
          "indexed": false,
          "internalType": "address",
          "name": "caller",
          "type": "address"
        }
      ],
      "name": "RedeemTokens",
      "type": "event"
    },
    {
      "anonymous": false,
      "inputs": [
        {
          "indexed": false,
          "internalType": "uint256",
          "name": "fee",
          "type": "uint256"
        },
        {
          "indexed": false,
          "internalType": "address",
          "name": "caller",
          "type": "address"
        }
      ],
      "name": "SetFee",
      "type": "event"
    },
    {
      "anonymous": false,
      "inputs": [
        {
          "indexed": true,
          "internalType": "uint256",
          "name": "fundingCycleConfiguration",
          "type": "uint256"
        },
        {
          "indexed": true,
          "internalType": "uint256",
          "name": "fundingCycleNumber",
          "type": "uint256"
        },
        {
          "indexed": true,
          "internalType": "uint256",
          "name": "projectId",
          "type": "uint256"
        },
        {
          "indexed": false,
          "internalType": "address",
          "name": "beneficiary",
          "type": "address"
        },
        {
          "indexed": false,
          "internalType": "uint256",
          "name": "amount",
          "type": "uint256"
        },
        {
          "indexed": false,
          "internalType": "uint256",
          "name": "feeAmount",
          "type": "uint256"
        },
        {
          "indexed": false,
          "internalType": "uint256",
          "name": "transferAmount",
          "type": "uint256"
        },
        {
          "indexed": false,
          "internalType": "address",
          "name": "caller",
          "type": "address"
        }
      ],
      "name": "UseAllowance",
      "type": "event"
    },
    {
      "inputs": [
        {
          "internalType": "uint256",
          "name": "_projectId",
          "type": "uint256"
        },
        {
          "internalType": "string",
          "name": "_memo",
          "type": "string"
        }
      ],
      "name": "addToBalanceOf",
      "outputs": [],
      "stateMutability": "payable",
      "type": "function"
    },
    {
      "inputs": [],
      "name": "delegate",
      "outputs": [
        {
          "internalType": "address",
          "name": "",
          "type": "address"
        }
      ],
      "stateMutability": "view",
      "type": "function"
    },
    {
      "inputs": [],
      "name": "directory",
      "outputs": [
        {
          "internalType": "contract IJBDirectory",
          "name": "",
          "type": "address"
        }
      ],
      "stateMutability": "view",
      "type": "function"
    },
    {
      "inputs": [
        {
          "internalType": "uint256",
          "name": "_projectId",
          "type": "uint256"
        },
        {
          "internalType": "uint256",
          "name": "_amount",
          "type": "uint256"
        },
        {
          "internalType": "uint256",
          "name": "_currency",
          "type": "uint256"
        },
        {
          "internalType": "uint256",
          "name": "_minReturnedWei",
          "type": "uint256"
        },
        {
          "internalType": "string",
          "name": "_memo",
          "type": "string"
        }
      ],
      "name": "distributePayoutsOf",
      "outputs": [],
      "stateMutability": "nonpayable",
      "type": "function"
    },
    {
      "inputs": [
        {
          "internalType": "uint256",
          "name": "_projectId",
          "type": "uint256"
        }
      ],
      "name": "ethBalanceOf",
      "outputs": [
        {
          "internalType": "uint256",
          "name": "",
          "type": "uint256"
        }
      ],
      "stateMutability": "view",
      "type": "function"
    },
    {
      "inputs": [],
      "name": "fee",
      "outputs": [
        {
          "internalType": "uint256",
          "name": "",
          "type": "uint256"
        }
      ],
      "stateMutability": "view",
      "type": "function"
    },
    {
      "inputs": [
        {
          "internalType": "uint256",
          "name": "_projectId",
          "type": "uint256"
        }
      ],
      "name": "heldFeesOf",
      "outputs": [
        {
          "components": [
            {
              "internalType": "uint256",
              "name": "amount",
              "type": "uint256"
            },
            {
              "internalType": "uint8",
              "name": "fee",
              "type": "uint8"
            },
            {
              "internalType": "address",
              "name": "beneficiary",
              "type": "address"
            },
            {
              "internalType": "string",
              "name": "memo",
              "type": "string"
            }
          ],
          "internalType": "struct JBFee[]",
          "name": "",
          "type": "tuple[]"
        }
      ],
      "stateMutability": "view",
      "type": "function"
    },
    {
      "inputs": [
        {
          "internalType": "uint256",
          "name": "_projectId",
          "type": "uint256"
        },
        {
          "internalType": "contract IJBTerminal",
          "name": "_to",
          "type": "address"
        }
      ],
      "name": "migrate",
      "outputs": [],
      "stateMutability": "nonpayable",
      "type": "function"
    },
    {
      "inputs": [],
      "name": "operatorStore",
      "outputs": [
        {
          "internalType": "contract IJBOperatorStore",
          "name": "",
          "type": "address"
        }
      ],
      "stateMutability": "view",
      "type": "function"
    },
    {
      "inputs": [],
      "name": "owner",
      "outputs": [
        {
          "internalType": "address",
          "name": "",
          "type": "address"
        }
      ],
      "stateMutability": "view",
      "type": "function"
    },
    {
      "inputs": [
        {
          "internalType": "uint256",
          "name": "_projectId",
          "type": "uint256"
        },
        {
          "internalType": "address",
          "name": "_beneficiary",
          "type": "address"
        },
        {
          "internalType": "uint256",
          "name": "_minReturnedTokens",
          "type": "uint256"
        },
        {
          "internalType": "bool",
          "name": "_preferClaimedTokens",
          "type": "bool"
        },
        {
          "internalType": "string",
          "name": "_memo",
          "type": "string"
        },
        {
          "internalType": "bytes",
          "name": "_delegateMetadata",
          "type": "bytes"
        }
      ],
      "name": "pay",
      "outputs": [],
      "stateMutability": "payable",
      "type": "function"
    },
    {
      "inputs": [
        {
          "internalType": "uint256",
          "name": "_projectId",
          "type": "uint256"
        }
      ],
      "name": "processFees",
      "outputs": [],
      "stateMutability": "nonpayable",
      "type": "function"
    },
    {
      "inputs": [],
      "name": "projects",
      "outputs": [
        {
          "internalType": "contract IJBProjects",
          "name": "",
          "type": "address"
        }
      ],
      "stateMutability": "view",
      "type": "function"
    },
    {
      "inputs": [
        {
          "internalType": "address",
          "name": "_holder",
          "type": "address"
        },
        {
          "internalType": "uint256",
          "name": "_projectId",
          "type": "uint256"
        },
        {
          "internalType": "uint256",
          "name": "_tokenCount",
          "type": "uint256"
        },
        {
          "internalType": "uint256",
          "name": "_minReturnedWei",
          "type": "uint256"
        },
        {
          "internalType": "address payable",
          "name": "_beneficiary",
          "type": "address"
        },
        {
          "internalType": "string",
          "name": "_memo",
          "type": "string"
        },
        {
          "internalType": "bytes",
          "name": "_delegateMetadata",
          "type": "bytes"
        }
      ],
      "name": "redeemTokensOf",
      "outputs": [
        {
          "internalType": "uint256",
          "name": "claimAmount",
          "type": "uint256"
        }
      ],
      "stateMutability": "nonpayable",
      "type": "function"
    },
    {
      "inputs": [
        {
          "internalType": "uint256",
          "name": "_projectId",
          "type": "uint256"
        },
        {
          "internalType": "uint256",
          "name": "_fundingCycleConfiguration",
          "type": "uint256"
        },
        {
          "internalType": "uint256",
          "name": "_fundingCycleNumber",
          "type": "uint256"
        }
      ],
      "name": "remainingDistributionLimitOf",
      "outputs": [
        {
          "internalType": "uint256",
          "name": "",
          "type": "uint256"
        }
      ],
      "stateMutability": "view",
      "type": "function"
    },
    {
      "inputs": [],
      "name": "renounceOwnership",
      "outputs": [],
      "stateMutability": "nonpayable",
      "type": "function"
    },
    {
      "inputs": [
        {
          "internalType": "uint256",
          "name": "_fee",
          "type": "uint256"
        }
      ],
      "name": "setFee",
      "outputs": [],
      "stateMutability": "nonpayable",
      "type": "function"
    },
    {
      "inputs": [],
      "name": "splitsStore",
      "outputs": [
        {
          "internalType": "contract IJBSplitsStore",
          "name": "",
          "type": "address"
        }
      ],
      "stateMutability": "view",
      "type": "function"
    },
    {
      "inputs": [],
      "name": "store",
      "outputs": [
        {
          "internalType": "contract JBETHPaymentTerminalStore",
          "name": "",
          "type": "address"
        }
      ],
      "stateMutability": "view",
      "type": "function"
    },
    {
      "inputs": [],
      "name": "token",
      "outputs": [
        {
          "internalType": "address",
          "name": "",
          "type": "address"
        }
      ],
      "stateMutability": "view",
      "type": "function"
    },
    {
      "inputs": [
        {
          "internalType": "address",
          "name": "newOwner",
          "type": "address"
        }
      ],
      "name": "transferOwnership",
      "outputs": [],
      "stateMutability": "nonpayable",
      "type": "function"
    },
    {
      "inputs": [
        {
          "internalType": "uint256",
          "name": "_projectId",
          "type": "uint256"
        },
        {
          "internalType": "uint256",
          "name": "_amount",
          "type": "uint256"
        },
        {
          "internalType": "uint256",
          "name": "_currency",
          "type": "uint256"
        },
        {
          "internalType": "uint256",
          "name": "_minReturnedWei",
          "type": "uint256"
        },
        {
          "internalType": "address payable",
          "name": "_beneficiary",
          "type": "address"
        }
      ],
      "name": "useAllowanceOf",
      "outputs": [],
      "stateMutability": "nonpayable",
      "type": "function"
    }
  ],
  "transactionHash": "0x9d50ebe1e518bfb78f31f2e7a8207c904ba3bd53fdec7be0b866424879c07f7f",
  "args": [
    "0xacD28185AE65adc711481c0aECB0B99Ac8608698",
    "0xA08dD15247f67742eF1597Bcb2a0D829a7A3C5e1",
    "0x47F214f5e7D8589FEFe2946716aeA5fDfa53932a",
    "0x128044289b5a83B06cE21A6D0B5D5bFF04d5749B",
    "0x3F2ff7F57b9edF63Ed4e5b53806a83d8B061adC7",
    "0x69C6026e3938adE9e1ddE8Ff6A37eC96595bF1e1"
  ],
  "solcInputHash": "6296389d5d0c73c3ff767c6895895650",
  "bytecode": "0x6101406040526deeee00000000000000000000000061012052600a6003553480156200002a57600080fd5b5060405162004e0438038062004e048339810160408190526200004d916200023a565b606086901b6001600160601b0319166080526200006a3362000115565b600180556001600160601b0319606086811b821660a05285811b821660c05284901b1660e05260405163ddeae03360e01b81523060048201526001600160a01b0383169063ddeae03390602401600060405180830381600087803b158015620000d257600080fd5b505af1158015620000e7573d6000803e3d6000fd5b5050506001600160601b0319606084901b166101005250620001098162000165565b505050505050620002e4565b600080546001600160a01b038381166001600160a01b0319831681178455604051919092169283917f8be0079c531659141344cd1fd0a4f28419497f9722a3daafe3b4186f6b6457e09190a35050565b6000546001600160a01b03163314620001c55760405162461bcd60e51b815260206004820181905260248201527f4f776e61626c653a2063616c6c6572206973206e6f7420746865206f776e657260448201526064015b60405180910390fd5b6001600160a01b0381166200022c5760405162461bcd60e51b815260206004820152602660248201527f4f776e61626c653a206e6577206f776e657220697320746865207a65726f206160448201526564647265737360d01b6064820152608401620001bc565b620002378162000115565b50565b60008060008060008060c087890312156200025457600080fd5b86516200026181620002ce565b60208801519096506200027481620002ce565b60408801519095506200028781620002ce565b60608801519094506200029a81620002ce565b6080880151909350620002ad81620002ce565b60a0880151909250620002c081620002ce565b809150509295509295509295565b6001600160a01b03811681146200023757600080fd5b60805160601c60a05160601c60c05160601c60e05160601c6101005160601c6101205160601c6149e56200041f600039600081816104c6015281816109410152818161310101526137a40152600081816103410152818161041a015281816109df01528181610bd501528181610ce4015281816119e101528181612075015281816121d9015281816124a201526129d70152600081816101a101526135590152600081816103e9015281816122970152818161312c01526137cf0152600081816102e20152818161061001528181610f31015281816116e801528181611aaa01528181611b6e0152818161258001526126440152600081816103750152818161071c015281816107f80152818161109401528181611170015281816117f4015281816118d001528181611df70152611ed301526149e56000f3fe6080604052600436106101755760003560e01c8063975057e7116100cb578063c89e43611161007f578063ddca3f4311610059578063ddca3f431461047e578063f2fde38b14610494578063fc0c546a146104b457600080fd5b8063c89e43611461040b578063c99d3e831461043e578063d930c60c1461045e57600080fd5b8063b5a6aed7116100b0578063b5a6aed714610397578063b6cf978e146103b7578063c41c2f24146103d757600080fd5b8063975057e71461032f578063ad007d631461036357600080fd5b806369fe0e2d1161012d5780638af56094116101075780638af56094146102a35780638b79543c146102d05780638da5cb5b1461030457600080fd5b806369fe0e2d1461024e578063715018a61461026e57806389701db51461028357600080fd5b8063405b84fa1161015e578063405b84fa146101ed578063423734721461020d5780635de603141461022057600080fd5b8063039304531461017a5780632bdfe0041461018f575b600080fd5b61018d610188366004614075565b6104e8565b005b34801561019b57600080fd5b506101c37f000000000000000000000000000000000000000000000000000000000000000081565b60405173ffffffffffffffffffffffffffffffffffffffff90911681526020015b60405180910390f35b3480156101f957600080fd5b5061018d61020836600461411d565b61056a565b61018d61021b36600461414d565b610b69565b34801561022c57600080fd5b5061024061023b36600461405c565b610cb2565b6040519081526020016101e4565b34801561025a57600080fd5b5061018d61026936600461405c565b610d79565b34801561027a57600080fd5b5061018d610e75565b34801561028f57600080fd5b5061018d61029e36600461405c565b610f02565b3480156102af57600080fd5b506102c36102be36600461405c565b611506565b6040516101e49190614500565b3480156102dc57600080fd5b506101c37f000000000000000000000000000000000000000000000000000000000000000081565b34801561031057600080fd5b5060005473ffffffffffffffffffffffffffffffffffffffff166101c3565b34801561033b57600080fd5b506101c37f000000000000000000000000000000000000000000000000000000000000000081565b34801561036f57600080fd5b506101c37f000000000000000000000000000000000000000000000000000000000000000081565b3480156103a357600080fd5b5061018d6103b23660046141c0565b611647565b3480156103c357600080fd5b506102406103d2366004613d1f565b611d03565b3480156103e357600080fd5b506101c37f000000000000000000000000000000000000000000000000000000000000000081565b34801561041757600080fd5b507f00000000000000000000000000000000000000000000000000000000000000006101c3565b34801561044a57600080fd5b50610240610459366004614194565b6121a0565b34801561046a57600080fd5b5061018d61047936600461420d565b6123e7565b34801561048a57600080fd5b5061024060035481565b3480156104a057600080fd5b5061018d6104af366004613ce5565b6127f0565b3480156104c057600080fd5b506101c37f000000000000000000000000000000000000000000000000000000000000000081565b610560348989898989898080601f01602080910402602001604051908101604052809392919081815260200183838082843760009201919091525050604080516020601f8d018190048102820181019092528b815292508b91508a908190840183828082843760009201919091525061292092505050565b5050505050505050565b600260015414156105dc576040517f08c379a000000000000000000000000000000000000000000000000000000000815260206004820152601f60248201527f5265656e7472616e637947756172643a207265656e7472616e742063616c6c0060448201526064015b60405180910390fd5b60026001556040517f6352211e000000000000000000000000000000000000000000000000000000008152600481018390527f000000000000000000000000000000000000000000000000000000000000000073ffffffffffffffffffffffffffffffffffffffff1690636352211e9060240160206040518083038186803b15801561066757600080fd5b505afa15801561067b573d6000803e3d6000fd5b505050506040513d601f19601f8201168201806040525081019061069f9190613d02565b8260043373ffffffffffffffffffffffffffffffffffffffff84161480159061079857506040517fc161c93f00000000000000000000000000000000000000000000000000000000815233600482015273ffffffffffffffffffffffffffffffffffffffff848116602483015260448201849052606482018390527f0000000000000000000000000000000000000000000000000000000000000000169063c161c93f9060840160206040518083038186803b15801561075e57600080fd5b505afa158015610772573d6000803e3d6000fd5b505050506040513d601f19601f820116820180604052508101906107969190613f19565b155b801561087457506040517fc161c93f00000000000000000000000000000000000000000000000000000000815233600482015273ffffffffffffffffffffffffffffffffffffffff848116602483015260006044830152606482018390527f0000000000000000000000000000000000000000000000000000000000000000169063c161c93f9060840160206040518083038186803b15801561083a57600080fd5b505afa15801561084e573d6000803e3d6000fd5b505050506040513d601f19601f820116820180604052508101906108729190613f19565b155b156108ab576040517f075fd2b100000000000000000000000000000000000000000000000000000000815260040160405180910390fd5b8373ffffffffffffffffffffffffffffffffffffffff1663fc0c546a6040518163ffffffff1660e01b815260040160206040518083038186803b1580156108f157600080fd5b505afa158015610905573d6000803e3d6000fd5b505050506040513d601f19601f820116820180604052508101906109299190613d02565b73ffffffffffffffffffffffffffffffffffffffff167f000000000000000000000000000000000000000000000000000000000000000073ffffffffffffffffffffffffffffffffffffffff16146109ad576040517f581010ed00000000000000000000000000000000000000000000000000000000815260040160405180910390fd5b6040517f6bb6a5ad000000000000000000000000000000000000000000000000000000008152600481018690526000907f000000000000000000000000000000000000000000000000000000000000000073ffffffffffffffffffffffffffffffffffffffff1690636bb6a5ad90602401602060405180830381600087803b158015610a3857600080fd5b505af1158015610a4c573d6000803e3d6000fd5b505050506040513d601f19601f82011682018060405250810190610a709190613f36565b90508015610b0b57604080517f423734720000000000000000000000000000000000000000000000000000000081526004810188905260248101919091526000604482015273ffffffffffffffffffffffffffffffffffffffff86169063423734729083906064016000604051808303818588803b158015610af157600080fd5b505af1158015610b05573d6000803e3d6000fd5b50505050505b6040805182815233602082015273ffffffffffffffffffffffffffffffffffffffff87169188917fa7519e5f94697b7f53e97c5eb46a0c730a296ab686ab8fd333835c5f735784eb910160405180910390a350506001805550505050565b34610ba0576040517f839a437b00000000000000000000000000000000000000000000000000000000815260040160405180910390fd5b6040517fe7c8e3e3000000000000000000000000000000000000000000000000000000008152600481018390523460248201527f000000000000000000000000000000000000000000000000000000000000000073ffffffffffffffffffffffffffffffffffffffff169063e7c8e3e39060440161012060405180830381600087803b158015610c2f57600080fd5b505af1158015610c43573d6000803e3d6000fd5b505050506040513d601f19601f82011682018060405250810190610c679190613f4f565b50610c728234612b43565b817f4ce42b42caaa564737146f357a8fa7fe24940fac843d392a69e23b32a1d766a3348333604051610ca693929190614649565b60405180910390a25050565b6040517f9cc7f708000000000000000000000000000000000000000000000000000000008152600481018290526000907f000000000000000000000000000000000000000000000000000000000000000073ffffffffffffffffffffffffffffffffffffffff1690639cc7f7089060240160206040518083038186803b158015610d3b57600080fd5b505afa158015610d4f573d6000803e3d6000fd5b505050506040513d601f19601f82011682018060405250810190610d739190613f36565b92915050565b60005473ffffffffffffffffffffffffffffffffffffffff163314610dfa576040517f08c379a000000000000000000000000000000000000000000000000000000000815260206004820181905260248201527f4f776e61626c653a2063616c6c6572206973206e6f7420746865206f776e657260448201526064016105d3565b600a811115610e35576040517f45fbd9c100000000000000000000000000000000000000000000000000000000815260040160405180910390fd5b6003819055604080518281523360208201527fd7414e590e1cb532989ab2a34c8f4c2c17f7ab6f006efeeaef2e87cd5008c202910160405180910390a150565b60005473ffffffffffffffffffffffffffffffffffffffff163314610ef6576040517f08c379a000000000000000000000000000000000000000000000000000000000815260206004820181905260248201527f4f776e61626c653a2063616c6c6572206973206e6f7420746865206f776e657260448201526064016105d3565b610f006000612f43565b565b6040517f6352211e000000000000000000000000000000000000000000000000000000008152600481018290527f000000000000000000000000000000000000000000000000000000000000000073ffffffffffffffffffffffffffffffffffffffff1690636352211e9060240160206040518083038186803b158015610f8857600080fd5b505afa158015610f9c573d6000803e3d6000fd5b505050506040513d601f19601f82011682018060405250810190610fc09190613d02565b816005610fe260005473ffffffffffffffffffffffffffffffffffffffff1690565b73ffffffffffffffffffffffffffffffffffffffff163373ffffffffffffffffffffffffffffffffffffffff16148015801561103457503373ffffffffffffffffffffffffffffffffffffffff851614155b801561111057506040517fc161c93f00000000000000000000000000000000000000000000000000000000815233600482015273ffffffffffffffffffffffffffffffffffffffff858116602483015260448201859052606482018490527f0000000000000000000000000000000000000000000000000000000000000000169063c161c93f9060840160206040518083038186803b1580156110d657600080fd5b505afa1580156110ea573d6000803e3d6000fd5b505050506040513d601f19601f8201168201806040525081019061110e9190613f19565b155b80156111ec57506040517fc161c93f00000000000000000000000000000000000000000000000000000000815233600482015273ffffffffffffffffffffffffffffffffffffffff858116602483015260006044830152606482018490527f0000000000000000000000000000000000000000000000000000000000000000169063c161c93f9060840160206040518083038186803b1580156111b257600080fd5b505afa1580156111c6573d6000803e3d6000fd5b505050506040513d601f19601f820116820180604052508101906111ea9190613f19565b155b15611223576040517f075fd2b100000000000000000000000000000000000000000000000000000000815260040160405180910390fd5b60026001541415611290576040517f08c379a000000000000000000000000000000000000000000000000000000000815260206004820152601f60248201527f5265656e7472616e637947756172643a207265656e7472616e742063616c6c0060448201526064016105d3565b600260018190556000868152602091825260408082208054825181860281018601909352808352929391929091849084015b828210156113c3576000848152602090819020604080516080810182526003860290920180548352600181015460ff81169484019490945261010090930473ffffffffffffffffffffffffffffffffffffffff169082015260028201805491929160608401919061133290614836565b80601f016020809104026020016040519081016040528092919081815260200182805461135e90614836565b80156113ab5780601f10611380576101008083540402835291602001916113ab565b820191906000526020600020905b81548152906001019060200180831161138e57829003601f168201915b505050505081525050815260200190600101906112c2565b50505050905060005b81518110156114a85761149661142d8383815181106113ed576113ed614921565b60200260200101516000015160c885858151811061140d5761140d614921565b60200260200101516020015160c861142591906147ce565b60ff16612fb8565b83838151811061143f5761143f614921565b60200260200101516000015161145591906147f3565b83838151811061146757611467614921565b60200260200101516040015184848151811061148557611485614921565b6020026020010151606001516130bd565b806114a08161488a565b9150506113cc565b5060008681526002602052604081206114c091613a0a565b857f07f39a5fd95cd3da676e5dfb4d483177812480a919520e362527c826bb0900a782336040516114f2929190614513565b60405180910390a250506001805550505050565b606060026000838152602001908152602001600020805480602002602001604051908101604052809291908181526020016000905b8282101561163c576000848152602090819020604080516080810182526003860290920180548352600181015460ff81169484019490945261010090930473ffffffffffffffffffffffffffffffffffffffff16908201526002820180549192916060840191906115ab90614836565b80601f01602080910402602001604051908101604052809291908181526020018280546115d790614836565b80156116245780601f106115f957610100808354040283529160200191611624565b820191906000526020600020905b81548152906001019060200180831161160757829003601f168201915b5050505050815250508152602001906001019061153b565b505050509050919050565b600260015414156116b4576040517f08c379a000000000000000000000000000000000000000000000000000000000815260206004820152601f60248201527f5265656e7472616e637947756172643a207265656e7472616e742063616c6c0060448201526064016105d3565b60026001556040517f6352211e000000000000000000000000000000000000000000000000000000008152600481018690527f000000000000000000000000000000000000000000000000000000000000000073ffffffffffffffffffffffffffffffffffffffff1690636352211e9060240160206040518083038186803b15801561173f57600080fd5b505afa158015611753573d6000803e3d6000fd5b505050506040513d601f19601f820116820180604052508101906117779190613d02565b8560143373ffffffffffffffffffffffffffffffffffffffff84161480159061187057506040517fc161c93f00000000000000000000000000000000000000000000000000000000815233600482015273ffffffffffffffffffffffffffffffffffffffff848116602483015260448201849052606482018390527f0000000000000000000000000000000000000000000000000000000000000000169063c161c93f9060840160206040518083038186803b15801561183657600080fd5b505afa15801561184a573d6000803e3d6000fd5b505050506040513d601f19601f8201168201806040525081019061186e9190613f19565b155b801561194c57506040517fc161c93f00000000000000000000000000000000000000000000000000000000815233600482015273ffffffffffffffffffffffffffffffffffffffff848116602483015260006044830152606482018390527f0000000000000000000000000000000000000000000000000000000000000000169063c161c93f9060840160206040518083038186803b15801561191257600080fd5b505afa158015611926573d6000803e3d6000fd5b505050506040513d601f19601f8201168201806040525081019061194a9190613f19565b155b15611983576040517f075fd2b100000000000000000000000000000000000000000000000000000000815260040160405180910390fd5b6040517f1837d6e300000000000000000000000000000000000000000000000000000000815260048101899052602481018890526044810187905260648101869052600090819073ffffffffffffffffffffffffffffffffffffffff7f00000000000000000000000000000000000000000000000000000000000000001690631837d6e39060840161014060405180830381600087803b158015611a2657600080fd5b505af1158015611a3a573d6000803e3d6000fd5b505050506040513d601f19601f82011682018060405250810190611a5e9190613f6c565b6040517f6352211e000000000000000000000000000000000000000000000000000000008152600481018d9052919350915060009073ffffffffffffffffffffffffffffffffffffffff7f00000000000000000000000000000000000000000000000000000000000000001690636352211e9060240160206040518083038186803b158015611aec57600080fd5b505afa158015611b00573d6000803e3d6000fd5b505050506040513d601f19601f82011682018060405250810190611b249190613d02565b6040517f49491987000000000000000000000000000000000000000000000000000000008152600481018d905290915060009073ffffffffffffffffffffffffffffffffffffffff7f00000000000000000000000000000000000000000000000000000000000000001690634949198790602401602060405180830381600087803b158015611bb257600080fd5b505af1158015611bc6573d6000803e3d6000fd5b505050506040513d601f19601f82011682018060405250810190611bea9190613f36565b9050600060035460001480611bff57508c6001145b611c6057611c5b8d86868686604051602001611c4791907f4665652066726f6d2040000000000000000000000000000000000000000000008152600a810191909152602a0190565b604051602081830303815290604052613287565b611c63565b60005b9050611c7889611c7383876147f3565b6133b2565b845160208601518e91907f4d0b119651438cfed12585fc57e8ec9d9cc98bb1e5da27bdc4b7419d084500c28c8886611cb081836147f3565b6040805173ffffffffffffffffffffffffffffffffffffffff9095168552602085019390935291830152606082015233608082015260a00160405180910390a45050600180555050505050505050505050565b600060026001541415611d72576040517f08c379a000000000000000000000000000000000000000000000000000000000815260206004820152601f60248201527f5265656e7472616e637947756172643a207265656e7472616e742063616c6c0060448201526064016105d3565b60026001819055889088903373ffffffffffffffffffffffffffffffffffffffff841614801590611e7357506040517fc161c93f00000000000000000000000000000000000000000000000000000000815233600482015273ffffffffffffffffffffffffffffffffffffffff848116602483015260448201849052606482018390527f0000000000000000000000000000000000000000000000000000000000000000169063c161c93f9060840160206040518083038186803b158015611e3957600080fd5b505afa158015611e4d573d6000803e3d6000fd5b505050506040513d601f19601f82011682018060405250810190611e719190613f19565b155b8015611f4f57506040517fc161c93f00000000000000000000000000000000000000000000000000000000815233600482015273ffffffffffffffffffffffffffffffffffffffff848116602483015260006044830152606482018390527f0000000000000000000000000000000000000000000000000000000000000000169063c161c93f9060840160206040518083038186803b158015611f1557600080fd5b505afa158015611f29573d6000803e3d6000fd5b505050506040513d601f19601f82011682018060405250810190611f4d9190613f19565b155b15611f86576040517f075fd2b100000000000000000000000000000000000000000000000000000000815260040160405180910390fd5b73ffffffffffffffffffffffffffffffffffffffff8716611fd3576040517ff74a1b6600000000000000000000000000000000000000000000000000000000815260040160405180910390fd5b61203860405180610120016040528060008152602001600081526020016000815260200160008152602001600081526020016000815260200160008152602001600073ffffffffffffffffffffffffffffffffffffffff168152602001600081525090565b6040517f9225bf1a00000000000000000000000000000000000000000000000000000000815273ffffffffffffffffffffffffffffffffffffffff7f00000000000000000000000000000000000000000000000000000000000000001690639225bf1a906120b6908f908f908f908f908f908f908f9060040161440c565b600060405180830381600087803b1580156120d057600080fd5b505af11580156120e4573d6000803e3d6000fd5b505050506040513d6000823e601f3d9081017fffffffffffffffffffffffffffffffffffffffffffffffffffffffffffffffe016820160405261212a9190810190613f9b565b98509550905084156121405761214088866133b2565b8a816000015182602001517fd2b8b011245528ed3c6d92b102e0cd9895bb1910613b04dd42d7c9ac3781612d8f8c8f8b8e33604051612184969594939291906143b2565b60405180910390a4505060018055509098975050505050505050565b6040517fdcc3041b00000000000000000000000000000000000000000000000000000000815260048101849052602481018290526000907f000000000000000000000000000000000000000000000000000000000000000073ffffffffffffffffffffffffffffffffffffffff169063dcc3041b9060440160206040518083038186803b15801561223057600080fd5b505afa158015612244573d6000803e3d6000fd5b505050506040513d601f19601f820116820180604052508101906122689190613f36565b6040517f5dd8f6aa000000000000000000000000000000000000000000000000000000008152600481018690527f000000000000000000000000000000000000000000000000000000000000000073ffffffffffffffffffffffffffffffffffffffff1690635dd8f6aa9060240160206040518083038186803b1580156122ee57600080fd5b505afa158015612302573d6000803e3d6000fd5b505050506040513d601f19601f820116820180604052508101906123269190613d02565b6040517f5578dfd7000000000000000000000000000000000000000000000000000000008152600481018790526024810186905230604482015273ffffffffffffffffffffffffffffffffffffffff9190911690635578dfd79060640160206040518083038186803b15801561239b57600080fd5b505afa1580156123af573d6000803e3d6000fd5b505050506040513d601f19601f820116820180604052508101906123d39190613f36565b6123dd91906147f3565b90505b9392505050565b60026001541415612454576040517f08c379a000000000000000000000000000000000000000000000000000000000815260206004820152601f60248201527f5265656e7472616e637947756172643a207265656e7472616e742063616c6c0060448201526064016105d3565b60026001556040517f4d9cd5ac0000000000000000000000000000000000000000000000000000000081526004810186905260248101859052604481018490526064810183905260009081907f000000000000000000000000000000000000000000000000000000000000000073ffffffffffffffffffffffffffffffffffffffff1690634d9cd5ac9060840161014060405180830381600087803b1580156124fc57600080fd5b505af1158015612510573d6000803e3d6000fd5b505050506040513d601f19601f820116820180604052508101906125349190613f6c565b6040517f6352211e000000000000000000000000000000000000000000000000000000008152600481018a9052919350915060009073ffffffffffffffffffffffffffffffffffffffff7f00000000000000000000000000000000000000000000000000000000000000001690636352211e9060240160206040518083038186803b1580156125c257600080fd5b505afa1580156125d6573d6000803e3d6000fd5b505050506040513d601f19601f820116820180604052508101906125fa9190613d02565b6040517f49491987000000000000000000000000000000000000000000000000000000008152600481018a905290915060009073ffffffffffffffffffffffffffffffffffffffff7f00000000000000000000000000000000000000000000000000000000000000001690634949198790602401602060405180830381600087803b15801561268857600080fd5b505af115801561269c573d6000803e3d6000fd5b505050506040513d601f19601f820116820180604052508101906126c09190613f36565b90506000600354600014806126d55750896001145b6127225761271d8a86868686604051602001611c4791907f4665652066726f6d2040000000000000000000000000000000000000000000008152600a810191909152602a0190565b612725565b60005b9050600061277f8b8761273885896147f3565b6040517f5061796f75742066726f6d2040000000000000000000000000000000000000006020820152602d8101889052604d01604051602081830303815290604052613511565b905080156127915761279184826133b2565b8a866000015187602001517f24352f49df447b14e0e08a323625c663d865ce20c343c4638af12e1dc48aa760878e8a88888f336040516127d79796959493929190614353565b60405180910390a4505060018055505050505050505050565b60005473ffffffffffffffffffffffffffffffffffffffff163314612871576040517f08c379a000000000000000000000000000000000000000000000000000000000815260206004820181905260248201527f4f776e61626c653a2063616c6c6572206973206e6f7420746865206f776e657260448201526064016105d3565b73ffffffffffffffffffffffffffffffffffffffff8116612914576040517f08c379a000000000000000000000000000000000000000000000000000000000815260206004820152602660248201527f4f776e61626c653a206e6577206f776e657220697320746865207a65726f206160448201527f646472657373000000000000000000000000000000000000000000000000000060648201526084016105d3565b61291d81612f43565b50565b73ffffffffffffffffffffffffffffffffffffffff851661296d576040517fa762251300000000000000000000000000000000000000000000000000000000815260040160405180910390fd5b6129d260405180610120016040528060008152602001600081526020016000815260200160008152602001600081526020016000815260200160008152602001600073ffffffffffffffffffffffffffffffffffffffff168152602001600081525090565b6000807f000000000000000000000000000000000000000000000000000000000000000073ffffffffffffffffffffffffffffffffffffffff166329c705c7338c8c60018d73ffffffffffffffffffffffffffffffffffffffff16901b8b612a3b576000612a3e565b60015b60ff16178c8b8b6040518863ffffffff1660e01b8152600401612a6797969594939291906144b9565b600060405180830381600087803b158015612a8157600080fd5b505af1158015612a95573d6000803e3d6000fd5b505050506040513d6000823e601f3d9081017fffffffffffffffffffffffffffffffffffffffffffffffffffffffffffffffe0168201604052612adb9190810190613ff6565b8098508194508295508396505050505088836000015184602001517f48d03a5fc1af697513321cb1c46d64e8bd022e7ac66677b2cd1ea5ac3dddb1238b8e87878c33604051612b2f96959493929190614477565b60405180910390a450505050505050505050565b600082815260026020908152604080832080548251818502810185019093528083529192909190849084015b82821015612c70576000848152602090819020604080516080810182526003860290920180548352600181015460ff81169484019490945261010090930473ffffffffffffffffffffffffffffffffffffffff1690820152600282018054919291606084019190612bdf90614836565b80601f0160208091040260200160405190810160405280929190818152602001828054612c0b90614836565b8015612c585780601f10612c2d57610100808354040283529160200191612c58565b820191906000526020600020905b815481529060010190602001808311612c3b57829003601f168201915b50505050508152505081526020019060010190612b6f565b5050506000858152600260205260408120929350612c8f929150613a0a565b60005b8151811015612f3d5782612d6b5760008481526002602052604090208251839083908110612cc257612cc2614921565b6020908102919091018101518254600181810185556000948552938390208251600390920201908155818301519381018054604084015173ffffffffffffffffffffffffffffffffffffffff16610100027fffffffffffffffffffffff00000000000000000000000000000000000000000090911660ff909616959095179490941790935560608101518051919392612d6392600285019290910190613a2b565b505050612f2b565b818181518110612d7d57612d7d614921565b6020026020010151600001518310612dbf57818181518110612da157612da1614921565b60200260200101516000015183612db891906147f3565b9250612f2b565b60026000858152602001908152602001600020604051806080016040528085858581518110612df057612df0614921565b602002602001015160000151612e0691906147f3565b8152602001848481518110612e1d57612e1d614921565b60200260200101516020015160ff168152602001848481518110612e4357612e43614921565b60200260200101516040015173ffffffffffffffffffffffffffffffffffffffff168152602001848481518110612e7c57612e7c614921565b6020908102919091018101516060908101519092528354600181810186556000958652948290208451600390920201908155838201519481018054604086015173ffffffffffffffffffffffffffffffffffffffff16610100027fffffffffffffffffffffff00000000000000000000000000000000000000000090911660ff9097169690961795909517909455908201518051929392612f239260028501920190613a2b565b505050600092505b80612f358161488a565b915050612c92565b50505050565b6000805473ffffffffffffffffffffffffffffffffffffffff8381167fffffffffffffffffffffffff0000000000000000000000000000000000000000831681178455604051919092169283917f8be0079c531659141344cd1fd0a4f28419497f9722a3daafe3b4186f6b6457e09190a35050565b600080807fffffffffffffffffffffffffffffffffffffffffffffffffffffffffffffffff858709858702925082811083820303915050806000141561301157838281613007576130076148f2565b04925050506123e0565b838110613054576040517f773cc18c00000000000000000000000000000000000000000000000000000000815260048101829052602481018590526044016105d3565b60008486880960026001871981018816978890046003810283188082028403028082028403028082028403028082028403028082028403029081029092039091026000889003889004909101858311909403939093029303949094049190911702949350505050565b6040517f862026500000000000000000000000000000000000000000000000000000000081526001600482015273ffffffffffffffffffffffffffffffffffffffff7f0000000000000000000000000000000000000000000000000000000000000000811660248301526000917f00000000000000000000000000000000000000000000000000000000000000009091169063862026509060440160206040518083038186803b15801561317057600080fd5b505afa158015613184573d6000803e3d6000fd5b505050506040513d601f19601f820116820180604052508101906131a89190613d02565b905073ffffffffffffffffffffffffffffffffffffffff811630146132675760408051602081018252600080825291517f0393045300000000000000000000000000000000000000000000000000000000815273ffffffffffffffffffffffffffffffffffffffff8416926303930453928892613230926001928a9282918b9160040161454b565b6000604051808303818588803b15801561324957600080fd5b505af115801561325d573d6000803e3d6000fd5b5050505050612f3d565b612f3d846001856000808760405180602001604052806000815250612920565b60006132a38460c860035460c861329e91906147b6565b612fb8565b6132ad90856147f3565b9050806132bc575060006133a9565b61010085015160401c6001908116146132df576132da8184846130bd565b6133a9565b600086815260026020818152604080842081516080810183528981526003805460ff90811683870190815273ffffffffffffffffffffffffffffffffffffffff808d16968501968752606085018c8152865460018181018955978c529a89902086519b909502909401998a55905194890180549651909116610100027fffffffffffffffffffffff000000000000000000000000000000000000000000909616949091169390931793909317909155905180519194936133a59390850192910190613a2b565b5050505b95945050505050565b8047101561341c576040517f08c379a000000000000000000000000000000000000000000000000000000000815260206004820152601d60248201527f416464726573733a20696e73756666696369656e742062616c616e636500000060448201526064016105d3565b60008273ffffffffffffffffffffffffffffffffffffffff168260405160006040518083038185875af1925050503d8060008114613476576040519150601f19603f3d011682016040523d82523d6000602084013e61347b565b606091505b505090508061350c576040517f08c379a000000000000000000000000000000000000000000000000000000000815260206004820152603a60248201527f416464726573733a20756e61626c6520746f2073656e642076616c75652c207260448201527f6563697069656e74206d6179206861766520726576657274656400000000000060648201526084016105d3565b505050565b60208301516040517f69e11cc50000000000000000000000000000000000000000000000000000000081526004810186905260248101919091526001604482015282906000907f000000000000000000000000000000000000000000000000000000000000000073ffffffffffffffffffffffffffffffffffffffff16906369e11cc59060640160006040518083038186803b1580156135b057600080fd5b505afa1580156135c4573d6000803e3d6000fd5b505050506040513d6000823e601f3d9081017fffffffffffffffffffffffffffffffffffffffffffffffffffffffffffffffe016820160405261360a9190810190613dd9565b905060005b8151811015613a0057600082828151811061362c5761362c614921565b60200260200101519050600061365187836020015163ffffffff16633b9aca00612fb8565b905080156139a557608082015173ffffffffffffffffffffffffffffffffffffffff161561373f5760808201516040808401516060850151855192517fc8e84e020000000000000000000000000000000000000000000000000000000081526004810186905260016024820152604481018e905266ffffffffffffff909216606483015273ffffffffffffffffffffffffffffffffffffffff908116608483015291151560a482015291169063c8e84e0290839060c4016000604051808303818588803b15801561372157600080fd5b505af1158015613735573d6000803e3d6000fd5b5050505050613998565b604082015166ffffffffffffff161561398a5760408281015190517f8620265000000000000000000000000000000000000000000000000000000000815266ffffffffffffff909116600482015273ffffffffffffffffffffffffffffffffffffffff7f0000000000000000000000000000000000000000000000000000000000000000811660248301526000917f00000000000000000000000000000000000000000000000000000000000000009091169063862026509060440160206040518083038186803b15801561381357600080fd5b505afa158015613827573d6000803e3d6000fd5b505050506040513d601f19601f8201168201806040525081019061384b9190613d02565b905073ffffffffffffffffffffffffffffffffffffffff811661389a576040517f6921234300000000000000000000000000000000000000000000000000000000815260040160405180910390fd5b73ffffffffffffffffffffffffffffffffffffffff81163014156138f1576138ec82846040015166ffffffffffffff168560600151600087600001518c60405180602001604052806000815250612920565b613984565b8073ffffffffffffffffffffffffffffffffffffffff1663039304538385604001518660600151600088600001518d604051806020016040528060008152506040518863ffffffff1660e01b815260040161395196959493929190614688565b6000604051808303818588803b15801561396a57600080fd5b505af115801561397e573d6000803e3d6000fd5b50505050505b50613998565b6139988260600151826133b2565b6139a281866147f3565b94505b88886000015189602001517f13a51b7e5d17331fd27f0dfb2fd049edd8b1b447a301de8ea4ee348ea1271c868585336040516139e3939291906145ad565b60405180910390a4505080806139f89061488a565b91505061360f565b5050949350505050565b508054600082556003029060005260206000209081019061291d9190613aaf565b828054613a3790614836565b90600052602060002090601f016020900481019282613a595760008555613a9f565b82601f10613a7257805160ff1916838001178555613a9f565b82800160010185558215613a9f579182015b82811115613a9f578251825591602001919060010190613a84565b50613aab929150613afc565b5090565b80821115613aab5760008082556001820180547fffffffffffffffffffffff000000000000000000000000000000000000000000169055613af36002830182613b11565b50600301613aaf565b5b80821115613aab5760008155600101613afd565b508054613b1d90614836565b6000825580601f10613b2d575050565b601f01602090049060005260206000209081019061291d9190613afc565b6000613b5e613b5984614770565b614721565b9050828152838383011115613b7257600080fd5b828260208301376000602084830101529392505050565b8051613b948161497f565b919050565b60008083601f840112613bab57600080fd5b50813567ffffffffffffffff811115613bc357600080fd5b602083019150836020828501011115613bdb57600080fd5b9250929050565b600082601f830112613bf357600080fd5b6123e083833560208501613b4b565b600082601f830112613c1357600080fd5b8151613c21613b5982614770565b818152846020838601011115613c3657600080fd5b613c4782602083016020870161480a565b949350505050565b60006101208284031215613c6257600080fd5b613c6a6146d4565b9050815181526020820151602082015260408201516040820152606082015160608201526080820151608082015260a082015160a082015260c082015160c0820152613cb860e08301613b89565b60e082015261010080830151818301525092915050565b805165ffffffffffff81168114613b9457600080fd5b600060208284031215613cf757600080fd5b81356123e08161497f565b600060208284031215613d1457600080fd5b81516123e08161497f565b600080600080600080600060e0888a031215613d3a57600080fd5b8735613d458161497f565b96506020880135955060408801359450606088013593506080880135613d6a8161497f565b925060a088013567ffffffffffffffff80821115613d8757600080fd5b613d938b838c01613be2565b935060c08a0135915080821115613da957600080fd5b508801601f81018a13613dbb57600080fd5b613dca8a823560208401613b4b565b91505092959891949750929550565b60006020808385031215613dec57600080fd5b825167ffffffffffffffff80821115613e0457600080fd5b818501915085601f830112613e1857600080fd5b815181811115613e2a57613e2a614950565b613e38848260051b01614721565b818152848101925083850160c0808402860187018a1015613e5857600080fd5b600095505b83861015613f0b5780828b031215613e7457600080fd5b613e7c6146fe565b8251613e87816149a1565b81528288015163ffffffff81168114613e9f57600080fd5b8189015260408381015166ffffffffffffff81168114613ebe57600080fd5b908201526060613ecf848201613b89565b908201526080613ee0848201613b89565b9082015260a0613ef1848201613ccf565b908201528552600195909501949386019390810190613e5d565b509098975050505050505050565b600060208284031215613f2b57600080fd5b81516123e0816149a1565b600060208284031215613f4857600080fd5b5051919050565b60006101208284031215613f6257600080fd5b6123e08383613c4f565b6000806101408385031215613f8057600080fd5b613f8a8484613c4f565b915061012083015190509250929050565b60008060006101608486031215613fb157600080fd5b613fbb8585613c4f565b9250610120840151915061014084015167ffffffffffffffff811115613fe057600080fd5b613fec86828701613c02565b9150509250925092565b600080600080610180858703121561400d57600080fd5b6140178686613c4f565b93506101208501519250610140850151915061016085015167ffffffffffffffff81111561404457600080fd5b61405087828801613c02565b91505092959194509250565b60006020828403121561406e57600080fd5b5035919050565b60008060008060008060008060c0898b03121561409157600080fd5b8835975060208901356140a38161497f565b96506040890135955060608901356140ba816149a1565b9450608089013567ffffffffffffffff808211156140d757600080fd5b6140e38c838d01613b99565b909650945060a08b01359150808211156140fc57600080fd5b506141098b828c01613b99565b999c989b5096995094979396929594505050565b6000806040838503121561413057600080fd5b8235915060208301356141428161497f565b809150509250929050565b6000806040838503121561416057600080fd5b82359150602083013567ffffffffffffffff81111561417e57600080fd5b61418a85828601613be2565b9150509250929050565b6000806000606084860312156141a957600080fd5b505081359360208301359350604090920135919050565b600080600080600060a086880312156141d857600080fd5b8535945060208601359350604086013592506060860135915060808601356141ff8161497f565b809150509295509295909350565b600080600080600060a0868803121561422557600080fd5b85359450602086013593506040860135925060608601359150608086013567ffffffffffffffff81111561425857600080fd5b61426488828901613be2565b9150509295509295909350565b600081518084526020808501808196508360051b8101915082860160005b858110156142fc5782840389528151805185528581015160ff168686015260408082015173ffffffffffffffffffffffffffffffffffffffff16908601526060908101516080918601829052906142e881870183614309565b9a87019a955050509084019060010161428f565b5091979650505050505050565b6000815180845261432181602086016020860161480a565b601f017fffffffffffffffffffffffffffffffffffffffffffffffffffffffffffffffe0169290920160200192915050565b600073ffffffffffffffffffffffffffffffffffffffff808a16835288602084015287604084015286606084015285608084015260e060a084015261439b60e0840186614309565b915080841660c08401525098975050505050505050565b600073ffffffffffffffffffffffffffffffffffffffff8089168352808816602084015286604084015285606084015260c060808401526143f660c0840186614309565b915080841660a084015250979650505050505050565b600073ffffffffffffffffffffffffffffffffffffffff808a16835288602084015287604084015286606084015280861660808401525060e060a083015261445760e0830185614309565b82810360c08401526144698185614309565b9a9950505050505050505050565b600073ffffffffffffffffffffffffffffffffffffffff808916835287602084015286604084015285606084015260c060808401526143f660c0840186614309565b73ffffffffffffffffffffffffffffffffffffffff8816815286602082015285604082015284606082015283608082015260e060a0820152600061445760e0830185614309565b6020815260006123e06020830184614271565b6040815260006145266040830185614271565b905073ffffffffffffffffffffffffffffffffffffffff831660208301529392505050565b86815273ffffffffffffffffffffffffffffffffffffffff86166020820152846040820152831515606082015260c06080820152600061458e60c0830185614309565b82810360a08401526145a08185614309565b9998505050505050505050565b60006101008201905084511515825263ffffffff602086015116602083015266ffffffffffffff6040860151166040830152606085015173ffffffffffffffffffffffffffffffffffffffff8082166060850152806080880151166080850152505065ffffffffffff60a08601511660a08301528360c0830152613c4760e083018473ffffffffffffffffffffffffffffffffffffffff169052565b8381526060602082015260006146626060830185614309565b905073ffffffffffffffffffffffffffffffffffffffff83166040830152949350505050565b66ffffffffffffff8716815273ffffffffffffffffffffffffffffffffffffffff86166020820152846040820152831515606082015260c06080820152600061458e60c0830185614309565b604051610120810167ffffffffffffffff811182821017156146f8576146f8614950565b60405290565b60405160c0810167ffffffffffffffff811182821017156146f8576146f8614950565b604051601f82017fffffffffffffffffffffffffffffffffffffffffffffffffffffffffffffffe016810167ffffffffffffffff8111828210171561476857614768614950565b604052919050565b600067ffffffffffffffff82111561478a5761478a614950565b50601f017fffffffffffffffffffffffffffffffffffffffffffffffffffffffffffffffe01660200190565b600082198211156147c9576147c96148c3565b500190565b600060ff821660ff84168060ff038211156147eb576147eb6148c3565b019392505050565b600082821015614805576148056148c3565b500390565b60005b8381101561482557818101518382015260200161480d565b83811115612f3d5750506000910152565b600181811c9082168061484a57607f821691505b60208210811415614884577f4e487b7100000000000000000000000000000000000000000000000000000000600052602260045260246000fd5b50919050565b60007fffffffffffffffffffffffffffffffffffffffffffffffffffffffffffffffff8214156148bc576148bc6148c3565b5060010190565b7f4e487b7100000000000000000000000000000000000000000000000000000000600052601160045260246000fd5b7f4e487b7100000000000000000000000000000000000000000000000000000000600052601260045260246000fd5b7f4e487b7100000000000000000000000000000000000000000000000000000000600052603260045260246000fd5b7f4e487b7100000000000000000000000000000000000000000000000000000000600052604160045260246000fd5b73ffffffffffffffffffffffffffffffffffffffff8116811461291d57600080fd5b801515811461291d57600080fdfea264697066735822122001e58c82ad4a5ce73ae927d753ec411095152da5a03212e80792cba4e26d1a3164736f6c63430008060033",
  "devdoc": {
    "details": "A project can transfer its funds, along with the power to reconfigure and mint/burn their tokens, from this contract to another allowed terminal contract at any time. Inherits from: IJBPaymentTerminal - general interface for the methods in this contract that send and receive funds according to the Juicebox protocol's rules. JBOperatable - several functions in this contract can only be accessed by a project owner, or an address that has been preconfifigured to be an operator of the project. ReentrencyGuard - several function in this contract shouldn't be accessible recursively.",
    "kind": "dev",
    "methods": {
      "addToBalanceOf(uint256,string)": {
        "params": {
          "_memo": "A memo to pass along to the emitted event.",
          "_projectId": "The ID of the project to which the funds received belong."
        }
      },
      "constructor": {
        "params": {
          "_directory": "A contract storing directories of terminals and controllers for each project.",
          "_operatorStore": "A contract storing operator assignments.",
          "_owner": "The address that will own this contract.",
          "_projects": "A contract which mints ERC-721's that represent project ownership and transfers.",
          "_splitsStore": "A contract that stores splits for each project.",
          "_store": "A contract that stores the terminal's data."
        }
      },
      "delegate()": {
        "returns": {
          "_0": "The delegate address."
        }
      },
      "distributePayoutsOf(uint256,uint256,uint256,uint256,string)": {
        "details": "Payouts are sent to the preprogrammed splits.Anyone can distribute payouts on a project's behalf.",
        "params": {
          "_amount": "The amount being distributed.",
          "_currency": "The expected currency of the amount being distributed. Must match the project's current funding cycle's currency.",
          "_minReturnedWei": "The minimum number of wei that the amount should be valued at.",
          "_projectId": "The ID of the project having its payouts distributed."
        }
      },
      "ethBalanceOf(uint256)": {
        "params": {
          "_projectId": "The ID of the project to which the balance belongs."
        },
        "returns": {
          "_0": "The ETH balance."
        }
      },
      "heldFeesOf(uint256)": {
        "params": {
          "_projectId": "The ID of the project for which fees are being held."
        },
        "returns": {
          "_0": "An array of fees that are being held."
        }
      },
      "migrate(uint256,address)": {
        "details": "Only a project's owner or a designated operator can migrate it.",
        "params": {
          "_projectId": "The ID of the project being migrated.",
          "_to": "The terminal contract that will gain the project's funds."
        }
      },
      "owner()": {
        "details": "Returns the address of the current owner."
      },
      "pay(uint256,address,uint256,bool,string,bytes)": {
        "details": "The msg.value is the amount of the contribution in wei.",
        "params": {
          "_beneficiary": "The address to mint tokens for and pass along to the funding cycle's data source and delegate.",
          "_delegateMetadata": "Bytes to send along to the delegate, if one is provided.",
          "_memo": "A memo to pass along to the emitted event, and passed along the the funding cycle's data source and delegate.",
          "_minReturnedTokens": "The minimum number of tokens expected in return.",
          "_preferClaimedTokens": "A flag indicating whether the request prefers to issue tokens unstaked rather than staked.",
          "_projectId": "The ID of the project being paid."
        }
      },
      "processFees(uint256)": {
        "details": "Only a project owner, an operator, or the contract's owner can process held fees.",
        "params": {
          "_projectId": "The ID of the project whos held fees should be processed."
        }
      },
      "redeemTokensOf(address,uint256,uint256,uint256,address,string,bytes)": {
        "details": "Only a token's holder or a designated operator can redeem it.",
        "params": {
          "_beneficiary": "The address to send the ETH to. Send the address this contract to burn the count.",
          "_delegateMetadata": "Bytes to send along to the delegate, if one is provided.",
          "_holder": "The account to redeem tokens for.",
          "_memo": "A memo to pass along to the emitted event.",
          "_minReturnedWei": "The minimum amount of Wei expected in return.",
          "_projectId": "The ID of the project to which the tokens being redeemed belong.",
          "_tokenCount": "The number of tokens to redeem."
        },
        "returns": {
          "claimAmount": "The amount of ETH that the tokens were redeemed for, in wei."
        }
      },
      "remainingDistributionLimitOf(uint256,uint256,uint256)": {
        "params": {
          "_fundingCycleConfiguration": "The funding cycle configuration during which the limit remaining is being calculated.",
          "_fundingCycleNumber": "The number of the funding cycle during which the limit remaining is being calculated.",
          "_projectId": "The ID of the project to which the remaining limit belongs."
        },
        "returns": {
          "_0": "The remaining distribution limit for this terminal."
        }
      },
      "renounceOwnership()": {
        "details": "Leaves the contract without owner. It will not be possible to call `onlyOwner` functions anymore. Can only be called by the current owner. NOTE: Renouncing ownership will leave the contract without an owner, thereby removing any functionality that is only available to the owner."
      },
      "setFee(uint256)": {
        "details": "Only the owner of this contract can change the fee.",
        "params": {
          "_fee": "The new fee."
        }
      },
      "transferOwnership(address)": {
        "details": "Transfers ownership of the contract to a new account (`newOwner`). Can only be called by the current owner."
      },
      "useAllowanceOf(uint256,uint256,uint256,uint256,address)": {
        "details": "Only a project's owner or a designated operator can migrate it.",
        "params": {
          "_amount": "The amount of the allowance to use.",
          "_beneficiary": "The address to send the funds to.",
          "_projectId": "The ID of the project to use the allowance of."
        }
      }
    },
    "stateVariables": {
      "fee": {
        "details": "Out of 200."
      }
    },
    "version": 1
  },
  "userdoc": {
    "errors": {
      "PRBMath__MulDivOverflow(uint256,uint256)": [
        {
          "notice": "Emitted when the result overflows uint256."
        }
      ]
    },
    "kind": "user",
    "methods": {
      "addToBalanceOf(uint256,string)": {
        "notice": "Receives funds belonging to the specified project."
      },
      "delegate()": {
        "notice": "An address that serves as this terminal's delegate when making requests to juicebox ecosystem contracts."
      },
      "directory()": {
        "notice": "The directory of terminals and controllers for projects."
      },
      "distributePayoutsOf(uint256,uint256,uint256,uint256,string)": {
        "notice": "Distributes payouts for a project according to the constraints of its current funding cycle."
      },
      "ethBalanceOf(uint256)": {
        "notice": "The ETH balance that this terminal holds for each project."
      },
      "fee()": {
        "notice": "The platform fee percent."
      },
      "heldFeesOf(uint256)": {
        "notice": "The fees that are currently being held to be processed later for each project."
      },
      "migrate(uint256,address)": {
        "notice": "Allows a project owner to migrate its funds and operations to a new terminal."
      },
      "operatorStore()": {
        "notice": " A contract storing operator assignments."
      },
      "pay(uint256,address,uint256,bool,string,bytes)": {
        "notice": "Contribute ETH to a project."
      },
      "processFees(uint256)": {
        "notice": "Process any fees that are being held for the project."
      },
      "projects()": {
        "notice": "The Projects contract which mints ERC-721's that represent project ownership and transfers."
      },
      "redeemTokensOf(address,uint256,uint256,uint256,address,string,bytes)": {
        "notice": "Addresses can redeem their tokens to claim the project's overflowed ETH, or to trigger rules determined by the project's current funding cycle's data source."
      },
      "remainingDistributionLimitOf(uint256,uint256,uint256)": {
        "notice": "The amount of funds that can still be distributed within the preconfigured limit."
      },
      "setFee(uint256)": {
        "notice": "Allows the fee to be updated for subsequent funding cycle configurations."
      },
      "splitsStore()": {
        "notice": "The contract that stores splits for each project."
      },
      "store()": {
        "notice": "The contract that stores and manages the terminal's data."
      },
      "token()": {
        "notice": "The token that this terminal accepts."
      },
      "useAllowanceOf(uint256,uint256,uint256,uint256,address)": {
        "notice": "Allows a project to send funds from its overflow up to the preconfigured allowance."
      }
    },
    "notice": "This contract manages all inflows and outflows of funds into the Juicebox ecosystem.",
    "version": 1
  },
  "storageLayout": {
    "storage": [
      {
        "astId": 53,
        "contract": "contracts/JBETHPaymentTerminal.sol:JBETHPaymentTerminal",
        "label": "_owner",
        "offset": 0,
        "slot": "0",
        "type": "t_address"
      },
      {
        "astId": 160,
        "contract": "contracts/JBETHPaymentTerminal.sol:JBETHPaymentTerminal",
        "label": "_status",
        "offset": 0,
        "slot": "1",
        "type": "t_uint256"
      },
      {
        "astId": 6373,
        "contract": "contracts/JBETHPaymentTerminal.sol:JBETHPaymentTerminal",
        "label": "_heldFeesOf",
        "offset": 0,
        "slot": "2",
        "type": "t_mapping(t_uint256,t_array(t_struct(JBFee)15051_storage)dyn_storage)"
      },
      {
        "astId": 6403,
        "contract": "contracts/JBETHPaymentTerminal.sol:JBETHPaymentTerminal",
        "label": "fee",
        "offset": 0,
        "slot": "3",
        "type": "t_uint256"
      }
    ],
    "types": {
      "t_address": {
        "encoding": "inplace",
        "label": "address",
        "numberOfBytes": "20"
      },
      "t_array(t_struct(JBFee)15051_storage)dyn_storage": {
        "base": "t_struct(JBFee)15051_storage",
        "encoding": "dynamic_array",
        "label": "struct JBFee[]",
        "numberOfBytes": "32"
      },
      "t_mapping(t_uint256,t_array(t_struct(JBFee)15051_storage)dyn_storage)": {
        "encoding": "mapping",
        "key": "t_uint256",
        "label": "mapping(uint256 => struct JBFee[])",
        "numberOfBytes": "32",
        "value": "t_array(t_struct(JBFee)15051_storage)dyn_storage"
      },
      "t_string_storage": {
        "encoding": "bytes",
        "label": "string",
        "numberOfBytes": "32"
      },
      "t_struct(JBFee)15051_storage": {
        "encoding": "inplace",
        "label": "struct JBFee",
        "members": [
          {
            "astId": 15044,
            "contract": "contracts/JBETHPaymentTerminal.sol:JBETHPaymentTerminal",
            "label": "amount",
            "offset": 0,
            "slot": "0",
            "type": "t_uint256"
          },
          {
            "astId": 15046,
            "contract": "contracts/JBETHPaymentTerminal.sol:JBETHPaymentTerminal",
            "label": "fee",
            "offset": 0,
            "slot": "1",
            "type": "t_uint8"
          },
          {
            "astId": 15048,
            "contract": "contracts/JBETHPaymentTerminal.sol:JBETHPaymentTerminal",
            "label": "beneficiary",
            "offset": 1,
            "slot": "1",
            "type": "t_address"
          },
          {
            "astId": 15050,
            "contract": "contracts/JBETHPaymentTerminal.sol:JBETHPaymentTerminal",
            "label": "memo",
            "offset": 0,
            "slot": "2",
            "type": "t_string_storage"
          }
        ],
        "numberOfBytes": "96"
      },
      "t_uint256": {
        "encoding": "inplace",
        "label": "uint256",
        "numberOfBytes": "32"
      },
      "t_uint8": {
        "encoding": "inplace",
        "label": "uint8",
        "numberOfBytes": "1"
      }
    }
  }
}