{
  "address": "0x836330FEBee9EAe9fc0e180125A098Aa84765068",
  "abi": [
    {
      "inputs": [
        {
          "internalType": "contract IJBController",
          "name": "_jb",
          "type": "address"
        },
        {
          "internalType": "contract IJBFundingCycleStore",
          "name": "_fundingCycleStore",
          "type": "address"
        },
        {
          "internalType": "contract IJBTokenStore",
          "name": "_tokenStore",
          "type": "address"
        },
        {
          "internalType": "contract IJBPrices",
          "name": "_prices",
          "type": "address"
        },
        {
          "internalType": "contract IJBProjects",
          "name": "_projects",
          "type": "address"
        },
        {
          "internalType": "contract IJBSplitsStore",
          "name": "_splitsStore",
          "type": "address"
        },
        {
          "internalType": "contract IJBDirectory",
          "name": "_directory",
          "type": "address"
        },
        {
          "internalType": "contract IJBOperatorStore",
          "name": "_operatorStore",
          "type": "address"
        }
      ],
      "stateMutability": "nonpayable",
      "type": "constructor"
    },
    {
      "inputs": [
        {
          "internalType": "uint256",
          "name": "prod1",
          "type": "uint256"
        }
      ],
      "name": "PRBMath__MulDivFixedPointOverflow",
      "type": "error"
    },
    {
      "inputs": [
        {
          "internalType": "uint256",
          "name": "prod1",
          "type": "uint256"
        },
        {
          "internalType": "uint256",
          "name": "denominator",
          "type": "uint256"
        }
      ],
      "name": "PRBMath__MulDivOverflow",
      "type": "error"
    },
    {
      "anonymous": false,
      "inputs": [
        {
          "indexed": true,
          "internalType": "uint256",
          "name": "projectId",
          "type": "uint256"
        },
        {
          "indexed": false,
          "internalType": "uint256",
          "name": "value",
          "type": "uint256"
        },
        {
          "indexed": false,
          "internalType": "string",
          "name": "memo",
          "type": "string"
        },
        {
          "indexed": false,
          "internalType": "address",
          "name": "caller",
          "type": "address"
        }
      ],
      "name": "AddToBalance",
      "type": "event"
    },
    {
      "anonymous": false,
      "inputs": [
        {
          "indexed": true,
          "internalType": "contract IJBPayDelegate",
          "name": "delegate",
          "type": "address"
        },
        {
          "components": [
            {
              "internalType": "address",
              "name": "payer",
              "type": "address"
            },
            {
              "internalType": "uint256",
              "name": "projectId",
              "type": "uint256"
            },
            {
              "internalType": "uint256",
              "name": "amount",
              "type": "uint256"
            },
            {
              "internalType": "uint256",
              "name": "weight",
              "type": "uint256"
            },
            {
              "internalType": "uint256",
              "name": "count",
              "type": "uint256"
            },
            {
              "internalType": "address",
              "name": "beneficiary",
              "type": "address"
            },
            {
              "internalType": "string",
              "name": "memo",
              "type": "string"
            },
            {
              "internalType": "bytes",
              "name": "delegateMetadata",
              "type": "bytes"
            }
          ],
          "indexed": false,
          "internalType": "struct DidPayParam",
          "name": "param",
          "type": "tuple"
        }
      ],
      "name": "DelegateDidPay",
      "type": "event"
    },
    {
      "anonymous": false,
      "inputs": [
        {
          "indexed": true,
          "internalType": "contract IJBRedemptionDelegate",
          "name": "delegate",
          "type": "address"
        },
        {
          "components": [
            {
              "internalType": "address",
              "name": "holder",
              "type": "address"
            },
            {
              "internalType": "uint256",
              "name": "projectId",
              "type": "uint256"
            },
            {
              "internalType": "uint256",
              "name": "tokenCount",
              "type": "uint256"
            },
            {
              "internalType": "uint256",
              "name": "claimAmount",
              "type": "uint256"
            },
            {
              "internalType": "address payable",
              "name": "beneficiary",
              "type": "address"
            },
            {
              "internalType": "string",
              "name": "memo",
              "type": "string"
            },
            {
              "internalType": "bytes",
              "name": "metadata",
              "type": "bytes"
            }
          ],
          "indexed": false,
          "internalType": "struct DidRedeemParam",
          "name": "param",
          "type": "tuple"
        }
      ],
      "name": "DelegateDidRedeem",
      "type": "event"
    },
    {
      "anonymous": false,
      "inputs": [
        {
          "indexed": true,
          "internalType": "uint256",
          "name": "fundingCycleId",
          "type": "uint256"
        },
        {
          "indexed": true,
          "internalType": "uint256",
          "name": "projectId",
          "type": "uint256"
        },
        {
          "indexed": false,
          "internalType": "address",
          "name": "projectOwner",
          "type": "address"
        },
        {
          "indexed": false,
          "internalType": "uint256",
          "name": "amount",
          "type": "uint256"
        },
        {
          "indexed": false,
          "internalType": "uint256",
          "name": "tappedAmount",
          "type": "uint256"
        },
        {
          "indexed": false,
          "internalType": "uint256",
          "name": "feeAmount",
          "type": "uint256"
        },
        {
          "indexed": false,
          "internalType": "uint256",
          "name": "projectOwnerTransferAmount",
          "type": "uint256"
        },
        {
          "indexed": false,
          "internalType": "string",
          "name": "memo",
          "type": "string"
        },
        {
          "indexed": false,
          "internalType": "address",
          "name": "caller",
          "type": "address"
        }
      ],
      "name": "DistributePayouts",
      "type": "event"
    },
    {
      "anonymous": false,
      "inputs": [
        {
          "indexed": true,
          "internalType": "uint256",
          "name": "fundingCycleId",
          "type": "uint256"
        },
        {
          "indexed": true,
          "internalType": "uint256",
          "name": "projectId",
          "type": "uint256"
        },
        {
          "components": [
            {
              "internalType": "bool",
              "name": "preferUnstaked",
              "type": "bool"
            },
            {
              "internalType": "uint16",
              "name": "percent",
              "type": "uint16"
            },
            {
              "internalType": "uint48",
              "name": "lockedUntil",
              "type": "uint48"
            },
            {
              "internalType": "address payable",
              "name": "beneficiary",
              "type": "address"
            },
            {
              "internalType": "contract IJBSplitAllocator",
              "name": "allocator",
              "type": "address"
            },
            {
              "internalType": "uint56",
              "name": "projectId",
              "type": "uint56"
            }
          ],
          "indexed": false,
          "internalType": "struct Split",
          "name": "split",
          "type": "tuple"
        },
        {
          "indexed": false,
          "internalType": "uint256",
          "name": "amount",
          "type": "uint256"
        },
        {
          "indexed": false,
          "internalType": "address",
          "name": "caller",
          "type": "address"
        }
      ],
      "name": "DistributeToPayoutSplit",
      "type": "event"
    },
    {
      "anonymous": false,
      "inputs": [
        {
          "indexed": true,
          "internalType": "address",
          "name": "previousOwner",
          "type": "address"
        },
        {
          "indexed": true,
          "internalType": "address",
          "name": "newOwner",
          "type": "address"
        }
      ],
      "name": "OwnershipTransferred",
      "type": "event"
    },
    {
      "anonymous": false,
      "inputs": [
        {
          "indexed": true,
          "internalType": "uint256",
          "name": "fundingCycleId",
          "type": "uint256"
        },
        {
          "indexed": true,
          "internalType": "uint256",
          "name": "projectId",
          "type": "uint256"
        },
        {
          "indexed": true,
          "internalType": "address",
          "name": "beneficiary",
          "type": "address"
        },
        {
          "components": [
            {
              "internalType": "uint256",
              "name": "id",
              "type": "uint256"
            },
            {
              "internalType": "uint256",
              "name": "projectId",
              "type": "uint256"
            },
            {
              "internalType": "uint256",
              "name": "number",
              "type": "uint256"
            },
            {
              "internalType": "uint256",
              "name": "basedOn",
              "type": "uint256"
            },
            {
              "internalType": "uint256",
              "name": "configured",
              "type": "uint256"
            },
            {
              "internalType": "uint256",
              "name": "cycleLimit",
              "type": "uint256"
            },
            {
              "internalType": "uint256",
              "name": "weight",
              "type": "uint256"
            },
            {
              "internalType": "contract IJBFundingCycleBallot",
              "name": "ballot",
              "type": "address"
            },
            {
              "internalType": "uint256",
              "name": "start",
              "type": "uint256"
            },
            {
              "internalType": "uint256",
              "name": "duration",
              "type": "uint256"
            },
            {
              "internalType": "uint256",
              "name": "target",
              "type": "uint256"
            },
            {
              "internalType": "uint256",
              "name": "currency",
              "type": "uint256"
            },
            {
              "internalType": "uint256",
              "name": "fee",
              "type": "uint256"
            },
            {
              "internalType": "uint256",
              "name": "discountRate",
              "type": "uint256"
            },
            {
              "internalType": "uint256",
              "name": "tapped",
              "type": "uint256"
            },
            {
              "internalType": "uint256",
              "name": "metadata",
              "type": "uint256"
            }
          ],
          "indexed": false,
          "internalType": "struct FundingCycle",
          "name": "fundingCycle",
          "type": "tuple"
        },
        {
          "indexed": false,
          "internalType": "uint256",
          "name": "amount",
          "type": "uint256"
        },
        {
          "indexed": false,
          "internalType": "uint256",
          "name": "weight",
          "type": "uint256"
        },
        {
          "indexed": false,
          "internalType": "uint256",
          "name": "tokenCount",
          "type": "uint256"
        },
        {
          "indexed": false,
          "internalType": "string",
          "name": "memo",
          "type": "string"
        },
        {
          "indexed": false,
          "internalType": "address",
          "name": "caller",
          "type": "address"
        }
      ],
      "name": "Pay",
      "type": "event"
    },
    {
      "anonymous": false,
      "inputs": [
        {
          "indexed": true,
          "internalType": "uint256",
          "name": "fundingCycleId",
          "type": "uint256"
        },
        {
          "indexed": true,
          "internalType": "uint256",
          "name": "projectId",
          "type": "uint256"
        },
        {
          "indexed": true,
          "internalType": "address",
          "name": "holder",
          "type": "address"
        },
        {
          "components": [
            {
              "internalType": "uint256",
              "name": "id",
              "type": "uint256"
            },
            {
              "internalType": "uint256",
              "name": "projectId",
              "type": "uint256"
            },
            {
              "internalType": "uint256",
              "name": "number",
              "type": "uint256"
            },
            {
              "internalType": "uint256",
              "name": "basedOn",
              "type": "uint256"
            },
            {
              "internalType": "uint256",
              "name": "configured",
              "type": "uint256"
            },
            {
              "internalType": "uint256",
              "name": "cycleLimit",
              "type": "uint256"
            },
            {
              "internalType": "uint256",
              "name": "weight",
              "type": "uint256"
            },
            {
              "internalType": "contract IJBFundingCycleBallot",
              "name": "ballot",
              "type": "address"
            },
            {
              "internalType": "uint256",
              "name": "start",
              "type": "uint256"
            },
            {
              "internalType": "uint256",
              "name": "duration",
              "type": "uint256"
            },
            {
              "internalType": "uint256",
              "name": "target",
              "type": "uint256"
            },
            {
              "internalType": "uint256",
              "name": "currency",
              "type": "uint256"
            },
            {
              "internalType": "uint256",
              "name": "fee",
              "type": "uint256"
            },
            {
              "internalType": "uint256",
              "name": "discountRate",
              "type": "uint256"
            },
            {
              "internalType": "uint256",
              "name": "tapped",
              "type": "uint256"
            },
            {
              "internalType": "uint256",
              "name": "metadata",
              "type": "uint256"
            }
          ],
          "indexed": false,
          "internalType": "struct FundingCycle",
          "name": "fundingCycle",
          "type": "tuple"
        },
        {
          "indexed": false,
          "internalType": "address",
          "name": "beneficiary",
          "type": "address"
        },
        {
          "indexed": false,
          "internalType": "uint256",
          "name": "tokenCount",
          "type": "uint256"
        },
        {
          "indexed": false,
          "internalType": "uint256",
          "name": "claimedAmount",
          "type": "uint256"
        },
        {
          "indexed": false,
          "internalType": "string",
          "name": "memo",
          "type": "string"
        },
        {
          "indexed": false,
          "internalType": "address",
          "name": "caller",
          "type": "address"
        }
      ],
      "name": "Redeem",
      "type": "event"
    },
    {
      "anonymous": false,
      "inputs": [
        {
          "indexed": true,
          "internalType": "uint256",
          "name": "projectId",
          "type": "uint256"
        },
        {
          "indexed": true,
          "internalType": "contract IJBTerminal",
          "name": "to",
          "type": "address"
        },
        {
          "indexed": false,
          "internalType": "uint256",
          "name": "amount",
          "type": "uint256"
        },
        {
          "indexed": false,
          "internalType": "address",
          "name": "caller",
          "type": "address"
        }
      ],
      "name": "TransferBalance",
      "type": "event"
    },
    {
      "anonymous": false,
      "inputs": [
        {
          "indexed": true,
          "internalType": "uint256",
          "name": "fundingCycleId",
          "type": "uint256"
        },
        {
          "indexed": true,
          "internalType": "uint256",
          "name": "configuration",
          "type": "uint256"
        },
        {
          "indexed": true,
          "internalType": "uint256",
          "name": "projectId",
          "type": "uint256"
        },
        {
          "indexed": false,
          "internalType": "address",
          "name": "beneficiary",
          "type": "address"
        },
        {
          "indexed": false,
          "internalType": "uint256",
          "name": "amount",
          "type": "uint256"
        },
        {
          "indexed": false,
          "internalType": "uint256",
          "name": "feeAmount",
          "type": "uint256"
        },
        {
          "indexed": false,
          "internalType": "uint256",
          "name": "transferAmount",
          "type": "uint256"
        },
        {
          "indexed": false,
          "internalType": "address",
          "name": "caller",
          "type": "address"
        }
      ],
      "name": "UseAllowance",
      "type": "event"
    },
    {
      "inputs": [
        {
          "internalType": "uint256",
          "name": "_projectId",
          "type": "uint256"
        },
        {
          "internalType": "string",
          "name": "_memo",
          "type": "string"
        }
      ],
      "name": "addToBalanceOf",
      "outputs": [],
      "stateMutability": "payable",
      "type": "function"
    },
    {
      "inputs": [
        {
          "internalType": "uint256",
          "name": "",
          "type": "uint256"
        }
      ],
      "name": "balanceOf",
      "outputs": [
        {
          "internalType": "uint256",
          "name": "",
          "type": "uint256"
        }
      ],
      "stateMutability": "view",
      "type": "function"
    },
    {
      "inputs": [
        {
          "internalType": "uint256",
          "name": "_projectId",
          "type": "uint256"
        },
        {
          "internalType": "uint256",
          "name": "_tokenCount",
          "type": "uint256"
        }
      ],
      "name": "claimableOverflowOf",
      "outputs": [
        {
          "internalType": "uint256",
          "name": "",
          "type": "uint256"
        }
      ],
      "stateMutability": "view",
      "type": "function"
    },
    {
      "inputs": [
        {
          "internalType": "uint256",
          "name": "_projectId",
          "type": "uint256"
        }
      ],
      "name": "currentOverflowOf",
      "outputs": [
        {
          "internalType": "uint256",
          "name": "",
          "type": "uint256"
        }
      ],
      "stateMutability": "view",
      "type": "function"
    },
    {
      "inputs": [],
      "name": "directory",
      "outputs": [
        {
          "internalType": "contract IJBDirectory",
          "name": "",
          "type": "address"
        }
      ],
      "stateMutability": "view",
      "type": "function"
    },
    {
      "inputs": [
        {
          "internalType": "uint256",
          "name": "_projectId",
          "type": "uint256"
        },
        {
          "internalType": "uint256",
          "name": "_amount",
          "type": "uint256"
        },
        {
          "internalType": "uint256",
          "name": "_currency",
          "type": "uint256"
        },
        {
          "internalType": "uint256",
          "name": "_minReturnedWei",
          "type": "uint256"
        },
        {
          "internalType": "string",
          "name": "_memo",
          "type": "string"
        }
      ],
      "name": "distributePayoutsOf",
      "outputs": [
        {
          "internalType": "uint256",
          "name": "",
          "type": "uint256"
        }
      ],
      "stateMutability": "nonpayable",
      "type": "function"
    },
    {
      "inputs": [],
      "name": "fundingCycleStore",
      "outputs": [
        {
          "internalType": "contract IJBFundingCycleStore",
          "name": "",
          "type": "address"
        }
      ],
      "stateMutability": "view",
      "type": "function"
    },
    {
      "inputs": [],
      "name": "jb",
      "outputs": [
        {
          "internalType": "contract IJBController",
          "name": "",
          "type": "address"
        }
      ],
      "stateMutability": "view",
      "type": "function"
    },
    {
      "inputs": [
        {
          "internalType": "uint256",
          "name": "_projectId",
          "type": "uint256"
        },
        {
          "internalType": "contract IJBTerminal",
          "name": "_terminal",
          "type": "address"
        }
      ],
      "name": "migrate",
      "outputs": [],
      "stateMutability": "nonpayable",
      "type": "function"
    },
    {
      "inputs": [],
      "name": "operatorStore",
      "outputs": [
        {
          "internalType": "contract IJBOperatorStore",
          "name": "",
          "type": "address"
        }
      ],
      "stateMutability": "view",
      "type": "function"
    },
    {
      "inputs": [],
      "name": "owner",
      "outputs": [
        {
          "internalType": "address",
          "name": "",
          "type": "address"
        }
      ],
      "stateMutability": "view",
      "type": "function"
    },
    {
      "inputs": [
        {
          "internalType": "uint256",
          "name": "_projectId",
          "type": "uint256"
        },
        {
          "internalType": "address",
          "name": "_beneficiary",
          "type": "address"
        },
        {
          "internalType": "uint256",
          "name": "_minReturnedTokens",
          "type": "uint256"
        },
        {
          "internalType": "bool",
          "name": "_preferUnstakedTokens",
          "type": "bool"
        },
        {
          "internalType": "string",
          "name": "_memo",
          "type": "string"
        },
        {
          "internalType": "bytes",
          "name": "_delegateMetadata",
          "type": "bytes"
        }
      ],
      "name": "pay",
      "outputs": [
        {
          "internalType": "uint256",
          "name": "",
          "type": "uint256"
        }
      ],
      "stateMutability": "payable",
      "type": "function"
    },
    {
      "inputs": [],
      "name": "prices",
      "outputs": [
        {
          "internalType": "contract IJBPrices",
          "name": "",
          "type": "address"
        }
      ],
      "stateMutability": "view",
      "type": "function"
    },
    {
      "inputs": [],
      "name": "projects",
      "outputs": [
        {
          "internalType": "contract IJBProjects",
          "name": "",
          "type": "address"
        }
      ],
      "stateMutability": "view",
      "type": "function"
    },
    {
      "inputs": [
        {
          "internalType": "address",
          "name": "_holder",
          "type": "address"
        },
        {
          "internalType": "uint256",
          "name": "_projectId",
          "type": "uint256"
        },
        {
          "internalType": "uint256",
          "name": "_tokenCount",
          "type": "uint256"
        },
        {
          "internalType": "uint256",
          "name": "_minReturnedWei",
          "type": "uint256"
        },
        {
          "internalType": "address payable",
          "name": "_beneficiary",
          "type": "address"
        },
        {
          "internalType": "string",
          "name": "_memo",
          "type": "string"
        },
        {
          "internalType": "bytes",
          "name": "_delegateMetadata",
          "type": "bytes"
        }
      ],
      "name": "redeemTokensOf",
      "outputs": [
        {
          "internalType": "uint256",
          "name": "claimAmount",
          "type": "uint256"
        }
      ],
      "stateMutability": "nonpayable",
      "type": "function"
    },
    {
      "inputs": [],
      "name": "renounceOwnership",
      "outputs": [],
      "stateMutability": "nonpayable",
      "type": "function"
    },
    {
      "inputs": [],
      "name": "splitsStore",
      "outputs": [
        {
          "internalType": "contract IJBSplitsStore",
          "name": "",
          "type": "address"
        }
      ],
      "stateMutability": "view",
      "type": "function"
    },
    {
      "inputs": [],
      "name": "tokenStore",
      "outputs": [
        {
          "internalType": "contract IJBTokenStore",
          "name": "",
          "type": "address"
        }
      ],
      "stateMutability": "view",
      "type": "function"
    },
    {
      "inputs": [
        {
          "internalType": "address",
          "name": "newOwner",
          "type": "address"
        }
      ],
      "name": "transferOwnership",
      "outputs": [],
      "stateMutability": "nonpayable",
      "type": "function"
    },
    {
      "inputs": [
        {
          "internalType": "uint256",
          "name": "_projectId",
          "type": "uint256"
        },
        {
          "internalType": "uint256",
          "name": "_amount",
          "type": "uint256"
        },
        {
          "internalType": "uint256",
          "name": "_currency",
          "type": "uint256"
        },
        {
          "internalType": "uint256",
          "name": "_minReturnedWei",
          "type": "uint256"
        },
        {
          "internalType": "address payable",
          "name": "_beneficiary",
          "type": "address"
        }
      ],
      "name": "useAllowanceOf",
      "outputs": [
        {
          "internalType": "uint256",
          "name": "",
          "type": "uint256"
        }
      ],
      "stateMutability": "nonpayable",
      "type": "function"
    },
    {
      "inputs": [
        {
          "internalType": "uint256",
          "name": "",
          "type": "uint256"
        },
        {
          "internalType": "uint256",
          "name": "",
          "type": "uint256"
        }
      ],
      "name": "usedOverflowAllowanceOf",
      "outputs": [
        {
          "internalType": "uint256",
          "name": "",
          "type": "uint256"
        }
      ],
      "stateMutability": "view",
      "type": "function"
    }
  ],
  "transactionHash": "0x6514bebf83d8bb4ae8c05340ede414b519a2e28871ed4bdacd560c1616ac6981",
  "args": [
    "0xf56adc723D82218E86d5b5075d8c7B35F7B3625f",
    "0x7Bf5Aa19778644B314fFC6f781c6f89CD873E71c",
    "0x61d095f86c36B05446edd5a19DEAd11c703Be3F0",
    "0x990E0d768240B651760cE07502D89b3DBe7A2EC2",
    "0x2DC1D364e52FCC7A3F3b5225813F0fcEC1ff715A",
    "0xa63F15EcCA0fE86B48716CE53aAA8685A596e82f",
    "0xf835913B60B870A3a14b6C7179fEDF0fEba49D93",
    "0xC4D620E189b420249005FD38b22B1EA138cc0BeE"
  ],
  "solcInputHash": "096d8193c9ef3fa94853075f8aa2d2db",
  "bytecode": "0x6101806040523480156200001257600080fd5b5060405162004e8938038062004e898339810160408190526200003591620000f1565b606081901b6001600160601b0319166080526200005233620000a1565b50600180556001600160601b0319606097881b81166101605295871b861660c05293861b851660e05291851b841661014052841b831660a052831b82166101005290911b1661012052620001cb565b600080546001600160a01b038381166001600160a01b0319831681178455604051919092169283917f8be0079c531659141344cd1fd0a4f28419497f9722a3daafe3b4186f6b6457e09190a35050565b600080600080600080600080610100898b0312156200010f57600080fd5b88516200011c81620001b2565b60208a01519098506200012f81620001b2565b60408a01519097506200014281620001b2565b60608a01519096506200015581620001b2565b60808a01519095506200016881620001b2565b60a08a01519094506200017b81620001b2565b60c08a01519093506200018e81620001b2565b60e08a0151909250620001a181620001b2565b809150509295985092959890939650565b6001600160a01b0381168114620001c857600080fd5b50565b60805160601c60a05160601c60c05160601c60e05160601c6101005160601c6101205160601c6101405160601c6101605160601c614b6e6200031b6000396000818161032f015281816119e701528181611da101528181612796015281816129ec0152818161332601526139a901526000818161043801528181611cc001528181612bb901526131e90152600081816104040152818161200b0152612f0b0152600081816101df0152612cfd0152600081816102940152818161236a0152613299015260008181610260015281816115820152818161174501528181611b9c0152818161246201528181613469015261360f0152600081816102dd015281816105ed01528181610a3001528181610c2701528181610cde015281816112e00152611397015260008181610390015281816106d001528181610b1301528181610f3d01526110090152614b6e6000f3fe60806040526004361061016a5760003560e01c806397fa657a116100cb578063c41c2f241161007f578063ddfd414a11610059578063ddfd414a1461047a578063f2fde38b1461049a578063f548c86f146104ba57600080fd5b8063c41c2f24146103f2578063d3419bf314610426578063d930c60c1461045a57600080fd5b8063ad007d63116100b0578063ad007d631461037e578063b5a6aed7146103b2578063b6cf978e146103d257600080fd5b806397fa657a1461031d5780639cc7f7081461035157600080fd5b8063557e715511610122578063715018a611610107578063715018a6146102b65780638b79543c146102cb5780638da5cb5b146102ff57600080fd5b8063557e71551461024e578063619306301461028257600080fd5b80632bdfe004116101535780632bdfe004146101cd578063405b84fa14610219578063423734721461023b57600080fd5b8063039304531461016f578063115cdd8e14610195575b600080fd5b61018261017d3660046141cc565b6104da565b6040519081526020015b60405180910390f35b3480156101a157600080fd5b506101826101b036600461436c565b600360209081526000928352604080842090915290825290205481565b3480156101d957600080fd5b506102017f000000000000000000000000000000000000000000000000000000000000000081565b6040516001600160a01b03909116815260200161018c565b34801561022557600080fd5b50610239610234366004614274565b610561565b005b6102396102493660046142a4565b6108a7565b34801561025a57600080fd5b506102017f000000000000000000000000000000000000000000000000000000000000000081565b34801561028e57600080fd5b506102017f000000000000000000000000000000000000000000000000000000000000000081565b3480156102c257600080fd5b50610239610941565b3480156102d757600080fd5b506102017f000000000000000000000000000000000000000000000000000000000000000081565b34801561030b57600080fd5b506000546001600160a01b0316610201565b34801561032957600080fd5b506102017f000000000000000000000000000000000000000000000000000000000000000081565b34801561035d57600080fd5b5061018261036c3660046141b3565b60026020526000908152604090205481565b34801561038a57600080fd5b506102017f000000000000000000000000000000000000000000000000000000000000000081565b3480156103be57600080fd5b506101826103cd36600461438e565b6109a7565b3480156103de57600080fd5b506101826103ed366004613e98565b610e81565b3480156103fe57600080fd5b506102017f000000000000000000000000000000000000000000000000000000000000000081565b34801561043257600080fd5b506102017f000000000000000000000000000000000000000000000000000000000000000081565b34801561046657600080fd5b506101826104753660046143db565b611238565b34801561048657600080fd5b506101826104953660046141b3565b611546565b3480156104a657600080fd5b506102396104b5366004613e5e565b611625565b3480156104c657600080fd5b506101826104d536600461436c565b611707565b6000610554348a8a8a8a8a8a8080601f01602080910402602001604051908101604052809392919081815260200183838082843760009201919091525050604080516020601f8e018190048102820181019092528c815292508c91508b90819084018382808284376000920191909152506117cf92505050565b9998505050505050505050565b600260015414156105b95760405162461bcd60e51b815260206004820152601f60248201527f5265656e7472616e637947756172643a207265656e7472616e742063616c6c0060448201526064015b60405180910390fd5b60026001556040517f6352211e000000000000000000000000000000000000000000000000000000008152600481018390527f00000000000000000000000000000000000000000000000000000000000000006001600160a01b031690636352211e9060240160206040518083038186803b15801561063757600080fd5b505afa15801561064b573d6000803e3d6000fd5b505050506040513d601f19601f8201168201806040525081019061066f9190613e7b565b826004336001600160a01b038416148061074a57506040517fc161c93f0000000000000000000000000000000000000000000000000000000081523360048201526001600160a01b03848116602483015260448201849052606482018390527f0000000000000000000000000000000000000000000000000000000000000000169063c161c93f9060840160206040518083038186803b15801561071257600080fd5b505afa158015610726573d6000803e3d6000fd5b505050506040513d601f19601f8201168201806040525081019061074a919061408f565b6107965760405162461bcd60e51b815260206004820152601860248201527f4f706572617461626c653a20554e415554484f52495a4544000000000000000060448201526064016105b0565b60006107a2868661199d565b9050801561085657604080517f42373472000000000000000000000000000000000000000000000000000000008152600481018890526024810191909152602060448201527f4d6967726174696f6e2066726f6d204a425061796d656e745465726d696e616c60648201526001600160a01b0386169063423734729083906084016000604051808303818588803b15801561083c57600080fd5b505af1158015610850573d6000803e3d6000fd5b50505050505b604080518281523360208201526001600160a01b0387169188917fdcc3b1440c9d71c3dcc305012391bb7f97e937b635496ed1854cda652f848390910160405180910390a350506001805550505050565b600034116108f75760405162461bcd60e51b815260206004820152600560248201527f4e4f5f4f5000000000000000000000000000000000000000000000000000000060448201526064016105b0565b6109018234611a49565b817f4ce42b42caaa564737146f357a8fa7fe24940fac843d392a69e23b32a1d766a33483336040516109359392919061487b565b60405180910390a25050565b6000546001600160a01b0316331461099b5760405162461bcd60e51b815260206004820181905260248201527f4f776e61626c653a2063616c6c6572206973206e6f7420746865206f776e657260448201526064016105b0565b6109a56000611a79565b565b6000600260015414156109fc5760405162461bcd60e51b815260206004820152601f60248201527f5265656e7472616e637947756172643a207265656e7472616e742063616c6c0060448201526064016105b0565b60026001556040517f6352211e000000000000000000000000000000000000000000000000000000008152600481018790527f00000000000000000000000000000000000000000000000000000000000000006001600160a01b031690636352211e9060240160206040518083038186803b158015610a7a57600080fd5b505afa158015610a8e573d6000803e3d6000fd5b505050506040513d601f19601f82011682018060405250810190610ab29190613e7b565b86600f336001600160a01b0384161480610b8d57506040517fc161c93f0000000000000000000000000000000000000000000000000000000081523360048201526001600160a01b03848116602483015260448201849052606482018390527f0000000000000000000000000000000000000000000000000000000000000000169063c161c93f9060840160206040518083038186803b158015610b5557600080fd5b505afa158015610b69573d6000803e3d6000fd5b505050506040513d601f19601f82011682018060405250810190610b8d919061408f565b610bd95760405162461bcd60e51b815260206004820152601860248201527f4f706572617461626c653a20554e415554484f52495a4544000000000000000060448201526064016105b0565b600080610be88b8b8b8b611ae1565b6040517f6352211e000000000000000000000000000000000000000000000000000000008152600481018e905291935091506000906001600160a01b037f00000000000000000000000000000000000000000000000000000000000000001690636352211e9060240160206040518083038186803b158015610c6957600080fd5b505afa158015610c7d573d6000803e3d6000fd5b505050506040513d601f19601f82011682018060405250810190610ca19190613e7b565b6040517f49491987000000000000000000000000000000000000000000000000000000008152600481018e90529091506000906001600160a01b037f00000000000000000000000000000000000000000000000000000000000000001690634949198790602401602060405180830381600087803b158015610d2257600080fd5b505af1158015610d36573d6000803e3d6000fd5b505050506040513d601f19601f82011682018060405250810190610d5a91906140ac565b9050600084610180015160001480610d7257508d6001145b610dd1576101808501516040517f4665652066726f6d2040000000000000000000000000000000000000000000006020820152602a8101849052610dcc9186918690604a015b604051602081830303815290604052611fa2565b610dd4565b60005b90506000610de282866149aa565b90508015610df457610df48b8261217d565b8e866080015187600001517f4d0b119651438cfed12585fc57e8ec9d9cc98bb1e5da27bdc4b7419d084500c28e89878733604051610e619594939291906001600160a01b039586168152602081019490945260408401929092526060830152909116608082015260a00190565b60405180910390a450509251600180559c9b505050505050505050505050565b600060026001541415610ed65760405162461bcd60e51b815260206004820152601f60248201527f5265656e7472616e637947756172643a207265656e7472616e742063616c6c0060448201526064016105b0565b600260015587876003336001600160a01b0384161480610fb757506040517fc161c93f0000000000000000000000000000000000000000000000000000000081523360048201526001600160a01b03848116602483015260448201849052606482018390527f0000000000000000000000000000000000000000000000000000000000000000169063c161c93f9060840160206040518083038186803b158015610f7f57600080fd5b505afa158015610f93573d6000803e3d6000fd5b505050506040513d601f19601f82011682018060405250810190610fb7919061408f565b8061108357506040517fc161c93f0000000000000000000000000000000000000000000000000000000081523360048201526001600160a01b03848116602483015260006044830152606482018390527f0000000000000000000000000000000000000000000000000000000000000000169063c161c93f9060840160206040518083038186803b15801561104b57600080fd5b505afa15801561105f573d6000803e3d6000fd5b505050506040513d601f19601f82011682018060405250810190611083919061408f565b6110cf5760405162461bcd60e51b815260206004820152601860248201527f4f706572617461626c653a20554e415554484f52495a4544000000000000000060448201526064016105b0565b6001600160a01b0387166111255760405162461bcd60e51b815260206004820152600c60248201527f5a45524f5f41444452455353000000000000000000000000000000000000000060448201526064016105b0565b6111ae6040518061020001604052806000815260200160008152602001600081526020016000815260200160008152602001600081526020016000815260200160006001600160a01b0316815260200160008152602001600081526020016000815260200160008152602001600081526020016000815260200160008152602001600081525090565b6111bd8c8c8c8c8c8c8c61229b565b98509550905084156111d3576111d3888661217d565b8b6001600160a01b03168b82600001517f8c6a60583b17b73275b7e81c1e7958dfcf3f1e967a6e0730c0deef75318d7386848c8f8b8e3360405161121c9695949392919061473a565b60405180910390a4505060018055509098975050505050505050565b60006002600154141561128d5760405162461bcd60e51b815260206004820152601f60248201527f5265656e7472616e637947756172643a207265656e7472616e742063616c6c0060448201526064016105b0565b60026001556000806112a18888888861292a565b6040517f6352211e000000000000000000000000000000000000000000000000000000008152600481018b905291935091506000906001600160a01b037f00000000000000000000000000000000000000000000000000000000000000001690636352211e9060240160206040518083038186803b15801561132257600080fd5b505afa158015611336573d6000803e3d6000fd5b505050506040513d601f19601f8201168201806040525081019061135a9190613e7b565b6040517f49491987000000000000000000000000000000000000000000000000000000008152600481018b90529091506000906001600160a01b037f00000000000000000000000000000000000000000000000000000000000000001690634949198790602401602060405180830381600087803b1580156113db57600080fd5b505af11580156113ef573d6000803e3d6000fd5b505050506040513d601f19601f8201168201806040525081019061141391906140ac565b905060008461018001516000148061142b57508a6001145b61147a576101808501516040517f4665652066726f6d2040000000000000000000000000000000000000000000006020820152602a81018490526114759186918690604a01610db8565b61147d565b60005b905060006114d68661148f84886149aa565b6040517f5061796f75742066726f6d2040000000000000000000000000000000000000006020820152602d8101879052604d01604051602081830303815290604052612cb2565b905080156114e8576114e8848261217d565b8b86600001517f4f97298058625e1e4cc1b7f86aa23c1d6ec6caa63932b87b289a9ea70252f777868e8987878f33604051611529979695949392919061458c565b60405180910390a350509251600180559998505050505050505050565b6040517f43a266c20000000000000000000000000000000000000000000000000000000081526004810182905260009081906001600160a01b037f000000000000000000000000000000000000000000000000000000000000000016906343a266c2906024016102006040518083038186803b1580156115c557600080fd5b505afa1580156115d9573d6000803e3d6000fd5b505050506040513d601f19601f820116820180604052508101906115fd91906140e6565b90508060400151600014156116155750600092915050565b61161e81613159565b9392505050565b6000546001600160a01b0316331461167f5760405162461bcd60e51b815260206004820181905260248201527f4f776e61626c653a2063616c6c6572206973206e6f7420746865206f776e657260448201526064016105b0565b6001600160a01b0381166116fb5760405162461bcd60e51b815260206004820152602660248201527f4f776e61626c653a206e6577206f776e657220697320746865207a65726f206160448201527f646472657373000000000000000000000000000000000000000000000000000060648201526084016105b0565b61170481611a79565b50565b6040517f43a266c2000000000000000000000000000000000000000000000000000000008152600481018390526000906117c6906001600160a01b037f000000000000000000000000000000000000000000000000000000000000000016906343a266c2906024016102006040518083038186803b15801561178857600080fd5b505afa15801561179c573d6000803e3d6000fd5b505050506040513d601f19601f820116820180604052508101906117c091906140e6565b83613244565b90505b92915050565b60008088116118205760405162461bcd60e51b815260206004820152600a60248201527f4241445f414d4f554e540000000000000000000000000000000000000000000060448201526064016105b0565b6001600160a01b0386166118765760405162461bcd60e51b815260206004820152600c60248201527f5a45524f5f41444452455353000000000000000000000000000000000000000060448201526064016105b0565b6118ff6040518061020001604052806000815260200160008152602001600081526020016000815260200160008152602001600081526020016000815260200160006001600160a01b0316815260200160008152602001600081526020016000815260200160008152602001600081526020016000815260200160008152602001600081525090565b60008061192d338c8c8c8b611915576000611918565b60015b60ff16176001600160a01b03168c8b8b61357f565b80995081945082955083965050505050886001600160a01b03168a84600001517f64736168c798648edf1660a4574ac03d71cfca8eccebfa7ad4a7bc65ffcf986a868f87878d3360405161198696959493929190614793565b60405180910390a450505198975050505050505050565b6000828152600260205260408082208054929055517f2dc28a300000000000000000000000000000000000000000000000000000000081526001600160a01b0383811660048301527f00000000000000000000000000000000000000000000000000000000000000001690632dc28a3090602401600060405180830381600087803b158015611a2b57600080fd5b505af1158015611a3f573d6000803e3d6000fd5b5050505092915050565b600082815260026020526040902054611a63908290614992565b6000928352600260205260409092209190915550565b600080546001600160a01b038381167fffffffffffffffffffffffff0000000000000000000000000000000000000000831681178455604051919092169283917f8be0079c531659141344cd1fd0a4f28419497f9722a3daafe3b4186f6b6457e09190a35050565b611b6a6040518061020001604052806000815260200160008152602001600081526020016000815260200160008152602001600081526020016000815260200160006001600160a01b0316815260200160008152602001600081526020016000815260200160008152602001600081526020016000815260200160008152602001600081525090565b6040517f43a266c2000000000000000000000000000000000000000000000000000000008152600481018690526000907f00000000000000000000000000000000000000000000000000000000000000006001600160a01b0316906343a266c2906024016102006040518083038186803b158015611be757600080fd5b505afa158015611bfb573d6000803e3d6000fd5b505050506040513d601f19601f82011682018060405250810190611c1f91906140e6565b91508161016001518414611c755760405162461bcd60e51b815260206004820152601360248201527f554e45585045435445445f43555252454e43590000000000000000000000000060448201526064016105b0565b6101608201516040517ff48cc101000000000000000000000000000000000000000000000000000000008152600481019190915260006024820152611d409086906001600160a01b037f0000000000000000000000000000000000000000000000000000000000000000169063f48cc101906044015b60206040518083038186803b158015611d0357600080fd5b505afa158015611d17573d6000803e3d6000fd5b505050506040513d601f19601f82011682018060405250810190611d3b91906140ac565b613b1b565b6000878152600360209081526040808320608087018051855292529182902054905191517f5172a2bf000000000000000000000000000000000000000000000000000000008152600481018a905260248101929092523060448301529192507f00000000000000000000000000000000000000000000000000000000000000006001600160a01b031690635172a2bf9060640160206040518083038186803b158015611deb57600080fd5b505afa158015611dff573d6000803e3d6000fd5b505050506040513d601f19601f82011682018060405250810190611e2391906140ac565b611e2d91906149aa565b811115611e7c5760405162461bcd60e51b815260206004820152600b60248201527f4e4f545f414c4c4f57454400000000000000000000000000000000000000000060448201526064016105b0565b80831115611ecc5760405162461bcd60e51b815260206004820152600a60248201527f494e41444551554154450000000000000000000000000000000000000000000060448201526064016105b0565b600086815260026020526040902054811115611f2a5760405162461bcd60e51b815260206004820152601260248201527f494e53554646494349454e545f46554e4453000000000000000000000000000060448201526064016105b0565b600086815260036020908152604080832060808601518452909152902054611f53908290614992565b600087815260036020908152604080832060808701518452825280832093909355888252600290522054611f889082906149aa565b600096875260026020526040909620959095559492505050565b6000611fb98560c8611fb48782614992565b613b2c565b611fc390866149aa565b905080611fd257506000612175565b6040517f532fbaee00000000000000000000000000000000000000000000000000000000815260016004820152600060248201819052907f00000000000000000000000000000000000000000000000000000000000000006001600160a01b03169063532fbaee9060440160206040518083038186803b15801561205557600080fd5b505afa158015612069573d6000803e3d6000fd5b505050506040513d601f19601f8201168201806040525081019061208d9190613e7b565b90506001600160a01b03811630146121525760408051602081018252600080825291517f039304530000000000000000000000000000000000000000000000000000000081526001600160a01b0384169263039304539286926120fb926001928b9282918c916004016145de565b6020604051808303818588803b15801561211457600080fd5b505af1158015612128573d6000803e3d6000fd5b50505050506040513d601f19601f8201168201806040525081019061214d91906140ac565b612172565b6121728260018660008088604051806020016040528060008152506117cf565b50505b949350505050565b804710156121cd5760405162461bcd60e51b815260206004820152601d60248201527f416464726573733a20696e73756666696369656e742062616c616e636500000060448201526064016105b0565b6000826001600160a01b03168260405160006040518083038185875af1925050503d806000811461221a576040519150601f19603f3d011682016040523d82523d6000602084013e61221f565b606091505b50509050806122965760405162461bcd60e51b815260206004820152603a60248201527f416464726573733a20756e61626c6520746f2073656e642076616c75652c207260448201527f6563697069656e74206d6179206861766520726576657274656400000000000060648201526084016105b0565b505050565b6123246040518061020001604052806000815260200160008152602001600081526020016000815260200160008152602001600081526020016000815260200160006001600160a01b0316815260200160008152602001600081526020016000815260200160008152602001600081526020016000815260200160008152602001600081525090565b6040517efdd58e0000000000000000000000000000000000000000000000000000000081526001600160a01b0389811660048301526024820189905260009160609189917f00000000000000000000000000000000000000000000000000000000000000009091169062fdd58e9060440160206040518083038186803b1580156123ad57600080fd5b505afa1580156123c1573d6000803e3d6000fd5b505050506040513d601f19601f820116820180604052508101906123e591906140ac565b10156124335760405162461bcd60e51b815260206004820152601360248201527f494e53554646494349454e545f544f4b454e530000000000000000000000000060448201526064016105b0565b6040517f43a266c2000000000000000000000000000000000000000000000000000000008152600481018a90527f00000000000000000000000000000000000000000000000000000000000000006001600160a01b0316906343a266c2906024016102006040518083038186803b1580156124ad57600080fd5b505afa1580156124c1573d6000803e3d6000fd5b505050506040513d601f19601f820116820180604052508101906124e591906140e6565b6101e081015190935060221c6001166125405760405162461bcd60e51b815260206004820152600660248201527f504155534544000000000000000000000000000000000000000000000000000060448201526064016105b0565b6101e083015160009060261c600116612651576101e084015160271c6001600160a01b0316631ce9f7d46040518060e001604052808e6001600160a01b031681526020018c815260200161259f886101e0015160ff60109190911c1690565b81526101e088015160209091019060181c60ff1681526020018a6001600160a01b03168152602001898152602001888152506040518263ffffffff1660e01b81526004016125ed91906147e8565b600060405180830381600087803b15801561260757600080fd5b505af115801561261b573d6000803e3d6000fd5b505050506040513d6000823e601f3d908101601f1916820160405261264391908101906142eb565b975091945092509050612661565b61265b848a613244565b92508591505b878310156126b15760405162461bcd60e51b815260206004820152600a60248201527f494e41444551554154450000000000000000000000000000000000000000000060448201526064016105b0565b60008a81526002602052604090205483111561270f5760405162461bcd60e51b815260206004820152601260248201527f494e53554646494349454e545f46554e4453000000000000000000000000000060448201526064016105b0565b88156127f3576040517f1665bc0f0000000000000000000000000000000000000000000000000000000081526001600160a01b038c81166004830152602482018c9052604482018b905260a06064830152600e60a48301527f52656465656d20666f722045544800000000000000000000000000000000000060c4830152600160848301527f00000000000000000000000000000000000000000000000000000000000000001690631665bc0f9060e401600060405180830381600087803b1580156127da57600080fd5b505af11580156127ee573d6000803e3d6000fd5b505050505b82156128235760008a8152600260205260409020546128139084906149aa565b60008b8152600260205260409020555b6001600160a01b0381161561291c5760006040518060e001604052808d6001600160a01b031681526020018c81526020018b8152602001858152602001896001600160a01b03168152602001848152602001878152509050816001600160a01b0316631f1dfa32826040518263ffffffff1660e01b81526004016128a791906146c1565b600060405180830381600087803b1580156128c157600080fd5b505af11580156128d5573d6000803e3d6000fd5b50505050816001600160a01b03167ff11663550d7ff25b1a5d208bdd025d7b1001a24cfcd134ccad18fabe158cdcee8260405161291291906146c1565b60405180910390a2505b509750975097945050505050565b6129b36040518061020001604052806000815260200160008152602001600081526020016000815260200160008152602001600081526020016000815260200160006001600160a01b0316815260200160008152602001600081526020016000815260200160008152602001600081526020016000815260200160008152602001600081525090565b6040517fcf169f8400000000000000000000000000000000000000000000000000000000815260048101869052602481018590526000907f00000000000000000000000000000000000000000000000000000000000000006001600160a01b03169063cf169f849060440161020060405180830381600087803b158015612a3957600080fd5b505af1158015612a4d573d6000803e3d6000fd5b505050506040513d601f19601f82011682018060405250810190612a7191906140e6565b8051909250612ac25760405162461bcd60e51b815260206004820152600960248201527f4e4f545f464f554e44000000000000000000000000000000000000000000000060448201526064016105b0565b6101e082015160211c600116612b1a5760405162461bcd60e51b815260206004820152600660248201527f504155534544000000000000000000000000000000000000000000000000000060448201526064016105b0565b8161016001518414612b6e5760405162461bcd60e51b815260206004820152601360248201527f554e45585045435445445f43555252454e43590000000000000000000000000060448201526064016105b0565b6101608201516040517ff48cc101000000000000000000000000000000000000000000000000000000008152600481019190915260006024820152612be89086906001600160a01b037f0000000000000000000000000000000000000000000000000000000000000000169063f48cc10190604401611ceb565b905080831115612c3a5760405162461bcd60e51b815260206004820152600a60248201527f494e41444551554154450000000000000000000000000000000000000000000060448201526064016105b0565b600086815260026020526040902054811115612c985760405162461bcd60e51b815260206004820152601260248201527f494e53554646494349454e545f46554e4453000000000000000000000000000060448201526064016105b0565b600086815260026020526040902054611f889082906149aa565b602083015160808401516040517f69e11cc5000000000000000000000000000000000000000000000000000000008152600481019290925260248201526001604482015282906000907f00000000000000000000000000000000000000000000000000000000000000006001600160a01b0316906369e11cc59060640160006040518083038186803b158015612d4757600080fd5b505afa158015612d5b573d6000803e3d6000fd5b505050506040513d6000823e601f3d908101601f19168201604052612d839190810190613f52565b9050805160001415612d95575061161e565b60005b8151811015613150576000828281518110612db557612db5614ab7565b602002602001015190506000612dd687836020015161ffff16612710613b2c565b905080156130f85760808201516001600160a01b031615612eb1576080820151602089015160a0840151606085015185516040517fc8e84e020000000000000000000000000000000000000000000000000000000081526004810187905260016024820152604481019490945266ffffffffffffff90921660648401526001600160a01b03908116608484015290151560a48301529091169063c8e84e0290839060c4016000604051808303818588803b158015612e9357600080fd5b505af1158015612ea7573d6000803e3d6000fd5b50505050506130eb565b60a082015166ffffffffffffff16156130dd5760a08201516040517f532fbaee00000000000000000000000000000000000000000000000000000000815266ffffffffffffff9091166004820152600060248201819052907f00000000000000000000000000000000000000000000000000000000000000006001600160a01b03169063532fbaee9060440160206040518083038186803b158015612f5557600080fd5b505afa158015612f69573d6000803e3d6000fd5b505050506040513d601f19601f82011682018060405250810190612f8d9190613e7b565b90506001600160a01b038116612fe55760405162461bcd60e51b815260206004820152600960248201527f4241445f53504c4954000000000000000000000000000000000000000000000060448201526064016105b0565b6001600160a01b0381163014156130305761302a828460a0015166ffffffffffffff168560600151600087600001518c604051806020016040528060008152506117cf565b506130d7565b806001600160a01b03166303930453838560a001518660600151600088600001518d604051806020016040528060008152506040518863ffffffff1660e01b8152600401613083969594939291906148ad565b6020604051808303818588803b15801561309c57600080fd5b505af11580156130b0573d6000803e3d6000fd5b50505050506040513d601f19601f820116820180604052508101906130d591906140ac565b505b506130eb565b6130eb82606001518261217d565b6130f581866149aa565b94505b602088015188516040517f733542003cbe4a4d4e4ca50cd9104fa9c1148f37196a44ee28cd66c074fe0f5c90613133908690869033906147fb565b60405180910390a350508080613148906149f1565b915050612d98565b50509392505050565b6020808201516000908152600290915260408120548061317c5750600092915050565b6000836101c0015184610140015161319491906149aa565b90506000811561321d576101608501516040517ff48cc1010000000000000000000000000000000000000000000000000000000081526004810191909152600060248201526132189083906001600160a01b037f0000000000000000000000000000000000000000000000000000000000000000169063f48cc10190604401611ceb565b613220565b60005b90508083106132385761323381846149aa565b61323b565b60005b95945050505050565b60008061325084613159565b9050806132615760009150506117c9565b60208401516040517f75b0d9cd0000000000000000000000000000000000000000000000000000000081526000916001600160a01b037f000000000000000000000000000000000000000000000000000000000000000016916375b0d9cd916132d09160040190815260200190565b60206040518083038186803b1580156132e857600080fd5b505afa1580156132fc573d6000803e3d6000fd5b505050506040513d601f19601f8201168201806040525081019061332091906140ac565b905060007f00000000000000000000000000000000000000000000000000000000000000006001600160a01b031663f033b3b4876020015161336d896101e0015160ff60089190911c1690565b6040517fffffffff0000000000000000000000000000000000000000000000000000000060e085901b1681526004810192909252602482015260440160206040518083038186803b1580156133c157600080fd5b505afa1580156133d5573d6000803e3d6000fd5b505050506040513d601f19601f820116820180604052508101906133f991906140ac565b9050801561340e5761340b8183614992565b91505b81851415613421578293505050506117c9565b600061342e848785613b2c565b90506000600160208901516040517fc55f571c00000000000000000000000000000000000000000000000000000000815260048101919091527f00000000000000000000000000000000000000000000000000000000000000006001600160a01b03169063c55f571c9060240160206040518083038186803b1580156134b357600080fd5b505afa1580156134c7573d6000803e3d6000fd5b505050506040513d601f19601f820116820180604052508101906134eb91906140c5565b60038111156134fc576134fc614a88565b14613512576101e088015160101c60ff1661351f565b6101e088015160181c60ff165b90508060c81415613536575093506117c992505050565b80613549576000955050505050506117c9565b613573826135628961355c8560c86149aa565b88613b2c565b61356c9084614992565b60c8613b2c565b98975050505050505050565b6136086040518061020001604052806000815260200160008152602001600081526020016000815260200160008152602001600081526020016000815260200160006001600160a01b0316815260200160008152602001600081526020016000815260200160008152602001600081526020016000815260200160008152602001600081525090565b60008060607f00000000000000000000000000000000000000000000000000000000000000006001600160a01b03166343a266c28a6040518263ffffffff1660e01b815260040161365b91815260200190565b6102006040518083038186803b15801561367457600080fd5b505afa158015613688573d6000803e3d6000fd5b505050506040513d601f19601f820116820180604052508101906136ac91906140e6565b935060008460400151116137025760405162461bcd60e51b815260206004820152600960248201527f4e4f545f464f554e44000000000000000000000000000000000000000000000060448201526064016105b0565b6101e084015160201c60011661375a5760405162461bcd60e51b815260206004820152600660248201527f504155534544000000000000000000000000000000000000000000000000000060448201526064016105b0565b6101e084015160009060251c600116613865576101e085015160271c6001600160a01b031663f80728e46040518060e001604052808f6001600160a01b031681526020018e81526020018860c0015181526020016137c3896101e0015160ff60089190911c1690565b815260200160018d901c6001600160a01b031681526020018a8152602001898152506040518263ffffffff1660e01b815260040161380191906147e8565b600060405180830381600087803b15801561381b57600080fd5b505af115801561382f573d6000803e3d6000fd5b505050506040513d6000823e601f3d908101601f1916820160405261385791908101906142eb565b985091955092509050613870565b8460c0015193508691505b600061387c8c86613c31565b6101e087015190915061389c90829060081c60ff1661356c9060c86149aa565b9350888410156138ee5760405162461bcd60e51b815260206004820152600a60248201527f494e41444551554154450000000000000000000000000000000000000000000060448201526064016105b0565b60008b815260026020526040902054613908908d90614992565b60008c8152600260205260409020558015613a07576040517f8ae9c07b000000000000000000000000000000000000000000000000000000008152600481018c9052602481018590526001600160a01b0360018c811c8216604484015260c06064840152600c60c48401527f455448207265636569766564000000000000000000000000000000000000000060e48401528c811615608484015260a48301527f00000000000000000000000000000000000000000000000000000000000000001690638ae9c07b9061010401600060405180830381600087803b1580156139ee57600080fd5b505af1158015613a02573d6000803e3d6000fd5b505050505b6001600160a01b03821615613b0b5760006040518061010001604052808f6001600160a01b031681526020018d81526020018e815260200187815260200186815260200160018d901c6001600160a01b03168152602001858152602001898152509050826001600160a01b0316639dd959ac826040518263ffffffff1660e01b8152600401613a969190614626565b600060405180830381600087803b158015613ab057600080fd5b505af1158015613ac4573d6000803e3d6000fd5b50505050826001600160a01b03167f15ee90cb2deade4db341563d03958a7ca23fdde537483702ed7a8697ab14599e82604051613b019190614626565b60405180910390a2505b5050975097509750979350505050565b60006117c683670de0b6b3a7640000845b600080807fffffffffffffffffffffffffffffffffffffffffffffffffffffffffffffffff8587098587029250828110838203039150508060001415613b8557838281613b7b57613b7b614a59565b049250505061161e565b838110613bc8576040517f773cc18c00000000000000000000000000000000000000000000000000000000815260048101829052602481018590526044016105b0565b60008486880960026001871981018816978890046003810283188082028403028082028403028082028403028082028403028082028403029081029092039091026000889003889004909101858311909403939093029303949094049190911702949350505050565b60006117c68383600080807fffffffffffffffffffffffffffffffffffffffffffffffffffffffffffffffff848609848602925082811083820303915050670de0b6b3a76400008110613cb3576040517fd31b3402000000000000000000000000000000000000000000000000000000008152600481018290526024016105b0565b600080670de0b6b3a76400008688099150506706f05b59d3b1ffff811182613ced5780670de0b6b3a76400008504019450505050506117c9565b6204000082850304939091119091037d40000000000000000000000000000000000000000000000000000000000002919091177faccb18165bd6fe31ae1cf318dc5b51eee0e1ba569b88cd74c1773b91fac106690201905092915050565b6000613d5e613d598461496a565b614939565b9050828152838383011115613d7257600080fd5b828260208301376000602084830101529392505050565b8051613d9481614b15565b919050565b60008083601f840112613dab57600080fd5b50813567ffffffffffffffff811115613dc357600080fd5b602083019150836020828501011115613ddb57600080fd5b9250929050565b600082601f830112613df357600080fd5b8151613e01613d598261496a565b818152846020838601011115613e1657600080fd5b6121758260208301602087016149c1565b600082601f830112613e3857600080fd5b6117c683833560208501613d4b565b805166ffffffffffffff81168114613d9457600080fd5b600060208284031215613e7057600080fd5b813561161e81614b15565b600060208284031215613e8d57600080fd5b815161161e81614b15565b600080600080600080600060e0888a031215613eb357600080fd5b8735613ebe81614b15565b96506020880135955060408801359450606088013593506080880135613ee381614b15565b925060a088013567ffffffffffffffff80821115613f0057600080fd5b613f0c8b838c01613e27565b935060c08a0135915080821115613f2257600080fd5b508801601f81018a13613f3457600080fd5b613f438a823560208401613d4b565b91505092959891949750929550565b60006020808385031215613f6557600080fd5b825167ffffffffffffffff80821115613f7d57600080fd5b818501915085601f830112613f9157600080fd5b815181811115613fa357613fa3614ae6565b613fb1848260051b01614939565b818152848101925083850160c0808402860187018a1015613fd157600080fd5b600095505b838610156140815780828b031215613fed57600080fd5b613ff56148ec565b825161400081614b2a565b81528288015161ffff8116811461401657600080fd5b8189015260408381015165ffffffffffff8116811461403457600080fd5b908201526060614045848201613d89565b908201526080614056848201613d89565b9082015260a0614067848201613e47565b908201528552600195909501949386019390810190613fd6565b509098975050505050505050565b6000602082840312156140a157600080fd5b815161161e81614b2a565b6000602082840312156140be57600080fd5b5051919050565b6000602082840312156140d757600080fd5b81516004811061161e57600080fd5b600061020082840312156140f957600080fd5b614101614915565b825181526020830151602082015260408301516040820152606083015160608201526080830151608082015260a083015160a082015260c083015160c082015261414d60e08401613d89565b60e0820152610100838101519082015261012080840151908201526101408084015190820152610160808401519082015261018080840151908201526101a080840151908201526101c080840151908201526101e0928301519281019290925250919050565b6000602082840312156141c557600080fd5b5035919050565b60008060008060008060008060c0898b0312156141e857600080fd5b8835975060208901356141fa81614b15565b965060408901359550606089013561421181614b2a565b9450608089013567ffffffffffffffff8082111561422e57600080fd5b61423a8c838d01613d99565b909650945060a08b013591508082111561425357600080fd5b506142608b828c01613d99565b999c989b5096995094979396929594505050565b6000806040838503121561428757600080fd5b82359150602083013561429981614b15565b809150509250929050565b600080604083850312156142b757600080fd5b82359150602083013567ffffffffffffffff8111156142d557600080fd5b6142e185828601613e27565b9150509250929050565b6000806000806080858703121561430157600080fd5b84519350602085015167ffffffffffffffff8082111561432057600080fd5b61432c88838901613de2565b94506040870151915061433e82614b15565b60608701519193508082111561435357600080fd5b5061436087828801613de2565b91505092959194509250565b6000806040838503121561437f57600080fd5b50508035926020909101359150565b600080600080600060a086880312156143a657600080fd5b8535945060208601359350604086013592506060860135915060808601356143cd81614b15565b809150509295509295909350565b600080600080600060a086880312156143f357600080fd5b85359450602086013593506040860135925060608601359150608086013567ffffffffffffffff81111561442657600080fd5b61443288828901613e27565b9150509295509295909350565b600081518084526144578160208601602086016149c1565b601f01601f19169290920160200192915050565b805182526020810151602083015260408101516040830152606081015160608301526080810151608083015260a081015160a083015260c081015160c083015260e08101516144c560e08401826001600160a01b03169052565b50610100818101519083015261012080820151908301526101408082015190830152610160808201519083015261018080820151908301526101a080820151908301526101c080820151908301526101e090810151910152565b60006001600160a01b038083511684526020830151602085015260408301516040850152606083015160608501528060808401511660808501525060a082015160e060a085015261457360e085018261443f565b905060c083015184820360c086015261323b828261443f565b60006001600160a01b03808a16835288602084015287604084015286606084015285608084015260e060a08401526145c760e084018661443f565b915080841660c08401525098975050505050505050565b8681526001600160a01b0386166020820152846040820152831515606082015260c06080820152600061461460c083018561443f565b82810360a0840152610554818561443f565b602081526001600160a01b038251166020820152602082015160408201526040820151606082015260608201516080820152608082015160a0820152600060a083015161467e60c08401826001600160a01b03169052565b5060c08301516101008060e085015261469b61012085018361443f565b915060e0850151601f1985840301828601526146b7838261443f565b9695505050505050565b6020815260006001600160a01b038084511660208401526020840151604084015260408401516060840152606084015160808401528060808501511660a08401525060a083015160e060c084015261471d61010084018261443f565b905060c0840151601f198483030160e085015261323b828261443f565b60006102a0614749838a61446b565b6001600160a01b0380891661020085015287610220850152866102408501528161026085015261477b8285018761443f565b92508085166102808501525050979650505050505050565b60006102a06147a2838a61446b565b876102008401528661022084015285610240840152806102608401526147ca8184018661443f565b9150506001600160a01b038316610280830152979650505050505050565b6020815260006117c6602083018461451f565b60006101008201905084511515825261ffff602086015116602083015265ffffffffffff604086015116604083015260608501516001600160a01b038082166060850152806080880151166080850152505066ffffffffffffff60a08601511660a08301528360c083015261217560e08301846001600160a01b03169052565b838152606060208201526000614894606083018561443f565b90506001600160a01b0383166040830152949350505050565b66ffffffffffffff871681526001600160a01b0386166020820152846040820152831515606082015260c06080820152600061461460c083018561443f565b60405160c0810167ffffffffffffffff8111828210171561490f5761490f614ae6565b60405290565b604051610200810167ffffffffffffffff8111828210171561490f5761490f614ae6565b604051601f8201601f1916810167ffffffffffffffff8111828210171561496257614962614ae6565b604052919050565b600067ffffffffffffffff82111561498457614984614ae6565b50601f01601f191660200190565b600082198211156149a5576149a5614a2a565b500190565b6000828210156149bc576149bc614a2a565b500390565b60005b838110156149dc5781810151838201526020016149c4565b838111156149eb576000848401525b50505050565b60007fffffffffffffffffffffffffffffffffffffffffffffffffffffffffffffffff821415614a2357614a23614a2a565b5060010190565b7f4e487b7100000000000000000000000000000000000000000000000000000000600052601160045260246000fd5b7f4e487b7100000000000000000000000000000000000000000000000000000000600052601260045260246000fd5b7f4e487b7100000000000000000000000000000000000000000000000000000000600052602160045260246000fd5b7f4e487b7100000000000000000000000000000000000000000000000000000000600052603260045260246000fd5b7f4e487b7100000000000000000000000000000000000000000000000000000000600052604160045260246000fd5b6001600160a01b038116811461170457600080fd5b801515811461170457600080fdfea2646970667358221220cc4cac6e92122d9e0fe9aad34d42a26272d3a521a718b31e3073242f0f22cfd564736f6c63430008060033",
  "devdoc": {
    "details": " A project can transfer its funds, along with the power to reconfigure and mint/burn their tokens, from this contract to another allowed terminal contract at any time. Inherits from: IJBPaymentTerminal - general interface for the methods in this contract that send and receive funds according to the Juicebox protocol's rules. JBOperatable - several functions in this contract can only be accessed by a project owner, or an address that has been preconfifigured to be an operator of the project. ReentrencyGuard - several function in this contract shouldn't be accessible recursively.",
    "kind": "dev",
    "methods": {
      "addToBalanceOf(uint256,string)": {
        "params": {
          "_memo": "A memo to include in the emitted event.",
          "_projectId": "The ID of the project to which the funds received belong."
        }
      },
      "claimableOverflowOf(uint256,uint256)": {
        "details": "If the project has an active funding cycle reconfiguration ballot, the project's ballot redemption rate is used.",
        "params": {
          "_projectId": "The ID of the project to get a claimable amount for.",
          "_tokenCount": "The number of tokens to make the calculation with. "
        },
        "returns": {
          "_0": "The amount of overflowed ETH that can be claimed."
        }
      },
      "constructor": {
        "params": {
          "_directory": "The directory of terminals.",
          "_fundingCycleStore": "The contract storing all funding cycle configurations.",
          "_jb": "TODO.",
          "_operatorStore": "A contract storing operator assignments.",
          "_prices": "The contract that exposes price feeds.",
          "_projects": "A Projects contract which mints ERC-721's that represent project ownership and transfers.",
          "_splitsStore": "The contract that stores splits for each project.",
          "_tokenStore": "The contract that manages token minting and burning."
        }
      },
      "currentOverflowOf(uint256)": {
        "params": {
          "_projectId": "The ID of the project to get overflow for."
        },
        "returns": {
          "_0": "The current amount of overflow that project has."
        }
      },
      "distributePayoutsOf(uint256,uint256,uint256,uint256,string)": {
        "details": "Anyone can distribute payouts on a project's behalf.",
        "params": {
          "_amount": "The amount being distributed.",
          "_currency": "The expected currency of the amount being distributed. Must match the project's current funding cycle's currency.",
          "_minReturnedWei": "The minimum number of wei that the amount should be valued at.",
          "_projectId": "The ID of the project having its payouts distributed."
        },
        "returns": {
          "_0": "The ID of the funding cycle during which the distribution was made."
        }
      },
      "migrate(uint256,address)": {
        "details": "Only a project's owner or a designated operator can migrate it.",
        "params": {
          "_projectId": "The ID of the project being migrated.",
          "_terminal": "The terminal contract that will gain the project's funds."
        }
      },
      "owner()": {
        "details": "Returns the address of the current owner."
      },
      "pay(uint256,address,uint256,bool,string,bytes)": {
        "details": "The msg.value is the amount of the contribution in wei.",
        "params": {
          "_beneficiary": "The address to mint tokens for and pass along to the funding cycle's data source and delegate.",
          "_delegateMetadata": "Bytes to send along to the delegate, if one is provided.",
          "_memo": "A memo that will be included in the published event, and passed along the the funding cycle's data source and delegate.",
          "_minReturnedTokens": "The minimum number of tokens expected in return.",
          "_preferUnstakedTokens": "A flag indicating whether the request prefers to issue tokens unstaked rather than staked.",
          "_projectId": "The ID of the project being contribute to."
        },
        "returns": {
          "_0": "The number of the funding cycle that the payment was made during."
        }
      },
      "redeemTokensOf(address,uint256,uint256,uint256,address,string,bytes)": {
        "details": "Only a token's holder or a designated operator can redeem it.",
        "params": {
          "_beneficiary": "The address to send the ETH to. Send the address this contract to burn the count.",
          "_delegateMetadata": "Bytes to send along to the delegate, if one is provided.",
          "_holder": "The account to redeem tokens for.",
          "_memo": "A memo to attach to the emitted event.",
          "_minReturnedWei": "The minimum amount of Wei expected in return.",
          "_projectId": "The ID of the project to which the tokens being redeemed belong.",
          "_tokenCount": "The number of tokens to redeem."
        },
        "returns": {
          "claimAmount": "The amount of ETH that the tokens were redeemed for, in wei."
        }
      },
      "renounceOwnership()": {
        "details": "Leaves the contract without owner. It will not be possible to call `onlyOwner` functions anymore. Can only be called by the current owner. NOTE: Renouncing ownership will leave the contract without an owner, thereby removing any functionality that is only available to the owner."
      },
      "transferOwnership(address)": {
        "details": "Transfers ownership of the contract to a new account (`newOwner`). Can only be called by the current owner."
      },
      "useAllowanceOf(uint256,uint256,uint256,uint256,address)": {
        "params": {
          "_amount": "The amount of the allowance to use.",
          "_beneficiary": "The address to send the funds to.",
          "_projectId": "The ID of the project to use the allowance of."
        },
        "returns": {
          "_0": "The ID of the funding cycle during which the allowance was use."
        }
      }
    },
    "stateVariables": {
      "balanceOf": {
        "details": "[_projectId]  _projectId The ID of the project to get the balance of.",
        "return": "The ETH balance of the specified project.",
        "returns": {
          "_0": "The ETH balance of the specified project."
        }
      },
      "usedOverflowAllowanceOf": {
        "details": "[_projectId][_configuration] _projectId The ID of the project to get the current overflow allowance of. _configuration The configuration of the during which the allowance applies.",
        "return": "The current overflow allowance for the specified project configuration. Decreases as projects use of the allowance.",
        "returns": {
          "_0": "The current overflow allowance for the specified project configuration. Decreases as projects use of the allowance."
        }
      }
    },
    "version": 1
  },
  "userdoc": {
    "errors": {
      "PRBMath__MulDivFixedPointOverflow(uint256)": [
        {
          "notice": "Emitted when the result overflows uint256."
        }
      ],
      "PRBMath__MulDivOverflow(uint256,uint256)": [
        {
          "notice": "Emitted when the result overflows uint256."
        }
      ]
    },
    "kind": "user",
    "methods": {
      "addToBalanceOf(uint256,string)": {
        "notice": "Receives and allocated funds belonging to the specified project."
      },
      "balanceOf(uint256)": {
        "notice": " The amount of ETH that each project has."
      },
      "claimableOverflowOf(uint256,uint256)": {
        "notice": "The amount of overflowed ETH that can be claimed by the specified number of tokens."
      },
      "currentOverflowOf(uint256)": {
        "notice": "Gets the current overflowed amount for a specified project."
      },
      "directory()": {
        "notice": "The directory of terminals."
      },
      "distributePayoutsOf(uint256,uint256,uint256,uint256,string)": {
        "notice": " Distributes payouts for a project according to the constraints of its current funding cycle. Payouts are sent to the preprogrammed splits. "
      },
      "fundingCycleStore()": {
        "notice": " The contract storing all funding cycle configurations."
      },
      "migrate(uint256,address)": {
        "notice": "Allows a project owner to migrate its funds and operations to a new terminal."
      },
      "operatorStore()": {
        "notice": "A contract storing operator assignments."
      },
      "pay(uint256,address,uint256,bool,string,bytes)": {
        "notice": "Contribute ETH to a project."
      },
      "prices()": {
        "notice": " The contract that exposes price feeds."
      },
      "projects()": {
        "notice": "The Projects contract which mints ERC-721's that represent project ownership and transfers."
      },
      "redeemTokensOf(address,uint256,uint256,uint256,address,string,bytes)": {
        "notice": "Addresses can redeem their tokens to claim the project's overflowed ETH, or to trigger rules determined by the project's current funding cycle's data source."
      },
      "splitsStore()": {
        "notice": "The contract that stores splits for each project."
      },
      "tokenStore()": {
        "notice": " The contract that manages token minting and burning."
      },
      "useAllowanceOf(uint256,uint256,uint256,uint256,address)": {
        "notice": " Allows a project to send funds from its overflow up to the preconfigured allowance."
      },
      "usedOverflowAllowanceOf(uint256,uint256)": {
        "notice": " The amount of overflow that a project is allowed to tap into on-demand."
      }
    },
    "notice": "This contract manages all inflows and outflows of funds into the Juicebox ecosystem. It stores all treasury funds for all projects.",
    "version": 1
  },
  "storageLayout": {
    "storage": [
      {
        "astId": 53,
        "contract": "contracts/v2/JBETHPaymentTerminal.sol:JBETHPaymentTerminal",
        "label": "_owner",
        "offset": 0,
        "slot": "0",
        "type": "t_address"
      },
      {
        "astId": 160,
        "contract": "contracts/v2/JBETHPaymentTerminal.sol:JBETHPaymentTerminal",
        "label": "_status",
        "offset": 0,
        "slot": "1",
        "type": "t_uint256"
      },
      {
        "astId": 17014,
        "contract": "contracts/v2/JBETHPaymentTerminal.sol:JBETHPaymentTerminal",
        "label": "balanceOf",
        "offset": 0,
        "slot": "2",
        "type": "t_mapping(t_uint256,t_uint256)"
      },
      {
        "astId": 17022,
        "contract": "contracts/v2/JBETHPaymentTerminal.sol:JBETHPaymentTerminal",
        "label": "usedOverflowAllowanceOf",
        "offset": 0,
        "slot": "3",
        "type": "t_mapping(t_uint256,t_mapping(t_uint256,t_uint256))"
      }
    ],
    "types": {
      "t_address": {
        "encoding": "inplace",
        "label": "address",
        "numberOfBytes": "20"
      },
      "t_mapping(t_uint256,t_mapping(t_uint256,t_uint256))": {
        "encoding": "mapping",
        "key": "t_uint256",
        "label": "mapping(uint256 => mapping(uint256 => uint256))",
        "numberOfBytes": "32",
        "value": "t_mapping(t_uint256,t_uint256)"
      },
      "t_mapping(t_uint256,t_uint256)": {
        "encoding": "mapping",
        "key": "t_uint256",
        "label": "mapping(uint256 => uint256)",
        "numberOfBytes": "32",
        "value": "t_uint256"
      },
      "t_uint256": {
        "encoding": "inplace",
        "label": "uint256",
        "numberOfBytes": "32"
      }
    }
  }
}