{
  "address": "0xf8739bC99B83B362153693fFf6063A88D0e32EF7",
  "abi": [
    {
      "anonymous": false,
      "inputs": [
        {
          "indexed": true,
          "internalType": "contract IJBSplitsPayer",
          "name": "splitsPayer",
          "type": "address"
        },
        {
          "indexed": false,
          "internalType": "uint256",
          "name": "defaultSplitsProjectId",
          "type": "uint256"
        },
        {
          "indexed": false,
          "internalType": "uint256",
          "name": "_defaultSplitsDomain",
          "type": "uint256"
        },
        {
          "indexed": false,
          "internalType": "uint256",
          "name": "_defaultSplitsGroup",
          "type": "uint256"
        },
        {
          "indexed": false,
          "internalType": "contract IJBSplitsStore",
          "name": "_splitsStore",
          "type": "address"
        },
        {
          "indexed": true,
          "internalType": "uint256",
          "name": "defaultProjectId",
          "type": "uint256"
        },
        {
          "indexed": true,
          "internalType": "address",
          "name": "defaultBeneficiary",
          "type": "address"
        },
        {
          "indexed": false,
          "internalType": "bool",
          "name": "defaultPreferClaimedTokens",
          "type": "bool"
        },
        {
          "indexed": false,
          "internalType": "string",
          "name": "defaultMemo",
          "type": "string"
        },
        {
          "indexed": false,
          "internalType": "bytes",
          "name": "defaultMetadata",
          "type": "bytes"
        },
        {
          "indexed": false,
          "internalType": "bool",
          "name": "preferAddToBalance",
          "type": "bool"
        },
        {
          "indexed": false,
          "internalType": "address",
          "name": "owner",
          "type": "address"
        },
        {
          "indexed": false,
          "internalType": "address",
          "name": "caller",
          "type": "address"
        }
      ],
      "name": "DeploySplitsPayer",
      "type": "event"
    },
    {
      "inputs": [
        {
          "internalType": "uint256",
          "name": "_defaultSplitsProjectId",
          "type": "uint256"
        },
        {
          "internalType": "uint256",
          "name": "_defaultSplitsDomain",
          "type": "uint256"
        },
        {
          "internalType": "uint256",
          "name": "_defaultSplitsGroup",
          "type": "uint256"
        },
        {
          "internalType": "contract IJBSplitsStore",
          "name": "_splitsStore",
          "type": "address"
        },
        {
          "internalType": "uint256",
          "name": "_defaultProjectId",
          "type": "uint256"
        },
        {
          "internalType": "address payable",
          "name": "_defaultBeneficiary",
          "type": "address"
        },
        {
          "internalType": "bool",
          "name": "_defaultPreferClaimedTokens",
          "type": "bool"
        },
        {
          "internalType": "string",
          "name": "_defaultMemo",
          "type": "string"
        },
        {
          "internalType": "bytes",
          "name": "_defaultMetadata",
          "type": "bytes"
        },
        {
          "internalType": "bool",
          "name": "_defaultPreferAddToBalance",
          "type": "bool"
        },
        {
          "internalType": "address",
          "name": "_owner",
          "type": "address"
        }
      ],
      "name": "deploySplitsPayer",
      "outputs": [
        {
          "internalType": "contract IJBSplitsPayer",
          "name": "splitsPayer",
          "type": "address"
        }
      ],
      "stateMutability": "nonpayable",
      "type": "function"
    }
  ],
  "transactionHash": "0xe7ee043bd944a4a6aca247658e1c84314a9b7d3061a358959c28c0e83391ce91",
  "args": [],
  "numDeployments": 1,
  "solcInputHash": "c0f3fc8aab6e6d623a274a19ce38362f",
  "bytecode": "0x608060405234801561001057600080fd5b5061368e806100206000396000f3fe60806040523480156200001157600080fd5b50600436106200002e5760003560e01c80632e113c8b1462000033575b600080fd5b6200004a6200004436600462000249565b62000073565b60405173ffffffffffffffffffffffffffffffffffffffff909116815260200160405180910390f35b60008b8b8b8b8b8b8b8b8b8b8b6040516200008e906200014d565b620000a49b9a9998979695949392919062000437565b604051809103906000f080158015620000c1573d6000803e3d6000fd5b5090508673ffffffffffffffffffffffffffffffffffffffff16888273ffffffffffffffffffffffffffffffffffffffff167f9d8d9335be0008f50a6547966dd6a854fd9df1f0be7838b8a445b562513627448f8f8f8f8d8d8d8d8d33604051620001369a99989796959493929190620003ad565b60405180910390a49b9a5050505050505050505050565b61315a80620004ff83390190565b803573ffffffffffffffffffffffffffffffffffffffff811681146200018057600080fd5b919050565b803580151581146200018057600080fd5b600082601f830112620001a857600080fd5b813567ffffffffffffffff80821115620001c657620001c6620004cf565b604051601f83017fffffffffffffffffffffffffffffffffffffffffffffffffffffffffffffffe0908116603f011681019082821181831017156200020f576200020f620004cf565b816040528381528660208588010111156200022957600080fd5b836020870160208301376000602085830101528094505050505092915050565b60008060008060008060008060008060006101608c8e0312156200026c57600080fd5b8b359a5060208c0135995060408c013598506200028c60608d016200015b565b975060808c01359650620002a360a08d016200015b565b9550620002b360c08d0162000185565b945067ffffffffffffffff8060e08e01351115620002d057600080fd5b620002e28e60e08f01358f0162000196565b9450806101008e01351115620002f757600080fd5b506200030b8d6101008e01358e0162000196565b92506200031c6101208d0162000185565b91506200032d6101408d016200015b565b90509295989b509295989b9093969950565b6000815180845260005b81811015620003675760208185018101518683018201520162000349565b818111156200037a576000602083870101525b50601f017fffffffffffffffffffffffffffffffffffffffffffffffffffffffffffffffe0169290920160200192915050565b60006101408c83528b60208401528a604084015273ffffffffffffffffffffffffffffffffffffffff808b16606085015289151560808501528160a0850152620003fa8285018a6200033f565b915083820360c08501526200041082896200033f565b96151560e08501529485166101008401525050911661012090910152979650505050505050565b60006101608d83528c60208401528b604084015273ffffffffffffffffffffffffffffffffffffffff808c1660608501528a6080850152808a1660a085015288151560c08501528160e085015262000492828501896200033f565b9150838203610100850152620004a982886200033f565b925085151561012085015280851661014085015250509c9b505050505050505050505050565b7f4e487b7100000000000000000000000000000000000000000000000000000000600052604160045260246000fdfe60c06040523480156200001157600080fd5b506040516200315a3803806200315a83398101604081905262000034916200037b565b8686868686868d6001600160a01b031663c41c2f246040518163ffffffff1660e01b815260040160206040518083038186803b1580156200007457600080fd5b505afa15801562000089573d6000803e3d6000fd5b505050506040513d601f19601f82011682018060405250810190620000af919062000354565b87620000bb3362000184565b600188905560028054871515600160a01b026001600160a81b03199091166001600160a01b038a16171790558451620000fc906003906020880190620001d4565b50835162000112906004906020870190620001d4565b506000805460ff60a01b1916600160a01b85151502179055606082901b6001600160601b031916608052620001478162000184565b5050600160055550505060069d909d555050506007989098555050506008939093555060601b6001600160601b03191660a05250620004df915050565b600080546001600160a01b038381166001600160a01b0319831681178455604051919092169283917f8be0079c531659141344cd1fd0a4f28419497f9722a3daafe3b4186f6b6457e09190a35050565b828054620001e29062000473565b90600052602060002090601f01602090048101928262000206576000855562000251565b82601f106200022157805160ff191683800117855562000251565b8280016001018555821562000251579182015b828111156200025157825182559160200191906001019062000234565b506200025f92915062000263565b5090565b5b808211156200025f576000815560010162000264565b80516200028781620004c6565b919050565b805180151581146200028757600080fd5b600082601f830112620002af57600080fd5b81516001600160401b0380821115620002cc57620002cc620004b0565b604051601f8301601f19908116603f01168101908282118183101715620002f757620002f7620004b0565b816040528381526020925086838588010111156200031457600080fd5b600091505b8382101562000338578582018301518183018401529082019062000319565b838211156200034a5760008385830101525b9695505050505050565b6000602082840312156200036757600080fd5b81516200037481620004c6565b9392505050565b60008060008060008060008060008060006101608c8e0312156200039e57600080fd5b8b519a5060208c0151995060408c01519850620003be60608d016200027a565b975060808c01519650620003d560a08d016200027a565b9550620003e560c08d016200028c565b60e08d01519095506001600160401b038111156200040257600080fd5b620004108e828f016200029d565b6101008e015190955090506001600160401b038111156200043057600080fd5b6200043e8e828f016200029d565b935050620004506101208d016200028c565b9150620004616101408d016200027a565b90509295989b509295989b9093969950565b600181811c908216806200048857607f821691505b60208210811415620004aa57634e487b7160e01b600052602260045260246000fd5b50919050565b634e487b7160e01b600052604160045260246000fd5b6001600160a01b0381168114620004dc57600080fd5b50565b60805160601c60a05160601c612c3a6200052060003960008181610483015261073e0152600081816106a501528181610cc401526110270152612c3a6000f3fe60806040526004361061012d5760003560e01c80638293fee6116100a5578063a4919eb111610074578063b96053df11610059578063b96053df1461067e578063c41c2f2414610693578063f2fde38b146106c757600080fd5b8063a4919eb114610639578063a81b33f31461066b57600080fd5b80638293fee6146105995780638da5cb5b146105ac57806393b7f154146105d75780639ef3ae941461061957600080fd5b8063421a2fb5116100fc57806354ab58af116100e157806354ab58af14610535578063715018a6146105625780637e6465491461057757600080fd5b8063421a2fb5146105095780635380cf8f1461051f57600080fd5b80630e45f78e1461044f5780632bdfe004146104715780633c212b1c146104cf5780633ce9830b146104f357600080fd5b3661044a57600260055414156101a4576040517f08c379a000000000000000000000000000000000000000000000000000000000815260206004820152601f60248201527f5265656e7472616e637947756172643a207265656e7472616e742063616c6c0060448201526064015b60405180910390fd5b600260058190555060006101c560065460075460085461eeee4760126106e7565b9050806101d25750610443565b600154156103fa5760005474010000000000000000000000000000000000000000900460ff161561029e5761029960015461eeee8360126003805461021690612a8b565b80601f016020809104026020016040519081016040528092919081815260200182805461024290612a8b565b801561028f5780601f106102645761010080835404028352916020019161028f565b820191906000526020600020905b81548152906001019060200180831161027257829003601f168201915b5050505050610c75565b610441565b61029960015461eeee836012600260009054906101000a900473ffffffffffffffffffffffffffffffffffffffff166000600260149054906101000a900460ff16600380546102ec90612a8b565b80601f016020809104026020016040519081016040528092919081815260200182805461031890612a8b565b80156103655780601f1061033a57610100808354040283529160200191610365565b820191906000526020600020905b81548152906001019060200180831161034857829003601f168201915b50505050506004805461037790612a8b565b80601f01602080910402602001604051908101604052809291908181526020018280546103a390612a8b565b80156103f05780601f106103c5576101008083540402835291602001916103f0565b820191906000526020600020905b8154815290600101906020018083116103d357829003601f168201915b5050505050610fd8565b6002546104419073ffffffffffffffffffffffffffffffffffffffff16610421573361043b565b60025473ffffffffffffffffffffffffffffffffffffffff165b8261139a565b505b6001600555005b600080fd5b34801561045b57600080fd5b5061046f61046a36600461255e565b6114f9565b005b34801561047d57600080fd5b506104a57f000000000000000000000000000000000000000000000000000000000000000081565b60405173ffffffffffffffffffffffffffffffffffffffff90911681526020015b60405180910390f35b3480156104db57600080fd5b506104e560085481565b6040519081526020016104c6565b3480156104ff57600080fd5b506104e560015481565b34801561051557600080fd5b506104e560065481565b34801561052b57600080fd5b506104e560075481565b34801561054157600080fd5b506002546104a59073ffffffffffffffffffffffffffffffffffffffff1681565b34801561056e57600080fd5b5061046f6117d9565b34801561058357600080fd5b5061058c611866565b6040516104c691906128fd565b61046f6105a7366004612604565b6118f4565b3480156105b857600080fd5b5060005473ffffffffffffffffffffffffffffffffffffffff166104a5565b3480156105e357600080fd5b506000546106099074010000000000000000000000000000000000000000900460ff1681565b60405190151581526020016104c6565b34801561062557600080fd5b5061046f610634366004612732565b611be7565b34801561064557600080fd5b506002546106099074010000000000000000000000000000000000000000900460ff1681565b61046f6106793660046126c5565b611cd3565b34801561068a57600080fd5b5061058c611fd4565b34801561069f57600080fd5b506104a57f000000000000000000000000000000000000000000000000000000000000000081565b3480156106d357600080fd5b5061046f6106e23660046123c8565b611fe1565b6040517f69e11cc5000000000000000000000000000000000000000000000000000000008152600481018790526024810186905260448101859052600090819073ffffffffffffffffffffffffffffffffffffffff7f000000000000000000000000000000000000000000000000000000000000000016906369e11cc59060640160006040518083038186803b15801561078057600080fd5b505afa158015610794573d6000803e3d6000fd5b505050506040513d6000823e601f3d9081017fffffffffffffffffffffffffffffffffffffffffffffffffffffffffffffffe01682016040526107da91908101906123e5565b905083915060005b8151811015610c695760008282815181106107ff576107ff612b76565b60200260200101519050600061081e878360400151633b9aca00612111565b90508015610c545760c082015173ffffffffffffffffffffffffffffffffffffffff1615610a82576040805160c08101825273ffffffffffffffffffffffffffffffffffffffff8a168082526020820184905291810188905260015460608201526000608082015260a081018490529061eeee146109465760c08301516040517f095ea7b300000000000000000000000000000000000000000000000000000000815273ffffffffffffffffffffffffffffffffffffffff918216600482015260248101849052908a169063095ea7b390604401602060405180830381600087803b15801561090c57600080fd5b505af1158015610920573d6000803e3d6000fd5b505050506040513d601f19601f82011682018060405250810190610944919061250b565b505b600073ffffffffffffffffffffffffffffffffffffffff8a1661eeee1461096e576000610970565b825b60c080860151604080517f9d740bfa000000000000000000000000000000000000000000000000000000008152865173ffffffffffffffffffffffffffffffffffffffff908116600483015260208089015160248401528389015160448401526060808a015160648501526080808b0151608486015260a0808c01518051151560a488015293840151151560c48701529583015160e486015290820151610104850152810151821661012484015292830151610144830152919093015181166101648401529293509190911690639d740bfa908390610184016000604051808303818588803b158015610a6257600080fd5b505af1158015610a76573d6000803e3d6000fd5b50505050505050610c47565b606082015115610b1757816020015115610ab357610aae82606001518983896003805461021690612a8b565b610c47565b610aae8260600151898389600073ffffffffffffffffffffffffffffffffffffffff16876080015173ffffffffffffffffffffffffffffffffffffffff161415610afd5733610b03565b86608001515b60008860000151600380546102ec90612a8b565b73ffffffffffffffffffffffffffffffffffffffff881661eeee1415610b6b576080820151610aae9073ffffffffffffffffffffffffffffffffffffffff16610b60573361043b565b82608001518261139a565b608082015173ffffffffffffffffffffffffffffffffffffffff808a169163a9059cbb9116610b9a5733610ba0565b83608001515b6040517fffffffff0000000000000000000000000000000000000000000000000000000060e084901b16815273ffffffffffffffffffffffffffffffffffffffff909116600482015260248101849052604401602060405180830381600087803b158015610c0d57600080fd5b505af1158015610c21573d6000803e3d6000fd5b505050506040513d601f19601f82011682018060405250810190610c45919061250b565b505b610c518186612a44565b94505b50508080610c6190612adf565b9150506107e2565b50509695505050505050565b6040517f862026500000000000000000000000000000000000000000000000000000000081526004810186905273ffffffffffffffffffffffffffffffffffffffff85811660248301526000917f00000000000000000000000000000000000000000000000000000000000000009091169063862026509060440160206040518083038186803b158015610d0857600080fd5b505afa158015610d1c573d6000803e3d6000fd5b505050506040513d601f19601f82011682018060405250810190610d409190612528565b905073ffffffffffffffffffffffffffffffffffffffff8116610d8f576040517ffba10dd600000000000000000000000000000000000000000000000000000000815260040160405180910390fd5b6040517fb7bad1b100000000000000000000000000000000000000000000000000000000815273ffffffffffffffffffffffffffffffffffffffff868116600483015284919083169063b7bad1b19060240160206040518083038186803b158015610df957600080fd5b505afa158015610e0d573d6000803e3d6000fd5b505050506040513d601f19601f82011682018060405250810190610e319190612545565b14610e68576040517fb972592400000000000000000000000000000000000000000000000000000000815260040160405180910390fd5b73ffffffffffffffffffffffffffffffffffffffff851661eeee14610f31576040517f095ea7b300000000000000000000000000000000000000000000000000000000815273ffffffffffffffffffffffffffffffffffffffff82811660048301526024820186905286169063095ea7b390604401602060405180830381600087803b158015610ef757600080fd5b505af1158015610f0b573d6000803e3d6000fd5b505050506040513d601f19601f82011682018060405250810190610f2f919061250b565b505b600073ffffffffffffffffffffffffffffffffffffffff861661eeee14610f59576000610f5b565b845b90508173ffffffffffffffffffffffffffffffffffffffff1663a27255cc8289888a886040518663ffffffff1660e01b8152600401610f9d9493929190612987565b6000604051808303818588803b158015610fb657600080fd5b505af1158015610fca573d6000803e3d6000fd5b505050505050505050505050565b6040517f86202650000000000000000000000000000000000000000000000000000000008152600481018a905273ffffffffffffffffffffffffffffffffffffffff89811660248301526000917f00000000000000000000000000000000000000000000000000000000000000009091169063862026509060440160206040518083038186803b15801561106b57600080fd5b505afa15801561107f573d6000803e3d6000fd5b505050506040513d601f19601f820116820180604052508101906110a39190612528565b905073ffffffffffffffffffffffffffffffffffffffff81166110f2576040517ffba10dd600000000000000000000000000000000000000000000000000000000815260040160405180910390fd5b6040517fb7bad1b100000000000000000000000000000000000000000000000000000000815273ffffffffffffffffffffffffffffffffffffffff8a8116600483015288919083169063b7bad1b19060240160206040518083038186803b15801561115c57600080fd5b505afa158015611170573d6000803e3d6000fd5b505050506040513d601f19601f820116820180604052508101906111949190612545565b146111cb576040517fb972592400000000000000000000000000000000000000000000000000000000815260040160405180910390fd5b73ffffffffffffffffffffffffffffffffffffffff891661eeee14611294576040517f095ea7b300000000000000000000000000000000000000000000000000000000815273ffffffffffffffffffffffffffffffffffffffff8281166004830152602482018a90528a169063095ea7b390604401602060405180830381600087803b15801561125a57600080fd5b505af115801561126e573d6000803e3d6000fd5b505050506040513d601f19601f82011682018060405250810190611292919061250b565b505b8073ffffffffffffffffffffffffffffffffffffffff16631ebc263f61eeee73ffffffffffffffffffffffffffffffffffffffff168b73ffffffffffffffffffffffffffffffffffffffff16146112ec5760006112ee565b895b8c8b8d73ffffffffffffffffffffffffffffffffffffffff8c166113125733611314565b8b5b8b8b8b8b6040518a63ffffffff1660e01b815260040161133b989796959493929190612910565b6020604051808303818588803b15801561135457600080fd5b505af1158015611368573d6000803e3d6000fd5b50505050506040513d601f19601f8201168201806040525081019061138d9190612545565b5050505050505050505050565b80471015611404576040517f08c379a000000000000000000000000000000000000000000000000000000000815260206004820152601d60248201527f416464726573733a20696e73756666696369656e742062616c616e6365000000604482015260640161019b565b60008273ffffffffffffffffffffffffffffffffffffffff168260405160006040518083038185875af1925050503d806000811461145e576040519150601f19603f3d011682016040523d82523d6000602084013e611463565b606091505b50509050806114f4576040517f08c379a000000000000000000000000000000000000000000000000000000000815260206004820152603a60248201527f416464726573733a20756e61626c6520746f2073656e642076616c75652c207260448201527f6563697069656e74206d61792068617665207265766572746564000000000000606482015260840161019b565b505050565b60005473ffffffffffffffffffffffffffffffffffffffff16331461157a576040517f08c379a000000000000000000000000000000000000000000000000000000000815260206004820181905260248201527f4f776e61626c653a2063616c6c6572206973206e6f7420746865206f776e6572604482015260640161019b565b60015486146115895760018690555b60025473ffffffffffffffffffffffffffffffffffffffff8681169116146115ec57600280547fffffffffffffffffffffffff00000000000000000000000000000000000000001673ffffffffffffffffffffffffffffffffffffffff87161790555b600260149054906101000a900460ff1615158415151461164a57600280547fffffffffffffffffffffff00ffffffffffffffffffffffffffffffffffffffff1674010000000000000000000000000000000000000000861515021790555b600360405160200161165c9190612894565b60405160208183030381529060405280519060200120836040516020016116839190612878565b60405160208183030381529060405280519060200120146116b35782516116b1906003906020860190612291565b505b60046040516020016116c59190612894565b60405160208183030381529060405280519060200120826040516020016116ec9190612878565b604051602081830303815290604052805190602001201461171c57815161171a906004906020850190612291565b505b600060149054906101000a900460ff1615158115151461177a57600080547fffffffffffffffffffffff00ffffffffffffffffffffffffffffffffffffffff1674010000000000000000000000000000000000000000831515021790555b8473ffffffffffffffffffffffffffffffffffffffff16867f36b1c5cef608e320317b9ee5155756634c65fe7055b424ce57e2f6c59eec794786868686336040516117c99594939291906128a0565b60405180910390a3505050505050565b60005473ffffffffffffffffffffffffffffffffffffffff16331461185a576040517f08c379a000000000000000000000000000000000000000000000000000000000815260206004820181905260248201527f4f776e61626c653a2063616c6c6572206973206e6f7420746865206f776e6572604482015260640161019b565b611864600061221c565b565b6004805461187390612a8b565b80601f016020809104026020016040519081016040528092919081815260200182805461189f90612a8b565b80156118ec5780601f106118c1576101008083540402835291602001916118ec565b820191906000526020600020905b8154815290600101906020018083116118cf57829003601f168201915b505050505081565b60026005541415611961576040517f08c379a000000000000000000000000000000000000000000000000000000000815260206004820152601f60248201527f5265656e7472616e637947756172643a207265656e7472616e742063616c6c00604482015260640161019b565b600260055573ffffffffffffffffffffffffffffffffffffffff881661eeee14611a6f5734156119bd576040517fbcfd35be00000000000000000000000000000000000000000000000000000000815260040160405180910390fd5b6040517f23b872dd0000000000000000000000000000000000000000000000000000000081523360048201523060248201526044810188905273ffffffffffffffffffffffffffffffffffffffff8916906323b872dd90606401602060405180830381600087803b158015611a3157600080fd5b505af1158015611a45573d6000803e3d6000fd5b505050506040513d601f19601f82011682018060405250810190611a69919061250b565b50611a77565b349650601295505b6000611a8d6001546007546008548c8c8c6106e7565b905080611a9a5750611bd7565b8915611ab657611ab18a8a838a8a8a8a8a8a610fd8565b611bd5565b73ffffffffffffffffffffffffffffffffffffffff891661eeee1415611b0157611ab173ffffffffffffffffffffffffffffffffffffffff8716611afa573361043b565b868261139a565b73ffffffffffffffffffffffffffffffffffffffff808a169063a9059cbb908816611b2c5733611b2e565b875b6040517fffffffff0000000000000000000000000000000000000000000000000000000060e084901b16815273ffffffffffffffffffffffffffffffffffffffff909116600482015260248101849052604401602060405180830381600087803b158015611b9b57600080fd5b505af1158015611baf573d6000803e3d6000fd5b505050506040513d601f19601f82011682018060405250810190611bd3919061250b565b505b505b5050600160055550505050505050565b60005473ffffffffffffffffffffffffffffffffffffffff163314611c68576040517f08c379a000000000000000000000000000000000000000000000000000000000815260206004820181905260248201527f4f776e61626c653a2063616c6c6572206973206e6f7420746865206f776e6572604482015260640161019b565b6006548314611c775760068390555b6007548214611c865760078290555b6008548114611c955760088190555b6040513381528190839085907f35d3ba05d1542dfd932c06cd4a721d4c7df968e4315425b90acca0cd7e6ec3b49060200160405180910390a4505050565b60026005541415611d40576040517f08c379a000000000000000000000000000000000000000000000000000000000815260206004820152601f60248201527f5265656e7472616e637947756172643a207265656e7472616e742063616c6c00604482015260640161019b565b600260055573ffffffffffffffffffffffffffffffffffffffff841661eeee14611e4e573415611d9c576040517fbcfd35be00000000000000000000000000000000000000000000000000000000815260040160405180910390fd5b6040517f23b872dd0000000000000000000000000000000000000000000000000000000081523360048201523060248201526044810184905273ffffffffffffffffffffffffffffffffffffffff8516906323b872dd90606401602060405180830381600087803b158015611e1057600080fd5b505af1158015611e24573d6000803e3d6000fd5b505050506040513d601f19601f82011682018060405250810190611e48919061250b565b50611e56565b349250601291505b6000611e6c6001546007546008548888886106e7565b905080611e795750611fc8565b8515611e9157611e8c8686838686610c75565b611fc6565b73ffffffffffffffffffffffffffffffffffffffff851661eeee1415611ed857600254611e8c9073ffffffffffffffffffffffffffffffffffffffff16610421573361043b565b60025473ffffffffffffffffffffffffffffffffffffffff8087169163a9059cbb9116611f055733611f1f565b60025473ffffffffffffffffffffffffffffffffffffffff165b6040517fffffffff0000000000000000000000000000000000000000000000000000000060e084901b16815273ffffffffffffffffffffffffffffffffffffffff909116600482015260248101849052604401602060405180830381600087803b158015611f8c57600080fd5b505af1158015611fa0573d6000803e3d6000fd5b505050506040513d601f19601f82011682018060405250810190611fc4919061250b565b505b505b50506001600555505050565b6003805461187390612a8b565b60005473ffffffffffffffffffffffffffffffffffffffff163314612062576040517f08c379a000000000000000000000000000000000000000000000000000000000815260206004820181905260248201527f4f776e61626c653a2063616c6c6572206973206e6f7420746865206f776e6572604482015260640161019b565b73ffffffffffffffffffffffffffffffffffffffff8116612105576040517f08c379a000000000000000000000000000000000000000000000000000000000815260206004820152602660248201527f4f776e61626c653a206e6577206f776e657220697320746865207a65726f206160448201527f6464726573730000000000000000000000000000000000000000000000000000606482015260840161019b565b61210e8161221c565b50565b600080807fffffffffffffffffffffffffffffffffffffffffffffffffffffffffffffffff858709858702925082811083820303915050806000141561216a5783828161216057612160612b47565b0492505050612215565b8381106121ad576040517f773cc18c000000000000000000000000000000000000000000000000000000008152600481018290526024810185905260440161019b565b600084868809851960019081018716968790049682860381900495909211909303600082900391909104909201919091029190911760038402600290811880860282030280860282030280860282030280860282030280860282030280860290910302029150505b9392505050565b6000805473ffffffffffffffffffffffffffffffffffffffff8381167fffffffffffffffffffffffff0000000000000000000000000000000000000000831681178455604051919092169283917f8be0079c531659141344cd1fd0a4f28419497f9722a3daafe3b4186f6b6457e09190a35050565b82805461229d90612a8b565b90600052602060002090601f0160209004810192826122bf5760008555612305565b82601f106122d857805160ff1916838001178555612305565b82800160010185558215612305579182015b828111156123055782518255916020019190600101906122ea565b50612311929150612315565b5090565b5b808211156123115760008155600101612316565b803561233581612bf6565b919050565b600082601f83011261234b57600080fd5b813567ffffffffffffffff81111561236557612365612ba5565b61239660207fffffffffffffffffffffffffffffffffffffffffffffffffffffffffffffffe0601f840116016129f5565b8181528460208386010111156123ab57600080fd5b816020850160208301376000918101602001919091529392505050565b6000602082840312156123da57600080fd5b813561221581612bd4565b600060208083850312156123f857600080fd5b825167ffffffffffffffff8082111561241057600080fd5b818501915085601f83011261242457600080fd5b81518181111561243657612436612ba5565b612444848260051b016129f5565b818152848101925083850160e0808402860187018a101561246457600080fd5b60009550855b848110156124fc5781838c031215612480578687fd5b6124886129cc565b835161249381612bf6565b8152838901516124a281612bf6565b818a015260408481015190820152606080850151908201526080808501516124c981612bd4565b9082015260a0848101519082015260c0808501516124e681612bd4565b908201528652948701949181019160010161246a565b50919998505050505050505050565b60006020828403121561251d57600080fd5b815161221581612bf6565b60006020828403121561253a57600080fd5b815161221581612bd4565b60006020828403121561255757600080fd5b5051919050565b60008060008060008060c0878903121561257757600080fd5b86359550602087013561258981612bd4565b9450604087013561259981612bf6565b9350606087013567ffffffffffffffff808211156125b657600080fd5b6125c28a838b0161233a565b945060808901359150808211156125d857600080fd5b506125e589828a0161233a565b92505060a08701356125f681612bf6565b809150509295509295509295565b60008060008060008060008060006101208a8c03121561262357600080fd5b8935985060208a013561263581612bd4565b975060408a0135965060608a0135955060808a013561265381612bd4565b945060a08a0135935061266860c08b0161232a565b925060e08a013567ffffffffffffffff8082111561268557600080fd5b6126918d838e0161233a565b93506101008c01359150808211156126a857600080fd5b506126b58c828d0161233a565b9150509295985092959850929598565b600080600080600060a086880312156126dd57600080fd5b8535945060208601356126ef81612bd4565b93506040860135925060608601359150608086013567ffffffffffffffff81111561271957600080fd5b6127258882890161233a565b9150509295509295909350565b60008060006060848603121561274757600080fd5b505081359360208301359350604090920135919050565b60008151808452612776816020860160208601612a5b565b601f017fffffffffffffffffffffffffffffffffffffffffffffffffffffffffffffffe0169290920160200192915050565b8054600090600181811c90808316806127c257607f831692505b60208084108214156127fd577f4e487b7100000000000000000000000000000000000000000000000000000000600052602260045260246000fd5b81801561281157600181146128405761286c565b7fffffffffffffffffffffffffffffffffffffffffffffffffffffffffffffff0086168952848901965061286c565b876000528160002060005b868110156128645781548b82015290850190830161284b565b505084890196505b50505050505092915050565b6000825161288a818460208701612a5b565b9190910192915050565b600061221582846127a8565b851515815260a0602082015260006128bb60a083018761275e565b82810360408401526128cd818761275e565b9415156060840152505073ffffffffffffffffffffffffffffffffffffffff919091166080909101529392505050565b602081526000612215602083018461275e565b60006101008a835289602084015273ffffffffffffffffffffffffffffffffffffffff808a16604085015280891660608501525086608084015285151560a08401528060c08401526129648184018661275e565b905082810360e0840152612978818561275e565b9b9a5050505050505050505050565b84815283602082015273ffffffffffffffffffffffffffffffffffffffff831660408201526080606082015260006129c2608083018461275e565b9695505050505050565b60405160e0810167ffffffffffffffff811182821017156129ef576129ef612ba5565b60405290565b604051601f82017fffffffffffffffffffffffffffffffffffffffffffffffffffffffffffffffe016810167ffffffffffffffff81118282101715612a3c57612a3c612ba5565b604052919050565b600082821015612a5657612a56612b18565b500390565b60005b83811015612a76578181015183820152602001612a5e565b83811115612a85576000848401525b50505050565b600181811c90821680612a9f57607f821691505b60208210811415612ad9577f4e487b7100000000000000000000000000000000000000000000000000000000600052602260045260246000fd5b50919050565b60007fffffffffffffffffffffffffffffffffffffffffffffffffffffffffffffffff821415612b1157612b11612b18565b5060010190565b7f4e487b7100000000000000000000000000000000000000000000000000000000600052601160045260246000fd5b7f4e487b7100000000000000000000000000000000000000000000000000000000600052601260045260246000fd5b7f4e487b7100000000000000000000000000000000000000000000000000000000600052603260045260246000fd5b7f4e487b7100000000000000000000000000000000000000000000000000000000600052604160045260246000fd5b73ffffffffffffffffffffffffffffffffffffffff8116811461210e57600080fd5b801515811461210e57600080fdfea264697066735822122012f5a34fdc263a0a538f86f400aedf5299eaa5eb957a03420bec00c956b076b864736f6c63430008060033a2646970667358221220f78dabe669b27ca2979f3114b22ef76be452a020eddfb56faecc24fb14f3dd7d64736f6c63430008060033",
  "devdoc": {
    "details": "Adheres to: IJBETHERC20SplitsPayerDeployer:  General interface for the methods in this contract that interact with the blockchain's state according to the protocol's rules.",
    "kind": "dev",
    "methods": {
      "deploySplitsPayer(uint256,uint256,uint256,address,uint256,address,bool,string,bytes,bool,address)": {
        "params": {
          "_defaultBeneficiary": "The address that'll receive the project's tokens when the project payer receives payments. ",
          "_defaultMemo": "The memo that'll be forwarded with the project payer's received payments. ",
          "_defaultMetadata": "The metadata that'll be forwarded with the project payer's received payments. ",
          "_defaultPreferAddToBalance": "A flag indicating if received payments should call the `pay` function or the `addToBalance` function of a project.",
          "_defaultPreferClaimedTokens": "A flag indicating whether issued tokens from the project payer's received payments should be automatically claimed into the beneficiary's wallet. ",
          "_defaultProjectId": "The ID of the project whose treasury should be forwarded the project payer contract's received payments.",
          "_defaultSplitsDomain": "The splits domain to payout when this contract receives direct payments.",
          "_defaultSplitsGroup": "The splits group to payout when this contract receives direct payments.",
          "_defaultSplitsProjectId": "The ID of project for which the default splits are stored.",
          "_owner": "The address that will own the project payer.",
          "_splitsStore": "A contract that stores splits for each project."
        },
        "returns": {
          "splitsPayer": "The splits payer contract."
        }
      }
    },
    "version": 1
  },
  "userdoc": {
    "kind": "user",
    "methods": {
      "deploySplitsPayer(uint256,uint256,uint256,address,uint256,address,bool,string,bytes,bool,address)": {
        "notice": " Allows anyone to deploy a new project payer contract."
      }
    },
    "notice": " Deploys splits payer contracts.",
    "version": 1
  },
  "storageLayout": {
    "storage": [],
    "types": null
  }
}