{
  "address": "0x5eaBF1D7A8c6942534cCb3489Ff221b2CBc0255b",
  "abi": [
    {
      "inputs": [
        {
          "internalType": "contract IJBPrices",
          "name": "_prices",
          "type": "address"
        },
        {
          "internalType": "contract IJBProjects",
          "name": "_projects",
          "type": "address"
        },
        {
          "internalType": "contract IJBDirectory",
          "name": "_directory",
          "type": "address"
        },
        {
          "internalType": "contract IJBFundingCycleStore",
          "name": "_fundingCycleStore",
          "type": "address"
        },
        {
          "internalType": "contract IJBTokenStore",
          "name": "_tokenStore",
          "type": "address"
        }
      ],
      "stateMutability": "nonpayable",
      "type": "constructor"
    },
    {
      "inputs": [
        {
          "internalType": "uint256",
          "name": "prod1",
          "type": "uint256"
        }
      ],
      "name": "PRBMath__MulDivFixedPointOverflow",
      "type": "error"
    },
    {
      "inputs": [
        {
          "internalType": "uint256",
          "name": "prod1",
          "type": "uint256"
        },
        {
          "internalType": "uint256",
          "name": "denominator",
          "type": "uint256"
        }
      ],
      "name": "PRBMath__MulDivOverflow",
      "type": "error"
    },
    {
      "anonymous": false,
      "inputs": [
        {
          "indexed": true,
          "internalType": "contract IJBPayDelegate",
          "name": "delegate",
          "type": "address"
        },
        {
          "components": [
            {
              "internalType": "address",
              "name": "payer",
              "type": "address"
            },
            {
              "internalType": "uint256",
              "name": "projectId",
              "type": "uint256"
            },
            {
              "internalType": "uint256",
              "name": "amount",
              "type": "uint256"
            },
            {
              "internalType": "uint256",
              "name": "weight",
              "type": "uint256"
            },
            {
              "internalType": "uint256",
              "name": "tokenCount",
              "type": "uint256"
            },
            {
              "internalType": "address",
              "name": "beneficiary",
              "type": "address"
            },
            {
              "internalType": "string",
              "name": "memo",
              "type": "string"
            },
            {
              "internalType": "bytes",
              "name": "delegateMetadata",
              "type": "bytes"
            }
          ],
          "indexed": false,
          "internalType": "struct JBDidPayData",
          "name": "data",
          "type": "tuple"
        }
      ],
      "name": "DelegateDidPay",
      "type": "event"
    },
    {
      "anonymous": false,
      "inputs": [
        {
          "indexed": true,
          "internalType": "contract IJBRedemptionDelegate",
          "name": "delegate",
          "type": "address"
        },
        {
          "components": [
            {
              "internalType": "address",
              "name": "holder",
              "type": "address"
            },
            {
              "internalType": "uint256",
              "name": "projectId",
              "type": "uint256"
            },
            {
              "internalType": "uint256",
              "name": "tokenCount",
              "type": "uint256"
            },
            {
              "internalType": "uint256",
              "name": "claimAmount",
              "type": "uint256"
            },
            {
              "internalType": "address payable",
              "name": "beneficiary",
              "type": "address"
            },
            {
              "internalType": "string",
              "name": "memo",
              "type": "string"
            },
            {
              "internalType": "bytes",
              "name": "metadata",
              "type": "bytes"
            }
          ],
          "indexed": false,
          "internalType": "struct JBDidRedeemData",
          "name": "data",
          "type": "tuple"
        }
      ],
      "name": "DelegateDidRedeem",
      "type": "event"
    },
    {
      "inputs": [
        {
          "internalType": "uint256",
          "name": "",
          "type": "uint256"
        }
      ],
      "name": "balanceOf",
      "outputs": [
        {
          "internalType": "uint256",
          "name": "",
          "type": "uint256"
        }
      ],
      "stateMutability": "view",
      "type": "function"
    },
    {
      "inputs": [
        {
          "internalType": "contract IJBTerminal",
          "name": "_terminal",
          "type": "address"
        }
      ],
      "name": "claimFor",
      "outputs": [],
      "stateMutability": "nonpayable",
      "type": "function"
    },
    {
      "inputs": [
        {
          "internalType": "uint256",
          "name": "_projectId",
          "type": "uint256"
        },
        {
          "internalType": "uint256",
          "name": "_tokenCount",
          "type": "uint256"
        }
      ],
      "name": "claimableOverflowOf",
      "outputs": [
        {
          "internalType": "uint256",
          "name": "",
          "type": "uint256"
        }
      ],
      "stateMutability": "view",
      "type": "function"
    },
    {
      "inputs": [
        {
          "internalType": "uint256",
          "name": "_projectId",
          "type": "uint256"
        }
      ],
      "name": "currentOverflowOf",
      "outputs": [
        {
          "internalType": "uint256",
          "name": "",
          "type": "uint256"
        }
      ],
      "stateMutability": "view",
      "type": "function"
    },
    {
      "inputs": [
        {
          "internalType": "uint256",
          "name": "_projectId",
          "type": "uint256"
        }
      ],
      "name": "currentTotalOverflowOf",
      "outputs": [
        {
          "internalType": "uint256",
          "name": "",
          "type": "uint256"
        }
      ],
      "stateMutability": "view",
      "type": "function"
    },
    {
      "inputs": [],
      "name": "directory",
      "outputs": [
        {
          "internalType": "contract IJBDirectory",
          "name": "",
          "type": "address"
        }
      ],
      "stateMutability": "view",
      "type": "function"
    },
    {
      "inputs": [],
      "name": "fundingCycleStore",
      "outputs": [
        {
          "internalType": "contract IJBFundingCycleStore",
          "name": "",
          "type": "address"
        }
      ],
      "stateMutability": "view",
      "type": "function"
    },
    {
      "inputs": [],
      "name": "prices",
      "outputs": [
        {
          "internalType": "contract IJBPrices",
          "name": "",
          "type": "address"
        }
      ],
      "stateMutability": "view",
      "type": "function"
    },
    {
      "inputs": [],
      "name": "projects",
      "outputs": [
        {
          "internalType": "contract IJBProjects",
          "name": "",
          "type": "address"
        }
      ],
      "stateMutability": "view",
      "type": "function"
    },
    {
      "inputs": [
        {
          "internalType": "uint256",
          "name": "_projectId",
          "type": "uint256"
        },
        {
          "internalType": "uint256",
          "name": "_amount",
          "type": "uint256"
        }
      ],
      "name": "recordAddedBalanceFor",
      "outputs": [
        {
          "components": [
            {
              "internalType": "uint256",
              "name": "number",
              "type": "uint256"
            },
            {
              "internalType": "uint256",
              "name": "configuration",
              "type": "uint256"
            },
            {
              "internalType": "uint256",
              "name": "basedOn",
              "type": "uint256"
            },
            {
              "internalType": "uint256",
              "name": "start",
              "type": "uint256"
            },
            {
              "internalType": "uint256",
              "name": "duration",
              "type": "uint256"
            },
            {
              "internalType": "uint256",
              "name": "weight",
              "type": "uint256"
            },
            {
              "internalType": "uint256",
              "name": "discountRate",
              "type": "uint256"
            },
            {
              "internalType": "contract IJBFundingCycleBallot",
              "name": "ballot",
              "type": "address"
            },
            {
              "internalType": "uint256",
              "name": "metadata",
              "type": "uint256"
            }
          ],
          "internalType": "struct JBFundingCycle",
          "name": "fundingCycle",
          "type": "tuple"
        }
      ],
      "stateMutability": "nonpayable",
      "type": "function"
    },
    {
      "inputs": [
        {
          "internalType": "uint256",
          "name": "_projectId",
          "type": "uint256"
        },
        {
          "internalType": "uint256",
          "name": "_amount",
          "type": "uint256"
        },
        {
          "internalType": "uint256",
          "name": "_currency",
          "type": "uint256"
        },
        {
          "internalType": "uint256",
          "name": "_minReturnedWei",
          "type": "uint256"
        }
      ],
      "name": "recordDistributionFor",
      "outputs": [
        {
          "components": [
            {
              "internalType": "uint256",
              "name": "number",
              "type": "uint256"
            },
            {
              "internalType": "uint256",
              "name": "configuration",
              "type": "uint256"
            },
            {
              "internalType": "uint256",
              "name": "basedOn",
              "type": "uint256"
            },
            {
              "internalType": "uint256",
              "name": "start",
              "type": "uint256"
            },
            {
              "internalType": "uint256",
              "name": "duration",
              "type": "uint256"
            },
            {
              "internalType": "uint256",
              "name": "weight",
              "type": "uint256"
            },
            {
              "internalType": "uint256",
              "name": "discountRate",
              "type": "uint256"
            },
            {
              "internalType": "contract IJBFundingCycleBallot",
              "name": "ballot",
              "type": "address"
            },
            {
              "internalType": "uint256",
              "name": "metadata",
              "type": "uint256"
            }
          ],
          "internalType": "struct JBFundingCycle",
          "name": "fundingCycle",
          "type": "tuple"
        },
        {
          "internalType": "uint256",
          "name": "distributedAmount",
          "type": "uint256"
        }
      ],
      "stateMutability": "nonpayable",
      "type": "function"
    },
    {
      "inputs": [
        {
          "internalType": "uint256",
          "name": "_projectId",
          "type": "uint256"
        }
      ],
      "name": "recordMigration",
      "outputs": [
        {
          "internalType": "uint256",
          "name": "balance",
          "type": "uint256"
        }
      ],
      "stateMutability": "nonpayable",
      "type": "function"
    },
    {
      "inputs": [
        {
          "internalType": "address",
          "name": "_payer",
          "type": "address"
        },
        {
          "internalType": "uint256",
          "name": "_amount",
          "type": "uint256"
        },
        {
          "internalType": "uint256",
          "name": "_projectId",
          "type": "uint256"
        },
        {
          "internalType": "uint256",
          "name": "_preferClaimedTokensAndBeneficiary",
          "type": "uint256"
        },
        {
          "internalType": "uint256",
          "name": "_minReturnedTokens",
          "type": "uint256"
        },
        {
          "internalType": "string",
          "name": "_memo",
          "type": "string"
        },
        {
          "internalType": "bytes",
          "name": "_delegateMetadata",
          "type": "bytes"
        }
      ],
      "name": "recordPaymentFrom",
      "outputs": [
        {
          "components": [
            {
              "internalType": "uint256",
              "name": "number",
              "type": "uint256"
            },
            {
              "internalType": "uint256",
              "name": "configuration",
              "type": "uint256"
            },
            {
              "internalType": "uint256",
              "name": "basedOn",
              "type": "uint256"
            },
            {
              "internalType": "uint256",
              "name": "start",
              "type": "uint256"
            },
            {
              "internalType": "uint256",
              "name": "duration",
              "type": "uint256"
            },
            {
              "internalType": "uint256",
              "name": "weight",
              "type": "uint256"
            },
            {
              "internalType": "uint256",
              "name": "discountRate",
              "type": "uint256"
            },
            {
              "internalType": "contract IJBFundingCycleBallot",
              "name": "ballot",
              "type": "address"
            },
            {
              "internalType": "uint256",
              "name": "metadata",
              "type": "uint256"
            }
          ],
          "internalType": "struct JBFundingCycle",
          "name": "fundingCycle",
          "type": "tuple"
        },
        {
          "internalType": "uint256",
          "name": "weight",
          "type": "uint256"
        },
        {
          "internalType": "uint256",
          "name": "tokenCount",
          "type": "uint256"
        },
        {
          "internalType": "string",
          "name": "memo",
          "type": "string"
        }
      ],
      "stateMutability": "nonpayable",
      "type": "function"
    },
    {
      "inputs": [
        {
          "internalType": "address",
          "name": "_holder",
          "type": "address"
        },
        {
          "internalType": "uint256",
          "name": "_projectId",
          "type": "uint256"
        },
        {
          "internalType": "uint256",
          "name": "_tokenCount",
          "type": "uint256"
        },
        {
          "internalType": "uint256",
          "name": "_minReturnedWei",
          "type": "uint256"
        },
        {
          "internalType": "address payable",
          "name": "_beneficiary",
          "type": "address"
        },
        {
          "internalType": "string",
          "name": "_memo",
          "type": "string"
        },
        {
          "internalType": "bytes",
          "name": "_delegateMetadata",
          "type": "bytes"
        }
      ],
      "name": "recordRedemptionFor",
      "outputs": [
        {
          "components": [
            {
              "internalType": "uint256",
              "name": "number",
              "type": "uint256"
            },
            {
              "internalType": "uint256",
              "name": "configuration",
              "type": "uint256"
            },
            {
              "internalType": "uint256",
              "name": "basedOn",
              "type": "uint256"
            },
            {
              "internalType": "uint256",
              "name": "start",
              "type": "uint256"
            },
            {
              "internalType": "uint256",
              "name": "duration",
              "type": "uint256"
            },
            {
              "internalType": "uint256",
              "name": "weight",
              "type": "uint256"
            },
            {
              "internalType": "uint256",
              "name": "discountRate",
              "type": "uint256"
            },
            {
              "internalType": "contract IJBFundingCycleBallot",
              "name": "ballot",
              "type": "address"
            },
            {
              "internalType": "uint256",
              "name": "metadata",
              "type": "uint256"
            }
          ],
          "internalType": "struct JBFundingCycle",
          "name": "fundingCycle",
          "type": "tuple"
        },
        {
          "internalType": "uint256",
          "name": "claimAmount",
          "type": "uint256"
        },
        {
          "internalType": "string",
          "name": "memo",
          "type": "string"
        }
      ],
      "stateMutability": "nonpayable",
      "type": "function"
    },
    {
      "inputs": [
        {
          "internalType": "uint256",
          "name": "_projectId",
          "type": "uint256"
        },
        {
          "internalType": "uint256",
          "name": "_amount",
          "type": "uint256"
        },
        {
          "internalType": "uint256",
          "name": "_currency",
          "type": "uint256"
        },
        {
          "internalType": "uint256",
          "name": "_minReturnedWei",
          "type": "uint256"
        }
      ],
      "name": "recordUsedAllowanceOf",
      "outputs": [
        {
          "components": [
            {
              "internalType": "uint256",
              "name": "number",
              "type": "uint256"
            },
            {
              "internalType": "uint256",
              "name": "configuration",
              "type": "uint256"
            },
            {
              "internalType": "uint256",
              "name": "basedOn",
              "type": "uint256"
            },
            {
              "internalType": "uint256",
              "name": "start",
              "type": "uint256"
            },
            {
              "internalType": "uint256",
              "name": "duration",
              "type": "uint256"
            },
            {
              "internalType": "uint256",
              "name": "weight",
              "type": "uint256"
            },
            {
              "internalType": "uint256",
              "name": "discountRate",
              "type": "uint256"
            },
            {
              "internalType": "contract IJBFundingCycleBallot",
              "name": "ballot",
              "type": "address"
            },
            {
              "internalType": "uint256",
              "name": "metadata",
              "type": "uint256"
            }
          ],
          "internalType": "struct JBFundingCycle",
          "name": "fundingCycle",
          "type": "tuple"
        },
        {
          "internalType": "uint256",
          "name": "withdrawnAmount",
          "type": "uint256"
        }
      ],
      "stateMutability": "nonpayable",
      "type": "function"
    },
    {
      "inputs": [],
      "name": "terminal",
      "outputs": [
        {
          "internalType": "contract IJBTerminal",
          "name": "",
          "type": "address"
        }
      ],
      "stateMutability": "view",
      "type": "function"
    },
    {
      "inputs": [],
      "name": "tokenStore",
      "outputs": [
        {
          "internalType": "contract IJBTokenStore",
          "name": "",
          "type": "address"
        }
      ],
      "stateMutability": "view",
      "type": "function"
    },
    {
      "inputs": [
        {
          "internalType": "uint256",
          "name": "",
          "type": "uint256"
        },
        {
          "internalType": "uint256",
          "name": "",
          "type": "uint256"
        }
      ],
      "name": "usedDistributionLimitOf",
      "outputs": [
        {
          "internalType": "uint256",
          "name": "",
          "type": "uint256"
        }
      ],
      "stateMutability": "view",
      "type": "function"
    },
    {
      "inputs": [
        {
          "internalType": "uint256",
          "name": "",
          "type": "uint256"
        },
        {
          "internalType": "uint256",
          "name": "",
          "type": "uint256"
        }
      ],
      "name": "usedOverflowAllowanceOf",
      "outputs": [
        {
          "internalType": "uint256",
          "name": "",
          "type": "uint256"
        }
      ],
      "stateMutability": "view",
      "type": "function"
    }
  ],
  "transactionHash": "0x254fb0059f49b28151b9a37c0ec3a927cf67bc60326320f1b37b6b79518b3c45",
  "args": [
    "0x8E97174ad1527dace164d8248246c5b79A32A90F",
    "0x0a75928644d0E25Dc9340c33d0D946Fabef2046C",
    "0xf4326041BE30a4b7fc4db9Bb6286fef458F71fe2",
    "0x1bd2d2D0a5F5981636a4EC1b28195722E1D333bD",
    "0x9afc7156d8034A6Bbd4297D450f17cB4027BF9F5"
  ],
  "solcInputHash": "5f321124cef92f5734094814cf45799b",
  "bytecode": "0x6101206040523480156200001257600080fd5b50604051620047933803806200479383398101604081905262000035916200006d565b6001600160601b0319606095861b81166101005293851b841660805291841b831660a052831b821660c05290911b1660e05262000106565b600080600080600060a086880312156200008657600080fd5b85516200009381620000ed565b6020870151909550620000a681620000ed565b6040870151909450620000b981620000ed565b6060870151909350620000cc81620000ed565b6080870151909250620000df81620000ed565b809150509295509295909350565b6001600160a01b03811681146200010357600080fd5b50565b60805160601c60a05160601c60c05160601c60e05160601c6101005160601c61457c6200021760003960008181610319015281816107c4015281816119d70152818161337b015261379301526000818161023c01528181611e4c0152612b760152600081816101f0015281816104fc01528181610cc90152818161149501528181611bf701528181611f5e015281816125ea0152818161278801528181612924015281816129f00152612de20152600081816102f2015281816105be0152818161089c01528181611003015281816115c9015281816117d0015281816122cd01528181612c4f01528181612f59015281816131d201528181613465015261360001526000610276015261457c6000f3fe608060405234801561001057600080fd5b50600436106101515760003560e01c80639cc7f708116100cd578063ddeae03311610081578063e7c8e3e311610066578063e7c8e3e31461038e578063f45d0bc6146103ae578063f548c86f146103ce57600080fd5b8063ddeae03314610366578063ddfd414a1461037b57600080fd5b8063c41c2f24116100b2578063c41c2f24146102ed578063d3419bf314610314578063dcc3041b1461033b57600080fd5b80639cc7f708146102ba578063c13d5070146102da57600080fd5b8063557e7155116101245780636bb6a5ad116101095780636bb6a5ad1461025e5780638b79543c146102715780639225bf1a1461029857600080fd5b8063557e7155146101eb578063619306301461023757600080fd5b8063115cdd8e146101565780631837d6e31461019457806329c705c7146101b55780634d9cd5ac146101d8575b600080fd5b610181610164366004613e0d565b600260209081526000928352604080842090915290825290205481565b6040519081526020015b60405180910390f35b6101a76101a2366004613e2f565b6103e1565b60405161018b929190614115565b6101c86101c3366004613b67565b610bae565b60405161018b9493929190614231565b6101a76101e6366004613e2f565b61137f565b6102127f000000000000000000000000000000000000000000000000000000000000000081565b60405173ffffffffffffffffffffffffffffffffffffffff909116815260200161018b565b6102127f000000000000000000000000000000000000000000000000000000000000000081565b61018161026c366004613d5a565b611b43565b6102127f000000000000000000000000000000000000000000000000000000000000000081565b6102ab6102a6366004613ac1565b611d15565b60405161018b9392919061419d565b6101816102c8366004613d5a565b60016020526000908152604090205481565b6101816102e8366004613d5a565b6125a1565b6102127f000000000000000000000000000000000000000000000000000000000000000081565b6102127f000000000000000000000000000000000000000000000000000000000000000081565b610181610349366004613e0d565b600360209081526000928352604080842090915290825290205481565b610379610374366004613c9c565b612678565b005b610181610389366004613d5a565b61273f565b6103a161039c366004613e0d565b61280f565b60405161018b919061409b565b6000546102129073ffffffffffffffffffffffffffffffffffffffff1681565b6101816103dc366004613e0d565b6129e8565b61044660405180610120016040528060008152602001600081526020016000815260200160008152602001600081526020016000815260200160008152602001600073ffffffffffffffffffffffffffffffffffffffff168152602001600081525090565b6000805473ffffffffffffffffffffffffffffffffffffffff1633146104cd576040517f08c379a000000000000000000000000000000000000000000000000000000000815260206004820152601260248201527f307833613a20554e415554484f52495a4544000000000000000000000000000060448201526064015b60405180910390fd5b6040517f43a266c2000000000000000000000000000000000000000000000000000000008152600481018790527f000000000000000000000000000000000000000000000000000000000000000073ffffffffffffffffffffffffffffffffffffffff16906343a266c2906024016101206040518083038186803b15801561055457600080fd5b505afa158015610568573d6000803e3d6000fd5b505050506040513d601f19601f8201168201806040525081019061058c9190613cda565b6040517f5dd8f6aa000000000000000000000000000000000000000000000000000000008152600481018890529092507f000000000000000000000000000000000000000000000000000000000000000073ffffffffffffffffffffffffffffffffffffffff1690635dd8f6aa9060240160206040518083038186803b15801561061557600080fd5b505afa158015610629573d6000803e3d6000fd5b505050506040513d601f19601f8201168201806040525081019061064d9190613c7f565b60208301516000546040517f3732d12c000000000000000000000000000000000000000000000000000000008152600481018a9052602481019290925273ffffffffffffffffffffffffffffffffffffffff90811660448301529190911690633732d12c9060640160206040518083038186803b1580156106cd57600080fd5b505afa1580156106e1573d6000803e3d6000fd5b505050506040513d601f19601f820116820180604052508101906107059190613d73565b841461076d576040517f08c379a000000000000000000000000000000000000000000000000000000000815260206004820152601960248201527f307834323a20554e45585045435445445f43555252454e43590000000000000060448201526064016104c4565b8315610849576040517ff48cc101000000000000000000000000000000000000000000000000000000008152600481018590526001602482015261084490869073ffffffffffffffffffffffffffffffffffffffff7f0000000000000000000000000000000000000000000000000000000000000000169063f48cc101906044015b60206040518083038186803b15801561080757600080fd5b505afa15801561081b573d6000803e3d6000fd5b505050506040513d601f19601f8201168201806040525081019061083f9190613d73565b612aa9565b61084b565b845b6000878152600260209081526040808320868301518452909152908190205490517f5dd8f6aa00000000000000000000000000000000000000000000000000000000815260048101899052919250907f000000000000000000000000000000000000000000000000000000000000000073ffffffffffffffffffffffffffffffffffffffff1690635dd8f6aa9060240160206040518083038186803b1580156108f357600080fd5b505afa158015610907573d6000803e3d6000fd5b505050506040513d601f19601f8201168201806040525081019061092b9190613c7f565b60208401516000546040517f5172a2bf000000000000000000000000000000000000000000000000000000008152600481018b9052602481019290925273ffffffffffffffffffffffffffffffffffffffff90811660448301529190911690635172a2bf9060640160206040518083038186803b1580156109ab57600080fd5b505afa1580156109bf573d6000803e3d6000fd5b505050506040513d601f19601f820116820180604052508101906109e39190613d73565b6109ed91906143b6565b811115610a56576040517f08c379a000000000000000000000000000000000000000000000000000000000815260206004820152601160248201527f307834333a204e4f545f414c4c4f57454400000000000000000000000000000060448201526064016104c4565b600086815260016020526040902054811115610ace576040517f08c379a000000000000000000000000000000000000000000000000000000000815260206004820152601860248201527f307834343a20494e53554646494349454e545f46554e4453000000000000000060448201526064016104c4565b80831115610b38576040517f08c379a000000000000000000000000000000000000000000000000000000000815260206004820152601060248201527f307834353a20494e41444551554154450000000000000000000000000000000060448201526064016104c4565b6000868152600260209081526040808320858301518452909152902054610b6090829061439e565b6000878152600260209081526040808320868301518452825280832093909355888252600190522054610b949082906143b6565b600096875260016020526040909620959095559492505050565b610c1360405180610120016040528060008152602001600081526020016000815260200160008152602001600081526020016000815260200160008152602001600073ffffffffffffffffffffffffffffffffffffffff168152602001600081525090565b60008054819060609073ffffffffffffffffffffffffffffffffffffffff163314610c9a576040517f08c379a000000000000000000000000000000000000000000000000000000000815260206004820152601260248201527f307833613a20554e415554484f52495a4544000000000000000000000000000060448201526064016104c4565b6040517f43a266c2000000000000000000000000000000000000000000000000000000008152600481018a90527f000000000000000000000000000000000000000000000000000000000000000073ffffffffffffffffffffffffffffffffffffffff16906343a266c2906024016101206040518083038186803b158015610d2157600080fd5b505afa158015610d35573d6000803e3d6000fd5b505050506040513d601f19601f82011682018060405250810190610d599190613cda565b8051909450610dc4576040517f08c379a000000000000000000000000000000000000000000000000000000000815260206004820152600f60248201527f307833613a204e4f545f464f554e44000000000000000000000000000000000060448201526064016104c4565b61010084015160381c600116610e36576040517f08c379a000000000000000000000000000000000000000000000000000000000815260206004820152600c60248201527f307833623a20504155534544000000000000000000000000000000000000000060448201526064016104c4565b61010084015160009060421c600116610f855761010085015160441c73ffffffffffffffffffffffffffffffffffffffff1663b64a835b6040518060e001604052808f73ffffffffffffffffffffffffffffffffffffffff1681526020018e81526020018860a001518152602001610eba89610100015161ffff60089190911c1690565b815260200160018d901c73ffffffffffffffffffffffffffffffffffffffff1681526020018a8152602001898152506040518263ffffffff1660e01b8152600401610f0591906142cc565b60006040518083038186803b158015610f1d57600080fd5b505afa158015610f31573d6000803e3d6000fd5b505050506040513d6000823e601f3d9081017fffffffffffffffffffffffffffffffffffffffffffffffffffffffffffffffe0168201604052610f779190810190613d8c565b985091955092509050610f90565b8460a0015193508691505b6000610f9c8c86612abe565b90508b15610fce5760008b815260016020526040902054610fbe908d9061439e565b60008c8152600160205260409020555b80156111c0576040517f5dd8f6aa000000000000000000000000000000000000000000000000000000008152600481018c90527f000000000000000000000000000000000000000000000000000000000000000073ffffffffffffffffffffffffffffffffffffffff1690635dd8f6aa9060240160206040518083038186803b15801561105a57600080fd5b505afa15801561106e573d6000803e3d6000fd5b505050506040513d601f19601f820116820180604052508101906110929190613c7f565b73ffffffffffffffffffffffffffffffffffffffff1663369e6f348c8360018e811c908f16156110ce8c610100015161ffff60089190911c1690565b6040517fffffffff0000000000000000000000000000000000000000000000000000000060e088901b1681526004810195909552602485019390935273ffffffffffffffffffffffffffffffffffffffff909116604484015260c06064840152600c60c48401527f455448207265636569766564000000000000000000000000000000000000000060e48401521515608483015260a482015261010401602060405180830381600087803b15801561118557600080fd5b505af1158015611199573d6000803e3d6000fd5b505050506040513d601f19601f820116820180604052508101906111bd9190613d73565b93505b8884101561122a576040517f08c379a000000000000000000000000000000000000000000000000000000000815260206004820152601060248201527f307833633a20494e41444551554154450000000000000000000000000000000060448201526064016104c4565b73ffffffffffffffffffffffffffffffffffffffff82161561136f5760006040518061010001604052808f73ffffffffffffffffffffffffffffffffffffffff1681526020018d81526020018e815260200187815260200186815260200160018d901c73ffffffffffffffffffffffffffffffffffffffff1681526020018581526020018981525090508273ffffffffffffffffffffffffffffffffffffffff16639dd959ac826040518263ffffffff1660e01b81526004016112ed9190613f2e565b600060405180830381600087803b15801561130757600080fd5b505af115801561131b573d6000803e3d6000fd5b505050508273ffffffffffffffffffffffffffffffffffffffff167f15ee90cb2deade4db341563d03958a7ca23fdde537483702ed7a8697ab14599e826040516113659190613f2e565b60405180910390a2505b5050975097509750979350505050565b6113e460405180610120016040528060008152602001600081526020016000815260200160008152602001600081526020016000815260200160008152602001600073ffffffffffffffffffffffffffffffffffffffff168152602001600081525090565b6000805473ffffffffffffffffffffffffffffffffffffffff163314611466576040517f08c379a000000000000000000000000000000000000000000000000000000000815260206004820152601260248201527f307833613a20554e415554484f52495a4544000000000000000000000000000060448201526064016104c4565b6040517f43a266c2000000000000000000000000000000000000000000000000000000008152600481018790527f000000000000000000000000000000000000000000000000000000000000000073ffffffffffffffffffffffffffffffffffffffff16906343a266c2906024016101206040518083038186803b1580156114ed57600080fd5b505afa158015611501573d6000803e3d6000fd5b505050506040513d601f19601f820116820180604052508101906115259190613cda565b61010081015190925060391c60011661159a576040517f08c379a000000000000000000000000000000000000000000000000000000000815260206004820152600c60248201527f307833653a20504155534544000000000000000000000000000000000000000060448201526064016104c4565b6040517f5dd8f6aa000000000000000000000000000000000000000000000000000000008152600481018790527f000000000000000000000000000000000000000000000000000000000000000073ffffffffffffffffffffffffffffffffffffffff1690635dd8f6aa9060240160206040518083038186803b15801561162057600080fd5b505afa158015611634573d6000803e3d6000fd5b505050506040513d601f19601f820116820180604052508101906116589190613c7f565b60208301516000546040517f3732d12c000000000000000000000000000000000000000000000000000000008152600481018a9052602481019290925273ffffffffffffffffffffffffffffffffffffffff90811660448301529190911690633732d12c9060640160206040518083038186803b1580156116d857600080fd5b505afa1580156116ec573d6000803e3d6000fd5b505050506040513d601f19601f820116820180604052508101906117109190613d73565b8414611778576040517f08c379a000000000000000000000000000000000000000000000000000000000815260206004820152601960248201527f307833663a20554e45585045435445445f43555252454e43590000000000000060448201526064016104c4565b60008681526003602090815260408083208551845290915281205461179e90879061439e565b6040517f5dd8f6aa000000000000000000000000000000000000000000000000000000008152600481018990529091507f000000000000000000000000000000000000000000000000000000000000000073ffffffffffffffffffffffffffffffffffffffff1690635dd8f6aa9060240160206040518083038186803b15801561182757600080fd5b505afa15801561183b573d6000803e3d6000fd5b505050506040513d601f19601f8201168201806040525081019061185f9190613c7f565b60208401516000546040517f5578dfd7000000000000000000000000000000000000000000000000000000008152600481018b9052602481019290925273ffffffffffffffffffffffffffffffffffffffff90811660448301529190911690635578dfd79060640160206040518083038186803b1580156118df57600080fd5b505afa1580156118f3573d6000803e3d6000fd5b505050506040513d601f19601f820116820180604052508101906119179190613d73565b811115611980576040517f08c379a000000000000000000000000000000000000000000000000000000000815260206004820152601360248201527f307831623a204c494d49545f524541434845440000000000000000000000000060448201526064016104c4565b8415611a0b576040517ff48cc1010000000000000000000000000000000000000000000000000000000081526004810186905260016024820152611a0690879073ffffffffffffffffffffffffffffffffffffffff7f0000000000000000000000000000000000000000000000000000000000000000169063f48cc101906044016107ef565b611a0d565b855b600088815260016020526040902054909250821115611a88576040517f08c379a000000000000000000000000000000000000000000000000000000000815260206004820152601860248201527f307834303a20494e53554646494349454e545f46554e4453000000000000000060448201526064016104c4565b81841115611af2576040517f08c379a000000000000000000000000000000000000000000000000000000000815260206004820152601060248201527f307834313a20494e41444551554154450000000000000000000000000000000060448201526064016104c4565b60008781526003602090815260408083208651845282528083208490558983526001909152902054611b259083906143b6565b60009788526001602052604090972096909655909590945092505050565b6000805473ffffffffffffffffffffffffffffffffffffffff163314611bc5576040517f08c379a000000000000000000000000000000000000000000000000000000000815260206004820152601260248201527f307833613a20554e415554484f52495a4544000000000000000000000000000060448201526064016104c4565b6040517f43a266c2000000000000000000000000000000000000000000000000000000008152600481018390526000907f000000000000000000000000000000000000000000000000000000000000000073ffffffffffffffffffffffffffffffffffffffff16906343a266c2906024016101206040518083038186803b158015611c4f57600080fd5b505afa158015611c63573d6000803e3d6000fd5b505050506040513d601f19601f82011682018060405250810190611c879190613cda565b610100810151909150603e1c60011615611cfd576040517f08c379a000000000000000000000000000000000000000000000000000000000815260206004820152601160248201527f307834613a204e4f545f414c4c4f57454400000000000000000000000000000060448201526064016104c4565b50506000908152600160205260408120805491905590565b611d7a60405180610120016040528060008152602001600081526020016000815260200160008152602001600081526020016000815260200160008152602001600073ffffffffffffffffffffffffffffffffffffffff168152602001600081525090565b6000805460609073ffffffffffffffffffffffffffffffffffffffff163314611dff576040517f08c379a000000000000000000000000000000000000000000000000000000000815260206004820152601260248201527f307833613a20554e415554484f52495a4544000000000000000000000000000060448201526064016104c4565b6040517efdd58e00000000000000000000000000000000000000000000000000000000815273ffffffffffffffffffffffffffffffffffffffff8b81166004830152602482018b905289917f00000000000000000000000000000000000000000000000000000000000000009091169062fdd58e9060440160206040518083038186803b158015611e8f57600080fd5b505afa158015611ea3573d6000803e3d6000fd5b505050506040513d601f19601f82011682018060405250810190611ec79190613d73565b1015611f2f576040517f08c379a000000000000000000000000000000000000000000000000000000000815260206004820152601960248201527f307834363a20494e53554646494349454e545f544f4b454e530000000000000060448201526064016104c4565b6040517f43a266c2000000000000000000000000000000000000000000000000000000008152600481018a90527f000000000000000000000000000000000000000000000000000000000000000073ffffffffffffffffffffffffffffffffffffffff16906343a266c2906024016101206040518083038186803b158015611fb657600080fd5b505afa158015611fca573d6000803e3d6000fd5b505050506040513d601f19601f82011682018060405250810190611fee9190613cda565b610100810151909350603a1c600116612063576040517f08c379a000000000000000000000000000000000000000000000000000000000815260206004820152600c60248201527f307834373a20504155534544000000000000000000000000000000000000000060448201526064016104c4565b61010083015160009060431c6001166121a55761010084015160441c73ffffffffffffffffffffffffffffffffffffffff166331168a2b6040518060e001604052808e73ffffffffffffffffffffffffffffffffffffffff1681526020018c81526020016120d088612aca565b81526020016120de88612ae7565b81526020018a73ffffffffffffffffffffffffffffffffffffffff168152602001898152602001888152506040518263ffffffff1660e01b815260040161212591906142cc565b60006040518083038186803b15801561213d57600080fd5b505afa158015612151573d6000803e3d6000fd5b505050506040513d6000823e601f3d9081017fffffffffffffffffffffffffffffffffffffffffffffffffffffffffffffffe01682016040526121979190810190613d8c565b9750919450925090506121b6565b6121b08a858b612b04565b92508591505b60008a81526001602052604090205483111561222e576040517f08c379a000000000000000000000000000000000000000000000000000000000815260206004820152601860248201527f307834383a20494e53554646494349454e545f46554e4453000000000000000060448201526064016104c4565b87831015612298576040517f08c379a000000000000000000000000000000000000000000000000000000000815260206004820152601060248201527f307834393a20494e41444551554154450000000000000000000000000000000060448201526064016104c4565b8815612429576040517f5dd8f6aa000000000000000000000000000000000000000000000000000000008152600481018b90527f000000000000000000000000000000000000000000000000000000000000000073ffffffffffffffffffffffffffffffffffffffff1690635dd8f6aa9060240160206040518083038186803b15801561232457600080fd5b505afa158015612338573d6000803e3d6000fd5b505050506040513d601f19601f8201168201806040525081019061235c9190613c7f565b6040517f1665bc0f00000000000000000000000000000000000000000000000000000000815273ffffffffffffffffffffffffffffffffffffffff8d81166004830152602482018d9052604482018c905260a06064830152600e60a48301527f52656465656d20666f722045544800000000000000000000000000000000000060c4830152600160848301529190911690631665bc0f9060e401600060405180830381600087803b15801561241057600080fd5b505af1158015612424573d6000803e3d6000fd5b505050505b82156124595760008a8152600160205260409020546124499084906143b6565b60008b8152600160205260409020555b73ffffffffffffffffffffffffffffffffffffffff8116156125935760006040518060e001604052808d73ffffffffffffffffffffffffffffffffffffffff1681526020018c81526020018b81526020018581526020018973ffffffffffffffffffffffffffffffffffffffff1681526020018481526020018781525090508173ffffffffffffffffffffffffffffffffffffffff16631f1dfa32826040518263ffffffff1660e01b81526004016125119190613ff7565b600060405180830381600087803b15801561252b57600080fd5b505af115801561253f573d6000803e3d6000fd5b505050508173ffffffffffffffffffffffffffffffffffffffff167ff11663550d7ff25b1a5d208bdd025d7b1001a24cfcd134ccad18fabe158cdcee826040516125899190613ff7565b60405180910390a2505b509750975097945050505050565b6040517f43a266c200000000000000000000000000000000000000000000000000000000815260048101829052600090819073ffffffffffffffffffffffffffffffffffffffff7f000000000000000000000000000000000000000000000000000000000000000016906343a266c2906024016101206040518083038186803b15801561262d57600080fd5b505afa158015612641573d6000803e3d6000fd5b505050506040513d601f19601f820116820180604052508101906126659190613cda565b90506126718382612f10565b9392505050565b60005473ffffffffffffffffffffffffffffffffffffffff16156126f8576040517f08c379a000000000000000000000000000000000000000000000000000000000815260206004820152601560248201527f307834623a20414c52454144595f434c41494d4544000000000000000000000060448201526064016104c4565b600080547fffffffffffffffffffffffff00000000000000000000000000000000000000001673ffffffffffffffffffffffffffffffffffffffff92909216919091179055565b6040517f43a266c200000000000000000000000000000000000000000000000000000000815260048101829052600090819073ffffffffffffffffffffffffffffffffffffffff7f000000000000000000000000000000000000000000000000000000000000000016906343a266c2906024016101206040518083038186803b1580156127cb57600080fd5b505afa1580156127df573d6000803e3d6000fd5b505050506040513d601f19601f820116820180604052508101906128039190613cda565b905061267183826133fd565b61287460405180610120016040528060008152602001600081526020016000815260200160008152602001600081526020016000815260200160008152602001600073ffffffffffffffffffffffffffffffffffffffff168152602001600081525090565b60005473ffffffffffffffffffffffffffffffffffffffff1633146128f5576040517f08c379a000000000000000000000000000000000000000000000000000000000815260206004820152601260248201527f307833613a20554e415554484f52495a4544000000000000000000000000000060448201526064016104c4565b6040517f43a266c2000000000000000000000000000000000000000000000000000000008152600481018490527f000000000000000000000000000000000000000000000000000000000000000073ffffffffffffffffffffffffffffffffffffffff16906343a266c2906024016101206040518083038186803b15801561297c57600080fd5b505afa158015612990573d6000803e3d6000fd5b505050506040513d601f19601f820116820180604052508101906129b49190613cda565b6000848152600160205260409020549091506129d190839061439e565b600093845260016020526040909320929092555090565b6000612aa0837f000000000000000000000000000000000000000000000000000000000000000073ffffffffffffffffffffffffffffffffffffffff166343a266c2866040518263ffffffff1660e01b8152600401612a4991815260200190565b6101206040518083038186803b158015612a6257600080fd5b505afa158015612a76573d6000803e3d6000fd5b505050506040513d601f19601f82011682018060405250810190612a9a9190613cda565b84612b04565b90505b92915050565b6000612aa083670de0b6b3a7640000846137f6565b6000612aa083836138fb565b60006018826101000151901c61ffff16612710612aa391906143b6565b60006028826101000151901c61ffff16612710612aa391906143b6565b610100820151600090819060411c60011615612b2957612b248585612f10565b612b33565b612b3385856133fd565b905080612b44576000915050612671565b6040517f75b0d9cd000000000000000000000000000000000000000000000000000000008152600481018690526000907f000000000000000000000000000000000000000000000000000000000000000073ffffffffffffffffffffffffffffffffffffffff16906375b0d9cd9060240160206040518083038186803b158015612bcd57600080fd5b505afa158015612be1573d6000803e3d6000fd5b505050506040513d601f19601f82011682018060405250810190612c059190613d73565b6040517f5dd8f6aa0000000000000000000000000000000000000000000000000000000081526004810188905290915060009073ffffffffffffffffffffffffffffffffffffffff7f00000000000000000000000000000000000000000000000000000000000000001690635dd8f6aa9060240160206040518083038186803b158015612c9157600080fd5b505afa158015612ca5573d6000803e3d6000fd5b505050506040513d601f19601f82011682018060405250810190612cc99190613c7f565b73ffffffffffffffffffffffffffffffffffffffff1663f033b3b488612cfb89610100015161ffff60089190911c1690565b6040517fffffffff0000000000000000000000000000000000000000000000000000000060e085901b1681526004810192909252602482015260440160206040518083038186803b158015612d4f57600080fd5b505afa158015612d63573d6000803e3d6000fd5b505050506040513d601f19601f82011682018060405250810190612d879190613d73565b90508015612d9c57612d99818361439e565b91505b81851415612daf57829350505050612671565b600060016040517fc55f571c000000000000000000000000000000000000000000000000000000008152600481018a90527f000000000000000000000000000000000000000000000000000000000000000073ffffffffffffffffffffffffffffffffffffffff169063c55f571c9060240160206040518083038186803b158015612e3957600080fd5b505afa158015612e4d573d6000803e3d6000fd5b505050506040513d601f19601f82011682018060405250810190612e719190613cb9565b6003811115612e8257612e82614494565b14612e9557612e9087612aca565b612e9e565b612e9e87612ae7565b905080612eb2576000945050505050612671565b6000612ebf8588866137f6565b9050816127101415612ed75794506126719350505050565b612f0381612ef189612eeb866127106143b6565b886137f6565b612efb908561439e565b6127106137f6565b9998505050505050505050565b6040517fd175415300000000000000000000000000000000000000000000000000000000815260048101839052600090819073ffffffffffffffffffffffffffffffffffffffff7f0000000000000000000000000000000000000000000000000000000000000000169063d17541539060240160006040518083038186803b158015612f9b57600080fd5b505afa158015612faf573d6000803e3d6000fd5b505050506040513d6000823e601f3d9081017fffffffffffffffffffffffffffffffffffffffffffffffffffffffffffffffe0168201604052612ff59190810190613bc6565b905060008060005b83518110156133d957838181518110613018576130186144c3565b602002602001015173ffffffffffffffffffffffffffffffffffffffff16635de60314886040518263ffffffff1660e01b815260040161305a91815260200190565b60206040518083038186803b15801561307257600080fd5b505afa158015613086573d6000803e3d6000fd5b505050506040513d601f19601f820116820180604052508101906130aa9190613d73565b6130b4908461439e565b925060008482815181106130ca576130ca6144c3565b6020908102919091018101519088015188516040517fc99d3e83000000000000000000000000000000000000000000000000000000008152600481018c90526024810192909252604482015273ffffffffffffffffffffffffffffffffffffffff9091169063c99d3e839060640160206040518083038186803b15801561315057600080fd5b505afa158015613164573d6000803e3d6000fd5b505050506040513d601f19601f820116820180604052508101906131889190613d73565b6040517f5dd8f6aa000000000000000000000000000000000000000000000000000000008152600481018a905290915060009073ffffffffffffffffffffffffffffffffffffffff7f00000000000000000000000000000000000000000000000000000000000000001690635dd8f6aa9060240160206040518083038186803b15801561321457600080fd5b505afa158015613228573d6000803e3d6000fd5b505050506040513d601f19601f8201168201806040525081019061324c9190613c7f565b73ffffffffffffffffffffffffffffffffffffffff16633732d12c8a8a6020015189878151811061327f5761327f6144c3565b60200260200101516040518463ffffffff1660e01b81526004016132cc93929190928352602083019190915273ffffffffffffffffffffffffffffffffffffffff16604082015260600190565b60206040518083038186803b1580156132e457600080fd5b505afa1580156132f8573d6000803e3d6000fd5b505050506040513d601f19601f8201168201806040525081019061331c9190613d73565b905081156133b55780156133af576040517ff48cc10100000000000000000000000000000000000000000000000000000000815260048101829052600160248201526133aa90839073ffffffffffffffffffffffffffffffffffffffff7f0000000000000000000000000000000000000000000000000000000000000000169063f48cc101906044016107ef565b6133b8565b816133b8565b60005b6133c2908561439e565b9350505080806133d1906143fd565b915050612ffd565b508082106133f0576133eb81836143b6565b6133f3565b60005b9695505050505050565b6000828152600160205260408120548061341b576000915050612aa3565b6000848152600360209081526040808320865184529091528082205490517f5dd8f6aa000000000000000000000000000000000000000000000000000000008152600481018790527f000000000000000000000000000000000000000000000000000000000000000073ffffffffffffffffffffffffffffffffffffffff1690635dd8f6aa9060240160206040518083038186803b1580156134bc57600080fd5b505afa1580156134d0573d6000803e3d6000fd5b505050506040513d601f19601f820116820180604052508101906134f49190613c7f565b60208601516000546040517f5578dfd7000000000000000000000000000000000000000000000000000000008152600481018a9052602481019290925273ffffffffffffffffffffffffffffffffffffffff90811660448301529190911690635578dfd79060640160206040518083038186803b15801561357457600080fd5b505afa158015613588573d6000803e3d6000fd5b505050506040513d601f19601f820116820180604052508101906135ac9190613d73565b6135b691906143b6565b6040517f5dd8f6aa0000000000000000000000000000000000000000000000000000000081526004810187905290915060009073ffffffffffffffffffffffffffffffffffffffff7f00000000000000000000000000000000000000000000000000000000000000001690635dd8f6aa9060240160206040518083038186803b15801561364257600080fd5b505afa158015613656573d6000803e3d6000fd5b505050506040513d601f19601f8201168201806040525081019061367a9190613c7f565b60208601516000546040517f3732d12c000000000000000000000000000000000000000000000000000000008152600481018a9052602481019290925273ffffffffffffffffffffffffffffffffffffffff90811660448301529190911690633732d12c9060640160206040518083038186803b1580156136fa57600080fd5b505afa15801561370e573d6000803e3d6000fd5b505050506040513d601f19601f820116820180604052508101906137329190613d73565b9050600082156137cd5781156137c7576040517ff48cc10100000000000000000000000000000000000000000000000000000000815260048101839052600160248201526137c290849073ffffffffffffffffffffffffffffffffffffffff7f0000000000000000000000000000000000000000000000000000000000000000169063f48cc101906044016107ef565b6137d0565b826137d0565b60005b90508084106137e8576137e381856143b6565b6137eb565b60005b979650505050505050565b600080807fffffffffffffffffffffffffffffffffffffffffffffffffffffffffffffffff858709858702925082811083820303915050806000141561384f5783828161384557613845614465565b0492505050612671565b838110613892576040517f773cc18c00000000000000000000000000000000000000000000000000000000815260048101829052602481018590526044016104c4565b60008486880960026001871981018816978890046003810283188082028403028082028403028082028403028082028403028082028403029081029092039091026000889003889004909101858311909403939093029303949094049190911702949350505050565b600080807fffffffffffffffffffffffffffffffffffffffffffffffffffffffffffffffff848609848602925082811083820303915050670de0b6b3a76400008110613976576040517fd31b3402000000000000000000000000000000000000000000000000000000008152600481018290526024016104c4565b600080670de0b6b3a76400008688099150506706f05b59d3b1ffff8111826139b05780670de0b6b3a7640000850401945050505050612aa3565b6204000082850304939091119091037d40000000000000000000000000000000000000000000000000000000000002919091177faccb18165bd6fe31ae1cf318dc5b51eee0e1ba569b88cd74c1773b91fac106690201905092915050565b600082601f830112613a1f57600080fd5b8135613a32613a2d82614358565b614309565b818152846020838601011115613a4757600080fd5b816020850160208301376000918101602001919091529392505050565b600082601f830112613a7557600080fd5b8151613a83613a2d82614358565b818152846020838601011115613a9857600080fd5b613aa98260208301602087016143cd565b949350505050565b8051613abc81614521565b919050565b600080600080600080600060e0888a031215613adc57600080fd5b8735613ae781614521565b96506020880135955060408801359450606088013593506080880135613b0c81614521565b925060a088013567ffffffffffffffff80821115613b2957600080fd5b613b358b838c01613a0e565b935060c08a0135915080821115613b4b57600080fd5b50613b588a828b01613a0e565b91505092959891949750929550565b600080600080600080600060e0888a031215613b8257600080fd5b8735613b8d81614521565b96506020880135955060408801359450606088013593506080880135925060a088013567ffffffffffffffff80821115613b2957600080fd5b60006020808385031215613bd957600080fd5b825167ffffffffffffffff80821115613bf157600080fd5b818501915085601f830112613c0557600080fd5b815181811115613c1757613c176144f2565b8060051b9150613c28848301614309565b8181528481019084860184860187018a1015613c4357600080fd5b600095505b83861015613c725780519450613c5d85614521565b84835260019590950194918601918601613c48565b5098975050505050505050565b600060208284031215613c9157600080fd5b815161267181614521565b600060208284031215613cae57600080fd5b813561267181614521565b600060208284031215613ccb57600080fd5b81516004811061267157600080fd5b60006101208284031215613ced57600080fd5b613cf56142df565b825181526020830151602082015260408301516040820152606083015160608201526080830151608082015260a083015160a082015260c083015160c0820152613d4160e08401613ab1565b60e0820152610100928301519281019290925250919050565b600060208284031215613d6c57600080fd5b5035919050565b600060208284031215613d8557600080fd5b5051919050565b60008060008060808587031215613da257600080fd5b84519350602085015167ffffffffffffffff80821115613dc157600080fd5b613dcd88838901613a64565b945060408701519150613ddf82614521565b606087015191935080821115613df457600080fd5b50613e0187828801613a64565b91505092959194509250565b60008060408385031215613e2057600080fd5b50508035926020909101359150565b60008060008060808587031215613e4557600080fd5b5050823594602084013594506040840135936060013592509050565b60008151808452613e798160208601602086016143cd565b601f017fffffffffffffffffffffffffffffffffffffffffffffffffffffffffffffffe0169290920160200192915050565b600073ffffffffffffffffffffffffffffffffffffffff8083511684526020830151602085015260408301516040850152606083015160608501528060808401511660808501525060a082015160e060a0850152613f0c60e0850182613e61565b905060c083015184820360c0860152613f258282613e61565b95945050505050565b6020815273ffffffffffffffffffffffffffffffffffffffff8251166020820152602082015160408201526040820151606082015260608201516080820152608082015160a0820152600060a0830151613fa060c084018273ffffffffffffffffffffffffffffffffffffffff169052565b5060c08301516101008060e0850152613fbd610120850183613e61565b915060e08501517fffffffffffffffffffffffffffffffffffffffffffffffffffffffffffffffe085840301828601526133f38382613e61565b60208152600073ffffffffffffffffffffffffffffffffffffffff8084511660208401526020840151604084015260408401516060840152606084015160808401528060808501511660a08401525060a083015160e060c0840152614060610100840182613e61565b905060c08401517fffffffffffffffffffffffffffffffffffffffffffffffffffffffffffffffe08483030160e0850152613f258282613e61565b6101208101612aa38284805182526020810151602083015260408101516040830152606081015160608301526080810151608083015260a081015160a083015260c081015160c083015273ffffffffffffffffffffffffffffffffffffffff60e08201511660e08301526101008082015181840152505050565b610140810161418f8285805182526020810151602083015260408101516040830152606081015160608301526080810151608083015260a081015160a083015260c081015160c083015273ffffffffffffffffffffffffffffffffffffffff60e08201511660e08301526101008082015181840152505050565b826101208301529392505050565b60006101606142178387805182526020810151602083015260408101516040830152606081015160608301526080810151608083015260a081015160a083015260c081015160c083015273ffffffffffffffffffffffffffffffffffffffff60e08201511660e08301526101008082015181840152505050565b84610120840152806101408401526133f381840185613e61565b60006101806142ab8388805182526020810151602083015260408101516040830152606081015160608301526080810151608083015260a081015160a083015260c081015160c083015273ffffffffffffffffffffffffffffffffffffffff60e08201511660e08301526101008082015181840152505050565b8561012084015284610140840152806101608401526137eb81840185613e61565b602081526000612aa06020830184613eab565b604051610120810167ffffffffffffffff81118282101715614303576143036144f2565b60405290565b604051601f82017fffffffffffffffffffffffffffffffffffffffffffffffffffffffffffffffe016810167ffffffffffffffff81118282101715614350576143506144f2565b604052919050565b600067ffffffffffffffff821115614372576143726144f2565b50601f017fffffffffffffffffffffffffffffffffffffffffffffffffffffffffffffffe01660200190565b600082198211156143b1576143b1614436565b500190565b6000828210156143c8576143c8614436565b500390565b60005b838110156143e85781810151838201526020016143d0565b838111156143f7576000848401525b50505050565b60007fffffffffffffffffffffffffffffffffffffffffffffffffffffffffffffffff82141561442f5761442f614436565b5060010190565b7f4e487b7100000000000000000000000000000000000000000000000000000000600052601160045260246000fd5b7f4e487b7100000000000000000000000000000000000000000000000000000000600052601260045260246000fd5b7f4e487b7100000000000000000000000000000000000000000000000000000000600052602160045260246000fd5b7f4e487b7100000000000000000000000000000000000000000000000000000000600052603260045260246000fd5b7f4e487b7100000000000000000000000000000000000000000000000000000000600052604160045260246000fd5b73ffffffffffffffffffffffffffffffffffffffff8116811461454357600080fd5b5056fea26469706673582212206682fa4c89d0b50566396db2ff8959b6ebdf401dc63c65e0c7f17a56b72ff1a864736f6c63430008060033",
  "devdoc": {
    "details": " A project can transfer its funds, along with the power to reconfigure and mint/burn their tokens, from this contract to another allowed terminal contract at any time. Inherits from: IJBPaymentTerminal - general interface for the methods in this contract that send and receive funds according to the Juicebox protocol's rules. JBOperatable - several functions in this contract can only be accessed by a project owner, or an address that has been preconfifigured to be an operator of the project. ReentrencyGuard - several function in this contract shouldn't be accessible recursively.",
    "kind": "dev",
    "methods": {
      "claimableOverflowOf(uint256,uint256)": {
        "details": "If the project has an active funding cycle reconfiguration ballot, the project's ballot redemption rate is used.",
        "params": {
          "_projectId": "The ID of the project to get a claimable amount for.",
          "_tokenCount": "The number of tokens to make the calculation with. "
        },
        "returns": {
          "_0": "The amount of overflowed ETH that can be claimed."
        }
      },
      "constructor": {
        "params": {
          "_directory": "A contract storing directories of terminals and controllers for each project.",
          "_fundingCycleStore": "A contract storing all funding cycle configurations.",
          "_prices": "A contract that exposes price feeds.",
          "_projects": "A contract which mints ERC-721's that represent project ownership and transfers.",
          "_tokenStore": "A contract that manages token minting and burning."
        }
      },
      "currentOverflowOf(uint256)": {
        "params": {
          "_projectId": "The ID of the project to get overflow for."
        },
        "returns": {
          "_0": "The current amount of overflow that project has in this terminal."
        }
      },
      "currentTotalOverflowOf(uint256)": {
        "params": {
          "_projectId": "The ID of the project to get total overflow for."
        },
        "returns": {
          "_0": "The current total amount of overflow that project has across all terminals."
        }
      },
      "recordAddedBalanceFor(uint256,uint256)": {
        "details": "Only the associated payment terminal can record an added balance.",
        "params": {
          "_amount": "The amount added, in wei.",
          "_projectId": "The ID of the project to which the funds being added belong."
        },
        "returns": {
          "fundingCycle": "The current funding cycle for the project."
        }
      },
      "recordDistributionFor(uint256,uint256,uint256,uint256)": {
        "details": "Only the associated payment terminal can record a distribution.",
        "params": {
          "_amount": "The amount being distributed. Send as wei (18 decimals).",
          "_currency": "The expected currency of the `_amount` being tapped. This must match the project's current funding cycle's currency.",
          "_minReturnedWei": "The minimum number of wei that should be distributed.",
          "_projectId": "The ID of the project that is having funds distributed."
        },
        "returns": {
          "distributedAmount": "The amount distribution.",
          "fundingCycle": "The funding cycle during which the withdrawal was made."
        }
      },
      "recordMigration(uint256)": {
        "params": {
          "_projectId": "The ID of the project being migrated."
        },
        "returns": {
          "balance": "The project's current balance."
        }
      },
      "recordPaymentFrom(address,uint256,uint256,uint256,uint256,string,bytes)": {
        "details": "Mint's the project's tokens according to values provided by a configured data source. If no data source is configured, mints tokens proportional to the amount of the contribution. Only the associated payment terminal can record a payment.",
        "params": {
          "_amount": "The amount that is being paid.",
          "_delegateMetadata": "Bytes to send along to the delegate, if one is used.",
          "_memo": "A memo that will be included in the published event.",
          "_minReturnedTokens": "The minimum number of tokens expected to be minted in return.",
          "_payer": "The original address that sent the payment to the terminal.",
          "_preferClaimedTokensAndBeneficiary": "Two properties are included in this packed uint256: The first bit contains the flag indicating whether the request prefers to issue tokens claimed as ERC-20s. The remaining bits contains the address that should receive benefits from the payment. This design is necessary two prevent a \"Stack too deep\" compiler error that comes up if the variables are declared seperately.",
          "_projectId": "The ID of the project being paid."
        },
        "returns": {
          "fundingCycle": "The project's funding cycle during which payment was made.",
          "memo": "A memo that should be passed along to the emitted event.",
          "tokenCount": "The number of tokens that were minted.",
          "weight": "The weight according to which new token supply was minted."
        }
      },
      "recordRedemptionFor(address,uint256,uint256,uint256,address,string,bytes)": {
        "details": " Only the associated payment terminal can record a redemption.",
        "params": {
          "_beneficiary": "The address that will benefit from the claimed amount.",
          "_delegateMetadata": "Bytes to send along to the delegate, if one is used.",
          "_holder": "The account that is having its tokens redeemed.",
          "_memo": "A memo to pass along to the emitted event.",
          "_minReturnedWei": "The minimum amount of wei expected in return.",
          "_projectId": "The ID of the project to which the tokens being redeemed belong.",
          "_tokenCount": "The number of tokens to redeemed."
        },
        "returns": {
          "claimAmount": "The amount of wei claimed.",
          "fundingCycle": "The funding cycle during which the redemption was made.",
          "memo": "A memo that should be passed along to the emitted event."
        }
      },
      "recordUsedAllowanceOf(uint256,uint256,uint256,uint256)": {
        "params": {
          "_amount": "The amount of the allowance to use.",
          "_currency": "The currency of the `_amount` value. Must match the funding cycle's currency.",
          "_minReturnedWei": "The amount of wei that is expected to be withdrawn.",
          "_projectId": "The ID of the project to use the allowance of."
        },
        "returns": {
          "fundingCycle": "The funding cycle during which the withdrawal is being made.",
          "withdrawnAmount": "The amount withdrawn."
        }
      }
    },
    "stateVariables": {
      "usedDistributionLimitOf": {
        "details": " Increases as projects use their distribution limit. _projectId The ID of the project to get the used distribution limit of. _configuration The configuration of the during which the disitrution limit applies."
      },
      "usedOverflowAllowanceOf": {
        "details": " Increases as projects use their allowance. _projectId The ID of the project to get the used overflow allowance of. _configuration The configuration of the during which the allowance applies."
      }
    },
    "version": 1
  },
  "userdoc": {
    "errors": {
      "PRBMath__MulDivFixedPointOverflow(uint256)": [
        {
          "notice": "Emitted when the result overflows uint256."
        }
      ],
      "PRBMath__MulDivOverflow(uint256,uint256)": [
        {
          "notice": "Emitted when the result overflows uint256."
        }
      ]
    },
    "kind": "user",
    "methods": {
      "balanceOf(uint256)": {
        "notice": " The amount of ETH that each project has. _projectId The ID of the project to get the balance of."
      },
      "claimFor(address)": {
        "notice": "Allows this store to be claimed by an address so that it recognized the address as its terminal."
      },
      "claimableOverflowOf(uint256,uint256)": {
        "notice": "The amount of overflowed ETH that can be claimed by the specified number of tokens."
      },
      "currentOverflowOf(uint256)": {
        "notice": "Gets the current overflowed amount in this terminal for a specified project."
      },
      "currentTotalOverflowOf(uint256)": {
        "notice": "Gets the current overflowed amount for a specified project across all terminals."
      },
      "directory()": {
        "notice": "The directory of terminals and controllers for projects."
      },
      "fundingCycleStore()": {
        "notice": " The contract storing all funding cycle configurations."
      },
      "prices()": {
        "notice": " The contract that exposes price feeds."
      },
      "projects()": {
        "notice": "The Projects contract which mints ERC-721's that represent project ownership and transfers."
      },
      "recordAddedBalanceFor(uint256,uint256)": {
        "notice": "Records newly added funds for the project."
      },
      "recordDistributionFor(uint256,uint256,uint256,uint256)": {
        "notice": "Records newly distributed funds for a project."
      },
      "recordMigration(uint256)": {
        "notice": "Records the migration of this terminal to another."
      },
      "recordPaymentFrom(address,uint256,uint256,uint256,uint256,string,bytes)": {
        "notice": "Records newly contributed ETH to a project."
      },
      "recordRedemptionFor(address,uint256,uint256,uint256,address,string,bytes)": {
        "notice": "Records newly redeemed tokens of a project."
      },
      "recordUsedAllowanceOf(uint256,uint256,uint256,uint256)": {
        "notice": " Records newly used allowance funds of a project."
      },
      "terminal()": {
        "notice": "The associated payment terminal for which this contract stores data."
      },
      "tokenStore()": {
        "notice": " The contract that manages token minting and burning."
      },
      "usedDistributionLimitOf(uint256,uint256)": {
        "notice": " The amount that a project has distributed from its limit during the current funding cycle. "
      },
      "usedOverflowAllowanceOf(uint256,uint256)": {
        "notice": " The amount of overflow that a project has used from its allowance during the current funding cycle configuration. "
      }
    },
    "notice": "This contract manages all inflows and outflows of funds into the Juicebox ecosystem.",
    "version": 1
  },
  "storageLayout": {
    "storage": [
      {
        "astId": 18776,
        "contract": "contracts/v2/JBETHPaymentTerminalStore.sol:JBETHPaymentTerminalStore",
        "label": "terminal",
        "offset": 0,
        "slot": "0",
        "type": "t_contract(IJBTerminal)25094"
      },
      {
        "astId": 18781,
        "contract": "contracts/v2/JBETHPaymentTerminalStore.sol:JBETHPaymentTerminalStore",
        "label": "balanceOf",
        "offset": 0,
        "slot": "1",
        "type": "t_mapping(t_uint256,t_uint256)"
      },
      {
        "astId": 18788,
        "contract": "contracts/v2/JBETHPaymentTerminalStore.sol:JBETHPaymentTerminalStore",
        "label": "usedOverflowAllowanceOf",
        "offset": 0,
        "slot": "2",
        "type": "t_mapping(t_uint256,t_mapping(t_uint256,t_uint256))"
      },
      {
        "astId": 18795,
        "contract": "contracts/v2/JBETHPaymentTerminalStore.sol:JBETHPaymentTerminalStore",
        "label": "usedDistributionLimitOf",
        "offset": 0,
        "slot": "3",
        "type": "t_mapping(t_uint256,t_mapping(t_uint256,t_uint256))"
      }
    ],
    "types": {
      "t_contract(IJBTerminal)25094": {
        "encoding": "inplace",
        "label": "contract IJBTerminal",
        "numberOfBytes": "20"
      },
      "t_mapping(t_uint256,t_mapping(t_uint256,t_uint256))": {
        "encoding": "mapping",
        "key": "t_uint256",
        "label": "mapping(uint256 => mapping(uint256 => uint256))",
        "numberOfBytes": "32",
        "value": "t_mapping(t_uint256,t_uint256)"
      },
      "t_mapping(t_uint256,t_uint256)": {
        "encoding": "mapping",
        "key": "t_uint256",
        "label": "mapping(uint256 => uint256)",
        "numberOfBytes": "32",
        "value": "t_uint256"
      },
      "t_uint256": {
        "encoding": "inplace",
        "label": "uint256",
        "numberOfBytes": "32"
      }
    }
  }
}