{
  "address": "0x9d1Bc828b3FBb9ccA113222Fc9ce4bCb4B819A20",
  "abi": [
    {
      "inputs": [
        {
          "internalType": "contract IJBOperatorStore",
          "name": "_operatorStore",
          "type": "address"
        },
        {
          "internalType": "contract IJBProjects",
          "name": "_projects",
          "type": "address"
        },
        {
          "internalType": "contract IJBDirectory",
          "name": "_directory",
          "type": "address"
        },
        {
          "internalType": "contract IJBSplitsStore",
          "name": "_splitsStore",
          "type": "address"
        },
        {
          "internalType": "contract JBETHPaymentTerminalStore",
          "name": "_store",
          "type": "address"
        }
      ],
      "stateMutability": "nonpayable",
      "type": "constructor"
    },
    {
      "inputs": [
        {
          "internalType": "uint256",
          "name": "prod1",
          "type": "uint256"
        },
        {
          "internalType": "uint256",
          "name": "denominator",
          "type": "uint256"
        }
      ],
      "name": "PRBMath__MulDivOverflow",
      "type": "error"
    },
    {
      "anonymous": false,
      "inputs": [
        {
          "indexed": true,
          "internalType": "uint256",
          "name": "projectId",
          "type": "uint256"
        },
        {
          "indexed": false,
          "internalType": "uint256",
          "name": "amount",
          "type": "uint256"
        },
        {
          "indexed": false,
          "internalType": "string",
          "name": "memo",
          "type": "string"
        },
        {
          "indexed": false,
          "internalType": "address",
          "name": "caller",
          "type": "address"
        }
      ],
      "name": "AddToBalance",
      "type": "event"
    },
    {
      "anonymous": false,
      "inputs": [
        {
          "indexed": true,
          "internalType": "uint256",
          "name": "fundingCycleId",
          "type": "uint256"
        },
        {
          "indexed": true,
          "internalType": "uint256",
          "name": "projectId",
          "type": "uint256"
        },
        {
          "indexed": false,
          "internalType": "address",
          "name": "projectOwner",
          "type": "address"
        },
        {
          "indexed": false,
          "internalType": "uint256",
          "name": "amount",
          "type": "uint256"
        },
        {
          "indexed": false,
          "internalType": "uint256",
          "name": "withdrawnAmount",
          "type": "uint256"
        },
        {
          "indexed": false,
          "internalType": "uint256",
          "name": "feeAmount",
          "type": "uint256"
        },
        {
          "indexed": false,
          "internalType": "uint256",
          "name": "projectOwnerDistributionAmount",
          "type": "uint256"
        },
        {
          "indexed": false,
          "internalType": "string",
          "name": "memo",
          "type": "string"
        },
        {
          "indexed": false,
          "internalType": "address",
          "name": "caller",
          "type": "address"
        }
      ],
      "name": "DistributePayouts",
      "type": "event"
    },
    {
      "anonymous": false,
      "inputs": [
        {
          "indexed": true,
          "internalType": "uint256",
          "name": "fundingCycleId",
          "type": "uint256"
        },
        {
          "indexed": true,
          "internalType": "uint256",
          "name": "projectId",
          "type": "uint256"
        },
        {
          "components": [
            {
              "internalType": "bool",
              "name": "preferClaimed",
              "type": "bool"
            },
            {
              "internalType": "uint24",
              "name": "percent",
              "type": "uint24"
            },
            {
              "internalType": "uint48",
              "name": "lockedUntil",
              "type": "uint48"
            },
            {
              "internalType": "address payable",
              "name": "beneficiary",
              "type": "address"
            },
            {
              "internalType": "contract IJBSplitAllocator",
              "name": "allocator",
              "type": "address"
            },
            {
              "internalType": "uint56",
              "name": "projectId",
              "type": "uint56"
            }
          ],
          "indexed": false,
          "internalType": "struct JBSplit",
          "name": "split",
          "type": "tuple"
        },
        {
          "indexed": false,
          "internalType": "uint256",
          "name": "amount",
          "type": "uint256"
        },
        {
          "indexed": false,
          "internalType": "address",
          "name": "caller",
          "type": "address"
        }
      ],
      "name": "DistributeToPayoutSplit",
      "type": "event"
    },
    {
      "anonymous": false,
      "inputs": [
        {
          "indexed": true,
          "internalType": "uint256",
          "name": "projectId",
          "type": "uint256"
        },
        {
          "indexed": true,
          "internalType": "contract IJBTerminal",
          "name": "to",
          "type": "address"
        },
        {
          "indexed": false,
          "internalType": "uint256",
          "name": "amount",
          "type": "uint256"
        },
        {
          "indexed": false,
          "internalType": "address",
          "name": "caller",
          "type": "address"
        }
      ],
      "name": "Migrate",
      "type": "event"
    },
    {
      "anonymous": false,
      "inputs": [
        {
          "indexed": true,
          "internalType": "address",
          "name": "previousOwner",
          "type": "address"
        },
        {
          "indexed": true,
          "internalType": "address",
          "name": "newOwner",
          "type": "address"
        }
      ],
      "name": "OwnershipTransferred",
      "type": "event"
    },
    {
      "anonymous": false,
      "inputs": [
        {
          "indexed": true,
          "internalType": "uint256",
          "name": "fundingCycleId",
          "type": "uint256"
        },
        {
          "indexed": true,
          "internalType": "uint256",
          "name": "projectId",
          "type": "uint256"
        },
        {
          "indexed": true,
          "internalType": "address",
          "name": "beneficiary",
          "type": "address"
        },
        {
          "components": [
            {
              "internalType": "uint256",
              "name": "id",
              "type": "uint256"
            },
            {
              "internalType": "uint256",
              "name": "projectId",
              "type": "uint256"
            },
            {
              "internalType": "uint256",
              "name": "number",
              "type": "uint256"
            },
            {
              "internalType": "uint256",
              "name": "basedOn",
              "type": "uint256"
            },
            {
              "internalType": "uint256",
              "name": "configured",
              "type": "uint256"
            },
            {
              "internalType": "uint256",
              "name": "weight",
              "type": "uint256"
            },
            {
              "internalType": "contract IJBFundingCycleBallot",
              "name": "ballot",
              "type": "address"
            },
            {
              "internalType": "uint256",
              "name": "start",
              "type": "uint256"
            },
            {
              "internalType": "uint256",
              "name": "duration",
              "type": "uint256"
            },
            {
              "internalType": "uint256",
              "name": "target",
              "type": "uint256"
            },
            {
              "internalType": "uint256",
              "name": "currency",
              "type": "uint256"
            },
            {
              "internalType": "uint256",
              "name": "fee",
              "type": "uint256"
            },
            {
              "internalType": "uint256",
              "name": "discountRate",
              "type": "uint256"
            },
            {
              "internalType": "uint256",
              "name": "tapped",
              "type": "uint256"
            },
            {
              "internalType": "uint256",
              "name": "metadata",
              "type": "uint256"
            }
          ],
          "indexed": false,
          "internalType": "struct JBFundingCycle",
          "name": "fundingCycle",
          "type": "tuple"
        },
        {
          "indexed": false,
          "internalType": "uint256",
          "name": "amount",
          "type": "uint256"
        },
        {
          "indexed": false,
          "internalType": "uint256",
          "name": "weight",
          "type": "uint256"
        },
        {
          "indexed": false,
          "internalType": "uint256",
          "name": "tokenCount",
          "type": "uint256"
        },
        {
          "indexed": false,
          "internalType": "string",
          "name": "memo",
          "type": "string"
        },
        {
          "indexed": false,
          "internalType": "address",
          "name": "caller",
          "type": "address"
        }
      ],
      "name": "Pay",
      "type": "event"
    },
    {
      "anonymous": false,
      "inputs": [
        {
          "indexed": true,
          "internalType": "uint256",
          "name": "projectId",
          "type": "uint256"
        },
        {
          "components": [
            {
              "internalType": "uint256",
              "name": "amount",
              "type": "uint256"
            },
            {
              "internalType": "address",
              "name": "beneficiary",
              "type": "address"
            },
            {
              "internalType": "string",
              "name": "memo",
              "type": "string"
            }
          ],
          "indexed": false,
          "internalType": "struct JBFee[]",
          "name": "fees",
          "type": "tuple[]"
        },
        {
          "indexed": false,
          "internalType": "address",
          "name": "caller",
          "type": "address"
        }
      ],
      "name": "ProcessFees",
      "type": "event"
    },
    {
      "anonymous": false,
      "inputs": [
        {
          "indexed": true,
          "internalType": "uint256",
          "name": "fundingCycleId",
          "type": "uint256"
        },
        {
          "indexed": true,
          "internalType": "uint256",
          "name": "projectId",
          "type": "uint256"
        },
        {
          "indexed": true,
          "internalType": "address",
          "name": "holder",
          "type": "address"
        },
        {
          "components": [
            {
              "internalType": "uint256",
              "name": "id",
              "type": "uint256"
            },
            {
              "internalType": "uint256",
              "name": "projectId",
              "type": "uint256"
            },
            {
              "internalType": "uint256",
              "name": "number",
              "type": "uint256"
            },
            {
              "internalType": "uint256",
              "name": "basedOn",
              "type": "uint256"
            },
            {
              "internalType": "uint256",
              "name": "configured",
              "type": "uint256"
            },
            {
              "internalType": "uint256",
              "name": "weight",
              "type": "uint256"
            },
            {
              "internalType": "contract IJBFundingCycleBallot",
              "name": "ballot",
              "type": "address"
            },
            {
              "internalType": "uint256",
              "name": "start",
              "type": "uint256"
            },
            {
              "internalType": "uint256",
              "name": "duration",
              "type": "uint256"
            },
            {
              "internalType": "uint256",
              "name": "target",
              "type": "uint256"
            },
            {
              "internalType": "uint256",
              "name": "currency",
              "type": "uint256"
            },
            {
              "internalType": "uint256",
              "name": "fee",
              "type": "uint256"
            },
            {
              "internalType": "uint256",
              "name": "discountRate",
              "type": "uint256"
            },
            {
              "internalType": "uint256",
              "name": "tapped",
              "type": "uint256"
            },
            {
              "internalType": "uint256",
              "name": "metadata",
              "type": "uint256"
            }
          ],
          "indexed": false,
          "internalType": "struct JBFundingCycle",
          "name": "fundingCycle",
          "type": "tuple"
        },
        {
          "indexed": false,
          "internalType": "address",
          "name": "beneficiary",
          "type": "address"
        },
        {
          "indexed": false,
          "internalType": "uint256",
          "name": "tokenCount",
          "type": "uint256"
        },
        {
          "indexed": false,
          "internalType": "uint256",
          "name": "claimedAmount",
          "type": "uint256"
        },
        {
          "indexed": false,
          "internalType": "string",
          "name": "memo",
          "type": "string"
        },
        {
          "indexed": false,
          "internalType": "address",
          "name": "caller",
          "type": "address"
        }
      ],
      "name": "RedeemTokens",
      "type": "event"
    },
    {
      "anonymous": false,
      "inputs": [
        {
          "indexed": true,
          "internalType": "uint256",
          "name": "fundingCycleId",
          "type": "uint256"
        },
        {
          "indexed": true,
          "internalType": "uint256",
          "name": "configuration",
          "type": "uint256"
        },
        {
          "indexed": true,
          "internalType": "uint256",
          "name": "projectId",
          "type": "uint256"
        },
        {
          "indexed": false,
          "internalType": "address",
          "name": "beneficiary",
          "type": "address"
        },
        {
          "indexed": false,
          "internalType": "uint256",
          "name": "amount",
          "type": "uint256"
        },
        {
          "indexed": false,
          "internalType": "uint256",
          "name": "feeAmount",
          "type": "uint256"
        },
        {
          "indexed": false,
          "internalType": "uint256",
          "name": "transferAmount",
          "type": "uint256"
        },
        {
          "indexed": false,
          "internalType": "address",
          "name": "caller",
          "type": "address"
        }
      ],
      "name": "UseAllowance",
      "type": "event"
    },
    {
      "inputs": [
        {
          "internalType": "uint256",
          "name": "_projectId",
          "type": "uint256"
        },
        {
          "internalType": "string",
          "name": "_memo",
          "type": "string"
        }
      ],
      "name": "addToBalanceOf",
      "outputs": [],
      "stateMutability": "payable",
      "type": "function"
    },
    {
      "inputs": [],
      "name": "delegate",
      "outputs": [
        {
          "internalType": "address",
          "name": "",
          "type": "address"
        }
      ],
      "stateMutability": "view",
      "type": "function"
    },
    {
      "inputs": [],
      "name": "directory",
      "outputs": [
        {
          "internalType": "contract IJBDirectory",
          "name": "",
          "type": "address"
        }
      ],
      "stateMutability": "view",
      "type": "function"
    },
    {
      "inputs": [
        {
          "internalType": "uint256",
          "name": "_projectId",
          "type": "uint256"
        },
        {
          "internalType": "uint256",
          "name": "_amount",
          "type": "uint256"
        },
        {
          "internalType": "uint256",
          "name": "_currency",
          "type": "uint256"
        },
        {
          "internalType": "uint256",
          "name": "_minReturnedWei",
          "type": "uint256"
        },
        {
          "internalType": "string",
          "name": "_memo",
          "type": "string"
        }
      ],
      "name": "distributePayoutsOf",
      "outputs": [
        {
          "internalType": "uint256",
          "name": "",
          "type": "uint256"
        }
      ],
      "stateMutability": "nonpayable",
      "type": "function"
    },
    {
      "inputs": [
        {
          "internalType": "uint256",
          "name": "_projectId",
          "type": "uint256"
        }
      ],
      "name": "ethBalanceOf",
      "outputs": [
        {
          "internalType": "uint256",
          "name": "",
          "type": "uint256"
        }
      ],
      "stateMutability": "view",
      "type": "function"
    },
    {
      "inputs": [
        {
          "internalType": "uint256",
          "name": "_projectId",
          "type": "uint256"
        }
      ],
      "name": "heldFeesOf",
      "outputs": [
        {
          "components": [
            {
              "internalType": "uint256",
              "name": "amount",
              "type": "uint256"
            },
            {
              "internalType": "address",
              "name": "beneficiary",
              "type": "address"
            },
            {
              "internalType": "string",
              "name": "memo",
              "type": "string"
            }
          ],
          "internalType": "struct JBFee[]",
          "name": "",
          "type": "tuple[]"
        }
      ],
      "stateMutability": "view",
      "type": "function"
    },
    {
      "inputs": [
        {
          "internalType": "uint256",
          "name": "_projectId",
          "type": "uint256"
        },
        {
          "internalType": "contract IJBTerminal",
          "name": "_to",
          "type": "address"
        }
      ],
      "name": "migrate",
      "outputs": [],
      "stateMutability": "nonpayable",
      "type": "function"
    },
    {
      "inputs": [],
      "name": "operatorStore",
      "outputs": [
        {
          "internalType": "contract IJBOperatorStore",
          "name": "",
          "type": "address"
        }
      ],
      "stateMutability": "view",
      "type": "function"
    },
    {
      "inputs": [],
      "name": "owner",
      "outputs": [
        {
          "internalType": "address",
          "name": "",
          "type": "address"
        }
      ],
      "stateMutability": "view",
      "type": "function"
    },
    {
      "inputs": [
        {
          "internalType": "uint256",
          "name": "_projectId",
          "type": "uint256"
        },
        {
          "internalType": "address",
          "name": "_beneficiary",
          "type": "address"
        },
        {
          "internalType": "uint256",
          "name": "_minReturnedTokens",
          "type": "uint256"
        },
        {
          "internalType": "bool",
          "name": "_preferClaimedTokens",
          "type": "bool"
        },
        {
          "internalType": "string",
          "name": "_memo",
          "type": "string"
        },
        {
          "internalType": "bytes",
          "name": "_delegateMetadata",
          "type": "bytes"
        }
      ],
      "name": "pay",
      "outputs": [
        {
          "internalType": "uint256",
          "name": "",
          "type": "uint256"
        }
      ],
      "stateMutability": "payable",
      "type": "function"
    },
    {
      "inputs": [
        {
          "internalType": "uint256",
          "name": "_projectId",
          "type": "uint256"
        }
      ],
      "name": "processFees",
      "outputs": [],
      "stateMutability": "nonpayable",
      "type": "function"
    },
    {
      "inputs": [],
      "name": "projects",
      "outputs": [
        {
          "internalType": "contract IJBProjects",
          "name": "",
          "type": "address"
        }
      ],
      "stateMutability": "view",
      "type": "function"
    },
    {
      "inputs": [
        {
          "internalType": "address",
          "name": "_holder",
          "type": "address"
        },
        {
          "internalType": "uint256",
          "name": "_projectId",
          "type": "uint256"
        },
        {
          "internalType": "uint256",
          "name": "_tokenCount",
          "type": "uint256"
        },
        {
          "internalType": "uint256",
          "name": "_minReturnedWei",
          "type": "uint256"
        },
        {
          "internalType": "address payable",
          "name": "_beneficiary",
          "type": "address"
        },
        {
          "internalType": "string",
          "name": "_memo",
          "type": "string"
        },
        {
          "internalType": "bytes",
          "name": "_delegateMetadata",
          "type": "bytes"
        }
      ],
      "name": "redeemTokensOf",
      "outputs": [
        {
          "internalType": "uint256",
          "name": "claimAmount",
          "type": "uint256"
        }
      ],
      "stateMutability": "nonpayable",
      "type": "function"
    },
    {
      "inputs": [],
      "name": "renounceOwnership",
      "outputs": [],
      "stateMutability": "nonpayable",
      "type": "function"
    },
    {
      "inputs": [],
      "name": "splitsStore",
      "outputs": [
        {
          "internalType": "contract IJBSplitsStore",
          "name": "",
          "type": "address"
        }
      ],
      "stateMutability": "view",
      "type": "function"
    },
    {
      "inputs": [],
      "name": "store",
      "outputs": [
        {
          "internalType": "contract JBETHPaymentTerminalStore",
          "name": "",
          "type": "address"
        }
      ],
      "stateMutability": "view",
      "type": "function"
    },
    {
      "inputs": [],
      "name": "token",
      "outputs": [
        {
          "internalType": "address",
          "name": "",
          "type": "address"
        }
      ],
      "stateMutability": "view",
      "type": "function"
    },
    {
      "inputs": [
        {
          "internalType": "address",
          "name": "newOwner",
          "type": "address"
        }
      ],
      "name": "transferOwnership",
      "outputs": [],
      "stateMutability": "nonpayable",
      "type": "function"
    },
    {
      "inputs": [
        {
          "internalType": "uint256",
          "name": "_projectId",
          "type": "uint256"
        },
        {
          "internalType": "uint256",
          "name": "_amount",
          "type": "uint256"
        },
        {
          "internalType": "uint256",
          "name": "_currency",
          "type": "uint256"
        },
        {
          "internalType": "uint256",
          "name": "_minReturnedWei",
          "type": "uint256"
        },
        {
          "internalType": "address payable",
          "name": "_beneficiary",
          "type": "address"
        }
      ],
      "name": "useAllowanceOf",
      "outputs": [
        {
          "internalType": "uint256",
          "name": "",
          "type": "uint256"
        }
      ],
      "stateMutability": "nonpayable",
      "type": "function"
    }
  ],
  "transactionHash": "0xfe69701fb35e11a7c9d7817b76fe6b7d2ce2a6a6b6c29154607b78147b304754",
  "args": [
    "0x21c1E45E7EBC41f3ED0aB6660204d63c911c93a9",
    "0x53e1FD0CA79fDC56502E0bba68A8D9b267ABc730",
    "0x78CDd6fACE27d184634E17a85C9F6B43902EF5E4",
    "0x6AeC1Fb1190586F5e9C0D5c1B22E15Fd872fC46E",
    "0x3D3515D7Fce850a57447baB85C2B56cA4DF91f1c"
  ],
  "solcInputHash": "12ce77e8870d3973a4bc817761b50cf5",
  "bytecode": "0x6101406040526e042069000000000000000000000000610120523480156200002657600080fd5b5060405162004b8438038062004b84833981016040819052620000499162000153565b606085901b6001600160601b031916608052620000663362000103565b600180556001600160601b0319606085811b821660a05284811b821660c05283901b1660e05260408051634e71d92d60e01b815290516001600160a01b03831691634e71d92d91600480830192600092919082900301818387803b158015620000ce57600080fd5b505af1158015620000e3573d6000803e3d6000fd5b5050505060601b6001600160601b0319166101005250620001ec92505050565b600080546001600160a01b038381166001600160a01b0319831681178455604051919092169283917f8be0079c531659141344cd1fd0a4f28419497f9722a3daafe3b4186f6b6457e09190a35050565b600080600080600060a086880312156200016c57600080fd5b85516200017981620001d3565b60208701519095506200018c81620001d3565b60408701519094506200019f81620001d3565b6060870151909350620001b281620001d3565b6080870151909250620001c581620001d3565b809150509295509295909350565b6001600160a01b0381168114620001e957600080fd5b50565b60805160601c60a05160601c60c05160601c60e05160601c6101005160601c6101205160601c61486b620003196000396000818161043f015281816108e701528181612d6501526134190152600081816102f0015281816103c9015281816109b501528181610be101528181610cf8015281816118d001528181611fe5015281816121df015261276f01526000818161018101526131c901526000818161039801528181612d9001526134440152600081816102910152818161058e01528181610e49015281816115a90152818161199901528181611a5d015281816122bd0152612381015260008181610324015281816106980152818161077101528181610fa801528181611081015281816116b30152818161178c01528181611ce30152611dbc015261486b6000f3fe6080604052600436106101445760003560e01c80638da5cb5b116100c0578063c41c2f2411610074578063d930c60c11610059578063d930c60c146103ed578063f2fde38b1461040d578063fc0c546a1461042d57600080fd5b8063c41c2f2414610386578063c89e4361146103ba57600080fd5b8063ad007d63116100a5578063ad007d6314610312578063b5a6aed714610346578063b6cf978e1461036657600080fd5b80638da5cb5b146102b3578063975057e7146102de57600080fd5b80635de603141161011757806389701db5116100fc57806389701db5146102325780638af56094146102525780638b79543c1461027f57600080fd5b80635de60314146101fd578063715018a61461021d57600080fd5b806303930453146101495780632bdfe0041461016f578063405b84fa146101c857806342373472146101ea575b600080fd5b61015c610157366004613e7d565b610461565b6040519081526020015b60405180910390f35b34801561017b57600080fd5b506101a37f000000000000000000000000000000000000000000000000000000000000000081565b60405173ffffffffffffffffffffffffffffffffffffffff9091168152602001610166565b3480156101d457600080fd5b506101e86101e3366004613f25565b6104e8565b005b6101e86101f8366004613f55565b610b3f565b34801561020957600080fd5b5061015c610218366004613e64565b610cc6565b34801561022957600080fd5b506101e8610d8d565b34801561023e57600080fd5b506101e861024d366004613e64565b610e1a565b34801561025e57600080fd5b5061027261026d366004613e64565b6113d5565b60405161016691906142ed565b34801561028b57600080fd5b506101a37f000000000000000000000000000000000000000000000000000000000000000081565b3480156102bf57600080fd5b5060005473ffffffffffffffffffffffffffffffffffffffff166101a3565b3480156102ea57600080fd5b506101a37f000000000000000000000000000000000000000000000000000000000000000081565b34801561031e57600080fd5b506101a37f000000000000000000000000000000000000000000000000000000000000000081565b34801561035257600080fd5b5061015c610361366004613f9c565b611506565b34801561037257600080fd5b5061015c610381366004613b29565b611bf3565b34801561039257600080fd5b506101a37f000000000000000000000000000000000000000000000000000000000000000081565b3480156103c657600080fd5b507f00000000000000000000000000000000000000000000000000000000000000006101a3565b3480156103f957600080fd5b5061015c610408366004613fe9565b612122565b34801561041957600080fd5b506101e8610428366004613aef565b61252c565b34801561043957600080fd5b506101a37f000000000000000000000000000000000000000000000000000000000000000081565b60006104db348a8a8a8a8a8a8080601f01602080910402602001604051908101604052809392919081815260200183838082843760009201919091525050604080516020601f8e018190048102820181019092528c815292508c91508b908190840183828082843760009201919091525061265c92505050565b9998505050505050505050565b6002600154141561055a576040517f08c379a000000000000000000000000000000000000000000000000000000000815260206004820152601f60248201527f5265656e7472616e637947756172643a207265656e7472616e742063616c6c0060448201526064015b60405180910390fd5b60026001556040517f6352211e000000000000000000000000000000000000000000000000000000008152600481018390527f000000000000000000000000000000000000000000000000000000000000000073ffffffffffffffffffffffffffffffffffffffff1690636352211e9060240160206040518083038186803b1580156105e557600080fd5b505afa1580156105f9573d6000803e3d6000fd5b505050506040513d601f19601f8201168201806040525081019061061d9190613b0c565b8260053373ffffffffffffffffffffffffffffffffffffffff8416148061071257506040517fc161c93f00000000000000000000000000000000000000000000000000000000815233600482015273ffffffffffffffffffffffffffffffffffffffff848116602483015260448201849052606482018390527f0000000000000000000000000000000000000000000000000000000000000000169063c161c93f9060840160206040518083038186803b1580156106da57600080fd5b505afa1580156106ee573d6000803e3d6000fd5b505050506040513d601f19601f820116820180604052508101906107129190613d21565b806107eb57506040517fc161c93f00000000000000000000000000000000000000000000000000000000815233600482015273ffffffffffffffffffffffffffffffffffffffff848116602483015260006044830152606482018390527f0000000000000000000000000000000000000000000000000000000000000000169063c161c93f9060840160206040518083038186803b1580156107b357600080fd5b505afa1580156107c7573d6000803e3d6000fd5b505050506040513d601f19601f820116820180604052508101906107eb9190613d21565b610851576040517f08c379a000000000000000000000000000000000000000000000000000000000815260206004820152601860248201527f4f706572617461626c653a20554e415554484f52495a454400000000000000006044820152606401610551565b8373ffffffffffffffffffffffffffffffffffffffff1663fc0c546a6040518163ffffffff1660e01b815260040160206040518083038186803b15801561089757600080fd5b505afa1580156108ab573d6000803e3d6000fd5b505050506040513d601f19601f820116820180604052508101906108cf9190613b0c565b73ffffffffffffffffffffffffffffffffffffffff167f000000000000000000000000000000000000000000000000000000000000000073ffffffffffffffffffffffffffffffffffffffff1614610983576040517f08c379a000000000000000000000000000000000000000000000000000000000815260206004820152601260248201527f307834643a20494e434f4d50415449424c4500000000000000000000000000006044820152606401610551565b6040517f6bb6a5ad000000000000000000000000000000000000000000000000000000008152600481018690526000907f000000000000000000000000000000000000000000000000000000000000000073ffffffffffffffffffffffffffffffffffffffff1690636bb6a5ad90602401602060405180830381600087803b158015610a0e57600080fd5b505af1158015610a22573d6000803e3d6000fd5b505050506040513d601f19601f82011682018060405250810190610a469190613d3e565b90508015610ae157604080517f423734720000000000000000000000000000000000000000000000000000000081526004810188905260248101919091526000604482015273ffffffffffffffffffffffffffffffffffffffff86169063423734729083906064016000604051808303818588803b158015610ac757600080fd5b505af1158015610adb573d6000803e3d6000fd5b50505050505b6040805182815233602082015273ffffffffffffffffffffffffffffffffffffffff87169188917fa7519e5f94697b7f53e97c5eb46a0c730a296ab686ab8fd333835c5f735784eb910160405180910390a350506001805550505050565b60003411610ba9576040517f08c379a000000000000000000000000000000000000000000000000000000000815260206004820152600b60248201527f307834633a204e4f5f4f500000000000000000000000000000000000000000006044820152606401610551565b6040517fe7c8e3e3000000000000000000000000000000000000000000000000000000008152600481018390523460248201526000907f000000000000000000000000000000000000000000000000000000000000000073ffffffffffffffffffffffffffffffffffffffff169063e7c8e3e3906044016101e060405180830381600087803b158015610c3b57600080fd5b505af1158015610c4f573d6000803e3d6000fd5b505050506040513d601f19601f82011682018060405250810190610c739190613d57565b9050610c8583348361016001516128d6565b827f4ce42b42caaa564737146f357a8fa7fe24940fac843d392a69e23b32a1d766a3348433604051610cb9939291906144f0565b60405180910390a2505050565b6040517f9cc7f708000000000000000000000000000000000000000000000000000000008152600481018290526000907f000000000000000000000000000000000000000000000000000000000000000073ffffffffffffffffffffffffffffffffffffffff1690639cc7f7089060240160206040518083038186803b158015610d4f57600080fd5b505afa158015610d63573d6000803e3d6000fd5b505050506040513d601f19601f82011682018060405250810190610d879190613d3e565b92915050565b60005473ffffffffffffffffffffffffffffffffffffffff163314610e0e576040517f08c379a000000000000000000000000000000000000000000000000000000000815260206004820181905260248201527f4f776e61626c653a2063616c6c6572206973206e6f7420746865206f776e65726044820152606401610551565b610e186000612cac565b565b6040517f6352211e000000000000000000000000000000000000000000000000000000008152600481018290527f000000000000000000000000000000000000000000000000000000000000000073ffffffffffffffffffffffffffffffffffffffff1690636352211e9060240160206040518083038186803b158015610ea057600080fd5b505afa158015610eb4573d6000803e3d6000fd5b505050506040513d601f19601f82011682018060405250810190610ed89190613b0c565b816006610efa60005473ffffffffffffffffffffffffffffffffffffffff1690565b73ffffffffffffffffffffffffffffffffffffffff163373ffffffffffffffffffffffffffffffffffffffff16148080610f4957503373ffffffffffffffffffffffffffffffffffffffff8516145b8061102257506040517fc161c93f00000000000000000000000000000000000000000000000000000000815233600482015273ffffffffffffffffffffffffffffffffffffffff858116602483015260448201859052606482018490527f0000000000000000000000000000000000000000000000000000000000000000169063c161c93f9060840160206040518083038186803b158015610fea57600080fd5b505afa158015610ffe573d6000803e3d6000fd5b505050506040513d601f19601f820116820180604052508101906110229190613d21565b806110fb57506040517fc161c93f00000000000000000000000000000000000000000000000000000000815233600482015273ffffffffffffffffffffffffffffffffffffffff858116602483015260006044830152606482018490527f0000000000000000000000000000000000000000000000000000000000000000169063c161c93f9060840160206040518083038186803b1580156110c357600080fd5b505afa1580156110d7573d6000803e3d6000fd5b505050506040513d601f19601f820116820180604052508101906110fb9190613d21565b611161576040517f08c379a000000000000000000000000000000000000000000000000000000000815260206004820152601860248201527f4f706572617461626c653a20554e415554484f52495a454400000000000000006044820152606401610551565b600260015414156111ce576040517f08c379a000000000000000000000000000000000000000000000000000000000815260206004820152601f60248201527f5265656e7472616e637947756172643a207265656e7472616e742063616c6c006044820152606401610551565b600260018190556000868152602091825260408082208054825181860281018601909352808352929391929091849084015b828210156112f1576000848152602090819020604080516060810182526003860290920180548352600181015473ffffffffffffffffffffffffffffffffffffffff169383019390935260028301805492939291840191611260906146bc565b80601f016020809104026020016040519081016040528092919081815260200182805461128c906146bc565b80156112d95780601f106112ae576101008083540402835291602001916112d9565b820191906000526020600020905b8154815290600101906020018083116112bc57829003601f168201915b50505050508152505081526020019060010190611200565b50505050905060005b815181101561137757611365828281518110611318576113186147a7565b602002602001015160000151838381518110611336576113366147a7565b602002602001015160200151848481518110611354576113546147a7565b602002602001015160400151612d21565b8061136f81614710565b9150506112fa565b50600086815260026020526040812061138f916137d8565b857f510aa8139782d29bd981e9143e406221386c398f4db6fb543050981d1f5ce56e82336040516113c1929190614300565b60405180910390a250506001805550505050565b606060026000838152602001908152602001600020805480602002602001604051908101604052809291908181526020016000905b828210156114fb576000848152602090819020604080516060810182526003860290920180548352600181015473ffffffffffffffffffffffffffffffffffffffff16938301939093526002830180549293929184019161146a906146bc565b80601f0160208091040260200160405190810160405280929190818152602001828054611496906146bc565b80156114e35780601f106114b8576101008083540402835291602001916114e3565b820191906000526020600020905b8154815290600101906020018083116114c657829003601f168201915b5050505050815250508152602001906001019061140a565b505050509050919050565b600060026001541415611575576040517f08c379a000000000000000000000000000000000000000000000000000000000815260206004820152601f60248201527f5265656e7472616e637947756172643a207265656e7472616e742063616c6c006044820152606401610551565b60026001556040517f6352211e000000000000000000000000000000000000000000000000000000008152600481018790527f000000000000000000000000000000000000000000000000000000000000000073ffffffffffffffffffffffffffffffffffffffff1690636352211e9060240160206040518083038186803b15801561160057600080fd5b505afa158015611614573d6000803e3d6000fd5b505050506040513d601f19601f820116820180604052508101906116389190613b0c565b8660153373ffffffffffffffffffffffffffffffffffffffff8416148061172d57506040517fc161c93f00000000000000000000000000000000000000000000000000000000815233600482015273ffffffffffffffffffffffffffffffffffffffff848116602483015260448201849052606482018390527f0000000000000000000000000000000000000000000000000000000000000000169063c161c93f9060840160206040518083038186803b1580156116f557600080fd5b505afa158015611709573d6000803e3d6000fd5b505050506040513d601f19601f8201168201806040525081019061172d9190613d21565b8061180657506040517fc161c93f00000000000000000000000000000000000000000000000000000000815233600482015273ffffffffffffffffffffffffffffffffffffffff848116602483015260006044830152606482018390527f0000000000000000000000000000000000000000000000000000000000000000169063c161c93f9060840160206040518083038186803b1580156117ce57600080fd5b505afa1580156117e2573d6000803e3d6000fd5b505050506040513d601f19601f820116820180604052508101906118069190613d21565b61186c576040517f08c379a000000000000000000000000000000000000000000000000000000000815260206004820152601860248201527f4f706572617461626c653a20554e415554484f52495a454400000000000000006044820152606401610551565b6040517f08083a81000000000000000000000000000000000000000000000000000000008152600481018a9052306024820152604481018990526064810188905260848101879052600090819073ffffffffffffffffffffffffffffffffffffffff7f000000000000000000000000000000000000000000000000000000000000000016906308083a819060a40161020060405180830381600087803b15801561191557600080fd5b505af1158015611929573d6000803e3d6000fd5b505050506040513d601f19601f8201168201806040525081019061194d9190613d74565b6040517f6352211e000000000000000000000000000000000000000000000000000000008152600481018e9052919350915060009073ffffffffffffffffffffffffffffffffffffffff7f00000000000000000000000000000000000000000000000000000000000000001690636352211e9060240160206040518083038186803b1580156119db57600080fd5b505afa1580156119ef573d6000803e3d6000fd5b505050506040513d601f19601f82011682018060405250810190611a139190613b0c565b6040517f49491987000000000000000000000000000000000000000000000000000000008152600481018e905290915060009073ffffffffffffffffffffffffffffffffffffffff7f00000000000000000000000000000000000000000000000000000000000000001690634949198790602401602060405180830381600087803b158015611aa157600080fd5b505af1158015611ab5573d6000803e3d6000fd5b505050506040513d601f19601f82011682018060405250810190611ad99190613d3e565b9050600084610160015160001480611af157508d6001145b611b4c576040517f4665652066726f6d2040000000000000000000000000000000000000000000006020820152602a8101839052611b4790869086908690604a015b604051602081830303815290604052612f12565b611b4f565b60005b9050611b648a611b5f8387614675565b61301f565b608085015185518f91907f4d0b119651438cfed12585fc57e8ec9d9cc98bb1e5da27bdc4b7419d084500c28d8886611b9c8183614675565b6040805173ffffffffffffffffffffffffffffffffffffffff9095168552602085019390935291830152606082015233608082015260a00160405180910390a450509151600180559b9a5050505050505050505050565b600060026001541415611c62576040517f08c379a000000000000000000000000000000000000000000000000000000000815260206004820152601f60248201527f5265656e7472616e637947756172643a207265656e7472616e742063616c6c006044820152606401610551565b6002600155878760033373ffffffffffffffffffffffffffffffffffffffff84161480611d5d57506040517fc161c93f00000000000000000000000000000000000000000000000000000000815233600482015273ffffffffffffffffffffffffffffffffffffffff848116602483015260448201849052606482018390527f0000000000000000000000000000000000000000000000000000000000000000169063c161c93f9060840160206040518083038186803b158015611d2557600080fd5b505afa158015611d39573d6000803e3d6000fd5b505050506040513d601f19601f82011682018060405250810190611d5d9190613d21565b80611e3657506040517fc161c93f00000000000000000000000000000000000000000000000000000000815233600482015273ffffffffffffffffffffffffffffffffffffffff848116602483015260006044830152606482018390527f0000000000000000000000000000000000000000000000000000000000000000169063c161c93f9060840160206040518083038186803b158015611dfe57600080fd5b505afa158015611e12573d6000803e3d6000fd5b505050506040513d601f19601f82011682018060405250810190611e369190613d21565b611e9c576040517f08c379a000000000000000000000000000000000000000000000000000000000815260206004820152601860248201527f4f706572617461626c653a20554e415554484f52495a454400000000000000006044820152606401610551565b73ffffffffffffffffffffffffffffffffffffffff8716611f19576040517f08c379a000000000000000000000000000000000000000000000000000000000815260206004820152601260248201527f307834633a205a45524f5f4144445245535300000000000000000000000000006044820152606401610551565b611fa8604051806101e00160405280600081526020016000815260200160008152602001600081526020016000815260200160008152602001600073ffffffffffffffffffffffffffffffffffffffff16815260200160008152602001600081526020016000815260200160008152602001600081526020016000815260200160008152602001600081525090565b6040517f9225bf1a00000000000000000000000000000000000000000000000000000000815273ffffffffffffffffffffffffffffffffffffffff7f00000000000000000000000000000000000000000000000000000000000000001690639225bf1a90612026908f908f908f908f908f908f908f906004016142a2565b600060405180830381600087803b15801561204057600080fd5b505af1158015612054573d6000803e3d6000fd5b505050506040513d6000823e601f3d9081017fffffffffffffffffffffffffffffffffffffffffffffffffffffffffffffffe016820160405261209a9190810190613da3565b98509550905084156120b0576120b0888661301f565b8b73ffffffffffffffffffffffffffffffffffffffff168b82600001517faab8cf20df3a8a65c8841921ab818fd69f2024c6ccfb8667c19c161d2f8438af848c8f8b8e336040516121069695949392919061438d565b60405180910390a4505060018055509098975050505050505050565b600060026001541415612191576040517f08c379a000000000000000000000000000000000000000000000000000000000815260206004820152601f60248201527f5265656e7472616e637947756172643a207265656e7472616e742063616c6c006044820152606401610551565b60026001556040517f41d0230c0000000000000000000000000000000000000000000000000000000081526004810187905260248101869052604481018590526064810184905260009081907f000000000000000000000000000000000000000000000000000000000000000073ffffffffffffffffffffffffffffffffffffffff16906341d0230c9060840161020060405180830381600087803b15801561223957600080fd5b505af115801561224d573d6000803e3d6000fd5b505050506040513d601f19601f820116820180604052508101906122719190613d74565b6040517f6352211e000000000000000000000000000000000000000000000000000000008152600481018b9052919350915060009073ffffffffffffffffffffffffffffffffffffffff7f00000000000000000000000000000000000000000000000000000000000000001690636352211e9060240160206040518083038186803b1580156122ff57600080fd5b505afa158015612313573d6000803e3d6000fd5b505050506040513d601f19601f820116820180604052508101906123379190613b0c565b6040517f49491987000000000000000000000000000000000000000000000000000000008152600481018b905290915060009073ffffffffffffffffffffffffffffffffffffffff7f00000000000000000000000000000000000000000000000000000000000000001690634949198790602401602060405180830381600087803b1580156123c557600080fd5b505af11580156123d9573d6000803e3d6000fd5b505050506040513d601f19601f820116820180604052508101906123fd9190613d3e565b905060008461016001516000148061241557508a6001145b612460576040517f4665652066726f6d2040000000000000000000000000000000000000000000006020820152602a810183905261245b90869086908690604a01611b33565b612463565b60005b905060006124bc866124758488614675565b6040517f5061796f75742066726f6d2040000000000000000000000000000000000000006020820152602d8101879052604d0160405160208183030381529060405261317e565b905080156124ce576124ce848261301f565b8b86600001517f4f97298058625e1e4cc1b7f86aa23c1d6ec6caa63932b87b289a9ea70252f777868e8987878f3360405161250f97969594939291906141d8565b60405180910390a350509251600180559998505050505050505050565b60005473ffffffffffffffffffffffffffffffffffffffff1633146125ad576040517f08c379a000000000000000000000000000000000000000000000000000000000815260206004820181905260248201527f4f776e61626c653a2063616c6c6572206973206e6f7420746865206f776e65726044820152606401610551565b73ffffffffffffffffffffffffffffffffffffffff8116612650576040517f08c379a000000000000000000000000000000000000000000000000000000000815260206004820152602660248201527f4f776e61626c653a206e6577206f776e657220697320746865207a65726f206160448201527f64647265737300000000000000000000000000000000000000000000000000006064820152608401610551565b61265981612cac565b50565b600073ffffffffffffffffffffffffffffffffffffffff86166126db576040517f08c379a000000000000000000000000000000000000000000000000000000000815260206004820152601260248201527f307834653a205a45524f5f4144445245535300000000000000000000000000006044820152606401610551565b61276a604051806101e00160405280600081526020016000815260200160008152602001600081526020016000815260200160008152602001600073ffffffffffffffffffffffffffffffffffffffff16815260200160008152602001600081526020016000815260200160008152602001600081526020016000815260200160008152602001600081525090565b6000807f000000000000000000000000000000000000000000000000000000000000000073ffffffffffffffffffffffffffffffffffffffff166329c705c7338d8d8d8c6127b95760006127bc565b60015b60ff16178d8c8c6040518863ffffffff1660e01b81526004016127e59796959493929190614237565b600060405180830381600087803b1580156127ff57600080fd5b505af1158015612813573d6000803e3d6000fd5b505050506040513d6000823e601f3d9081017fffffffffffffffffffffffffffffffffffffffffffffffffffffffffffffffe01682016040526128599190810190613dfe565b809950819450829550839650505050508873ffffffffffffffffffffffffffffffffffffffff168a84600001517f87791be5daaeac0e0338dfb9d98329a52c07852b9de21a9d8570e6de6b7754c2868f87878d336040516128bf969594939291906143f3565b60405180910390a450505198975050505050505050565b6000826128ef816128e88560c861465d565b60c86136cd565b6128f99190614675565b9050600060026000868152602001908152602001600020805480602002602001604051908101604052809291908181526020016000905b82821015612a21576000848152602090819020604080516060810182526003860290920180548352600181015473ffffffffffffffffffffffffffffffffffffffff169383019390935260028301805492939291840191612990906146bc565b80601f01602080910402602001604051908101604052809291908181526020018280546129bc906146bc565b8015612a095780601f106129de57610100808354040283529160200191612a09565b820191906000526020600020905b8154815290600101906020018083116129ec57829003601f168201915b50505050508152505081526020019060010190612930565b5050506000878152600260205260408120929350612a409291506137d8565b60005b8151811015612ca45782612b0a5760008681526002602052604090208251839083908110612a7357612a736147a7565b60209081029190910181015182546001808201855560009485529383902082516003909202019081558183015193810180547fffffffffffffffffffffffff00000000000000000000000000000000000000001673ffffffffffffffffffffffffffffffffffffffff9095169490941790935560408101518051919392612b02926002850192909101906137f9565b505050612c92565b818181518110612b1c57612b1c6147a7565b6020026020010151600001518310612b5e57818181518110612b4057612b406147a7565b60200260200101516000015183612b579190614675565b9250612c92565b60026000878152602001908152602001600020604051806060016040528085858581518110612b8f57612b8f6147a7565b602002602001015160000151612ba59190614675565b8152602001848481518110612bbc57612bbc6147a7565b60200260200101516020015173ffffffffffffffffffffffffffffffffffffffff168152602001848481518110612bf557612bf56147a7565b60209081029190910181015160409081015190925283546001808201865560009586529482902084516003909202019081558382015194810180547fffffffffffffffffffffffff00000000000000000000000000000000000000001673ffffffffffffffffffffffffffffffffffffffff90961695909517909455908201518051929392612c8a92600285019201906137f9565b505050600092505b80612c9c81614710565b915050612a43565b505050505050565b6000805473ffffffffffffffffffffffffffffffffffffffff8381167fffffffffffffffffffffffff0000000000000000000000000000000000000000831681178455604051919092169283917f8be0079c531659141344cd1fd0a4f28419497f9722a3daafe3b4186f6b6457e09190a35050565b6040517f862026500000000000000000000000000000000000000000000000000000000081526001600482015273ffffffffffffffffffffffffffffffffffffffff7f0000000000000000000000000000000000000000000000000000000000000000811660248301526000917f00000000000000000000000000000000000000000000000000000000000000009091169063862026509060440160206040518083038186803b158015612dd457600080fd5b505afa158015612de8573d6000803e3d6000fd5b505050506040513d601f19601f82011682018060405250810190612e0c9190613b0c565b905073ffffffffffffffffffffffffffffffffffffffff81163014612eeb5760408051602081018252600080825291517f0393045300000000000000000000000000000000000000000000000000000000815273ffffffffffffffffffffffffffffffffffffffff8416926303930453928892612e94926001928a9282918b91600401614338565b6020604051808303818588803b158015612ead57600080fd5b505af1158015612ec1573d6000803e3d6000fd5b50505050506040513d601f19601f82011682018060405250810190612ee69190613d3e565b612f0b565b612f0b84600185600080876040518060200160405280600081525061265c565b5050505050565b6000612f318460c887610160015160c8612f2c919061465d565b6136cd565b612f3b9085614675565b905080612f4a57506000613017565b6101c0850151602f1c60011615612f6b57612f66818484612d21565b613017565b602085810151600090815260028083526040808320815160608101835286815273ffffffffffffffffffffffffffffffffffffffff898116828801908152938201898152835460018082018655948852968890208351600390980201968755935192860180547fffffffffffffffffffffffff0000000000000000000000000000000000000000169390911692909217909155905180519194613013938501929101906137f9565b5050505b949350505050565b80471015613089576040517f08c379a000000000000000000000000000000000000000000000000000000000815260206004820152601d60248201527f416464726573733a20696e73756666696369656e742062616c616e63650000006044820152606401610551565b60008273ffffffffffffffffffffffffffffffffffffffff168260405160006040518083038185875af1925050503d80600081146130e3576040519150601f19603f3d011682016040523d82523d6000602084013e6130e8565b606091505b5050905080613179576040517f08c379a000000000000000000000000000000000000000000000000000000000815260206004820152603a60248201527f416464726573733a20756e61626c6520746f2073656e642076616c75652c207260448201527f6563697069656e74206d617920686176652072657665727465640000000000006064820152608401610551565b505050565b602083015160808401516040517f69e11cc5000000000000000000000000000000000000000000000000000000008152600481019290925260248201526001604482015282906000907f000000000000000000000000000000000000000000000000000000000000000073ffffffffffffffffffffffffffffffffffffffff16906369e11cc59060640160006040518083038186803b15801561322057600080fd5b505afa158015613234573d6000803e3d6000fd5b505050506040513d6000823e601f3d9081017fffffffffffffffffffffffffffffffffffffffffffffffffffffffffffffffe016820160405261327a9190810190613be3565b905060005b81518110156136c457600082828151811061329c5761329c6147a7565b6020026020010151905060006132bf87836020015162ffffff16629896806136cd565b9050801561366c57608082015173ffffffffffffffffffffffffffffffffffffffff16156133b4576080820151602089015160a0840151606085015185516040517fc8e84e020000000000000000000000000000000000000000000000000000000081526004810187905260016024820152604481019490945266ffffffffffffff909216606484015273ffffffffffffffffffffffffffffffffffffffff908116608484015290151560a48301529091169063c8e84e0290839060c4016000604051808303818588803b15801561339657600080fd5b505af11580156133aa573d6000803e3d6000fd5b505050505061365f565b60a082015166ffffffffffffff16156136515760a08201516040517f8620265000000000000000000000000000000000000000000000000000000000815266ffffffffffffff909116600482015273ffffffffffffffffffffffffffffffffffffffff7f0000000000000000000000000000000000000000000000000000000000000000811660248301526000917f00000000000000000000000000000000000000000000000000000000000000009091169063862026509060440160206040518083038186803b15801561348857600080fd5b505afa15801561349c573d6000803e3d6000fd5b505050506040513d601f19601f820116820180604052508101906134c09190613b0c565b905073ffffffffffffffffffffffffffffffffffffffff811661353f576040517f08c379a000000000000000000000000000000000000000000000000000000000815260206004820152600f60248201527f307834643a204241445f53504c495400000000000000000000000000000000006044820152606401610551565b73ffffffffffffffffffffffffffffffffffffffff811630141561359757613591828460a0015166ffffffffffffff168560600151600087600001518c6040518060200160405280600081525061265c565b5061364b565b8073ffffffffffffffffffffffffffffffffffffffff166303930453838560a001518660600151600088600001518d604051806020016040528060008152506040518863ffffffff1660e01b81526004016135f79695949392919061452f565b6020604051808303818588803b15801561361057600080fd5b505af1158015613624573d6000803e3d6000fd5b50505050506040513d601f19601f820116820180604052508101906136499190613d3e565b505b5061365f565b61365f82606001518261301f565b6136698186614675565b94505b602088015188516040517f890990238a14aca46c7c8272cc8161193b9583aa44c54cf65945e4441fcaf283906136a790869086903390614455565b60405180910390a3505080806136bc90614710565b91505061327f565b50509392505050565b600080807fffffffffffffffffffffffffffffffffffffffffffffffffffffffffffffffff85870985870292508281108382030391505080600014156137265783828161371c5761371c614778565b04925050506137d1565b838110613769576040517f773cc18c0000000000000000000000000000000000000000000000000000000081526004810182905260248101859052604401610551565b600084868809851960019081018716968790049682860381900495909211909303600082900391909104909201919091029190911760038402600290811880860282030280860282030280860282030280860282030280860282030280860290910302029150505b9392505050565b5080546000825560030290600052602060002090810190612659919061387d565b828054613805906146bc565b90600052602060002090601f016020900481019282613827576000855561386d565b82601f1061384057805160ff191683800117855561386d565b8280016001018555821561386d579182015b8281111561386d578251825591602001919060010190613852565b506138799291506138ca565b5090565b808211156138795760008082556001820180547fffffffffffffffffffffffff00000000000000000000000000000000000000001690556138c160028301826138df565b5060030161387d565b5b8082111561387957600081556001016138cb565b5080546138eb906146bc565b6000825580601f106138fb575050565b601f01602090049060005260206000209081019061265991906138ca565b600061392c61392784614617565b6145c8565b905082815283838301111561394057600080fd5b828260208301376000602084830101529392505050565b805161396281614805565b919050565b60008083601f84011261397957600080fd5b50813567ffffffffffffffff81111561399157600080fd5b6020830191508360208285010111156139a957600080fd5b9250929050565b600082601f8301126139c157600080fd5b6137d183833560208501613919565b600082601f8301126139e157600080fd5b81516139ef61392782614617565b818152846020838601011115613a0457600080fd5b61301782602083016020870161468c565b60006101e08284031215613a2857600080fd5b613a3061457b565b9050815181526020820151602082015260408201516040820152606082015160608201526080820151608082015260a082015160a0820152613a7460c08301613957565b60c082015260e08281015190820152610100808301519082015261012080830151908201526101408083015190820152610160808301519082015261018080830151908201526101a080830151908201526101c09182015191810191909152919050565b805166ffffffffffffff8116811461396257600080fd5b600060208284031215613b0157600080fd5b81356137d181614805565b600060208284031215613b1e57600080fd5b81516137d181614805565b600080600080600080600060e0888a031215613b4457600080fd5b8735613b4f81614805565b96506020880135955060408801359450606088013593506080880135613b7481614805565b925060a088013567ffffffffffffffff80821115613b9157600080fd5b613b9d8b838c016139b0565b935060c08a0135915080821115613bb357600080fd5b508801601f81018a13613bc557600080fd5b613bd48a823560208401613919565b91505092959891949750929550565b60006020808385031215613bf657600080fd5b825167ffffffffffffffff80821115613c0e57600080fd5b818501915085601f830112613c2257600080fd5b815181811115613c3457613c346147d6565b613c42848260051b016145c8565b818152848101925083850160c0808402860187018a1015613c6257600080fd5b600095505b83861015613d135780828b031215613c7e57600080fd5b613c866145a5565b8251613c9181614827565b81528288015162ffffff81168114613ca857600080fd5b8189015260408381015165ffffffffffff81168114613cc657600080fd5b908201526060613cd7848201613957565b908201526080613ce8848201613957565b9082015260a0613cf9848201613ad8565b908201528552600195909501949386019390810190613c67565b509098975050505050505050565b600060208284031215613d3357600080fd5b81516137d181614827565b600060208284031215613d5057600080fd5b5051919050565b60006101e08284031215613d6a57600080fd5b6137d18383613a15565b6000806102008385031215613d8857600080fd5b613d928484613a15565b91506101e083015190509250929050565b60008060006102208486031215613db957600080fd5b613dc38585613a15565b92506101e0840151915061020084015167ffffffffffffffff811115613de857600080fd5b613df4868287016139d0565b9150509250925092565b6000806000806102408587031215613e1557600080fd5b613e1f8686613a15565b93506101e08501519250610200850151915061022085015167ffffffffffffffff811115613e4c57600080fd5b613e58878288016139d0565b91505092959194509250565b600060208284031215613e7657600080fd5b5035919050565b60008060008060008060008060c0898b031215613e9957600080fd5b883597506020890135613eab81614805565b9650604089013595506060890135613ec281614827565b9450608089013567ffffffffffffffff80821115613edf57600080fd5b613eeb8c838d01613967565b909650945060a08b0135915080821115613f0457600080fd5b50613f118b828c01613967565b999c989b5096995094979396929594505050565b60008060408385031215613f3857600080fd5b823591506020830135613f4a81614805565b809150509250929050565b60008060408385031215613f6857600080fd5b82359150602083013567ffffffffffffffff811115613f8657600080fd5b613f92858286016139b0565b9150509250929050565b600080600080600060a08688031215613fb457600080fd5b853594506020860135935060408601359250606086013591506080860135613fdb81614805565b809150509295509295909350565b600080600080600060a0868803121561400157600080fd5b85359450602086013593506040860135925060608601359150608086013567ffffffffffffffff81111561403457600080fd5b614040888289016139b0565b9150509295509295909350565b600081518084526020808501808196508360051b8101915082860160005b858110156140cb5782840389528151805185528581015173ffffffffffffffffffffffffffffffffffffffff16868601526040908101516060918601829052906140b7818701836140d8565b9a87019a955050509084019060010161406b565b5091979650505050505050565b600081518084526140f081602086016020860161468c565b601f017fffffffffffffffffffffffffffffffffffffffffffffffffffffffffffffffe0169290920160200192915050565b805182526020810151602083015260408101516040830152606081015160608301526080810151608083015260a081015160a083015260c081015161417f60c084018273ffffffffffffffffffffffffffffffffffffffff169052565b5060e08181015190830152610100808201519083015261012080820151908301526101408082015190830152610160808201519083015261018080820151908301526101a080820151908301526101c090810151910152565b600073ffffffffffffffffffffffffffffffffffffffff808a16835288602084015287604084015286606084015285608084015260e060a084015261422060e08401866140d8565b915080841660c08401525098975050505050505050565b600073ffffffffffffffffffffffffffffffffffffffff808a16835288602084015287604084015280871660608401525084608083015260e060a083015261428260e08301856140d8565b82810360c084015261429481856140d8565b9a9950505050505050505050565b600073ffffffffffffffffffffffffffffffffffffffff808a16835288602084015287604084015286606084015280861660808401525060e060a083015261428260e08301856140d8565b6020815260006137d1602083018461404d565b604081526000614313604083018561404d565b905073ffffffffffffffffffffffffffffffffffffffff831660208301529392505050565b86815273ffffffffffffffffffffffffffffffffffffffff86166020820152846040820152831515606082015260c06080820152600061437b60c08301856140d8565b82810360a08401526104db81856140d8565b600061028061439c838a614122565b73ffffffffffffffffffffffffffffffffffffffff8089166101e08501528761020085015286610220850152816102408501526143db828501876140d8565b92508085166102608501525050979650505050505050565b6000610280614402838a614122565b876101e084015286610200840152856102208401528061024084015261442a818401866140d8565b91505073ffffffffffffffffffffffffffffffffffffffff8316610260830152979650505050505050565b60006101008201905084511515825262ffffff602086015116602083015265ffffffffffff6040860151166040830152606085015173ffffffffffffffffffffffffffffffffffffffff8082166060850152806080880151166080850152505066ffffffffffffff60a08601511660a08301528360c083015261301760e083018473ffffffffffffffffffffffffffffffffffffffff169052565b83815260606020820152600061450960608301856140d8565b905073ffffffffffffffffffffffffffffffffffffffff83166040830152949350505050565b66ffffffffffffff8716815273ffffffffffffffffffffffffffffffffffffffff86166020820152846040820152831515606082015260c06080820152600061437b60c08301856140d8565b6040516101e0810167ffffffffffffffff8111828210171561459f5761459f6147d6565b60405290565b60405160c0810167ffffffffffffffff8111828210171561459f5761459f6147d6565b604051601f82017fffffffffffffffffffffffffffffffffffffffffffffffffffffffffffffffe016810167ffffffffffffffff8111828210171561460f5761460f6147d6565b604052919050565b600067ffffffffffffffff821115614631576146316147d6565b50601f017fffffffffffffffffffffffffffffffffffffffffffffffffffffffffffffffe01660200190565b6000821982111561467057614670614749565b500190565b60008282101561468757614687614749565b500390565b60005b838110156146a757818101518382015260200161468f565b838111156146b6576000848401525b50505050565b600181811c908216806146d057607f821691505b6020821081141561470a577f4e487b7100000000000000000000000000000000000000000000000000000000600052602260045260246000fd5b50919050565b60007fffffffffffffffffffffffffffffffffffffffffffffffffffffffffffffffff82141561474257614742614749565b5060010190565b7f4e487b7100000000000000000000000000000000000000000000000000000000600052601160045260246000fd5b7f4e487b7100000000000000000000000000000000000000000000000000000000600052601260045260246000fd5b7f4e487b7100000000000000000000000000000000000000000000000000000000600052603260045260246000fd5b7f4e487b7100000000000000000000000000000000000000000000000000000000600052604160045260246000fd5b73ffffffffffffffffffffffffffffffffffffffff8116811461265957600080fd5b801515811461265957600080fdfea2646970667358221220cf63646069b1f7c4e7d513efa25fb9f54e9609c24e50c145f7f547b651c0eff364736f6c63430008060033",
  "devdoc": {
    "details": " A project can transfer its funds, along with the power to reconfigure and mint/burn their tokens, from this contract to another allowed terminal contract at any time. Inherits from: IJBPaymentTerminal - general interface for the methods in this contract that send and receive funds according to the Juicebox protocol's rules. JBOperatable - several functions in this contract can only be accessed by a project owner, or an address that has been preconfifigured to be an operator of the project. ReentrencyGuard - several function in this contract shouldn't be accessible recursively.",
    "kind": "dev",
    "methods": {
      "addToBalanceOf(uint256,string)": {
        "params": {
          "_memo": "A memo to pass along to the emitted event.",
          "_projectId": "The ID of the project to which the funds received belong."
        }
      },
      "constructor": {
        "params": {
          "_directory": "A contract storing directories of terminals and controllers for each project.",
          "_operatorStore": "A contract storing operator assignments.",
          "_projects": "A contract which mints ERC-721's that represent project ownership and transfers.",
          "_splitsStore": "A contract that stores splits for each project.",
          "_store": "A contract that stores the terminal's data."
        }
      },
      "delegate()": {
        "returns": {
          "_0": "The delegate address."
        }
      },
      "distributePayoutsOf(uint256,uint256,uint256,uint256,string)": {
        "details": "Payouts are sent to the preprogrammed splits. Anyone can distribute payouts on a project's behalf.",
        "params": {
          "_amount": "The amount being distributed.",
          "_currency": "The expected currency of the amount being distributed. Must match the project's current funding cycle's currency.",
          "_minReturnedWei": "The minimum number of wei that the amount should be valued at.",
          "_projectId": "The ID of the project having its payouts distributed."
        },
        "returns": {
          "_0": "The ID of the funding cycle during which the distribution was made."
        }
      },
      "ethBalanceOf(uint256)": {
        "params": {
          "_projectId": "The ID of the project to which the balance belongs."
        },
        "returns": {
          "_0": "The ETH balance."
        }
      },
      "heldFeesOf(uint256)": {
        "params": {
          "_projectId": "The ID of the project for which fees are being held."
        },
        "returns": {
          "_0": "An array of fees that are being held."
        }
      },
      "migrate(uint256,address)": {
        "details": "Only a project's owner or a designated operator can migrate it.",
        "params": {
          "_projectId": "The ID of the project being migrated.",
          "_to": "The terminal contract that will gain the project's funds."
        }
      },
      "owner()": {
        "details": "Returns the address of the current owner."
      },
      "pay(uint256,address,uint256,bool,string,bytes)": {
        "details": "The msg.value is the amount of the contribution in wei.",
        "params": {
          "_beneficiary": "The address to mint tokens for and pass along to the funding cycle's data source and delegate.",
          "_delegateMetadata": "Bytes to send along to the delegate, if one is provided.",
          "_memo": "A memo to pass along to the emitted event, and passed along the the funding cycle's data source and delegate.",
          "_minReturnedTokens": "The minimum number of tokens expected in return.",
          "_preferClaimedTokens": "A flag indicating whether the request prefers to issue tokens unstaked rather than staked.",
          "_projectId": "The ID of the project being paid."
        },
        "returns": {
          "_0": "The number of the funding cycle that the payment was made during."
        }
      },
      "processFees(uint256)": {
        "details": "Only a project owner, an operator, or the contract's owner can process held fees.",
        "params": {
          "_projectId": "The ID of the project whos held fees should be processed."
        }
      },
      "redeemTokensOf(address,uint256,uint256,uint256,address,string,bytes)": {
        "details": "Only a token's holder or a designated operator can redeem it.",
        "params": {
          "_beneficiary": "The address to send the ETH to. Send the address this contract to burn the count.",
          "_delegateMetadata": "Bytes to send along to the delegate, if one is provided.",
          "_holder": "The account to redeem tokens for.",
          "_memo": "A memo to pass along to the emitted event.",
          "_minReturnedWei": "The minimum amount of Wei expected in return.",
          "_projectId": "The ID of the project to which the tokens being redeemed belong.",
          "_tokenCount": "The number of tokens to redeem."
        },
        "returns": {
          "claimAmount": "The amount of ETH that the tokens were redeemed for, in wei."
        }
      },
      "renounceOwnership()": {
        "details": "Leaves the contract without owner. It will not be possible to call `onlyOwner` functions anymore. Can only be called by the current owner. NOTE: Renouncing ownership will leave the contract without an owner, thereby removing any functionality that is only available to the owner."
      },
      "transferOwnership(address)": {
        "details": "Transfers ownership of the contract to a new account (`newOwner`). Can only be called by the current owner."
      },
      "useAllowanceOf(uint256,uint256,uint256,uint256,address)": {
        "details": " Only a project's owner or a designated operator can migrate it.",
        "params": {
          "_amount": "The amount of the allowance to use.",
          "_beneficiary": "The address to send the funds to.",
          "_projectId": "The ID of the project to use the allowance of."
        },
        "returns": {
          "_0": "The ID of the funding cycle during which the allowance was use."
        }
      }
    },
    "stateVariables": {
      "token": {
        "details": "ETH is represented as address 0x0000000000000000000000000000000000042069."
      }
    },
    "version": 1
  },
  "userdoc": {
    "errors": {
      "PRBMath__MulDivOverflow(uint256,uint256)": [
        {
          "notice": "Emitted when the result overflows uint256."
        }
      ]
    },
    "kind": "user",
    "methods": {
      "addToBalanceOf(uint256,string)": {
        "notice": "Receives funds belonging to the specified project."
      },
      "delegate()": {
        "notice": "An address that serves as this terminal's delegate when making requests to juicebox ecosystem contracts."
      },
      "directory()": {
        "notice": "The directory of terminals and controllers for projects."
      },
      "distributePayoutsOf(uint256,uint256,uint256,uint256,string)": {
        "notice": " Distributes payouts for a project according to the constraints of its current funding cycle."
      },
      "ethBalanceOf(uint256)": {
        "notice": " The ETH balance that this terminal holds for each project."
      },
      "heldFeesOf(uint256)": {
        "notice": " The fees that are currently being held to be processed later for each project."
      },
      "migrate(uint256,address)": {
        "notice": "Allows a project owner to migrate its funds and operations to a new terminal."
      },
      "operatorStore()": {
        "notice": " A contract storing operator assignments."
      },
      "pay(uint256,address,uint256,bool,string,bytes)": {
        "notice": "Contribute ETH to a project."
      },
      "processFees(uint256)": {
        "notice": "Process any fees that are being held for the project."
      },
      "projects()": {
        "notice": "The Projects contract which mints ERC-721's that represent project ownership and transfers."
      },
      "redeemTokensOf(address,uint256,uint256,uint256,address,string,bytes)": {
        "notice": "Addresses can redeem their tokens to claim the project's overflowed ETH, or to trigger rules determined by the project's current funding cycle's data source."
      },
      "splitsStore()": {
        "notice": "The contract that stores splits for each project."
      },
      "store()": {
        "notice": " The contract that stores and manages the terminal's data."
      },
      "token()": {
        "notice": " The token that this terminal accepts. "
      },
      "useAllowanceOf(uint256,uint256,uint256,uint256,address)": {
        "notice": " Allows a project to send funds from its overflow up to the preconfigured allowance."
      }
    },
    "notice": "This contract manages all inflows and outflows of funds into the Juicebox ecosystem.",
    "version": 1
  },
  "storageLayout": {
    "storage": [
      {
        "astId": 53,
        "contract": "contracts/v2/JBETHPaymentTerminal.sol:JBETHPaymentTerminal",
        "label": "_owner",
        "offset": 0,
        "slot": "0",
        "type": "t_address"
      },
      {
        "astId": 160,
        "contract": "contracts/v2/JBETHPaymentTerminal.sol:JBETHPaymentTerminal",
        "label": "_status",
        "offset": 0,
        "slot": "1",
        "type": "t_uint256"
      },
      {
        "astId": 17440,
        "contract": "contracts/v2/JBETHPaymentTerminal.sol:JBETHPaymentTerminal",
        "label": "_heldFeesOf",
        "offset": 0,
        "slot": "2",
        "type": "t_mapping(t_uint256,t_array(t_struct(JBFee)26022_storage)dyn_storage)"
      }
    ],
    "types": {
      "t_address": {
        "encoding": "inplace",
        "label": "address",
        "numberOfBytes": "20"
      },
      "t_array(t_struct(JBFee)26022_storage)dyn_storage": {
        "base": "t_struct(JBFee)26022_storage",
        "encoding": "dynamic_array",
        "label": "struct JBFee[]",
        "numberOfBytes": "32"
      },
      "t_mapping(t_uint256,t_array(t_struct(JBFee)26022_storage)dyn_storage)": {
        "encoding": "mapping",
        "key": "t_uint256",
        "label": "mapping(uint256 => struct JBFee[])",
        "numberOfBytes": "32",
        "value": "t_array(t_struct(JBFee)26022_storage)dyn_storage"
      },
      "t_string_storage": {
        "encoding": "bytes",
        "label": "string",
        "numberOfBytes": "32"
      },
      "t_struct(JBFee)26022_storage": {
        "encoding": "inplace",
        "label": "struct JBFee",
        "members": [
          {
            "astId": 26017,
            "contract": "contracts/v2/JBETHPaymentTerminal.sol:JBETHPaymentTerminal",
            "label": "amount",
            "offset": 0,
            "slot": "0",
            "type": "t_uint256"
          },
          {
            "astId": 26019,
            "contract": "contracts/v2/JBETHPaymentTerminal.sol:JBETHPaymentTerminal",
            "label": "beneficiary",
            "offset": 0,
            "slot": "1",
            "type": "t_address"
          },
          {
            "astId": 26021,
            "contract": "contracts/v2/JBETHPaymentTerminal.sol:JBETHPaymentTerminal",
            "label": "memo",
            "offset": 0,
            "slot": "2",
            "type": "t_string_storage"
          }
        ],
        "numberOfBytes": "96"
      },
      "t_uint256": {
        "encoding": "inplace",
        "label": "uint256",
        "numberOfBytes": "32"
      }
    }
  }
}