{
  "address": "0x30ED7eA3EE4ade707fe64e09705895C6Fc993627",
  "abi": [
    {
      "inputs": [
        {
          "internalType": "uint256",
          "name": "_baseWeightCurrency",
          "type": "uint256"
        },
        {
          "internalType": "contract IJBOperatorStore",
          "name": "_operatorStore",
          "type": "address"
        },
        {
          "internalType": "contract IJBProjects",
          "name": "_projects",
          "type": "address"
        },
        {
          "internalType": "contract IJBDirectory",
          "name": "_directory",
          "type": "address"
        },
        {
          "internalType": "contract IJBSplitsStore",
          "name": "_splitsStore",
          "type": "address"
        },
        {
          "internalType": "contract IJBPrices",
          "name": "_prices",
          "type": "address"
        },
        {
          "internalType": "contract IJBPaymentTerminalStore",
          "name": "_store",
          "type": "address"
        },
        {
          "internalType": "address",
          "name": "_owner",
          "type": "address"
        }
      ],
      "stateMutability": "nonpayable",
      "type": "constructor"
    },
    {
      "inputs": [],
      "name": "FEE_TOO_HIGH",
      "type": "error"
    },
    {
      "inputs": [],
      "name": "INADEQUATE_DISTRIBUTION_AMOUNT",
      "type": "error"
    },
    {
      "inputs": [],
      "name": "INADEQUATE_RECLAIM_AMOUNT",
      "type": "error"
    },
    {
      "inputs": [],
      "name": "INADEQUATE_TOKEN_COUNT",
      "type": "error"
    },
    {
      "inputs": [],
      "name": "NO_MSG_VALUE_ALLOWED",
      "type": "error"
    },
    {
      "inputs": [],
      "name": "PAY_TO_ZERO_ADDRESS",
      "type": "error"
    },
    {
      "inputs": [
        {
          "internalType": "uint256",
          "name": "prod1",
          "type": "uint256"
        },
        {
          "internalType": "uint256",
          "name": "denominator",
          "type": "uint256"
        }
      ],
      "name": "PRBMath__MulDivOverflow",
      "type": "error"
    },
    {
      "inputs": [],
      "name": "PROJECT_TERMINAL_MISMATCH",
      "type": "error"
    },
    {
      "inputs": [],
      "name": "REDEEM_TO_ZERO_ADDRESS",
      "type": "error"
    },
    {
      "inputs": [],
      "name": "TERMINAL_IN_SPLIT_ZERO_ADDRESS",
      "type": "error"
    },
    {
      "inputs": [],
      "name": "TERMINAL_TOKENS_INCOMPATIBLE",
      "type": "error"
    },
    {
      "inputs": [],
      "name": "UNAUTHORIZED",
      "type": "error"
    },
    {
      "anonymous": false,
      "inputs": [
        {
          "indexed": true,
          "internalType": "uint256",
          "name": "projectId",
          "type": "uint256"
        },
        {
          "indexed": false,
          "internalType": "uint256",
          "name": "amount",
          "type": "uint256"
        },
        {
          "indexed": false,
          "internalType": "string",
          "name": "memo",
          "type": "string"
        },
        {
          "indexed": false,
          "internalType": "address",
          "name": "caller",
          "type": "address"
        }
      ],
      "name": "AddToBalance",
      "type": "event"
    },
    {
      "anonymous": false,
      "inputs": [
        {
          "indexed": true,
          "internalType": "contract IJBPayDelegate",
          "name": "delegate",
          "type": "address"
        },
        {
          "components": [
            {
              "internalType": "address",
              "name": "payer",
              "type": "address"
            },
            {
              "internalType": "uint256",
              "name": "projectId",
              "type": "uint256"
            },
            {
              "components": [
                {
                  "internalType": "address",
                  "name": "token",
                  "type": "address"
                },
                {
                  "internalType": "uint256",
                  "name": "value",
                  "type": "uint256"
                },
                {
                  "internalType": "uint256",
                  "name": "decimals",
                  "type": "uint256"
                },
                {
                  "internalType": "uint256",
                  "name": "currency",
                  "type": "uint256"
                }
              ],
              "internalType": "struct JBTokenAmount",
              "name": "amount",
              "type": "tuple"
            },
            {
              "internalType": "uint256",
              "name": "projectTokenCount",
              "type": "uint256"
            },
            {
              "internalType": "address",
              "name": "beneficiary",
              "type": "address"
            },
            {
              "internalType": "string",
              "name": "memo",
              "type": "string"
            },
            {
              "internalType": "bytes",
              "name": "metadata",
              "type": "bytes"
            }
          ],
          "indexed": false,
          "internalType": "struct JBDidPayData",
          "name": "data",
          "type": "tuple"
        },
        {
          "indexed": false,
          "internalType": "address",
          "name": "caller",
          "type": "address"
        }
      ],
      "name": "DelegateDidPay",
      "type": "event"
    },
    {
      "anonymous": false,
      "inputs": [
        {
          "indexed": true,
          "internalType": "contract IJBRedemptionDelegate",
          "name": "delegate",
          "type": "address"
        },
        {
          "components": [
            {
              "internalType": "address",
              "name": "holder",
              "type": "address"
            },
            {
              "internalType": "uint256",
              "name": "projectId",
              "type": "uint256"
            },
            {
              "internalType": "uint256",
              "name": "projectTokenCount",
              "type": "uint256"
            },
            {
              "components": [
                {
                  "internalType": "address",
                  "name": "token",
                  "type": "address"
                },
                {
                  "internalType": "uint256",
                  "name": "value",
                  "type": "uint256"
                },
                {
                  "internalType": "uint256",
                  "name": "decimals",
                  "type": "uint256"
                },
                {
                  "internalType": "uint256",
                  "name": "currency",
                  "type": "uint256"
                }
              ],
              "internalType": "struct JBTokenAmount",
              "name": "reclaimedAmount",
              "type": "tuple"
            },
            {
              "internalType": "address payable",
              "name": "beneficiary",
              "type": "address"
            },
            {
              "internalType": "string",
              "name": "memo",
              "type": "string"
            },
            {
              "internalType": "bytes",
              "name": "metadata",
              "type": "bytes"
            }
          ],
          "indexed": false,
          "internalType": "struct JBDidRedeemData",
          "name": "data",
          "type": "tuple"
        },
        {
          "indexed": false,
          "internalType": "address",
          "name": "caller",
          "type": "address"
        }
      ],
      "name": "DelegateDidRedeem",
      "type": "event"
    },
    {
      "anonymous": false,
      "inputs": [
        {
          "indexed": true,
          "internalType": "uint256",
          "name": "fundingCycleConfiguration",
          "type": "uint256"
        },
        {
          "indexed": true,
          "internalType": "uint256",
          "name": "fundingCycleNumber",
          "type": "uint256"
        },
        {
          "indexed": true,
          "internalType": "uint256",
          "name": "projectId",
          "type": "uint256"
        },
        {
          "indexed": false,
          "internalType": "address",
          "name": "beneficiary",
          "type": "address"
        },
        {
          "indexed": false,
          "internalType": "uint256",
          "name": "amount",
          "type": "uint256"
        },
        {
          "indexed": false,
          "internalType": "uint256",
          "name": "distributedAmount",
          "type": "uint256"
        },
        {
          "indexed": false,
          "internalType": "uint256",
          "name": "fee",
          "type": "uint256"
        },
        {
          "indexed": false,
          "internalType": "uint256",
          "name": "beneficiaryDistributionAmount",
          "type": "uint256"
        },
        {
          "indexed": false,
          "internalType": "string",
          "name": "memo",
          "type": "string"
        },
        {
          "indexed": false,
          "internalType": "address",
          "name": "caller",
          "type": "address"
        }
      ],
      "name": "DistributePayouts",
      "type": "event"
    },
    {
      "anonymous": false,
      "inputs": [
        {
          "indexed": true,
          "internalType": "uint256",
          "name": "projectId",
          "type": "uint256"
        },
        {
          "indexed": true,
          "internalType": "uint256",
          "name": "domain",
          "type": "uint256"
        },
        {
          "indexed": true,
          "internalType": "uint256",
          "name": "group",
          "type": "uint256"
        },
        {
          "components": [
            {
              "internalType": "bool",
              "name": "preferClaimed",
              "type": "bool"
            },
            {
              "internalType": "bool",
              "name": "preferAddToBalance",
              "type": "bool"
            },
            {
              "internalType": "uint256",
              "name": "percent",
              "type": "uint256"
            },
            {
              "internalType": "uint256",
              "name": "projectId",
              "type": "uint256"
            },
            {
              "internalType": "address payable",
              "name": "beneficiary",
              "type": "address"
            },
            {
              "internalType": "uint256",
              "name": "lockedUntil",
              "type": "uint256"
            },
            {
              "internalType": "contract IJBSplitAllocator",
              "name": "allocator",
              "type": "address"
            }
          ],
          "indexed": false,
          "internalType": "struct JBSplit",
          "name": "split",
          "type": "tuple"
        },
        {
          "indexed": false,
          "internalType": "uint256",
          "name": "amount",
          "type": "uint256"
        },
        {
          "indexed": false,
          "internalType": "address",
          "name": "caller",
          "type": "address"
        }
      ],
      "name": "DistributeToPayoutSplit",
      "type": "event"
    },
    {
      "anonymous": false,
      "inputs": [
        {
          "indexed": true,
          "internalType": "uint256",
          "name": "projectId",
          "type": "uint256"
        },
        {
          "indexed": true,
          "internalType": "contract IJBPaymentTerminal",
          "name": "to",
          "type": "address"
        },
        {
          "indexed": false,
          "internalType": "uint256",
          "name": "amount",
          "type": "uint256"
        },
        {
          "indexed": false,
          "internalType": "address",
          "name": "caller",
          "type": "address"
        }
      ],
      "name": "Migrate",
      "type": "event"
    },
    {
      "anonymous": false,
      "inputs": [
        {
          "indexed": true,
          "internalType": "address",
          "name": "previousOwner",
          "type": "address"
        },
        {
          "indexed": true,
          "internalType": "address",
          "name": "newOwner",
          "type": "address"
        }
      ],
      "name": "OwnershipTransferred",
      "type": "event"
    },
    {
      "anonymous": false,
      "inputs": [
        {
          "indexed": true,
          "internalType": "uint256",
          "name": "fundingCycleConfiguration",
          "type": "uint256"
        },
        {
          "indexed": true,
          "internalType": "uint256",
          "name": "fundingCycleNumber",
          "type": "uint256"
        },
        {
          "indexed": true,
          "internalType": "uint256",
          "name": "projectId",
          "type": "uint256"
        },
        {
          "indexed": false,
          "internalType": "address",
          "name": "payer",
          "type": "address"
        },
        {
          "indexed": false,
          "internalType": "address",
          "name": "beneficiary",
          "type": "address"
        },
        {
          "indexed": false,
          "internalType": "uint256",
          "name": "amount",
          "type": "uint256"
        },
        {
          "indexed": false,
          "internalType": "uint256",
          "name": "beneficiaryTokenCount",
          "type": "uint256"
        },
        {
          "indexed": false,
          "internalType": "string",
          "name": "memo",
          "type": "string"
        },
        {
          "indexed": false,
          "internalType": "address",
          "name": "caller",
          "type": "address"
        }
      ],
      "name": "Pay",
      "type": "event"
    },
    {
      "anonymous": false,
      "inputs": [
        {
          "indexed": true,
          "internalType": "uint256",
          "name": "projectId",
          "type": "uint256"
        },
        {
          "components": [
            {
              "internalType": "uint256",
              "name": "amount",
              "type": "uint256"
            },
            {
              "internalType": "uint32",
              "name": "fee",
              "type": "uint32"
            },
            {
              "internalType": "uint32",
              "name": "feeDiscount",
              "type": "uint32"
            },
            {
              "internalType": "address",
              "name": "beneficiary",
              "type": "address"
            }
          ],
          "indexed": false,
          "internalType": "struct JBFee[]",
          "name": "fees",
          "type": "tuple[]"
        },
        {
          "indexed": false,
          "internalType": "address",
          "name": "caller",
          "type": "address"
        }
      ],
      "name": "ProcessFees",
      "type": "event"
    },
    {
      "anonymous": false,
      "inputs": [
        {
          "indexed": true,
          "internalType": "uint256",
          "name": "fundingCycleConfiguration",
          "type": "uint256"
        },
        {
          "indexed": true,
          "internalType": "uint256",
          "name": "fundingCycleNumber",
          "type": "uint256"
        },
        {
          "indexed": true,
          "internalType": "uint256",
          "name": "projectId",
          "type": "uint256"
        },
        {
          "indexed": false,
          "internalType": "address",
          "name": "holder",
          "type": "address"
        },
        {
          "indexed": false,
          "internalType": "address",
          "name": "beneficiary",
          "type": "address"
        },
        {
          "indexed": false,
          "internalType": "uint256",
          "name": "tokenCount",
          "type": "uint256"
        },
        {
          "indexed": false,
          "internalType": "uint256",
          "name": "reclaimedAmount",
          "type": "uint256"
        },
        {
          "indexed": false,
          "internalType": "string",
          "name": "memo",
          "type": "string"
        },
        {
          "indexed": false,
          "internalType": "address",
          "name": "caller",
          "type": "address"
        }
      ],
      "name": "RedeemTokens",
      "type": "event"
    },
    {
      "anonymous": false,
      "inputs": [
        {
          "indexed": false,
          "internalType": "uint256",
          "name": "fee",
          "type": "uint256"
        },
        {
          "indexed": false,
          "internalType": "address",
          "name": "caller",
          "type": "address"
        }
      ],
      "name": "SetFee",
      "type": "event"
    },
    {
      "anonymous": false,
      "inputs": [
        {
          "indexed": true,
          "internalType": "contract IJBFeeGauge",
          "name": "feeGauge",
          "type": "address"
        },
        {
          "indexed": false,
          "internalType": "address",
          "name": "caller",
          "type": "address"
        }
      ],
      "name": "SetFeeGauge",
      "type": "event"
    },
    {
      "anonymous": false,
      "inputs": [
        {
          "indexed": true,
          "internalType": "contract IJBPaymentTerminal",
          "name": "terminal",
          "type": "address"
        },
        {
          "indexed": true,
          "internalType": "bool",
          "name": "flag",
          "type": "bool"
        },
        {
          "indexed": false,
          "internalType": "address",
          "name": "caller",
          "type": "address"
        }
      ],
      "name": "SetFeelessTerminal",
      "type": "event"
    },
    {
      "anonymous": false,
      "inputs": [
        {
          "indexed": true,
          "internalType": "uint256",
          "name": "fundingCycleConfiguration",
          "type": "uint256"
        },
        {
          "indexed": true,
          "internalType": "uint256",
          "name": "fundingCycleNumber",
          "type": "uint256"
        },
        {
          "indexed": true,
          "internalType": "uint256",
          "name": "projectId",
          "type": "uint256"
        },
        {
          "indexed": false,
          "internalType": "address",
          "name": "beneficiary",
          "type": "address"
        },
        {
          "indexed": false,
          "internalType": "uint256",
          "name": "amount",
          "type": "uint256"
        },
        {
          "indexed": false,
          "internalType": "uint256",
          "name": "distributedAmount",
          "type": "uint256"
        },
        {
          "indexed": false,
          "internalType": "uint256",
          "name": "netDistributedamount",
          "type": "uint256"
        },
        {
          "indexed": false,
          "internalType": "string",
          "name": "memo",
          "type": "string"
        },
        {
          "indexed": false,
          "internalType": "address",
          "name": "caller",
          "type": "address"
        }
      ],
      "name": "UseAllowance",
      "type": "event"
    },
    {
      "inputs": [
        {
          "internalType": "address",
          "name": "_token",
          "type": "address"
        }
      ],
      "name": "acceptsToken",
      "outputs": [
        {
          "internalType": "bool",
          "name": "",
          "type": "bool"
        }
      ],
      "stateMutability": "view",
      "type": "function"
    },
    {
      "inputs": [
        {
          "internalType": "uint256",
          "name": "_projectId",
          "type": "uint256"
        },
        {
          "internalType": "uint256",
          "name": "_amount",
          "type": "uint256"
        },
        {
          "internalType": "address",
          "name": "",
          "type": "address"
        },
        {
          "internalType": "string",
          "name": "_memo",
          "type": "string"
        }
      ],
      "name": "addToBalanceOf",
      "outputs": [],
      "stateMutability": "payable",
      "type": "function"
    },
    {
      "inputs": [],
      "name": "baseWeightCurrency",
      "outputs": [
        {
          "internalType": "uint256",
          "name": "",
          "type": "uint256"
        }
      ],
      "stateMutability": "view",
      "type": "function"
    },
    {
      "inputs": [],
      "name": "currency",
      "outputs": [
        {
          "internalType": "uint256",
          "name": "",
          "type": "uint256"
        }
      ],
      "stateMutability": "view",
      "type": "function"
    },
    {
      "inputs": [
        {
          "internalType": "address",
          "name": "",
          "type": "address"
        }
      ],
      "name": "currencyForToken",
      "outputs": [
        {
          "internalType": "uint256",
          "name": "",
          "type": "uint256"
        }
      ],
      "stateMutability": "view",
      "type": "function"
    },
    {
      "inputs": [
        {
          "internalType": "uint256",
          "name": "_projectId",
          "type": "uint256"
        }
      ],
      "name": "currentEthOverflowOf",
      "outputs": [
        {
          "internalType": "uint256",
          "name": "",
          "type": "uint256"
        }
      ],
      "stateMutability": "view",
      "type": "function"
    },
    {
      "inputs": [],
      "name": "decimals",
      "outputs": [
        {
          "internalType": "uint256",
          "name": "",
          "type": "uint256"
        }
      ],
      "stateMutability": "view",
      "type": "function"
    },
    {
      "inputs": [
        {
          "internalType": "address",
          "name": "",
          "type": "address"
        }
      ],
      "name": "decimalsForToken",
      "outputs": [
        {
          "internalType": "uint256",
          "name": "",
          "type": "uint256"
        }
      ],
      "stateMutability": "view",
      "type": "function"
    },
    {
      "inputs": [],
      "name": "directory",
      "outputs": [
        {
          "internalType": "contract IJBDirectory",
          "name": "",
          "type": "address"
        }
      ],
      "stateMutability": "view",
      "type": "function"
    },
    {
      "inputs": [
        {
          "internalType": "uint256",
          "name": "_projectId",
          "type": "uint256"
        },
        {
          "internalType": "uint256",
          "name": "_amount",
          "type": "uint256"
        },
        {
          "internalType": "uint256",
          "name": "_currency",
          "type": "uint256"
        },
        {
          "internalType": "uint256",
          "name": "_minReturnedTokens",
          "type": "uint256"
        },
        {
          "internalType": "string",
          "name": "_memo",
          "type": "string"
        }
      ],
      "name": "distributePayoutsOf",
      "outputs": [
        {
          "internalType": "uint256",
          "name": "netLeftoverDistributionAmount",
          "type": "uint256"
        }
      ],
      "stateMutability": "nonpayable",
      "type": "function"
    },
    {
      "inputs": [],
      "name": "fee",
      "outputs": [
        {
          "internalType": "uint256",
          "name": "",
          "type": "uint256"
        }
      ],
      "stateMutability": "view",
      "type": "function"
    },
    {
      "inputs": [],
      "name": "feeGauge",
      "outputs": [
        {
          "internalType": "contract IJBFeeGauge",
          "name": "",
          "type": "address"
        }
      ],
      "stateMutability": "view",
      "type": "function"
    },
    {
      "inputs": [
        {
          "internalType": "uint256",
          "name": "_projectId",
          "type": "uint256"
        }
      ],
      "name": "heldFeesOf",
      "outputs": [
        {
          "components": [
            {
              "internalType": "uint256",
              "name": "amount",
              "type": "uint256"
            },
            {
              "internalType": "uint32",
              "name": "fee",
              "type": "uint32"
            },
            {
              "internalType": "uint32",
              "name": "feeDiscount",
              "type": "uint32"
            },
            {
              "internalType": "address",
              "name": "beneficiary",
              "type": "address"
            }
          ],
          "internalType": "struct JBFee[]",
          "name": "",
          "type": "tuple[]"
        }
      ],
      "stateMutability": "view",
      "type": "function"
    },
    {
      "inputs": [
        {
          "internalType": "contract IJBPaymentTerminal",
          "name": "",
          "type": "address"
        }
      ],
      "name": "isFeelessTerminal",
      "outputs": [
        {
          "internalType": "bool",
          "name": "",
          "type": "bool"
        }
      ],
      "stateMutability": "view",
      "type": "function"
    },
    {
      "inputs": [
        {
          "internalType": "uint256",
          "name": "_projectId",
          "type": "uint256"
        },
        {
          "internalType": "contract IJBPaymentTerminal",
          "name": "_to",
          "type": "address"
        }
      ],
      "name": "migrate",
      "outputs": [
        {
          "internalType": "uint256",
          "name": "balance",
          "type": "uint256"
        }
      ],
      "stateMutability": "nonpayable",
      "type": "function"
    },
    {
      "inputs": [],
      "name": "operatorStore",
      "outputs": [
        {
          "internalType": "contract IJBOperatorStore",
          "name": "",
          "type": "address"
        }
      ],
      "stateMutability": "view",
      "type": "function"
    },
    {
      "inputs": [],
      "name": "owner",
      "outputs": [
        {
          "internalType": "address",
          "name": "",
          "type": "address"
        }
      ],
      "stateMutability": "view",
      "type": "function"
    },
    {
      "inputs": [
        {
          "internalType": "uint256",
          "name": "_projectId",
          "type": "uint256"
        },
        {
          "internalType": "uint256",
          "name": "_amount",
          "type": "uint256"
        },
        {
          "internalType": "address",
          "name": "",
          "type": "address"
        },
        {
          "internalType": "address",
          "name": "_beneficiary",
          "type": "address"
        },
        {
          "internalType": "uint256",
          "name": "_minReturnedTokens",
          "type": "uint256"
        },
        {
          "internalType": "bool",
          "name": "_preferClaimedTokens",
          "type": "bool"
        },
        {
          "internalType": "string",
          "name": "_memo",
          "type": "string"
        },
        {
          "internalType": "bytes",
          "name": "_metadata",
          "type": "bytes"
        }
      ],
      "name": "pay",
      "outputs": [
        {
          "internalType": "uint256",
          "name": "",
          "type": "uint256"
        }
      ],
      "stateMutability": "payable",
      "type": "function"
    },
    {
      "inputs": [],
      "name": "payoutSplitsGroup",
      "outputs": [
        {
          "internalType": "uint256",
          "name": "",
          "type": "uint256"
        }
      ],
      "stateMutability": "view",
      "type": "function"
    },
    {
      "inputs": [],
      "name": "prices",
      "outputs": [
        {
          "internalType": "contract IJBPrices",
          "name": "",
          "type": "address"
        }
      ],
      "stateMutability": "view",
      "type": "function"
    },
    {
      "inputs": [
        {
          "internalType": "uint256",
          "name": "_projectId",
          "type": "uint256"
        }
      ],
      "name": "processFees",
      "outputs": [],
      "stateMutability": "nonpayable",
      "type": "function"
    },
    {
      "inputs": [],
      "name": "projects",
      "outputs": [
        {
          "internalType": "contract IJBProjects",
          "name": "",
          "type": "address"
        }
      ],
      "stateMutability": "view",
      "type": "function"
    },
    {
      "inputs": [
        {
          "internalType": "address",
          "name": "_holder",
          "type": "address"
        },
        {
          "internalType": "uint256",
          "name": "_projectId",
          "type": "uint256"
        },
        {
          "internalType": "uint256",
          "name": "_tokenCount",
          "type": "uint256"
        },
        {
          "internalType": "uint256",
          "name": "_minReturnedTokens",
          "type": "uint256"
        },
        {
          "internalType": "address payable",
          "name": "_beneficiary",
          "type": "address"
        },
        {
          "internalType": "string",
          "name": "_memo",
          "type": "string"
        },
        {
          "internalType": "bytes",
          "name": "_metadata",
          "type": "bytes"
        }
      ],
      "name": "redeemTokensOf",
      "outputs": [
        {
          "internalType": "uint256",
          "name": "reclaimAmount",
          "type": "uint256"
        }
      ],
      "stateMutability": "nonpayable",
      "type": "function"
    },
    {
      "inputs": [],
      "name": "renounceOwnership",
      "outputs": [],
      "stateMutability": "nonpayable",
      "type": "function"
    },
    {
      "inputs": [
        {
          "internalType": "uint256",
          "name": "_fee",
          "type": "uint256"
        }
      ],
      "name": "setFee",
      "outputs": [],
      "stateMutability": "nonpayable",
      "type": "function"
    },
    {
      "inputs": [
        {
          "internalType": "contract IJBFeeGauge",
          "name": "_feeGauge",
          "type": "address"
        }
      ],
      "name": "setFeeGauge",
      "outputs": [],
      "stateMutability": "nonpayable",
      "type": "function"
    },
    {
      "inputs": [
        {
          "internalType": "contract IJBPaymentTerminal",
          "name": "_terminal",
          "type": "address"
        },
        {
          "internalType": "bool",
          "name": "_flag",
          "type": "bool"
        }
      ],
      "name": "setFeelessTerminal",
      "outputs": [],
      "stateMutability": "nonpayable",
      "type": "function"
    },
    {
      "inputs": [],
      "name": "splitsStore",
      "outputs": [
        {
          "internalType": "contract IJBSplitsStore",
          "name": "",
          "type": "address"
        }
      ],
      "stateMutability": "view",
      "type": "function"
    },
    {
      "inputs": [],
      "name": "store",
      "outputs": [
        {
          "internalType": "contract IJBPaymentTerminalStore",
          "name": "",
          "type": "address"
        }
      ],
      "stateMutability": "view",
      "type": "function"
    },
    {
      "inputs": [],
      "name": "token",
      "outputs": [
        {
          "internalType": "address",
          "name": "",
          "type": "address"
        }
      ],
      "stateMutability": "view",
      "type": "function"
    },
    {
      "inputs": [
        {
          "internalType": "address",
          "name": "newOwner",
          "type": "address"
        }
      ],
      "name": "transferOwnership",
      "outputs": [],
      "stateMutability": "nonpayable",
      "type": "function"
    },
    {
      "inputs": [
        {
          "internalType": "uint256",
          "name": "_projectId",
          "type": "uint256"
        },
        {
          "internalType": "uint256",
          "name": "_amount",
          "type": "uint256"
        },
        {
          "internalType": "uint256",
          "name": "_currency",
          "type": "uint256"
        },
        {
          "internalType": "uint256",
          "name": "_minReturnedTokens",
          "type": "uint256"
        },
        {
          "internalType": "address payable",
          "name": "_beneficiary",
          "type": "address"
        },
        {
          "internalType": "string",
          "name": "_memo",
          "type": "string"
        }
      ],
      "name": "useAllowanceOf",
      "outputs": [
        {
          "internalType": "uint256",
          "name": "netDistributedAmount",
          "type": "uint256"
        }
      ],
      "stateMutability": "nonpayable",
      "type": "function"
    }
  ],
  "transactionHash": "0xfc1229a1df9c60d585dd709df579c2fd98dfe169382e6beaf8736345cc9403bb",
  "args": [
    "1",
    "0x2186Eca004D07eBd5c66c2FF371107d81455f9b3",
    "0x2206f10e626dAc1b3F90eC98E4791F406e006351",
    "0xaA26Ab5aee0a6428D32Bed114968C2a315483c04",
    "0xfFfe081D0Ba0Bd874F84bf861F76fCfc82dcF095",
    "0x53f80d3c8F2A05fCfe934f7829Ade3EBfc22Bc76",
    "0xF4a9D3c31dfBdDe680d50811336cE25Fb1eA548c",
    "0xAF28bcB48C40dBC86f52D459A6562F658fc94B1e"
  ],
  "numDeployments": 12,
  "solcInputHash": "c0f3fc8aab6e6d623a274a19ce38362f",
  "bytecode": "0x6101e060405263017d78406003553480156200001a57600080fd5b5060405162005f7b38038062005f7b8339810160408190526200003d9162000219565b6deeee000000000000000000000000608052601260a0819052600160c0819052606089901b6001600160601b03191660e05261eeee91908a818b8b8b8b8b8b8b6200008833620000f4565b600180556101a08990526101c08890526001600160601b0319606087811b82166101005286811b82166101205285811b82166101405284811b82166101605283901b1661018052620000da8162000144565b5050505050505050505050505050505050505050620002e4565b600080546001600160a01b038381166001600160a01b0319831681178455604051919092169283917f8be0079c531659141344cd1fd0a4f28419497f9722a3daafe3b4186f6b6457e09190a35050565b6000546001600160a01b03163314620001a45760405162461bcd60e51b815260206004820181905260248201527f4f776e61626c653a2063616c6c6572206973206e6f7420746865206f776e657260448201526064015b60405180910390fd5b6001600160a01b0381166200020b5760405162461bcd60e51b815260206004820152602660248201527f4f776e61626c653a206e6577206f776e657220697320746865207a65726f206160448201526564647265737360d01b60648201526084016200019b565b6200021681620000f4565b50565b600080600080600080600080610100898b0312156200023757600080fd5b8851975060208901516200024b81620002ce565b60408a01519097506200025e81620002ce565b60608a01519096506200027181620002ce565b60808a01519095506200028481620002ce565b60a08a01519094506200029781620002ce565b60c08a0151909350620002aa81620002ce565b60e08a0151909250620002bd81620002ce565b809150509295985092959890939650565b6001600160a01b03811681146200021657600080fd5b60805160601c60a05160c05160e05160601c6101005160601c6101205160601c6101405160601c6101605160601c6101805160601c6101a0516101c051615a4962000532600039600081816103a301526124cd0152600081816102b9015261289901526000818161052201528181610cb80152818161100701528181611a8301528181611d9a0152818161231e0152818161285a015261376b0152600081816106510152611c3001526000818161026001526139f201526000818161061d015281816107dd0152818161189b01528181611f2a0152818161298e01528181612f3a015281816135480152613d770152600081816104c301528181610af701528181610eed0152818161110b015281816114fb015261240b01526000818161058901528181612d3a01528181612e16015281816132fe01526133da015260008181610206015281816106e801528181610fc701528181611b6201528181611bdd01528181611dfa01528181612126015281816122dc01526128340152600081816102ed015281816105e901528181611b0301528181611b2f01528181611b8f01528181611c0a01528181611dd9015281816121000152818161280e0152613be20152600081816104170152818161076c0152818161088f01528181610bd101528181610d5501528181610de601528181611962015281816120be015281816127cc01528181612f0d0152818161351d01528181613618015281816136c001528181613b4901528181613ba001528181613da401528181613fcb0152818161406e015261410c0152615a496000f3fe6080604052600436106101e35760003560e01c80638da5cb5b11610102578063d3419bf311610095578063e5a6b10f11610064578063e5a6b10f146106d6578063e730b26e1461070a578063f2fde38b1461073a578063fc0c546a1461075a57600080fd5b8063d3419bf31461063f578063d6dacc5314610673578063d930c60c146106a0578063ddca3f43146106c057600080fd5b8063ad007d63116100d1578063ad007d6314610577578063b6cf978e146105ab578063b7bad1b1146105cb578063c41c2f241461060b57600080fd5b80638da5cb5b146104e5578063975057e714610510578063a27255cc14610544578063a32e1e961461055757600080fd5b8063637913ac1161017a578063868399a511610149578063868399a5146103fa57806389701db5146104645780638af56094146104845780638b79543c146104b157600080fd5b8063637913ac1461037157806366248b861461039157806369fe0e2d146103c5578063715018a6146103e557600080fd5b8063313ce567116101b6578063313ce567146102db5780633b7be7ea1461030f578063405b84fa146103315780634ee9c5591461035157600080fd5b80631982d679146101e85780631ebc263f1461023b5780632bdfe0041461024e5780632d1a5903146102a7575b600080fd5b3480156101f457600080fd5b50610228610203366004614a6d565b507f000000000000000000000000000000000000000000000000000000000000000090565b6040519081526020015b60405180910390f35b610228610249366004614dd3565b61078e565b34801561025a57600080fd5b506102827f000000000000000000000000000000000000000000000000000000000000000081565b60405173ffffffffffffffffffffffffffffffffffffffff9091168152602001610232565b3480156102b357600080fd5b506102287f000000000000000000000000000000000000000000000000000000000000000081565b3480156102e757600080fd5b506102287f000000000000000000000000000000000000000000000000000000000000000081565b34801561031b57600080fd5b5061032f61032a366004614ca4565b6109b2565b005b34801561033d57600080fd5b5061022861034c366004614dae565b610ac5565b34801561035d57600080fd5b5061022861036c366004614f05565b610ebb565b34801561037d57600080fd5b5061032f61038c366004614a6d565b611246565b34801561039d57600080fd5b506102287f000000000000000000000000000000000000000000000000000000000000000081565b3480156103d157600080fd5b5061032f6103e0366004614d7c565b611340565b3480156103f157600080fd5b5061032f61143f565b34801561040657600080fd5b50610454610415366004614a6d565b7f000000000000000000000000000000000000000000000000000000000000000073ffffffffffffffffffffffffffffffffffffffff90811691161490565b6040519015158152602001610232565b34801561047057600080fd5b5061032f61047f366004614d7c565b6114cc565b34801561049057600080fd5b506104a461049f366004614d7c565b6117a5565b604051610232919061543d565b3480156104bd57600080fd5b506102827f000000000000000000000000000000000000000000000000000000000000000081565b3480156104f157600080fd5b5060005473ffffffffffffffffffffffffffffffffffffffff16610282565b34801561051c57600080fd5b506102827f000000000000000000000000000000000000000000000000000000000000000081565b61032f610552366004614e9b565b611864565b34801561056357600080fd5b50610228610572366004614d7c565b611a34565b34801561058357600080fd5b506102827f000000000000000000000000000000000000000000000000000000000000000081565b3480156105b757600080fd5b506102286105c6366004614aa7565b611cd3565b3480156105d757600080fd5b506102286105e6366004614a6d565b507f000000000000000000000000000000000000000000000000000000000000000090565b34801561061757600080fd5b506102827f000000000000000000000000000000000000000000000000000000000000000081565b34801561064b57600080fd5b506102827f000000000000000000000000000000000000000000000000000000000000000081565b34801561067f57600080fd5b506004546102829073ffffffffffffffffffffffffffffffffffffffff1681565b3480156106ac57600080fd5b506102286106bb366004614f7a565b61229f565b3480156106cc57600080fd5b5061022860035481565b3480156106e257600080fd5b506102287f000000000000000000000000000000000000000000000000000000000000000081565b34801561071657600080fd5b50610454610725366004614a6d565b60056020526000908152604090205460ff1681565b34801561074657600080fd5b5061032f610755366004614a6d565b6125c7565b34801561076657600080fd5b506102827f000000000000000000000000000000000000000000000000000000000000000081565b6040517f6e49181f000000000000000000000000000000000000000000000000000000008152600481018b90523060248201526000908b9073ffffffffffffffffffffffffffffffffffffffff7f00000000000000000000000000000000000000000000000000000000000000001690636e49181f9060440160206040518083038186803b15801561081f57600080fd5b505afa158015610833573d6000803e3d6000fd5b505050506040513d601f19601f820116820180604052508101906108579190614c87565b61088d576040517fd8ead2c800000000000000000000000000000000000000000000000000000000815260040160405180910390fd5b7f000000000000000000000000000000000000000000000000000000000000000073ffffffffffffffffffffffffffffffffffffffff1661eeee14610914573415610904576040517fbcfd35be00000000000000000000000000000000000000000000000000000000815260040160405180910390fd5b61090f33308d6126f7565b610918565b349a505b6109a28b338e8c8c8c8c8c8080601f016020809104026020016040519081016040528093929190818152602001838380828437600081840152601f19601f820116905080830192505050505050508b8b8080601f01602080910402602001604051908101604052809392919081815260200183838082843760009201919091525061270692505050565b9c9b505050505050505050505050565b60005473ffffffffffffffffffffffffffffffffffffffff163314610a38576040517f08c379a000000000000000000000000000000000000000000000000000000000815260206004820181905260248201527f4f776e61626c653a2063616c6c6572206973206e6f7420746865206f776e657260448201526064015b60405180910390fd5b73ffffffffffffffffffffffffffffffffffffffff821660008181526005602090815260409182902080547fffffffffffffffffffffffffffffffffffffffffffffffffffffffffffffff001685151590811790915591513381529192917ff870dc5d3fb30dcc6e5588de75dfd6a15c777db0fb8266158702569c081eef35910160405180910390a35050565b6040517f6352211e000000000000000000000000000000000000000000000000000000008152600481018390526000907f000000000000000000000000000000000000000000000000000000000000000073ffffffffffffffffffffffffffffffffffffffff1690636352211e9060240160206040518083038186803b158015610b4e57600080fd5b505afa158015610b62573d6000803e3d6000fd5b505050506040513d601f19601f82011682018060405250810190610b869190614a8a565b836004610b94838383612cc0565b6040517f868399a500000000000000000000000000000000000000000000000000000000815273ffffffffffffffffffffffffffffffffffffffff7f00000000000000000000000000000000000000000000000000000000000000008116600483015286169063868399a59060240160206040518083038186803b158015610c1b57600080fd5b505afa158015610c2f573d6000803e3d6000fd5b505050506040513d601f19601f82011682018060405250810190610c539190614c87565b610c89576040517f581010ed00000000000000000000000000000000000000000000000000000000815260040160405180910390fd5b6040517f6bb6a5ad000000000000000000000000000000000000000000000000000000008152600481018790527f000000000000000000000000000000000000000000000000000000000000000073ffffffffffffffffffffffffffffffffffffffff1690636bb6a5ad90602401602060405180830381600087803b158015610d1157600080fd5b505af1158015610d25573d6000803e3d6000fd5b505050506040513d601f19601f82011682018060405250810190610d499190614d95565b93508315610e605760007f000000000000000000000000000000000000000000000000000000000000000073ffffffffffffffffffffffffffffffffffffffff1661eeee14610d99576000610d9b565b845b6040517fa27255cc000000000000000000000000000000000000000000000000000000008152600481018990526024810187905273ffffffffffffffffffffffffffffffffffffffff7f00000000000000000000000000000000000000000000000000000000000000008116604483015260806064830152600060848301529192509087169063a27255cc90839060a4016000604051808303818588803b158015610e4557600080fd5b505af1158015610e59573d6000803e3d6000fd5b5050505050505b6040805185815233602082015273ffffffffffffffffffffffffffffffffffffffff87169188917fa7519e5f94697b7f53e97c5eb46a0c730a296ab686ab8fd333835c5f735784eb910160405180910390a350505092915050565b6040517f6352211e000000000000000000000000000000000000000000000000000000008152600481018790526000907f000000000000000000000000000000000000000000000000000000000000000073ffffffffffffffffffffffffffffffffffffffff1690636352211e9060240160206040518083038186803b158015610f4457600080fd5b505afa158015610f58573d6000803e3d6000fd5b505050506040513d601f19601f82011682018060405250810190610f7c9190614a8a565b876011610f8a838383612cc0565b6040517f1837d6e3000000000000000000000000000000000000000000000000000000008152600481018b9052602481018a9052604481018990527f00000000000000000000000000000000000000000000000000000000000000006064820152600090819073ffffffffffffffffffffffffffffffffffffffff7f00000000000000000000000000000000000000000000000000000000000000001690631837d6e39060840161014060405180830381600087803b15801561104c57600080fd5b505af1158015611060573d6000803e3d6000fd5b505050506040513d601f19601f820116820180604052508101906110849190614cdd565b91509150888110156110c2576040517fb01493c100000000000000000000000000000000000000000000000000000000815260040160405180910390fd5b6040517f6352211e000000000000000000000000000000000000000000000000000000008152600481018d9052600090819073ffffffffffffffffffffffffffffffffffffffff7f00000000000000000000000000000000000000000000000000000000000000001690636352211e9060240160206040518083038186803b15801561114d57600080fd5b505afa158015611161573d6000803e3d6000fd5b505050506040513d601f19601f820116820180604052508101906111859190614a8a565b905060006003546000146111a15761119c8f612ec9565b6111a7565b633b9aca005b9050633b9aca0081146111c6576111c18f868685856130da565b6111c9565b60005b92506111d583856158ab565b985088156111e8576111e8308c8b6126f7565b5050508b826000015183602001517f8657a0c05a68a912c23c1bd00124afaa8c669063b046bd9bfd22b21d573c5e6d8b8f868c8e3360405161122f96959493929190615209565b60405180910390a450505050509695505050505050565b60005473ffffffffffffffffffffffffffffffffffffffff1633146112c7576040517f08c379a000000000000000000000000000000000000000000000000000000000815260206004820181905260248201527f4f776e61626c653a2063616c6c6572206973206e6f7420746865206f776e65726044820152606401610a2f565b600480547fffffffffffffffffffffffff00000000000000000000000000000000000000001673ffffffffffffffffffffffffffffffffffffffff83169081179091556040513381527f0a9a80fe9716605b3e52abb3d792d6a4e7816d6afc02a5a4ef023081feaf9f609060200160405180910390a250565b60005473ffffffffffffffffffffffffffffffffffffffff1633146113c1576040517f08c379a000000000000000000000000000000000000000000000000000000000815260206004820181905260248201527f4f776e61626c653a2063616c6c6572206973206e6f7420746865206f776e65726044820152606401610a2f565b6302faf0808111156113ff576040517f45fbd9c100000000000000000000000000000000000000000000000000000000815260040160405180910390fd5b6003819055604080518281523360208201527fd7414e590e1cb532989ab2a34c8f4c2c17f7ab6f006efeeaef2e87cd5008c202910160405180910390a150565b60005473ffffffffffffffffffffffffffffffffffffffff1633146114c0576040517f08c379a000000000000000000000000000000000000000000000000000000000815260206004820181905260248201527f4f776e61626c653a2063616c6c6572206973206e6f7420746865206f776e65726044820152606401610a2f565b6114ca6000613205565b565b6040517f6352211e000000000000000000000000000000000000000000000000000000008152600481018290527f000000000000000000000000000000000000000000000000000000000000000073ffffffffffffffffffffffffffffffffffffffff1690636352211e9060240160206040518083038186803b15801561155257600080fd5b505afa158015611566573d6000803e3d6000fd5b505050506040513d601f19601f8201168201806040525081019061158a9190614a8a565b8160056115ac60005473ffffffffffffffffffffffffffffffffffffffff1690565b73ffffffffffffffffffffffffffffffffffffffff163373ffffffffffffffffffffffffffffffffffffffff16146115e68484848461327a565b600085815260026020908152604080832080548251818502810185019093528083529192909190849084015b8282101561169157600084815260209081902060408051608081018252600286029092018054835260019081015463ffffffff80821685870152640100000000820416928401929092526801000000000000000090910473ffffffffffffffffffffffffffffffffffffffff1660608301529083529092019101611612565b50505060008881526002602052604081209293506116b0929150614897565b60005b81518110156117625761175061172d8383815181106116d4576116d4615985565b6020026020010151600001518484815181106116f2576116f2615985565b60200260200101516020015163ffffffff1685858151811061171657611716615985565b60200260200101516040015163ffffffff16613493565b83838151811061173f5761173f615985565b6020026020010151606001516134d9565b8061175a816158ee565b9150506116b3565b50857f583c8e2f1af2979852bba1986a05aaa4b7b8739333e9d97b61124be2c333d2fe8233604051611795929190615450565b60405180910390a2505050505050565b606060026000838152602001908152602001600020805480602002602001604051908101604052809291908181526020016000905b8282101561185957600084815260209081902060408051608081018252600286029092018054835260019081015463ffffffff80821685870152640100000000820416928401929092526801000000000000000090910473ffffffffffffffffffffffffffffffffffffffff16606083015290835290920191016117da565b505050509050919050565b6040517f6e49181f0000000000000000000000000000000000000000000000000000000081526004810186905230602482015285907f000000000000000000000000000000000000000000000000000000000000000073ffffffffffffffffffffffffffffffffffffffff1690636e49181f9060440160206040518083038186803b1580156118f257600080fd5b505afa158015611906573d6000803e3d6000fd5b505050506040513d601f19601f8201168201806040525081019061192a9190614c87565b611960576040517fd8ead2c800000000000000000000000000000000000000000000000000000000815260040160405180910390fd5b7f000000000000000000000000000000000000000000000000000000000000000073ffffffffffffffffffffffffffffffffffffffff1661eeee146119e75734156119d7576040517fbcfd35be00000000000000000000000000000000000000000000000000000000815260040160405180910390fd5b6119e23330876126f7565b6119eb565b3494505b611a2c868685858080601f01602080910402602001604051908101604052809392919081815260200183838082843760009201919091525061374692505050565b505050505050565b6040517fd49031c000000000000000000000000000000000000000000000000000000000815230600482015260248101829052600090819073ffffffffffffffffffffffffffffffffffffffff7f0000000000000000000000000000000000000000000000000000000000000000169063d49031c09060440160206040518083038186803b158015611ac557600080fd5b505afa158015611ad9573d6000803e3d6000fd5b505050506040513d601f19601f82011682018060405250810190611afd9190614d95565b905060007f0000000000000000000000000000000000000000000000000000000000000000601214611b5a57611b55827f0000000000000000000000000000000000000000000000000000000000000000601261384b565b611b5c565b815b905060017f000000000000000000000000000000000000000000000000000000000000000014611cc957611cc481611bb57f0000000000000000000000000000000000000000000000000000000000000000600a6157a6565b6040517fa4d0caf20000000000000000000000000000000000000000000000000000000081527f00000000000000000000000000000000000000000000000000000000000000006004820152600160248201527f000000000000000000000000000000000000000000000000000000000000000060448201527f000000000000000000000000000000000000000000000000000000000000000073ffffffffffffffffffffffffffffffffffffffff169063a4d0caf29060640160206040518083038186803b158015611c8757600080fd5b505afa158015611c9b573d6000803e3d6000fd5b505050506040513d601f19601f82011682018060405250810190611cbf9190614d95565b6138a9565b611ccb565b805b949350505050565b600087876002611ce4838383612cc0565b73ffffffffffffffffffffffffffffffffffffffff8716611d31576040517ff74a1b6600000000000000000000000000000000000000000000000000000000815260040160405180910390fd5b611d9660405180610120016040528060008152602001600081526020016000815260200160008152602001600081526020016000815260200160008152602001600073ffffffffffffffffffffffffffffffffffffffff168152602001600081525090565b60007f000000000000000000000000000000000000000000000000000000000000000073ffffffffffffffffffffffffffffffffffffffff1663700dcf928e8e8e7f00000000000000000000000000000000000000000000000000000000000000007f00000000000000000000000000000000000000000000000000000000000000008e8e6040518863ffffffff1660e01b8152600401611e3d97969594939291906153d6565b600060405180830381600087803b158015611e5757600080fd5b505af1158015611e6b573d6000803e3d6000fd5b505050506040513d6000823e601f3d9081017fffffffffffffffffffffffffffffffffffffffffffffffffffffffffffffffe0168201604052611eb19190810190614d0c565b9a50909750909250905089861015611ef5576040517ff896960b00000000000000000000000000000000000000000000000000000000815260040160405180910390fd5b8a15612060576040517f5dd8f6aa000000000000000000000000000000000000000000000000000000008152600481018d90527f000000000000000000000000000000000000000000000000000000000000000073ffffffffffffffffffffffffffffffffffffffff1690635dd8f6aa9060240160206040518083038186803b158015611f8157600080fd5b505afa158015611f95573d6000803e3d6000fd5b505050506040513d601f19601f82011682018060405250810190611fb99190614a8a565b6040517f1665bc0f00000000000000000000000000000000000000000000000000000000815273ffffffffffffffffffffffffffffffffffffffff8f81166004830152602482018f9052604482018e905260a06064830152600060a4830181905260848301529190911690631665bc0f9060c401600060405180830381600087803b15801561204757600080fd5b505af115801561205b573d6000803e3d6000fd5b505050505b73ffffffffffffffffffffffffffffffffffffffff8116156122325760006040518060e001604052808f73ffffffffffffffffffffffffffffffffffffffff1681526020018e81526020018d815260200160405180608001604052807f000000000000000000000000000000000000000000000000000000000000000073ffffffffffffffffffffffffffffffffffffffff1681526020018a81526020017f000000000000000000000000000000000000000000000000000000000000000081526020017f000000000000000000000000000000000000000000000000000000000000000081525081526020018b73ffffffffffffffffffffffffffffffffffffffff1681526020018a81526020018981525090508173ffffffffffffffffffffffffffffffffffffffff166343e1db27826040518263ffffffff1660e01b81526004016121ae91906154ae565b600060405180830381600087803b1580156121c857600080fd5b505af11580156121dc573d6000803e3d6000fd5b505050508173ffffffffffffffffffffffffffffffffffffffff167fae50d9bddbe6ac4bc3773182fa294bce3492ee93a9d32ae21ad4f6ebb618c7f982336040516122289291906154c1565b60405180910390a2505b508415612244576122443089876126f7565b8a816000015182602001517fd2b8b011245528ed3c6d92b102e0cd9895bb1910613b04dd42d7c9ac3781612d8f8c8f8b8e33604051612288969594939291906152f0565b60405180910390a450505050979650505050505050565b6040517f4d9cd5ac0000000000000000000000000000000000000000000000000000000081526004810187905260248101869052604481018590527f000000000000000000000000000000000000000000000000000000000000000060648201526000908190819073ffffffffffffffffffffffffffffffffffffffff7f00000000000000000000000000000000000000000000000000000000000000001690634d9cd5ac9060840161014060405180830381600087803b15801561236357600080fd5b505af1158015612377573d6000803e3d6000fd5b505050506040513d601f19601f8201168201806040525081019061239b9190614cdd565b91509150858110156123d9576040517fb01493c100000000000000000000000000000000000000000000000000000000815260040160405180910390fd5b6040517f6352211e000000000000000000000000000000000000000000000000000000008152600481018a90526000907f000000000000000000000000000000000000000000000000000000000000000073ffffffffffffffffffffffffffffffffffffffff1690636352211e9060240160206040518083038186803b15801561246257600080fd5b505afa158015612476573d6000803e3d6000fd5b505050506040513d601f19601f8201168201806040525081019061249a9190614a8a565b90506000806003546000146124b7576124b28c612ec9565b6124bd565b633b9aca005b90506000806124f38e88602001517f000000000000000000000000000000000000000000000000000000000000000089876139ae565b9250905061250181836156f2565b9150633b9aca00831480612513575081155b612529576125248e888488876130da565b61252c565b60005b93508015612550576125418160035485613493565b61254b90826158ab565b612553565b60005b975087156125665761256630868a6126f7565b5050508a846000015185602001517f24352f49df447b14e0e08a323625c663d865ce20c343c4638af12e1dc48aa760858e88878c8f8f336040516125b1989796959493929190615261565b60405180910390a4505050509695505050505050565b60005473ffffffffffffffffffffffffffffffffffffffff163314612648576040517f08c379a000000000000000000000000000000000000000000000000000000000815260206004820181905260248201527f4f776e61626c653a2063616c6c6572206973206e6f7420746865206f776e65726044820152606401610a2f565b73ffffffffffffffffffffffffffffffffffffffff81166126eb576040517f08c379a000000000000000000000000000000000000000000000000000000000815260206004820152602660248201527f4f776e61626c653a206e6577206f776e657220697320746865207a65726f206160448201527f64647265737300000000000000000000000000000000000000000000000000006064820152608401610a2f565b6126f481613205565b50565b612701828261430d565b505050565b600073ffffffffffffffffffffffffffffffffffffffff8616612755576040517fa762251300000000000000000000000000000000000000000000000000000000815260040160405180910390fd5b6127ba60405180610120016040528060008152602001600081526020016000815260200160008152602001600081526020016000815260200160008152602001600073ffffffffffffffffffffffffffffffffffffffff168152602001600081525090565b600080600060405180608001604052807f000000000000000000000000000000000000000000000000000000000000000073ffffffffffffffffffffffffffffffffffffffff1681526020018e81526020017f000000000000000000000000000000000000000000000000000000000000000081526020017f000000000000000000000000000000000000000000000000000000000000000081525090507f000000000000000000000000000000000000000000000000000000000000000073ffffffffffffffffffffffffffffffffffffffff1663a977aefc8d838e7f00000000000000000000000000000000000000000000000000000000000000008c8c6040518763ffffffff1660e01b81526004016128db96959493929190615334565b600060405180830381600087803b1580156128f557600080fd5b505af1158015612909573d6000803e3d6000fd5b505050506040513d6000823e601f3d9081017fffffffffffffffffffffffffffffffffffffffffffffffffffffffffffffffe016820160405261294f9190810190614d0c565b995091955090935091508115612aee576040517f5dd8f6aa000000000000000000000000000000000000000000000000000000008152600481018c90527f000000000000000000000000000000000000000000000000000000000000000073ffffffffffffffffffffffffffffffffffffffff1690635dd8f6aa9060240160206040518083038186803b1580156129e557600080fd5b505afa1580156129f9573d6000803e3d6000fd5b505050506040513d601f19601f82011682018060405250810190612a1d9190614a8a565b6040517f8ae9c07b000000000000000000000000000000000000000000000000000000008152600481018d90526024810184905273ffffffffffffffffffffffffffffffffffffffff8c8116604483015260c06064830152600060c48301528a15156084830152600160a48301529190911690638ae9c07b9060e401602060405180830381600087803b158015612ab357600080fd5b505af1158015612ac7573d6000803e3d6000fd5b505050506040513d601f19601f82011682018060405250810190612aeb9190614d95565b94505b88851015612b28576040517f7b94612600000000000000000000000000000000000000000000000000000000815260040160405180910390fd5b73ffffffffffffffffffffffffffffffffffffffff831615612c645760006040518060e001604052808e73ffffffffffffffffffffffffffffffffffffffff1681526020018d81526020018381526020018781526020018c73ffffffffffffffffffffffffffffffffffffffff1681526020018981526020018881525090508373ffffffffffffffffffffffffffffffffffffffff1663185856a1826040518263ffffffff1660e01b8152600401612be09190615488565b600060405180830381600087803b158015612bfa57600080fd5b505af1158015612c0e573d6000803e3d6000fd5b505050508373ffffffffffffffffffffffffffffffffffffffff167f7c66059d4a9f68466678168c1c369a1532ce0c8cec8da9b0a40703d29ff1c7b38233604051612c5a92919061549b565b60405180910390a2505b50505087816000015182602001517f74a4c707bf279a84bfa5166a9ffd47b06b52d0f398c851def8a0b98de6b41a1d8c8b8f888b33604051612cab969594939291906152f0565b60405180910390a45098975050505050505050565b3373ffffffffffffffffffffffffffffffffffffffff841614801590612db657506040517fc161c93f00000000000000000000000000000000000000000000000000000000815233600482015273ffffffffffffffffffffffffffffffffffffffff848116602483015260448201849052606482018390527f0000000000000000000000000000000000000000000000000000000000000000169063c161c93f9060840160206040518083038186803b158015612d7c57600080fd5b505afa158015612d90573d6000803e3d6000fd5b505050506040513d601f19601f82011682018060405250810190612db49190614c87565b155b8015612e9257506040517fc161c93f00000000000000000000000000000000000000000000000000000000815233600482015273ffffffffffffffffffffffffffffffffffffffff848116602483015260006044830152606482018390527f0000000000000000000000000000000000000000000000000000000000000000169063c161c93f9060840160206040518083038186803b158015612e5857600080fd5b505afa158015612e6c573d6000803e3d6000fd5b505050506040513d601f19601f82011682018060405250810190612e909190614c87565b155b15612701576040517f075fd2b100000000000000000000000000000000000000000000000000000000815260040160405180910390fd5b6040517f862026500000000000000000000000000000000000000000000000000000000081526001600482015273ffffffffffffffffffffffffffffffffffffffff7f00000000000000000000000000000000000000000000000000000000000000008116602483015260009182917f0000000000000000000000000000000000000000000000000000000000000000169063862026509060440160206040518083038186803b158015612f7c57600080fd5b505afa158015612f90573d6000803e3d6000fd5b505050506040513d601f19601f82011682018060405250810190612fb49190614a8a565b73ffffffffffffffffffffffffffffffffffffffff161415612fdb5750633b9aca00919050565b60045473ffffffffffffffffffffffffffffffffffffffff16613000575060006130c5565b600480546040517f7769589600000000000000000000000000000000000000000000000000000000815291820184905273ffffffffffffffffffffffffffffffffffffffff169063776958969060240160206040518083038186803b15801561306857600080fd5b505afa9250505080156130b6575060408051601f3d9081017fffffffffffffffffffffffffffffffffffffffffffffffffffffffffffffffe01682019092526130b391810190614d95565b60015b6130c2575060006130c5565b90505b633b9aca008111156130d5575060005b919050565b60006130e98460035484613493565b61010086015190915060421c60019081161461310e5761310981846134d9565b6131fc565b6000868152600260208181526040808420815160808101835289815260035463ffffffff90811682860190815289821694830194855273ffffffffffffffffffffffffffffffffffffffff808c1660608501908152855460018181018855968b529790992093519690970290920194855590519390910180549251955190941668010000000000000000027fffffffff0000000000000000000000000000000000000000ffffffffffffffff958216640100000000027fffffffffffffffffffffffffffffffffffffffffffffffff0000000000000000909316939091169290921717929092169190911790555b95945050505050565b6000805473ffffffffffffffffffffffffffffffffffffffff8381167fffffffffffffffffffffffff0000000000000000000000000000000000000000831681178455604051919092169283917f8be0079c531659141344cd1fd0a4f28419497f9722a3daafe3b4186f6b6457e09190a35050565b8015801561329e57503373ffffffffffffffffffffffffffffffffffffffff851614155b801561337a57506040517fc161c93f00000000000000000000000000000000000000000000000000000000815233600482015273ffffffffffffffffffffffffffffffffffffffff858116602483015260448201859052606482018490527f0000000000000000000000000000000000000000000000000000000000000000169063c161c93f9060840160206040518083038186803b15801561334057600080fd5b505afa158015613354573d6000803e3d6000fd5b505050506040513d601f19601f820116820180604052508101906133789190614c87565b155b801561345657506040517fc161c93f00000000000000000000000000000000000000000000000000000000815233600482015273ffffffffffffffffffffffffffffffffffffffff858116602483015260006044830152606482018490527f0000000000000000000000000000000000000000000000000000000000000000169063c161c93f9060840160206040518083038186803b15801561341c57600080fd5b505afa158015613430573d6000803e3d6000fd5b505050506040513d601f19601f820116820180604052508101906134549190614c87565b155b1561348d576040517f075fd2b100000000000000000000000000000000000000000000000000000000815260040160405180910390fd5b50505050565b6000806134a58484633b9aca006138a9565b6134af90856158ab565b90506134c485633b9aca00611cbf81856156f2565b6134ce90866158ab565b9150505b9392505050565b6040517f862026500000000000000000000000000000000000000000000000000000000081526001600482015273ffffffffffffffffffffffffffffffffffffffff7f0000000000000000000000000000000000000000000000000000000000000000811660248301526000917f00000000000000000000000000000000000000000000000000000000000000009091169063862026509060440160206040518083038186803b15801561358c57600080fd5b505afa1580156135a0573d6000803e3d6000fd5b505050506040513d601f19601f820116820180604052508101906135c49190614a8a565b905073ffffffffffffffffffffffffffffffffffffffff81163014156136145761348d83306001856000806040518060200160405280600081525060405180602001604052806000815250612706565b60007f000000000000000000000000000000000000000000000000000000000000000073ffffffffffffffffffffffffffffffffffffffff1661eeee1461365c57600061365e565b835b60408051602081018252600080825291517f1ebc263f00000000000000000000000000000000000000000000000000000000815292935073ffffffffffffffffffffffffffffffffffffffff851692631ebc263f9285926136ed926001928b927f0000000000000000000000000000000000000000000000000000000000000000928c929182916004016155ac565b6020604051808303818588803b15801561370657600080fd5b505af115801561371a573d6000803e3d6000fd5b50505050506040513d601f19601f8201168201806040525081019061373f9190614d95565b5050505050565b60006137528484614467565b905073ffffffffffffffffffffffffffffffffffffffff7f00000000000000000000000000000000000000000000000000000000000000001663e7c8e3e38561379b84876156f2565b6040517fffffffff0000000000000000000000000000000000000000000000000000000060e085901b16815260048101929092526024820152604401600060405180830381600087803b1580156137f157600080fd5b505af1158015613805573d6000803e3d6000fd5b50505050837f4ce42b42caaa564737146f357a8fa7fe24940fac843d392a69e23b32a1d766a384843360405161383d9392919061556d565b60405180910390a250505050565b60008282141561385c5750826134d2565b8282111561388a5761386e83836158ab565b61387990600a6157a6565b613883908561586e565b90506134d2565b61389482846158ab565b61389f90600a6157a6565b613883908561570a565b600080807fffffffffffffffffffffffffffffffffffffffffffffffffffffffffffffffff8587098587029250828110838203039150508060001415613902578382816138f8576138f8615956565b04925050506134d2565b838110613945576040517f773cc18c0000000000000000000000000000000000000000000000000000000081526004810182905260248101859052604401610a2f565b60008486880960026001871981018816978890046003810283188082028403028082028403028082028403028082028403028082028403029081029092039091026000889003889004909101858311909403939093029303949094049190911702949350505050565b6040517f69e11cc5000000000000000000000000000000000000000000000000000000008152600481018690526024810185905260448101849052829060009081907f000000000000000000000000000000000000000000000000000000000000000073ffffffffffffffffffffffffffffffffffffffff16906369e11cc59060640160006040518083038186803b158015613a4957600080fd5b505afa158015613a5d573d6000803e3d6000fd5b505050506040513d6000823e601f3d9081017fffffffffffffffffffffffffffffffffffffffffffffffffffffffffffffffe0168201604052613aa39190810190614b61565b905060005b8151811015614301576000828281518110613ac557613ac5615985565b602002602001015190506000613ae4888360400151633b9aca006138a9565b9050600081156142ad5760c083015173ffffffffffffffffffffffffffffffffffffffff1615613d2857633b9aca008814613b3557613b26826003548a613493565b613b3090836158ab565b613b37565b815b9050613b4382876156f2565b955060007f000000000000000000000000000000000000000000000000000000000000000073ffffffffffffffffffffffffffffffffffffffff1661eeee14613b8d576000613b8f565b815b905060006040518060c001604052807f000000000000000000000000000000000000000000000000000000000000000073ffffffffffffffffffffffffffffffffffffffff1681526020018481526020017f000000000000000000000000000000000000000000000000000000000000000081526020018f81526020018d81526020018681525090508460c0015173ffffffffffffffffffffffffffffffffffffffff16639d740bfa83836040518363ffffffff1660e01b8152600401613cef9190815173ffffffffffffffffffffffffffffffffffffffff90811682526020808401518184015260408085015181850152606080860151818601526080808701518187015260a096870151805115158888015293840151151560c0808801919091529284015160e08701529083015161010086015282015183166101208501529381015161014084015292909201519091166101608201526101800190565b6000604051808303818588803b158015613d0857600080fd5b505af1158015613d1c573d6000803e3d6000fd5b505050505050506142a0565b60608301511561421a5760608301516040517f8620265000000000000000000000000000000000000000000000000000000000815260009173ffffffffffffffffffffffffffffffffffffffff7f00000000000000000000000000000000000000000000000000000000000000001691638620265091613deb917f00000000000000000000000000000000000000000000000000000000000000009060040191825273ffffffffffffffffffffffffffffffffffffffff16602082015260400190565b60206040518083038186803b158015613e0357600080fd5b505afa158015613e17573d6000803e3d6000fd5b505050506040513d601f19601f82011682018060405250810190613e3b9190614a8a565b905073ffffffffffffffffffffffffffffffffffffffff8116613e8a576040517f6921234300000000000000000000000000000000000000000000000000000000815260040160405180910390fd5b73ffffffffffffffffffffffffffffffffffffffff8116301415613f5957829150836020015115613ed857613ed384606001518360405180602001604052806000815250613746565b614214565b613f5382308660600151600073ffffffffffffffffffffffffffffffffffffffff16886080015173ffffffffffffffffffffffffffffffffffffffff161415613f215733613f27565b87608001515b600089600001516040518060200160405280600081525060405180602001604052806000815250612706565b50614214565b73ffffffffffffffffffffffffffffffffffffffff811660009081526005602052604090205460ff1615613f8f57829150613fc7565b633b9aca008914613fb657613fa7836003548b613493565b613fb190846158ab565b613fb8565b825b9150613fc483886156f2565b96505b60007f000000000000000000000000000000000000000000000000000000000000000073ffffffffffffffffffffffffffffffffffffffff1661eeee1461400f576000614011565b825b90508460200151156140e75760608501516040517fa27255cc00000000000000000000000000000000000000000000000000000000815260048101919091526024810184905273ffffffffffffffffffffffffffffffffffffffff7f000000000000000000000000000000000000000000000000000000000000000081166044830152608060648301526000608483015283169063a27255cc90839060a4016000604051808303818588803b1580156140c957600080fd5b505af11580156140dd573d6000803e3d6000fd5b5050505050614212565b8173ffffffffffffffffffffffffffffffffffffffff16631ebc263f828760600151867f0000000000000000000000000000000000000000000000000000000000000000600073ffffffffffffffffffffffffffffffffffffffff168b6080015173ffffffffffffffffffffffffffffffffffffffff16141561416a5733614170565b8a608001515b8b5160408051602081018252600080825291517fffffffff0000000000000000000000000000000000000000000000000000000060e08b901b1681526141be979695949391906004016155ac565b6020604051808303818588803b1580156141d757600080fd5b505af11580156141eb573d6000803e3d6000fd5b50505050506040513d601f19601f820116820180604052508101906142109190614d95565b505b505b506142a0565b633b9aca00881461424157614232826003548a613493565b61423c90836158ab565b614243565b815b905061424f82876156f2565b95506142a030600073ffffffffffffffffffffffffffffffffffffffff16856080015173ffffffffffffffffffffffffffffffffffffffff161415614294573361429a565b84608001515b836126f7565b6142aa82886158ab565b96505b898b8d7f2a1f2df21da49f011c6165709ae4b279f8d6d7cffe9043c582352882d8c9698b8685336040516142e3939291906154d4565b60405180910390a450505080806142f9906158ee565b915050613aa8565b50509550959350505050565b80471015614377576040517f08c379a000000000000000000000000000000000000000000000000000000000815260206004820152601d60248201527f416464726573733a20696e73756666696369656e742062616c616e63650000006044820152606401610a2f565b60008273ffffffffffffffffffffffffffffffffffffffff168260405160006040518083038185875af1925050503d80600081146143d1576040519150601f19603f3d011682016040523d82523d6000602084013e6143d6565b606091505b5050905080612701576040517f08c379a000000000000000000000000000000000000000000000000000000000815260206004820152603a60248201527f416464726573733a20756e61626c6520746f2073656e642076616c75652c207260448201527f6563697069656e74206d617920686176652072657665727465640000000000006064820152608401610a2f565b600082815260026020908152604080832080548251818502810185019093528083528493849084015b8282101561450f57600084815260209081902060408051608081018252600286029092018054835260019081015463ffffffff80821685870152640100000000820416928401929092526801000000000000000090910473ffffffffffffffffffffffffffffffffffffffff1660608301529083529092019101614490565b505050600086815260026020526040812092935061452e929150614897565b60005b815181101561488f578361462c576000858152600260205260409020825183908390811061456157614561615985565b602090810291909101810151825460018181018555600094855293839020825160029092020190815591810151919092018054604084015160609094015173ffffffffffffffffffffffffffffffffffffffff1668010000000000000000027fffffffff0000000000000000000000000000000000000000ffffffffffffffff63ffffffff958616640100000000027fffffffffffffffffffffffffffffffffffffffffffffffff00000000000000009093169590941694909417179190911691909117905561487d565b81818151811061463e5761463e615985565b60200260200101516000015184106146d95781818151811061466257614662615985565b6020026020010151600001518461467991906158ab565b93506146d282828151811061469057614690615985565b6020026020010151600001518383815181106146ae576146ae615985565b60200260200101516020015163ffffffff1684848151811061171657611716615985565b925061487d565b6002600086815260200190815260200160002060405180608001604052808685858151811061470a5761470a615985565b60200260200101516000015161472091906158ab565b815260200184848151811061473757614737615985565b60200260200101516020015163ffffffff16815260200184848151811061476057614760615985565b60200260200101516040015163ffffffff16815260200184848151811061478957614789615985565b60209081029190910181015160609081015173ffffffffffffffffffffffffffffffffffffffff9081169093528454600181810187556000968752958390208551600290920201908155918401519190940180546040850151949095015190921668010000000000000000027fffffffff0000000000000000000000000000000000000000ffffffffffffffff63ffffffff948516640100000000027fffffffffffffffffffffffffffffffffffffffffffffffff00000000000000009096169490921693909317939093179290921617905581516148769085908490849081106146ae576146ae615985565b9250600093505b80614887816158ee565b915050614531565b505092915050565b50805460008255600202906000526020600020908101906126f491905b808211156148f257600081556001810180547fffffffff000000000000000000000000000000000000000000000000000000001690556002016148b4565b5090565b6000614909614904846156ac565b61565d565b905082815283838301111561491d57600080fd5b828260208301376000602084830101529392505050565b60008083601f84011261494657600080fd5b50813567ffffffffffffffff81111561495e57600080fd5b60208301915083602082850101111561497657600080fd5b9250929050565b80516130d5816159e3565b600082601f83011261499957600080fd5b6134d2838335602085016148f6565b600082601f8301126149b957600080fd5b81516149c7614904826156ac565b8181528460208386010111156149dc57600080fd5b611ccb8260208301602087016158c2565b60006101208284031215614a0057600080fd5b614a08615610565b9050815181526020820151602082015260408201516040820152606082015160608201526080820151608082015260a082015160a082015260c082015160c0820152614a5660e0830161497d565b60e082015261010080830151818301525092915050565b600060208284031215614a7f57600080fd5b81356134d2816159e3565b600060208284031215614a9c57600080fd5b81516134d2816159e3565b600080600080600080600060e0888a031215614ac257600080fd5b8735614acd816159e3565b96506020880135955060408801359450606088013593506080880135614af2816159e3565b925060a088013567ffffffffffffffff80821115614b0f57600080fd5b614b1b8b838c01614988565b935060c08a0135915080821115614b3157600080fd5b508801601f81018a13614b4357600080fd5b614b528a8235602084016148f6565b91505092959891949750929550565b60006020808385031215614b7457600080fd5b825167ffffffffffffffff80821115614b8c57600080fd5b818501915085601f830112614ba057600080fd5b815181811115614bb257614bb26159b4565b614bc0848260051b0161565d565b818152848101925083850160e0808402860187018a1015614be057600080fd5b60009550855b84811015614c785781838c031215614bfc578687fd5b614c0461563a565b8351614c0f81615a05565b815283890151614c1e81615a05565b818a01526040848101519082015260608085015190820152608080850151614c45816159e3565b9082015260a0848101519082015260c080850151614c62816159e3565b9082015286529487019491810191600101614be6565b50919998505050505050505050565b600060208284031215614c9957600080fd5b81516134d281615a05565b60008060408385031215614cb757600080fd5b8235614cc2816159e3565b91506020830135614cd281615a05565b809150509250929050565b6000806101408385031215614cf157600080fd5b614cfb84846149ed565b915061012083015190509250929050565b6000806000806101808587031215614d2357600080fd5b614d2d86866149ed565b93506101208501519250610140850151614d46816159e3565b61016086015190925067ffffffffffffffff811115614d6457600080fd5b614d70878288016149a8565b91505092959194509250565b600060208284031215614d8e57600080fd5b5035919050565b600060208284031215614da757600080fd5b5051919050565b60008060408385031215614dc157600080fd5b823591506020830135614cd2816159e3565b6000806000806000806000806000806101008b8d031215614df357600080fd5b8a35995060208b0135985060408b0135614e0c816159e3565b975060608b0135614e1c816159e3565b965060808b0135955060a08b0135614e3381615a05565b945060c08b013567ffffffffffffffff80821115614e5057600080fd5b614e5c8e838f01614934565b909650945060e08d0135915080821115614e7557600080fd5b50614e828d828e01614934565b915080935050809150509295989b9194979a5092959850565b600080600080600060808688031215614eb357600080fd5b85359450602086013593506040860135614ecc816159e3565b9250606086013567ffffffffffffffff811115614ee857600080fd5b614ef488828901614934565b969995985093965092949392505050565b60008060008060008060c08789031215614f1e57600080fd5b863595506020870135945060408701359350606087013592506080870135614f45816159e3565b915060a087013567ffffffffffffffff811115614f6157600080fd5b614f6d89828a01614988565b9150509295509295509295565b60008060008060008060a08789031215614f9357600080fd5b86359550602087013594506040870135935060608701359250608087013567ffffffffffffffff811115614fc657600080fd5b614fd289828a01614934565b979a9699509497509295939492505050565b600081518084526020808501945080840160005b83811015615055578151805188528381015163ffffffff908116858a01526040808301519091169089015260609081015173ffffffffffffffffffffffffffffffffffffffff169088015260809096019590820190600101614ff8565b509495945050505050565b600081518084526150788160208601602086016158c2565b601f017fffffffffffffffffffffffffffffffffffffffffffffffffffffffffffffffe0169290920160200192915050565b600061014073ffffffffffffffffffffffffffffffffffffffff80845116855260208401516020860152604084015161511d604087018273ffffffffffffffffffffffffffffffffffffffff81511682526020810151602083015260408101516040830152606081015160608301525050565b50606084015160c086015260808401511660e085015260a0830151610100850182905261514c82860182615060565b91505060c08301518482036101208601526131fc8282615060565b600061014073ffffffffffffffffffffffffffffffffffffffff808451168552602084015160208601526040840151604086015260608401516151e4606087018273ffffffffffffffffffffffffffffffffffffffff81511682526020810151602083015260408101516040830152606081015160608301525050565b5060808401511660e085015260a0830151610100850182905261514c82860182615060565b600073ffffffffffffffffffffffffffffffffffffffff808916835287602084015286604084015285606084015260c0608084015261524b60c0840186615060565b915080841660a084015250979650505050505050565b600073ffffffffffffffffffffffffffffffffffffffff808b16835289602084015288604084015287606084015286608084015260e060a08401528460e08401526101008587828601376000848701820152931660c083015250601f9092017fffffffffffffffffffffffffffffffffffffffffffffffffffffffffffffffe016909101019695505050505050565b600073ffffffffffffffffffffffffffffffffffffffff8089168352808816602084015286604084015285606084015260c0608084015261524b60c0840186615060565b600061012073ffffffffffffffffffffffffffffffffffffffff89168352615396602084018973ffffffffffffffffffffffffffffffffffffffff81511682526020810151602083015260408101516040830152606081015160608301525050565b8660a08401528560c08401528060e08401526153b481840186615060565b90508281036101008401526153c98185615060565b9998505050505050505050565b73ffffffffffffffffffffffffffffffffffffffff8816815286602082015285604082015284606082015283608082015260e060a0820152600061541d60e0830185615060565b82810360c084015261542f8185615060565b9a9950505050505050505050565b6020815260006134d26020830184614fe4565b6040815260006154636040830185614fe4565b905073ffffffffffffffffffffffffffffffffffffffff831660208301529392505050565b6020815260006134d260208301846150aa565b60408152600061546360408301856150aa565b6020815260006134d26020830184615167565b6040815260006154636040830185615167565b610120810161554282868051151582526020810151151560208301526040810151604083015260608101516060830152608081015173ffffffffffffffffffffffffffffffffffffffff808216608085015260a083015160a08501528060c08401511660c085015250505050565b8360e083015273ffffffffffffffffffffffffffffffffffffffff8316610100830152949350505050565b8381526060602082015260006155866060830185615060565b905073ffffffffffffffffffffffffffffffffffffffff83166040830152949350505050565b600061010089835288602084015273ffffffffffffffffffffffffffffffffffffffff808916604085015280881660608501525085608084015284151560a08401528060c0840152600081840152506101208060e084015261542f81840185615060565b604051610120810167ffffffffffffffff81118282101715615634576156346159b4565b60405290565b60405160e0810167ffffffffffffffff81118282101715615634576156346159b4565b604051601f82017fffffffffffffffffffffffffffffffffffffffffffffffffffffffffffffffe016810167ffffffffffffffff811182821017156156a4576156a46159b4565b604052919050565b600067ffffffffffffffff8211156156c6576156c66159b4565b50601f017fffffffffffffffffffffffffffffffffffffffffffffffffffffffffffffffe01660200190565b6000821982111561570557615705615927565b500190565b600082615740577f4e487b7100000000000000000000000000000000000000000000000000000000600052601260045260246000fd5b500490565b600181815b8085111561579e57817fffffffffffffffffffffffffffffffffffffffffffffffffffffffffffffffff0482111561578457615784615927565b8085161561579157918102915b93841c939080029061574a565b509250929050565b60006134d283836000826157bc57506001615868565b816157c957506000615868565b81600181146157df57600281146157e957615805565b6001915050615868565b60ff8411156157fa576157fa615927565b50506001821b615868565b5060208310610133831016604e8410600b8410161715615828575081810a615868565b6158328383615745565b807fffffffffffffffffffffffffffffffffffffffffffffffffffffffffffffffff0482111561586457615864615927565b0290505b92915050565b6000817fffffffffffffffffffffffffffffffffffffffffffffffffffffffffffffffff04831182151516156158a6576158a6615927565b500290565b6000828210156158bd576158bd615927565b500390565b60005b838110156158dd5781810151838201526020016158c5565b8381111561348d5750506000910152565b60007fffffffffffffffffffffffffffffffffffffffffffffffffffffffffffffffff82141561592057615920615927565b5060010190565b7f4e487b7100000000000000000000000000000000000000000000000000000000600052601160045260246000fd5b7f4e487b7100000000000000000000000000000000000000000000000000000000600052601260045260246000fd5b7f4e487b7100000000000000000000000000000000000000000000000000000000600052603260045260246000fd5b7f4e487b7100000000000000000000000000000000000000000000000000000000600052604160045260246000fd5b73ffffffffffffffffffffffffffffffffffffffff811681146126f457600080fd5b80151581146126f457600080fdfea264697066735822122056c0b37f250a9b0504d1eeedc6280a3f5eb673bb9337e6d8ead2b63a7596afc264736f6c63430008060033",
  "devdoc": {
    "details": "Inherits from: JBPayoutRedemptionPaymentTerminal: Generic terminal managing all inflows and outflows of funds into the protocol ecosystem.",
    "kind": "dev",
    "methods": {
      "addToBalanceOf(uint256,uint256,address,string)": {
        "params": {
          "_amount": "The amount of tokens to add, as a fixed point number with the same number of decimals as this terminal. If this is an ETH terminal, this is ignored and msg.value is used instead. // _param _token The token being paid. This terminal ignores this property since it only manages one currency. ",
          "_memo": "A memo to pass along to the emitted event.",
          "_projectId": "The ID of the project to which the funds received belong."
        }
      },
      "currentEthOverflowOf(uint256)": {
        "details": "The current overflow is represented as a fixed point number with 18 decimals.",
        "params": {
          "_projectId": "The ID of the project to get overflow for."
        },
        "returns": {
          "_0": "The current amount of ETH overflow that project has in this terminal, as a fixed point number with 18 decimals."
        }
      },
      "distributePayoutsOf(uint256,uint256,uint256,uint256,string)": {
        "details": "Payouts are sent to the preprogrammed splits. Any leftover is sent to the project's owner.Anyone can distribute payouts on a project's behalf. The project can preconfigure a wildcard split that is used to send funds to msg.sender. This can be used to incentivize calling this function.All funds distributed outside of this contract or any feeless terminals incure the protocol fee.",
        "params": {
          "_amount": "The amount of terminal tokens to distribute, as a fixed point number with same number of decimals as this terminal.",
          "_currency": "The expected currency of the amount being distributed. Must match the project's current funding cycle's distribution limit currency.",
          "_memo": "A memo to pass along to the emitted event.",
          "_minReturnedTokens": "The minimum number of terminal tokens that the `_amount` should be valued at in terms of this terminal's currency, as a fixed point number with the same number of decimals as this terminal.",
          "_projectId": "The ID of the project having its payouts distributed."
        },
        "returns": {
          "netLeftoverDistributionAmount": "The amount that was sent to the project owner, as a fixed point number with the same amount of decimals as this terminal."
        }
      },
      "heldFeesOf(uint256)": {
        "params": {
          "_projectId": "The ID of the project for which fees are being held."
        },
        "returns": {
          "_0": "An array of fees that are being held."
        }
      },
      "migrate(uint256,address)": {
        "details": "Only a project's owner or a designated operator can migrate it.",
        "params": {
          "_projectId": "The ID of the project being migrated.",
          "_to": "The terminal contract that will gain the project's funds."
        },
        "returns": {
          "balance": "The amount of funds that were migrated, as a fixed point number with the same amount of decimals as this terminal."
        }
      },
      "owner()": {
        "details": "Returns the address of the current owner."
      },
      "pay(uint256,uint256,address,address,uint256,bool,string,bytes)": {
        "params": {
          "_amount": "The amount of terminal tokens being received, as a fixed point number with the same amount of decimals as this terminal. If this terminal's token is ETH, this is ignored and msg.value is used in its place. // _param _token The token being paid. This terminal ignores this property since it only manages one currency. ",
          "_beneficiary": "The address to mint tokens for and pass along to the funding cycle's delegate.",
          "_memo": "A memo to pass along to the emitted event, and passed along the the funding cycle's data source and delegate.  A data source can alter the memo before emitting in the event and forwarding to the delegate.",
          "_metadata": "Bytes to send along to the data source and delegate, if provided.",
          "_minReturnedTokens": "The minimum number of project tokens expected in return, as a fixed point number with the same amount of decimals as this terminal.",
          "_preferClaimedTokens": "A flag indicating whether the request prefers to mint project tokens into the beneficiaries wallet rather than leaving them unclaimed. This is only possible if the project has an attached token contract. Leaving them unclaimed saves gas.",
          "_projectId": "The ID of the project being paid."
        },
        "returns": {
          "_0": "The number of tokens minted for the beneficiary, as a fixed point number with 18 decimals."
        }
      },
      "processFees(uint256)": {
        "details": "Only a project owner, an operator, or the contract's owner can process held fees.",
        "params": {
          "_projectId": "The ID of the project whos held fees should be processed."
        }
      },
      "redeemTokensOf(address,uint256,uint256,uint256,address,string,bytes)": {
        "details": "Only a token holder or a designated operator can redeem its tokens.",
        "params": {
          "_beneficiary": "The address to send the terminal tokens to.",
          "_holder": "The account to redeem tokens for.",
          "_memo": "A memo to pass along to the emitted event.",
          "_metadata": "Bytes to send along to the data source and delegate, if provided.",
          "_minReturnedTokens": "The minimum amount of terminal tokens expected in return, as a fixed point number with the same amount of decimals as the terminal.",
          "_projectId": "The ID of the project to which the tokens being redeemed belong.",
          "_tokenCount": "The number of project tokens to redeem, as a fixed point number with 18 decimals."
        },
        "returns": {
          "reclaimAmount": "The amount of terminal tokens that the project tokens were redeemed for, as a fixed point number with 18 decimals."
        }
      },
      "renounceOwnership()": {
        "details": "Leaves the contract without owner. It will not be possible to call `onlyOwner` functions anymore. Can only be called by the current owner. NOTE: Renouncing ownership will leave the contract without an owner, thereby removing any functionality that is only available to the owner."
      },
      "setFee(uint256)": {
        "details": "Only the owner of this contract can change the fee.",
        "params": {
          "_fee": "The new fee, out of MAX_FEE."
        }
      },
      "setFeeGauge(address)": {
        "details": "Only the owner of this contract can change the fee gauge.If the fee gauge reverts when called upon while a project is attempting to distribute its funds, a project's funds will be locked. This is a known risk.",
        "params": {
          "_feeGauge": "The new fee gauge."
        }
      },
      "setFeelessTerminal(address,bool)": {
        "details": "Only the owner of this contract can set terminal's as feeless.",
        "params": {
          "_flag": "A flag indicating whether the terminal should be feeless or not.",
          "_terminal": "The terminal that can be paid towards while still bypassing fees."
        }
      },
      "transferOwnership(address)": {
        "details": "Transfers ownership of the contract to a new account (`newOwner`). Can only be called by the current owner."
      },
      "useAllowanceOf(uint256,uint256,uint256,uint256,address,string)": {
        "details": "Only a project's owner or a designated operator can use its allowance.Incurs the protocol fee.",
        "params": {
          "_amount": "The amount of terminal tokens to use from this project's current allowance, as a fixed point number with the same amount of decimals as this terminal.",
          "_beneficiary": "The address to send the funds to.",
          "_currency": "The expected currency of the amount being distributed. Must match the project's current funding cycle's overflow allowance currency.",
          "_memo": "A memo to pass along to the emitted event.",
          "_minReturnedTokens": "The minimum number of tokens that the `_amount` should be valued at in terms of this terminal's currency, as a fixed point number with 18 decimals.",
          "_projectId": "The ID of the project to use the allowance of."
        },
        "returns": {
          "netDistributedAmount": "The amount of tokens that was distributed to the beneficiary, as a fixed point number with the same amount of decimals as the terminal."
        }
      }
    },
    "version": 1
  },
  "userdoc": {
    "errors": {
      "PRBMath__MulDivOverflow(uint256,uint256)": [
        {
          "notice": "Emitted when the result overflows uint256."
        }
      ]
    },
    "kind": "user",
    "methods": {
      "addToBalanceOf(uint256,uint256,address,string)": {
        "notice": "Receives funds belonging to the specified project."
      },
      "baseWeightCurrency()": {
        "notice": "The currency to base token issuance on."
      },
      "currency()": {
        "notice": "The currency to use when resolving price feeds for this terminal."
      },
      "currentEthOverflowOf(uint256)": {
        "notice": "Gets the current overflowed amount in this terminal for a specified project, in terms of ETH."
      },
      "decimals()": {
        "notice": "The number of decimals the token fixed point amounts are expected to have."
      },
      "directory()": {
        "notice": "The directory of terminals and controllers for projects."
      },
      "distributePayoutsOf(uint256,uint256,uint256,uint256,string)": {
        "notice": "Distributes payouts for a project with the distribution limit of its current funding cycle."
      },
      "fee()": {
        "notice": "The platform fee percent."
      },
      "feeGauge()": {
        "notice": "The data source that returns a discount to apply to a project's fee."
      },
      "heldFeesOf(uint256)": {
        "notice": "The fees that are currently being held to be processed later for each project."
      },
      "isFeelessTerminal(address)": {
        "notice": "Terminals that can be paid towards from this terminal without incurring a fee. _terminal The terminal that can be paid toward."
      },
      "migrate(uint256,address)": {
        "notice": "Allows a project owner to migrate its funds and operations to a new terminal of the same token type."
      },
      "operatorStore()": {
        "notice": " A contract storing operator assignments."
      },
      "pay(uint256,uint256,address,address,uint256,bool,string,bytes)": {
        "notice": "Contribute tokens to a project."
      },
      "payoutSplitsGroup()": {
        "notice": "The group that payout splits coming from this terminal are identified by."
      },
      "prices()": {
        "notice": "The contract that exposes price feeds."
      },
      "processFees(uint256)": {
        "notice": "Process any fees that are being held for the project."
      },
      "projects()": {
        "notice": "The Projects contract which mints ERC-721's that represent project ownership and transfers."
      },
      "redeemTokensOf(address,uint256,uint256,uint256,address,string,bytes)": {
        "notice": "Holders can redeem their tokens to claim the project's overflowed tokens, or to trigger rules determined by the project's current funding cycle's data source."
      },
      "setFee(uint256)": {
        "notice": "Allows the fee to be updated."
      },
      "setFeeGauge(address)": {
        "notice": "Allows the fee gauge to be updated."
      },
      "setFeelessTerminal(address,bool)": {
        "notice": "Sets whether projects operating on this terminal can pay projects operating on the specified terminal without incurring a fee."
      },
      "splitsStore()": {
        "notice": "The contract that stores splits for each project."
      },
      "store()": {
        "notice": "The contract that stores and manages the terminal's data."
      },
      "token()": {
        "notice": "The token that this terminal accepts."
      },
      "useAllowanceOf(uint256,uint256,uint256,uint256,address,string)": {
        "notice": "Allows a project to send funds from its overflow up to the preconfigured allowance."
      }
    },
    "notice": "Manages all inflows and outflows of ETH funds into the protocol ecosystem.",
    "version": 1
  },
  "storageLayout": {
    "storage": [
      {
        "astId": 53,
        "contract": "contracts/JBETHPaymentTerminal.sol:JBETHPaymentTerminal",
        "label": "_owner",
        "offset": 0,
        "slot": "0",
        "type": "t_address"
      },
      {
        "astId": 693,
        "contract": "contracts/JBETHPaymentTerminal.sol:JBETHPaymentTerminal",
        "label": "_status",
        "offset": 0,
        "slot": "1",
        "type": "t_uint256"
      },
      {
        "astId": 13765,
        "contract": "contracts/JBETHPaymentTerminal.sol:JBETHPaymentTerminal",
        "label": "_heldFeesOf",
        "offset": 0,
        "slot": "2",
        "type": "t_mapping(t_uint256,t_array(t_struct(JBFee)18885_storage)dyn_storage)"
      },
      {
        "astId": 13803,
        "contract": "contracts/JBETHPaymentTerminal.sol:JBETHPaymentTerminal",
        "label": "fee",
        "offset": 0,
        "slot": "3",
        "type": "t_uint256"
      },
      {
        "astId": 13808,
        "contract": "contracts/JBETHPaymentTerminal.sol:JBETHPaymentTerminal",
        "label": "feeGauge",
        "offset": 0,
        "slot": "4",
        "type": "t_contract(IJBFeeGauge)16459"
      },
      {
        "astId": 13815,
        "contract": "contracts/JBETHPaymentTerminal.sol:JBETHPaymentTerminal",
        "label": "isFeelessTerminal",
        "offset": 0,
        "slot": "5",
        "type": "t_mapping(t_contract(IJBPaymentTerminal)16784,t_bool)"
      }
    ],
    "types": {
      "t_address": {
        "encoding": "inplace",
        "label": "address",
        "numberOfBytes": "20"
      },
      "t_array(t_struct(JBFee)18885_storage)dyn_storage": {
        "base": "t_struct(JBFee)18885_storage",
        "encoding": "dynamic_array",
        "label": "struct JBFee[]",
        "numberOfBytes": "32"
      },
      "t_bool": {
        "encoding": "inplace",
        "label": "bool",
        "numberOfBytes": "1"
      },
      "t_contract(IJBFeeGauge)16459": {
        "encoding": "inplace",
        "label": "contract IJBFeeGauge",
        "numberOfBytes": "20"
      },
      "t_contract(IJBPaymentTerminal)16784": {
        "encoding": "inplace",
        "label": "contract IJBPaymentTerminal",
        "numberOfBytes": "20"
      },
      "t_mapping(t_contract(IJBPaymentTerminal)16784,t_bool)": {
        "encoding": "mapping",
        "key": "t_contract(IJBPaymentTerminal)16784",
        "label": "mapping(contract IJBPaymentTerminal => bool)",
        "numberOfBytes": "32",
        "value": "t_bool"
      },
      "t_mapping(t_uint256,t_array(t_struct(JBFee)18885_storage)dyn_storage)": {
        "encoding": "mapping",
        "key": "t_uint256",
        "label": "mapping(uint256 => struct JBFee[])",
        "numberOfBytes": "32",
        "value": "t_array(t_struct(JBFee)18885_storage)dyn_storage"
      },
      "t_struct(JBFee)18885_storage": {
        "encoding": "inplace",
        "label": "struct JBFee",
        "members": [
          {
            "astId": 18878,
            "contract": "contracts/JBETHPaymentTerminal.sol:JBETHPaymentTerminal",
            "label": "amount",
            "offset": 0,
            "slot": "0",
            "type": "t_uint256"
          },
          {
            "astId": 18880,
            "contract": "contracts/JBETHPaymentTerminal.sol:JBETHPaymentTerminal",
            "label": "fee",
            "offset": 0,
            "slot": "1",
            "type": "t_uint32"
          },
          {
            "astId": 18882,
            "contract": "contracts/JBETHPaymentTerminal.sol:JBETHPaymentTerminal",
            "label": "feeDiscount",
            "offset": 4,
            "slot": "1",
            "type": "t_uint32"
          },
          {
            "astId": 18884,
            "contract": "contracts/JBETHPaymentTerminal.sol:JBETHPaymentTerminal",
            "label": "beneficiary",
            "offset": 8,
            "slot": "1",
            "type": "t_address"
          }
        ],
        "numberOfBytes": "64"
      },
      "t_uint256": {
        "encoding": "inplace",
        "label": "uint256",
        "numberOfBytes": "32"
      },
      "t_uint32": {
        "encoding": "inplace",
        "label": "uint32",
        "numberOfBytes": "4"
      }
    }
  }
}