{
  "address": "0x92239434A7d0D17c4d8F876C7DB75E54680Bc85e",
  "abi": [
    {
      "inputs": [
        {
          "internalType": "contract IJBPrices",
          "name": "_prices",
          "type": "address"
        },
        {
          "internalType": "contract IJBProjects",
          "name": "_projects",
          "type": "address"
        },
        {
          "internalType": "contract IJBDirectory",
          "name": "_directory",
          "type": "address"
        },
        {
          "internalType": "contract IJBFundingCycleStore",
          "name": "_fundingCycleStore",
          "type": "address"
        },
        {
          "internalType": "contract IJBTokenStore",
          "name": "_tokenStore",
          "type": "address"
        }
      ],
      "stateMutability": "nonpayable",
      "type": "constructor"
    },
    {
      "inputs": [
        {
          "internalType": "uint256",
          "name": "prod1",
          "type": "uint256"
        }
      ],
      "name": "PRBMath__MulDivFixedPointOverflow",
      "type": "error"
    },
    {
      "inputs": [
        {
          "internalType": "uint256",
          "name": "prod1",
          "type": "uint256"
        },
        {
          "internalType": "uint256",
          "name": "denominator",
          "type": "uint256"
        }
      ],
      "name": "PRBMath__MulDivOverflow",
      "type": "error"
    },
    {
      "anonymous": false,
      "inputs": [
        {
          "indexed": true,
          "internalType": "contract IJBPayDelegate",
          "name": "delegate",
          "type": "address"
        },
        {
          "components": [
            {
              "internalType": "address",
              "name": "payer",
              "type": "address"
            },
            {
              "internalType": "uint256",
              "name": "projectId",
              "type": "uint256"
            },
            {
              "internalType": "uint256",
              "name": "amount",
              "type": "uint256"
            },
            {
              "internalType": "uint256",
              "name": "weight",
              "type": "uint256"
            },
            {
              "internalType": "uint256",
              "name": "tokenCount",
              "type": "uint256"
            },
            {
              "internalType": "address",
              "name": "beneficiary",
              "type": "address"
            },
            {
              "internalType": "string",
              "name": "memo",
              "type": "string"
            },
            {
              "internalType": "bytes",
              "name": "delegateMetadata",
              "type": "bytes"
            }
          ],
          "indexed": false,
          "internalType": "struct JBDidPayData",
          "name": "data",
          "type": "tuple"
        }
      ],
      "name": "DelegateDidPay",
      "type": "event"
    },
    {
      "anonymous": false,
      "inputs": [
        {
          "indexed": true,
          "internalType": "contract IJBRedemptionDelegate",
          "name": "delegate",
          "type": "address"
        },
        {
          "components": [
            {
              "internalType": "address",
              "name": "holder",
              "type": "address"
            },
            {
              "internalType": "uint256",
              "name": "projectId",
              "type": "uint256"
            },
            {
              "internalType": "uint256",
              "name": "tokenCount",
              "type": "uint256"
            },
            {
              "internalType": "uint256",
              "name": "claimAmount",
              "type": "uint256"
            },
            {
              "internalType": "address payable",
              "name": "beneficiary",
              "type": "address"
            },
            {
              "internalType": "string",
              "name": "memo",
              "type": "string"
            },
            {
              "internalType": "bytes",
              "name": "metadata",
              "type": "bytes"
            }
          ],
          "indexed": false,
          "internalType": "struct JBDidRedeemData",
          "name": "data",
          "type": "tuple"
        }
      ],
      "name": "DelegateDidRedeem",
      "type": "event"
    },
    {
      "inputs": [
        {
          "internalType": "uint256",
          "name": "",
          "type": "uint256"
        }
      ],
      "name": "balanceOf",
      "outputs": [
        {
          "internalType": "uint256",
          "name": "",
          "type": "uint256"
        }
      ],
      "stateMutability": "view",
      "type": "function"
    },
    {
      "inputs": [],
      "name": "claim",
      "outputs": [],
      "stateMutability": "nonpayable",
      "type": "function"
    },
    {
      "inputs": [
        {
          "internalType": "uint256",
          "name": "_projectId",
          "type": "uint256"
        },
        {
          "internalType": "uint256",
          "name": "_tokenCount",
          "type": "uint256"
        }
      ],
      "name": "claimableOverflowOf",
      "outputs": [
        {
          "internalType": "uint256",
          "name": "",
          "type": "uint256"
        }
      ],
      "stateMutability": "view",
      "type": "function"
    },
    {
      "inputs": [
        {
          "internalType": "uint256",
          "name": "_projectId",
          "type": "uint256"
        }
      ],
      "name": "currentOverflowOf",
      "outputs": [
        {
          "internalType": "uint256",
          "name": "",
          "type": "uint256"
        }
      ],
      "stateMutability": "view",
      "type": "function"
    },
    {
      "inputs": [],
      "name": "directory",
      "outputs": [
        {
          "internalType": "contract IJBDirectory",
          "name": "",
          "type": "address"
        }
      ],
      "stateMutability": "view",
      "type": "function"
    },
    {
      "inputs": [],
      "name": "fundingCycleStore",
      "outputs": [
        {
          "internalType": "contract IJBFundingCycleStore",
          "name": "",
          "type": "address"
        }
      ],
      "stateMutability": "view",
      "type": "function"
    },
    {
      "inputs": [],
      "name": "prices",
      "outputs": [
        {
          "internalType": "contract IJBPrices",
          "name": "",
          "type": "address"
        }
      ],
      "stateMutability": "view",
      "type": "function"
    },
    {
      "inputs": [],
      "name": "projects",
      "outputs": [
        {
          "internalType": "contract IJBProjects",
          "name": "",
          "type": "address"
        }
      ],
      "stateMutability": "view",
      "type": "function"
    },
    {
      "inputs": [
        {
          "internalType": "uint256",
          "name": "_projectId",
          "type": "uint256"
        },
        {
          "internalType": "uint256",
          "name": "_amount",
          "type": "uint256"
        }
      ],
      "name": "recordAddedBalanceFor",
      "outputs": [
        {
          "components": [
            {
              "internalType": "uint256",
              "name": "id",
              "type": "uint256"
            },
            {
              "internalType": "uint256",
              "name": "projectId",
              "type": "uint256"
            },
            {
              "internalType": "uint256",
              "name": "number",
              "type": "uint256"
            },
            {
              "internalType": "uint256",
              "name": "basedOn",
              "type": "uint256"
            },
            {
              "internalType": "uint256",
              "name": "configured",
              "type": "uint256"
            },
            {
              "internalType": "uint256",
              "name": "weight",
              "type": "uint256"
            },
            {
              "internalType": "contract IJBFundingCycleBallot",
              "name": "ballot",
              "type": "address"
            },
            {
              "internalType": "uint256",
              "name": "start",
              "type": "uint256"
            },
            {
              "internalType": "uint256",
              "name": "duration",
              "type": "uint256"
            },
            {
              "internalType": "uint256",
              "name": "target",
              "type": "uint256"
            },
            {
              "internalType": "uint256",
              "name": "currency",
              "type": "uint256"
            },
            {
              "internalType": "uint256",
              "name": "fee",
              "type": "uint256"
            },
            {
              "internalType": "uint256",
              "name": "discountRate",
              "type": "uint256"
            },
            {
              "internalType": "uint256",
              "name": "tapped",
              "type": "uint256"
            },
            {
              "internalType": "uint256",
              "name": "metadata",
              "type": "uint256"
            }
          ],
          "internalType": "struct JBFundingCycle",
          "name": "fundingCycle",
          "type": "tuple"
        }
      ],
      "stateMutability": "nonpayable",
      "type": "function"
    },
    {
      "inputs": [
        {
          "internalType": "uint256",
          "name": "_projectId",
          "type": "uint256"
        }
      ],
      "name": "recordMigration",
      "outputs": [
        {
          "internalType": "uint256",
          "name": "balance",
          "type": "uint256"
        }
      ],
      "stateMutability": "nonpayable",
      "type": "function"
    },
    {
      "inputs": [
        {
          "internalType": "address",
          "name": "_payer",
          "type": "address"
        },
        {
          "internalType": "uint256",
          "name": "_amount",
          "type": "uint256"
        },
        {
          "internalType": "uint256",
          "name": "_projectId",
          "type": "uint256"
        },
        {
          "internalType": "uint256",
          "name": "_preferClaimedTokensAndBeneficiary",
          "type": "uint256"
        },
        {
          "internalType": "uint256",
          "name": "_minReturnedTokens",
          "type": "uint256"
        },
        {
          "internalType": "string",
          "name": "_memo",
          "type": "string"
        },
        {
          "internalType": "bytes",
          "name": "_delegateMetadata",
          "type": "bytes"
        }
      ],
      "name": "recordPaymentFrom",
      "outputs": [
        {
          "components": [
            {
              "internalType": "uint256",
              "name": "id",
              "type": "uint256"
            },
            {
              "internalType": "uint256",
              "name": "projectId",
              "type": "uint256"
            },
            {
              "internalType": "uint256",
              "name": "number",
              "type": "uint256"
            },
            {
              "internalType": "uint256",
              "name": "basedOn",
              "type": "uint256"
            },
            {
              "internalType": "uint256",
              "name": "configured",
              "type": "uint256"
            },
            {
              "internalType": "uint256",
              "name": "weight",
              "type": "uint256"
            },
            {
              "internalType": "contract IJBFundingCycleBallot",
              "name": "ballot",
              "type": "address"
            },
            {
              "internalType": "uint256",
              "name": "start",
              "type": "uint256"
            },
            {
              "internalType": "uint256",
              "name": "duration",
              "type": "uint256"
            },
            {
              "internalType": "uint256",
              "name": "target",
              "type": "uint256"
            },
            {
              "internalType": "uint256",
              "name": "currency",
              "type": "uint256"
            },
            {
              "internalType": "uint256",
              "name": "fee",
              "type": "uint256"
            },
            {
              "internalType": "uint256",
              "name": "discountRate",
              "type": "uint256"
            },
            {
              "internalType": "uint256",
              "name": "tapped",
              "type": "uint256"
            },
            {
              "internalType": "uint256",
              "name": "metadata",
              "type": "uint256"
            }
          ],
          "internalType": "struct JBFundingCycle",
          "name": "fundingCycle",
          "type": "tuple"
        },
        {
          "internalType": "uint256",
          "name": "weight",
          "type": "uint256"
        },
        {
          "internalType": "uint256",
          "name": "tokenCount",
          "type": "uint256"
        },
        {
          "internalType": "string",
          "name": "memo",
          "type": "string"
        }
      ],
      "stateMutability": "nonpayable",
      "type": "function"
    },
    {
      "inputs": [
        {
          "internalType": "address",
          "name": "_holder",
          "type": "address"
        },
        {
          "internalType": "uint256",
          "name": "_projectId",
          "type": "uint256"
        },
        {
          "internalType": "uint256",
          "name": "_tokenCount",
          "type": "uint256"
        },
        {
          "internalType": "uint256",
          "name": "_minReturnedWei",
          "type": "uint256"
        },
        {
          "internalType": "address payable",
          "name": "_beneficiary",
          "type": "address"
        },
        {
          "internalType": "string",
          "name": "_memo",
          "type": "string"
        },
        {
          "internalType": "bytes",
          "name": "_delegateMetadata",
          "type": "bytes"
        }
      ],
      "name": "recordRedemptionFor",
      "outputs": [
        {
          "components": [
            {
              "internalType": "uint256",
              "name": "id",
              "type": "uint256"
            },
            {
              "internalType": "uint256",
              "name": "projectId",
              "type": "uint256"
            },
            {
              "internalType": "uint256",
              "name": "number",
              "type": "uint256"
            },
            {
              "internalType": "uint256",
              "name": "basedOn",
              "type": "uint256"
            },
            {
              "internalType": "uint256",
              "name": "configured",
              "type": "uint256"
            },
            {
              "internalType": "uint256",
              "name": "weight",
              "type": "uint256"
            },
            {
              "internalType": "contract IJBFundingCycleBallot",
              "name": "ballot",
              "type": "address"
            },
            {
              "internalType": "uint256",
              "name": "start",
              "type": "uint256"
            },
            {
              "internalType": "uint256",
              "name": "duration",
              "type": "uint256"
            },
            {
              "internalType": "uint256",
              "name": "target",
              "type": "uint256"
            },
            {
              "internalType": "uint256",
              "name": "currency",
              "type": "uint256"
            },
            {
              "internalType": "uint256",
              "name": "fee",
              "type": "uint256"
            },
            {
              "internalType": "uint256",
              "name": "discountRate",
              "type": "uint256"
            },
            {
              "internalType": "uint256",
              "name": "tapped",
              "type": "uint256"
            },
            {
              "internalType": "uint256",
              "name": "metadata",
              "type": "uint256"
            }
          ],
          "internalType": "struct JBFundingCycle",
          "name": "fundingCycle",
          "type": "tuple"
        },
        {
          "internalType": "uint256",
          "name": "claimAmount",
          "type": "uint256"
        },
        {
          "internalType": "string",
          "name": "memo",
          "type": "string"
        }
      ],
      "stateMutability": "nonpayable",
      "type": "function"
    },
    {
      "inputs": [
        {
          "internalType": "uint256",
          "name": "_projectId",
          "type": "uint256"
        },
        {
          "internalType": "contract IJBTerminal",
          "name": "_terminal",
          "type": "address"
        },
        {
          "internalType": "uint256",
          "name": "_amount",
          "type": "uint256"
        },
        {
          "internalType": "uint256",
          "name": "_currency",
          "type": "uint256"
        },
        {
          "internalType": "uint256",
          "name": "_minReturnedWei",
          "type": "uint256"
        }
      ],
      "name": "recordUsedAllowanceOf",
      "outputs": [
        {
          "components": [
            {
              "internalType": "uint256",
              "name": "id",
              "type": "uint256"
            },
            {
              "internalType": "uint256",
              "name": "projectId",
              "type": "uint256"
            },
            {
              "internalType": "uint256",
              "name": "number",
              "type": "uint256"
            },
            {
              "internalType": "uint256",
              "name": "basedOn",
              "type": "uint256"
            },
            {
              "internalType": "uint256",
              "name": "configured",
              "type": "uint256"
            },
            {
              "internalType": "uint256",
              "name": "weight",
              "type": "uint256"
            },
            {
              "internalType": "contract IJBFundingCycleBallot",
              "name": "ballot",
              "type": "address"
            },
            {
              "internalType": "uint256",
              "name": "start",
              "type": "uint256"
            },
            {
              "internalType": "uint256",
              "name": "duration",
              "type": "uint256"
            },
            {
              "internalType": "uint256",
              "name": "target",
              "type": "uint256"
            },
            {
              "internalType": "uint256",
              "name": "currency",
              "type": "uint256"
            },
            {
              "internalType": "uint256",
              "name": "fee",
              "type": "uint256"
            },
            {
              "internalType": "uint256",
              "name": "discountRate",
              "type": "uint256"
            },
            {
              "internalType": "uint256",
              "name": "tapped",
              "type": "uint256"
            },
            {
              "internalType": "uint256",
              "name": "metadata",
              "type": "uint256"
            }
          ],
          "internalType": "struct JBFundingCycle",
          "name": "fundingCycle",
          "type": "tuple"
        },
        {
          "internalType": "uint256",
          "name": "withdrawnAmount",
          "type": "uint256"
        }
      ],
      "stateMutability": "nonpayable",
      "type": "function"
    },
    {
      "inputs": [
        {
          "internalType": "uint256",
          "name": "_projectId",
          "type": "uint256"
        },
        {
          "internalType": "uint256",
          "name": "_amount",
          "type": "uint256"
        },
        {
          "internalType": "uint256",
          "name": "_currency",
          "type": "uint256"
        },
        {
          "internalType": "uint256",
          "name": "_minReturnedWei",
          "type": "uint256"
        }
      ],
      "name": "recordWithdrawalFor",
      "outputs": [
        {
          "components": [
            {
              "internalType": "uint256",
              "name": "id",
              "type": "uint256"
            },
            {
              "internalType": "uint256",
              "name": "projectId",
              "type": "uint256"
            },
            {
              "internalType": "uint256",
              "name": "number",
              "type": "uint256"
            },
            {
              "internalType": "uint256",
              "name": "basedOn",
              "type": "uint256"
            },
            {
              "internalType": "uint256",
              "name": "configured",
              "type": "uint256"
            },
            {
              "internalType": "uint256",
              "name": "weight",
              "type": "uint256"
            },
            {
              "internalType": "contract IJBFundingCycleBallot",
              "name": "ballot",
              "type": "address"
            },
            {
              "internalType": "uint256",
              "name": "start",
              "type": "uint256"
            },
            {
              "internalType": "uint256",
              "name": "duration",
              "type": "uint256"
            },
            {
              "internalType": "uint256",
              "name": "target",
              "type": "uint256"
            },
            {
              "internalType": "uint256",
              "name": "currency",
              "type": "uint256"
            },
            {
              "internalType": "uint256",
              "name": "fee",
              "type": "uint256"
            },
            {
              "internalType": "uint256",
              "name": "discountRate",
              "type": "uint256"
            },
            {
              "internalType": "uint256",
              "name": "tapped",
              "type": "uint256"
            },
            {
              "internalType": "uint256",
              "name": "metadata",
              "type": "uint256"
            }
          ],
          "internalType": "struct JBFundingCycle",
          "name": "fundingCycle",
          "type": "tuple"
        },
        {
          "internalType": "uint256",
          "name": "withdrawnAmount",
          "type": "uint256"
        }
      ],
      "stateMutability": "nonpayable",
      "type": "function"
    },
    {
      "inputs": [],
      "name": "terminal",
      "outputs": [
        {
          "internalType": "address",
          "name": "",
          "type": "address"
        }
      ],
      "stateMutability": "view",
      "type": "function"
    },
    {
      "inputs": [],
      "name": "tokenStore",
      "outputs": [
        {
          "internalType": "contract IJBTokenStore",
          "name": "",
          "type": "address"
        }
      ],
      "stateMutability": "view",
      "type": "function"
    },
    {
      "inputs": [
        {
          "internalType": "uint256",
          "name": "",
          "type": "uint256"
        },
        {
          "internalType": "uint256",
          "name": "",
          "type": "uint256"
        }
      ],
      "name": "usedOverflowAllowanceOf",
      "outputs": [
        {
          "internalType": "uint256",
          "name": "",
          "type": "uint256"
        }
      ],
      "stateMutability": "view",
      "type": "function"
    }
  ],
  "transactionHash": "0x0a006ce289049b6b212cf2778be23f6932a14c42488a4e6eead040011de27740",
  "args": [
    "0x47C6072ccDb899C016ED07ae8aEb7b2cfFe3C82e",
    "0x2B0b6BD05a2F1f2a399F73528a99a495555C4c52",
    "0xF77Cc21F7Ffdb0700D6d01FCF32EBE654f1A389b",
    "0xfd6Bc33C9e25c6d9Bbd00b04992E3639E786DCEd",
    "0x29431d36f382f50878399C1D529b20582573AAb6"
  ],
  "solcInputHash": "3b4710394790e6b2fbe3ff5eb3b8549b",
  "bytecode": "0x6101206040523480156200001257600080fd5b506040516200390b3803806200390b83398101604081905262000035916200006d565b6001600160601b0319606095861b81166101005293851b841660805291841b831660a052831b821660c05290911b1660e05262000106565b600080600080600060a086880312156200008657600080fd5b85516200009381620000ed565b6020870151909550620000a681620000ed565b6040870151909450620000b981620000ed565b6060870151909350620000cc81620000ed565b6080870151909250620000df81620000ed565b809150509295509295909350565b6001600160a01b03811681146200010357600080fd5b50565b60805160601c60a05160601c60c05160601c60e05160601c6101005160601c613733620001d8600039600081816102de01528181610603015281816116030152612af101526000818161021401528181611b2a01526126c10152600081816101c8015281816104ab01528181610b2c015281816118ab01528181611c3c015281816122d9015281816124a5015281816125b4015261291e0152600081816102b7015281816106d501528181610e6b0152818161132701528181611fbc015261274e0152600061024e01526137336000f3fe608060405234801561001057600080fd5b506004361061011b5760003560e01c80638b79543c116100b2578063d3419bf311610081578063e7c8e3e311610066578063e7c8e3e314610313578063f45d0bc614610333578063f548c86f1461035357600080fd5b8063d3419bf3146102d9578063ddfd414a1461030057600080fd5b80638b79543c146102495780639225bf1a146102705780639cc7f70814610292578063c41c2f24146102b257600080fd5b80634e71d92d116100ee5780634e71d92d146101b9578063557e7155146101c3578063619306301461020f5780636bb6a5ad1461023657600080fd5b806308083a8114610120578063115cdd8e1461014a57806329c705c71461018357806341d0230c146101a6575b600080fd5b61013361012e36600461304d565b610366565b60405161014192919061346a565b60405180910390f35b610175610158366004613116565b600260209081526000928352604080842090915290825290205481565b604051908152602001610141565b610196610191366004612ebc565b6109e7565b60405161014194939291906134b0565b6101336101b4366004613138565b6111e7565b6101c161174b565b005b6101ea7f000000000000000000000000000000000000000000000000000000000000000081565b60405173ffffffffffffffffffffffffffffffffffffffff9091168152602001610141565b6101ea7f000000000000000000000000000000000000000000000000000000000000000081565b61017561024436600461301b565b6117f7565b6101ea7f000000000000000000000000000000000000000000000000000000000000000081565b61028361027e366004612e16565b6119c9565b60405161014193929190613487565b6101756102a036600461301b565b60016020526000908152604090205481565b6101ea7f000000000000000000000000000000000000000000000000000000000000000081565b6101ea7f000000000000000000000000000000000000000000000000000000000000000081565b61017561030e36600461301b565b612290565b610326610321366004613116565b612366565b604051610141919061345b565b6000546101ea9073ffffffffffffffffffffffffffffffffffffffff1681565b610175610361366004613116565b612569565b6103f5604051806101e00160405280600081526020016000815260200160008152602001600081526020016000815260200160008152602001600073ffffffffffffffffffffffffffffffffffffffff16815260200160008152602001600081526020016000815260200160008152602001600081526020016000815260200160008152602001600081525090565b6000805473ffffffffffffffffffffffffffffffffffffffff16331461047c576040517f08c379a000000000000000000000000000000000000000000000000000000000815260206004820152601260248201527f307833613a20554e415554484f52495a4544000000000000000000000000000060448201526064015b60405180910390fd5b6040517f43a266c2000000000000000000000000000000000000000000000000000000008152600481018890527f000000000000000000000000000000000000000000000000000000000000000073ffffffffffffffffffffffffffffffffffffffff16906343a266c2906024016101e06040518083038186803b15801561050357600080fd5b505afa158015610517573d6000803e3d6000fd5b505050506040513d601f19601f8201168201806040525081019061053b9190612f59565b915081610140015184146105ab576040517f08c379a000000000000000000000000000000000000000000000000000000000815260206004820152601960248201527f307834323a20554e45585045435445445f43555252454e4359000000000000006044820152606401610473565b6101408201516040517ff48cc10100000000000000000000000000000000000000000000000000000000815260048101919091526000602482015261068390869073ffffffffffffffffffffffffffffffffffffffff7f0000000000000000000000000000000000000000000000000000000000000000169063f48cc101906044015b60206040518083038186803b15801561064657600080fd5b505afa15801561065a573d6000803e3d6000fd5b505050506040513d601f19601f8201168201806040525081019061067e9190613034565b61263e565b600088815260026020908152604080832060808701518452909152908190205490517f5dd8f6aa000000000000000000000000000000000000000000000000000000008152600481018a9052919250907f000000000000000000000000000000000000000000000000000000000000000073ffffffffffffffffffffffffffffffffffffffff1690635dd8f6aa9060240160206040518083038186803b15801561072c57600080fd5b505afa158015610740573d6000803e3d6000fd5b505050506040513d601f19601f820116820180604052508101906107649190612f1b565b60808401516040517f5172a2bf000000000000000000000000000000000000000000000000000000008152600481018b9052602481019190915273ffffffffffffffffffffffffffffffffffffffff89811660448301529190911690635172a2bf9060640160206040518083038186803b1580156107e157600080fd5b505afa1580156107f5573d6000803e3d6000fd5b505050506040513d601f19601f820116820180604052508101906108199190613034565b61082391906135d5565b81111561088c576040517f08c379a000000000000000000000000000000000000000000000000000000000815260206004820152601160248201527f307834333a204e4f545f414c4c4f5745440000000000000000000000000000006044820152606401610473565b600087815260016020526040902054811115610904576040517f08c379a000000000000000000000000000000000000000000000000000000000815260206004820152601860248201527f307834343a20494e53554646494349454e545f46554e445300000000000000006044820152606401610473565b8083111561096e576040517f08c379a000000000000000000000000000000000000000000000000000000000815260206004820152601060248201527f307834353a20494e4144455155415445000000000000000000000000000000006044820152606401610473565b6000878152600260209081526040808320608086015184529091529020546109979082906135bd565b6000888152600260209081526040808320608087015184528252808320939093558982526001905220546109cc9082906135d5565b60009788526001602052604090972096909655959350505050565b610a76604051806101e00160405280600081526020016000815260200160008152602001600081526020016000815260200160008152602001600073ffffffffffffffffffffffffffffffffffffffff16815260200160008152602001600081526020016000815260200160008152602001600081526020016000815260200160008152602001600081525090565b60008054819060609073ffffffffffffffffffffffffffffffffffffffff163314610afd576040517f08c379a000000000000000000000000000000000000000000000000000000000815260206004820152601260248201527f307833613a20554e415554484f52495a454400000000000000000000000000006044820152606401610473565b6040517f43a266c2000000000000000000000000000000000000000000000000000000008152600481018a90527f000000000000000000000000000000000000000000000000000000000000000073ffffffffffffffffffffffffffffffffffffffff16906343a266c2906024016101e06040518083038186803b158015610b8457600080fd5b505afa158015610b98573d6000803e3d6000fd5b505050506040513d601f19601f82011682018060405250810190610bbc9190612f59565b93506000846040015111610c2c576040517f08c379a000000000000000000000000000000000000000000000000000000000815260206004820152600f60248201527f307833613a204e4f545f464f554e4400000000000000000000000000000000006044820152606401610473565b6101c084015160281c600116610c9e576040517f08c379a000000000000000000000000000000000000000000000000000000000815260206004820152600c60248201527f307833623a2050415553454400000000000000000000000000000000000000006044820152606401610473565b6101c084015160009060301c600116610ded576101c085015160321c73ffffffffffffffffffffffffffffffffffffffff1663b64a835b6040518060e001604052808f73ffffffffffffffffffffffffffffffffffffffff1681526020018e81526020018860a001518152602001610d22896101c0015161ffff60089190911c1690565b815260200160018d901c73ffffffffffffffffffffffffffffffffffffffff1681526020018a8152602001898152506040518263ffffffff1660e01b8152600401610d6d91906134eb565b60006040518083038186803b158015610d8557600080fd5b505afa158015610d99573d6000803e3d6000fd5b505050506040513d6000823e601f3d9081017fffffffffffffffffffffffffffffffffffffffffffffffffffffffffffffffe0168201604052610ddf9190810190613095565b985091955092509050610df8565b8460a0015193508691505b6000610e048c86612653565b90508b15610e365760008b815260016020526040902054610e26908d906135bd565b60008c8152600160205260409020555b8015611028576040517f5dd8f6aa000000000000000000000000000000000000000000000000000000008152600481018c90527f000000000000000000000000000000000000000000000000000000000000000073ffffffffffffffffffffffffffffffffffffffff1690635dd8f6aa9060240160206040518083038186803b158015610ec257600080fd5b505afa158015610ed6573d6000803e3d6000fd5b505050506040513d601f19601f82011682018060405250810190610efa9190612f1b565b73ffffffffffffffffffffffffffffffffffffffff1663369e6f348c8360018e811c908f1615610f368c6101c0015161ffff60089190911c1690565b6040517fffffffff0000000000000000000000000000000000000000000000000000000060e088901b1681526004810195909552602485019390935273ffffffffffffffffffffffffffffffffffffffff909116604484015260c06064840152600c60c48401527f455448207265636569766564000000000000000000000000000000000000000060e48401521515608483015260a482015261010401602060405180830381600087803b158015610fed57600080fd5b505af1158015611001573d6000803e3d6000fd5b505050506040513d601f19601f820116820180604052508101906110259190613034565b93505b88841015611092576040517f08c379a000000000000000000000000000000000000000000000000000000000815260206004820152601060248201527f307833633a20494e4144455155415445000000000000000000000000000000006044820152606401610473565b73ffffffffffffffffffffffffffffffffffffffff8216156111d75760006040518061010001604052808f73ffffffffffffffffffffffffffffffffffffffff1681526020018d81526020018e815260200187815260200186815260200160018d901c73ffffffffffffffffffffffffffffffffffffffff1681526020018581526020018981525090508273ffffffffffffffffffffffffffffffffffffffff16639dd959ac826040518263ffffffff1660e01b815260040161115591906132e4565b600060405180830381600087803b15801561116f57600080fd5b505af1158015611183573d6000803e3d6000fd5b505050508273ffffffffffffffffffffffffffffffffffffffff167f15ee90cb2deade4db341563d03958a7ca23fdde537483702ed7a8697ab14599e826040516111cd91906132e4565b60405180910390a2505b5050975097509750979350505050565b611276604051806101e00160405280600081526020016000815260200160008152602001600081526020016000815260200160008152602001600073ffffffffffffffffffffffffffffffffffffffff16815260200160008152602001600081526020016000815260200160008152602001600081526020016000815260200160008152602001600081525090565b6000805473ffffffffffffffffffffffffffffffffffffffff1633146112f8576040517f08c379a000000000000000000000000000000000000000000000000000000000815260206004820152601260248201527f307833613a20554e415554484f52495a454400000000000000000000000000006044820152606401610473565b6040517f5dd8f6aa000000000000000000000000000000000000000000000000000000008152600481018790527f000000000000000000000000000000000000000000000000000000000000000073ffffffffffffffffffffffffffffffffffffffff1690635dd8f6aa9060240160206040518083038186803b15801561137e57600080fd5b505afa158015611392573d6000803e3d6000fd5b505050506040513d601f19601f820116820180604052508101906113b69190612f1b565b6040517f974698f7000000000000000000000000000000000000000000000000000000008152600481018890526024810187905273ffffffffffffffffffffffffffffffffffffffff919091169063974698f7906044016101e060405180830381600087803b15801561142857600080fd5b505af115801561143c573d6000803e3d6000fd5b505050506040513d601f19601f820116820180604052508101906114609190612f59565b80519092506114cb576040517f08c379a000000000000000000000000000000000000000000000000000000000815260206004820152600f60248201527f307833643a204e4f545f464f554e4400000000000000000000000000000000006044820152606401610473565b6101c082015160291c60011661153d576040517f08c379a000000000000000000000000000000000000000000000000000000000815260206004820152600c60248201527f307833653a2050415553454400000000000000000000000000000000000000006044820152606401610473565b81610140015184146115ab576040517f08c379a000000000000000000000000000000000000000000000000000000000815260206004820152601960248201527f307833663a20554e45585045435445445f43555252454e4359000000000000006044820152606401610473565b6101408201516040517ff48cc10100000000000000000000000000000000000000000000000000000000815260048101919091526000602482015261163290869073ffffffffffffffffffffffffffffffffffffffff7f0000000000000000000000000000000000000000000000000000000000000000169063f48cc1019060440161062e565b6000878152600160205260409020549091508111156116ad576040517f08c379a000000000000000000000000000000000000000000000000000000000815260206004820152601860248201527f307834303a20494e53554646494349454e545f46554e445300000000000000006044820152606401610473565b80831115611717576040517f08c379a000000000000000000000000000000000000000000000000000000000815260206004820152601060248201527f307834313a20494e4144455155415445000000000000000000000000000000006044820152606401610473565b6000868152600160205260409020546117319082906135d5565b600096875260016020526040909620959095559492505050565b60005473ffffffffffffffffffffffffffffffffffffffff16156117cb576040517f08c379a000000000000000000000000000000000000000000000000000000000815260206004820152601560248201527f307834623a20414c52454144595f434c41494d454400000000000000000000006044820152606401610473565b600080547fffffffffffffffffffffffff00000000000000000000000000000000000000001633179055565b6000805473ffffffffffffffffffffffffffffffffffffffff163314611879576040517f08c379a000000000000000000000000000000000000000000000000000000000815260206004820152601260248201527f307833613a20554e415554484f52495a454400000000000000000000000000006044820152606401610473565b6040517f43a266c2000000000000000000000000000000000000000000000000000000008152600481018390526000907f000000000000000000000000000000000000000000000000000000000000000073ffffffffffffffffffffffffffffffffffffffff16906343a266c2906024016101e06040518083038186803b15801561190357600080fd5b505afa158015611917573d6000803e3d6000fd5b505050506040513d601f19601f8201168201806040525081019061193b9190612f59565b6101c0810151909150602d1c600116156119b1576040517f08c379a000000000000000000000000000000000000000000000000000000000815260206004820152601160248201527f307834613a204e4f545f414c4c4f5745440000000000000000000000000000006044820152606401610473565b50506000908152600160205260408120805491905590565b611a58604051806101e00160405280600081526020016000815260200160008152602001600081526020016000815260200160008152602001600073ffffffffffffffffffffffffffffffffffffffff16815260200160008152602001600081526020016000815260200160008152602001600081526020016000815260200160008152602001600081525090565b6000805460609073ffffffffffffffffffffffffffffffffffffffff163314611add576040517f08c379a000000000000000000000000000000000000000000000000000000000815260206004820152601260248201527f307833613a20554e415554484f52495a454400000000000000000000000000006044820152606401610473565b6040517efdd58e00000000000000000000000000000000000000000000000000000000815273ffffffffffffffffffffffffffffffffffffffff8b81166004830152602482018b905289917f00000000000000000000000000000000000000000000000000000000000000009091169062fdd58e9060440160206040518083038186803b158015611b6d57600080fd5b505afa158015611b81573d6000803e3d6000fd5b505050506040513d601f19601f82011682018060405250810190611ba59190613034565b1015611c0d576040517f08c379a000000000000000000000000000000000000000000000000000000000815260206004820152601960248201527f307834363a20494e53554646494349454e545f544f4b454e53000000000000006044820152606401610473565b6040517f43a266c2000000000000000000000000000000000000000000000000000000008152600481018a90527f000000000000000000000000000000000000000000000000000000000000000073ffffffffffffffffffffffffffffffffffffffff16906343a266c2906024016101e06040518083038186803b158015611c9457600080fd5b505afa158015611ca8573d6000803e3d6000fd5b505050506040513d601f19601f82011682018060405250810190611ccc9190612f59565b6101c0810151909350602a1c600116611d41576040517f08c379a000000000000000000000000000000000000000000000000000000000815260206004820152600c60248201527f307834373a2050415553454400000000000000000000000000000000000000006044820152606401610473565b6101c083015160009060311c600116611e95576101c084015160321c73ffffffffffffffffffffffffffffffffffffffff166331168a2b6040518060e001604052808e73ffffffffffffffffffffffffffffffffffffffff1681526020018c8152602001611dbb886101c0015161ffff60189190911c1690565b81526101c08801516020918201911c61ffff1681526020018a73ffffffffffffffffffffffffffffffffffffffff168152602001898152602001888152506040518263ffffffff1660e01b8152600401611e1591906134eb565b60006040518083038186803b158015611e2d57600080fd5b505afa158015611e41573d6000803e3d6000fd5b505050506040513d6000823e601f3d9081017fffffffffffffffffffffffffffffffffffffffffffffffffffffffffffffffe0168201604052611e879190810190613095565b975091945092509050611ea5565b611e9f848a61265f565b92508591505b60008a815260016020526040902054831115611f1d576040517f08c379a000000000000000000000000000000000000000000000000000000000815260206004820152601860248201527f307834383a20494e53554646494349454e545f46554e445300000000000000006044820152606401610473565b87831015611f87576040517f08c379a000000000000000000000000000000000000000000000000000000000815260206004820152601060248201527f307834393a20494e4144455155415445000000000000000000000000000000006044820152606401610473565b8815612118576040517f5dd8f6aa000000000000000000000000000000000000000000000000000000008152600481018b90527f000000000000000000000000000000000000000000000000000000000000000073ffffffffffffffffffffffffffffffffffffffff1690635dd8f6aa9060240160206040518083038186803b15801561201357600080fd5b505afa158015612027573d6000803e3d6000fd5b505050506040513d601f19601f8201168201806040525081019061204b9190612f1b565b6040517f1665bc0f00000000000000000000000000000000000000000000000000000000815273ffffffffffffffffffffffffffffffffffffffff8d81166004830152602482018d9052604482018c905260a06064830152600e60a48301527f52656465656d20666f722045544800000000000000000000000000000000000060c4830152600160848301529190911690631665bc0f9060e401600060405180830381600087803b1580156120ff57600080fd5b505af1158015612113573d6000803e3d6000fd5b505050505b82156121485760008a8152600160205260409020546121389084906135d5565b60008b8152600160205260409020555b73ffffffffffffffffffffffffffffffffffffffff8116156122825760006040518060e001604052808d73ffffffffffffffffffffffffffffffffffffffff1681526020018c81526020018b81526020018581526020018973ffffffffffffffffffffffffffffffffffffffff1681526020018481526020018781525090508173ffffffffffffffffffffffffffffffffffffffff16631f1dfa32826040518263ffffffff1660e01b815260040161220091906133b7565b600060405180830381600087803b15801561221a57600080fd5b505af115801561222e573d6000803e3d6000fd5b505050508173ffffffffffffffffffffffffffffffffffffffff167ff11663550d7ff25b1a5d208bdd025d7b1001a24cfcd134ccad18fabe158cdcee8260405161227891906133b7565b60405180910390a2505b509750975097945050505050565b6040517f43a266c200000000000000000000000000000000000000000000000000000000815260048101829052600090819073ffffffffffffffffffffffffffffffffffffffff7f000000000000000000000000000000000000000000000000000000000000000016906343a266c2906024016101e06040518083038186803b15801561231c57600080fd5b505afa158015612330573d6000803e3d6000fd5b505050506040513d601f19601f820116820180604052508101906123549190612f59565b905061235f81612a54565b9392505050565b6123f5604051806101e00160405280600081526020016000815260200160008152602001600081526020016000815260200160008152602001600073ffffffffffffffffffffffffffffffffffffffff16815260200160008152602001600081526020016000815260200160008152602001600081526020016000815260200160008152602001600081525090565b60005473ffffffffffffffffffffffffffffffffffffffff163314612476576040517f08c379a000000000000000000000000000000000000000000000000000000000815260206004820152601260248201527f307833613a20554e415554484f52495a454400000000000000000000000000006044820152606401610473565b6040517f43a266c2000000000000000000000000000000000000000000000000000000008152600481018490527f000000000000000000000000000000000000000000000000000000000000000073ffffffffffffffffffffffffffffffffffffffff16906343a266c2906024016101e06040518083038186803b1580156124fd57600080fd5b505afa158015612511573d6000803e3d6000fd5b505050506040513d601f19601f820116820180604052508101906125359190612f59565b6000848152600160205260409020549091506125529083906135bd565b600093845260016020526040909320929092555090565b6040517f43a266c2000000000000000000000000000000000000000000000000000000008152600481018390526000906126359073ffffffffffffffffffffffffffffffffffffffff7f000000000000000000000000000000000000000000000000000000000000000016906343a266c2906024016101e06040518083038186803b1580156125f757600080fd5b505afa15801561260b573d6000803e3d6000fd5b505050506040513d601f19601f8201168201806040525081019061262f9190612f59565b8361265f565b90505b92915050565b600061263583670de0b6b3a764000084612b4c565b60006126358383612c50565b60008061266b84612a54565b90508061267c576000915050612638565b60208401516040517f75b0d9cd00000000000000000000000000000000000000000000000000000000815260009173ffffffffffffffffffffffffffffffffffffffff7f000000000000000000000000000000000000000000000000000000000000000016916375b0d9cd916126f89160040190815260200190565b60206040518083038186803b15801561271057600080fd5b505afa158015612724573d6000803e3d6000fd5b505050506040513d601f19601f820116820180604052508101906127489190613034565b905060007f000000000000000000000000000000000000000000000000000000000000000073ffffffffffffffffffffffffffffffffffffffff16635dd8f6aa87602001516040518263ffffffff1660e01b81526004016127ab91815260200190565b60206040518083038186803b1580156127c357600080fd5b505afa1580156127d7573d6000803e3d6000fd5b505050506040513d601f19601f820116820180604052508101906127fb9190612f1b565b73ffffffffffffffffffffffffffffffffffffffff1663f033b3b48760200151612831896101c0015161ffff60089190911c1690565b6040517fffffffff0000000000000000000000000000000000000000000000000000000060e085901b1681526004810192909252602482015260440160206040518083038186803b15801561288557600080fd5b505afa158015612899573d6000803e3d6000fd5b505050506040513d601f19601f820116820180604052508101906128bd9190613034565b905080156128d2576128cf81836135bd565b91505b818514156128e557829350505050612638565b6000600160208801516040517fc55f571c00000000000000000000000000000000000000000000000000000000815260048101919091527f000000000000000000000000000000000000000000000000000000000000000073ffffffffffffffffffffffffffffffffffffffff169063c55f571c9060240160206040518083038186803b15801561297557600080fd5b505afa158015612989573d6000803e3d6000fd5b505050506040513d601f19601f820116820180604052508101906129ad9190612f38565b60038111156129be576129be61367a565b146129d5576101c087015160181c61ffff166129e3565b6101c087015160201c61ffff165b9050806129f7576000945050505050612638565b6000612a04858886612b4c565b9050816127101415612a1c5794506126389350505050565b612a4881612a3689612a30866127106135d5565b88612b4c565b612a4090856135bd565b612710612b4c565b98975050505050505050565b60208082015160009081526001909152604081205480612a775750600092915050565b6000836101a00151846101200151612a8f91906135d5565b905060008115612b25576101408501516040517ff48cc101000000000000000000000000000000000000000000000000000000008152600481019190915260006024820152612b2090839073ffffffffffffffffffffffffffffffffffffffff7f0000000000000000000000000000000000000000000000000000000000000000169063f48cc1019060440161062e565b612b28565b60005b9050808310612b4057612b3b81846135d5565b612b43565b60005b95945050505050565b600080807fffffffffffffffffffffffffffffffffffffffffffffffffffffffffffffffff8587098587029250828110838203039150508060001415612ba557838281612b9b57612b9b61364b565b049250505061235f565b838110612be8576040517f773cc18c0000000000000000000000000000000000000000000000000000000081526004810182905260248101859052604401610473565b600084868809600260036001881981018916988990049182028318808302840302808302840302808302840302808302840302808302840302918202909203026000889003889004909101858311909403939093029303949094049190911702949350505050565b600080807fffffffffffffffffffffffffffffffffffffffffffffffffffffffffffffffff848609848602925082811083820303915050670de0b6b3a76400008110612ccb576040517fd31b340200000000000000000000000000000000000000000000000000000000815260048101829052602401610473565b600080670de0b6b3a76400008688099150506706f05b59d3b1ffff811182612d055780670de0b6b3a7640000850401945050505050612638565b6204000082850304939091119091037d40000000000000000000000000000000000000000000000000000000000002919091177faccb18165bd6fe31ae1cf318dc5b51eee0e1ba569b88cd74c1773b91fac106690201905092915050565b600082601f830112612d7457600080fd5b8135612d87612d8282613577565b613528565b818152846020838601011115612d9c57600080fd5b816020850160208301376000918101602001919091529392505050565b600082601f830112612dca57600080fd5b8151612dd8612d8282613577565b818152846020838601011115612ded57600080fd5b612dfe8260208301602087016135ec565b949350505050565b8051612e11816136d8565b919050565b600080600080600080600060e0888a031215612e3157600080fd5b8735612e3c816136d8565b96506020880135955060408801359450606088013593506080880135612e61816136d8565b925060a088013567ffffffffffffffff80821115612e7e57600080fd5b612e8a8b838c01612d63565b935060c08a0135915080821115612ea057600080fd5b50612ead8a828b01612d63565b91505092959891949750929550565b600080600080600080600060e0888a031215612ed757600080fd5b8735612ee2816136d8565b96506020880135955060408801359450606088013593506080880135925060a088013567ffffffffffffffff80821115612e7e57600080fd5b600060208284031215612f2d57600080fd5b815161235f816136d8565b600060208284031215612f4a57600080fd5b81516004811061235f57600080fd5b60006101e08284031215612f6c57600080fd5b612f746134fe565b825181526020830151602082015260408301516040820152606083015160608201526080830151608082015260a083015160a0820152612fb660c08401612e06565b60c082015260e08381015190820152610100808401519082015261012080840151908201526101408084015190820152610160808401519082015261018080840151908201526101a080840151908201526101c0928301519281019290925250919050565b60006020828403121561302d57600080fd5b5035919050565b60006020828403121561304657600080fd5b5051919050565b600080600080600060a0868803121561306557600080fd5b853594506020860135613077816136d8565b94979496505050506040830135926060810135926080909101359150565b600080600080608085870312156130ab57600080fd5b84519350602085015167ffffffffffffffff808211156130ca57600080fd5b6130d688838901612db9565b9450604087015191506130e8826136d8565b6060870151919350808211156130fd57600080fd5b5061310a87828801612db9565b91505092959194509250565b6000806040838503121561312957600080fd5b50508035926020909101359150565b6000806000806080858703121561314e57600080fd5b5050823594602084013594506040840135936060013592509050565b600081518084526131828160208601602086016135ec565b601f017fffffffffffffffffffffffffffffffffffffffffffffffffffffffffffffffe0169290920160200192915050565b805182526020810151602083015260408101516040830152606081015160608301526080810151608083015260a081015160a083015260c081015161321160c084018273ffffffffffffffffffffffffffffffffffffffff169052565b5060e08181015190830152610100808201519083015261012080820151908301526101408082015190830152610160808201519083015261018080820151908301526101a080820151908301526101c090810151910152565b600073ffffffffffffffffffffffffffffffffffffffff8083511684526020830151602085015260408301516040850152606083015160608501528060808401511660808501525060a082015160e060a08501526132cb60e085018261316a565b905060c083015184820360c0860152612b43828261316a565b6020815273ffffffffffffffffffffffffffffffffffffffff8251166020820152602082015160408201526040820151606082015260608201516080820152608082015160a0820152600060a083015161335660c084018273ffffffffffffffffffffffffffffffffffffffff169052565b5060c08301516101008060e085015261337361012085018361316a565b915060e08501517fffffffffffffffffffffffffffffffffffffffffffffffffffffffffffffffe085840301828601526133ad838261316a565b9695505050505050565b60208152600073ffffffffffffffffffffffffffffffffffffffff8084511660208401526020840151604084015260408401516060840152606084015160808401528060808501511660a08401525060a083015160e060c084015261342061010084018261316a565b905060c08401517fffffffffffffffffffffffffffffffffffffffffffffffffffffffffffffffe08483030160e0850152612b43828261316a565b6101e0810161263882846131b4565b610200810161347982856131b4565b826101e08301529392505050565b600061022061349683876131b4565b846101e0840152806102008401526133ad8184018561316a565b60006102406134bf83886131b4565b856101e084015284610200840152806102208401526134e08184018561316a565b979650505050505050565b602081526000612635602083018461326a565b6040516101e0810167ffffffffffffffff81118282101715613522576135226136a9565b60405290565b604051601f82017fffffffffffffffffffffffffffffffffffffffffffffffffffffffffffffffe016810167ffffffffffffffff8111828210171561356f5761356f6136a9565b604052919050565b600067ffffffffffffffff821115613591576135916136a9565b50601f017fffffffffffffffffffffffffffffffffffffffffffffffffffffffffffffffe01660200190565b600082198211156135d0576135d061361c565b500190565b6000828210156135e7576135e761361c565b500390565b60005b838110156136075781810151838201526020016135ef565b83811115613616576000848401525b50505050565b7f4e487b7100000000000000000000000000000000000000000000000000000000600052601160045260246000fd5b7f4e487b7100000000000000000000000000000000000000000000000000000000600052601260045260246000fd5b7f4e487b7100000000000000000000000000000000000000000000000000000000600052602160045260246000fd5b7f4e487b7100000000000000000000000000000000000000000000000000000000600052604160045260246000fd5b73ffffffffffffffffffffffffffffffffffffffff811681146136fa57600080fd5b5056fea2646970667358221220e7621d6a3a60d63c21a652ea17e96d832953fa6c204e1c8ea0483e9ea985a59864736f6c63430008060033",
  "devdoc": {
    "details": " A project can transfer its funds, along with the power to reconfigure and mint/burn their tokens, from this contract to another allowed terminal contract at any time. Inherits from: IJBPaymentTerminal - general interface for the methods in this contract that send and receive funds according to the Juicebox protocol's rules. JBOperatable - several functions in this contract can only be accessed by a project owner, or an address that has been preconfifigured to be an operator of the project. ReentrencyGuard - several function in this contract shouldn't be accessible recursively.",
    "kind": "dev",
    "methods": {
      "claimableOverflowOf(uint256,uint256)": {
        "details": "If the project has an active funding cycle reconfiguration ballot, the project's ballot redemption rate is used.",
        "params": {
          "_projectId": "The ID of the project to get a claimable amount for.",
          "_tokenCount": "The number of tokens to make the calculation with. "
        },
        "returns": {
          "_0": "The amount of overflowed ETH that can be claimed."
        }
      },
      "constructor": {
        "params": {
          "_directory": "A contract storing directories of terminals and controllers for each project.",
          "_fundingCycleStore": "A contract storing all funding cycle configurations.",
          "_prices": "A contract that exposes price feeds.",
          "_projects": "A contract which mints ERC-721's that represent project ownership and transfers.",
          "_tokenStore": "A contract that manages token minting and burning."
        }
      },
      "currentOverflowOf(uint256)": {
        "params": {
          "_projectId": "The ID of the project to get overflow for."
        },
        "returns": {
          "_0": "The current amount of overflow that project has."
        }
      },
      "recordAddedBalanceFor(uint256,uint256)": {
        "details": "Only the associated payment terminal can record an added balance.",
        "params": {
          "_amount": "The amount added, in wei.",
          "_projectId": "The ID of the project to which the funds being added belong."
        },
        "returns": {
          "fundingCycle": "The current funding cycle for the project."
        }
      },
      "recordMigration(uint256)": {
        "params": {
          "_projectId": "The ID of the project being migrated."
        },
        "returns": {
          "balance": "The project's current balance."
        }
      },
      "recordPaymentFrom(address,uint256,uint256,uint256,uint256,string,bytes)": {
        "details": "Mint's the project's tokens according to values provided by a configured data source. If no data source is configured, mints tokens proportional to the amount of the contribution. Only the associated payment terminal can record a payment.",
        "params": {
          "_amount": "The amount that is being paid.",
          "_delegateMetadata": "Bytes to send along to the delegate, if one is used.",
          "_memo": "A memo that will be included in the published event.",
          "_minReturnedTokens": "The minimum number of tokens expected to be minted in return.",
          "_payer": "The original address that sent the payment to the terminal.",
          "_preferClaimedTokensAndBeneficiary": "Two properties are included in this packed uint256: The first bit contains the flag indicating whether the request prefers to issue tokens claimed as ERC-20s. The remaining bits contains the address that should receive benefits from the payment. This design is necessary two prevent a \"Stack too deep\" compiler error that comes up if the variables are declared seperately.",
          "_projectId": "The ID of the project being paid."
        },
        "returns": {
          "fundingCycle": "The project's funding cycle during which payment was made.",
          "memo": "A memo that should be passed along to the emitted event.",
          "tokenCount": "The number of tokens that were minted.",
          "weight": "The weight according to which new token supply was minted."
        }
      },
      "recordRedemptionFor(address,uint256,uint256,uint256,address,string,bytes)": {
        "details": " Only the associated payment terminal can record a redemption.",
        "params": {
          "_beneficiary": "The address that will benefit from the claimed amount.",
          "_delegateMetadata": "Bytes to send along to the delegate, if one is used.",
          "_holder": "The account that is having its tokens redeemed.",
          "_memo": "A memo to pass along to the emitted event.",
          "_minReturnedWei": "The minimum amount of wei expected in return.",
          "_projectId": "The ID of the project to which the tokens being redeemed belong.",
          "_tokenCount": "The number of tokens to redeemed."
        },
        "returns": {
          "claimAmount": "The amount of wei claimed.",
          "fundingCycle": "The funding cycle during which the redemption was made.",
          "memo": "A memo that should be passed along to the emitted event."
        }
      },
      "recordUsedAllowanceOf(uint256,address,uint256,uint256,uint256)": {
        "params": {
          "_amount": "The amount of the allowance to use.",
          "_currency": "The currency of the `_amount` value. Must match the funding cycle's currency.",
          "_minReturnedWei": "The amount of wei that is expected to be withdrawn.",
          "_projectId": "The ID of the project to use the allowance of.",
          "_terminal": "The terminal for the allowance."
        },
        "returns": {
          "fundingCycle": "The funding cycle during which the withdrawal is being made.",
          "withdrawnAmount": "The amount withdrawn."
        }
      },
      "recordWithdrawalFor(uint256,uint256,uint256,uint256)": {
        "details": "Only the associated payment terminal can record a withdrawal.",
        "params": {
          "_amount": "The amount being withdrawn. Send as wei (18 decimals).",
          "_currency": "The expected currency of the `_amount` being tapped. This must match the project's current funding cycle's currency.",
          "_minReturnedWei": "The minimum number of wei that should be withdrawn.",
          "_projectId": "The ID of the project that is having funds withdrawn."
        },
        "returns": {
          "fundingCycle": "The funding cycle during which the withdrawal was made.",
          "withdrawnAmount": "The amount withdrawn."
        }
      }
    },
    "stateVariables": {
      "usedOverflowAllowanceOf": {
        "details": " Decreases as projects use of the allowance. _projectId The ID of the project to get the current overflow allowance of. _configuration The configuration of the during which the allowance applies."
      }
    },
    "version": 1
  },
  "userdoc": {
    "errors": {
      "PRBMath__MulDivFixedPointOverflow(uint256)": [
        {
          "notice": "Emitted when the result overflows uint256."
        }
      ],
      "PRBMath__MulDivOverflow(uint256,uint256)": [
        {
          "notice": "Emitted when the result overflows uint256."
        }
      ]
    },
    "kind": "user",
    "methods": {
      "balanceOf(uint256)": {
        "notice": " The amount of ETH that each project has. _projectId The ID of the project to get the balance of."
      },
      "claim()": {
        "notice": "Allows this store to be claimed by an address so that it recognized the address as its terminal."
      },
      "claimableOverflowOf(uint256,uint256)": {
        "notice": "The amount of overflowed ETH that can be claimed by the specified number of tokens."
      },
      "currentOverflowOf(uint256)": {
        "notice": "Gets the current overflowed amount for a specified project."
      },
      "directory()": {
        "notice": "The directory of terminals and controllers for projects."
      },
      "fundingCycleStore()": {
        "notice": " The contract storing all funding cycle configurations."
      },
      "prices()": {
        "notice": " The contract that exposes price feeds."
      },
      "projects()": {
        "notice": "The Projects contract which mints ERC-721's that represent project ownership and transfers."
      },
      "recordAddedBalanceFor(uint256,uint256)": {
        "notice": "Records newly added funds for the project."
      },
      "recordMigration(uint256)": {
        "notice": "Records the migration of this terminal to another."
      },
      "recordPaymentFrom(address,uint256,uint256,uint256,uint256,string,bytes)": {
        "notice": "Records newly contributed ETH to a project."
      },
      "recordRedemptionFor(address,uint256,uint256,uint256,address,string,bytes)": {
        "notice": "Records newly redeemed tokens of a project."
      },
      "recordUsedAllowanceOf(uint256,address,uint256,uint256,uint256)": {
        "notice": " Records newly used allowance funds of a project."
      },
      "recordWithdrawalFor(uint256,uint256,uint256,uint256)": {
        "notice": "Records newly withdrawn funds for a project."
      },
      "terminal()": {
        "notice": "The associated payment terminal for which this contract stores data."
      },
      "tokenStore()": {
        "notice": " The contract that manages token minting and burning."
      },
      "usedOverflowAllowanceOf(uint256,uint256)": {
        "notice": " The amount of overflow that a project is allowed to tap into on-demand for the specified project configuration. "
      }
    },
    "notice": "This contract manages all inflows and outflows of funds into the Juicebox ecosystem.",
    "version": 1
  },
  "storageLayout": {
    "storage": [
      {
        "astId": 18645,
        "contract": "contracts/v2/JBETHPaymentTerminalStore.sol:JBETHPaymentTerminalStore",
        "label": "terminal",
        "offset": 0,
        "slot": "0",
        "type": "t_address"
      },
      {
        "astId": 18650,
        "contract": "contracts/v2/JBETHPaymentTerminalStore.sol:JBETHPaymentTerminalStore",
        "label": "balanceOf",
        "offset": 0,
        "slot": "1",
        "type": "t_mapping(t_uint256,t_uint256)"
      },
      {
        "astId": 18657,
        "contract": "contracts/v2/JBETHPaymentTerminalStore.sol:JBETHPaymentTerminalStore",
        "label": "usedOverflowAllowanceOf",
        "offset": 0,
        "slot": "2",
        "type": "t_mapping(t_uint256,t_mapping(t_uint256,t_uint256))"
      }
    ],
    "types": {
      "t_address": {
        "encoding": "inplace",
        "label": "address",
        "numberOfBytes": "20"
      },
      "t_mapping(t_uint256,t_mapping(t_uint256,t_uint256))": {
        "encoding": "mapping",
        "key": "t_uint256",
        "label": "mapping(uint256 => mapping(uint256 => uint256))",
        "numberOfBytes": "32",
        "value": "t_mapping(t_uint256,t_uint256)"
      },
      "t_mapping(t_uint256,t_uint256)": {
        "encoding": "mapping",
        "key": "t_uint256",
        "label": "mapping(uint256 => uint256)",
        "numberOfBytes": "32",
        "value": "t_uint256"
      },
      "t_uint256": {
        "encoding": "inplace",
        "label": "uint256",
        "numberOfBytes": "32"
      }
    }
  }
}