{
  "address": "0x3F2ff7F57b9edF63Ed4e5b53806a83d8B061adC7",
  "abi": [
    {
      "inputs": [
        {
          "internalType": "contract IJBPrices",
          "name": "_prices",
          "type": "address"
        },
        {
          "internalType": "contract IJBProjects",
          "name": "_projects",
          "type": "address"
        },
        {
          "internalType": "contract IJBDirectory",
          "name": "_directory",
          "type": "address"
        },
        {
          "internalType": "contract IJBFundingCycleStore",
          "name": "_fundingCycleStore",
          "type": "address"
        },
        {
          "internalType": "contract IJBTokenStore",
          "name": "_tokenStore",
          "type": "address"
        }
      ],
      "stateMutability": "nonpayable",
      "type": "constructor"
    },
    {
      "inputs": [],
      "name": "CURRENCY_MISMATCH",
      "type": "error"
    },
    {
      "inputs": [],
      "name": "DISTRIBUTION_AMOUNT_LIMIT_REACHED",
      "type": "error"
    },
    {
      "inputs": [],
      "name": "FUNDING_CYCLE_DISTRIBUTION_PAUSED",
      "type": "error"
    },
    {
      "inputs": [],
      "name": "FUNDING_CYCLE_PAYMENT_PAUSED",
      "type": "error"
    },
    {
      "inputs": [],
      "name": "FUNDING_CYCLE_REDEEM_PAUSED",
      "type": "error"
    },
    {
      "inputs": [],
      "name": "INADEQUATE_CLAIM_AMOUNT",
      "type": "error"
    },
    {
      "inputs": [],
      "name": "INADEQUATE_CONTROLLER_ALLOWANCE",
      "type": "error"
    },
    {
      "inputs": [],
      "name": "INADEQUATE_PAYMENT_TERMINAL_STORE_BALANCE",
      "type": "error"
    },
    {
      "inputs": [],
      "name": "INADEQUATE_TOKEN_COUNT",
      "type": "error"
    },
    {
      "inputs": [],
      "name": "INADEQUATE_WITHDRAW_AMOUNT",
      "type": "error"
    },
    {
      "inputs": [],
      "name": "INSUFFICIENT_FUND_FOR_DISTRIBUTION",
      "type": "error"
    },
    {
      "inputs": [],
      "name": "INSUFFICIENT_TOKENS",
      "type": "error"
    },
    {
      "inputs": [],
      "name": "INVALID_FUNDING_CYCLE",
      "type": "error"
    },
    {
      "inputs": [],
      "name": "NO_CLAIMABLE_TOKENS",
      "type": "error"
    },
    {
      "inputs": [],
      "name": "PAYMENT_TERMINAL_MIGRATION_NOT_ALLOWED",
      "type": "error"
    },
    {
      "inputs": [],
      "name": "PAYMENT_TERMINAL_UNAUTHORIZED",
      "type": "error"
    },
    {
      "inputs": [
        {
          "internalType": "uint256",
          "name": "prod1",
          "type": "uint256"
        }
      ],
      "name": "PRBMath__MulDivFixedPointOverflow",
      "type": "error"
    },
    {
      "inputs": [
        {
          "internalType": "uint256",
          "name": "prod1",
          "type": "uint256"
        },
        {
          "internalType": "uint256",
          "name": "denominator",
          "type": "uint256"
        }
      ],
      "name": "PRBMath__MulDivOverflow",
      "type": "error"
    },
    {
      "inputs": [],
      "name": "STORE_ALREADY_CLAIMED",
      "type": "error"
    },
    {
      "inputs": [],
      "name": "TOKEN_AMOUNT_ZERO",
      "type": "error"
    },
    {
      "anonymous": false,
      "inputs": [
        {
          "indexed": true,
          "internalType": "contract IJBPayDelegate",
          "name": "delegate",
          "type": "address"
        },
        {
          "components": [
            {
              "internalType": "address",
              "name": "payer",
              "type": "address"
            },
            {
              "internalType": "uint256",
              "name": "projectId",
              "type": "uint256"
            },
            {
              "internalType": "uint256",
              "name": "amount",
              "type": "uint256"
            },
            {
              "internalType": "uint256",
              "name": "weight",
              "type": "uint256"
            },
            {
              "internalType": "uint256",
              "name": "tokenCount",
              "type": "uint256"
            },
            {
              "internalType": "address",
              "name": "beneficiary",
              "type": "address"
            },
            {
              "internalType": "string",
              "name": "memo",
              "type": "string"
            },
            {
              "internalType": "bytes",
              "name": "delegateMetadata",
              "type": "bytes"
            }
          ],
          "indexed": false,
          "internalType": "struct JBDidPayData",
          "name": "data",
          "type": "tuple"
        }
      ],
      "name": "DelegateDidPay",
      "type": "event"
    },
    {
      "anonymous": false,
      "inputs": [
        {
          "indexed": true,
          "internalType": "contract IJBRedemptionDelegate",
          "name": "delegate",
          "type": "address"
        },
        {
          "components": [
            {
              "internalType": "address",
              "name": "holder",
              "type": "address"
            },
            {
              "internalType": "uint256",
              "name": "projectId",
              "type": "uint256"
            },
            {
              "internalType": "uint256",
              "name": "tokenCount",
              "type": "uint256"
            },
            {
              "internalType": "uint256",
              "name": "claimAmount",
              "type": "uint256"
            },
            {
              "internalType": "address payable",
              "name": "beneficiary",
              "type": "address"
            },
            {
              "internalType": "string",
              "name": "memo",
              "type": "string"
            },
            {
              "internalType": "bytes",
              "name": "metadata",
              "type": "bytes"
            }
          ],
          "indexed": false,
          "internalType": "struct JBDidRedeemData",
          "name": "data",
          "type": "tuple"
        }
      ],
      "name": "DelegateDidRedeem",
      "type": "event"
    },
    {
      "inputs": [
        {
          "internalType": "uint256",
          "name": "",
          "type": "uint256"
        }
      ],
      "name": "balanceOf",
      "outputs": [
        {
          "internalType": "uint256",
          "name": "",
          "type": "uint256"
        }
      ],
      "stateMutability": "view",
      "type": "function"
    },
    {
      "inputs": [
        {
          "internalType": "contract IJBTerminal",
          "name": "_terminal",
          "type": "address"
        }
      ],
      "name": "claimFor",
      "outputs": [],
      "stateMutability": "nonpayable",
      "type": "function"
    },
    {
      "inputs": [
        {
          "internalType": "uint256",
          "name": "_projectId",
          "type": "uint256"
        },
        {
          "internalType": "uint256",
          "name": "_tokenCount",
          "type": "uint256"
        }
      ],
      "name": "claimableOverflowOf",
      "outputs": [
        {
          "internalType": "uint256",
          "name": "",
          "type": "uint256"
        }
      ],
      "stateMutability": "view",
      "type": "function"
    },
    {
      "inputs": [
        {
          "internalType": "uint256",
          "name": "_projectId",
          "type": "uint256"
        }
      ],
      "name": "currentOverflowOf",
      "outputs": [
        {
          "internalType": "uint256",
          "name": "",
          "type": "uint256"
        }
      ],
      "stateMutability": "view",
      "type": "function"
    },
    {
      "inputs": [
        {
          "internalType": "uint256",
          "name": "_projectId",
          "type": "uint256"
        }
      ],
      "name": "currentTotalOverflowOf",
      "outputs": [
        {
          "internalType": "uint256",
          "name": "",
          "type": "uint256"
        }
      ],
      "stateMutability": "view",
      "type": "function"
    },
    {
      "inputs": [],
      "name": "directory",
      "outputs": [
        {
          "internalType": "contract IJBDirectory",
          "name": "",
          "type": "address"
        }
      ],
      "stateMutability": "view",
      "type": "function"
    },
    {
      "inputs": [],
      "name": "fundingCycleStore",
      "outputs": [
        {
          "internalType": "contract IJBFundingCycleStore",
          "name": "",
          "type": "address"
        }
      ],
      "stateMutability": "view",
      "type": "function"
    },
    {
      "inputs": [],
      "name": "prices",
      "outputs": [
        {
          "internalType": "contract IJBPrices",
          "name": "",
          "type": "address"
        }
      ],
      "stateMutability": "view",
      "type": "function"
    },
    {
      "inputs": [],
      "name": "projects",
      "outputs": [
        {
          "internalType": "contract IJBProjects",
          "name": "",
          "type": "address"
        }
      ],
      "stateMutability": "view",
      "type": "function"
    },
    {
      "inputs": [
        {
          "internalType": "uint256",
          "name": "_projectId",
          "type": "uint256"
        },
        {
          "internalType": "uint256",
          "name": "_amount",
          "type": "uint256"
        }
      ],
      "name": "recordAddedBalanceFor",
      "outputs": [
        {
          "components": [
            {
              "internalType": "uint256",
              "name": "number",
              "type": "uint256"
            },
            {
              "internalType": "uint256",
              "name": "configuration",
              "type": "uint256"
            },
            {
              "internalType": "uint256",
              "name": "basedOn",
              "type": "uint256"
            },
            {
              "internalType": "uint256",
              "name": "start",
              "type": "uint256"
            },
            {
              "internalType": "uint256",
              "name": "duration",
              "type": "uint256"
            },
            {
              "internalType": "uint256",
              "name": "weight",
              "type": "uint256"
            },
            {
              "internalType": "uint256",
              "name": "discountRate",
              "type": "uint256"
            },
            {
              "internalType": "contract IJBFundingCycleBallot",
              "name": "ballot",
              "type": "address"
            },
            {
              "internalType": "uint256",
              "name": "metadata",
              "type": "uint256"
            }
          ],
          "internalType": "struct JBFundingCycle",
          "name": "fundingCycle",
          "type": "tuple"
        }
      ],
      "stateMutability": "nonpayable",
      "type": "function"
    },
    {
      "inputs": [
        {
          "internalType": "uint256",
          "name": "_projectId",
          "type": "uint256"
        },
        {
          "internalType": "uint256",
          "name": "_amount",
          "type": "uint256"
        },
        {
          "internalType": "uint256",
          "name": "_currency",
          "type": "uint256"
        },
        {
          "internalType": "uint256",
          "name": "_minReturnedWei",
          "type": "uint256"
        }
      ],
      "name": "recordDistributionFor",
      "outputs": [
        {
          "components": [
            {
              "internalType": "uint256",
              "name": "number",
              "type": "uint256"
            },
            {
              "internalType": "uint256",
              "name": "configuration",
              "type": "uint256"
            },
            {
              "internalType": "uint256",
              "name": "basedOn",
              "type": "uint256"
            },
            {
              "internalType": "uint256",
              "name": "start",
              "type": "uint256"
            },
            {
              "internalType": "uint256",
              "name": "duration",
              "type": "uint256"
            },
            {
              "internalType": "uint256",
              "name": "weight",
              "type": "uint256"
            },
            {
              "internalType": "uint256",
              "name": "discountRate",
              "type": "uint256"
            },
            {
              "internalType": "contract IJBFundingCycleBallot",
              "name": "ballot",
              "type": "address"
            },
            {
              "internalType": "uint256",
              "name": "metadata",
              "type": "uint256"
            }
          ],
          "internalType": "struct JBFundingCycle",
          "name": "fundingCycle",
          "type": "tuple"
        },
        {
          "internalType": "uint256",
          "name": "distributedAmount",
          "type": "uint256"
        }
      ],
      "stateMutability": "nonpayable",
      "type": "function"
    },
    {
      "inputs": [
        {
          "internalType": "uint256",
          "name": "_projectId",
          "type": "uint256"
        }
      ],
      "name": "recordMigration",
      "outputs": [
        {
          "internalType": "uint256",
          "name": "balance",
          "type": "uint256"
        }
      ],
      "stateMutability": "nonpayable",
      "type": "function"
    },
    {
      "inputs": [
        {
          "internalType": "address",
          "name": "_payer",
          "type": "address"
        },
        {
          "internalType": "uint256",
          "name": "_amount",
          "type": "uint256"
        },
        {
          "internalType": "uint256",
          "name": "_projectId",
          "type": "uint256"
        },
        {
          "internalType": "uint256",
          "name": "_preferClaimedTokensAndBeneficiary",
          "type": "uint256"
        },
        {
          "internalType": "uint256",
          "name": "_minReturnedTokens",
          "type": "uint256"
        },
        {
          "internalType": "string",
          "name": "_memo",
          "type": "string"
        },
        {
          "internalType": "bytes",
          "name": "_delegateMetadata",
          "type": "bytes"
        }
      ],
      "name": "recordPaymentFrom",
      "outputs": [
        {
          "components": [
            {
              "internalType": "uint256",
              "name": "number",
              "type": "uint256"
            },
            {
              "internalType": "uint256",
              "name": "configuration",
              "type": "uint256"
            },
            {
              "internalType": "uint256",
              "name": "basedOn",
              "type": "uint256"
            },
            {
              "internalType": "uint256",
              "name": "start",
              "type": "uint256"
            },
            {
              "internalType": "uint256",
              "name": "duration",
              "type": "uint256"
            },
            {
              "internalType": "uint256",
              "name": "weight",
              "type": "uint256"
            },
            {
              "internalType": "uint256",
              "name": "discountRate",
              "type": "uint256"
            },
            {
              "internalType": "contract IJBFundingCycleBallot",
              "name": "ballot",
              "type": "address"
            },
            {
              "internalType": "uint256",
              "name": "metadata",
              "type": "uint256"
            }
          ],
          "internalType": "struct JBFundingCycle",
          "name": "fundingCycle",
          "type": "tuple"
        },
        {
          "internalType": "uint256",
          "name": "weight",
          "type": "uint256"
        },
        {
          "internalType": "uint256",
          "name": "tokenCount",
          "type": "uint256"
        },
        {
          "internalType": "string",
          "name": "memo",
          "type": "string"
        }
      ],
      "stateMutability": "nonpayable",
      "type": "function"
    },
    {
      "inputs": [
        {
          "internalType": "address",
          "name": "_holder",
          "type": "address"
        },
        {
          "internalType": "uint256",
          "name": "_projectId",
          "type": "uint256"
        },
        {
          "internalType": "uint256",
          "name": "_tokenCount",
          "type": "uint256"
        },
        {
          "internalType": "uint256",
          "name": "_minReturnedWei",
          "type": "uint256"
        },
        {
          "internalType": "address payable",
          "name": "_beneficiary",
          "type": "address"
        },
        {
          "internalType": "string",
          "name": "_memo",
          "type": "string"
        },
        {
          "internalType": "bytes",
          "name": "_delegateMetadata",
          "type": "bytes"
        }
      ],
      "name": "recordRedemptionFor",
      "outputs": [
        {
          "components": [
            {
              "internalType": "uint256",
              "name": "number",
              "type": "uint256"
            },
            {
              "internalType": "uint256",
              "name": "configuration",
              "type": "uint256"
            },
            {
              "internalType": "uint256",
              "name": "basedOn",
              "type": "uint256"
            },
            {
              "internalType": "uint256",
              "name": "start",
              "type": "uint256"
            },
            {
              "internalType": "uint256",
              "name": "duration",
              "type": "uint256"
            },
            {
              "internalType": "uint256",
              "name": "weight",
              "type": "uint256"
            },
            {
              "internalType": "uint256",
              "name": "discountRate",
              "type": "uint256"
            },
            {
              "internalType": "contract IJBFundingCycleBallot",
              "name": "ballot",
              "type": "address"
            },
            {
              "internalType": "uint256",
              "name": "metadata",
              "type": "uint256"
            }
          ],
          "internalType": "struct JBFundingCycle",
          "name": "fundingCycle",
          "type": "tuple"
        },
        {
          "internalType": "uint256",
          "name": "claimAmount",
          "type": "uint256"
        },
        {
          "internalType": "string",
          "name": "memo",
          "type": "string"
        }
      ],
      "stateMutability": "nonpayable",
      "type": "function"
    },
    {
      "inputs": [
        {
          "internalType": "uint256",
          "name": "_projectId",
          "type": "uint256"
        },
        {
          "internalType": "uint256",
          "name": "_amount",
          "type": "uint256"
        },
        {
          "internalType": "uint256",
          "name": "_currency",
          "type": "uint256"
        },
        {
          "internalType": "uint256",
          "name": "_minReturnedWei",
          "type": "uint256"
        }
      ],
      "name": "recordUsedAllowanceOf",
      "outputs": [
        {
          "components": [
            {
              "internalType": "uint256",
              "name": "number",
              "type": "uint256"
            },
            {
              "internalType": "uint256",
              "name": "configuration",
              "type": "uint256"
            },
            {
              "internalType": "uint256",
              "name": "basedOn",
              "type": "uint256"
            },
            {
              "internalType": "uint256",
              "name": "start",
              "type": "uint256"
            },
            {
              "internalType": "uint256",
              "name": "duration",
              "type": "uint256"
            },
            {
              "internalType": "uint256",
              "name": "weight",
              "type": "uint256"
            },
            {
              "internalType": "uint256",
              "name": "discountRate",
              "type": "uint256"
            },
            {
              "internalType": "contract IJBFundingCycleBallot",
              "name": "ballot",
              "type": "address"
            },
            {
              "internalType": "uint256",
              "name": "metadata",
              "type": "uint256"
            }
          ],
          "internalType": "struct JBFundingCycle",
          "name": "fundingCycle",
          "type": "tuple"
        },
        {
          "internalType": "uint256",
          "name": "withdrawnAmount",
          "type": "uint256"
        }
      ],
      "stateMutability": "nonpayable",
      "type": "function"
    },
    {
      "inputs": [],
      "name": "terminal",
      "outputs": [
        {
          "internalType": "contract IJBTerminal",
          "name": "",
          "type": "address"
        }
      ],
      "stateMutability": "view",
      "type": "function"
    },
    {
      "inputs": [],
      "name": "tokenStore",
      "outputs": [
        {
          "internalType": "contract IJBTokenStore",
          "name": "",
          "type": "address"
        }
      ],
      "stateMutability": "view",
      "type": "function"
    },
    {
      "inputs": [
        {
          "internalType": "uint256",
          "name": "",
          "type": "uint256"
        },
        {
          "internalType": "uint256",
          "name": "",
          "type": "uint256"
        }
      ],
      "name": "usedDistributionLimitOf",
      "outputs": [
        {
          "internalType": "uint256",
          "name": "",
          "type": "uint256"
        }
      ],
      "stateMutability": "view",
      "type": "function"
    },
    {
      "inputs": [
        {
          "internalType": "uint256",
          "name": "",
          "type": "uint256"
        },
        {
          "internalType": "uint256",
          "name": "",
          "type": "uint256"
        }
      ],
      "name": "usedOverflowAllowanceOf",
      "outputs": [
        {
          "internalType": "uint256",
          "name": "",
          "type": "uint256"
        }
      ],
      "stateMutability": "view",
      "type": "function"
    }
  ],
  "transactionHash": "0xd6280071ab02a3797c99ea466b163c5b78f2bc49b34292ce2cae7f69e14a8992",
  "args": [
    "0x236D9F67587782420151225Ff867044B9CcD30e3",
    "0xA08dD15247f67742eF1597Bcb2a0D829a7A3C5e1",
    "0x47F214f5e7D8589FEFe2946716aeA5fDfa53932a",
    "0x47dd5e5Ba77695598F62AeAF948fFA52c59436fa",
    "0x55c09A5A759A88cEa54607E240BC5D08A9f8b0e8"
  ],
  "solcInputHash": "6296389d5d0c73c3ff767c6895895650",
  "bytecode": "0x6101206040523480156200001257600080fd5b50604051620042aa380380620042aa83398101604081905262000035916200006d565b6001600160601b0319606095861b81166101005293851b841660805291841b831660a052831b821660c05290911b1660e05262000106565b600080600080600060a086880312156200008657600080fd5b85516200009381620000ed565b6020870151909550620000a681620000ed565b6040870151909450620000b981620000ed565b6060870151909350620000cc81620000ed565b6080870151909250620000df81620000ed565b809150509295509295909350565b6001600160a01b03811681146200010357600080fd5b50565b60805160601c60a05160601c60c05160601c60e05160601c6101005160601c61409362000217600039600081816103190152818161093b0152818161175b01528181612f46015261336101526000818161023c01528181611afb015261273f0152600081816101f0015281816104c701528181610b85015281816112a3015281816118cd01528181611bdd015281816122110152818161237f015281816124eb015281816125b701526129ab0152600081816102f2015281816105890152818161076201528181610e6e015281816113ab0152818161158201528181611efc0152818161281801528181612b2201528181612d9b0152818161303101526131cc0152600061027601526140936000f3fe608060405234801561001057600080fd5b50600436106101515760003560e01c80639cc7f708116100cd578063ddeae03311610081578063e7c8e3e311610066578063e7c8e3e31461038e578063f45d0bc6146103ae578063f548c86f146103ce57600080fd5b8063ddeae03314610366578063ddfd414a1461037b57600080fd5b8063c41c2f24116100b2578063c41c2f24146102ed578063d3419bf314610314578063dcc3041b1461033b57600080fd5b80639cc7f708146102ba578063c13d5070146102da57600080fd5b8063557e7155116101245780636bb6a5ad116101095780636bb6a5ad1461025e5780638b79543c146102715780639225bf1a1461029857600080fd5b8063557e7155146101eb578063619306301461023757600080fd5b8063115cdd8e146101565780631837d6e31461019457806329c705c7146101b55780634d9cd5ac146101d8575b600080fd5b6101816101643660046139e1565b600260209081526000928352604080842090915290825290205481565b6040519081526020015b60405180910390f35b6101a76101a2366004613a03565b6103e1565b60405161018b929190613c3f565b6101c86101c336600461373b565b610a9a565b60405161018b9493929190613d5b565b6101a76101e6366004613a03565b6111bd565b6102127f000000000000000000000000000000000000000000000000000000000000000081565b60405173ffffffffffffffffffffffffffffffffffffffff909116815260200161018b565b6102127f000000000000000000000000000000000000000000000000000000000000000081565b61018161026c36600461392e565b611849565b6102127f000000000000000000000000000000000000000000000000000000000000000081565b6102ab6102a6366004613695565b6119bd565b60405161018b93929190613cc7565b6101816102c836600461392e565b60016020526000908152604090205481565b6101816102e836600461392e565b6121c8565b6102127f000000000000000000000000000000000000000000000000000000000000000081565b6102127f000000000000000000000000000000000000000000000000000000000000000081565b6101816103493660046139e1565b600360209081526000928352604080842090915290825290205481565b610379610374366004613870565b61229f565b005b61018161038936600461392e565b612336565b6103a161039c3660046139e1565b612406565b60405161018b9190613bc5565b6000546102129073ffffffffffffffffffffffffffffffffffffffff1681565b6101816103dc3660046139e1565b6125af565b61044660405180610120016040528060008152602001600081526020016000815260200160008152602001600081526020016000815260200160008152602001600073ffffffffffffffffffffffffffffffffffffffff168152602001600081525090565b6000805473ffffffffffffffffffffffffffffffffffffffff163314610498576040517f0d714d2d00000000000000000000000000000000000000000000000000000000815260040160405180910390fd5b6040517f43a266c2000000000000000000000000000000000000000000000000000000008152600481018790527f000000000000000000000000000000000000000000000000000000000000000073ffffffffffffffffffffffffffffffffffffffff16906343a266c2906024016101206040518083038186803b15801561051f57600080fd5b505afa158015610533573d6000803e3d6000fd5b505050506040513d601f19601f8201168201806040525081019061055791906138ae565b6040517f5dd8f6aa000000000000000000000000000000000000000000000000000000008152600481018890529092507f000000000000000000000000000000000000000000000000000000000000000073ffffffffffffffffffffffffffffffffffffffff1690635dd8f6aa9060240160206040518083038186803b1580156105e057600080fd5b505afa1580156105f4573d6000803e3d6000fd5b505050506040513d601f19601f820116820180604052508101906106189190613853565b60208301516000546040517f3732d12c000000000000000000000000000000000000000000000000000000008152600481018a9052602481019290925273ffffffffffffffffffffffffffffffffffffffff90811660448301529190911690633732d12c9060640160206040518083038186803b15801561069857600080fd5b505afa1580156106ac573d6000803e3d6000fd5b505050506040513d601f19601f820116820180604052508101906106d09190613947565b8414610708576040517fe56ea4e700000000000000000000000000000000000000000000000000000000815260040160405180910390fd5b6000868152600260209081526040808320858301518452909152812054610730908790613eb5565b6040517f5dd8f6aa000000000000000000000000000000000000000000000000000000008152600481018990529091507f000000000000000000000000000000000000000000000000000000000000000073ffffffffffffffffffffffffffffffffffffffff1690635dd8f6aa9060240160206040518083038186803b1580156107b957600080fd5b505afa1580156107cd573d6000803e3d6000fd5b505050506040513d601f19601f820116820180604052508101906107f19190613853565b60208401516000546040517f5172a2bf000000000000000000000000000000000000000000000000000000008152600481018b9052602481019290925273ffffffffffffffffffffffffffffffffffffffff90811660448301529190911690635172a2bf9060640160206040518083038186803b15801561087157600080fd5b505afa158015610885573d6000803e3d6000fd5b505050506040513d601f19601f820116820180604052508101906108a99190613947565b8111156108e2576040517fb6ecab1200000000000000000000000000000000000000000000000000000000815260040160405180910390fd5b600185146109c0576040517ff48cc10100000000000000000000000000000000000000000000000000000000815260048101869052600160248201526109bb90879073ffffffffffffffffffffffffffffffffffffffff7f0000000000000000000000000000000000000000000000000000000000000000169063f48cc101906044015b60206040518083038186803b15801561097e57600080fd5b505afa158015610992573d6000803e3d6000fd5b505050506040513d601f19601f820116820180604052508101906109b69190613947565b612670565b6109c2565b855b600088815260016020526040902054909250821115610a0d576040517f2fca7ece00000000000000000000000000000000000000000000000000000000815260040160405180910390fd5b81841115610a47576040517f6777c20600000000000000000000000000000000000000000000000000000000815260040160405180910390fd5b600087815260026020908152604080832086830151845282528083208490558983526001909152902054610a7c908390613ecd565b60009788526001602052604090972096909655909590945092505050565b610aff60405180610120016040528060008152602001600081526020016000815260200160008152602001600081526020016000815260200160008152602001600073ffffffffffffffffffffffffffffffffffffffff168152602001600081525090565b60008054819060609073ffffffffffffffffffffffffffffffffffffffff163314610b56576040517f0d714d2d00000000000000000000000000000000000000000000000000000000815260040160405180910390fd5b6040517f43a266c2000000000000000000000000000000000000000000000000000000008152600481018a90527f000000000000000000000000000000000000000000000000000000000000000073ffffffffffffffffffffffffffffffffffffffff16906343a266c2906024016101206040518083038186803b158015610bdd57600080fd5b505afa158015610bf1573d6000803e3d6000fd5b505050506040513d601f19601f82011682018060405250810190610c1591906138ae565b8051909450610c50576040517f2e96671a00000000000000000000000000000000000000000000000000000000815260040160405180910390fd5b61010084015160381c60019081161415610c96576040517fa3bb913300000000000000000000000000000000000000000000000000000000815260040160405180910390fd5b61010084015160009060421c60019081161415610df05761010085015160441c73ffffffffffffffffffffffffffffffffffffffff1663996794da6040518061010001604052808f73ffffffffffffffffffffffffffffffffffffffff1681526020018e81526020018d81526020018860a001518152602001610d2589610100015161ffff60089190911c1690565b815260200160018d901c73ffffffffffffffffffffffffffffffffffffffff1681526020018a8152602001898152506040518263ffffffff1660e01b8152600401610d709190613b0e565b60006040518083038186803b158015610d8857600080fd5b505afa158015610d9c573d6000803e3d6000fd5b505050506040513d6000823e601f3d9081017fffffffffffffffffffffffffffffffffffffffffffffffffffffffffffffffe0168201604052610de29190810190613960565b985091955092509050610dfb565b8460a0015193508691505b6000610e078c86612685565b90508b15610e395760008b815260016020526040902054610e29908d90613eb5565b60008c8152600160205260409020555b801561102e576040517f5dd8f6aa000000000000000000000000000000000000000000000000000000008152600481018c90527f000000000000000000000000000000000000000000000000000000000000000073ffffffffffffffffffffffffffffffffffffffff1690635dd8f6aa9060240160206040518083038186803b158015610ec557600080fd5b505afa158015610ed9573d6000803e3d6000fd5b505050506040513d601f19601f82011682018060405250810190610efd9190613853565b73ffffffffffffffffffffffffffffffffffffffff1663369e6f348c8360018e901c8e600116600114610f3c8c610100015161ffff60089190911c1690565b6040517fffffffff0000000000000000000000000000000000000000000000000000000060e088901b1681526004810195909552602485019390935273ffffffffffffffffffffffffffffffffffffffff909116604484015260c06064840152600c60c48401527f455448207265636569766564000000000000000000000000000000000000000060e48401521515608483015260a482015261010401602060405180830381600087803b158015610ff357600080fd5b505af1158015611007573d6000803e3d6000fd5b505050506040513d601f19601f8201168201806040525081019061102b9190613947565b93505b88841015611068576040517f7b94612600000000000000000000000000000000000000000000000000000000815260040160405180910390fd5b73ffffffffffffffffffffffffffffffffffffffff8216156111ad5760006040518061010001604052808f73ffffffffffffffffffffffffffffffffffffffff1681526020018d81526020018e815260200187815260200186815260200160018d901c73ffffffffffffffffffffffffffffffffffffffff1681526020018581526020018981525090508273ffffffffffffffffffffffffffffffffffffffff16639dd959ac826040518263ffffffff1660e01b815260040161112b9190613b0e565b600060405180830381600087803b15801561114557600080fd5b505af1158015611159573d6000803e3d6000fd5b505050508273ffffffffffffffffffffffffffffffffffffffff167f15ee90cb2deade4db341563d03958a7ca23fdde537483702ed7a8697ab14599e826040516111a39190613b0e565b60405180910390a2505b5050975097509750979350505050565b61122260405180610120016040528060008152602001600081526020016000815260200160008152602001600081526020016000815260200160008152602001600073ffffffffffffffffffffffffffffffffffffffff168152602001600081525090565b6000805473ffffffffffffffffffffffffffffffffffffffff163314611274576040517f0d714d2d00000000000000000000000000000000000000000000000000000000815260040160405180910390fd5b6040517f43a266c2000000000000000000000000000000000000000000000000000000008152600481018790527f000000000000000000000000000000000000000000000000000000000000000073ffffffffffffffffffffffffffffffffffffffff16906343a266c2906024016101206040518083038186803b1580156112fb57600080fd5b505afa15801561130f573d6000803e3d6000fd5b505050506040513d601f19601f8201168201806040525081019061133391906138ae565b61010081015190925060391c6001908116141561137c576040517f861e9dcd00000000000000000000000000000000000000000000000000000000815260040160405180910390fd5b6040517f5dd8f6aa000000000000000000000000000000000000000000000000000000008152600481018790527f000000000000000000000000000000000000000000000000000000000000000073ffffffffffffffffffffffffffffffffffffffff1690635dd8f6aa9060240160206040518083038186803b15801561140257600080fd5b505afa158015611416573d6000803e3d6000fd5b505050506040513d601f19601f8201168201806040525081019061143a9190613853565b60208301516000546040517f3732d12c000000000000000000000000000000000000000000000000000000008152600481018a9052602481019290925273ffffffffffffffffffffffffffffffffffffffff90811660448301529190911690633732d12c9060640160206040518083038186803b1580156114ba57600080fd5b505afa1580156114ce573d6000803e3d6000fd5b505050506040513d601f19601f820116820180604052508101906114f29190613947565b841461152a576040517fe56ea4e700000000000000000000000000000000000000000000000000000000815260040160405180910390fd5b600086815260036020908152604080832085518452909152812054611550908790613eb5565b6040517f5dd8f6aa000000000000000000000000000000000000000000000000000000008152600481018990529091507f000000000000000000000000000000000000000000000000000000000000000073ffffffffffffffffffffffffffffffffffffffff1690635dd8f6aa9060240160206040518083038186803b1580156115d957600080fd5b505afa1580156115ed573d6000803e3d6000fd5b505050506040513d601f19601f820116820180604052508101906116119190613853565b60208401516000546040517f5578dfd7000000000000000000000000000000000000000000000000000000008152600481018b9052602481019290925273ffffffffffffffffffffffffffffffffffffffff90811660448301529190911690635578dfd79060640160206040518083038186803b15801561169157600080fd5b505afa1580156116a5573d6000803e3d6000fd5b505050506040513d601f19601f820116820180604052508101906116c99190613947565b811115611702576040517f08dae4ac00000000000000000000000000000000000000000000000000000000815260040160405180910390fd5b6001851461178f576040517ff48cc101000000000000000000000000000000000000000000000000000000008152600481018690526001602482015261178a90879073ffffffffffffffffffffffffffffffffffffffff7f0000000000000000000000000000000000000000000000000000000000000000169063f48cc10190604401610966565b611791565b855b6000888152600160205260409020549092508211156117dc576040517fade4e30300000000000000000000000000000000000000000000000000000000815260040160405180910390fd5b81841115611816576040517fade4e30300000000000000000000000000000000000000000000000000000000815260040160405180910390fd5b60008781526003602090815260408083208651845282528083208490558983526001909152902054610a7c908390613ecd565b6000805473ffffffffffffffffffffffffffffffffffffffff16331461189b576040517f0d714d2d00000000000000000000000000000000000000000000000000000000815260040160405180910390fd5b6040517f43a266c2000000000000000000000000000000000000000000000000000000008152600481018390526000907f000000000000000000000000000000000000000000000000000000000000000073ffffffffffffffffffffffffffffffffffffffff16906343a266c2906024016101206040518083038186803b15801561192557600080fd5b505afa158015611939573d6000803e3d6000fd5b505050506040513d601f19601f8201168201806040525081019061195d91906138ae565b610100810151909150603e1c6001908116146119a5576040517fe7c9e0be00000000000000000000000000000000000000000000000000000000815260040160405180910390fd5b50506000908152600160205260408120805491905590565b611a2260405180610120016040528060008152602001600081526020016000815260200160008152602001600081526020016000815260200160008152602001600073ffffffffffffffffffffffffffffffffffffffff168152602001600081525090565b6000805460609073ffffffffffffffffffffffffffffffffffffffff163314611a77576040517f0d714d2d00000000000000000000000000000000000000000000000000000000815260040160405180910390fd5b87611aae576040517f3b6fef6600000000000000000000000000000000000000000000000000000000815260040160405180910390fd5b6040517efdd58e00000000000000000000000000000000000000000000000000000000815273ffffffffffffffffffffffffffffffffffffffff8b81166004830152602482018b905289917f00000000000000000000000000000000000000000000000000000000000000009091169062fdd58e9060440160206040518083038186803b158015611b3e57600080fd5b505afa158015611b52573d6000803e3d6000fd5b505050506040513d601f19601f82011682018060405250810190611b769190613947565b1015611bae576040517fb8af220000000000000000000000000000000000000000000000000000000000815260040160405180910390fd5b6040517f43a266c2000000000000000000000000000000000000000000000000000000008152600481018a90527f000000000000000000000000000000000000000000000000000000000000000073ffffffffffffffffffffffffffffffffffffffff16906343a266c2906024016101206040518083038186803b158015611c3557600080fd5b505afa158015611c49573d6000803e3d6000fd5b505050506040513d601f19601f82011682018060405250810190611c6d91906138ae565b610100810151909350603a1c60019081161415611cb6576040517fa97cf58f00000000000000000000000000000000000000000000000000000000815260040160405180910390fd5b61010083015160009060431c60019081161415611e035761010084015160441c73ffffffffffffffffffffffffffffffffffffffff166301f4c90d6040518061010001604052808e73ffffffffffffffffffffffffffffffffffffffff1681526020018c81526020018d8152602001611d2e88612691565b8152602001611d3c886126ae565b81526020018a73ffffffffffffffffffffffffffffffffffffffff168152602001898152602001888152506040518263ffffffff1660e01b8152600401611d839190613b0e565b60006040518083038186803b158015611d9b57600080fd5b505afa158015611daf573d6000803e3d6000fd5b505050506040513d6000823e601f3d9081017fffffffffffffffffffffffffffffffffffffffffffffffffffffffffffffffe0168201604052611df59190810190613960565b975091945092509050611e14565b611e0e8a858b6126cb565b92508591505b82611e4b576040517fbfe5661b00000000000000000000000000000000000000000000000000000000815260040160405180910390fd5b60008a815260016020526040902054831115611e93576040517f2fca7ece00000000000000000000000000000000000000000000000000000000815260040160405180910390fd5b87831015611ecd576040517f8c24897700000000000000000000000000000000000000000000000000000000815260040160405180910390fd5b6040517f5dd8f6aa000000000000000000000000000000000000000000000000000000008152600481018b90527f000000000000000000000000000000000000000000000000000000000000000073ffffffffffffffffffffffffffffffffffffffff1690635dd8f6aa9060240160206040518083038186803b158015611f5357600080fd5b505afa158015611f67573d6000803e3d6000fd5b505050506040513d601f19601f82011682018060405250810190611f8b9190613853565b6040517f1665bc0f00000000000000000000000000000000000000000000000000000000815273ffffffffffffffffffffffffffffffffffffffff8d81166004830152602482018d9052604482018c905260a06064830152600e60a48301527f52656465656d20666f722045544800000000000000000000000000000000000060c4830152600160848301529190911690631665bc0f9060e401600060405180830381600087803b15801561203f57600080fd5b505af1158015612053573d6000803e3d6000fd5b50505060008b81526001602052604090205461207191508490613ecd565b60008b81526001602052604090205573ffffffffffffffffffffffffffffffffffffffff8116156121ba5760006040518060e001604052808d73ffffffffffffffffffffffffffffffffffffffff1681526020018c81526020018b81526020018581526020018973ffffffffffffffffffffffffffffffffffffffff1681526020018481526020018781525090508173ffffffffffffffffffffffffffffffffffffffff16631f1dfa32826040518263ffffffff1660e01b81526004016121389190613b21565b600060405180830381600087803b15801561215257600080fd5b505af1158015612166573d6000803e3d6000fd5b505050508173ffffffffffffffffffffffffffffffffffffffff167ff11663550d7ff25b1a5d208bdd025d7b1001a24cfcd134ccad18fabe158cdcee826040516121b09190613b21565b60405180910390a2505b509750975097945050505050565b6040517f43a266c200000000000000000000000000000000000000000000000000000000815260048101829052600090819073ffffffffffffffffffffffffffffffffffffffff7f000000000000000000000000000000000000000000000000000000000000000016906343a266c2906024016101206040518083038186803b15801561225457600080fd5b505afa158015612268573d6000803e3d6000fd5b505050506040513d601f19601f8201168201806040525081019061228c91906138ae565b90506122988382612ad9565b9392505050565b60005473ffffffffffffffffffffffffffffffffffffffff16156122ef576040517f1df49b2e00000000000000000000000000000000000000000000000000000000815260040160405180910390fd5b600080547fffffffffffffffffffffffff00000000000000000000000000000000000000001673ffffffffffffffffffffffffffffffffffffffff92909216919091179055565b6040517f43a266c200000000000000000000000000000000000000000000000000000000815260048101829052600090819073ffffffffffffffffffffffffffffffffffffffff7f000000000000000000000000000000000000000000000000000000000000000016906343a266c2906024016101206040518083038186803b1580156123c257600080fd5b505afa1580156123d6573d6000803e3d6000fd5b505050506040513d601f19601f820116820180604052508101906123fa91906138ae565b90506122988382612fc9565b61246b60405180610120016040528060008152602001600081526020016000815260200160008152602001600081526020016000815260200160008152602001600073ffffffffffffffffffffffffffffffffffffffff168152602001600081525090565b60005473ffffffffffffffffffffffffffffffffffffffff1633146124bc576040517f0d714d2d00000000000000000000000000000000000000000000000000000000815260040160405180910390fd5b6040517f43a266c2000000000000000000000000000000000000000000000000000000008152600481018490527f000000000000000000000000000000000000000000000000000000000000000073ffffffffffffffffffffffffffffffffffffffff16906343a266c2906024016101206040518083038186803b15801561254357600080fd5b505afa158015612557573d6000803e3d6000fd5b505050506040513d601f19601f8201168201806040525081019061257b91906138ae565b600084815260016020526040902054909150612598908390613eb5565b600093845260016020526040909320929092555090565b6000612667837f000000000000000000000000000000000000000000000000000000000000000073ffffffffffffffffffffffffffffffffffffffff166343a266c2866040518263ffffffff1660e01b815260040161261091815260200190565b6101206040518083038186803b15801561262957600080fd5b505afa15801561263d573d6000803e3d6000fd5b505050506040513d601f19601f8201168201806040525081019061266191906138ae565b846126cb565b90505b92915050565b600061266783670de0b6b3a7640000846133c5565b600061266783836134cf565b60006018826101000151901c61ffff1661271061266a9190613ecd565b60006028826101000151901c61ffff1661271061266a9190613ecd565b610100820151600090819060411c6001908116146126f2576126ed8585612ad9565b6126fc565b6126fc8585612fc9565b90508061270d576000915050612298565b6040517f75b0d9cd000000000000000000000000000000000000000000000000000000008152600481018690526000907f000000000000000000000000000000000000000000000000000000000000000073ffffffffffffffffffffffffffffffffffffffff16906375b0d9cd9060240160206040518083038186803b15801561279657600080fd5b505afa1580156127aa573d6000803e3d6000fd5b505050506040513d601f19601f820116820180604052508101906127ce9190613947565b6040517f5dd8f6aa0000000000000000000000000000000000000000000000000000000081526004810188905290915060009073ffffffffffffffffffffffffffffffffffffffff7f00000000000000000000000000000000000000000000000000000000000000001690635dd8f6aa9060240160206040518083038186803b15801561285a57600080fd5b505afa15801561286e573d6000803e3d6000fd5b505050506040513d601f19601f820116820180604052508101906128929190613853565b73ffffffffffffffffffffffffffffffffffffffff1663f033b3b4886128c489610100015161ffff60089190911c1690565b6040517fffffffff0000000000000000000000000000000000000000000000000000000060e085901b1681526004810192909252602482015260440160206040518083038186803b15801561291857600080fd5b505afa15801561292c573d6000803e3d6000fd5b505050506040513d601f19601f820116820180604052508101906129509190613947565b90508015612965576129628183613eb5565b91505b8185141561297857829350505050612298565b600060016040517fc55f571c000000000000000000000000000000000000000000000000000000008152600481018a90527f000000000000000000000000000000000000000000000000000000000000000073ffffffffffffffffffffffffffffffffffffffff169063c55f571c9060240160206040518083038186803b158015612a0257600080fd5b505afa158015612a16573d6000803e3d6000fd5b505050506040513d601f19601f82011682018060405250810190612a3a919061388d565b6002811115612a4b57612a4b613fab565b14612a5e57612a5987612691565b612a67565b612a67876126ae565b905080612a7b576000945050505050612298565b6000612a888588866133c5565b9050612710821415612aa05794506122989350505050565b612acc81612aba89612ab486612710613ecd565b886133c5565b612ac49085613eb5565b6127106133c5565b9998505050505050505050565b6040517fd175415300000000000000000000000000000000000000000000000000000000815260048101839052600090819073ffffffffffffffffffffffffffffffffffffffff7f0000000000000000000000000000000000000000000000000000000000000000169063d17541539060240160006040518083038186803b158015612b6457600080fd5b505afa158015612b78573d6000803e3d6000fd5b505050506040513d6000823e601f3d9081017fffffffffffffffffffffffffffffffffffffffffffffffffffffffffffffffe0168201604052612bbe919081019061379a565b905060008060005b8351811015612fa457838181518110612be157612be1613fda565b602002602001015173ffffffffffffffffffffffffffffffffffffffff16635de60314886040518263ffffffff1660e01b8152600401612c2391815260200190565b60206040518083038186803b158015612c3b57600080fd5b505afa158015612c4f573d6000803e3d6000fd5b505050506040513d601f19601f82011682018060405250810190612c739190613947565b612c7d9084613eb5565b92506000848281518110612c9357612c93613fda565b6020908102919091018101519088015188516040517fc99d3e83000000000000000000000000000000000000000000000000000000008152600481018c90526024810192909252604482015273ffffffffffffffffffffffffffffffffffffffff9091169063c99d3e839060640160206040518083038186803b158015612d1957600080fd5b505afa158015612d2d573d6000803e3d6000fd5b505050506040513d601f19601f82011682018060405250810190612d519190613947565b6040517f5dd8f6aa000000000000000000000000000000000000000000000000000000008152600481018a905290915060009073ffffffffffffffffffffffffffffffffffffffff7f00000000000000000000000000000000000000000000000000000000000000001690635dd8f6aa9060240160206040518083038186803b158015612ddd57600080fd5b505afa158015612df1573d6000803e3d6000fd5b505050506040513d601f19601f82011682018060405250810190612e159190613853565b73ffffffffffffffffffffffffffffffffffffffff16633732d12c8a8a60200151898781518110612e4857612e48613fda565b60200260200101516040518463ffffffff1660e01b8152600401612e9593929190928352602083019190915273ffffffffffffffffffffffffffffffffffffffff16604082015260600190565b60206040518083038186803b158015612ead57600080fd5b505afa158015612ec1573d6000803e3d6000fd5b505050506040513d601f19601f82011682018060405250810190612ee59190613947565b90508115612f805760018114612f7a576040517ff48cc1010000000000000000000000000000000000000000000000000000000081526004810182905260016024820152612f7590839073ffffffffffffffffffffffffffffffffffffffff7f0000000000000000000000000000000000000000000000000000000000000000169063f48cc10190604401610966565b612f83565b81612f83565b60005b612f8d9085613eb5565b935050508080612f9c90613f14565b915050612bc6565b5080821115612fbc57612fb78183613ecd565b612fbf565b60005b9695505050505050565b60008281526001602052604081205480612fe757600091505061266a565b6000848152600360209081526040808320865184529091528082205490517f5dd8f6aa000000000000000000000000000000000000000000000000000000008152600481018790527f000000000000000000000000000000000000000000000000000000000000000073ffffffffffffffffffffffffffffffffffffffff1690635dd8f6aa9060240160206040518083038186803b15801561308857600080fd5b505afa15801561309c573d6000803e3d6000fd5b505050506040513d601f19601f820116820180604052508101906130c09190613853565b60208601516000546040517f5578dfd7000000000000000000000000000000000000000000000000000000008152600481018a9052602481019290925273ffffffffffffffffffffffffffffffffffffffff90811660448301529190911690635578dfd79060640160206040518083038186803b15801561314057600080fd5b505afa158015613154573d6000803e3d6000fd5b505050506040513d601f19601f820116820180604052508101906131789190613947565b6131829190613ecd565b6040517f5dd8f6aa0000000000000000000000000000000000000000000000000000000081526004810187905290915060009073ffffffffffffffffffffffffffffffffffffffff7f00000000000000000000000000000000000000000000000000000000000000001690635dd8f6aa9060240160206040518083038186803b15801561320e57600080fd5b505afa158015613222573d6000803e3d6000fd5b505050506040513d601f19601f820116820180604052508101906132469190613853565b60208601516000546040517f3732d12c000000000000000000000000000000000000000000000000000000008152600481018a9052602481019290925273ffffffffffffffffffffffffffffffffffffffff90811660448301529190911690633732d12c9060640160206040518083038186803b1580156132c657600080fd5b505afa1580156132da573d6000803e3d6000fd5b505050506040513d601f19601f820116820180604052508101906132fe9190613947565b90506000821561339b5760018214613395576040517ff48cc101000000000000000000000000000000000000000000000000000000008152600481018390526001602482015261339090849073ffffffffffffffffffffffffffffffffffffffff7f0000000000000000000000000000000000000000000000000000000000000000169063f48cc10190604401610966565b61339e565b8261339e565b60005b9050808411156133b7576133b28185613ecd565b6133ba565b60005b979650505050505050565b600080807fffffffffffffffffffffffffffffffffffffffffffffffffffffffffffffffff858709858702925082811083820303915050806000141561341e5783828161341457613414613f7c565b0492505050612298565b838110613466576040517f773cc18c00000000000000000000000000000000000000000000000000000000815260048101829052602481018590526044015b60405180910390fd5b60008486880960026001871981018816978890046003810283188082028403028082028403028082028403028082028403028082028403029081029092039091026000889003889004909101858311909403939093029303949094049190911702949350505050565b600080807fffffffffffffffffffffffffffffffffffffffffffffffffffffffffffffffff848609848602925082811083820303915050670de0b6b3a7640000811061354a576040517fd31b34020000000000000000000000000000000000000000000000000000000081526004810182905260240161345d565b600080670de0b6b3a76400008688099150506706f05b59d3b1ffff8111826135845780670de0b6b3a764000085040194505050505061266a565b6204000082850304939091119091037d40000000000000000000000000000000000000000000000000000000000002919091177faccb18165bd6fe31ae1cf318dc5b51eee0e1ba569b88cd74c1773b91fac106690201905092915050565b600082601f8301126135f357600080fd5b813561360661360182613e6f565b613e20565b81815284602083860101111561361b57600080fd5b816020850160208301376000918101602001919091529392505050565b600082601f83011261364957600080fd5b815161365761360182613e6f565b81815284602083860101111561366c57600080fd5b61367d826020830160208701613ee4565b949350505050565b805161369081614038565b919050565b600080600080600080600060e0888a0312156136b057600080fd5b87356136bb81614038565b965060208801359550604088013594506060880135935060808801356136e081614038565b925060a088013567ffffffffffffffff808211156136fd57600080fd5b6137098b838c016135e2565b935060c08a013591508082111561371f57600080fd5b5061372c8a828b016135e2565b91505092959891949750929550565b600080600080600080600060e0888a03121561375657600080fd5b873561376181614038565b96506020880135955060408801359450606088013593506080880135925060a088013567ffffffffffffffff808211156136fd57600080fd5b600060208083850312156137ad57600080fd5b825167ffffffffffffffff808211156137c557600080fd5b818501915085601f8301126137d957600080fd5b8151818111156137eb576137eb614009565b8060051b91506137fc848301613e20565b8181528481019084860184860187018a101561381757600080fd5b600095505b83861015613846578051945061383185614038565b8483526001959095019491860191860161381c565b5098975050505050505050565b60006020828403121561386557600080fd5b815161229881614038565b60006020828403121561388257600080fd5b813561229881614038565b60006020828403121561389f57600080fd5b81516003811061229857600080fd5b600061012082840312156138c157600080fd5b6138c9613df6565b825181526020830151602082015260408301516040820152606083015160608201526080830151608082015260a083015160a082015260c083015160c082015261391560e08401613685565b60e0820152610100928301519281019290925250919050565b60006020828403121561394057600080fd5b5035919050565b60006020828403121561395957600080fd5b5051919050565b6000806000806080858703121561397657600080fd5b84519350602085015167ffffffffffffffff8082111561399557600080fd5b6139a188838901613638565b9450604087015191506139b382614038565b6060870151919350808211156139c857600080fd5b506139d587828801613638565b91505092959194509250565b600080604083850312156139f457600080fd5b50508035926020909101359150565b60008060008060808587031215613a1957600080fd5b5050823594602084013594506040840135936060013592509050565b60008151808452613a4d816020860160208601613ee4565b601f017fffffffffffffffffffffffffffffffffffffffffffffffffffffffffffffffe0169290920160200192915050565b600061010073ffffffffffffffffffffffffffffffffffffffff808451168552602084015160208601526040840151604086015260608401516060860152608084015160808601528060a08501511660a08601525060c08301518160c0860152613aeb82860182613a35565b91505060e083015184820360e0860152613b058282613a35565b95945050505050565b6020815260006126676020830184613a7f565b60208152600073ffffffffffffffffffffffffffffffffffffffff8084511660208401526020840151604084015260408401516060840152606084015160808401528060808501511660a08401525060a083015160e060c0840152613b8a610100840182613a35565b905060c08401517fffffffffffffffffffffffffffffffffffffffffffffffffffffffffffffffe08483030160e0850152613b058282613a35565b610120810161266a8284805182526020810151602083015260408101516040830152606081015160608301526080810151608083015260a081015160a083015260c081015160c083015273ffffffffffffffffffffffffffffffffffffffff60e08201511660e08301526101008082015181840152505050565b6101408101613cb98285805182526020810151602083015260408101516040830152606081015160608301526080810151608083015260a081015160a083015260c081015160c083015273ffffffffffffffffffffffffffffffffffffffff60e08201511660e08301526101008082015181840152505050565b826101208301529392505050565b6000610160613d418387805182526020810151602083015260408101516040830152606081015160608301526080810151608083015260a081015160a083015260c081015160c083015273ffffffffffffffffffffffffffffffffffffffff60e08201511660e08301526101008082015181840152505050565b8461012084015280610140840152612fbf81840185613a35565b6000610180613dd58388805182526020810151602083015260408101516040830152606081015160608301526080810151608083015260a081015160a083015260c081015160c083015273ffffffffffffffffffffffffffffffffffffffff60e08201511660e08301526101008082015181840152505050565b8561012084015284610140840152806101608401526133ba81840185613a35565b604051610120810167ffffffffffffffff81118282101715613e1a57613e1a614009565b60405290565b604051601f82017fffffffffffffffffffffffffffffffffffffffffffffffffffffffffffffffe016810167ffffffffffffffff81118282101715613e6757613e67614009565b604052919050565b600067ffffffffffffffff821115613e8957613e89614009565b50601f017fffffffffffffffffffffffffffffffffffffffffffffffffffffffffffffffe01660200190565b60008219821115613ec857613ec8613f4d565b500190565b600082821015613edf57613edf613f4d565b500390565b60005b83811015613eff578181015183820152602001613ee7565b83811115613f0e576000848401525b50505050565b60007fffffffffffffffffffffffffffffffffffffffffffffffffffffffffffffffff821415613f4657613f46613f4d565b5060010190565b7f4e487b7100000000000000000000000000000000000000000000000000000000600052601160045260246000fd5b7f4e487b7100000000000000000000000000000000000000000000000000000000600052601260045260246000fd5b7f4e487b7100000000000000000000000000000000000000000000000000000000600052602160045260246000fd5b7f4e487b7100000000000000000000000000000000000000000000000000000000600052603260045260246000fd5b7f4e487b7100000000000000000000000000000000000000000000000000000000600052604160045260246000fd5b73ffffffffffffffffffffffffffffffffffffffff8116811461405a57600080fd5b5056fea2646970667358221220ff43b4cbbde7d1fd5a8567d4a89ca7990f65afafd05485fb36b9fb991b69d31964736f6c63430008060033",
  "devdoc": {
    "details": "Aside from the public view methods, the external methods should be called by the associated terminal.",
    "kind": "dev",
    "methods": {
      "claimableOverflowOf(uint256,uint256)": {
        "details": "If the project has an active funding cycle reconfiguration ballot, the project's ballot redemption rate is used.",
        "params": {
          "_projectId": "The ID of the project to get a claimable amount for.",
          "_tokenCount": "The number of tokens to make the calculation with."
        },
        "returns": {
          "_0": "The amount of overflowed ETH that can be claimed."
        }
      },
      "constructor": {
        "params": {
          "_directory": "A contract storing directories of terminals and controllers for each project.",
          "_fundingCycleStore": "A contract storing all funding cycle configurations.",
          "_prices": "A contract that exposes price feeds.",
          "_projects": "A contract which mints ERC-721's that represent project ownership and transfers.",
          "_tokenStore": "A contract that manages token minting and burning."
        }
      },
      "currentOverflowOf(uint256)": {
        "params": {
          "_projectId": "The ID of the project to get overflow for."
        },
        "returns": {
          "_0": "The current amount of overflow that project has in this terminal."
        }
      },
      "currentTotalOverflowOf(uint256)": {
        "params": {
          "_projectId": "The ID of the project to get total overflow for."
        },
        "returns": {
          "_0": "The current total amount of overflow that project has across all terminals."
        }
      },
      "recordAddedBalanceFor(uint256,uint256)": {
        "details": "Only the associated payment terminal can record an added balance.",
        "params": {
          "_amount": "The amount added, in wei.",
          "_projectId": "The ID of the project to which the funds being added belong."
        },
        "returns": {
          "fundingCycle": "The current funding cycle for the project."
        }
      },
      "recordDistributionFor(uint256,uint256,uint256,uint256)": {
        "details": "Only the associated payment terminal can record a distribution.",
        "params": {
          "_amount": "The amount being distributed as a fixed point number.",
          "_currency": "The expected currency of the `_amount` being tapped. This must match the project's current funding cycle's currency.",
          "_minReturnedWei": "The minimum number of wei that should be distributed.",
          "_projectId": "The ID of the project that is having funds distributed."
        },
        "returns": {
          "distributedAmount": "The amount distribution in wei.",
          "fundingCycle": "The funding cycle during which the withdrawal was made."
        }
      },
      "recordMigration(uint256)": {
        "params": {
          "_projectId": "The ID of the project being migrated."
        },
        "returns": {
          "balance": "The project's current balance."
        }
      },
      "recordPaymentFrom(address,uint256,uint256,uint256,uint256,string,bytes)": {
        "details": "Mint's the project's tokens according to values provided by a configured data source. If no data source is configured, mints tokens proportional to the amount of the contribution.Only the associated payment terminal can record a payment.",
        "params": {
          "_amount": "The amount that is being paid in wei.",
          "_delegateMetadata": "Bytes to send along to the delegate, if one is used.",
          "_memo": "A memo that will be included in the published event.",
          "_minReturnedTokens": "The minimum number of tokens expected to be minted in return.",
          "_payer": "The original address that sent the payment to the terminal.",
          "_preferClaimedTokensAndBeneficiary": "Two properties are included in this packed uint256: The first bit contains the flag indicating whether the request prefers to issue tokens claimed as ERC-20s. The remaining bits contains the address that should receive benefits from the payment. This design is necessary two prevent a \"Stack too deep\" compiler error that comes up if the variables are declared seperately.",
          "_projectId": "The ID of the project being paid."
        },
        "returns": {
          "fundingCycle": "The project's funding cycle during which payment was made.",
          "memo": "A memo that should be passed along to the emitted event.",
          "tokenCount": "The number of tokens that were minted.",
          "weight": "The weight according to which new token supply was minted."
        }
      },
      "recordRedemptionFor(address,uint256,uint256,uint256,address,string,bytes)": {
        "details": "Only the associated payment terminal can record a redemption.",
        "params": {
          "_beneficiary": "The address that will benefit from the claimed amount.",
          "_delegateMetadata": "Bytes to send along to the delegate, if one is used.",
          "_holder": "The account that is having its tokens redeemed.",
          "_memo": "A memo to pass along to the emitted event.",
          "_minReturnedWei": "The minimum amount of wei expected in return.",
          "_projectId": "The ID of the project to which the tokens being redeemed belong.",
          "_tokenCount": "The number of tokens to redeemed."
        },
        "returns": {
          "claimAmount": "The amount of wei claimed.",
          "fundingCycle": "The funding cycle during which the redemption was made.",
          "memo": "A memo that should be passed along to the emitted event."
        }
      },
      "recordUsedAllowanceOf(uint256,uint256,uint256,uint256)": {
        "params": {
          "_amount": "The amount of the allowance to use as a fixed point number.",
          "_currency": "The currency of the `_amount` value. Must match the funding cycle's currency.",
          "_minReturnedWei": "The amount of wei that is expected to be withdrawn.",
          "_projectId": "The ID of the project to use the allowance of."
        },
        "returns": {
          "fundingCycle": "The funding cycle during which the withdrawal is being made.",
          "withdrawnAmount": "The amount withdrawn in wei."
        }
      }
    },
    "stateVariables": {
      "usedDistributionLimitOf": {
        "details": "Increases as projects use their distribution limit. _projectId The ID of the project to get the used distribution limit of. _number The number representing the funding cycle."
      },
      "usedOverflowAllowanceOf": {
        "details": "Increases as projects use their allowance. _projectId The ID of the project to get the used overflow allowance of. _configuration The configuration of the during which the allowance applies."
      }
    },
    "version": 1
  },
  "userdoc": {
    "errors": {
      "PRBMath__MulDivFixedPointOverflow(uint256)": [
        {
          "notice": "Emitted when the result overflows uint256."
        }
      ],
      "PRBMath__MulDivOverflow(uint256,uint256)": [
        {
          "notice": "Emitted when the result overflows uint256."
        }
      ]
    },
    "kind": "user",
    "methods": {
      "balanceOf(uint256)": {
        "notice": "The amount of ETH that each project has. _projectId The ID of the project to get the balance of."
      },
      "claimFor(address)": {
        "notice": "Allows this store to be claimed by an address so that it recognized the address as its terminal."
      },
      "claimableOverflowOf(uint256,uint256)": {
        "notice": "The amount of overflowed ETH that can be claimed by the specified number of tokens."
      },
      "currentOverflowOf(uint256)": {
        "notice": "Gets the current overflowed amount (in the terminal's currency) in this terminal for a specified project."
      },
      "currentTotalOverflowOf(uint256)": {
        "notice": "Gets the current overflowed amount (in the terminal's currency) for a specified project across all terminals."
      },
      "directory()": {
        "notice": "The directory of terminals and controllers for projects."
      },
      "fundingCycleStore()": {
        "notice": "The contract storing all funding cycle configurations."
      },
      "prices()": {
        "notice": "The contract that exposes price feeds."
      },
      "projects()": {
        "notice": "The Projects contract which mints ERC-721's that represent project ownership and transfers."
      },
      "recordAddedBalanceFor(uint256,uint256)": {
        "notice": "Records newly added funds for the project."
      },
      "recordDistributionFor(uint256,uint256,uint256,uint256)": {
        "notice": "Records newly distributed funds for a project."
      },
      "recordMigration(uint256)": {
        "notice": "Records the migration of this terminal to another."
      },
      "recordPaymentFrom(address,uint256,uint256,uint256,uint256,string,bytes)": {
        "notice": "Records newly contributed ETH to a project."
      },
      "recordRedemptionFor(address,uint256,uint256,uint256,address,string,bytes)": {
        "notice": "Records newly redeemed tokens of a project."
      },
      "recordUsedAllowanceOf(uint256,uint256,uint256,uint256)": {
        "notice": "Records newly used allowance funds of a project."
      },
      "terminal()": {
        "notice": "The associated payment terminal for which this contract stores data."
      },
      "tokenStore()": {
        "notice": "The contract that manages token minting and burning."
      },
      "usedDistributionLimitOf(uint256,uint256)": {
        "notice": "The amount (in the terminal's currency) that a project has distributed from its limit during the current funding cycle."
      },
      "usedOverflowAllowanceOf(uint256,uint256)": {
        "notice": "The amount of overflow (in the terminal's currency) that a project has used from its allowance during the current funding cycle configuration."
      }
    },
    "notice": "This contract manages all bookkeeping for inflows and outflows of funds for a terminal.",
    "version": 1
  },
  "storageLayout": {
    "storage": [
      {
        "astId": 7695,
        "contract": "contracts/JBETHPaymentTerminalStore.sol:JBETHPaymentTerminalStore",
        "label": "terminal",
        "offset": 0,
        "slot": "0",
        "type": "t_contract(IJBTerminal)14122"
      },
      {
        "astId": 7700,
        "contract": "contracts/JBETHPaymentTerminalStore.sol:JBETHPaymentTerminalStore",
        "label": "balanceOf",
        "offset": 0,
        "slot": "1",
        "type": "t_mapping(t_uint256,t_uint256)"
      },
      {
        "astId": 7707,
        "contract": "contracts/JBETHPaymentTerminalStore.sol:JBETHPaymentTerminalStore",
        "label": "usedOverflowAllowanceOf",
        "offset": 0,
        "slot": "2",
        "type": "t_mapping(t_uint256,t_mapping(t_uint256,t_uint256))"
      },
      {
        "astId": 7714,
        "contract": "contracts/JBETHPaymentTerminalStore.sol:JBETHPaymentTerminalStore",
        "label": "usedDistributionLimitOf",
        "offset": 0,
        "slot": "3",
        "type": "t_mapping(t_uint256,t_mapping(t_uint256,t_uint256))"
      }
    ],
    "types": {
      "t_contract(IJBTerminal)14122": {
        "encoding": "inplace",
        "label": "contract IJBTerminal",
        "numberOfBytes": "20"
      },
      "t_mapping(t_uint256,t_mapping(t_uint256,t_uint256))": {
        "encoding": "mapping",
        "key": "t_uint256",
        "label": "mapping(uint256 => mapping(uint256 => uint256))",
        "numberOfBytes": "32",
        "value": "t_mapping(t_uint256,t_uint256)"
      },
      "t_mapping(t_uint256,t_uint256)": {
        "encoding": "mapping",
        "key": "t_uint256",
        "label": "mapping(uint256 => uint256)",
        "numberOfBytes": "32",
        "value": "t_uint256"
      },
      "t_uint256": {
        "encoding": "inplace",
        "label": "uint256",
        "numberOfBytes": "32"
      }
    }
  }
}