{
  "address": "0xe0b78c3a92fd9304D818842d919a3eDA8f7e9B69",
  "abi": [
    {
      "anonymous": false,
      "inputs": [
        {
          "indexed": true,
          "internalType": "contract IJBProjectPayer",
          "name": "projectPayer",
          "type": "address"
        },
        {
          "indexed": true,
          "internalType": "uint256",
          "name": "defaultProjectId",
          "type": "uint256"
        },
        {
          "indexed": true,
          "internalType": "address",
          "name": "defaultBeneficiary",
          "type": "address"
        },
        {
          "indexed": false,
          "internalType": "bool",
          "name": "defaultPreferClaimedTokens",
          "type": "bool"
        },
        {
          "indexed": false,
          "internalType": "string",
          "name": "defaultMemo",
          "type": "string"
        },
        {
          "indexed": false,
          "internalType": "bytes",
          "name": "defaultMetadata",
          "type": "bytes"
        },
        {
          "indexed": false,
          "internalType": "bool",
          "name": "preferAddToBalance",
          "type": "bool"
        },
        {
          "indexed": false,
          "internalType": "contract IJBDirectory",
          "name": "directory",
          "type": "address"
        },
        {
          "indexed": false,
          "internalType": "address",
          "name": "owner",
          "type": "address"
        },
        {
          "indexed": false,
          "internalType": "address",
          "name": "caller",
          "type": "address"
        }
      ],
      "name": "DeployProjectPayer",
      "type": "event"
    },
    {
      "inputs": [
        {
          "internalType": "uint256",
          "name": "_defaultProjectId",
          "type": "uint256"
        },
        {
          "internalType": "address payable",
          "name": "_defaultBeneficiary",
          "type": "address"
        },
        {
          "internalType": "bool",
          "name": "_defaultPreferClaimedTokens",
          "type": "bool"
        },
        {
          "internalType": "string",
          "name": "_defaultMemo",
          "type": "string"
        },
        {
          "internalType": "bytes",
          "name": "_defaultMetadata",
          "type": "bytes"
        },
        {
          "internalType": "bool",
          "name": "_defaultPreferAddToBalance",
          "type": "bool"
        },
        {
          "internalType": "contract IJBDirectory",
          "name": "_directory",
          "type": "address"
        },
        {
          "internalType": "address",
          "name": "_owner",
          "type": "address"
        }
      ],
      "name": "deployProjectPayer",
      "outputs": [
        {
          "internalType": "contract IJBProjectPayer",
          "name": "projectPayer",
          "type": "address"
        }
      ],
      "stateMutability": "nonpayable",
      "type": "function"
    }
  ],
  "transactionHash": "0xabc7a0134b6457b0e2f233c77bfd0a6c3754793d0c31823b75acbdd5791bdc42",
  "args": [],
  "numDeployments": 3,
  "solcInputHash": "c0f3fc8aab6e6d623a274a19ce38362f",
  "bytecode": "0x608060405234801561001057600080fd5b506124a8806100206000396000f3fe608060405234801561001057600080fd5b506004361061002b5760003560e01c8063281a9f4414610030575b600080fd5b61004361003e3660046101fd565b61006c565b60405173ffffffffffffffffffffffffffffffffffffffff909116815260200160405180910390f35b6000888888888888888860405161008290610130565b61009398979695949392919061039d565b604051809103906000f0801580156100af573d6000803e3d6000fd5b5090508773ffffffffffffffffffffffffffffffffffffffff16898273ffffffffffffffffffffffffffffffffffffffff167f727d4d4c40bee220af4fdbae0c157cb7a5e5f2ce9c3e9676e8f615cd88bc85df8a8a8a8a8a8a3360405161011c9796959493929190610331565b60405180910390a498975050505050505050565b61200b8061046883390190565b8035801515811461014d57600080fd5b919050565b600082601f83011261016357600080fd5b813567ffffffffffffffff8082111561017e5761017e610413565b604051601f83017fffffffffffffffffffffffffffffffffffffffffffffffffffffffffffffffe0908116603f011681019082821181831017156101c4576101c4610413565b816040528381528660208588010111156101dd57600080fd5b836020870160208301376000602085830101528094505050505092915050565b600080600080600080600080610100898b03121561021a57600080fd5b88359750602089013561022c81610442565b965061023a60408a0161013d565b9550606089013567ffffffffffffffff8082111561025757600080fd5b6102638c838d01610152565b965060808b013591508082111561027957600080fd5b506102868b828c01610152565b94505061029560a08a0161013d565b925060c08901356102a581610442565b915060e08901356102b581610442565b809150509295985092959890939650565b6000815180845260005b818110156102ec576020818501810151868301820152016102d0565b818111156102fe576000602083870101525b50601f017fffffffffffffffffffffffffffffffffffffffffffffffffffffffffffffffe0169290920160200192915050565b871515815260e06020820152600061034c60e08301896102c6565b828103604084015261035e81896102c6565b9615156060840152505073ffffffffffffffffffffffffffffffffffffffff938416608082015291831660a083015290911660c0909101529392505050565b60006101008a835273ffffffffffffffffffffffffffffffffffffffff808b16602085015289151560408501528160608501526103dc8285018a6102c6565b915083820360808501526103f082896102c6565b96151560a085015294851660c08401525050911660e09091015295945050505050565b7f4e487b7100000000000000000000000000000000000000000000000000000000600052604160045260246000fd5b73ffffffffffffffffffffffffffffffffffffffff8116811461046457600080fd5b5056fe60a06040523480156200001157600080fd5b506040516200200b3803806200200b83398101604081905262000034916200029c565b6200003f33620000d9565b600188905560028054871515600160a01b026001600160a81b03199091166001600160a01b038a161717905584516200008090600390602088019062000129565b5083516200009690600490602087019062000129565b506000805460ff60a01b1916600160a01b85151502179055606082901b6001600160601b031916608052620000cb81620000d9565b5050505050505050620003e3565b600080546001600160a01b038381166001600160a01b0319831681178455604051919092169283917f8be0079c531659141344cd1fd0a4f28419497f9722a3daafe3b4186f6b6457e09190a35050565b828054620001379062000377565b90600052602060002090601f0160209004810192826200015b5760008555620001a6565b82601f106200017657805160ff1916838001178555620001a6565b82800160010185558215620001a6579182015b82811115620001a657825182559160200191906001019062000189565b50620001b4929150620001b8565b5090565b5b80821115620001b45760008155600101620001b9565b80518015158114620001e057600080fd5b919050565b600082601f830112620001f757600080fd5b81516001600160401b0380821115620002145762000214620003b4565b604051601f8301601f19908116603f011681019082821181831017156200023f576200023f620003b4565b816040528381526020925086838588010111156200025c57600080fd5b600091505b8382101562000280578582018301518183018401529082019062000261565b83821115620002925760008385830101525b9695505050505050565b600080600080600080600080610100898b031215620002ba57600080fd5b885197506020890151620002ce81620003ca565b9650620002de60408a01620001cf565b60608a01519096506001600160401b0380821115620002fc57600080fd5b6200030a8c838d01620001e5565b965060808b01519150808211156200032157600080fd5b50620003308b828c01620001e5565b9450506200034160a08a01620001cf565b925060c08901516200035381620003ca565b60e08a01519092506200036681620003ca565b809150509295985092959890939650565b600181811c908216806200038c57607f821691505b60208210811415620003ae57634e487b7160e01b600052602260045260246000fd5b50919050565b634e487b7160e01b600052604160045260246000fd5b6001600160a01b0381168114620003e057600080fd5b50565b60805160601c611bfb62000410600039600081816104db0152818161056c01526108cf0152611bfb6000f3fe6080604052600436106100d65760003560e01c80638da5cb5b1161007f578063a81b33f311610059578063a81b33f3146104a1578063b96053df146104b4578063c41c2f24146104c9578063f2fde38b146104fd57600080fd5b80638da5cb5b1461040257806393b7f1541461042d578063a4919eb11461046f57600080fd5b8063715018a6116100b0578063715018a6146103b85780637e646549146103cd5780638293fee6146103ef57600080fd5b80630e45f78e1461031d5780633ce9830b1461033d57806354ab58af1461036657600080fd5b366103185760005474010000000000000000000000000000000000000000900460ff161561019c5761019a60015461eeee4760126003805461011790611b12565b80601f016020809104026020016040519081016040528092919081815260200182805461014390611b12565b80156101905780601f1061016557610100808354040283529160200191610190565b820191906000526020600020905b81548152906001019060200180831161017357829003601f168201915b505050505061051d565b005b60015460025461019a919061eeee90479060129073ffffffffffffffffffffffffffffffffffffffff16156101e95760025473ffffffffffffffffffffffffffffffffffffffff166101eb565b335b6000600260149054906101000a900460ff166003805461020a90611b12565b80601f016020809104026020016040519081016040528092919081815260200182805461023690611b12565b80156102835780601f1061025857610100808354040283529160200191610283565b820191906000526020600020905b81548152906001019060200180831161026657829003601f168201915b50505050506004805461029590611b12565b80601f01602080910402602001604051908101604052809291908181526020018280546102c190611b12565b801561030e5780601f106102e35761010080835404028352916020019161030e565b820191906000526020600020905b8154815290600101906020018083116102f157829003601f168201915b5050505050610880565b600080fd5b34801561032957600080fd5b5061019a6103383660046116c1565b610c42565b34801561034957600080fd5b5061035360015481565b6040519081526020015b60405180910390f35b34801561037257600080fd5b506002546103939073ffffffffffffffffffffffffffffffffffffffff1681565b60405173ffffffffffffffffffffffffffffffffffffffff909116815260200161035d565b3480156103c457600080fd5b5061019a610f27565b3480156103d957600080fd5b506103e2610fb4565b60405161035d9190611a13565b61019a6103fd366004611777565b611042565b34801561040e57600080fd5b5060005473ffffffffffffffffffffffffffffffffffffffff16610393565b34801561043957600080fd5b5060005461045f9074010000000000000000000000000000000000000000900460ff1681565b604051901515815260200161035d565b34801561047b57600080fd5b5060025461045f9074010000000000000000000000000000000000000000900460ff1681565b61019a6104af366004611853565b6111cd565b3480156104c057600080fd5b506103e26112f2565b3480156104d557600080fd5b506103937f000000000000000000000000000000000000000000000000000000000000000081565b34801561050957600080fd5b5061019a610518366004611651565b6112ff565b6040517f862026500000000000000000000000000000000000000000000000000000000081526004810186905273ffffffffffffffffffffffffffffffffffffffff85811660248301526000917f00000000000000000000000000000000000000000000000000000000000000009091169063862026509060440160206040518083038186803b1580156105b057600080fd5b505afa1580156105c4573d6000803e3d6000fd5b505050506040513d601f19601f820116820180604052508101906105e8919061168b565b905073ffffffffffffffffffffffffffffffffffffffff8116610637576040517ffba10dd600000000000000000000000000000000000000000000000000000000815260040160405180910390fd5b6040517fb7bad1b100000000000000000000000000000000000000000000000000000000815273ffffffffffffffffffffffffffffffffffffffff868116600483015284919083169063b7bad1b19060240160206040518083038186803b1580156106a157600080fd5b505afa1580156106b5573d6000803e3d6000fd5b505050506040513d601f19601f820116820180604052508101906106d991906116a8565b14610710576040517fb972592400000000000000000000000000000000000000000000000000000000815260040160405180910390fd5b73ffffffffffffffffffffffffffffffffffffffff851661eeee146107d9576040517f095ea7b300000000000000000000000000000000000000000000000000000000815273ffffffffffffffffffffffffffffffffffffffff82811660048301526024820186905286169063095ea7b390604401602060405180830381600087803b15801561079f57600080fd5b505af11580156107b3573d6000803e3d6000fd5b505050506040513d601f19601f820116820180604052508101906107d7919061166e565b505b600073ffffffffffffffffffffffffffffffffffffffff861661eeee14610801576000610803565b845b90508173ffffffffffffffffffffffffffffffffffffffff1663a27255cc8289888a886040518663ffffffff1660e01b81526004016108459493929190611a9d565b6000604051808303818588803b15801561085e57600080fd5b505af1158015610872573d6000803e3d6000fd5b505050505050505050505050565b6040517f86202650000000000000000000000000000000000000000000000000000000008152600481018a905273ffffffffffffffffffffffffffffffffffffffff89811660248301526000917f00000000000000000000000000000000000000000000000000000000000000009091169063862026509060440160206040518083038186803b15801561091357600080fd5b505afa158015610927573d6000803e3d6000fd5b505050506040513d601f19601f8201168201806040525081019061094b919061168b565b905073ffffffffffffffffffffffffffffffffffffffff811661099a576040517ffba10dd600000000000000000000000000000000000000000000000000000000815260040160405180910390fd5b6040517fb7bad1b100000000000000000000000000000000000000000000000000000000815273ffffffffffffffffffffffffffffffffffffffff8a8116600483015288919083169063b7bad1b19060240160206040518083038186803b158015610a0457600080fd5b505afa158015610a18573d6000803e3d6000fd5b505050506040513d601f19601f82011682018060405250810190610a3c91906116a8565b14610a73576040517fb972592400000000000000000000000000000000000000000000000000000000815260040160405180910390fd5b73ffffffffffffffffffffffffffffffffffffffff891661eeee14610b3c576040517f095ea7b300000000000000000000000000000000000000000000000000000000815273ffffffffffffffffffffffffffffffffffffffff8281166004830152602482018a90528a169063095ea7b390604401602060405180830381600087803b158015610b0257600080fd5b505af1158015610b16573d6000803e3d6000fd5b505050506040513d601f19601f82011682018060405250810190610b3a919061166e565b505b8073ffffffffffffffffffffffffffffffffffffffff16631ebc263f61eeee73ffffffffffffffffffffffffffffffffffffffff168b73ffffffffffffffffffffffffffffffffffffffff1614610b94576000610b96565b895b8c8b8d73ffffffffffffffffffffffffffffffffffffffff8c16610bba5733610bbc565b8b5b8b8b8b8b6040518a63ffffffff1660e01b8152600401610be3989796959493929190611a26565b6020604051808303818588803b158015610bfc57600080fd5b505af1158015610c10573d6000803e3d6000fd5b50505050506040513d601f19601f82011682018060405250810190610c3591906116a8565b5050505050505050505050565b60005473ffffffffffffffffffffffffffffffffffffffff163314610cc8576040517f08c379a000000000000000000000000000000000000000000000000000000000815260206004820181905260248201527f4f776e61626c653a2063616c6c6572206973206e6f7420746865206f776e657260448201526064015b60405180910390fd5b6001548614610cd75760018690555b60025473ffffffffffffffffffffffffffffffffffffffff868116911614610d3a57600280547fffffffffffffffffffffffff00000000000000000000000000000000000000001673ffffffffffffffffffffffffffffffffffffffff87161790555b600260149054906101000a900460ff16151584151514610d9857600280547fffffffffffffffffffffff00ffffffffffffffffffffffffffffffffffffffff1674010000000000000000000000000000000000000000861515021790555b6003604051602001610daa9190611926565b6040516020818303038152906040528051906020012083604051602001610dd1919061190a565b6040516020818303038152906040528051906020012014610e01578251610dff9060039060208601906114a4565b505b6004604051602001610e139190611926565b6040516020818303038152906040528051906020012082604051602001610e3a919061190a565b6040516020818303038152906040528051906020012014610e6a578151610e689060049060208501906114a4565b505b600060149054906101000a900460ff16151581151514610ec857600080547fffffffffffffffffffffff00ffffffffffffffffffffffffffffffffffffffff1674010000000000000000000000000000000000000000831515021790555b8473ffffffffffffffffffffffffffffffffffffffff16867f36b1c5cef608e320317b9ee5155756634c65fe7055b424ce57e2f6c59eec79478686868633604051610f179594939291906119b6565b60405180910390a3505050505050565b60005473ffffffffffffffffffffffffffffffffffffffff163314610fa8576040517f08c379a000000000000000000000000000000000000000000000000000000000815260206004820181905260248201527f4f776e61626c653a2063616c6c6572206973206e6f7420746865206f776e65726044820152606401610cbf565b610fb2600061142f565b565b60048054610fc190611b12565b80601f0160208091040260200160405190810160405280929190818152602001828054610fed90611b12565b801561103a5780601f1061100f5761010080835404028352916020019161103a565b820191906000526020600020905b81548152906001019060200180831161101d57829003601f168201915b505050505081565b73ffffffffffffffffffffffffffffffffffffffff8a1661eeee1461114b573415611099576040517fbcfd35be00000000000000000000000000000000000000000000000000000000815260040160405180910390fd5b6040517f23b872dd000000000000000000000000000000000000000000000000000000008152336004820152306024820152604481018a905273ffffffffffffffffffffffffffffffffffffffff8b16906323b872dd90606401602060405180830381600087803b15801561110d57600080fd5b505af1158015611121573d6000803e3d6000fd5b505050506040513d601f19601f82011682018060405250810190611145919061166e565b50611153565b349850601297505b610c358b8b8b8b8b8b8b8b8b8080601f01602080910402602001604051908101604052809392919081815260200183838082843760009201919091525050604080516020601f8f018190048102820181019092528d815292508d91508c908190840183828082843760009201919091525061088092505050565b73ffffffffffffffffffffffffffffffffffffffff841661eeee146112d6573415611224576040517fbcfd35be00000000000000000000000000000000000000000000000000000000815260040160405180910390fd5b6040517f23b872dd0000000000000000000000000000000000000000000000000000000081523360048201523060248201526044810184905273ffffffffffffffffffffffffffffffffffffffff8516906323b872dd90606401602060405180830381600087803b15801561129857600080fd5b505af11580156112ac573d6000803e3d6000fd5b505050506040513d601f19601f820116820180604052508101906112d0919061166e565b506112de565b349250601291505b6112eb858585858561051d565b5050505050565b60038054610fc190611b12565b60005473ffffffffffffffffffffffffffffffffffffffff163314611380576040517f08c379a000000000000000000000000000000000000000000000000000000000815260206004820181905260248201527f4f776e61626c653a2063616c6c6572206973206e6f7420746865206f776e65726044820152606401610cbf565b73ffffffffffffffffffffffffffffffffffffffff8116611423576040517f08c379a000000000000000000000000000000000000000000000000000000000815260206004820152602660248201527f4f776e61626c653a206e6577206f776e657220697320746865207a65726f206160448201527f64647265737300000000000000000000000000000000000000000000000000006064820152608401610cbf565b61142c8161142f565b50565b6000805473ffffffffffffffffffffffffffffffffffffffff8381167fffffffffffffffffffffffff0000000000000000000000000000000000000000831681178455604051919092169283917f8be0079c531659141344cd1fd0a4f28419497f9722a3daafe3b4186f6b6457e09190a35050565b8280546114b090611b12565b90600052602060002090601f0160209004810192826114d25760008555611518565b82601f106114eb57805160ff1916838001178555611518565b82800160010185558215611518579182015b828111156115185782518255916020019190600101906114fd565b50611524929150611528565b5090565b5b808211156115245760008155600101611529565b600067ffffffffffffffff8084111561155857611558611b66565b604051601f85017fffffffffffffffffffffffffffffffffffffffffffffffffffffffffffffffe0908116603f0116810190828211818310171561159e5761159e611b66565b816040528093508581528686860111156115b757600080fd5b858560208301376000602087830101525050509392505050565b80356115dc81611bb7565b919050565b60008083601f8401126115f357600080fd5b50813567ffffffffffffffff81111561160b57600080fd5b60208301915083602082850101111561162357600080fd5b9250929050565b600082601f83011261163b57600080fd5b61164a8383356020850161153d565b9392505050565b60006020828403121561166357600080fd5b813561164a81611b95565b60006020828403121561168057600080fd5b815161164a81611bb7565b60006020828403121561169d57600080fd5b815161164a81611b95565b6000602082840312156116ba57600080fd5b5051919050565b60008060008060008060c087890312156116da57600080fd5b8635955060208701356116ec81611b95565b945060408701356116fc81611bb7565b9350606087013567ffffffffffffffff8082111561171957600080fd5b6117258a838b0161162a565b9450608089013591508082111561173b57600080fd5b508701601f8101891361174d57600080fd5b61175c8982356020840161153d565b92505061176b60a088016115d1565b90509295509295509295565b60008060008060008060008060008060006101208c8e03121561179957600080fd5b8b359a506117aa60208d0135611b95565b60208c0135995060408c0135985060608c013597506117cc60808d0135611b95565b60808c0135965060a08c013595506117e660c08d016115d1565b945067ffffffffffffffff8060e08e0135111561180257600080fd5b6118128e60e08f01358f016115e1565b90955093506101008d013581101561182957600080fd5b5061183b8d6101008e01358e016115e1565b81935080925050509295989b509295989b9093969950565b600080600080600060a0868803121561186b57600080fd5b85359450602086013561187d81611b95565b93506040860135925060608601359150608086013567ffffffffffffffff8111156118a757600080fd5b6118b38882890161162a565b9150509295509295909350565b600081518084526118d8816020860160208601611ae2565b601f017fffffffffffffffffffffffffffffffffffffffffffffffffffffffffffffffe0169290920160200192915050565b6000825161191c818460208701611ae2565b9190910192915050565b600080835461193481611b12565b6001828116801561194c576001811461197b576119aa565b7fffffffffffffffffffffffffffffffffffffffffffffffffffffffffffffff008416875282870194506119aa565b8760005260208060002060005b858110156119a15781548a820152908401908201611988565b50505082870194505b50929695505050505050565b851515815260a0602082015260006119d160a08301876118c0565b82810360408401526119e381876118c0565b9415156060840152505073ffffffffffffffffffffffffffffffffffffffff919091166080909101529392505050565b60208152600061164a60208301846118c0565b60006101008a835289602084015273ffffffffffffffffffffffffffffffffffffffff808a16604085015280891660608501525086608084015285151560a08401528060c0840152611a7a818401866118c0565b905082810360e0840152611a8e81856118c0565b9b9a5050505050505050505050565b84815283602082015273ffffffffffffffffffffffffffffffffffffffff83166040820152608060608201526000611ad860808301846118c0565b9695505050505050565b60005b83811015611afd578181015183820152602001611ae5565b83811115611b0c576000848401525b50505050565b600181811c90821680611b2657607f821691505b60208210811415611b60577f4e487b7100000000000000000000000000000000000000000000000000000000600052602260045260246000fd5b50919050565b7f4e487b7100000000000000000000000000000000000000000000000000000000600052604160045260246000fd5b73ffffffffffffffffffffffffffffffffffffffff8116811461142c57600080fd5b801515811461142c57600080fdfea2646970667358221220f48286f8391bd3894d6a9a5b564133f469a538e70f733924f195c5b18694fd8464736f6c63430008060033a26469706673582212207bac43adfc2bc74a9489336a8da8964f1da75404b3451d034db5f7029a7013fc64736f6c63430008060033",
  "devdoc": {
    "details": "Adheres to: IJBETHERC20ProjectPayerDeployer:  General interface for the methods in this contract that interact with the blockchain's state according to the protocol's rules.",
    "kind": "dev",
    "methods": {
      "deployProjectPayer(uint256,address,bool,string,bytes,bool,address,address)": {
        "params": {
          "_defaultBeneficiary": "The address that'll receive the project's tokens when the project payer receives payments. ",
          "_defaultMemo": "The memo that'll be forwarded with the project payer's received payments. ",
          "_defaultMetadata": "The metadata that'll be forwarded with the project payer's received payments. ",
          "_defaultPreferAddToBalance": "A flag indicating if received payments should call the `pay` function or the `addToBalance` function of a project.",
          "_defaultPreferClaimedTokens": "A flag indicating whether issued tokens from the project payer's received payments should be automatically claimed into the beneficiary's wallet. ",
          "_defaultProjectId": "The ID of the project whose treasury should be forwarded the project payer contract's received payments.",
          "_directory": "A contract storing directories of terminals and controllers for each project.",
          "_owner": "The address that will own the project payer."
        },
        "returns": {
          "projectPayer": "The project payer contract."
        }
      }
    },
    "version": 1
  },
  "userdoc": {
    "kind": "user",
    "methods": {
      "deployProjectPayer(uint256,address,bool,string,bytes,bool,address,address)": {
        "notice": " Allows anyone to deploy a new project payer contract."
      }
    },
    "notice": " Deploys project payer contracts.",
    "version": 1
  },
  "storageLayout": {
    "storage": [],
    "types": null
  }
}