{
  "address": "0xeC2b643a72B06545d8537F9D96599609445d455c",
  "abi": [
    {
      "inputs": [
        {
          "internalType": "uint256",
          "name": "_baseWeightCurrency",
          "type": "uint256"
        },
        {
          "internalType": "contract IJBOperatorStore",
          "name": "_operatorStore",
          "type": "address"
        },
        {
          "internalType": "contract IJBProjects",
          "name": "_projects",
          "type": "address"
        },
        {
          "internalType": "contract IJBDirectory",
          "name": "_directory",
          "type": "address"
        },
        {
          "internalType": "contract IJBSplitsStore",
          "name": "_splitsStore",
          "type": "address"
        },
        {
          "internalType": "contract IJBPrices",
          "name": "_prices",
          "type": "address"
        },
        {
          "internalType": "contract IJBPaymentTerminalStore",
          "name": "_store",
          "type": "address"
        },
        {
          "internalType": "address",
          "name": "_owner",
          "type": "address"
        }
      ],
      "stateMutability": "nonpayable",
      "type": "constructor"
    },
    {
      "inputs": [],
      "name": "FEE_TOO_HIGH",
      "type": "error"
    },
    {
      "inputs": [],
      "name": "INADEQUATE_DISTRIBUTION_AMOUNT",
      "type": "error"
    },
    {
      "inputs": [],
      "name": "INADEQUATE_RECLAIM_AMOUNT",
      "type": "error"
    },
    {
      "inputs": [],
      "name": "INADEQUATE_TOKEN_COUNT",
      "type": "error"
    },
    {
      "inputs": [],
      "name": "NO_MSG_VALUE_ALLOWED",
      "type": "error"
    },
    {
      "inputs": [],
      "name": "PAY_TO_ZERO_ADDRESS",
      "type": "error"
    },
    {
      "inputs": [
        {
          "internalType": "uint256",
          "name": "prod1",
          "type": "uint256"
        },
        {
          "internalType": "uint256",
          "name": "denominator",
          "type": "uint256"
        }
      ],
      "name": "PRBMath__MulDivOverflow",
      "type": "error"
    },
    {
      "inputs": [],
      "name": "PROJECT_TERMINAL_MISMATCH",
      "type": "error"
    },
    {
      "inputs": [],
      "name": "REDEEM_TO_ZERO_ADDRESS",
      "type": "error"
    },
    {
      "inputs": [],
      "name": "TERMINAL_IN_SPLIT_ZERO_ADDRESS",
      "type": "error"
    },
    {
      "inputs": [],
      "name": "TERMINAL_TOKENS_INCOMPATIBLE",
      "type": "error"
    },
    {
      "inputs": [],
      "name": "UNAUTHORIZED",
      "type": "error"
    },
    {
      "anonymous": false,
      "inputs": [
        {
          "indexed": true,
          "internalType": "uint256",
          "name": "projectId",
          "type": "uint256"
        },
        {
          "indexed": false,
          "internalType": "uint256",
          "name": "amount",
          "type": "uint256"
        },
        {
          "indexed": false,
          "internalType": "string",
          "name": "memo",
          "type": "string"
        },
        {
          "indexed": false,
          "internalType": "address",
          "name": "caller",
          "type": "address"
        }
      ],
      "name": "AddToBalance",
      "type": "event"
    },
    {
      "anonymous": false,
      "inputs": [
        {
          "indexed": true,
          "internalType": "contract IJBPayDelegate",
          "name": "delegate",
          "type": "address"
        },
        {
          "components": [
            {
              "internalType": "address",
              "name": "payer",
              "type": "address"
            },
            {
              "internalType": "uint256",
              "name": "projectId",
              "type": "uint256"
            },
            {
              "components": [
                {
                  "internalType": "address",
                  "name": "token",
                  "type": "address"
                },
                {
                  "internalType": "uint256",
                  "name": "value",
                  "type": "uint256"
                },
                {
                  "internalType": "uint256",
                  "name": "decimals",
                  "type": "uint256"
                },
                {
                  "internalType": "uint256",
                  "name": "currency",
                  "type": "uint256"
                }
              ],
              "internalType": "struct JBTokenAmount",
              "name": "amount",
              "type": "tuple"
            },
            {
              "internalType": "uint256",
              "name": "projectTokenCount",
              "type": "uint256"
            },
            {
              "internalType": "address",
              "name": "beneficiary",
              "type": "address"
            },
            {
              "internalType": "string",
              "name": "memo",
              "type": "string"
            },
            {
              "internalType": "bytes",
              "name": "metadata",
              "type": "bytes"
            }
          ],
          "indexed": false,
          "internalType": "struct JBDidPayData",
          "name": "data",
          "type": "tuple"
        },
        {
          "indexed": false,
          "internalType": "address",
          "name": "caller",
          "type": "address"
        }
      ],
      "name": "DelegateDidPay",
      "type": "event"
    },
    {
      "anonymous": false,
      "inputs": [
        {
          "indexed": true,
          "internalType": "contract IJBRedemptionDelegate",
          "name": "delegate",
          "type": "address"
        },
        {
          "components": [
            {
              "internalType": "address",
              "name": "holder",
              "type": "address"
            },
            {
              "internalType": "uint256",
              "name": "projectId",
              "type": "uint256"
            },
            {
              "internalType": "uint256",
              "name": "projectTokenCount",
              "type": "uint256"
            },
            {
              "components": [
                {
                  "internalType": "address",
                  "name": "token",
                  "type": "address"
                },
                {
                  "internalType": "uint256",
                  "name": "value",
                  "type": "uint256"
                },
                {
                  "internalType": "uint256",
                  "name": "decimals",
                  "type": "uint256"
                },
                {
                  "internalType": "uint256",
                  "name": "currency",
                  "type": "uint256"
                }
              ],
              "internalType": "struct JBTokenAmount",
              "name": "reclaimedAmount",
              "type": "tuple"
            },
            {
              "internalType": "address payable",
              "name": "beneficiary",
              "type": "address"
            },
            {
              "internalType": "string",
              "name": "memo",
              "type": "string"
            },
            {
              "internalType": "bytes",
              "name": "metadata",
              "type": "bytes"
            }
          ],
          "indexed": false,
          "internalType": "struct JBDidRedeemData",
          "name": "data",
          "type": "tuple"
        },
        {
          "indexed": false,
          "internalType": "address",
          "name": "caller",
          "type": "address"
        }
      ],
      "name": "DelegateDidRedeem",
      "type": "event"
    },
    {
      "anonymous": false,
      "inputs": [
        {
          "indexed": true,
          "internalType": "uint256",
          "name": "fundingCycleConfiguration",
          "type": "uint256"
        },
        {
          "indexed": true,
          "internalType": "uint256",
          "name": "fundingCycleNumber",
          "type": "uint256"
        },
        {
          "indexed": true,
          "internalType": "uint256",
          "name": "projectId",
          "type": "uint256"
        },
        {
          "indexed": false,
          "internalType": "address",
          "name": "beneficiary",
          "type": "address"
        },
        {
          "indexed": false,
          "internalType": "uint256",
          "name": "amount",
          "type": "uint256"
        },
        {
          "indexed": false,
          "internalType": "uint256",
          "name": "distributedAmount",
          "type": "uint256"
        },
        {
          "indexed": false,
          "internalType": "uint256",
          "name": "fee",
          "type": "uint256"
        },
        {
          "indexed": false,
          "internalType": "uint256",
          "name": "beneficiaryDistributionAmount",
          "type": "uint256"
        },
        {
          "indexed": false,
          "internalType": "string",
          "name": "memo",
          "type": "string"
        },
        {
          "indexed": false,
          "internalType": "address",
          "name": "caller",
          "type": "address"
        }
      ],
      "name": "DistributePayouts",
      "type": "event"
    },
    {
      "anonymous": false,
      "inputs": [
        {
          "indexed": true,
          "internalType": "uint256",
          "name": "fundingCycleConfiguration",
          "type": "uint256"
        },
        {
          "indexed": true,
          "internalType": "uint256",
          "name": "fundingCycleNumber",
          "type": "uint256"
        },
        {
          "indexed": true,
          "internalType": "uint256",
          "name": "projectId",
          "type": "uint256"
        },
        {
          "components": [
            {
              "internalType": "bool",
              "name": "preferClaimed",
              "type": "bool"
            },
            {
              "internalType": "uint256",
              "name": "percent",
              "type": "uint256"
            },
            {
              "internalType": "uint256",
              "name": "projectId",
              "type": "uint256"
            },
            {
              "internalType": "address payable",
              "name": "beneficiary",
              "type": "address"
            },
            {
              "internalType": "uint256",
              "name": "lockedUntil",
              "type": "uint256"
            },
            {
              "internalType": "contract IJBSplitAllocator",
              "name": "allocator",
              "type": "address"
            }
          ],
          "indexed": false,
          "internalType": "struct JBSplit",
          "name": "split",
          "type": "tuple"
        },
        {
          "indexed": false,
          "internalType": "uint256",
          "name": "amount",
          "type": "uint256"
        },
        {
          "indexed": false,
          "internalType": "address",
          "name": "caller",
          "type": "address"
        }
      ],
      "name": "DistributeToPayoutSplit",
      "type": "event"
    },
    {
      "anonymous": false,
      "inputs": [
        {
          "indexed": true,
          "internalType": "uint256",
          "name": "projectId",
          "type": "uint256"
        },
        {
          "indexed": true,
          "internalType": "contract IJBPaymentTerminal",
          "name": "to",
          "type": "address"
        },
        {
          "indexed": false,
          "internalType": "uint256",
          "name": "amount",
          "type": "uint256"
        },
        {
          "indexed": false,
          "internalType": "address",
          "name": "caller",
          "type": "address"
        }
      ],
      "name": "Migrate",
      "type": "event"
    },
    {
      "anonymous": false,
      "inputs": [
        {
          "indexed": true,
          "internalType": "address",
          "name": "previousOwner",
          "type": "address"
        },
        {
          "indexed": true,
          "internalType": "address",
          "name": "newOwner",
          "type": "address"
        }
      ],
      "name": "OwnershipTransferred",
      "type": "event"
    },
    {
      "anonymous": false,
      "inputs": [
        {
          "indexed": true,
          "internalType": "uint256",
          "name": "fundingCycleConfiguration",
          "type": "uint256"
        },
        {
          "indexed": true,
          "internalType": "uint256",
          "name": "fundingCycleNumber",
          "type": "uint256"
        },
        {
          "indexed": true,
          "internalType": "uint256",
          "name": "projectId",
          "type": "uint256"
        },
        {
          "indexed": false,
          "internalType": "address",
          "name": "beneficiary",
          "type": "address"
        },
        {
          "indexed": false,
          "internalType": "uint256",
          "name": "amount",
          "type": "uint256"
        },
        {
          "indexed": false,
          "internalType": "uint256",
          "name": "beneficiaryTokenCount",
          "type": "uint256"
        },
        {
          "indexed": false,
          "internalType": "string",
          "name": "memo",
          "type": "string"
        },
        {
          "indexed": false,
          "internalType": "address",
          "name": "caller",
          "type": "address"
        }
      ],
      "name": "Pay",
      "type": "event"
    },
    {
      "anonymous": false,
      "inputs": [
        {
          "indexed": true,
          "internalType": "uint256",
          "name": "projectId",
          "type": "uint256"
        },
        {
          "components": [
            {
              "internalType": "uint256",
              "name": "amount",
              "type": "uint256"
            },
            {
              "internalType": "uint32",
              "name": "fee",
              "type": "uint32"
            },
            {
              "internalType": "address",
              "name": "beneficiary",
              "type": "address"
            }
          ],
          "indexed": false,
          "internalType": "struct JBFee[]",
          "name": "fees",
          "type": "tuple[]"
        },
        {
          "indexed": false,
          "internalType": "address",
          "name": "caller",
          "type": "address"
        }
      ],
      "name": "ProcessFees",
      "type": "event"
    },
    {
      "anonymous": false,
      "inputs": [
        {
          "indexed": true,
          "internalType": "uint256",
          "name": "fundingCycleConfiguration",
          "type": "uint256"
        },
        {
          "indexed": true,
          "internalType": "uint256",
          "name": "fundingCycleNumber",
          "type": "uint256"
        },
        {
          "indexed": true,
          "internalType": "uint256",
          "name": "projectId",
          "type": "uint256"
        },
        {
          "indexed": false,
          "internalType": "address",
          "name": "holder",
          "type": "address"
        },
        {
          "indexed": false,
          "internalType": "address",
          "name": "beneficiary",
          "type": "address"
        },
        {
          "indexed": false,
          "internalType": "uint256",
          "name": "tokenCount",
          "type": "uint256"
        },
        {
          "indexed": false,
          "internalType": "uint256",
          "name": "claimedAmount",
          "type": "uint256"
        },
        {
          "indexed": false,
          "internalType": "string",
          "name": "memo",
          "type": "string"
        },
        {
          "indexed": false,
          "internalType": "address",
          "name": "caller",
          "type": "address"
        }
      ],
      "name": "RedeemTokens",
      "type": "event"
    },
    {
      "anonymous": false,
      "inputs": [
        {
          "indexed": false,
          "internalType": "uint256",
          "name": "fee",
          "type": "uint256"
        },
        {
          "indexed": false,
          "internalType": "address",
          "name": "caller",
          "type": "address"
        }
      ],
      "name": "SetFee",
      "type": "event"
    },
    {
      "anonymous": false,
      "inputs": [
        {
          "indexed": true,
          "internalType": "contract IJBFeeGauge",
          "name": "feeGauge",
          "type": "address"
        },
        {
          "indexed": false,
          "internalType": "address",
          "name": "caller",
          "type": "address"
        }
      ],
      "name": "SetFeeGauge",
      "type": "event"
    },
    {
      "anonymous": false,
      "inputs": [
        {
          "indexed": true,
          "internalType": "contract IJBPaymentTerminal",
          "name": "terminal",
          "type": "address"
        },
        {
          "indexed": true,
          "internalType": "bool",
          "name": "flag",
          "type": "bool"
        },
        {
          "indexed": false,
          "internalType": "address",
          "name": "caller",
          "type": "address"
        }
      ],
      "name": "SetFeelessTerminal",
      "type": "event"
    },
    {
      "anonymous": false,
      "inputs": [
        {
          "indexed": true,
          "internalType": "uint256",
          "name": "fundingCycleConfiguration",
          "type": "uint256"
        },
        {
          "indexed": true,
          "internalType": "uint256",
          "name": "fundingCycleNumber",
          "type": "uint256"
        },
        {
          "indexed": true,
          "internalType": "uint256",
          "name": "projectId",
          "type": "uint256"
        },
        {
          "indexed": false,
          "internalType": "address",
          "name": "beneficiary",
          "type": "address"
        },
        {
          "indexed": false,
          "internalType": "uint256",
          "name": "amount",
          "type": "uint256"
        },
        {
          "indexed": false,
          "internalType": "uint256",
          "name": "distributedAmount",
          "type": "uint256"
        },
        {
          "indexed": false,
          "internalType": "uint256",
          "name": "fee",
          "type": "uint256"
        },
        {
          "indexed": false,
          "internalType": "string",
          "name": "memo",
          "type": "string"
        },
        {
          "indexed": false,
          "internalType": "address",
          "name": "caller",
          "type": "address"
        }
      ],
      "name": "UseAllowance",
      "type": "event"
    },
    {
      "inputs": [
        {
          "internalType": "uint256",
          "name": "_projectId",
          "type": "uint256"
        },
        {
          "internalType": "uint256",
          "name": "_amount",
          "type": "uint256"
        },
        {
          "internalType": "string",
          "name": "_memo",
          "type": "string"
        }
      ],
      "name": "addToBalanceOf",
      "outputs": [],
      "stateMutability": "payable",
      "type": "function"
    },
    {
      "inputs": [],
      "name": "baseWeightCurrency",
      "outputs": [
        {
          "internalType": "uint256",
          "name": "",
          "type": "uint256"
        }
      ],
      "stateMutability": "view",
      "type": "function"
    },
    {
      "inputs": [],
      "name": "currency",
      "outputs": [
        {
          "internalType": "uint256",
          "name": "",
          "type": "uint256"
        }
      ],
      "stateMutability": "view",
      "type": "function"
    },
    {
      "inputs": [
        {
          "internalType": "uint256",
          "name": "_projectId",
          "type": "uint256"
        }
      ],
      "name": "currentEthOverflowOf",
      "outputs": [
        {
          "internalType": "uint256",
          "name": "",
          "type": "uint256"
        }
      ],
      "stateMutability": "view",
      "type": "function"
    },
    {
      "inputs": [],
      "name": "decimals",
      "outputs": [
        {
          "internalType": "uint256",
          "name": "",
          "type": "uint256"
        }
      ],
      "stateMutability": "view",
      "type": "function"
    },
    {
      "inputs": [],
      "name": "directory",
      "outputs": [
        {
          "internalType": "contract IJBDirectory",
          "name": "",
          "type": "address"
        }
      ],
      "stateMutability": "view",
      "type": "function"
    },
    {
      "inputs": [
        {
          "internalType": "uint256",
          "name": "_projectId",
          "type": "uint256"
        },
        {
          "internalType": "uint256",
          "name": "_amount",
          "type": "uint256"
        },
        {
          "internalType": "uint256",
          "name": "_currency",
          "type": "uint256"
        },
        {
          "internalType": "uint256",
          "name": "_minReturnedTokens",
          "type": "uint256"
        },
        {
          "internalType": "string",
          "name": "_memo",
          "type": "string"
        }
      ],
      "name": "distributePayoutsOf",
      "outputs": [],
      "stateMutability": "nonpayable",
      "type": "function"
    },
    {
      "inputs": [],
      "name": "fee",
      "outputs": [
        {
          "internalType": "uint256",
          "name": "",
          "type": "uint256"
        }
      ],
      "stateMutability": "view",
      "type": "function"
    },
    {
      "inputs": [],
      "name": "feeGauge",
      "outputs": [
        {
          "internalType": "contract IJBFeeGauge",
          "name": "",
          "type": "address"
        }
      ],
      "stateMutability": "view",
      "type": "function"
    },
    {
      "inputs": [
        {
          "internalType": "uint256",
          "name": "_projectId",
          "type": "uint256"
        }
      ],
      "name": "heldFeesOf",
      "outputs": [
        {
          "components": [
            {
              "internalType": "uint256",
              "name": "amount",
              "type": "uint256"
            },
            {
              "internalType": "uint32",
              "name": "fee",
              "type": "uint32"
            },
            {
              "internalType": "address",
              "name": "beneficiary",
              "type": "address"
            }
          ],
          "internalType": "struct JBFee[]",
          "name": "",
          "type": "tuple[]"
        }
      ],
      "stateMutability": "view",
      "type": "function"
    },
    {
      "inputs": [
        {
          "internalType": "contract IJBPaymentTerminal",
          "name": "",
          "type": "address"
        }
      ],
      "name": "isFeelessTerminal",
      "outputs": [
        {
          "internalType": "bool",
          "name": "",
          "type": "bool"
        }
      ],
      "stateMutability": "view",
      "type": "function"
    },
    {
      "inputs": [
        {
          "internalType": "uint256",
          "name": "_projectId",
          "type": "uint256"
        },
        {
          "internalType": "contract IJBPaymentTerminal",
          "name": "_to",
          "type": "address"
        }
      ],
      "name": "migrate",
      "outputs": [],
      "stateMutability": "nonpayable",
      "type": "function"
    },
    {
      "inputs": [],
      "name": "operatorStore",
      "outputs": [
        {
          "internalType": "contract IJBOperatorStore",
          "name": "",
          "type": "address"
        }
      ],
      "stateMutability": "view",
      "type": "function"
    },
    {
      "inputs": [],
      "name": "owner",
      "outputs": [
        {
          "internalType": "address",
          "name": "",
          "type": "address"
        }
      ],
      "stateMutability": "view",
      "type": "function"
    },
    {
      "inputs": [
        {
          "internalType": "uint256",
          "name": "_amount",
          "type": "uint256"
        },
        {
          "internalType": "uint256",
          "name": "_projectId",
          "type": "uint256"
        },
        {
          "internalType": "address",
          "name": "_beneficiary",
          "type": "address"
        },
        {
          "internalType": "uint256",
          "name": "_minReturnedTokens",
          "type": "uint256"
        },
        {
          "internalType": "bool",
          "name": "_preferClaimedTokens",
          "type": "bool"
        },
        {
          "internalType": "string",
          "name": "_memo",
          "type": "string"
        },
        {
          "internalType": "bytes",
          "name": "_metadata",
          "type": "bytes"
        }
      ],
      "name": "pay",
      "outputs": [],
      "stateMutability": "payable",
      "type": "function"
    },
    {
      "inputs": [],
      "name": "payoutSplitsGroup",
      "outputs": [
        {
          "internalType": "uint256",
          "name": "",
          "type": "uint256"
        }
      ],
      "stateMutability": "view",
      "type": "function"
    },
    {
      "inputs": [],
      "name": "prices",
      "outputs": [
        {
          "internalType": "contract IJBPrices",
          "name": "",
          "type": "address"
        }
      ],
      "stateMutability": "view",
      "type": "function"
    },
    {
      "inputs": [
        {
          "internalType": "uint256",
          "name": "_projectId",
          "type": "uint256"
        }
      ],
      "name": "processFees",
      "outputs": [],
      "stateMutability": "nonpayable",
      "type": "function"
    },
    {
      "inputs": [],
      "name": "projects",
      "outputs": [
        {
          "internalType": "contract IJBProjects",
          "name": "",
          "type": "address"
        }
      ],
      "stateMutability": "view",
      "type": "function"
    },
    {
      "inputs": [
        {
          "internalType": "address",
          "name": "_holder",
          "type": "address"
        },
        {
          "internalType": "uint256",
          "name": "_projectId",
          "type": "uint256"
        },
        {
          "internalType": "uint256",
          "name": "_tokenCount",
          "type": "uint256"
        },
        {
          "internalType": "uint256",
          "name": "_minReturnedTokens",
          "type": "uint256"
        },
        {
          "internalType": "address payable",
          "name": "_beneficiary",
          "type": "address"
        },
        {
          "internalType": "string",
          "name": "_memo",
          "type": "string"
        },
        {
          "internalType": "bytes",
          "name": "_metadata",
          "type": "bytes"
        }
      ],
      "name": "redeemTokensOf",
      "outputs": [
        {
          "internalType": "uint256",
          "name": "reclaimAmount",
          "type": "uint256"
        }
      ],
      "stateMutability": "nonpayable",
      "type": "function"
    },
    {
      "inputs": [],
      "name": "renounceOwnership",
      "outputs": [],
      "stateMutability": "nonpayable",
      "type": "function"
    },
    {
      "inputs": [
        {
          "internalType": "uint256",
          "name": "_fee",
          "type": "uint256"
        }
      ],
      "name": "setFee",
      "outputs": [],
      "stateMutability": "nonpayable",
      "type": "function"
    },
    {
      "inputs": [
        {
          "internalType": "contract IJBFeeGauge",
          "name": "_feeGauge",
          "type": "address"
        }
      ],
      "name": "setFeeGauge",
      "outputs": [],
      "stateMutability": "nonpayable",
      "type": "function"
    },
    {
      "inputs": [
        {
          "internalType": "contract IJBPaymentTerminal",
          "name": "_terminal",
          "type": "address"
        },
        {
          "internalType": "bool",
          "name": "_flag",
          "type": "bool"
        }
      ],
      "name": "setFeelessTerminal",
      "outputs": [],
      "stateMutability": "nonpayable",
      "type": "function"
    },
    {
      "inputs": [],
      "name": "splitsStore",
      "outputs": [
        {
          "internalType": "contract IJBSplitsStore",
          "name": "",
          "type": "address"
        }
      ],
      "stateMutability": "view",
      "type": "function"
    },
    {
      "inputs": [],
      "name": "store",
      "outputs": [
        {
          "internalType": "contract IJBPaymentTerminalStore",
          "name": "",
          "type": "address"
        }
      ],
      "stateMutability": "view",
      "type": "function"
    },
    {
      "inputs": [],
      "name": "token",
      "outputs": [
        {
          "internalType": "address",
          "name": "",
          "type": "address"
        }
      ],
      "stateMutability": "view",
      "type": "function"
    },
    {
      "inputs": [
        {
          "internalType": "address",
          "name": "newOwner",
          "type": "address"
        }
      ],
      "name": "transferOwnership",
      "outputs": [],
      "stateMutability": "nonpayable",
      "type": "function"
    },
    {
      "inputs": [
        {
          "internalType": "uint256",
          "name": "_projectId",
          "type": "uint256"
        },
        {
          "internalType": "uint256",
          "name": "_amount",
          "type": "uint256"
        },
        {
          "internalType": "uint256",
          "name": "_currency",
          "type": "uint256"
        },
        {
          "internalType": "uint256",
          "name": "_minReturnedTokens",
          "type": "uint256"
        },
        {
          "internalType": "address payable",
          "name": "_beneficiary",
          "type": "address"
        },
        {
          "internalType": "string",
          "name": "_memo",
          "type": "string"
        }
      ],
      "name": "useAllowanceOf",
      "outputs": [],
      "stateMutability": "nonpayable",
      "type": "function"
    }
  ],
  "transactionHash": "0x759a2f612efa423d015bc4f8a8adf20e7e04ae7af7b4cf52e10a57742c2f0a82",
  "args": [
    "1",
    "0xC9A4b410593906768BD0d35c20Ad64c8DE04b826",
    "0xC7E775BbA411Df1D3c5D70Ec4C45f3DF8A85B0d0",
    "0x17f7D615062BddB87b4ebeFc0173b5f385aD9690",
    "0x972F8fC5CBd372Ef7E5F78606551Ca650B80EB7e",
    "0xBE207feE5619d69997EDA7DecCEc9ce74a7e67ff",
    "0x47f699C71B3dfB25299dE9a22f1ad01774EA91A1",
    "0xAF28bcB48C40dBC86f52D459A6562F658fc94B1e"
  ],
  "numDeployments": 2,
  "solcInputHash": "c53e8ea435a365144e05257e9146f0fc",
  "bytecode": "0x6101e060405263017d78406003553480156200001a57600080fd5b5060405162005d9a38038062005d9a8339810160408190526200003d916200020d565b606087901b6001600160601b03191660805261eeee601260018a818b8b8b8b8b8b8b6200006a33620000e8565b600180556001600160601b031960608d811b8216610140526101608d90526101a08b90526101c08a90526101808c905287811b821660a05286811b821660c05285811b821660e05284811b82166101005283901b1661012052620000ce8162000138565b5050505050505050505050505050505050505050620002d8565b600080546001600160a01b038381166001600160a01b0319831681178455604051919092169283917f8be0079c531659141344cd1fd0a4f28419497f9722a3daafe3b4186f6b6457e09190a35050565b6000546001600160a01b03163314620001985760405162461bcd60e51b815260206004820181905260248201527f4f776e61626c653a2063616c6c6572206973206e6f7420746865206f776e657260448201526064015b60405180910390fd5b6001600160a01b038116620001ff5760405162461bcd60e51b815260206004820152602660248201527f4f776e61626c653a206e6577206f776e657220697320746865207a65726f206160448201526564647265737360d01b60648201526084016200018f565b6200020a81620000e8565b50565b600080600080600080600080610100898b0312156200022b57600080fd5b8851975060208901516200023f81620002c2565b60408a01519097506200025281620002c2565b60608a01519096506200026581620002c2565b60808a01519095506200027881620002c2565b60a08a01519094506200028b81620002c2565b60c08a01519093506200029e81620002c2565b60e08a0151909250620002b181620002c2565b809150509295985092959890939650565b6001600160a01b03811681146200020a57600080fd5b60805160601c60a05160601c60c05160601c60e05160601c6101005160601c6101205160601c6101405160601c61016051610180516101a0516101c051615889620005116000396000818161032f01528181613e1c015261402601526000818161023701526139bc0152600081816105dd0152818161108401528181611ec001528181611f3b0152818161255d0152818161288901528181612a3f015261395701526000818161027901528181611e6101528181611e8d01528181611eed01528181611f680152818161253c01528181612863015281816139310152613ffa01526000818161067101528181610b0601528181610c41015281816116880152818161212a0152818161282101528181612e63015281816135e6015281816136e1015281816138ef01528181613f9d015281816141c0015261437601526000818161045701528181610ba4015281816110c40152818161174701528181611de1015281816124fd01528181612a7f015261397d0152600081816105460152611f8e0152600081816101d90152613e49015260008181610512015281816115c1015281816120630152818161268d01528181612e900152818161361101528181613ab101526141930152600081816103f8015281816107d501528181610dac015281816111c8015281816118360152612b6c0152600081816104be015281816108e1015281816109bd01528181610eb801528181610f940152818161199901528181611a75015281816122b8015261239401526158896000f3fe6080604052600436106101c25760003560e01c80638da5cb5b116100f7578063d3419bf311610095578063e5a6b10f11610064578063e5a6b10f146105cb578063e730b26e146105ff578063f2fde38b1461063f578063fc0c546a1461065f57600080fd5b8063d3419bf314610534578063d6dacc5314610568578063d930c60c14610595578063ddca3f43146105b557600080fd5b8063abe151b7116100d1578063abe151b714610499578063ad007d63146104ac578063b6cf978e146104e0578063c41c2f241461050057600080fd5b80638da5cb5b1461041a578063975057e714610445578063a32e1e961461047957600080fd5b806366248b861161016457806384a2aacd1161013e57806384a2aacd1461038657806389701db5146103995780638af56094146103b95780638b79543c146103e657600080fd5b806366248b861461031d57806369fe0e2d14610351578063715018a61461037157600080fd5b80633b7be7ea116101a05780633b7be7ea1461029b578063405b84fa146102bd5780634ee9c559146102dd578063637913ac146102fd57600080fd5b80632bdfe004146101c75780632d1a590314610225578063313ce56714610267575b600080fd5b3480156101d357600080fd5b506101fb7f000000000000000000000000000000000000000000000000000000000000000081565b60405173ffffffffffffffffffffffffffffffffffffffff90911681526020015b60405180910390f35b34801561023157600080fd5b506102597f000000000000000000000000000000000000000000000000000000000000000081565b60405190815260200161021c565b34801561027357600080fd5b506102597f000000000000000000000000000000000000000000000000000000000000000081565b3480156102a757600080fd5b506102bb6102b6366004614acb565b610693565b005b3480156102c957600080fd5b506102bb6102d8366004614bd5565b6107a6565b3480156102e957600080fd5b506102bb6102f8366004614d01565b610d7d565b34801561030957600080fd5b506102bb6103183660046148a7565b611304565b34801561032957600080fd5b506102597f000000000000000000000000000000000000000000000000000000000000000081565b34801561035d57600080fd5b506102bb61036c366004614ba3565b6113fe565b34801561037d57600080fd5b506102bb6114fd565b6102bb610394366004614cae565b61158a565b3480156103a557600080fd5b506102bb6103b4366004614ba3565b611807565b3480156103c557600080fd5b506103d96103d4366004614ba3565b611ce7565b60405161021c9190615296565b3480156103f257600080fd5b506101fb7f000000000000000000000000000000000000000000000000000000000000000081565b34801561042657600080fd5b5060005473ffffffffffffffffffffffffffffffffffffffff166101fb565b34801561045157600080fd5b506101fb7f000000000000000000000000000000000000000000000000000000000000000081565b34801561048557600080fd5b50610259610494366004614ba3565b611d92565b6102bb6104a7366004614bfa565b61202c565b3480156104b857600080fd5b506101fb7f000000000000000000000000000000000000000000000000000000000000000081565b3480156104ec57600080fd5b506102596104fb3660046148e1565b612238565b34801561050c57600080fd5b506101fb7f000000000000000000000000000000000000000000000000000000000000000081565b34801561054057600080fd5b506101fb7f000000000000000000000000000000000000000000000000000000000000000081565b34801561057457600080fd5b506004546101fb9073ffffffffffffffffffffffffffffffffffffffff1681565b3480156105a157600080fd5b506102bb6105b0366004614d76565b612a02565b3480156105c157600080fd5b5061025960035481565b3480156105d757600080fd5b506102597f000000000000000000000000000000000000000000000000000000000000000081565b34801561060b57600080fd5b5061062f61061a3660046148a7565b60056020526000908152604090205460ff1681565b604051901515815260200161021c565b34801561064b57600080fd5b506102bb61065a3660046148a7565b612cef565b34801561066b57600080fd5b506101fb7f000000000000000000000000000000000000000000000000000000000000000081565b60005473ffffffffffffffffffffffffffffffffffffffff163314610719576040517f08c379a000000000000000000000000000000000000000000000000000000000815260206004820181905260248201527f4f776e61626c653a2063616c6c6572206973206e6f7420746865206f776e657260448201526064015b60405180910390fd5b73ffffffffffffffffffffffffffffffffffffffff821660008181526005602090815260409182902080547fffffffffffffffffffffffffffffffffffffffffffffffffffffffffffffff001685151590811790915591513381529192917ff870dc5d3fb30dcc6e5588de75dfd6a15c777db0fb8266158702569c081eef35910160405180910390a35050565b6040517f6352211e000000000000000000000000000000000000000000000000000000008152600481018390527f000000000000000000000000000000000000000000000000000000000000000073ffffffffffffffffffffffffffffffffffffffff1690636352211e9060240160206040518083038186803b15801561082c57600080fd5b505afa158015610840573d6000803e3d6000fd5b505050506040513d601f19601f8201168201806040525081019061086491906148c4565b8260043373ffffffffffffffffffffffffffffffffffffffff84161480159061095d57506040517fc161c93f00000000000000000000000000000000000000000000000000000000815233600482015273ffffffffffffffffffffffffffffffffffffffff848116602483015260448201849052606482018390527f0000000000000000000000000000000000000000000000000000000000000000169063c161c93f9060840160206040518083038186803b15801561092357600080fd5b505afa158015610937573d6000803e3d6000fd5b505050506040513d601f19601f8201168201806040525081019061095b9190614aae565b155b8015610a3957506040517fc161c93f00000000000000000000000000000000000000000000000000000000815233600482015273ffffffffffffffffffffffffffffffffffffffff848116602483015260006044830152606482018390527f0000000000000000000000000000000000000000000000000000000000000000169063c161c93f9060840160206040518083038186803b1580156109ff57600080fd5b505afa158015610a13573d6000803e3d6000fd5b505050506040513d601f19601f82011682018060405250810190610a379190614aae565b155b15610a70576040517f075fd2b100000000000000000000000000000000000000000000000000000000815260040160405180910390fd5b8373ffffffffffffffffffffffffffffffffffffffff1663fc0c546a6040518163ffffffff1660e01b815260040160206040518083038186803b158015610ab657600080fd5b505afa158015610aca573d6000803e3d6000fd5b505050506040513d601f19601f82011682018060405250810190610aee91906148c4565b73ffffffffffffffffffffffffffffffffffffffff167f000000000000000000000000000000000000000000000000000000000000000073ffffffffffffffffffffffffffffffffffffffff1614610b72576040517f581010ed00000000000000000000000000000000000000000000000000000000815260040160405180910390fd5b6040517f6bb6a5ad000000000000000000000000000000000000000000000000000000008152600481018690526000907f000000000000000000000000000000000000000000000000000000000000000073ffffffffffffffffffffffffffffffffffffffff1690636bb6a5ad90602401602060405180830381600087803b158015610bfd57600080fd5b505af1158015610c11573d6000803e3d6000fd5b505050506040513d601f19601f82011682018060405250810190610c359190614bbc565b90508015610d235760007f000000000000000000000000000000000000000000000000000000000000000073ffffffffffffffffffffffffffffffffffffffff1661eeee14610c85576000610c87565b815b6040517f84a2aacd0000000000000000000000000000000000000000000000000000000081526004810189905260248101849052606060448201526000606482015290915073ffffffffffffffffffffffffffffffffffffffff8716906384a2aacd9083906084016000604051808303818588803b158015610d0857600080fd5b505af1158015610d1c573d6000803e3d6000fd5b5050505050505b6040805182815233602082015273ffffffffffffffffffffffffffffffffffffffff87169188917fa7519e5f94697b7f53e97c5eb46a0c730a296ab686ab8fd333835c5f735784eb910160405180910390a3505050505050565b6040517f6352211e000000000000000000000000000000000000000000000000000000008152600481018790527f000000000000000000000000000000000000000000000000000000000000000073ffffffffffffffffffffffffffffffffffffffff1690636352211e9060240160206040518083038186803b158015610e0357600080fd5b505afa158015610e17573d6000803e3d6000fd5b505050506040513d601f19601f82011682018060405250810190610e3b91906148c4565b8660113373ffffffffffffffffffffffffffffffffffffffff841614801590610f3457506040517fc161c93f00000000000000000000000000000000000000000000000000000000815233600482015273ffffffffffffffffffffffffffffffffffffffff848116602483015260448201849052606482018390527f0000000000000000000000000000000000000000000000000000000000000000169063c161c93f9060840160206040518083038186803b158015610efa57600080fd5b505afa158015610f0e573d6000803e3d6000fd5b505050506040513d601f19601f82011682018060405250810190610f329190614aae565b155b801561101057506040517fc161c93f00000000000000000000000000000000000000000000000000000000815233600482015273ffffffffffffffffffffffffffffffffffffffff848116602483015260006044830152606482018390527f0000000000000000000000000000000000000000000000000000000000000000169063c161c93f9060840160206040518083038186803b158015610fd657600080fd5b505afa158015610fea573d6000803e3d6000fd5b505050506040513d601f19601f8201168201806040525081019061100e9190614aae565b155b15611047576040517f075fd2b100000000000000000000000000000000000000000000000000000000815260040160405180910390fd5b6040517f1837d6e3000000000000000000000000000000000000000000000000000000008152600481018a905260248101899052604481018890527f00000000000000000000000000000000000000000000000000000000000000006064820152600090819073ffffffffffffffffffffffffffffffffffffffff7f00000000000000000000000000000000000000000000000000000000000000001690631837d6e39060840161014060405180830381600087803b15801561110957600080fd5b505af115801561111d573d6000803e3d6000fd5b505050506040513d601f19601f820116820180604052508101906111419190614b04565b915091508781101561117f576040517fb01493c100000000000000000000000000000000000000000000000000000000815260040160405180910390fd5b6040517f6352211e000000000000000000000000000000000000000000000000000000008152600481018c9052600090819073ffffffffffffffffffffffffffffffffffffffff7f00000000000000000000000000000000000000000000000000000000000000001690636352211e9060240160206040518083038186803b15801561120a57600080fd5b505afa15801561121e573d6000803e3d6000fd5b505050506040513d601f19601f8201168201806040525081019061124291906148c4565b9050600060035460001461125e576112598e612e1f565b611264565b633b9aca005b9050633b9aca0081146112835761127e8e86868585613030565b611286565b60005b9250600061129484866156eb565b905080156112a7576112a7308c83613110565b5050508b836000015184602001517f8657a0c05a68a912c23c1bd00124afaa8c669063b046bd9bfd22b21d573c5e6d8b8f87878e336040516112ee9695949392919061503f565b60405180910390a4505050505050505050505050565b60005473ffffffffffffffffffffffffffffffffffffffff163314611385576040517f08c379a000000000000000000000000000000000000000000000000000000000815260206004820181905260248201527f4f776e61626c653a2063616c6c6572206973206e6f7420746865206f776e65726044820152606401610710565b600480547fffffffffffffffffffffffff00000000000000000000000000000000000000001673ffffffffffffffffffffffffffffffffffffffff83169081179091556040513381527f0a9a80fe9716605b3e52abb3d792d6a4e7816d6afc02a5a4ef023081feaf9f609060200160405180910390a250565b60005473ffffffffffffffffffffffffffffffffffffffff16331461147f576040517f08c379a000000000000000000000000000000000000000000000000000000000815260206004820181905260248201527f4f776e61626c653a2063616c6c6572206973206e6f7420746865206f776e65726044820152606401610710565b6302faf0808111156114bd576040517f45fbd9c100000000000000000000000000000000000000000000000000000000815260040160405180910390fd5b6003819055604080518281523360208201527fd7414e590e1cb532989ab2a34c8f4c2c17f7ab6f006efeeaef2e87cd5008c202910160405180910390a150565b60005473ffffffffffffffffffffffffffffffffffffffff16331461157e576040517f08c379a000000000000000000000000000000000000000000000000000000000815260206004820181905260248201527f4f776e61626c653a2063616c6c6572206973206e6f7420746865206f776e65726044820152606401610710565b611588600061311f565b565b6040517f6e49181f0000000000000000000000000000000000000000000000000000000081526004810185905230602482015284907f000000000000000000000000000000000000000000000000000000000000000073ffffffffffffffffffffffffffffffffffffffff1690636e49181f9060440160206040518083038186803b15801561161857600080fd5b505afa15801561162c573d6000803e3d6000fd5b505050506040513d601f19601f820116820180604052508101906116509190614aae565b611686576040517fd8ead2c800000000000000000000000000000000000000000000000000000000815260040160405180910390fd5b7f000000000000000000000000000000000000000000000000000000000000000073ffffffffffffffffffffffffffffffffffffffff1661eeee1461170d5734156116fd576040517fbcfd35be00000000000000000000000000000000000000000000000000000000815260040160405180910390fd5b611708333086613110565b611711565b3493505b6040517fe7c8e3e300000000000000000000000000000000000000000000000000000000815260048101869052602481018590527f000000000000000000000000000000000000000000000000000000000000000073ffffffffffffffffffffffffffffffffffffffff169063e7c8e3e390604401600060405180830381600087803b1580156117a057600080fd5b505af11580156117b4573d6000803e3d6000fd5b505050506117c28585613194565b847f4ce42b42caaa564737146f357a8fa7fe24940fac843d392a69e23b32a1d766a3858585336040516117f894939291906153b9565b60405180910390a25050505050565b6040517f6352211e000000000000000000000000000000000000000000000000000000008152600481018290527f000000000000000000000000000000000000000000000000000000000000000073ffffffffffffffffffffffffffffffffffffffff1690636352211e9060240160206040518083038186803b15801561188d57600080fd5b505afa1580156118a1573d6000803e3d6000fd5b505050506040513d601f19601f820116820180604052508101906118c591906148c4565b8160056118e760005473ffffffffffffffffffffffffffffffffffffffff1690565b73ffffffffffffffffffffffffffffffffffffffff163373ffffffffffffffffffffffffffffffffffffffff16148015801561193957503373ffffffffffffffffffffffffffffffffffffffff851614155b8015611a1557506040517fc161c93f00000000000000000000000000000000000000000000000000000000815233600482015273ffffffffffffffffffffffffffffffffffffffff858116602483015260448201859052606482018490527f0000000000000000000000000000000000000000000000000000000000000000169063c161c93f9060840160206040518083038186803b1580156119db57600080fd5b505afa1580156119ef573d6000803e3d6000fd5b505050506040513d601f19601f82011682018060405250810190611a139190614aae565b155b8015611af157506040517fc161c93f00000000000000000000000000000000000000000000000000000000815233600482015273ffffffffffffffffffffffffffffffffffffffff858116602483015260006044830152606482018490527f0000000000000000000000000000000000000000000000000000000000000000169063c161c93f9060840160206040518083038186803b158015611ab757600080fd5b505afa158015611acb573d6000803e3d6000fd5b505050506040513d601f19601f82011682018060405250810190611aef9190614aae565b155b15611b28576040517f075fd2b100000000000000000000000000000000000000000000000000000000815260040160405180910390fd5b600085815260026020908152604080832080548251818502810185019093528083529192909190849084015b82821015611bbf57600084815260209081902060408051606081018252600286029092018054835260019081015463ffffffff811684860152640100000000900473ffffffffffffffffffffffffffffffffffffffff16918301919091529083529092019101611b54565b5050506000888152600260205260408120929350611bde9291506146d1565b60005b8151811015611ca457611c92611c47838381518110611c0257611c026157c5565b602002602001015160000151633b9aca0080868681518110611c2657611c266157c5565b60200260200101516020015163ffffffff16611c429190615534565b613497565b838381518110611c5957611c596157c5565b602002602001015160000151611c6f91906156eb565b838381518110611c8157611c816157c5565b6020026020010151604001516135a2565b80611c9c8161572e565b915050611be1565b50857f8d2ea94fb29422091b5a6b535e295fa8674108fb2f7ac5a386627ae17579e0008233604051611cd79291906152a9565b60405180910390a2505050505050565b606060026000838152602001908152602001600020805480602002602001604051908101604052809291908181526020016000905b82821015611d8757600084815260209081902060408051606081018252600286029092018054835260019081015463ffffffff811684860152640100000000900473ffffffffffffffffffffffffffffffffffffffff16918301919091529083529092019101611d1c565b505050509050919050565b6040517fd49031c000000000000000000000000000000000000000000000000000000000815230600482015260248101829052600090819073ffffffffffffffffffffffffffffffffffffffff7f0000000000000000000000000000000000000000000000000000000000000000169063d49031c09060440160206040518083038186803b158015611e2357600080fd5b505afa158015611e37573d6000803e3d6000fd5b505050506040513d601f19601f82011682018060405250810190611e5b9190614bbc565b905060007f0000000000000000000000000000000000000000000000000000000000000000601214611eb857611eb3827f000000000000000000000000000000000000000000000000000000000000000060126137cc565b611eba565b815b905060017f0000000000000000000000000000000000000000000000000000000000000000146120225761201d81611f137f0000000000000000000000000000000000000000000000000000000000000000600a6155e8565b6040517fa4d0caf20000000000000000000000000000000000000000000000000000000081527f00000000000000000000000000000000000000000000000000000000000000006004820152600160248201527f000000000000000000000000000000000000000000000000000000000000000060448201527f000000000000000000000000000000000000000000000000000000000000000073ffffffffffffffffffffffffffffffffffffffff169063a4d0caf29060640160206040518083038186803b158015611fe557600080fd5b505afa158015611ff9573d6000803e3d6000fd5b505050506040513d601f19601f82011682018060405250810190611c429190614bbc565b612024565b805b949350505050565b6040517f6e49181f0000000000000000000000000000000000000000000000000000000081526004810189905230602482015288907f000000000000000000000000000000000000000000000000000000000000000073ffffffffffffffffffffffffffffffffffffffff1690636e49181f9060440160206040518083038186803b1580156120ba57600080fd5b505afa1580156120ce573d6000803e3d6000fd5b505050506040513d601f19601f820116820180604052508101906120f29190614aae565b612128576040517fd8ead2c800000000000000000000000000000000000000000000000000000000815260040160405180910390fd5b7f000000000000000000000000000000000000000000000000000000000000000073ffffffffffffffffffffffffffffffffffffffff1661eeee146121af57341561219f576040517fbcfd35be00000000000000000000000000000000000000000000000000000000815260040160405180910390fd5b6121aa33308c613110565b6121b3565b3499505b61222c8a338b8b8b8b8b8b8080601f01602080910402602001604051908101604052809392919081815260200183838082843760009201919091525050604080516020601f8f018190048102820181019092528d815292508d91508c908190840183828082843760009201919091525061382a92505050565b50505050505050505050565b6000878760023373ffffffffffffffffffffffffffffffffffffffff84161480159061233457506040517fc161c93f00000000000000000000000000000000000000000000000000000000815233600482015273ffffffffffffffffffffffffffffffffffffffff848116602483015260448201849052606482018390527f0000000000000000000000000000000000000000000000000000000000000000169063c161c93f9060840160206040518083038186803b1580156122fa57600080fd5b505afa15801561230e573d6000803e3d6000fd5b505050506040513d601f19601f820116820180604052508101906123329190614aae565b155b801561241057506040517fc161c93f00000000000000000000000000000000000000000000000000000000815233600482015273ffffffffffffffffffffffffffffffffffffffff848116602483015260006044830152606482018390527f0000000000000000000000000000000000000000000000000000000000000000169063c161c93f9060840160206040518083038186803b1580156123d657600080fd5b505afa1580156123ea573d6000803e3d6000fd5b505050506040513d601f19601f8201168201806040525081019061240e9190614aae565b155b15612447576040517f075fd2b100000000000000000000000000000000000000000000000000000000815260040160405180910390fd5b73ffffffffffffffffffffffffffffffffffffffff8716612494576040517ff74a1b6600000000000000000000000000000000000000000000000000000000815260040160405180910390fd5b6124f960405180610120016040528060008152602001600081526020016000815260200160008152602001600081526020016000815260200160008152602001600073ffffffffffffffffffffffffffffffffffffffff168152602001600081525090565b60007f000000000000000000000000000000000000000000000000000000000000000073ffffffffffffffffffffffffffffffffffffffff1663700dcf928e8e8e7f00000000000000000000000000000000000000000000000000000000000000007f00000000000000000000000000000000000000000000000000000000000000008e8e6040518863ffffffff1660e01b81526004016125a0979695949392919061522f565b600060405180830381600087803b1580156125ba57600080fd5b505af11580156125ce573d6000803e3d6000fd5b505050506040513d6000823e601f3d9081017fffffffffffffffffffffffffffffffffffffffffffffffffffffffffffffffe01682016040526126149190810190614b33565b9a50909750909250905089861015612658576040517ff896960b00000000000000000000000000000000000000000000000000000000815260040160405180910390fd5b8a156127c3576040517f5dd8f6aa000000000000000000000000000000000000000000000000000000008152600481018d90527f000000000000000000000000000000000000000000000000000000000000000073ffffffffffffffffffffffffffffffffffffffff1690635dd8f6aa9060240160206040518083038186803b1580156126e457600080fd5b505afa1580156126f8573d6000803e3d6000fd5b505050506040513d601f19601f8201168201806040525081019061271c91906148c4565b6040517f1665bc0f00000000000000000000000000000000000000000000000000000000815273ffffffffffffffffffffffffffffffffffffffff8f81166004830152602482018f9052604482018e905260a06064830152600060a4830181905260848301529190911690631665bc0f9060c401600060405180830381600087803b1580156127aa57600080fd5b505af11580156127be573d6000803e3d6000fd5b505050505b73ffffffffffffffffffffffffffffffffffffffff8116156129955760006040518060e001604052808f73ffffffffffffffffffffffffffffffffffffffff1681526020018e81526020018d815260200160405180608001604052807f000000000000000000000000000000000000000000000000000000000000000073ffffffffffffffffffffffffffffffffffffffff1681526020018a81526020017f000000000000000000000000000000000000000000000000000000000000000081526020017f000000000000000000000000000000000000000000000000000000000000000081525081526020018b73ffffffffffffffffffffffffffffffffffffffff1681526020018a81526020018981525090508173ffffffffffffffffffffffffffffffffffffffff166343e1db27826040518263ffffffff1660e01b81526004016129119190615307565b600060405180830381600087803b15801561292b57600080fd5b505af115801561293f573d6000803e3d6000fd5b505050508173ffffffffffffffffffffffffffffffffffffffff167fae50d9bddbe6ac4bc3773182fa294bce3492ee93a9d32ae21ad4f6ebb618c7f9823360405161298b92919061531a565b60405180910390a2505b5084156129a7576129a7308987613110565b8a816000015182602001517fd2b8b011245528ed3c6d92b102e0cd9895bb1910613b04dd42d7c9ac3781612d8f8c8f8b8e336040516129eb969594939291906150f8565b60405180910390a450505050979650505050505050565b6040517f4d9cd5ac0000000000000000000000000000000000000000000000000000000081526004810187905260248101869052604481018590527f00000000000000000000000000000000000000000000000000000000000000006064820152600090819073ffffffffffffffffffffffffffffffffffffffff7f00000000000000000000000000000000000000000000000000000000000000001690634d9cd5ac9060840161014060405180830381600087803b158015612ac457600080fd5b505af1158015612ad8573d6000803e3d6000fd5b505050506040513d601f19601f82011682018060405250810190612afc9190614b04565b9150915084811015612b3a576040517fb01493c100000000000000000000000000000000000000000000000000000000815260040160405180910390fd5b6040517f6352211e000000000000000000000000000000000000000000000000000000008152600481018990526000907f000000000000000000000000000000000000000000000000000000000000000073ffffffffffffffffffffffffffffffffffffffff1690636352211e9060240160206040518083038186803b158015612bc357600080fd5b505afa158015612bd7573d6000803e3d6000fd5b505050506040513d601f19601f82011682018060405250810190612bfb91906148c4565b90506000806000600354600014612c1a57612c158c612e1f565b612c20565b633b9aca005b90506000612c308d888885613de0565b9093509050612c3f8382615534565b9050633b9aca00821480612c51575080155b612c6757612c628d88838886613030565b612c6a565b60005b93508215612c9057612c903086612c81868661452d565b612c8b90876156eb565b613110565b50508a856000015186602001517f24352f49df447b14e0e08a323625c663d865ce20c343c4638af12e1dc48aa760868e8988888f8f33604051612cda989796959493929190615097565b60405180910390a45050505050505050505050565b60005473ffffffffffffffffffffffffffffffffffffffff163314612d70576040517f08c379a000000000000000000000000000000000000000000000000000000000815260206004820181905260248201527f4f776e61626c653a2063616c6c6572206973206e6f7420746865206f776e65726044820152606401610710565b73ffffffffffffffffffffffffffffffffffffffff8116612e13576040517f08c379a000000000000000000000000000000000000000000000000000000000815260206004820152602660248201527f4f776e61626c653a206e6577206f776e657220697320746865207a65726f206160448201527f64647265737300000000000000000000000000000000000000000000000000006064820152608401610710565b612e1c8161311f565b50565b6040517f862026500000000000000000000000000000000000000000000000000000000081526001600482015273ffffffffffffffffffffffffffffffffffffffff7f00000000000000000000000000000000000000000000000000000000000000008116602483015260009182917f0000000000000000000000000000000000000000000000000000000000000000169063862026509060440160206040518083038186803b158015612ed257600080fd5b505afa158015612ee6573d6000803e3d6000fd5b505050506040513d601f19601f82011682018060405250810190612f0a91906148c4565b73ffffffffffffffffffffffffffffffffffffffff161415612f315750633b9aca00919050565b60045473ffffffffffffffffffffffffffffffffffffffff16612f565750600061301b565b600480546040517f7769589600000000000000000000000000000000000000000000000000000000815291820184905273ffffffffffffffffffffffffffffffffffffffff169063776958969060240160206040518083038186803b158015612fbe57600080fd5b505afa92505050801561300c575060408051601f3d9081017fffffffffffffffffffffffffffffffffffffffffffffffffffffffffffffffe016820190925261300991810190614bbc565b60015b6130185750600061301b565b90505b633b9aca0081111561302b575060005b919050565b600061303c848361452d565b61010086015190915060421c6001908116146130615761305c81846135a2565b613107565b6000868152600260208181526040808420815160608101835289815260035463ffffffff90811682860190815273ffffffffffffffffffffffffffffffffffffffff808c16958401958652845460018181018755958a52969098209251959096029091019384559351920180549151909416640100000000027fffffffffffffffff00000000000000000000000000000000000000000000000090911691909216171790555b95945050505050565b61311a8282614577565b505050565b6000805473ffffffffffffffffffffffffffffffffffffffff8381167fffffffffffffffffffffffff0000000000000000000000000000000000000000831681178455604051919092169283917f8be0079c531659141344cd1fd0a4f28419497f9722a3daafe3b4186f6b6457e09190a35050565b600082815260026020908152604080832080548251818502810185019093528083529192909190849084015b8282101561322b57600084815260209081902060408051606081018252600286029092018054835260019081015463ffffffff811684860152640100000000900473ffffffffffffffffffffffffffffffffffffffff169183019190915290835290920191016131c0565b505050600085815260026020526040812092935061324a9291506146d1565b60005b8151811015613491578261330e576000848152600260205260409020825183908390811061327d5761327d6157c5565b60209081029190910181015182546001818101855560009485529383902082516002909202019081559181015191909201805460409093015173ffffffffffffffffffffffffffffffffffffffff16640100000000027fffffffffffffffff00000000000000000000000000000000000000000000000090931663ffffffff9092169190911791909117905561347f565b818181518110613320576133206157c5565b602002602001015160000151831061336257818181518110613344576133446157c5565b6020026020010151600001518361335b91906156eb565b925061347f565b60026000858152602001908152602001600020604051806060016040528085858581518110613393576133936157c5565b6020026020010151600001516133a991906156eb565b81526020018484815181106133c0576133c06157c5565b60200260200101516020015163ffffffff1681526020018484815181106133e9576133e96157c5565b60209081029190910181015160409081015173ffffffffffffffffffffffffffffffffffffffff9081169093528454600181810187556000968752838720865160029093020191825592850151920180549490910151909216640100000000027fffffffffffffffff00000000000000000000000000000000000000000000000090931663ffffffff9091161791909117905592505b806134898161572e565b91505061324d565b50505050565b600080807fffffffffffffffffffffffffffffffffffffffffffffffffffffffffffffffff85870985870292508281108382030391505080600014156134f0578382816134e6576134e6615796565b049250505061359b565b838110613533576040517f773cc18c0000000000000000000000000000000000000000000000000000000081526004810182905260248101859052604401610710565b600084868809851960019081018716968790049682860381900495909211909303600082900391909104909201919091029190911760038402600290811880860282030280860282030280860282030280860282030280860282030280860290910302029150505b9392505050565b6040517f862026500000000000000000000000000000000000000000000000000000000081526001600482015273ffffffffffffffffffffffffffffffffffffffff7f0000000000000000000000000000000000000000000000000000000000000000811660248301526000917f00000000000000000000000000000000000000000000000000000000000000009091169063862026509060440160206040518083038186803b15801561365557600080fd5b505afa158015613669573d6000803e3d6000fd5b505050506040513d601f19601f8201168201806040525081019061368d91906148c4565b905073ffffffffffffffffffffffffffffffffffffffff81163014156136dd5761311a8330600185600080604051806020016040528060008152506040518060200160405280600081525061382a565b60007f000000000000000000000000000000000000000000000000000000000000000073ffffffffffffffffffffffffffffffffffffffff1661eeee14613725576000613727565b835b60408051602081018252600080825291517fabe151b700000000000000000000000000000000000000000000000000000000815292935073ffffffffffffffffffffffffffffffffffffffff85169263abe151b7928592613794928a926001928b928291906004016153fa565b6000604051808303818588803b1580156137ad57600080fd5b505af11580156137c1573d6000803e3d6000fd5b505050505050505050565b6000828214156137dd57508261359b565b8282111561380b576137ef83836156eb565b6137fa90600a6155e8565b61380490856156ae565b905061359b565b61381582846156eb565b61382090600a6155e8565b613804908561554c565b73ffffffffffffffffffffffffffffffffffffffff8516613877576040517fa762251300000000000000000000000000000000000000000000000000000000815260040160405180910390fd5b6138dc60405180610120016040528060008152602001600081526020016000815260200160008152602001600081526020016000815260200160008152602001600073ffffffffffffffffffffffffffffffffffffffff168152602001600081525090565b60008060008060405180608001604052807f000000000000000000000000000000000000000000000000000000000000000073ffffffffffffffffffffffffffffffffffffffff1681526020018e81526020017f000000000000000000000000000000000000000000000000000000000000000081526020017f000000000000000000000000000000000000000000000000000000000000000081525090507f000000000000000000000000000000000000000000000000000000000000000073ffffffffffffffffffffffffffffffffffffffff1663a977aefc8d838e7f00000000000000000000000000000000000000000000000000000000000000008c8c6040518763ffffffff1660e01b81526004016139fe9695949392919061513c565b600060405180830381600087803b158015613a1857600080fd5b505af1158015613a2c573d6000803e3d6000fd5b505050506040513d6000823e601f3d9081017fffffffffffffffffffffffffffffffffffffffffffffffffffffffffffffffe0168201604052613a729190810190614b33565b995091965090935091508115613c11576040517f5dd8f6aa000000000000000000000000000000000000000000000000000000008152600481018c90527f000000000000000000000000000000000000000000000000000000000000000073ffffffffffffffffffffffffffffffffffffffff1690635dd8f6aa9060240160206040518083038186803b158015613b0857600080fd5b505afa158015613b1c573d6000803e3d6000fd5b505050506040513d601f19601f82011682018060405250810190613b4091906148c4565b6040517f8ae9c07b000000000000000000000000000000000000000000000000000000008152600481018d90526024810184905273ffffffffffffffffffffffffffffffffffffffff8c8116604483015260c06064830152600060c48301528a15156084830152600160a48301529190911690638ae9c07b9060e401602060405180830381600087803b158015613bd657600080fd5b505af1158015613bea573d6000803e3d6000fd5b505050506040513d601f19601f82011682018060405250810190613c0e9190614bbc565b93505b88841015613c4b576040517f7b94612600000000000000000000000000000000000000000000000000000000815260040160405180910390fd5b73ffffffffffffffffffffffffffffffffffffffff831615613d875760006040518060e001604052808e73ffffffffffffffffffffffffffffffffffffffff1681526020018d81526020018381526020018681526020018c73ffffffffffffffffffffffffffffffffffffffff1681526020018981526020018881525090508373ffffffffffffffffffffffffffffffffffffffff1663185856a1826040518263ffffffff1660e01b8152600401613d0391906152e1565b600060405180830381600087803b158015613d1d57600080fd5b505af1158015613d31573d6000803e3d6000fd5b505050508373ffffffffffffffffffffffffffffffffffffffff167f7c66059d4a9f68466678168c1c369a1532ce0c8cec8da9b0a40703d29ff1c7b38233604051613d7d9291906152f4565b60405180910390a2505b50505087826000015183602001517f90a505d9899718702d1f8f9a21ba0bb545df8f5f70efdc5cd51b534191a304af8a8e868a33604051613dcc9594939291906151de565b60405180910390a450505050505050505050565b60208301516040517f69e11cc50000000000000000000000000000000000000000000000000000000081526004810186905260248101919091527f00000000000000000000000000000000000000000000000000000000000000006044820152829060009081907f000000000000000000000000000000000000000000000000000000000000000073ffffffffffffffffffffffffffffffffffffffff16906369e11cc59060640160006040518083038186803b158015613ea057600080fd5b505afa158015613eb4573d6000803e3d6000fd5b505050506040513d6000823e601f3d9081017fffffffffffffffffffffffffffffffffffffffffffffffffffffffffffffffe0168201604052613efa919081019061499b565b905060005b8151811015614522576000828281518110613f1c57613f1c6157c5565b602002602001015190506000613f3b888360200151633b9aca00613497565b9050600081156144c65760a083015173ffffffffffffffffffffffffffffffffffffffff161561414457633b9aca008814613f8957613f7a828961452d565b613f8490836156eb565b613f8b565b815b9050613f978287615534565b955060007f000000000000000000000000000000000000000000000000000000000000000073ffffffffffffffffffffffffffffffffffffffff1661eeee14613fe1576000613fe3565b815b905060006040518060a001604052808481526020017f000000000000000000000000000000000000000000000000000000000000000081526020018e81526020017f000000000000000000000000000000000000000000000000000000000000000081526020018681525090508460a0015173ffffffffffffffffffffffffffffffffffffffff1663e7cd77f283836040518363ffffffff1660e01b815260040161410b91908151815260208083015181830152604080840151818401526060808501518185015260809485015180511515868601529283015160a0808601919091529183015160c085015282015173ffffffffffffffffffffffffffffffffffffffff90811660e08501529382015161010084015201519091166101208201526101400190565b6000604051808303818588803b15801561412457600080fd5b505af1158015614138573d6000803e3d6000fd5b505050505050506144b9565b6040830151156144365760408084015190517f8620265000000000000000000000000000000000000000000000000000000000815260009173ffffffffffffffffffffffffffffffffffffffff7f00000000000000000000000000000000000000000000000000000000000000001691638620265091614207917f00000000000000000000000000000000000000000000000000000000000000009060040191825273ffffffffffffffffffffffffffffffffffffffff16602082015260400190565b60206040518083038186803b15801561421f57600080fd5b505afa158015614233573d6000803e3d6000fd5b505050506040513d601f19601f8201168201806040525081019061425791906148c4565b905073ffffffffffffffffffffffffffffffffffffffff81166142a6576040517f6921234300000000000000000000000000000000000000000000000000000000815260040160405180910390fd5b73ffffffffffffffffffffffffffffffffffffffff81163014156143075782915061430282308660400151876060015160008960000151604051806020016040528060008152506040518060200160405280600081525061382a565b614430565b73ffffffffffffffffffffffffffffffffffffffff811660009081526005602052604090205460ff161561433d57829150614372565b633b9aca00891461436157614352838a61452d565b61435c90846156eb565b614363565b825b915061436f8388615534565b96505b60007f000000000000000000000000000000000000000000000000000000000000000073ffffffffffffffffffffffffffffffffffffffff1661eeee146143ba5760006143bc565b825b604080870151606088015188518351602081018552600080825294517fabe151b700000000000000000000000000000000000000000000000000000000815295965073ffffffffffffffffffffffffffffffffffffffff88169563abe151b795889561410b958c95919490936004016153fa565b506144b9565b633b9aca00881461445a5761444b828961452d565b61445590836156eb565b61445c565b815b90506144688287615534565b95506144b930600073ffffffffffffffffffffffffffffffffffffffff16856060015173ffffffffffffffffffffffffffffffffffffffff1614156144ad57336144b3565b84606001515b83613110565b6144c382886156eb565b96505b8a8a600001518b602001517fd5a0ea197eec97b08a67e43169564f3b9b9aaa22f7b3e1652c8e6417b7cf03168685336040516145049392919061532d565b60405180910390a4505050808061451a9061572e565b915050613eff565b505094509492505050565b60008061454160035484633b9aca00613497565b60035461454e91906156eb565b905061456384633b9aca00611c428185615534565b61456d90856156eb565b9150505b92915050565b804710156145e1576040517f08c379a000000000000000000000000000000000000000000000000000000000815260206004820152601d60248201527f416464726573733a20696e73756666696369656e742062616c616e63650000006044820152606401610710565b60008273ffffffffffffffffffffffffffffffffffffffff168260405160006040518083038185875af1925050503d806000811461463b576040519150601f19603f3d011682016040523d82523d6000602084013e614640565b606091505b505090508061311a576040517f08c379a000000000000000000000000000000000000000000000000000000000815260206004820152603a60248201527f416464726573733a20756e61626c6520746f2073656e642076616c75652c207260448201527f6563697069656e74206d617920686176652072657665727465640000000000006064820152608401610710565b5080546000825560020290600052602060002090810190612e1c91905b8082111561472c57600081556001810180547fffffffffffffffff0000000000000000000000000000000000000000000000001690556002016146ee565b5090565b600061474361473e846154ee565b61549f565b905082815283838301111561475757600080fd5b828260208301376000602084830101529392505050565b60008083601f84011261478057600080fd5b50813567ffffffffffffffff81111561479857600080fd5b6020830191508360208285010111156147b057600080fd5b9250929050565b805161302b81615823565b600082601f8301126147d357600080fd5b61359b83833560208501614730565b600082601f8301126147f357600080fd5b815161480161473e826154ee565b81815284602083860101111561481657600080fd5b612024826020830160208701615702565b6000610120828403121561483a57600080fd5b614842615452565b9050815181526020820151602082015260408201516040820152606082015160608201526080820151608082015260a082015160a082015260c082015160c082015261489060e083016147b7565b60e082015261010080830151818301525092915050565b6000602082840312156148b957600080fd5b813561359b81615823565b6000602082840312156148d657600080fd5b815161359b81615823565b600080600080600080600060e0888a0312156148fc57600080fd5b873561490781615823565b9650602088013595506040880135945060608801359350608088013561492c81615823565b925060a088013567ffffffffffffffff8082111561494957600080fd5b6149558b838c016147c2565b935060c08a013591508082111561496b57600080fd5b508801601f81018a1361497d57600080fd5b61498c8a823560208401614730565b91505092959891949750929550565b600060208083850312156149ae57600080fd5b825167ffffffffffffffff808211156149c657600080fd5b818501915085601f8301126149da57600080fd5b8151818111156149ec576149ec6157f4565b6149fa848260051b0161549f565b818152848101925083850160c0808402860187018a1015614a1a57600080fd5b60009550855b84811015614a9f5781838c031215614a36578687fd5b614a3e61547c565b8351614a4981615845565b8152838901518982015260408085015190820152606080850151614a6c81615823565b908201526080848101519082015260a080850151614a8981615823565b9082015286529487019491810191600101614a20565b50919998505050505050505050565b600060208284031215614ac057600080fd5b815161359b81615845565b60008060408385031215614ade57600080fd5b8235614ae981615823565b91506020830135614af981615845565b809150509250929050565b6000806101408385031215614b1857600080fd5b614b228484614827565b915061012083015190509250929050565b6000806000806101808587031215614b4a57600080fd5b614b548686614827565b93506101208501519250610140850151614b6d81615823565b61016086015190925067ffffffffffffffff811115614b8b57600080fd5b614b97878288016147e2565b91505092959194509250565b600060208284031215614bb557600080fd5b5035919050565b600060208284031215614bce57600080fd5b5051919050565b60008060408385031215614be857600080fd5b823591506020830135614af981615823565b600080600080600080600080600060e08a8c031215614c1857600080fd5b8935985060208a0135975060408a0135614c3181615823565b965060608a0135955060808a0135614c4881615845565b945060a08a013567ffffffffffffffff80821115614c6557600080fd5b614c718d838e0161476e565b909650945060c08c0135915080821115614c8a57600080fd5b50614c978c828d0161476e565b915080935050809150509295985092959850929598565b60008060008060608587031215614cc457600080fd5b8435935060208501359250604085013567ffffffffffffffff811115614ce957600080fd5b614cf58782880161476e565b95989497509550505050565b60008060008060008060c08789031215614d1a57600080fd5b863595506020870135945060408701359350606087013592506080870135614d4181615823565b915060a087013567ffffffffffffffff811115614d5d57600080fd5b614d6989828a016147c2565b9150509295509295509295565b60008060008060008060a08789031215614d8f57600080fd5b86359550602087013594506040870135935060608701359250608087013567ffffffffffffffff811115614dc257600080fd5b614dce89828a0161476e565b979a9699509497509295939492505050565b600081518084526020808501945080840160005b83811015614e42578151805188528381015163ffffffff168489015260409081015173ffffffffffffffffffffffffffffffffffffffff169088015260609096019590820190600101614df4565b509495945050505050565b60008151808452614e65816020860160208601615702565b601f017fffffffffffffffffffffffffffffffffffffffffffffffffffffffffffffffe0169290920160200192915050565b8183528181602085013750600060208284010152600060207fffffffffffffffffffffffffffffffffffffffffffffffffffffffffffffffe0601f840116840101905092915050565b600061014073ffffffffffffffffffffffffffffffffffffffff808451168552602084015160208601526040840151614f53604087018273ffffffffffffffffffffffffffffffffffffffff81511682526020810151602083015260408101516040830152606081015160608301525050565b50606084015160c086015260808401511660e085015260a08301516101008501829052614f8282860182614e4d565b91505060c08301518482036101208601526131078282614e4d565b600061014073ffffffffffffffffffffffffffffffffffffffff8084511685526020840151602086015260408401516040860152606084015161501a606087018273ffffffffffffffffffffffffffffffffffffffff81511682526020810151602083015260408101516040830152606081015160608301525050565b5060808401511660e085015260a08301516101008501829052614f8282860182614e4d565b600073ffffffffffffffffffffffffffffffffffffffff808916835287602084015286604084015285606084015260c0608084015261508160c0840186614e4d565b915080841660a084015250979650505050505050565b600073ffffffffffffffffffffffffffffffffffffffff808b16835289602084015288604084015287606084015286608084015260e060a08401526150e060e084018688614e97565b915080841660c0840152509998505050505050505050565b600073ffffffffffffffffffffffffffffffffffffffff8089168352808816602084015286604084015285606084015260c0608084015261508160c0840186614e4d565b600061012073ffffffffffffffffffffffffffffffffffffffff8916835261519e602084018973ffffffffffffffffffffffffffffffffffffffff81511682526020810151602083015260408101516040830152606081015160608301525050565b8660a08401528560c08401528060e08401526151bc81840186614e4d565b90508281036101008401526151d18185614e4d565b9998505050505050505050565b600073ffffffffffffffffffffffffffffffffffffffff808816835286602084015285604084015260a0606084015261521a60a0840186614e4d565b91508084166080840152509695505050505050565b73ffffffffffffffffffffffffffffffffffffffff8816815286602082015285604082015284606082015283608082015260e060a0820152600061527660e0830185614e4d565b82810360c08401526152888185614e4d565b9a9950505050505050505050565b60208152600061359b6020830184614de0565b6040815260006152bc6040830185614de0565b905073ffffffffffffffffffffffffffffffffffffffff831660208301529392505050565b60208152600061359b6020830184614ee0565b6040815260006152bc6040830185614ee0565b60208152600061359b6020830184614f9d565b6040815260006152bc6040830185614f9d565b610100810161538f82868051151582526020810151602083015260408101516040830152606081015173ffffffffffffffffffffffffffffffffffffffff8082166060850152608083015160808501528060a08401511660a085015250505050565b8360c083015273ffffffffffffffffffffffffffffffffffffffff831660e0830152949350505050565b8481526060602082015260006153d3606083018587614e97565b905073ffffffffffffffffffffffffffffffffffffffff8316604083015295945050505050565b86815285602082015273ffffffffffffffffffffffffffffffffffffffff85166040820152836060820152821515608082015260e060a0820152600060e082015260006101008060c08401526151d181840185614e4d565b604051610120810167ffffffffffffffff81118282101715615476576154766157f4565b60405290565b60405160c0810167ffffffffffffffff81118282101715615476576154766157f4565b604051601f82017fffffffffffffffffffffffffffffffffffffffffffffffffffffffffffffffe016810167ffffffffffffffff811182821017156154e6576154e66157f4565b604052919050565b600067ffffffffffffffff821115615508576155086157f4565b50601f017fffffffffffffffffffffffffffffffffffffffffffffffffffffffffffffffe01660200190565b6000821982111561554757615547615767565b500190565b600082615582577f4e487b7100000000000000000000000000000000000000000000000000000000600052601260045260246000fd5b500490565b600181815b808511156155e057817fffffffffffffffffffffffffffffffffffffffffffffffffffffffffffffffff048211156155c6576155c6615767565b808516156155d357918102915b93841c939080029061558c565b509250929050565b600061359b83836000826155fe57506001614571565b8161560b57506000614571565b8160018114615621576002811461562b57615647565b6001915050614571565b60ff84111561563c5761563c615767565b50506001821b614571565b5060208310610133831016604e8410600b841016171561566a575081810a614571565b6156748383615587565b807fffffffffffffffffffffffffffffffffffffffffffffffffffffffffffffffff048211156156a6576156a6615767565b029392505050565b6000817fffffffffffffffffffffffffffffffffffffffffffffffffffffffffffffffff04831182151516156156e6576156e6615767565b500290565b6000828210156156fd576156fd615767565b500390565b60005b8381101561571d578181015183820152602001615705565b838111156134915750506000910152565b60007fffffffffffffffffffffffffffffffffffffffffffffffffffffffffffffffff82141561576057615760615767565b5060010190565b7f4e487b7100000000000000000000000000000000000000000000000000000000600052601160045260246000fd5b7f4e487b7100000000000000000000000000000000000000000000000000000000600052601260045260246000fd5b7f4e487b7100000000000000000000000000000000000000000000000000000000600052603260045260246000fd5b7f4e487b7100000000000000000000000000000000000000000000000000000000600052604160045260246000fd5b73ffffffffffffffffffffffffffffffffffffffff81168114612e1c57600080fd5b8015158114612e1c57600080fdfea26469706673582212205cf19e17f50280f16b1bc9041f15175740b680295d5755106fb09754dd6f517964736f6c63430008060033",
  "devdoc": {
    "details": "Inherits from: JBPayoutRedemptionPaymentTerminal: Generic terminal managing all inflows and outflows of funds into the protocol ecosystem.",
    "kind": "dev",
    "methods": {
      "addToBalanceOf(uint256,uint256,string)": {
        "params": {
          "_amount": "The amount of tokens to add, as a fixed point number with the same number of decimals as this terminal. If this is an ETH terminal, this is ignored and msg.value is used instead.",
          "_memo": "A memo to pass along to the emitted event.",
          "_projectId": "The ID of the project to which the funds received belong."
        }
      },
      "currentEthOverflowOf(uint256)": {
        "details": "The current overflow is represented as a fixed point number with 18 decimals.",
        "params": {
          "_projectId": "The ID of the project to get overflow for."
        },
        "returns": {
          "_0": "The current amount of ETH overflow that project has in this terminal, as a fixed point number with 18 decimals."
        }
      },
      "distributePayoutsOf(uint256,uint256,uint256,uint256,string)": {
        "details": "Payouts are sent to the preprogrammed splits. Any leftover is sent to the project's owner.Anyone can distribute payouts on a project's behalf. The project can preconfigure a wildcard split that is used to send funds to msg.sender. This can be used to incentivize calling this function.All funds distributed outside of this contract or any feeless terminals incure the protocol fee.",
        "params": {
          "_amount": "The amount of terminal tokens to distribute, as a fixed point number with same number of decimals as this terminal.",
          "_currency": "The expected currency of the amount being distributed. Must match the project's current funding cycle's distribution limit currency.",
          "_memo": "A memo to pass along to the emitted event.",
          "_minReturnedTokens": "The minimum number of terminal tokens that the `_amount` should be valued at in terms of this terminal's currency, as a fixed point number with the same number of decimals as this terminal.",
          "_projectId": "The ID of the project having its payouts distributed."
        }
      },
      "heldFeesOf(uint256)": {
        "params": {
          "_projectId": "The ID of the project for which fees are being held."
        },
        "returns": {
          "_0": "An array of fees that are being held."
        }
      },
      "migrate(uint256,address)": {
        "details": "Only a project's owner or a designated operator can migrate it.",
        "params": {
          "_projectId": "The ID of the project being migrated.",
          "_to": "The terminal contract that will gain the project's funds."
        }
      },
      "owner()": {
        "details": "Returns the address of the current owner."
      },
      "pay(uint256,uint256,address,uint256,bool,string,bytes)": {
        "params": {
          "_amount": "The amount of terminal tokens being received, as a fixed point number with the same amount of decimals as this terminal. If this terminal's token is ETH, this is ignored and msg.value is used in its place.",
          "_beneficiary": "The address to mint tokens for and pass along to the funding cycle's delegate.",
          "_memo": "A memo to pass along to the emitted event, and passed along the the funding cycle's data source and delegate.  A data source can alter the memo before emitting in the event and forwarding to the delegate.",
          "_metadata": "Bytes to send along to the data source and delegate, if provided.",
          "_minReturnedTokens": "The minimum number of project tokens expected in return, as a fixed point number with the same amount of decimals as this terminal.",
          "_preferClaimedTokens": "A flag indicating whether the request prefers to mint project tokens into the beneficiaries wallet rather than leaving them unclaimed. This is only possible if the project has an attached token contract. Leaving them unclaimed saves gas.",
          "_projectId": "The ID of the project being paid."
        }
      },
      "processFees(uint256)": {
        "details": "Only a project owner, an operator, or the contract's owner can process held fees.",
        "params": {
          "_projectId": "The ID of the project whos held fees should be processed."
        }
      },
      "redeemTokensOf(address,uint256,uint256,uint256,address,string,bytes)": {
        "details": "Only a token holder or a designated operator can redeem its tokens.",
        "params": {
          "_beneficiary": "The address to send the terminal tokens to.",
          "_holder": "The account to redeem tokens for.",
          "_memo": "A memo to pass along to the emitted event.",
          "_metadata": "Bytes to send along to the data source and delegate, if provided.",
          "_minReturnedTokens": "The minimum amount of terminal tokens expected in return, as a fixed point number with 18 decimals.",
          "_projectId": "The ID of the project to which the tokens being redeemed belong.",
          "_tokenCount": "The number of project tokens to redeem, as a fixed point number with 18 decimals."
        },
        "returns": {
          "reclaimAmount": "The amount of terminal tokens that the project tokens were redeemed for, as a fixed point number with 18 decimals."
        }
      },
      "renounceOwnership()": {
        "details": "Leaves the contract without owner. It will not be possible to call `onlyOwner` functions anymore. Can only be called by the current owner. NOTE: Renouncing ownership will leave the contract without an owner, thereby removing any functionality that is only available to the owner."
      },
      "setFee(uint256)": {
        "details": "Only the owner of this contract can change the fee.",
        "params": {
          "_fee": "The new fee, out of MAX_FEE."
        }
      },
      "setFeeGauge(address)": {
        "details": "Only the owner of this contract can change the fee gauge.If the fee gauge reverts when called upon while a project is attempting to distribute its funds, a project's funds will be locked. This is a known risk.",
        "params": {
          "_feeGauge": "The new fee gauge."
        }
      },
      "setFeelessTerminal(address,bool)": {
        "details": "Only the owner of this contract can set terminal's as feeless.",
        "params": {
          "_flag": "A flag indicating whether the terminal should be feeless or not.",
          "_terminal": "The terminal that can be paid towards while still bypassing fees."
        }
      },
      "transferOwnership(address)": {
        "details": "Transfers ownership of the contract to a new account (`newOwner`). Can only be called by the current owner."
      },
      "useAllowanceOf(uint256,uint256,uint256,uint256,address,string)": {
        "details": "Only a project's owner or a designated operator can use its allowance.Incurs the protocol fee.",
        "params": {
          "_amount": "The amount of terminal tokens to use from this project's current allowance, as a fixed point number with the same amount of decimals as this terminal.",
          "_beneficiary": "The address to send the funds to.",
          "_currency": "The expected currency of the amount being distributed. Must match the project's current funding cycle's overflow allowance currency.",
          "_memo": "A memo to pass along to the emitted event.",
          "_minReturnedTokens": "The minimum number of tokens that the `_amount` should be valued at in terms of this terminal's currency, as a fixed point number with 18 decimals.",
          "_projectId": "The ID of the project to use the allowance of."
        }
      }
    },
    "version": 1
  },
  "userdoc": {
    "errors": {
      "PRBMath__MulDivOverflow(uint256,uint256)": [
        {
          "notice": "Emitted when the result overflows uint256."
        }
      ]
    },
    "kind": "user",
    "methods": {
      "addToBalanceOf(uint256,uint256,string)": {
        "notice": "Receives funds belonging to the specified project."
      },
      "baseWeightCurrency()": {
        "notice": "The currency to base token issuance on."
      },
      "currency()": {
        "notice": "The currency to use when resolving price feeds for this terminal."
      },
      "currentEthOverflowOf(uint256)": {
        "notice": "Gets the current overflowed amount in this terminal for a specified project, in terms of ETH."
      },
      "decimals()": {
        "notice": "The number of decimals the token fixed point amounts are expected to have."
      },
      "directory()": {
        "notice": "The directory of terminals and controllers for projects."
      },
      "distributePayoutsOf(uint256,uint256,uint256,uint256,string)": {
        "notice": "Distributes payouts for a project with the distribution limit of its current funding cycle."
      },
      "fee()": {
        "notice": "The platform fee percent."
      },
      "feeGauge()": {
        "notice": "The data source that returns a discount to apply to a project's fee."
      },
      "heldFeesOf(uint256)": {
        "notice": "The fees that are currently being held to be processed later for each project."
      },
      "isFeelessTerminal(address)": {
        "notice": "Terminals that can be paid towards from this terminal without incurring a fee. _terminal The terminal that can be paid toward."
      },
      "migrate(uint256,address)": {
        "notice": "Allows a project owner to migrate its funds and operations to a new terminal of the same token type."
      },
      "operatorStore()": {
        "notice": " A contract storing operator assignments."
      },
      "pay(uint256,uint256,address,uint256,bool,string,bytes)": {
        "notice": "Contribute tokens to a project."
      },
      "payoutSplitsGroup()": {
        "notice": "The group that payout splits coming from this terminal are identified by."
      },
      "prices()": {
        "notice": "The contract that exposes price feeds."
      },
      "processFees(uint256)": {
        "notice": "Process any fees that are being held for the project."
      },
      "projects()": {
        "notice": "The Projects contract which mints ERC-721's that represent project ownership and transfers."
      },
      "redeemTokensOf(address,uint256,uint256,uint256,address,string,bytes)": {
        "notice": "Holders can redeem their tokens to claim the project's overflowed tokens, or to trigger rules determined by the project's current funding cycle's data source."
      },
      "setFee(uint256)": {
        "notice": "Allows the fee to be updated."
      },
      "setFeeGauge(address)": {
        "notice": "Allows the fee gauge to be updated."
      },
      "setFeelessTerminal(address,bool)": {
        "notice": "Sets whether projects operating on this terminal can pay projects operating on the specified terminal without incurring a fee."
      },
      "splitsStore()": {
        "notice": "The contract that stores splits for each project."
      },
      "store()": {
        "notice": "The contract that stores and manages the terminal's data."
      },
      "token()": {
        "notice": "The token that this terminal accepts."
      },
      "useAllowanceOf(uint256,uint256,uint256,uint256,address,string)": {
        "notice": "Allows a project to send funds from its overflow up to the preconfigured allowance."
      }
    },
    "notice": "Manages all inflows and outflows of ETH funds into the protocol ecosystem.",
    "version": 1
  },
  "storageLayout": {
    "storage": [
      {
        "astId": 53,
        "contract": "contracts/JBETHPaymentTerminal.sol:JBETHPaymentTerminal",
        "label": "_owner",
        "offset": 0,
        "slot": "0",
        "type": "t_address"
      },
      {
        "astId": 693,
        "contract": "contracts/JBETHPaymentTerminal.sol:JBETHPaymentTerminal",
        "label": "_status",
        "offset": 0,
        "slot": "1",
        "type": "t_uint256"
      },
      {
        "astId": 12512,
        "contract": "contracts/JBETHPaymentTerminal.sol:JBETHPaymentTerminal",
        "label": "_heldFeesOf",
        "offset": 0,
        "slot": "2",
        "type": "t_mapping(t_uint256,t_array(t_struct(JBFee)17118_storage)dyn_storage)"
      },
      {
        "astId": 12562,
        "contract": "contracts/JBETHPaymentTerminal.sol:JBETHPaymentTerminal",
        "label": "fee",
        "offset": 0,
        "slot": "3",
        "type": "t_uint256"
      },
      {
        "astId": 12567,
        "contract": "contracts/JBETHPaymentTerminal.sol:JBETHPaymentTerminal",
        "label": "feeGauge",
        "offset": 0,
        "slot": "4",
        "type": "t_contract(IJBFeeGauge)14915"
      },
      {
        "astId": 12574,
        "contract": "contracts/JBETHPaymentTerminal.sol:JBETHPaymentTerminal",
        "label": "isFeelessTerminal",
        "offset": 0,
        "slot": "5",
        "type": "t_mapping(t_contract(IJBPaymentTerminal)15193,t_bool)"
      }
    ],
    "types": {
      "t_address": {
        "encoding": "inplace",
        "label": "address",
        "numberOfBytes": "20"
      },
      "t_array(t_struct(JBFee)17118_storage)dyn_storage": {
        "base": "t_struct(JBFee)17118_storage",
        "encoding": "dynamic_array",
        "label": "struct JBFee[]",
        "numberOfBytes": "32"
      },
      "t_bool": {
        "encoding": "inplace",
        "label": "bool",
        "numberOfBytes": "1"
      },
      "t_contract(IJBFeeGauge)14915": {
        "encoding": "inplace",
        "label": "contract IJBFeeGauge",
        "numberOfBytes": "20"
      },
      "t_contract(IJBPaymentTerminal)15193": {
        "encoding": "inplace",
        "label": "contract IJBPaymentTerminal",
        "numberOfBytes": "20"
      },
      "t_mapping(t_contract(IJBPaymentTerminal)15193,t_bool)": {
        "encoding": "mapping",
        "key": "t_contract(IJBPaymentTerminal)15193",
        "label": "mapping(contract IJBPaymentTerminal => bool)",
        "numberOfBytes": "32",
        "value": "t_bool"
      },
      "t_mapping(t_uint256,t_array(t_struct(JBFee)17118_storage)dyn_storage)": {
        "encoding": "mapping",
        "key": "t_uint256",
        "label": "mapping(uint256 => struct JBFee[])",
        "numberOfBytes": "32",
        "value": "t_array(t_struct(JBFee)17118_storage)dyn_storage"
      },
      "t_struct(JBFee)17118_storage": {
        "encoding": "inplace",
        "label": "struct JBFee",
        "members": [
          {
            "astId": 17113,
            "contract": "contracts/JBETHPaymentTerminal.sol:JBETHPaymentTerminal",
            "label": "amount",
            "offset": 0,
            "slot": "0",
            "type": "t_uint256"
          },
          {
            "astId": 17115,
            "contract": "contracts/JBETHPaymentTerminal.sol:JBETHPaymentTerminal",
            "label": "fee",
            "offset": 0,
            "slot": "1",
            "type": "t_uint32"
          },
          {
            "astId": 17117,
            "contract": "contracts/JBETHPaymentTerminal.sol:JBETHPaymentTerminal",
            "label": "beneficiary",
            "offset": 4,
            "slot": "1",
            "type": "t_address"
          }
        ],
        "numberOfBytes": "64"
      },
      "t_uint256": {
        "encoding": "inplace",
        "label": "uint256",
        "numberOfBytes": "32"
      },
      "t_uint32": {
        "encoding": "inplace",
        "label": "uint32",
        "numberOfBytes": "4"
      }
    }
  }
}