{
  "address": "0x6B0bD488c2122Ad61513437f2e0619d53d128895",
  "abi": [
    {
      "inputs": [
        {
          "internalType": "contract IJBDirectory",
          "name": "_directory",
          "type": "address"
        }
      ],
      "stateMutability": "nonpayable",
      "type": "constructor"
    },
    {
      "inputs": [],
      "name": "CONTROLLER_UNAUTHORIZED",
      "type": "error"
    },
    {
      "inputs": [],
      "name": "INVALID_DISCOUNT_RATE",
      "type": "error"
    },
    {
      "inputs": [],
      "name": "INVALID_DURATION",
      "type": "error"
    },
    {
      "inputs": [],
      "name": "INVALID_WEIGHT",
      "type": "error"
    },
    {
      "inputs": [
        {
          "internalType": "uint256",
          "name": "prod1",
          "type": "uint256"
        },
        {
          "internalType": "uint256",
          "name": "denominator",
          "type": "uint256"
        }
      ],
      "name": "PRBMath__MulDivOverflow",
      "type": "error"
    },
    {
      "anonymous": false,
      "inputs": [
        {
          "indexed": true,
          "internalType": "uint256",
          "name": "configuration",
          "type": "uint256"
        },
        {
          "indexed": true,
          "internalType": "uint256",
          "name": "projectId",
          "type": "uint256"
        },
        {
          "components": [
            {
              "internalType": "uint256",
              "name": "duration",
              "type": "uint256"
            },
            {
              "internalType": "uint256",
              "name": "weight",
              "type": "uint256"
            },
            {
              "internalType": "uint256",
              "name": "discountRate",
              "type": "uint256"
            },
            {
              "internalType": "contract IJBFundingCycleBallot",
              "name": "ballot",
              "type": "address"
            }
          ],
          "indexed": false,
          "internalType": "struct JBFundingCycleData",
          "name": "data",
          "type": "tuple"
        },
        {
          "indexed": false,
          "internalType": "uint256",
          "name": "metadata",
          "type": "uint256"
        },
        {
          "indexed": false,
          "internalType": "uint256",
          "name": "mustStartAtOrAfter",
          "type": "uint256"
        },
        {
          "indexed": false,
          "internalType": "address",
          "name": "caller",
          "type": "address"
        }
      ],
      "name": "Configure",
      "type": "event"
    },
    {
      "anonymous": false,
      "inputs": [
        {
          "indexed": true,
          "internalType": "uint256",
          "name": "configuration",
          "type": "uint256"
        },
        {
          "indexed": true,
          "internalType": "uint256",
          "name": "projectId",
          "type": "uint256"
        },
        {
          "indexed": true,
          "internalType": "uint256",
          "name": "basedOn",
          "type": "uint256"
        }
      ],
      "name": "Init",
      "type": "event"
    },
    {
      "inputs": [
        {
          "internalType": "uint256",
          "name": "_projectId",
          "type": "uint256"
        },
        {
          "components": [
            {
              "internalType": "uint256",
              "name": "duration",
              "type": "uint256"
            },
            {
              "internalType": "uint256",
              "name": "weight",
              "type": "uint256"
            },
            {
              "internalType": "uint256",
              "name": "discountRate",
              "type": "uint256"
            },
            {
              "internalType": "contract IJBFundingCycleBallot",
              "name": "ballot",
              "type": "address"
            }
          ],
          "internalType": "struct JBFundingCycleData",
          "name": "_data",
          "type": "tuple"
        },
        {
          "internalType": "uint256",
          "name": "_metadata",
          "type": "uint256"
        },
        {
          "internalType": "uint256",
          "name": "_mustStartAtOrAfter",
          "type": "uint256"
        }
      ],
      "name": "configureFor",
      "outputs": [
        {
          "components": [
            {
              "internalType": "uint256",
              "name": "number",
              "type": "uint256"
            },
            {
              "internalType": "uint256",
              "name": "configuration",
              "type": "uint256"
            },
            {
              "internalType": "uint256",
              "name": "basedOn",
              "type": "uint256"
            },
            {
              "internalType": "uint256",
              "name": "start",
              "type": "uint256"
            },
            {
              "internalType": "uint256",
              "name": "duration",
              "type": "uint256"
            },
            {
              "internalType": "uint256",
              "name": "weight",
              "type": "uint256"
            },
            {
              "internalType": "uint256",
              "name": "discountRate",
              "type": "uint256"
            },
            {
              "internalType": "contract IJBFundingCycleBallot",
              "name": "ballot",
              "type": "address"
            },
            {
              "internalType": "uint256",
              "name": "metadata",
              "type": "uint256"
            }
          ],
          "internalType": "struct JBFundingCycle",
          "name": "",
          "type": "tuple"
        }
      ],
      "stateMutability": "nonpayable",
      "type": "function"
    },
    {
      "inputs": [
        {
          "internalType": "uint256",
          "name": "_projectId",
          "type": "uint256"
        }
      ],
      "name": "currentBallotStateOf",
      "outputs": [
        {
          "internalType": "enum JBBallotState",
          "name": "",
          "type": "uint8"
        }
      ],
      "stateMutability": "view",
      "type": "function"
    },
    {
      "inputs": [
        {
          "internalType": "uint256",
          "name": "_projectId",
          "type": "uint256"
        }
      ],
      "name": "currentOf",
      "outputs": [
        {
          "components": [
            {
              "internalType": "uint256",
              "name": "number",
              "type": "uint256"
            },
            {
              "internalType": "uint256",
              "name": "configuration",
              "type": "uint256"
            },
            {
              "internalType": "uint256",
              "name": "basedOn",
              "type": "uint256"
            },
            {
              "internalType": "uint256",
              "name": "start",
              "type": "uint256"
            },
            {
              "internalType": "uint256",
              "name": "duration",
              "type": "uint256"
            },
            {
              "internalType": "uint256",
              "name": "weight",
              "type": "uint256"
            },
            {
              "internalType": "uint256",
              "name": "discountRate",
              "type": "uint256"
            },
            {
              "internalType": "contract IJBFundingCycleBallot",
              "name": "ballot",
              "type": "address"
            },
            {
              "internalType": "uint256",
              "name": "metadata",
              "type": "uint256"
            }
          ],
          "internalType": "struct JBFundingCycle",
          "name": "fundingCycle",
          "type": "tuple"
        }
      ],
      "stateMutability": "view",
      "type": "function"
    },
    {
      "inputs": [],
      "name": "directory",
      "outputs": [
        {
          "internalType": "contract IJBDirectory",
          "name": "",
          "type": "address"
        }
      ],
      "stateMutability": "view",
      "type": "function"
    },
    {
      "inputs": [
        {
          "internalType": "uint256",
          "name": "_projectId",
          "type": "uint256"
        },
        {
          "internalType": "uint256",
          "name": "_configuration",
          "type": "uint256"
        }
      ],
      "name": "get",
      "outputs": [
        {
          "components": [
            {
              "internalType": "uint256",
              "name": "number",
              "type": "uint256"
            },
            {
              "internalType": "uint256",
              "name": "configuration",
              "type": "uint256"
            },
            {
              "internalType": "uint256",
              "name": "basedOn",
              "type": "uint256"
            },
            {
              "internalType": "uint256",
              "name": "start",
              "type": "uint256"
            },
            {
              "internalType": "uint256",
              "name": "duration",
              "type": "uint256"
            },
            {
              "internalType": "uint256",
              "name": "weight",
              "type": "uint256"
            },
            {
              "internalType": "uint256",
              "name": "discountRate",
              "type": "uint256"
            },
            {
              "internalType": "contract IJBFundingCycleBallot",
              "name": "ballot",
              "type": "address"
            },
            {
              "internalType": "uint256",
              "name": "metadata",
              "type": "uint256"
            }
          ],
          "internalType": "struct JBFundingCycle",
          "name": "fundingCycle",
          "type": "tuple"
        }
      ],
      "stateMutability": "view",
      "type": "function"
    },
    {
      "inputs": [
        {
          "internalType": "uint256",
          "name": "",
          "type": "uint256"
        }
      ],
      "name": "latestConfigurationOf",
      "outputs": [
        {
          "internalType": "uint256",
          "name": "",
          "type": "uint256"
        }
      ],
      "stateMutability": "view",
      "type": "function"
    },
    {
      "inputs": [
        {
          "internalType": "uint256",
          "name": "_projectId",
          "type": "uint256"
        }
      ],
      "name": "queuedOf",
      "outputs": [
        {
          "components": [
            {
              "internalType": "uint256",
              "name": "number",
              "type": "uint256"
            },
            {
              "internalType": "uint256",
              "name": "configuration",
              "type": "uint256"
            },
            {
              "internalType": "uint256",
              "name": "basedOn",
              "type": "uint256"
            },
            {
              "internalType": "uint256",
              "name": "start",
              "type": "uint256"
            },
            {
              "internalType": "uint256",
              "name": "duration",
              "type": "uint256"
            },
            {
              "internalType": "uint256",
              "name": "weight",
              "type": "uint256"
            },
            {
              "internalType": "uint256",
              "name": "discountRate",
              "type": "uint256"
            },
            {
              "internalType": "contract IJBFundingCycleBallot",
              "name": "ballot",
              "type": "address"
            },
            {
              "internalType": "uint256",
              "name": "metadata",
              "type": "uint256"
            }
          ],
          "internalType": "struct JBFundingCycle",
          "name": "_fundingCycle",
          "type": "tuple"
        }
      ],
      "stateMutability": "view",
      "type": "function"
    }
  ],
  "transactionHash": "0x86cfd4f40efbacd62c89656ac6242d1ae7c1fbf626a4179941011f00d5d1da57",
  "args": [
    "0xedfCFdCB621aFA76781eFBe7586fAe83D1578Ac2"
  ],
  "numDeployments": 2,
  "solcInputHash": "84ad828d78fb9f44a0d0346f7fab757e",
  "bytecode": "0x60a060405234801561001057600080fd5b5060405161177338038061177383398101604081905261002f91610044565b60601b6001600160601b031916608052610074565b60006020828403121561005657600080fd5b81516001600160a01b038116811461006d57600080fd5b9392505050565b60805160601c6116da61009960003960008181610189015261060201526116da6000f3fe608060405234801561001057600080fd5b506004361061007d5760003560e01c8063669e48aa1161005b578063669e48aa1461015e578063a249d42514610171578063c41c2f2414610184578063c55f571c146101d057600080fd5b80632cee6deb1461008257806343a266c2146100b55780635c5500781461014b575b600080fd5b6100a2610090366004611402565b60036020526000908152604090205481565b6040519081526020015b60405180910390f35b6100c86100c3366004611402565b6101f0565b6040516100ac9190600061012082019050825182526020830151602083015260408301516040830152606083015160608301526080830151608083015260a083015160a083015260c083015160c083015273ffffffffffffffffffffffffffffffffffffffff60e08401511660e083015261010080840151818401525092915050565b6100c8610159366004611402565b610391565b6100c861016c366004611499565b6104e6565b6100c861017f366004611434565b610555565b6101ab7f000000000000000000000000000000000000000000000000000000000000000081565b60405173ffffffffffffffffffffffffffffffffffffffff90911681526020016100ac565b6101e36101de366004611402565b6108cb565b6040516100ac91906114bb565b61025560405180610120016040528060008152602001600081526020016000815260200160008152602001600081526020016000815260200160008152602001600073ffffffffffffffffffffffffffffffffffffffff168152602001600081525090565b600082815260036020526040902054610279576102736000806108fa565b92915050565b600061028483610a2f565b90506102eb60405180610120016040528060008152602001600081526020016000815260200160008152602001600081526020016000815260200160008152602001600073ffffffffffffffffffffffffffffffffffffffff168152602001600081525090565b811561031f576102fb84836108fa565b90506103078482610ae8565b15610313579392505050565b80604001519150610362565b600084815260036020526040902054915061033a84836108fa565b90506103468482610ae8565b15806103555750806060015142105b1561036257806040015191505b8161037a576103726000806108fa565b949350505050565b61038484836108fa565b9050610372816001610b17565b6103f660405180610120016040528060008152602001600081526020016000815260200160008152602001600081526020016000815260200160008152602001600073ffffffffffffffffffffffffffffffffffffffff168152602001600081525090565b600082815260036020526040902054610414576102736000806108fa565b600061041f83610c5c565b9050801561045d5761043183826108fa565b915061043d8383610ae8565b156104485750919050565b6104568383604001516108fa565b9150610496565b6000838152600360205260409020546104779084906108fa565b91504282606001511115610496576104938383604001516108fa565b91505b60808201516104b1576104aa6000806108fa565b9392505050565b6104bb8383610ae8565b156104cb576104aa826000610b17565b6104d98383604001516108fa565b91506104aa826000610b17565b61054b60405180610120016040528060008152602001600081526020016000815260200160008152602001600081526020016000815260200160008152602001600073ffffffffffffffffffffffffffffffffffffffff168152602001600081525090565b6104aa83836108fa565b6105ba60405180610120016040528060008152602001600081526020016000815260200160008152602001600081526020016000815260200160008152602001600073ffffffffffffffffffffffffffffffffffffffff168152602001600081525090565b6040517f5dd8f6aa000000000000000000000000000000000000000000000000000000008152600481018690528590339073ffffffffffffffffffffffffffffffffffffffff7f00000000000000000000000000000000000000000000000000000000000000001690635dd8f6aa9060240160206040518083038186803b15801561064457600080fd5b505afa158015610658573d6000803e3d6000fd5b505050506040513d601f19601f8201168201806040525081019061067c91906113a7565b73ffffffffffffffffffffffffffffffffffffffff16146106c9576040517fab7f741400000000000000000000000000000000000000000000000000000000815260040160405180910390fd5b67ffffffffffffffff8535111561070c576040517f3147256c00000000000000000000000000000000000000000000000000000000815260040160405180910390fd5b633b9aca008560400135111561074e576040517f2459513500000000000000000000000000000000000000000000000000000000815260040160405180910390fd5b6affffffffffffffffffffff60208601351115610797576040517f698f22ad00000000000000000000000000000000000000000000000000000000815260040160405180910390fd5b426107b5878260208901358188116107af5742610cea565b87610cea565b60006107c760808801606089016113c4565b73ffffffffffffffffffffffffffffffffffffffff161415806107ea5750853515155b806107f9575060008660400135115b1561085457600061081060808801606089016113c4565b6000898152602081815260408083208684529091529081902073ffffffffffffffffffffffffffffffffffffffff92909216893560a01b179089013560e01b179055505b841561087757600087815260026020908152604080832084845290915290208590555b86817f1175572e9e7787125bbb2c1175e626d6fa90191342319fa2c35d8bd194a8a1b6888888336040516108ae94939291906114fc565b60405180910390a36108c087826108fa565b979650505050505050565b600081815260036020526040812054816108e584836108fa565b90506103728482602001518360400151610e57565b61095f60405180610120016040528060008152602001600081526020016000815260200160008152602001600081526020016000815260200160008152602001600073ffffffffffffffffffffffffffffffffffffffff168152602001600081525090565b8161096957610273565b602081810183905260008481526001825260408082208583528352808220546affffffffffffffffffffff811660a080870191909152605882901c66ffffffffffffff90811684880152609083901c16606087015260c89190911c855286835282845281832086845284528183205473ffffffffffffffffffffffffffffffffffffffff811660e0808801919091529181901c67ffffffffffffffff166080870152901c60c0850152948152600282528481209381529290529190205461010082015290565b60008181526003602052604081205490610a4983836108fa565b905060008160800151118015610a72575080608001518160600151610a6e9190611562565b4210155b15610a805750600092915050565b80606001514210610a95576020015192915050565b6000610aa58483604001516108fa565b905060008160800151118015610ace575080608001518160600151610aca9190611562565b4210155b15610add575060009392505050565b506040015192915050565b600080610afe8484602001518560400151610e57565b6002811115610b0f57610b0f611650565b149392505050565b610b7c60405180610120016040528060008152602001600081526020016000815260200160008152602001600081526020016000815260200160008152602001600073ffffffffffffffffffffffffffffffffffffffff168152602001600081525090565b6000821580610b8d57506080840151155b610bb0576080840151610ba0904261158e565b610bab906001611562565b610bbb565b610bbb426001611562565b90506000610bc98583610fe6565b90506000610bd78683611073565b9050604051806101200160405280828152602001876020015181526020018760400151815260200183815260200187608001518152602001610c1988856110c6565b81526020018760c0015181526020018760e0015173ffffffffffffffffffffffffffffffffffffffff168152602001876101000151815250935050505092915050565b60008181526003602052604081205490610c7683836108fa565b905080606001514210610c8c5750600092915050565b805160011415610c9c5750919050565b6000610cac8483604001516108fa565b905060008160800151118015610cd4575080608001518260600151610cd1919061158e565b42105b15610ce3575060009392505050565b5050919050565b600084815260036020526040902054610d1957610d1484610d0c6000806108fa565b858486611181565b610e51565b6000610d2485610a2f565b905080610d3c57506000848152600360205260409020545b6000610d4886836108fa565b9050610d548682610ae8565b610d6957610d6286836108fa565b6040015191505b6000610d7587846108fa565b60e081015190915060009073ffffffffffffffffffffffffffffffffffffffff1615610e2c578160e0015173ffffffffffffffffffffffffffffffffffffffff16630fb5a6b46040518163ffffffff1660e01b815260040160206040518083038186803b158015610de557600080fd5b505afa158015610df9573d6000803e3d6000fd5b505050506040513d601f19601f82011682018060405250810190610e1d919061141b565b610e279088611562565b610e2f565b60005b9050610e4c888389888511610e445788610e46565b845b8a611181565b505050505b50505050565b600081610e66575060006104aa565b6000610e7285846108fa565b60e081015190915073ffffffffffffffffffffffffffffffffffffffff16610e9e5760009150506104aa565b610ea8844261158e565b8160e0015173ffffffffffffffffffffffffffffffffffffffff16630fb5a6b46040518163ffffffff1660e01b815260040160206040518083038186803b158015610ef257600080fd5b505afa158015610f06573d6000803e3d6000fd5b505050506040513d601f19601f82011682018060405250810190610f2a919061141b565b10610f395760019150506104aa565b60e08101516040517f131a7e240000000000000000000000000000000000000000000000000000000081526004810186905273ffffffffffffffffffffffffffffffffffffffff9091169063131a7e249060240160206040518083038186803b158015610fa557600080fd5b505afa158015610fb9573d6000803e3d6000fd5b505050506040513d601f19601f82011682018060405250810190610fdd91906113e1565b95945050505050565b6000826080015160001415610ffc575080610273565b6000836080015184606001516110129190611562565b9050828110611022579050610273565b6080840151600090611034838661158e565b61103e91906115de565b905061104a818561158e565b92505b8284111561106b5760808501516110649084611562565b925061104d565b505092915050565b600082608001516000141561109657825161108f906001611562565b9050610273565b60008360600151836110a8919061158e565b90508360800151816110ba919061157a565b84516103729190611562565b60008260800151600014156110fb5761108f8360a001518460c00151633b9aca006110f1919061158e565b633b9aca0061129e565b5060a082015160c083015161110f57610273565b6000836060015183611121919061158e565b90506000846080015182611135919061157a565b905060005b818110156111785761115a848760c00151633b9aca006110f1919061158e565b93508361116657611178565b80611170816115a5565b91505061113a565b50505092915050565b83516111d75760208085015160008781526001808452604080832088845290945292902060589190911b8317609085901b1779010000000000000000000000000000000000000000000000000017905550611254565b60006111e38584610fe6565b9050600082116111fc576111f785826110c6565b61120d565b8160011461120a578161120d565b60005b9150600061121b8683611073565b60208088015160008a81526001835260408082208a83529093529190912060589190911b8517609085901b1760c883901b179055905050505b60008581526003602090815260408083208690559086015190519091879186917ff1bd4f3fcb4e0b193abc7e4002c0284e25086269a02de2e4c52045a91f64703791a45050505050565b600080807fffffffffffffffffffffffffffffffffffffffffffffffffffffffffffffffff85870985870292508281108382030391505080600014156112f7578382816112ed576112ed611621565b04925050506104aa565b83811061133e576040517f773cc18c000000000000000000000000000000000000000000000000000000008152600481018290526024810185905260440160405180910390fd5b60008486880960026001871981018816978890046003810283188082028403028082028403028082028403028082028403028082028403029081029092039091026000889003889004909101858311909403939093029303949094049190911702949350505050565b6000602082840312156113b957600080fd5b81516104aa8161167f565b6000602082840312156113d657600080fd5b81356104aa8161167f565b6000602082840312156113f357600080fd5b8151600381106104aa57600080fd5b60006020828403121561141457600080fd5b5035919050565b60006020828403121561142d57600080fd5b5051919050565b60008060008084860360e081121561144b57600080fd5b8535945060807fffffffffffffffffffffffffffffffffffffffffffffffffffffffffffffffe08201121561147f57600080fd5b50929560208501955060a08501359460c001359350915050565b600080604083850312156114ac57600080fd5b50508035926020909101359150565b60208101600383106114f6577f4e487b7100000000000000000000000000000000000000000000000000000000600052602160045260246000fd5b91905290565b84358152602080860135908201526040808601359082015260e0810160608601356115268161167f565b73ffffffffffffffffffffffffffffffffffffffff80821660608501528660808501528560a085015280851660c0850152505095945050505050565b60008219821115611575576115756115f2565b500190565b60008261158957611589611621565b500490565b6000828210156115a0576115a06115f2565b500390565b60007fffffffffffffffffffffffffffffffffffffffffffffffffffffffffffffffff8214156115d7576115d76115f2565b5060010190565b6000826115ed576115ed611621565b500690565b7f4e487b7100000000000000000000000000000000000000000000000000000000600052601160045260246000fd5b7f4e487b7100000000000000000000000000000000000000000000000000000000600052601260045260246000fd5b7f4e487b7100000000000000000000000000000000000000000000000000000000600052602160045260246000fd5b73ffffffffffffffffffffffffffffffffffffffff811681146116a157600080fd5b5056fea2646970667358221220788577772e586bf9dad4736fca814f3f816e6fb7a3f303ab8e616fc30f86557964736f6c63430008060033",
  "devdoc": {
    "kind": "dev",
    "methods": {
      "configureFor(uint256,(uint256,uint256,uint256,address),uint256,uint256)": {
        "details": "Only a project's current controller can configure its funding cycles._data.duration The duration of the funding cycle. Measured in days.  Set to 0 for no expiry and to be able to reconfigure anytime._data.discountRate A number from 0-1000000000 indicating how valuable a contribution to this funding cycle is compared to previous funding cycles. If it's 0, each funding cycle will have equal weight. If the number is 900000000, a contribution to the next funding cycle will only give you 10% of tickets given to a contribution of the same amoutn during the current funding cycle._data.ballot The new ballot that will be used to approve subsequent reconfigurations.",
        "params": {
          "_data": "The funding cycle configuration.",
          "_metadata": "Data to associate with this funding cycle configuration.",
          "_mustStartAtOrAfter": "The time before which the initialized funding cycle can't start.",
          "_projectId": "The ID of the project being configured."
        },
        "returns": {
          "_0": "The funding cycle that the configuration will take effect during."
        }
      },
      "constructor": {
        "params": {
          "_directory": "A contract storing directories of terminals and controllers for each project."
        }
      },
      "currentBallotStateOf(uint256)": {
        "params": {
          "_projectId": "The ID of the project to check the ballot state of."
        },
        "returns": {
          "_0": "The current ballot's state."
        }
      },
      "currentOf(uint256)": {
        "details": "Returns an empty funding cycle with all properties set to 0 if a current funding cycle of the project is not found.",
        "params": {
          "_projectId": "The ID of the project to get the current funding cycle of."
        },
        "returns": {
          "fundingCycle": "The current funding cycle."
        }
      },
      "get(uint256,uint256)": {
        "params": {
          "_configuration": "The configuration of the funding cycle to get.",
          "_projectId": "The ID of the project to which the funding cycle belongs."
        },
        "returns": {
          "fundingCycle": "The funding cycle."
        }
      },
      "queuedOf(uint256)": {
        "details": "Returns an empty funding cycle with all properties set to 0 if a queued funding cycle of the project is not found.",
        "params": {
          "_projectId": "The ID of the project to get the queued funding cycle of."
        },
        "returns": {
          "_fundingCycle": "The queued funding cycle."
        }
      }
    },
    "version": 1
  },
  "userdoc": {
    "errors": {
      "PRBMath__MulDivOverflow(uint256,uint256)": [
        {
          "notice": "Emitted when the result overflows uint256."
        }
      ]
    },
    "kind": "user",
    "methods": {
      "configureFor(uint256,(uint256,uint256,uint256,address),uint256,uint256)": {
        "notice": " Configures the next eligible funding cycle for the specified project."
      },
      "currentBallotStateOf(uint256)": {
        "notice": " The current ballot state of the project."
      },
      "currentOf(uint256)": {
        "notice": " The funding cycle that is currently active for the specified project."
      },
      "directory()": {
        "notice": " The directory of terminals and controllers for projects."
      },
      "get(uint256,uint256)": {
        "notice": " Get the funding cycle with the given configuration for the specified project."
      },
      "latestConfigurationOf(uint256)": {
        "notice": " The latest funding cycle configuration for each project. _projectId The ID of the project to get the latest funding cycle configuration of."
      },
      "queuedOf(uint256)": {
        "notice": " The funding cycle that's next up for the specified project."
      }
    },
    "notice": " Manages funding cycle configurations and scheduling.",
    "version": 1
  },
  "storageLayout": {
    "storage": [
      {
        "astId": 10076,
        "contract": "contracts/JBFundingCycleStore.sol:JBFundingCycleStore",
        "label": "_packedUserPropertiesOf",
        "offset": 0,
        "slot": "0",
        "type": "t_mapping(t_uint256,t_mapping(t_uint256,t_uint256))"
      },
      {
        "astId": 10083,
        "contract": "contracts/JBFundingCycleStore.sol:JBFundingCycleStore",
        "label": "_packedIntrinsicPropertiesOf",
        "offset": 0,
        "slot": "1",
        "type": "t_mapping(t_uint256,t_mapping(t_uint256,t_uint256))"
      },
      {
        "astId": 10090,
        "contract": "contracts/JBFundingCycleStore.sol:JBFundingCycleStore",
        "label": "_metadataOf",
        "offset": 0,
        "slot": "2",
        "type": "t_mapping(t_uint256,t_mapping(t_uint256,t_uint256))"
      },
      {
        "astId": 10096,
        "contract": "contracts/JBFundingCycleStore.sol:JBFundingCycleStore",
        "label": "latestConfigurationOf",
        "offset": 0,
        "slot": "3",
        "type": "t_mapping(t_uint256,t_uint256)"
      }
    ],
    "types": {
      "t_mapping(t_uint256,t_mapping(t_uint256,t_uint256))": {
        "encoding": "mapping",
        "key": "t_uint256",
        "label": "mapping(uint256 => mapping(uint256 => uint256))",
        "numberOfBytes": "32",
        "value": "t_mapping(t_uint256,t_uint256)"
      },
      "t_mapping(t_uint256,t_uint256)": {
        "encoding": "mapping",
        "key": "t_uint256",
        "label": "mapping(uint256 => uint256)",
        "numberOfBytes": "32",
        "value": "t_uint256"
      },
      "t_uint256": {
        "encoding": "inplace",
        "label": "uint256",
        "numberOfBytes": "32"
      }
    }
  }
}