{
  "address": "0x1bd2d2D0a5F5981636a4EC1b28195722E1D333bD",
  "abi": [
    {
      "inputs": [
        {
          "internalType": "contract IJBDirectory",
          "name": "_directory",
          "type": "address"
        }
      ],
      "stateMutability": "nonpayable",
      "type": "constructor"
    },
    {
      "inputs": [
        {
          "internalType": "uint256",
          "name": "prod1",
          "type": "uint256"
        },
        {
          "internalType": "uint256",
          "name": "denominator",
          "type": "uint256"
        }
      ],
      "name": "PRBMath__MulDivOverflow",
      "type": "error"
    },
    {
      "anonymous": false,
      "inputs": [
        {
          "indexed": true,
          "internalType": "uint256",
          "name": "configuration",
          "type": "uint256"
        },
        {
          "indexed": true,
          "internalType": "uint256",
          "name": "projectId",
          "type": "uint256"
        },
        {
          "components": [
            {
              "internalType": "uint256",
              "name": "duration",
              "type": "uint256"
            },
            {
              "internalType": "uint256",
              "name": "weight",
              "type": "uint256"
            },
            {
              "internalType": "uint256",
              "name": "discountRate",
              "type": "uint256"
            },
            {
              "internalType": "contract IJBFundingCycleBallot",
              "name": "ballot",
              "type": "address"
            }
          ],
          "indexed": false,
          "internalType": "struct JBFundingCycleData",
          "name": "data",
          "type": "tuple"
        },
        {
          "indexed": false,
          "internalType": "uint256",
          "name": "metadata",
          "type": "uint256"
        },
        {
          "indexed": false,
          "internalType": "address",
          "name": "caller",
          "type": "address"
        }
      ],
      "name": "Configure",
      "type": "event"
    },
    {
      "anonymous": false,
      "inputs": [
        {
          "indexed": true,
          "internalType": "uint256",
          "name": "configuration",
          "type": "uint256"
        },
        {
          "indexed": true,
          "internalType": "uint256",
          "name": "projectId",
          "type": "uint256"
        },
        {
          "indexed": true,
          "internalType": "uint256",
          "name": "basedOn",
          "type": "uint256"
        }
      ],
      "name": "Init",
      "type": "event"
    },
    {
      "inputs": [
        {
          "internalType": "uint256",
          "name": "_projectId",
          "type": "uint256"
        },
        {
          "components": [
            {
              "internalType": "uint256",
              "name": "duration",
              "type": "uint256"
            },
            {
              "internalType": "uint256",
              "name": "weight",
              "type": "uint256"
            },
            {
              "internalType": "uint256",
              "name": "discountRate",
              "type": "uint256"
            },
            {
              "internalType": "contract IJBFundingCycleBallot",
              "name": "ballot",
              "type": "address"
            }
          ],
          "internalType": "struct JBFundingCycleData",
          "name": "_data",
          "type": "tuple"
        },
        {
          "internalType": "uint256",
          "name": "_metadata",
          "type": "uint256"
        }
      ],
      "name": "configureFor",
      "outputs": [
        {
          "components": [
            {
              "internalType": "uint256",
              "name": "number",
              "type": "uint256"
            },
            {
              "internalType": "uint256",
              "name": "configuration",
              "type": "uint256"
            },
            {
              "internalType": "uint256",
              "name": "basedOn",
              "type": "uint256"
            },
            {
              "internalType": "uint256",
              "name": "start",
              "type": "uint256"
            },
            {
              "internalType": "uint256",
              "name": "duration",
              "type": "uint256"
            },
            {
              "internalType": "uint256",
              "name": "weight",
              "type": "uint256"
            },
            {
              "internalType": "uint256",
              "name": "discountRate",
              "type": "uint256"
            },
            {
              "internalType": "contract IJBFundingCycleBallot",
              "name": "ballot",
              "type": "address"
            },
            {
              "internalType": "uint256",
              "name": "metadata",
              "type": "uint256"
            }
          ],
          "internalType": "struct JBFundingCycle",
          "name": "",
          "type": "tuple"
        }
      ],
      "stateMutability": "nonpayable",
      "type": "function"
    },
    {
      "inputs": [
        {
          "internalType": "uint256",
          "name": "_projectId",
          "type": "uint256"
        }
      ],
      "name": "currentBallotStateOf",
      "outputs": [
        {
          "internalType": "enum JBBallotState",
          "name": "",
          "type": "uint8"
        }
      ],
      "stateMutability": "view",
      "type": "function"
    },
    {
      "inputs": [
        {
          "internalType": "uint256",
          "name": "_projectId",
          "type": "uint256"
        }
      ],
      "name": "currentOf",
      "outputs": [
        {
          "components": [
            {
              "internalType": "uint256",
              "name": "number",
              "type": "uint256"
            },
            {
              "internalType": "uint256",
              "name": "configuration",
              "type": "uint256"
            },
            {
              "internalType": "uint256",
              "name": "basedOn",
              "type": "uint256"
            },
            {
              "internalType": "uint256",
              "name": "start",
              "type": "uint256"
            },
            {
              "internalType": "uint256",
              "name": "duration",
              "type": "uint256"
            },
            {
              "internalType": "uint256",
              "name": "weight",
              "type": "uint256"
            },
            {
              "internalType": "uint256",
              "name": "discountRate",
              "type": "uint256"
            },
            {
              "internalType": "contract IJBFundingCycleBallot",
              "name": "ballot",
              "type": "address"
            },
            {
              "internalType": "uint256",
              "name": "metadata",
              "type": "uint256"
            }
          ],
          "internalType": "struct JBFundingCycle",
          "name": "fundingCycle",
          "type": "tuple"
        }
      ],
      "stateMutability": "view",
      "type": "function"
    },
    {
      "inputs": [],
      "name": "directory",
      "outputs": [
        {
          "internalType": "contract IJBDirectory",
          "name": "",
          "type": "address"
        }
      ],
      "stateMutability": "view",
      "type": "function"
    },
    {
      "inputs": [
        {
          "internalType": "uint256",
          "name": "_projectId",
          "type": "uint256"
        },
        {
          "internalType": "uint256",
          "name": "_configuration",
          "type": "uint256"
        }
      ],
      "name": "get",
      "outputs": [
        {
          "components": [
            {
              "internalType": "uint256",
              "name": "number",
              "type": "uint256"
            },
            {
              "internalType": "uint256",
              "name": "configuration",
              "type": "uint256"
            },
            {
              "internalType": "uint256",
              "name": "basedOn",
              "type": "uint256"
            },
            {
              "internalType": "uint256",
              "name": "start",
              "type": "uint256"
            },
            {
              "internalType": "uint256",
              "name": "duration",
              "type": "uint256"
            },
            {
              "internalType": "uint256",
              "name": "weight",
              "type": "uint256"
            },
            {
              "internalType": "uint256",
              "name": "discountRate",
              "type": "uint256"
            },
            {
              "internalType": "contract IJBFundingCycleBallot",
              "name": "ballot",
              "type": "address"
            },
            {
              "internalType": "uint256",
              "name": "metadata",
              "type": "uint256"
            }
          ],
          "internalType": "struct JBFundingCycle",
          "name": "fundingCycle",
          "type": "tuple"
        }
      ],
      "stateMutability": "view",
      "type": "function"
    },
    {
      "inputs": [
        {
          "internalType": "uint256",
          "name": "",
          "type": "uint256"
        }
      ],
      "name": "latestConfigurationOf",
      "outputs": [
        {
          "internalType": "uint256",
          "name": "",
          "type": "uint256"
        }
      ],
      "stateMutability": "view",
      "type": "function"
    },
    {
      "inputs": [
        {
          "internalType": "uint256",
          "name": "_projectId",
          "type": "uint256"
        }
      ],
      "name": "queuedOf",
      "outputs": [
        {
          "components": [
            {
              "internalType": "uint256",
              "name": "number",
              "type": "uint256"
            },
            {
              "internalType": "uint256",
              "name": "configuration",
              "type": "uint256"
            },
            {
              "internalType": "uint256",
              "name": "basedOn",
              "type": "uint256"
            },
            {
              "internalType": "uint256",
              "name": "start",
              "type": "uint256"
            },
            {
              "internalType": "uint256",
              "name": "duration",
              "type": "uint256"
            },
            {
              "internalType": "uint256",
              "name": "weight",
              "type": "uint256"
            },
            {
              "internalType": "uint256",
              "name": "discountRate",
              "type": "uint256"
            },
            {
              "internalType": "contract IJBFundingCycleBallot",
              "name": "ballot",
              "type": "address"
            },
            {
              "internalType": "uint256",
              "name": "metadata",
              "type": "uint256"
            }
          ],
          "internalType": "struct JBFundingCycle",
          "name": "",
          "type": "tuple"
        }
      ],
      "stateMutability": "view",
      "type": "function"
    }
  ],
  "transactionHash": "0xa978bbc3d05becb77225805ff0a56cb6d6b1b684a2d7854552bee26af8100bbb",
  "args": [
    "0xf4326041BE30a4b7fc4db9Bb6286fef458F71fe2"
  ],
  "solcInputHash": "5f321124cef92f5734094814cf45799b",
  "bytecode": "0x60a060405234801561001057600080fd5b5060405161189038038061189083398101604081905261002f91610044565b60601b6001600160601b031916608052610074565b60006020828403121561005657600080fd5b81516001600160a01b038116811461006d57600080fd5b9392505050565b60805160601c6117f761009960003960008181610189015261060401526117f76000f3fe608060405234801561001057600080fd5b506004361061007d5760003560e01c8063669e48aa1161005b578063669e48aa1461015e578063753dd3e814610171578063c41c2f2414610184578063c55f571c146101d057600080fd5b80632cee6deb1461008257806343a266c2146100b55780635c5500781461014b575b600080fd5b6100a261009036600461152c565b60036020526000908152604090205481565b6040519081526020015b60405180910390f35b6100c86100c336600461152c565b6101f0565b6040516100ac9190600061012082019050825182526020830151602083015260408301516040830152606083015160608301526080830151608083015260a083015160a083015260c083015160c083015273ffffffffffffffffffffffffffffffffffffffff60e08401511660e083015261010080840151818401525092915050565b6100c861015936600461152c565b6103ac565b6100c861016c3660046115bd565b6104e8565b6100c861017f36600461155e565b610557565b6101ab7f000000000000000000000000000000000000000000000000000000000000000081565b60405173ffffffffffffffffffffffffffffffffffffffff90911681526020016100ac565b6101e36101de36600461152c565b610911565b6040516100ac91906115df565b61025560405180610120016040528060008152602001600081526020016000815260200160008152602001600081526020016000815260200160008152602001600073ffffffffffffffffffffffffffffffffffffffff168152602001600081525090565b600082815260036020526040902054610279576102736000806109bf565b92915050565b600061028483610aeb565b90506102eb60405180610120016040528060008152602001600081526020016000815260200160008152602001600081526020016000815260200160008152602001600073ffffffffffffffffffffffffffffffffffffffff168152602001600081525090565b811561031f576102fb84836109bf565b90506103078482610b9d565b15610313579392505050565b80604001519150610385565b600084815260036020526040902054915061033a84836109bf565b90508060c00151633b9aca01141561035f576103576000806109bf565b949350505050565b6103698482610b9d565b15806103785750806060015142105b1561038557806040015191505b81610395576103576000806109bf565b61039f84836109bf565b9050610357816001610bcc565b61041160405180610120016040528060008152602001600081526020016000815260200160008152602001600081526020016000815260200160008152602001600073ffffffffffffffffffffffffffffffffffffffff168152602001600081525090565b60008281526003602052604090205461042f576102736000806109bf565b600061043a83610d1f565b905080156104535761044c83826109bf565b9392505050565b506000828152600360205260408120549061046e84836109bf565b9050806080015160001415610488576103576000806109bf565b8060c00151633b9aca0114156104a3576103576000806109bf565b6104ad8482610b9d565b156104bd57610357816000610bcc565b60408101519150816104d4576103576000806109bf565b6103576104e185846109bf565b6000610bcc565b61054d60405180610120016040528060008152602001600081526020016000815260200160008152602001600081526020016000815260200160008152602001600073ffffffffffffffffffffffffffffffffffffffff168152602001600081525090565b61044c83836109bf565b6105bc60405180610120016040528060008152602001600081526020016000815260200160008152602001600081526020016000815260200160008152602001600073ffffffffffffffffffffffffffffffffffffffff168152602001600081525090565b6040517f5dd8f6aa000000000000000000000000000000000000000000000000000000008152600481018590528490339073ffffffffffffffffffffffffffffffffffffffff7f00000000000000000000000000000000000000000000000000000000000000001690635dd8f6aa9060240160206040518083038186803b15801561064657600080fd5b505afa15801561065a573d6000803e3d6000fd5b505050506040513d601f19601f8201168201806040525081019061067e91906114d1565b73ffffffffffffffffffffffffffffffffffffffff1614610700576040517f08c379a000000000000000000000000000000000000000000000000000000000815260206004820152601260248201527f307834663a20554e415554484f52495a4544000000000000000000000000000060448201526064015b60405180910390fd5b67ffffffffffffffff84351180159061071b57506103e88435115b610781576040517f08c379a000000000000000000000000000000000000000000000000000000000815260206004820152601260248201527f307831353a204241445f4455524154494f4e000000000000000000000000000060448201526064016106f7565b633b9aca01846040013511156107f3576040517f08c379a000000000000000000000000000000000000000000000000000000000815260206004820152601760248201527f307831363a204241445f444953434f554e545f5241544500000000000000000060448201526064016106f7565b6affffffffffffffffffffff6020850135111561086c576040517f08c379a000000000000000000000000000000000000000000000000000000000815260206004820152601060248201527f307831383a204241445f5745494748540000000000000000000000000000000060448201526064016106f7565b4261087c86826020880135610d63565b61089d81876108916080890160608a016114ee565b883560408a0135610ebf565b83156108c057600086815260026020908152604080832084845290915290208490555b85817fb3cca78774be425fb92ced2a164fb2b61030e23c3436363792f79788e5ad59c38787336040516108f593929190611620565b60405180910390a361090786826109bf565b9695505050505050565b60008181526003602052604081205480610987576040517f08c379a000000000000000000000000000000000000000000000000000000000815260206004820152600f60248201527f307831343a204e4f545f464f554e44000000000000000000000000000000000060448201526064016106f7565b600061099384836109bf565b90508060400151600014156109ac575060009392505050565b6103578482602001518360400151610f38565b610a2460405180610120016040528060008152602001600081526020016000815260200160008152602001600081526020016000815260200160008152602001600073ffffffffffffffffffffffffffffffffffffffff168152602001600081525090565b81610a2e57610273565b602080820183905260008481526001825260408082208583528352808220546affffffffffffffffffffff811660a086015266ffffffffffffff608882901c811683870152608082811c8216606088015260b09290921c16855286835282845281832086845284528183205473ffffffffffffffffffffffffffffffffffffffff811660e08088019190915260d082901c92870192909252901c60c085015285825260028352808220858352909252205461010082015292915050565b60008181526003602052604090205480610b0757506000919050565b6000610b1383836109bf565b905060008160800151118015610b3c575080608001518160600151610b38919061167f565b4210155b15610b4a5750600092915050565b6000610b5a8483604001516109bf565b905060008160800151118015610b83575080608001518160600151610b7f919061167f565b4210155b15610b92575060009392505050565b506040015192915050565b600080610bb38484602001518560400151610f38565b6003811115610bc457610bc461176d565b149392505050565b610c3160405180610120016040528060008152602001600081526020016000815260200160008152602001600081526020016000815260200160008152602001600073ffffffffffffffffffffffffffffffffffffffff168152602001600081525090565b8260c00151633b9aca011415610c5357610c4c6000806109bf565b9050610273565b6000821580610c6457506080840151155b610c72578360800151610c75565b60005b90506000610c8c85610c8784426116ab565b61102b565b90506000610c9a86836110b8565b9050604051806101200160405280828152602001876020015181526020018760400151815260200183815260200187608001518152602001610cdc8885611104565b81526020018760c0015181526020018760e0015173ffffffffffffffffffffffffffffffffffffffff168152602001876101000151815250935050505092915050565b60008181526003602052604090205480610d3b57506000919050565b6000610d4783836109bf565b905080606001514210610d5d5750600092915050565b50919050565b600083815260036020526040902054610d9257610d8d83610d856000806109bf565b8442856111b5565b505050565b6000610d9d84610d1f565b90508015610ddd576000610dbe85610db587856109bf565b604001516109bf565b9050610dd6848683610dd08589611261565b87611330565b5050505050565b610de684610aeb565b905080610dfe57506000838152600360205260409020545b610e0884826113b3565b610e1d57610e1684826109bf565b6040015190505b6000610e2985836109bf565b9050633b9aca018160c0015110610e9c576040517f08c379a000000000000000000000000000000000000000000000000000000000815260206004820152601360248201527f307831633a204e4f4e5f524543555252494e470000000000000000000000000060448201526064016106f7565b6000610ea88286611261565b9050610eb786838784886111b5565b505050505050565b73ffffffffffffffffffffffffffffffffffffffff8316158015610ee1575081155b8015610eeb575080155b15610ef557610dd6565b600084815260208181526040808320888452909152902060e082901b60a084901b73ffffffffffffffffffffffffffffffffffffffff8616171790555050505050565b600081610f475750600061044c565b6000610f5385846109bf565b60e081015190915073ffffffffffffffffffffffffffffffffffffffff161561101f5760e08101516040517f131a7e240000000000000000000000000000000000000000000000000000000081526004810186905273ffffffffffffffffffffffffffffffffffffffff9091169063131a7e249060240160206040518083038186803b158015610fe257600080fd5b505afa158015610ff6573d6000803e3d6000fd5b505050506040513d601f19601f8201168201806040525081019061101a919061150b565b611022565b60005b95945050505050565b6000826080015160001415611041575080610273565b600083608001518460600151611057919061167f565b9050828110611067579050610273565b608084015160009061107983866116ab565b61108391906116fb565b905061108f81856116ab565b92505b828411156110b05760808501516110a9908461167f565b9250611092565b505092915050565b60008260800151600014156110d4578251610c4c90600161167f565b60008360600151836110e691906116ab565b90508360800151816110f89190611697565b8451610357919061167f565b600082608001516000141561113957610c4c8360a001518460c00151633b9aca0061112f91906116ab565b633b9aca006113cc565b5060a082015160c083015161114d57610273565b600083606001518361115f91906116ab565b905060008460800151826111739190611697565b905060005b818110156111ac57611198848760c00151633b9aca0061112f91906116ab565b9350806111a4816116c2565b915050611178565b50505092915050565b835161120a5760208085015160008781526001808452604080832088845290945292902060589190911b83174260901b1779010000000000000000000000000000000000000000000000000017905550611217565b6112178386868585611330565b60008581526003602090815260408083208690559086015190519091879186917ff1bd4f3fcb4e0b193abc7e4002c0284e25086269a02de2e4c52045a91f64703791a45050505050565b60e082015160009073ffffffffffffffffffffffffffffffffffffffff1661128a575042610273565b60008360e0015173ffffffffffffffffffffffffffffffffffffffff16630fb5a6b46040518163ffffffff1660e01b815260040160206040518083038186803b1580156112d657600080fd5b505afa1580156112ea573d6000803e3d6000fd5b505050506040513d601f19601f8201168201806040525081019061130e9190611545565b611318908461167f565b90508042116113275780610357565b50429392505050565b600061133c848461102b565b905060008211611355576113508482611104565b611366565b816001146113635781611366565b60005b9150600061137485836110b8565b60208087015160008981526001835260408082208c83529093529190912060589190911b8517609085901b1760c883901b179055905050505050505050565b6000806113c084846109bf565b90506103578482610b9d565b600080807fffffffffffffffffffffffffffffffffffffffffffffffffffffffffffffffff85870985870292508281108382030391505080600014156114255783828161141b5761141b61173e565b049250505061044c565b838110611468576040517f773cc18c00000000000000000000000000000000000000000000000000000000815260048101829052602481018590526044016106f7565b60008486880960026001871981018816978890046003810283188082028403028082028403028082028403028082028403028082028403029081029092039091026000889003889004909101858311909403939093029303949094049190911702949350505050565b6000602082840312156114e357600080fd5b815161044c8161179c565b60006020828403121561150057600080fd5b813561044c8161179c565b60006020828403121561151d57600080fd5b81516004811061044c57600080fd5b60006020828403121561153e57600080fd5b5035919050565b60006020828403121561155757600080fd5b5051919050565b600080600083850360c081121561157457600080fd5b8435935060807fffffffffffffffffffffffffffffffffffffffffffffffffffffffffffffffe0820112156115a857600080fd5b5060208401915060a084013590509250925092565b600080604083850312156115d057600080fd5b50508035926020909101359150565b602081016004831061161a577f4e487b7100000000000000000000000000000000000000000000000000000000600052602160045260246000fd5b91905290565b83358152602080850135908201526040808501359082015260c08101606085013561164a8161179c565b73ffffffffffffffffffffffffffffffffffffffff808216606085015285608085015280851660a08501525050949350505050565b600082198211156116925761169261170f565b500190565b6000826116a6576116a661173e565b500490565b6000828210156116bd576116bd61170f565b500390565b60007fffffffffffffffffffffffffffffffffffffffffffffffffffffffffffffffff8214156116f4576116f461170f565b5060010190565b60008261170a5761170a61173e565b500690565b7f4e487b7100000000000000000000000000000000000000000000000000000000600052601160045260246000fd5b7f4e487b7100000000000000000000000000000000000000000000000000000000600052601260045260246000fd5b7f4e487b7100000000000000000000000000000000000000000000000000000000600052602160045260246000fd5b73ffffffffffffffffffffffffffffffffffffffff811681146117be57600080fd5b5056fea2646970667358221220c66cfb90f818659f35445586e1b46fd0dd6b31f4612c162c3dc35008db7f1be364736f6c63430008060033",
  "devdoc": {
    "kind": "dev",
    "methods": {
      "configureFor(uint256,(uint256,uint256,uint256,address),uint256)": {
        "details": "Only a project's current controller can configure its funding cycles._data.target The amount that the project wants to receive in each funding cycle. 18 decimals._data.duration The duration of the funding cycle for which the `_target` amount is needed. Measured in days.  Set to 0 for no expiry and to be able to reconfigure anytime._data.discountRate A number from 0-1000000000 indicating how valuable a contribution to this funding cycle is compared to previous funding cycles. If it's 0, each funding cycle will have equal weight. If the number is 900000000, a contribution to the next funding cycle will only give you 10% of tickets given to a contribution of the same amoutn during the current funding cycle. If the number is 1000000001, an non-recurring funding cycle will get made._data.ballot The new ballot that will be used to approve subsequent reconfigurations.",
        "params": {
          "_data": "The funding cycle configuration.",
          "_metadata": "Data to associate with this funding cycle configuration.",
          "_projectId": "The ID of the project being configured."
        },
        "returns": {
          "_0": "The funding cycle that the configuration will take effect during."
        }
      },
      "constructor": {
        "params": {
          "_directory": "A contract storing directories of terminals and controllers for each project."
        }
      },
      "currentBallotStateOf(uint256)": {
        "params": {
          "_projectId": "The ID of the project to check the ballot state of."
        },
        "returns": {
          "_0": "The current ballot's state."
        }
      },
      "currentOf(uint256)": {
        "details": "Returns an empty funding cycle with all properties set to 0 if a current funding cycle of the project is not found.",
        "params": {
          "_projectId": "The ID of the project to get the current funding cycle of."
        },
        "returns": {
          "fundingCycle": "The current funding cycle."
        }
      },
      "get(uint256,uint256)": {
        "params": {
          "_configuration": "The configuration of the funding cycle to get.",
          "_projectId": "The ID of the project to which the funding cycle belongs."
        },
        "returns": {
          "fundingCycle": "The funding cycle."
        }
      },
      "queuedOf(uint256)": {
        "details": "Returns an empty funding cycle with all properties set to 0 if a queued funding cycle of the project is not found.",
        "params": {
          "_projectId": "The ID of the project to get the queued funding cycle of."
        },
        "returns": {
          "_0": "_fundingCycle The queued funding cycle."
        }
      }
    },
    "version": 1
  },
  "userdoc": {
    "errors": {
      "PRBMath__MulDivOverflow(uint256,uint256)": [
        {
          "notice": "Emitted when the result overflows uint256."
        }
      ]
    },
    "kind": "user",
    "methods": {
      "configureFor(uint256,(uint256,uint256,uint256,address),uint256)": {
        "notice": " Configures the next eligible funding cycle for the specified project."
      },
      "currentBallotStateOf(uint256)": {
        "notice": " The current ballot state of the project."
      },
      "currentOf(uint256)": {
        "notice": " The funding cycle that is currently active for the specified project."
      },
      "directory()": {
        "notice": " The directory of terminals and controllers for projects."
      },
      "get(uint256,uint256)": {
        "notice": " Get the funding cycle with the given configuration for the specified project."
      },
      "latestConfigurationOf(uint256)": {
        "notice": " The latest funding cycle configuration for each project. _projectId The ID of the project to get the latest funding cycle configuration of."
      },
      "queuedOf(uint256)": {
        "notice": " The funding cycle that's next up for the specified project."
      }
    },
    "notice": " Manages funding cycle scheduling.",
    "version": 1
  },
  "storageLayout": {
    "storage": [
      {
        "astId": 19991,
        "contract": "contracts/v2/JBFundingCycleStore.sol:JBFundingCycleStore",
        "label": "_packedUserPropertiesOf",
        "offset": 0,
        "slot": "0",
        "type": "t_mapping(t_uint256,t_mapping(t_uint256,t_uint256))"
      },
      {
        "astId": 19998,
        "contract": "contracts/v2/JBFundingCycleStore.sol:JBFundingCycleStore",
        "label": "_packedIntrinsicPropertiesOf",
        "offset": 0,
        "slot": "1",
        "type": "t_mapping(t_uint256,t_mapping(t_uint256,t_uint256))"
      },
      {
        "astId": 20005,
        "contract": "contracts/v2/JBFundingCycleStore.sol:JBFundingCycleStore",
        "label": "_metadataOf",
        "offset": 0,
        "slot": "2",
        "type": "t_mapping(t_uint256,t_mapping(t_uint256,t_uint256))"
      },
      {
        "astId": 20011,
        "contract": "contracts/v2/JBFundingCycleStore.sol:JBFundingCycleStore",
        "label": "latestConfigurationOf",
        "offset": 0,
        "slot": "3",
        "type": "t_mapping(t_uint256,t_uint256)"
      }
    ],
    "types": {
      "t_mapping(t_uint256,t_mapping(t_uint256,t_uint256))": {
        "encoding": "mapping",
        "key": "t_uint256",
        "label": "mapping(uint256 => mapping(uint256 => uint256))",
        "numberOfBytes": "32",
        "value": "t_mapping(t_uint256,t_uint256)"
      },
      "t_mapping(t_uint256,t_uint256)": {
        "encoding": "mapping",
        "key": "t_uint256",
        "label": "mapping(uint256 => uint256)",
        "numberOfBytes": "32",
        "value": "t_uint256"
      },
      "t_uint256": {
        "encoding": "inplace",
        "label": "uint256",
        "numberOfBytes": "32"
      }
    }
  }
}