{
  "address": "0x869034F16049580335981095690c33239d4cCa80",
  "abi": [
    {
      "inputs": [
        {
          "internalType": "contract IJBDirectory",
          "name": "_directory",
          "type": "address"
        }
      ],
      "stateMutability": "nonpayable",
      "type": "constructor"
    },
    {
      "inputs": [],
      "name": "CONTROLLER_UNAUTHORIZED",
      "type": "error"
    },
    {
      "inputs": [],
      "name": "INVALID_DISCOUNT_RATE",
      "type": "error"
    },
    {
      "inputs": [],
      "name": "INVALID_DURATION",
      "type": "error"
    },
    {
      "inputs": [],
      "name": "INVALID_WEIGHT",
      "type": "error"
    },
    {
      "inputs": [
        {
          "internalType": "uint256",
          "name": "prod1",
          "type": "uint256"
        },
        {
          "internalType": "uint256",
          "name": "denominator",
          "type": "uint256"
        }
      ],
      "name": "PRBMath__MulDivOverflow",
      "type": "error"
    },
    {
      "anonymous": false,
      "inputs": [
        {
          "indexed": true,
          "internalType": "uint256",
          "name": "configuration",
          "type": "uint256"
        },
        {
          "indexed": true,
          "internalType": "uint256",
          "name": "projectId",
          "type": "uint256"
        },
        {
          "components": [
            {
              "internalType": "uint256",
              "name": "duration",
              "type": "uint256"
            },
            {
              "internalType": "uint256",
              "name": "weight",
              "type": "uint256"
            },
            {
              "internalType": "uint256",
              "name": "discountRate",
              "type": "uint256"
            },
            {
              "internalType": "contract IJBFundingCycleBallot",
              "name": "ballot",
              "type": "address"
            }
          ],
          "indexed": false,
          "internalType": "struct JBFundingCycleData",
          "name": "data",
          "type": "tuple"
        },
        {
          "indexed": false,
          "internalType": "uint256",
          "name": "metadata",
          "type": "uint256"
        },
        {
          "indexed": false,
          "internalType": "uint256",
          "name": "mustStartAtOrAfter",
          "type": "uint256"
        },
        {
          "indexed": false,
          "internalType": "address",
          "name": "caller",
          "type": "address"
        }
      ],
      "name": "Configure",
      "type": "event"
    },
    {
      "anonymous": false,
      "inputs": [
        {
          "indexed": true,
          "internalType": "uint256",
          "name": "configuration",
          "type": "uint256"
        },
        {
          "indexed": true,
          "internalType": "uint256",
          "name": "projectId",
          "type": "uint256"
        },
        {
          "indexed": true,
          "internalType": "uint256",
          "name": "basedOn",
          "type": "uint256"
        }
      ],
      "name": "Init",
      "type": "event"
    },
    {
      "inputs": [
        {
          "internalType": "uint256",
          "name": "_projectId",
          "type": "uint256"
        },
        {
          "components": [
            {
              "internalType": "uint256",
              "name": "duration",
              "type": "uint256"
            },
            {
              "internalType": "uint256",
              "name": "weight",
              "type": "uint256"
            },
            {
              "internalType": "uint256",
              "name": "discountRate",
              "type": "uint256"
            },
            {
              "internalType": "contract IJBFundingCycleBallot",
              "name": "ballot",
              "type": "address"
            }
          ],
          "internalType": "struct JBFundingCycleData",
          "name": "_data",
          "type": "tuple"
        },
        {
          "internalType": "uint256",
          "name": "_metadata",
          "type": "uint256"
        },
        {
          "internalType": "uint256",
          "name": "_mustStartAtOrAfter",
          "type": "uint256"
        }
      ],
      "name": "configureFor",
      "outputs": [
        {
          "components": [
            {
              "internalType": "uint256",
              "name": "number",
              "type": "uint256"
            },
            {
              "internalType": "uint256",
              "name": "configuration",
              "type": "uint256"
            },
            {
              "internalType": "uint256",
              "name": "basedOn",
              "type": "uint256"
            },
            {
              "internalType": "uint256",
              "name": "start",
              "type": "uint256"
            },
            {
              "internalType": "uint256",
              "name": "duration",
              "type": "uint256"
            },
            {
              "internalType": "uint256",
              "name": "weight",
              "type": "uint256"
            },
            {
              "internalType": "uint256",
              "name": "discountRate",
              "type": "uint256"
            },
            {
              "internalType": "contract IJBFundingCycleBallot",
              "name": "ballot",
              "type": "address"
            },
            {
              "internalType": "uint256",
              "name": "metadata",
              "type": "uint256"
            }
          ],
          "internalType": "struct JBFundingCycle",
          "name": "",
          "type": "tuple"
        }
      ],
      "stateMutability": "nonpayable",
      "type": "function"
    },
    {
      "inputs": [
        {
          "internalType": "uint256",
          "name": "_projectId",
          "type": "uint256"
        }
      ],
      "name": "currentBallotStateOf",
      "outputs": [
        {
          "internalType": "enum JBBallotState",
          "name": "",
          "type": "uint8"
        }
      ],
      "stateMutability": "view",
      "type": "function"
    },
    {
      "inputs": [
        {
          "internalType": "uint256",
          "name": "_projectId",
          "type": "uint256"
        }
      ],
      "name": "currentOf",
      "outputs": [
        {
          "components": [
            {
              "internalType": "uint256",
              "name": "number",
              "type": "uint256"
            },
            {
              "internalType": "uint256",
              "name": "configuration",
              "type": "uint256"
            },
            {
              "internalType": "uint256",
              "name": "basedOn",
              "type": "uint256"
            },
            {
              "internalType": "uint256",
              "name": "start",
              "type": "uint256"
            },
            {
              "internalType": "uint256",
              "name": "duration",
              "type": "uint256"
            },
            {
              "internalType": "uint256",
              "name": "weight",
              "type": "uint256"
            },
            {
              "internalType": "uint256",
              "name": "discountRate",
              "type": "uint256"
            },
            {
              "internalType": "contract IJBFundingCycleBallot",
              "name": "ballot",
              "type": "address"
            },
            {
              "internalType": "uint256",
              "name": "metadata",
              "type": "uint256"
            }
          ],
          "internalType": "struct JBFundingCycle",
          "name": "fundingCycle",
          "type": "tuple"
        }
      ],
      "stateMutability": "view",
      "type": "function"
    },
    {
      "inputs": [],
      "name": "directory",
      "outputs": [
        {
          "internalType": "contract IJBDirectory",
          "name": "",
          "type": "address"
        }
      ],
      "stateMutability": "view",
      "type": "function"
    },
    {
      "inputs": [
        {
          "internalType": "uint256",
          "name": "_projectId",
          "type": "uint256"
        },
        {
          "internalType": "uint256",
          "name": "_configuration",
          "type": "uint256"
        }
      ],
      "name": "get",
      "outputs": [
        {
          "components": [
            {
              "internalType": "uint256",
              "name": "number",
              "type": "uint256"
            },
            {
              "internalType": "uint256",
              "name": "configuration",
              "type": "uint256"
            },
            {
              "internalType": "uint256",
              "name": "basedOn",
              "type": "uint256"
            },
            {
              "internalType": "uint256",
              "name": "start",
              "type": "uint256"
            },
            {
              "internalType": "uint256",
              "name": "duration",
              "type": "uint256"
            },
            {
              "internalType": "uint256",
              "name": "weight",
              "type": "uint256"
            },
            {
              "internalType": "uint256",
              "name": "discountRate",
              "type": "uint256"
            },
            {
              "internalType": "contract IJBFundingCycleBallot",
              "name": "ballot",
              "type": "address"
            },
            {
              "internalType": "uint256",
              "name": "metadata",
              "type": "uint256"
            }
          ],
          "internalType": "struct JBFundingCycle",
          "name": "fundingCycle",
          "type": "tuple"
        }
      ],
      "stateMutability": "view",
      "type": "function"
    },
    {
      "inputs": [
        {
          "internalType": "uint256",
          "name": "",
          "type": "uint256"
        }
      ],
      "name": "latestConfigurationOf",
      "outputs": [
        {
          "internalType": "uint256",
          "name": "",
          "type": "uint256"
        }
      ],
      "stateMutability": "view",
      "type": "function"
    },
    {
      "inputs": [
        {
          "internalType": "uint256",
          "name": "_projectId",
          "type": "uint256"
        }
      ],
      "name": "queuedOf",
      "outputs": [
        {
          "components": [
            {
              "internalType": "uint256",
              "name": "number",
              "type": "uint256"
            },
            {
              "internalType": "uint256",
              "name": "configuration",
              "type": "uint256"
            },
            {
              "internalType": "uint256",
              "name": "basedOn",
              "type": "uint256"
            },
            {
              "internalType": "uint256",
              "name": "start",
              "type": "uint256"
            },
            {
              "internalType": "uint256",
              "name": "duration",
              "type": "uint256"
            },
            {
              "internalType": "uint256",
              "name": "weight",
              "type": "uint256"
            },
            {
              "internalType": "uint256",
              "name": "discountRate",
              "type": "uint256"
            },
            {
              "internalType": "contract IJBFundingCycleBallot",
              "name": "ballot",
              "type": "address"
            },
            {
              "internalType": "uint256",
              "name": "metadata",
              "type": "uint256"
            }
          ],
          "internalType": "struct JBFundingCycle",
          "name": "fundingCycle",
          "type": "tuple"
        }
      ],
      "stateMutability": "view",
      "type": "function"
    }
  ],
  "transactionHash": "0x4549e99f2721ac9ff6a8cd2f05f156ba660b14c2b6d6b8943c229630f61bab78",
  "args": [
    "0xC9aB3626ACB308C48feb4833B9d9F6ED9111AEce"
  ],
  "numDeployments": 1,
  "solcInputHash": "cfeedd60e64586c9fe70f04938d7f4c3",
  "bytecode": "0x60a060405234801561001057600080fd5b5060405161177a38038061177a83398101604081905261002f91610044565b60601b6001600160601b031916608052610074565b60006020828403121561005657600080fd5b81516001600160a01b038116811461006d57600080fd5b9392505050565b60805160601c6116e161009960003960008181610189015261060201526116e16000f3fe608060405234801561001057600080fd5b506004361061007d5760003560e01c8063669e48aa1161005b578063669e48aa1461015e578063a249d42514610171578063c41c2f2414610184578063c55f571c146101d057600080fd5b80632cee6deb1461008257806343a266c2146100b55780635c5500781461014b575b600080fd5b6100a2610090366004611409565b60036020526000908152604090205481565b6040519081526020015b60405180910390f35b6100c86100c3366004611409565b6101f0565b6040516100ac9190600061012082019050825182526020830151602083015260408301516040830152606083015160608301526080830151608083015260a083015160a083015260c083015160c083015273ffffffffffffffffffffffffffffffffffffffff60e08401511660e083015261010080840151818401525092915050565b6100c8610159366004611409565b610391565b6100c861016c3660046114a0565b6104e6565b6100c861017f36600461143b565b610555565b6101ab7f000000000000000000000000000000000000000000000000000000000000000081565b60405173ffffffffffffffffffffffffffffffffffffffff90911681526020016100ac565b6101e36101de366004611409565b6108cb565b6040516100ac91906114c2565b61025560405180610120016040528060008152602001600081526020016000815260200160008152602001600081526020016000815260200160008152602001600073ffffffffffffffffffffffffffffffffffffffff168152602001600081525090565b600082815260036020526040902054610279576102736000806108fa565b92915050565b600061028483610a2f565b90506102eb60405180610120016040528060008152602001600081526020016000815260200160008152602001600081526020016000815260200160008152602001600073ffffffffffffffffffffffffffffffffffffffff168152602001600081525090565b811561031f576102fb84836108fa565b90506103078482610ae8565b15610313579392505050565b80604001519150610362565b600084815260036020526040902054915061033a84836108fa565b90506103468482610ae8565b15806103555750806060015142105b1561036257806040015191505b8161037a576103726000806108fa565b949350505050565b61038484836108fa565b9050610372816001610b17565b6103f660405180610120016040528060008152602001600081526020016000815260200160008152602001600081526020016000815260200160008152602001600073ffffffffffffffffffffffffffffffffffffffff168152602001600081525090565b600082815260036020526040902054610414576102736000806108fa565b600061041f83610c5c565b9050801561045d5761043183826108fa565b915061043d8383610ae8565b156104485750919050565b6104568383604001516108fa565b9150610496565b6000838152600360205260409020546104779084906108fa565b91504282606001511115610496576104938383604001516108fa565b91505b60808201516104b1576104aa6000806108fa565b9392505050565b6104bb8383610ae8565b156104cb576104aa826000610b17565b6104d98383604001516108fa565b91506104aa826000610b17565b61054b60405180610120016040528060008152602001600081526020016000815260200160008152602001600081526020016000815260200160008152602001600073ffffffffffffffffffffffffffffffffffffffff168152602001600081525090565b6104aa83836108fa565b6105ba60405180610120016040528060008152602001600081526020016000815260200160008152602001600081526020016000815260200160008152602001600073ffffffffffffffffffffffffffffffffffffffff168152602001600081525090565b6040517f5dd8f6aa000000000000000000000000000000000000000000000000000000008152600481018690528590339073ffffffffffffffffffffffffffffffffffffffff7f00000000000000000000000000000000000000000000000000000000000000001690635dd8f6aa9060240160206040518083038186803b15801561064457600080fd5b505afa158015610658573d6000803e3d6000fd5b505050506040513d601f19601f8201168201806040525081019061067c91906113ae565b73ffffffffffffffffffffffffffffffffffffffff16146106c9576040517fab7f741400000000000000000000000000000000000000000000000000000000815260040160405180910390fd5b67ffffffffffffffff8535111561070c576040517f3147256c00000000000000000000000000000000000000000000000000000000815260040160405180910390fd5b633b9aca008560400135111561074e576040517f2459513500000000000000000000000000000000000000000000000000000000815260040160405180910390fd5b6affffffffffffffffffffff60208601351115610797576040517f698f22ad00000000000000000000000000000000000000000000000000000000815260040160405180910390fd5b426107b5878260208901358188116107af5742610cea565b87610cea565b60006107c760808801606089016113cb565b73ffffffffffffffffffffffffffffffffffffffff161415806107ea5750853515155b806107f9575060008660400135115b1561085457600061081060808801606089016113cb565b6000898152602081815260408083208684529091529081902073ffffffffffffffffffffffffffffffffffffffff92909216893560a01b179089013560e01b179055505b841561087757600087815260026020908152604080832084845290915290208590555b86817f1175572e9e7787125bbb2c1175e626d6fa90191342319fa2c35d8bd194a8a1b6888888336040516108ae9493929190611503565b60405180910390a36108c087826108fa565b979650505050505050565b600081815260036020526040812054816108e584836108fa565b90506103728482602001518360400151610e57565b61095f60405180610120016040528060008152602001600081526020016000815260200160008152602001600081526020016000815260200160008152602001600073ffffffffffffffffffffffffffffffffffffffff168152602001600081525090565b8161096957610273565b602081810183905260008481526001825260408082208583528352808220546affffffffffffffffffffff811660a080870191909152605882901c66ffffffffffffff90811684880152609083901c16606087015260c89190911c855286835282845281832086845284528183205473ffffffffffffffffffffffffffffffffffffffff811660e0808801919091529181901c67ffffffffffffffff166080870152901c60c0850152948152600282528481209381529290529190205461010082015290565b60008181526003602052604081205490610a4983836108fa565b905060008160800151118015610a72575080608001518160600151610a6e9190611569565b4210155b15610a805750600092915050565b80606001514210610a95576020015192915050565b6000610aa58483604001516108fa565b905060008160800151118015610ace575080608001518160600151610aca9190611569565b4210155b15610add575060009392505050565b506040015192915050565b600080610afe8484602001518560400151610e57565b6002811115610b0f57610b0f611657565b149392505050565b610b7c60405180610120016040528060008152602001600081526020016000815260200160008152602001600081526020016000815260200160008152602001600073ffffffffffffffffffffffffffffffffffffffff168152602001600081525090565b6000821580610b8d57506080840151155b610bb0576080840151610ba09042611595565b610bab906001611569565b610bbb565b610bbb426001611569565b90506000610bc98583610fed565b90506000610bd7868361107a565b9050604051806101200160405280828152602001876020015181526020018760400151815260200183815260200187608001518152602001610c1988856110cd565b81526020018760c0015181526020018760e0015173ffffffffffffffffffffffffffffffffffffffff168152602001876101000151815250935050505092915050565b60008181526003602052604081205490610c7683836108fa565b905080606001514210610c8c5750600092915050565b805160011415610c9c5750919050565b6000610cac8483604001516108fa565b905060008160800151118015610cd4575080608001518260600151610cd19190611595565b42105b15610ce3575060009392505050565b5050919050565b600084815260036020526040902054610d1957610d1484610d0c6000806108fa565b858486611188565b610e51565b6000610d2485610a2f565b905080610d3c57506000848152600360205260409020545b6000610d4886836108fa565b9050610d548682610ae8565b610d6957610d6286836108fa565b6040015191505b6000610d7587846108fa565b60e081015190915060009073ffffffffffffffffffffffffffffffffffffffff1615610e2c578160e0015173ffffffffffffffffffffffffffffffffffffffff16630fb5a6b46040518163ffffffff1660e01b815260040160206040518083038186803b158015610de557600080fd5b505afa158015610df9573d6000803e3d6000fd5b505050506040513d601f19601f82011682018060405250810190610e1d9190611422565b610e279088611569565b610e2f565b60005b9050610e4c888389888511610e445788610e46565b845b8a611188565b505050505b50505050565b600081610e66575060006104aa565b6000610e7285846108fa565b60e081015190915073ffffffffffffffffffffffffffffffffffffffff16610e9e5760009150506104aa565b610ea88442611595565b8160e0015173ffffffffffffffffffffffffffffffffffffffff16630fb5a6b46040518163ffffffff1660e01b815260040160206040518083038186803b158015610ef257600080fd5b505afa158015610f06573d6000803e3d6000fd5b505050506040513d601f19601f82011682018060405250810190610f2a9190611422565b10610f395760019150506104aa565b60e08101516040517ff94633fb000000000000000000000000000000000000000000000000000000008152600481018790526024810186905273ffffffffffffffffffffffffffffffffffffffff9091169063f94633fb9060440160206040518083038186803b158015610fac57600080fd5b505afa158015610fc0573d6000803e3d6000fd5b505050506040513d601f19601f82011682018060405250810190610fe491906113e8565b95945050505050565b6000826080015160001415611003575080610273565b6000836080015184606001516110199190611569565b9050828110611029579050610273565b608084015160009061103b8386611595565b61104591906115e5565b90506110518185611595565b92505b8284111561107257608085015161106b9084611569565b9250611054565b505092915050565b600082608001516000141561109d578251611096906001611569565b9050610273565b60008360600151836110af9190611595565b90508360800151816110c19190611581565b84516103729190611569565b6000826080015160001415611102576110968360a001518460c00151633b9aca006110f89190611595565b633b9aca006112a5565b5060a082015160c083015161111657610273565b60008360600151836111289190611595565b9050600084608001518261113c9190611581565b905060005b8181101561117f57611161848760c00151633b9aca006110f89190611595565b93508361116d5761117f565b80611177816115ac565b915050611141565b50505092915050565b83516111de5760208085015160008781526001808452604080832088845290945292902060589190911b8317609085901b177901000000000000000000000000000000000000000000000000001790555061125b565b60006111ea8584610fed565b905060008211611203576111fe85826110cd565b611214565b816001146112115781611214565b60005b91506000611222868361107a565b60208088015160008a81526001835260408082208a83529093529190912060589190911b8517609085901b1760c883901b179055905050505b60008581526003602090815260408083208690559086015190519091879186917ff1bd4f3fcb4e0b193abc7e4002c0284e25086269a02de2e4c52045a91f64703791a45050505050565b600080807fffffffffffffffffffffffffffffffffffffffffffffffffffffffffffffffff85870985870292508281108382030391505080600014156112fe578382816112f4576112f4611628565b04925050506104aa565b838110611345576040517f773cc18c000000000000000000000000000000000000000000000000000000008152600481018290526024810185905260440160405180910390fd5b60008486880960026001871981018816978890046003810283188082028403028082028403028082028403028082028403028082028403029081029092039091026000889003889004909101858311909403939093029303949094049190911702949350505050565b6000602082840312156113c057600080fd5b81516104aa81611686565b6000602082840312156113dd57600080fd5b81356104aa81611686565b6000602082840312156113fa57600080fd5b8151600381106104aa57600080fd5b60006020828403121561141b57600080fd5b5035919050565b60006020828403121561143457600080fd5b5051919050565b60008060008084860360e081121561145257600080fd5b8535945060807fffffffffffffffffffffffffffffffffffffffffffffffffffffffffffffffe08201121561148657600080fd5b50929560208501955060a08501359460c001359350915050565b600080604083850312156114b357600080fd5b50508035926020909101359150565b60208101600383106114fd577f4e487b7100000000000000000000000000000000000000000000000000000000600052602160045260246000fd5b91905290565b84358152602080860135908201526040808601359082015260e08101606086013561152d81611686565b73ffffffffffffffffffffffffffffffffffffffff80821660608501528660808501528560a085015280851660c0850152505095945050505050565b6000821982111561157c5761157c6115f9565b500190565b60008261159057611590611628565b500490565b6000828210156115a7576115a76115f9565b500390565b60007fffffffffffffffffffffffffffffffffffffffffffffffffffffffffffffffff8214156115de576115de6115f9565b5060010190565b6000826115f4576115f4611628565b500690565b7f4e487b7100000000000000000000000000000000000000000000000000000000600052601160045260246000fd5b7f4e487b7100000000000000000000000000000000000000000000000000000000600052601260045260246000fd5b7f4e487b7100000000000000000000000000000000000000000000000000000000600052602160045260246000fd5b73ffffffffffffffffffffffffffffffffffffffff811681146116a857600080fd5b5056fea264697066735822122038170931e22909ad94f27d1881df12489c0e60ba0ad6d47b8fc602ecfa1488be64736f6c63430008060033",
  "devdoc": {
    "details": "Adheres to: IJBTokenStore: General interface for the methods in this contract that interact with the blockchain's state according to the protocol's rules.Inherits from: JBControllerUtility: Includes convenience functionality for checking if the message sender is the current controller of the project whose data is being manipulated.",
    "kind": "dev",
    "methods": {
      "configureFor(uint256,(uint256,uint256,uint256,address),uint256,uint256)": {
        "details": "Only a project's current controller can configure its funding cycles.",
        "params": {
          "_data": "The funding cycle configuration data.",
          "_metadata": "Arbitrary extra data to associate with this funding cycle configuration that's not used within.",
          "_mustStartAtOrAfter": "The time before which the initialized funding cycle cannot start.",
          "_projectId": "The ID of the project being configured."
        },
        "returns": {
          "_0": "The funding cycle that the configuration will take effect during."
        }
      },
      "constructor": {
        "params": {
          "_directory": "A contract storing directories of terminals and controllers for each project."
        }
      },
      "currentBallotStateOf(uint256)": {
        "params": {
          "_projectId": "The ID of the project to check the ballot state of."
        },
        "returns": {
          "_0": "The project's current ballot's state."
        }
      },
      "currentOf(uint256)": {
        "details": "If a current funding cycle of the project is not found, returns an empty funding cycle with all properties set to 0.",
        "params": {
          "_projectId": "The ID of the project to get the current funding cycle of."
        },
        "returns": {
          "fundingCycle": "The project's current funding cycle."
        }
      },
      "get(uint256,uint256)": {
        "params": {
          "_configuration": "The configuration of the funding cycle to get.",
          "_projectId": "The ID of the project to which the funding cycle belongs."
        },
        "returns": {
          "fundingCycle": "The funding cycle."
        }
      },
      "queuedOf(uint256)": {
        "details": "If a queued funding cycle of the project is not found, returns an empty funding cycle with all properties set to 0.",
        "params": {
          "_projectId": "The ID of the project to get the queued funding cycle of."
        },
        "returns": {
          "fundingCycle": "The project's queued funding cycle."
        }
      }
    },
    "version": 1
  },
  "userdoc": {
    "errors": {
      "PRBMath__MulDivOverflow(uint256,uint256)": [
        {
          "notice": "Emitted when the result overflows uint256."
        }
      ]
    },
    "kind": "user",
    "methods": {
      "configureFor(uint256,(uint256,uint256,uint256,address),uint256,uint256)": {
        "notice": " Configures the next eligible funding cycle for the specified project."
      },
      "currentBallotStateOf(uint256)": {
        "notice": " The current ballot state of the project."
      },
      "currentOf(uint256)": {
        "notice": " The funding cycle that is currently active for the specified project."
      },
      "directory()": {
        "notice": " The directory of terminals and controllers for projects."
      },
      "get(uint256,uint256)": {
        "notice": " Get the funding cycle with the given configuration for the specified project."
      },
      "latestConfigurationOf(uint256)": {
        "notice": " The latest funding cycle configuration for each project. _projectId The ID of the project to get the latest funding cycle configuration of."
      },
      "queuedOf(uint256)": {
        "notice": " The funding cycle that's next up for the specified project."
      }
    },
    "notice": " Manages funding cycle configurations and scheduling.",
    "version": 1
  },
  "storageLayout": {
    "storage": [
      {
        "astId": 7154,
        "contract": "contracts/JBFundingCycleStore.sol:JBFundingCycleStore",
        "label": "_packedUserPropertiesOf",
        "offset": 0,
        "slot": "0",
        "type": "t_mapping(t_uint256,t_mapping(t_uint256,t_uint256))"
      },
      {
        "astId": 7161,
        "contract": "contracts/JBFundingCycleStore.sol:JBFundingCycleStore",
        "label": "_packedIntrinsicPropertiesOf",
        "offset": 0,
        "slot": "1",
        "type": "t_mapping(t_uint256,t_mapping(t_uint256,t_uint256))"
      },
      {
        "astId": 7168,
        "contract": "contracts/JBFundingCycleStore.sol:JBFundingCycleStore",
        "label": "_metadataOf",
        "offset": 0,
        "slot": "2",
        "type": "t_mapping(t_uint256,t_mapping(t_uint256,t_uint256))"
      },
      {
        "astId": 7174,
        "contract": "contracts/JBFundingCycleStore.sol:JBFundingCycleStore",
        "label": "latestConfigurationOf",
        "offset": 0,
        "slot": "3",
        "type": "t_mapping(t_uint256,t_uint256)"
      }
    ],
    "types": {
      "t_mapping(t_uint256,t_mapping(t_uint256,t_uint256))": {
        "encoding": "mapping",
        "key": "t_uint256",
        "label": "mapping(uint256 => mapping(uint256 => uint256))",
        "numberOfBytes": "32",
        "value": "t_mapping(t_uint256,t_uint256)"
      },
      "t_mapping(t_uint256,t_uint256)": {
        "encoding": "mapping",
        "key": "t_uint256",
        "label": "mapping(uint256 => uint256)",
        "numberOfBytes": "32",
        "value": "t_uint256"
      },
      "t_uint256": {
        "encoding": "inplace",
        "label": "uint256",
        "numberOfBytes": "32"
      }
    }
  }
}