{
  "address": "0xfd6Bc33C9e25c6d9Bbd00b04992E3639E786DCEd",
  "abi": [
    {
      "inputs": [
        {
          "internalType": "contract IJBDirectory",
          "name": "_directory",
          "type": "address"
        }
      ],
      "stateMutability": "nonpayable",
      "type": "constructor"
    },
    {
      "inputs": [
        {
          "internalType": "uint256",
          "name": "prod1",
          "type": "uint256"
        },
        {
          "internalType": "uint256",
          "name": "denominator",
          "type": "uint256"
        }
      ],
      "name": "PRBMath__MulDivOverflow",
      "type": "error"
    },
    {
      "anonymous": false,
      "inputs": [
        {
          "indexed": true,
          "internalType": "uint256",
          "name": "fundingCycleId",
          "type": "uint256"
        },
        {
          "indexed": true,
          "internalType": "uint256",
          "name": "projectId",
          "type": "uint256"
        },
        {
          "indexed": true,
          "internalType": "uint256",
          "name": "configured",
          "type": "uint256"
        },
        {
          "components": [
            {
              "internalType": "uint256",
              "name": "target",
              "type": "uint256"
            },
            {
              "internalType": "uint256",
              "name": "currency",
              "type": "uint256"
            },
            {
              "internalType": "uint256",
              "name": "duration",
              "type": "uint256"
            },
            {
              "internalType": "uint256",
              "name": "discountRate",
              "type": "uint256"
            },
            {
              "internalType": "uint256",
              "name": "weight",
              "type": "uint256"
            },
            {
              "internalType": "contract IJBFundingCycleBallot",
              "name": "ballot",
              "type": "address"
            }
          ],
          "indexed": false,
          "internalType": "struct JBFundingCycleData",
          "name": "data",
          "type": "tuple"
        },
        {
          "indexed": false,
          "internalType": "uint256",
          "name": "metadata",
          "type": "uint256"
        },
        {
          "indexed": false,
          "internalType": "address",
          "name": "caller",
          "type": "address"
        }
      ],
      "name": "Configure",
      "type": "event"
    },
    {
      "anonymous": false,
      "inputs": [
        {
          "indexed": true,
          "internalType": "uint256",
          "name": "fundingCycleId",
          "type": "uint256"
        },
        {
          "indexed": true,
          "internalType": "uint256",
          "name": "projectId",
          "type": "uint256"
        },
        {
          "indexed": true,
          "internalType": "uint256",
          "name": "basedOn",
          "type": "uint256"
        }
      ],
      "name": "Init",
      "type": "event"
    },
    {
      "anonymous": false,
      "inputs": [
        {
          "indexed": true,
          "internalType": "uint256",
          "name": "fundingCycleId",
          "type": "uint256"
        },
        {
          "indexed": true,
          "internalType": "uint256",
          "name": "projectId",
          "type": "uint256"
        },
        {
          "indexed": false,
          "internalType": "uint256",
          "name": "amount",
          "type": "uint256"
        },
        {
          "indexed": false,
          "internalType": "uint256",
          "name": "newTappedAmount",
          "type": "uint256"
        },
        {
          "indexed": false,
          "internalType": "address",
          "name": "caller",
          "type": "address"
        }
      ],
      "name": "Tap",
      "type": "event"
    },
    {
      "inputs": [
        {
          "internalType": "uint256",
          "name": "_projectId",
          "type": "uint256"
        },
        {
          "components": [
            {
              "internalType": "uint256",
              "name": "target",
              "type": "uint256"
            },
            {
              "internalType": "uint256",
              "name": "currency",
              "type": "uint256"
            },
            {
              "internalType": "uint256",
              "name": "duration",
              "type": "uint256"
            },
            {
              "internalType": "uint256",
              "name": "discountRate",
              "type": "uint256"
            },
            {
              "internalType": "uint256",
              "name": "weight",
              "type": "uint256"
            },
            {
              "internalType": "contract IJBFundingCycleBallot",
              "name": "ballot",
              "type": "address"
            }
          ],
          "internalType": "struct JBFundingCycleData",
          "name": "_data",
          "type": "tuple"
        },
        {
          "internalType": "uint256",
          "name": "_metadata",
          "type": "uint256"
        },
        {
          "internalType": "uint256",
          "name": "_fee",
          "type": "uint256"
        }
      ],
      "name": "configureFor",
      "outputs": [
        {
          "components": [
            {
              "internalType": "uint256",
              "name": "id",
              "type": "uint256"
            },
            {
              "internalType": "uint256",
              "name": "projectId",
              "type": "uint256"
            },
            {
              "internalType": "uint256",
              "name": "number",
              "type": "uint256"
            },
            {
              "internalType": "uint256",
              "name": "basedOn",
              "type": "uint256"
            },
            {
              "internalType": "uint256",
              "name": "configured",
              "type": "uint256"
            },
            {
              "internalType": "uint256",
              "name": "weight",
              "type": "uint256"
            },
            {
              "internalType": "contract IJBFundingCycleBallot",
              "name": "ballot",
              "type": "address"
            },
            {
              "internalType": "uint256",
              "name": "start",
              "type": "uint256"
            },
            {
              "internalType": "uint256",
              "name": "duration",
              "type": "uint256"
            },
            {
              "internalType": "uint256",
              "name": "target",
              "type": "uint256"
            },
            {
              "internalType": "uint256",
              "name": "currency",
              "type": "uint256"
            },
            {
              "internalType": "uint256",
              "name": "fee",
              "type": "uint256"
            },
            {
              "internalType": "uint256",
              "name": "discountRate",
              "type": "uint256"
            },
            {
              "internalType": "uint256",
              "name": "tapped",
              "type": "uint256"
            },
            {
              "internalType": "uint256",
              "name": "metadata",
              "type": "uint256"
            }
          ],
          "internalType": "struct JBFundingCycle",
          "name": "",
          "type": "tuple"
        }
      ],
      "stateMutability": "nonpayable",
      "type": "function"
    },
    {
      "inputs": [
        {
          "internalType": "uint256",
          "name": "_projectId",
          "type": "uint256"
        }
      ],
      "name": "currentBallotStateOf",
      "outputs": [
        {
          "internalType": "enum JBBallotState",
          "name": "",
          "type": "uint8"
        }
      ],
      "stateMutability": "view",
      "type": "function"
    },
    {
      "inputs": [
        {
          "internalType": "uint256",
          "name": "_projectId",
          "type": "uint256"
        }
      ],
      "name": "currentOf",
      "outputs": [
        {
          "components": [
            {
              "internalType": "uint256",
              "name": "id",
              "type": "uint256"
            },
            {
              "internalType": "uint256",
              "name": "projectId",
              "type": "uint256"
            },
            {
              "internalType": "uint256",
              "name": "number",
              "type": "uint256"
            },
            {
              "internalType": "uint256",
              "name": "basedOn",
              "type": "uint256"
            },
            {
              "internalType": "uint256",
              "name": "configured",
              "type": "uint256"
            },
            {
              "internalType": "uint256",
              "name": "weight",
              "type": "uint256"
            },
            {
              "internalType": "contract IJBFundingCycleBallot",
              "name": "ballot",
              "type": "address"
            },
            {
              "internalType": "uint256",
              "name": "start",
              "type": "uint256"
            },
            {
              "internalType": "uint256",
              "name": "duration",
              "type": "uint256"
            },
            {
              "internalType": "uint256",
              "name": "target",
              "type": "uint256"
            },
            {
              "internalType": "uint256",
              "name": "currency",
              "type": "uint256"
            },
            {
              "internalType": "uint256",
              "name": "fee",
              "type": "uint256"
            },
            {
              "internalType": "uint256",
              "name": "discountRate",
              "type": "uint256"
            },
            {
              "internalType": "uint256",
              "name": "tapped",
              "type": "uint256"
            },
            {
              "internalType": "uint256",
              "name": "metadata",
              "type": "uint256"
            }
          ],
          "internalType": "struct JBFundingCycle",
          "name": "fundingCycle",
          "type": "tuple"
        }
      ],
      "stateMutability": "view",
      "type": "function"
    },
    {
      "inputs": [],
      "name": "directory",
      "outputs": [
        {
          "internalType": "contract IJBDirectory",
          "name": "",
          "type": "address"
        }
      ],
      "stateMutability": "view",
      "type": "function"
    },
    {
      "inputs": [
        {
          "internalType": "uint256",
          "name": "_fundingCycleId",
          "type": "uint256"
        }
      ],
      "name": "get",
      "outputs": [
        {
          "components": [
            {
              "internalType": "uint256",
              "name": "id",
              "type": "uint256"
            },
            {
              "internalType": "uint256",
              "name": "projectId",
              "type": "uint256"
            },
            {
              "internalType": "uint256",
              "name": "number",
              "type": "uint256"
            },
            {
              "internalType": "uint256",
              "name": "basedOn",
              "type": "uint256"
            },
            {
              "internalType": "uint256",
              "name": "configured",
              "type": "uint256"
            },
            {
              "internalType": "uint256",
              "name": "weight",
              "type": "uint256"
            },
            {
              "internalType": "contract IJBFundingCycleBallot",
              "name": "ballot",
              "type": "address"
            },
            {
              "internalType": "uint256",
              "name": "start",
              "type": "uint256"
            },
            {
              "internalType": "uint256",
              "name": "duration",
              "type": "uint256"
            },
            {
              "internalType": "uint256",
              "name": "target",
              "type": "uint256"
            },
            {
              "internalType": "uint256",
              "name": "currency",
              "type": "uint256"
            },
            {
              "internalType": "uint256",
              "name": "fee",
              "type": "uint256"
            },
            {
              "internalType": "uint256",
              "name": "discountRate",
              "type": "uint256"
            },
            {
              "internalType": "uint256",
              "name": "tapped",
              "type": "uint256"
            },
            {
              "internalType": "uint256",
              "name": "metadata",
              "type": "uint256"
            }
          ],
          "internalType": "struct JBFundingCycle",
          "name": "fundingCycle",
          "type": "tuple"
        }
      ],
      "stateMutability": "view",
      "type": "function"
    },
    {
      "inputs": [
        {
          "internalType": "uint256",
          "name": "",
          "type": "uint256"
        }
      ],
      "name": "latestIdOf",
      "outputs": [
        {
          "internalType": "uint256",
          "name": "",
          "type": "uint256"
        }
      ],
      "stateMutability": "view",
      "type": "function"
    },
    {
      "inputs": [
        {
          "internalType": "uint256",
          "name": "_projectId",
          "type": "uint256"
        }
      ],
      "name": "queuedOf",
      "outputs": [
        {
          "components": [
            {
              "internalType": "uint256",
              "name": "id",
              "type": "uint256"
            },
            {
              "internalType": "uint256",
              "name": "projectId",
              "type": "uint256"
            },
            {
              "internalType": "uint256",
              "name": "number",
              "type": "uint256"
            },
            {
              "internalType": "uint256",
              "name": "basedOn",
              "type": "uint256"
            },
            {
              "internalType": "uint256",
              "name": "configured",
              "type": "uint256"
            },
            {
              "internalType": "uint256",
              "name": "weight",
              "type": "uint256"
            },
            {
              "internalType": "contract IJBFundingCycleBallot",
              "name": "ballot",
              "type": "address"
            },
            {
              "internalType": "uint256",
              "name": "start",
              "type": "uint256"
            },
            {
              "internalType": "uint256",
              "name": "duration",
              "type": "uint256"
            },
            {
              "internalType": "uint256",
              "name": "target",
              "type": "uint256"
            },
            {
              "internalType": "uint256",
              "name": "currency",
              "type": "uint256"
            },
            {
              "internalType": "uint256",
              "name": "fee",
              "type": "uint256"
            },
            {
              "internalType": "uint256",
              "name": "discountRate",
              "type": "uint256"
            },
            {
              "internalType": "uint256",
              "name": "tapped",
              "type": "uint256"
            },
            {
              "internalType": "uint256",
              "name": "metadata",
              "type": "uint256"
            }
          ],
          "internalType": "struct JBFundingCycle",
          "name": "",
          "type": "tuple"
        }
      ],
      "stateMutability": "view",
      "type": "function"
    },
    {
      "inputs": [
        {
          "internalType": "uint256",
          "name": "_projectId",
          "type": "uint256"
        },
        {
          "internalType": "uint256",
          "name": "_amount",
          "type": "uint256"
        }
      ],
      "name": "tapFrom",
      "outputs": [
        {
          "components": [
            {
              "internalType": "uint256",
              "name": "id",
              "type": "uint256"
            },
            {
              "internalType": "uint256",
              "name": "projectId",
              "type": "uint256"
            },
            {
              "internalType": "uint256",
              "name": "number",
              "type": "uint256"
            },
            {
              "internalType": "uint256",
              "name": "basedOn",
              "type": "uint256"
            },
            {
              "internalType": "uint256",
              "name": "configured",
              "type": "uint256"
            },
            {
              "internalType": "uint256",
              "name": "weight",
              "type": "uint256"
            },
            {
              "internalType": "contract IJBFundingCycleBallot",
              "name": "ballot",
              "type": "address"
            },
            {
              "internalType": "uint256",
              "name": "start",
              "type": "uint256"
            },
            {
              "internalType": "uint256",
              "name": "duration",
              "type": "uint256"
            },
            {
              "internalType": "uint256",
              "name": "target",
              "type": "uint256"
            },
            {
              "internalType": "uint256",
              "name": "currency",
              "type": "uint256"
            },
            {
              "internalType": "uint256",
              "name": "fee",
              "type": "uint256"
            },
            {
              "internalType": "uint256",
              "name": "discountRate",
              "type": "uint256"
            },
            {
              "internalType": "uint256",
              "name": "tapped",
              "type": "uint256"
            },
            {
              "internalType": "uint256",
              "name": "metadata",
              "type": "uint256"
            }
          ],
          "internalType": "struct JBFundingCycle",
          "name": "",
          "type": "tuple"
        }
      ],
      "stateMutability": "nonpayable",
      "type": "function"
    }
  ],
  "transactionHash": "0x12b7c7709a81d345b804eeea5e7c953c907b422f9b190612f4da169ea5840ab9",
  "args": [
    "0xF77Cc21F7Ffdb0700D6d01FCF32EBE654f1A389b"
  ],
  "solcInputHash": "3b4710394790e6b2fbe3ff5eb3b8549b",
  "bytecode": "0x60a060405234801561001057600080fd5b506040516200235f3803806200235f83398101604081905261003191610046565b60601b6001600160601b031916608052610076565b60006020828403121561005857600080fd5b81516001600160a01b038116811461006f57600080fd5b9392505050565b60805160601c6122bc620000a3600039600081816101070152818161070d0152610c0501526122bc6000f3fe608060405234801561001057600080fd5b50600436106100885760003560e01c8063a7f166b51161005b578063a7f166b5146100ef578063c41c2f2414610102578063c55f571c1461014e578063cdce9b2b1461016e57600080fd5b806343a266c21461008d5780635c550078146100b65780639507d39a146100c95780639dada0d9146100dc575b600080fd5b6100a061009b366004611ece565b61019c565b6040516100ad9190612042565b60405180910390f35b6100a06100c4366004611ece565b61039a565b6100a06100d7366004611ece565b6104df565b6100a06100ea366004611f00565b610636565b6100a06100fd366004611f67565b610b2e565b6101297f000000000000000000000000000000000000000000000000000000000000000081565b60405173ffffffffffffffffffffffffffffffffffffffff90911681526020016100ad565b61016161015c366004611ece565b610e72565b6040516100ad9190611f89565b61018e61017c366004611ece565b60056020526000908152604090205481565b6040519081526020016100ad565b61022b604051806101e00160405280600081526020016000815260200160008152602001600081526020016000815260200160008152602001600073ffffffffffffffffffffffffffffffffffffffff16815260200160008152602001600081526020016000815260200160008152602001600081526020016000815260200160008152602001600081525090565b60008281526005602052604090205461024e576102486000610f1f565b92915050565b6000610259836110bd565b90508061026c576102698361118d565b90505b6102fb604051806101e00160405280600081526020016000815260200160008152602001600081526020016000815260200160008152602001600073ffffffffffffffffffffffffffffffffffffffff16815260200160008152602001600081526020016000815260200160008152602001600081526020016000815260200160008152602001600081525090565b811561033c5761030a82610f1f565b9050428160e00151111580156103245750610324816111d0565b15610330579392505050565b8060600151915061036d565b600084815260056020526040902054915061035682610f1f565b9050610361816111d0565b61036d57806060015191505b816103845761037c6000610f1f565b949350505050565b61038d82610f1f565b905061037c816001611202565b610429604051806101e00160405280600081526020016000815260200160008152602001600081526020016000815260200160008152602001600073ffffffffffffffffffffffffffffffffffffffff16815260200160008152602001600081526020016000815260200160008152602001600081526020016000815260200160008152602001600081525090565b600082815260056020526040902054610446576102486000610f1f565b60006104518361118d565b905080156104695761046281610f1f565b9392505050565b506000828152600560205260408120549061048382610f1f565b90508061010001516000141561049d5761037c6000610f1f565b6104a6816111d0565b156104b65761037c816000611202565b60608101519150816104cc5761037c6000610f1f565b61037c6104d883610f1f565b6000611202565b61056e604051806101e00160405280600081526020016000815260200160008152602001600081526020016000815260200160008152602001600073ffffffffffffffffffffffffffffffffffffffff16815260200160008152602001600081526020016000815260200160008152602001600081526020016000815260200160008152602001600081525090565b600082116105dd576040517f08c379a000000000000000000000000000000000000000000000000000000000815260206004820152600b60248201527f30783133204241445f494400000000000000000000000000000000000000000060448201526064015b60405180910390fd5b6105e682610f1f565b6040810151909150156105f857919050565b6106018261019c565b805190915082141561061257919050565b61061b8261039a565b805190915082141561062c57919050565b6102486000610f1f565b6106c5604051806101e00160405280600081526020016000815260200160008152602001600081526020016000815260200160008152602001600073ffffffffffffffffffffffffffffffffffffffff16815260200160008152602001600081526020016000815260200160008152602001600081526020016000815260200160008152602001600081525090565b6040517f5dd8f6aa000000000000000000000000000000000000000000000000000000008152600481018690528590339073ffffffffffffffffffffffffffffffffffffffff7f00000000000000000000000000000000000000000000000000000000000000001690635dd8f6aa9060240160206040518083038186803b15801561074f57600080fd5b505afa158015610763573d6000803e3d6000fd5b505050506040513d601f19601f820116820180604052508101906107879190611e73565b73ffffffffffffffffffffffffffffffffffffffff1614610804576040517f08c379a000000000000000000000000000000000000000000000000000000000815260206004820152601260248201527f307834663a20554e415554484f52495a4544000000000000000000000000000060448201526064016105d4565b61ffff60408601351115610874576040517f08c379a000000000000000000000000000000000000000000000000000000000815260206004820152601260248201527f307831353a204241445f4455524154494f4e000000000000000000000000000060448201526064016105d4565b612711856060013511156108e4576040517f08c379a000000000000000000000000000000000000000000000000000000000815260206004820152601760248201527f307831363a204241445f444953434f554e545f5241544500000000000000000060448201526064016105d4565b60ff60208601351115610953576040517f08c379a000000000000000000000000000000000000000000000000000000000815260206004820152601260248201527f307831373a204241445f43555252454e4359000000000000000000000000000060448201526064016105d4565b69ffffffffffffffffffff608086013511156109cb576040517f08c379a000000000000000000000000000000000000000000000000000000000815260206004820152601060248201527f307831383a204241445f5745494748540000000000000000000000000000000060448201526064016105d4565b60c8831115610a36576040517f08c379a000000000000000000000000000000000000000000000000000000000815260206004820152600d60248201527f307831393a204241445f4645450000000000000000000000000000000000000060448201526064016105d4565b426000610a48888360808a01356113e4565b9050610ab88183610a5f60c08b0160a08c01611e90565b6000928352602083815260409384902073ffffffffffffffffffffffffffffffffffffffff9290921660a09390931b92909217928b013560d01b92909217908a013560e01b1760e888901b1760608a013560f01b179055565b60008181526003602090815260408083208a359055600290915290819020879055518290899083907f738f28809aeff63352b71b8dc894c5e51b2758e1ff1d6b00b50f8dc10916000890610b11908c908c903390611fca565b60405180910390a4610b2281610f1f565b98975050505050505050565b610bbd604051806101e00160405280600081526020016000815260200160008152602001600081526020016000815260200160008152602001600073ffffffffffffffffffffffffffffffffffffffff16815260200160008152602001600081526020016000815260200160008152602001600081526020016000815260200160008152602001600081525090565b6040517f5dd8f6aa000000000000000000000000000000000000000000000000000000008152600481018490528390339073ffffffffffffffffffffffffffffffffffffffff7f00000000000000000000000000000000000000000000000000000000000000001690635dd8f6aa9060240160206040518083038186803b158015610c4757600080fd5b505afa158015610c5b573d6000803e3d6000fd5b505050506040513d601f19601f82011682018060405250810190610c7f9190611e73565b73ffffffffffffffffffffffffffffffffffffffff1614610cfc576040517f08c379a000000000000000000000000000000000000000000000000000000000815260206004820152601260248201527f307834663a20554e415554484f52495a4544000000000000000000000000000060448201526064016105d4565b60008311610d66576040517f08c379a000000000000000000000000000000000000000000000000000000000815260206004820152601860248201527f307831613a20494e53554646494349454e545f46554e4453000000000000000060448201526064016105d4565b6000610d718561154f565b60008181526004602052604081205491925090610d8f908690612107565b600083815260036020526040902054909150811115610e0a576040517f08c379a000000000000000000000000000000000000000000000000000000000815260206004820152601860248201527f307831623a20494e53554646494349454e545f46554e4453000000000000000060448201526064016105d4565b600082815260046020908152604091829020839055815187815290810183905233818301529051879184917fb16453f203e70875883e4ba9c674627ad465d6eb3102bbcad8aa467c0da75fd89181900360600190a3610e6882610f1f565b9695505050505050565b60008181526005602052604081205480610ee8576040517f08c379a000000000000000000000000000000000000000000000000000000000815260206004820152600f60248201527f307831343a204e4f545f464f554e44000000000000000000000000000000000060448201526064016105d4565b6000610ef382610f1f565b9050806060015160001415610f0c575060009392505050565b61037c828260800151836060015161187d565b610fae604051806101e00160405280600081526020016000815260200160008152602001600081526020016000815260200160008152602001600073ffffffffffffffffffffffffffffffffffffffff16815260200160008152602001600081526020016000815260200160008152602001600081526020016000815260200160008152602001600081525090565b81610fb857919050565b81815260008281526001602090815260408083205469ffffffffffffffffffff811660a08087019190915266ffffffffffffff605083901c168487015265ffffffffffff608883901c8116606088015260b883901c811660e08089019190915260e893841c858901528887528686528487205473ffffffffffffffffffffffffffffffffffffffff811660c08a01529283901c909116608088015261ffff60d083901c1661010088015260ff9082901c81166101408801529181901c90911661016086015260f01c610180850152848352600382528083205461012085015284835260048252808320546101a08501529382526002905291909120546101c082015290565b600081815260056020526040902054806110d957506000919050565b60006110e482610f1f565b9050600081610100015111801561111d57506201518081610100015161110a9190612133565b8160e001516111199190612107565b4210155b1561112b5750600092915050565b600061113a8260600151610f1f565b905060008161010001511180156111735750620151808161010001516111609190612133565b8160e0015161116f9190612107565b4210155b15611182575060009392505050565b506060015192915050565b600081815260056020526040902054806111a957506000919050565b60006111b482610f1f565b90508060e0015142106111ca5750600092915050565b50919050565b6000806111ea83600001518460800151856060015161187d565b60038111156111fb576111fb612232565b1492915050565b611291604051806101e00160405280600081526020016000815260200160008152602001600081526020016000815260200160008152602001600073ffffffffffffffffffffffffffffffffffffffff16815260200160008152602001600081526020016000815260200160008152602001600081526020016000815260200160008152602001600081525090565b82610180015161271114156112b1576112aa6000610f1f565b9050610248565b60008215806112c35750610100840151155b6112e057620151808461010001516112db9190612133565b6112e3565b60005b905060006112fa856112f58442612170565b61198a565b905060006113088683611a25565b9050604051806101e0016040528061133488602001518462ffffff1666ffffffffffffff919091161790565b81526020018760200151815260200182815260200187600001518152602001876080015181526020016113678885611a86565b81526020018760c0015173ffffffffffffffffffffffffffffffffffffffff1681526020018381526020018761010001518152602001876101200151815260200187610140015181526020018761016001518152602001876101800151815260200160008152602001876101c00151815250935050505092915050565b6000838152600560205260408120546114135761140c846114056000610f1f565b4285611b3a565b9050610462565b61141c8461118d565b9050801561145857600061143b61143283610f1f565b60600151610f1f565b90506114518161144b8387611bf6565b85611cc5565b5050610462565b611461846110bd565b9050801561148b5761147281611d57565b6114865761147f81610f1f565b6060015190505b6114b8565b506000838152600560205260409020546114a481611d57565b6114b8576114b181610f1f565b6060015190505b60006114c382610f1f565b905061271181610180015110611535576040517f08c379a000000000000000000000000000000000000000000000000000000000815260206004820152601360248201527f307831633a204e4f4e5f524543555252494e470000000000000000000000000060448201526064016105d4565b60006115418286611bf6565b9050610e6886838387611b3a565b600061155a826110bd565b90508061156d5761156a8261118d565b90505b6115fc604051806101e00160405280600081526020016000815260200160008152602001600081526020016000815260200160008152602001600073ffffffffffffffffffffffffffffffffffffffff16815260200160008152602001600081526020016000815260200160008152602001600081526020016000815260200160008152602001600081525090565b811561163c5761160b82610f1f565b9050428160e00151111580156116255750611625816111d0565b156116305750919050565b8060600151915061166d565b600083815260056020526040902054915061165682610f1f565b9050611661816111d0565b61166d57806060015191505b600082116116d7576040517f08c379a000000000000000000000000000000000000000000000000000000000815260206004820152600f60248201527f307831643a204e4f545f464f554e44000000000000000000000000000000000060448201526064016105d4565b6116e082610f1f565b905061271181610180015110611752576040517f08c379a000000000000000000000000000000000000000000000000000000000815260206004820152601360248201527f307831653a204e4f4e5f524543555252494e470000000000000000000000000060448201526064016105d4565b6000620151808261010001516117689190612133565b8260e001516117779190612107565b905060008261010001516000146117b5576201518083610100015161179c9190612133565b6117a68342612170565b6117b091906121c0565b6117b8565b60005b90506117d085846117c98442612170565b6000611b3a565b608084015160c0850151610100860151610140870151610160880151610180890151600087815260208190526040902073ffffffffffffffffffffffffffffffffffffffff90951660a09690961b9590951760d09390931b9290921760e09190911b1760e89190911b1760f09290921b9190911790559350505080516000908152600260209081526040808320548584528184205592518252600390528181205483825291902055919050565b60008161188c57506000610462565b600061189783610f1f565b9050838160800151106118ae576000915050610462565b60c081015173ffffffffffffffffffffffffffffffffffffffff161561197e5760c08101516040517f4d393dc9000000000000000000000000000000000000000000000000000000008152600481018790526024810186905273ffffffffffffffffffffffffffffffffffffffff90911690634d393dc99060440160206040518083038186803b15801561194157600080fd5b505afa158015611955573d6000803e3d6000fd5b505050506040513d601f19601f820116820180604052508101906119799190611ead565b611981565b60005b95945050505050565b6000826101000151600014156119a1575080610248565b6000620151808461010001516119b79190612133565b90506000818560e001516119cb9190612107565b90508381106119dd5791506102489050565b6000826119ea8387612170565b6119f491906121c0565b9050611a008186612170565b93505b83851115611a1c57611a158385612107565b9350611a03565b50505092915050565b600082610100015160001415611a455760408301516112aa906001612107565b60008360e0015183611a579190612170565b905062015180846101000151611a6d9190612133565b611a77908261211f565b846040015161037c9190612107565b600082610100015160001415611ab9576112aa8360a00151846101800151612710611ab19190612170565b612710611d6e565b5060a0820151610180830151611ace57610248565b60008360e0015183611ae09190612170565b9050600062015180856101000151611af89190612133565b611b02908361211f565b905060005b81811015611a1c57611b2684876101800151612710611ab19190612170565b935080611b3281612187565b915050611b07565b8251600090611ba157508251600166ffffffffffffff861681176000818152602083905260409020605088901b851760889490941b939093174260b81b177d0100000000000000000000000000000000000000000000000000000000001790925550611baf565b611bac848484611cc5565b90505b600085815260056020526040808220839055855190519091879184917ff1bd4f3fcb4e0b193abc7e4002c0284e25086269a02de2e4c52045a91f64703791a4949350505050565b60c082015160009073ffffffffffffffffffffffffffffffffffffffff16611c1f575042610248565b60008360c0015173ffffffffffffffffffffffffffffffffffffffff16630fb5a6b46040518163ffffffff1660e01b815260040160206040518083038186803b158015611c6b57600080fd5b505afa158015611c7f573d6000803e3d6000fd5b505050506040513d601f19601f82011682018060405250810190611ca39190611ee7565b611cad9084612107565b9050804211611cbc578061037c565b50429392505050565b600080611cd2858561198a565b905060008311611ceb57611ce68582611a86565b611cfc565b82600114611cf95782611cfc565b60005b92506000611d0a8683611a25565b602087810151885166ffffffffffffff821662ffffff85161760008181526001909452604090932060509290921b881760889190911b1760b886901b1760e884901b179055909150610e68565b600080611d6383610f1f565b9050610462816111d0565b600080807fffffffffffffffffffffffffffffffffffffffffffffffffffffffffffffffff8587098587029250828110838203039150508060001415611dc757838281611dbd57611dbd612203565b0492505050610462565b838110611e0a576040517f773cc18c00000000000000000000000000000000000000000000000000000000815260048101829052602481018590526044016105d4565b60008486880960026001871981018816978890046003810283188082028403028082028403028082028403028082028403028082028403029081029092039091026000889003889004909101858311909403939093029303949094049190911702949350505050565b600060208284031215611e8557600080fd5b815161046281612261565b600060208284031215611ea257600080fd5b813561046281612261565b600060208284031215611ebf57600080fd5b81516004811061046257600080fd5b600060208284031215611ee057600080fd5b5035919050565b600060208284031215611ef957600080fd5b5051919050565b600080600080848603610120811215611f1857600080fd5b8535945060c07fffffffffffffffffffffffffffffffffffffffffffffffffffffffffffffffe082011215611f4c57600080fd5b50929560208501955060e08501359461010001359350915050565b60008060408385031215611f7a57600080fd5b50508035926020909101359150565b6020810160048310611fc4577f4e487b7100000000000000000000000000000000000000000000000000000000600052602160045260246000fd5b91905290565b600061010082019050843582526020850135602083015260408501356040830152606085013560608301526080850135608083015260a085013561200d81612261565b73ffffffffffffffffffffffffffffffffffffffff80821660a08501528560c085015280851660e08501525050949350505050565b60006101e082019050825182526020830151602083015260408301516040830152606083015160608301526080830151608083015260a083015160a083015260c08301516120a860c084018273ffffffffffffffffffffffffffffffffffffffff169052565b5060e08381015190830152610100808401519083015261012080840151908301526101408084015190830152610160808401519083015261018080840151908301526101a080840151908301526101c092830151929091019190915290565b6000821982111561211a5761211a6121d4565b500190565b60008261212e5761212e612203565b500490565b6000817fffffffffffffffffffffffffffffffffffffffffffffffffffffffffffffffff048311821515161561216b5761216b6121d4565b500290565b600082821015612182576121826121d4565b500390565b60007fffffffffffffffffffffffffffffffffffffffffffffffffffffffffffffffff8214156121b9576121b96121d4565b5060010190565b6000826121cf576121cf612203565b500690565b7f4e487b7100000000000000000000000000000000000000000000000000000000600052601160045260246000fd5b7f4e487b7100000000000000000000000000000000000000000000000000000000600052601260045260246000fd5b7f4e487b7100000000000000000000000000000000000000000000000000000000600052602160045260246000fd5b73ffffffffffffffffffffffffffffffffffffffff8116811461228357600080fd5b5056fea2646970667358221220bf7266421ce0eb18ee8e93e7c15b0441fedf8657bb6317315c6f9c36afd2193764736f6c63430008060033",
  "devdoc": {
    "kind": "dev",
    "methods": {
      "configureFor(uint256,(uint256,uint256,uint256,uint256,uint256,address),uint256,uint256)": {
        "details": "Only a project's current controller can configure its funding cycles._data.target The amount that the project wants to receive in each funding cycle. 18 decimals._data.currency The currency of the `_target`. Send 0 for ETH or 1 for USD._data.duration The duration of the funding cycle for which the `_target` amount is needed. Measured in days.  Set to 0 for no expiry and to be able to reconfigure anytime._data.discountRate A number from 0-10000 indicating how valuable a contribution to this funding cycle is compared to previous funding cycles. If it's 0, each funding cycle will have equal weight. If the number is 9000, a contribution to the next funding cycle will only give you 10% of tickets given to a contribution of the same amoutn during the current funding cycle. If the number is 10001, an non-recurring funding cycle will get made._data.ballot The new ballot that will be used to approve subsequent reconfigurations.",
        "params": {
          "_data": "The funding cycle configuration.",
          "_fee": "The fee that this configuration incurs when tapping.",
          "_metadata": "Data to associate with this funding cycle configuration.",
          "_projectId": "The ID of the project being configured."
        },
        "returns": {
          "_0": "The funding cycle that the configuration will take effect during."
        }
      },
      "constructor": {
        "params": {
          "_directory": "A contract storing directories of terminals and controllers for each project."
        }
      },
      "currentBallotStateOf(uint256)": {
        "params": {
          "_projectId": "The ID of the project to check the ballot state of."
        },
        "returns": {
          "_0": "The current ballot's state."
        }
      },
      "currentOf(uint256)": {
        "details": "Returns an empty funding cycle with an ID of 0 if a current funding cycle of the project is not found. This runs very similar logic to `_tappableOf`.",
        "params": {
          "_projectId": "The ID of the project to get the current funding cycle of."
        },
        "returns": {
          "fundingCycle": "The current funding cycle."
        }
      },
      "get(uint256)": {
        "params": {
          "_fundingCycleId": "The ID of the funding cycle to get."
        },
        "returns": {
          "fundingCycle": "The funding cycle."
        }
      },
      "queuedOf(uint256)": {
        "details": "Returns an empty funding cycle with an ID of 0 if a queued funding cycle of the project is not found. This runs roughly similar logic to `_configurableOf`.",
        "params": {
          "_projectId": "The ID of the project to get the queued funding cycle of."
        },
        "returns": {
          "_0": "_fundingCycle The queued funding cycle."
        }
      },
      "tapFrom(uint256,uint256)": {
        "details": "Only a project's current controller can tap funds for its funding cycles.",
        "params": {
          "_amount": "The amount being tapped.",
          "_projectId": "The ID of the project being tapped."
        },
        "returns": {
          "_0": "The tapped funding cycle."
        }
      }
    },
    "version": 1
  },
  "userdoc": {
    "errors": {
      "PRBMath__MulDivOverflow(uint256,uint256)": [
        {
          "notice": "Emitted when the result overflows uint256."
        }
      ]
    },
    "kind": "user",
    "methods": {
      "configureFor(uint256,(uint256,uint256,uint256,uint256,uint256,address),uint256,uint256)": {
        "notice": " Configures the next eligible funding cycle for the specified project."
      },
      "currentBallotStateOf(uint256)": {
        "notice": " The currency ballot state of the project."
      },
      "currentOf(uint256)": {
        "notice": " The funding cycle that is currently active for the specified project."
      },
      "directory()": {
        "notice": " The directory of terminals and controllers for projects."
      },
      "get(uint256)": {
        "notice": " Get the funding cycle with the given ID."
      },
      "latestIdOf(uint256)": {
        "notice": " The ID of the latest funding cycle for each project. _projectId The ID of the project to get the latest funding cycle ID of."
      },
      "queuedOf(uint256)": {
        "notice": " The funding cycle that's next up for the specified project."
      },
      "tapFrom(uint256,uint256)": {
        "notice": " Tap funds from a project's currently tappable funding cycle."
      }
    },
    "notice": " Manages funding cycle configurations, accounting, and scheduling.",
    "version": 1
  },
  "storageLayout": {
    "storage": [
      {
        "astId": 19629,
        "contract": "contracts/v2/JBFundingCycleStore.sol:JBFundingCycleStore",
        "label": "_packedConfigurationPropertiesOf",
        "offset": 0,
        "slot": "0",
        "type": "t_mapping(t_uint256,t_uint256)"
      },
      {
        "astId": 19634,
        "contract": "contracts/v2/JBFundingCycleStore.sol:JBFundingCycleStore",
        "label": "_packedIntrinsicPropertiesOf",
        "offset": 0,
        "slot": "1",
        "type": "t_mapping(t_uint256,t_uint256)"
      },
      {
        "astId": 19639,
        "contract": "contracts/v2/JBFundingCycleStore.sol:JBFundingCycleStore",
        "label": "_metadataOf",
        "offset": 0,
        "slot": "2",
        "type": "t_mapping(t_uint256,t_uint256)"
      },
      {
        "astId": 19644,
        "contract": "contracts/v2/JBFundingCycleStore.sol:JBFundingCycleStore",
        "label": "_targetOf",
        "offset": 0,
        "slot": "3",
        "type": "t_mapping(t_uint256,t_uint256)"
      },
      {
        "astId": 19649,
        "contract": "contracts/v2/JBFundingCycleStore.sol:JBFundingCycleStore",
        "label": "_tappedAmountOf",
        "offset": 0,
        "slot": "4",
        "type": "t_mapping(t_uint256,t_uint256)"
      },
      {
        "astId": 19655,
        "contract": "contracts/v2/JBFundingCycleStore.sol:JBFundingCycleStore",
        "label": "latestIdOf",
        "offset": 0,
        "slot": "5",
        "type": "t_mapping(t_uint256,t_uint256)"
      }
    ],
    "types": {
      "t_mapping(t_uint256,t_uint256)": {
        "encoding": "mapping",
        "key": "t_uint256",
        "label": "mapping(uint256 => uint256)",
        "numberOfBytes": "32",
        "value": "t_uint256"
      },
      "t_uint256": {
        "encoding": "inplace",
        "label": "uint256",
        "numberOfBytes": "32"
      }
    }
  }
}