{
  "address": "0x7Bf5Aa19778644B314fFC6f781c6f89CD873E71c",
  "abi": [
    {
      "inputs": [
        {
          "internalType": "contract IJBDirectory",
          "name": "_directory",
          "type": "address"
        }
      ],
      "stateMutability": "nonpayable",
      "type": "constructor"
    },
    {
      "inputs": [
        {
          "internalType": "uint256",
          "name": "prod1",
          "type": "uint256"
        },
        {
          "internalType": "uint256",
          "name": "denominator",
          "type": "uint256"
        }
      ],
      "name": "PRBMath__MulDivOverflow",
      "type": "error"
    },
    {
      "anonymous": false,
      "inputs": [
        {
          "indexed": true,
          "internalType": "uint256",
          "name": "fundingCycleId",
          "type": "uint256"
        },
        {
          "indexed": true,
          "internalType": "uint256",
          "name": "projectId",
          "type": "uint256"
        },
        {
          "indexed": false,
          "internalType": "uint256",
          "name": "reconfigured",
          "type": "uint256"
        },
        {
          "components": [
            {
              "internalType": "uint256",
              "name": "target",
              "type": "uint256"
            },
            {
              "internalType": "uint256",
              "name": "currency",
              "type": "uint256"
            },
            {
              "internalType": "uint256",
              "name": "duration",
              "type": "uint256"
            },
            {
              "internalType": "uint256",
              "name": "cycleLimit",
              "type": "uint256"
            },
            {
              "internalType": "uint256",
              "name": "discountRate",
              "type": "uint256"
            },
            {
              "internalType": "contract IJBFundingCycleBallot",
              "name": "ballot",
              "type": "address"
            }
          ],
          "indexed": false,
          "internalType": "struct FundingCycleProperties",
          "name": "properties",
          "type": "tuple"
        },
        {
          "indexed": false,
          "internalType": "uint256",
          "name": "metadata",
          "type": "uint256"
        },
        {
          "indexed": false,
          "internalType": "address",
          "name": "caller",
          "type": "address"
        }
      ],
      "name": "Configure",
      "type": "event"
    },
    {
      "anonymous": false,
      "inputs": [
        {
          "indexed": true,
          "internalType": "uint256",
          "name": "fundingCycleId",
          "type": "uint256"
        },
        {
          "indexed": true,
          "internalType": "uint256",
          "name": "projectId",
          "type": "uint256"
        },
        {
          "indexed": true,
          "internalType": "uint256",
          "name": "number",
          "type": "uint256"
        },
        {
          "indexed": false,
          "internalType": "uint256",
          "name": "basedOn",
          "type": "uint256"
        },
        {
          "indexed": false,
          "internalType": "uint256",
          "name": "weight",
          "type": "uint256"
        },
        {
          "indexed": false,
          "internalType": "uint256",
          "name": "start",
          "type": "uint256"
        }
      ],
      "name": "Init",
      "type": "event"
    },
    {
      "anonymous": false,
      "inputs": [
        {
          "indexed": true,
          "internalType": "uint256",
          "name": "fundingCycleId",
          "type": "uint256"
        },
        {
          "indexed": true,
          "internalType": "uint256",
          "name": "projectId",
          "type": "uint256"
        },
        {
          "indexed": false,
          "internalType": "uint256",
          "name": "amount",
          "type": "uint256"
        },
        {
          "indexed": false,
          "internalType": "uint256",
          "name": "newTappedAmount",
          "type": "uint256"
        },
        {
          "indexed": false,
          "internalType": "address",
          "name": "caller",
          "type": "address"
        }
      ],
      "name": "Tap",
      "type": "event"
    },
    {
      "inputs": [],
      "name": "BASE_WEIGHT",
      "outputs": [
        {
          "internalType": "uint256",
          "name": "",
          "type": "uint256"
        }
      ],
      "stateMutability": "view",
      "type": "function"
    },
    {
      "inputs": [],
      "name": "MAX_CYCLE_LIMIT",
      "outputs": [
        {
          "internalType": "uint256",
          "name": "",
          "type": "uint256"
        }
      ],
      "stateMutability": "view",
      "type": "function"
    },
    {
      "inputs": [
        {
          "internalType": "uint256",
          "name": "_projectId",
          "type": "uint256"
        },
        {
          "internalType": "uint256",
          "name": "_number",
          "type": "uint256"
        },
        {
          "components": [
            {
              "internalType": "uint256",
              "name": "id",
              "type": "uint256"
            },
            {
              "internalType": "uint256",
              "name": "projectId",
              "type": "uint256"
            },
            {
              "internalType": "uint256",
              "name": "number",
              "type": "uint256"
            },
            {
              "internalType": "uint256",
              "name": "basedOn",
              "type": "uint256"
            },
            {
              "internalType": "uint256",
              "name": "configured",
              "type": "uint256"
            },
            {
              "internalType": "uint256",
              "name": "cycleLimit",
              "type": "uint256"
            },
            {
              "internalType": "uint256",
              "name": "weight",
              "type": "uint256"
            },
            {
              "internalType": "contract IJBFundingCycleBallot",
              "name": "ballot",
              "type": "address"
            },
            {
              "internalType": "uint256",
              "name": "start",
              "type": "uint256"
            },
            {
              "internalType": "uint256",
              "name": "duration",
              "type": "uint256"
            },
            {
              "internalType": "uint256",
              "name": "target",
              "type": "uint256"
            },
            {
              "internalType": "uint256",
              "name": "currency",
              "type": "uint256"
            },
            {
              "internalType": "uint256",
              "name": "fee",
              "type": "uint256"
            },
            {
              "internalType": "uint256",
              "name": "discountRate",
              "type": "uint256"
            },
            {
              "internalType": "uint256",
              "name": "tapped",
              "type": "uint256"
            },
            {
              "internalType": "uint256",
              "name": "metadata",
              "type": "uint256"
            }
          ],
          "internalType": "struct FundingCycle",
          "name": "_fundingCycle",
          "type": "tuple"
        }
      ],
      "name": "bootload",
      "outputs": [],
      "stateMutability": "nonpayable",
      "type": "function"
    },
    {
      "inputs": [
        {
          "internalType": "uint256",
          "name": "_projectId",
          "type": "uint256"
        },
        {
          "components": [
            {
              "internalType": "uint256",
              "name": "target",
              "type": "uint256"
            },
            {
              "internalType": "uint256",
              "name": "currency",
              "type": "uint256"
            },
            {
              "internalType": "uint256",
              "name": "duration",
              "type": "uint256"
            },
            {
              "internalType": "uint256",
              "name": "cycleLimit",
              "type": "uint256"
            },
            {
              "internalType": "uint256",
              "name": "discountRate",
              "type": "uint256"
            },
            {
              "internalType": "contract IJBFundingCycleBallot",
              "name": "ballot",
              "type": "address"
            }
          ],
          "internalType": "struct FundingCycleProperties",
          "name": "_properties",
          "type": "tuple"
        },
        {
          "internalType": "uint256",
          "name": "_metadata",
          "type": "uint256"
        },
        {
          "internalType": "uint256",
          "name": "_fee",
          "type": "uint256"
        },
        {
          "internalType": "bool",
          "name": "_configureActiveFundingCycle",
          "type": "bool"
        }
      ],
      "name": "configureFor",
      "outputs": [
        {
          "components": [
            {
              "internalType": "uint256",
              "name": "id",
              "type": "uint256"
            },
            {
              "internalType": "uint256",
              "name": "projectId",
              "type": "uint256"
            },
            {
              "internalType": "uint256",
              "name": "number",
              "type": "uint256"
            },
            {
              "internalType": "uint256",
              "name": "basedOn",
              "type": "uint256"
            },
            {
              "internalType": "uint256",
              "name": "configured",
              "type": "uint256"
            },
            {
              "internalType": "uint256",
              "name": "cycleLimit",
              "type": "uint256"
            },
            {
              "internalType": "uint256",
              "name": "weight",
              "type": "uint256"
            },
            {
              "internalType": "contract IJBFundingCycleBallot",
              "name": "ballot",
              "type": "address"
            },
            {
              "internalType": "uint256",
              "name": "start",
              "type": "uint256"
            },
            {
              "internalType": "uint256",
              "name": "duration",
              "type": "uint256"
            },
            {
              "internalType": "uint256",
              "name": "target",
              "type": "uint256"
            },
            {
              "internalType": "uint256",
              "name": "currency",
              "type": "uint256"
            },
            {
              "internalType": "uint256",
              "name": "fee",
              "type": "uint256"
            },
            {
              "internalType": "uint256",
              "name": "discountRate",
              "type": "uint256"
            },
            {
              "internalType": "uint256",
              "name": "tapped",
              "type": "uint256"
            },
            {
              "internalType": "uint256",
              "name": "metadata",
              "type": "uint256"
            }
          ],
          "internalType": "struct FundingCycle",
          "name": "fundingCycle",
          "type": "tuple"
        }
      ],
      "stateMutability": "nonpayable",
      "type": "function"
    },
    {
      "inputs": [
        {
          "internalType": "uint256",
          "name": "_projectId",
          "type": "uint256"
        }
      ],
      "name": "currentBallotStateOf",
      "outputs": [
        {
          "internalType": "enum BallotState",
          "name": "",
          "type": "uint8"
        }
      ],
      "stateMutability": "view",
      "type": "function"
    },
    {
      "inputs": [
        {
          "internalType": "uint256",
          "name": "_projectId",
          "type": "uint256"
        }
      ],
      "name": "currentOf",
      "outputs": [
        {
          "components": [
            {
              "internalType": "uint256",
              "name": "id",
              "type": "uint256"
            },
            {
              "internalType": "uint256",
              "name": "projectId",
              "type": "uint256"
            },
            {
              "internalType": "uint256",
              "name": "number",
              "type": "uint256"
            },
            {
              "internalType": "uint256",
              "name": "basedOn",
              "type": "uint256"
            },
            {
              "internalType": "uint256",
              "name": "configured",
              "type": "uint256"
            },
            {
              "internalType": "uint256",
              "name": "cycleLimit",
              "type": "uint256"
            },
            {
              "internalType": "uint256",
              "name": "weight",
              "type": "uint256"
            },
            {
              "internalType": "contract IJBFundingCycleBallot",
              "name": "ballot",
              "type": "address"
            },
            {
              "internalType": "uint256",
              "name": "start",
              "type": "uint256"
            },
            {
              "internalType": "uint256",
              "name": "duration",
              "type": "uint256"
            },
            {
              "internalType": "uint256",
              "name": "target",
              "type": "uint256"
            },
            {
              "internalType": "uint256",
              "name": "currency",
              "type": "uint256"
            },
            {
              "internalType": "uint256",
              "name": "fee",
              "type": "uint256"
            },
            {
              "internalType": "uint256",
              "name": "discountRate",
              "type": "uint256"
            },
            {
              "internalType": "uint256",
              "name": "tapped",
              "type": "uint256"
            },
            {
              "internalType": "uint256",
              "name": "metadata",
              "type": "uint256"
            }
          ],
          "internalType": "struct FundingCycle",
          "name": "fundingCycle",
          "type": "tuple"
        }
      ],
      "stateMutability": "view",
      "type": "function"
    },
    {
      "inputs": [],
      "name": "directory",
      "outputs": [
        {
          "internalType": "contract IJBDirectory",
          "name": "",
          "type": "address"
        }
      ],
      "stateMutability": "view",
      "type": "function"
    },
    {
      "inputs": [
        {
          "internalType": "uint256",
          "name": "_fundingCycleId",
          "type": "uint256"
        }
      ],
      "name": "get",
      "outputs": [
        {
          "components": [
            {
              "internalType": "uint256",
              "name": "id",
              "type": "uint256"
            },
            {
              "internalType": "uint256",
              "name": "projectId",
              "type": "uint256"
            },
            {
              "internalType": "uint256",
              "name": "number",
              "type": "uint256"
            },
            {
              "internalType": "uint256",
              "name": "basedOn",
              "type": "uint256"
            },
            {
              "internalType": "uint256",
              "name": "configured",
              "type": "uint256"
            },
            {
              "internalType": "uint256",
              "name": "cycleLimit",
              "type": "uint256"
            },
            {
              "internalType": "uint256",
              "name": "weight",
              "type": "uint256"
            },
            {
              "internalType": "contract IJBFundingCycleBallot",
              "name": "ballot",
              "type": "address"
            },
            {
              "internalType": "uint256",
              "name": "start",
              "type": "uint256"
            },
            {
              "internalType": "uint256",
              "name": "duration",
              "type": "uint256"
            },
            {
              "internalType": "uint256",
              "name": "target",
              "type": "uint256"
            },
            {
              "internalType": "uint256",
              "name": "currency",
              "type": "uint256"
            },
            {
              "internalType": "uint256",
              "name": "fee",
              "type": "uint256"
            },
            {
              "internalType": "uint256",
              "name": "discountRate",
              "type": "uint256"
            },
            {
              "internalType": "uint256",
              "name": "tapped",
              "type": "uint256"
            },
            {
              "internalType": "uint256",
              "name": "metadata",
              "type": "uint256"
            }
          ],
          "internalType": "struct FundingCycle",
          "name": "",
          "type": "tuple"
        }
      ],
      "stateMutability": "view",
      "type": "function"
    },
    {
      "inputs": [
        {
          "internalType": "uint256",
          "name": "",
          "type": "uint256"
        }
      ],
      "name": "latestIdOf",
      "outputs": [
        {
          "internalType": "uint256",
          "name": "",
          "type": "uint256"
        }
      ],
      "stateMutability": "view",
      "type": "function"
    },
    {
      "inputs": [
        {
          "internalType": "uint256",
          "name": "_projectId",
          "type": "uint256"
        }
      ],
      "name": "queuedOf",
      "outputs": [
        {
          "components": [
            {
              "internalType": "uint256",
              "name": "id",
              "type": "uint256"
            },
            {
              "internalType": "uint256",
              "name": "projectId",
              "type": "uint256"
            },
            {
              "internalType": "uint256",
              "name": "number",
              "type": "uint256"
            },
            {
              "internalType": "uint256",
              "name": "basedOn",
              "type": "uint256"
            },
            {
              "internalType": "uint256",
              "name": "configured",
              "type": "uint256"
            },
            {
              "internalType": "uint256",
              "name": "cycleLimit",
              "type": "uint256"
            },
            {
              "internalType": "uint256",
              "name": "weight",
              "type": "uint256"
            },
            {
              "internalType": "contract IJBFundingCycleBallot",
              "name": "ballot",
              "type": "address"
            },
            {
              "internalType": "uint256",
              "name": "start",
              "type": "uint256"
            },
            {
              "internalType": "uint256",
              "name": "duration",
              "type": "uint256"
            },
            {
              "internalType": "uint256",
              "name": "target",
              "type": "uint256"
            },
            {
              "internalType": "uint256",
              "name": "currency",
              "type": "uint256"
            },
            {
              "internalType": "uint256",
              "name": "fee",
              "type": "uint256"
            },
            {
              "internalType": "uint256",
              "name": "discountRate",
              "type": "uint256"
            },
            {
              "internalType": "uint256",
              "name": "tapped",
              "type": "uint256"
            },
            {
              "internalType": "uint256",
              "name": "metadata",
              "type": "uint256"
            }
          ],
          "internalType": "struct FundingCycle",
          "name": "",
          "type": "tuple"
        }
      ],
      "stateMutability": "view",
      "type": "function"
    },
    {
      "inputs": [
        {
          "internalType": "uint256",
          "name": "_projectId",
          "type": "uint256"
        },
        {
          "internalType": "uint256",
          "name": "_amount",
          "type": "uint256"
        }
      ],
      "name": "tapFrom",
      "outputs": [
        {
          "components": [
            {
              "internalType": "uint256",
              "name": "id",
              "type": "uint256"
            },
            {
              "internalType": "uint256",
              "name": "projectId",
              "type": "uint256"
            },
            {
              "internalType": "uint256",
              "name": "number",
              "type": "uint256"
            },
            {
              "internalType": "uint256",
              "name": "basedOn",
              "type": "uint256"
            },
            {
              "internalType": "uint256",
              "name": "configured",
              "type": "uint256"
            },
            {
              "internalType": "uint256",
              "name": "cycleLimit",
              "type": "uint256"
            },
            {
              "internalType": "uint256",
              "name": "weight",
              "type": "uint256"
            },
            {
              "internalType": "contract IJBFundingCycleBallot",
              "name": "ballot",
              "type": "address"
            },
            {
              "internalType": "uint256",
              "name": "start",
              "type": "uint256"
            },
            {
              "internalType": "uint256",
              "name": "duration",
              "type": "uint256"
            },
            {
              "internalType": "uint256",
              "name": "target",
              "type": "uint256"
            },
            {
              "internalType": "uint256",
              "name": "currency",
              "type": "uint256"
            },
            {
              "internalType": "uint256",
              "name": "fee",
              "type": "uint256"
            },
            {
              "internalType": "uint256",
              "name": "discountRate",
              "type": "uint256"
            },
            {
              "internalType": "uint256",
              "name": "tapped",
              "type": "uint256"
            },
            {
              "internalType": "uint256",
              "name": "metadata",
              "type": "uint256"
            }
          ],
          "internalType": "struct FundingCycle",
          "name": "fundingCycle",
          "type": "tuple"
        }
      ],
      "stateMutability": "nonpayable",
      "type": "function"
    }
  ],
  "transactionHash": "0xd57cc1f0f1f4b0b76e229716eebaa9d900d411a374003ec0dafb428b6db61c65",
  "args": [
    "0xf835913B60B870A3a14b6C7179fEDF0fEba49D93"
  ],
  "solcInputHash": "096d8193c9ef3fa94853075f8aa2d2db",
  "bytecode": "0x60a06040523480156200001157600080fd5b5060405162002b6638038062002b6683398101604081905262000034916200004a565b60601b6001600160601b0319166080526200007c565b6000602082840312156200005d57600080fd5b81516001600160a01b03811681146200007557600080fd5b9392505050565b60805160601c612ab6620000b06000396000818161014a015281816107350152818161095e0152610c860152612ab66000f3fe608060405234801561001057600080fd5b50600436106100c95760003560e01c8063c41c2f2411610081578063cdce9b2b1161005b578063cdce9b2b146101c4578063d614edc5146101f2578063e16fd0ec146101fa57600080fd5b8063c41c2f2414610145578063c55f571c14610191578063ca2148f0146101b157600080fd5b80639507d39a116100b25780639507d39a1461010a578063a7f166b51461011d578063c2e61f641461013057600080fd5b806343a266c2146100ce5780635c550078146100f7575b600080fd5b6100e16100dc366004612523565b61020b565b6040516100ee9190612760565b60405180910390f35b6100e1610105366004612523565b6103f9565b6100e1610118366004612523565b61055c565b6100e161012b3660046125db565b610650565b61014361013e3660046125fd565b61090f565b005b61016c7f000000000000000000000000000000000000000000000000000000000000000081565b60405173ffffffffffffffffffffffffffffffffffffffff90911681526020016100ee565b6101a461019f366004612523565b610b01565b6040516100ee919061271f565b6100e16101bf366004612555565b610ba1565b6101e46101d2366004612523565b60056020526000908152604090205481565b6040519081526020016100ee565b6101e4602081565b6101e469d3c21bcecceda100000081565b6102a160405180610200016040528060008152602001600081526020016000815260200160008152602001600081526020016000815260200160008152602001600073ffffffffffffffffffffffffffffffffffffffff16815260200160008152602001600081526020016000815260200160008152602001600081526020016000815260200160008152602001600081525090565b6000828152600560205260409020546102c4576102be600061100d565b92915050565b60006102cf836111be565b9050806102e2576102df836112b1565b90505b61037860405180610200016040528060008152602001600081526020016000815260200160008152602001600081526020016000815260200160008152602001600073ffffffffffffffffffffffffffffffffffffffff16815260200160008152602001600081526020016000815260200160008152602001600081526020016000815260200160008152602001600081525090565b81156103ba576103878261100d565b905042816101000151111580156103a257506103a2816112f5565b156103ae579392505050565b806060015191506103cc565b60008481526005602052604090205491505b816103e3576103db600061100d565b949350505050565b6103ec8261100d565b90506103db816001611327565b61048f60405180610200016040528060008152602001600081526020016000815260200160008152602001600081526020016000815260200160008152602001600073ffffffffffffffffffffffffffffffffffffffff16815260200160008152602001600081526020016000815260200160008152602001600081526020016000815260200160008152602001600081525090565b6000828152600560205260409020546104ac576102be600061100d565b60006104b7836112b1565b905080156104cf576104c88161100d565b9392505050565b6104d8836111be565b905080156105295760006104eb8261100d565b905080610120015160001415610505576103db600061100d565b61050e816112f5565b1561051e576103db816000611327565b60600151905061053a565b506000828152600560205260409020545b80610549576104c8600061100d565b6104c86105558261100d565b6000611327565b6105f260405180610200016040528060008152602001600081526020016000815260200160008152602001600081526020016000815260200160008152602001600073ffffffffffffffffffffffffffffffffffffffff16815260200160008152602001600081526020016000815260200160008152602001600081526020016000815260200160008152602001600081525090565b600082116106475760405162461bcd60e51b815260206004820152600960248201527f4e4f545f464f554e44000000000000000000000000000000000000000000000060448201526064015b60405180910390fd5b6102be8261100d565b6106e660405180610200016040528060008152602001600081526020016000815260200160008152602001600081526020016000815260200160008152602001600073ffffffffffffffffffffffffffffffffffffffff16815260200160008152602001600081526020016000815260200160008152602001600081526020016000815260200160008152602001600081525090565b6040517f532fbaee00000000000000000000000000000000000000000000000000000000815260048101849052600060248201528390339073ffffffffffffffffffffffffffffffffffffffff7f0000000000000000000000000000000000000000000000000000000000000000169063532fbaee9060440160206040518083038186803b15801561077757600080fd5b505afa15801561078b573d6000803e3d6000fd5b505050506040513d601f19601f820116820180604052508101906107af91906124e5565b73ffffffffffffffffffffffffffffffffffffffff16146108125760405162461bcd60e51b815260206004820152601d60248201527f5465726d696e616c5574696c6974793a20554e415554484f52495a4544000000604482015260640161063e565b600061081d856115cb565b6000818152600460209081526040808320546003909252909120549192509061084790829061296a565b8511156108965760405162461bcd60e51b815260206004820152601260248201527f494e53554646494349454e545f46554e44530000000000000000000000000000604482015260640161063e565b60006108a28683612901565b600084815260046020908152604091829020839055815189815290810183905233818301529051919250889185917fb16453f203e70875883e4ba9c674627ad465d6eb3102bbcad8aa467c0da75fd8919081900360600190a36109048361100d565b979650505050505050565b6040517f532fbaee00000000000000000000000000000000000000000000000000000000815260048101849052600060248201528390339073ffffffffffffffffffffffffffffffffffffffff7f0000000000000000000000000000000000000000000000000000000000000000169063532fbaee9060440160206040518083038186803b1580156109a057600080fd5b505afa1580156109b4573d6000803e3d6000fd5b505050506040513d601f19601f820116820180604052508101906109d891906124e5565b73ffffffffffffffffffffffffffffffffffffffff1614610a3b5760405162461bcd60e51b815260206004820152601d60248201527f5465726d696e616c5574696c6974793a20554e415554484f52495a4544000000604482015260640161063e565b50608081015160a08083015160e0808501516101208601516101608701516101808801516101a089015162ffffff9a909a1666ffffffffffffff8c161760008181526020818152604080832073ffffffffffffffffffffffffffffffffffffffff9098169b909a1b9a909a1760d09590951b949094179290951b9190911760e89190911b1760f09890981b9790971760f89390931b9290921790915561014084015160038452828620556101e09093015160028352818520559383526005905291902055565b600081815260056020526040812054610b5c5760405162461bcd60e51b815260206004820152600960248201527f4e4f545f464f554e440000000000000000000000000000000000000000000000604482015260640161063e565b60008281526005602052604081205490610b758261100d565b9050806060015160001415610b8e575060039392505050565b6103db828260800151836060015161180a565b610c3760405180610200016040528060008152602001600081526020016000815260200160008152602001600081526020016000815260200160008152602001600073ffffffffffffffffffffffffffffffffffffffff16815260200160008152602001600081526020016000815260200160008152602001600081526020016000815260200160008152602001600081525090565b6040517f532fbaee00000000000000000000000000000000000000000000000000000000815260048101879052600060248201528690339073ffffffffffffffffffffffffffffffffffffffff7f0000000000000000000000000000000000000000000000000000000000000000169063532fbaee9060440160206040518083038186803b158015610cc857600080fd5b505afa158015610cdc573d6000803e3d6000fd5b505050506040513d601f19601f82011682018060405250810190610d0091906124e5565b73ffffffffffffffffffffffffffffffffffffffff1614610d635760405162461bcd60e51b815260206004820152601d60248201527f5465726d696e616c5574696c6974793a20554e415554484f52495a4544000000604482015260640161063e565b61ffff60408701351115610db95760405162461bcd60e51b815260206004820152600c60248201527f4241445f4455524154494f4e0000000000000000000000000000000000000000604482015260640161063e565b602086606001351115610e0e5760405162461bcd60e51b815260206004820152600f60248201527f4241445f4359434c455f4c494d49540000000000000000000000000000000000604482015260640161063e565b60c986608001351115610e635760405162461bcd60e51b815260206004820152601160248201527f4241445f444953434f554e545f52415445000000000000000000000000000000604482015260640161063e565b60ff60208701351115610eb85760405162461bcd60e51b815260206004820152600c60248201527f4241445f43555252454e43590000000000000000000000000000000000000000604482015260640161063e565b60c8841115610f095760405162461bcd60e51b815260206004820152600760248201527f4241445f46454500000000000000000000000000000000000000000000000000604482015260640161063e565b426000610f17898387611917565b9050610f96818360608b0135610f3360c08d0160a08e016124c8565b6000938452602084815260409485902073ffffffffffffffffffffffffffffffffffffffff9290921660a09490941b93909317938d013560d01b93909317918c013560e01b9190911760e88a901b1760808c013560f01b1760f89190911b179055565b60008181526003602090815260408083208b35905560029091529081902088905551899082907f738f28809aeff63352b71b8dc894c5e51b2758e1ff1d6b00b50f8dc10916000890610fef9086908d908d903390612830565b60405180910390a36110008161100d565b9998505050505050505050565b6110a360405180610200016040528060008152602001600081526020016000815260200160008152602001600081526020016000815260200160008152602001600073ffffffffffffffffffffffffffffffffffffffff16815260200160008152602001600081526020016000815260200160008152602001600081526020016000815260200160008152602001600081525090565b816110ad57919050565b81815260008281526001602090815260408083205469ffffffffffffffffffff811660c086015266ffffffffffffff605082901c168386015265ffffffffffff608882901c8116606087015260b882901c811661010087015260e891821c838701528685528484528285205473ffffffffffffffffffffffffffffffffffffffff811660e08089019190915260a082811c909316608089015261ffff60d083901c1661012089015260ff9082901c81166101608901529281901c831661018088015260f081901c9092166101a087015260f89190911c90850152848352600382528083205461014085015284835260048252808320546101c08501529382526002905291909120546101e082015290565b600081815260056020526040902054806111da57506000919050565b60006111e58261100d565b9050600081610120015111801561121f57506201518081610120015161120b919061292d565b81610100015161121b9190612901565b4210155b1561122d5750600092915050565b6060810151158061124357508061010001514210155b1561124e5750919050565b600061125d826060015161100d565b90506000816101200151118015611297575062015180816101200151611283919061292d565b8161010001516112939190612901565b4210155b156112a6575060009392505050565b506060015192915050565b600081815260056020526040902054806112cd57506000919050565b60006112d88261100d565b905080610100015142106112ef5750600092915050565b50919050565b60008061130f83600001518460800151856060015161180a565b600381111561132057611320612a2c565b1492915050565b6113bd60405180610200016040528060008152602001600081526020016000815260200160008152602001600081526020016000815260200160008152602001600073ffffffffffffffffffffffffffffffffffffffff16815260200160008152602001600081526020016000815260200160008152602001600081526020016000815260200160008152602001600081525090565b826101a0015160c914156113dc576113d5600061100d565b90506102be565b6000808460a00151116113ef57836113f8565b6113f884611ac8565b9050600083801561140e57506000856101200151115b156114c1576000620151808661012001518760a0015161142e919061292d565b611438919061292d565b8661010001516114489190612901565b905060008660a0015111801561145d57504281105b156114a4576101208301511561149a5762015180836101200151611481919061292d565b61148b824261296a565b61149591906129ba565b61149d565b60005b91506114bb565b620151808661012001516114b8919061292d565b91505b506114c5565b5060005b60006114db86846114d6854261296a565b611b95565b905060006114e98783611ccb565b9050600081156114f957876114fb565b845b905060405180610200016040528060008152602001826020015181526020016115258a8887611d48565b8152825160208201526080808401516040830152606082018590520161154c8a8887611e7c565b81526020018260e0015173ffffffffffffffffffffffffffffffffffffffff1681526020018481526020018261012001518152602001826101400151815260200182610160015181526020018261018001518152602001826101a00151815260200160008152602001826101e001518152509550505050505092915050565b60006115d6826111be565b9050806115e9576115e6826112b1565b90505b61167f60405180610200016040528060008152602001600081526020016000815260200160008152602001600081526020016000815260200160008152602001600073ffffffffffffffffffffffffffffffffffffffff16815260200160008152602001600081526020016000815260200160008152602001600081526020016000815260200160008152602001600081525090565b81156116c05761168e8261100d565b905042816101000151111580156116a957506116a9816112f5565b156116b45750919050565b806060015191506116d2565b60008381526005602052604090205491505b600082116117225760405162461bcd60e51b815260206004820152600960248201527f4e4f545f464f554e440000000000000000000000000000000000000000000000604482015260640161063e565b61172b8261100d565b905060c9816101a00151106117825760405162461bcd60e51b815260206004820152600d60248201527f4e4f4e5f524543555252494e4700000000000000000000000000000000000000604482015260640161063e565b600062015180826101200151611798919061292d565b8261010001516117a89190612901565b905060008261012001516000146117e657620151808361012001516117cd919061292d565b6117d7834261296a565b6117e191906129ba565b6117e9565b60005b905061180185846117fa844261296a565b600161205d565b95945050505050565b600081611819575060006104c8565b60006118248361100d565b9050838160800151141561183c5760009150506104c8565b60e081015173ffffffffffffffffffffffffffffffffffffffff161561190c5760e08101516040517f4d393dc9000000000000000000000000000000000000000000000000000000008152600481018790526024810186905273ffffffffffffffffffffffffffffffffffffffff90911690634d393dc99060440160206040518083038186803b1580156118cf57600080fd5b505afa1580156118e3573d6000803e3d6000fd5b505050506040513d601f19601f820116820180604052508101906119079190612502565b611801565b600095945050505050565b6000838152600560205260408120546119475761194084611938600061100d565b42600061205d565b90506104c8565b611950846112b1565b9050801561198d57600061196f6119668361100d565b6060015161100d565b90506119868161197f838761215d565b600061222c565b50506104c8565b611996846111be565b905080156119cf576119a78161239c565b6119bf576119b48161100d565b6060015190506119e0565b81156119ca576104c8565b6119e0565b506000838152600560205260409020545b6000806119ec8361100d565b905060c9816101a0015110611a435760405162461bcd60e51b815260206004820152600d60248201527f4e4f4e5f524543555252494e4700000000000000000000000000000000000000604482015260640161063e565b8315611aa457610120810151611a60578061010001519150611ab1565b600062015180826101200151611a76919061292d565b610100830151611a86904261296a565b611a9091906129ba565b9050611a9c814261296a565b925050611ab1565b611aae818661215d565b91505b611abe868284600061205d565b9695505050505050565b611b5e60405180610200016040528060008152602001600081526020016000815260200160008152602001600081526020016000815260200160008152602001600073ffffffffffffffffffffffffffffffffffffffff16815260200160008152602001600081526020016000815260200160008152602001600081526020016000815260200160008152602001600081525090565b6060820151611b6b575090565b611b78826060015161100d565b90508060a0015160001415611b8c57919050565b6102be81611ac8565b600083610120015160001415611bac5750806104c8565b600062015180856101200151611bc2919061292d565b9050600081866101000151611bd79190612901565b9050838110611be95791506104c89050565b60a08601516000611bfa828561292d565b886101000151611c0a9190612901565b8611611c2c5783611c1b848861296a565b611c2591906129ba565b9050611c9a565b61012087015115611c7e5762015180876101200151611c4b919061292d565b611c55838661292d565b896101000151611c659190612901565b611c6f908861296a565b611c7991906129ba565b611c81565b60005b905062015180876101200151611c97919061292d565b93505b611ca4818761296a565b94505b84861115611cc057611cb98486612901565b9450611ca7565b505050509392505050565b600060018360a00151111580611ce45750610120830151155b15611cf1575060006102be565b600062015180846101200151611d07919061292d565b610100850151611d17908561296a565b611d219190612919565b90508360a001518110611d385760009150506102be565b808460a001516103db919061296a565b600083610120015160001415611d68576040840151611940906001612901565b600084610100015183611d7b919061296a565b905060008560a00151600014611db35762015180866101200151611d9f919061292d565b8660a00151611dae919061292d565b611db6565b60005b9050801580611dc457508181115b15611dfd5762015180866101200151611ddd919061292d565b611de79083612919565b8660400151611df69190612901565b9250611e73565b62015180866101200151611e11919061292d565b611e1b9082612919565b8660400151611e2a9190612901565b9250846101200151600014611e665762015180856101200151611e4d919061292d565b611e57828461296a565b611e619190612919565b611e69565b60005b611abe9084612901565b50509392505050565b600083610120015160001415611eaf576119408460c00151856101a00151610190611ea7919061296a565b6101906123b3565b600084610100015183611ec2919061296a565b905060008560a0015160001480611edb57506060860151155b611f075762015180866101200151611ef3919061292d565b8660a00151611f02919061292d565b611f0a565b60005b60c087015193509050801580611f1f57508181115b15611f94576101a0860151611f355750506104c8565b600062015180876101200151611f4b919061292d565b611f559084612919565b905060005b81811015611f8d57611f7985896101a00151610190611ea7919061296a565b945080611f8581612981565b915050611f5a565b5050611e73565b6101a086015115611fdb5760005b8660a00151811015611fd957611fc584886101a00151610190611ea7919061296a565b935080611fd181612981565b915050611fa2565b505b6101a085015115611e735760008561012001516000146120225762015180866101200151612009919061292d565b612013838561296a565b61201d9190612919565b612025565b60005b905060005b81811015611cc05761204985886101a00151610190611ea7919061296a565b94508061205581612981565b91505061202a565b825160009081906120c457508351600166ffffffffffffff871681176000818152602083905260409020605089901b60889490941b939093174260b81b177d0100000000000000000000000000000000000000d3c21bcecceda100000017909255506120d2565b6120cf85858561222c565b90505b60008681526005602052604081208290556120ec8261100d565b905080604001518160200151837f3430b8834fcab595f0e68ee663700fdf7bc5e4eaf56d4eec6b0c2fb911b4afae84606001518560c0015186610100015160405161214a939291909283526020830191909152604082015260600190565b60405180910390a4519695505050505050565b60e0820151600090819073ffffffffffffffffffffffffffffffffffffffff16612188576000612214565b8360e0015173ffffffffffffffffffffffffffffffffffffffff16630fb5a6b46040518163ffffffff1660e01b815260040160206040518083038186803b1580156121d257600080fd5b505afa1580156121e6573d6000803e3d6000fd5b505050506040513d601f19601f8201168201806040525081019061220a919061253c565b6122149084612901565b905080421161222357806103db565b50429392505050565b60008060008560a0015111612241578461224a565b61224a85611ac8565b90506000612259868387611b95565b90506000612268878484611e7c565b90506000612277888585611d48565b6020898101518a5166ffffffffffffff821662ffffff85161760008181526001909452604090932060509290921b861760889190911b1760b887901b1760e884901b17905590915094508515611cc05760006122d38985611ccb565b9050600081156122e357896122e5565b855b608081015160e0808301516101208401516101608501516101808601516101a087015160008f81526020818152604080832060f89d909d1b60f09490941b60e89590951b9590981b60d09690961b60a09990991b73ffffffffffffffffffffffffffffffffffffffff9097169690961797909717939093179190911717179095558251825260028552808220548a835281832055915181526003909352808320548884529220919091555093979650505050505050565b6000806123a88361100d565b90506104c8816112f5565b600080807fffffffffffffffffffffffffffffffffffffffffffffffffffffffffffffffff858709858702925082811083820303915050806000141561240c57838281612402576124026129fd565b04925050506104c8565b83811061244f576040517f773cc18c000000000000000000000000000000000000000000000000000000008152600481018290526024810185905260440161063e565b60008486880960026001871981018816978890046003810283188082028403028082028403028082028403028082028403028082028403029081029092039091026000889003889004909101858311909403939093029303949094049190911702949350505050565b80356124c381612a5b565b919050565b6000602082840312156124da57600080fd5b81356104c881612a5b565b6000602082840312156124f757600080fd5b81516104c881612a5b565b60006020828403121561251457600080fd5b8151600481106104c857600080fd5b60006020828403121561253557600080fd5b5035919050565b60006020828403121561254e57600080fd5b5051919050565b600080600080600085870361014081121561256f57600080fd5b8635955060c07fffffffffffffffffffffffffffffffffffffffffffffffffffffffffffffffe0820112156125a357600080fd5b5060208601935060e08601359250610100860135915061012086013580151581146125cd57600080fd5b809150509295509295909350565b600080604083850312156125ee57600080fd5b50508035926020909101359150565b600080600083850361024081121561261457600080fd5b8435935060208501359250610200807fffffffffffffffffffffffffffffffffffffffffffffffffffffffffffffffc08301121561265157600080fd5b6126596128b0565b915060408601358252606086013560208301526080860135604083015260a0860135606083015260c0860135608083015260e086013560a08301526101008087013560c08401526101206126ae8189016124b8565b60e085015261014080890135838601526101609250828901358286015261018091508189013581860152506101a080890135838601526101c0925082890135828601526101e09150818901358186015250828801358285015261022088013581850152505050809150509250925092565b602081016004831061275a577f4e487b7100000000000000000000000000000000000000000000000000000000600052602160045260246000fd5b91905290565b600061020082019050825182526020830151602083015260408301516040830152606083015160608301526080830151608083015260a083015160a083015260c083015160c083015260e08301516127d060e084018273ffffffffffffffffffffffffffffffffffffffff169052565b50610100838101519083015261012080840151908301526101408084015190830152610160808401519083015261018080840151908301526101a080840151908301526101c080840151908301526101e092830151929091019190915290565b60006101208201905085825284356020830152602085013560408301526040850135606083015260608501356080830152608085013560a083015260a085013561287981612a5b565b73ffffffffffffffffffffffffffffffffffffffff80821660c08501528560e0850152808516610100850152505095945050505050565b604051610200810167ffffffffffffffff811182821017156128fb577f4e487b7100000000000000000000000000000000000000000000000000000000600052604160045260246000fd5b60405290565b60008219821115612914576129146129ce565b500190565b600082612928576129286129fd565b500490565b6000817fffffffffffffffffffffffffffffffffffffffffffffffffffffffffffffffff0483118215151615612965576129656129ce565b500290565b60008282101561297c5761297c6129ce565b500390565b60007fffffffffffffffffffffffffffffffffffffffffffffffffffffffffffffffff8214156129b3576129b36129ce565b5060010190565b6000826129c9576129c96129fd565b500690565b7f4e487b7100000000000000000000000000000000000000000000000000000000600052601160045260246000fd5b7f4e487b7100000000000000000000000000000000000000000000000000000000600052601260045260246000fd5b7f4e487b7100000000000000000000000000000000000000000000000000000000600052602160045260246000fd5b73ffffffffffffffffffffffffffffffffffffffff81168114612a7d57600080fd5b5056fea2646970667358221220197316631edc1b6742834d6e51f80d6fc43f7ab1f83096a90ac251c8799b5b8f64736f6c63430008060033",
  "devdoc": {
    "kind": "dev",
    "methods": {
      "configureFor(uint256,(uint256,uint256,uint256,uint256,uint256,address),uint256,uint256,bool)": {
        "details": "Only a project's current terminal can configure its funding cycles._properties.target The amount that the project wants to receive in each funding cycle. 18 decimals._properties.currency The currency of the `_target`. Send 0 for ETH or 1 for USD._properties.duration The duration of the funding cycle for which the `_target` amount is needed. Measured in days.  Set to 0 for no expiry and to be able to reconfigure anytime._cycleLimit The number of cycles that this configuration should last for before going back to the last permanent. This does nothing for a project's first funding cycle._properties.discountRate A number from 0-200 indicating how valuable a contribution to this funding cycle is compared to previous funding cycles. If it's 0, each funding cycle will have equal weight. If the number is 100, a contribution to the next funding cycle will only give you 90% of tickets given to a contribution of the same amount during the current funding cycle. If the number is 200, a contribution to the next funding cycle will only give you 80% of tickets given to a contribution of the same amoutn during the current funding cycle. If the number is 201, an non-recurring funding cycle will get made._ballot The new ballot that will be used to approve subsequent reconfigurations.",
        "params": {
          "_configureActiveFundingCycle": "If a funding cycle that has already started should be configurable.",
          "_fee": "The fee that this configuration will incure when tapping.",
          "_metadata": "Data to associate with this funding cycle configuration.",
          "_projectId": "The ID of the project being reconfigured.",
          "_properties": "The funding cycle configuration."
        },
        "returns": {
          "fundingCycle": "The funding cycle that the configuration will take effect during."
        }
      },
      "constructor": {
        "params": {
          "_directory": "A directory of a project's current Juicebox terminal to receive payments in."
        }
      },
      "currentBallotStateOf(uint256)": {
        "params": {
          "_projectId": "The ID of the project to check for a pending reconfiguration."
        },
        "returns": {
          "_0": "The current ballot's state."
        }
      },
      "currentOf(uint256)": {
        "details": " This runs very similar logic to `_tappable`.",
        "params": {
          "_projectId": "The ID of the project being looked through."
        },
        "returns": {
          "fundingCycle": "The current funding cycle."
        }
      },
      "get(uint256)": {
        "params": {
          "_fundingCycleId": "The ID of the funding cycle to get."
        },
        "returns": {
          "_0": "_fundingCycle The funding cycle."
        }
      },
      "queuedOf(uint256)": {
        "details": " This runs roughly similar logic to `_configurable`.",
        "params": {
          "_projectId": "The ID of the project being looked through."
        },
        "returns": {
          "_0": "_fundingCycle The queued funding cycle."
        }
      },
      "tapFrom(uint256,uint256)": {
        "details": "Only a project's current terminal can tap funds for its funding cycles.",
        "params": {
          "_amount": "The amount being tapped.",
          "_projectId": "The ID of the project being tapped."
        },
        "returns": {
          "fundingCycle": "The tapped funding cycle."
        }
      }
    },
    "version": 1
  },
  "userdoc": {
    "errors": {
      "PRBMath__MulDivOverflow(uint256,uint256)": [
        {
          "notice": "Emitted when the result overflows uint256."
        }
      ]
    },
    "kind": "user",
    "methods": {
      "BASE_WEIGHT()": {
        "notice": "The weight used for each project's first funding cycle."
      },
      "MAX_CYCLE_LIMIT()": {
        "notice": "The maximum value that a cycle limit can be set to."
      },
      "configureFor(uint256,(uint256,uint256,uint256,uint256,uint256,address),uint256,uint256,bool)": {
        "notice": " Configures the next eligible funding cycle for the specified project."
      },
      "currentBallotStateOf(uint256)": {
        "notice": " The currency ballot state of the project."
      },
      "currentOf(uint256)": {
        "notice": " The funding cycle that is currently active for the specified project."
      },
      "directory()": {
        "notice": "The direct deposit terminals."
      },
      "get(uint256)": {
        "notice": " Get the funding cycle with the given ID."
      },
      "latestIdOf(uint256)": {
        "notice": "The ID of the latest funding cycle for each project."
      },
      "queuedOf(uint256)": {
        "notice": " The funding cycle that's next up for a project, and therefor not currently accepting payments."
      },
      "tapFrom(uint256,uint256)": {
        "notice": " Tap funds from a project's currently tappable funding cycle."
      }
    },
    "notice": "Manage funding cycle configurations, accounting, and scheduling.",
    "version": 1
  },
  "storageLayout": {
    "storage": [
      {
        "astId": 18772,
        "contract": "contracts/v2/JBFundingCycleStore.sol:JBFundingCycleStore",
        "label": "_packedConfigurationPropertiesOf",
        "offset": 0,
        "slot": "0",
        "type": "t_mapping(t_uint256,t_uint256)"
      },
      {
        "astId": 18776,
        "contract": "contracts/v2/JBFundingCycleStore.sol:JBFundingCycleStore",
        "label": "_packedIntrinsicPropertiesOf",
        "offset": 0,
        "slot": "1",
        "type": "t_mapping(t_uint256,t_uint256)"
      },
      {
        "astId": 18780,
        "contract": "contracts/v2/JBFundingCycleStore.sol:JBFundingCycleStore",
        "label": "_metadataOf",
        "offset": 0,
        "slot": "2",
        "type": "t_mapping(t_uint256,t_uint256)"
      },
      {
        "astId": 18784,
        "contract": "contracts/v2/JBFundingCycleStore.sol:JBFundingCycleStore",
        "label": "_targetOf",
        "offset": 0,
        "slot": "3",
        "type": "t_mapping(t_uint256,t_uint256)"
      },
      {
        "astId": 18788,
        "contract": "contracts/v2/JBFundingCycleStore.sol:JBFundingCycleStore",
        "label": "_tappedOf",
        "offset": 0,
        "slot": "4",
        "type": "t_mapping(t_uint256,t_uint256)"
      },
      {
        "astId": 18804,
        "contract": "contracts/v2/JBFundingCycleStore.sol:JBFundingCycleStore",
        "label": "latestIdOf",
        "offset": 0,
        "slot": "5",
        "type": "t_mapping(t_uint256,t_uint256)"
      }
    ],
    "types": {
      "t_mapping(t_uint256,t_uint256)": {
        "encoding": "mapping",
        "key": "t_uint256",
        "label": "mapping(uint256 => uint256)",
        "numberOfBytes": "32",
        "value": "t_uint256"
      },
      "t_uint256": {
        "encoding": "inplace",
        "label": "uint256",
        "numberOfBytes": "32"
      }
    }
  }
}