{
  "address": "0x05ea48673d41DC75fbDC8f32fA825be69c1BD5B2",
  "abi": [
    {
      "inputs": [
        {
          "internalType": "contract IJBOperatorStore",
          "name": "_operatorStore",
          "type": "address"
        }
      ],
      "stateMutability": "nonpayable",
      "type": "constructor"
    },
    {
      "inputs": [],
      "name": "UNAUTHORIZED",
      "type": "error"
    },
    {
      "anonymous": false,
      "inputs": [
        {
          "indexed": true,
          "internalType": "address",
          "name": "owner",
          "type": "address"
        },
        {
          "indexed": true,
          "internalType": "address",
          "name": "approved",
          "type": "address"
        },
        {
          "indexed": true,
          "internalType": "uint256",
          "name": "tokenId",
          "type": "uint256"
        }
      ],
      "name": "Approval",
      "type": "event"
    },
    {
      "anonymous": false,
      "inputs": [
        {
          "indexed": true,
          "internalType": "address",
          "name": "owner",
          "type": "address"
        },
        {
          "indexed": true,
          "internalType": "address",
          "name": "operator",
          "type": "address"
        },
        {
          "indexed": false,
          "internalType": "bool",
          "name": "approved",
          "type": "bool"
        }
      ],
      "name": "ApprovalForAll",
      "type": "event"
    },
    {
      "anonymous": false,
      "inputs": [
        {
          "indexed": true,
          "internalType": "uint256",
          "name": "projectId",
          "type": "uint256"
        },
        {
          "indexed": true,
          "internalType": "address",
          "name": "owner",
          "type": "address"
        },
        {
          "components": [
            {
              "internalType": "string",
              "name": "content",
              "type": "string"
            },
            {
              "internalType": "uint256",
              "name": "domain",
              "type": "uint256"
            }
          ],
          "indexed": false,
          "internalType": "struct JBProjectMetadata",
          "name": "metadata",
          "type": "tuple"
        },
        {
          "indexed": false,
          "internalType": "address",
          "name": "caller",
          "type": "address"
        }
      ],
      "name": "Create",
      "type": "event"
    },
    {
      "anonymous": false,
      "inputs": [
        {
          "indexed": true,
          "internalType": "address",
          "name": "delegator",
          "type": "address"
        },
        {
          "indexed": true,
          "internalType": "address",
          "name": "fromDelegate",
          "type": "address"
        },
        {
          "indexed": true,
          "internalType": "address",
          "name": "toDelegate",
          "type": "address"
        }
      ],
      "name": "DelegateChanged",
      "type": "event"
    },
    {
      "anonymous": false,
      "inputs": [
        {
          "indexed": true,
          "internalType": "address",
          "name": "delegate",
          "type": "address"
        },
        {
          "indexed": false,
          "internalType": "uint256",
          "name": "previousBalance",
          "type": "uint256"
        },
        {
          "indexed": false,
          "internalType": "uint256",
          "name": "newBalance",
          "type": "uint256"
        }
      ],
      "name": "DelegateVotesChanged",
      "type": "event"
    },
    {
      "anonymous": false,
      "inputs": [
        {
          "indexed": true,
          "internalType": "address",
          "name": "previousOwner",
          "type": "address"
        },
        {
          "indexed": true,
          "internalType": "address",
          "name": "newOwner",
          "type": "address"
        }
      ],
      "name": "OwnershipTransferred",
      "type": "event"
    },
    {
      "anonymous": false,
      "inputs": [
        {
          "indexed": true,
          "internalType": "uint256",
          "name": "projectId",
          "type": "uint256"
        },
        {
          "components": [
            {
              "internalType": "string",
              "name": "content",
              "type": "string"
            },
            {
              "internalType": "uint256",
              "name": "domain",
              "type": "uint256"
            }
          ],
          "indexed": false,
          "internalType": "struct JBProjectMetadata",
          "name": "metadata",
          "type": "tuple"
        },
        {
          "indexed": false,
          "internalType": "address",
          "name": "caller",
          "type": "address"
        }
      ],
      "name": "SetMetadata",
      "type": "event"
    },
    {
      "anonymous": false,
      "inputs": [
        {
          "indexed": false,
          "internalType": "contract IJBTokenUriResolver",
          "name": "resolver",
          "type": "address"
        },
        {
          "indexed": false,
          "internalType": "address",
          "name": "caller",
          "type": "address"
        }
      ],
      "name": "SetTokenUriResolver",
      "type": "event"
    },
    {
      "anonymous": false,
      "inputs": [
        {
          "indexed": true,
          "internalType": "address",
          "name": "from",
          "type": "address"
        },
        {
          "indexed": true,
          "internalType": "address",
          "name": "to",
          "type": "address"
        },
        {
          "indexed": true,
          "internalType": "uint256",
          "name": "tokenId",
          "type": "uint256"
        }
      ],
      "name": "Transfer",
      "type": "event"
    },
    {
      "inputs": [],
      "name": "DOMAIN_SEPARATOR",
      "outputs": [
        {
          "internalType": "bytes32",
          "name": "",
          "type": "bytes32"
        }
      ],
      "stateMutability": "view",
      "type": "function"
    },
    {
      "inputs": [
        {
          "internalType": "address",
          "name": "to",
          "type": "address"
        },
        {
          "internalType": "uint256",
          "name": "tokenId",
          "type": "uint256"
        }
      ],
      "name": "approve",
      "outputs": [],
      "stateMutability": "nonpayable",
      "type": "function"
    },
    {
      "inputs": [
        {
          "internalType": "address",
          "name": "owner",
          "type": "address"
        }
      ],
      "name": "balanceOf",
      "outputs": [
        {
          "internalType": "uint256",
          "name": "",
          "type": "uint256"
        }
      ],
      "stateMutability": "view",
      "type": "function"
    },
    {
      "inputs": [],
      "name": "count",
      "outputs": [
        {
          "internalType": "uint256",
          "name": "",
          "type": "uint256"
        }
      ],
      "stateMutability": "view",
      "type": "function"
    },
    {
      "inputs": [
        {
          "internalType": "address",
          "name": "_owner",
          "type": "address"
        },
        {
          "components": [
            {
              "internalType": "string",
              "name": "content",
              "type": "string"
            },
            {
              "internalType": "uint256",
              "name": "domain",
              "type": "uint256"
            }
          ],
          "internalType": "struct JBProjectMetadata",
          "name": "_metadata",
          "type": "tuple"
        }
      ],
      "name": "createFor",
      "outputs": [
        {
          "internalType": "uint256",
          "name": "",
          "type": "uint256"
        }
      ],
      "stateMutability": "nonpayable",
      "type": "function"
    },
    {
      "inputs": [
        {
          "internalType": "address",
          "name": "delegatee",
          "type": "address"
        }
      ],
      "name": "delegate",
      "outputs": [],
      "stateMutability": "nonpayable",
      "type": "function"
    },
    {
      "inputs": [
        {
          "internalType": "address",
          "name": "delegatee",
          "type": "address"
        },
        {
          "internalType": "uint256",
          "name": "nonce",
          "type": "uint256"
        },
        {
          "internalType": "uint256",
          "name": "expiry",
          "type": "uint256"
        },
        {
          "internalType": "uint8",
          "name": "v",
          "type": "uint8"
        },
        {
          "internalType": "bytes32",
          "name": "r",
          "type": "bytes32"
        },
        {
          "internalType": "bytes32",
          "name": "s",
          "type": "bytes32"
        }
      ],
      "name": "delegateBySig",
      "outputs": [],
      "stateMutability": "nonpayable",
      "type": "function"
    },
    {
      "inputs": [
        {
          "internalType": "address",
          "name": "account",
          "type": "address"
        }
      ],
      "name": "delegates",
      "outputs": [
        {
          "internalType": "address",
          "name": "",
          "type": "address"
        }
      ],
      "stateMutability": "view",
      "type": "function"
    },
    {
      "inputs": [
        {
          "internalType": "uint256",
          "name": "tokenId",
          "type": "uint256"
        }
      ],
      "name": "getApproved",
      "outputs": [
        {
          "internalType": "address",
          "name": "",
          "type": "address"
        }
      ],
      "stateMutability": "view",
      "type": "function"
    },
    {
      "inputs": [
        {
          "internalType": "uint256",
          "name": "blockNumber",
          "type": "uint256"
        }
      ],
      "name": "getPastTotalSupply",
      "outputs": [
        {
          "internalType": "uint256",
          "name": "",
          "type": "uint256"
        }
      ],
      "stateMutability": "view",
      "type": "function"
    },
    {
      "inputs": [
        {
          "internalType": "address",
          "name": "account",
          "type": "address"
        },
        {
          "internalType": "uint256",
          "name": "blockNumber",
          "type": "uint256"
        }
      ],
      "name": "getPastVotes",
      "outputs": [
        {
          "internalType": "uint256",
          "name": "",
          "type": "uint256"
        }
      ],
      "stateMutability": "view",
      "type": "function"
    },
    {
      "inputs": [
        {
          "internalType": "address",
          "name": "account",
          "type": "address"
        }
      ],
      "name": "getVotes",
      "outputs": [
        {
          "internalType": "uint256",
          "name": "",
          "type": "uint256"
        }
      ],
      "stateMutability": "view",
      "type": "function"
    },
    {
      "inputs": [
        {
          "internalType": "address",
          "name": "owner",
          "type": "address"
        },
        {
          "internalType": "address",
          "name": "operator",
          "type": "address"
        }
      ],
      "name": "isApprovedForAll",
      "outputs": [
        {
          "internalType": "bool",
          "name": "",
          "type": "bool"
        }
      ],
      "stateMutability": "view",
      "type": "function"
    },
    {
      "inputs": [
        {
          "internalType": "uint256",
          "name": "",
          "type": "uint256"
        },
        {
          "internalType": "uint256",
          "name": "",
          "type": "uint256"
        }
      ],
      "name": "metadataContentOf",
      "outputs": [
        {
          "internalType": "string",
          "name": "",
          "type": "string"
        }
      ],
      "stateMutability": "view",
      "type": "function"
    },
    {
      "inputs": [],
      "name": "name",
      "outputs": [
        {
          "internalType": "string",
          "name": "",
          "type": "string"
        }
      ],
      "stateMutability": "view",
      "type": "function"
    },
    {
      "inputs": [
        {
          "internalType": "address",
          "name": "owner",
          "type": "address"
        }
      ],
      "name": "nonces",
      "outputs": [
        {
          "internalType": "uint256",
          "name": "",
          "type": "uint256"
        }
      ],
      "stateMutability": "view",
      "type": "function"
    },
    {
      "inputs": [],
      "name": "operatorStore",
      "outputs": [
        {
          "internalType": "contract IJBOperatorStore",
          "name": "",
          "type": "address"
        }
      ],
      "stateMutability": "view",
      "type": "function"
    },
    {
      "inputs": [],
      "name": "owner",
      "outputs": [
        {
          "internalType": "address",
          "name": "",
          "type": "address"
        }
      ],
      "stateMutability": "view",
      "type": "function"
    },
    {
      "inputs": [
        {
          "internalType": "uint256",
          "name": "tokenId",
          "type": "uint256"
        }
      ],
      "name": "ownerOf",
      "outputs": [
        {
          "internalType": "address",
          "name": "",
          "type": "address"
        }
      ],
      "stateMutability": "view",
      "type": "function"
    },
    {
      "inputs": [],
      "name": "renounceOwnership",
      "outputs": [],
      "stateMutability": "nonpayable",
      "type": "function"
    },
    {
      "inputs": [
        {
          "internalType": "address",
          "name": "from",
          "type": "address"
        },
        {
          "internalType": "address",
          "name": "to",
          "type": "address"
        },
        {
          "internalType": "uint256",
          "name": "tokenId",
          "type": "uint256"
        }
      ],
      "name": "safeTransferFrom",
      "outputs": [],
      "stateMutability": "nonpayable",
      "type": "function"
    },
    {
      "inputs": [
        {
          "internalType": "address",
          "name": "from",
          "type": "address"
        },
        {
          "internalType": "address",
          "name": "to",
          "type": "address"
        },
        {
          "internalType": "uint256",
          "name": "tokenId",
          "type": "uint256"
        },
        {
          "internalType": "bytes",
          "name": "_data",
          "type": "bytes"
        }
      ],
      "name": "safeTransferFrom",
      "outputs": [],
      "stateMutability": "nonpayable",
      "type": "function"
    },
    {
      "inputs": [
        {
          "internalType": "address",
          "name": "operator",
          "type": "address"
        },
        {
          "internalType": "bool",
          "name": "approved",
          "type": "bool"
        }
      ],
      "name": "setApprovalForAll",
      "outputs": [],
      "stateMutability": "nonpayable",
      "type": "function"
    },
    {
      "inputs": [
        {
          "internalType": "uint256",
          "name": "_projectId",
          "type": "uint256"
        },
        {
          "components": [
            {
              "internalType": "string",
              "name": "content",
              "type": "string"
            },
            {
              "internalType": "uint256",
              "name": "domain",
              "type": "uint256"
            }
          ],
          "internalType": "struct JBProjectMetadata",
          "name": "_metadata",
          "type": "tuple"
        }
      ],
      "name": "setMetadataOf",
      "outputs": [],
      "stateMutability": "nonpayable",
      "type": "function"
    },
    {
      "inputs": [
        {
          "internalType": "contract IJBTokenUriResolver",
          "name": "_newResolver",
          "type": "address"
        }
      ],
      "name": "setTokenUriResolver",
      "outputs": [],
      "stateMutability": "nonpayable",
      "type": "function"
    },
    {
      "inputs": [
        {
          "internalType": "bytes4",
          "name": "interfaceId",
          "type": "bytes4"
        }
      ],
      "name": "supportsInterface",
      "outputs": [
        {
          "internalType": "bool",
          "name": "",
          "type": "bool"
        }
      ],
      "stateMutability": "view",
      "type": "function"
    },
    {
      "inputs": [],
      "name": "symbol",
      "outputs": [
        {
          "internalType": "string",
          "name": "",
          "type": "string"
        }
      ],
      "stateMutability": "view",
      "type": "function"
    },
    {
      "inputs": [
        {
          "internalType": "uint256",
          "name": "_projectId",
          "type": "uint256"
        }
      ],
      "name": "tokenURI",
      "outputs": [
        {
          "internalType": "string",
          "name": "",
          "type": "string"
        }
      ],
      "stateMutability": "view",
      "type": "function"
    },
    {
      "inputs": [],
      "name": "tokenUriResolver",
      "outputs": [
        {
          "internalType": "contract IJBTokenUriResolver",
          "name": "",
          "type": "address"
        }
      ],
      "stateMutability": "view",
      "type": "function"
    },
    {
      "inputs": [
        {
          "internalType": "address",
          "name": "from",
          "type": "address"
        },
        {
          "internalType": "address",
          "name": "to",
          "type": "address"
        },
        {
          "internalType": "uint256",
          "name": "tokenId",
          "type": "uint256"
        }
      ],
      "name": "transferFrom",
      "outputs": [],
      "stateMutability": "nonpayable",
      "type": "function"
    },
    {
      "inputs": [
        {
          "internalType": "address",
          "name": "newOwner",
          "type": "address"
        }
      ],
      "name": "transferOwnership",
      "outputs": [],
      "stateMutability": "nonpayable",
      "type": "function"
    }
  ],
  "transactionHash": "0x4c5019824fbc556ff28a4d326c51c30eb3db67934ff167f1b444761a84771b54",
  "args": [
    "0xacD28185AE65adc711481c0aECB0B99Ac8608698"
  ],
  "numDeployments": 2,
  "solcInputHash": "84ad828d78fb9f44a0d0346f7fab757e",
  "bytecode": "0x6101606040526000600b553480156200001757600080fd5b5060405162003b4338038062003b438339810160408190526200003a91620002b3565b80604051806040016040528060118152602001704a75696365626f782050726f6a6563747360781b815250604051806040016040528060018152602001603160f81b815250604051806040016040528060118152602001704a75696365626f782050726f6a6563747360781b81525060405180604001604052806008815260200167094aa92868a849eb60c31b8152508160009080519060200190620000e29291906200020d565b508051620000f89060019060208401906200020d565b5050825160208085019190912083518483012060e08290526101008190524660a0818152604080517f8b73c3c69bb8fe3d512ecc4cf759cc79239f7b179b0ffacaa9a75d522b39400f81880181905281830187905260608201869052608082019490945230818401528151808203909301835260c0019052805194019390932091935091906080523060601b60c0526101205250620001a392506200019d9150503390565b620001bb565b60601b6001600160601b031916610140525062000322565b600a80546001600160a01b038381166001600160a01b0319831681179093556040519116919082907f8be0079c531659141344cd1fd0a4f28419497f9722a3daafe3b4186f6b6457e090600090a35050565b8280546200021b90620002e5565b90600052602060002090601f0160209004810192826200023f57600085556200028a565b82601f106200025a57805160ff19168380011785556200028a565b828001600101855582156200028a579182015b828111156200028a5782518255916020019190600101906200026d565b50620002989291506200029c565b5090565b5b808211156200029857600081556001016200029d565b600060208284031215620002c657600080fd5b81516001600160a01b0381168114620002de57600080fd5b9392505050565b600181811c90821680620002fa57607f821691505b602082108114156200031c57634e487b7160e01b600052602260045260246000fd5b50919050565b60805160a05160c05160601c60e05161010051610120516101405160601c6137b2620003916000396000818161040901528181610af80152610bd401526000611b1901526000611b6801526000611b4301526000611a9c01526000611ac601526000611af001526137b26000f3fe608060405234801561001057600080fd5b50600436106101e55760003560e01c8063666d87a01161010f578063a22cb465116100a2578063c87b56dd11610071578063c87b56dd14610451578063e131fc0c14610464578063e985e9c514610484578063f2fde38b146104cd57600080fd5b8063a22cb465146103f1578063ad007d6314610404578063b88d4fde1461042b578063c3cda5201461043e57600080fd5b80638da5cb5b116100de5780638da5cb5b146103a55780638e539e8c146103c357806395d89b41146103d65780639ab24eb0146103de57600080fd5b8063666d87a01461036457806370a0823114610377578063715018a61461038a5780637ecebe001461039257600080fd5b80633644e5151161018757806342842e0e1161015657806342842e0e146102f2578063587cde1e146103055780635c19a95c1461033e5780636352211e1461035157600080fd5b80633644e515146102b157806336574975146102b957806339fbc775146102cc5780633a46b1a8146102df57600080fd5b8063081812fc116101c3578063081812fc1461023e578063095ea7b31461027657806323b872dd1461028b5780632407497e1461029e57600080fd5b806301ffc9a7146101ea57806306661abd1461021257806306fdde0314610229575b600080fd5b6101fd6101f83660046131ae565b6104e0565b60405190151581526020015b60405180910390f35b61021b600b5481565b604051908152602001610209565b6102316105c5565b604051610209919061335e565b61025161024c36600461325f565b610657565b60405173ffffffffffffffffffffffffffffffffffffffff9091168152602001610209565b610289610284366004613103565b610736565b005b610289610299366004612f95565b6108c3565b6102896102ac366004612f3f565b610964565b61021b610a63565b6102896102c7366004613278565b610a72565b6102316102da3660046132a9565b610cfa565b61021b6102ed366004613103565b610d9f565b610289610300366004612f95565b610dd5565b610251610313366004612f3f565b73ffffffffffffffffffffffffffffffffffffffff9081166000908152600660205260409020541690565b61028961034c366004612f3f565b610df0565b61025161035f36600461325f565b610dff565b61021b6103723660046130b3565b610eb1565b61021b610385366004612f3f565b610f7a565b610289611048565b61021b6103a0366004612f3f565b6110d5565b600a5473ffffffffffffffffffffffffffffffffffffffff16610251565b61021b6103d136600461325f565b611100565b610231611176565b61021b6103ec366004612f3f565b611185565b6102896103ff366004613085565b6111b3565b6102517f000000000000000000000000000000000000000000000000000000000000000081565b610289610439366004612fd6565b6111be565b61028961044c36600461312f565b611266565b61023161045f36600461325f565b6113dd565b600d546102519073ffffffffffffffffffffffffffffffffffffffff1681565b6101fd610492366004612f5c565b73ffffffffffffffffffffffffffffffffffffffff918216600090815260056020908152604080832093909416825291909152205460ff1690565b6102896104db366004612f3f565b6114d5565b60007fffffffff0000000000000000000000000000000000000000000000000000000082167f80ac58cd00000000000000000000000000000000000000000000000000000000148061057357507fffffffff0000000000000000000000000000000000000000000000000000000082167f5b5e139f00000000000000000000000000000000000000000000000000000000145b806105bf57507f01ffc9a7000000000000000000000000000000000000000000000000000000007fffffffff000000000000000000000000000000000000000000000000000000008316145b92915050565b6060600080546105d4906135db565b80601f0160208091040260200160405190810160405280929190818152602001828054610600906135db565b801561064d5780601f106106225761010080835404028352916020019161064d565b820191906000526020600020905b81548152906001019060200180831161063057829003601f168201915b5050505050905090565b60008181526002602052604081205473ffffffffffffffffffffffffffffffffffffffff1661070d576040517f08c379a000000000000000000000000000000000000000000000000000000000815260206004820152602c60248201527f4552433732313a20617070726f76656420717565727920666f72206e6f6e657860448201527f697374656e7420746f6b656e000000000000000000000000000000000000000060648201526084015b60405180910390fd5b5060009081526004602052604090205473ffffffffffffffffffffffffffffffffffffffff1690565b600061074182610dff565b90508073ffffffffffffffffffffffffffffffffffffffff168373ffffffffffffffffffffffffffffffffffffffff1614156107ff576040517f08c379a000000000000000000000000000000000000000000000000000000000815260206004820152602160248201527f4552433732313a20617070726f76616c20746f2063757272656e74206f776e6560448201527f72000000000000000000000000000000000000000000000000000000000000006064820152608401610704565b3373ffffffffffffffffffffffffffffffffffffffff8216148061082857506108288133610492565b6108b4576040517f08c379a000000000000000000000000000000000000000000000000000000000815260206004820152603860248201527f4552433732313a20617070726f76652063616c6c6572206973206e6f74206f7760448201527f6e6572206e6f7220617070726f76656420666f7220616c6c00000000000000006064820152608401610704565b6108be8383611605565b505050565b6108cd33826116a5565b610959576040517f08c379a000000000000000000000000000000000000000000000000000000000815260206004820152603160248201527f4552433732313a207472616e736665722063616c6c6572206973206e6f74206f60448201527f776e6572206e6f7220617070726f7665640000000000000000000000000000006064820152608401610704565b6108be838383611815565b600a5473ffffffffffffffffffffffffffffffffffffffff1633146109e5576040517f08c379a000000000000000000000000000000000000000000000000000000000815260206004820181905260248201527f4f776e61626c653a2063616c6c6572206973206e6f7420746865206f776e65726044820152606401610704565b600d80547fffffffffffffffffffffffff00000000000000000000000000000000000000001673ffffffffffffffffffffffffffffffffffffffff8316908117909155604080519182523360208301527fe7784d93cfbfa4408e19577e6cc0436f4dbb51214b70e100905dfce9def88c16910160405180910390a150565b6000610a6d611a82565b905090565b610a7b82610dff565b8260073373ffffffffffffffffffffffffffffffffffffffff841614801590610b7457506040517fc161c93f00000000000000000000000000000000000000000000000000000000815233600482015273ffffffffffffffffffffffffffffffffffffffff848116602483015260448201849052606482018390527f0000000000000000000000000000000000000000000000000000000000000000169063c161c93f9060840160206040518083038186803b158015610b3a57600080fd5b505afa158015610b4e573d6000803e3d6000fd5b505050506040513d601f19601f82011682018060405250810190610b729190613191565b155b8015610c5057506040517fc161c93f00000000000000000000000000000000000000000000000000000000815233600482015273ffffffffffffffffffffffffffffffffffffffff848116602483015260006044830152606482018390527f0000000000000000000000000000000000000000000000000000000000000000169063c161c93f9060840160206040518083038186803b158015610c1657600080fd5b505afa158015610c2a573d6000803e3d6000fd5b505050506040513d601f19601f82011682018060405250810190610c4e9190613191565b155b15610c87576040517f075fd2b100000000000000000000000000000000000000000000000000000000815260040160405180910390fd5b610c91848061344b565b6000878152600c602090815260408083208983013584529091529020610cb8929091612e7f565b50847fd07720acb527321c9d1766f359139d0e0e3551bd99fb3ca353d4f008f3aad8e68533604051610ceb929190613371565b60405180910390a25050505050565b600c60209081526000928352604080842090915290825290208054610d1e906135db565b80601f0160208091040260200160405190810160405280929190818152602001828054610d4a906135db565b8015610d975780601f10610d6c57610100808354040283529160200191610d97565b820191906000526020600020905b815481529060010190602001808311610d7a57829003601f168201915b505050505081565b73ffffffffffffffffffffffffffffffffffffffff82166000908152600760205260408120610dce9083611bb6565b9392505050565b6108be838383604051806020016040528060008152506111be565b33610dfb8183611d09565b5050565b60008181526002602052604081205473ffffffffffffffffffffffffffffffffffffffff16806105bf576040517f08c379a000000000000000000000000000000000000000000000000000000000815260206004820152602960248201527f4552433732313a206f776e657220717565727920666f72206e6f6e657869737460448201527f656e7420746f6b656e00000000000000000000000000000000000000000000006064820152608401610704565b600b805460009182610ec283613629565b9190505550610ed383600b54611da0565b6000610edf838061344b565b90501115610f1d57610ef1828061344b565b600b546000908152600c602090815260408083208783013584529091529020610f1b929091612e7f565b505b8273ffffffffffffffffffffffffffffffffffffffff16600b547fa1c6fd563bcbc3222f6031d7c26ff58cd6c701abff0bfffe652d055ce40629d48433604051610f68929190613371565b60405180910390a350600b5492915050565b600073ffffffffffffffffffffffffffffffffffffffff821661101f576040517f08c379a000000000000000000000000000000000000000000000000000000000815260206004820152602a60248201527f4552433732313a2062616c616e636520717565727920666f7220746865207a6560448201527f726f2061646472657373000000000000000000000000000000000000000000006064820152608401610704565b5073ffffffffffffffffffffffffffffffffffffffff1660009081526003602052604090205490565b600a5473ffffffffffffffffffffffffffffffffffffffff1633146110c9576040517f08c379a000000000000000000000000000000000000000000000000000000000815260206004820181905260248201527f4f776e61626c653a2063616c6c6572206973206e6f7420746865206f776e65726044820152606401610704565b6110d36000611dba565b565b73ffffffffffffffffffffffffffffffffffffffff81166000908152600960205260408120546105bf565b600043821061116b576040517f08c379a000000000000000000000000000000000000000000000000000000000815260206004820152601a60248201527f566f7465733a20626c6f636b206e6f7420796574206d696e65640000000000006044820152606401610704565b6105bf600883611bb6565b6060600180546105d4906135db565b73ffffffffffffffffffffffffffffffffffffffff811660009081526007602052604081206105bf90611e31565b610dfb338383611eb7565b6111c833836116a5565b611254576040517f08c379a000000000000000000000000000000000000000000000000000000000815260206004820152603160248201527f4552433732313a207472616e736665722063616c6c6572206973206e6f74206f60448201527f776e6572206e6f7220617070726f7665640000000000000000000000000000006064820152608401610704565b61126084848484611fe5565b50505050565b834211156112d0576040517f08c379a000000000000000000000000000000000000000000000000000000000815260206004820152601860248201527f566f7465733a207369676e6174757265206578706972656400000000000000006044820152606401610704565b604080517fe48329057bfd03d55e49b547132e39cffd9c1820ad7b9d4c5307691425d15adf602082015273ffffffffffffffffffffffffffffffffffffffff88169181019190915260608101869052608081018590526000906113579061134f9060a00160405160208183030381529060405280519060200120612088565b8585856120f1565b905061136281612119565b86146113ca576040517f08c379a000000000000000000000000000000000000000000000000000000000815260206004820152601460248201527f566f7465733a20696e76616c6964206e6f6e63650000000000000000000000006044820152606401610704565b6113d48188611d09565b50505050505050565b600d5460609073ffffffffffffffffffffffffffffffffffffffff1661141157505060408051602081019091526000815290565b600d546040517fda0544aa0000000000000000000000000000000000000000000000000000000081526004810184905273ffffffffffffffffffffffffffffffffffffffff9091169063da0544aa9060240160006040518083038186803b15801561147b57600080fd5b505afa15801561148f573d6000803e3d6000fd5b505050506040513d6000823e601f3d9081017fffffffffffffffffffffffffffffffffffffffffffffffffffffffffffffffe01682016040526105bf91908101906131e8565b600a5473ffffffffffffffffffffffffffffffffffffffff163314611556576040517f08c379a000000000000000000000000000000000000000000000000000000000815260206004820181905260248201527f4f776e61626c653a2063616c6c6572206973206e6f7420746865206f776e65726044820152606401610704565b73ffffffffffffffffffffffffffffffffffffffff81166115f9576040517f08c379a000000000000000000000000000000000000000000000000000000000815260206004820152602660248201527f4f776e61626c653a206e6577206f776e657220697320746865207a65726f206160448201527f64647265737300000000000000000000000000000000000000000000000000006064820152608401610704565b61160281611dba565b50565b600081815260046020526040902080547fffffffffffffffffffffffff00000000000000000000000000000000000000001673ffffffffffffffffffffffffffffffffffffffff8416908117909155819061165f82610dff565b73ffffffffffffffffffffffffffffffffffffffff167f8c5be1e5ebec7d5bd14f71427d1e84f3dd0314c0f7b2291e5b200ac8c7c3b92560405160405180910390a45050565b60008181526002602052604081205473ffffffffffffffffffffffffffffffffffffffff16611756576040517f08c379a000000000000000000000000000000000000000000000000000000000815260206004820152602c60248201527f4552433732313a206f70657261746f7220717565727920666f72206e6f6e657860448201527f697374656e7420746f6b656e00000000000000000000000000000000000000006064820152608401610704565b600061176183610dff565b90508073ffffffffffffffffffffffffffffffffffffffff168473ffffffffffffffffffffffffffffffffffffffff1614806117d057508373ffffffffffffffffffffffffffffffffffffffff166117b884610657565b73ffffffffffffffffffffffffffffffffffffffff16145b8061180d575073ffffffffffffffffffffffffffffffffffffffff80821660009081526005602090815260408083209388168352929052205460ff165b949350505050565b8273ffffffffffffffffffffffffffffffffffffffff1661183582610dff565b73ffffffffffffffffffffffffffffffffffffffff16146118d8576040517f08c379a000000000000000000000000000000000000000000000000000000000815260206004820152602560248201527f4552433732313a207472616e736665722066726f6d20696e636f72726563742060448201527f6f776e65720000000000000000000000000000000000000000000000000000006064820152608401610704565b73ffffffffffffffffffffffffffffffffffffffff821661197a576040517f08c379a0000000000000000000000000000000000000000000000000000000008152602060048201526024808201527f4552433732313a207472616e7366657220746f20746865207a65726f2061646460448201527f72657373000000000000000000000000000000000000000000000000000000006064820152608401610704565b611985600082611605565b73ffffffffffffffffffffffffffffffffffffffff831660009081526003602052604081208054600192906119bb908490613598565b909155505073ffffffffffffffffffffffffffffffffffffffff821660009081526003602052604081208054600192906119f6908490613545565b909155505060008181526002602052604080822080547fffffffffffffffffffffffff00000000000000000000000000000000000000001673ffffffffffffffffffffffffffffffffffffffff86811691821790925591518493918716917fddf252ad1be2c89b69c2b068fc378daa952ba7f163c4a11628f55a4df523b3ef91a46108be83838361214e565b60003073ffffffffffffffffffffffffffffffffffffffff7f000000000000000000000000000000000000000000000000000000000000000016148015611ae857507f000000000000000000000000000000000000000000000000000000000000000046145b15611b1257507f000000000000000000000000000000000000000000000000000000000000000090565b50604080517f00000000000000000000000000000000000000000000000000000000000000006020808301919091527f0000000000000000000000000000000000000000000000000000000000000000828401527f000000000000000000000000000000000000000000000000000000000000000060608301524660808301523060a0808401919091528351808403909101815260c0909201909252805191012090565b6000438210611c21576040517f08c379a000000000000000000000000000000000000000000000000000000000815260206004820181905260248201527f436865636b706f696e74733a20626c6f636b206e6f7420796574206d696e65646044820152606401610704565b825460005b81811015611c86576000611c3a828461215a565b905084866000018281548110611c5257611c526136c0565b60009182526020909120015463ffffffff161115611c7257809250611c80565b611c7d816001613545565b91505b50611c26565b8115611cdf5784611c98600184613598565b81548110611ca857611ca86136c0565b60009182526020909120015464010000000090047bffffffffffffffffffffffffffffffffffffffffffffffffffffffff16611ce2565b60005b7bffffffffffffffffffffffffffffffffffffffffffffffffffffffff1695945050505050565b73ffffffffffffffffffffffffffffffffffffffff82811660008181526006602052604080822080548686167fffffffffffffffffffffffff0000000000000000000000000000000000000000821681179092559151919094169392849290917f3134e8a2e6d97e929a7e54011ea5485d7d196dd5f0ba4d4ef95803e8e3fc257f9190a46108be8183611d9b86612175565b612180565b610dfb828260405180602001604052806000815250612316565b600a805473ffffffffffffffffffffffffffffffffffffffff8381167fffffffffffffffffffffffff0000000000000000000000000000000000000000831681179093556040519116919082907f8be0079c531659141344cd1fd0a4f28419497f9722a3daafe3b4186f6b6457e090600090a35050565b80546000908015611e8f5782611e48600183613598565b81548110611e5857611e586136c0565b60009182526020909120015464010000000090047bffffffffffffffffffffffffffffffffffffffffffffffffffffffff16611e92565b60005b7bffffffffffffffffffffffffffffffffffffffffffffffffffffffff169392505050565b8173ffffffffffffffffffffffffffffffffffffffff168373ffffffffffffffffffffffffffffffffffffffff161415611f4d576040517f08c379a000000000000000000000000000000000000000000000000000000000815260206004820152601960248201527f4552433732313a20617070726f766520746f2063616c6c6572000000000000006044820152606401610704565b73ffffffffffffffffffffffffffffffffffffffff83811660008181526005602090815260408083209487168084529482529182902080547fffffffffffffffffffffffffffffffffffffffffffffffffffffffffffffff001686151590811790915591519182527f17307eab39ab6107e8899845ad3d59bd9653f200f220920489ca2b5937696c31910160405180910390a3505050565b611ff0848484611815565b611ffc848484846123b9565b611260576040517f08c379a000000000000000000000000000000000000000000000000000000000815260206004820152603260248201527f4552433732313a207472616e7366657220746f206e6f6e20455243373231526560448201527f63656976657220696d706c656d656e74657200000000000000000000000000006064820152608401610704565b60006105bf612095611a82565b836040517f19010000000000000000000000000000000000000000000000000000000000006020820152602281018390526042810182905260009060620160405160208183030381529060405280519060200120905092915050565b6000806000612102878787876125b5565b9150915061210f816126cd565b5095945050505050565b73ffffffffffffffffffffffffffffffffffffffff811660009081526009602052604090208054600181018255905b50919050565b6108be83836001612926565b6000612169600284841861355d565b610dce90848416613545565b60006105bf82610f7a565b8173ffffffffffffffffffffffffffffffffffffffff168373ffffffffffffffffffffffffffffffffffffffff16141580156121bc5750600081115b156108be5773ffffffffffffffffffffffffffffffffffffffff8316156122715773ffffffffffffffffffffffffffffffffffffffff831660009081526007602052604081208190612211906129bd856129c9565b915091508473ffffffffffffffffffffffffffffffffffffffff167fdec2bacdd2f05b59de34da9b523dff8be42e5e38e818c82fdb0bae774387a7248383604051612266929190918252602082015260400190565b60405180910390a250505b73ffffffffffffffffffffffffffffffffffffffff8216156108be5773ffffffffffffffffffffffffffffffffffffffff8216600090815260076020526040812081906122c1906129f7856129c9565b915091508373ffffffffffffffffffffffffffffffffffffffff167fdec2bacdd2f05b59de34da9b523dff8be42e5e38e818c82fdb0bae774387a7248383604051610ceb929190918252602082015260400190565b6123208383612a03565b61232d60008484846123b9565b6108be576040517f08c379a000000000000000000000000000000000000000000000000000000000815260206004820152603260248201527f4552433732313a207472616e7366657220746f206e6f6e20455243373231526560448201527f63656976657220696d706c656d656e74657200000000000000000000000000006064820152608401610704565b600073ffffffffffffffffffffffffffffffffffffffff84163b156125ad576040517f150b7a0200000000000000000000000000000000000000000000000000000000815273ffffffffffffffffffffffffffffffffffffffff85169063150b7a0290612430903390899088908890600401613315565b602060405180830381600087803b15801561244a57600080fd5b505af1925050508015612498575060408051601f3d9081017fffffffffffffffffffffffffffffffffffffffffffffffffffffffffffffffe0168201909252612495918101906131cb565b60015b612562573d8080156124c6576040519150601f19603f3d011682016040523d82523d6000602084013e6124cb565b606091505b50805161255a576040517f08c379a000000000000000000000000000000000000000000000000000000000815260206004820152603260248201527f4552433732313a207472616e7366657220746f206e6f6e20455243373231526560448201527f63656976657220696d706c656d656e74657200000000000000000000000000006064820152608401610704565b805181602001fd5b7fffffffff00000000000000000000000000000000000000000000000000000000167f150b7a020000000000000000000000000000000000000000000000000000000014905061180d565b50600161180d565b6000807f7fffffffffffffffffffffffffffffff5d576e7357a4501ddfe92f46681b20a08311156125ec57506000905060036126c4565b8460ff16601b1415801561260457508460ff16601c14155b1561261557506000905060046126c4565b6040805160008082526020820180845289905260ff881692820192909252606081018690526080810185905260019060a0016020604051602081039080840390855afa158015612669573d6000803e3d6000fd5b50506040517fffffffffffffffffffffffffffffffffffffffffffffffffffffffffffffffe0015191505073ffffffffffffffffffffffffffffffffffffffff81166126bd576000600192509250506126c4565b9150600090505b94509492505050565b60008160048111156126e1576126e1613691565b14156126ea5750565b60018160048111156126fe576126fe613691565b1415612766576040517f08c379a000000000000000000000000000000000000000000000000000000000815260206004820152601860248201527f45434453413a20696e76616c6964207369676e617475726500000000000000006044820152606401610704565b600281600481111561277a5761277a613691565b14156127e2576040517f08c379a000000000000000000000000000000000000000000000000000000000815260206004820152601f60248201527f45434453413a20696e76616c6964207369676e6174757265206c656e677468006044820152606401610704565b60038160048111156127f6576127f6613691565b1415612884576040517f08c379a000000000000000000000000000000000000000000000000000000000815260206004820152602260248201527f45434453413a20696e76616c6964207369676e6174757265202773272076616c60448201527f75650000000000000000000000000000000000000000000000000000000000006064820152608401610704565b600481600481111561289857612898613691565b1415611602576040517f08c379a000000000000000000000000000000000000000000000000000000000815260206004820152602260248201527f45434453413a20696e76616c6964207369676e6174757265202776272076616c60448201527f75650000000000000000000000000000000000000000000000000000000000006064820152608401610704565b73ffffffffffffffffffffffffffffffffffffffff83166129525761294f60086129f7836129c9565b50505b73ffffffffffffffffffffffffffffffffffffffff821661297e5761297b60086129bd836129c9565b50505b73ffffffffffffffffffffffffffffffffffffffff8381166000908152600660205260408082205485841683529120546108be92918216911683612180565b6000610dce8284613598565b6000806129eb856129e66129dc88611e31565b868863ffffffff16565b612bcd565b91509150935093915050565b6000610dce8284613545565b73ffffffffffffffffffffffffffffffffffffffff8216612a80576040517f08c379a000000000000000000000000000000000000000000000000000000000815260206004820181905260248201527f4552433732313a206d696e7420746f20746865207a65726f20616464726573736044820152606401610704565b60008181526002602052604090205473ffffffffffffffffffffffffffffffffffffffff1615612b0c576040517f08c379a000000000000000000000000000000000000000000000000000000000815260206004820152601c60248201527f4552433732313a20746f6b656e20616c7265616479206d696e746564000000006044820152606401610704565b73ffffffffffffffffffffffffffffffffffffffff82166000908152600360205260408120805460019290612b42908490613545565b909155505060008181526002602052604080822080547fffffffffffffffffffffffff00000000000000000000000000000000000000001673ffffffffffffffffffffffffffffffffffffffff861690811790915590518392907fddf252ad1be2c89b69c2b068fc378daa952ba7f163c4a11628f55a4df523b3ef908290a4610dfb6000838361214e565b8154600090819081612bde86611e31565b9050600082118015612c1c57504386612bf8600185613598565b81548110612c0857612c086136c0565b60009182526020909120015463ffffffff16145b15612ca657612c2a85612d37565b86612c36600185613598565b81548110612c4657612c466136c0565b9060005260206000200160000160046101000a8154817bffffffffffffffffffffffffffffffffffffffffffffffffffffffff02191690837bffffffffffffffffffffffffffffffffffffffffffffffffffffffff160217905550612d29565b856000016040518060400160405280612cbe43612de9565b63ffffffff168152602001612cd288612d37565b7bffffffffffffffffffffffffffffffffffffffffffffffffffffffff90811690915282546001810184556000938452602093849020835194909301519091166401000000000263ffffffff909316929092179101555b9250839150505b9250929050565b60007bffffffffffffffffffffffffffffffffffffffffffffffffffffffff821115612de5576040517f08c379a000000000000000000000000000000000000000000000000000000000815260206004820152602760248201527f53616665436173743a2076616c756520646f65736e27742066697420696e203260448201527f32342062697473000000000000000000000000000000000000000000000000006064820152608401610704565b5090565b600063ffffffff821115612de5576040517f08c379a000000000000000000000000000000000000000000000000000000000815260206004820152602660248201527f53616665436173743a2076616c756520646f65736e27742066697420696e203360448201527f32206269747300000000000000000000000000000000000000000000000000006064820152608401610704565b828054612e8b906135db565b90600052602060002090601f016020900481019282612ead5760008555612f11565b82601f10612ee4578280017fffffffffffffffffffffffffffffffffffffffffffffffffffffffffffffff00823516178555612f11565b82800160010185558215612f11579182015b82811115612f11578235825591602001919060010190612ef6565b50612de59291505b80821115612de55760008155600101612f19565b60006040828403121561214857600080fd5b600060208284031215612f5157600080fd5b8135610dce8161371e565b60008060408385031215612f6f57600080fd5b8235612f7a8161371e565b91506020830135612f8a8161371e565b809150509250929050565b600080600060608486031215612faa57600080fd5b8335612fb58161371e565b92506020840135612fc58161371e565b929592945050506040919091013590565b60008060008060808587031215612fec57600080fd5b8435612ff78161371e565b935060208501356130078161371e565b925060408501359150606085013567ffffffffffffffff81111561302a57600080fd5b8501601f8101871361303b57600080fd5b803561304e613049826134ff565b6134b0565b81815288602083850101111561306357600080fd5b8160208401602083013760006020838301015280935050505092959194509250565b6000806040838503121561309857600080fd5b82356130a38161371e565b91506020830135612f8a81613740565b600080604083850312156130c657600080fd5b82356130d18161371e565b9150602083013567ffffffffffffffff8111156130ed57600080fd5b6130f985828601612f2d565b9150509250929050565b6000806040838503121561311657600080fd5b82356131218161371e565b946020939093013593505050565b60008060008060008060c0878903121561314857600080fd5b86356131538161371e565b95506020870135945060408701359350606087013560ff8116811461317757600080fd5b9598949750929560808101359460a0909101359350915050565b6000602082840312156131a357600080fd5b8151610dce81613740565b6000602082840312156131c057600080fd5b8135610dce8161374e565b6000602082840312156131dd57600080fd5b8151610dce8161374e565b6000602082840312156131fa57600080fd5b815167ffffffffffffffff81111561321157600080fd5b8201601f8101841361322257600080fd5b8051613230613049826134ff565b81815285602083850101111561324557600080fd5b6132568260208301602086016135af565b95945050505050565b60006020828403121561327157600080fd5b5035919050565b6000806040838503121561328b57600080fd5b82359150602083013567ffffffffffffffff8111156130ed57600080fd5b600080604083850312156132bc57600080fd5b50508035926020909101359150565b600081518084526132e38160208601602086016135af565b601f017fffffffffffffffffffffffffffffffffffffffffffffffffffffffffffffffe0169290920160200192915050565b600073ffffffffffffffffffffffffffffffffffffffff80871683528086166020840152508360408301526080606083015261335460808301846132cb565b9695505050505050565b602081526000610dce60208301846132cb565b60408152600083357fffffffffffffffffffffffffffffffffffffffffffffffffffffffffffffffe18536030181126133a957600080fd5b8401803567ffffffffffffffff8111156133c257600080fd5b8036038613156133d157600080fd5b604080850152806080850152806020830160a0860137600060a082860101526020860135606085015260a07fffffffffffffffffffffffffffffffffffffffffffffffffffffffffffffffe0601f83011685010192505050610dce602083018473ffffffffffffffffffffffffffffffffffffffff169052565b60008083357fffffffffffffffffffffffffffffffffffffffffffffffffffffffffffffffe184360301811261348057600080fd5b83018035915067ffffffffffffffff82111561349b57600080fd5b602001915036819003821315612d3057600080fd5b604051601f82017fffffffffffffffffffffffffffffffffffffffffffffffffffffffffffffffe016810167ffffffffffffffff811182821017156134f7576134f76136ef565b604052919050565b600067ffffffffffffffff821115613519576135196136ef565b50601f017fffffffffffffffffffffffffffffffffffffffffffffffffffffffffffffffe01660200190565b6000821982111561355857613558613662565b500190565b600082613593577f4e487b7100000000000000000000000000000000000000000000000000000000600052601260045260246000fd5b500490565b6000828210156135aa576135aa613662565b500390565b60005b838110156135ca5781810151838201526020016135b2565b838111156112605750506000910152565b600181811c908216806135ef57607f821691505b60208210811415612148577f4e487b7100000000000000000000000000000000000000000000000000000000600052602260045260246000fd5b60007fffffffffffffffffffffffffffffffffffffffffffffffffffffffffffffffff82141561365b5761365b613662565b5060010190565b7f4e487b7100000000000000000000000000000000000000000000000000000000600052601160045260246000fd5b7f4e487b7100000000000000000000000000000000000000000000000000000000600052602160045260246000fd5b7f4e487b7100000000000000000000000000000000000000000000000000000000600052603260045260246000fd5b7f4e487b7100000000000000000000000000000000000000000000000000000000600052604160045260246000fd5b73ffffffffffffffffffffffffffffffffffffffff8116811461160257600080fd5b801515811461160257600080fd5b7fffffffff000000000000000000000000000000000000000000000000000000008116811461160257600080fdfea2646970667358221220d7fb08f7651ec4eec15591ab8cbda9d055160464d4dc54186f5c533c0d95688e64736f6c63430008060033",
  "devdoc": {
    "details": "Projects are represented as ERC-721's.",
    "kind": "dev",
    "methods": {
      "DOMAIN_SEPARATOR()": {
        "details": "Returns the contract's {EIP712} domain separator."
      },
      "approve(address,uint256)": {
        "details": "See {IERC721-approve}."
      },
      "balanceOf(address)": {
        "details": "See {IERC721-balanceOf}."
      },
      "constructor": {
        "params": {
          "_operatorStore": "A contract storing operator assignments."
        }
      },
      "createFor(address,(string,uint256))": {
        "details": " Anyone can create a project on an owner's behalf.",
        "params": {
          "_metadata": "A struct containing metadata content about the project, and domain within which the metadata applies. An empty string is acceptable if no metadata is being provided.",
          "_owner": "The address that will be the owner of the project."
        },
        "returns": {
          "_0": "The token ID of the newly created project"
        }
      },
      "delegate(address)": {
        "details": "Delegates votes from the sender to `delegatee`."
      },
      "delegateBySig(address,uint256,uint256,uint8,bytes32,bytes32)": {
        "details": "Delegates votes from signer to `delegatee`."
      },
      "delegates(address)": {
        "details": "Returns the delegate that `account` has chosen."
      },
      "getApproved(uint256)": {
        "details": "See {IERC721-getApproved}."
      },
      "getPastTotalSupply(uint256)": {
        "details": "Returns the total supply of votes available at the end of a past block (`blockNumber`). NOTE: This value is the sum of all available votes, which is not necessarily the sum of all delegated votes. Votes that have not been delegated are still part of total supply, even though they would not participate in a vote. Requirements: - `blockNumber` must have been already mined"
      },
      "getPastVotes(address,uint256)": {
        "details": "Returns the amount of votes that `account` had at the end of a past block (`blockNumber`). Requirements: - `blockNumber` must have been already mined"
      },
      "getVotes(address)": {
        "details": "Returns the current amount of votes that `account` has."
      },
      "isApprovedForAll(address,address)": {
        "details": "See {IERC721-isApprovedForAll}."
      },
      "name()": {
        "details": "See {IERC721Metadata-name}."
      },
      "nonces(address)": {
        "details": "Returns an address nonce."
      },
      "owner()": {
        "details": "Returns the address of the current owner."
      },
      "ownerOf(uint256)": {
        "details": "See {IERC721-ownerOf}."
      },
      "renounceOwnership()": {
        "details": "Leaves the contract without owner. It will not be possible to call `onlyOwner` functions anymore. Can only be called by the current owner. NOTE: Renouncing ownership will leave the contract without an owner, thereby removing any functionality that is only available to the owner."
      },
      "safeTransferFrom(address,address,uint256)": {
        "details": "See {IERC721-safeTransferFrom}."
      },
      "safeTransferFrom(address,address,uint256,bytes)": {
        "details": "See {IERC721-safeTransferFrom}."
      },
      "setApprovalForAll(address,bool)": {
        "details": "See {IERC721-setApprovalForAll}."
      },
      "setMetadataOf(uint256,(string,uint256))": {
        "details": " Only a project's owner or operator can set its metadata.",
        "params": {
          "_metadata": "A struct containing metadata content, and domain within which the metadata applies. An empty string is acceptable if no metadata is being provided.",
          "_projectId": "The ID of the project who's metadata is being changed."
        }
      },
      "setTokenUriResolver(address)": {
        "params": {
          "_newResolver": "The address of the new resolver."
        }
      },
      "supportsInterface(bytes4)": {
        "details": "See {IERC165-supportsInterface}."
      },
      "symbol()": {
        "details": "See {IERC721Metadata-symbol}."
      },
      "tokenURI(uint256)": {
        "details": " this is optional for every project",
        "params": {
          "_projectId": "The ID of the project."
        }
      },
      "transferFrom(address,address,uint256)": {
        "details": "See {IERC721-transferFrom}."
      },
      "transferOwnership(address)": {
        "details": "Transfers ownership of the contract to a new account (`newOwner`). Can only be called by the current owner."
      }
    },
    "stateVariables": {
      "count": {
        "details": "The count is incremented with each new project created.  The resulting ERC-721 token ID for each project is the newly incremented count value."
      }
    },
    "version": 1
  },
  "userdoc": {
    "kind": "user",
    "methods": {
      "count()": {
        "notice": " The number of projects that have been created using this contract."
      },
      "createFor(address,(string,uint256))": {
        "notice": " Create a new project for the specified owner, which mints an NFT (ERC-721) into their wallet."
      },
      "metadataContentOf(uint256,uint256)": {
        "notice": " The metadata for each project, which can be used across several domains. _projectId The ID of the project to which the metadata belongs. _domain The domain within which the metadata applies."
      },
      "operatorStore()": {
        "notice": " A contract storing operator assignments."
      },
      "setMetadataOf(uint256,(string,uint256))": {
        "notice": " Allows a project owner to set the project's metadata content for a particular domain namespace. "
      },
      "setTokenUriResolver(address)": {
        "notice": " Set the address of the IJBTokenUriResolver used to retrieve the tokenURI of projects."
      },
      "tokenURI(uint256)": {
        "notice": " Returns the URI where the ERC-721 standard JSON of a project is hosted."
      },
      "tokenUriResolver()": {
        "notice": "The contract resolving each project ID to its ERC721 URI."
      }
    },
    "notice": " Stores project ownership and identifying information.",
    "version": 1
  },
  "storageLayout": {
    "storage": [
      {
        "astId": 2248,
        "contract": "contracts/JBProjects.sol:JBProjects",
        "label": "_name",
        "offset": 0,
        "slot": "0",
        "type": "t_string_storage"
      },
      {
        "astId": 2250,
        "contract": "contracts/JBProjects.sol:JBProjects",
        "label": "_symbol",
        "offset": 0,
        "slot": "1",
        "type": "t_string_storage"
      },
      {
        "astId": 2254,
        "contract": "contracts/JBProjects.sol:JBProjects",
        "label": "_owners",
        "offset": 0,
        "slot": "2",
        "type": "t_mapping(t_uint256,t_address)"
      },
      {
        "astId": 2258,
        "contract": "contracts/JBProjects.sol:JBProjects",
        "label": "_balances",
        "offset": 0,
        "slot": "3",
        "type": "t_mapping(t_address,t_uint256)"
      },
      {
        "astId": 2262,
        "contract": "contracts/JBProjects.sol:JBProjects",
        "label": "_tokenApprovals",
        "offset": 0,
        "slot": "4",
        "type": "t_mapping(t_uint256,t_address)"
      },
      {
        "astId": 2268,
        "contract": "contracts/JBProjects.sol:JBProjects",
        "label": "_operatorApprovals",
        "offset": 0,
        "slot": "5",
        "type": "t_mapping(t_address,t_mapping(t_address,t_bool))"
      },
      {
        "astId": 259,
        "contract": "contracts/JBProjects.sol:JBProjects",
        "label": "_delegation",
        "offset": 0,
        "slot": "6",
        "type": "t_mapping(t_address,t_address)"
      },
      {
        "astId": 264,
        "contract": "contracts/JBProjects.sol:JBProjects",
        "label": "_delegateCheckpoints",
        "offset": 0,
        "slot": "7",
        "type": "t_mapping(t_address,t_struct(History)3609_storage)"
      },
      {
        "astId": 267,
        "contract": "contracts/JBProjects.sol:JBProjects",
        "label": "_totalCheckpoints",
        "offset": 0,
        "slot": "8",
        "type": "t_struct(History)3609_storage"
      },
      {
        "astId": 272,
        "contract": "contracts/JBProjects.sol:JBProjects",
        "label": "_nonces",
        "offset": 0,
        "slot": "9",
        "type": "t_mapping(t_address,t_struct(Counter)3856_storage)"
      },
      {
        "astId": 53,
        "contract": "contracts/JBProjects.sol:JBProjects",
        "label": "_owner",
        "offset": 0,
        "slot": "10",
        "type": "t_address"
      },
      {
        "astId": 11888,
        "contract": "contracts/JBProjects.sol:JBProjects",
        "label": "count",
        "offset": 0,
        "slot": "11",
        "type": "t_uint256"
      },
      {
        "astId": 11896,
        "contract": "contracts/JBProjects.sol:JBProjects",
        "label": "metadataContentOf",
        "offset": 0,
        "slot": "12",
        "type": "t_mapping(t_uint256,t_mapping(t_uint256,t_string_storage))"
      },
      {
        "astId": 11901,
        "contract": "contracts/JBProjects.sol:JBProjects",
        "label": "tokenUriResolver",
        "offset": 0,
        "slot": "13",
        "type": "t_contract(IJBTokenUriResolver)15382"
      }
    ],
    "types": {
      "t_address": {
        "encoding": "inplace",
        "label": "address",
        "numberOfBytes": "20"
      },
      "t_array(t_struct(Checkpoint)3604_storage)dyn_storage": {
        "base": "t_struct(Checkpoint)3604_storage",
        "encoding": "dynamic_array",
        "label": "struct Checkpoints.Checkpoint[]",
        "numberOfBytes": "32"
      },
      "t_bool": {
        "encoding": "inplace",
        "label": "bool",
        "numberOfBytes": "1"
      },
      "t_contract(IJBTokenUriResolver)15382": {
        "encoding": "inplace",
        "label": "contract IJBTokenUriResolver",
        "numberOfBytes": "20"
      },
      "t_mapping(t_address,t_address)": {
        "encoding": "mapping",
        "key": "t_address",
        "label": "mapping(address => address)",
        "numberOfBytes": "32",
        "value": "t_address"
      },
      "t_mapping(t_address,t_bool)": {
        "encoding": "mapping",
        "key": "t_address",
        "label": "mapping(address => bool)",
        "numberOfBytes": "32",
        "value": "t_bool"
      },
      "t_mapping(t_address,t_mapping(t_address,t_bool))": {
        "encoding": "mapping",
        "key": "t_address",
        "label": "mapping(address => mapping(address => bool))",
        "numberOfBytes": "32",
        "value": "t_mapping(t_address,t_bool)"
      },
      "t_mapping(t_address,t_struct(Counter)3856_storage)": {
        "encoding": "mapping",
        "key": "t_address",
        "label": "mapping(address => struct Counters.Counter)",
        "numberOfBytes": "32",
        "value": "t_struct(Counter)3856_storage"
      },
      "t_mapping(t_address,t_struct(History)3609_storage)": {
        "encoding": "mapping",
        "key": "t_address",
        "label": "mapping(address => struct Checkpoints.History)",
        "numberOfBytes": "32",
        "value": "t_struct(History)3609_storage"
      },
      "t_mapping(t_address,t_uint256)": {
        "encoding": "mapping",
        "key": "t_address",
        "label": "mapping(address => uint256)",
        "numberOfBytes": "32",
        "value": "t_uint256"
      },
      "t_mapping(t_uint256,t_address)": {
        "encoding": "mapping",
        "key": "t_uint256",
        "label": "mapping(uint256 => address)",
        "numberOfBytes": "32",
        "value": "t_address"
      },
      "t_mapping(t_uint256,t_mapping(t_uint256,t_string_storage))": {
        "encoding": "mapping",
        "key": "t_uint256",
        "label": "mapping(uint256 => mapping(uint256 => string))",
        "numberOfBytes": "32",
        "value": "t_mapping(t_uint256,t_string_storage)"
      },
      "t_mapping(t_uint256,t_string_storage)": {
        "encoding": "mapping",
        "key": "t_uint256",
        "label": "mapping(uint256 => string)",
        "numberOfBytes": "32",
        "value": "t_string_storage"
      },
      "t_string_storage": {
        "encoding": "bytes",
        "label": "string",
        "numberOfBytes": "32"
      },
      "t_struct(Checkpoint)3604_storage": {
        "encoding": "inplace",
        "label": "struct Checkpoints.Checkpoint",
        "members": [
          {
            "astId": 3601,
            "contract": "contracts/JBProjects.sol:JBProjects",
            "label": "_blockNumber",
            "offset": 0,
            "slot": "0",
            "type": "t_uint32"
          },
          {
            "astId": 3603,
            "contract": "contracts/JBProjects.sol:JBProjects",
            "label": "_value",
            "offset": 4,
            "slot": "0",
            "type": "t_uint224"
          }
        ],
        "numberOfBytes": "32"
      },
      "t_struct(Counter)3856_storage": {
        "encoding": "inplace",
        "label": "struct Counters.Counter",
        "members": [
          {
            "astId": 3855,
            "contract": "contracts/JBProjects.sol:JBProjects",
            "label": "_value",
            "offset": 0,
            "slot": "0",
            "type": "t_uint256"
          }
        ],
        "numberOfBytes": "32"
      },
      "t_struct(History)3609_storage": {
        "encoding": "inplace",
        "label": "struct Checkpoints.History",
        "members": [
          {
            "astId": 3608,
            "contract": "contracts/JBProjects.sol:JBProjects",
            "label": "_checkpoints",
            "offset": 0,
            "slot": "0",
            "type": "t_array(t_struct(Checkpoint)3604_storage)dyn_storage"
          }
        ],
        "numberOfBytes": "32"
      },
      "t_uint224": {
        "encoding": "inplace",
        "label": "uint224",
        "numberOfBytes": "28"
      },
      "t_uint256": {
        "encoding": "inplace",
        "label": "uint256",
        "numberOfBytes": "32"
      },
      "t_uint32": {
        "encoding": "inplace",
        "label": "uint32",
        "numberOfBytes": "4"
      }
    }
  }
}