{
  "address": "0x9f0eC91d28fFc54874e9fF11A316Ba2537aCD72C",
  "abi": [
    {
      "inputs": [
        {
          "internalType": "contract IJBOperatorStore",
          "name": "_operatorStore",
          "type": "address"
        }
      ],
      "stateMutability": "nonpayable",
      "type": "constructor"
    },
    {
      "anonymous": false,
      "inputs": [
        {
          "indexed": true,
          "internalType": "address",
          "name": "owner",
          "type": "address"
        },
        {
          "indexed": true,
          "internalType": "address",
          "name": "approved",
          "type": "address"
        },
        {
          "indexed": true,
          "internalType": "uint256",
          "name": "tokenId",
          "type": "uint256"
        }
      ],
      "name": "Approval",
      "type": "event"
    },
    {
      "anonymous": false,
      "inputs": [
        {
          "indexed": true,
          "internalType": "address",
          "name": "owner",
          "type": "address"
        },
        {
          "indexed": true,
          "internalType": "address",
          "name": "operator",
          "type": "address"
        },
        {
          "indexed": false,
          "internalType": "bool",
          "name": "approved",
          "type": "bool"
        }
      ],
      "name": "ApprovalForAll",
      "type": "event"
    },
    {
      "anonymous": false,
      "inputs": [
        {
          "indexed": true,
          "internalType": "bytes32",
          "name": "handle",
          "type": "bytes32"
        },
        {
          "indexed": true,
          "internalType": "uint256",
          "name": "projectId",
          "type": "uint256"
        },
        {
          "indexed": false,
          "internalType": "uint256",
          "name": "challengeExpiry",
          "type": "uint256"
        },
        {
          "indexed": false,
          "internalType": "address",
          "name": "caller",
          "type": "address"
        }
      ],
      "name": "ChallengeHandle",
      "type": "event"
    },
    {
      "anonymous": false,
      "inputs": [
        {
          "indexed": true,
          "internalType": "uint256",
          "name": "projectId",
          "type": "uint256"
        },
        {
          "indexed": true,
          "internalType": "address",
          "name": "transferAddress",
          "type": "address"
        },
        {
          "indexed": true,
          "internalType": "bytes32",
          "name": "handle",
          "type": "bytes32"
        },
        {
          "indexed": false,
          "internalType": "address",
          "name": "caller",
          "type": "address"
        }
      ],
      "name": "ClaimHandle",
      "type": "event"
    },
    {
      "anonymous": false,
      "inputs": [
        {
          "indexed": true,
          "internalType": "uint256",
          "name": "projectId",
          "type": "uint256"
        },
        {
          "indexed": true,
          "internalType": "address",
          "name": "owner",
          "type": "address"
        },
        {
          "indexed": true,
          "internalType": "bytes32",
          "name": "handle",
          "type": "bytes32"
        },
        {
          "indexed": false,
          "internalType": "string",
          "name": "uri",
          "type": "string"
        },
        {
          "indexed": false,
          "internalType": "address",
          "name": "caller",
          "type": "address"
        }
      ],
      "name": "Create",
      "type": "event"
    },
    {
      "anonymous": false,
      "inputs": [
        {
          "indexed": true,
          "internalType": "bytes32",
          "name": "handle",
          "type": "bytes32"
        },
        {
          "indexed": true,
          "internalType": "uint256",
          "name": "projectId",
          "type": "uint256"
        },
        {
          "indexed": false,
          "internalType": "address",
          "name": "caller",
          "type": "address"
        }
      ],
      "name": "RenewHandle",
      "type": "event"
    },
    {
      "anonymous": false,
      "inputs": [
        {
          "indexed": true,
          "internalType": "uint256",
          "name": "projectId",
          "type": "uint256"
        },
        {
          "indexed": true,
          "internalType": "bytes32",
          "name": "handle",
          "type": "bytes32"
        },
        {
          "indexed": false,
          "internalType": "address",
          "name": "caller",
          "type": "address"
        }
      ],
      "name": "SetHandle",
      "type": "event"
    },
    {
      "anonymous": false,
      "inputs": [
        {
          "indexed": true,
          "internalType": "uint256",
          "name": "projectId",
          "type": "uint256"
        },
        {
          "indexed": false,
          "internalType": "string",
          "name": "uri",
          "type": "string"
        },
        {
          "indexed": false,
          "internalType": "address",
          "name": "caller",
          "type": "address"
        }
      ],
      "name": "SetUri",
      "type": "event"
    },
    {
      "anonymous": false,
      "inputs": [
        {
          "indexed": true,
          "internalType": "address",
          "name": "from",
          "type": "address"
        },
        {
          "indexed": true,
          "internalType": "address",
          "name": "to",
          "type": "address"
        },
        {
          "indexed": true,
          "internalType": "uint256",
          "name": "tokenId",
          "type": "uint256"
        }
      ],
      "name": "Transfer",
      "type": "event"
    },
    {
      "anonymous": false,
      "inputs": [
        {
          "indexed": true,
          "internalType": "uint256",
          "name": "projectId",
          "type": "uint256"
        },
        {
          "indexed": true,
          "internalType": "address",
          "name": "transferAddress",
          "type": "address"
        },
        {
          "indexed": true,
          "internalType": "bytes32",
          "name": "handle",
          "type": "bytes32"
        },
        {
          "indexed": false,
          "internalType": "bytes32",
          "name": "newHandle",
          "type": "bytes32"
        },
        {
          "indexed": false,
          "internalType": "address",
          "name": "caller",
          "type": "address"
        }
      ],
      "name": "TransferHandle",
      "type": "event"
    },
    {
      "inputs": [
        {
          "internalType": "address",
          "name": "to",
          "type": "address"
        },
        {
          "internalType": "uint256",
          "name": "tokenId",
          "type": "uint256"
        }
      ],
      "name": "approve",
      "outputs": [],
      "stateMutability": "nonpayable",
      "type": "function"
    },
    {
      "inputs": [
        {
          "internalType": "address",
          "name": "owner",
          "type": "address"
        }
      ],
      "name": "balanceOf",
      "outputs": [
        {
          "internalType": "uint256",
          "name": "",
          "type": "uint256"
        }
      ],
      "stateMutability": "view",
      "type": "function"
    },
    {
      "inputs": [
        {
          "internalType": "bytes32",
          "name": "",
          "type": "bytes32"
        }
      ],
      "name": "challengeExpiryOf",
      "outputs": [
        {
          "internalType": "uint256",
          "name": "",
          "type": "uint256"
        }
      ],
      "stateMutability": "view",
      "type": "function"
    },
    {
      "inputs": [
        {
          "internalType": "bytes32",
          "name": "_handle",
          "type": "bytes32"
        }
      ],
      "name": "challengeHandle",
      "outputs": [],
      "stateMutability": "nonpayable",
      "type": "function"
    },
    {
      "inputs": [
        {
          "internalType": "bytes32",
          "name": "_handle",
          "type": "bytes32"
        },
        {
          "internalType": "address",
          "name": "_transferAddress",
          "type": "address"
        },
        {
          "internalType": "uint256",
          "name": "_projectId",
          "type": "uint256"
        }
      ],
      "name": "claimHandle",
      "outputs": [],
      "stateMutability": "nonpayable",
      "type": "function"
    },
    {
      "inputs": [],
      "name": "count",
      "outputs": [
        {
          "internalType": "uint256",
          "name": "",
          "type": "uint256"
        }
      ],
      "stateMutability": "view",
      "type": "function"
    },
    {
      "inputs": [
        {
          "internalType": "address",
          "name": "_owner",
          "type": "address"
        },
        {
          "internalType": "bytes32",
          "name": "_handle",
          "type": "bytes32"
        },
        {
          "internalType": "string",
          "name": "_uri",
          "type": "string"
        }
      ],
      "name": "createFor",
      "outputs": [
        {
          "internalType": "uint256",
          "name": "",
          "type": "uint256"
        }
      ],
      "stateMutability": "nonpayable",
      "type": "function"
    },
    {
      "inputs": [
        {
          "internalType": "uint256",
          "name": "tokenId",
          "type": "uint256"
        }
      ],
      "name": "getApproved",
      "outputs": [
        {
          "internalType": "address",
          "name": "",
          "type": "address"
        }
      ],
      "stateMutability": "view",
      "type": "function"
    },
    {
      "inputs": [
        {
          "internalType": "uint256",
          "name": "",
          "type": "uint256"
        }
      ],
      "name": "handleOf",
      "outputs": [
        {
          "internalType": "bytes32",
          "name": "",
          "type": "bytes32"
        }
      ],
      "stateMutability": "view",
      "type": "function"
    },
    {
      "inputs": [
        {
          "internalType": "bytes32",
          "name": "",
          "type": "bytes32"
        }
      ],
      "name": "idFor",
      "outputs": [
        {
          "internalType": "uint256",
          "name": "",
          "type": "uint256"
        }
      ],
      "stateMutability": "view",
      "type": "function"
    },
    {
      "inputs": [
        {
          "internalType": "address",
          "name": "owner",
          "type": "address"
        },
        {
          "internalType": "address",
          "name": "operator",
          "type": "address"
        }
      ],
      "name": "isApprovedForAll",
      "outputs": [
        {
          "internalType": "bool",
          "name": "",
          "type": "bool"
        }
      ],
      "stateMutability": "view",
      "type": "function"
    },
    {
      "inputs": [],
      "name": "name",
      "outputs": [
        {
          "internalType": "string",
          "name": "",
          "type": "string"
        }
      ],
      "stateMutability": "view",
      "type": "function"
    },
    {
      "inputs": [],
      "name": "operatorStore",
      "outputs": [
        {
          "internalType": "contract IJBOperatorStore",
          "name": "",
          "type": "address"
        }
      ],
      "stateMutability": "view",
      "type": "function"
    },
    {
      "inputs": [
        {
          "internalType": "uint256",
          "name": "tokenId",
          "type": "uint256"
        }
      ],
      "name": "ownerOf",
      "outputs": [
        {
          "internalType": "address",
          "name": "",
          "type": "address"
        }
      ],
      "stateMutability": "view",
      "type": "function"
    },
    {
      "inputs": [
        {
          "internalType": "uint256",
          "name": "_projectId",
          "type": "uint256"
        }
      ],
      "name": "renewHandleOf",
      "outputs": [],
      "stateMutability": "nonpayable",
      "type": "function"
    },
    {
      "inputs": [
        {
          "internalType": "address",
          "name": "from",
          "type": "address"
        },
        {
          "internalType": "address",
          "name": "to",
          "type": "address"
        },
        {
          "internalType": "uint256",
          "name": "tokenId",
          "type": "uint256"
        }
      ],
      "name": "safeTransferFrom",
      "outputs": [],
      "stateMutability": "nonpayable",
      "type": "function"
    },
    {
      "inputs": [
        {
          "internalType": "address",
          "name": "from",
          "type": "address"
        },
        {
          "internalType": "address",
          "name": "to",
          "type": "address"
        },
        {
          "internalType": "uint256",
          "name": "tokenId",
          "type": "uint256"
        },
        {
          "internalType": "bytes",
          "name": "_data",
          "type": "bytes"
        }
      ],
      "name": "safeTransferFrom",
      "outputs": [],
      "stateMutability": "nonpayable",
      "type": "function"
    },
    {
      "inputs": [
        {
          "internalType": "address",
          "name": "operator",
          "type": "address"
        },
        {
          "internalType": "bool",
          "name": "approved",
          "type": "bool"
        }
      ],
      "name": "setApprovalForAll",
      "outputs": [],
      "stateMutability": "nonpayable",
      "type": "function"
    },
    {
      "inputs": [
        {
          "internalType": "uint256",
          "name": "_projectId",
          "type": "uint256"
        },
        {
          "internalType": "bytes32",
          "name": "_handle",
          "type": "bytes32"
        }
      ],
      "name": "setHandleOf",
      "outputs": [],
      "stateMutability": "nonpayable",
      "type": "function"
    },
    {
      "inputs": [
        {
          "internalType": "uint256",
          "name": "_projectId",
          "type": "uint256"
        },
        {
          "internalType": "string",
          "name": "_uri",
          "type": "string"
        }
      ],
      "name": "setUriOf",
      "outputs": [],
      "stateMutability": "nonpayable",
      "type": "function"
    },
    {
      "inputs": [
        {
          "internalType": "bytes4",
          "name": "interfaceId",
          "type": "bytes4"
        }
      ],
      "name": "supportsInterface",
      "outputs": [
        {
          "internalType": "bool",
          "name": "",
          "type": "bool"
        }
      ],
      "stateMutability": "view",
      "type": "function"
    },
    {
      "inputs": [],
      "name": "symbol",
      "outputs": [
        {
          "internalType": "string",
          "name": "",
          "type": "string"
        }
      ],
      "stateMutability": "view",
      "type": "function"
    },
    {
      "inputs": [
        {
          "internalType": "uint256",
          "name": "tokenId",
          "type": "uint256"
        }
      ],
      "name": "tokenURI",
      "outputs": [
        {
          "internalType": "string",
          "name": "",
          "type": "string"
        }
      ],
      "stateMutability": "view",
      "type": "function"
    },
    {
      "inputs": [
        {
          "internalType": "bytes32",
          "name": "",
          "type": "bytes32"
        }
      ],
      "name": "transferAddressFor",
      "outputs": [
        {
          "internalType": "address",
          "name": "",
          "type": "address"
        }
      ],
      "stateMutability": "view",
      "type": "function"
    },
    {
      "inputs": [
        {
          "internalType": "address",
          "name": "from",
          "type": "address"
        },
        {
          "internalType": "address",
          "name": "to",
          "type": "address"
        },
        {
          "internalType": "uint256",
          "name": "tokenId",
          "type": "uint256"
        }
      ],
      "name": "transferFrom",
      "outputs": [],
      "stateMutability": "nonpayable",
      "type": "function"
    },
    {
      "inputs": [
        {
          "internalType": "uint256",
          "name": "_projectId",
          "type": "uint256"
        },
        {
          "internalType": "address",
          "name": "_transferAddress",
          "type": "address"
        },
        {
          "internalType": "bytes32",
          "name": "_newHandle",
          "type": "bytes32"
        }
      ],
      "name": "transferHandleOf",
      "outputs": [
        {
          "internalType": "bytes32",
          "name": "handle",
          "type": "bytes32"
        }
      ],
      "stateMutability": "nonpayable",
      "type": "function"
    },
    {
      "inputs": [
        {
          "internalType": "uint256",
          "name": "",
          "type": "uint256"
        }
      ],
      "name": "uriOf",
      "outputs": [
        {
          "internalType": "string",
          "name": "",
          "type": "string"
        }
      ],
      "stateMutability": "view",
      "type": "function"
    }
  ],
  "transactionHash": "0x42223a34680470e3c9674a766307ea9812715612702d73a7ce8bc697638a62c5",
  "args": [
    "0xE05605882C3F34B4Ef3586D70dE294f3f9654Ee8"
  ],
  "solcInputHash": "3b4710394790e6b2fbe3ff5eb3b8549b",
  "bytecode": "0x60a060405260006006553480156200001657600080fd5b50604051620035ed380380620035ed833981016040819052620000399162000168565b604080518082018252601081526f129d5a58d9589bde081c1c9bda9958dd60821b602080830191825283518085019094526008845267094aa92868a849eb60c31b908401528151849391620000929160009190620000c2565b508051620000a8906001906020840190620000c2565b50505060601b6001600160601b03191660805250620001d7565b828054620000d0906200019a565b90600052602060002090601f016020900481019282620000f457600085556200013f565b82601f106200010f57805160ff19168380011785556200013f565b828001600101855582156200013f579182015b828111156200013f57825182559160200191906001019062000122565b506200014d92915062000151565b5090565b5b808211156200014d576000815560010162000152565b6000602082840312156200017b57600080fd5b81516001600160a01b03811681146200019357600080fd5b9392505050565b600181811c90821680620001af57607f821691505b60208210811415620001d157634e487b7160e01b600052602260045260246000fd5b50919050565b60805160601c6133a36200024a6000396000818161036a0152818161094501528181610a1e01528181610d3e01528181610e17015281816116740152818161174d01528181611a3101528181611b0a01528181611c9c01528181611d7501528181611ebf0152611f9801526133a36000f3fe608060405234801561001057600080fd5b50600436106101b95760003560e01c8063733f0127116100f9578063ba8e8c1d11610097578063d5af3d2911610071578063d5af3d2914610408578063e985e9c51461041b578063ee1dd35314610464578063fc1dd6de1461047757600080fd5b8063ba8e8c1d1461039f578063c87b56dd146103bf578063d39afed9146103d257600080fd5b8063a22cb465116100d3578063a22cb4651461033f578063a312889b14610352578063ad007d6314610365578063b88d4fde1461038c57600080fd5b8063733f0127146103115780637b0230141461032457806395d89b411461033757600080fd5b806342842e0e1161016657806350ca58df1161014057806350ca58df146102c55780636352211e146102d8578063702a3977146102eb57806370a08231146102fe57600080fd5b806342842e0e146102725780634737e5321461028557806349491987146102a557600080fd5b8063081812fc11610197578063081812fc14610212578063095ea7b31461024a57806323b872dd1461025f57600080fd5b806301ffc9a7146101be57806306661abd146101e657806306fdde03146101fd575b600080fd5b6101d16101cc366004612f78565b61048a565b60405190151581526020015b60405180910390f35b6101ef60065481565b6040519081526020016101dd565b61020561056f565b6040516101dd919061314f565b610225610220366004612f3a565b610601565b60405173ffffffffffffffffffffffffffffffffffffffff90911681526020016101dd565b61025d610258366004612ef3565b6106c6565b005b61025d61026d366004612d2c565b61081f565b61025d610280366004612d2c565b6108a6565b6101ef610293366004612f3a565b60096020526000908152604090205481565b6101ef6102b3366004612f3a565b60086020526000908152604090205481565b61025d6102d3366004612fb2565b6108c1565b6102256102e6366004612f3a565b610c22565b61025d6102f9366004612fd4565b610cba565b6101ef61030c366004612cde565b610f3b565b6101ef61031f366004612e99565b610fef565b61025d610332366004612f3a565b611196565b6102056112b7565b61025d61034d366004612e62565b6112c6565b610205610360366004612f3a565b6113c3565b6102257f000000000000000000000000000000000000000000000000000000000000000081565b61025d61039a366004612d68565b61145d565b6101ef6103ad366004612f3a565b600b6020526000908152604090205481565b6102056103cd366004612f3a565b6114eb565b6102256103e0366004612f3a565b600a6020526000908152604090205473ffffffffffffffffffffffffffffffffffffffff1681565b6101ef610416366004612f53565b6115ee565b6101d1610429366004612cf9565b73ffffffffffffffffffffffffffffffffffffffff918216600090815260056020908152604080832093909416825291909152205460ff1690565b61025d610472366004612f3a565b6119ad565b61025d610485366004612f53565b611c20565b60007fffffffff0000000000000000000000000000000000000000000000000000000082167f80ac58cd00000000000000000000000000000000000000000000000000000000148061051d57507fffffffff0000000000000000000000000000000000000000000000000000000082167f5b5e139f00000000000000000000000000000000000000000000000000000000145b8061056957507f01ffc9a7000000000000000000000000000000000000000000000000000000007fffffffff000000000000000000000000000000000000000000000000000000008316145b92915050565b60606000805461057e906131d1565b80601f01602080910402602001604051908101604052809291908181526020018280546105aa906131d1565b80156105f75780601f106105cc576101008083540402835291602001916105f7565b820191906000526020600020905b8154815290600101906020018083116105da57829003601f168201915b5050505050905090565b60008181526002602052604081205473ffffffffffffffffffffffffffffffffffffffff1661069d5760405162461bcd60e51b815260206004820152602c60248201527f4552433732313a20617070726f76656420717565727920666f72206e6f6e657860448201527f697374656e7420746f6b656e000000000000000000000000000000000000000060648201526084015b60405180910390fd5b5060009081526004602052604090205473ffffffffffffffffffffffffffffffffffffffff1690565b60006106d182610c22565b90508073ffffffffffffffffffffffffffffffffffffffff168373ffffffffffffffffffffffffffffffffffffffff1614156107755760405162461bcd60e51b815260206004820152602160248201527f4552433732313a20617070726f76616c20746f2063757272656e74206f776e6560448201527f72000000000000000000000000000000000000000000000000000000000000006064820152608401610694565b3373ffffffffffffffffffffffffffffffffffffffff8216148061079e575061079e8133610429565b6108105760405162461bcd60e51b815260206004820152603860248201527f4552433732313a20617070726f76652063616c6c6572206973206e6f74206f7760448201527f6e6572206e6f7220617070726f76656420666f7220616c6c00000000000000006064820152608401610694565b61081a83836121be565b505050565b610829338261225e565b61089b5760405162461bcd60e51b815260206004820152603160248201527f4552433732313a207472616e736665722063616c6c6572206973206e6f74206f60448201527f776e6572206e6f7220617070726f7665640000000000000000000000000000006064820152608401610694565b61081a8383836123b0565b61081a8383836040518060200160405280600081525061145d565b6108ca82610c22565b8260073373ffffffffffffffffffffffffffffffffffffffff841614806109bf57506040517fc161c93f00000000000000000000000000000000000000000000000000000000815233600482015273ffffffffffffffffffffffffffffffffffffffff848116602483015260448201849052606482018390527f0000000000000000000000000000000000000000000000000000000000000000169063c161c93f9060840160206040518083038186803b15801561098757600080fd5b505afa15801561099b573d6000803e3d6000fd5b505050506040513d601f19601f820116820180604052508101906109bf9190612f1d565b80610a9857506040517fc161c93f00000000000000000000000000000000000000000000000000000000815233600482015273ffffffffffffffffffffffffffffffffffffffff848116602483015260006044830152606482018390527f0000000000000000000000000000000000000000000000000000000000000000169063c161c93f9060840160206040518083038186803b158015610a6057600080fd5b505afa158015610a74573d6000803e3d6000fd5b505050506040513d601f19601f82011682018060405250810190610a989190612f1d565b610ae45760405162461bcd60e51b815260206004820152601860248201527f4f706572617461626c653a20554e415554484f52495a454400000000000000006044820152606401610694565b83610b315760405162461bcd60e51b815260206004820152601260248201527f307830383a20454d5054595f48414e444c4500000000000000000000000000006044820152606401610694565b600084815260096020526040902054158015610b6f57506000848152600a602052604090205473ffffffffffffffffffffffffffffffffffffffff16155b610bbb5760405162461bcd60e51b815260206004820152601260248201527f307830393a2048414e444c455f54414b454e00000000000000000000000000006044820152606401610694565b60008581526008602090815260408083208054845260098352818420849055879055868352918290208790559051338152859187917e079d7af084def275bc880ac88a2e556cf9a2001231b27a71d0082607876ac591015b60405180910390a35050505050565b60008181526002602052604081205473ffffffffffffffffffffffffffffffffffffffff16806105695760405162461bcd60e51b815260206004820152602960248201527f4552433732313a206f776e657220717565727920666f72206e6f6e657869737460448201527f656e7420746f6b656e00000000000000000000000000000000000000000000006064820152608401610694565b610cc383610c22565b8360083373ffffffffffffffffffffffffffffffffffffffff84161480610db857506040517fc161c93f00000000000000000000000000000000000000000000000000000000815233600482015273ffffffffffffffffffffffffffffffffffffffff848116602483015260448201849052606482018390527f0000000000000000000000000000000000000000000000000000000000000000169063c161c93f9060840160206040518083038186803b158015610d8057600080fd5b505afa158015610d94573d6000803e3d6000fd5b505050506040513d601f19601f82011682018060405250810190610db89190612f1d565b80610e9157506040517fc161c93f00000000000000000000000000000000000000000000000000000000815233600482015273ffffffffffffffffffffffffffffffffffffffff848116602483015260006044830152606482018390527f0000000000000000000000000000000000000000000000000000000000000000169063c161c93f9060840160206040518083038186803b158015610e5957600080fd5b505afa158015610e6d573d6000803e3d6000fd5b505050506040513d601f19601f82011682018060405250810190610e919190612f1d565b610edd5760405162461bcd60e51b815260206004820152601860248201527f4f706572617461626c653a20554e415554484f52495a454400000000000000006044820152606401610694565b6000868152600760205260409020610ef6908686612bb5565b50857f0f3d240fe5efaeda774d27bf0425f932ddd2098297b26de8070d6c8bef534b16868633604051610f2b939291906130e2565b60405180910390a2505050505050565b600073ffffffffffffffffffffffffffffffffffffffff8216610fc65760405162461bcd60e51b815260206004820152602a60248201527f4552433732313a2062616c616e636520717565727920666f7220746865207a6560448201527f726f2061646472657373000000000000000000000000000000000000000000006064820152608401610694565b5073ffffffffffffffffffffffffffffffffffffffff1660009081526003602052604090205490565b60008361103e5760405162461bcd60e51b815260206004820152601260248201527f307830363a20454d5054595f48414e444c4500000000000000000000000000006044820152606401610694565b60008481526009602052604090205415801561107c57506000848152600a602052604090205473ffffffffffffffffffffffffffffffffffffffff16155b6110c85760405162461bcd60e51b815260206004820152601260248201527f307830373a2048414e444c455f54414b454e00000000000000000000000000006044820152606401610694565b600680549060006110d883613225565b91905055506110e9856006546125e3565b60068054600090815260086020908152604080832088905592548783526009909152919020558115611133576006546000908152600760205260409020611131908484612bb5565b505b838573ffffffffffffffffffffffffffffffffffffffff166006547fd90717abd887cf93b92f5ba6ed5d1c02c3e91767e2af12834b01d64a16a1ed9c868633604051611181939291906130e2565b60405180910390a4506006545b949350505050565b600081815260096020526040902054806111f25760405162461bcd60e51b815260206004820152601660248201527f307830643a2048414e444c455f4e4f545f54414b454e000000000000000000006044820152606401610694565b6000828152600b60205260409020541561124e5760405162461bcd60e51b815260206004820152601460248201527f307830653a204348414c4c454e47455f4f50454e0000000000000000000000006044820152606401610694565b600061125e6301e1338042613162565b6000848152600b602090815260409182902083905581518381523391810191909152919250839185917fa98d4166a279687385a76a4399d08fa62a1b30b7019b27ec4076e66112bac36d910160405180910390a3505050565b60606001805461057e906131d1565b73ffffffffffffffffffffffffffffffffffffffff821633141561132c5760405162461bcd60e51b815260206004820152601960248201527f4552433732313a20617070726f766520746f2063616c6c6572000000000000006044820152606401610694565b33600081815260056020908152604080832073ffffffffffffffffffffffffffffffffffffffff87168085529083529281902080547fffffffffffffffffffffffffffffffffffffffffffffffffffffffffffffff001686151590811790915590519081529192917f17307eab39ab6107e8899845ad3d59bd9653f200f220920489ca2b5937696c31910160405180910390a35050565b600760205260009081526040902080546113dc906131d1565b80601f0160208091040260200160405190810160405280929190818152602001828054611408906131d1565b80156114555780601f1061142a57610100808354040283529160200191611455565b820191906000526020600020905b81548152906001019060200180831161143857829003601f168201915b505050505081565b611467338361225e565b6114d95760405162461bcd60e51b815260206004820152603160248201527f4552433732313a207472616e736665722063616c6c6572206973206e6f74206f60448201527f776e6572206e6f7220617070726f7665640000000000000000000000000000006064820152608401610694565b6114e584848484612601565b50505050565b60008181526002602052604090205460609073ffffffffffffffffffffffffffffffffffffffff166115855760405162461bcd60e51b815260206004820152602f60248201527f4552433732314d657461646174613a2055524920717565727920666f72206e6f60448201527f6e6578697374656e7420746f6b656e00000000000000000000000000000000006064820152608401610694565b600061159c60408051602081019091526000815290565b905060008151116115bc57604051806020016040528060008152506115e7565b806115c68461268a565b6040516020016115d792919061306a565b6040516020818303038152906040525b9392505050565b60006115f984610c22565b8460073373ffffffffffffffffffffffffffffffffffffffff841614806116ee57506040517fc161c93f00000000000000000000000000000000000000000000000000000000815233600482015273ffffffffffffffffffffffffffffffffffffffff848116602483015260448201849052606482018390527f0000000000000000000000000000000000000000000000000000000000000000169063c161c93f9060840160206040518083038186803b1580156116b657600080fd5b505afa1580156116ca573d6000803e3d6000fd5b505050506040513d601f19601f820116820180604052508101906116ee9190612f1d565b806117c757506040517fc161c93f00000000000000000000000000000000000000000000000000000000815233600482015273ffffffffffffffffffffffffffffffffffffffff848116602483015260006044830152606482018390527f0000000000000000000000000000000000000000000000000000000000000000169063c161c93f9060840160206040518083038186803b15801561178f57600080fd5b505afa1580156117a3573d6000803e3d6000fd5b505050506040513d601f19601f820116820180604052508101906117c79190612f1d565b6118135760405162461bcd60e51b815260206004820152601860248201527f4f706572617461626c653a20554e415554484f52495a454400000000000000006044820152606401610694565b846118605760405162461bcd60e51b815260206004820152601260248201527f307830613a20454d5054595f48414e444c4500000000000000000000000000006044820152606401610694565b60008581526009602052604090205415801561189e57506000858152600a602052604090205473ffffffffffffffffffffffffffffffffffffffff16155b6118ea5760405162461bcd60e51b815260206004820152601260248201527f307830623a2048414e444c455f54414b454e00000000000000000000000000006044820152606401610694565b60008781526008602090815260408083208054808552600984528285208590558985528285208c905590899055808452600a83529281902080547fffffffffffffffffffffffff00000000000000000000000000000000000000001673ffffffffffffffffffffffffffffffffffffffff8b16908117909155815189815233938101939093529296508692918a917fd46a8ff77c59c98b930d834768ba8d0983b5a0b99ebbd12af00f2f182eeeeee1910160405180910390a45050509392505050565b6119b681610c22565b81600a3373ffffffffffffffffffffffffffffffffffffffff84161480611aab57506040517fc161c93f00000000000000000000000000000000000000000000000000000000815233600482015273ffffffffffffffffffffffffffffffffffffffff848116602483015260448201849052606482018390527f0000000000000000000000000000000000000000000000000000000000000000169063c161c93f9060840160206040518083038186803b158015611a7357600080fd5b505afa158015611a87573d6000803e3d6000fd5b505050506040513d601f19601f82011682018060405250810190611aab9190612f1d565b80611b8457506040517fc161c93f00000000000000000000000000000000000000000000000000000000815233600482015273ffffffffffffffffffffffffffffffffffffffff848116602483015260006044830152606482018390527f0000000000000000000000000000000000000000000000000000000000000000169063c161c93f9060840160206040518083038186803b158015611b4c57600080fd5b505afa158015611b60573d6000803e3d6000fd5b505050506040513d601f19601f82011682018060405250810190611b849190612f1d565b611bd05760405162461bcd60e51b815260206004820152601860248201527f4f706572617461626c653a20554e415554484f52495a454400000000000000006044820152606401610694565b600084815260086020908152604080832054808452600b83528184209390935551338152869183917f6eec1e60946fbfd12ab0bde53c7c27478f3c07b42ffea7d25a719af24590eebf9101610c13565b818160093373ffffffffffffffffffffffffffffffffffffffff84161480611d1657506040517fc161c93f00000000000000000000000000000000000000000000000000000000815233600482015273ffffffffffffffffffffffffffffffffffffffff848116602483015260448201849052606482018390527f0000000000000000000000000000000000000000000000000000000000000000169063c161c93f9060840160206040518083038186803b158015611cde57600080fd5b505afa158015611cf2573d6000803e3d6000fd5b505050506040513d601f19601f82011682018060405250810190611d169190612f1d565b80611def57506040517fc161c93f00000000000000000000000000000000000000000000000000000000815233600482015273ffffffffffffffffffffffffffffffffffffffff848116602483015260006044830152606482018390527f0000000000000000000000000000000000000000000000000000000000000000169063c161c93f9060840160206040518083038186803b158015611db757600080fd5b505afa158015611dcb573d6000803e3d6000fd5b505050506040513d601f19601f82011682018060405250810190611def9190612f1d565b611e3b5760405162461bcd60e51b815260206004820152601860248201527f4f706572617461626c653a20554e415554484f52495a454400000000000000006044820152606401610694565b611e4484610c22565b8460093373ffffffffffffffffffffffffffffffffffffffff84161480611f3957506040517fc161c93f00000000000000000000000000000000000000000000000000000000815233600482015273ffffffffffffffffffffffffffffffffffffffff848116602483015260448201849052606482018390527f0000000000000000000000000000000000000000000000000000000000000000169063c161c93f9060840160206040518083038186803b158015611f0157600080fd5b505afa158015611f15573d6000803e3d6000fd5b505050506040513d601f19601f82011682018060405250810190611f399190612f1d565b8061201257506040517fc161c93f00000000000000000000000000000000000000000000000000000000815233600482015273ffffffffffffffffffffffffffffffffffffffff848116602483015260006044830152606482018390527f0000000000000000000000000000000000000000000000000000000000000000169063c161c93f9060840160206040518083038186803b158015611fda57600080fd5b505afa158015611fee573d6000803e3d6000fd5b505050506040513d601f19601f820116820180604052508101906120129190612f1d565b61205e5760405162461bcd60e51b815260206004820152601860248201527f4f706572617461626c653a20554e415554484f52495a454400000000000000006044820152606401610694565b6000898152600a602052604090205473ffffffffffffffffffffffffffffffffffffffff898116911614806120b857506000898152600b6020526040902054158015906120b857506000898152600b602052604090205442115b6121045760405162461bcd60e51b815260206004820152601260248201527f307830633a20554e415554484f52495a454400000000000000000000000000006044820152606401610694565b600087815260086020908152604080832080548452600983528184208490558c84528184208b90558c9055600a825280832080547fffffffffffffffffffffffff0000000000000000000000000000000000000000169055600b82528083209290925590513381528a9173ffffffffffffffffffffffffffffffffffffffff8b16918a917f1fad793256b964b482b25642d6fc37842634e3f800528f0a943a4863078846ba910160405180910390a4505050505050505050565b600081815260046020526040902080547fffffffffffffffffffffffff00000000000000000000000000000000000000001673ffffffffffffffffffffffffffffffffffffffff8416908117909155819061221882610c22565b73ffffffffffffffffffffffffffffffffffffffff167f8c5be1e5ebec7d5bd14f71427d1e84f3dd0314c0f7b2291e5b200ac8c7c3b92560405160405180910390a45050565b60008181526002602052604081205473ffffffffffffffffffffffffffffffffffffffff166122f55760405162461bcd60e51b815260206004820152602c60248201527f4552433732313a206f70657261746f7220717565727920666f72206e6f6e657860448201527f697374656e7420746f6b656e00000000000000000000000000000000000000006064820152608401610694565b600061230083610c22565b90508073ffffffffffffffffffffffffffffffffffffffff168473ffffffffffffffffffffffffffffffffffffffff16148061236f57508373ffffffffffffffffffffffffffffffffffffffff1661235784610601565b73ffffffffffffffffffffffffffffffffffffffff16145b8061118e575073ffffffffffffffffffffffffffffffffffffffff80821660009081526005602090815260408083209388168352929052205460ff1661118e565b8273ffffffffffffffffffffffffffffffffffffffff166123d082610c22565b73ffffffffffffffffffffffffffffffffffffffff16146124595760405162461bcd60e51b815260206004820152602960248201527f4552433732313a207472616e73666572206f6620746f6b656e2074686174206960448201527f73206e6f74206f776e00000000000000000000000000000000000000000000006064820152608401610694565b73ffffffffffffffffffffffffffffffffffffffff82166124e15760405162461bcd60e51b8152602060048201526024808201527f4552433732313a207472616e7366657220746f20746865207a65726f2061646460448201527f72657373000000000000000000000000000000000000000000000000000000006064820152608401610694565b6124ec6000826121be565b73ffffffffffffffffffffffffffffffffffffffff8316600090815260036020526040812080546001929061252290849061318e565b909155505073ffffffffffffffffffffffffffffffffffffffff8216600090815260036020526040812080546001929061255d908490613162565b909155505060008181526002602052604080822080547fffffffffffffffffffffffff00000000000000000000000000000000000000001673ffffffffffffffffffffffffffffffffffffffff86811691821790925591518493918716917fddf252ad1be2c89b69c2b068fc378daa952ba7f163c4a11628f55a4df523b3ef91a4505050565b6125fd8282604051806020016040528060008152506127bc565b5050565b61260c8484846123b0565b61261884848484612845565b6114e55760405162461bcd60e51b815260206004820152603260248201527f4552433732313a207472616e7366657220746f206e6f6e20455243373231526560448201527f63656976657220696d706c656d656e74657200000000000000000000000000006064820152608401610694565b6060816126ca57505060408051808201909152600181527f3000000000000000000000000000000000000000000000000000000000000000602082015290565b8160005b81156126f457806126de81613225565b91506126ed9050600a8361317a565b91506126ce565b60008167ffffffffffffffff81111561270f5761270f6132ff565b6040519080825280601f01601f191660200182016040528015612739576020820181803683370190505b5090505b841561118e5761274e60018361318e565b915061275b600a8661325e565b612766906030613162565b60f81b81838151811061277b5761277b6132d0565b60200101907effffffffffffffffffffffffffffffffffffffffffffffffffffffffffffff1916908160001a9053506127b5600a8661317a565b945061273d565b6127c68383612a27565b6127d36000848484612845565b61081a5760405162461bcd60e51b815260206004820152603260248201527f4552433732313a207472616e7366657220746f206e6f6e20455243373231526560448201527f63656976657220696d706c656d656e74657200000000000000000000000000006064820152608401610694565b600073ffffffffffffffffffffffffffffffffffffffff84163b15612a1f576040517f150b7a0200000000000000000000000000000000000000000000000000000000815273ffffffffffffffffffffffffffffffffffffffff85169063150b7a02906128bc903390899088908890600401613099565b602060405180830381600087803b1580156128d657600080fd5b505af1925050508015612924575060408051601f3d9081017fffffffffffffffffffffffffffffffffffffffffffffffffffffffffffffffe016820190925261292191810190612f95565b60015b6129d4573d808015612952576040519150601f19603f3d011682016040523d82523d6000602084013e612957565b606091505b5080516129cc5760405162461bcd60e51b815260206004820152603260248201527f4552433732313a207472616e7366657220746f206e6f6e20455243373231526560448201527f63656976657220696d706c656d656e74657200000000000000000000000000006064820152608401610694565b805181602001fd5b7fffffffff00000000000000000000000000000000000000000000000000000000167f150b7a020000000000000000000000000000000000000000000000000000000014905061118e565b50600161118e565b73ffffffffffffffffffffffffffffffffffffffff8216612a8a5760405162461bcd60e51b815260206004820181905260248201527f4552433732313a206d696e7420746f20746865207a65726f20616464726573736044820152606401610694565b60008181526002602052604090205473ffffffffffffffffffffffffffffffffffffffff1615612afc5760405162461bcd60e51b815260206004820152601c60248201527f4552433732313a20746f6b656e20616c7265616479206d696e746564000000006044820152606401610694565b73ffffffffffffffffffffffffffffffffffffffff82166000908152600360205260408120805460019290612b32908490613162565b909155505060008181526002602052604080822080547fffffffffffffffffffffffff00000000000000000000000000000000000000001673ffffffffffffffffffffffffffffffffffffffff861690811790915590518392907fddf252ad1be2c89b69c2b068fc378daa952ba7f163c4a11628f55a4df523b3ef908290a45050565b828054612bc1906131d1565b90600052602060002090601f016020900481019282612be35760008555612c47565b82601f10612c1a578280017fffffffffffffffffffffffffffffffffffffffffffffffffffffffffffffff00823516178555612c47565b82800160010185558215612c47579182015b82811115612c47578235825591602001919060010190612c2c565b50612c53929150612c57565b5090565b5b80821115612c535760008155600101612c58565b803573ffffffffffffffffffffffffffffffffffffffff81168114612c9057600080fd5b919050565b60008083601f840112612ca757600080fd5b50813567ffffffffffffffff811115612cbf57600080fd5b602083019150836020828501011115612cd757600080fd5b9250929050565b600060208284031215612cf057600080fd5b6115e782612c6c565b60008060408385031215612d0c57600080fd5b612d1583612c6c565b9150612d2360208401612c6c565b90509250929050565b600080600060608486031215612d4157600080fd5b612d4a84612c6c565b9250612d5860208501612c6c565b9150604084013590509250925092565b60008060008060808587031215612d7e57600080fd5b612d8785612c6c565b9350612d9560208601612c6c565b925060408501359150606085013567ffffffffffffffff80821115612db957600080fd5b818701915087601f830112612dcd57600080fd5b813581811115612ddf57612ddf6132ff565b604051601f82017fffffffffffffffffffffffffffffffffffffffffffffffffffffffffffffffe0908116603f01168101908382118183101715612e2557612e256132ff565b816040528281528a6020848701011115612e3e57600080fd5b82602086016020830137600060208483010152809550505050505092959194509250565b60008060408385031215612e7557600080fd5b612e7e83612c6c565b91506020830135612e8e8161332e565b809150509250929050565b60008060008060608587031215612eaf57600080fd5b612eb885612c6c565b935060208501359250604085013567ffffffffffffffff811115612edb57600080fd5b612ee787828801612c95565b95989497509550505050565b60008060408385031215612f0657600080fd5b612f0f83612c6c565b946020939093013593505050565b600060208284031215612f2f57600080fd5b81516115e78161332e565b600060208284031215612f4c57600080fd5b5035919050565b600080600060608486031215612f6857600080fd5b83359250612d5860208501612c6c565b600060208284031215612f8a57600080fd5b81356115e78161333f565b600060208284031215612fa757600080fd5b81516115e78161333f565b60008060408385031215612fc557600080fd5b50508035926020909101359150565b600080600060408486031215612fe957600080fd5b83359250602084013567ffffffffffffffff81111561300757600080fd5b61301386828701612c95565b9497909650939450505050565b600081518084526130388160208601602086016131a5565b601f017fffffffffffffffffffffffffffffffffffffffffffffffffffffffffffffffe0169290920160200192915050565b6000835161307c8184602088016131a5565b8351908301906130908183602088016131a5565b01949350505050565b600073ffffffffffffffffffffffffffffffffffffffff8087168352808616602084015250836040830152608060608301526130d86080830184613020565b9695505050505050565b6040815282604082015282846060830137600060608483010152600060607fffffffffffffffffffffffffffffffffffffffffffffffffffffffffffffffe0601f860116830101905073ffffffffffffffffffffffffffffffffffffffff83166020830152949350505050565b6020815260006115e76020830184613020565b6000821982111561317557613175613272565b500190565b600082613189576131896132a1565b500490565b6000828210156131a0576131a0613272565b500390565b60005b838110156131c05781810151838201526020016131a8565b838111156114e55750506000910152565b600181811c908216806131e557607f821691505b6020821081141561321f577f4e487b7100000000000000000000000000000000000000000000000000000000600052602260045260246000fd5b50919050565b60007fffffffffffffffffffffffffffffffffffffffffffffffffffffffffffffffff82141561325757613257613272565b5060010190565b60008261326d5761326d6132a1565b500690565b7f4e487b7100000000000000000000000000000000000000000000000000000000600052601160045260246000fd5b7f4e487b7100000000000000000000000000000000000000000000000000000000600052601260045260246000fd5b7f4e487b7100000000000000000000000000000000000000000000000000000000600052603260045260246000fd5b7f4e487b7100000000000000000000000000000000000000000000000000000000600052604160045260246000fd5b801515811461333c57600080fd5b50565b7fffffffff000000000000000000000000000000000000000000000000000000008116811461333c57600080fdfea26469706673582212207f91bacbda88fad5d4630432cfa7907dfa92f07876c68ee426f016187d3fa28164736f6c63430008060033",
  "devdoc": {
    "details": "Projects are represented as ERC-721's.",
    "kind": "dev",
    "methods": {
      "approve(address,uint256)": {
        "details": "See {IERC721-approve}."
      },
      "balanceOf(address)": {
        "details": "See {IERC721-balanceOf}."
      },
      "challengeHandle(bytes32)": {
        "params": {
          "_handle": "The handle to challenge."
        }
      },
      "claimHandle(bytes32,address,uint256)": {
        "details": " Only a project's owner or operator can claim a handle for it.",
        "params": {
          "_handle": "The handle being claimed.",
          "_projectId": "The ID of the project to assign to the claimed handle.",
          "_transferAddress": "The address to which the handle has been transferred, which can now assign the handle to a project."
        }
      },
      "constructor": {
        "params": {
          "_operatorStore": "A contract storing operator assignments."
        }
      },
      "createFor(address,bytes32,string)": {
        "details": " Anyone can create a project on an owner's behalf.",
        "params": {
          "_handle": "A unique string to associate with the project that will resolve to its token ID.",
          "_owner": "The address that will be the owner of the project.",
          "_uri": "An IPFS CID hash where metadata about the project has been uploaded. An empty string is acceptable if no metadata is being provided."
        },
        "returns": {
          "_0": "The token ID of the newly created project"
        }
      },
      "getApproved(uint256)": {
        "details": "See {IERC721-getApproved}."
      },
      "isApprovedForAll(address,address)": {
        "details": "See {IERC721-isApprovedForAll}."
      },
      "name()": {
        "details": "See {IERC721Metadata-name}."
      },
      "ownerOf(uint256)": {
        "details": "See {IERC721-ownerOf}."
      },
      "renewHandleOf(uint256)": {
        "details": " Only a project's owner or operator can renew its handle.",
        "params": {
          "_projectId": "The ID of the project to which the handle being renewed belongs. "
        }
      },
      "safeTransferFrom(address,address,uint256)": {
        "details": "See {IERC721-safeTransferFrom}."
      },
      "safeTransferFrom(address,address,uint256,bytes)": {
        "details": "See {IERC721-safeTransferFrom}."
      },
      "setApprovalForAll(address,bool)": {
        "details": "See {IERC721-setApprovalForAll}."
      },
      "setHandleOf(uint256,bytes32)": {
        "details": " Only a project's owner or operator can set its handle.",
        "params": {
          "_handle": "The new unique handle for the project.",
          "_projectId": "The ID of the project who's handle is being changed."
        }
      },
      "setUriOf(uint256,string)": {
        "details": " Only a project's owner or operator can set its URI.",
        "params": {
          "_projectId": "The ID of the project who's URI is being changed.",
          "_uri": "The new IPFS CID hash where metadata about the project has been uploaded."
        }
      },
      "supportsInterface(bytes4)": {
        "details": "See {IERC165-supportsInterface}."
      },
      "symbol()": {
        "details": "See {IERC721Metadata-symbol}."
      },
      "tokenURI(uint256)": {
        "details": "See {IERC721Metadata-tokenURI}."
      },
      "transferFrom(address,address,uint256)": {
        "details": "See {IERC721-transferFrom}."
      },
      "transferHandleOf(uint256,address,bytes32)": {
        "details": " Only a project's owner or operator can transfer its handle.",
        "params": {
          "_newHandle": "The new unique handle for the project that will replace the transferred one.",
          "_projectId": "The ID of the project to transfer the handle from.",
          "_transferAddress": "The address that should be able to reallocate the transferred handle."
        },
        "returns": {
          "handle": "The handle that has been transferred."
        }
      }
    },
    "stateVariables": {
      "challengeExpiryOf": {
        "details": "A value of 0 means a handle isn't yet being challenged. _handle The handle to look for the challenge expiry of."
      },
      "count": {
        "details": "The count is incremented with each new project created.  The resulting ERC-721 token ID for each project is the newly incremented count value."
      },
      "handleOf": {
        "details": "Each project must have a handle. _projectId The ID of the project to which the handle belongs."
      },
      "uriOf": {
        "details": "This is optional for each project. _projectId The ID of the project to which the URI belongs."
      }
    },
    "version": 1
  },
  "userdoc": {
    "kind": "user",
    "methods": {
      "challengeExpiryOf(bytes32)": {
        "notice": " The timestamps after which each handle can be openly claimed. "
      },
      "challengeHandle(bytes32)": {
        "notice": "Allows anyone to challenge a project's handle. After one year, the handle can be claimed by anyone if the challenge isn't answered by the handle's project. This can be used to make sure a handle belonging to a stale project isn't lost forever."
      },
      "claimHandle(bytes32,address,uint256)": {
        "notice": " Allows an address to claim an handle that has been transferred to it, and apply it to a project of theirs. A handle can also be claimed if it has been challenged and the challenge has succeeded."
      },
      "count()": {
        "notice": " The number of projects that have been created using this contract."
      },
      "createFor(address,bytes32,string)": {
        "notice": " Create a new project for the specified owner, which mints an NFT (ERC-721) into their wallet."
      },
      "handleOf(uint256)": {
        "notice": " The unique handle for each project."
      },
      "idFor(bytes32)": {
        "notice": " The ID of the project that each unique handle is currently referencing. _handle The handle from which the project ID can be referenced."
      },
      "operatorStore()": {
        "notice": " A contract storing operator assignments."
      },
      "renewHandleOf(uint256)": {
        "notice": "Allows a project to renew its handle, which cancels any pending challenges."
      },
      "setHandleOf(uint256,bytes32)": {
        "notice": " Allows a project owner to set the project's handle."
      },
      "setUriOf(uint256,string)": {
        "notice": " Allows a project owner to set the project's IPFS CID hash where metadata about the project has been uploaded."
      },
      "transferAddressFor(bytes32)": {
        "notice": " The address that can reallocate a handle that have been transferred to it. _handle The handle to look for the transfer address for."
      },
      "transferHandleOf(uint256,address,bytes32)": {
        "notice": " Allows a project owner to transfer its handle to another address."
      },
      "uriOf(uint256)": {
        "notice": " The IPFS CID for each project, which can be used to reference the project's metadata."
      }
    },
    "notice": " Stores project ownership and identifying information.",
    "version": 1
  },
  "storageLayout": {
    "storage": [
      {
        "astId": 1293,
        "contract": "contracts/v2/JBProjects.sol:JBProjects",
        "label": "_name",
        "offset": 0,
        "slot": "0",
        "type": "t_string_storage"
      },
      {
        "astId": 1295,
        "contract": "contracts/v2/JBProjects.sol:JBProjects",
        "label": "_symbol",
        "offset": 0,
        "slot": "1",
        "type": "t_string_storage"
      },
      {
        "astId": 1299,
        "contract": "contracts/v2/JBProjects.sol:JBProjects",
        "label": "_owners",
        "offset": 0,
        "slot": "2",
        "type": "t_mapping(t_uint256,t_address)"
      },
      {
        "astId": 1303,
        "contract": "contracts/v2/JBProjects.sol:JBProjects",
        "label": "_balances",
        "offset": 0,
        "slot": "3",
        "type": "t_mapping(t_address,t_uint256)"
      },
      {
        "astId": 1307,
        "contract": "contracts/v2/JBProjects.sol:JBProjects",
        "label": "_tokenApprovals",
        "offset": 0,
        "slot": "4",
        "type": "t_mapping(t_uint256,t_address)"
      },
      {
        "astId": 1313,
        "contract": "contracts/v2/JBProjects.sol:JBProjects",
        "label": "_operatorApprovals",
        "offset": 0,
        "slot": "5",
        "type": "t_mapping(t_address,t_mapping(t_address,t_bool))"
      },
      {
        "astId": 21956,
        "contract": "contracts/v2/JBProjects.sol:JBProjects",
        "label": "count",
        "offset": 0,
        "slot": "6",
        "type": "t_uint256"
      },
      {
        "astId": 21962,
        "contract": "contracts/v2/JBProjects.sol:JBProjects",
        "label": "uriOf",
        "offset": 0,
        "slot": "7",
        "type": "t_mapping(t_uint256,t_string_storage)"
      },
      {
        "astId": 21968,
        "contract": "contracts/v2/JBProjects.sol:JBProjects",
        "label": "handleOf",
        "offset": 0,
        "slot": "8",
        "type": "t_mapping(t_uint256,t_bytes32)"
      },
      {
        "astId": 21974,
        "contract": "contracts/v2/JBProjects.sol:JBProjects",
        "label": "idFor",
        "offset": 0,
        "slot": "9",
        "type": "t_mapping(t_bytes32,t_uint256)"
      },
      {
        "astId": 21980,
        "contract": "contracts/v2/JBProjects.sol:JBProjects",
        "label": "transferAddressFor",
        "offset": 0,
        "slot": "10",
        "type": "t_mapping(t_bytes32,t_address)"
      },
      {
        "astId": 21986,
        "contract": "contracts/v2/JBProjects.sol:JBProjects",
        "label": "challengeExpiryOf",
        "offset": 0,
        "slot": "11",
        "type": "t_mapping(t_bytes32,t_uint256)"
      }
    ],
    "types": {
      "t_address": {
        "encoding": "inplace",
        "label": "address",
        "numberOfBytes": "20"
      },
      "t_bool": {
        "encoding": "inplace",
        "label": "bool",
        "numberOfBytes": "1"
      },
      "t_bytes32": {
        "encoding": "inplace",
        "label": "bytes32",
        "numberOfBytes": "32"
      },
      "t_mapping(t_address,t_bool)": {
        "encoding": "mapping",
        "key": "t_address",
        "label": "mapping(address => bool)",
        "numberOfBytes": "32",
        "value": "t_bool"
      },
      "t_mapping(t_address,t_mapping(t_address,t_bool))": {
        "encoding": "mapping",
        "key": "t_address",
        "label": "mapping(address => mapping(address => bool))",
        "numberOfBytes": "32",
        "value": "t_mapping(t_address,t_bool)"
      },
      "t_mapping(t_address,t_uint256)": {
        "encoding": "mapping",
        "key": "t_address",
        "label": "mapping(address => uint256)",
        "numberOfBytes": "32",
        "value": "t_uint256"
      },
      "t_mapping(t_bytes32,t_address)": {
        "encoding": "mapping",
        "key": "t_bytes32",
        "label": "mapping(bytes32 => address)",
        "numberOfBytes": "32",
        "value": "t_address"
      },
      "t_mapping(t_bytes32,t_uint256)": {
        "encoding": "mapping",
        "key": "t_bytes32",
        "label": "mapping(bytes32 => uint256)",
        "numberOfBytes": "32",
        "value": "t_uint256"
      },
      "t_mapping(t_uint256,t_address)": {
        "encoding": "mapping",
        "key": "t_uint256",
        "label": "mapping(uint256 => address)",
        "numberOfBytes": "32",
        "value": "t_address"
      },
      "t_mapping(t_uint256,t_bytes32)": {
        "encoding": "mapping",
        "key": "t_uint256",
        "label": "mapping(uint256 => bytes32)",
        "numberOfBytes": "32",
        "value": "t_bytes32"
      },
      "t_mapping(t_uint256,t_string_storage)": {
        "encoding": "mapping",
        "key": "t_uint256",
        "label": "mapping(uint256 => string)",
        "numberOfBytes": "32",
        "value": "t_string_storage"
      },
      "t_string_storage": {
        "encoding": "bytes",
        "label": "string",
        "numberOfBytes": "32"
      },
      "t_uint256": {
        "encoding": "inplace",
        "label": "uint256",
        "numberOfBytes": "32"
      }
    }
  }
}