{
  "address": "0x990E0d768240B651760cE07502D89b3DBe7A2EC2",
  "abi": [
    {
      "anonymous": false,
      "inputs": [
        {
          "indexed": true,
          "internalType": "uint256",
          "name": "currency",
          "type": "uint256"
        },
        {
          "indexed": true,
          "internalType": "uint256",
          "name": "base",
          "type": "uint256"
        },
        {
          "indexed": false,
          "internalType": "uint256",
          "name": "decimals",
          "type": "uint256"
        },
        {
          "indexed": false,
          "internalType": "contract AggregatorV3Interface",
          "name": "feed",
          "type": "address"
        }
      ],
      "name": "AddFeed",
      "type": "event"
    },
    {
      "anonymous": false,
      "inputs": [
        {
          "indexed": true,
          "internalType": "address",
          "name": "previousOwner",
          "type": "address"
        },
        {
          "indexed": true,
          "internalType": "address",
          "name": "newOwner",
          "type": "address"
        }
      ],
      "name": "OwnershipTransferred",
      "type": "event"
    },
    {
      "inputs": [],
      "name": "TARGET_DECIMALS",
      "outputs": [
        {
          "internalType": "uint256",
          "name": "",
          "type": "uint256"
        }
      ],
      "stateMutability": "view",
      "type": "function"
    },
    {
      "inputs": [
        {
          "internalType": "uint256",
          "name": "_currency",
          "type": "uint256"
        },
        {
          "internalType": "uint256",
          "name": "_base",
          "type": "uint256"
        },
        {
          "internalType": "contract AggregatorV3Interface",
          "name": "_feed",
          "type": "address"
        }
      ],
      "name": "addFeedFor",
      "outputs": [],
      "stateMutability": "nonpayable",
      "type": "function"
    },
    {
      "inputs": [
        {
          "internalType": "uint256",
          "name": "",
          "type": "uint256"
        },
        {
          "internalType": "uint256",
          "name": "",
          "type": "uint256"
        }
      ],
      "name": "feedDecimalAdjusterFor",
      "outputs": [
        {
          "internalType": "uint256",
          "name": "",
          "type": "uint256"
        }
      ],
      "stateMutability": "view",
      "type": "function"
    },
    {
      "inputs": [
        {
          "internalType": "uint256",
          "name": "",
          "type": "uint256"
        },
        {
          "internalType": "uint256",
          "name": "",
          "type": "uint256"
        }
      ],
      "name": "feedFor",
      "outputs": [
        {
          "internalType": "contract AggregatorV3Interface",
          "name": "",
          "type": "address"
        }
      ],
      "stateMutability": "view",
      "type": "function"
    },
    {
      "inputs": [],
      "name": "owner",
      "outputs": [
        {
          "internalType": "address",
          "name": "",
          "type": "address"
        }
      ],
      "stateMutability": "view",
      "type": "function"
    },
    {
      "inputs": [
        {
          "internalType": "uint256",
          "name": "_currency",
          "type": "uint256"
        },
        {
          "internalType": "uint256",
          "name": "_base",
          "type": "uint256"
        }
      ],
      "name": "priceFor",
      "outputs": [
        {
          "internalType": "uint256",
          "name": "",
          "type": "uint256"
        }
      ],
      "stateMutability": "view",
      "type": "function"
    },
    {
      "inputs": [],
      "name": "renounceOwnership",
      "outputs": [],
      "stateMutability": "nonpayable",
      "type": "function"
    },
    {
      "inputs": [
        {
          "internalType": "address",
          "name": "newOwner",
          "type": "address"
        }
      ],
      "name": "transferOwnership",
      "outputs": [],
      "stateMutability": "nonpayable",
      "type": "function"
    }
  ],
  "transactionHash": "0x1e440ef364fa7c6d59aaa13e342ec7e23b780d7d14c3d9ec8d6ffa29790c0663",
  "args": [],
  "solcInputHash": "096d8193c9ef3fa94853075f8aa2d2db",
  "bytecode": "0x608060405234801561001057600080fd5b5061001a3361001f565b61006f565b600080546001600160a01b038381166001600160a01b0319831681178455604051919092169283917f8be0079c531659141344cd1fd0a4f28419497f9722a3daafe3b4186f6b6457e09190a35050565b610b398061007e6000396000f3fe608060405234801561001057600080fd5b50600436106100885760003560e01c806396364e6d1161005b57806396364e6d14610136578063cd9ab73714610149578063f2fde38b14610174578063f48cc1011461018757600080fd5b806315d63a911461008d578063715018a6146100f85780638670588b146101025780638da5cb5b14610118575b600080fd5b6100ce61009b366004610869565b600260209081526000928352604080842090915290825290205473ffffffffffffffffffffffffffffffffffffffff1681565b60405173ffffffffffffffffffffffffffffffffffffffff90911681526020015b60405180910390f35b61010061019a565b005b61010a601281565b6040519081526020016100ef565b60005473ffffffffffffffffffffffffffffffffffffffff166100ce565b61010061014436600461088b565b61022c565b61010a610157366004610869565b600160209081526000928352604080842090915290825290205481565b610100610182366004610845565b610517565b61010a610195366004610869565b610647565b60005473ffffffffffffffffffffffffffffffffffffffff163314610220576040517f08c379a000000000000000000000000000000000000000000000000000000000815260206004820181905260248201527f4f776e61626c653a2063616c6c6572206973206e6f7420746865206f776e657260448201526064015b60405180910390fd5b61022a60006107b1565b565b60005473ffffffffffffffffffffffffffffffffffffffff1633146102ad576040517f08c379a000000000000000000000000000000000000000000000000000000000815260206004820181905260248201527f4f776e61626c653a2063616c6c6572206973206e6f7420746865206f776e65726044820152606401610217565b600083815260026020908152604080832085845290915290205473ffffffffffffffffffffffffffffffffffffffff1615610344576040517f08c379a000000000000000000000000000000000000000000000000000000000815260206004820152601460248201527f307830343a20414c52454144595f4558495354530000000000000000000000006044820152606401610217565b60008173ffffffffffffffffffffffffffffffffffffffff1663313ce5676040518163ffffffff1660e01b815260040160206040518083038186803b15801561038c57600080fd5b505afa1580156103a0573d6000803e3d6000fd5b505050506040513d601f19601f820116820180604052508101906103c49190610914565b60ff1690506012811115610434576040517f08c379a000000000000000000000000000000000000000000000000000000000815260206004820152601260248201527f307830353a204241445f444543494d414c5300000000000000000000000000006044820152606401610217565b6000848152600260209081526040808320868452909152902080547fffffffffffffffffffffffff00000000000000000000000000000000000000001673ffffffffffffffffffffffffffffffffffffffff8416179055610496816012610a9b565b6104a190600a610998565b600085815260016020908152604080832087845282529182902092909255805183815273ffffffffffffffffffffffffffffffffffffffff851692810192909252849186917fa7f60ac66d52296ed468854c6fd74704509964314d1ab0c9ee3e5617d411e8b3910160405180910390a350505050565b60005473ffffffffffffffffffffffffffffffffffffffff163314610598576040517f08c379a000000000000000000000000000000000000000000000000000000000815260206004820181905260248201527f4f776e61626c653a2063616c6c6572206973206e6f7420746865206f776e65726044820152606401610217565b73ffffffffffffffffffffffffffffffffffffffff811661063b576040517f08c379a000000000000000000000000000000000000000000000000000000000815260206004820152602660248201527f4f776e61626c653a206e6577206f776e657220697320746865207a65726f206160448201527f64647265737300000000000000000000000000000000000000000000000000006064820152608401610217565b610644816107b1565b50565b6000818314156106645761065d6012600a610998565b90506107ab565b600083815260026020908152604080832085845290915290205473ffffffffffffffffffffffffffffffffffffffff16806106fb576040517f08c379a000000000000000000000000000000000000000000000000000000000815260206004820152600f60248201527f307830333a204e4f545f464f554e4400000000000000000000000000000000006044820152606401610217565b60008173ffffffffffffffffffffffffffffffffffffffff1663feaf968c6040518163ffffffff1660e01b815260040160a06040518083038186803b15801561074357600080fd5b505afa158015610757573d6000803e3d6000fd5b505050506040513d601f19601f8201168201806040525081019061077b91906108c4565b50505060008781526001602090815260408083208984529091529020549092506107a6915082610a5e565b925050505b92915050565b6000805473ffffffffffffffffffffffffffffffffffffffff8381167fffffffffffffffffffffffff0000000000000000000000000000000000000000831681178455604051919092169283917f8be0079c531659141344cd1fd0a4f28419497f9722a3daafe3b4186f6b6457e09190a35050565b805169ffffffffffffffffffff8116811461084057600080fd5b919050565b60006020828403121561085757600080fd5b813561086281610ae1565b9392505050565b6000806040838503121561087c57600080fd5b50508035926020909101359150565b6000806000606084860312156108a057600080fd5b833592506020840135915060408401356108b981610ae1565b809150509250925092565b600080600080600060a086880312156108dc57600080fd5b6108e586610826565b945060208601519350604086015192506060860151915061090860808701610826565b90509295509295909350565b60006020828403121561092657600080fd5b815160ff8116811461086257600080fd5b600181815b8085111561099057817fffffffffffffffffffffffffffffffffffffffffffffffffffffffffffffffff0482111561097657610976610ab2565b8085161561098357918102915b93841c939080029061093c565b509250929050565b600061086283836000826109ae575060016107ab565b816109bb575060006107ab565b81600181146109d157600281146109db576109f7565b60019150506107ab565b60ff8411156109ec576109ec610ab2565b50506001821b6107ab565b5060208310610133831016604e8410600b8410161715610a1a575081810a6107ab565b610a248383610937565b807fffffffffffffffffffffffffffffffffffffffffffffffffffffffffffffffff04821115610a5657610a56610ab2565b029392505050565b6000817fffffffffffffffffffffffffffffffffffffffffffffffffffffffffffffffff0483118215151615610a9657610a96610ab2565b500290565b600082821015610aad57610aad610ab2565b500390565b7f4e487b7100000000000000000000000000000000000000000000000000000000600052601160045260246000fd5b73ffffffffffffffffffffffffffffffffffffffff8116811461064457600080fdfea2646970667358221220aa5576ce2f9c74d070e70f81c6e1dfd46890d02873f3f4ba759e32f644b3b15c64736f6c63430008060033",
  "devdoc": {
    "kind": "dev",
    "methods": {
      "addFeedFor(uint256,uint256,address)": {
        "details": "Current feeds can't be modified.",
        "params": {
          "_base": "The currency that the price feed is based on.",
          "_currency": "The currency that the price feed is for.",
          "_feed": "The price feed being added."
        }
      },
      "owner()": {
        "details": "Returns the address of the current owner."
      },
      "priceFor(uint256,uint256)": {
        "params": {
          "_base": "The currency to base the price on.",
          "_currency": "The currency to get a price for."
        },
        "returns": {
          "_0": "The price of the currency in terms of the base, with 18 decimals."
        }
      },
      "renounceOwnership()": {
        "details": "Leaves the contract without owner. It will not be possible to call `onlyOwner` functions anymore. Can only be called by the current owner. NOTE: Renouncing ownership will leave the contract without an owner, thereby removing any functionality that is only available to the owner."
      },
      "transferOwnership(address)": {
        "details": "Transfers ownership of the contract to a new account (`newOwner`). Can only be called by the current owner."
      }
    },
    "version": 1
  },
  "userdoc": {
    "kind": "user",
    "methods": {
      "TARGET_DECIMALS()": {
        "notice": " The normalized number of decimals each price feed has."
      },
      "addFeedFor(uint256,uint256,address)": {
        "notice": " Add a price feed for a currency in terms of the provided base currency."
      },
      "feedDecimalAdjusterFor(uint256,uint256)": {
        "notice": " The number to multiply each price feed by to get to the target decimals. [_currency][_base]"
      },
      "feedFor(uint256,uint256)": {
        "notice": " The available price feeds. [_currency][_base]"
      },
      "priceFor(uint256,uint256)": {
        "notice": " Gets the current price of the provided currency in terms of the provided base currency."
      }
    },
    "notice": "Manages and normalizes price feeds.",
    "version": 1
  },
  "storageLayout": {
    "storage": [
      {
        "astId": 53,
        "contract": "contracts/v2/JBPrices.sol:JBPrices",
        "label": "_owner",
        "offset": 0,
        "slot": "0",
        "type": "t_address"
      },
      {
        "astId": 21450,
        "contract": "contracts/v2/JBPrices.sol:JBPrices",
        "label": "feedDecimalAdjusterFor",
        "offset": 0,
        "slot": "1",
        "type": "t_mapping(t_uint256,t_mapping(t_uint256,t_uint256))"
      },
      {
        "astId": 21459,
        "contract": "contracts/v2/JBPrices.sol:JBPrices",
        "label": "feedFor",
        "offset": 0,
        "slot": "2",
        "type": "t_mapping(t_uint256,t_mapping(t_uint256,t_contract(AggregatorV3Interface)45))"
      }
    ],
    "types": {
      "t_address": {
        "encoding": "inplace",
        "label": "address",
        "numberOfBytes": "20"
      },
      "t_contract(AggregatorV3Interface)45": {
        "encoding": "inplace",
        "label": "contract AggregatorV3Interface",
        "numberOfBytes": "20"
      },
      "t_mapping(t_uint256,t_contract(AggregatorV3Interface)45)": {
        "encoding": "mapping",
        "key": "t_uint256",
        "label": "mapping(uint256 => contract AggregatorV3Interface)",
        "numberOfBytes": "32",
        "value": "t_contract(AggregatorV3Interface)45"
      },
      "t_mapping(t_uint256,t_mapping(t_uint256,t_contract(AggregatorV3Interface)45))": {
        "encoding": "mapping",
        "key": "t_uint256",
        "label": "mapping(uint256 => mapping(uint256 => contract AggregatorV3Interface))",
        "numberOfBytes": "32",
        "value": "t_mapping(t_uint256,t_contract(AggregatorV3Interface)45)"
      },
      "t_mapping(t_uint256,t_mapping(t_uint256,t_uint256))": {
        "encoding": "mapping",
        "key": "t_uint256",
        "label": "mapping(uint256 => mapping(uint256 => uint256))",
        "numberOfBytes": "32",
        "value": "t_mapping(t_uint256,t_uint256)"
      },
      "t_mapping(t_uint256,t_uint256)": {
        "encoding": "mapping",
        "key": "t_uint256",
        "label": "mapping(uint256 => uint256)",
        "numberOfBytes": "32",
        "value": "t_uint256"
      },
      "t_uint256": {
        "encoding": "inplace",
        "label": "uint256",
        "numberOfBytes": "32"
      }
    }
  }
}