{
  "address": "0x2DC1D364e52FCC7A3F3b5225813F0fcEC1ff715A",
  "abi": [
    {
      "inputs": [
        {
          "internalType": "contract IJBOperatorStore",
          "name": "_operatorStore",
          "type": "address"
        }
      ],
      "stateMutability": "nonpayable",
      "type": "constructor"
    },
    {
      "anonymous": false,
      "inputs": [
        {
          "indexed": true,
          "internalType": "address",
          "name": "owner",
          "type": "address"
        },
        {
          "indexed": true,
          "internalType": "address",
          "name": "approved",
          "type": "address"
        },
        {
          "indexed": true,
          "internalType": "uint256",
          "name": "tokenId",
          "type": "uint256"
        }
      ],
      "name": "Approval",
      "type": "event"
    },
    {
      "anonymous": false,
      "inputs": [
        {
          "indexed": true,
          "internalType": "address",
          "name": "owner",
          "type": "address"
        },
        {
          "indexed": true,
          "internalType": "address",
          "name": "operator",
          "type": "address"
        },
        {
          "indexed": false,
          "internalType": "bool",
          "name": "approved",
          "type": "bool"
        }
      ],
      "name": "ApprovalForAll",
      "type": "event"
    },
    {
      "anonymous": false,
      "inputs": [
        {
          "indexed": true,
          "internalType": "bytes32",
          "name": "handle",
          "type": "bytes32"
        },
        {
          "indexed": true,
          "internalType": "uint256",
          "name": "projectId",
          "type": "uint256"
        },
        {
          "indexed": false,
          "internalType": "uint256",
          "name": "challengeExpiry",
          "type": "uint256"
        },
        {
          "indexed": false,
          "internalType": "address",
          "name": "caller",
          "type": "address"
        }
      ],
      "name": "ChallengeHandle",
      "type": "event"
    },
    {
      "anonymous": false,
      "inputs": [
        {
          "indexed": true,
          "internalType": "uint256",
          "name": "projectId",
          "type": "uint256"
        },
        {
          "indexed": true,
          "internalType": "address",
          "name": "transferAddress",
          "type": "address"
        },
        {
          "indexed": true,
          "internalType": "bytes32",
          "name": "handle",
          "type": "bytes32"
        },
        {
          "indexed": false,
          "internalType": "address",
          "name": "caller",
          "type": "address"
        }
      ],
      "name": "ClaimHandle",
      "type": "event"
    },
    {
      "anonymous": false,
      "inputs": [
        {
          "indexed": true,
          "internalType": "uint256",
          "name": "projectId",
          "type": "uint256"
        },
        {
          "indexed": true,
          "internalType": "address",
          "name": "owner",
          "type": "address"
        },
        {
          "indexed": true,
          "internalType": "bytes32",
          "name": "handle",
          "type": "bytes32"
        },
        {
          "indexed": false,
          "internalType": "string",
          "name": "uri",
          "type": "string"
        },
        {
          "indexed": false,
          "internalType": "address",
          "name": "caller",
          "type": "address"
        }
      ],
      "name": "Create",
      "type": "event"
    },
    {
      "anonymous": false,
      "inputs": [
        {
          "indexed": true,
          "internalType": "bytes32",
          "name": "handle",
          "type": "bytes32"
        },
        {
          "indexed": true,
          "internalType": "uint256",
          "name": "projectId",
          "type": "uint256"
        },
        {
          "indexed": false,
          "internalType": "address",
          "name": "caller",
          "type": "address"
        }
      ],
      "name": "RenewHandle",
      "type": "event"
    },
    {
      "anonymous": false,
      "inputs": [
        {
          "indexed": true,
          "internalType": "uint256",
          "name": "projectId",
          "type": "uint256"
        },
        {
          "indexed": true,
          "internalType": "bytes32",
          "name": "handle",
          "type": "bytes32"
        },
        {
          "indexed": false,
          "internalType": "address",
          "name": "caller",
          "type": "address"
        }
      ],
      "name": "SetHandle",
      "type": "event"
    },
    {
      "anonymous": false,
      "inputs": [
        {
          "indexed": true,
          "internalType": "uint256",
          "name": "projectId",
          "type": "uint256"
        },
        {
          "indexed": false,
          "internalType": "string",
          "name": "uri",
          "type": "string"
        },
        {
          "indexed": false,
          "internalType": "address",
          "name": "caller",
          "type": "address"
        }
      ],
      "name": "SetUri",
      "type": "event"
    },
    {
      "anonymous": false,
      "inputs": [
        {
          "indexed": true,
          "internalType": "address",
          "name": "from",
          "type": "address"
        },
        {
          "indexed": true,
          "internalType": "address",
          "name": "to",
          "type": "address"
        },
        {
          "indexed": true,
          "internalType": "uint256",
          "name": "tokenId",
          "type": "uint256"
        }
      ],
      "name": "Transfer",
      "type": "event"
    },
    {
      "anonymous": false,
      "inputs": [
        {
          "indexed": true,
          "internalType": "uint256",
          "name": "projectId",
          "type": "uint256"
        },
        {
          "indexed": true,
          "internalType": "address",
          "name": "transferAddress",
          "type": "address"
        },
        {
          "indexed": true,
          "internalType": "bytes32",
          "name": "handle",
          "type": "bytes32"
        },
        {
          "indexed": false,
          "internalType": "bytes32",
          "name": "newHandle",
          "type": "bytes32"
        },
        {
          "indexed": false,
          "internalType": "address",
          "name": "caller",
          "type": "address"
        }
      ],
      "name": "TransferHandle",
      "type": "event"
    },
    {
      "inputs": [
        {
          "internalType": "address",
          "name": "to",
          "type": "address"
        },
        {
          "internalType": "uint256",
          "name": "tokenId",
          "type": "uint256"
        }
      ],
      "name": "approve",
      "outputs": [],
      "stateMutability": "nonpayable",
      "type": "function"
    },
    {
      "inputs": [
        {
          "internalType": "address",
          "name": "owner",
          "type": "address"
        }
      ],
      "name": "balanceOf",
      "outputs": [
        {
          "internalType": "uint256",
          "name": "",
          "type": "uint256"
        }
      ],
      "stateMutability": "view",
      "type": "function"
    },
    {
      "inputs": [
        {
          "internalType": "bytes32",
          "name": "",
          "type": "bytes32"
        }
      ],
      "name": "challengeExpiryOf",
      "outputs": [
        {
          "internalType": "uint256",
          "name": "",
          "type": "uint256"
        }
      ],
      "stateMutability": "view",
      "type": "function"
    },
    {
      "inputs": [
        {
          "internalType": "bytes32",
          "name": "_handle",
          "type": "bytes32"
        }
      ],
      "name": "challengeHandle",
      "outputs": [],
      "stateMutability": "nonpayable",
      "type": "function"
    },
    {
      "inputs": [
        {
          "internalType": "bytes32",
          "name": "_handle",
          "type": "bytes32"
        },
        {
          "internalType": "address",
          "name": "_transferAddress",
          "type": "address"
        },
        {
          "internalType": "uint256",
          "name": "_projectId",
          "type": "uint256"
        }
      ],
      "name": "claimHandle",
      "outputs": [],
      "stateMutability": "nonpayable",
      "type": "function"
    },
    {
      "inputs": [],
      "name": "count",
      "outputs": [
        {
          "internalType": "uint256",
          "name": "",
          "type": "uint256"
        }
      ],
      "stateMutability": "view",
      "type": "function"
    },
    {
      "inputs": [
        {
          "internalType": "address",
          "name": "_owner",
          "type": "address"
        },
        {
          "internalType": "bytes32",
          "name": "_handle",
          "type": "bytes32"
        },
        {
          "internalType": "string",
          "name": "_uri",
          "type": "string"
        }
      ],
      "name": "createFor",
      "outputs": [
        {
          "internalType": "uint256",
          "name": "",
          "type": "uint256"
        }
      ],
      "stateMutability": "nonpayable",
      "type": "function"
    },
    {
      "inputs": [
        {
          "internalType": "uint256",
          "name": "tokenId",
          "type": "uint256"
        }
      ],
      "name": "getApproved",
      "outputs": [
        {
          "internalType": "address",
          "name": "",
          "type": "address"
        }
      ],
      "stateMutability": "view",
      "type": "function"
    },
    {
      "inputs": [
        {
          "internalType": "uint256",
          "name": "",
          "type": "uint256"
        }
      ],
      "name": "handleOf",
      "outputs": [
        {
          "internalType": "bytes32",
          "name": "",
          "type": "bytes32"
        }
      ],
      "stateMutability": "view",
      "type": "function"
    },
    {
      "inputs": [
        {
          "internalType": "bytes32",
          "name": "",
          "type": "bytes32"
        }
      ],
      "name": "idFor",
      "outputs": [
        {
          "internalType": "uint256",
          "name": "",
          "type": "uint256"
        }
      ],
      "stateMutability": "view",
      "type": "function"
    },
    {
      "inputs": [
        {
          "internalType": "address",
          "name": "owner",
          "type": "address"
        },
        {
          "internalType": "address",
          "name": "operator",
          "type": "address"
        }
      ],
      "name": "isApprovedForAll",
      "outputs": [
        {
          "internalType": "bool",
          "name": "",
          "type": "bool"
        }
      ],
      "stateMutability": "view",
      "type": "function"
    },
    {
      "inputs": [],
      "name": "name",
      "outputs": [
        {
          "internalType": "string",
          "name": "",
          "type": "string"
        }
      ],
      "stateMutability": "view",
      "type": "function"
    },
    {
      "inputs": [],
      "name": "operatorStore",
      "outputs": [
        {
          "internalType": "contract IJBOperatorStore",
          "name": "",
          "type": "address"
        }
      ],
      "stateMutability": "view",
      "type": "function"
    },
    {
      "inputs": [
        {
          "internalType": "uint256",
          "name": "tokenId",
          "type": "uint256"
        }
      ],
      "name": "ownerOf",
      "outputs": [
        {
          "internalType": "address",
          "name": "",
          "type": "address"
        }
      ],
      "stateMutability": "view",
      "type": "function"
    },
    {
      "inputs": [
        {
          "internalType": "uint256",
          "name": "_projectId",
          "type": "uint256"
        }
      ],
      "name": "renewHandleOf",
      "outputs": [],
      "stateMutability": "nonpayable",
      "type": "function"
    },
    {
      "inputs": [
        {
          "internalType": "address",
          "name": "from",
          "type": "address"
        },
        {
          "internalType": "address",
          "name": "to",
          "type": "address"
        },
        {
          "internalType": "uint256",
          "name": "tokenId",
          "type": "uint256"
        }
      ],
      "name": "safeTransferFrom",
      "outputs": [],
      "stateMutability": "nonpayable",
      "type": "function"
    },
    {
      "inputs": [
        {
          "internalType": "address",
          "name": "from",
          "type": "address"
        },
        {
          "internalType": "address",
          "name": "to",
          "type": "address"
        },
        {
          "internalType": "uint256",
          "name": "tokenId",
          "type": "uint256"
        },
        {
          "internalType": "bytes",
          "name": "_data",
          "type": "bytes"
        }
      ],
      "name": "safeTransferFrom",
      "outputs": [],
      "stateMutability": "nonpayable",
      "type": "function"
    },
    {
      "inputs": [
        {
          "internalType": "address",
          "name": "operator",
          "type": "address"
        },
        {
          "internalType": "bool",
          "name": "approved",
          "type": "bool"
        }
      ],
      "name": "setApprovalForAll",
      "outputs": [],
      "stateMutability": "nonpayable",
      "type": "function"
    },
    {
      "inputs": [
        {
          "internalType": "uint256",
          "name": "_projectId",
          "type": "uint256"
        },
        {
          "internalType": "bytes32",
          "name": "_handle",
          "type": "bytes32"
        }
      ],
      "name": "setHandleOf",
      "outputs": [],
      "stateMutability": "nonpayable",
      "type": "function"
    },
    {
      "inputs": [
        {
          "internalType": "uint256",
          "name": "_projectId",
          "type": "uint256"
        },
        {
          "internalType": "string",
          "name": "_uri",
          "type": "string"
        }
      ],
      "name": "setUriOf",
      "outputs": [],
      "stateMutability": "nonpayable",
      "type": "function"
    },
    {
      "inputs": [
        {
          "internalType": "bytes4",
          "name": "interfaceId",
          "type": "bytes4"
        }
      ],
      "name": "supportsInterface",
      "outputs": [
        {
          "internalType": "bool",
          "name": "",
          "type": "bool"
        }
      ],
      "stateMutability": "view",
      "type": "function"
    },
    {
      "inputs": [],
      "name": "symbol",
      "outputs": [
        {
          "internalType": "string",
          "name": "",
          "type": "string"
        }
      ],
      "stateMutability": "view",
      "type": "function"
    },
    {
      "inputs": [
        {
          "internalType": "uint256",
          "name": "tokenId",
          "type": "uint256"
        }
      ],
      "name": "tokenURI",
      "outputs": [
        {
          "internalType": "string",
          "name": "",
          "type": "string"
        }
      ],
      "stateMutability": "view",
      "type": "function"
    },
    {
      "inputs": [
        {
          "internalType": "bytes32",
          "name": "",
          "type": "bytes32"
        }
      ],
      "name": "transferAddressFor",
      "outputs": [
        {
          "internalType": "address",
          "name": "",
          "type": "address"
        }
      ],
      "stateMutability": "view",
      "type": "function"
    },
    {
      "inputs": [
        {
          "internalType": "address",
          "name": "from",
          "type": "address"
        },
        {
          "internalType": "address",
          "name": "to",
          "type": "address"
        },
        {
          "internalType": "uint256",
          "name": "tokenId",
          "type": "uint256"
        }
      ],
      "name": "transferFrom",
      "outputs": [],
      "stateMutability": "nonpayable",
      "type": "function"
    },
    {
      "inputs": [
        {
          "internalType": "uint256",
          "name": "_projectId",
          "type": "uint256"
        },
        {
          "internalType": "address",
          "name": "_transferAddress",
          "type": "address"
        },
        {
          "internalType": "bytes32",
          "name": "_newHandle",
          "type": "bytes32"
        }
      ],
      "name": "transferHandleOf",
      "outputs": [
        {
          "internalType": "bytes32",
          "name": "handle",
          "type": "bytes32"
        }
      ],
      "stateMutability": "nonpayable",
      "type": "function"
    },
    {
      "inputs": [
        {
          "internalType": "uint256",
          "name": "",
          "type": "uint256"
        }
      ],
      "name": "uriOf",
      "outputs": [
        {
          "internalType": "string",
          "name": "",
          "type": "string"
        }
      ],
      "stateMutability": "view",
      "type": "function"
    }
  ],
  "transactionHash": "0x80771d27b8ba19138c37db7bc8b924ebed1b01a488870ddd13a08cd0ca0e1cf9",
  "args": [
    "0xC4D620E189b420249005FD38b22B1EA138cc0BeE"
  ],
  "solcInputHash": "096d8193c9ef3fa94853075f8aa2d2db",
  "bytecode": "0x60a060405260006006553480156200001657600080fd5b5060405162002ea838038062002ea8833981016040819052620000399162000168565b604080518082018252601081526f129d5a58d9589bde081c1c9bda9958dd60821b602080830191825283518085019094526008845267094aa92868a849eb60c31b908401528151849391620000929160009190620000c2565b508051620000a8906001906020840190620000c2565b50505060601b6001600160601b03191660805250620001d7565b828054620000d0906200019a565b90600052602060002090601f016020900481019282620000f457600085556200013f565b82601f106200010f57805160ff19168380011785556200013f565b828001600101855582156200013f579182015b828111156200013f57825182559160200191906001019062000122565b506200014d92915062000151565b5090565b5b808211156200014d576000815560010162000152565b6000602082840312156200017b57600080fd5b81516001600160a01b03811681146200019357600080fd5b9392505050565b600181811c90821680620001af57607f821691505b60208210811415620001d157634e487b7160e01b600052602260045260246000fd5b50919050565b60805160601c612c81620002276000396000818161035d015281816108c301528181610baf0152818161139701528181611647015281816117bf0152818161188b01526119bb0152612c816000f3fe608060405234801561001057600080fd5b50600436106101b95760003560e01c8063733f0127116100f9578063ba8e8c1d11610097578063d5af3d2911610071578063d5af3d29146103ee578063e985e9c514610401578063ee1dd3531461043d578063fc1dd6de1461045057600080fd5b8063ba8e8c1d14610392578063c87b56dd146103b2578063d39afed9146103c557600080fd5b8063a22cb465116100d3578063a22cb46514610332578063a312889b14610345578063ad007d6314610358578063b88d4fde1461037f57600080fd5b8063733f0127146103045780637b0230141461031757806395d89b411461032a57600080fd5b806342842e0e1161016657806350ca58df1161014057806350ca58df146102b85780636352211e146102cb578063702a3977146102de57806370a08231146102f157600080fd5b806342842e0e146102655780634737e53214610278578063494919871461029857600080fd5b8063081812fc11610197578063081812fc14610212578063095ea7b31461023d57806323b872dd1461025257600080fd5b806301ffc9a7146101be57806306661abd146101e657806306fdde03146101fd575b600080fd5b6101d16101cc366004612870565b610463565b60405190151581526020015b60405180910390f35b6101ef60065481565b6040519081526020016101dd565b610205610548565b6040516101dd9190612a2d565b610225610220366004612832565b6105da565b6040516001600160a01b0390911681526020016101dd565b61025061024b3660046127eb565b610685565b005b610250610260366004612624565b6107b7565b610250610273366004612624565b61083e565b6101ef610286366004612832565b60096020526000908152604090205481565b6101ef6102a6366004612832565b60086020526000908152604090205481565b6102506102c63660046128aa565b610859565b6102256102d9366004612832565b610aba565b6102506102ec3660046128cc565b610b45565b6101ef6102ff3660046125d6565b610cd3565b6101ef610312366004612791565b610d6d565b610250610325366004612832565b610efa565b61020561101b565b61025061034036600461275a565b61102a565b610205610353366004612832565b61110d565b6102257f000000000000000000000000000000000000000000000000000000000000000081565b61025061038d366004612660565b6111a7565b6101ef6103a0366004612832565b600b6020526000908152604090205481565b6102056103c0366004612832565b611235565b6102256103d3366004612832565b600a602052600090815260409020546001600160a01b031681565b6101ef6103fc36600461284b565b61132b565b6101d161040f3660046125f1565b6001600160a01b03918216600090815260056020908152604080832093909416825291909152205460ff1690565b61025061044b366004612832565b6115dd565b61025061045e36600461284b565b61175d565b60007fffffffff0000000000000000000000000000000000000000000000000000000082167f80ac58cd0000000000000000000000000000000000000000000000000000000014806104f657507fffffffff0000000000000000000000000000000000000000000000000000000082167f5b5e139f00000000000000000000000000000000000000000000000000000000145b8061054257507f01ffc9a7000000000000000000000000000000000000000000000000000000007fffffffff000000000000000000000000000000000000000000000000000000008316145b92915050565b60606000805461055790612aaf565b80601f016020809104026020016040519081016040528092919081815260200182805461058390612aaf565b80156105d05780601f106105a5576101008083540402835291602001916105d0565b820191906000526020600020905b8154815290600101906020018083116105b357829003601f168201915b5050505050905090565b6000818152600260205260408120546001600160a01b03166106695760405162461bcd60e51b815260206004820152602c60248201527f4552433732313a20617070726f76656420717565727920666f72206e6f6e657860448201527f697374656e7420746f6b656e000000000000000000000000000000000000000060648201526084015b60405180910390fd5b506000908152600460205260409020546001600160a01b031690565b600061069082610aba565b9050806001600160a01b0316836001600160a01b0316141561071a5760405162461bcd60e51b815260206004820152602160248201527f4552433732313a20617070726f76616c20746f2063757272656e74206f776e6560448201527f72000000000000000000000000000000000000000000000000000000000000006064820152608401610660565b336001600160a01b03821614806107365750610736813361040f565b6107a85760405162461bcd60e51b815260206004820152603860248201527f4552433732313a20617070726f76652063616c6c6572206973206e6f74206f7760448201527f6e6572206e6f7220617070726f76656420666f7220616c6c00000000000000006064820152608401610660565b6107b28383611bc7565b505050565b6107c13382611c4d565b6108335760405162461bcd60e51b815260206004820152603160248201527f4552433732313a207472616e736665722063616c6c6572206973206e6f74206f60448201527f776e6572206e6f7220617070726f7665640000000000000000000000000000006064820152608401610660565b6107b2838383611d51565b6107b2838383604051806020016040528060008152506111a7565b61086282610aba565b826005336001600160a01b038416148061093d57506040517fc161c93f0000000000000000000000000000000000000000000000000000000081523360048201526001600160a01b03848116602483015260448201849052606482018390527f0000000000000000000000000000000000000000000000000000000000000000169063c161c93f9060840160206040518083038186803b15801561090557600080fd5b505afa158015610919573d6000803e3d6000fd5b505050506040513d601f19601f8201168201806040525081019061093d9190612815565b6109895760405162461bcd60e51b815260206004820152601860248201527f4f706572617461626c653a20554e415554484f52495a454400000000000000006044820152606401610660565b836109d65760405162461bcd60e51b815260206004820152601260248201527f307830383a20454d5054595f48414e444c4500000000000000000000000000006044820152606401610660565b600084815260096020526040902054158015610a0757506000848152600a60205260409020546001600160a01b0316155b610a535760405162461bcd60e51b815260206004820152601260248201527f307830393a2048414e444c455f54414b454e00000000000000000000000000006044820152606401610660565b60008581526008602090815260408083208054845260098352818420849055879055868352918290208790559051338152859187917e079d7af084def275bc880ac88a2e556cf9a2001231b27a71d0082607876ac591015b60405180910390a35050505050565b6000818152600260205260408120546001600160a01b0316806105425760405162461bcd60e51b815260206004820152602960248201527f4552433732313a206f776e657220717565727920666f72206e6f6e657869737460448201527f656e7420746f6b656e00000000000000000000000000000000000000000000006064820152608401610660565b610b4e83610aba565b836006336001600160a01b0384161480610c2957506040517fc161c93f0000000000000000000000000000000000000000000000000000000081523360048201526001600160a01b03848116602483015260448201849052606482018390527f0000000000000000000000000000000000000000000000000000000000000000169063c161c93f9060840160206040518083038186803b158015610bf157600080fd5b505afa158015610c05573d6000803e3d6000fd5b505050506040513d601f19601f82011682018060405250810190610c299190612815565b610c755760405162461bcd60e51b815260206004820152601860248201527f4f706572617461626c653a20554e415554484f52495a454400000000000000006044820152606401610660565b6000868152600760205260409020610c8e9086866124ba565b50857f0f3d240fe5efaeda774d27bf0425f932ddd2098297b26de8070d6c8bef534b16868633604051610cc3939291906129cd565b60405180910390a2505050505050565b60006001600160a01b038216610d515760405162461bcd60e51b815260206004820152602a60248201527f4552433732313a2062616c616e636520717565727920666f7220746865207a6560448201527f726f2061646472657373000000000000000000000000000000000000000000006064820152608401610660565b506001600160a01b031660009081526003602052604090205490565b600083610dbc5760405162461bcd60e51b815260206004820152601260248201527f307830363a20454d5054595f48414e444c4500000000000000000000000000006044820152606401610660565b600084815260096020526040902054158015610ded57506000848152600a60205260409020546001600160a01b0316155b610e395760405162461bcd60e51b815260206004820152601260248201527f307830373a2048414e444c455f54414b454e00000000000000000000000000006044820152606401610660565b60068054906000610e4983612b03565b9190505550610e5a85600654611f36565b60068054600090815260086020908152604080832088905592548783526009909152919020558115610ea4576006546000908152600760205260409020610ea29084846124ba565b505b83856001600160a01b03166006547fd90717abd887cf93b92f5ba6ed5d1c02c3e91767e2af12834b01d64a16a1ed9c868633604051610ee5939291906129cd565b60405180910390a4506006545b949350505050565b60008181526009602052604090205480610f565760405162461bcd60e51b815260206004820152601660248201527f307830643a2048414e444c455f4e4f545f54414b454e000000000000000000006044820152606401610660565b6000828152600b602052604090205415610fb25760405162461bcd60e51b815260206004820152601460248201527f307830653a204348414c4c454e47455f4f50454e0000000000000000000000006044820152606401610660565b6000610fc26301e1338042612a40565b6000848152600b602090815260409182902083905581518381523391810191909152919250839185917fa98d4166a279687385a76a4399d08fa62a1b30b7019b27ec4076e66112bac36d910160405180910390a3505050565b60606001805461055790612aaf565b6001600160a01b0382163314156110835760405162461bcd60e51b815260206004820152601960248201527f4552433732313a20617070726f766520746f2063616c6c6572000000000000006044820152606401610660565b3360008181526005602090815260408083206001600160a01b0387168085529083529281902080547fffffffffffffffffffffffffffffffffffffffffffffffffffffffffffffff001686151590811790915590519081529192917f17307eab39ab6107e8899845ad3d59bd9653f200f220920489ca2b5937696c31910160405180910390a35050565b6007602052600090815260409020805461112690612aaf565b80601f016020809104026020016040519081016040528092919081815260200182805461115290612aaf565b801561119f5780601f106111745761010080835404028352916020019161119f565b820191906000526020600020905b81548152906001019060200180831161118257829003601f168201915b505050505081565b6111b13383611c4d565b6112235760405162461bcd60e51b815260206004820152603160248201527f4552433732313a207472616e736665722063616c6c6572206973206e6f74206f60448201527f776e6572206e6f7220617070726f7665640000000000000000000000000000006064820152608401610660565b61122f84848484611f54565b50505050565b6000818152600260205260409020546060906001600160a01b03166112c25760405162461bcd60e51b815260206004820152602f60248201527f4552433732314d657461646174613a2055524920717565727920666f72206e6f60448201527f6e6578697374656e7420746f6b656e00000000000000000000000000000000006064820152608401610660565b60006112d960408051602081019091526000815290565b905060008151116112f95760405180602001604052806000815250611324565b8061130384611fdd565b604051602001611314929190612962565b6040516020818303038152906040525b9392505050565b600061133684610aba565b846005336001600160a01b038416148061141157506040517fc161c93f0000000000000000000000000000000000000000000000000000000081523360048201526001600160a01b03848116602483015260448201849052606482018390527f0000000000000000000000000000000000000000000000000000000000000000169063c161c93f9060840160206040518083038186803b1580156113d957600080fd5b505afa1580156113ed573d6000803e3d6000fd5b505050506040513d601f19601f820116820180604052508101906114119190612815565b61145d5760405162461bcd60e51b815260206004820152601860248201527f4f706572617461626c653a20554e415554484f52495a454400000000000000006044820152606401610660565b846114aa5760405162461bcd60e51b815260206004820152601260248201527f307830613a20454d5054595f48414e444c4500000000000000000000000000006044820152606401610660565b6000858152600960205260409020541580156114db57506000858152600a60205260409020546001600160a01b0316155b6115275760405162461bcd60e51b815260206004820152601260248201527f307830623a2048414e444c455f54414b454e00000000000000000000000000006044820152606401610660565b60008781526008602090815260408083208054808552600984528285208590558985528285208c905590899055808452600a83529281902080547fffffffffffffffffffffffff0000000000000000000000000000000000000000166001600160a01b038b16908117909155815189815233938101939093529296508692918a917fd46a8ff77c59c98b930d834768ba8d0983b5a0b99ebbd12af00f2f182eeeeee1910160405180910390a45050509392505050565b6115e681610aba565b816008336001600160a01b03841614806116c157506040517fc161c93f0000000000000000000000000000000000000000000000000000000081523360048201526001600160a01b03848116602483015260448201849052606482018390527f0000000000000000000000000000000000000000000000000000000000000000169063c161c93f9060840160206040518083038186803b15801561168957600080fd5b505afa15801561169d573d6000803e3d6000fd5b505050506040513d601f19601f820116820180604052508101906116c19190612815565b61170d5760405162461bcd60e51b815260206004820152601860248201527f4f706572617461626c653a20554e415554484f52495a454400000000000000006044820152606401610660565b600084815260086020908152604080832054808452600b83528184209390935551338152869183917f6eec1e60946fbfd12ab0bde53c7c27478f3c07b42ffea7d25a719af24590eebf9101610aab565b81816007336001600160a01b038416148061183957506040517fc161c93f0000000000000000000000000000000000000000000000000000000081523360048201526001600160a01b03848116602483015260448201849052606482018390527f0000000000000000000000000000000000000000000000000000000000000000169063c161c93f9060840160206040518083038186803b15801561180157600080fd5b505afa158015611815573d6000803e3d6000fd5b505050506040513d601f19601f820116820180604052508101906118399190612815565b8061190557506040517fc161c93f0000000000000000000000000000000000000000000000000000000081523360048201526001600160a01b03848116602483015260006044830152606482018390527f0000000000000000000000000000000000000000000000000000000000000000169063c161c93f9060840160206040518083038186803b1580156118cd57600080fd5b505afa1580156118e1573d6000803e3d6000fd5b505050506040513d601f19601f820116820180604052508101906119059190612815565b6119515760405162461bcd60e51b815260206004820152601860248201527f4f706572617461626c653a20554e415554484f52495a454400000000000000006044820152606401610660565b61195a84610aba565b846007336001600160a01b0384161480611a3557506040517fc161c93f0000000000000000000000000000000000000000000000000000000081523360048201526001600160a01b03848116602483015260448201849052606482018390527f0000000000000000000000000000000000000000000000000000000000000000169063c161c93f9060840160206040518083038186803b1580156119fd57600080fd5b505afa158015611a11573d6000803e3d6000fd5b505050506040513d601f19601f82011682018060405250810190611a359190612815565b611a815760405162461bcd60e51b815260206004820152601860248201527f4f706572617461626c653a20554e415554484f52495a454400000000000000006044820152606401610660565b6000898152600a60205260409020546001600160a01b0389811691161480611ace57506000898152600b602052604090205415801590611ace57506000898152600b602052604090205442115b611b1a5760405162461bcd60e51b815260206004820152601260248201527f307830633a20554e415554484f52495a454400000000000000000000000000006044820152606401610660565b600087815260086020908152604080832080548452600983528184208490558c84528184208b90558c9055600a825280832080547fffffffffffffffffffffffff0000000000000000000000000000000000000000169055600b82528083209290925590513381528a916001600160a01b038b16918a917f1fad793256b964b482b25642d6fc37842634e3f800528f0a943a4863078846ba910160405180910390a4505050505050505050565b600081815260046020526040902080547fffffffffffffffffffffffff0000000000000000000000000000000000000000166001600160a01b0384169081179091558190611c1482610aba565b6001600160a01b03167f8c5be1e5ebec7d5bd14f71427d1e84f3dd0314c0f7b2291e5b200ac8c7c3b92560405160405180910390a45050565b6000818152600260205260408120546001600160a01b0316611cd75760405162461bcd60e51b815260206004820152602c60248201527f4552433732313a206f70657261746f7220717565727920666f72206e6f6e657860448201527f697374656e7420746f6b656e00000000000000000000000000000000000000006064820152608401610660565b6000611ce283610aba565b9050806001600160a01b0316846001600160a01b03161480611d1d5750836001600160a01b0316611d12846105da565b6001600160a01b0316145b80610ef257506001600160a01b0380821660009081526005602090815260408083209388168352929052205460ff16610ef2565b826001600160a01b0316611d6482610aba565b6001600160a01b031614611de05760405162461bcd60e51b815260206004820152602960248201527f4552433732313a207472616e73666572206f6620746f6b656e2074686174206960448201527f73206e6f74206f776e00000000000000000000000000000000000000000000006064820152608401610660565b6001600160a01b038216611e5b5760405162461bcd60e51b8152602060048201526024808201527f4552433732313a207472616e7366657220746f20746865207a65726f2061646460448201527f72657373000000000000000000000000000000000000000000000000000000006064820152608401610660565b611e66600082611bc7565b6001600160a01b0383166000908152600360205260408120805460019290611e8f908490612a6c565b90915550506001600160a01b0382166000908152600360205260408120805460019290611ebd908490612a40565b909155505060008181526002602052604080822080547fffffffffffffffffffffffff0000000000000000000000000000000000000000166001600160a01b0386811691821790925591518493918716917fddf252ad1be2c89b69c2b068fc378daa952ba7f163c4a11628f55a4df523b3ef91a4505050565b611f5082826040518060200160405280600081525061210f565b5050565b611f5f848484611d51565b611f6b84848484612198565b61122f5760405162461bcd60e51b815260206004820152603260248201527f4552433732313a207472616e7366657220746f206e6f6e20455243373231526560448201527f63656976657220696d706c656d656e74657200000000000000000000000000006064820152608401610660565b60608161201d57505060408051808201909152600181527f3000000000000000000000000000000000000000000000000000000000000000602082015290565b8160005b8115612047578061203181612b03565b91506120409050600a83612a58565b9150612021565b60008167ffffffffffffffff81111561206257612062612bdd565b6040519080825280601f01601f19166020018201604052801561208c576020820181803683370190505b5090505b8415610ef2576120a1600183612a6c565b91506120ae600a86612b3c565b6120b9906030612a40565b60f81b8183815181106120ce576120ce612bae565b60200101907effffffffffffffffffffffffffffffffffffffffffffffffffffffffffffff1916908160001a905350612108600a86612a58565b9450612090565b6121198383612360565b6121266000848484612198565b6107b25760405162461bcd60e51b815260206004820152603260248201527f4552433732313a207472616e7366657220746f206e6f6e20455243373231526560448201527f63656976657220696d706c656d656e74657200000000000000000000000000006064820152608401610660565b60006001600160a01b0384163b15612358576040517f150b7a020000000000000000000000000000000000000000000000000000000081526001600160a01b0385169063150b7a02906121f5903390899088908890600401612991565b602060405180830381600087803b15801561220f57600080fd5b505af192505050801561225d575060408051601f3d9081017fffffffffffffffffffffffffffffffffffffffffffffffffffffffffffffffe016820190925261225a9181019061288d565b60015b61230d573d80801561228b576040519150601f19603f3d011682016040523d82523d6000602084013e612290565b606091505b5080516123055760405162461bcd60e51b815260206004820152603260248201527f4552433732313a207472616e7366657220746f206e6f6e20455243373231526560448201527f63656976657220696d706c656d656e74657200000000000000000000000000006064820152608401610660565b805181602001fd5b7fffffffff00000000000000000000000000000000000000000000000000000000167f150b7a0200000000000000000000000000000000000000000000000000000000149050610ef2565b506001610ef2565b6001600160a01b0382166123b65760405162461bcd60e51b815260206004820181905260248201527f4552433732313a206d696e7420746f20746865207a65726f20616464726573736044820152606401610660565b6000818152600260205260409020546001600160a01b03161561241b5760405162461bcd60e51b815260206004820152601c60248201527f4552433732313a20746f6b656e20616c7265616479206d696e746564000000006044820152606401610660565b6001600160a01b0382166000908152600360205260408120805460019290612444908490612a40565b909155505060008181526002602052604080822080547fffffffffffffffffffffffff0000000000000000000000000000000000000000166001600160a01b03861690811790915590518392907fddf252ad1be2c89b69c2b068fc378daa952ba7f163c4a11628f55a4df523b3ef908290a45050565b8280546124c690612aaf565b90600052602060002090601f0160209004810192826124e8576000855561254c565b82601f1061251f578280017fffffffffffffffffffffffffffffffffffffffffffffffffffffffffffffff0082351617855561254c565b8280016001018555821561254c579182015b8281111561254c578235825591602001919060010190612531565b5061255892915061255c565b5090565b5b80821115612558576000815560010161255d565b80356001600160a01b038116811461258857600080fd5b919050565b60008083601f84011261259f57600080fd5b50813567ffffffffffffffff8111156125b757600080fd5b6020830191508360208285010111156125cf57600080fd5b9250929050565b6000602082840312156125e857600080fd5b61132482612571565b6000806040838503121561260457600080fd5b61260d83612571565b915061261b60208401612571565b90509250929050565b60008060006060848603121561263957600080fd5b61264284612571565b925061265060208501612571565b9150604084013590509250925092565b6000806000806080858703121561267657600080fd5b61267f85612571565b935061268d60208601612571565b925060408501359150606085013567ffffffffffffffff808211156126b157600080fd5b818701915087601f8301126126c557600080fd5b8135818111156126d7576126d7612bdd565b604051601f82017fffffffffffffffffffffffffffffffffffffffffffffffffffffffffffffffe0908116603f0116810190838211818310171561271d5761271d612bdd565b816040528281528a602084870101111561273657600080fd5b82602086016020830137600060208483010152809550505050505092959194509250565b6000806040838503121561276d57600080fd5b61277683612571565b9150602083013561278681612c0c565b809150509250929050565b600080600080606085870312156127a757600080fd5b6127b085612571565b935060208501359250604085013567ffffffffffffffff8111156127d357600080fd5b6127df8782880161258d565b95989497509550505050565b600080604083850312156127fe57600080fd5b61280783612571565b946020939093013593505050565b60006020828403121561282757600080fd5b815161132481612c0c565b60006020828403121561284457600080fd5b5035919050565b60008060006060848603121561286057600080fd5b8335925061265060208501612571565b60006020828403121561288257600080fd5b813561132481612c1d565b60006020828403121561289f57600080fd5b815161132481612c1d565b600080604083850312156128bd57600080fd5b50508035926020909101359150565b6000806000604084860312156128e157600080fd5b83359250602084013567ffffffffffffffff8111156128ff57600080fd5b61290b8682870161258d565b9497909650939450505050565b60008151808452612930816020860160208601612a83565b601f017fffffffffffffffffffffffffffffffffffffffffffffffffffffffffffffffe0169290920160200192915050565b60008351612974818460208801612a83565b835190830190612988818360208801612a83565b01949350505050565b60006001600160a01b038087168352808616602084015250836040830152608060608301526129c36080830184612918565b9695505050505050565b6040815282604082015282846060830137600060608483010152600060607fffffffffffffffffffffffffffffffffffffffffffffffffffffffffffffffe0601f86011683010190506001600160a01b0383166020830152949350505050565b6020815260006113246020830184612918565b60008219821115612a5357612a53612b50565b500190565b600082612a6757612a67612b7f565b500490565b600082821015612a7e57612a7e612b50565b500390565b60005b83811015612a9e578181015183820152602001612a86565b8381111561122f5750506000910152565b600181811c90821680612ac357607f821691505b60208210811415612afd577f4e487b7100000000000000000000000000000000000000000000000000000000600052602260045260246000fd5b50919050565b60007fffffffffffffffffffffffffffffffffffffffffffffffffffffffffffffffff821415612b3557612b35612b50565b5060010190565b600082612b4b57612b4b612b7f565b500690565b7f4e487b7100000000000000000000000000000000000000000000000000000000600052601160045260246000fd5b7f4e487b7100000000000000000000000000000000000000000000000000000000600052601260045260246000fd5b7f4e487b7100000000000000000000000000000000000000000000000000000000600052603260045260246000fd5b7f4e487b7100000000000000000000000000000000000000000000000000000000600052604160045260246000fd5b8015158114612c1a57600080fd5b50565b7fffffffff0000000000000000000000000000000000000000000000000000000081168114612c1a57600080fdfea2646970667358221220f84c26285b1bfa4bbbb0012341b4eede2d05c0ff70f928987c4e6535984ccc3c64736f6c63430008060033",
  "devdoc": {
    "details": "Projects are represented as ERC-721's.",
    "kind": "dev",
    "methods": {
      "approve(address,uint256)": {
        "details": "See {IERC721-approve}."
      },
      "balanceOf(address)": {
        "details": "See {IERC721-balanceOf}."
      },
      "challengeHandle(bytes32)": {
        "params": {
          "_handle": "The handle to challenge."
        }
      },
      "claimHandle(bytes32,address,uint256)": {
        "details": " Only a project's owner or operator can claim a handle for it.",
        "params": {
          "_handle": "The handle being claimed.",
          "_projectId": "The ID of the project to assign to the claimed handle.",
          "_transferAddress": "The address to which the handle has been transferred, which can now assign the handle to a project."
        }
      },
      "constructor": {
        "params": {
          "_operatorStore": "A contract storing operator assignments."
        }
      },
      "createFor(address,bytes32,string)": {
        "details": " Anyone can create a project on an owner's behalf.",
        "params": {
          "_handle": "A unique string to associate with the project that will resolve to its token ID.",
          "_owner": "The address that will be the owner of the project.",
          "_uri": "An IPFS CID hash where metadata about the project has been uploaded. An empty string is acceptable if no metadata is being provided."
        },
        "returns": {
          "_0": "The token ID of the newly created project"
        }
      },
      "getApproved(uint256)": {
        "details": "See {IERC721-getApproved}."
      },
      "isApprovedForAll(address,address)": {
        "details": "See {IERC721-isApprovedForAll}."
      },
      "name()": {
        "details": "See {IERC721Metadata-name}."
      },
      "ownerOf(uint256)": {
        "details": "See {IERC721-ownerOf}."
      },
      "renewHandleOf(uint256)": {
        "details": " Only a project's owner or operator can renew its handle.",
        "params": {
          "_projectId": "The ID of the project to which the handle being renewed belongs. "
        }
      },
      "safeTransferFrom(address,address,uint256)": {
        "details": "See {IERC721-safeTransferFrom}."
      },
      "safeTransferFrom(address,address,uint256,bytes)": {
        "details": "See {IERC721-safeTransferFrom}."
      },
      "setApprovalForAll(address,bool)": {
        "details": "See {IERC721-setApprovalForAll}."
      },
      "setHandleOf(uint256,bytes32)": {
        "details": " Only a project's owner or operator can set its handle.",
        "params": {
          "_handle": "The new unique handle for the project.",
          "_projectId": "The ID of the project who's handle is being changed."
        }
      },
      "setUriOf(uint256,string)": {
        "details": " Only a project's owner or operator can set its URI.",
        "params": {
          "_projectId": "The ID of the project who's URI is being changed.",
          "_uri": "The new IPFS CID hash where metadata about the project has been uploaded."
        }
      },
      "supportsInterface(bytes4)": {
        "details": "See {IERC165-supportsInterface}."
      },
      "symbol()": {
        "details": "See {IERC721Metadata-symbol}."
      },
      "tokenURI(uint256)": {
        "details": "See {IERC721Metadata-tokenURI}."
      },
      "transferFrom(address,address,uint256)": {
        "details": "See {IERC721-transferFrom}."
      },
      "transferHandleOf(uint256,address,bytes32)": {
        "details": " Only a project's owner or operator can transfer its handle.",
        "params": {
          "_newHandle": "The new unique handle for the project that will replace the transferred one.",
          "_projectId": "The ID of the project to transfer the handle from.",
          "_transferAddress": "The address that should be able to reallocate the transferred handle."
        },
        "returns": {
          "handle": "The handle that has been transferred."
        }
      }
    },
    "stateVariables": {
      "challengeExpiryOf": {
        "details": "A value of 0 means a handle isn't yet being challenged."
      },
      "count": {
        "details": "The count is incremented with each new project created.  The resulting ERC-721 token ID for each project is the newly incremented count value."
      },
      "handleOf": {
        "details": "Each project must have a handle."
      },
      "uriOf": {
        "details": "This is optional for each project."
      }
    },
    "version": 1
  },
  "userdoc": {
    "kind": "user",
    "methods": {
      "challengeExpiryOf(bytes32)": {
        "notice": " The timestamps after which each handle can be openly claimed. "
      },
      "challengeHandle(bytes32)": {
        "notice": "Allows anyone to challenge a project's handle. After one year, the handle can be claimed by the public if the challenge isn't answered by the handle's project. This can be used to make sure a handle belonging to an unattended to project isn't lost forever."
      },
      "claimHandle(bytes32,address,uint256)": {
        "notice": " Allows an address to claim an handle that has been transferred to it, and apply it to a project of theirs. A handle can also be claimed if it has been challenged and the challenge has succeeded."
      },
      "count()": {
        "notice": " The number of projects that have been created using this contract."
      },
      "createFor(address,bytes32,string)": {
        "notice": " Create a new project for the specified owner, which mints an NFT (ERC-721) into their wallet."
      },
      "handleOf(uint256)": {
        "notice": " The unique handle for each project."
      },
      "idFor(bytes32)": {
        "notice": " The ID of the project that each unique handle is currently referencing."
      },
      "operatorStore()": {
        "notice": "A contract storing operator assignments."
      },
      "renewHandleOf(uint256)": {
        "notice": "Allows a project to renew its handle, which cancels any pending challenges."
      },
      "setHandleOf(uint256,bytes32)": {
        "notice": " Allows a project owner to set the project's handle."
      },
      "setUriOf(uint256,string)": {
        "notice": " Allows a project owner to set the project's IPFS CID hash where metadata about the project has been uploaded."
      },
      "transferAddressFor(bytes32)": {
        "notice": " The address that can reallocate a handle that have been transferred to it."
      },
      "transferHandleOf(uint256,address,bytes32)": {
        "notice": " Allows a project owner to transfer its handle to another address."
      },
      "uriOf(uint256)": {
        "notice": " The IPFS CID for each project, which can be used to reference the project's metadata."
      }
    },
    "notice": " Stores project ownership and identifying information.",
    "version": 1
  },
  "storageLayout": {
    "storage": [
      {
        "astId": 1293,
        "contract": "contracts/v2/JBProjects.sol:JBProjects",
        "label": "_name",
        "offset": 0,
        "slot": "0",
        "type": "t_string_storage"
      },
      {
        "astId": 1295,
        "contract": "contracts/v2/JBProjects.sol:JBProjects",
        "label": "_symbol",
        "offset": 0,
        "slot": "1",
        "type": "t_string_storage"
      },
      {
        "astId": 1299,
        "contract": "contracts/v2/JBProjects.sol:JBProjects",
        "label": "_owners",
        "offset": 0,
        "slot": "2",
        "type": "t_mapping(t_uint256,t_address)"
      },
      {
        "astId": 1303,
        "contract": "contracts/v2/JBProjects.sol:JBProjects",
        "label": "_balances",
        "offset": 0,
        "slot": "3",
        "type": "t_mapping(t_address,t_uint256)"
      },
      {
        "astId": 1307,
        "contract": "contracts/v2/JBProjects.sol:JBProjects",
        "label": "_tokenApprovals",
        "offset": 0,
        "slot": "4",
        "type": "t_mapping(t_uint256,t_address)"
      },
      {
        "astId": 1313,
        "contract": "contracts/v2/JBProjects.sol:JBProjects",
        "label": "_operatorApprovals",
        "offset": 0,
        "slot": "5",
        "type": "t_mapping(t_address,t_mapping(t_address,t_bool))"
      },
      {
        "astId": 21612,
        "contract": "contracts/v2/JBProjects.sol:JBProjects",
        "label": "count",
        "offset": 0,
        "slot": "6",
        "type": "t_uint256"
      },
      {
        "astId": 21618,
        "contract": "contracts/v2/JBProjects.sol:JBProjects",
        "label": "uriOf",
        "offset": 0,
        "slot": "7",
        "type": "t_mapping(t_uint256,t_string_storage)"
      },
      {
        "astId": 21624,
        "contract": "contracts/v2/JBProjects.sol:JBProjects",
        "label": "handleOf",
        "offset": 0,
        "slot": "8",
        "type": "t_mapping(t_uint256,t_bytes32)"
      },
      {
        "astId": 21630,
        "contract": "contracts/v2/JBProjects.sol:JBProjects",
        "label": "idFor",
        "offset": 0,
        "slot": "9",
        "type": "t_mapping(t_bytes32,t_uint256)"
      },
      {
        "astId": 21636,
        "contract": "contracts/v2/JBProjects.sol:JBProjects",
        "label": "transferAddressFor",
        "offset": 0,
        "slot": "10",
        "type": "t_mapping(t_bytes32,t_address)"
      },
      {
        "astId": 21642,
        "contract": "contracts/v2/JBProjects.sol:JBProjects",
        "label": "challengeExpiryOf",
        "offset": 0,
        "slot": "11",
        "type": "t_mapping(t_bytes32,t_uint256)"
      }
    ],
    "types": {
      "t_address": {
        "encoding": "inplace",
        "label": "address",
        "numberOfBytes": "20"
      },
      "t_bool": {
        "encoding": "inplace",
        "label": "bool",
        "numberOfBytes": "1"
      },
      "t_bytes32": {
        "encoding": "inplace",
        "label": "bytes32",
        "numberOfBytes": "32"
      },
      "t_mapping(t_address,t_bool)": {
        "encoding": "mapping",
        "key": "t_address",
        "label": "mapping(address => bool)",
        "numberOfBytes": "32",
        "value": "t_bool"
      },
      "t_mapping(t_address,t_mapping(t_address,t_bool))": {
        "encoding": "mapping",
        "key": "t_address",
        "label": "mapping(address => mapping(address => bool))",
        "numberOfBytes": "32",
        "value": "t_mapping(t_address,t_bool)"
      },
      "t_mapping(t_address,t_uint256)": {
        "encoding": "mapping",
        "key": "t_address",
        "label": "mapping(address => uint256)",
        "numberOfBytes": "32",
        "value": "t_uint256"
      },
      "t_mapping(t_bytes32,t_address)": {
        "encoding": "mapping",
        "key": "t_bytes32",
        "label": "mapping(bytes32 => address)",
        "numberOfBytes": "32",
        "value": "t_address"
      },
      "t_mapping(t_bytes32,t_uint256)": {
        "encoding": "mapping",
        "key": "t_bytes32",
        "label": "mapping(bytes32 => uint256)",
        "numberOfBytes": "32",
        "value": "t_uint256"
      },
      "t_mapping(t_uint256,t_address)": {
        "encoding": "mapping",
        "key": "t_uint256",
        "label": "mapping(uint256 => address)",
        "numberOfBytes": "32",
        "value": "t_address"
      },
      "t_mapping(t_uint256,t_bytes32)": {
        "encoding": "mapping",
        "key": "t_uint256",
        "label": "mapping(uint256 => bytes32)",
        "numberOfBytes": "32",
        "value": "t_bytes32"
      },
      "t_mapping(t_uint256,t_string_storage)": {
        "encoding": "mapping",
        "key": "t_uint256",
        "label": "mapping(uint256 => string)",
        "numberOfBytes": "32",
        "value": "t_string_storage"
      },
      "t_string_storage": {
        "encoding": "bytes",
        "label": "string",
        "numberOfBytes": "32"
      },
      "t_uint256": {
        "encoding": "inplace",
        "label": "uint256",
        "numberOfBytes": "32"
      }
    }
  }
}