{
  "address": "0x236D9F67587782420151225Ff867044B9CcD30e3",
  "abi": [
    {
      "inputs": [
        {
          "internalType": "address",
          "name": "_owner",
          "type": "address"
        }
      ],
      "stateMutability": "nonpayable",
      "type": "constructor"
    },
    {
      "inputs": [],
      "name": "PRICE_FEED_ALREADY_EXISTS",
      "type": "error"
    },
    {
      "inputs": [],
      "name": "PRICE_FEED_NOT_FOUND",
      "type": "error"
    },
    {
      "anonymous": false,
      "inputs": [
        {
          "indexed": true,
          "internalType": "uint256",
          "name": "currency",
          "type": "uint256"
        },
        {
          "indexed": true,
          "internalType": "uint256",
          "name": "base",
          "type": "uint256"
        },
        {
          "indexed": false,
          "internalType": "contract AggregatorV3Interface",
          "name": "feed",
          "type": "address"
        }
      ],
      "name": "AddFeed",
      "type": "event"
    },
    {
      "anonymous": false,
      "inputs": [
        {
          "indexed": true,
          "internalType": "address",
          "name": "previousOwner",
          "type": "address"
        },
        {
          "indexed": true,
          "internalType": "address",
          "name": "newOwner",
          "type": "address"
        }
      ],
      "name": "OwnershipTransferred",
      "type": "event"
    },
    {
      "inputs": [],
      "name": "TARGET_DECIMALS",
      "outputs": [
        {
          "internalType": "uint256",
          "name": "",
          "type": "uint256"
        }
      ],
      "stateMutability": "view",
      "type": "function"
    },
    {
      "inputs": [
        {
          "internalType": "uint256",
          "name": "_currency",
          "type": "uint256"
        },
        {
          "internalType": "uint256",
          "name": "_base",
          "type": "uint256"
        },
        {
          "internalType": "contract AggregatorV3Interface",
          "name": "_feed",
          "type": "address"
        }
      ],
      "name": "addFeedFor",
      "outputs": [],
      "stateMutability": "nonpayable",
      "type": "function"
    },
    {
      "inputs": [
        {
          "internalType": "uint256",
          "name": "",
          "type": "uint256"
        },
        {
          "internalType": "uint256",
          "name": "",
          "type": "uint256"
        }
      ],
      "name": "feedFor",
      "outputs": [
        {
          "internalType": "contract AggregatorV3Interface",
          "name": "",
          "type": "address"
        }
      ],
      "stateMutability": "view",
      "type": "function"
    },
    {
      "inputs": [],
      "name": "owner",
      "outputs": [
        {
          "internalType": "address",
          "name": "",
          "type": "address"
        }
      ],
      "stateMutability": "view",
      "type": "function"
    },
    {
      "inputs": [
        {
          "internalType": "uint256",
          "name": "_currency",
          "type": "uint256"
        },
        {
          "internalType": "uint256",
          "name": "_base",
          "type": "uint256"
        }
      ],
      "name": "priceFor",
      "outputs": [
        {
          "internalType": "uint256",
          "name": "",
          "type": "uint256"
        }
      ],
      "stateMutability": "view",
      "type": "function"
    },
    {
      "inputs": [],
      "name": "renounceOwnership",
      "outputs": [],
      "stateMutability": "nonpayable",
      "type": "function"
    },
    {
      "inputs": [
        {
          "internalType": "address",
          "name": "newOwner",
          "type": "address"
        }
      ],
      "name": "transferOwnership",
      "outputs": [],
      "stateMutability": "nonpayable",
      "type": "function"
    }
  ],
  "transactionHash": "0x81c41b58b57f5148b3e36490755d6f8b1d1e7725fd376bf7d10b6a77dfe06ed1",
  "args": [
    "0x69C6026e3938adE9e1ddE8Ff6A37eC96595bF1e1"
  ],
  "solcInputHash": "6296389d5d0c73c3ff767c6895895650",
  "bytecode": "0x608060405234801561001057600080fd5b50604051610c06380380610c0683398101604081905261002f91610167565b61003833610047565b61004181610097565b50610197565b600080546001600160a01b038381166001600160a01b0319831681178455604051919092169283917f8be0079c531659141344cd1fd0a4f28419497f9722a3daafe3b4186f6b6457e09190a35050565b6000546001600160a01b031633146100f65760405162461bcd60e51b815260206004820181905260248201527f4f776e61626c653a2063616c6c6572206973206e6f7420746865206f776e657260448201526064015b60405180910390fd5b6001600160a01b03811661015b5760405162461bcd60e51b815260206004820152602660248201527f4f776e61626c653a206e6577206f776e657220697320746865207a65726f206160448201526564647265737360d01b60648201526084016100ed565b61016481610047565b50565b60006020828403121561017957600080fd5b81516001600160a01b038116811461019057600080fd5b9392505050565b610a60806101a66000396000f3fe608060405234801561001057600080fd5b506004361061007d5760003560e01c80638da5cb5b1161005b5780638da5cb5b1461010d57806396364e6d1461012b578063f2fde38b1461013e578063f48cc1011461015157600080fd5b806315d63a9114610082578063715018a6146100ed5780638670588b146100f7575b600080fd5b6100c3610090366004610755565b600160209081526000928352604080842090915290825290205473ffffffffffffffffffffffffffffffffffffffff1681565b60405173ffffffffffffffffffffffffffffffffffffffff90911681526020015b60405180910390f35b6100f5610164565b005b6100ff601281565b6040519081526020016100e4565b60005473ffffffffffffffffffffffffffffffffffffffff166100c3565b6100f5610139366004610777565b6101f6565b6100f561014c366004610731565b610372565b6100ff61015f366004610755565b6104a2565b60005473ffffffffffffffffffffffffffffffffffffffff1633146101ea576040517f08c379a000000000000000000000000000000000000000000000000000000000815260206004820181905260248201527f4f776e61626c653a2063616c6c6572206973206e6f7420746865206f776e657260448201526064015b60405180910390fd5b6101f4600061069d565b565b60005473ffffffffffffffffffffffffffffffffffffffff163314610277576040517f08c379a000000000000000000000000000000000000000000000000000000000815260206004820181905260248201527f4f776e61626c653a2063616c6c6572206973206e6f7420746865206f776e657260448201526064016101e1565b600083815260016020908152604080832085845290915290205473ffffffffffffffffffffffffffffffffffffffff16156102de576040517fd28d564f00000000000000000000000000000000000000000000000000000000815260040160405180910390fd5b600083815260016020908152604080832085845282529182902080547fffffffffffffffffffffffff00000000000000000000000000000000000000001673ffffffffffffffffffffffffffffffffffffffff85169081179091559151918252839185917f2809ef679fa4c20b88a6467f2660840ad173b5205fef76c270c5d7ba44cb7057910160405180910390a3505050565b60005473ffffffffffffffffffffffffffffffffffffffff1633146103f3576040517f08c379a000000000000000000000000000000000000000000000000000000000815260206004820181905260248201527f4f776e61626c653a2063616c6c6572206973206e6f7420746865206f776e657260448201526064016101e1565b73ffffffffffffffffffffffffffffffffffffffff8116610496576040517f08c379a000000000000000000000000000000000000000000000000000000000815260206004820152602660248201527f4f776e61626c653a206e6577206f776e657220697320746865207a65726f206160448201527f646472657373000000000000000000000000000000000000000000000000000060648201526084016101e1565b61049f8161069d565b50565b6000818314156104bf576104b86012600a6108bf565b9050610697565b600083815260016020908152604080832085845290915290205473ffffffffffffffffffffffffffffffffffffffff1680610526576040517f75c9d5ca00000000000000000000000000000000000000000000000000000000815260040160405180910390fd5b60008173ffffffffffffffffffffffffffffffffffffffff1663feaf968c6040518163ffffffff1660e01b815260040160a06040518083038186803b15801561056e57600080fd5b505afa158015610582573d6000803e3d6000fd5b505050506040513d601f19601f820116820180604052508101906105a691906107b0565b50505091505060008273ffffffffffffffffffffffffffffffffffffffff1663313ce5676040518163ffffffff1660e01b815260040160206040518083038186803b1580156105f457600080fd5b505afa158015610608573d6000803e3d6000fd5b505050506040513d601f19601f8201168201806040525081019061062c9190610800565b60ff1690508060121415610644575091506106979050565b8060121115610677576106588160126109c2565b61066390600a6108bf565b61066d9083610985565b9350505050610697565b6106826012826109c2565b61068d90600a6108bf565b61066d9083610823565b92915050565b6000805473ffffffffffffffffffffffffffffffffffffffff8381167fffffffffffffffffffffffff0000000000000000000000000000000000000000831681178455604051919092169283917f8be0079c531659141344cd1fd0a4f28419497f9722a3daafe3b4186f6b6457e09190a35050565b805169ffffffffffffffffffff8116811461072c57600080fd5b919050565b60006020828403121561074357600080fd5b813561074e81610a08565b9392505050565b6000806040838503121561076857600080fd5b50508035926020909101359150565b60008060006060848603121561078c57600080fd5b833592506020840135915060408401356107a581610a08565b809150509250925092565b600080600080600060a086880312156107c857600080fd5b6107d186610712565b94506020860151935060408601519250606086015191506107f460808701610712565b90509295509295909350565b60006020828403121561081257600080fd5b815160ff8116811461074e57600080fd5b600082610859577f4e487b7100000000000000000000000000000000000000000000000000000000600052601260045260246000fd5b500490565b600181815b808511156108b757817fffffffffffffffffffffffffffffffffffffffffffffffffffffffffffffffff0482111561089d5761089d6109d9565b808516156108aa57918102915b93841c9390800290610863565b509250929050565b600061074e83836000826108d557506001610697565b816108e257506000610697565b81600181146108f857600281146109025761091e565b6001915050610697565b60ff841115610913576109136109d9565b50506001821b610697565b5060208310610133831016604e8410600b8410161715610941575081810a610697565b61094b838361085e565b807fffffffffffffffffffffffffffffffffffffffffffffffffffffffffffffffff0482111561097d5761097d6109d9565b029392505050565b6000817fffffffffffffffffffffffffffffffffffffffffffffffffffffffffffffffff04831182151516156109bd576109bd6109d9565b500290565b6000828210156109d4576109d46109d9565b500390565b7f4e487b7100000000000000000000000000000000000000000000000000000000600052601160045260246000fd5b73ffffffffffffffffffffffffffffffffffffffff8116811461049f57600080fdfea26469706673582212206c6d252f6d3486a7a6fe44c40e7de4ae72ed3c0a6346da699d098812b7c016c164736f6c63430008060033",
  "devdoc": {
    "kind": "dev",
    "methods": {
      "addFeedFor(uint256,uint256,address)": {
        "details": "Current feeds can't be modified.",
        "params": {
          "_base": "The currency that the price feed is based on.",
          "_currency": "The currency that the price feed is for.",
          "_feed": "The price feed being added."
        }
      },
      "constructor": {
        "params": {
          "_owner": "The address that will own the contract."
        }
      },
      "owner()": {
        "details": "Returns the address of the current owner."
      },
      "priceFor(uint256,uint256)": {
        "params": {
          "_base": "The currency to base the price on.",
          "_currency": "The currency to get a price for."
        },
        "returns": {
          "_0": "The price of the currency in terms of the base, with 18 decimals."
        }
      },
      "renounceOwnership()": {
        "details": "Leaves the contract without owner. It will not be possible to call `onlyOwner` functions anymore. Can only be called by the current owner. NOTE: Renouncing ownership will leave the contract without an owner, thereby removing any functionality that is only available to the owner."
      },
      "transferOwnership(address)": {
        "details": "Transfers ownership of the contract to a new account (`newOwner`). Can only be called by the current owner."
      }
    },
    "version": 1
  },
  "userdoc": {
    "kind": "user",
    "methods": {
      "TARGET_DECIMALS()": {
        "notice": " The normalized number of decimals each price feed has."
      },
      "addFeedFor(uint256,uint256,address)": {
        "notice": " Add a price feed for a currency in terms of the provided base currency."
      },
      "feedFor(uint256,uint256)": {
        "notice": " The available price feeds. _currency he currency of the feed. _base he base of the feed. "
      },
      "priceFor(uint256,uint256)": {
        "notice": " Gets the current price of the provided currency in terms of the provided base currency."
      }
    },
    "notice": "Manages and normalizes price feeds.",
    "version": 1
  },
  "storageLayout": {
    "storage": [
      {
        "astId": 53,
        "contract": "contracts/JBPrices.sol:JBPrices",
        "label": "_owner",
        "offset": 0,
        "slot": "0",
        "type": "t_address"
      },
      {
        "astId": 10594,
        "contract": "contracts/JBPrices.sol:JBPrices",
        "label": "feedFor",
        "offset": 0,
        "slot": "1",
        "type": "t_mapping(t_uint256,t_mapping(t_uint256,t_contract(AggregatorV3Interface)45))"
      }
    ],
    "types": {
      "t_address": {
        "encoding": "inplace",
        "label": "address",
        "numberOfBytes": "20"
      },
      "t_contract(AggregatorV3Interface)45": {
        "encoding": "inplace",
        "label": "contract AggregatorV3Interface",
        "numberOfBytes": "20"
      },
      "t_mapping(t_uint256,t_contract(AggregatorV3Interface)45)": {
        "encoding": "mapping",
        "key": "t_uint256",
        "label": "mapping(uint256 => contract AggregatorV3Interface)",
        "numberOfBytes": "32",
        "value": "t_contract(AggregatorV3Interface)45"
      },
      "t_mapping(t_uint256,t_mapping(t_uint256,t_contract(AggregatorV3Interface)45))": {
        "encoding": "mapping",
        "key": "t_uint256",
        "label": "mapping(uint256 => mapping(uint256 => contract AggregatorV3Interface))",
        "numberOfBytes": "32",
        "value": "t_mapping(t_uint256,t_contract(AggregatorV3Interface)45)"
      },
      "t_uint256": {
        "encoding": "inplace",
        "label": "uint256",
        "numberOfBytes": "32"
      }
    }
  }
}