{
  "address": "0xA95102676eab70260Acfc8813e813b41A788448E",
  "abi": [
    {
      "inputs": [
        {
          "internalType": "uint256",
          "name": "_delay",
          "type": "uint256"
        },
        {
          "internalType": "contract IJBFundingCycleStore",
          "name": "_fundingCycleStore",
          "type": "address"
        }
      ],
      "stateMutability": "nonpayable",
      "type": "constructor"
    },
    {
      "inputs": [],
      "name": "delay",
      "outputs": [
        {
          "internalType": "uint256",
          "name": "",
          "type": "uint256"
        }
      ],
      "stateMutability": "view",
      "type": "function"
    },
    {
      "inputs": [],
      "name": "duration",
      "outputs": [
        {
          "internalType": "uint256",
          "name": "",
          "type": "uint256"
        }
      ],
      "stateMutability": "view",
      "type": "function"
    },
    {
      "inputs": [
        {
          "internalType": "uint256",
          "name": "_projectId",
          "type": "uint256"
        },
        {
          "internalType": "uint256",
          "name": "_configuration",
          "type": "uint256"
        }
      ],
      "name": "finalState",
      "outputs": [
        {
          "internalType": "enum JBBallotState",
          "name": "",
          "type": "uint8"
        }
      ],
      "stateMutability": "view",
      "type": "function"
    },
    {
      "inputs": [
        {
          "internalType": "uint256",
          "name": "_projectId",
          "type": "uint256"
        },
        {
          "internalType": "uint256",
          "name": "_configured",
          "type": "uint256"
        }
      ],
      "name": "finalize",
      "outputs": [
        {
          "internalType": "enum JBBallotState",
          "name": "ballotState",
          "type": "uint8"
        }
      ],
      "stateMutability": "nonpayable",
      "type": "function"
    },
    {
      "inputs": [],
      "name": "fundingCycleStore",
      "outputs": [
        {
          "internalType": "contract IJBFundingCycleStore",
          "name": "",
          "type": "address"
        }
      ],
      "stateMutability": "view",
      "type": "function"
    },
    {
      "inputs": [
        {
          "internalType": "uint256",
          "name": "_projectId",
          "type": "uint256"
        },
        {
          "internalType": "uint256",
          "name": "_configured",
          "type": "uint256"
        },
        {
          "internalType": "uint256",
          "name": "_start",
          "type": "uint256"
        }
      ],
      "name": "stateOf",
      "outputs": [
        {
          "internalType": "enum JBBallotState",
          "name": "",
          "type": "uint8"
        }
      ],
      "stateMutability": "view",
      "type": "function"
    }
  ],
  "transactionHash": "0xe22704b9b3db09a2f8116c5ca941860be3e6fd4b65527e4650f7f06a432826fa",
  "args": [
    604800,
    "0xB9efC201A5B5f91003D307Ad85e51c8A4277d262"
  ],
  "numDeployments": 16,
  "solcInputHash": "c0f3fc8aab6e6d623a274a19ce38362f",
  "bytecode": "0x60c060405234801561001057600080fd5b506040516106a23803806106a283398101604081905261002f9161004a565b60809190915260601b6001600160601b03191660a052610087565b6000806040838503121561005d57600080fd5b825160208401519092506001600160a01b038116811461007c57600080fd5b809150509250929050565b60805160a05160601c6105e16100c16000396000818160b1015261027801526000818160790152818160fd01526101d801526105e16000f3fe608060405234801561001057600080fd5b50600436106100725760003560e01c80637416790711610050578063741679071461011f578063a994c09f1461013f578063b6013cef1461016b57600080fd5b80630fb5a6b414610077578063557e7155146100ac5780636a42b8f8146100f8575b600080fd5b7f00000000000000000000000000000000000000000000000000000000000000005b6040519081526020015b60405180910390f35b6100d37f000000000000000000000000000000000000000000000000000000000000000081565b60405173ffffffffffffffffffffffffffffffffffffffff90911681526020016100a3565b6100997f000000000000000000000000000000000000000000000000000000000000000081565b61013261012d36600461047f565b61017e565b6040516100a391906104ab565b61013261014d36600461045d565b60009182526020828152604080842092845291905290205460ff1690565b61013261017936600461045d565b610228565b60008060008581526020818152604080832087845290915290205460ff1660028111156101ad576101ad61057c565b146101d3575060008381526020818152604080832085845290915290205460ff16610221565b6101fd7f00000000000000000000000000000000000000000000000000000000000000008461053d565b42101561021d5781421015610213576000610216565b60025b9050610221565b5060015b9392505050565b6040517f669e48aa0000000000000000000000000000000000000000000000000000000081526004810183905260248101829052600090819073ffffffffffffffffffffffffffffffffffffffff7f0000000000000000000000000000000000000000000000000000000000000000169063669e48aa906044016101206040518083038186803b1580156102bb57600080fd5b505afa1580156102cf573d6000803e3d6000fd5b505050506040513d601f19601f820116820180604052508101906102f391906103dd565b60008581526020818152604080832087845290915281205460ff1693509091508260028111156103255761032561057c565b14156103ad5761033a8484836060015161017e565b915060008260028111156103505761035061057c565b146103ad57600084815260208181526040808320868452909152902080548391907fffffffffffffffffffffffffffffffffffffffffffffffffffffffffffffff001660018360028111156103a7576103a761057c565b02179055505b5092915050565b805173ffffffffffffffffffffffffffffffffffffffff811681146103d857600080fd5b919050565b600061012082840312156103f057600080fd5b6103f86104ec565b825181526020830151602082015260408301516040820152606083015160608201526080830151608082015260a083015160a082015260c083015160c082015261044460e084016103b4565b60e0820152610100928301519281019290925250919050565b6000806040838503121561047057600080fd5b50508035926020909101359150565b60008060006060848603121561049457600080fd5b505081359360208301359350604090920135919050565b60208101600383106104e6577f4e487b7100000000000000000000000000000000000000000000000000000000600052602160045260246000fd5b91905290565b604051610120810167ffffffffffffffff81118282101715610537577f4e487b7100000000000000000000000000000000000000000000000000000000600052604160045260246000fd5b60405290565b60008219821115610577577f4e487b7100000000000000000000000000000000000000000000000000000000600052601160045260246000fd5b500190565b7f4e487b7100000000000000000000000000000000000000000000000000000000600052602160045260246000fdfea26469706673582212200d5ba27a74a4fd4552e7e9ad08514d0b7f8db77fd9e62aaf32a33c5e886eac2b64736f6c63430008060033",
  "devdoc": {
    "kind": "dev",
    "methods": {
      "constructor": {
        "params": {
          "_delay": "The delay to wait until a reconfiguration is considered approved.",
          "_fundingCycleStore": "A contract storing all funding cycle configurations."
        }
      },
      "duration()": {
        "details": "A ballot should not be considered final until the duration has passed.",
        "returns": {
          "_0": "The duration in seconds."
        }
      },
      "finalState(uint256,uint256)": {
        "details": "If `Active`, the ballot for the provided configuration can still be finalized whenever its state settles.",
        "returns": {
          "_0": "The duration in seconds."
        }
      },
      "finalize(uint256,uint256)": {
        "params": {
          "_configured": "The configuration of the funding cycle to check the state of.",
          "_projectId": "The ID of the project to which the funding cycle being checked belongs."
        },
        "returns": {
          "ballotState": "The state of the finalized ballot. If `Active`, the ballot can still later be finalized when it's state resolves."
        }
      },
      "stateOf(uint256,uint256,uint256)": {
        "params": {
          "_configured": "The configuration of the funding cycle to check the state of.",
          "_projectId": "The ID of the project to which the funding cycle being checked belongs.",
          "_start": "The start timestamp of the funding cycle to check the state of."
        },
        "returns": {
          "_0": "The state of the provided ballot."
        }
      }
    },
    "stateVariables": {
      "_finalState": {
        "details": "If `Active`, the ballot for the provided configuration can still be finalized whenever its state settles."
      }
    },
    "version": 1
  },
  "userdoc": {
    "kind": "user",
    "methods": {
      "delay()": {
        "notice": " The number of seconds that must pass for a funding cycle reconfiguration to become active."
      },
      "duration()": {
        "notice": " The time that this ballot is active for."
      },
      "finalState(uint256,uint256)": {
        "notice": " The finalized state."
      },
      "finalize(uint256,uint256)": {
        "notice": " Finalizes a configuration state if the funding cycle has started and the current state has settled."
      },
      "fundingCycleStore()": {
        "notice": "The contract storing all funding cycle configurations."
      },
      "stateOf(uint256,uint256,uint256)": {
        "notice": " The approval state of a particular funding cycle."
      }
    },
    "notice": "Manages approving funding cycle reconfigurations automatically after a buffer period.",
    "version": 1
  },
  "storageLayout": {
    "storage": [
      {
        "astId": 11588,
        "contract": "contracts/JBReconfigurationBufferBallot.sol:JBReconfigurationBufferBallot",
        "label": "_finalState",
        "offset": 0,
        "slot": "0",
        "type": "t_mapping(t_uint256,t_mapping(t_uint256,t_enum(JBBallotState)15774))"
      }
    ],
    "types": {
      "t_enum(JBBallotState)15774": {
        "encoding": "inplace",
        "label": "enum JBBallotState",
        "numberOfBytes": "1"
      },
      "t_mapping(t_uint256,t_enum(JBBallotState)15774)": {
        "encoding": "mapping",
        "key": "t_uint256",
        "label": "mapping(uint256 => enum JBBallotState)",
        "numberOfBytes": "32",
        "value": "t_enum(JBBallotState)15774"
      },
      "t_mapping(t_uint256,t_mapping(t_uint256,t_enum(JBBallotState)15774))": {
        "encoding": "mapping",
        "key": "t_uint256",
        "label": "mapping(uint256 => mapping(uint256 => enum JBBallotState))",
        "numberOfBytes": "32",
        "value": "t_mapping(t_uint256,t_enum(JBBallotState)15774)"
      },
      "t_uint256": {
        "encoding": "inplace",
        "label": "uint256",
        "numberOfBytes": "32"
      }
    }
  }
}