{
  "address": "0xa63F15EcCA0fE86B48716CE53aAA8685A596e82f",
  "abi": [
    {
      "inputs": [
        {
          "internalType": "contract IJBOperatorStore",
          "name": "_operatorStore",
          "type": "address"
        },
        {
          "internalType": "contract IJBDirectory",
          "name": "_jbDirectory",
          "type": "address"
        },
        {
          "internalType": "contract IJBProjects",
          "name": "_projects",
          "type": "address"
        }
      ],
      "stateMutability": "nonpayable",
      "type": "constructor"
    },
    {
      "anonymous": false,
      "inputs": [
        {
          "indexed": true,
          "internalType": "uint256",
          "name": "projectId",
          "type": "uint256"
        },
        {
          "indexed": true,
          "internalType": "uint256",
          "name": "domain",
          "type": "uint256"
        },
        {
          "indexed": true,
          "internalType": "uint256",
          "name": "group",
          "type": "uint256"
        },
        {
          "components": [
            {
              "internalType": "bool",
              "name": "preferUnstaked",
              "type": "bool"
            },
            {
              "internalType": "uint16",
              "name": "percent",
              "type": "uint16"
            },
            {
              "internalType": "uint48",
              "name": "lockedUntil",
              "type": "uint48"
            },
            {
              "internalType": "address payable",
              "name": "beneficiary",
              "type": "address"
            },
            {
              "internalType": "contract IJBSplitAllocator",
              "name": "allocator",
              "type": "address"
            },
            {
              "internalType": "uint56",
              "name": "projectId",
              "type": "uint56"
            }
          ],
          "indexed": false,
          "internalType": "struct Split",
          "name": "split",
          "type": "tuple"
        },
        {
          "indexed": false,
          "internalType": "address",
          "name": "caller",
          "type": "address"
        }
      ],
      "name": "SetSplit",
      "type": "event"
    },
    {
      "inputs": [],
      "name": "directory",
      "outputs": [
        {
          "internalType": "contract IJBDirectory",
          "name": "",
          "type": "address"
        }
      ],
      "stateMutability": "view",
      "type": "function"
    },
    {
      "inputs": [],
      "name": "operatorStore",
      "outputs": [
        {
          "internalType": "contract IJBOperatorStore",
          "name": "",
          "type": "address"
        }
      ],
      "stateMutability": "view",
      "type": "function"
    },
    {
      "inputs": [],
      "name": "projects",
      "outputs": [
        {
          "internalType": "contract IJBProjects",
          "name": "",
          "type": "address"
        }
      ],
      "stateMutability": "view",
      "type": "function"
    },
    {
      "inputs": [
        {
          "internalType": "uint256",
          "name": "_projectId",
          "type": "uint256"
        },
        {
          "internalType": "uint256",
          "name": "_domain",
          "type": "uint256"
        },
        {
          "internalType": "uint256",
          "name": "_group",
          "type": "uint256"
        },
        {
          "components": [
            {
              "internalType": "bool",
              "name": "preferUnstaked",
              "type": "bool"
            },
            {
              "internalType": "uint16",
              "name": "percent",
              "type": "uint16"
            },
            {
              "internalType": "uint48",
              "name": "lockedUntil",
              "type": "uint48"
            },
            {
              "internalType": "address payable",
              "name": "beneficiary",
              "type": "address"
            },
            {
              "internalType": "contract IJBSplitAllocator",
              "name": "allocator",
              "type": "address"
            },
            {
              "internalType": "uint56",
              "name": "projectId",
              "type": "uint56"
            }
          ],
          "internalType": "struct Split[]",
          "name": "_splits",
          "type": "tuple[]"
        }
      ],
      "name": "set",
      "outputs": [],
      "stateMutability": "nonpayable",
      "type": "function"
    },
    {
      "inputs": [
        {
          "internalType": "uint256",
          "name": "_projectId",
          "type": "uint256"
        },
        {
          "internalType": "uint256",
          "name": "_domain",
          "type": "uint256"
        },
        {
          "internalType": "uint256",
          "name": "_group",
          "type": "uint256"
        }
      ],
      "name": "splitsOf",
      "outputs": [
        {
          "components": [
            {
              "internalType": "bool",
              "name": "preferUnstaked",
              "type": "bool"
            },
            {
              "internalType": "uint16",
              "name": "percent",
              "type": "uint16"
            },
            {
              "internalType": "uint48",
              "name": "lockedUntil",
              "type": "uint48"
            },
            {
              "internalType": "address payable",
              "name": "beneficiary",
              "type": "address"
            },
            {
              "internalType": "contract IJBSplitAllocator",
              "name": "allocator",
              "type": "address"
            },
            {
              "internalType": "uint56",
              "name": "projectId",
              "type": "uint56"
            }
          ],
          "internalType": "struct Split[]",
          "name": "",
          "type": "tuple[]"
        }
      ],
      "stateMutability": "view",
      "type": "function"
    }
  ],
  "transactionHash": "0x80e4647e06a996344366ee8db23591103e65f18813d98985a3e6ae2e9fb54433",
  "args": [
    "0xC4D620E189b420249005FD38b22B1EA138cc0BeE",
    "0xf835913B60B870A3a14b6C7179fEDF0fEba49D93",
    "0x2DC1D364e52FCC7A3F3b5225813F0fcEC1ff715A"
  ],
  "solcInputHash": "096d8193c9ef3fa94853075f8aa2d2db",
  "bytecode": "0x60e060405234801561001057600080fd5b50604051620014123803806200141283398101604081905261003191610058565b6001600160601b0319606093841b811660805291831b821660a05290911b1660c0526100bd565b60008060006060848603121561006d57600080fd5b8351610078816100a5565b6020850151909350610089816100a5565b604085015190925061009a816100a5565b809150509250925092565b6001600160a01b03811681146100ba57600080fd5b50565b60805160601c60a05160601c60c05160601c6113096200010960003960008181609a0152610279015260008181610122015261035801526000818160fb015261044a01526113096000f3fe608060405234801561001057600080fd5b50600436106100675760003560e01c8063a1aa95b111610050578063a1aa95b1146100e1578063ad007d63146100f6578063c41c2f241461011d57600080fd5b806369e11cc51461006c5780638b79543c14610095575b600080fd5b61007f61007a366004610e7b565b610144565b60405161008c9190610ffe565b60405180910390f35b6100bc7f000000000000000000000000000000000000000000000000000000000000000081565b60405173ffffffffffffffffffffffffffffffffffffffff909116815260200161008c565b6100f46100ef366004610ea7565b61024a565b005b6100bc7f000000000000000000000000000000000000000000000000000000000000000081565b6100bc7f000000000000000000000000000000000000000000000000000000000000000081565b60008381526020818152604080832085845282528083208484528252808320805482518185028101850190935280835260609492939192909184015b8282101561023d5760008481526020908190206040805160c08101825260028602909201805460ff811615158452610100810461ffff16848601526301000000810465ffffffffffff1692840192909252690100000000000000000090910473ffffffffffffffffffffffffffffffffffffffff9081166060840152600191820154908116608084015274010000000000000000000000000000000000000000900466ffffffffffffff1660a08301529083529092019101610180565b5050505090509392505050565b6040517f6352211e000000000000000000000000000000000000000000000000000000008152600481018590527f000000000000000000000000000000000000000000000000000000000000000073ffffffffffffffffffffffffffffffffffffffff1690636352211e9060240160206040518083038186803b1580156102d057600080fd5b505afa1580156102e4573d6000803e3d6000fd5b505050506040513d601f19601f820116820180604052508101906103089190610e3a565b6040517f532fbaee0000000000000000000000000000000000000000000000000000000081526004810186905260006024820152859060129073ffffffffffffffffffffffffffffffffffffffff7f0000000000000000000000000000000000000000000000000000000000000000169063532fbaee9060440160206040518083038186803b15801561039a57600080fd5b505afa1580156103ae573d6000803e3d6000fd5b505050506040513d601f19601f820116820180604052508101906103d29190610e3a565b3373ffffffffffffffffffffffffffffffffffffffff851614806104c457506040517fc161c93f00000000000000000000000000000000000000000000000000000000815233600482015273ffffffffffffffffffffffffffffffffffffffff858116602483015260448201859052606482018490527f0000000000000000000000000000000000000000000000000000000000000000169063c161c93f9060840160206040518083038186803b15801561048c57600080fd5b505afa1580156104a0573d6000803e3d6000fd5b505050506040513d601f19601f820116820180604052508101906104c49190610e5e565b806104e457503373ffffffffffffffffffffffffffffffffffffffff8216145b61054f576040517f08c379a000000000000000000000000000000000000000000000000000000000815260206004820152601860248201527f4f706572617461626c653a20554e415554484f52495a4544000000000000000060448201526064015b60405180910390fd5b6000888152602081815260408083208a84528252808320898452825280832080548251818502810185019093528083529192909190849084015b828210156106465760008481526020908190206040805160c08101825260028602909201805460ff811615158452610100810461ffff16848601526301000000810465ffffffffffff1692840192909252690100000000000000000090910473ffffffffffffffffffffffffffffffffffffffff9081166060840152600191820154908116608084015274010000000000000000000000000000000000000000900466ffffffffffffff1660a08301529083529092019101610589565b50505050905060005b81518110156109025781818151811061066a5761066a611245565b60200260200101516040015165ffffffffffff164210610689576108f0565b6000805b8851811015610886578383815181106106a8576106a8611245565b60200260200101516020015161ffff168982815181106106ca576106ca611245565b60200260200101516020015161ffff1614801561074c57508383815181106106f4576106f4611245565b60200260200101516060015173ffffffffffffffffffffffffffffffffffffffff1689828151811061072857610728611245565b60200260200101516060015173ffffffffffffffffffffffffffffffffffffffff16145b80156107bd575083838151811061076557610765611245565b60200260200101516080015173ffffffffffffffffffffffffffffffffffffffff1689828151811061079957610799611245565b60200260200101516080015173ffffffffffffffffffffffffffffffffffffffff16145b801561081457508383815181106107d6576107d6611245565b602002602001015160a0015166ffffffffffffff168982815181106107fd576107fd611245565b602002602001015160a0015166ffffffffffffff16145b801561086a575083838151811061082d5761082d611245565b60200260200101516040015165ffffffffffff1689828151811061085357610853611245565b60200260200101516040015165ffffffffffff1610155b1561087457600191505b8061087e816111dd565b91505061068d565b50806108ee576040517f08c379a000000000000000000000000000000000000000000000000000000000815260206004820152601160248201527f307830663a20534f4d455f4c4f434b45440000000000000000000000000000006044820152606401610546565b505b806108fa816111dd565b91505061064f565b506000898152602081815260408083208b845282528083208a8452909152812061092b91610d8a565b6000805b8751811015610d7d57600088828151811061094c5761094c611245565b60200260200101516020015161ffff16116109c3576040517f08c379a000000000000000000000000000000000000000000000000000000000815260206004820152601760248201527f307831303a204241445f53504c49545f50455243454e540000000000000000006044820152606401610546565b600073ffffffffffffffffffffffffffffffffffffffff168882815181106109ed576109ed611245565b60200260200101516080015173ffffffffffffffffffffffffffffffffffffffff16141580610a665750600073ffffffffffffffffffffffffffffffffffffffff16888281518110610a4157610a41611245565b60200260200101516060015173ffffffffffffffffffffffffffffffffffffffff1614155b610acc576040517f08c379a000000000000000000000000000000000000000000000000000000000815260206004820152601260248201527f307831313a205a45524f5f4144445245535300000000000000000000000000006044820152606401610546565b878181518110610ade57610ade611245565b60200260200101516020015161ffff1682610af991906111c5565b9150612710821115610b67576040517f08c379a000000000000000000000000000000000000000000000000000000000815260206004820152601760248201527f307831323a204241445f544f54414c5f50455243454e540000000000000000006044820152606401610546565b60008b8152602081815260408083208d845282528083208c845290915290208851899083908110610b9a57610b9a611245565b6020908102919091018101518254600180820185556000948552938390208251600290920201805493830151604084015160608501517fffffffffffffffffffffffffffffffffffffffffffffffffffffffffff0000009096169315157fffffffffffffffffffffffffffffffffffffffffffffffffffffffffff0000ff169390931761010061ffff90921691909102177fffffff0000000000000000000000000000000000000000000000000000ffffff16630100000065ffffffffffff909316929092027fffffff0000000000000000000000000000000000000000ffffffffffffffffff1691909117690100000000000000000073ffffffffffffffffffffffffffffffffffffffff9485160217815560808201519301805460a090920151939092167fffffffffff000000000000000000000000000000000000000000000000000000909116177401000000000000000000000000000000000000000066ffffffffffffff90931692909202919091179055875189908b908d907fbb710fc2d1bd013431de6e5eaea4fe9245f6ef5909cce6fd4878ce98d6213acc908c9086908110610d4c57610d4c611245565b602002602001015133604051610d639291906110b4565b60405180910390a480610d75816111dd565b91505061092f565b5050505050505050505050565b5080546000825560020290600052602060002090810190610dab9190610dae565b50565b5b80821115610e0f5780547fffffff00000000000000000000000000000000000000000000000000000000001681556001810180547fffffffffff000000000000000000000000000000000000000000000000000000169055600201610daf565b5090565b8035610e1e816112a3565b919050565b803566ffffffffffffff81168114610e1e57600080fd5b600060208284031215610e4c57600080fd5b8151610e57816112a3565b9392505050565b600060208284031215610e7057600080fd5b8151610e57816112c5565b600080600060608486031215610e9057600080fd5b505081359360208301359350604090920135919050565b6000806000806080808688031215610ebe57600080fd5b8535945060208087013594506040870135935060608088013567ffffffffffffffff80821115610eed57600080fd5b818a0191508a601f830112610f0157600080fd5b813581811115610f1357610f13611274565b610f21858260051b01611176565b818152858101925083860160c08302850187018e1015610f4057600080fd5b600094505b82851015610fec5760c0818f031215610f5d57600080fd5b610f6561114d565b8135610f70816112c5565b81528188013561ffff81168114610f8657600080fd5b81890152604082013565ffffffffffff81168114610fa357600080fd5b6040820152610fb3828801610e13565b87820152610fc2898301610e13565b8982015260a0610fd3818401610e23565b908201528452600194909401939286019260c001610f45565b50999c989b5096995050505050505050565b6020808252825182820181905260009190848201906040850190845b818110156110a85761109583855180511515825261ffff602082015116602083015265ffffffffffff6040820151166040830152606081015173ffffffffffffffffffffffffffffffffffffffff8082166060850152806080840151166080850152505066ffffffffffffff60a08201511660a08301525050565b9284019260c0929092019160010161101a565b50909695505050505050565b60e0810161112a828580511515825261ffff602082015116602083015265ffffffffffff6040820151166040830152606081015173ffffffffffffffffffffffffffffffffffffffff8082166060850152806080840151166080850152505066ffffffffffffff60a08201511660a08301525050565b73ffffffffffffffffffffffffffffffffffffffff831660c08301529392505050565b60405160c0810167ffffffffffffffff8111828210171561117057611170611274565b60405290565b604051601f82017fffffffffffffffffffffffffffffffffffffffffffffffffffffffffffffffe016810167ffffffffffffffff811182821017156111bd576111bd611274565b604052919050565b600082198211156111d8576111d8611216565b500190565b60007fffffffffffffffffffffffffffffffffffffffffffffffffffffffffffffffff82141561120f5761120f611216565b5060010190565b7f4e487b7100000000000000000000000000000000000000000000000000000000600052601160045260246000fd5b7f4e487b7100000000000000000000000000000000000000000000000000000000600052603260045260246000fd5b7f4e487b7100000000000000000000000000000000000000000000000000000000600052604160045260246000fd5b73ffffffffffffffffffffffffffffffffffffffff81168114610dab57600080fd5b8015158114610dab57600080fdfea2646970667358221220ff129976df0e505e0b7f064e1b7f4ad960ddf36b8d762f90c8d1020df0e484a664736f6c63430008060033",
  "devdoc": {
    "kind": "dev",
    "methods": {
      "constructor": {
        "params": {
          "_jbDirectory": "The directory of terminals.",
          "_operatorStore": "A contract storing operator assignments.",
          "_projects": "A Projects contract which mints ERC-721's that represent project ownership and transfers."
        }
      },
      "set(uint256,uint256,uint256,(bool,uint16,uint48,address,address,uint56)[])": {
        "details": "Only the owner or operator of a project, or the current terminal of the project, can set its splits.The new splits must include any currently set splits that are locked.",
        "params": {
          "_domain": "An identifier within which the splits should be considered active.",
          "_group": "An identifier between of splits being set. All splits within this _group must add up to within 100%.",
          "_projectId": "The ID of the project for which splits are being added.",
          "_splits": "The splits to set."
        }
      },
      "splitsOf(uint256,uint256,uint256)": {
        "params": {
          "_domain": "An identifier within which the returned splits should be considered active.",
          "_group": "The identifying group of the splits.",
          "_projectId": "The ID of the project to get splits for."
        },
        "returns": {
          "_0": "An array of all splits for the project."
        }
      }
    },
    "version": 1
  },
  "userdoc": {
    "kind": "user",
    "methods": {
      "directory()": {
        "notice": "The direct deposit terminals."
      },
      "operatorStore()": {
        "notice": "A contract storing operator assignments."
      },
      "projects()": {
        "notice": " The Projects contract which mints ERC-721's that represent project ownership and transfers."
      },
      "set(uint256,uint256,uint256,(bool,uint16,uint48,address,address,uint56)[])": {
        "notice": " Sets a project's splits."
      },
      "splitsOf(uint256,uint256,uint256)": {
        "notice": " Get all splits for the specified project ID, within the specified domain, for the specified group."
      }
    },
    "notice": "Stores splits for each project.",
    "version": 1
  },
  "storageLayout": {
    "storage": [
      {
        "astId": 22140,
        "contract": "contracts/v2/JBSplitStore.sol:JBSplitsStore",
        "label": "_splitsOf",
        "offset": 0,
        "slot": "0",
        "type": "t_mapping(t_uint256,t_mapping(t_uint256,t_mapping(t_uint256,t_array(t_struct(Split)25138_storage)dyn_storage)))"
      }
    ],
    "types": {
      "t_address_payable": {
        "encoding": "inplace",
        "label": "address payable",
        "numberOfBytes": "20"
      },
      "t_array(t_struct(Split)25138_storage)dyn_storage": {
        "base": "t_struct(Split)25138_storage",
        "encoding": "dynamic_array",
        "label": "struct Split[]",
        "numberOfBytes": "32"
      },
      "t_bool": {
        "encoding": "inplace",
        "label": "bool",
        "numberOfBytes": "1"
      },
      "t_contract(IJBSplitAllocator)25119": {
        "encoding": "inplace",
        "label": "contract IJBSplitAllocator",
        "numberOfBytes": "20"
      },
      "t_mapping(t_uint256,t_array(t_struct(Split)25138_storage)dyn_storage)": {
        "encoding": "mapping",
        "key": "t_uint256",
        "label": "mapping(uint256 => struct Split[])",
        "numberOfBytes": "32",
        "value": "t_array(t_struct(Split)25138_storage)dyn_storage"
      },
      "t_mapping(t_uint256,t_mapping(t_uint256,t_array(t_struct(Split)25138_storage)dyn_storage))": {
        "encoding": "mapping",
        "key": "t_uint256",
        "label": "mapping(uint256 => mapping(uint256 => struct Split[]))",
        "numberOfBytes": "32",
        "value": "t_mapping(t_uint256,t_array(t_struct(Split)25138_storage)dyn_storage)"
      },
      "t_mapping(t_uint256,t_mapping(t_uint256,t_mapping(t_uint256,t_array(t_struct(Split)25138_storage)dyn_storage)))": {
        "encoding": "mapping",
        "key": "t_uint256",
        "label": "mapping(uint256 => mapping(uint256 => mapping(uint256 => struct Split[])))",
        "numberOfBytes": "32",
        "value": "t_mapping(t_uint256,t_mapping(t_uint256,t_array(t_struct(Split)25138_storage)dyn_storage))"
      },
      "t_struct(Split)25138_storage": {
        "encoding": "inplace",
        "label": "struct Split",
        "members": [
          {
            "astId": 25126,
            "contract": "contracts/v2/JBSplitStore.sol:JBSplitsStore",
            "label": "preferUnstaked",
            "offset": 0,
            "slot": "0",
            "type": "t_bool"
          },
          {
            "astId": 25128,
            "contract": "contracts/v2/JBSplitStore.sol:JBSplitsStore",
            "label": "percent",
            "offset": 1,
            "slot": "0",
            "type": "t_uint16"
          },
          {
            "astId": 25130,
            "contract": "contracts/v2/JBSplitStore.sol:JBSplitsStore",
            "label": "lockedUntil",
            "offset": 3,
            "slot": "0",
            "type": "t_uint48"
          },
          {
            "astId": 25132,
            "contract": "contracts/v2/JBSplitStore.sol:JBSplitsStore",
            "label": "beneficiary",
            "offset": 9,
            "slot": "0",
            "type": "t_address_payable"
          },
          {
            "astId": 25135,
            "contract": "contracts/v2/JBSplitStore.sol:JBSplitsStore",
            "label": "allocator",
            "offset": 0,
            "slot": "1",
            "type": "t_contract(IJBSplitAllocator)25119"
          },
          {
            "astId": 25137,
            "contract": "contracts/v2/JBSplitStore.sol:JBSplitsStore",
            "label": "projectId",
            "offset": 20,
            "slot": "1",
            "type": "t_uint56"
          }
        ],
        "numberOfBytes": "64"
      },
      "t_uint16": {
        "encoding": "inplace",
        "label": "uint16",
        "numberOfBytes": "2"
      },
      "t_uint256": {
        "encoding": "inplace",
        "label": "uint256",
        "numberOfBytes": "32"
      },
      "t_uint48": {
        "encoding": "inplace",
        "label": "uint48",
        "numberOfBytes": "6"
      },
      "t_uint56": {
        "encoding": "inplace",
        "label": "uint56",
        "numberOfBytes": "7"
      }
    }
  }
}