{
  "address": "0x128044289b5a83B06cE21A6D0B5D5bFF04d5749B",
  "abi": [
    {
      "inputs": [
        {
          "internalType": "contract IJBOperatorStore",
          "name": "_operatorStore",
          "type": "address"
        },
        {
          "internalType": "contract IJBProjects",
          "name": "_projects",
          "type": "address"
        },
        {
          "internalType": "contract IJBDirectory",
          "name": "_directory",
          "type": "address"
        }
      ],
      "stateMutability": "nonpayable",
      "type": "constructor"
    },
    {
      "inputs": [],
      "name": "ALLOCATOR_AND_BENEFICIARY_ZERO_ADDRESS",
      "type": "error"
    },
    {
      "inputs": [],
      "name": "INVALID_SPLIT_PERCENT",
      "type": "error"
    },
    {
      "inputs": [],
      "name": "INVALID_TOTAL_PERCENT",
      "type": "error"
    },
    {
      "inputs": [],
      "name": "PREVIOUS_LOCKED_SPLITS_NOT_INCLUDED",
      "type": "error"
    },
    {
      "inputs": [],
      "name": "UNAUTHORIZED",
      "type": "error"
    },
    {
      "anonymous": false,
      "inputs": [
        {
          "indexed": true,
          "internalType": "uint256",
          "name": "projectId",
          "type": "uint256"
        },
        {
          "indexed": true,
          "internalType": "uint256",
          "name": "domain",
          "type": "uint256"
        },
        {
          "indexed": true,
          "internalType": "uint256",
          "name": "group",
          "type": "uint256"
        },
        {
          "components": [
            {
              "internalType": "bool",
              "name": "preferClaimed",
              "type": "bool"
            },
            {
              "internalType": "uint32",
              "name": "percent",
              "type": "uint32"
            },
            {
              "internalType": "uint56",
              "name": "projectId",
              "type": "uint56"
            },
            {
              "internalType": "address payable",
              "name": "beneficiary",
              "type": "address"
            },
            {
              "internalType": "contract IJBSplitAllocator",
              "name": "allocator",
              "type": "address"
            },
            {
              "internalType": "uint48",
              "name": "lockedUntil",
              "type": "uint48"
            }
          ],
          "indexed": false,
          "internalType": "struct JBSplit",
          "name": "split",
          "type": "tuple"
        },
        {
          "indexed": false,
          "internalType": "address",
          "name": "caller",
          "type": "address"
        }
      ],
      "name": "SetSplit",
      "type": "event"
    },
    {
      "inputs": [],
      "name": "directory",
      "outputs": [
        {
          "internalType": "contract IJBDirectory",
          "name": "",
          "type": "address"
        }
      ],
      "stateMutability": "view",
      "type": "function"
    },
    {
      "inputs": [],
      "name": "operatorStore",
      "outputs": [
        {
          "internalType": "contract IJBOperatorStore",
          "name": "",
          "type": "address"
        }
      ],
      "stateMutability": "view",
      "type": "function"
    },
    {
      "inputs": [],
      "name": "projects",
      "outputs": [
        {
          "internalType": "contract IJBProjects",
          "name": "",
          "type": "address"
        }
      ],
      "stateMutability": "view",
      "type": "function"
    },
    {
      "inputs": [
        {
          "internalType": "uint256",
          "name": "_projectId",
          "type": "uint256"
        },
        {
          "internalType": "uint256",
          "name": "_domain",
          "type": "uint256"
        },
        {
          "internalType": "uint256",
          "name": "_group",
          "type": "uint256"
        },
        {
          "components": [
            {
              "internalType": "bool",
              "name": "preferClaimed",
              "type": "bool"
            },
            {
              "internalType": "uint32",
              "name": "percent",
              "type": "uint32"
            },
            {
              "internalType": "uint56",
              "name": "projectId",
              "type": "uint56"
            },
            {
              "internalType": "address payable",
              "name": "beneficiary",
              "type": "address"
            },
            {
              "internalType": "contract IJBSplitAllocator",
              "name": "allocator",
              "type": "address"
            },
            {
              "internalType": "uint48",
              "name": "lockedUntil",
              "type": "uint48"
            }
          ],
          "internalType": "struct JBSplit[]",
          "name": "_splits",
          "type": "tuple[]"
        }
      ],
      "name": "set",
      "outputs": [],
      "stateMutability": "nonpayable",
      "type": "function"
    },
    {
      "inputs": [
        {
          "internalType": "uint256",
          "name": "_projectId",
          "type": "uint256"
        },
        {
          "internalType": "uint256",
          "name": "_domain",
          "type": "uint256"
        },
        {
          "internalType": "uint256",
          "name": "_group",
          "type": "uint256"
        }
      ],
      "name": "splitsOf",
      "outputs": [
        {
          "components": [
            {
              "internalType": "bool",
              "name": "preferClaimed",
              "type": "bool"
            },
            {
              "internalType": "uint32",
              "name": "percent",
              "type": "uint32"
            },
            {
              "internalType": "uint56",
              "name": "projectId",
              "type": "uint56"
            },
            {
              "internalType": "address payable",
              "name": "beneficiary",
              "type": "address"
            },
            {
              "internalType": "contract IJBSplitAllocator",
              "name": "allocator",
              "type": "address"
            },
            {
              "internalType": "uint48",
              "name": "lockedUntil",
              "type": "uint48"
            }
          ],
          "internalType": "struct JBSplit[]",
          "name": "",
          "type": "tuple[]"
        }
      ],
      "stateMutability": "view",
      "type": "function"
    }
  ],
  "transactionHash": "0x0007b269269fb742c0bce6fc8c636fa59c8617c496e964033b1d53e9a024bc3a",
  "args": [
    "0xacD28185AE65adc711481c0aECB0B99Ac8608698",
    "0xA08dD15247f67742eF1597Bcb2a0D829a7A3C5e1",
    "0x47F214f5e7D8589FEFe2946716aeA5fDfa53932a"
  ],
  "solcInputHash": "6296389d5d0c73c3ff767c6895895650",
  "bytecode": "0x60e060405234801561001057600080fd5b50604051620013d5380380620013d583398101604081905261003191610058565b6001600160601b0319606093841b811660805291831b821660a05290911b1660c0526100bd565b60008060006060848603121561006d57600080fd5b8351610078816100a5565b6020850151909350610089816100a5565b604085015190925061009a816100a5565b809150509250925092565b6001600160a01b03811681146100ba57600080fd5b50565b60805160601c60a05160601c60c05160601c6112c56200011060003960008181610122015261035a015260008181609a015261028001526000818160e60152818161046e015261054a01526112c56000f3fe608060405234801561001057600080fd5b50600436106100675760003560e01c8063ad007d6311610050578063ad007d63146100e1578063c30db11b14610108578063c41c2f241461011d57600080fd5b806369e11cc51461006c5780638b79543c14610095575b600080fd5b61007f61007a366004610e30565b610144565b60405161008c9190610fb6565b60405180910390f35b6100bc7f000000000000000000000000000000000000000000000000000000000000000081565b60405173ffffffffffffffffffffffffffffffffffffffff909116815260200161008c565b6100bc7f000000000000000000000000000000000000000000000000000000000000000081565b61011b610116366004610e5c565b610251565b005b6100bc7f000000000000000000000000000000000000000000000000000000000000000081565b60008381526020818152604080832085845282528083208484528252808320805482518185028101850190935280835260609492939192909184015b828210156102445760008481526020908190206040805160c08101825260028602909201805460ff811615158452610100810463ffffffff168486015265010000000000810466ffffffffffffff16928401929092526c0100000000000000000000000090910473ffffffffffffffffffffffffffffffffffffffff9081166060840152600191820154908116608084015274010000000000000000000000000000000000000000900465ffffffffffff1660a08301529083529092019101610180565b5050505090509392505050565b6040517f6352211e000000000000000000000000000000000000000000000000000000008152600481018590527f000000000000000000000000000000000000000000000000000000000000000073ffffffffffffffffffffffffffffffffffffffff1690636352211e9060240160206040518083038186803b1580156102d757600080fd5b505afa1580156102eb573d6000803e3d6000fd5b505050506040513d601f19601f8201168201806040525081019061030f9190610def565b6040517f5dd8f6aa000000000000000000000000000000000000000000000000000000008152600481018690528590601590339073ffffffffffffffffffffffffffffffffffffffff7f00000000000000000000000000000000000000000000000000000000000000001690635dd8f6aa9060240160206040518083038186803b15801561039c57600080fd5b505afa1580156103b0573d6000803e3d6000fd5b505050506040513d601f19601f820116820180604052508101906103d49190610def565b73ffffffffffffffffffffffffffffffffffffffff161480158161040e57503373ffffffffffffffffffffffffffffffffffffffff851614155b80156104ea57506040517fc161c93f00000000000000000000000000000000000000000000000000000000815233600482015273ffffffffffffffffffffffffffffffffffffffff858116602483015260448201859052606482018490527f0000000000000000000000000000000000000000000000000000000000000000169063c161c93f9060840160206040518083038186803b1580156104b057600080fd5b505afa1580156104c4573d6000803e3d6000fd5b505050506040513d601f19601f820116820180604052508101906104e89190610e13565b155b80156105c657506040517fc161c93f00000000000000000000000000000000000000000000000000000000815233600482015273ffffffffffffffffffffffffffffffffffffffff858116602483015260006044830152606482018490527f0000000000000000000000000000000000000000000000000000000000000000169063c161c93f9060840160206040518083038186803b15801561058c57600080fd5b505afa1580156105a0573d6000803e3d6000fd5b505050506040513d601f19601f820116820180604052508101906105c49190610e13565b155b156105fd576040517f075fd2b100000000000000000000000000000000000000000000000000000000815260040160405180910390fd5b6000888152602081815260408083208a84528252808320898452825280832080548251818502810185019093528083529192909190849084015b828210156106fb5760008481526020908190206040805160c08101825260028602909201805460ff811615158452610100810463ffffffff168486015265010000000000810466ffffffffffffff16928401929092526c0100000000000000000000000090910473ffffffffffffffffffffffffffffffffffffffff9081166060840152600191820154908116608084015274010000000000000000000000000000000000000000900465ffffffffffff1660a08301529083529092019101610637565b50505050905060005b815181101561098b5781818151811061071f5761071f611201565b602002602001015160a0015165ffffffffffff16421061073e57610979565b6000805b885181101561093f5783838151811061075d5761075d611201565b60200260200101516020015163ffffffff1689828151811061078157610781611201565b60200260200101516020015163ffffffff1614801561080557508383815181106107ad576107ad611201565b60200260200101516060015173ffffffffffffffffffffffffffffffffffffffff168982815181106107e1576107e1611201565b60200260200101516060015173ffffffffffffffffffffffffffffffffffffffff16145b8015610876575083838151811061081e5761081e611201565b60200260200101516080015173ffffffffffffffffffffffffffffffffffffffff1689828151811061085257610852611201565b60200260200101516080015173ffffffffffffffffffffffffffffffffffffffff16145b80156108cd575083838151811061088f5761088f611201565b60200260200101516040015166ffffffffffffff168982815181106108b6576108b6611201565b60200260200101516040015166ffffffffffffff16145b801561092357508383815181106108e6576108e6611201565b602002602001015160a0015165ffffffffffff1689828151811061090c5761090c611201565b602002602001015160a0015165ffffffffffff1610155b1561092d57600191505b8061093781611199565b915050610742565b5080610977576040517f1974459500000000000000000000000000000000000000000000000000000000815260040160405180910390fd5b505b8061098381611199565b915050610704565b506000898152602081815260408083208b845282528083208a845290915281206109b491610d62565b6000805b8751811015610d55578781815181106109d3576109d3611201565b60200260200101516020015163ffffffff1660001415610a1f576040517fe119ba4500000000000000000000000000000000000000000000000000000000815260040160405180910390fd5b600073ffffffffffffffffffffffffffffffffffffffff16888281518110610a4957610a49611201565b60200260200101516080015173ffffffffffffffffffffffffffffffffffffffff16148015610ac15750600073ffffffffffffffffffffffffffffffffffffffff16888281518110610a9d57610a9d611201565b60200260200101516060015173ffffffffffffffffffffffffffffffffffffffff16145b15610af8576040517f8833af6e00000000000000000000000000000000000000000000000000000000815260040160405180910390fd5b878181518110610b0a57610b0a611201565b60200260200101516020015163ffffffff1682610b279190611181565b9150633b9aca00821115610b67576040517feca7361000000000000000000000000000000000000000000000000000000000815260040160405180910390fd5b60008b8152602081815260408083208d845282528083208c845290915290208851899083908110610b9a57610b9a611201565b6020908102919091018101518254600180820185556000948552938390208251600290920201805493830151604084015160608501517fffffffffffffffffffffffffffffffffffffffffffffffffffffff00000000009096169315157fffffffffffffffffffffffffffffffffffffffffffffffffffffff00000000ff169390931761010063ffffffff909216919091021764ffffffffff166501000000000066ffffffffffffff909316929092026bffffffffffffffffffffffff16919091176c0100000000000000000000000073ffffffffffffffffffffffffffffffffffffffff9485160217815560808201519301805460a090920151939092167fffffffffffff0000000000000000000000000000000000000000000000000000909116177401000000000000000000000000000000000000000065ffffffffffff90931692909202919091179055875189908b908d907f83cea38dee38fd4c8e52f2d51e9f98fe5d970bba24287bc5ad0361bf3a65e995908c9086908110610d2457610d24611201565b602002602001015133604051610d3b92919061106e565b60405180910390a480610d4d81611199565b9150506109b8565b5050505050505050505050565b5080546000825560020290600052602060002090810190610d839190610d86565b50565b5b80821115610dc557600081556001810180547fffffffffffff0000000000000000000000000000000000000000000000000000169055600201610d87565b5090565b8035610dd48161125f565b919050565b803565ffffffffffff81168114610dd457600080fd5b600060208284031215610e0157600080fd5b8151610e0c8161125f565b9392505050565b600060208284031215610e2557600080fd5b8151610e0c81611281565b600080600060608486031215610e4557600080fd5b505081359360208301359350604090920135919050565b60008060008060808587031215610e7257600080fd5b843593506020808601359350604080870135935060608088013567ffffffffffffffff80821115610ea257600080fd5b818a0191508a601f830112610eb657600080fd5b813581811115610ec857610ec8611230565b610ed6868260051b01611132565b818152868101925083870160c08302850188018e1015610ef557600080fd5b600094505b82851015610fa45760c0818f031215610f1257600080fd5b610f1a611109565b8135610f2581611281565b81528189013563ffffffff81168114610f3d57600080fd5b818a01528188013566ffffffffffffff81168114610f5a57600080fd5b81890152610f69828801610dc9565b87820152610f7960808301610dc9565b608082015260a0610f8b818401610dd9565b908201528452600194909401939287019260c001610efa565b50999c989b5096995050505050505050565b6020808252825182820181905260009190848201906040850190845b818110156110625761104f83855180511515825263ffffffff602082015116602083015266ffffffffffffff6040820151166040830152606081015173ffffffffffffffffffffffffffffffffffffffff8082166060850152806080840151166080850152505065ffffffffffff60a08201511660a08301525050565b9284019260c09290920191600101610fd2565b50909695505050505050565b60e081016110e6828580511515825263ffffffff602082015116602083015266ffffffffffffff6040820151166040830152606081015173ffffffffffffffffffffffffffffffffffffffff8082166060850152806080840151166080850152505065ffffffffffff60a08201511660a08301525050565b73ffffffffffffffffffffffffffffffffffffffff831660c08301529392505050565b60405160c0810167ffffffffffffffff8111828210171561112c5761112c611230565b60405290565b604051601f82017fffffffffffffffffffffffffffffffffffffffffffffffffffffffffffffffe016810167ffffffffffffffff8111828210171561117957611179611230565b604052919050565b60008219821115611194576111946111d2565b500190565b60007fffffffffffffffffffffffffffffffffffffffffffffffffffffffffffffffff8214156111cb576111cb6111d2565b5060010190565b7f4e487b7100000000000000000000000000000000000000000000000000000000600052601160045260246000fd5b7f4e487b7100000000000000000000000000000000000000000000000000000000600052603260045260246000fd5b7f4e487b7100000000000000000000000000000000000000000000000000000000600052604160045260246000fd5b73ffffffffffffffffffffffffffffffffffffffff81168114610d8357600080fd5b8015158114610d8357600080fdfea264697066735822122060b9c4700ebe5648af2925cd23191f10e216098ccaaa3f6d5b57e89da7f3765e64736f6c63430008060033",
  "devdoc": {
    "kind": "dev",
    "methods": {
      "constructor": {
        "params": {
          "_directory": "A contract storing directories of terminals and controllers for each project.",
          "_operatorStore": "A contract storing operator assignments.",
          "_projects": "A contract which mints ERC-721's that represent project ownership and transfers."
        }
      },
      "set(uint256,uint256,uint256,(bool,uint32,uint56,address,address,uint48)[])": {
        "details": "Only the owner or operator of a project, or the current controller contract of the project, can set its splits.The new splits must include any currently set splits that are locked.",
        "params": {
          "_domain": "An identifier within which the splits should be considered active.",
          "_group": "An identifier between of splits being set. All splits within this _group must add up to within 100%.",
          "_projectId": "The ID of the project for which splits are being added.",
          "_splits": "The splits to set."
        }
      },
      "splitsOf(uint256,uint256,uint256)": {
        "params": {
          "_domain": "An identifier within which the returned splits should be considered active.",
          "_group": "The identifying group of the splits.",
          "_projectId": "The ID of the project to get splits for."
        },
        "returns": {
          "_0": "An array of all splits for the project."
        }
      }
    },
    "version": 1
  },
  "userdoc": {
    "kind": "user",
    "methods": {
      "directory()": {
        "notice": " The directory of terminals and controllers for projects."
      },
      "operatorStore()": {
        "notice": " A contract storing operator assignments."
      },
      "projects()": {
        "notice": " The Projects contract which mints ERC-721's that represent project ownership and transfers."
      },
      "set(uint256,uint256,uint256,(bool,uint32,uint56,address,address,uint48)[])": {
        "notice": " Sets a project's splits."
      },
      "splitsOf(uint256,uint256,uint256)": {
        "notice": " Get all splits for the specified project ID, within the specified domain, for the specified group."
      }
    },
    "notice": "Stores splits for each project.",
    "version": 1
  },
  "storageLayout": {
    "storage": [
      {
        "astId": 11335,
        "contract": "contracts/JBSplitsStore.sol:JBSplitsStore",
        "label": "_splitsOf",
        "offset": 0,
        "slot": "0",
        "type": "t_mapping(t_uint256,t_mapping(t_uint256,t_mapping(t_uint256,t_array(t_struct(JBSplit)15220_storage)dyn_storage)))"
      }
    ],
    "types": {
      "t_address_payable": {
        "encoding": "inplace",
        "label": "address payable",
        "numberOfBytes": "20"
      },
      "t_array(t_struct(JBSplit)15220_storage)dyn_storage": {
        "base": "t_struct(JBSplit)15220_storage",
        "encoding": "dynamic_array",
        "label": "struct JBSplit[]",
        "numberOfBytes": "32"
      },
      "t_bool": {
        "encoding": "inplace",
        "label": "bool",
        "numberOfBytes": "1"
      },
      "t_contract(IJBSplitAllocator)14009": {
        "encoding": "inplace",
        "label": "contract IJBSplitAllocator",
        "numberOfBytes": "20"
      },
      "t_mapping(t_uint256,t_array(t_struct(JBSplit)15220_storage)dyn_storage)": {
        "encoding": "mapping",
        "key": "t_uint256",
        "label": "mapping(uint256 => struct JBSplit[])",
        "numberOfBytes": "32",
        "value": "t_array(t_struct(JBSplit)15220_storage)dyn_storage"
      },
      "t_mapping(t_uint256,t_mapping(t_uint256,t_array(t_struct(JBSplit)15220_storage)dyn_storage))": {
        "encoding": "mapping",
        "key": "t_uint256",
        "label": "mapping(uint256 => mapping(uint256 => struct JBSplit[]))",
        "numberOfBytes": "32",
        "value": "t_mapping(t_uint256,t_array(t_struct(JBSplit)15220_storage)dyn_storage)"
      },
      "t_mapping(t_uint256,t_mapping(t_uint256,t_mapping(t_uint256,t_array(t_struct(JBSplit)15220_storage)dyn_storage)))": {
        "encoding": "mapping",
        "key": "t_uint256",
        "label": "mapping(uint256 => mapping(uint256 => mapping(uint256 => struct JBSplit[])))",
        "numberOfBytes": "32",
        "value": "t_mapping(t_uint256,t_mapping(t_uint256,t_array(t_struct(JBSplit)15220_storage)dyn_storage))"
      },
      "t_struct(JBSplit)15220_storage": {
        "encoding": "inplace",
        "label": "struct JBSplit",
        "members": [
          {
            "astId": 15208,
            "contract": "contracts/JBSplitsStore.sol:JBSplitsStore",
            "label": "preferClaimed",
            "offset": 0,
            "slot": "0",
            "type": "t_bool"
          },
          {
            "astId": 15210,
            "contract": "contracts/JBSplitsStore.sol:JBSplitsStore",
            "label": "percent",
            "offset": 1,
            "slot": "0",
            "type": "t_uint32"
          },
          {
            "astId": 15212,
            "contract": "contracts/JBSplitsStore.sol:JBSplitsStore",
            "label": "projectId",
            "offset": 5,
            "slot": "0",
            "type": "t_uint56"
          },
          {
            "astId": 15214,
            "contract": "contracts/JBSplitsStore.sol:JBSplitsStore",
            "label": "beneficiary",
            "offset": 12,
            "slot": "0",
            "type": "t_address_payable"
          },
          {
            "astId": 15217,
            "contract": "contracts/JBSplitsStore.sol:JBSplitsStore",
            "label": "allocator",
            "offset": 0,
            "slot": "1",
            "type": "t_contract(IJBSplitAllocator)14009"
          },
          {
            "astId": 15219,
            "contract": "contracts/JBSplitsStore.sol:JBSplitsStore",
            "label": "lockedUntil",
            "offset": 20,
            "slot": "1",
            "type": "t_uint48"
          }
        ],
        "numberOfBytes": "64"
      },
      "t_uint256": {
        "encoding": "inplace",
        "label": "uint256",
        "numberOfBytes": "32"
      },
      "t_uint32": {
        "encoding": "inplace",
        "label": "uint32",
        "numberOfBytes": "4"
      },
      "t_uint48": {
        "encoding": "inplace",
        "label": "uint48",
        "numberOfBytes": "6"
      },
      "t_uint56": {
        "encoding": "inplace",
        "label": "uint56",
        "numberOfBytes": "7"
      }
    }
  }
}