{
  "address": "0x29431d36f382f50878399C1D529b20582573AAb6",
  "abi": [
    {
      "inputs": [
        {
          "internalType": "contract IJBOperatorStore",
          "name": "_operatorStore",
          "type": "address"
        },
        {
          "internalType": "contract IJBProjects",
          "name": "_projects",
          "type": "address"
        },
        {
          "internalType": "contract IJBDirectory",
          "name": "_directory",
          "type": "address"
        }
      ],
      "stateMutability": "nonpayable",
      "type": "constructor"
    },
    {
      "anonymous": false,
      "inputs": [
        {
          "indexed": true,
          "internalType": "address",
          "name": "holder",
          "type": "address"
        },
        {
          "indexed": true,
          "internalType": "uint256",
          "name": "projectId",
          "type": "uint256"
        },
        {
          "indexed": false,
          "internalType": "uint256",
          "name": "amount",
          "type": "uint256"
        },
        {
          "indexed": false,
          "internalType": "uint256",
          "name": "unclaimedTokenBalance",
          "type": "uint256"
        },
        {
          "indexed": false,
          "internalType": "bool",
          "name": "preferClaimedTokens",
          "type": "bool"
        },
        {
          "indexed": false,
          "internalType": "address",
          "name": "caller",
          "type": "address"
        }
      ],
      "name": "Burn",
      "type": "event"
    },
    {
      "anonymous": false,
      "inputs": [
        {
          "indexed": true,
          "internalType": "uint256",
          "name": "projectId",
          "type": "uint256"
        },
        {
          "indexed": true,
          "internalType": "contract IJBToken",
          "name": "token",
          "type": "address"
        },
        {
          "indexed": true,
          "internalType": "address",
          "name": "owner",
          "type": "address"
        },
        {
          "indexed": false,
          "internalType": "address",
          "name": "caller",
          "type": "address"
        }
      ],
      "name": "ChangeToken",
      "type": "event"
    },
    {
      "anonymous": false,
      "inputs": [
        {
          "indexed": true,
          "internalType": "address",
          "name": "holder",
          "type": "address"
        },
        {
          "indexed": true,
          "internalType": "uint256",
          "name": "projectId",
          "type": "uint256"
        },
        {
          "indexed": false,
          "internalType": "uint256",
          "name": "amount",
          "type": "uint256"
        },
        {
          "indexed": false,
          "internalType": "address",
          "name": "caller",
          "type": "address"
        }
      ],
      "name": "Claim",
      "type": "event"
    },
    {
      "anonymous": false,
      "inputs": [
        {
          "indexed": true,
          "internalType": "uint256",
          "name": "projectId",
          "type": "uint256"
        },
        {
          "indexed": true,
          "internalType": "contract IJBToken",
          "name": "token",
          "type": "address"
        },
        {
          "indexed": false,
          "internalType": "string",
          "name": "name",
          "type": "string"
        },
        {
          "indexed": false,
          "internalType": "string",
          "name": "symbol",
          "type": "string"
        },
        {
          "indexed": false,
          "internalType": "address",
          "name": "caller",
          "type": "address"
        }
      ],
      "name": "Issue",
      "type": "event"
    },
    {
      "anonymous": false,
      "inputs": [
        {
          "indexed": true,
          "internalType": "address",
          "name": "holder",
          "type": "address"
        },
        {
          "indexed": true,
          "internalType": "uint256",
          "name": "projectId",
          "type": "uint256"
        },
        {
          "indexed": false,
          "internalType": "uint256",
          "name": "amount",
          "type": "uint256"
        },
        {
          "indexed": false,
          "internalType": "bool",
          "name": "tokensWereClaimed",
          "type": "bool"
        },
        {
          "indexed": false,
          "internalType": "bool",
          "name": "preferClaimedTokens",
          "type": "bool"
        },
        {
          "indexed": false,
          "internalType": "address",
          "name": "caller",
          "type": "address"
        }
      ],
      "name": "Mint",
      "type": "event"
    },
    {
      "anonymous": false,
      "inputs": [
        {
          "indexed": true,
          "internalType": "uint256",
          "name": "projectId",
          "type": "uint256"
        },
        {
          "indexed": true,
          "internalType": "bool",
          "name": "flag",
          "type": "bool"
        },
        {
          "indexed": false,
          "internalType": "address",
          "name": "caller",
          "type": "address"
        }
      ],
      "name": "ShouldRequireClaim",
      "type": "event"
    },
    {
      "anonymous": false,
      "inputs": [
        {
          "indexed": true,
          "internalType": "address",
          "name": "holder",
          "type": "address"
        },
        {
          "indexed": true,
          "internalType": "uint256",
          "name": "projectId",
          "type": "uint256"
        },
        {
          "indexed": true,
          "internalType": "address",
          "name": "recipient",
          "type": "address"
        },
        {
          "indexed": false,
          "internalType": "uint256",
          "name": "amount",
          "type": "uint256"
        },
        {
          "indexed": false,
          "internalType": "address",
          "name": "caller",
          "type": "address"
        }
      ],
      "name": "Transfer",
      "type": "event"
    },
    {
      "inputs": [
        {
          "internalType": "address",
          "name": "_holder",
          "type": "address"
        },
        {
          "internalType": "uint256",
          "name": "_projectId",
          "type": "uint256"
        }
      ],
      "name": "balanceOf",
      "outputs": [
        {
          "internalType": "uint256",
          "name": "balance",
          "type": "uint256"
        }
      ],
      "stateMutability": "view",
      "type": "function"
    },
    {
      "inputs": [
        {
          "internalType": "address",
          "name": "_holder",
          "type": "address"
        },
        {
          "internalType": "uint256",
          "name": "_projectId",
          "type": "uint256"
        },
        {
          "internalType": "uint256",
          "name": "_amount",
          "type": "uint256"
        },
        {
          "internalType": "bool",
          "name": "_preferClaimedTokens",
          "type": "bool"
        }
      ],
      "name": "burnFrom",
      "outputs": [],
      "stateMutability": "nonpayable",
      "type": "function"
    },
    {
      "inputs": [
        {
          "internalType": "uint256",
          "name": "_projectId",
          "type": "uint256"
        },
        {
          "internalType": "contract IJBToken",
          "name": "_token",
          "type": "address"
        },
        {
          "internalType": "address",
          "name": "_newOwner",
          "type": "address"
        }
      ],
      "name": "changeTokenOf",
      "outputs": [],
      "stateMutability": "nonpayable",
      "type": "function"
    },
    {
      "inputs": [
        {
          "internalType": "address",
          "name": "_holder",
          "type": "address"
        },
        {
          "internalType": "uint256",
          "name": "_projectId",
          "type": "uint256"
        },
        {
          "internalType": "uint256",
          "name": "_amount",
          "type": "uint256"
        }
      ],
      "name": "claimFor",
      "outputs": [],
      "stateMutability": "nonpayable",
      "type": "function"
    },
    {
      "inputs": [],
      "name": "directory",
      "outputs": [
        {
          "internalType": "contract IJBDirectory",
          "name": "",
          "type": "address"
        }
      ],
      "stateMutability": "view",
      "type": "function"
    },
    {
      "inputs": [
        {
          "internalType": "uint256",
          "name": "_projectId",
          "type": "uint256"
        },
        {
          "internalType": "string",
          "name": "_name",
          "type": "string"
        },
        {
          "internalType": "string",
          "name": "_symbol",
          "type": "string"
        }
      ],
      "name": "issueFor",
      "outputs": [
        {
          "internalType": "contract IJBToken",
          "name": "token",
          "type": "address"
        }
      ],
      "stateMutability": "nonpayable",
      "type": "function"
    },
    {
      "inputs": [
        {
          "internalType": "address",
          "name": "_holder",
          "type": "address"
        },
        {
          "internalType": "uint256",
          "name": "_projectId",
          "type": "uint256"
        },
        {
          "internalType": "uint256",
          "name": "_amount",
          "type": "uint256"
        },
        {
          "internalType": "bool",
          "name": "_preferClaimedTokens",
          "type": "bool"
        }
      ],
      "name": "mintFor",
      "outputs": [],
      "stateMutability": "nonpayable",
      "type": "function"
    },
    {
      "inputs": [],
      "name": "operatorStore",
      "outputs": [
        {
          "internalType": "contract IJBOperatorStore",
          "name": "",
          "type": "address"
        }
      ],
      "stateMutability": "view",
      "type": "function"
    },
    {
      "inputs": [],
      "name": "projects",
      "outputs": [
        {
          "internalType": "contract IJBProjects",
          "name": "",
          "type": "address"
        }
      ],
      "stateMutability": "view",
      "type": "function"
    },
    {
      "inputs": [
        {
          "internalType": "uint256",
          "name": "",
          "type": "uint256"
        }
      ],
      "name": "requireClaimFor",
      "outputs": [
        {
          "internalType": "bool",
          "name": "",
          "type": "bool"
        }
      ],
      "stateMutability": "view",
      "type": "function"
    },
    {
      "inputs": [
        {
          "internalType": "uint256",
          "name": "_projectId",
          "type": "uint256"
        },
        {
          "internalType": "bool",
          "name": "_flag",
          "type": "bool"
        }
      ],
      "name": "shouldRequireClaimingFor",
      "outputs": [],
      "stateMutability": "nonpayable",
      "type": "function"
    },
    {
      "inputs": [
        {
          "internalType": "uint256",
          "name": "",
          "type": "uint256"
        }
      ],
      "name": "tokenOf",
      "outputs": [
        {
          "internalType": "contract IJBToken",
          "name": "",
          "type": "address"
        }
      ],
      "stateMutability": "view",
      "type": "function"
    },
    {
      "inputs": [
        {
          "internalType": "uint256",
          "name": "_projectId",
          "type": "uint256"
        }
      ],
      "name": "totalSupplyOf",
      "outputs": [
        {
          "internalType": "uint256",
          "name": "supply",
          "type": "uint256"
        }
      ],
      "stateMutability": "view",
      "type": "function"
    },
    {
      "inputs": [
        {
          "internalType": "address",
          "name": "_recipient",
          "type": "address"
        },
        {
          "internalType": "address",
          "name": "_holder",
          "type": "address"
        },
        {
          "internalType": "uint256",
          "name": "_projectId",
          "type": "uint256"
        },
        {
          "internalType": "uint256",
          "name": "_amount",
          "type": "uint256"
        }
      ],
      "name": "transferTo",
      "outputs": [],
      "stateMutability": "nonpayable",
      "type": "function"
    },
    {
      "inputs": [
        {
          "internalType": "address",
          "name": "",
          "type": "address"
        },
        {
          "internalType": "uint256",
          "name": "",
          "type": "uint256"
        }
      ],
      "name": "unclaimedBalanceOf",
      "outputs": [
        {
          "internalType": "uint256",
          "name": "",
          "type": "uint256"
        }
      ],
      "stateMutability": "view",
      "type": "function"
    },
    {
      "inputs": [
        {
          "internalType": "uint256",
          "name": "",
          "type": "uint256"
        }
      ],
      "name": "unclaimedTotalSupplyOf",
      "outputs": [
        {
          "internalType": "uint256",
          "name": "",
          "type": "uint256"
        }
      ],
      "stateMutability": "view",
      "type": "function"
    }
  ],
  "transactionHash": "0x77367342527de8257716f0d8b35ac14780143744472b02717b0977cf386856f9",
  "args": [
    "0x55d4dfb578daA4d60380995ffF7a706471d7c719",
    "0x2B0b6BD05a2F1f2a399F73528a99a495555C4c52",
    "0xF77Cc21F7Ffdb0700D6d01FCF32EBE654f1A389b"
  ],
  "solcInputHash": "3b4710394790e6b2fbe3ff5eb3b8549b",
  "bytecode": "0x60e06040523480156200001157600080fd5b50604051620048e6380380620048e683398101604081905262000034916200005a565b6001600160601b0319606091821b811660805292811b831660a0521b1660c052620000c7565b6000806000606084860312156200007057600080fd5b83516200007d81620000ae565b60208501519093506200009081620000ae565b6040850151909250620000a381620000ae565b809150509250925092565b6001600160a01b0381168114620000c457600080fd5b50565b60805160601c60a05160601c60c05160601c61478b6200015b6000396000818161021801528181610488015281816116d40152611fca0152600081816102ab015281816105970152818161067501528181610cb301528181610d91015281816117e3015281816118c1015281816120d901526121b70152600081816102d3015281816111f00152611c32015261478b6000f3fe60806040523480156200001157600080fd5b5060043610620001145760003560e01c80638ffe9b9411620000a3578063c41c2f24116200006e578063c41c2f2414620002cd578063ceddd3e414620002f5578063ea78803f146200030c578063ff0186c5146200034557600080fd5b80638ffe9b941462000260578063906ebd0f1462000277578063a7f2a70b146200028e578063ad007d6314620002a557600080fd5b80636607955d11620000e45780636607955d14620001ad57806375b0d9cd14620001c45780637b4d8e2c14620001db5780638b79543c146200021257600080fd5b8062fdd58e14620001195780631412884f1462000143578063229bb82414620001665780635287af37146200017f575b600080fd5b620001306200012a36600462002470565b6200035c565b6040519081526020015b60405180910390f35b620001306200015436600462002546565b60026020526000908152604090205481565b6200017d62000177366004620025ad565b62000459565b005b620001306200019036600462002470565b600160209081526000928352604080842090915290825290205481565b6200017d620001be3660046200249f565b620008bc565b62000130620001d536600462002546565b62000b68565b62000201620001ec36600462002546565b60036020526000908152604090205460ff1681565b60405190151581526020016200013a565b6200023a7f000000000000000000000000000000000000000000000000000000000000000081565b60405173ffffffffffffffffffffffffffffffffffffffff90911681526020016200013a565b6200017d6200027136600462002425565b62000c36565b6200017d62000288366004620024d7565b620011a8565b6200023a6200029f366004620025f4565b620016a2565b6200023a7f000000000000000000000000000000000000000000000000000000000000000081565b6200023a7f000000000000000000000000000000000000000000000000000000000000000081565b6200017d62000306366004620024d7565b62001bea565b6200023a6200031d36600462002546565b60006020819052908152604090205473ffffffffffffffffffffffffffffffffffffffff1681565b6200017d620003563660046200257a565b62001f9b565b73ffffffffffffffffffffffffffffffffffffffff80831660009081526001602090815260408083208584528252808320549183905290912054909116801562000452576040517f70a0823100000000000000000000000000000000000000000000000000000000815273ffffffffffffffffffffffffffffffffffffffff85811660048301528216906370a082319060240160206040518083038186803b1580156200040857600080fd5b505afa1580156200041d573d6000803e3d6000fd5b505050506040513d601f19601f8201168201806040525081019062000443919062002560565b6200044f908362002748565b91505b5092915050565b6040517f6352211e000000000000000000000000000000000000000000000000000000008152600481018490527f000000000000000000000000000000000000000000000000000000000000000073ffffffffffffffffffffffffffffffffffffffff1690636352211e9060240160206040518083038186803b158015620004e057600080fd5b505afa158015620004f5573d6000803e3d6000fd5b505050506040513d601f19601f820116820180604052508101906200051b9190620023fe565b83600c3373ffffffffffffffffffffffffffffffffffffffff841614806200061557506040517fc161c93f00000000000000000000000000000000000000000000000000000000815233600482015273ffffffffffffffffffffffffffffffffffffffff848116602483015260448201849052606482018390527f0000000000000000000000000000000000000000000000000000000000000000169063c161c93f9060840160206040518083038186803b158015620005da57600080fd5b505afa158015620005ef573d6000803e3d6000fd5b505050506040513d601f19601f8201168201806040525081019062000615919062002526565b80620006f357506040517fc161c93f00000000000000000000000000000000000000000000000000000000815233600482015273ffffffffffffffffffffffffffffffffffffffff848116602483015260006044830152606482018390527f0000000000000000000000000000000000000000000000000000000000000000169063c161c93f9060840160206040518083038186803b158015620006b857600080fd5b505afa158015620006cd573d6000803e3d6000fd5b505050506040513d601f19601f82011682018060405250810190620006f3919062002526565b6200075f576040517f08c379a000000000000000000000000000000000000000000000000000000000815260206004820152601860248201527f4f706572617461626c653a20554e415554484f52495a4544000000000000000060448201526064015b60405180910390fd5b6000868152602081905260409020805473ffffffffffffffffffffffffffffffffffffffff8781167fffffffffffffffffffffffff0000000000000000000000000000000000000000831617909255811690851615801590620007d7575073ffffffffffffffffffffffffffffffffffffffff811615155b1562000861576040517ff2fde38b00000000000000000000000000000000000000000000000000000000815273ffffffffffffffffffffffffffffffffffffffff868116600483015282169063f2fde38b90602401600060405180830381600087803b1580156200084757600080fd5b505af11580156200085c573d6000803e3d6000fd5b505050505b60405133815273ffffffffffffffffffffffffffffffffffffffff808716919088169089907f3e3654cb1ce83dacb003287a06d037b680031d8b82d43a751f2fc77b485e0f689060200160405180910390a450505050505050565b60008281526020819052604090205473ffffffffffffffffffffffffffffffffffffffff16806200094a576040517f08c379a000000000000000000000000000000000000000000000000000000000815260206004820152600f60248201527f307832343a204e4f545f464f554e440000000000000000000000000000000000604482015260640162000756565b73ffffffffffffffffffffffffffffffffffffffff8416600090815260016020908152604080832086845290915290205482811015620009e7576040517f08c379a000000000000000000000000000000000000000000000000000000000815260206004820152601860248201527f307832353a20494e53554646494349454e545f46554e44530000000000000000604482015260640162000756565b73ffffffffffffffffffffffffffffffffffffffff8516600090815260016020908152604080832087845290915290205462000a2590849062002763565b73ffffffffffffffffffffffffffffffffffffffff8616600090815260016020908152604080832088845282528083209390935560029052205462000a6c90849062002763565b6000858152600260205260409081902091909155517f156e29f600000000000000000000000000000000000000000000000000000000815273ffffffffffffffffffffffffffffffffffffffff8681166004830152602482018590526044820186905283169063156e29f690606401600060405180830381600087803b15801562000af657600080fd5b505af115801562000b0b573d6000803e3d6000fd5b50506040805186815233602082015287935073ffffffffffffffffffffffffffffffffffffffff891692507fb6fe5ce185a3773d47e919f57c7edfd102c91cb7833b2be405c4de89d9980fd7910160405180910390a35050505050565b600081815260026020908152604080832054918390529091205473ffffffffffffffffffffffffffffffffffffffff16801562000c30578073ffffffffffffffffffffffffffffffffffffffff166318160ddd6040518163ffffffff1660e01b815260040160206040518083038186803b15801562000be657600080fd5b505afa15801562000bfb573d6000803e3d6000fd5b505050506040513d601f19601f8201168201806040525081019062000c21919062002560565b62000c2d908362002748565b91505b50919050565b8282600f3373ffffffffffffffffffffffffffffffffffffffff8416148062000d3157506040517fc161c93f00000000000000000000000000000000000000000000000000000000815233600482015273ffffffffffffffffffffffffffffffffffffffff848116602483015260448201849052606482018390527f0000000000000000000000000000000000000000000000000000000000000000169063c161c93f9060840160206040518083038186803b15801562000cf657600080fd5b505afa15801562000d0b573d6000803e3d6000fd5b505050506040513d601f19601f8201168201806040525081019062000d31919062002526565b8062000e0f57506040517fc161c93f00000000000000000000000000000000000000000000000000000000815233600482015273ffffffffffffffffffffffffffffffffffffffff848116602483015260006044830152606482018390527f0000000000000000000000000000000000000000000000000000000000000000169063c161c93f9060840160206040518083038186803b15801562000dd457600080fd5b505afa15801562000de9573d6000803e3d6000fd5b505050506040513d601f19601f8201168201806040525081019062000e0f919062002526565b62000e77576040517f08c379a000000000000000000000000000000000000000000000000000000000815260206004820152601860248201527f4f706572617461626c653a20554e415554484f52495a45440000000000000000604482015260640162000756565b73ffffffffffffffffffffffffffffffffffffffff871662000ef6576040517f08c379a000000000000000000000000000000000000000000000000000000000815260206004820152601260248201527f307832363a205a45524f5f414444524553530000000000000000000000000000604482015260640162000756565b8673ffffffffffffffffffffffffffffffffffffffff168673ffffffffffffffffffffffffffffffffffffffff16141562000f8e576040517f08c379a000000000000000000000000000000000000000000000000000000000815260206004820152600e60248201527f307832373a204944454e54495459000000000000000000000000000000000000604482015260640162000756565b6000841162000ffa576040517f08c379a000000000000000000000000000000000000000000000000000000000815260206004820152600b60248201527f307832383a204e4f5f4f50000000000000000000000000000000000000000000604482015260640162000756565b73ffffffffffffffffffffffffffffffffffffffff861660009081526001602090815260408083208884529091529020548085111562001097576040517f08c379a000000000000000000000000000000000000000000000000000000000815260206004820152601860248201527f307832393a20494e53554646494349454e545f46554e44530000000000000000604482015260640162000756565b73ffffffffffffffffffffffffffffffffffffffff87166000908152600160209081526040808320898452909152902054620010d590869062002763565b73ffffffffffffffffffffffffffffffffffffffff80891660009081526001602081815260408084208c8552825280842095909555928c168252825282812089825290915220546200112990869062002748565b73ffffffffffffffffffffffffffffffffffffffff89811660008181526001602090815260408083208c84528252918290209490945580518981523394810194909452909289928b16917fae47e55abe3902569528abe4272b889079230a248aec0659a2939a90354982c6910160405180910390a45050505050505050565b6040517f5dd8f6aa000000000000000000000000000000000000000000000000000000008152600481018490528390339073ffffffffffffffffffffffffffffffffffffffff7f00000000000000000000000000000000000000000000000000000000000000001690635dd8f6aa9060240160206040518083038186803b1580156200123357600080fd5b505afa15801562001248573d6000803e3d6000fd5b505050506040513d601f19601f820116820180604052508101906200126e9190620023fe565b73ffffffffffffffffffffffffffffffffffffffff1614620012ed576040517f08c379a000000000000000000000000000000000000000000000000000000000815260206004820152601260248201527f307834663a20554e415554484f52495a45440000000000000000000000000000604482015260640162000756565b6000848152602081815260408083205473ffffffffffffffffffffffffffffffffffffffff898116855260018452828520898652909352908320549116918215620013db576040517f70a0823100000000000000000000000000000000000000000000000000000000815273ffffffffffffffffffffffffffffffffffffffff89811660048301528416906370a082319060240160206040518083038186803b1580156200139a57600080fd5b505afa158015620013af573d6000803e3d6000fd5b505050506040513d601f19601f82011682018060405250810190620013d5919062002560565b620013de565b60005b90508086108015620013ef57508186105b806200141257508086101580156200141257506200140e818762002763565b8210155b8062001435575081861015801562001435575062001431828762002763565b8110155b6200149d576040517f08c379a000000000000000000000000000000000000000000000000000000000815260206004820152601860248201527f307832333a20494e53554646494349454e545f46554e44530000000000000000604482015260640162000756565b600081620014ae57506000620014f0565b8515620014cf5786821015620014c55781620014c7565b865b9050620014f0565b86831015620014ea57620014e4838862002763565b620014ed565b60005b90505b6000620014fe828962002763565b9050811562001599576040517ff5298aca00000000000000000000000000000000000000000000000000000000815273ffffffffffffffffffffffffffffffffffffffff8b8116600483015260248201849052604482018b905286169063f5298aca90606401600060405180830381600087803b1580156200157f57600080fd5b505af115801562001594573d6000803e3d6000fd5b505050505b8015620016355773ffffffffffffffffffffffffffffffffffffffff8a1660009081526001602090815260408083208c8452909152902054620015de90829062002763565b73ffffffffffffffffffffffffffffffffffffffff8b1660009081526001602090815260408083208d84528252808320939093556002905220546200162590829062002763565b60008a8152600260205260409020555b60408051898152602081018690528815158183015233606082015290518a9173ffffffffffffffffffffffffffffffffffffffff8d16917fa006002ee8ea1e7bacf87ae6d874d4117de99e4aa814339c9a8199bcecd97fe39181900360800190a350505050505050505050565b6040517f6352211e000000000000000000000000000000000000000000000000000000008152600481018690526000907f000000000000000000000000000000000000000000000000000000000000000073ffffffffffffffffffffffffffffffffffffffff1690636352211e9060240160206040518083038186803b1580156200172c57600080fd5b505afa15801562001741573d6000803e3d6000fd5b505050506040513d601f19601f82011682018060405250810190620017679190620023fe565b86600b3373ffffffffffffffffffffffffffffffffffffffff841614806200186157506040517fc161c93f00000000000000000000000000000000000000000000000000000000815233600482015273ffffffffffffffffffffffffffffffffffffffff848116602483015260448201849052606482018390527f0000000000000000000000000000000000000000000000000000000000000000169063c161c93f9060840160206040518083038186803b1580156200182657600080fd5b505afa1580156200183b573d6000803e3d6000fd5b505050506040513d601f19601f8201168201806040525081019062001861919062002526565b806200193f57506040517fc161c93f00000000000000000000000000000000000000000000000000000000815233600482015273ffffffffffffffffffffffffffffffffffffffff848116602483015260006044830152606482018390527f0000000000000000000000000000000000000000000000000000000000000000169063c161c93f9060840160206040518083038186803b1580156200190457600080fd5b505afa15801562001919573d6000803e3d6000fd5b505050506040513d601f19601f820116820180604052508101906200193f919062002526565b620019a7576040517f08c379a000000000000000000000000000000000000000000000000000000000815260206004820152601860248201527f4f706572617461626c653a20554e415554484f52495a45440000000000000000604482015260640162000756565b8662001a10576040517f08c379a000000000000000000000000000000000000000000000000000000000815260206004820152601060248201527f307831663a20454d5054595f4e414d4500000000000000000000000000000000604482015260640162000756565b8462001a79576040517f08c379a000000000000000000000000000000000000000000000000000000000815260206004820152601260248201527f307832303a20454d5054595f53594d424f4c0000000000000000000000000000604482015260640162000756565b60008981526020819052604090205473ffffffffffffffffffffffffffffffffffffffff161562001b07576040517f08c379a000000000000000000000000000000000000000000000000000000000815260206004820152601460248201527f307832313a20414c52454144595f495353554544000000000000000000000000604482015260640162000756565b8787878760405162001b1990620023a4565b62001b289493929190620026be565b604051809103906000f08015801562001b45573d6000803e3d6000fd5b5060008a8152602081905260409081902080547fffffffffffffffffffffffff00000000000000000000000000000000000000001673ffffffffffffffffffffffffffffffffffffffff84169081179091559051919550908a907f1b1705bef26552c8f314c5eb80e9c84f02876c2f7f30a7f9ad5cafd17d5fa6da9062001bd6908c908c908c908c903390620026f4565b60405180910390a350505095945050505050565b6040517f5dd8f6aa000000000000000000000000000000000000000000000000000000008152600481018490528390339073ffffffffffffffffffffffffffffffffffffffff7f00000000000000000000000000000000000000000000000000000000000000001690635dd8f6aa9060240160206040518083038186803b15801562001c7557600080fd5b505afa15801562001c8a573d6000803e3d6000fd5b505050506040513d601f19601f8201168201806040525081019062001cb09190620023fe565b73ffffffffffffffffffffffffffffffffffffffff161462001d2f576040517f08c379a000000000000000000000000000000000000000000000000000000000815260206004820152601260248201527f307834663a20554e415554484f52495a45440000000000000000000000000000604482015260640162000756565b6000831162001d9b576040517f08c379a000000000000000000000000000000000000000000000000000000000815260206004820152600b60248201527f307832323a204e4f5f4f50000000000000000000000000000000000000000000604482015260640162000756565b60008481526020818152604080832054600390925282205473ffffffffffffffffffffffffffffffffffffffff909116919060ff168062001dd95750835b801562001dfb575073ffffffffffffffffffffffffffffffffffffffff821615155b9050801562001e9b576040517f156e29f600000000000000000000000000000000000000000000000000000000815273ffffffffffffffffffffffffffffffffffffffff8881166004830152602482018790526044820188905283169063156e29f690606401600060405180830381600087803b15801562001e7c57600080fd5b505af115801562001e91573d6000803e3d6000fd5b5050505062001f30565b73ffffffffffffffffffffffffffffffffffffffff8716600090815260016020908152604080832089845290915290205462001ed990869062002748565b73ffffffffffffffffffffffffffffffffffffffff881660009081526001602090815260408083208a845282528083209390935560029052205462001f2090869062002748565b6000878152600260205260409020555b604080518681528215156020820152851515818301523360608201529051879173ffffffffffffffffffffffffffffffffffffffff8a16917f5dd3ead325af435e56bc762b40de54c96de6071938d18a26414245807591d86f9181900360800190a350505050505050565b6040517f6352211e000000000000000000000000000000000000000000000000000000008152600481018390527f000000000000000000000000000000000000000000000000000000000000000073ffffffffffffffffffffffffffffffffffffffff1690636352211e9060240160206040518083038186803b1580156200202257600080fd5b505afa15801562002037573d6000803e3d6000fd5b505050506040513d601f19601f820116820180604052508101906200205d9190620023fe565b8260103373ffffffffffffffffffffffffffffffffffffffff841614806200215757506040517fc161c93f00000000000000000000000000000000000000000000000000000000815233600482015273ffffffffffffffffffffffffffffffffffffffff848116602483015260448201849052606482018390527f0000000000000000000000000000000000000000000000000000000000000000169063c161c93f9060840160206040518083038186803b1580156200211c57600080fd5b505afa15801562002131573d6000803e3d6000fd5b505050506040513d601f19601f8201168201806040525081019062002157919062002526565b806200223557506040517fc161c93f00000000000000000000000000000000000000000000000000000000815233600482015273ffffffffffffffffffffffffffffffffffffffff848116602483015260006044830152606482018390527f0000000000000000000000000000000000000000000000000000000000000000169063c161c93f9060840160206040518083038186803b158015620021fa57600080fd5b505afa1580156200220f573d6000803e3d6000fd5b505050506040513d601f19601f8201168201806040525081019062002235919062002526565b6200229d576040517f08c379a000000000000000000000000000000000000000000000000000000000815260206004820152601860248201527f4f706572617461626c653a20554e415554484f52495a45440000000000000000604482015260640162000756565b60008581526020819052604090205473ffffffffffffffffffffffffffffffffffffffff16806200232b576040517f08c379a000000000000000000000000000000000000000000000000000000000815260206004820152600f60248201527f307832613a204e4f545f464f554e440000000000000000000000000000000000604482015260640162000756565b60008681526003602090815260409182902080547fffffffffffffffffffffffffffffffffffffffffffffffffffffffffffffff0016881515908117909155915133815288917f91c234a3a3ebdc00c9bbd80f24661ca100d784b6d9f53923b3a693344719e08c910160405180910390a3505050505050565b611f7480620027e283390190565b60008083601f840112620023c557600080fd5b50813567ffffffffffffffff811115620023de57600080fd5b602083019150836020828501011115620023f757600080fd5b9250929050565b6000602082840312156200241157600080fd5b81516200241e81620027ac565b9392505050565b600080600080608085870312156200243c57600080fd5b84356200244981620027ac565b935060208501356200245b81620027ac565b93969395505050506040820135916060013590565b600080604083850312156200248457600080fd5b82356200249181620027ac565b946020939093013593505050565b600080600060608486031215620024b557600080fd5b8335620024c281620027ac565b95602085013595506040909401359392505050565b60008060008060808587031215620024ee57600080fd5b8435620024fb81620027ac565b9350602085013592506040850135915060608501356200251b81620027d2565b939692955090935050565b6000602082840312156200253957600080fd5b81516200241e81620027d2565b6000602082840312156200255957600080fd5b5035919050565b6000602082840312156200257357600080fd5b5051919050565b600080604083850312156200258e57600080fd5b823591506020830135620025a281620027d2565b809150509250929050565b600080600060608486031215620025c357600080fd5b833592506020840135620025d781620027ac565b91506040840135620025e981620027ac565b809150509250925092565b6000806000806000606086880312156200260d57600080fd5b85359450602086013567ffffffffffffffff808211156200262d57600080fd5b6200263b89838a01620023b2565b909650945060408801359150808211156200265557600080fd5b506200266488828901620023b2565b969995985093965092949392505050565b8183528181602085013750600060208284010152600060207fffffffffffffffffffffffffffffffffffffffffffffffffffffffffffffffe0601f840116840101905092915050565b604081526000620026d460408301868862002675565b8281036020840152620026e981858762002675565b979650505050505050565b6060815260006200270a60608301878962002675565b82810360208401526200271f81868862002675565b91505073ffffffffffffffffffffffffffffffffffffffff831660408301529695505050505050565b600082198211156200275e576200275e6200277d565b500190565b6000828210156200277857620027786200277d565b500390565b7f4e487b7100000000000000000000000000000000000000000000000000000000600052601160045260246000fd5b73ffffffffffffffffffffffffffffffffffffffff81168114620027cf57600080fd5b50565b8015158114620027cf57600080fdfe6101406040527f6e71edae12b1b97f4d1f60370fef10105fa2faae0126114a169c64845d6126c9610120523480156200003757600080fd5b5060405162001f7438038062001f748339810160408190526200005a91620002f6565b8180604051806040016040528060018152602001603160f81b815250848481600390805190602001906200009092919062000199565b508051620000a690600490602084019062000199565b5050825160209384012082519284019290922060c083815260e08290524660a0818152604080517f8b73c3c69bb8fe3d512ecc4cf759cc79239f7b179b0ffacaa9a75d522b39400f818a0181905281830198909852606081019590955260808086019390935230858301528051808603909201825293909201909252805194019390932090925261010052506200013f90503362000147565b5050620003b3565b600680546001600160a01b038381166001600160a01b0319831681179093556040519116919082907f8be0079c531659141344cd1fd0a4f28419497f9722a3daafe3b4186f6b6457e090600090a35050565b828054620001a79062000360565b90600052602060002090601f016020900481019282620001cb576000855562000216565b82601f10620001e657805160ff191683800117855562000216565b8280016001018555821562000216579182015b8281111562000216578251825591602001919060010190620001f9565b506200022492915062000228565b5090565b5b8082111562000224576000815560010162000229565b600082601f8301126200025157600080fd5b81516001600160401b03808211156200026e576200026e6200039d565b604051601f8301601f19908116603f011681019082821181831017156200029957620002996200039d565b81604052838152602092508683858801011115620002b657600080fd5b600091505b83821015620002da5785820183015181830184015290820190620002bb565b83821115620002ec5760008385830101525b9695505050505050565b600080604083850312156200030a57600080fd5b82516001600160401b03808211156200032257600080fd5b62000330868387016200023f565b935060208501519150808211156200034757600080fd5b5062000356858286016200023f565b9150509250929050565b600181811c908216806200037557607f821691505b602082108114156200039757634e487b7160e01b600052602260045260246000fd5b50919050565b634e487b7160e01b600052604160045260246000fd5b60805160a05160c05160e0516101005161012051611b716200040360003960006107b801526000610ffe0152600061104d0152600061102801526000610fac01526000610fd50152611b716000f3fe608060405234801561001057600080fd5b50600436106101515760003560e01c8063715018a6116100cd578063a9059cbb11610081578063dd62ed3e11610066578063dd62ed3e146102b5578063f2fde38b146102fb578063f5298aca1461030e57600080fd5b8063a9059cbb1461028f578063d505accf146102a257600080fd5b80638da5cb5b116100b25780638da5cb5b1461024c57806395d89b4114610274578063a457c2d71461027c57600080fd5b8063715018a6146102315780637ecebe001461023957600080fd5b806323b872dd116101245780633644e515116101095780633644e515146101e057806339509351146101e857806370a08231146101fb57600080fd5b806323b872dd146101be578063313ce567146101d157600080fd5b806306fdde0314610156578063095ea7b314610174578063156e29f61461019757806318160ddd146101ac575b600080fd5b61015e610321565b60405161016b91906119ed565b60405180910390f35b610187610182366004611990565b6103b3565b604051901515815260200161016b565b6101aa6101a53660046119ba565b6103c9565b005b6002545b60405190815260200161016b565b6101876101cc3660046118e1565b61045e565b6040516012815260200161016b565b6101b0610544565b6101876101f6366004611990565b610553565b6101b061020936600461188c565b73ffffffffffffffffffffffffffffffffffffffff1660009081526020819052604090205490565b6101aa61059c565b6101b061024736600461188c565b610629565b60065460405173ffffffffffffffffffffffffffffffffffffffff909116815260200161016b565b61015e610656565b61018761028a366004611990565b610665565b61018761029d366004611990565b61073d565b6101aa6102b036600461191d565b61074a565b6101b06102c33660046118ae565b73ffffffffffffffffffffffffffffffffffffffff918216600090815260016020908152604080832093909416825291909152205490565b6101aa61030936600461188c565b610909565b6101aa61031c3660046119ba565b610996565b60606003805461033090611a8f565b80601f016020809104026020016040519081016040528092919081815260200182805461035c90611a8f565b80156103a95780601f1061037e576101008083540402835291602001916103a9565b820191906000526020600020905b81548152906001019060200180831161038c57829003601f168201915b5050505050905090565b60006103c0338484610a21565b50600192915050565b60065473ffffffffffffffffffffffffffffffffffffffff16331461044f576040517f08c379a000000000000000000000000000000000000000000000000000000000815260206004820181905260248201527f4f776e61626c653a2063616c6c6572206973206e6f7420746865206f776e657260448201526064015b60405180910390fd5b6104598383610bd4565b505050565b600061046b848484610cf4565b73ffffffffffffffffffffffffffffffffffffffff841660009081526001602090815260408083203384529091529020548281101561052c576040517f08c379a000000000000000000000000000000000000000000000000000000000815260206004820152602860248201527f45524332303a207472616e7366657220616d6f756e742065786365656473206160448201527f6c6c6f77616e63650000000000000000000000000000000000000000000000006064820152608401610446565b6105398533858403610a21565b506001949350505050565b600061054e610fa8565b905090565b33600081815260016020908152604080832073ffffffffffffffffffffffffffffffffffffffff8716845290915281205490916103c0918590610597908690611a60565b610a21565b60065473ffffffffffffffffffffffffffffffffffffffff16331461061d576040517f08c379a000000000000000000000000000000000000000000000000000000000815260206004820181905260248201527f4f776e61626c653a2063616c6c6572206973206e6f7420746865206f776e65726044820152606401610446565b610627600061109b565b565b73ffffffffffffffffffffffffffffffffffffffff81166000908152600560205260408120545b92915050565b60606004805461033090611a8f565b33600090815260016020908152604080832073ffffffffffffffffffffffffffffffffffffffff8616845290915281205482811015610726576040517f08c379a000000000000000000000000000000000000000000000000000000000815260206004820152602560248201527f45524332303a2064656372656173656420616c6c6f77616e63652062656c6f7760448201527f207a65726f0000000000000000000000000000000000000000000000000000006064820152608401610446565b6107333385858403610a21565b5060019392505050565b60006103c0338484610cf4565b834211156107b4576040517f08c379a000000000000000000000000000000000000000000000000000000000815260206004820152601d60248201527f45524332305065726d69743a206578706972656420646561646c696e650000006044820152606401610446565b60007f00000000000000000000000000000000000000000000000000000000000000008888886107e38c611112565b60408051602081019690965273ffffffffffffffffffffffffffffffffffffffff94851690860152929091166060840152608083015260a082015260c0810186905260e001604051602081830303815290604052805190602001209050600061084b82611147565b9050600061085b828787876111b0565b90508973ffffffffffffffffffffffffffffffffffffffff168173ffffffffffffffffffffffffffffffffffffffff16146108f2576040517f08c379a000000000000000000000000000000000000000000000000000000000815260206004820152601e60248201527f45524332305065726d69743a20696e76616c6964207369676e617475726500006044820152606401610446565b6108fd8a8a8a610a21565b50505050505050505050565b60065473ffffffffffffffffffffffffffffffffffffffff16331461098a576040517f08c379a000000000000000000000000000000000000000000000000000000000815260206004820181905260248201527f4f776e61626c653a2063616c6c6572206973206e6f7420746865206f776e65726044820152606401610446565b610993816111d8565b50565b60065473ffffffffffffffffffffffffffffffffffffffff163314610a17576040517f08c379a000000000000000000000000000000000000000000000000000000000815260206004820181905260248201527f4f776e61626c653a2063616c6c6572206973206e6f7420746865206f776e65726044820152606401610446565b6104598383611305565b73ffffffffffffffffffffffffffffffffffffffff8316610ac3576040517f08c379a0000000000000000000000000000000000000000000000000000000008152602060048201526024808201527f45524332303a20617070726f76652066726f6d20746865207a65726f2061646460448201527f72657373000000000000000000000000000000000000000000000000000000006064820152608401610446565b73ffffffffffffffffffffffffffffffffffffffff8216610b66576040517f08c379a000000000000000000000000000000000000000000000000000000000815260206004820152602260248201527f45524332303a20617070726f766520746f20746865207a65726f20616464726560448201527f73730000000000000000000000000000000000000000000000000000000000006064820152608401610446565b73ffffffffffffffffffffffffffffffffffffffff83811660008181526001602090815260408083209487168084529482529182902085905590518481527f8c5be1e5ebec7d5bd14f71427d1e84f3dd0314c0f7b2291e5b200ac8c7c3b925910160405180910390a3505050565b73ffffffffffffffffffffffffffffffffffffffff8216610c51576040517f08c379a000000000000000000000000000000000000000000000000000000000815260206004820152601f60248201527f45524332303a206d696e7420746f20746865207a65726f2061646472657373006044820152606401610446565b8060026000828254610c639190611a60565b909155505073ffffffffffffffffffffffffffffffffffffffff821660009081526020819052604081208054839290610c9d908490611a60565b909155505060405181815273ffffffffffffffffffffffffffffffffffffffff8316906000907fddf252ad1be2c89b69c2b068fc378daa952ba7f163c4a11628f55a4df523b3ef9060200160405180910390a35050565b73ffffffffffffffffffffffffffffffffffffffff8316610d97576040517f08c379a000000000000000000000000000000000000000000000000000000000815260206004820152602560248201527f45524332303a207472616e736665722066726f6d20746865207a65726f20616460448201527f64726573730000000000000000000000000000000000000000000000000000006064820152608401610446565b73ffffffffffffffffffffffffffffffffffffffff8216610e3a576040517f08c379a000000000000000000000000000000000000000000000000000000000815260206004820152602360248201527f45524332303a207472616e7366657220746f20746865207a65726f206164647260448201527f65737300000000000000000000000000000000000000000000000000000000006064820152608401610446565b73ffffffffffffffffffffffffffffffffffffffff831660009081526020819052604090205481811015610ef0576040517f08c379a000000000000000000000000000000000000000000000000000000000815260206004820152602660248201527f45524332303a207472616e7366657220616d6f756e742065786365656473206260448201527f616c616e636500000000000000000000000000000000000000000000000000006064820152608401610446565b73ffffffffffffffffffffffffffffffffffffffff808516600090815260208190526040808220858503905591851681529081208054849290610f34908490611a60565b925050819055508273ffffffffffffffffffffffffffffffffffffffff168473ffffffffffffffffffffffffffffffffffffffff167fddf252ad1be2c89b69c2b068fc378daa952ba7f163c4a11628f55a4df523b3ef84604051610f9a91815260200190565b60405180910390a350505050565b60007f0000000000000000000000000000000000000000000000000000000000000000461415610ff757507f000000000000000000000000000000000000000000000000000000000000000090565b50604080517f00000000000000000000000000000000000000000000000000000000000000006020808301919091527f0000000000000000000000000000000000000000000000000000000000000000828401527f000000000000000000000000000000000000000000000000000000000000000060608301524660808301523060a0808401919091528351808403909101815260c0909201909252805191012090565b6006805473ffffffffffffffffffffffffffffffffffffffff8381167fffffffffffffffffffffffff0000000000000000000000000000000000000000831681179093556040519116919082907f8be0079c531659141344cd1fd0a4f28419497f9722a3daafe3b4186f6b6457e090600090a35050565b73ffffffffffffffffffffffffffffffffffffffff811660009081526005602052604090208054600181018255905b50919050565b6000610650611154610fa8565b836040517f19010000000000000000000000000000000000000000000000000000000000006020820152602281018390526042810182905260009060620160405160208183030381529060405280519060200120905092915050565b60008060006111c1878787876114f2565b915091506111ce8161160a565b5095945050505050565b60065473ffffffffffffffffffffffffffffffffffffffff163314611259576040517f08c379a000000000000000000000000000000000000000000000000000000000815260206004820181905260248201527f4f776e61626c653a2063616c6c6572206973206e6f7420746865206f776e65726044820152606401610446565b73ffffffffffffffffffffffffffffffffffffffff81166112fc576040517f08c379a000000000000000000000000000000000000000000000000000000000815260206004820152602660248201527f4f776e61626c653a206e6577206f776e657220697320746865207a65726f206160448201527f64647265737300000000000000000000000000000000000000000000000000006064820152608401610446565b6109938161109b565b73ffffffffffffffffffffffffffffffffffffffff82166113a8576040517f08c379a000000000000000000000000000000000000000000000000000000000815260206004820152602160248201527f45524332303a206275726e2066726f6d20746865207a65726f2061646472657360448201527f73000000000000000000000000000000000000000000000000000000000000006064820152608401610446565b73ffffffffffffffffffffffffffffffffffffffff82166000908152602081905260409020548181101561145e576040517f08c379a000000000000000000000000000000000000000000000000000000000815260206004820152602260248201527f45524332303a206275726e20616d6f756e7420657863656564732062616c616e60448201527f63650000000000000000000000000000000000000000000000000000000000006064820152608401610446565b73ffffffffffffffffffffffffffffffffffffffff8316600090815260208190526040812083830390556002805484929061149a908490611a78565b909155505060405182815260009073ffffffffffffffffffffffffffffffffffffffff8516907fddf252ad1be2c89b69c2b068fc378daa952ba7f163c4a11628f55a4df523b3ef9060200160405180910390a3505050565b6000807f7fffffffffffffffffffffffffffffff5d576e7357a4501ddfe92f46681b20a08311156115295750600090506003611601565b8460ff16601b1415801561154157508460ff16601c14155b156115525750600090506004611601565b6040805160008082526020820180845289905260ff881692820192909252606081018690526080810185905260019060a0016020604051602081039080840390855afa1580156115a6573d6000803e3d6000fd5b50506040517fffffffffffffffffffffffffffffffffffffffffffffffffffffffffffffffe0015191505073ffffffffffffffffffffffffffffffffffffffff81166115fa57600060019250925050611601565b9150600090505b94509492505050565b600081600481111561161e5761161e611b0c565b14156116275750565b600181600481111561163b5761163b611b0c565b14156116a3576040517f08c379a000000000000000000000000000000000000000000000000000000000815260206004820152601860248201527f45434453413a20696e76616c6964207369676e617475726500000000000000006044820152606401610446565b60028160048111156116b7576116b7611b0c565b141561171f576040517f08c379a000000000000000000000000000000000000000000000000000000000815260206004820152601f60248201527f45434453413a20696e76616c6964207369676e6174757265206c656e677468006044820152606401610446565b600381600481111561173357611733611b0c565b14156117c1576040517f08c379a000000000000000000000000000000000000000000000000000000000815260206004820152602260248201527f45434453413a20696e76616c6964207369676e6174757265202773272076616c60448201527f75650000000000000000000000000000000000000000000000000000000000006064820152608401610446565b60048160048111156117d5576117d5611b0c565b1415610993576040517f08c379a000000000000000000000000000000000000000000000000000000000815260206004820152602260248201527f45434453413a20696e76616c6964207369676e6174757265202776272076616c60448201527f75650000000000000000000000000000000000000000000000000000000000006064820152608401610446565b803573ffffffffffffffffffffffffffffffffffffffff8116811461188757600080fd5b919050565b60006020828403121561189e57600080fd5b6118a782611863565b9392505050565b600080604083850312156118c157600080fd5b6118ca83611863565b91506118d860208401611863565b90509250929050565b6000806000606084860312156118f657600080fd5b6118ff84611863565b925061190d60208501611863565b9150604084013590509250925092565b600080600080600080600060e0888a03121561193857600080fd5b61194188611863565b965061194f60208901611863565b95506040880135945060608801359350608088013560ff8116811461197357600080fd5b9699959850939692959460a0840135945060c09093013592915050565b600080604083850312156119a357600080fd5b6119ac83611863565b946020939093013593505050565b6000806000606084860312156119cf57600080fd5b6119d884611863565b95602085013595506040909401359392505050565b600060208083528351808285015260005b81811015611a1a578581018301518582016040015282016119fe565b81811115611a2c576000604083870101525b50601f017fffffffffffffffffffffffffffffffffffffffffffffffffffffffffffffffe016929092016040019392505050565b60008219821115611a7357611a73611add565b500190565b600082821015611a8a57611a8a611add565b500390565b600181811c90821680611aa357607f821691505b60208210811415611141577f4e487b7100000000000000000000000000000000000000000000000000000000600052602260045260246000fd5b7f4e487b7100000000000000000000000000000000000000000000000000000000600052601160045260246000fd5b7f4e487b7100000000000000000000000000000000000000000000000000000000600052602160045260246000fdfea26469706673582212202d9713ba8399d0467659b462e4c53b2b1f7fbb0d4a9a0c1ed43a90b48dd54c3764736f6c63430008060033a264697066735822122014b3708cade2a0eaf85e2d3dd6f5c383d342a44b1f13605b03dd675dbbb078ea64736f6c63430008060033",
  "devdoc": {
    "details": "Tokens can be either represented internally or claimed as ERC-20s. This contract manages these two representations and allows claiming.The total supply of a project's tokens and the balance of each account are calculated in this contract.Each project can bring their own token if they prefer, and swap between tokens at any time.",
    "kind": "dev",
    "methods": {
      "balanceOf(address,uint256)": {
        "params": {
          "_holder": "The token holder to get a balance for.",
          "_projectId": "The project to get the `_hodler`s balance of."
        },
        "returns": {
          "balance": "The balance."
        }
      },
      "burnFrom(address,uint256,uint256,bool)": {
        "details": "Only a project's current controller can burn its tokens.",
        "params": {
          "_amount": "The amount of tokens to burned.",
          "_holder": "The address that owns the tokens being burned.",
          "_preferClaimedTokens": "A flag indicating if there's a preference to burn tokens that have been converted to ERC-20s.",
          "_projectId": "The ID of the project to which the burned tokens belong"
        }
      },
      "changeTokenOf(uint256,address,address)": {
        "details": "Only a project owner or operator can change its token.",
        "params": {
          "_newOwner": "An address to transfer the current token's ownership to. This is optional, but it cannot be done later.",
          "_projectId": "The ID of the project to which the changed token belongs.",
          "_token": "The new token."
        }
      },
      "claimFor(address,uint256,uint256)": {
        "details": "Anyone can claim tokens on behalf of a token owner.",
        "params": {
          "_amount": "The amount of tokens to claim.",
          "_holder": "The owner of the tokens to claim.",
          "_projectId": "The ID of the project whose tokens are being claimed."
        }
      },
      "constructor": {
        "params": {
          "_directory": "A contract storing directories of terminals and controllers for each project.",
          "_operatorStore": "A contract storing operator assignments.",
          "_projects": "A contract which mints ERC-721's that represent project ownership and transfers."
        }
      },
      "issueFor(uint256,string,string)": {
        "details": " Deploys an owner's Token ERC-20 token contract.Only a project owner or operator can issue its token.",
        "params": {
          "_name": "The ERC-20's name.",
          "_projectId": "The ID of the project being issued tokens.",
          "_symbol": "The ERC-20's symbol."
        }
      },
      "mintFor(address,uint256,uint256,bool)": {
        "details": "Only a project's current controller can mint its tokens.",
        "params": {
          "_amount": "The amount of tokens to mint.",
          "_holder": "The address receiving the new tokens.",
          "_preferClaimedTokens": "A flag indicating whether there's a preference for ERC20's to be claimed automatically if they have been issued.",
          "_projectId": "The ID of the project to which the tokens belong."
        }
      },
      "shouldRequireClaimingFor(uint256,bool)": {
        "details": "Only a token holder or an operator can transfer its unclaimed tokens.",
        "params": {
          "_flag": "A flag indicating whether or not claiming should be required.",
          "_projectId": "The ID of the project being affected."
        }
      },
      "totalSupplyOf(uint256)": {
        "params": {
          "_projectId": "The ID of the project to get the total token supply of."
        },
        "returns": {
          "supply": "The total supply."
        }
      },
      "transferTo(address,address,uint256,uint256)": {
        "details": "Only a token holder or an operator can transfer its unclaimed tokens.",
        "params": {
          "_amount": "The amount of tokens to transfer.",
          "_holder": "The address to transfer tokens from.",
          "_projectId": "The ID of the project whose tokens are being transferred.",
          "_recipient": "The recipient of the tokens."
        }
      }
    },
    "version": 1
  },
  "userdoc": {
    "kind": "user",
    "methods": {
      "balanceOf(address,uint256)": {
        "notice": " The total balance of token a holder has for a specified project, including claimed and unclaimed tokens."
      },
      "burnFrom(address,uint256,uint256,bool)": {
        "notice": " Burns tokens."
      },
      "changeTokenOf(uint256,address,address)": {
        "notice": " Swap the current project's token that is minted and burned for another, and transfer ownership from the current to another address."
      },
      "claimFor(address,uint256,uint256)": {
        "notice": " Claims internal tokens by minting and distributing ERC20 tokens."
      },
      "directory()": {
        "notice": " The directory of terminals and controllers for projects."
      },
      "issueFor(uint256,string,string)": {
        "notice": " Issues an owner's ERC-20 Tokens that'll be used when claiming tokens."
      },
      "mintFor(address,uint256,uint256,bool)": {
        "notice": " Mint new tokens."
      },
      "operatorStore()": {
        "notice": " A contract storing operator assignments."
      },
      "projects()": {
        "notice": " The Projects contract which mints ERC-721's that represent project ownership and transfers."
      },
      "requireClaimFor(uint256)": {
        "notice": "A flag indicating if tokens are required to be issued as claimed for a particular project. _projectId The ID of the project to which the requirement applies."
      },
      "shouldRequireClaimingFor(uint256,bool)": {
        "notice": " Allows a project to force all future mints to be claimed into the holder's wallet, or revoke the flag if it's already set."
      },
      "tokenOf(uint256)": {
        "notice": "Each project's ERC20 Token tokens. _projectId The ID of the project to which the token belongs."
      },
      "totalSupplyOf(uint256)": {
        "notice": " The total supply of tokens for each project, including claimed and unclaimed tokens."
      },
      "transferTo(address,address,uint256,uint256)": {
        "notice": " Allows an unclaimed token holder to transfer them to another account, without claiming to ERC-20s."
      },
      "unclaimedBalanceOf(address,uint256)": {
        "notice": "Each holder's balance of unclaimed Tokens for each project. _holder The holder of balance. _projectId The ID of the project to which the token belongs."
      },
      "unclaimedTotalSupplyOf(uint256)": {
        "notice": "The total supply of unclaimed tokens for each project. _projectId The ID of the project to which the token belongs."
      }
    },
    "notice": " Manage Token minting, burning, and account balances.",
    "version": 1
  },
  "storageLayout": {
    "storage": [
      {
        "astId": 22902,
        "contract": "contracts/v2/JBTokenStore.sol:JBTokenStore",
        "label": "tokenOf",
        "offset": 0,
        "slot": "0",
        "type": "t_mapping(t_uint256,t_contract(IJBToken)25190)"
      },
      {
        "astId": 22910,
        "contract": "contracts/v2/JBTokenStore.sol:JBTokenStore",
        "label": "unclaimedBalanceOf",
        "offset": 0,
        "slot": "1",
        "type": "t_mapping(t_address,t_mapping(t_uint256,t_uint256))"
      },
      {
        "astId": 22916,
        "contract": "contracts/v2/JBTokenStore.sol:JBTokenStore",
        "label": "unclaimedTotalSupplyOf",
        "offset": 0,
        "slot": "2",
        "type": "t_mapping(t_uint256,t_uint256)"
      },
      {
        "astId": 22922,
        "contract": "contracts/v2/JBTokenStore.sol:JBTokenStore",
        "label": "requireClaimFor",
        "offset": 0,
        "slot": "3",
        "type": "t_mapping(t_uint256,t_bool)"
      }
    ],
    "types": {
      "t_address": {
        "encoding": "inplace",
        "label": "address",
        "numberOfBytes": "20"
      },
      "t_bool": {
        "encoding": "inplace",
        "label": "bool",
        "numberOfBytes": "1"
      },
      "t_contract(IJBToken)25190": {
        "encoding": "inplace",
        "label": "contract IJBToken",
        "numberOfBytes": "20"
      },
      "t_mapping(t_address,t_mapping(t_uint256,t_uint256))": {
        "encoding": "mapping",
        "key": "t_address",
        "label": "mapping(address => mapping(uint256 => uint256))",
        "numberOfBytes": "32",
        "value": "t_mapping(t_uint256,t_uint256)"
      },
      "t_mapping(t_uint256,t_bool)": {
        "encoding": "mapping",
        "key": "t_uint256",
        "label": "mapping(uint256 => bool)",
        "numberOfBytes": "32",
        "value": "t_bool"
      },
      "t_mapping(t_uint256,t_contract(IJBToken)25190)": {
        "encoding": "mapping",
        "key": "t_uint256",
        "label": "mapping(uint256 => contract IJBToken)",
        "numberOfBytes": "32",
        "value": "t_contract(IJBToken)25190"
      },
      "t_mapping(t_uint256,t_uint256)": {
        "encoding": "mapping",
        "key": "t_uint256",
        "label": "mapping(uint256 => uint256)",
        "numberOfBytes": "32",
        "value": "t_uint256"
      },
      "t_uint256": {
        "encoding": "inplace",
        "label": "uint256",
        "numberOfBytes": "32"
      }
    }
  }
}