{
  "address": "0x9f01c4D8545710B9d56aCbf4fC2c34F15aace57F",
  "abi": [
    {
      "inputs": [
        {
          "internalType": "contract IJBOperatorStore",
          "name": "_operatorStore",
          "type": "address"
        },
        {
          "internalType": "contract IJBProjects",
          "name": "_projects",
          "type": "address"
        },
        {
          "internalType": "contract IJBDirectory",
          "name": "_directory",
          "type": "address"
        }
      ],
      "stateMutability": "nonpayable",
      "type": "constructor"
    },
    {
      "inputs": [],
      "name": "CANT_REMOVE_TOKEN_IF_ITS_REQUIRED",
      "type": "error"
    },
    {
      "inputs": [],
      "name": "CONTROLLER_UNAUTHORIZED",
      "type": "error"
    },
    {
      "inputs": [],
      "name": "EMPTY_NAME",
      "type": "error"
    },
    {
      "inputs": [],
      "name": "EMPTY_SYMBOL",
      "type": "error"
    },
    {
      "inputs": [],
      "name": "INSUFFICIENT_FUNDS",
      "type": "error"
    },
    {
      "inputs": [],
      "name": "INSUFFICIENT_UNCLAIMED_TOKENS",
      "type": "error"
    },
    {
      "inputs": [],
      "name": "PROJECT_ALREADY_HAS_TOKEN",
      "type": "error"
    },
    {
      "inputs": [],
      "name": "RECIPIENT_ZERO_ADDRESS",
      "type": "error"
    },
    {
      "inputs": [],
      "name": "TOKENS_MUST_HAVE_18_DECIMALS",
      "type": "error"
    },
    {
      "inputs": [],
      "name": "TOKEN_NOT_FOUND",
      "type": "error"
    },
    {
      "inputs": [],
      "name": "UNAUTHORIZED",
      "type": "error"
    },
    {
      "anonymous": false,
      "inputs": [
        {
          "indexed": true,
          "internalType": "address",
          "name": "holder",
          "type": "address"
        },
        {
          "indexed": true,
          "internalType": "uint256",
          "name": "projectId",
          "type": "uint256"
        },
        {
          "indexed": false,
          "internalType": "uint256",
          "name": "amount",
          "type": "uint256"
        },
        {
          "indexed": false,
          "internalType": "uint256",
          "name": "initialUnclaimedBalance",
          "type": "uint256"
        },
        {
          "indexed": false,
          "internalType": "uint256",
          "name": "initialClaimedBalance",
          "type": "uint256"
        },
        {
          "indexed": false,
          "internalType": "bool",
          "name": "preferClaimedTokens",
          "type": "bool"
        },
        {
          "indexed": false,
          "internalType": "address",
          "name": "caller",
          "type": "address"
        }
      ],
      "name": "Burn",
      "type": "event"
    },
    {
      "anonymous": false,
      "inputs": [
        {
          "indexed": true,
          "internalType": "uint256",
          "name": "projectId",
          "type": "uint256"
        },
        {
          "indexed": true,
          "internalType": "contract IJBToken",
          "name": "newToken",
          "type": "address"
        },
        {
          "indexed": true,
          "internalType": "contract IJBToken",
          "name": "oldToken",
          "type": "address"
        },
        {
          "indexed": false,
          "internalType": "address",
          "name": "owner",
          "type": "address"
        },
        {
          "indexed": false,
          "internalType": "address",
          "name": "caller",
          "type": "address"
        }
      ],
      "name": "Change",
      "type": "event"
    },
    {
      "anonymous": false,
      "inputs": [
        {
          "indexed": true,
          "internalType": "address",
          "name": "holder",
          "type": "address"
        },
        {
          "indexed": true,
          "internalType": "uint256",
          "name": "projectId",
          "type": "uint256"
        },
        {
          "indexed": false,
          "internalType": "uint256",
          "name": "initialUnclaimedBalance",
          "type": "uint256"
        },
        {
          "indexed": false,
          "internalType": "uint256",
          "name": "amount",
          "type": "uint256"
        },
        {
          "indexed": false,
          "internalType": "address",
          "name": "caller",
          "type": "address"
        }
      ],
      "name": "Claim",
      "type": "event"
    },
    {
      "anonymous": false,
      "inputs": [
        {
          "indexed": true,
          "internalType": "uint256",
          "name": "projectId",
          "type": "uint256"
        },
        {
          "indexed": true,
          "internalType": "contract IJBToken",
          "name": "token",
          "type": "address"
        },
        {
          "indexed": false,
          "internalType": "string",
          "name": "name",
          "type": "string"
        },
        {
          "indexed": false,
          "internalType": "string",
          "name": "symbol",
          "type": "string"
        },
        {
          "indexed": false,
          "internalType": "address",
          "name": "caller",
          "type": "address"
        }
      ],
      "name": "Issue",
      "type": "event"
    },
    {
      "anonymous": false,
      "inputs": [
        {
          "indexed": true,
          "internalType": "address",
          "name": "holder",
          "type": "address"
        },
        {
          "indexed": true,
          "internalType": "uint256",
          "name": "projectId",
          "type": "uint256"
        },
        {
          "indexed": false,
          "internalType": "uint256",
          "name": "amount",
          "type": "uint256"
        },
        {
          "indexed": false,
          "internalType": "bool",
          "name": "tokensWereClaimed",
          "type": "bool"
        },
        {
          "indexed": false,
          "internalType": "bool",
          "name": "preferClaimedTokens",
          "type": "bool"
        },
        {
          "indexed": false,
          "internalType": "address",
          "name": "caller",
          "type": "address"
        }
      ],
      "name": "Mint",
      "type": "event"
    },
    {
      "anonymous": false,
      "inputs": [
        {
          "indexed": true,
          "internalType": "uint256",
          "name": "projectId",
          "type": "uint256"
        },
        {
          "indexed": true,
          "internalType": "bool",
          "name": "flag",
          "type": "bool"
        },
        {
          "indexed": false,
          "internalType": "address",
          "name": "caller",
          "type": "address"
        }
      ],
      "name": "ShouldRequireClaim",
      "type": "event"
    },
    {
      "anonymous": false,
      "inputs": [
        {
          "indexed": true,
          "internalType": "address",
          "name": "holder",
          "type": "address"
        },
        {
          "indexed": true,
          "internalType": "uint256",
          "name": "projectId",
          "type": "uint256"
        },
        {
          "indexed": true,
          "internalType": "address",
          "name": "recipient",
          "type": "address"
        },
        {
          "indexed": false,
          "internalType": "uint256",
          "name": "amount",
          "type": "uint256"
        },
        {
          "indexed": false,
          "internalType": "address",
          "name": "caller",
          "type": "address"
        }
      ],
      "name": "Transfer",
      "type": "event"
    },
    {
      "inputs": [
        {
          "internalType": "address",
          "name": "_holder",
          "type": "address"
        },
        {
          "internalType": "uint256",
          "name": "_projectId",
          "type": "uint256"
        }
      ],
      "name": "balanceOf",
      "outputs": [
        {
          "internalType": "uint256",
          "name": "balance",
          "type": "uint256"
        }
      ],
      "stateMutability": "view",
      "type": "function"
    },
    {
      "inputs": [
        {
          "internalType": "address",
          "name": "_holder",
          "type": "address"
        },
        {
          "internalType": "uint256",
          "name": "_projectId",
          "type": "uint256"
        },
        {
          "internalType": "uint256",
          "name": "_amount",
          "type": "uint256"
        },
        {
          "internalType": "bool",
          "name": "_preferClaimedTokens",
          "type": "bool"
        }
      ],
      "name": "burnFrom",
      "outputs": [],
      "stateMutability": "nonpayable",
      "type": "function"
    },
    {
      "inputs": [
        {
          "internalType": "uint256",
          "name": "_projectId",
          "type": "uint256"
        },
        {
          "internalType": "contract IJBToken",
          "name": "_token",
          "type": "address"
        },
        {
          "internalType": "address",
          "name": "_newOwner",
          "type": "address"
        }
      ],
      "name": "changeFor",
      "outputs": [
        {
          "internalType": "contract IJBToken",
          "name": "oldToken",
          "type": "address"
        }
      ],
      "stateMutability": "nonpayable",
      "type": "function"
    },
    {
      "inputs": [
        {
          "internalType": "address",
          "name": "_holder",
          "type": "address"
        },
        {
          "internalType": "uint256",
          "name": "_projectId",
          "type": "uint256"
        },
        {
          "internalType": "uint256",
          "name": "_amount",
          "type": "uint256"
        }
      ],
      "name": "claimFor",
      "outputs": [],
      "stateMutability": "nonpayable",
      "type": "function"
    },
    {
      "inputs": [],
      "name": "directory",
      "outputs": [
        {
          "internalType": "contract IJBDirectory",
          "name": "",
          "type": "address"
        }
      ],
      "stateMutability": "view",
      "type": "function"
    },
    {
      "inputs": [
        {
          "internalType": "uint256",
          "name": "_projectId",
          "type": "uint256"
        },
        {
          "internalType": "string",
          "name": "_name",
          "type": "string"
        },
        {
          "internalType": "string",
          "name": "_symbol",
          "type": "string"
        }
      ],
      "name": "issueFor",
      "outputs": [
        {
          "internalType": "contract IJBToken",
          "name": "token",
          "type": "address"
        }
      ],
      "stateMutability": "nonpayable",
      "type": "function"
    },
    {
      "inputs": [
        {
          "internalType": "address",
          "name": "_holder",
          "type": "address"
        },
        {
          "internalType": "uint256",
          "name": "_projectId",
          "type": "uint256"
        },
        {
          "internalType": "uint256",
          "name": "_amount",
          "type": "uint256"
        },
        {
          "internalType": "bool",
          "name": "_preferClaimedTokens",
          "type": "bool"
        }
      ],
      "name": "mintFor",
      "outputs": [],
      "stateMutability": "nonpayable",
      "type": "function"
    },
    {
      "inputs": [],
      "name": "operatorStore",
      "outputs": [
        {
          "internalType": "contract IJBOperatorStore",
          "name": "",
          "type": "address"
        }
      ],
      "stateMutability": "view",
      "type": "function"
    },
    {
      "inputs": [],
      "name": "projects",
      "outputs": [
        {
          "internalType": "contract IJBProjects",
          "name": "",
          "type": "address"
        }
      ],
      "stateMutability": "view",
      "type": "function"
    },
    {
      "inputs": [
        {
          "internalType": "uint256",
          "name": "",
          "type": "uint256"
        }
      ],
      "name": "requireClaimFor",
      "outputs": [
        {
          "internalType": "bool",
          "name": "",
          "type": "bool"
        }
      ],
      "stateMutability": "view",
      "type": "function"
    },
    {
      "inputs": [
        {
          "internalType": "uint256",
          "name": "_projectId",
          "type": "uint256"
        },
        {
          "internalType": "bool",
          "name": "_flag",
          "type": "bool"
        }
      ],
      "name": "shouldRequireClaimingFor",
      "outputs": [],
      "stateMutability": "nonpayable",
      "type": "function"
    },
    {
      "inputs": [
        {
          "internalType": "uint256",
          "name": "",
          "type": "uint256"
        }
      ],
      "name": "tokenOf",
      "outputs": [
        {
          "internalType": "contract IJBToken",
          "name": "",
          "type": "address"
        }
      ],
      "stateMutability": "view",
      "type": "function"
    },
    {
      "inputs": [
        {
          "internalType": "uint256",
          "name": "_projectId",
          "type": "uint256"
        }
      ],
      "name": "totalSupplyOf",
      "outputs": [
        {
          "internalType": "uint256",
          "name": "totalSupply",
          "type": "uint256"
        }
      ],
      "stateMutability": "view",
      "type": "function"
    },
    {
      "inputs": [
        {
          "internalType": "address",
          "name": "_holder",
          "type": "address"
        },
        {
          "internalType": "uint256",
          "name": "_projectId",
          "type": "uint256"
        },
        {
          "internalType": "address",
          "name": "_recipient",
          "type": "address"
        },
        {
          "internalType": "uint256",
          "name": "_amount",
          "type": "uint256"
        }
      ],
      "name": "transferFrom",
      "outputs": [],
      "stateMutability": "nonpayable",
      "type": "function"
    },
    {
      "inputs": [
        {
          "internalType": "address",
          "name": "",
          "type": "address"
        },
        {
          "internalType": "uint256",
          "name": "",
          "type": "uint256"
        }
      ],
      "name": "unclaimedBalanceOf",
      "outputs": [
        {
          "internalType": "uint256",
          "name": "",
          "type": "uint256"
        }
      ],
      "stateMutability": "view",
      "type": "function"
    },
    {
      "inputs": [
        {
          "internalType": "uint256",
          "name": "",
          "type": "uint256"
        }
      ],
      "name": "unclaimedTotalSupplyOf",
      "outputs": [
        {
          "internalType": "uint256",
          "name": "",
          "type": "uint256"
        }
      ],
      "stateMutability": "view",
      "type": "function"
    }
  ],
  "transactionHash": "0x94f7dab679f89e073d7a09220549156090c3fd83f1deb9ece0d05080d771b3ab",
  "args": [
    "0x9365873516121B8b527fE60Cef798a07Aa1eF63B",
    "0x00e7C7e86ec4b62E1339d6168Fb2213D26717cb3",
    "0x3D5E04a9016Fc13C86400cbb27561152C6aF774c"
  ],
  "numDeployments": 1,
  "solcInputHash": "b9f0ce443e8cbb4775420bd5109f455a",
  "bytecode": "0x60e06040523480156200001157600080fd5b5060405162003d3438038062003d3483398101604081905262000034916200005a565b6001600160601b0319606091821b811660805292811b831660a0521b1660c052620000c7565b6000806000606084860312156200007057600080fd5b83516200007d81620000ae565b60208501519093506200009081620000ae565b6040850151909250620000a381620000ae565b809150509250925092565b6001600160a01b0381168114620000c457600080fd5b50565b60805160601c60a05160601c60c05160601c613be76200014d6000396000818161023e0152611be80152600081816102ab0152818161088201528181610963015281816115410152818161162201528181611cf90152611dda0152600081816102d3015281816104a901528181610da50152818161124801526118ed0152613be76000f3fe60806040523480156200001157600080fd5b5060043610620001145760003560e01c8063906ebd0f11620000a3578063c41c2f24116200006e578063c41c2f2414620002cd578063ceddd3e414620002f5578063ea78803f146200030c578063ff0186c5146200034557600080fd5b8063906ebd0f1462000260578063a7f2a70b1462000277578063ac689bcd146200028e578063ad007d6314620002a557600080fd5b80636607955d11620000e45780636607955d14620001d157806375b0d9cd14620001ea5780637b4d8e2c14620002015780638b79543c146200023857600080fd5b8062fdd58e14620001195780631412884f14620001435780635287af37146200016657806357e4c7781462000194575b600080fd5b620001306200012a36600462001fe9565b6200035c565b6040519081526020015b60405180910390f35b62000130620001543660046200210c565b60016020526000908152604090205481565b620001306200017736600462001fe9565b600260209081526000928352604080842090915290825290205481565b620001ab620001a536600462002173565b6200045e565b60405173ffffffffffffffffffffffffffffffffffffffff90911681526020016200013a565b620001e8620001e236600462002065565b62000803565b005b62000130620001fb3660046200210c565b62000c6f565b62000227620002123660046200210c565b60036020526000908152604090205460ff1681565b60405190151581526020016200013a565b620001ab7f000000000000000000000000000000000000000000000000000000000000000081565b620001e8620002713660046200209d565b62000d5d565b620001ab62000288366004620021ba565b620011fd565b620001e86200029f36600462002018565b620014c2565b620001ab7f000000000000000000000000000000000000000000000000000000000000000081565b620001ab7f000000000000000000000000000000000000000000000000000000000000000081565b620001e8620003063660046200209d565b620018a5565b620001ab6200031d3660046200210c565b60006020819052908152604090205473ffffffffffffffffffffffffffffffffffffffff1681565b620001e86200035636600462002140565b62001bb9565b73ffffffffffffffffffffffffffffffffffffffff80831660009081526002602090815260408083208584528252808320549183905290912054909116801562000457576040517efdd58e00000000000000000000000000000000000000000000000000000000815273ffffffffffffffffffffffffffffffffffffffff85811660048301526024820185905282169062fdd58e9060440160206040518083038186803b1580156200040d57600080fd5b505afa15801562000422573d6000803e3d6000fd5b505050506040513d601f19601f8201168201806040525081019062000448919062002126565b62000454908362002333565b91505b5092915050565b6040517f5dd8f6aa000000000000000000000000000000000000000000000000000000008152600481018490526000908490339073ffffffffffffffffffffffffffffffffffffffff7f00000000000000000000000000000000000000000000000000000000000000001690635dd8f6aa9060240160206040518083038186803b158015620004ec57600080fd5b505afa15801562000501573d6000803e3d6000fd5b505050506040513d601f19601f8201168201806040525081019062000527919062001fc2565b73ffffffffffffffffffffffffffffffffffffffff161462000575576040517fab7f741400000000000000000000000000000000000000000000000000000000815260040160405180910390fd5b73ffffffffffffffffffffffffffffffffffffffff8416158015620005a8575060008581526003602052604090205460ff165b15620005e0576040517fd4ae123800000000000000000000000000000000000000000000000000000000815260040160405180910390fd5b8373ffffffffffffffffffffffffffffffffffffffff1663313ce5676040518163ffffffff1660e01b815260040160206040518083038186803b1580156200062757600080fd5b505afa1580156200063c573d6000803e3d6000fd5b505050506040513d601f19601f820116820180604052508101906200066291906200223b565b60ff166012146200069f576040517fadc38c9400000000000000000000000000000000000000000000000000000000815260040160405180910390fd5b6000858152602081905260409020805473ffffffffffffffffffffffffffffffffffffffff8681167fffffffffffffffffffffffff00000000000000000000000000000000000000008316179092558116925083161580159062000718575073ffffffffffffffffffffffffffffffffffffffff821615155b15620007a2576040517ff2fde38b00000000000000000000000000000000000000000000000000000000815273ffffffffffffffffffffffffffffffffffffffff848116600483015283169063f2fde38b90602401600060405180830381600087803b1580156200078857600080fd5b505af11580156200079d573d6000803e3d6000fd5b505050505b6040805173ffffffffffffffffffffffffffffffffffffffff8581168252336020830152808516929087169188917f53b937570201bb723ab1530f41c21f62fba8df64afef862cb0a6f4eccc3094dc910160405180910390a4509392505050565b8282600b3373ffffffffffffffffffffffffffffffffffffffff8416148015906200090257506040517fc161c93f00000000000000000000000000000000000000000000000000000000815233600482015273ffffffffffffffffffffffffffffffffffffffff848116602483015260448201849052606482018390527f0000000000000000000000000000000000000000000000000000000000000000169063c161c93f9060840160206040518083038186803b158015620008c557600080fd5b505afa158015620008da573d6000803e3d6000fd5b505050506040513d601f19601f82011682018060405250810190620009009190620020ec565b155b8015620009e357506040517fc161c93f00000000000000000000000000000000000000000000000000000000815233600482015273ffffffffffffffffffffffffffffffffffffffff848116602483015260006044830152606482018390527f0000000000000000000000000000000000000000000000000000000000000000169063c161c93f9060840160206040518083038186803b158015620009a657600080fd5b505afa158015620009bb573d6000803e3d6000fd5b505050506040513d601f19601f82011682018060405250810190620009e19190620020ec565b155b1562000a1b576040517f075fd2b100000000000000000000000000000000000000000000000000000000815260040160405180910390fd5b60008581526020819052604090205473ffffffffffffffffffffffffffffffffffffffff168062000a78576040517f73c463ce00000000000000000000000000000000000000000000000000000000815260040160405180910390fd5b73ffffffffffffffffffffffffffffffffffffffff871660009081526002602090815260408083208984529091529020548581101562000ae4576040517f83fc8b2d00000000000000000000000000000000000000000000000000000000815260040160405180910390fd5b73ffffffffffffffffffffffffffffffffffffffff881660009081526002602090815260408083208a845290915290205462000b229087906200234e565b73ffffffffffffffffffffffffffffffffffffffff891660009081526002602090815260408083208b845282528083209390935560019052205462000b699087906200234e565b6000888152600160205260409081902091909155517f836a10400000000000000000000000000000000000000000000000000000000081526004810188905273ffffffffffffffffffffffffffffffffffffffff89811660248301526044820188905283169063836a104090606401600060405180830381600087803b15801562000bf357600080fd5b505af115801562000c08573d6000803e3d6000fd5b505060408051848152602081018a9052338183015290518a935073ffffffffffffffffffffffffffffffffffffffff8c1692507fe718784128df3c3d45fbd6519133fee450494f7cdb2b53830a5087cd47f980829181900360600190a35050505050505050565b600081815260016020908152604080832054918390529091205473ffffffffffffffffffffffffffffffffffffffff16801562000d57576040517fbd85b0390000000000000000000000000000000000000000000000000000000081526004810184905273ffffffffffffffffffffffffffffffffffffffff82169063bd85b0399060240160206040518083038186803b15801562000d0d57600080fd5b505afa15801562000d22573d6000803e3d6000fd5b505050506040513d601f19601f8201168201806040525081019062000d48919062002126565b62000d54908362002333565b91505b50919050565b6040517f5dd8f6aa000000000000000000000000000000000000000000000000000000008152600481018490528390339073ffffffffffffffffffffffffffffffffffffffff7f00000000000000000000000000000000000000000000000000000000000000001690635dd8f6aa9060240160206040518083038186803b15801562000de857600080fd5b505afa15801562000dfd573d6000803e3d6000fd5b505050506040513d601f19601f8201168201806040525081019062000e23919062001fc2565b73ffffffffffffffffffffffffffffffffffffffff161462000e71576040517fab7f741400000000000000000000000000000000000000000000000000000000815260040160405180910390fd5b6000848152602081815260408083205473ffffffffffffffffffffffffffffffffffffffff89811685526002845282852089865290935290832054911691821562000f64576040517efdd58e00000000000000000000000000000000000000000000000000000000815273ffffffffffffffffffffffffffffffffffffffff89811660048301526024820189905284169062fdd58e9060440160206040518083038186803b15801562000f2357600080fd5b505afa15801562000f38573d6000803e3d6000fd5b505050506040513d601f19601f8201168201806040525081019062000f5e919062002126565b62000f67565b60005b9050808610158062000f795750818610155b801562000f9a57508086108062000f9a575062000f9781876200234e565b82105b801562000fbb57508186108062000fbb575062000fb882876200234e565b81105b1562000ff3576040517fe793143800000000000000000000000000000000000000000000000000000000815260040160405180910390fd5b600081620010045750600062001043565b851562001024578682106200101a57866200101c565b815b905062001043565b8683106200103457600062001040565b6200104083886200234e565b90505b60006200105182896200234e565b90508015620010ef5773ffffffffffffffffffffffffffffffffffffffff8a1660009081526002602090815260408083208c8452909152902054620010989082906200234e565b73ffffffffffffffffffffffffffffffffffffffff8b1660009081526002602090815260408083208d8452825280832093909355600190522054620010df9082906200234e565b60008a8152600160205260409020555b811562001188576040517f9eea5f66000000000000000000000000000000000000000000000000000000008152600481018a905273ffffffffffffffffffffffffffffffffffffffff8b8116602483015260448201849052861690639eea5f6690606401600060405180830381600087803b1580156200116e57600080fd5b505af115801562001183573d6000803e3d6000fd5b505050505b60408051898152602081018690529081018490528715156060820152336080820152899073ffffffffffffffffffffffffffffffffffffffff8c16907fbe100da6adaa492f7ba1b0de916ae2606126ec7b044d7aa8ec74971a607ceecd9060a00160405180910390a350505050505050505050565b6040517f5dd8f6aa000000000000000000000000000000000000000000000000000000008152600481018690526000908690339073ffffffffffffffffffffffffffffffffffffffff7f00000000000000000000000000000000000000000000000000000000000000001690635dd8f6aa9060240160206040518083038186803b1580156200128b57600080fd5b505afa158015620012a0573d6000803e3d6000fd5b505050506040513d601f19601f82011682018060405250810190620012c6919062001fc2565b73ffffffffffffffffffffffffffffffffffffffff161462001314576040517fab7f741400000000000000000000000000000000000000000000000000000000815260040160405180910390fd5b846200134c576040517f92bf449d00000000000000000000000000000000000000000000000000000000815260040160405180910390fd5b8262001384576040517f571431a700000000000000000000000000000000000000000000000000000000815260040160405180910390fd5b60008781526020819052604090205473ffffffffffffffffffffffffffffffffffffffff1615620013e1576040517fa54630ac00000000000000000000000000000000000000000000000000000000815260040160405180910390fd5b85858585604051620013f39062001f68565b620014029493929190620022a9565b604051809103906000f0801580156200141f573d6000803e3d6000fd5b506000888152602081905260409081902080547fffffffffffffffffffffffff00000000000000000000000000000000000000001673ffffffffffffffffffffffffffffffffffffffff841690811790915590519193509088907f1b1705bef26552c8f314c5eb80e9c84f02876c2f7f30a7f9ad5cafd17d5fa6da90620014b0908a908a908a908a903390620022df565b60405180910390a35095945050505050565b8383600c3373ffffffffffffffffffffffffffffffffffffffff841614801590620015c157506040517fc161c93f00000000000000000000000000000000000000000000000000000000815233600482015273ffffffffffffffffffffffffffffffffffffffff848116602483015260448201849052606482018390527f0000000000000000000000000000000000000000000000000000000000000000169063c161c93f9060840160206040518083038186803b1580156200158457600080fd5b505afa15801562001599573d6000803e3d6000fd5b505050506040513d601f19601f82011682018060405250810190620015bf9190620020ec565b155b8015620016a257506040517fc161c93f00000000000000000000000000000000000000000000000000000000815233600482015273ffffffffffffffffffffffffffffffffffffffff848116602483015260006044830152606482018390527f0000000000000000000000000000000000000000000000000000000000000000169063c161c93f9060840160206040518083038186803b1580156200166557600080fd5b505afa1580156200167a573d6000803e3d6000fd5b505050506040513d601f19601f82011682018060405250810190620016a09190620020ec565b155b15620016da576040517f075fd2b100000000000000000000000000000000000000000000000000000000815260040160405180910390fd5b73ffffffffffffffffffffffffffffffffffffffff851662001728576040517fc6587bab00000000000000000000000000000000000000000000000000000000815260040160405180910390fd5b73ffffffffffffffffffffffffffffffffffffffff871660009081526002602090815260408083208984529091529020548085111562001794576040517f83fc8b2d00000000000000000000000000000000000000000000000000000000815260040160405180910390fd5b73ffffffffffffffffffffffffffffffffffffffff881660009081526002602090815260408083208a8452909152902054620017d29086906200234e565b73ffffffffffffffffffffffffffffffffffffffff808a1660009081526002602081815260408084208d8552825280842095909555928a16825282528281208a825290915220546200182690869062002333565b73ffffffffffffffffffffffffffffffffffffffff87811660008181526002602090815260408083208d8452825291829020949094558051898152339481019490945290928a928c16917fae47e55abe3902569528abe4272b889079230a248aec0659a2939a90354982c6910160405180910390a45050505050505050565b6040517f5dd8f6aa000000000000000000000000000000000000000000000000000000008152600481018490528390339073ffffffffffffffffffffffffffffffffffffffff7f00000000000000000000000000000000000000000000000000000000000000001690635dd8f6aa9060240160206040518083038186803b1580156200193057600080fd5b505afa15801562001945573d6000803e3d6000fd5b505050506040513d601f19601f820116820180604052508101906200196b919062001fc2565b73ffffffffffffffffffffffffffffffffffffffff1614620019b9576040517fab7f741400000000000000000000000000000000000000000000000000000000815260040160405180910390fd5b60008481526020818152604080832054600390925282205473ffffffffffffffffffffffffffffffffffffffff909116919060ff1680620019f75750835b801562001a19575073ffffffffffffffffffffffffffffffffffffffff821615155b9050801562001ab9576040517f836a10400000000000000000000000000000000000000000000000000000000081526004810187905273ffffffffffffffffffffffffffffffffffffffff88811660248301526044820187905283169063836a104090606401600060405180830381600087803b15801562001a9a57600080fd5b505af115801562001aaf573d6000803e3d6000fd5b5050505062001b4e565b73ffffffffffffffffffffffffffffffffffffffff8716600090815260026020908152604080832089845290915290205462001af790869062002333565b73ffffffffffffffffffffffffffffffffffffffff881660009081526002602090815260408083208a845282528083209390935560019052205462001b3e90869062002333565b6000878152600160205260409020555b604080518681528215156020820152851515818301523360608201529051879173ffffffffffffffffffffffffffffffffffffffff8a16917f5dd3ead325af435e56bc762b40de54c96de6071938d18a26414245807591d86f9181900360800190a350505050505050565b6040517f6352211e000000000000000000000000000000000000000000000000000000008152600481018390527f000000000000000000000000000000000000000000000000000000000000000073ffffffffffffffffffffffffffffffffffffffff1690636352211e9060240160206040518083038186803b15801562001c4057600080fd5b505afa15801562001c55573d6000803e3d6000fd5b505050506040513d601f19601f8201168201806040525081019062001c7b919062001fc2565b82600d3373ffffffffffffffffffffffffffffffffffffffff84161480159062001d7957506040517fc161c93f00000000000000000000000000000000000000000000000000000000815233600482015273ffffffffffffffffffffffffffffffffffffffff848116602483015260448201849052606482018390527f0000000000000000000000000000000000000000000000000000000000000000169063c161c93f9060840160206040518083038186803b15801562001d3c57600080fd5b505afa15801562001d51573d6000803e3d6000fd5b505050506040513d601f19601f8201168201806040525081019062001d779190620020ec565b155b801562001e5a57506040517fc161c93f00000000000000000000000000000000000000000000000000000000815233600482015273ffffffffffffffffffffffffffffffffffffffff848116602483015260006044830152606482018390527f0000000000000000000000000000000000000000000000000000000000000000169063c161c93f9060840160206040518083038186803b15801562001e1d57600080fd5b505afa15801562001e32573d6000803e3d6000fd5b505050506040513d601f19601f8201168201806040525081019062001e589190620020ec565b155b1562001e92576040517f075fd2b100000000000000000000000000000000000000000000000000000000815260040160405180910390fd5b60008581526020819052604090205473ffffffffffffffffffffffffffffffffffffffff168062001eef576040517f73c463ce00000000000000000000000000000000000000000000000000000000815260040160405180910390fd5b60008681526003602090815260409182902080547fffffffffffffffffffffffffffffffffffffffffffffffffffffffffffffff0016881515908117909155915133815288917f91c234a3a3ebdc00c9bbd80f24661ca100d784b6d9f53923b3a693344719e08c910160405180910390a3505050505050565b6117e580620023cd83390190565b60008083601f84011262001f8957600080fd5b50813567ffffffffffffffff81111562001fa257600080fd5b60208301915083602082850101111562001fbb57600080fd5b9250929050565b60006020828403121562001fd557600080fd5b815162001fe28162002397565b9392505050565b6000806040838503121562001ffd57600080fd5b82356200200a8162002397565b946020939093013593505050565b600080600080608085870312156200202f57600080fd5b84356200203c8162002397565b9350602085013592506040850135620020558162002397565b9396929550929360600135925050565b6000806000606084860312156200207b57600080fd5b8335620020888162002397565b95602085013595506040909401359392505050565b60008060008060808587031215620020b457600080fd5b8435620020c18162002397565b935060208501359250604085013591506060850135620020e181620023bd565b939692955090935050565b600060208284031215620020ff57600080fd5b815162001fe281620023bd565b6000602082840312156200211f57600080fd5b5035919050565b6000602082840312156200213957600080fd5b5051919050565b600080604083850312156200215457600080fd5b8235915060208301356200216881620023bd565b809150509250929050565b6000806000606084860312156200218957600080fd5b8335925060208401356200219d8162002397565b91506040840135620021af8162002397565b809150509250925092565b600080600080600060608688031215620021d357600080fd5b85359450602086013567ffffffffffffffff80821115620021f357600080fd5b6200220189838a0162001f76565b909650945060408801359150808211156200221b57600080fd5b506200222a8882890162001f76565b969995985093965092949392505050565b6000602082840312156200224e57600080fd5b815160ff8116811462001fe257600080fd5b8183528181602085013750600060208284010152600060207fffffffffffffffffffffffffffffffffffffffffffffffffffffffffffffffe0601f840116840101905092915050565b604081526000620022bf60408301868862002260565b8281036020840152620022d481858762002260565b979650505050505050565b606081526000620022f560608301878962002260565b82810360208401526200230a81868862002260565b91505073ffffffffffffffffffffffffffffffffffffffff831660408301529695505050505050565b6000821982111562002349576200234962002368565b500190565b60008282101562002363576200236362002368565b500390565b7f4e487b7100000000000000000000000000000000000000000000000000000000600052601160045260246000fd5b73ffffffffffffffffffffffffffffffffffffffff81168114620023ba57600080fd5b50565b8015158114620023ba57600080fdfe60806040523480156200001157600080fd5b50604051620017e5380380620017e583398101604081905262000034916200023b565b8151829082906200004d906003906020850190620000de565b50805162000063906004906020840190620000de565b505050620000806200007a6200008860201b60201c565b6200008c565b5050620002f8565b3390565b600580546001600160a01b038381166001600160a01b0319831681179093556040519116919082907f8be0079c531659141344cd1fd0a4f28419497f9722a3daafe3b4186f6b6457e090600090a35050565b828054620000ec90620002a5565b90600052602060002090601f0160209004810192826200011057600085556200015b565b82601f106200012b57805160ff19168380011785556200015b565b828001600101855582156200015b579182015b828111156200015b5782518255916020019190600101906200013e565b50620001699291506200016d565b5090565b5b808211156200016957600081556001016200016e565b600082601f8301126200019657600080fd5b81516001600160401b0380821115620001b357620001b3620002e2565b604051601f8301601f19908116603f01168101908282118183101715620001de57620001de620002e2565b81604052838152602092508683858801011115620001fb57600080fd5b600091505b838210156200021f578582018301518183018401529082019062000200565b83821115620002315760008385830101525b9695505050505050565b600080604083850312156200024f57600080fd5b82516001600160401b03808211156200026757600080fd5b620002758683870162000184565b935060208501519150808211156200028c57600080fd5b506200029b8582860162000184565b9150509250929050565b600181811c90821680620002ba57607f821691505b60208210811415620002dc57634e487b7160e01b600052602260045260246000fd5b50919050565b634e487b7160e01b600052604160045260246000fd5b6114dd80620003086000396000f3fe608060405234801561001057600080fd5b50600436106101765760003560e01c8063836a1040116100d8578063a457c2d71161008c578063dd62ed3e11610066578063dd62ed3e1461030b578063f2fde38b14610351578063f8548e361461036457600080fd5b8063a457c2d7146102d2578063a9059cbb146102e5578063bd85b039146102f857600080fd5b80638da5cb5b116100bd5780638da5cb5b1461028f57806395d89b41146102b75780639eea5f66146102bf57600080fd5b8063836a1040146102695780638cb0a5111461027c57600080fd5b806323b872dd1161012f5780633950935111610114578063395093511461021857806370a082311461022b578063715018a61461026157600080fd5b806323b872dd146101f6578063313ce5671461020957600080fd5b8063095ea7b311610160578063095ea7b3146101b657806318160ddd146101d95780631c0f12b6146101e157600080fd5b8062fdd58e1461017b57806306fdde03146101a1575b600080fd5b61018e6101893660046112d6565b610377565b6040519081526020015b60405180910390f35b6101a96103a5565b6040516101989190611382565b6101c96101c43660046112d6565b610437565b6040519015158152602001610198565b60025461018e565b6101f46101ef366004611319565b61044d565b005b6101c961020436600461129a565b61045f565b60405160128152602001610198565b6101c96102263660046112d6565b61056f565b61018e61023936600461124c565b73ffffffffffffffffffffffffffffffffffffffff1660009081526020819052604090205490565b6101f46105b8565b6101f461027736600461135d565b610645565b6101f461028a36600461135d565b6106d5565b60055460405173ffffffffffffffffffffffffffffffffffffffff9091168152602001610198565b6101a96106e5565b6101f46102cd36600461135d565b6106f4565b6101c96102e03660046112d6565b61077f565b6101c96102f33660046112d6565b610857565b61018e610306366004611300565b610864565b61018e610319366004611267565b73ffffffffffffffffffffffffffffffffffffffff918216600090815260016020908152604080832093909416825291909152205490565b6101f461035f36600461124c565b610875565b6101f461037236600461135d565b610902565b73ffffffffffffffffffffffffffffffffffffffff82166000908152602081905260408120545b9392505050565b6060600380546103b490611424565b80601f01602080910402602001604051908101604052809291908181526020018280546103e090611424565b801561042d5780601f106104025761010080835404028352916020019161042d565b820191906000526020600020905b81548152906001019060200180831161041057829003601f168201915b5050505050905090565b600061044433848461090c565b50600192915050565b61045883838361045f565b5050505050565b73ffffffffffffffffffffffffffffffffffffffff831660009081526001602090815260408083203384529091528120547fffffffffffffffffffffffffffffffffffffffffffffffffffffffffffffffff8114610559578281101561054c576040517f08c379a000000000000000000000000000000000000000000000000000000000815260206004820152602860248201527f45524332303a207472616e7366657220616d6f756e742065786365656473206160448201527f6c6c6f77616e636500000000000000000000000000000000000000000000000060648201526084015b60405180910390fd5b610559853385840361090c565b610564858585610abf565b506001949350505050565b33600081815260016020908152604080832073ffffffffffffffffffffffffffffffffffffffff8716845290915281205490916104449185906105b39086906113f5565b61090c565b60055473ffffffffffffffffffffffffffffffffffffffff163314610639576040517f08c379a000000000000000000000000000000000000000000000000000000000815260206004820181905260248201527f4f776e61626c653a2063616c6c6572206973206e6f7420746865206f776e65726044820152606401610543565b6106436000610d72565b565b60055473ffffffffffffffffffffffffffffffffffffffff1633146106c6576040517f08c379a000000000000000000000000000000000000000000000000000000000815260206004820181905260248201527f4f776e61626c653a2063616c6c6572206973206e6f7420746865206f776e65726044820152606401610543565b6106d08282610de9565b505050565b6106df8282610437565b50505050565b6060600480546103b490611424565b60055473ffffffffffffffffffffffffffffffffffffffff163314610775576040517f08c379a000000000000000000000000000000000000000000000000000000000815260206004820181905260248201527f4f776e61626c653a2063616c6c6572206973206e6f7420746865206f776e65726044820152606401610543565b6106d08282610f09565b33600090815260016020908152604080832073ffffffffffffffffffffffffffffffffffffffff8616845290915281205482811015610840576040517f08c379a000000000000000000000000000000000000000000000000000000000815260206004820152602560248201527f45524332303a2064656372656173656420616c6c6f77616e63652062656c6f7760448201527f207a65726f0000000000000000000000000000000000000000000000000000006064820152608401610543565b61084d338585840361090c565b5060019392505050565b6000610444338484610abf565b600061086f60025490565b92915050565b60055473ffffffffffffffffffffffffffffffffffffffff1633146108f6576040517f08c379a000000000000000000000000000000000000000000000000000000000815260206004820181905260248201527f4f776e61626c653a2063616c6c6572206973206e6f7420746865206f776e65726044820152606401610543565b6108ff816110f6565b50565b6106df8282610857565b73ffffffffffffffffffffffffffffffffffffffff83166109ae576040517f08c379a0000000000000000000000000000000000000000000000000000000008152602060048201526024808201527f45524332303a20617070726f76652066726f6d20746865207a65726f2061646460448201527f72657373000000000000000000000000000000000000000000000000000000006064820152608401610543565b73ffffffffffffffffffffffffffffffffffffffff8216610a51576040517f08c379a000000000000000000000000000000000000000000000000000000000815260206004820152602260248201527f45524332303a20617070726f766520746f20746865207a65726f20616464726560448201527f73730000000000000000000000000000000000000000000000000000000000006064820152608401610543565b73ffffffffffffffffffffffffffffffffffffffff83811660008181526001602090815260408083209487168084529482529182902085905590518481527f8c5be1e5ebec7d5bd14f71427d1e84f3dd0314c0f7b2291e5b200ac8c7c3b925910160405180910390a3505050565b73ffffffffffffffffffffffffffffffffffffffff8316610b62576040517f08c379a000000000000000000000000000000000000000000000000000000000815260206004820152602560248201527f45524332303a207472616e736665722066726f6d20746865207a65726f20616460448201527f64726573730000000000000000000000000000000000000000000000000000006064820152608401610543565b73ffffffffffffffffffffffffffffffffffffffff8216610c05576040517f08c379a000000000000000000000000000000000000000000000000000000000815260206004820152602360248201527f45524332303a207472616e7366657220746f20746865207a65726f206164647260448201527f65737300000000000000000000000000000000000000000000000000000000006064820152608401610543565b73ffffffffffffffffffffffffffffffffffffffff831660009081526020819052604090205481811015610cbb576040517f08c379a000000000000000000000000000000000000000000000000000000000815260206004820152602660248201527f45524332303a207472616e7366657220616d6f756e742065786365656473206260448201527f616c616e636500000000000000000000000000000000000000000000000000006064820152608401610543565b73ffffffffffffffffffffffffffffffffffffffff808516600090815260208190526040808220858503905591851681529081208054849290610cff9084906113f5565b925050819055508273ffffffffffffffffffffffffffffffffffffffff168473ffffffffffffffffffffffffffffffffffffffff167fddf252ad1be2c89b69c2b068fc378daa952ba7f163c4a11628f55a4df523b3ef84604051610d6591815260200190565b60405180910390a36106df565b6005805473ffffffffffffffffffffffffffffffffffffffff8381167fffffffffffffffffffffffff0000000000000000000000000000000000000000831681179093556040519116919082907f8be0079c531659141344cd1fd0a4f28419497f9722a3daafe3b4186f6b6457e090600090a35050565b73ffffffffffffffffffffffffffffffffffffffff8216610e66576040517f08c379a000000000000000000000000000000000000000000000000000000000815260206004820152601f60248201527f45524332303a206d696e7420746f20746865207a65726f2061646472657373006044820152606401610543565b8060026000828254610e7891906113f5565b909155505073ffffffffffffffffffffffffffffffffffffffff821660009081526020819052604081208054839290610eb29084906113f5565b909155505060405181815273ffffffffffffffffffffffffffffffffffffffff8316906000907fddf252ad1be2c89b69c2b068fc378daa952ba7f163c4a11628f55a4df523b3ef9060200160405180910390a35050565b73ffffffffffffffffffffffffffffffffffffffff8216610fac576040517f08c379a000000000000000000000000000000000000000000000000000000000815260206004820152602160248201527f45524332303a206275726e2066726f6d20746865207a65726f2061646472657360448201527f73000000000000000000000000000000000000000000000000000000000000006064820152608401610543565b73ffffffffffffffffffffffffffffffffffffffff821660009081526020819052604090205481811015611062576040517f08c379a000000000000000000000000000000000000000000000000000000000815260206004820152602260248201527f45524332303a206275726e20616d6f756e7420657863656564732062616c616e60448201527f63650000000000000000000000000000000000000000000000000000000000006064820152608401610543565b73ffffffffffffffffffffffffffffffffffffffff8316600090815260208190526040812083830390556002805484929061109e90849061140d565b909155505060405182815260009073ffffffffffffffffffffffffffffffffffffffff8516907fddf252ad1be2c89b69c2b068fc378daa952ba7f163c4a11628f55a4df523b3ef9060200160405180910390a3505050565b60055473ffffffffffffffffffffffffffffffffffffffff163314611177576040517f08c379a000000000000000000000000000000000000000000000000000000000815260206004820181905260248201527f4f776e61626c653a2063616c6c6572206973206e6f7420746865206f776e65726044820152606401610543565b73ffffffffffffffffffffffffffffffffffffffff811661121a576040517f08c379a000000000000000000000000000000000000000000000000000000000815260206004820152602660248201527f4f776e61626c653a206e6577206f776e657220697320746865207a65726f206160448201527f64647265737300000000000000000000000000000000000000000000000000006064820152608401610543565b6108ff81610d72565b803573ffffffffffffffffffffffffffffffffffffffff8116811461124757600080fd5b919050565b60006020828403121561125e57600080fd5b61039e82611223565b6000806040838503121561127a57600080fd5b61128383611223565b915061129160208401611223565b90509250929050565b6000806000606084860312156112af57600080fd5b6112b884611223565b92506112c660208501611223565b9150604084013590509250925092565b600080604083850312156112e957600080fd5b6112f283611223565b946020939093013593505050565b60006020828403121561131257600080fd5b5035919050565b6000806000806080858703121561132f57600080fd5b8435935061133f60208601611223565b925061134d60408601611223565b9396929550929360600135925050565b60008060006060848603121561137257600080fd5b833592506112c660208501611223565b600060208083528351808285015260005b818110156113af57858101830151858201604001528201611393565b818111156113c1576000604083870101525b50601f017fffffffffffffffffffffffffffffffffffffffffffffffffffffffffffffffe016929092016040019392505050565b6000821982111561140857611408611478565b500190565b60008282101561141f5761141f611478565b500390565b600181811c9082168061143857607f821691505b60208210811415611472577f4e487b7100000000000000000000000000000000000000000000000000000000600052602260045260246000fd5b50919050565b7f4e487b7100000000000000000000000000000000000000000000000000000000600052601160045260246000fdfea2646970667358221220b73f677bbc2f71e7abc1c0f41f4b9f56570f3d0a264f0f42c56a2a021eca5de464736f6c63430008060033a2646970667358221220c3ad896c63aa63ce4b3a13018d03ca8383800d57632d35fc8ff7e0fa068f14d864736f6c63430008060033",
  "devdoc": {
    "details": "Token balances can be either represented internally or claimed as ERC-20s into wallets. This contract manages these two representations and allows claiming.The total supply of a project's tokens and the balance of each account are calculated in this contract.Each project can bring their own token if they prefer, and swap between tokens at any time.Adheres to: IJBTokenStore: General interface for the methods in this contract that interact with the blockchain's state according to the protocol's rules.Inherits from: JBControllerUtility: Includes convenience functionality for checking if the message sender is the current controller of the project whose data is being manipulated. JBOperatable: Includes convenience functionality for checking a message sender's permissions before executing certain transactions.",
    "kind": "dev",
    "methods": {
      "balanceOf(address,uint256)": {
        "params": {
          "_holder": "The token holder to get a balance for.",
          "_projectId": "The project to get the `_holder`s balance of."
        },
        "returns": {
          "balance": "The project token balance of the `_holder"
        }
      },
      "burnFrom(address,uint256,uint256,bool)": {
        "details": "Only a project's current controller can burn its tokens.",
        "params": {
          "_amount": "The amount of tokens to burn.",
          "_holder": "The address that owns the tokens being burned.",
          "_preferClaimedTokens": "A flag indicating whether there's a preference for tokens to burned from the `_holder`s wallet if the project currently has a token contract attached.",
          "_projectId": "The ID of the project to which the burned tokens belong."
        }
      },
      "changeFor(uint256,address,address)": {
        "details": "Only a project's current controller can change its token.This contract must have access to all of the token's `IJBToken` interface functions.",
        "params": {
          "_newOwner": "An address to transfer the current token's ownership to. This is optional, but it cannot be done later.",
          "_projectId": "The ID of the project to which the changed token belongs.",
          "_token": "The new token. Send an empty address to remove the project's current token without adding a new one, if claiming tokens isn't currency required by the project"
        },
        "returns": {
          "oldToken": "The token that was removed as the project's token."
        }
      },
      "claimFor(address,uint256,uint256)": {
        "details": "Only a token holder or an operator specified by the token holder can claim its unclaimed tokens.",
        "params": {
          "_amount": "The amount of tokens to claim.",
          "_holder": "The owner of the tokens being claimed.",
          "_projectId": "The ID of the project whose tokens are being claimed."
        }
      },
      "constructor": {
        "params": {
          "_directory": "A contract storing directories of terminals and controllers for each project.",
          "_operatorStore": "A contract storing operator assignments.",
          "_projects": "A contract which mints ERC-721's that represent project ownership and transfers."
        }
      },
      "issueFor(uint256,string,string)": {
        "details": "Deploys a project's ERC-20 token contract.Only a project's current controller can issue its token.",
        "params": {
          "_name": "The ERC-20's name.",
          "_projectId": "The ID of the project being issued tokens.",
          "_symbol": "The ERC-20's symbol."
        },
        "returns": {
          "token": "The token that was issued."
        }
      },
      "mintFor(address,uint256,uint256,bool)": {
        "details": "Only a project's current controller can mint its tokens.",
        "params": {
          "_amount": "The amount of tokens to mint.",
          "_holder": "The address receiving the new tokens.",
          "_preferClaimedTokens": "A flag indicating whether there's a preference for minted tokens to be claimed automatically into the `_holder`s wallet if the project currently has a token contract attached.",
          "_projectId": "The ID of the project to which the tokens belong."
        }
      },
      "shouldRequireClaimingFor(uint256,bool)": {
        "details": "Only a token holder or an operator can require claimed token.",
        "params": {
          "_flag": "A flag indicating whether or not claiming should be required.",
          "_projectId": "The ID of the project being affected."
        }
      },
      "totalSupplyOf(uint256)": {
        "params": {
          "_projectId": "The ID of the project to get the total token supply of."
        },
        "returns": {
          "totalSupply": "The total supply of the project's tokens."
        }
      },
      "transferFrom(address,uint256,address,uint256)": {
        "details": "Only a token holder or an operator can transfer its unclaimed tokens.",
        "params": {
          "_amount": "The amount of tokens to transfer.",
          "_holder": "The address to transfer tokens from.",
          "_projectId": "The ID of the project whose tokens are being transferred.",
          "_recipient": "The recipient of the tokens."
        }
      }
    },
    "version": 1
  },
  "userdoc": {
    "kind": "user",
    "methods": {
      "balanceOf(address,uint256)": {
        "notice": "The total balance of tokens a holder has for a specified project, including claimed and unclaimed tokens."
      },
      "burnFrom(address,uint256,uint256,bool)": {
        "notice": "Burns a project's tokens."
      },
      "changeFor(uint256,address,address)": {
        "notice": "Swap the current project's token for another, and transfer ownership of the current token to another address if needed."
      },
      "claimFor(address,uint256,uint256)": {
        "notice": "Claims internally accounted for tokens into a holder's wallet."
      },
      "directory()": {
        "notice": " The directory of terminals and controllers for projects."
      },
      "issueFor(uint256,string,string)": {
        "notice": "Issues a project's ERC-20 tokens that'll be used when claiming tokens."
      },
      "mintFor(address,uint256,uint256,bool)": {
        "notice": "Mint new project tokens."
      },
      "operatorStore()": {
        "notice": " A contract storing operator assignments."
      },
      "projects()": {
        "notice": "The Projects contract which mints ERC-721's that represent project ownership and transfers."
      },
      "requireClaimFor(uint256)": {
        "notice": "A flag indicating if tokens are required to be issued as claimed for a particular project. _projectId The ID of the project to which the requirement applies."
      },
      "shouldRequireClaimingFor(uint256,bool)": {
        "notice": "Allows a project to force all future mints of its tokens to be claimed into the holder's wallet, or revoke the flag if it's already set."
      },
      "tokenOf(uint256)": {
        "notice": "Each project's attached token contract. _projectId The ID of the project to which the token belongs."
      },
      "totalSupplyOf(uint256)": {
        "notice": "The total supply of tokens for each project, including claimed and unclaimed tokens."
      },
      "transferFrom(address,uint256,address,uint256)": {
        "notice": "Allows a holder to transfer unclaimed tokens to another account."
      },
      "unclaimedBalanceOf(address,uint256)": {
        "notice": "Each holder's balance of unclaimed tokens for each project. _holder The holder of balance. _projectId The ID of the project to which the token belongs."
      },
      "unclaimedTotalSupplyOf(uint256)": {
        "notice": "The total supply of unclaimed tokens for each project. _projectId The ID of the project to which the token belongs."
      }
    },
    "notice": "Manage token minting, burning, and account balances.",
    "version": 1
  },
  "storageLayout": {
    "storage": [
      {
        "astId": 11304,
        "contract": "contracts/JBTokenStore.sol:JBTokenStore",
        "label": "tokenOf",
        "offset": 0,
        "slot": "0",
        "type": "t_mapping(t_uint256,t_contract(IJBToken)15865)"
      },
      {
        "astId": 11310,
        "contract": "contracts/JBTokenStore.sol:JBTokenStore",
        "label": "unclaimedTotalSupplyOf",
        "offset": 0,
        "slot": "1",
        "type": "t_mapping(t_uint256,t_uint256)"
      },
      {
        "astId": 11318,
        "contract": "contracts/JBTokenStore.sol:JBTokenStore",
        "label": "unclaimedBalanceOf",
        "offset": 0,
        "slot": "2",
        "type": "t_mapping(t_address,t_mapping(t_uint256,t_uint256))"
      },
      {
        "astId": 11324,
        "contract": "contracts/JBTokenStore.sol:JBTokenStore",
        "label": "requireClaimFor",
        "offset": 0,
        "slot": "3",
        "type": "t_mapping(t_uint256,t_bool)"
      }
    ],
    "types": {
      "t_address": {
        "encoding": "inplace",
        "label": "address",
        "numberOfBytes": "20"
      },
      "t_bool": {
        "encoding": "inplace",
        "label": "bool",
        "numberOfBytes": "1"
      },
      "t_contract(IJBToken)15865": {
        "encoding": "inplace",
        "label": "contract IJBToken",
        "numberOfBytes": "20"
      },
      "t_mapping(t_address,t_mapping(t_uint256,t_uint256))": {
        "encoding": "mapping",
        "key": "t_address",
        "label": "mapping(address => mapping(uint256 => uint256))",
        "numberOfBytes": "32",
        "value": "t_mapping(t_uint256,t_uint256)"
      },
      "t_mapping(t_uint256,t_bool)": {
        "encoding": "mapping",
        "key": "t_uint256",
        "label": "mapping(uint256 => bool)",
        "numberOfBytes": "32",
        "value": "t_bool"
      },
      "t_mapping(t_uint256,t_contract(IJBToken)15865)": {
        "encoding": "mapping",
        "key": "t_uint256",
        "label": "mapping(uint256 => contract IJBToken)",
        "numberOfBytes": "32",
        "value": "t_contract(IJBToken)15865"
      },
      "t_mapping(t_uint256,t_uint256)": {
        "encoding": "mapping",
        "key": "t_uint256",
        "label": "mapping(uint256 => uint256)",
        "numberOfBytes": "32",
        "value": "t_uint256"
      },
      "t_uint256": {
        "encoding": "inplace",
        "label": "uint256",
        "numberOfBytes": "32"
      }
    }
  }
}