{
  "address": "0xed3Da17255Dcd4fd7Ab9820B19BB655faba7b1DC",
  "abi": [
    {
      "inputs": [
        {
          "internalType": "contract IJBOperatorStore",
          "name": "_operatorStore",
          "type": "address"
        },
        {
          "internalType": "contract IJBProjects",
          "name": "_projects",
          "type": "address"
        },
        {
          "internalType": "contract IJBDirectory",
          "name": "_directory",
          "type": "address"
        }
      ],
      "stateMutability": "nonpayable",
      "type": "constructor"
    },
    {
      "inputs": [],
      "name": "CANT_REMOVE_TOKEN_IF_ITS_REQUIRED",
      "type": "error"
    },
    {
      "inputs": [],
      "name": "CONTROLLER_UNAUTHORIZED",
      "type": "error"
    },
    {
      "inputs": [],
      "name": "EMPTY_NAME",
      "type": "error"
    },
    {
      "inputs": [],
      "name": "EMPTY_SYMBOL",
      "type": "error"
    },
    {
      "inputs": [],
      "name": "INSUFFICIENT_FUNDS",
      "type": "error"
    },
    {
      "inputs": [],
      "name": "INSUFFICIENT_UNCLAIMED_TOKENS",
      "type": "error"
    },
    {
      "inputs": [],
      "name": "PROJECT_ALREADY_HAS_TOKEN",
      "type": "error"
    },
    {
      "inputs": [],
      "name": "RECIPIENT_ZERO_ADDRESS",
      "type": "error"
    },
    {
      "inputs": [],
      "name": "TOKENS_MUST_HAVE_18_DECIMALS",
      "type": "error"
    },
    {
      "inputs": [],
      "name": "TOKEN_ALREADY_IN_USE",
      "type": "error"
    },
    {
      "inputs": [],
      "name": "TOKEN_NOT_FOUND",
      "type": "error"
    },
    {
      "inputs": [],
      "name": "UNAUTHORIZED",
      "type": "error"
    },
    {
      "anonymous": false,
      "inputs": [
        {
          "indexed": true,
          "internalType": "address",
          "name": "holder",
          "type": "address"
        },
        {
          "indexed": true,
          "internalType": "uint256",
          "name": "projectId",
          "type": "uint256"
        },
        {
          "indexed": false,
          "internalType": "uint256",
          "name": "amount",
          "type": "uint256"
        },
        {
          "indexed": false,
          "internalType": "uint256",
          "name": "initialUnclaimedBalance",
          "type": "uint256"
        },
        {
          "indexed": false,
          "internalType": "uint256",
          "name": "initialClaimedBalance",
          "type": "uint256"
        },
        {
          "indexed": false,
          "internalType": "bool",
          "name": "preferClaimedTokens",
          "type": "bool"
        },
        {
          "indexed": false,
          "internalType": "address",
          "name": "caller",
          "type": "address"
        }
      ],
      "name": "Burn",
      "type": "event"
    },
    {
      "anonymous": false,
      "inputs": [
        {
          "indexed": true,
          "internalType": "uint256",
          "name": "projectId",
          "type": "uint256"
        },
        {
          "indexed": true,
          "internalType": "contract IJBToken",
          "name": "newToken",
          "type": "address"
        },
        {
          "indexed": true,
          "internalType": "contract IJBToken",
          "name": "oldToken",
          "type": "address"
        },
        {
          "indexed": false,
          "internalType": "address",
          "name": "owner",
          "type": "address"
        },
        {
          "indexed": false,
          "internalType": "address",
          "name": "caller",
          "type": "address"
        }
      ],
      "name": "Change",
      "type": "event"
    },
    {
      "anonymous": false,
      "inputs": [
        {
          "indexed": true,
          "internalType": "address",
          "name": "holder",
          "type": "address"
        },
        {
          "indexed": true,
          "internalType": "uint256",
          "name": "projectId",
          "type": "uint256"
        },
        {
          "indexed": false,
          "internalType": "uint256",
          "name": "initialUnclaimedBalance",
          "type": "uint256"
        },
        {
          "indexed": false,
          "internalType": "uint256",
          "name": "amount",
          "type": "uint256"
        },
        {
          "indexed": false,
          "internalType": "address",
          "name": "caller",
          "type": "address"
        }
      ],
      "name": "Claim",
      "type": "event"
    },
    {
      "anonymous": false,
      "inputs": [
        {
          "indexed": true,
          "internalType": "uint256",
          "name": "projectId",
          "type": "uint256"
        },
        {
          "indexed": true,
          "internalType": "contract IJBToken",
          "name": "token",
          "type": "address"
        },
        {
          "indexed": false,
          "internalType": "string",
          "name": "name",
          "type": "string"
        },
        {
          "indexed": false,
          "internalType": "string",
          "name": "symbol",
          "type": "string"
        },
        {
          "indexed": false,
          "internalType": "address",
          "name": "caller",
          "type": "address"
        }
      ],
      "name": "Issue",
      "type": "event"
    },
    {
      "anonymous": false,
      "inputs": [
        {
          "indexed": true,
          "internalType": "address",
          "name": "holder",
          "type": "address"
        },
        {
          "indexed": true,
          "internalType": "uint256",
          "name": "projectId",
          "type": "uint256"
        },
        {
          "indexed": false,
          "internalType": "uint256",
          "name": "amount",
          "type": "uint256"
        },
        {
          "indexed": false,
          "internalType": "bool",
          "name": "tokensWereClaimed",
          "type": "bool"
        },
        {
          "indexed": false,
          "internalType": "bool",
          "name": "preferClaimedTokens",
          "type": "bool"
        },
        {
          "indexed": false,
          "internalType": "address",
          "name": "caller",
          "type": "address"
        }
      ],
      "name": "Mint",
      "type": "event"
    },
    {
      "anonymous": false,
      "inputs": [
        {
          "indexed": true,
          "internalType": "uint256",
          "name": "projectId",
          "type": "uint256"
        },
        {
          "indexed": true,
          "internalType": "bool",
          "name": "flag",
          "type": "bool"
        },
        {
          "indexed": false,
          "internalType": "address",
          "name": "caller",
          "type": "address"
        }
      ],
      "name": "ShouldRequireClaim",
      "type": "event"
    },
    {
      "anonymous": false,
      "inputs": [
        {
          "indexed": true,
          "internalType": "address",
          "name": "holder",
          "type": "address"
        },
        {
          "indexed": true,
          "internalType": "uint256",
          "name": "projectId",
          "type": "uint256"
        },
        {
          "indexed": true,
          "internalType": "address",
          "name": "recipient",
          "type": "address"
        },
        {
          "indexed": false,
          "internalType": "uint256",
          "name": "amount",
          "type": "uint256"
        },
        {
          "indexed": false,
          "internalType": "address",
          "name": "caller",
          "type": "address"
        }
      ],
      "name": "Transfer",
      "type": "event"
    },
    {
      "inputs": [
        {
          "internalType": "address",
          "name": "_holder",
          "type": "address"
        },
        {
          "internalType": "uint256",
          "name": "_projectId",
          "type": "uint256"
        }
      ],
      "name": "balanceOf",
      "outputs": [
        {
          "internalType": "uint256",
          "name": "balance",
          "type": "uint256"
        }
      ],
      "stateMutability": "view",
      "type": "function"
    },
    {
      "inputs": [
        {
          "internalType": "address",
          "name": "_holder",
          "type": "address"
        },
        {
          "internalType": "uint256",
          "name": "_projectId",
          "type": "uint256"
        },
        {
          "internalType": "uint256",
          "name": "_amount",
          "type": "uint256"
        },
        {
          "internalType": "bool",
          "name": "_preferClaimedTokens",
          "type": "bool"
        }
      ],
      "name": "burnFrom",
      "outputs": [],
      "stateMutability": "nonpayable",
      "type": "function"
    },
    {
      "inputs": [
        {
          "internalType": "uint256",
          "name": "_projectId",
          "type": "uint256"
        },
        {
          "internalType": "contract IJBToken",
          "name": "_token",
          "type": "address"
        },
        {
          "internalType": "address",
          "name": "_newOwner",
          "type": "address"
        }
      ],
      "name": "changeFor",
      "outputs": [
        {
          "internalType": "contract IJBToken",
          "name": "oldToken",
          "type": "address"
        }
      ],
      "stateMutability": "nonpayable",
      "type": "function"
    },
    {
      "inputs": [
        {
          "internalType": "address",
          "name": "_holder",
          "type": "address"
        },
        {
          "internalType": "uint256",
          "name": "_projectId",
          "type": "uint256"
        },
        {
          "internalType": "uint256",
          "name": "_amount",
          "type": "uint256"
        }
      ],
      "name": "claimFor",
      "outputs": [],
      "stateMutability": "nonpayable",
      "type": "function"
    },
    {
      "inputs": [],
      "name": "directory",
      "outputs": [
        {
          "internalType": "contract IJBDirectory",
          "name": "",
          "type": "address"
        }
      ],
      "stateMutability": "view",
      "type": "function"
    },
    {
      "inputs": [
        {
          "internalType": "uint256",
          "name": "_projectId",
          "type": "uint256"
        },
        {
          "internalType": "string",
          "name": "_name",
          "type": "string"
        },
        {
          "internalType": "string",
          "name": "_symbol",
          "type": "string"
        }
      ],
      "name": "issueFor",
      "outputs": [
        {
          "internalType": "contract IJBToken",
          "name": "token",
          "type": "address"
        }
      ],
      "stateMutability": "nonpayable",
      "type": "function"
    },
    {
      "inputs": [
        {
          "internalType": "address",
          "name": "_holder",
          "type": "address"
        },
        {
          "internalType": "uint256",
          "name": "_projectId",
          "type": "uint256"
        },
        {
          "internalType": "uint256",
          "name": "_amount",
          "type": "uint256"
        },
        {
          "internalType": "bool",
          "name": "_preferClaimedTokens",
          "type": "bool"
        }
      ],
      "name": "mintFor",
      "outputs": [],
      "stateMutability": "nonpayable",
      "type": "function"
    },
    {
      "inputs": [],
      "name": "operatorStore",
      "outputs": [
        {
          "internalType": "contract IJBOperatorStore",
          "name": "",
          "type": "address"
        }
      ],
      "stateMutability": "view",
      "type": "function"
    },
    {
      "inputs": [
        {
          "internalType": "contract IJBToken",
          "name": "",
          "type": "address"
        }
      ],
      "name": "projectOf",
      "outputs": [
        {
          "internalType": "uint256",
          "name": "",
          "type": "uint256"
        }
      ],
      "stateMutability": "view",
      "type": "function"
    },
    {
      "inputs": [],
      "name": "projects",
      "outputs": [
        {
          "internalType": "contract IJBProjects",
          "name": "",
          "type": "address"
        }
      ],
      "stateMutability": "view",
      "type": "function"
    },
    {
      "inputs": [
        {
          "internalType": "uint256",
          "name": "",
          "type": "uint256"
        }
      ],
      "name": "requireClaimFor",
      "outputs": [
        {
          "internalType": "bool",
          "name": "",
          "type": "bool"
        }
      ],
      "stateMutability": "view",
      "type": "function"
    },
    {
      "inputs": [
        {
          "internalType": "uint256",
          "name": "_projectId",
          "type": "uint256"
        },
        {
          "internalType": "bool",
          "name": "_flag",
          "type": "bool"
        }
      ],
      "name": "shouldRequireClaimingFor",
      "outputs": [],
      "stateMutability": "nonpayable",
      "type": "function"
    },
    {
      "inputs": [
        {
          "internalType": "uint256",
          "name": "",
          "type": "uint256"
        }
      ],
      "name": "tokenOf",
      "outputs": [
        {
          "internalType": "contract IJBToken",
          "name": "",
          "type": "address"
        }
      ],
      "stateMutability": "view",
      "type": "function"
    },
    {
      "inputs": [
        {
          "internalType": "uint256",
          "name": "_projectId",
          "type": "uint256"
        }
      ],
      "name": "totalSupplyOf",
      "outputs": [
        {
          "internalType": "uint256",
          "name": "totalSupply",
          "type": "uint256"
        }
      ],
      "stateMutability": "view",
      "type": "function"
    },
    {
      "inputs": [
        {
          "internalType": "address",
          "name": "_holder",
          "type": "address"
        },
        {
          "internalType": "uint256",
          "name": "_projectId",
          "type": "uint256"
        },
        {
          "internalType": "address",
          "name": "_recipient",
          "type": "address"
        },
        {
          "internalType": "uint256",
          "name": "_amount",
          "type": "uint256"
        }
      ],
      "name": "transferFrom",
      "outputs": [],
      "stateMutability": "nonpayable",
      "type": "function"
    },
    {
      "inputs": [
        {
          "internalType": "address",
          "name": "",
          "type": "address"
        },
        {
          "internalType": "uint256",
          "name": "",
          "type": "uint256"
        }
      ],
      "name": "unclaimedBalanceOf",
      "outputs": [
        {
          "internalType": "uint256",
          "name": "",
          "type": "uint256"
        }
      ],
      "stateMutability": "view",
      "type": "function"
    },
    {
      "inputs": [
        {
          "internalType": "uint256",
          "name": "",
          "type": "uint256"
        }
      ],
      "name": "unclaimedTotalSupplyOf",
      "outputs": [
        {
          "internalType": "uint256",
          "name": "",
          "type": "uint256"
        }
      ],
      "stateMutability": "view",
      "type": "function"
    }
  ],
  "transactionHash": "0x4b3e446876a10bc8399c4fa0722cdf7b2dc5e1b7749d5ce1a773e63900605832",
  "args": [
    "0xA2e4ffE69A28226858A70D3fba94C10C53088029",
    "0xe63eCb9784D96E5D9be81b8b78c550Be309acb26",
    "0xb7e8eb6bB402cceAF55A14E135d754D36E4736fa"
  ],
  "numDeployments": 1,
  "solcInputHash": "122fb715eefa62c2e442108fed43e375",
  "bytecode": "0x60e06040523480156200001157600080fd5b50604051620043be380380620043be83398101604081905262000034916200005a565b6001600160601b0319606091821b811660805292811b831660a0521b1660c052620000c7565b6000806000606084860312156200007057600080fd5b83516200007d81620000ae565b60208501519093506200009081620000ae565b6040850151909250620000a381620000ae565b809150509250925092565b6001600160a01b0381168114620000c457600080fd5b50565b60805160601c60a05160601c60c05160601c61428d620001316000396000818161027e01526118ee0152600081816102eb01528181611ae20152611bc3015260008181610313015281816104e901528181610ce80152818161114701526115f3015261428d6000f3fe60806040523480156200001157600080fd5b5060043610620001315760003560e01c80638b79543c11620000c0578063ad007d63116200008b578063ceddd3e4116200006e578063ceddd3e41462000335578063ea78803f146200034c578063ff0186c5146200038557600080fd5b8063ad007d6314620002e5578063c41c2f24146200030d57600080fd5b80638b79543c1462000278578063906ebd0f14620002a0578063a7f2a70b14620002b7578063ac689bcd14620002ce57600080fd5b806357e4c778116200010157806357e4c77814620001d45780636607955d146200021157806375b0d9cd146200022a5780637b4d8e2c146200024157600080fd5b8062fdd58e14620001365780631412884f1462000160578063176309b714620001835780635287af3714620001a6575b600080fd5b6200014d6200014736600462001d01565b6200039c565b6040519081526020015b60405180910390f35b6200014d6200017136600462001e44565b60026020526000908152604090205481565b6200014d6200019436600462001e24565b60016020526000908152604090205481565b6200014d620001b736600462001d01565b600360209081526000928352604080842090915290825290205481565b620001eb620001e536600462001eab565b6200049e565b60405173ffffffffffffffffffffffffffffffffffffffff909116815260200162000157565b620002286200022236600462001d7d565b6200094d565b005b6200014d6200023b36600462001e44565b62000bb2565b620002676200025236600462001e44565b60046020526000908152604090205460ff1681565b604051901515815260200162000157565b620001eb7f000000000000000000000000000000000000000000000000000000000000000081565b62000228620002b136600462001db5565b62000ca0565b620001eb620002c836600462001ef2565b620010fc565b62000228620002df36600462001d30565b620013cf565b620001eb7f000000000000000000000000000000000000000000000000000000000000000081565b620001eb7f000000000000000000000000000000000000000000000000000000000000000081565b620002286200034636600462001db5565b620015ab565b620001eb6200035d36600462001e44565b60006020819052908152604090205473ffffffffffffffffffffffffffffffffffffffff1681565b620002286200039636600462001e78565b620018bf565b73ffffffffffffffffffffffffffffffffffffffff80831660009081526003602090815260408083208584528252808320549183905290912054909116801562000497576040517efdd58e00000000000000000000000000000000000000000000000000000000815273ffffffffffffffffffffffffffffffffffffffff85811660048301526024820185905282169062fdd58e9060440160206040518083038186803b1580156200044d57600080fd5b505afa15801562000462573d6000803e3d6000fd5b505050506040513d601f19601f8201168201806040525081019062000488919062001e5e565b6200049490836200206b565b91505b5092915050565b6040517f5dd8f6aa000000000000000000000000000000000000000000000000000000008152600481018490526000908490339073ffffffffffffffffffffffffffffffffffffffff7f00000000000000000000000000000000000000000000000000000000000000001690635dd8f6aa9060240160206040518083038186803b1580156200052c57600080fd5b505afa15801562000541573d6000803e3d6000fd5b505050506040513d601f19601f8201168201806040525081019062000567919062001cda565b73ffffffffffffffffffffffffffffffffffffffff1614620005b5576040517fab7f741400000000000000000000000000000000000000000000000000000000815260040160405180910390fd5b73ffffffffffffffffffffffffffffffffffffffff8416158015620005e8575060008581526004602052604090205460ff165b1562000620576040517fd4ae123800000000000000000000000000000000000000000000000000000000815260040160405180910390fd5b73ffffffffffffffffffffffffffffffffffffffff8416600090815260016020526040902054156200067e576040517f1379a84600000000000000000000000000000000000000000000000000000000815260040160405180910390fd5b73ffffffffffffffffffffffffffffffffffffffff8416158015906200072957508373ffffffffffffffffffffffffffffffffffffffff1663313ce5676040518163ffffffff1660e01b815260040160206040518083038186803b158015620006e657600080fd5b505afa158015620006fb573d6000803e3d6000fd5b505050506040513d601f19601f8201168201806040525081019062000721919062001f73565b60ff16601214155b1562000761576040517fadc38c9400000000000000000000000000000000000000000000000000000000815260040160405180910390fd5b6000858152602081905260409020805473ffffffffffffffffffffffffffffffffffffffff8681167fffffffffffffffffffffffff00000000000000000000000000000000000000008316811790935516925015620007e35773ffffffffffffffffffffffffffffffffffffffff841660009081526001602052604090208590555b73ffffffffffffffffffffffffffffffffffffffff821615620008275773ffffffffffffffffffffffffffffffffffffffff82166000908152600160205260408120555b73ffffffffffffffffffffffffffffffffffffffff83161580159062000862575073ffffffffffffffffffffffffffffffffffffffff821615155b15620008ec576040517ff2fde38b00000000000000000000000000000000000000000000000000000000815273ffffffffffffffffffffffffffffffffffffffff848116600483015283169063f2fde38b90602401600060405180830381600087803b158015620008d257600080fd5b505af1158015620008e7573d6000803e3d6000fd5b505050505b6040805173ffffffffffffffffffffffffffffffffffffffff8581168252336020830152808516929087169188917f53b937570201bb723ab1530f41c21f62fba8df64afef862cb0a6f4eccc3094dc910160405180910390a4509392505050565b8282600b6200095e83838362001a67565b60008581526020819052604090205473ffffffffffffffffffffffffffffffffffffffff1680620009bb576040517f73c463ce00000000000000000000000000000000000000000000000000000000815260040160405180910390fd5b73ffffffffffffffffffffffffffffffffffffffff871660009081526003602090815260408083208984529091529020548581101562000a27576040517f83fc8b2d00000000000000000000000000000000000000000000000000000000815260040160405180910390fd5b73ffffffffffffffffffffffffffffffffffffffff881660009081526003602090815260408083208a845290915290205462000a6590879062002086565b73ffffffffffffffffffffffffffffffffffffffff891660009081526003602090815260408083208b845282528083209390935560029052205462000aac90879062002086565b6000888152600260205260409081902091909155517f836a10400000000000000000000000000000000000000000000000000000000081526004810188905273ffffffffffffffffffffffffffffffffffffffff89811660248301526044820188905283169063836a104090606401600060405180830381600087803b15801562000b3657600080fd5b505af115801562000b4b573d6000803e3d6000fd5b505060408051848152602081018a9052338183015290518a935073ffffffffffffffffffffffffffffffffffffffff8c1692507fe718784128df3c3d45fbd6519133fee450494f7cdb2b53830a5087cd47f980829181900360600190a35050505050505050565b600081815260026020908152604080832054918390529091205473ffffffffffffffffffffffffffffffffffffffff16801562000c9a576040517fbd85b0390000000000000000000000000000000000000000000000000000000081526004810184905273ffffffffffffffffffffffffffffffffffffffff82169063bd85b0399060240160206040518083038186803b15801562000c5057600080fd5b505afa15801562000c65573d6000803e3d6000fd5b505050506040513d601f19601f8201168201806040525081019062000c8b919062001e5e565b62000c9790836200206b565b91505b50919050565b6040517f5dd8f6aa000000000000000000000000000000000000000000000000000000008152600481018490528390339073ffffffffffffffffffffffffffffffffffffffff7f00000000000000000000000000000000000000000000000000000000000000001690635dd8f6aa9060240160206040518083038186803b15801562000d2b57600080fd5b505afa15801562000d40573d6000803e3d6000fd5b505050506040513d601f19601f8201168201806040525081019062000d66919062001cda565b73ffffffffffffffffffffffffffffffffffffffff161462000db4576040517fab7f741400000000000000000000000000000000000000000000000000000000815260040160405180910390fd5b6000848152602081815260408083205473ffffffffffffffffffffffffffffffffffffffff89811685526003845282852089865290935290832054911691821562000ea7576040517efdd58e00000000000000000000000000000000000000000000000000000000815273ffffffffffffffffffffffffffffffffffffffff89811660048301526024820189905284169062fdd58e9060440160206040518083038186803b15801562000e6657600080fd5b505afa15801562000e7b573d6000803e3d6000fd5b505050506040513d601f19601f8201168201806040525081019062000ea1919062001e5e565b62000eaa565b60005b905062000eb882826200206b565b86111562000ef2576040517fe793143800000000000000000000000000000000000000000000000000000000815260040160405180910390fd5b60008162000f035750600062000f42565b851562000f235786821062000f19578662000f1b565b815b905062000f42565b86831062000f3357600062000f3f565b62000f3f838862002086565b90505b600062000f50828962002086565b9050801562000fee5773ffffffffffffffffffffffffffffffffffffffff8a1660009081526003602090815260408083208c845290915290205462000f9790829062002086565b73ffffffffffffffffffffffffffffffffffffffff8b1660009081526003602090815260408083208d845282528083209390935560029052205462000fde90829062002086565b60008a8152600260205260409020555b811562001087576040517f9eea5f66000000000000000000000000000000000000000000000000000000008152600481018a905273ffffffffffffffffffffffffffffffffffffffff8b8116602483015260448201849052861690639eea5f6690606401600060405180830381600087803b1580156200106d57600080fd5b505af115801562001082573d6000803e3d6000fd5b505050505b60408051898152602081018690529081018490528715156060820152336080820152899073ffffffffffffffffffffffffffffffffffffffff8c16907fbe100da6adaa492f7ba1b0de916ae2606126ec7b044d7aa8ec74971a607ceecd9060a00160405180910390a350505050505050505050565b6040517f5dd8f6aa000000000000000000000000000000000000000000000000000000008152600481018690526000908690339073ffffffffffffffffffffffffffffffffffffffff7f00000000000000000000000000000000000000000000000000000000000000001690635dd8f6aa9060240160206040518083038186803b1580156200118a57600080fd5b505afa1580156200119f573d6000803e3d6000fd5b505050506040513d601f19601f82011682018060405250810190620011c5919062001cda565b73ffffffffffffffffffffffffffffffffffffffff161462001213576040517fab7f741400000000000000000000000000000000000000000000000000000000815260040160405180910390fd5b846200124b576040517f92bf449d00000000000000000000000000000000000000000000000000000000815260040160405180910390fd5b8262001283576040517f571431a700000000000000000000000000000000000000000000000000000000815260040160405180910390fd5b60008781526020819052604090205473ffffffffffffffffffffffffffffffffffffffff1615620012e0576040517fa54630ac00000000000000000000000000000000000000000000000000000000815260040160405180910390fd5b85858585604051620012f29062001c80565b62001301949392919062001fe1565b604051809103906000f0801580156200131e573d6000803e3d6000fd5b5060008881526020818152604080832080547fffffffffffffffffffffffff00000000000000000000000000000000000000001673ffffffffffffffffffffffffffffffffffffffff86169081179091558084526001909252918290208a905590519193509088907f1b1705bef26552c8f314c5eb80e9c84f02876c2f7f30a7f9ad5cafd17d5fa6da90620013bd908a908a908a908a90339062002017565b60405180910390a35095945050505050565b8383600c620013e083838362001a67565b73ffffffffffffffffffffffffffffffffffffffff85166200142e576040517fc6587bab00000000000000000000000000000000000000000000000000000000815260040160405180910390fd5b73ffffffffffffffffffffffffffffffffffffffff87166000908152600360209081526040808320898452909152902054808511156200149a576040517f83fc8b2d00000000000000000000000000000000000000000000000000000000815260040160405180910390fd5b73ffffffffffffffffffffffffffffffffffffffff881660009081526003602090815260408083208a8452909152902054620014d890869062002086565b73ffffffffffffffffffffffffffffffffffffffff808a1660009081526003602081815260408084208d8552825280842095909555928a16825282528281208a825290915220546200152c9086906200206b565b73ffffffffffffffffffffffffffffffffffffffff87811660008181526003602090815260408083208d8452825291829020949094558051898152339481019490945290928a928c16917fae47e55abe3902569528abe4272b889079230a248aec0659a2939a90354982c6910160405180910390a45050505050505050565b6040517f5dd8f6aa000000000000000000000000000000000000000000000000000000008152600481018490528390339073ffffffffffffffffffffffffffffffffffffffff7f00000000000000000000000000000000000000000000000000000000000000001690635dd8f6aa9060240160206040518083038186803b1580156200163657600080fd5b505afa1580156200164b573d6000803e3d6000fd5b505050506040513d601f19601f8201168201806040525081019062001671919062001cda565b73ffffffffffffffffffffffffffffffffffffffff1614620016bf576040517fab7f741400000000000000000000000000000000000000000000000000000000815260040160405180910390fd5b60008481526020818152604080832054600490925282205473ffffffffffffffffffffffffffffffffffffffff909116919060ff1680620016fd5750835b80156200171f575073ffffffffffffffffffffffffffffffffffffffff821615155b90508015620017bf576040517f836a10400000000000000000000000000000000000000000000000000000000081526004810187905273ffffffffffffffffffffffffffffffffffffffff88811660248301526044820187905283169063836a104090606401600060405180830381600087803b158015620017a057600080fd5b505af1158015620017b5573d6000803e3d6000fd5b5050505062001854565b73ffffffffffffffffffffffffffffffffffffffff87166000908152600360209081526040808320898452909152902054620017fd9086906200206b565b73ffffffffffffffffffffffffffffffffffffffff881660009081526003602090815260408083208a8452825280832093909355600290522054620018449086906200206b565b6000878152600260205260409020555b604080518681528215156020820152851515818301523360608201529051879173ffffffffffffffffffffffffffffffffffffffff8a16917f5dd3ead325af435e56bc762b40de54c96de6071938d18a26414245807591d86f9181900360800190a350505050505050565b6040517f6352211e000000000000000000000000000000000000000000000000000000008152600481018390527f000000000000000000000000000000000000000000000000000000000000000073ffffffffffffffffffffffffffffffffffffffff1690636352211e9060240160206040518083038186803b1580156200194657600080fd5b505afa1580156200195b573d6000803e3d6000fd5b505050506040513d601f19601f8201168201806040525081019062001981919062001cda565b82600d6200199183838362001a67565b60008581526020819052604090205473ffffffffffffffffffffffffffffffffffffffff1680620019ee576040517f73c463ce00000000000000000000000000000000000000000000000000000000815260040160405180910390fd5b60008681526004602090815260409182902080547fffffffffffffffffffffffffffffffffffffffffffffffffffffffffffffff0016881515908117909155915133815288917f91c234a3a3ebdc00c9bbd80f24661ca100d784b6d9f53923b3a693344719e08c910160405180910390a3505050505050565b3373ffffffffffffffffffffffffffffffffffffffff84161480159062001b6257506040517fc161c93f00000000000000000000000000000000000000000000000000000000815233600482015273ffffffffffffffffffffffffffffffffffffffff848116602483015260448201849052606482018390527f0000000000000000000000000000000000000000000000000000000000000000169063c161c93f9060840160206040518083038186803b15801562001b2557600080fd5b505afa15801562001b3a573d6000803e3d6000fd5b505050506040513d601f19601f8201168201806040525081019062001b60919062001e04565b155b801562001c4357506040517fc161c93f00000000000000000000000000000000000000000000000000000000815233600482015273ffffffffffffffffffffffffffffffffffffffff848116602483015260006044830152606482018390527f0000000000000000000000000000000000000000000000000000000000000000169063c161c93f9060840160206040518083038186803b15801562001c0657600080fd5b505afa15801562001c1b573d6000803e3d6000fd5b505050506040513d601f19601f8201168201806040525081019062001c41919062001e04565b155b1562001c7b576040517f075fd2b100000000000000000000000000000000000000000000000000000000815260040160405180910390fd5b505050565b612153806200210583390190565b60008083601f84011262001ca157600080fd5b50813567ffffffffffffffff81111562001cba57600080fd5b60208301915083602082850101111562001cd357600080fd5b9250929050565b60006020828403121562001ced57600080fd5b815162001cfa81620020cf565b9392505050565b6000806040838503121562001d1557600080fd5b823562001d2281620020cf565b946020939093013593505050565b6000806000806080858703121562001d4757600080fd5b843562001d5481620020cf565b935060208501359250604085013562001d6d81620020cf565b9396929550929360600135925050565b60008060006060848603121562001d9357600080fd5b833562001da081620020cf565b95602085013595506040909401359392505050565b6000806000806080858703121562001dcc57600080fd5b843562001dd981620020cf565b93506020850135925060408501359150606085013562001df981620020f5565b939692955090935050565b60006020828403121562001e1757600080fd5b815162001cfa81620020f5565b60006020828403121562001e3757600080fd5b813562001cfa81620020cf565b60006020828403121562001e5757600080fd5b5035919050565b60006020828403121562001e7157600080fd5b5051919050565b6000806040838503121562001e8c57600080fd5b82359150602083013562001ea081620020f5565b809150509250929050565b60008060006060848603121562001ec157600080fd5b83359250602084013562001ed581620020cf565b9150604084013562001ee781620020cf565b809150509250925092565b60008060008060006060868803121562001f0b57600080fd5b85359450602086013567ffffffffffffffff8082111562001f2b57600080fd5b62001f3989838a0162001c8e565b9096509450604088013591508082111562001f5357600080fd5b5062001f628882890162001c8e565b969995985093965092949392505050565b60006020828403121562001f8657600080fd5b815160ff8116811462001cfa57600080fd5b8183528181602085013750600060208284010152600060207fffffffffffffffffffffffffffffffffffffffffffffffffffffffffffffffe0601f840116840101905092915050565b60408152600062001ff760408301868862001f98565b82810360208401526200200c81858762001f98565b979650505050505050565b6060815260006200202d60608301878962001f98565b82810360208401526200204281868862001f98565b91505073ffffffffffffffffffffffffffffffffffffffff831660408301529695505050505050565b60008219821115620020815762002081620020a0565b500190565b6000828210156200209b576200209b620020a0565b500390565b7f4e487b7100000000000000000000000000000000000000000000000000000000600052601160045260246000fd5b73ffffffffffffffffffffffffffffffffffffffff81168114620020f257600080fd5b50565b8015158114620020f257600080fdfe6101606040527f6e71edae12b1b97f4d1f60370fef10105fa2faae0126114a169c64845d6126c9610140523480156200003757600080fd5b5060405162002153380380620021538339810160408190526200005a9162000310565b8180604051806040016040528060018152602001603160f81b8152508484816003908051906020019062000090929190620001b3565b508051620000a6906004906020840190620001b3565b5050825160208085019190912083518483012060e08290526101008190524660a0818152604080517f8b73c3c69bb8fe3d512ecc4cf759cc79239f7b179b0ffacaa9a75d522b39400f81880181905281830187905260608201869052608082019490945230818401528151808203909301835260c0019052805194019390932091935091906080523060601b60c05261012052506200015593506200014f9250506200015d9050565b62000161565b5050620003cd565b3390565b600680546001600160a01b038381166001600160a01b0319831681179093556040519116919082907f8be0079c531659141344cd1fd0a4f28419497f9722a3daafe3b4186f6b6457e090600090a35050565b828054620001c1906200037a565b90600052602060002090601f016020900481019282620001e5576000855562000230565b82601f106200020057805160ff191683800117855562000230565b8280016001018555821562000230579182015b828111156200023057825182559160200191906001019062000213565b506200023e92915062000242565b5090565b5b808211156200023e576000815560010162000243565b600082601f8301126200026b57600080fd5b81516001600160401b0380821115620002885762000288620003b7565b604051601f8301601f19908116603f01168101908282118183101715620002b357620002b3620003b7565b81604052838152602092508683858801011115620002d057600080fd5b600091505b83821015620002f45785820183015181830184015290820190620002d5565b83821115620003065760008385830101525b9695505050505050565b600080604083850312156200032457600080fd5b82516001600160401b03808211156200033c57600080fd5b6200034a8683870162000259565b935060208501519150808211156200036157600080fd5b50620003708582860162000259565b9150509250929050565b600181811c908216806200038f57607f821691505b60208210811415620003b157634e487b7160e01b600052602260045260246000fd5b50919050565b634e487b7160e01b600052604160045260246000fd5b60805160a05160c05160601c60e051610100516101205161014051611d286200042b60003960006109680152600061104d0152600061109c0152600061107701526000610fd001526000610ffa015260006110240152611d286000f3fe608060405234801561001057600080fd5b50600436106101975760003560e01c8063836a1040116100e3578063a9059cbb1161008c578063dd62ed3e11610066578063dd62ed3e1461035a578063f2fde38b146103a0578063f8548e36146103b357600080fd5b8063a9059cbb14610321578063bd85b03914610334578063d505accf1461034757600080fd5b806395d89b41116100bd57806395d89b41146102f35780639eea5f66146102fb578063a457c2d71461030e57600080fd5b8063836a1040146102a55780638cb0a511146102b85780638da5cb5b146102cb57600080fd5b8063313ce5671161014557806370a082311161011f57806370a0823114610254578063715018a61461028a5780637ecebe001461029257600080fd5b8063313ce5671461022a5780633644e51514610239578063395093511461024157600080fd5b806318160ddd1161017657806318160ddd146101fa5780631c0f12b61461020257806323b872dd1461021757600080fd5b8062fdd58e1461019c57806306fdde03146101c2578063095ea7b3146101d7575b600080fd5b6101af6101aa366004611af8565b6103c6565b6040519081526020015b60405180910390f35b6101ca6103f4565b6040516101b99190611ba4565b6101ea6101e5366004611af8565b610486565b60405190151581526020016101b9565b6002546101af565b610215610210366004611b3b565b61049c565b005b6101ea610225366004611a49565b6104ae565b604051601281526020016101b9565b6101af6105c3565b6101ea61024f366004611af8565b6105cd565b6101af6102623660046119fb565b73ffffffffffffffffffffffffffffffffffffffff1660009081526020819052604090205490565b610215610616565b6101af6102a03660046119fb565b6106a3565b6102156102b3366004611b7f565b6106d0565b6102156102c6366004611b7f565b610760565b60065460405173ffffffffffffffffffffffffffffffffffffffff90911681526020016101b9565b6101ca610770565b610215610309366004611b7f565b61077f565b6101ea61031c366004611af8565b61080a565b6101ea61032f366004611af8565b6108e2565b6101af610342366004611b22565b6108ef565b610215610355366004611a85565b6108fa565b6101af610368366004611a16565b73ffffffffffffffffffffffffffffffffffffffff918216600090815260016020908152604080832093909416825291909152205490565b6102156103ae3660046119fb565b610ab9565b6102156103c1366004611b7f565b610b46565b73ffffffffffffffffffffffffffffffffffffffff82166000908152602081905260408120545b9392505050565b60606003805461040390611c46565b80601f016020809104026020016040519081016040528092919081815260200182805461042f90611c46565b801561047c5780601f106104515761010080835404028352916020019161047c565b820191906000526020600020905b81548152906001019060200180831161045f57829003601f168201915b5050505050905090565b6000610493338484610b50565b50600192915050565b6104a78383836104ae565b5050505050565b73ffffffffffffffffffffffffffffffffffffffff831660009081526001602090815260408083203384529091528120547fffffffffffffffffffffffffffffffffffffffffffffffffffffffffffffffff81146105a8578281101561059b576040517f08c379a000000000000000000000000000000000000000000000000000000000815260206004820152602860248201527f45524332303a207472616e7366657220616d6f756e742065786365656473206160448201527f6c6c6f77616e636500000000000000000000000000000000000000000000000060648201526084015b60405180910390fd5b6105a88533858403610b50565b6105b3858585610d03565b506001949350505050565b905090565b60006105be610fb6565b33600081815260016020908152604080832073ffffffffffffffffffffffffffffffffffffffff871684529091528120549091610493918590610611908690611c17565b610b50565b60065473ffffffffffffffffffffffffffffffffffffffff163314610697576040517f08c379a000000000000000000000000000000000000000000000000000000000815260206004820181905260248201527f4f776e61626c653a2063616c6c6572206973206e6f7420746865206f776e65726044820152606401610592565b6106a160006110ea565b565b73ffffffffffffffffffffffffffffffffffffffff81166000908152600560205260408120545b92915050565b60065473ffffffffffffffffffffffffffffffffffffffff163314610751576040517f08c379a000000000000000000000000000000000000000000000000000000000815260206004820181905260248201527f4f776e61626c653a2063616c6c6572206973206e6f7420746865206f776e65726044820152606401610592565b61075b8282611161565b505050565b61076a8282610486565b50505050565b60606004805461040390611c46565b60065473ffffffffffffffffffffffffffffffffffffffff163314610800576040517f08c379a000000000000000000000000000000000000000000000000000000000815260206004820181905260248201527f4f776e61626c653a2063616c6c6572206973206e6f7420746865206f776e65726044820152606401610592565b61075b8282611281565b33600090815260016020908152604080832073ffffffffffffffffffffffffffffffffffffffff86168452909152812054828110156108cb576040517f08c379a000000000000000000000000000000000000000000000000000000000815260206004820152602560248201527f45524332303a2064656372656173656420616c6c6f77616e63652062656c6f7760448201527f207a65726f0000000000000000000000000000000000000000000000000000006064820152608401610592565b6108d83385858403610b50565b5060019392505050565b6000610493338484610d03565b60006106ca60025490565b83421115610964576040517f08c379a000000000000000000000000000000000000000000000000000000000815260206004820152601d60248201527f45524332305065726d69743a206578706972656420646561646c696e650000006044820152606401610592565b60007f00000000000000000000000000000000000000000000000000000000000000008888886109938c61146e565b60408051602081019690965273ffffffffffffffffffffffffffffffffffffffff94851690860152929091166060840152608083015260a082015260c0810186905260e00160405160208183030381529060405280519060200120905060006109fb826114a3565b90506000610a0b8287878761150c565b90508973ffffffffffffffffffffffffffffffffffffffff168173ffffffffffffffffffffffffffffffffffffffff1614610aa2576040517f08c379a000000000000000000000000000000000000000000000000000000000815260206004820152601e60248201527f45524332305065726d69743a20696e76616c6964207369676e617475726500006044820152606401610592565b610aad8a8a8a610b50565b50505050505050505050565b60065473ffffffffffffffffffffffffffffffffffffffff163314610b3a576040517f08c379a000000000000000000000000000000000000000000000000000000000815260206004820181905260248201527f4f776e61626c653a2063616c6c6572206973206e6f7420746865206f776e65726044820152606401610592565b610b4381611534565b50565b61076a82826108e2565b73ffffffffffffffffffffffffffffffffffffffff8316610bf2576040517f08c379a0000000000000000000000000000000000000000000000000000000008152602060048201526024808201527f45524332303a20617070726f76652066726f6d20746865207a65726f2061646460448201527f72657373000000000000000000000000000000000000000000000000000000006064820152608401610592565b73ffffffffffffffffffffffffffffffffffffffff8216610c95576040517f08c379a000000000000000000000000000000000000000000000000000000000815260206004820152602260248201527f45524332303a20617070726f766520746f20746865207a65726f20616464726560448201527f73730000000000000000000000000000000000000000000000000000000000006064820152608401610592565b73ffffffffffffffffffffffffffffffffffffffff83811660008181526001602090815260408083209487168084529482529182902085905590518481527f8c5be1e5ebec7d5bd14f71427d1e84f3dd0314c0f7b2291e5b200ac8c7c3b925910160405180910390a3505050565b73ffffffffffffffffffffffffffffffffffffffff8316610da6576040517f08c379a000000000000000000000000000000000000000000000000000000000815260206004820152602560248201527f45524332303a207472616e736665722066726f6d20746865207a65726f20616460448201527f64726573730000000000000000000000000000000000000000000000000000006064820152608401610592565b73ffffffffffffffffffffffffffffffffffffffff8216610e49576040517f08c379a000000000000000000000000000000000000000000000000000000000815260206004820152602360248201527f45524332303a207472616e7366657220746f20746865207a65726f206164647260448201527f65737300000000000000000000000000000000000000000000000000000000006064820152608401610592565b73ffffffffffffffffffffffffffffffffffffffff831660009081526020819052604090205481811015610eff576040517f08c379a000000000000000000000000000000000000000000000000000000000815260206004820152602660248201527f45524332303a207472616e7366657220616d6f756e742065786365656473206260448201527f616c616e636500000000000000000000000000000000000000000000000000006064820152608401610592565b73ffffffffffffffffffffffffffffffffffffffff808516600090815260208190526040808220858503905591851681529081208054849290610f43908490611c17565b925050819055508273ffffffffffffffffffffffffffffffffffffffff168473ffffffffffffffffffffffffffffffffffffffff167fddf252ad1be2c89b69c2b068fc378daa952ba7f163c4a11628f55a4df523b3ef84604051610fa991815260200190565b60405180910390a361076a565b60003073ffffffffffffffffffffffffffffffffffffffff7f00000000000000000000000000000000000000000000000000000000000000001614801561101c57507f000000000000000000000000000000000000000000000000000000000000000046145b1561104657507f000000000000000000000000000000000000000000000000000000000000000090565b50604080517f00000000000000000000000000000000000000000000000000000000000000006020808301919091527f0000000000000000000000000000000000000000000000000000000000000000828401527f000000000000000000000000000000000000000000000000000000000000000060608301524660808301523060a0808401919091528351808403909101815260c0909201909252805191012090565b6006805473ffffffffffffffffffffffffffffffffffffffff8381167fffffffffffffffffffffffff0000000000000000000000000000000000000000831681179093556040519116919082907f8be0079c531659141344cd1fd0a4f28419497f9722a3daafe3b4186f6b6457e090600090a35050565b73ffffffffffffffffffffffffffffffffffffffff82166111de576040517f08c379a000000000000000000000000000000000000000000000000000000000815260206004820152601f60248201527f45524332303a206d696e7420746f20746865207a65726f2061646472657373006044820152606401610592565b80600260008282546111f09190611c17565b909155505073ffffffffffffffffffffffffffffffffffffffff82166000908152602081905260408120805483929061122a908490611c17565b909155505060405181815273ffffffffffffffffffffffffffffffffffffffff8316906000907fddf252ad1be2c89b69c2b068fc378daa952ba7f163c4a11628f55a4df523b3ef9060200160405180910390a35050565b73ffffffffffffffffffffffffffffffffffffffff8216611324576040517f08c379a000000000000000000000000000000000000000000000000000000000815260206004820152602160248201527f45524332303a206275726e2066726f6d20746865207a65726f2061646472657360448201527f73000000000000000000000000000000000000000000000000000000000000006064820152608401610592565b73ffffffffffffffffffffffffffffffffffffffff8216600090815260208190526040902054818110156113da576040517f08c379a000000000000000000000000000000000000000000000000000000000815260206004820152602260248201527f45524332303a206275726e20616d6f756e7420657863656564732062616c616e60448201527f63650000000000000000000000000000000000000000000000000000000000006064820152608401610592565b73ffffffffffffffffffffffffffffffffffffffff83166000908152602081905260408120838303905560028054849290611416908490611c2f565b909155505060405182815260009073ffffffffffffffffffffffffffffffffffffffff8516907fddf252ad1be2c89b69c2b068fc378daa952ba7f163c4a11628f55a4df523b3ef9060200160405180910390a3505050565b73ffffffffffffffffffffffffffffffffffffffff811660009081526005602052604090208054600181018255905b50919050565b60006106ca6114b0610fb6565b836040517f19010000000000000000000000000000000000000000000000000000000000006020820152602281018390526042810182905260009060620160405160208183030381529060405280519060200120905092915050565b600080600061151d87878787611661565b9150915061152a81611779565b5095945050505050565b60065473ffffffffffffffffffffffffffffffffffffffff1633146115b5576040517f08c379a000000000000000000000000000000000000000000000000000000000815260206004820181905260248201527f4f776e61626c653a2063616c6c6572206973206e6f7420746865206f776e65726044820152606401610592565b73ffffffffffffffffffffffffffffffffffffffff8116611658576040517f08c379a000000000000000000000000000000000000000000000000000000000815260206004820152602660248201527f4f776e61626c653a206e6577206f776e657220697320746865207a65726f206160448201527f64647265737300000000000000000000000000000000000000000000000000006064820152608401610592565b610b43816110ea565b6000807f7fffffffffffffffffffffffffffffff5d576e7357a4501ddfe92f46681b20a08311156116985750600090506003611770565b8460ff16601b141580156116b057508460ff16601c14155b156116c15750600090506004611770565b6040805160008082526020820180845289905260ff881692820192909252606081018690526080810185905260019060a0016020604051602081039080840390855afa158015611715573d6000803e3d6000fd5b50506040517fffffffffffffffffffffffffffffffffffffffffffffffffffffffffffffffe0015191505073ffffffffffffffffffffffffffffffffffffffff811661176957600060019250925050611770565b9150600090505b94509492505050565b600081600481111561178d5761178d611cc3565b14156117965750565b60018160048111156117aa576117aa611cc3565b1415611812576040517f08c379a000000000000000000000000000000000000000000000000000000000815260206004820152601860248201527f45434453413a20696e76616c6964207369676e617475726500000000000000006044820152606401610592565b600281600481111561182657611826611cc3565b141561188e576040517f08c379a000000000000000000000000000000000000000000000000000000000815260206004820152601f60248201527f45434453413a20696e76616c6964207369676e6174757265206c656e677468006044820152606401610592565b60038160048111156118a2576118a2611cc3565b1415611930576040517f08c379a000000000000000000000000000000000000000000000000000000000815260206004820152602260248201527f45434453413a20696e76616c6964207369676e6174757265202773272076616c60448201527f75650000000000000000000000000000000000000000000000000000000000006064820152608401610592565b600481600481111561194457611944611cc3565b1415610b43576040517f08c379a000000000000000000000000000000000000000000000000000000000815260206004820152602260248201527f45434453413a20696e76616c6964207369676e6174757265202776272076616c60448201527f75650000000000000000000000000000000000000000000000000000000000006064820152608401610592565b803573ffffffffffffffffffffffffffffffffffffffff811681146119f657600080fd5b919050565b600060208284031215611a0d57600080fd5b6103ed826119d2565b60008060408385031215611a2957600080fd5b611a32836119d2565b9150611a40602084016119d2565b90509250929050565b600080600060608486031215611a5e57600080fd5b611a67846119d2565b9250611a75602085016119d2565b9150604084013590509250925092565b600080600080600080600060e0888a031215611aa057600080fd5b611aa9886119d2565b9650611ab7602089016119d2565b95506040880135945060608801359350608088013560ff81168114611adb57600080fd5b9699959850939692959460a0840135945060c09093013592915050565b60008060408385031215611b0b57600080fd5b611b14836119d2565b946020939093013593505050565b600060208284031215611b3457600080fd5b5035919050565b60008060008060808587031215611b5157600080fd5b84359350611b61602086016119d2565b9250611b6f604086016119d2565b9396929550929360600135925050565b600080600060608486031215611b9457600080fd5b83359250611a75602085016119d2565b600060208083528351808285015260005b81811015611bd157858101830151858201604001528201611bb5565b81811115611be3576000604083870101525b50601f017fffffffffffffffffffffffffffffffffffffffffffffffffffffffffffffffe016929092016040019392505050565b60008219821115611c2a57611c2a611c94565b500190565b600082821015611c4157611c41611c94565b500390565b600181811c90821680611c5a57607f821691505b6020821081141561149d577f4e487b7100000000000000000000000000000000000000000000000000000000600052602260045260246000fd5b7f4e487b7100000000000000000000000000000000000000000000000000000000600052601160045260246000fd5b7f4e487b7100000000000000000000000000000000000000000000000000000000600052602160045260246000fdfea2646970667358221220fa17f5f42438f27115a60b181d7eb369ddababa4ccd16948381268b59625411664736f6c63430008060033a26469706673582212209843fb35b16205328c771e7093d74615dee56a504dbf4bfaccbcacd97631f53f64736f6c63430008060033",
  "devdoc": {
    "details": "Token balances can be either represented internally or claimed as ERC-20s into wallets. This contract manages these two representations and allows claiming.The total supply of a project's tokens and the balance of each account are calculated in this contract.Each project can bring their own token if they prefer, and swap between tokens at any time.Adheres to: IJBTokenStore: General interface for the methods in this contract that interact with the blockchain's state according to the protocol's rules.Inherits from: JBControllerUtility: Includes convenience functionality for checking if the message sender is the current controller of the project whose data is being manipulated. JBOperatable: Includes convenience functionality for checking a message sender's permissions before executing certain transactions.",
    "kind": "dev",
    "methods": {
      "balanceOf(address,uint256)": {
        "params": {
          "_holder": "The token holder to get a balance for.",
          "_projectId": "The project to get the `_holder`s balance of."
        },
        "returns": {
          "balance": "The project token balance of the `_holder"
        }
      },
      "burnFrom(address,uint256,uint256,bool)": {
        "details": "Only a project's current controller can burn its tokens.",
        "params": {
          "_amount": "The amount of tokens to burn.",
          "_holder": "The address that owns the tokens being burned.",
          "_preferClaimedTokens": "A flag indicating whether there's a preference for tokens to burned from the `_holder`s wallet if the project currently has a token contract attached.",
          "_projectId": "The ID of the project to which the burned tokens belong."
        }
      },
      "changeFor(uint256,address,address)": {
        "details": "Only a project's current controller can change its token.This contract must have access to all of the token's `IJBToken` interface functions.Can't change to a token that's currently being used by another project.Changing to the zero address will remove the current token without adding a new one.",
        "params": {
          "_newOwner": "An address to transfer the current token's ownership to. This is optional, but it cannot be done later.",
          "_projectId": "The ID of the project to which the changed token belongs.",
          "_token": "The new token. Send an empty address to remove the project's current token without adding a new one, if claiming tokens isn't currency required by the project"
        },
        "returns": {
          "oldToken": "The token that was removed as the project's token."
        }
      },
      "claimFor(address,uint256,uint256)": {
        "details": "Only a token holder or an operator specified by the token holder can claim its unclaimed tokens.",
        "params": {
          "_amount": "The amount of tokens to claim.",
          "_holder": "The owner of the tokens being claimed.",
          "_projectId": "The ID of the project whose tokens are being claimed."
        }
      },
      "constructor": {
        "params": {
          "_directory": "A contract storing directories of terminals and controllers for each project.",
          "_operatorStore": "A contract storing operator assignments.",
          "_projects": "A contract which mints ERC-721's that represent project ownership and transfers."
        }
      },
      "issueFor(uint256,string,string)": {
        "details": "Deploys a project's ERC-20 token contract.Only a project's current controller can issue its token.",
        "params": {
          "_name": "The ERC-20's name.",
          "_projectId": "The ID of the project being issued tokens.",
          "_symbol": "The ERC-20's symbol."
        },
        "returns": {
          "token": "The token that was issued."
        }
      },
      "mintFor(address,uint256,uint256,bool)": {
        "details": "Only a project's current controller can mint its tokens.",
        "params": {
          "_amount": "The amount of tokens to mint.",
          "_holder": "The address receiving the new tokens.",
          "_preferClaimedTokens": "A flag indicating whether there's a preference for minted tokens to be claimed automatically into the `_holder`s wallet if the project currently has a token contract attached.",
          "_projectId": "The ID of the project to which the tokens belong."
        }
      },
      "shouldRequireClaimingFor(uint256,bool)": {
        "details": "Only a token holder or an operator can require claimed token.",
        "params": {
          "_flag": "A flag indicating whether or not claiming should be required.",
          "_projectId": "The ID of the project being affected."
        }
      },
      "totalSupplyOf(uint256)": {
        "params": {
          "_projectId": "The ID of the project to get the total token supply of."
        },
        "returns": {
          "totalSupply": "The total supply of the project's tokens."
        }
      },
      "transferFrom(address,uint256,address,uint256)": {
        "details": "Only a token holder or an operator can transfer its unclaimed tokens.",
        "params": {
          "_amount": "The amount of tokens to transfer.",
          "_holder": "The address to transfer tokens from.",
          "_projectId": "The ID of the project whose tokens are being transferred.",
          "_recipient": "The recipient of the tokens."
        }
      }
    },
    "version": 1
  },
  "userdoc": {
    "kind": "user",
    "methods": {
      "balanceOf(address,uint256)": {
        "notice": "The total balance of tokens a holder has for a specified project, including claimed and unclaimed tokens."
      },
      "burnFrom(address,uint256,uint256,bool)": {
        "notice": "Burns a project's tokens."
      },
      "changeFor(uint256,address,address)": {
        "notice": "Swap the current project's token for another, and transfer ownership of the current token to another address if needed."
      },
      "claimFor(address,uint256,uint256)": {
        "notice": "Claims internally accounted for tokens into a holder's wallet."
      },
      "directory()": {
        "notice": " The directory of terminals and controllers for projects."
      },
      "issueFor(uint256,string,string)": {
        "notice": "Issues a project's ERC-20 tokens that'll be used when claiming tokens."
      },
      "mintFor(address,uint256,uint256,bool)": {
        "notice": "Mint new project tokens."
      },
      "operatorStore()": {
        "notice": " A contract storing operator assignments."
      },
      "projectOf(address)": {
        "notice": "The ID of the project that each token belongs to. _token The token to check the project association of."
      },
      "projects()": {
        "notice": "Mints ERC-721's that represent project ownership and transfers."
      },
      "requireClaimFor(uint256)": {
        "notice": "A flag indicating if tokens are required to be issued as claimed for a particular project. _projectId The ID of the project to which the requirement applies."
      },
      "shouldRequireClaimingFor(uint256,bool)": {
        "notice": "Allows a project to force all future mints of its tokens to be claimed into the holder's wallet, or revoke the flag if it's already set."
      },
      "tokenOf(uint256)": {
        "notice": "Each project's attached token contract. _projectId The ID of the project to which the token belongs."
      },
      "totalSupplyOf(uint256)": {
        "notice": "The total supply of tokens for each project, including claimed and unclaimed tokens."
      },
      "transferFrom(address,uint256,address,uint256)": {
        "notice": "Allows a holder to transfer unclaimed tokens to another account."
      },
      "unclaimedBalanceOf(address,uint256)": {
        "notice": "Each holder's balance of unclaimed tokens for each project. _holder The holder of balance. _projectId The ID of the project to which the token belongs."
      },
      "unclaimedTotalSupplyOf(uint256)": {
        "notice": "The total supply of unclaimed tokens for each project. _projectId The ID of the project to which the token belongs."
      }
    },
    "notice": "Manage token minting, burning, and account balances.",
    "version": 1
  },
  "storageLayout": {
    "storage": [
      {
        "astId": 12918,
        "contract": "contracts/JBTokenStore.sol:JBTokenStore",
        "label": "tokenOf",
        "offset": 0,
        "slot": "0",
        "type": "t_mapping(t_uint256,t_contract(IJBToken)18130)"
      },
      {
        "astId": 12925,
        "contract": "contracts/JBTokenStore.sol:JBTokenStore",
        "label": "projectOf",
        "offset": 0,
        "slot": "1",
        "type": "t_mapping(t_contract(IJBToken)18130,t_uint256)"
      },
      {
        "astId": 12931,
        "contract": "contracts/JBTokenStore.sol:JBTokenStore",
        "label": "unclaimedTotalSupplyOf",
        "offset": 0,
        "slot": "2",
        "type": "t_mapping(t_uint256,t_uint256)"
      },
      {
        "astId": 12939,
        "contract": "contracts/JBTokenStore.sol:JBTokenStore",
        "label": "unclaimedBalanceOf",
        "offset": 0,
        "slot": "3",
        "type": "t_mapping(t_address,t_mapping(t_uint256,t_uint256))"
      },
      {
        "astId": 12945,
        "contract": "contracts/JBTokenStore.sol:JBTokenStore",
        "label": "requireClaimFor",
        "offset": 0,
        "slot": "4",
        "type": "t_mapping(t_uint256,t_bool)"
      }
    ],
    "types": {
      "t_address": {
        "encoding": "inplace",
        "label": "address",
        "numberOfBytes": "20"
      },
      "t_bool": {
        "encoding": "inplace",
        "label": "bool",
        "numberOfBytes": "1"
      },
      "t_contract(IJBToken)18130": {
        "encoding": "inplace",
        "label": "contract IJBToken",
        "numberOfBytes": "20"
      },
      "t_mapping(t_address,t_mapping(t_uint256,t_uint256))": {
        "encoding": "mapping",
        "key": "t_address",
        "label": "mapping(address => mapping(uint256 => uint256))",
        "numberOfBytes": "32",
        "value": "t_mapping(t_uint256,t_uint256)"
      },
      "t_mapping(t_contract(IJBToken)18130,t_uint256)": {
        "encoding": "mapping",
        "key": "t_contract(IJBToken)18130",
        "label": "mapping(contract IJBToken => uint256)",
        "numberOfBytes": "32",
        "value": "t_uint256"
      },
      "t_mapping(t_uint256,t_bool)": {
        "encoding": "mapping",
        "key": "t_uint256",
        "label": "mapping(uint256 => bool)",
        "numberOfBytes": "32",
        "value": "t_bool"
      },
      "t_mapping(t_uint256,t_contract(IJBToken)18130)": {
        "encoding": "mapping",
        "key": "t_uint256",
        "label": "mapping(uint256 => contract IJBToken)",
        "numberOfBytes": "32",
        "value": "t_contract(IJBToken)18130"
      },
      "t_mapping(t_uint256,t_uint256)": {
        "encoding": "mapping",
        "key": "t_uint256",
        "label": "mapping(uint256 => uint256)",
        "numberOfBytes": "32",
        "value": "t_uint256"
      },
      "t_uint256": {
        "encoding": "inplace",
        "label": "uint256",
        "numberOfBytes": "32"
      }
    }
  }
}