{
  "address": "0xBd0A8D0617eea36A4399d3d61027e338c4Faa36f",
  "abi": [
    {
      "inputs": [
        {
          "internalType": "contract IJBOperatorStore",
          "name": "_operatorStore",
          "type": "address"
        },
        {
          "internalType": "contract IJBProjects",
          "name": "_projects",
          "type": "address"
        },
        {
          "internalType": "contract IJBDirectory",
          "name": "_directory",
          "type": "address"
        }
      ],
      "stateMutability": "nonpayable",
      "type": "constructor"
    },
    {
      "inputs": [],
      "name": "CONTROLLER_UNAUTHORIZED",
      "type": "error"
    },
    {
      "inputs": [],
      "name": "EMPTY_NAME",
      "type": "error"
    },
    {
      "inputs": [],
      "name": "EMPTY_SYMBOL",
      "type": "error"
    },
    {
      "inputs": [],
      "name": "INSUFFICIENT_FUNDS",
      "type": "error"
    },
    {
      "inputs": [],
      "name": "INSUFFICIENT_UNCLAIMED_TOKENS",
      "type": "error"
    },
    {
      "inputs": [],
      "name": "INVALID_RECIPIENT",
      "type": "error"
    },
    {
      "inputs": [],
      "name": "RECIPIENT_ZERO_ADDRESS",
      "type": "error"
    },
    {
      "inputs": [],
      "name": "TOKEN_ALREADY_ISSUED",
      "type": "error"
    },
    {
      "inputs": [],
      "name": "TOKEN_AMOUNT_ZERO",
      "type": "error"
    },
    {
      "inputs": [],
      "name": "TOKEN_NOT_FOUND",
      "type": "error"
    },
    {
      "inputs": [],
      "name": "UNAUTHORIZED",
      "type": "error"
    },
    {
      "anonymous": false,
      "inputs": [
        {
          "indexed": true,
          "internalType": "address",
          "name": "holder",
          "type": "address"
        },
        {
          "indexed": true,
          "internalType": "uint256",
          "name": "projectId",
          "type": "uint256"
        },
        {
          "indexed": false,
          "internalType": "uint256",
          "name": "amount",
          "type": "uint256"
        },
        {
          "indexed": false,
          "internalType": "uint256",
          "name": "unclaimedTokenBalance",
          "type": "uint256"
        },
        {
          "indexed": false,
          "internalType": "bool",
          "name": "preferClaimedTokens",
          "type": "bool"
        },
        {
          "indexed": false,
          "internalType": "address",
          "name": "caller",
          "type": "address"
        }
      ],
      "name": "Burn",
      "type": "event"
    },
    {
      "anonymous": false,
      "inputs": [
        {
          "indexed": true,
          "internalType": "uint256",
          "name": "projectId",
          "type": "uint256"
        },
        {
          "indexed": true,
          "internalType": "contract IJBToken",
          "name": "token",
          "type": "address"
        },
        {
          "indexed": true,
          "internalType": "address",
          "name": "owner",
          "type": "address"
        },
        {
          "indexed": false,
          "internalType": "address",
          "name": "caller",
          "type": "address"
        }
      ],
      "name": "Change",
      "type": "event"
    },
    {
      "anonymous": false,
      "inputs": [
        {
          "indexed": true,
          "internalType": "address",
          "name": "holder",
          "type": "address"
        },
        {
          "indexed": true,
          "internalType": "uint256",
          "name": "projectId",
          "type": "uint256"
        },
        {
          "indexed": false,
          "internalType": "uint256",
          "name": "amount",
          "type": "uint256"
        },
        {
          "indexed": false,
          "internalType": "address",
          "name": "caller",
          "type": "address"
        }
      ],
      "name": "Claim",
      "type": "event"
    },
    {
      "anonymous": false,
      "inputs": [
        {
          "indexed": true,
          "internalType": "uint256",
          "name": "projectId",
          "type": "uint256"
        },
        {
          "indexed": true,
          "internalType": "contract IJBToken",
          "name": "token",
          "type": "address"
        },
        {
          "indexed": false,
          "internalType": "string",
          "name": "name",
          "type": "string"
        },
        {
          "indexed": false,
          "internalType": "string",
          "name": "symbol",
          "type": "string"
        },
        {
          "indexed": false,
          "internalType": "address",
          "name": "caller",
          "type": "address"
        }
      ],
      "name": "Issue",
      "type": "event"
    },
    {
      "anonymous": false,
      "inputs": [
        {
          "indexed": true,
          "internalType": "address",
          "name": "holder",
          "type": "address"
        },
        {
          "indexed": true,
          "internalType": "uint256",
          "name": "projectId",
          "type": "uint256"
        },
        {
          "indexed": false,
          "internalType": "uint256",
          "name": "amount",
          "type": "uint256"
        },
        {
          "indexed": false,
          "internalType": "bool",
          "name": "tokensWereClaimed",
          "type": "bool"
        },
        {
          "indexed": false,
          "internalType": "bool",
          "name": "preferClaimedTokens",
          "type": "bool"
        },
        {
          "indexed": false,
          "internalType": "address",
          "name": "caller",
          "type": "address"
        }
      ],
      "name": "Mint",
      "type": "event"
    },
    {
      "anonymous": false,
      "inputs": [
        {
          "indexed": true,
          "internalType": "uint256",
          "name": "projectId",
          "type": "uint256"
        },
        {
          "indexed": true,
          "internalType": "bool",
          "name": "flag",
          "type": "bool"
        },
        {
          "indexed": false,
          "internalType": "address",
          "name": "caller",
          "type": "address"
        }
      ],
      "name": "ShouldRequireClaim",
      "type": "event"
    },
    {
      "anonymous": false,
      "inputs": [
        {
          "indexed": true,
          "internalType": "address",
          "name": "holder",
          "type": "address"
        },
        {
          "indexed": true,
          "internalType": "uint256",
          "name": "projectId",
          "type": "uint256"
        },
        {
          "indexed": true,
          "internalType": "address",
          "name": "recipient",
          "type": "address"
        },
        {
          "indexed": false,
          "internalType": "uint256",
          "name": "amount",
          "type": "uint256"
        },
        {
          "indexed": false,
          "internalType": "address",
          "name": "caller",
          "type": "address"
        }
      ],
      "name": "Transfer",
      "type": "event"
    },
    {
      "inputs": [
        {
          "internalType": "address",
          "name": "_holder",
          "type": "address"
        },
        {
          "internalType": "uint256",
          "name": "_projectId",
          "type": "uint256"
        }
      ],
      "name": "balanceOf",
      "outputs": [
        {
          "internalType": "uint256",
          "name": "balance",
          "type": "uint256"
        }
      ],
      "stateMutability": "view",
      "type": "function"
    },
    {
      "inputs": [
        {
          "internalType": "address",
          "name": "_holder",
          "type": "address"
        },
        {
          "internalType": "uint256",
          "name": "_projectId",
          "type": "uint256"
        },
        {
          "internalType": "uint256",
          "name": "_amount",
          "type": "uint256"
        },
        {
          "internalType": "bool",
          "name": "_preferClaimedTokens",
          "type": "bool"
        }
      ],
      "name": "burnFrom",
      "outputs": [],
      "stateMutability": "nonpayable",
      "type": "function"
    },
    {
      "inputs": [
        {
          "internalType": "uint256",
          "name": "_projectId",
          "type": "uint256"
        },
        {
          "internalType": "contract IJBToken",
          "name": "_token",
          "type": "address"
        },
        {
          "internalType": "address",
          "name": "_newOwner",
          "type": "address"
        }
      ],
      "name": "changeFor",
      "outputs": [],
      "stateMutability": "nonpayable",
      "type": "function"
    },
    {
      "inputs": [
        {
          "internalType": "address",
          "name": "_holder",
          "type": "address"
        },
        {
          "internalType": "uint256",
          "name": "_projectId",
          "type": "uint256"
        },
        {
          "internalType": "uint256",
          "name": "_amount",
          "type": "uint256"
        }
      ],
      "name": "claimFor",
      "outputs": [],
      "stateMutability": "nonpayable",
      "type": "function"
    },
    {
      "inputs": [],
      "name": "directory",
      "outputs": [
        {
          "internalType": "contract IJBDirectory",
          "name": "",
          "type": "address"
        }
      ],
      "stateMutability": "view",
      "type": "function"
    },
    {
      "inputs": [
        {
          "internalType": "uint256",
          "name": "_projectId",
          "type": "uint256"
        },
        {
          "internalType": "string",
          "name": "_name",
          "type": "string"
        },
        {
          "internalType": "string",
          "name": "_symbol",
          "type": "string"
        }
      ],
      "name": "issueFor",
      "outputs": [
        {
          "internalType": "contract IJBToken",
          "name": "token",
          "type": "address"
        }
      ],
      "stateMutability": "nonpayable",
      "type": "function"
    },
    {
      "inputs": [
        {
          "internalType": "address",
          "name": "_holder",
          "type": "address"
        },
        {
          "internalType": "uint256",
          "name": "_projectId",
          "type": "uint256"
        },
        {
          "internalType": "uint256",
          "name": "_amount",
          "type": "uint256"
        },
        {
          "internalType": "bool",
          "name": "_preferClaimedTokens",
          "type": "bool"
        }
      ],
      "name": "mintFor",
      "outputs": [],
      "stateMutability": "nonpayable",
      "type": "function"
    },
    {
      "inputs": [],
      "name": "operatorStore",
      "outputs": [
        {
          "internalType": "contract IJBOperatorStore",
          "name": "",
          "type": "address"
        }
      ],
      "stateMutability": "view",
      "type": "function"
    },
    {
      "inputs": [],
      "name": "projects",
      "outputs": [
        {
          "internalType": "contract IJBProjects",
          "name": "",
          "type": "address"
        }
      ],
      "stateMutability": "view",
      "type": "function"
    },
    {
      "inputs": [
        {
          "internalType": "uint256",
          "name": "",
          "type": "uint256"
        }
      ],
      "name": "requireClaimFor",
      "outputs": [
        {
          "internalType": "bool",
          "name": "",
          "type": "bool"
        }
      ],
      "stateMutability": "view",
      "type": "function"
    },
    {
      "inputs": [
        {
          "internalType": "uint256",
          "name": "_projectId",
          "type": "uint256"
        },
        {
          "internalType": "bool",
          "name": "_flag",
          "type": "bool"
        }
      ],
      "name": "shouldRequireClaimingFor",
      "outputs": [],
      "stateMutability": "nonpayable",
      "type": "function"
    },
    {
      "inputs": [
        {
          "internalType": "uint256",
          "name": "",
          "type": "uint256"
        }
      ],
      "name": "tokenOf",
      "outputs": [
        {
          "internalType": "contract IJBToken",
          "name": "",
          "type": "address"
        }
      ],
      "stateMutability": "view",
      "type": "function"
    },
    {
      "inputs": [
        {
          "internalType": "uint256",
          "name": "_projectId",
          "type": "uint256"
        }
      ],
      "name": "totalSupplyOf",
      "outputs": [
        {
          "internalType": "uint256",
          "name": "supply",
          "type": "uint256"
        }
      ],
      "stateMutability": "view",
      "type": "function"
    },
    {
      "inputs": [
        {
          "internalType": "address",
          "name": "_recipient",
          "type": "address"
        },
        {
          "internalType": "address",
          "name": "_holder",
          "type": "address"
        },
        {
          "internalType": "uint256",
          "name": "_projectId",
          "type": "uint256"
        },
        {
          "internalType": "uint256",
          "name": "_amount",
          "type": "uint256"
        }
      ],
      "name": "transferTo",
      "outputs": [],
      "stateMutability": "nonpayable",
      "type": "function"
    },
    {
      "inputs": [
        {
          "internalType": "address",
          "name": "",
          "type": "address"
        },
        {
          "internalType": "uint256",
          "name": "",
          "type": "uint256"
        }
      ],
      "name": "unclaimedBalanceOf",
      "outputs": [
        {
          "internalType": "uint256",
          "name": "",
          "type": "uint256"
        }
      ],
      "stateMutability": "view",
      "type": "function"
    },
    {
      "inputs": [
        {
          "internalType": "uint256",
          "name": "",
          "type": "uint256"
        }
      ],
      "name": "unclaimedTotalSupplyOf",
      "outputs": [
        {
          "internalType": "uint256",
          "name": "",
          "type": "uint256"
        }
      ],
      "stateMutability": "view",
      "type": "function"
    }
  ],
  "transactionHash": "0x7e3b21ffe3de86f2c70d57b3e4a168267aeb1673ccae3e53031c15dc1c28f194",
  "args": [
    "0xacD28185AE65adc711481c0aECB0B99Ac8608698",
    "0x05ea48673d41DC75fbDC8f32fA825be69c1BD5B2",
    "0xedfCFdCB621aFA76781eFBe7586fAe83D1578Ac2"
  ],
  "numDeployments": 2,
  "solcInputHash": "84ad828d78fb9f44a0d0346f7fab757e",
  "bytecode": "0x60e06040523480156200001157600080fd5b50604051620052033803806200520383398101604081905262000034916200005a565b6001600160601b0319606091821b811660805292811b831660a0521b1660c052620000c7565b6000806000606084860312156200007057600080fd5b83516200007d81620000ae565b60208501519093506200009081620000ae565b6040850151909250620000a381620000ae565b809150509250925092565b6001600160a01b0381168114620000c457600080fd5b50565b60805160601c60a05160601c60c05160601c6150c46200013f60003960008181610218015261199d0152600081816102ab01528181610a8501528181610b6601528181611aae0152611b8f0152600081816102d3015281816104a801528181610ed0015281816113a8015261166a01526150c46000f3fe60806040523480156200001157600080fd5b5060043610620001145760003560e01c80638ffe9b9411620000a3578063c41c2f24116200006e578063c41c2f2414620002cd578063ceddd3e414620002f5578063ea78803f146200030c578063ff0186c5146200034557600080fd5b80638ffe9b941462000260578063906ebd0f1462000277578063a7f2a70b146200028e578063ad007d6314620002a557600080fd5b80636607955d11620000e45780636607955d14620001ad57806375b0d9cd14620001c45780637b4d8e2c14620001db5780638b79543c146200021257600080fd5b8062fdd58e14620001195780631412884f14620001435780635287af37146200016657806357e4c7781462000194575b600080fd5b620001306200012a36600462001de9565b6200035c565b6040519081526020015b60405180910390f35b620001306200015436600462001ebf565b60026020526000908152604090205481565b620001306200017736600462001de9565b600160209081526000928352604080842090915290825290205481565b620001ab620001a536600462001f26565b62000460565b005b620001ab620001be36600462001e18565b620006ce565b62000130620001d536600462001ebf565b62000918565b62000201620001ec36600462001ebf565b60036020526000908152604090205460ff1681565b60405190151581526020016200013a565b6200023a7f000000000000000000000000000000000000000000000000000000000000000081565b60405173ffffffffffffffffffffffffffffffffffffffff90911681526020016200013a565b620001ab6200027136600462001d9e565b62000a06565b620001ab6200028836600462001e50565b62000e88565b6200023a6200029f36600462001f6d565b6200135d565b6200023a7f000000000000000000000000000000000000000000000000000000000000000081565b6200023a7f000000000000000000000000000000000000000000000000000000000000000081565b620001ab6200030636600462001e50565b62001622565b6200023a6200031d36600462001ebf565b60006020819052908152604090205473ffffffffffffffffffffffffffffffffffffffff1681565b620001ab6200035636600462001ef3565b6200196e565b73ffffffffffffffffffffffffffffffffffffffff80831660009081526001602090815260408083208584528252808320549183905290912054909116801562000459576040517f3656eec20000000000000000000000000000000000000000000000000000000081526004810184905273ffffffffffffffffffffffffffffffffffffffff8581166024830152821690633656eec29060440160206040518083038186803b1580156200040f57600080fd5b505afa15801562000424573d6000803e3d6000fd5b505050506040513d601f19601f820116820180604052508101906200044a919062001ed9565b620004569083620020c1565b91505b5092915050565b6040517f5dd8f6aa000000000000000000000000000000000000000000000000000000008152600481018490528390339073ffffffffffffffffffffffffffffffffffffffff7f00000000000000000000000000000000000000000000000000000000000000001690635dd8f6aa9060240160206040518083038186803b158015620004eb57600080fd5b505afa15801562000500573d6000803e3d6000fd5b505050506040513d601f19601f8201168201806040525081019062000526919062001d77565b73ffffffffffffffffffffffffffffffffffffffff161462000574576040517fab7f741400000000000000000000000000000000000000000000000000000000815260040160405180910390fd5b6000848152602081905260409020805473ffffffffffffffffffffffffffffffffffffffff8581167fffffffffffffffffffffffff0000000000000000000000000000000000000000831617909255811690831615801590620005ec575073ffffffffffffffffffffffffffffffffffffffff811615155b1562000676576040517ff2fde38b00000000000000000000000000000000000000000000000000000000815273ffffffffffffffffffffffffffffffffffffffff848116600483015282169063f2fde38b90602401600060405180830381600087803b1580156200065c57600080fd5b505af115801562000671573d6000803e3d6000fd5b505050505b60405133815273ffffffffffffffffffffffffffffffffffffffff808516919086169087907e45654e5ed9a54d60a4e759354328d3559ebe4018601dbf8031f665715070d49060200160405180910390a45050505050565b60008281526020819052604090205473ffffffffffffffffffffffffffffffffffffffff16806200072b576040517f73c463ce00000000000000000000000000000000000000000000000000000000815260040160405180910390fd5b73ffffffffffffffffffffffffffffffffffffffff841660009081526001602090815260408083208684529091529020548281101562000797576040517f83fc8b2d00000000000000000000000000000000000000000000000000000000815260040160405180910390fd5b73ffffffffffffffffffffffffffffffffffffffff85166000908152600160209081526040808320878452909152902054620007d5908490620020dc565b73ffffffffffffffffffffffffffffffffffffffff861660009081526001602090815260408083208884528252808320939093556002905220546200081c908490620020dc565b6000858152600260205260409081902091909155517f836a10400000000000000000000000000000000000000000000000000000000081526004810185905273ffffffffffffffffffffffffffffffffffffffff86811660248301526044820185905283169063836a104090606401600060405180830381600087803b158015620008a657600080fd5b505af1158015620008bb573d6000803e3d6000fd5b50506040805186815233602082015287935073ffffffffffffffffffffffffffffffffffffffff891692507fb6fe5ce185a3773d47e919f57c7edfd102c91cb7833b2be405c4de89d9980fd7910160405180910390a35050505050565b600081815260026020908152604080832054918390529091205473ffffffffffffffffffffffffffffffffffffffff16801562000a00576040517fbd85b0390000000000000000000000000000000000000000000000000000000081526004810184905273ffffffffffffffffffffffffffffffffffffffff82169063bd85b0399060240160206040518083038186803b158015620009b657600080fd5b505afa158015620009cb573d6000803e3d6000fd5b505050506040513d601f19601f82011682018060405250810190620009f1919062001ed9565b620009fd9083620020c1565b91505b50919050565b8282600c3373ffffffffffffffffffffffffffffffffffffffff84161480159062000b0557506040517fc161c93f00000000000000000000000000000000000000000000000000000000815233600482015273ffffffffffffffffffffffffffffffffffffffff848116602483015260448201849052606482018390527f0000000000000000000000000000000000000000000000000000000000000000169063c161c93f9060840160206040518083038186803b15801562000ac857600080fd5b505afa15801562000add573d6000803e3d6000fd5b505050506040513d601f19601f8201168201806040525081019062000b03919062001e9f565b155b801562000be657506040517fc161c93f00000000000000000000000000000000000000000000000000000000815233600482015273ffffffffffffffffffffffffffffffffffffffff848116602483015260006044830152606482018390527f0000000000000000000000000000000000000000000000000000000000000000169063c161c93f9060840160206040518083038186803b15801562000ba957600080fd5b505afa15801562000bbe573d6000803e3d6000fd5b505050506040513d601f19601f8201168201806040525081019062000be4919062001e9f565b155b1562000c1e576040517f075fd2b100000000000000000000000000000000000000000000000000000000815260040160405180910390fd5b73ffffffffffffffffffffffffffffffffffffffff871662000c6c576040517fc6587bab00000000000000000000000000000000000000000000000000000000815260040160405180910390fd5b8673ffffffffffffffffffffffffffffffffffffffff168673ffffffffffffffffffffffffffffffffffffffff16141562000cd3576040517f521005a600000000000000000000000000000000000000000000000000000000815260040160405180910390fd5b8362000d0b576040517f3b6fef6600000000000000000000000000000000000000000000000000000000815260040160405180910390fd5b73ffffffffffffffffffffffffffffffffffffffff861660009081526001602090815260408083208884529091529020548085111562000d77576040517f83fc8b2d00000000000000000000000000000000000000000000000000000000815260040160405180910390fd5b73ffffffffffffffffffffffffffffffffffffffff8716600090815260016020908152604080832089845290915290205462000db5908690620020dc565b73ffffffffffffffffffffffffffffffffffffffff80891660009081526001602081815260408084208c8552825280842095909555928c1682528252828120898252909152205462000e09908690620020c1565b73ffffffffffffffffffffffffffffffffffffffff89811660008181526001602090815260408083208c84528252918290209490945580518981523394810194909452909289928b16917fae47e55abe3902569528abe4272b889079230a248aec0659a2939a90354982c6910160405180910390a45050505050505050565b6040517f5dd8f6aa000000000000000000000000000000000000000000000000000000008152600481018490528390339073ffffffffffffffffffffffffffffffffffffffff7f00000000000000000000000000000000000000000000000000000000000000001690635dd8f6aa9060240160206040518083038186803b15801562000f1357600080fd5b505afa15801562000f28573d6000803e3d6000fd5b505050506040513d601f19601f8201168201806040525081019062000f4e919062001d77565b73ffffffffffffffffffffffffffffffffffffffff161462000f9c576040517fab7f741400000000000000000000000000000000000000000000000000000000815260040160405180910390fd5b8262000fd4576040517f3b6fef6600000000000000000000000000000000000000000000000000000000815260040160405180910390fd5b6000848152602081815260408083205473ffffffffffffffffffffffffffffffffffffffff898116855260018452828520898652909352908320549116918215620010c9576040517f3656eec20000000000000000000000000000000000000000000000000000000081526004810188905273ffffffffffffffffffffffffffffffffffffffff8981166024830152841690633656eec29060440160206040518083038186803b1580156200108857600080fd5b505afa1580156200109d573d6000803e3d6000fd5b505050506040513d601f19601f82011682018060405250810190620010c3919062001ed9565b620010cc565b60005b90508086101580620010de5750818610155b8015620010ff575080861080620010ff5750620010fc8187620020dc565b82105b8015620011205750818610806200112057506200111d8287620020dc565b81105b1562001158576040517fe793143800000000000000000000000000000000000000000000000000000000815260040160405180910390fd5b6000816200116957506000620011ab565b85156200118a578682101562001180578162001182565b865b9050620011ab565b86831015620011a5576200119f8388620020dc565b620011a8565b60005b90505b6000620011b98289620020dc565b9050811562001254576040517f9eea5f66000000000000000000000000000000000000000000000000000000008152600481018a905273ffffffffffffffffffffffffffffffffffffffff8b8116602483015260448201849052861690639eea5f6690606401600060405180830381600087803b1580156200123a57600080fd5b505af11580156200124f573d6000803e3d6000fd5b505050505b8015620012f05773ffffffffffffffffffffffffffffffffffffffff8a1660009081526001602090815260408083208c845290915290205462001299908290620020dc565b73ffffffffffffffffffffffffffffffffffffffff8b1660009081526001602090815260408083208d8452825280832093909355600290522054620012e0908290620020dc565b60008a8152600260205260409020555b60408051898152602081018690528815158183015233606082015290518a9173ffffffffffffffffffffffffffffffffffffffff8d16917fa006002ee8ea1e7bacf87ae6d874d4117de99e4aa814339c9a8199bcecd97fe39181900360800190a350505050505050505050565b6040517f5dd8f6aa000000000000000000000000000000000000000000000000000000008152600481018690526000908690339073ffffffffffffffffffffffffffffffffffffffff7f00000000000000000000000000000000000000000000000000000000000000001690635dd8f6aa9060240160206040518083038186803b158015620013eb57600080fd5b505afa15801562001400573d6000803e3d6000fd5b505050506040513d601f19601f8201168201806040525081019062001426919062001d77565b73ffffffffffffffffffffffffffffffffffffffff161462001474576040517fab7f741400000000000000000000000000000000000000000000000000000000815260040160405180910390fd5b84620014ac576040517f92bf449d00000000000000000000000000000000000000000000000000000000815260040160405180910390fd5b82620014e4576040517f571431a700000000000000000000000000000000000000000000000000000000815260040160405180910390fd5b60008781526020819052604090205473ffffffffffffffffffffffffffffffffffffffff161562001541576040517f89daaaed00000000000000000000000000000000000000000000000000000000815260040160405180910390fd5b85858585604051620015539062001d1d565b62001562949392919062002037565b604051809103906000f0801580156200157f573d6000803e3d6000fd5b506000888152602081905260409081902080547fffffffffffffffffffffffff00000000000000000000000000000000000000001673ffffffffffffffffffffffffffffffffffffffff841690811790915590519193509088907f1b1705bef26552c8f314c5eb80e9c84f02876c2f7f30a7f9ad5cafd17d5fa6da9062001610908a908a908a908a9033906200206d565b60405180910390a35095945050505050565b6040517f5dd8f6aa000000000000000000000000000000000000000000000000000000008152600481018490528390339073ffffffffffffffffffffffffffffffffffffffff7f00000000000000000000000000000000000000000000000000000000000000001690635dd8f6aa9060240160206040518083038186803b158015620016ad57600080fd5b505afa158015620016c2573d6000803e3d6000fd5b505050506040513d601f19601f82011682018060405250810190620016e8919062001d77565b73ffffffffffffffffffffffffffffffffffffffff161462001736576040517fab7f741400000000000000000000000000000000000000000000000000000000815260040160405180910390fd5b826200176e576040517f3b6fef6600000000000000000000000000000000000000000000000000000000815260040160405180910390fd5b60008481526020818152604080832054600390925282205473ffffffffffffffffffffffffffffffffffffffff909116919060ff1680620017ac5750835b8015620017ce575073ffffffffffffffffffffffffffffffffffffffff821615155b905080156200186e576040517f836a10400000000000000000000000000000000000000000000000000000000081526004810187905273ffffffffffffffffffffffffffffffffffffffff88811660248301526044820187905283169063836a104090606401600060405180830381600087803b1580156200184f57600080fd5b505af115801562001864573d6000803e3d6000fd5b5050505062001903565b73ffffffffffffffffffffffffffffffffffffffff87166000908152600160209081526040808320898452909152902054620018ac908690620020c1565b73ffffffffffffffffffffffffffffffffffffffff881660009081526001602090815260408083208a8452825280832093909355600290522054620018f3908690620020c1565b6000878152600260205260409020555b604080518681528215156020820152851515818301523360608201529051879173ffffffffffffffffffffffffffffffffffffffff8a16917f5dd3ead325af435e56bc762b40de54c96de6071938d18a26414245807591d86f9181900360800190a350505050505050565b6040517f6352211e000000000000000000000000000000000000000000000000000000008152600481018390527f000000000000000000000000000000000000000000000000000000000000000073ffffffffffffffffffffffffffffffffffffffff1690636352211e9060240160206040518083038186803b158015620019f557600080fd5b505afa15801562001a0a573d6000803e3d6000fd5b505050506040513d601f19601f8201168201806040525081019062001a30919062001d77565b82600d3373ffffffffffffffffffffffffffffffffffffffff84161480159062001b2e57506040517fc161c93f00000000000000000000000000000000000000000000000000000000815233600482015273ffffffffffffffffffffffffffffffffffffffff848116602483015260448201849052606482018390527f0000000000000000000000000000000000000000000000000000000000000000169063c161c93f9060840160206040518083038186803b15801562001af157600080fd5b505afa15801562001b06573d6000803e3d6000fd5b505050506040513d601f19601f8201168201806040525081019062001b2c919062001e9f565b155b801562001c0f57506040517fc161c93f00000000000000000000000000000000000000000000000000000000815233600482015273ffffffffffffffffffffffffffffffffffffffff848116602483015260006044830152606482018390527f0000000000000000000000000000000000000000000000000000000000000000169063c161c93f9060840160206040518083038186803b15801562001bd257600080fd5b505afa15801562001be7573d6000803e3d6000fd5b505050506040513d601f19601f8201168201806040525081019062001c0d919062001e9f565b155b1562001c47576040517f075fd2b100000000000000000000000000000000000000000000000000000000815260040160405180910390fd5b60008581526020819052604090205473ffffffffffffffffffffffffffffffffffffffff168062001ca4576040517f73c463ce00000000000000000000000000000000000000000000000000000000815260040160405180910390fd5b60008681526003602090815260409182902080547fffffffffffffffffffffffffffffffffffffffffffffffffffffffffffffff0016881515908117909155915133815288917f91c234a3a3ebdc00c9bbd80f24661ca100d784b6d9f53923b3a693344719e08c910160405180910390a3505050505050565b612f34806200215b83390190565b60008083601f84011262001d3e57600080fd5b50813567ffffffffffffffff81111562001d5757600080fd5b60208301915083602082850101111562001d7057600080fd5b9250929050565b60006020828403121562001d8a57600080fd5b815162001d978162002125565b9392505050565b6000806000806080858703121562001db557600080fd5b843562001dc28162002125565b9350602085013562001dd48162002125565b93969395505050506040820135916060013590565b6000806040838503121562001dfd57600080fd5b823562001e0a8162002125565b946020939093013593505050565b60008060006060848603121562001e2e57600080fd5b833562001e3b8162002125565b95602085013595506040909401359392505050565b6000806000806080858703121562001e6757600080fd5b843562001e748162002125565b93506020850135925060408501359150606085013562001e94816200214b565b939692955090935050565b60006020828403121562001eb257600080fd5b815162001d97816200214b565b60006020828403121562001ed257600080fd5b5035919050565b60006020828403121562001eec57600080fd5b5051919050565b6000806040838503121562001f0757600080fd5b82359150602083013562001f1b816200214b565b809150509250929050565b60008060006060848603121562001f3c57600080fd5b83359250602084013562001f508162002125565b9150604084013562001f628162002125565b809150509250925092565b60008060008060006060868803121562001f8657600080fd5b85359450602086013567ffffffffffffffff8082111562001fa657600080fd5b62001fb489838a0162001d2b565b9096509450604088013591508082111562001fce57600080fd5b5062001fdd8882890162001d2b565b969995985093965092949392505050565b8183528181602085013750600060208284010152600060207fffffffffffffffffffffffffffffffffffffffffffffffffffffffffffffffe0601f840116840101905092915050565b6040815260006200204d60408301868862001fee565b82810360208401526200206281858762001fee565b979650505050505050565b6060815260006200208360608301878962001fee565b82810360208401526200209881868862001fee565b91505073ffffffffffffffffffffffffffffffffffffffff831660408301529695505050505050565b60008219821115620020d757620020d7620020f6565b500190565b600082821015620020f157620020f1620020f6565b500390565b7f4e487b7100000000000000000000000000000000000000000000000000000000600052601160045260246000fd5b73ffffffffffffffffffffffffffffffffffffffff811681146200214857600080fd5b50565b80151581146200214857600080fdfe6101606040527f6e71edae12b1b97f4d1f60370fef10105fa2faae0126114a169c64845d6126c9610140523480156200003757600080fd5b5060405162002f3438038062002f348339810160408190526200005a9162000310565b8180604051806040016040528060018152602001603160f81b8152508484816003908051906020019062000090929190620001b3565b508051620000a6906004906020840190620001b3565b5050825160208085019190912083518483012060e08290526101008190524660a0818152604080517f8b73c3c69bb8fe3d512ecc4cf759cc79239f7b179b0ffacaa9a75d522b39400f81880181905281830187905260608201869052608082019490945230818401528151808203909301835260c0019052805194019390932091935091906080523060601b60c05261012052506200015593506200014f9250506200015d9050565b62000161565b5050620003cd565b3390565b600980546001600160a01b038381166001600160a01b0319831681179093556040519116919082907f8be0079c531659141344cd1fd0a4f28419497f9722a3daafe3b4186f6b6457e090600090a35050565b828054620001c1906200037a565b90600052602060002090601f016020900481019282620001e5576000855562000230565b82601f106200020057805160ff191683800117855562000230565b8280016001018555821562000230579182015b828111156200023057825182559160200191906001019062000213565b506200023e92915062000242565b5090565b5b808211156200023e576000815560010162000243565b600082601f8301126200026b57600080fd5b81516001600160401b0380821115620002885762000288620003b7565b604051601f8301601f19908116603f01168101908282118183101715620002b357620002b3620003b7565b81604052838152602092508683858801011115620002d057600080fd5b600091505b83821015620002f45785820183015181830184015290820190620002d5565b83821115620003065760008385830101525b9695505050505050565b600080604083850312156200032457600080fd5b82516001600160401b03808211156200033c57600080fd5b6200034a8683870162000259565b935060208501519150808211156200036157600080fd5b50620003708582860162000259565b9150509250929050565b600181811c908216806200038f57607f821691505b60208210811415620003b157634e487b7160e01b600052602260045260246000fd5b50919050565b634e487b7160e01b600052604160045260246000fd5b60805160a05160c05160601c60e051610100516101205161014051612b096200042b6000396000610e040152600061158e015260006115dd015260006115b8015260006115110152600061153b015260006115650152612b096000f3fe608060405234801561001057600080fd5b50600436106101cf5760003560e01c80637ecebe0011610104578063a457c2d7116100a2578063d505accf11610071578063d505accf14610434578063dd62ed3e14610447578063f1127ed81461048d578063f2fde38b146104df57600080fd5b8063a457c2d7146103e8578063a9059cbb146103fb578063bd85b0391461040e578063c3cda5201461042157600080fd5b80638e539e8c116100de5780638e539e8c146103a757806395d89b41146103ba5780639ab24eb0146103c25780639eea5f66146103d557600080fd5b80637ecebe0014610363578063836a1040146103765780638da5cb5b1461038957600080fd5b806339509351116101715780635c19a95c1161014b5780635c19a95c146102e85780636fcfff45146102fd57806370a0823114610325578063715018a61461035b57600080fd5b806339509351146102645780633a46b1a814610277578063587cde1e1461028a57600080fd5b806323b872dd116101ad57806323b872dd14610227578063313ce5671461023a5780633644e515146102495780633656eec21461025157600080fd5b806306fdde03146101d4578063095ea7b3146101f257806318160ddd14610215575b600080fd5b6101dc6104f2565b6040516101e9919061291b565b60405180910390f35b6102056102003660046127f8565b610584565b60405190151581526020016101e9565b6002545b6040519081526020016101e9565b610205610235366004612752565b61059a565b604051601281526020016101e9565b6102196106aa565b61021961025f3660046128d3565b6106b9565b6102056102723660046127f8565b6106e7565b6102196102853660046127f8565b610730565b6102c3610298366004612704565b73ffffffffffffffffffffffffffffffffffffffff9081166000908152600660205260409020541690565b60405173ffffffffffffffffffffffffffffffffffffffff90911681526020016101e9565b6102fb6102f6366004612704565b6107ca565b005b61031061030b366004612704565b6107d7565b60405163ffffffff90911681526020016101e9565b610219610333366004612704565b73ffffffffffffffffffffffffffffffffffffffff1660009081526020819052604090205490565b6102fb61080c565b610219610371366004612704565b610899565b6102fb6103843660046128f6565b6108c4565b60095473ffffffffffffffffffffffffffffffffffffffff166102c3565b6102196103b53660046128ba565b610954565b6101dc6109ca565b6102196103d0366004612704565b6109d9565b6102fb6103e33660046128f6565b610aa4565b6102056103f63660046127f8565b610b2f565b6102056104093660046127f8565b610c07565b61021961041c3660046128ba565b610c14565b6102fb61042f366004612822565b610c1f565b6102fb61044236600461278e565b610d96565b61021961045536600461271f565b73ffffffffffffffffffffffffffffffffffffffff918216600090815260016020908152604080832093909416825291909152205490565b6104a061049b36600461287a565b610f55565b60408051825163ffffffff1681526020928301517bffffffffffffffffffffffffffffffffffffffffffffffffffffffff1692810192909252016101e9565b6102fb6104ed366004612704565b610ffb565b606060038054610501906129f8565b80601f016020809104026020016040519081016040528092919081815260200182805461052d906129f8565b801561057a5780601f1061054f5761010080835404028352916020019161057a565b820191906000526020600020905b81548152906001019060200180831161055d57829003601f168201915b5050505050905090565b6000610591338484611085565b50600192915050565b73ffffffffffffffffffffffffffffffffffffffff831660009081526001602090815260408083203384529091528120547fffffffffffffffffffffffffffffffffffffffffffffffffffffffffffffffff81146106945782811015610687576040517f08c379a000000000000000000000000000000000000000000000000000000000815260206004820152602860248201527f45524332303a207472616e7366657220616d6f756e742065786365656473206160448201527f6c6c6f77616e636500000000000000000000000000000000000000000000000060648201526084015b60405180910390fd5b6106948533858403611085565b61069f858585611238565b506001949350505050565b60006106b46114f7565b905090565b73ffffffffffffffffffffffffffffffffffffffff81166000908152602081905260408120545b9392505050565b33600081815260016020908152604080832073ffffffffffffffffffffffffffffffffffffffff87168452909152812054909161059191859061072b90869061298e565b611085565b600043821061079b576040517f08c379a000000000000000000000000000000000000000000000000000000000815260206004820152601f60248201527f4552433230566f7465733a20626c6f636b206e6f7420796574206d696e656400604482015260640161067e565b73ffffffffffffffffffffffffffffffffffffffff831660009081526007602052604090206106e0908361162b565b6107d43382611712565b50565b73ffffffffffffffffffffffffffffffffffffffff8116600090815260076020526040812054610806906117b0565b92915050565b60095473ffffffffffffffffffffffffffffffffffffffff16331461088d576040517f08c379a000000000000000000000000000000000000000000000000000000000815260206004820181905260248201527f4f776e61626c653a2063616c6c6572206973206e6f7420746865206f776e6572604482015260640161067e565b610897600061184a565b565b73ffffffffffffffffffffffffffffffffffffffff8116600090815260056020526040812054610806565b60095473ffffffffffffffffffffffffffffffffffffffff163314610945576040517f08c379a000000000000000000000000000000000000000000000000000000000815260206004820181905260248201527f4f776e61626c653a2063616c6c6572206973206e6f7420746865206f776e6572604482015260640161067e565b61094f82826118c1565b505050565b60004382106109bf576040517f08c379a000000000000000000000000000000000000000000000000000000000815260206004820152601f60248201527f4552433230566f7465733a20626c6f636b206e6f7420796574206d696e656400604482015260640161067e565b61080660088361162b565b606060048054610501906129f8565b73ffffffffffffffffffffffffffffffffffffffff81166000908152600760205260408120548015610a7c5773ffffffffffffffffffffffffffffffffffffffff83166000908152600760205260409020610a356001836129e1565b81548110610a4557610a45612aa4565b60009182526020909120015464010000000090047bffffffffffffffffffffffffffffffffffffffffffffffffffffffff16610a7f565b60005b7bffffffffffffffffffffffffffffffffffffffffffffffffffffffff169392505050565b60095473ffffffffffffffffffffffffffffffffffffffff163314610b25576040517f08c379a000000000000000000000000000000000000000000000000000000000815260206004820181905260248201527f4f776e61626c653a2063616c6c6572206973206e6f7420746865206f776e6572604482015260640161067e565b61094f8282611987565b33600090815260016020908152604080832073ffffffffffffffffffffffffffffffffffffffff8616845290915281205482811015610bf0576040517f08c379a000000000000000000000000000000000000000000000000000000000815260206004820152602560248201527f45524332303a2064656372656173656420616c6c6f77616e63652062656c6f7760448201527f207a65726f000000000000000000000000000000000000000000000000000000606482015260840161067e565b610bfd3385858403611085565b5060019392505050565b6000610591338484611238565b600061080660025490565b83421115610c89576040517f08c379a000000000000000000000000000000000000000000000000000000000815260206004820152601d60248201527f4552433230566f7465733a207369676e61747572652065787069726564000000604482015260640161067e565b604080517fe48329057bfd03d55e49b547132e39cffd9c1820ad7b9d4c5307691425d15adf602082015273ffffffffffffffffffffffffffffffffffffffff8816918101919091526060810186905260808101859052600090610d1090610d089060a0016040516020818303038152906040528051906020012061199f565b858585611a08565b9050610d1b81611a30565b8614610d83576040517f08c379a000000000000000000000000000000000000000000000000000000000815260206004820152601960248201527f4552433230566f7465733a20696e76616c6964206e6f6e636500000000000000604482015260640161067e565b610d8d8188611712565b50505050505050565b83421115610e00576040517f08c379a000000000000000000000000000000000000000000000000000000000815260206004820152601d60248201527f45524332305065726d69743a206578706972656420646561646c696e65000000604482015260640161067e565b60007f0000000000000000000000000000000000000000000000000000000000000000888888610e2f8c611a30565b60408051602081019690965273ffffffffffffffffffffffffffffffffffffffff94851690860152929091166060840152608083015260a082015260c0810186905260e0016040516020818303038152906040528051906020012090506000610e978261199f565b90506000610ea782878787611a08565b90508973ffffffffffffffffffffffffffffffffffffffff168173ffffffffffffffffffffffffffffffffffffffff1614610f3e576040517f08c379a000000000000000000000000000000000000000000000000000000000815260206004820152601e60248201527f45524332305065726d69743a20696e76616c6964207369676e61747572650000604482015260640161067e565b610f498a8a8a611085565b50505050505050505050565b604080518082019091526000808252602082015273ffffffffffffffffffffffffffffffffffffffff83166000908152600760205260409020805463ffffffff8416908110610fa657610fa6612aa4565b60009182526020918290206040805180820190915291015463ffffffff8116825264010000000090047bffffffffffffffffffffffffffffffffffffffffffffffffffffffff16918101919091529392505050565b60095473ffffffffffffffffffffffffffffffffffffffff16331461107c576040517f08c379a000000000000000000000000000000000000000000000000000000000815260206004820181905260248201527f4f776e61626c653a2063616c6c6572206973206e6f7420746865206f776e6572604482015260640161067e565b6107d481611a65565b73ffffffffffffffffffffffffffffffffffffffff8316611127576040517f08c379a0000000000000000000000000000000000000000000000000000000008152602060048201526024808201527f45524332303a20617070726f76652066726f6d20746865207a65726f2061646460448201527f7265737300000000000000000000000000000000000000000000000000000000606482015260840161067e565b73ffffffffffffffffffffffffffffffffffffffff82166111ca576040517f08c379a000000000000000000000000000000000000000000000000000000000815260206004820152602260248201527f45524332303a20617070726f766520746f20746865207a65726f20616464726560448201527f7373000000000000000000000000000000000000000000000000000000000000606482015260840161067e565b73ffffffffffffffffffffffffffffffffffffffff83811660008181526001602090815260408083209487168084529482529182902085905590518481527f8c5be1e5ebec7d5bd14f71427d1e84f3dd0314c0f7b2291e5b200ac8c7c3b925910160405180910390a3505050565b73ffffffffffffffffffffffffffffffffffffffff83166112db576040517f08c379a000000000000000000000000000000000000000000000000000000000815260206004820152602560248201527f45524332303a207472616e736665722066726f6d20746865207a65726f20616460448201527f6472657373000000000000000000000000000000000000000000000000000000606482015260840161067e565b73ffffffffffffffffffffffffffffffffffffffff821661137e576040517f08c379a000000000000000000000000000000000000000000000000000000000815260206004820152602360248201527f45524332303a207472616e7366657220746f20746865207a65726f206164647260448201527f6573730000000000000000000000000000000000000000000000000000000000606482015260840161067e565b73ffffffffffffffffffffffffffffffffffffffff831660009081526020819052604090205481811015611434576040517f08c379a000000000000000000000000000000000000000000000000000000000815260206004820152602660248201527f45524332303a207472616e7366657220616d6f756e742065786365656473206260448201527f616c616e63650000000000000000000000000000000000000000000000000000606482015260840161067e565b73ffffffffffffffffffffffffffffffffffffffff80851660009081526020819052604080822085850390559185168152908120805484929061147890849061298e565b925050819055508273ffffffffffffffffffffffffffffffffffffffff168473ffffffffffffffffffffffffffffffffffffffff167fddf252ad1be2c89b69c2b068fc378daa952ba7f163c4a11628f55a4df523b3ef846040516114de91815260200190565b60405180910390a36114f1848484611b92565b50505050565b60003073ffffffffffffffffffffffffffffffffffffffff7f00000000000000000000000000000000000000000000000000000000000000001614801561155d57507f000000000000000000000000000000000000000000000000000000000000000046145b1561158757507f000000000000000000000000000000000000000000000000000000000000000090565b50604080517f00000000000000000000000000000000000000000000000000000000000000006020808301919091527f0000000000000000000000000000000000000000000000000000000000000000828401527f000000000000000000000000000000000000000000000000000000000000000060608301524660808301523060a0808401919091528351808403909101815260c0909201909252805191012090565b8154600090815b8181101561168f5760006116468284611bd1565b90508486828154811061165b5761165b612aa4565b60009182526020909120015463ffffffff16111561167b57809250611689565b61168681600161298e565b91505b50611632565b81156116e857846116a16001846129e1565b815481106116b1576116b1612aa4565b60009182526020909120015464010000000090047bffffffffffffffffffffffffffffffffffffffffffffffffffffffff166116eb565b60005b7bffffffffffffffffffffffffffffffffffffffffffffffffffffffff1695945050505050565b73ffffffffffffffffffffffffffffffffffffffff8281166000818152600660208181526040808420805485845282862054949093528787167fffffffffffffffffffffffff00000000000000000000000000000000000000008416811790915590519190951694919391928592917f3134e8a2e6d97e929a7e54011ea5485d7d196dd5f0ba4d4ef95803e8e3fc257f9190a46114f1828483611bec565b600063ffffffff821115611846576040517f08c379a000000000000000000000000000000000000000000000000000000000815260206004820152602660248201527f53616665436173743a2076616c756520646f65736e27742066697420696e203360448201527f3220626974730000000000000000000000000000000000000000000000000000606482015260840161067e565b5090565b6009805473ffffffffffffffffffffffffffffffffffffffff8381167fffffffffffffffffffffffff0000000000000000000000000000000000000000831681179093556040519116919082907f8be0079c531659141344cd1fd0a4f28419497f9722a3daafe3b4186f6b6457e090600090a35050565b6118cb8282611d91565b6002547bffffffffffffffffffffffffffffffffffffffffffffffffffffffff1015611979576040517f08c379a000000000000000000000000000000000000000000000000000000000815260206004820152603060248201527f4552433230566f7465733a20746f74616c20737570706c79207269736b73206f60448201527f766572666c6f77696e6720766f74657300000000000000000000000000000000606482015260840161067e565b6114f16008611ebd83611ec9565b61199182826120ab565b6114f1600861229f83611ec9565b60006108066119ac6114f7565b836040517f19010000000000000000000000000000000000000000000000000000000000006020820152602281018390526042810182905260009060620160405160208183030381529060405280519060200120905092915050565b6000806000611a19878787876122ab565b91509150611a26816123c3565b5095945050505050565b73ffffffffffffffffffffffffffffffffffffffff811660009081526005602052604090208054600181018255905b50919050565b60095473ffffffffffffffffffffffffffffffffffffffff163314611ae6576040517f08c379a000000000000000000000000000000000000000000000000000000000815260206004820181905260248201527f4f776e61626c653a2063616c6c6572206973206e6f7420746865206f776e6572604482015260640161067e565b73ffffffffffffffffffffffffffffffffffffffff8116611b89576040517f08c379a000000000000000000000000000000000000000000000000000000000815260206004820152602660248201527f4f776e61626c653a206e6577206f776e657220697320746865207a65726f206160448201527f6464726573730000000000000000000000000000000000000000000000000000606482015260840161067e565b6107d48161184a565b73ffffffffffffffffffffffffffffffffffffffff83811660009081526006602052604080822054858416835291205461094f92918216911683611bec565b6000611be060028484186129a6565b6106e09084841661298e565b8173ffffffffffffffffffffffffffffffffffffffff168373ffffffffffffffffffffffffffffffffffffffff1614158015611c285750600081115b1561094f5773ffffffffffffffffffffffffffffffffffffffff831615611cdd5773ffffffffffffffffffffffffffffffffffffffff831660009081526007602052604081208190611c7d9061229f85611ec9565b915091508473ffffffffffffffffffffffffffffffffffffffff167fdec2bacdd2f05b59de34da9b523dff8be42e5e38e818c82fdb0bae774387a7248383604051611cd2929190918252602082015260400190565b60405180910390a250505b73ffffffffffffffffffffffffffffffffffffffff82161561094f5773ffffffffffffffffffffffffffffffffffffffff821660009081526007602052604081208190611d2d90611ebd85611ec9565b915091508373ffffffffffffffffffffffffffffffffffffffff167fdec2bacdd2f05b59de34da9b523dff8be42e5e38e818c82fdb0bae774387a7248383604051611d82929190918252602082015260400190565b60405180910390a25050505050565b73ffffffffffffffffffffffffffffffffffffffff8216611e0e576040517f08c379a000000000000000000000000000000000000000000000000000000000815260206004820152601f60248201527f45524332303a206d696e7420746f20746865207a65726f206164647265737300604482015260640161067e565b8060026000828254611e20919061298e565b909155505073ffffffffffffffffffffffffffffffffffffffff821660009081526020819052604081208054839290611e5a90849061298e565b909155505060405181815273ffffffffffffffffffffffffffffffffffffffff8316906000907fddf252ad1be2c89b69c2b068fc378daa952ba7f163c4a11628f55a4df523b3ef9060200160405180910390a3611eb960008383611b92565b5050565b60006106e0828461298e565b825460009081908015611f295785611ee26001836129e1565b81548110611ef257611ef2612aa4565b60009182526020909120015464010000000090047bffffffffffffffffffffffffffffffffffffffffffffffffffffffff16611f2c565b60005b7bffffffffffffffffffffffffffffffffffffffffffffffffffffffff169250611f5a83858763ffffffff16565b9150600081118015611f9857504386611f746001846129e1565b81548110611f8457611f84612aa4565b60009182526020909120015463ffffffff16145b1561202257611fa68261261c565b86611fb26001846129e1565b81548110611fc257611fc2612aa4565b9060005260206000200160000160046101000a8154817bffffffffffffffffffffffffffffffffffffffffffffffffffffffff02191690837bffffffffffffffffffffffffffffffffffffffffffffffffffffffff1602179055506120a2565b856040518060400160405280612037436117b0565b63ffffffff16815260200161204b8561261c565b7bffffffffffffffffffffffffffffffffffffffffffffffffffffffff90811690915282546001810184556000938452602093849020835194909301519091166401000000000263ffffffff909316929092179101555b50935093915050565b73ffffffffffffffffffffffffffffffffffffffff821661214e576040517f08c379a000000000000000000000000000000000000000000000000000000000815260206004820152602160248201527f45524332303a206275726e2066726f6d20746865207a65726f2061646472657360448201527f7300000000000000000000000000000000000000000000000000000000000000606482015260840161067e565b73ffffffffffffffffffffffffffffffffffffffff821660009081526020819052604090205481811015612204576040517f08c379a000000000000000000000000000000000000000000000000000000000815260206004820152602260248201527f45524332303a206275726e20616d6f756e7420657863656564732062616c616e60448201527f6365000000000000000000000000000000000000000000000000000000000000606482015260840161067e565b73ffffffffffffffffffffffffffffffffffffffff831660009081526020819052604081208383039055600280548492906122409084906129e1565b909155505060405182815260009073ffffffffffffffffffffffffffffffffffffffff8516907fddf252ad1be2c89b69c2b068fc378daa952ba7f163c4a11628f55a4df523b3ef9060200160405180910390a361094f83600084611b92565b60006106e082846129e1565b6000807f7fffffffffffffffffffffffffffffff5d576e7357a4501ddfe92f46681b20a08311156122e257506000905060036123ba565b8460ff16601b141580156122fa57508460ff16601c14155b1561230b57506000905060046123ba565b6040805160008082526020820180845289905260ff881692820192909252606081018690526080810185905260019060a0016020604051602081039080840390855afa15801561235f573d6000803e3d6000fd5b50506040517fffffffffffffffffffffffffffffffffffffffffffffffffffffffffffffffe0015191505073ffffffffffffffffffffffffffffffffffffffff81166123b3576000600192509250506123ba565b9150600090505b94509492505050565b60008160048111156123d7576123d7612a75565b14156123e05750565b60018160048111156123f4576123f4612a75565b141561245c576040517f08c379a000000000000000000000000000000000000000000000000000000000815260206004820152601860248201527f45434453413a20696e76616c6964207369676e61747572650000000000000000604482015260640161067e565b600281600481111561247057612470612a75565b14156124d8576040517f08c379a000000000000000000000000000000000000000000000000000000000815260206004820152601f60248201527f45434453413a20696e76616c6964207369676e6174757265206c656e67746800604482015260640161067e565b60038160048111156124ec576124ec612a75565b141561257a576040517f08c379a000000000000000000000000000000000000000000000000000000000815260206004820152602260248201527f45434453413a20696e76616c6964207369676e6174757265202773272076616c60448201527f7565000000000000000000000000000000000000000000000000000000000000606482015260840161067e565b600481600481111561258e5761258e612a75565b14156107d4576040517f08c379a000000000000000000000000000000000000000000000000000000000815260206004820152602260248201527f45434453413a20696e76616c6964207369676e6174757265202776272076616c60448201527f7565000000000000000000000000000000000000000000000000000000000000606482015260840161067e565b60007bffffffffffffffffffffffffffffffffffffffffffffffffffffffff821115611846576040517f08c379a000000000000000000000000000000000000000000000000000000000815260206004820152602760248201527f53616665436173743a2076616c756520646f65736e27742066697420696e203260448201527f3234206269747300000000000000000000000000000000000000000000000000606482015260840161067e565b803573ffffffffffffffffffffffffffffffffffffffff811681146126ee57600080fd5b919050565b803560ff811681146126ee57600080fd5b60006020828403121561271657600080fd5b6106e0826126ca565b6000806040838503121561273257600080fd5b61273b836126ca565b9150612749602084016126ca565b90509250929050565b60008060006060848603121561276757600080fd5b612770846126ca565b925061277e602085016126ca565b9150604084013590509250925092565b600080600080600080600060e0888a0312156127a957600080fd5b6127b2886126ca565b96506127c0602089016126ca565b955060408801359450606088013593506127dc608089016126f3565b925060a0880135915060c0880135905092959891949750929550565b6000806040838503121561280b57600080fd5b612814836126ca565b946020939093013593505050565b60008060008060008060c0878903121561283b57600080fd5b612844876126ca565b95506020870135945060408701359350612860606088016126f3565b92506080870135915060a087013590509295509295509295565b6000806040838503121561288d57600080fd5b612896836126ca565b9150602083013563ffffffff811681146128af57600080fd5b809150509250929050565b6000602082840312156128cc57600080fd5b5035919050565b600080604083850312156128e657600080fd5b82359150612749602084016126ca565b60008060006060848603121561290b57600080fd5b8335925061277e602085016126ca565b600060208083528351808285015260005b818110156129485785810183015185820160400152820161292c565b8181111561295a576000604083870101525b50601f017fffffffffffffffffffffffffffffffffffffffffffffffffffffffffffffffe016929092016040019392505050565b600082198211156129a1576129a1612a46565b500190565b6000826129dc577f4e487b7100000000000000000000000000000000000000000000000000000000600052601260045260246000fd5b500490565b6000828210156129f3576129f3612a46565b500390565b600181811c90821680612a0c57607f821691505b60208210811415611a5f577f4e487b7100000000000000000000000000000000000000000000000000000000600052602260045260246000fd5b7f4e487b7100000000000000000000000000000000000000000000000000000000600052601160045260246000fd5b7f4e487b7100000000000000000000000000000000000000000000000000000000600052602160045260246000fd5b7f4e487b7100000000000000000000000000000000000000000000000000000000600052603260045260246000fdfea2646970667358221220f4732df7afc4aa1b54d174df1e07e3ec752ee8a2fb85185d75e0d7c98f1c343364736f6c63430008060033a264697066735822122061f2551905fffca416f245bba52c16e868092718eb1df8ed7a21310e094095b564736f6c63430008060033",
  "devdoc": {
    "details": "Tokens can be either represented internally or claimed as ERC-20s. This contract manages these two representations and allows claiming.The total supply of a project's tokens and the balance of each account are calculated in this contract.Each project can bring their own token if they prefer, and swap between tokens at any time.",
    "kind": "dev",
    "methods": {
      "balanceOf(address,uint256)": {
        "params": {
          "_holder": "The token holder to get a balance for.",
          "_projectId": "The project to get the `_hodler`s balance of."
        },
        "returns": {
          "balance": "The balance."
        }
      },
      "burnFrom(address,uint256,uint256,bool)": {
        "details": "Only a project's current controller can burn its tokens.",
        "params": {
          "_amount": "The amount of tokens to burned.",
          "_holder": "The address that owns the tokens being burned.",
          "_preferClaimedTokens": "A flag indicating if there's a preference to burn tokens that have been converted to ERC-20s.",
          "_projectId": "The ID of the project to which the burned tokens belong"
        }
      },
      "changeFor(uint256,address,address)": {
        "details": "Only a project's current controller can change its token.This JBTokenStore contract must have access to all IJBToken interface functions.",
        "params": {
          "_newOwner": "An address to transfer the current token's ownership to. This is optional, but it cannot be done later.",
          "_projectId": "The ID of the project to which the changed token belongs.",
          "_token": "The new token."
        }
      },
      "claimFor(address,uint256,uint256)": {
        "details": "Anyone can claim tokens on behalf of a token owner.",
        "params": {
          "_amount": "The amount of tokens to claim.",
          "_holder": "The owner of the tokens to claim.",
          "_projectId": "The ID of the project whose tokens are being claimed."
        }
      },
      "constructor": {
        "params": {
          "_directory": "A contract storing directories of terminals and controllers for each project.",
          "_operatorStore": "A contract storing operator assignments.",
          "_projects": "A contract which mints ERC-721's that represent project ownership and transfers."
        }
      },
      "issueFor(uint256,string,string)": {
        "details": "Deploys a project's ERC-20 token contract.Only a project's current controller can issue its token.",
        "params": {
          "_name": "The ERC-20's name.",
          "_projectId": "The ID of the project being issued tokens.",
          "_symbol": "The ERC-20's symbol."
        }
      },
      "mintFor(address,uint256,uint256,bool)": {
        "details": "Only a project's current controller can mint its tokens.",
        "params": {
          "_amount": "The amount of tokens to mint.",
          "_holder": "The address receiving the new tokens.",
          "_preferClaimedTokens": "A flag indicating whether there's a preference for ERC20's to be claimed automatically if they have been issued.",
          "_projectId": "The ID of the project to which the tokens belong."
        }
      },
      "shouldRequireClaimingFor(uint256,bool)": {
        "details": "Only a token holder or an operator can transfer its unclaimed tokens.",
        "params": {
          "_flag": "A flag indicating whether or not claiming should be required.",
          "_projectId": "The ID of the project being affected."
        }
      },
      "totalSupplyOf(uint256)": {
        "params": {
          "_projectId": "The ID of the project to get the total token supply of."
        },
        "returns": {
          "supply": "The total supply."
        }
      },
      "transferTo(address,address,uint256,uint256)": {
        "details": "Only a token holder or an operator can transfer its unclaimed tokens.",
        "params": {
          "_amount": "The amount of tokens to transfer.",
          "_holder": "The address to transfer tokens from.",
          "_projectId": "The ID of the project whose tokens are being transferred.",
          "_recipient": "The recipient of the tokens."
        }
      }
    },
    "version": 1
  },
  "userdoc": {
    "kind": "user",
    "methods": {
      "balanceOf(address,uint256)": {
        "notice": "The total balance of token a holder has for a specified project, including claimed and unclaimed tokens."
      },
      "burnFrom(address,uint256,uint256,bool)": {
        "notice": "Burns tokens."
      },
      "changeFor(uint256,address,address)": {
        "notice": "Swap the current project's token that is minted and burned for another, and transfer ownership of the current token to another address if needed."
      },
      "claimFor(address,uint256,uint256)": {
        "notice": "Claims internal tokens by minting and distributing ERC20 tokens."
      },
      "directory()": {
        "notice": " The directory of terminals and controllers for projects."
      },
      "issueFor(uint256,string,string)": {
        "notice": "Issues an owner's ERC-20 Tokens that'll be used when claiming tokens."
      },
      "mintFor(address,uint256,uint256,bool)": {
        "notice": "Mint new tokens."
      },
      "operatorStore()": {
        "notice": " A contract storing operator assignments."
      },
      "projects()": {
        "notice": "The Projects contract which mints ERC-721's that represent project ownership and transfers."
      },
      "requireClaimFor(uint256)": {
        "notice": "A flag indicating if tokens are required to be issued as claimed for a particular project. _projectId The ID of the project to which the requirement applies."
      },
      "shouldRequireClaimingFor(uint256,bool)": {
        "notice": "Allows a project to force all future mints to be claimed into the holder's wallet, or revoke the flag if it's already set."
      },
      "tokenOf(uint256)": {
        "notice": "Each project's ERC20 Token tokens. _projectId The ID of the project to which the token belongs."
      },
      "totalSupplyOf(uint256)": {
        "notice": "The total supply of tokens for each project, including claimed and unclaimed tokens."
      },
      "transferTo(address,address,uint256,uint256)": {
        "notice": "Allows an unclaimed token holder to transfer them to another account, without claiming to ERC-20s."
      },
      "unclaimedBalanceOf(address,uint256)": {
        "notice": "Each holder's balance of unclaimed Tokens for each project. _holder The holder of balance. _projectId The ID of the project to which the token belongs."
      },
      "unclaimedTotalSupplyOf(uint256)": {
        "notice": "The total supply of unclaimed tokens for each project. _projectId The ID of the project to which the token belongs."
      }
    },
    "notice": "Manage Token minting, burning, and account balances.",
    "version": 1
  },
  "storageLayout": {
    "storage": [
      {
        "astId": 12911,
        "contract": "contracts/JBTokenStore.sol:JBTokenStore",
        "label": "tokenOf",
        "offset": 0,
        "slot": "0",
        "type": "t_mapping(t_uint256,t_contract(IJBToken)15161)"
      },
      {
        "astId": 12919,
        "contract": "contracts/JBTokenStore.sol:JBTokenStore",
        "label": "unclaimedBalanceOf",
        "offset": 0,
        "slot": "1",
        "type": "t_mapping(t_address,t_mapping(t_uint256,t_uint256))"
      },
      {
        "astId": 12925,
        "contract": "contracts/JBTokenStore.sol:JBTokenStore",
        "label": "unclaimedTotalSupplyOf",
        "offset": 0,
        "slot": "2",
        "type": "t_mapping(t_uint256,t_uint256)"
      },
      {
        "astId": 12931,
        "contract": "contracts/JBTokenStore.sol:JBTokenStore",
        "label": "requireClaimFor",
        "offset": 0,
        "slot": "3",
        "type": "t_mapping(t_uint256,t_bool)"
      }
    ],
    "types": {
      "t_address": {
        "encoding": "inplace",
        "label": "address",
        "numberOfBytes": "20"
      },
      "t_bool": {
        "encoding": "inplace",
        "label": "bool",
        "numberOfBytes": "1"
      },
      "t_contract(IJBToken)15161": {
        "encoding": "inplace",
        "label": "contract IJBToken",
        "numberOfBytes": "20"
      },
      "t_mapping(t_address,t_mapping(t_uint256,t_uint256))": {
        "encoding": "mapping",
        "key": "t_address",
        "label": "mapping(address => mapping(uint256 => uint256))",
        "numberOfBytes": "32",
        "value": "t_mapping(t_uint256,t_uint256)"
      },
      "t_mapping(t_uint256,t_bool)": {
        "encoding": "mapping",
        "key": "t_uint256",
        "label": "mapping(uint256 => bool)",
        "numberOfBytes": "32",
        "value": "t_bool"
      },
      "t_mapping(t_uint256,t_contract(IJBToken)15161)": {
        "encoding": "mapping",
        "key": "t_uint256",
        "label": "mapping(uint256 => contract IJBToken)",
        "numberOfBytes": "32",
        "value": "t_contract(IJBToken)15161"
      },
      "t_mapping(t_uint256,t_uint256)": {
        "encoding": "mapping",
        "key": "t_uint256",
        "label": "mapping(uint256 => uint256)",
        "numberOfBytes": "32",
        "value": "t_uint256"
      },
      "t_uint256": {
        "encoding": "inplace",
        "label": "uint256",
        "numberOfBytes": "32"
      }
    }
  }
}