{
  "address": "0x61d095f86c36B05446edd5a19DEAd11c703Be3F0",
  "abi": [
    {
      "inputs": [
        {
          "internalType": "contract IJBProjects",
          "name": "_projects",
          "type": "address"
        },
        {
          "internalType": "contract IJBOperatorStore",
          "name": "_operatorStore",
          "type": "address"
        },
        {
          "internalType": "contract IJBDirectory",
          "name": "_directory",
          "type": "address"
        }
      ],
      "stateMutability": "nonpayable",
      "type": "constructor"
    },
    {
      "anonymous": false,
      "inputs": [
        {
          "indexed": true,
          "internalType": "address",
          "name": "holder",
          "type": "address"
        },
        {
          "indexed": true,
          "internalType": "uint256",
          "name": "projectId",
          "type": "uint256"
        },
        {
          "indexed": false,
          "internalType": "uint256",
          "name": "amount",
          "type": "uint256"
        },
        {
          "indexed": false,
          "internalType": "uint256",
          "name": "unlockedStakedBalance",
          "type": "uint256"
        },
        {
          "indexed": false,
          "internalType": "bool",
          "name": "preferUnstakedTokens",
          "type": "bool"
        },
        {
          "indexed": false,
          "internalType": "address",
          "name": "caller",
          "type": "address"
        }
      ],
      "name": "Burn",
      "type": "event"
    },
    {
      "anonymous": false,
      "inputs": [
        {
          "indexed": true,
          "internalType": "uint256",
          "name": "projectId",
          "type": "uint256"
        },
        {
          "indexed": true,
          "internalType": "contract IJBToken",
          "name": "token",
          "type": "address"
        },
        {
          "indexed": false,
          "internalType": "string",
          "name": "name",
          "type": "string"
        },
        {
          "indexed": false,
          "internalType": "string",
          "name": "symbol",
          "type": "string"
        },
        {
          "indexed": false,
          "internalType": "address",
          "name": "caller",
          "type": "address"
        }
      ],
      "name": "Issue",
      "type": "event"
    },
    {
      "anonymous": false,
      "inputs": [
        {
          "indexed": true,
          "internalType": "address",
          "name": "holder",
          "type": "address"
        },
        {
          "indexed": true,
          "internalType": "uint256",
          "name": "projectId",
          "type": "uint256"
        },
        {
          "indexed": false,
          "internalType": "uint256",
          "name": "amount",
          "type": "uint256"
        },
        {
          "indexed": false,
          "internalType": "address",
          "name": "caller",
          "type": "address"
        }
      ],
      "name": "Lock",
      "type": "event"
    },
    {
      "anonymous": false,
      "inputs": [
        {
          "indexed": true,
          "internalType": "address",
          "name": "holder",
          "type": "address"
        },
        {
          "indexed": true,
          "internalType": "uint256",
          "name": "projectId",
          "type": "uint256"
        },
        {
          "indexed": false,
          "internalType": "uint256",
          "name": "amount",
          "type": "uint256"
        },
        {
          "indexed": false,
          "internalType": "bool",
          "name": "shouldUnstakeTokens",
          "type": "bool"
        },
        {
          "indexed": false,
          "internalType": "bool",
          "name": "preferUnstakedTokens",
          "type": "bool"
        },
        {
          "indexed": false,
          "internalType": "address",
          "name": "caller",
          "type": "address"
        }
      ],
      "name": "Mint",
      "type": "event"
    },
    {
      "anonymous": false,
      "inputs": [
        {
          "indexed": true,
          "internalType": "address",
          "name": "holder",
          "type": "address"
        },
        {
          "indexed": true,
          "internalType": "uint256",
          "name": "projectId",
          "type": "uint256"
        },
        {
          "indexed": false,
          "internalType": "uint256",
          "name": "amount",
          "type": "uint256"
        },
        {
          "indexed": false,
          "internalType": "address",
          "name": "caller",
          "type": "address"
        }
      ],
      "name": "Stake",
      "type": "event"
    },
    {
      "anonymous": false,
      "inputs": [
        {
          "indexed": true,
          "internalType": "address",
          "name": "holder",
          "type": "address"
        },
        {
          "indexed": true,
          "internalType": "uint256",
          "name": "projectId",
          "type": "uint256"
        },
        {
          "indexed": true,
          "internalType": "address",
          "name": "recipient",
          "type": "address"
        },
        {
          "indexed": false,
          "internalType": "uint256",
          "name": "amount",
          "type": "uint256"
        },
        {
          "indexed": false,
          "internalType": "address",
          "name": "caller",
          "type": "address"
        }
      ],
      "name": "Transfer",
      "type": "event"
    },
    {
      "anonymous": false,
      "inputs": [
        {
          "indexed": true,
          "internalType": "address",
          "name": "holder",
          "type": "address"
        },
        {
          "indexed": true,
          "internalType": "uint256",
          "name": "projectId",
          "type": "uint256"
        },
        {
          "indexed": false,
          "internalType": "uint256",
          "name": "amount",
          "type": "uint256"
        },
        {
          "indexed": false,
          "internalType": "address",
          "name": "caller",
          "type": "address"
        }
      ],
      "name": "Unlock",
      "type": "event"
    },
    {
      "anonymous": false,
      "inputs": [
        {
          "indexed": true,
          "internalType": "address",
          "name": "holder",
          "type": "address"
        },
        {
          "indexed": true,
          "internalType": "uint256",
          "name": "projectId",
          "type": "uint256"
        },
        {
          "indexed": false,
          "internalType": "uint256",
          "name": "amount",
          "type": "uint256"
        },
        {
          "indexed": false,
          "internalType": "address",
          "name": "caller",
          "type": "address"
        }
      ],
      "name": "Unstake",
      "type": "event"
    },
    {
      "inputs": [
        {
          "internalType": "address",
          "name": "_holder",
          "type": "address"
        },
        {
          "internalType": "uint256",
          "name": "_projectId",
          "type": "uint256"
        }
      ],
      "name": "balanceOf",
      "outputs": [
        {
          "internalType": "uint256",
          "name": "balance",
          "type": "uint256"
        }
      ],
      "stateMutability": "view",
      "type": "function"
    },
    {
      "inputs": [
        {
          "internalType": "address",
          "name": "_holder",
          "type": "address"
        },
        {
          "internalType": "uint256",
          "name": "_projectId",
          "type": "uint256"
        },
        {
          "internalType": "uint256",
          "name": "_amount",
          "type": "uint256"
        },
        {
          "internalType": "bool",
          "name": "_preferUnstakedTokens",
          "type": "bool"
        }
      ],
      "name": "burnFrom",
      "outputs": [],
      "stateMutability": "nonpayable",
      "type": "function"
    },
    {
      "inputs": [],
      "name": "directory",
      "outputs": [
        {
          "internalType": "contract IJBDirectory",
          "name": "",
          "type": "address"
        }
      ],
      "stateMutability": "view",
      "type": "function"
    },
    {
      "inputs": [
        {
          "internalType": "uint256",
          "name": "_projectId",
          "type": "uint256"
        },
        {
          "internalType": "string",
          "name": "_name",
          "type": "string"
        },
        {
          "internalType": "string",
          "name": "_symbol",
          "type": "string"
        }
      ],
      "name": "issueFor",
      "outputs": [
        {
          "internalType": "contract IJBToken",
          "name": "token",
          "type": "address"
        }
      ],
      "stateMutability": "nonpayable",
      "type": "function"
    },
    {
      "inputs": [
        {
          "internalType": "address",
          "name": "_holder",
          "type": "address"
        },
        {
          "internalType": "uint256",
          "name": "_projectId",
          "type": "uint256"
        },
        {
          "internalType": "uint256",
          "name": "_amount",
          "type": "uint256"
        }
      ],
      "name": "lockFor",
      "outputs": [],
      "stateMutability": "nonpayable",
      "type": "function"
    },
    {
      "inputs": [
        {
          "internalType": "address",
          "name": "",
          "type": "address"
        },
        {
          "internalType": "address",
          "name": "",
          "type": "address"
        },
        {
          "internalType": "uint256",
          "name": "",
          "type": "uint256"
        }
      ],
      "name": "lockedBalanceBy",
      "outputs": [
        {
          "internalType": "uint256",
          "name": "",
          "type": "uint256"
        }
      ],
      "stateMutability": "view",
      "type": "function"
    },
    {
      "inputs": [
        {
          "internalType": "address",
          "name": "",
          "type": "address"
        },
        {
          "internalType": "uint256",
          "name": "",
          "type": "uint256"
        }
      ],
      "name": "lockedBalanceOf",
      "outputs": [
        {
          "internalType": "uint256",
          "name": "",
          "type": "uint256"
        }
      ],
      "stateMutability": "view",
      "type": "function"
    },
    {
      "inputs": [
        {
          "internalType": "address",
          "name": "_holder",
          "type": "address"
        },
        {
          "internalType": "uint256",
          "name": "_projectId",
          "type": "uint256"
        },
        {
          "internalType": "uint256",
          "name": "_amount",
          "type": "uint256"
        },
        {
          "internalType": "bool",
          "name": "_preferUnstakedTokens",
          "type": "bool"
        }
      ],
      "name": "mintFor",
      "outputs": [],
      "stateMutability": "nonpayable",
      "type": "function"
    },
    {
      "inputs": [],
      "name": "operatorStore",
      "outputs": [
        {
          "internalType": "contract IJBOperatorStore",
          "name": "",
          "type": "address"
        }
      ],
      "stateMutability": "view",
      "type": "function"
    },
    {
      "inputs": [],
      "name": "projects",
      "outputs": [
        {
          "internalType": "contract IJBProjects",
          "name": "",
          "type": "address"
        }
      ],
      "stateMutability": "view",
      "type": "function"
    },
    {
      "inputs": [
        {
          "internalType": "address",
          "name": "_holder",
          "type": "address"
        },
        {
          "internalType": "uint256",
          "name": "_projectId",
          "type": "uint256"
        },
        {
          "internalType": "uint256",
          "name": "_amount",
          "type": "uint256"
        }
      ],
      "name": "stakeFor",
      "outputs": [],
      "stateMutability": "nonpayable",
      "type": "function"
    },
    {
      "inputs": [
        {
          "internalType": "address",
          "name": "",
          "type": "address"
        },
        {
          "internalType": "uint256",
          "name": "",
          "type": "uint256"
        }
      ],
      "name": "stakedBalanceOf",
      "outputs": [
        {
          "internalType": "uint256",
          "name": "",
          "type": "uint256"
        }
      ],
      "stateMutability": "view",
      "type": "function"
    },
    {
      "inputs": [
        {
          "internalType": "uint256",
          "name": "",
          "type": "uint256"
        }
      ],
      "name": "stakedTotalSupplyOf",
      "outputs": [
        {
          "internalType": "uint256",
          "name": "",
          "type": "uint256"
        }
      ],
      "stateMutability": "view",
      "type": "function"
    },
    {
      "inputs": [
        {
          "internalType": "uint256",
          "name": "",
          "type": "uint256"
        }
      ],
      "name": "tokenOf",
      "outputs": [
        {
          "internalType": "contract IJBToken",
          "name": "",
          "type": "address"
        }
      ],
      "stateMutability": "view",
      "type": "function"
    },
    {
      "inputs": [
        {
          "internalType": "uint256",
          "name": "_projectId",
          "type": "uint256"
        }
      ],
      "name": "totalSupplyOf",
      "outputs": [
        {
          "internalType": "uint256",
          "name": "supply",
          "type": "uint256"
        }
      ],
      "stateMutability": "view",
      "type": "function"
    },
    {
      "inputs": [
        {
          "internalType": "address",
          "name": "_recipient",
          "type": "address"
        },
        {
          "internalType": "address",
          "name": "_holder",
          "type": "address"
        },
        {
          "internalType": "uint256",
          "name": "_projectId",
          "type": "uint256"
        },
        {
          "internalType": "uint256",
          "name": "_amount",
          "type": "uint256"
        }
      ],
      "name": "transferTo",
      "outputs": [],
      "stateMutability": "nonpayable",
      "type": "function"
    },
    {
      "inputs": [
        {
          "internalType": "address",
          "name": "_holder",
          "type": "address"
        },
        {
          "internalType": "uint256",
          "name": "_projectId",
          "type": "uint256"
        },
        {
          "internalType": "uint256",
          "name": "_amount",
          "type": "uint256"
        }
      ],
      "name": "unlockFor",
      "outputs": [],
      "stateMutability": "nonpayable",
      "type": "function"
    },
    {
      "inputs": [
        {
          "internalType": "address",
          "name": "_holder",
          "type": "address"
        },
        {
          "internalType": "uint256",
          "name": "_projectId",
          "type": "uint256"
        },
        {
          "internalType": "uint256",
          "name": "_amount",
          "type": "uint256"
        }
      ],
      "name": "unstakeFor",
      "outputs": [],
      "stateMutability": "nonpayable",
      "type": "function"
    }
  ],
  "transactionHash": "0x4767ce8b2c563906518084430725bc4b751579936a6ad79e11a591e3e5937b07",
  "args": [
    "0x2DC1D364e52FCC7A3F3b5225813F0fcEC1ff715A",
    "0xC4D620E189b420249005FD38b22B1EA138cc0BeE",
    "0xf835913B60B870A3a14b6C7179fEDF0fEba49D93"
  ],
  "solcInputHash": "096d8193c9ef3fa94853075f8aa2d2db",
  "bytecode": "0x60e06040523480156200001157600080fd5b50604051620045b7380380620045b783398101604081905262000034916200005d565b6001600160601b0319606091821b811660805291811b821660a0529190911b1660c052620000ca565b6000806000606084860312156200007357600080fd5b83516200008081620000b1565b60208501519093506200009381620000b1565b6040850151909250620000a681620000b1565b809150509250925092565b6001600160a01b0381168114620000c757600080fd5b50565b60805160601c60a05160601c60c05160601c61446062000157600039600081816101ed01526117240152600081816102a101528181610504015281816105d501528181610a5f01528181610b3001528181610e3a01528181610f0b0152818161180c01528181611b160152611be7015260008181610342015281816112a90152611f3101526144606000f3fe60806040523480156200001157600080fd5b50600436106200014e5760003560e01c8063a7f2a70b11620000c0578063b6f7fdb9116200008b578063ceddd3e4116200006e578063ceddd3e41462000364578063d9638321146200037b578063ea78803f146200039257600080fd5b8063b6f7fdb91462000308578063c41c2f24146200033c57600080fd5b8063a7f2a70b1462000284578063ad007d63146200029b578063b357124d14620002c3578063b656463b14620002da57600080fd5b806383e25f8a116200011e5780638ef4c80711620001015780638ef4c80714620002285780638ffe9b941462000256578063906ebd0f146200026d57600080fd5b806383e25f8a14620001d05780638b79543c14620001e757600080fd5b8062fdd58e14620001535780635030724e146200017d57806358e9a81514620001a057806375b0d9cd14620001b9575b600080fd5b6200016a62000164366004620024c0565b620003be565b6040519081526020015b60405180910390f35b6200016a6200018e36600462002596565b60026020526000908152604090205481565b620001b7620001b1366004620024ef565b620004a1565b005b6200016a620001ca36600462002596565b62000948565b620001b7620001e1366004620024ef565b620009fc565b6200020f7f000000000000000000000000000000000000000000000000000000000000000081565b6040516001600160a01b03909116815260200162000174565b6200016a62000239366004620024c0565b600360209081526000928352604080842090915290825290205481565b620001b76200026736600462002475565b62000dd7565b620001b76200027e36600462002527565b62001267565b6200020f62000295366004620025ca565b620016f2565b6200020f7f000000000000000000000000000000000000000000000000000000000000000081565b620001b7620002d4366004620024ef565b62001ab3565b6200016a620002eb366004620024c0565b600160209081526000928352604080842090915290825290205481565b6200016a620003193660046200242f565b600460209081526000938452604080852082529284528284209052825290205481565b6200020f7f000000000000000000000000000000000000000000000000000000000000000081565b620001b76200037536600462002527565b62001eef565b620001b76200038c366004620024ef565b620021ed565b6200020f620003a336600462002596565b6000602081905290815260409020546001600160a01b031681565b6001600160a01b038083166000908152600160209081526040808320858452825280832054918390529091205490911680156200049a576040517f70a082310000000000000000000000000000000000000000000000000000000081526001600160a01b0385811660048301528216906370a082319060240160206040518083038186803b1580156200045057600080fd5b505afa15801562000465573d6000803e3d6000fd5b505050506040513d601f19601f820116820180604052508101906200048b9190620025b0565b62000497908362002711565b91505b5092915050565b8282600a336001600160a01b03841614806200058257506040517fc161c93f0000000000000000000000000000000000000000000000000000000081523360048201526001600160a01b03848116602483015260448201849052606482018390527f0000000000000000000000000000000000000000000000000000000000000000169063c161c93f9060840160206040518083038186803b1580156200054757600080fd5b505afa1580156200055c573d6000803e3d6000fd5b505050506040513d601f19601f8201168201806040525081019062000582919062002576565b806200065357506040517fc161c93f0000000000000000000000000000000000000000000000000000000081523360048201526001600160a01b03848116602483015260006044830152606482018390527f0000000000000000000000000000000000000000000000000000000000000000169063c161c93f9060840160206040518083038186803b1580156200061857600080fd5b505afa1580156200062d573d6000803e3d6000fd5b505050506040513d601f19601f8201168201806040525081019062000653919062002576565b620006a55760405162461bcd60e51b815260206004820152601860248201527f4f706572617461626c653a20554e415554484f52495a4544000000000000000060448201526064015b60405180910390fd5b6000858152602081905260409020546001600160a01b0316806200070c5760405162461bcd60e51b815260206004820152600960248201527f4e4f545f464f554e44000000000000000000000000000000000000000000000060448201526064016200069c565b6040517f70a082310000000000000000000000000000000000000000000000000000000081526001600160a01b038881166004830152600091908316906370a082319060240160206040518083038186803b1580156200076b57600080fd5b505afa15801562000780573d6000803e3d6000fd5b505050506040513d601f19601f82011682018060405250810190620007a69190620025b0565b905085811015620007fa5760405162461bcd60e51b815260206004820152601260248201527f494e53554646494349454e545f46554e4453000000000000000000000000000060448201526064016200069c565b6040517f9dc29fac0000000000000000000000000000000000000000000000000000000081526001600160a01b03898116600483015260248201889052831690639dc29fac90604401600060405180830381600087803b1580156200085e57600080fd5b505af115801562000873573d6000803e3d6000fd5b5050506001600160a01b03891660009081526001602090815260408083208b8452909152902054620008a89150879062002711565b6001600160a01b03891660009081526001602090815260408083208b8452825280832093909355600290522054620008e290879062002711565b600088815260026020908152604091829020929092558051888152339281019290925288916001600160a01b038b16917feb43904edee62537f8f003e791630611e9d7d8b7e0f0c038639ebe7c970dd63091015b60405180910390a35050505050505050565b60008181526002602090815260408083205491839052909120546001600160a01b03168015620009f657806001600160a01b03166318160ddd6040518163ffffffff1660e01b815260040160206040518083038186803b158015620009ac57600080fd5b505afa158015620009c1573d6000803e3d6000fd5b505050506040513d601f19601f82011682018060405250810190620009e79190620025b0565b620009f3908362002711565b91505b50919050565b8282600d336001600160a01b038416148062000add57506040517fc161c93f0000000000000000000000000000000000000000000000000000000081523360048201526001600160a01b03848116602483015260448201849052606482018390527f0000000000000000000000000000000000000000000000000000000000000000169063c161c93f9060840160206040518083038186803b15801562000aa257600080fd5b505afa15801562000ab7573d6000803e3d6000fd5b505050506040513d601f19601f8201168201806040525081019062000add919062002576565b8062000bae57506040517fc161c93f0000000000000000000000000000000000000000000000000000000081523360048201526001600160a01b03848116602483015260006044830152606482018390527f0000000000000000000000000000000000000000000000000000000000000000169063c161c93f9060840160206040518083038186803b15801562000b7357600080fd5b505afa15801562000b88573d6000803e3d6000fd5b505050506040513d601f19601f8201168201806040525081019062000bae919062002576565b62000bfc5760405162461bcd60e51b815260206004820152601860248201527f4f706572617461626c653a20554e415554484f52495a4544000000000000000060448201526064016200069c565b6000841162000c4e5760405162461bcd60e51b815260206004820152600560248201527f4e4f5f4f5000000000000000000000000000000000000000000000000000000060448201526064016200069c565b6001600160a01b038616600081815260036020908152604080832089845282528083205493835260018252808320898452909152902054859162000c92916200272c565b101562000ce25760405162461bcd60e51b815260206004820152601260248201527f494e53554646494349454e545f46554e4453000000000000000000000000000060448201526064016200069c565b6001600160a01b038616600090815260036020908152604080832088845290915290205462000d1390859062002711565b6001600160a01b03871660008181526003602090815260408083208a845282528083209490945533825260048152838220928252918252828120888252909152205462000d6290859062002711565b3360008181526004602090815260408083206001600160a01b038c168085529083528184208b855283529281902094909455835188815290810192909252879290917f75784e97e4541f1b3d2c44d8c51b419e33fb6de615033cfc6e6810db54ffa4fe910160405180910390a3505050505050565b8282600c336001600160a01b038416148062000eb857506040517fc161c93f0000000000000000000000000000000000000000000000000000000081523360048201526001600160a01b03848116602483015260448201849052606482018390527f0000000000000000000000000000000000000000000000000000000000000000169063c161c93f9060840160206040518083038186803b15801562000e7d57600080fd5b505afa15801562000e92573d6000803e3d6000fd5b505050506040513d601f19601f8201168201806040525081019062000eb8919062002576565b8062000f8957506040517fc161c93f0000000000000000000000000000000000000000000000000000000081523360048201526001600160a01b03848116602483015260006044830152606482018390527f0000000000000000000000000000000000000000000000000000000000000000169063c161c93f9060840160206040518083038186803b15801562000f4e57600080fd5b505afa15801562000f63573d6000803e3d6000fd5b505050506040513d601f19601f8201168201806040525081019062000f89919062002576565b62000fd75760405162461bcd60e51b815260206004820152601860248201527f4f706572617461626c653a20554e415554484f52495a4544000000000000000060448201526064016200069c565b6001600160a01b0387166200102f5760405162461bcd60e51b815260206004820152600c60248201527f5a45524f5f41444452455353000000000000000000000000000000000000000060448201526064016200069c565b866001600160a01b0316866001600160a01b03161415620010935760405162461bcd60e51b815260206004820152600860248201527f4944454e5449545900000000000000000000000000000000000000000000000060448201526064016200069c565b60008411620010e55760405162461bcd60e51b815260206004820152600560248201527f4e4f5f4f5000000000000000000000000000000000000000000000000000000060448201526064016200069c565b6001600160a01b038616600081815260036020908152604080832089845282528083205493835260018252808320898452909152812054909162001129916200272c565b9050808511156200117d5760405162461bcd60e51b815260206004820152601260248201527f494e53554646494349454e545f46554e4453000000000000000000000000000060448201526064016200069c565b6001600160a01b0387166000908152600160209081526040808320898452909152902054620011ae9086906200272c565b6001600160a01b0380891660009081526001602081815260408084208c8552825280842095909555928c16825282528281208982529091522054620011f590869062002711565b6001600160a01b0389811660008181526001602090815260408083208c84528252918290209490945580518981523394810194909452909289928b16917fae47e55abe3902569528abe4272b889079230a248aec0659a2939a90354982c6910160405180910390a45050505050505050565b6040517f532fbaee0000000000000000000000000000000000000000000000000000000081526004810184905260006024820152839033906001600160a01b037f0000000000000000000000000000000000000000000000000000000000000000169063532fbaee9060440160206040518083038186803b158015620012ec57600080fd5b505afa15801562001301573d6000803e3d6000fd5b505050506040513d601f19601f8201168201806040525081019062001327919062002408565b6001600160a01b0316146200137f5760405162461bcd60e51b815260206004820152601d60248201527f5465726d696e616c5574696c6974793a20554e415554484f52495a454400000060448201526064016200069c565b600084815260208181526040808320546001600160a01b03898116808652600385528386208a8752855283862054908652600185528386208a87529094529184205491169291620013d0916200272c565b905060006001600160a01b0383161562001480576040517f70a082310000000000000000000000000000000000000000000000000000000081526001600160a01b0389811660048301528416906370a082319060240160206040518083038186803b1580156200143f57600080fd5b505afa15801562001454573d6000803e3d6000fd5b505050506040513d601f19601f820116820180604052508101906200147a9190620025b0565b62001483565b60005b905080861080156200149457508186105b80620014b75750808610158015620014b75750620014b381876200272c565b8210155b80620014da5750818610158015620014da5750620014d682876200272c565b8110155b620015285760405162461bcd60e51b815260206004820152601260248201527f494e53554646494349454e545f46554e4453000000000000000000000000000060448201526064016200069c565b60008162001539575060006200157b565b85156200155a578682101562001550578162001552565b865b90506200157b565b8683101562001575576200156f83886200272c565b62001578565b60005b90505b60006200158982896200272c565b9050811562001610576040517f9dc29fac0000000000000000000000000000000000000000000000000000000081526001600160a01b038b8116600483015260248201849052861690639dc29fac90604401600060405180830381600087803b158015620015f657600080fd5b505af11580156200160b573d6000803e3d6000fd5b505050505b801562001692576001600160a01b038a1660009081526001602090815260408083208c8452909152902054620016489082906200272c565b6001600160a01b038b1660009081526001602090815260408083208d8452825280832093909355600290522054620016829082906200272c565b60008a8152600260205260409020555b60408051898152602081018690528815158183015233606082015290518a916001600160a01b038d16917fa006002ee8ea1e7bacf87ae6d874d4117de99e4aa814339c9a8199bcecd97fe39181900360800190a350505050505050505050565b6040517f6352211e000000000000000000000000000000000000000000000000000000008152600481018690526000907f00000000000000000000000000000000000000000000000000000000000000006001600160a01b031690636352211e9060240160206040518083038186803b1580156200176f57600080fd5b505afa15801562001784573d6000803e3d6000fd5b505050506040513d601f19601f82011682018060405250810190620017aa919062002408565b866009336001600160a01b03841614806200188a57506040517fc161c93f0000000000000000000000000000000000000000000000000000000081523360048201526001600160a01b03848116602483015260448201849052606482018390527f0000000000000000000000000000000000000000000000000000000000000000169063c161c93f9060840160206040518083038186803b1580156200184f57600080fd5b505afa15801562001864573d6000803e3d6000fd5b505050506040513d601f19601f820116820180604052508101906200188a919062002576565b620018d85760405162461bcd60e51b815260206004820152601860248201527f4f706572617461626c653a20554e415554484f52495a4544000000000000000060448201526064016200069c565b86620019275760405162461bcd60e51b815260206004820152600a60248201527f454d5054595f4e414d450000000000000000000000000000000000000000000060448201526064016200069c565b84620019765760405162461bcd60e51b815260206004820152600c60248201527f454d5054595f53594d424f4c000000000000000000000000000000000000000060448201526064016200069c565b6000898152602081905260409020546001600160a01b031615620019dd5760405162461bcd60e51b815260206004820152600e60248201527f414c52454144595f49535355454400000000000000000000000000000000000060448201526064016200069c565b87878787604051620019ef90620023ae565b620019fe949392919062002694565b604051809103906000f08015801562001a1b573d6000803e3d6000fd5b5060008a8152602081905260409081902080547fffffffffffffffffffffffff0000000000000000000000000000000000000000166001600160a01b0384169081179091559051919550908a907f1b1705bef26552c8f314c5eb80e9c84f02876c2f7f30a7f9ad5cafd17d5fa6da9062001a9f908c908c908c908c903390620026ca565b60405180910390a350505095945050505050565b8282600b336001600160a01b038416148062001b9457506040517fc161c93f0000000000000000000000000000000000000000000000000000000081523360048201526001600160a01b03848116602483015260448201849052606482018390527f0000000000000000000000000000000000000000000000000000000000000000169063c161c93f9060840160206040518083038186803b15801562001b5957600080fd5b505afa15801562001b6e573d6000803e3d6000fd5b505050506040513d601f19601f8201168201806040525081019062001b94919062002576565b8062001c6557506040517fc161c93f0000000000000000000000000000000000000000000000000000000081523360048201526001600160a01b03848116602483015260006044830152606482018390527f0000000000000000000000000000000000000000000000000000000000000000169063c161c93f9060840160206040518083038186803b15801562001c2a57600080fd5b505afa15801562001c3f573d6000803e3d6000fd5b505050506040513d601f19601f8201168201806040525081019062001c65919062002576565b62001cb35760405162461bcd60e51b815260206004820152601860248201527f4f706572617461626c653a20554e415554484f52495a4544000000000000000060448201526064016200069c565b6000858152602081905260409020546001600160a01b03168062001d1a5760405162461bcd60e51b815260206004820152600960248201527f4e4f545f464f554e44000000000000000000000000000000000000000000000060448201526064016200069c565b6001600160a01b03871660008181526003602090815260408083208a8452825280832054938352600182528083208a8452909152812054909162001d5e916200272c565b90508581101562001db25760405162461bcd60e51b815260206004820152601260248201527f494e53554646494349454e545f46554e4453000000000000000000000000000060448201526064016200069c565b6001600160a01b03881660009081526001602090815260408083208a845290915290205462001de39087906200272c565b6001600160a01b03891660009081526001602090815260408083208b845282528083209390935560029052205462001e1d9087906200272c565b6000888152600260205260409081902091909155517f40c10f190000000000000000000000000000000000000000000000000000000081526001600160a01b038981166004830152602482018890528316906340c10f1990604401600060405180830381600087803b15801562001e9357600080fd5b505af115801562001ea8573d6000803e3d6000fd5b5050604080518981523360208201528a93506001600160a01b038c1692507f8b264d23b1bf5d7d34440338fbbf8e868725712186df7862503c9620ea6e9589910162000936565b6040517f532fbaee0000000000000000000000000000000000000000000000000000000081526004810184905260006024820152839033906001600160a01b037f0000000000000000000000000000000000000000000000000000000000000000169063532fbaee9060440160206040518083038186803b15801562001f7457600080fd5b505afa15801562001f89573d6000803e3d6000fd5b505050506040513d601f19601f8201168201806040525081019062001faf919062002408565b6001600160a01b031614620020075760405162461bcd60e51b815260206004820152601d60248201527f5465726d696e616c5574696c6974793a20554e415554484f52495a454400000060448201526064016200069c565b60008311620020595760405162461bcd60e51b815260206004820152601960248201527f4a42546f6b656e53746f72653a3a6d696e743a204e4f5f4f500000000000000060448201526064016200069c565b6000848152602081905260408120546001600160a01b0316908380156200208857506001600160a01b03821615155b9050801562002114576040517f40c10f190000000000000000000000000000000000000000000000000000000081526001600160a01b038881166004830152602482018790528316906340c10f1990604401600060405180830381600087803b158015620020f557600080fd5b505af11580156200210a573d6000803e3d6000fd5b505050506200218f565b6001600160a01b03871660009081526001602090815260408083208984529091529020546200214590869062002711565b6001600160a01b03881660009081526001602090815260408083208a84528252808320939093556002905220546200217f90869062002711565b6000878152600260205260409020555b60408051868152821515602082015285151581830152336060820152905187916001600160a01b038a16917f5dd3ead325af435e56bc762b40de54c96de6071938d18a26414245807591d86f9181900360800190a350505050505050565b600081116200223f5760405162461bcd60e51b815260206004820152600560248201527f4e4f5f4f5000000000000000000000000000000000000000000000000000000060448201526064016200069c565b3360009081526004602090815260408083206001600160a01b03871684528252808320858452909152902054811115620022bc5760405162461bcd60e51b815260206004820152601260248201527f494e53554646494349454e545f46554e4453000000000000000000000000000060448201526064016200069c565b6001600160a01b0383166000908152600360209081526040808320858452909152902054620022ed9082906200272c565b6001600160a01b03841660008181526003602090815260408083208784528252808320949094553382526004815283822092825291825282812085825290915220546200233c9082906200272c565b3360008181526004602090815260408083206001600160a01b03891680855290835281842088855283529281902094909455835185815290810192909252849290917f17a47c3640e01bce0ad23c20907bc651cab2af1b0abc543ae1da119b43de8cca910160405180910390a3505050565b611c8d806200279e83390190565b60008083601f840112620023cf57600080fd5b50813567ffffffffffffffff811115620023e857600080fd5b6020830191508360208285010111156200240157600080fd5b9250929050565b6000602082840312156200241b57600080fd5b8151620024288162002775565b9392505050565b6000806000606084860312156200244557600080fd5b8335620024528162002775565b92506020840135620024648162002775565b929592945050506040919091013590565b600080600080608085870312156200248c57600080fd5b8435620024998162002775565b93506020850135620024ab8162002775565b93969395505050506040820135916060013590565b60008060408385031215620024d457600080fd5b8235620024e18162002775565b946020939093013593505050565b6000806000606084860312156200250557600080fd5b8335620025128162002775565b95602085013595506040909401359392505050565b600080600080608085870312156200253e57600080fd5b84356200254b8162002775565b9350602085013592506040850135915060608501356200256b816200278e565b939692955090935050565b6000602082840312156200258957600080fd5b815162002428816200278e565b600060208284031215620025a957600080fd5b5035919050565b600060208284031215620025c357600080fd5b5051919050565b600080600080600060608688031215620025e357600080fd5b85359450602086013567ffffffffffffffff808211156200260357600080fd5b6200261189838a01620023bc565b909650945060408801359150808211156200262b57600080fd5b506200263a88828901620023bc565b969995985093965092949392505050565b8183528181602085013750600060208284010152600060207fffffffffffffffffffffffffffffffffffffffffffffffffffffffffffffffe0601f840116840101905092915050565b604081526000620026aa6040830186886200264b565b8281036020840152620026bf8185876200264b565b979650505050505050565b606081526000620026e06060830187896200264b565b8281036020840152620026f58186886200264b565b9150506001600160a01b03831660408301529695505050505050565b6000821982111562002727576200272762002746565b500190565b60008282101562002741576200274162002746565b500390565b7f4e487b7100000000000000000000000000000000000000000000000000000000600052601160045260246000fd5b6001600160a01b03811681146200278b57600080fd5b50565b80151581146200278b57600080fdfe6101406040527f6e71edae12b1b97f4d1f60370fef10105fa2faae0126114a169c64845d6126c9610120523480156200003757600080fd5b5060405162001c8d38038062001c8d8339810160408190526200005a91620002f6565b8180604051806040016040528060018152602001603160f81b815250848481600390805190602001906200009092919062000199565b508051620000a690600490602084019062000199565b5050825160209384012082519284019290922060c083815260e08290524660a0818152604080517f8b73c3c69bb8fe3d512ecc4cf759cc79239f7b179b0ffacaa9a75d522b39400f818a0181905281830198909852606081019590955260808086019390935230858301528051808603909201825293909201909252805194019390932090925261010052506200013f90503362000147565b5050620003b3565b600680546001600160a01b038381166001600160a01b0319831681179093556040519116919082907f8be0079c531659141344cd1fd0a4f28419497f9722a3daafe3b4186f6b6457e090600090a35050565b828054620001a79062000360565b90600052602060002090601f016020900481019282620001cb576000855562000216565b82601f10620001e657805160ff191683800117855562000216565b8280016001018555821562000216579182015b8281111562000216578251825591602001919060010190620001f9565b506200022492915062000228565b5090565b5b8082111562000224576000815560010162000229565b600082601f8301126200025157600080fd5b81516001600160401b03808211156200026e576200026e6200039d565b604051601f8301601f19908116603f011681019082821181831017156200029957620002996200039d565b81604052838152602092508683858801011115620002b657600080fd5b600091505b83821015620002da5785820183015181830184015290820190620002bb565b83821115620002ec5760008385830101525b9695505050505050565b600080604083850312156200030a57600080fd5b82516001600160401b03808211156200032257600080fd5b62000330868387016200023f565b935060208501519150808211156200034757600080fd5b5062000356858286016200023f565b9150509250929050565b600181811c908216806200037557607f821691505b602082108114156200039757634e487b7160e01b600052602260045260246000fd5b50919050565b634e487b7160e01b600052604160045260246000fd5b60805160a05160c05160e051610100516101205161188a6200040360003960006107a601526000610e1501526000610e6401526000610e3f01526000610dc301526000610dec015261188a6000f3fe608060405234801561001057600080fd5b50600436106101515760003560e01c8063715018a6116100cd578063a457c2d711610081578063d505accf11610066578063d505accf146102b5578063dd62ed3e146102c8578063f2fde38b1461030e57600080fd5b8063a457c2d71461028f578063a9059cbb146102a257600080fd5b80638da5cb5b116100b25780638da5cb5b1461024c57806395d89b41146102745780639dc29fac1461027c57600080fd5b8063715018a6146102315780637ecebe001461023957600080fd5b8063313ce56711610124578063395093511161010957806339509351146101d357806340c10f19146101e657806370a08231146101fb57600080fd5b8063313ce567146101bc5780633644e515146101cb57600080fd5b806306fdde0314610156578063095ea7b31461017457806318160ddd1461019757806323b872dd146101a9575b600080fd5b61015e610321565b60405161016b9190611706565b60405180910390f35b6101876101823660046116dc565b6103b3565b604051901515815260200161016b565b6002545b60405190815260200161016b565b6101876101b736600461162d565b6103c9565b6040516012815260200161016b565b61019b61049a565b6101876101e13660046116dc565b6104a9565b6101f96101f43660046116dc565b6104f2565b005b61019b6102093660046115d8565b73ffffffffffffffffffffffffffffffffffffffff1660009081526020819052604090205490565b6101f9610567565b61019b6102473660046115d8565b6105da565b60065460405173ffffffffffffffffffffffffffffffffffffffff909116815260200161016b565b61015e610607565b6101f961028a3660046116dc565b610616565b61018761029d3660046116dc565b610687565b6101876102b03660046116dc565b610745565b6101f96102c3366004611669565b610752565b61019b6102d63660046115fa565b73ffffffffffffffffffffffffffffffffffffffff918216600090815260016020908152604080832093909416825291909152205490565b6101f961031c3660046115d8565b6108dd565b606060038054610330906117a8565b80601f016020809104026020016040519081016040528092919081815260200182805461035c906117a8565b80156103a95780601f1061037e576101008083540402835291602001916103a9565b820191906000526020600020905b81548152906001019060200180831161038c57829003601f168201915b5050505050905090565b60006103c03384846109d9565b50600192915050565b60006103d6848484610b59565b73ffffffffffffffffffffffffffffffffffffffff84166000908152600160209081526040808320338452909152902054828110156104825760405162461bcd60e51b815260206004820152602860248201527f45524332303a207472616e7366657220616d6f756e742065786365656473206160448201527f6c6c6f77616e636500000000000000000000000000000000000000000000000060648201526084015b60405180910390fd5b61048f85338584036109d9565b506001949350505050565b60006104a4610dbf565b905090565b33600081815260016020908152604080832073ffffffffffffffffffffffffffffffffffffffff8716845290915281205490916103c09185906104ed908690611779565b6109d9565b60065473ffffffffffffffffffffffffffffffffffffffff1633146105595760405162461bcd60e51b815260206004820181905260248201527f4f776e61626c653a2063616c6c6572206973206e6f7420746865206f776e65726044820152606401610479565b6105638282610eb2565b5050565b60065473ffffffffffffffffffffffffffffffffffffffff1633146105ce5760405162461bcd60e51b815260206004820181905260248201527f4f776e61626c653a2063616c6c6572206973206e6f7420746865206f776e65726044820152606401610479565b6105d86000610fb8565b565b73ffffffffffffffffffffffffffffffffffffffff81166000908152600560205260408120545b92915050565b606060048054610330906117a8565b60065473ffffffffffffffffffffffffffffffffffffffff16331461067d5760405162461bcd60e51b815260206004820181905260248201527f4f776e61626c653a2063616c6c6572206973206e6f7420746865206f776e65726044820152606401610479565b610563828261102f565b33600090815260016020908152604080832073ffffffffffffffffffffffffffffffffffffffff861684529091528120548281101561072e5760405162461bcd60e51b815260206004820152602560248201527f45524332303a2064656372656173656420616c6c6f77616e63652062656c6f7760448201527f207a65726f0000000000000000000000000000000000000000000000000000006064820152608401610479565b61073b33858584036109d9565b5060019392505050565b60006103c0338484610b59565b834211156107a25760405162461bcd60e51b815260206004820152601d60248201527f45524332305065726d69743a206578706972656420646561646c696e650000006044820152606401610479565b60007f00000000000000000000000000000000000000000000000000000000000000008888886107d18c6111e0565b60408051602081019690965273ffffffffffffffffffffffffffffffffffffffff94851690860152929091166060840152608083015260a082015260c0810186905260e001604051602081830303815290604052805190602001209050600061083982611215565b905060006108498287878761127e565b90508973ffffffffffffffffffffffffffffffffffffffff168173ffffffffffffffffffffffffffffffffffffffff16146108c65760405162461bcd60e51b815260206004820152601e60248201527f45524332305065726d69743a20696e76616c6964207369676e617475726500006044820152606401610479565b6108d18a8a8a6109d9565b50505050505050505050565b60065473ffffffffffffffffffffffffffffffffffffffff1633146109445760405162461bcd60e51b815260206004820181905260248201527f4f776e61626c653a2063616c6c6572206973206e6f7420746865206f776e65726044820152606401610479565b73ffffffffffffffffffffffffffffffffffffffff81166109cd5760405162461bcd60e51b815260206004820152602660248201527f4f776e61626c653a206e6577206f776e657220697320746865207a65726f206160448201527f64647265737300000000000000000000000000000000000000000000000000006064820152608401610479565b6109d681610fb8565b50565b73ffffffffffffffffffffffffffffffffffffffff8316610a615760405162461bcd60e51b8152602060048201526024808201527f45524332303a20617070726f76652066726f6d20746865207a65726f2061646460448201527f72657373000000000000000000000000000000000000000000000000000000006064820152608401610479565b73ffffffffffffffffffffffffffffffffffffffff8216610aea5760405162461bcd60e51b815260206004820152602260248201527f45524332303a20617070726f766520746f20746865207a65726f20616464726560448201527f73730000000000000000000000000000000000000000000000000000000000006064820152608401610479565b73ffffffffffffffffffffffffffffffffffffffff83811660008181526001602090815260408083209487168084529482529182902085905590518481527f8c5be1e5ebec7d5bd14f71427d1e84f3dd0314c0f7b2291e5b200ac8c7c3b92591015b60405180910390a3505050565b73ffffffffffffffffffffffffffffffffffffffff8316610be25760405162461bcd60e51b815260206004820152602560248201527f45524332303a207472616e736665722066726f6d20746865207a65726f20616460448201527f64726573730000000000000000000000000000000000000000000000000000006064820152608401610479565b73ffffffffffffffffffffffffffffffffffffffff8216610c6b5760405162461bcd60e51b815260206004820152602360248201527f45524332303a207472616e7366657220746f20746865207a65726f206164647260448201527f65737300000000000000000000000000000000000000000000000000000000006064820152608401610479565b73ffffffffffffffffffffffffffffffffffffffff831660009081526020819052604090205481811015610d075760405162461bcd60e51b815260206004820152602660248201527f45524332303a207472616e7366657220616d6f756e742065786365656473206260448201527f616c616e636500000000000000000000000000000000000000000000000000006064820152608401610479565b73ffffffffffffffffffffffffffffffffffffffff808516600090815260208190526040808220858503905591851681529081208054849290610d4b908490611779565b925050819055508273ffffffffffffffffffffffffffffffffffffffff168473ffffffffffffffffffffffffffffffffffffffff167fddf252ad1be2c89b69c2b068fc378daa952ba7f163c4a11628f55a4df523b3ef84604051610db191815260200190565b60405180910390a350505050565b60007f0000000000000000000000000000000000000000000000000000000000000000461415610e0e57507f000000000000000000000000000000000000000000000000000000000000000090565b50604080517f00000000000000000000000000000000000000000000000000000000000000006020808301919091527f0000000000000000000000000000000000000000000000000000000000000000828401527f000000000000000000000000000000000000000000000000000000000000000060608301524660808301523060a0808401919091528351808403909101815260c0909201909252805191012090565b73ffffffffffffffffffffffffffffffffffffffff8216610f155760405162461bcd60e51b815260206004820152601f60248201527f45524332303a206d696e7420746f20746865207a65726f2061646472657373006044820152606401610479565b8060026000828254610f279190611779565b909155505073ffffffffffffffffffffffffffffffffffffffff821660009081526020819052604081208054839290610f61908490611779565b909155505060405181815273ffffffffffffffffffffffffffffffffffffffff8316906000907fddf252ad1be2c89b69c2b068fc378daa952ba7f163c4a11628f55a4df523b3ef9060200160405180910390a35050565b6006805473ffffffffffffffffffffffffffffffffffffffff8381167fffffffffffffffffffffffff0000000000000000000000000000000000000000831681179093556040519116919082907f8be0079c531659141344cd1fd0a4f28419497f9722a3daafe3b4186f6b6457e090600090a35050565b73ffffffffffffffffffffffffffffffffffffffff82166110b85760405162461bcd60e51b815260206004820152602160248201527f45524332303a206275726e2066726f6d20746865207a65726f2061646472657360448201527f73000000000000000000000000000000000000000000000000000000000000006064820152608401610479565b73ffffffffffffffffffffffffffffffffffffffff8216600090815260208190526040902054818110156111545760405162461bcd60e51b815260206004820152602260248201527f45524332303a206275726e20616d6f756e7420657863656564732062616c616e60448201527f63650000000000000000000000000000000000000000000000000000000000006064820152608401610479565b73ffffffffffffffffffffffffffffffffffffffff83166000908152602081905260408120838303905560028054849290611190908490611791565b909155505060405182815260009073ffffffffffffffffffffffffffffffffffffffff8516907fddf252ad1be2c89b69c2b068fc378daa952ba7f163c4a11628f55a4df523b3ef90602001610b4c565b73ffffffffffffffffffffffffffffffffffffffff811660009081526005602052604090208054600181018255905b50919050565b6000610601611222610dbf565b836040517f19010000000000000000000000000000000000000000000000000000000000006020820152602281018390526042810182905260009060620160405160208183030381529060405280519060200120905092915050565b600080600061128f878787876112a6565b9150915061129c816113be565b5095945050505050565b6000807f7fffffffffffffffffffffffffffffff5d576e7357a4501ddfe92f46681b20a08311156112dd57506000905060036113b5565b8460ff16601b141580156112f557508460ff16601c14155b1561130657506000905060046113b5565b6040805160008082526020820180845289905260ff881692820192909252606081018690526080810185905260019060a0016020604051602081039080840390855afa15801561135a573d6000803e3d6000fd5b50506040517fffffffffffffffffffffffffffffffffffffffffffffffffffffffffffffffe0015191505073ffffffffffffffffffffffffffffffffffffffff81166113ae576000600192509250506113b5565b9150600090505b94509492505050565b60008160048111156113d2576113d2611825565b14156113db5750565b60018160048111156113ef576113ef611825565b141561143d5760405162461bcd60e51b815260206004820152601860248201527f45434453413a20696e76616c6964207369676e617475726500000000000000006044820152606401610479565b600281600481111561145157611451611825565b141561149f5760405162461bcd60e51b815260206004820152601f60248201527f45434453413a20696e76616c6964207369676e6174757265206c656e677468006044820152606401610479565b60038160048111156114b3576114b3611825565b14156115275760405162461bcd60e51b815260206004820152602260248201527f45434453413a20696e76616c6964207369676e6174757265202773272076616c60448201527f75650000000000000000000000000000000000000000000000000000000000006064820152608401610479565b600481600481111561153b5761153b611825565b14156109d65760405162461bcd60e51b815260206004820152602260248201527f45434453413a20696e76616c6964207369676e6174757265202776272076616c60448201527f75650000000000000000000000000000000000000000000000000000000000006064820152608401610479565b803573ffffffffffffffffffffffffffffffffffffffff811681146115d357600080fd5b919050565b6000602082840312156115ea57600080fd5b6115f3826115af565b9392505050565b6000806040838503121561160d57600080fd5b611616836115af565b9150611624602084016115af565b90509250929050565b60008060006060848603121561164257600080fd5b61164b846115af565b9250611659602085016115af565b9150604084013590509250925092565b600080600080600080600060e0888a03121561168457600080fd5b61168d886115af565b965061169b602089016115af565b95506040880135945060608801359350608088013560ff811681146116bf57600080fd5b9699959850939692959460a0840135945060c09093013592915050565b600080604083850312156116ef57600080fd5b6116f8836115af565b946020939093013593505050565b600060208083528351808285015260005b8181101561173357858101830151858201604001528201611717565b81811115611745576000604083870101525b50601f017fffffffffffffffffffffffffffffffffffffffffffffffffffffffffffffffe016929092016040019392505050565b6000821982111561178c5761178c6117f6565b500190565b6000828210156117a3576117a36117f6565b500390565b600181811c908216806117bc57607f821691505b6020821081141561120f577f4e487b7100000000000000000000000000000000000000000000000000000000600052602260045260246000fd5b7f4e487b7100000000000000000000000000000000000000000000000000000000600052601160045260246000fd5b7f4e487b7100000000000000000000000000000000000000000000000000000000600052602160045260246000fdfea2646970667358221220dc89ebab2d0931200723ed9f7954163d24f34c62345a1a3f4db2f5506d728e2c64736f6c63430008060033a264697066735822122054b63e5e6871c91bb3030b042a86d96ac6679596d8e2bcd6b65c894749cfa7a864736f6c63430008060033",
  "devdoc": {
    "details": "Tokens can be either represented internally staked, or as unstaked ERC-20s. This contract manages these two representations and the conversion between the two.The total supply of a project's tokens and the balance of each account are calculated in this contract.",
    "kind": "dev",
    "methods": {
      "balanceOf(address,uint256)": {
        "params": {
          "_holder": "The token holder to get a balance for.",
          "_projectId": "The project to get the `_hodler`s balance of."
        },
        "returns": {
          "balance": "The balance."
        }
      },
      "burnFrom(address,uint256,uint256,bool)": {
        "details": "Only a project's current terminal can burn its tokens.",
        "params": {
          "_amount": "The amount of tokens being burned.",
          "_holder": "The address that owns the tokens being burned.",
          "_preferUnstakedTokens": "If the preference is to burn tokens that have been converted to ERC-20s.",
          "_projectId": "The ID of the project of the tokens being burned."
        }
      },
      "constructor": {
        "params": {
          "_directory": "A directory of a project's current Juicebox terminal to receive payments in.",
          "_operatorStore": "A contract storing operator assignments.",
          "_projects": "A Projects contract which mints ERC-721's that represent project ownership and transfers."
        }
      },
      "issueFor(uint256,string,string)": {
        "details": " Deploys an owner's Token ERC-20 token contract.",
        "params": {
          "_name": "The ERC-20's name.",
          "_projectId": "The ID of the project being issued tokens.",
          "_symbol": "The ERC-20's symbol."
        }
      },
      "lockFor(address,uint256,uint256)": {
        "details": "Only a ticket holder or an operator can lock its tokens.",
        "params": {
          "_amount": "The amount of tokens to lock.",
          "_holder": "The holder to lock tokens from.",
          "_projectId": "The ID of the project whos tokens are being locked."
        }
      },
      "mintFor(address,uint256,uint256,bool)": {
        "details": "Only a project's current terminal can mint its tokens.",
        "params": {
          "_amount": "The amount to mint.",
          "_holder": "The address receiving the new tokens.",
          "_preferUnstakedTokens": "Whether ERC20's should be converted automatically if they have been issued.",
          "_projectId": "The project to which the tokens belong."
        }
      },
      "stakeFor(address,uint256,uint256)": {
        "details": "Only a ticket holder or an operator can stake its tokens.",
        "params": {
          "_amount": "The amount of tokens to stake.",
          "_holder": "The owner of the tokens to stake.",
          "_projectId": "The ID of the project whos tokens are being staked."
        }
      },
      "totalSupplyOf(uint256)": {
        "params": {
          "_projectId": "The ID of the project to get the total supply of."
        },
        "returns": {
          "supply": "The total supply."
        }
      },
      "transferTo(address,address,uint256,uint256)": {
        "details": "Only a ticket holder or an operator can transfer its tokens.",
        "params": {
          "_amount": "The amount of tokens to transfer.",
          "_holder": "The holder to transfer tokens from.",
          "_projectId": "The ID of the project whos tokens are being transfered.",
          "_recipient": "The recipient of the tokens."
        }
      },
      "unlockFor(address,uint256,uint256)": {
        "details": "The address that locked the tokens must be the address that unlocks the tokens.",
        "params": {
          "_amount": "The amount of tokens to unlock.",
          "_holder": "The holder to unlock tokens from.",
          "_projectId": "The ID of the project whos tokens are being unlocked."
        }
      },
      "unstakeFor(address,uint256,uint256)": {
        "details": "Only a token holder or an operator can unstake its tokens.",
        "params": {
          "_amount": "The amount of tokens to unstake.",
          "_holder": "The owner of the tokens to unstake.",
          "_projectId": "The ID of the project whos tokens are being unstaked."
        }
      }
    },
    "version": 1
  },
  "userdoc": {
    "kind": "user",
    "methods": {
      "balanceOf(address,uint256)": {
        "notice": " The total balance of tokens a holder has for a specified project, including staked and unstaked tokens."
      },
      "burnFrom(address,uint256,uint256,bool)": {
        "notice": " Burns tokens."
      },
      "directory()": {
        "notice": "The direct deposit terminals."
      },
      "issueFor(uint256,string,string)": {
        "notice": " Issues an owner's ERC-20 Tokens that'll be used when unstaking tokens."
      },
      "lockFor(address,uint256,uint256)": {
        "notice": " Lock a project's tokens, preventing them from being redeemed and from converting to ERC20s."
      },
      "mintFor(address,uint256,uint256,bool)": {
        "notice": " Mint new tokens."
      },
      "operatorStore()": {
        "notice": "A contract storing operator assignments."
      },
      "projects()": {
        "notice": "The Projects contract which mints ERC-721's that represent project ownership and transfers."
      },
      "stakeFor(address,uint256,uint256)": {
        "notice": " Stakes ERC20 tokens by burning their supply and creating an internal staked version."
      },
      "totalSupplyOf(uint256)": {
        "notice": " The total supply of tokens for each project, including staked and unstaked tokens."
      },
      "transferTo(address,address,uint256,uint256)": {
        "notice": " Allows a ticket holder to transfer its tokens to another account, without unstaking to ERC-20s."
      },
      "unlockFor(address,uint256,uint256)": {
        "notice": " Unlock a project's tokens."
      },
      "unstakeFor(address,uint256,uint256)": {
        "notice": " Unstakes internal tokens by creating and distributing ERC20 tokens."
      }
    },
    "notice": " Manage Token minting, burning, and account balances.",
    "version": 1
  },
  "storageLayout": {
    "storage": [
      {
        "astId": 22529,
        "contract": "contracts/v2/JBTokenStore.sol:JBTokenStore",
        "label": "tokenOf",
        "offset": 0,
        "slot": "0",
        "type": "t_mapping(t_uint256,t_contract(IJBToken)25242)"
      },
      {
        "astId": 22536,
        "contract": "contracts/v2/JBTokenStore.sol:JBTokenStore",
        "label": "stakedBalanceOf",
        "offset": 0,
        "slot": "1",
        "type": "t_mapping(t_address,t_mapping(t_uint256,t_uint256))"
      },
      {
        "astId": 22541,
        "contract": "contracts/v2/JBTokenStore.sol:JBTokenStore",
        "label": "stakedTotalSupplyOf",
        "offset": 0,
        "slot": "2",
        "type": "t_mapping(t_uint256,t_uint256)"
      },
      {
        "astId": 22548,
        "contract": "contracts/v2/JBTokenStore.sol:JBTokenStore",
        "label": "lockedBalanceOf",
        "offset": 0,
        "slot": "3",
        "type": "t_mapping(t_address,t_mapping(t_uint256,t_uint256))"
      },
      {
        "astId": 22557,
        "contract": "contracts/v2/JBTokenStore.sol:JBTokenStore",
        "label": "lockedBalanceBy",
        "offset": 0,
        "slot": "4",
        "type": "t_mapping(t_address,t_mapping(t_address,t_mapping(t_uint256,t_uint256)))"
      }
    ],
    "types": {
      "t_address": {
        "encoding": "inplace",
        "label": "address",
        "numberOfBytes": "20"
      },
      "t_contract(IJBToken)25242": {
        "encoding": "inplace",
        "label": "contract IJBToken",
        "numberOfBytes": "20"
      },
      "t_mapping(t_address,t_mapping(t_address,t_mapping(t_uint256,t_uint256)))": {
        "encoding": "mapping",
        "key": "t_address",
        "label": "mapping(address => mapping(address => mapping(uint256 => uint256)))",
        "numberOfBytes": "32",
        "value": "t_mapping(t_address,t_mapping(t_uint256,t_uint256))"
      },
      "t_mapping(t_address,t_mapping(t_uint256,t_uint256))": {
        "encoding": "mapping",
        "key": "t_address",
        "label": "mapping(address => mapping(uint256 => uint256))",
        "numberOfBytes": "32",
        "value": "t_mapping(t_uint256,t_uint256)"
      },
      "t_mapping(t_uint256,t_contract(IJBToken)25242)": {
        "encoding": "mapping",
        "key": "t_uint256",
        "label": "mapping(uint256 => contract IJBToken)",
        "numberOfBytes": "32",
        "value": "t_contract(IJBToken)25242"
      },
      "t_mapping(t_uint256,t_uint256)": {
        "encoding": "mapping",
        "key": "t_uint256",
        "label": "mapping(uint256 => uint256)",
        "numberOfBytes": "32",
        "value": "t_uint256"
      },
      "t_uint256": {
        "encoding": "inplace",
        "label": "uint256",
        "numberOfBytes": "32"
      }
    }
  }
}