{
  "address": "0x55c09A5A759A88cEa54607E240BC5D08A9f8b0e8",
  "abi": [
    {
      "inputs": [
        {
          "internalType": "contract IJBOperatorStore",
          "name": "_operatorStore",
          "type": "address"
        },
        {
          "internalType": "contract IJBProjects",
          "name": "_projects",
          "type": "address"
        },
        {
          "internalType": "contract IJBDirectory",
          "name": "_directory",
          "type": "address"
        }
      ],
      "stateMutability": "nonpayable",
      "type": "constructor"
    },
    {
      "inputs": [],
      "name": "CONTROLLER_UNAUTHORIZED",
      "type": "error"
    },
    {
      "inputs": [],
      "name": "EMPTY_NAME",
      "type": "error"
    },
    {
      "inputs": [],
      "name": "EMPTY_SYMBOL",
      "type": "error"
    },
    {
      "inputs": [],
      "name": "INSUFFICIENT_FUNDS",
      "type": "error"
    },
    {
      "inputs": [],
      "name": "INSUFFICIENT_UNCLAIMED_TOKENS",
      "type": "error"
    },
    {
      "inputs": [],
      "name": "INVALID_RECIPIENT",
      "type": "error"
    },
    {
      "inputs": [],
      "name": "RECIPIENT_ZERO_ADDRESS",
      "type": "error"
    },
    {
      "inputs": [],
      "name": "TOKEN_ALREADY_ISSUED",
      "type": "error"
    },
    {
      "inputs": [],
      "name": "TOKEN_AMOUNT_ZERO",
      "type": "error"
    },
    {
      "inputs": [],
      "name": "TOKEN_NOT_FOUND",
      "type": "error"
    },
    {
      "inputs": [],
      "name": "UNAUTHORIZED",
      "type": "error"
    },
    {
      "anonymous": false,
      "inputs": [
        {
          "indexed": true,
          "internalType": "address",
          "name": "holder",
          "type": "address"
        },
        {
          "indexed": true,
          "internalType": "uint256",
          "name": "projectId",
          "type": "uint256"
        },
        {
          "indexed": false,
          "internalType": "uint256",
          "name": "amount",
          "type": "uint256"
        },
        {
          "indexed": false,
          "internalType": "uint256",
          "name": "unclaimedTokenBalance",
          "type": "uint256"
        },
        {
          "indexed": false,
          "internalType": "bool",
          "name": "preferClaimedTokens",
          "type": "bool"
        },
        {
          "indexed": false,
          "internalType": "address",
          "name": "caller",
          "type": "address"
        }
      ],
      "name": "Burn",
      "type": "event"
    },
    {
      "anonymous": false,
      "inputs": [
        {
          "indexed": true,
          "internalType": "uint256",
          "name": "projectId",
          "type": "uint256"
        },
        {
          "indexed": true,
          "internalType": "contract IJBToken",
          "name": "token",
          "type": "address"
        },
        {
          "indexed": true,
          "internalType": "address",
          "name": "owner",
          "type": "address"
        },
        {
          "indexed": false,
          "internalType": "address",
          "name": "caller",
          "type": "address"
        }
      ],
      "name": "Change",
      "type": "event"
    },
    {
      "anonymous": false,
      "inputs": [
        {
          "indexed": true,
          "internalType": "address",
          "name": "holder",
          "type": "address"
        },
        {
          "indexed": true,
          "internalType": "uint256",
          "name": "projectId",
          "type": "uint256"
        },
        {
          "indexed": false,
          "internalType": "uint256",
          "name": "amount",
          "type": "uint256"
        },
        {
          "indexed": false,
          "internalType": "address",
          "name": "caller",
          "type": "address"
        }
      ],
      "name": "Claim",
      "type": "event"
    },
    {
      "anonymous": false,
      "inputs": [
        {
          "indexed": true,
          "internalType": "uint256",
          "name": "projectId",
          "type": "uint256"
        },
        {
          "indexed": true,
          "internalType": "contract IJBToken",
          "name": "token",
          "type": "address"
        },
        {
          "indexed": false,
          "internalType": "string",
          "name": "name",
          "type": "string"
        },
        {
          "indexed": false,
          "internalType": "string",
          "name": "symbol",
          "type": "string"
        },
        {
          "indexed": false,
          "internalType": "address",
          "name": "caller",
          "type": "address"
        }
      ],
      "name": "Issue",
      "type": "event"
    },
    {
      "anonymous": false,
      "inputs": [
        {
          "indexed": true,
          "internalType": "address",
          "name": "holder",
          "type": "address"
        },
        {
          "indexed": true,
          "internalType": "uint256",
          "name": "projectId",
          "type": "uint256"
        },
        {
          "indexed": false,
          "internalType": "uint256",
          "name": "amount",
          "type": "uint256"
        },
        {
          "indexed": false,
          "internalType": "bool",
          "name": "tokensWereClaimed",
          "type": "bool"
        },
        {
          "indexed": false,
          "internalType": "bool",
          "name": "preferClaimedTokens",
          "type": "bool"
        },
        {
          "indexed": false,
          "internalType": "address",
          "name": "caller",
          "type": "address"
        }
      ],
      "name": "Mint",
      "type": "event"
    },
    {
      "anonymous": false,
      "inputs": [
        {
          "indexed": true,
          "internalType": "uint256",
          "name": "projectId",
          "type": "uint256"
        },
        {
          "indexed": true,
          "internalType": "bool",
          "name": "flag",
          "type": "bool"
        },
        {
          "indexed": false,
          "internalType": "address",
          "name": "caller",
          "type": "address"
        }
      ],
      "name": "ShouldRequireClaim",
      "type": "event"
    },
    {
      "anonymous": false,
      "inputs": [
        {
          "indexed": true,
          "internalType": "address",
          "name": "holder",
          "type": "address"
        },
        {
          "indexed": true,
          "internalType": "uint256",
          "name": "projectId",
          "type": "uint256"
        },
        {
          "indexed": true,
          "internalType": "address",
          "name": "recipient",
          "type": "address"
        },
        {
          "indexed": false,
          "internalType": "uint256",
          "name": "amount",
          "type": "uint256"
        },
        {
          "indexed": false,
          "internalType": "address",
          "name": "caller",
          "type": "address"
        }
      ],
      "name": "Transfer",
      "type": "event"
    },
    {
      "inputs": [
        {
          "internalType": "address",
          "name": "_holder",
          "type": "address"
        },
        {
          "internalType": "uint256",
          "name": "_projectId",
          "type": "uint256"
        }
      ],
      "name": "balanceOf",
      "outputs": [
        {
          "internalType": "uint256",
          "name": "balance",
          "type": "uint256"
        }
      ],
      "stateMutability": "view",
      "type": "function"
    },
    {
      "inputs": [
        {
          "internalType": "address",
          "name": "_holder",
          "type": "address"
        },
        {
          "internalType": "uint256",
          "name": "_projectId",
          "type": "uint256"
        },
        {
          "internalType": "uint256",
          "name": "_amount",
          "type": "uint256"
        },
        {
          "internalType": "bool",
          "name": "_preferClaimedTokens",
          "type": "bool"
        }
      ],
      "name": "burnFrom",
      "outputs": [],
      "stateMutability": "nonpayable",
      "type": "function"
    },
    {
      "inputs": [
        {
          "internalType": "uint256",
          "name": "_projectId",
          "type": "uint256"
        },
        {
          "internalType": "contract IJBToken",
          "name": "_token",
          "type": "address"
        },
        {
          "internalType": "address",
          "name": "_newOwner",
          "type": "address"
        }
      ],
      "name": "changeFor",
      "outputs": [],
      "stateMutability": "nonpayable",
      "type": "function"
    },
    {
      "inputs": [
        {
          "internalType": "address",
          "name": "_holder",
          "type": "address"
        },
        {
          "internalType": "uint256",
          "name": "_projectId",
          "type": "uint256"
        },
        {
          "internalType": "uint256",
          "name": "_amount",
          "type": "uint256"
        }
      ],
      "name": "claimFor",
      "outputs": [],
      "stateMutability": "nonpayable",
      "type": "function"
    },
    {
      "inputs": [],
      "name": "directory",
      "outputs": [
        {
          "internalType": "contract IJBDirectory",
          "name": "",
          "type": "address"
        }
      ],
      "stateMutability": "view",
      "type": "function"
    },
    {
      "inputs": [
        {
          "internalType": "uint256",
          "name": "_projectId",
          "type": "uint256"
        },
        {
          "internalType": "string",
          "name": "_name",
          "type": "string"
        },
        {
          "internalType": "string",
          "name": "_symbol",
          "type": "string"
        }
      ],
      "name": "issueFor",
      "outputs": [
        {
          "internalType": "contract IJBToken",
          "name": "token",
          "type": "address"
        }
      ],
      "stateMutability": "nonpayable",
      "type": "function"
    },
    {
      "inputs": [
        {
          "internalType": "address",
          "name": "_holder",
          "type": "address"
        },
        {
          "internalType": "uint256",
          "name": "_projectId",
          "type": "uint256"
        },
        {
          "internalType": "uint256",
          "name": "_amount",
          "type": "uint256"
        },
        {
          "internalType": "bool",
          "name": "_preferClaimedTokens",
          "type": "bool"
        }
      ],
      "name": "mintFor",
      "outputs": [],
      "stateMutability": "nonpayable",
      "type": "function"
    },
    {
      "inputs": [],
      "name": "operatorStore",
      "outputs": [
        {
          "internalType": "contract IJBOperatorStore",
          "name": "",
          "type": "address"
        }
      ],
      "stateMutability": "view",
      "type": "function"
    },
    {
      "inputs": [],
      "name": "projects",
      "outputs": [
        {
          "internalType": "contract IJBProjects",
          "name": "",
          "type": "address"
        }
      ],
      "stateMutability": "view",
      "type": "function"
    },
    {
      "inputs": [
        {
          "internalType": "uint256",
          "name": "",
          "type": "uint256"
        }
      ],
      "name": "requireClaimFor",
      "outputs": [
        {
          "internalType": "bool",
          "name": "",
          "type": "bool"
        }
      ],
      "stateMutability": "view",
      "type": "function"
    },
    {
      "inputs": [
        {
          "internalType": "uint256",
          "name": "_projectId",
          "type": "uint256"
        },
        {
          "internalType": "bool",
          "name": "_flag",
          "type": "bool"
        }
      ],
      "name": "shouldRequireClaimingFor",
      "outputs": [],
      "stateMutability": "nonpayable",
      "type": "function"
    },
    {
      "inputs": [
        {
          "internalType": "uint256",
          "name": "",
          "type": "uint256"
        }
      ],
      "name": "tokenOf",
      "outputs": [
        {
          "internalType": "contract IJBToken",
          "name": "",
          "type": "address"
        }
      ],
      "stateMutability": "view",
      "type": "function"
    },
    {
      "inputs": [
        {
          "internalType": "uint256",
          "name": "_projectId",
          "type": "uint256"
        }
      ],
      "name": "totalSupplyOf",
      "outputs": [
        {
          "internalType": "uint256",
          "name": "supply",
          "type": "uint256"
        }
      ],
      "stateMutability": "view",
      "type": "function"
    },
    {
      "inputs": [
        {
          "internalType": "address",
          "name": "_recipient",
          "type": "address"
        },
        {
          "internalType": "address",
          "name": "_holder",
          "type": "address"
        },
        {
          "internalType": "uint256",
          "name": "_projectId",
          "type": "uint256"
        },
        {
          "internalType": "uint256",
          "name": "_amount",
          "type": "uint256"
        }
      ],
      "name": "transferTo",
      "outputs": [],
      "stateMutability": "nonpayable",
      "type": "function"
    },
    {
      "inputs": [
        {
          "internalType": "address",
          "name": "",
          "type": "address"
        },
        {
          "internalType": "uint256",
          "name": "",
          "type": "uint256"
        }
      ],
      "name": "unclaimedBalanceOf",
      "outputs": [
        {
          "internalType": "uint256",
          "name": "",
          "type": "uint256"
        }
      ],
      "stateMutability": "view",
      "type": "function"
    },
    {
      "inputs": [
        {
          "internalType": "uint256",
          "name": "",
          "type": "uint256"
        }
      ],
      "name": "unclaimedTotalSupplyOf",
      "outputs": [
        {
          "internalType": "uint256",
          "name": "",
          "type": "uint256"
        }
      ],
      "stateMutability": "view",
      "type": "function"
    }
  ],
  "transactionHash": "0x9370dc7b151fb2b3cac4e7fc8472f5814d986d000306a5e07cd7b872e367c2bf",
  "args": [
    "0xacD28185AE65adc711481c0aECB0B99Ac8608698",
    "0xA08dD15247f67742eF1597Bcb2a0D829a7A3C5e1",
    "0x47F214f5e7D8589FEFe2946716aeA5fDfa53932a"
  ],
  "solcInputHash": "6296389d5d0c73c3ff767c6895895650",
  "bytecode": "0x60e06040523480156200001157600080fd5b50604051620051753803806200517583398101604081905262000034916200005a565b6001600160601b0319606091821b811660805292811b831660a0521b1660c052620000c7565b6000806000606084860312156200007057600080fd5b83516200007d81620000ae565b60208501519093506200009081620000ae565b6040850151909250620000a381620000ae565b809150509250925092565b6001600160a01b0381168114620000c457600080fd5b50565b60805160601c60a05160601c60c05160601c6150366200013f60003960008181610218015261199d0152600081816102ab01528181610a8501528181610b6601528181611aae0152611b8f0152600081816102d3015281816104a801528181610ed0015281816113a8015261166a01526150366000f3fe60806040523480156200001157600080fd5b5060043610620001145760003560e01c80638ffe9b9411620000a3578063c41c2f24116200006e578063c41c2f2414620002cd578063ceddd3e414620002f5578063ea78803f146200030c578063ff0186c5146200034557600080fd5b80638ffe9b941462000260578063906ebd0f1462000277578063a7f2a70b146200028e578063ad007d6314620002a557600080fd5b80636607955d11620000e45780636607955d14620001ad57806375b0d9cd14620001c45780637b4d8e2c14620001db5780638b79543c146200021257600080fd5b8062fdd58e14620001195780631412884f14620001435780635287af37146200016657806357e4c7781462000194575b600080fd5b620001306200012a36600462001de9565b6200035c565b6040519081526020015b60405180910390f35b620001306200015436600462001ebf565b60026020526000908152604090205481565b620001306200017736600462001de9565b600160209081526000928352604080842090915290825290205481565b620001ab620001a536600462001f26565b62000460565b005b620001ab620001be36600462001e18565b620006ce565b62000130620001d536600462001ebf565b62000918565b62000201620001ec36600462001ebf565b60036020526000908152604090205460ff1681565b60405190151581526020016200013a565b6200023a7f000000000000000000000000000000000000000000000000000000000000000081565b60405173ffffffffffffffffffffffffffffffffffffffff90911681526020016200013a565b620001ab6200027136600462001d9e565b62000a06565b620001ab6200028836600462001e50565b62000e88565b6200023a6200029f36600462001f6d565b6200135d565b6200023a7f000000000000000000000000000000000000000000000000000000000000000081565b6200023a7f000000000000000000000000000000000000000000000000000000000000000081565b620001ab6200030636600462001e50565b62001622565b6200023a6200031d36600462001ebf565b60006020819052908152604090205473ffffffffffffffffffffffffffffffffffffffff1681565b620001ab6200035636600462001ef3565b6200196e565b73ffffffffffffffffffffffffffffffffffffffff80831660009081526001602090815260408083208584528252808320549183905290912054909116801562000459576040517f3656eec20000000000000000000000000000000000000000000000000000000081526004810184905273ffffffffffffffffffffffffffffffffffffffff8581166024830152821690633656eec29060440160206040518083038186803b1580156200040f57600080fd5b505afa15801562000424573d6000803e3d6000fd5b505050506040513d601f19601f820116820180604052508101906200044a919062001ed9565b620004569083620020c1565b91505b5092915050565b6040517f5dd8f6aa000000000000000000000000000000000000000000000000000000008152600481018490528390339073ffffffffffffffffffffffffffffffffffffffff7f00000000000000000000000000000000000000000000000000000000000000001690635dd8f6aa9060240160206040518083038186803b158015620004eb57600080fd5b505afa15801562000500573d6000803e3d6000fd5b505050506040513d601f19601f8201168201806040525081019062000526919062001d77565b73ffffffffffffffffffffffffffffffffffffffff161462000574576040517fab7f741400000000000000000000000000000000000000000000000000000000815260040160405180910390fd5b6000848152602081905260409020805473ffffffffffffffffffffffffffffffffffffffff8581167fffffffffffffffffffffffff0000000000000000000000000000000000000000831617909255811690831615801590620005ec575073ffffffffffffffffffffffffffffffffffffffff811615155b1562000676576040517ff2fde38b00000000000000000000000000000000000000000000000000000000815273ffffffffffffffffffffffffffffffffffffffff848116600483015282169063f2fde38b90602401600060405180830381600087803b1580156200065c57600080fd5b505af115801562000671573d6000803e3d6000fd5b505050505b60405133815273ffffffffffffffffffffffffffffffffffffffff808516919086169087907e45654e5ed9a54d60a4e759354328d3559ebe4018601dbf8031f665715070d49060200160405180910390a45050505050565b60008281526020819052604090205473ffffffffffffffffffffffffffffffffffffffff16806200072b576040517f73c463ce00000000000000000000000000000000000000000000000000000000815260040160405180910390fd5b73ffffffffffffffffffffffffffffffffffffffff841660009081526001602090815260408083208684529091529020548281101562000797576040517f83fc8b2d00000000000000000000000000000000000000000000000000000000815260040160405180910390fd5b73ffffffffffffffffffffffffffffffffffffffff85166000908152600160209081526040808320878452909152902054620007d5908490620020dc565b73ffffffffffffffffffffffffffffffffffffffff861660009081526001602090815260408083208884528252808320939093556002905220546200081c908490620020dc565b6000858152600260205260409081902091909155517f836a10400000000000000000000000000000000000000000000000000000000081526004810185905273ffffffffffffffffffffffffffffffffffffffff86811660248301526044820185905283169063836a104090606401600060405180830381600087803b158015620008a657600080fd5b505af1158015620008bb573d6000803e3d6000fd5b50506040805186815233602082015287935073ffffffffffffffffffffffffffffffffffffffff891692507fb6fe5ce185a3773d47e919f57c7edfd102c91cb7833b2be405c4de89d9980fd7910160405180910390a35050505050565b600081815260026020908152604080832054918390529091205473ffffffffffffffffffffffffffffffffffffffff16801562000a00576040517fbd85b0390000000000000000000000000000000000000000000000000000000081526004810184905273ffffffffffffffffffffffffffffffffffffffff82169063bd85b0399060240160206040518083038186803b158015620009b657600080fd5b505afa158015620009cb573d6000803e3d6000fd5b505050506040513d601f19601f82011682018060405250810190620009f1919062001ed9565b620009fd9083620020c1565b91505b50919050565b8282600e3373ffffffffffffffffffffffffffffffffffffffff84161480159062000b0557506040517fc161c93f00000000000000000000000000000000000000000000000000000000815233600482015273ffffffffffffffffffffffffffffffffffffffff848116602483015260448201849052606482018390527f0000000000000000000000000000000000000000000000000000000000000000169063c161c93f9060840160206040518083038186803b15801562000ac857600080fd5b505afa15801562000add573d6000803e3d6000fd5b505050506040513d601f19601f8201168201806040525081019062000b03919062001e9f565b155b801562000be657506040517fc161c93f00000000000000000000000000000000000000000000000000000000815233600482015273ffffffffffffffffffffffffffffffffffffffff848116602483015260006044830152606482018390527f0000000000000000000000000000000000000000000000000000000000000000169063c161c93f9060840160206040518083038186803b15801562000ba957600080fd5b505afa15801562000bbe573d6000803e3d6000fd5b505050506040513d601f19601f8201168201806040525081019062000be4919062001e9f565b155b1562000c1e576040517f075fd2b100000000000000000000000000000000000000000000000000000000815260040160405180910390fd5b73ffffffffffffffffffffffffffffffffffffffff871662000c6c576040517fc6587bab00000000000000000000000000000000000000000000000000000000815260040160405180910390fd5b8673ffffffffffffffffffffffffffffffffffffffff168673ffffffffffffffffffffffffffffffffffffffff16141562000cd3576040517f521005a600000000000000000000000000000000000000000000000000000000815260040160405180910390fd5b8362000d0b576040517f3b6fef6600000000000000000000000000000000000000000000000000000000815260040160405180910390fd5b73ffffffffffffffffffffffffffffffffffffffff861660009081526001602090815260408083208884529091529020548085111562000d77576040517f83fc8b2d00000000000000000000000000000000000000000000000000000000815260040160405180910390fd5b73ffffffffffffffffffffffffffffffffffffffff8716600090815260016020908152604080832089845290915290205462000db5908690620020dc565b73ffffffffffffffffffffffffffffffffffffffff80891660009081526001602081815260408084208c8552825280842095909555928c1682528252828120898252909152205462000e09908690620020c1565b73ffffffffffffffffffffffffffffffffffffffff89811660008181526001602090815260408083208c84528252918290209490945580518981523394810194909452909289928b16917fae47e55abe3902569528abe4272b889079230a248aec0659a2939a90354982c6910160405180910390a45050505050505050565b6040517f5dd8f6aa000000000000000000000000000000000000000000000000000000008152600481018490528390339073ffffffffffffffffffffffffffffffffffffffff7f00000000000000000000000000000000000000000000000000000000000000001690635dd8f6aa9060240160206040518083038186803b15801562000f1357600080fd5b505afa15801562000f28573d6000803e3d6000fd5b505050506040513d601f19601f8201168201806040525081019062000f4e919062001d77565b73ffffffffffffffffffffffffffffffffffffffff161462000f9c576040517fab7f741400000000000000000000000000000000000000000000000000000000815260040160405180910390fd5b8262000fd4576040517f3b6fef6600000000000000000000000000000000000000000000000000000000815260040160405180910390fd5b6000848152602081815260408083205473ffffffffffffffffffffffffffffffffffffffff898116855260018452828520898652909352908320549116918215620010c9576040517f3656eec20000000000000000000000000000000000000000000000000000000081526004810188905273ffffffffffffffffffffffffffffffffffffffff8981166024830152841690633656eec29060440160206040518083038186803b1580156200108857600080fd5b505afa1580156200109d573d6000803e3d6000fd5b505050506040513d601f19601f82011682018060405250810190620010c3919062001ed9565b620010cc565b60005b90508086101580620010de5750818610155b8015620010ff575080861080620010ff5750620010fc8187620020dc565b82105b8015620011205750818610806200112057506200111d8287620020dc565b81105b1562001158576040517fe793143800000000000000000000000000000000000000000000000000000000815260040160405180910390fd5b6000816200116957506000620011ab565b85156200118a578682101562001180578162001182565b865b9050620011ab565b86831015620011a5576200119f8388620020dc565b620011a8565b60005b90505b6000620011b98289620020dc565b9050811562001254576040517f9eea5f66000000000000000000000000000000000000000000000000000000008152600481018a905273ffffffffffffffffffffffffffffffffffffffff8b8116602483015260448201849052861690639eea5f6690606401600060405180830381600087803b1580156200123a57600080fd5b505af11580156200124f573d6000803e3d6000fd5b505050505b8015620012f05773ffffffffffffffffffffffffffffffffffffffff8a1660009081526001602090815260408083208c845290915290205462001299908290620020dc565b73ffffffffffffffffffffffffffffffffffffffff8b1660009081526001602090815260408083208d8452825280832093909355600290522054620012e0908290620020dc565b60008a8152600260205260409020555b60408051898152602081018690528815158183015233606082015290518a9173ffffffffffffffffffffffffffffffffffffffff8d16917fa006002ee8ea1e7bacf87ae6d874d4117de99e4aa814339c9a8199bcecd97fe39181900360800190a350505050505050505050565b6040517f5dd8f6aa000000000000000000000000000000000000000000000000000000008152600481018690526000908690339073ffffffffffffffffffffffffffffffffffffffff7f00000000000000000000000000000000000000000000000000000000000000001690635dd8f6aa9060240160206040518083038186803b158015620013eb57600080fd5b505afa15801562001400573d6000803e3d6000fd5b505050506040513d601f19601f8201168201806040525081019062001426919062001d77565b73ffffffffffffffffffffffffffffffffffffffff161462001474576040517fab7f741400000000000000000000000000000000000000000000000000000000815260040160405180910390fd5b84620014ac576040517f92bf449d00000000000000000000000000000000000000000000000000000000815260040160405180910390fd5b82620014e4576040517f571431a700000000000000000000000000000000000000000000000000000000815260040160405180910390fd5b60008781526020819052604090205473ffffffffffffffffffffffffffffffffffffffff161562001541576040517f89daaaed00000000000000000000000000000000000000000000000000000000815260040160405180910390fd5b85858585604051620015539062001d1d565b62001562949392919062002037565b604051809103906000f0801580156200157f573d6000803e3d6000fd5b506000888152602081905260409081902080547fffffffffffffffffffffffff00000000000000000000000000000000000000001673ffffffffffffffffffffffffffffffffffffffff841690811790915590519193509088907f1b1705bef26552c8f314c5eb80e9c84f02876c2f7f30a7f9ad5cafd17d5fa6da9062001610908a908a908a908a9033906200206d565b60405180910390a35095945050505050565b6040517f5dd8f6aa000000000000000000000000000000000000000000000000000000008152600481018490528390339073ffffffffffffffffffffffffffffffffffffffff7f00000000000000000000000000000000000000000000000000000000000000001690635dd8f6aa9060240160206040518083038186803b158015620016ad57600080fd5b505afa158015620016c2573d6000803e3d6000fd5b505050506040513d601f19601f82011682018060405250810190620016e8919062001d77565b73ffffffffffffffffffffffffffffffffffffffff161462001736576040517fab7f741400000000000000000000000000000000000000000000000000000000815260040160405180910390fd5b826200176e576040517f3b6fef6600000000000000000000000000000000000000000000000000000000815260040160405180910390fd5b60008481526020818152604080832054600390925282205473ffffffffffffffffffffffffffffffffffffffff909116919060ff1680620017ac5750835b8015620017ce575073ffffffffffffffffffffffffffffffffffffffff821615155b905080156200186e576040517f836a10400000000000000000000000000000000000000000000000000000000081526004810187905273ffffffffffffffffffffffffffffffffffffffff88811660248301526044820187905283169063836a104090606401600060405180830381600087803b1580156200184f57600080fd5b505af115801562001864573d6000803e3d6000fd5b5050505062001903565b73ffffffffffffffffffffffffffffffffffffffff87166000908152600160209081526040808320898452909152902054620018ac908690620020c1565b73ffffffffffffffffffffffffffffffffffffffff881660009081526001602090815260408083208a8452825280832093909355600290522054620018f3908690620020c1565b6000878152600260205260409020555b604080518681528215156020820152851515818301523360608201529051879173ffffffffffffffffffffffffffffffffffffffff8a16917f5dd3ead325af435e56bc762b40de54c96de6071938d18a26414245807591d86f9181900360800190a350505050505050565b6040517f6352211e000000000000000000000000000000000000000000000000000000008152600481018390527f000000000000000000000000000000000000000000000000000000000000000073ffffffffffffffffffffffffffffffffffffffff1690636352211e9060240160206040518083038186803b158015620019f557600080fd5b505afa15801562001a0a573d6000803e3d6000fd5b505050506040513d601f19601f8201168201806040525081019062001a30919062001d77565b82600f3373ffffffffffffffffffffffffffffffffffffffff84161480159062001b2e57506040517fc161c93f00000000000000000000000000000000000000000000000000000000815233600482015273ffffffffffffffffffffffffffffffffffffffff848116602483015260448201849052606482018390527f0000000000000000000000000000000000000000000000000000000000000000169063c161c93f9060840160206040518083038186803b15801562001af157600080fd5b505afa15801562001b06573d6000803e3d6000fd5b505050506040513d601f19601f8201168201806040525081019062001b2c919062001e9f565b155b801562001c0f57506040517fc161c93f00000000000000000000000000000000000000000000000000000000815233600482015273ffffffffffffffffffffffffffffffffffffffff848116602483015260006044830152606482018390527f0000000000000000000000000000000000000000000000000000000000000000169063c161c93f9060840160206040518083038186803b15801562001bd257600080fd5b505afa15801562001be7573d6000803e3d6000fd5b505050506040513d601f19601f8201168201806040525081019062001c0d919062001e9f565b155b1562001c47576040517f075fd2b100000000000000000000000000000000000000000000000000000000815260040160405180910390fd5b60008581526020819052604090205473ffffffffffffffffffffffffffffffffffffffff168062001ca4576040517f73c463ce00000000000000000000000000000000000000000000000000000000815260040160405180910390fd5b60008681526003602090815260409182902080547fffffffffffffffffffffffffffffffffffffffffffffffffffffffffffffff0016881515908117909155915133815288917f91c234a3a3ebdc00c9bbd80f24661ca100d784b6d9f53923b3a693344719e08c910160405180910390a3505050505050565b612ea6806200215b83390190565b60008083601f84011262001d3e57600080fd5b50813567ffffffffffffffff81111562001d5757600080fd5b60208301915083602082850101111562001d7057600080fd5b9250929050565b60006020828403121562001d8a57600080fd5b815162001d978162002125565b9392505050565b6000806000806080858703121562001db557600080fd5b843562001dc28162002125565b9350602085013562001dd48162002125565b93969395505050506040820135916060013590565b6000806040838503121562001dfd57600080fd5b823562001e0a8162002125565b946020939093013593505050565b60008060006060848603121562001e2e57600080fd5b833562001e3b8162002125565b95602085013595506040909401359392505050565b6000806000806080858703121562001e6757600080fd5b843562001e748162002125565b93506020850135925060408501359150606085013562001e94816200214b565b939692955090935050565b60006020828403121562001eb257600080fd5b815162001d97816200214b565b60006020828403121562001ed257600080fd5b5035919050565b60006020828403121562001eec57600080fd5b5051919050565b6000806040838503121562001f0757600080fd5b82359150602083013562001f1b816200214b565b809150509250929050565b60008060006060848603121562001f3c57600080fd5b83359250602084013562001f508162002125565b9150604084013562001f628162002125565b809150509250925092565b60008060008060006060868803121562001f8657600080fd5b85359450602086013567ffffffffffffffff8082111562001fa657600080fd5b62001fb489838a0162001d2b565b9096509450604088013591508082111562001fce57600080fd5b5062001fdd8882890162001d2b565b969995985093965092949392505050565b8183528181602085013750600060208284010152600060207fffffffffffffffffffffffffffffffffffffffffffffffffffffffffffffffe0601f840116840101905092915050565b6040815260006200204d60408301868862001fee565b82810360208401526200206281858762001fee565b979650505050505050565b6060815260006200208360608301878962001fee565b82810360208401526200209881868862001fee565b91505073ffffffffffffffffffffffffffffffffffffffff831660408301529695505050505050565b60008219821115620020d757620020d7620020f6565b500190565b600082821015620020f157620020f1620020f6565b500390565b7f4e487b7100000000000000000000000000000000000000000000000000000000600052601160045260246000fd5b73ffffffffffffffffffffffffffffffffffffffff811681146200214857600080fd5b50565b80151581146200214857600080fdfe6101406040527f6e71edae12b1b97f4d1f60370fef10105fa2faae0126114a169c64845d6126c9610120523480156200003757600080fd5b5060405162002ea638038062002ea68339810160408190526200005a91620002f6565b8180604051806040016040528060018152602001603160f81b815250848481600390805190602001906200009092919062000199565b508051620000a690600490602084019062000199565b5050825160209384012082519284019290922060c083815260e08290524660a0818152604080517f8b73c3c69bb8fe3d512ecc4cf759cc79239f7b179b0ffacaa9a75d522b39400f818a0181905281830198909852606081019590955260808086019390935230858301528051808603909201825293909201909252805194019390932090925261010052506200013f90503362000147565b5050620003b3565b600980546001600160a01b038381166001600160a01b0319831681179093556040519116919082907f8be0079c531659141344cd1fd0a4f28419497f9722a3daafe3b4186f6b6457e090600090a35050565b828054620001a79062000360565b90600052602060002090601f016020900481019282620001cb576000855562000216565b82601f10620001e657805160ff191683800117855562000216565b8280016001018555821562000216579182015b8281111562000216578251825591602001919060010190620001f9565b506200022492915062000228565b5090565b5b8082111562000224576000815560010162000229565b600082601f8301126200025157600080fd5b81516001600160401b03808211156200026e576200026e6200039d565b604051601f8301601f19908116603f011681019082821181831017156200029957620002996200039d565b81604052838152602092508683858801011115620002b657600080fd5b600091505b83821015620002da5785820183015181830184015290820190620002bb565b83821115620002ec5760008385830101525b9695505050505050565b600080604083850312156200030a57600080fd5b82516001600160401b03808211156200032257600080fd5b62000330868387016200023f565b935060208501519150808211156200034757600080fd5b5062000356858286016200023f565b9150509250929050565b600181811c908216806200037557607f821691505b602082108114156200039757634e487b7160e01b600052602260045260246000fd5b50919050565b634e487b7160e01b600052604160045260246000fd5b60805160a05160c05160e0516101005161012051612aa3620004036000396000610ddf015260006115280152600061157701526000611552015260006114d6015260006114ff0152612aa36000f3fe608060405234801561001057600080fd5b50600436106101cf5760003560e01c80637ecebe0011610104578063a457c2d7116100a2578063d505accf11610071578063d505accf14610434578063dd62ed3e14610447578063f1127ed81461048d578063f2fde38b146104df57600080fd5b8063a457c2d7146103e8578063a9059cbb146103fb578063bd85b0391461040e578063c3cda5201461042157600080fd5b80638e539e8c116100de5780638e539e8c146103a757806395d89b41146103ba5780639ab24eb0146103c25780639eea5f66146103d557600080fd5b80637ecebe0014610363578063836a1040146103765780638da5cb5b1461038957600080fd5b806339509351116101715780635c19a95c1161014b5780635c19a95c146102e85780636fcfff45146102fd57806370a0823114610325578063715018a61461035b57600080fd5b806339509351146102645780633a46b1a814610277578063587cde1e1461028a57600080fd5b806323b872dd116101ad57806323b872dd14610227578063313ce5671461023a5780633644e515146102495780633656eec21461025157600080fd5b806306fdde03146101d4578063095ea7b3146101f257806318160ddd14610215575b600080fd5b6101dc6104f2565b6040516101e991906128b5565b60405180910390f35b610205610200366004612792565b610584565b60405190151581526020016101e9565b6002545b6040519081526020016101e9565b6102056102353660046126ec565b61059a565b604051601281526020016101e9565b610219610685565b61021961025f36600461286d565b610694565b610205610272366004612792565b6106c2565b610219610285366004612792565b61070b565b6102c361029836600461269e565b73ffffffffffffffffffffffffffffffffffffffff9081166000908152600660205260409020541690565b60405173ffffffffffffffffffffffffffffffffffffffff90911681526020016101e9565b6102fb6102f636600461269e565b6107a5565b005b61031061030b36600461269e565b6107b2565b60405163ffffffff90911681526020016101e9565b61021961033336600461269e565b73ffffffffffffffffffffffffffffffffffffffff1660009081526020819052604090205490565b6102fb6107e7565b61021961037136600461269e565b610874565b6102fb610384366004612890565b61089f565b60095473ffffffffffffffffffffffffffffffffffffffff166102c3565b6102196103b5366004612854565b61092f565b6101dc6109a5565b6102196103d036600461269e565b6109b4565b6102fb6103e3366004612890565b610a7f565b6102056103f6366004612792565b610b0a565b610205610409366004612792565b610be2565b61021961041c366004612854565b610bef565b6102fb61042f3660046127bc565b610bfa565b6102fb610442366004612728565b610d71565b6102196104553660046126b9565b73ffffffffffffffffffffffffffffffffffffffff918216600090815260016020908152604080832093909416825291909152205490565b6104a061049b366004612814565b610f30565b60408051825163ffffffff1681526020928301517bffffffffffffffffffffffffffffffffffffffffffffffffffffffff1692810192909252016101e9565b6102fb6104ed36600461269e565b610fd6565b60606003805461050190612992565b80601f016020809104026020016040519081016040528092919081815260200182805461052d90612992565b801561057a5780601f1061054f5761010080835404028352916020019161057a565b820191906000526020600020905b81548152906001019060200180831161055d57829003601f168201915b5050505050905090565b6000610591338484611060565b50600192915050565b60006105a7848484611213565b73ffffffffffffffffffffffffffffffffffffffff841660009081526001602090815260408083203384529091529020548281101561066d576040517f08c379a000000000000000000000000000000000000000000000000000000000815260206004820152602860248201527f45524332303a207472616e7366657220616d6f756e742065786365656473206160448201527f6c6c6f77616e636500000000000000000000000000000000000000000000000060648201526084015b60405180910390fd5b61067a8533858403611060565b506001949350505050565b600061068f6114d2565b905090565b73ffffffffffffffffffffffffffffffffffffffff81166000908152602081905260408120545b9392505050565b33600081815260016020908152604080832073ffffffffffffffffffffffffffffffffffffffff871684529091528120549091610591918590610706908690612928565b611060565b6000438210610776576040517f08c379a000000000000000000000000000000000000000000000000000000000815260206004820152601f60248201527f4552433230566f7465733a20626c6f636b206e6f7420796574206d696e6564006044820152606401610664565b73ffffffffffffffffffffffffffffffffffffffff831660009081526007602052604090206106bb90836115c5565b6107af33826116ac565b50565b73ffffffffffffffffffffffffffffffffffffffff81166000908152600760205260408120546107e19061174a565b92915050565b60095473ffffffffffffffffffffffffffffffffffffffff163314610868576040517f08c379a000000000000000000000000000000000000000000000000000000000815260206004820181905260248201527f4f776e61626c653a2063616c6c6572206973206e6f7420746865206f776e65726044820152606401610664565b61087260006117e4565b565b73ffffffffffffffffffffffffffffffffffffffff81166000908152600560205260408120546107e1565b60095473ffffffffffffffffffffffffffffffffffffffff163314610920576040517f08c379a000000000000000000000000000000000000000000000000000000000815260206004820181905260248201527f4f776e61626c653a2063616c6c6572206973206e6f7420746865206f776e65726044820152606401610664565b61092a828261185b565b505050565b600043821061099a576040517f08c379a000000000000000000000000000000000000000000000000000000000815260206004820152601f60248201527f4552433230566f7465733a20626c6f636b206e6f7420796574206d696e6564006044820152606401610664565b6107e16008836115c5565b60606004805461050190612992565b73ffffffffffffffffffffffffffffffffffffffff81166000908152600760205260408120548015610a575773ffffffffffffffffffffffffffffffffffffffff83166000908152600760205260409020610a1060018361297b565b81548110610a2057610a20612a3e565b60009182526020909120015464010000000090047bffffffffffffffffffffffffffffffffffffffffffffffffffffffff16610a5a565b60005b7bffffffffffffffffffffffffffffffffffffffffffffffffffffffff169392505050565b60095473ffffffffffffffffffffffffffffffffffffffff163314610b00576040517f08c379a000000000000000000000000000000000000000000000000000000000815260206004820181905260248201527f4f776e61626c653a2063616c6c6572206973206e6f7420746865206f776e65726044820152606401610664565b61092a8282611921565b33600090815260016020908152604080832073ffffffffffffffffffffffffffffffffffffffff8616845290915281205482811015610bcb576040517f08c379a000000000000000000000000000000000000000000000000000000000815260206004820152602560248201527f45524332303a2064656372656173656420616c6c6f77616e63652062656c6f7760448201527f207a65726f0000000000000000000000000000000000000000000000000000006064820152608401610664565b610bd83385858403611060565b5060019392505050565b6000610591338484611213565b60006107e160025490565b83421115610c64576040517f08c379a000000000000000000000000000000000000000000000000000000000815260206004820152601d60248201527f4552433230566f7465733a207369676e617475726520657870697265640000006044820152606401610664565b604080517fe48329057bfd03d55e49b547132e39cffd9c1820ad7b9d4c5307691425d15adf602082015273ffffffffffffffffffffffffffffffffffffffff8816918101919091526060810186905260808101859052600090610ceb90610ce39060a00160405160208183030381529060405280519060200120611939565b8585856119a2565b9050610cf6816119ca565b8614610d5e576040517f08c379a000000000000000000000000000000000000000000000000000000000815260206004820152601960248201527f4552433230566f7465733a20696e76616c6964206e6f6e6365000000000000006044820152606401610664565b610d6881886116ac565b50505050505050565b83421115610ddb576040517f08c379a000000000000000000000000000000000000000000000000000000000815260206004820152601d60248201527f45524332305065726d69743a206578706972656420646561646c696e650000006044820152606401610664565b60007f0000000000000000000000000000000000000000000000000000000000000000888888610e0a8c6119ca565b60408051602081019690965273ffffffffffffffffffffffffffffffffffffffff94851690860152929091166060840152608083015260a082015260c0810186905260e0016040516020818303038152906040528051906020012090506000610e7282611939565b90506000610e82828787876119a2565b90508973ffffffffffffffffffffffffffffffffffffffff168173ffffffffffffffffffffffffffffffffffffffff1614610f19576040517f08c379a000000000000000000000000000000000000000000000000000000000815260206004820152601e60248201527f45524332305065726d69743a20696e76616c6964207369676e617475726500006044820152606401610664565b610f248a8a8a611060565b50505050505050505050565b604080518082019091526000808252602082015273ffffffffffffffffffffffffffffffffffffffff83166000908152600760205260409020805463ffffffff8416908110610f8157610f81612a3e565b60009182526020918290206040805180820190915291015463ffffffff8116825264010000000090047bffffffffffffffffffffffffffffffffffffffffffffffffffffffff16918101919091529392505050565b60095473ffffffffffffffffffffffffffffffffffffffff163314611057576040517f08c379a000000000000000000000000000000000000000000000000000000000815260206004820181905260248201527f4f776e61626c653a2063616c6c6572206973206e6f7420746865206f776e65726044820152606401610664565b6107af816119ff565b73ffffffffffffffffffffffffffffffffffffffff8316611102576040517f08c379a0000000000000000000000000000000000000000000000000000000008152602060048201526024808201527f45524332303a20617070726f76652066726f6d20746865207a65726f2061646460448201527f72657373000000000000000000000000000000000000000000000000000000006064820152608401610664565b73ffffffffffffffffffffffffffffffffffffffff82166111a5576040517f08c379a000000000000000000000000000000000000000000000000000000000815260206004820152602260248201527f45524332303a20617070726f766520746f20746865207a65726f20616464726560448201527f73730000000000000000000000000000000000000000000000000000000000006064820152608401610664565b73ffffffffffffffffffffffffffffffffffffffff83811660008181526001602090815260408083209487168084529482529182902085905590518481527f8c5be1e5ebec7d5bd14f71427d1e84f3dd0314c0f7b2291e5b200ac8c7c3b925910160405180910390a3505050565b73ffffffffffffffffffffffffffffffffffffffff83166112b6576040517f08c379a000000000000000000000000000000000000000000000000000000000815260206004820152602560248201527f45524332303a207472616e736665722066726f6d20746865207a65726f20616460448201527f64726573730000000000000000000000000000000000000000000000000000006064820152608401610664565b73ffffffffffffffffffffffffffffffffffffffff8216611359576040517f08c379a000000000000000000000000000000000000000000000000000000000815260206004820152602360248201527f45524332303a207472616e7366657220746f20746865207a65726f206164647260448201527f65737300000000000000000000000000000000000000000000000000000000006064820152608401610664565b73ffffffffffffffffffffffffffffffffffffffff83166000908152602081905260409020548181101561140f576040517f08c379a000000000000000000000000000000000000000000000000000000000815260206004820152602660248201527f45524332303a207472616e7366657220616d6f756e742065786365656473206260448201527f616c616e636500000000000000000000000000000000000000000000000000006064820152608401610664565b73ffffffffffffffffffffffffffffffffffffffff808516600090815260208190526040808220858503905591851681529081208054849290611453908490612928565b925050819055508273ffffffffffffffffffffffffffffffffffffffff168473ffffffffffffffffffffffffffffffffffffffff167fddf252ad1be2c89b69c2b068fc378daa952ba7f163c4a11628f55a4df523b3ef846040516114b991815260200190565b60405180910390a36114cc848484611b2c565b50505050565b60007f000000000000000000000000000000000000000000000000000000000000000046141561152157507f000000000000000000000000000000000000000000000000000000000000000090565b50604080517f00000000000000000000000000000000000000000000000000000000000000006020808301919091527f0000000000000000000000000000000000000000000000000000000000000000828401527f000000000000000000000000000000000000000000000000000000000000000060608301524660808301523060a0808401919091528351808403909101815260c0909201909252805191012090565b8154600090815b818110156116295760006115e08284611b6b565b9050848682815481106115f5576115f5612a3e565b60009182526020909120015463ffffffff16111561161557809250611623565b611620816001612928565b91505b506115cc565b8115611682578461163b60018461297b565b8154811061164b5761164b612a3e565b60009182526020909120015464010000000090047bffffffffffffffffffffffffffffffffffffffffffffffffffffffff16611685565b60005b7bffffffffffffffffffffffffffffffffffffffffffffffffffffffff1695945050505050565b73ffffffffffffffffffffffffffffffffffffffff8281166000818152600660208181526040808420805485845282862054949093528787167fffffffffffffffffffffffff00000000000000000000000000000000000000008416811790915590519190951694919391928592917f3134e8a2e6d97e929a7e54011ea5485d7d196dd5f0ba4d4ef95803e8e3fc257f9190a46114cc828483611b86565b600063ffffffff8211156117e0576040517f08c379a000000000000000000000000000000000000000000000000000000000815260206004820152602660248201527f53616665436173743a2076616c756520646f65736e27742066697420696e203360448201527f32206269747300000000000000000000000000000000000000000000000000006064820152608401610664565b5090565b6009805473ffffffffffffffffffffffffffffffffffffffff8381167fffffffffffffffffffffffff0000000000000000000000000000000000000000831681179093556040519116919082907f8be0079c531659141344cd1fd0a4f28419497f9722a3daafe3b4186f6b6457e090600090a35050565b6118658282611d2b565b6002547bffffffffffffffffffffffffffffffffffffffffffffffffffffffff1015611913576040517f08c379a000000000000000000000000000000000000000000000000000000000815260206004820152603060248201527f4552433230566f7465733a20746f74616c20737570706c79207269736b73206f60448201527f766572666c6f77696e6720766f746573000000000000000000000000000000006064820152608401610664565b6114cc6008611e5783611e63565b61192b8282612045565b6114cc600861223983611e63565b60006107e16119466114d2565b836040517f19010000000000000000000000000000000000000000000000000000000000006020820152602281018390526042810182905260009060620160405160208183030381529060405280519060200120905092915050565b60008060006119b387878787612245565b915091506119c08161235d565b5095945050505050565b73ffffffffffffffffffffffffffffffffffffffff811660009081526005602052604090208054600181018255905b50919050565b60095473ffffffffffffffffffffffffffffffffffffffff163314611a80576040517f08c379a000000000000000000000000000000000000000000000000000000000815260206004820181905260248201527f4f776e61626c653a2063616c6c6572206973206e6f7420746865206f776e65726044820152606401610664565b73ffffffffffffffffffffffffffffffffffffffff8116611b23576040517f08c379a000000000000000000000000000000000000000000000000000000000815260206004820152602660248201527f4f776e61626c653a206e6577206f776e657220697320746865207a65726f206160448201527f64647265737300000000000000000000000000000000000000000000000000006064820152608401610664565b6107af816117e4565b73ffffffffffffffffffffffffffffffffffffffff83811660009081526006602052604080822054858416835291205461092a92918216911683611b86565b6000611b7a6002848418612940565b6106bb90848416612928565b8173ffffffffffffffffffffffffffffffffffffffff168373ffffffffffffffffffffffffffffffffffffffff1614158015611bc25750600081115b1561092a5773ffffffffffffffffffffffffffffffffffffffff831615611c775773ffffffffffffffffffffffffffffffffffffffff831660009081526007602052604081208190611c179061223985611e63565b915091508473ffffffffffffffffffffffffffffffffffffffff167fdec2bacdd2f05b59de34da9b523dff8be42e5e38e818c82fdb0bae774387a7248383604051611c6c929190918252602082015260400190565b60405180910390a250505b73ffffffffffffffffffffffffffffffffffffffff82161561092a5773ffffffffffffffffffffffffffffffffffffffff821660009081526007602052604081208190611cc790611e5785611e63565b915091508373ffffffffffffffffffffffffffffffffffffffff167fdec2bacdd2f05b59de34da9b523dff8be42e5e38e818c82fdb0bae774387a7248383604051611d1c929190918252602082015260400190565b60405180910390a25050505050565b73ffffffffffffffffffffffffffffffffffffffff8216611da8576040517f08c379a000000000000000000000000000000000000000000000000000000000815260206004820152601f60248201527f45524332303a206d696e7420746f20746865207a65726f2061646472657373006044820152606401610664565b8060026000828254611dba9190612928565b909155505073ffffffffffffffffffffffffffffffffffffffff821660009081526020819052604081208054839290611df4908490612928565b909155505060405181815273ffffffffffffffffffffffffffffffffffffffff8316906000907fddf252ad1be2c89b69c2b068fc378daa952ba7f163c4a11628f55a4df523b3ef9060200160405180910390a3611e5360008383611b2c565b5050565b60006106bb8284612928565b825460009081908015611ec35785611e7c60018361297b565b81548110611e8c57611e8c612a3e565b60009182526020909120015464010000000090047bffffffffffffffffffffffffffffffffffffffffffffffffffffffff16611ec6565b60005b7bffffffffffffffffffffffffffffffffffffffffffffffffffffffff169250611ef483858763ffffffff16565b9150600081118015611f3257504386611f0e60018461297b565b81548110611f1e57611f1e612a3e565b60009182526020909120015463ffffffff16145b15611fbc57611f40826125b6565b86611f4c60018461297b565b81548110611f5c57611f5c612a3e565b9060005260206000200160000160046101000a8154817bffffffffffffffffffffffffffffffffffffffffffffffffffffffff02191690837bffffffffffffffffffffffffffffffffffffffffffffffffffffffff16021790555061203c565b856040518060400160405280611fd14361174a565b63ffffffff168152602001611fe5856125b6565b7bffffffffffffffffffffffffffffffffffffffffffffffffffffffff90811690915282546001810184556000938452602093849020835194909301519091166401000000000263ffffffff909316929092179101555b50935093915050565b73ffffffffffffffffffffffffffffffffffffffff82166120e8576040517f08c379a000000000000000000000000000000000000000000000000000000000815260206004820152602160248201527f45524332303a206275726e2066726f6d20746865207a65726f2061646472657360448201527f73000000000000000000000000000000000000000000000000000000000000006064820152608401610664565b73ffffffffffffffffffffffffffffffffffffffff82166000908152602081905260409020548181101561219e576040517f08c379a000000000000000000000000000000000000000000000000000000000815260206004820152602260248201527f45524332303a206275726e20616d6f756e7420657863656564732062616c616e60448201527f63650000000000000000000000000000000000000000000000000000000000006064820152608401610664565b73ffffffffffffffffffffffffffffffffffffffff831660009081526020819052604081208383039055600280548492906121da90849061297b565b909155505060405182815260009073ffffffffffffffffffffffffffffffffffffffff8516907fddf252ad1be2c89b69c2b068fc378daa952ba7f163c4a11628f55a4df523b3ef9060200160405180910390a361092a83600084611b2c565b60006106bb828461297b565b6000807f7fffffffffffffffffffffffffffffff5d576e7357a4501ddfe92f46681b20a083111561227c5750600090506003612354565b8460ff16601b1415801561229457508460ff16601c14155b156122a55750600090506004612354565b6040805160008082526020820180845289905260ff881692820192909252606081018690526080810185905260019060a0016020604051602081039080840390855afa1580156122f9573d6000803e3d6000fd5b50506040517fffffffffffffffffffffffffffffffffffffffffffffffffffffffffffffffe0015191505073ffffffffffffffffffffffffffffffffffffffff811661234d57600060019250925050612354565b9150600090505b94509492505050565b600081600481111561237157612371612a0f565b141561237a5750565b600181600481111561238e5761238e612a0f565b14156123f6576040517f08c379a000000000000000000000000000000000000000000000000000000000815260206004820152601860248201527f45434453413a20696e76616c6964207369676e617475726500000000000000006044820152606401610664565b600281600481111561240a5761240a612a0f565b1415612472576040517f08c379a000000000000000000000000000000000000000000000000000000000815260206004820152601f60248201527f45434453413a20696e76616c6964207369676e6174757265206c656e677468006044820152606401610664565b600381600481111561248657612486612a0f565b1415612514576040517f08c379a000000000000000000000000000000000000000000000000000000000815260206004820152602260248201527f45434453413a20696e76616c6964207369676e6174757265202773272076616c60448201527f75650000000000000000000000000000000000000000000000000000000000006064820152608401610664565b600481600481111561252857612528612a0f565b14156107af576040517f08c379a000000000000000000000000000000000000000000000000000000000815260206004820152602260248201527f45434453413a20696e76616c6964207369676e6174757265202776272076616c60448201527f75650000000000000000000000000000000000000000000000000000000000006064820152608401610664565b60007bffffffffffffffffffffffffffffffffffffffffffffffffffffffff8211156117e0576040517f08c379a000000000000000000000000000000000000000000000000000000000815260206004820152602760248201527f53616665436173743a2076616c756520646f65736e27742066697420696e203260448201527f32342062697473000000000000000000000000000000000000000000000000006064820152608401610664565b803573ffffffffffffffffffffffffffffffffffffffff8116811461268857600080fd5b919050565b803560ff8116811461268857600080fd5b6000602082840312156126b057600080fd5b6106bb82612664565b600080604083850312156126cc57600080fd5b6126d583612664565b91506126e360208401612664565b90509250929050565b60008060006060848603121561270157600080fd5b61270a84612664565b925061271860208501612664565b9150604084013590509250925092565b600080600080600080600060e0888a03121561274357600080fd5b61274c88612664565b965061275a60208901612664565b955060408801359450606088013593506127766080890161268d565b925060a0880135915060c0880135905092959891949750929550565b600080604083850312156127a557600080fd5b6127ae83612664565b946020939093013593505050565b60008060008060008060c087890312156127d557600080fd5b6127de87612664565b955060208701359450604087013593506127fa6060880161268d565b92506080870135915060a087013590509295509295509295565b6000806040838503121561282757600080fd5b61283083612664565b9150602083013563ffffffff8116811461284957600080fd5b809150509250929050565b60006020828403121561286657600080fd5b5035919050565b6000806040838503121561288057600080fd5b823591506126e360208401612664565b6000806000606084860312156128a557600080fd5b8335925061271860208501612664565b600060208083528351808285015260005b818110156128e2578581018301518582016040015282016128c6565b818111156128f4576000604083870101525b50601f017fffffffffffffffffffffffffffffffffffffffffffffffffffffffffffffffe016929092016040019392505050565b6000821982111561293b5761293b6129e0565b500190565b600082612976577f4e487b7100000000000000000000000000000000000000000000000000000000600052601260045260246000fd5b500490565b60008282101561298d5761298d6129e0565b500390565b600181811c908216806129a657607f821691505b602082108114156119f9577f4e487b7100000000000000000000000000000000000000000000000000000000600052602260045260246000fd5b7f4e487b7100000000000000000000000000000000000000000000000000000000600052601160045260246000fd5b7f4e487b7100000000000000000000000000000000000000000000000000000000600052602160045260246000fd5b7f4e487b7100000000000000000000000000000000000000000000000000000000600052603260045260246000fdfea2646970667358221220ff9b5dd69db62ccdf4f50e6a27f9fd58177b05068c9c4ce1449bd6306b826c2b64736f6c63430008060033a264697066735822122048de24532e746fb1876ee8fa83df69fefc385ef7ae0c38601ba9d055f1980a9b64736f6c63430008060033",
  "devdoc": {
    "details": "Tokens can be either represented internally or claimed as ERC-20s. This contract manages these two representations and allows claiming.The total supply of a project's tokens and the balance of each account are calculated in this contract.Each project can bring their own token if they prefer, and swap between tokens at any time.",
    "kind": "dev",
    "methods": {
      "balanceOf(address,uint256)": {
        "params": {
          "_holder": "The token holder to get a balance for.",
          "_projectId": "The project to get the `_hodler`s balance of."
        },
        "returns": {
          "balance": "The balance."
        }
      },
      "burnFrom(address,uint256,uint256,bool)": {
        "details": "Only a project's current controller can burn its tokens.",
        "params": {
          "_amount": "The amount of tokens to burned.",
          "_holder": "The address that owns the tokens being burned.",
          "_preferClaimedTokens": "A flag indicating if there's a preference to burn tokens that have been converted to ERC-20s.",
          "_projectId": "The ID of the project to which the burned tokens belong"
        }
      },
      "changeFor(uint256,address,address)": {
        "details": "Only a project's current controller can change its token.This JBTokenStore contract must have access to all IJBToken interface functions.",
        "params": {
          "_newOwner": "An address to transfer the current token's ownership to. This is optional, but it cannot be done later.",
          "_projectId": "The ID of the project to which the changed token belongs.",
          "_token": "The new token."
        }
      },
      "claimFor(address,uint256,uint256)": {
        "details": "Anyone can claim tokens on behalf of a token owner.",
        "params": {
          "_amount": "The amount of tokens to claim.",
          "_holder": "The owner of the tokens to claim.",
          "_projectId": "The ID of the project whose tokens are being claimed."
        }
      },
      "constructor": {
        "params": {
          "_directory": "A contract storing directories of terminals and controllers for each project.",
          "_operatorStore": "A contract storing operator assignments.",
          "_projects": "A contract which mints ERC-721's that represent project ownership and transfers."
        }
      },
      "issueFor(uint256,string,string)": {
        "details": "Deploys a project's ERC-20 token contract.Only a project's current controller can issue its token.",
        "params": {
          "_name": "The ERC-20's name.",
          "_projectId": "The ID of the project being issued tokens.",
          "_symbol": "The ERC-20's symbol."
        }
      },
      "mintFor(address,uint256,uint256,bool)": {
        "details": "Only a project's current controller can mint its tokens.",
        "params": {
          "_amount": "The amount of tokens to mint.",
          "_holder": "The address receiving the new tokens.",
          "_preferClaimedTokens": "A flag indicating whether there's a preference for ERC20's to be claimed automatically if they have been issued.",
          "_projectId": "The ID of the project to which the tokens belong."
        }
      },
      "shouldRequireClaimingFor(uint256,bool)": {
        "details": "Only a token holder or an operator can transfer its unclaimed tokens.",
        "params": {
          "_flag": "A flag indicating whether or not claiming should be required.",
          "_projectId": "The ID of the project being affected."
        }
      },
      "totalSupplyOf(uint256)": {
        "params": {
          "_projectId": "The ID of the project to get the total token supply of."
        },
        "returns": {
          "supply": "The total supply."
        }
      },
      "transferTo(address,address,uint256,uint256)": {
        "details": "Only a token holder or an operator can transfer its unclaimed tokens.",
        "params": {
          "_amount": "The amount of tokens to transfer.",
          "_holder": "The address to transfer tokens from.",
          "_projectId": "The ID of the project whose tokens are being transferred.",
          "_recipient": "The recipient of the tokens."
        }
      }
    },
    "version": 1
  },
  "userdoc": {
    "kind": "user",
    "methods": {
      "balanceOf(address,uint256)": {
        "notice": "The total balance of token a holder has for a specified project, including claimed and unclaimed tokens."
      },
      "burnFrom(address,uint256,uint256,bool)": {
        "notice": "Burns tokens."
      },
      "changeFor(uint256,address,address)": {
        "notice": "Swap the current project's token that is minted and burned for another, and transfer ownership of the current token to another address if needed."
      },
      "claimFor(address,uint256,uint256)": {
        "notice": "Claims internal tokens by minting and distributing ERC20 tokens."
      },
      "directory()": {
        "notice": " The directory of terminals and controllers for projects."
      },
      "issueFor(uint256,string,string)": {
        "notice": "Issues an owner's ERC-20 Tokens that'll be used when claiming tokens."
      },
      "mintFor(address,uint256,uint256,bool)": {
        "notice": "Mint new tokens."
      },
      "operatorStore()": {
        "notice": " A contract storing operator assignments."
      },
      "projects()": {
        "notice": "The Projects contract which mints ERC-721's that represent project ownership and transfers."
      },
      "requireClaimFor(uint256)": {
        "notice": "A flag indicating if tokens are required to be issued as claimed for a particular project. _projectId The ID of the project to which the requirement applies."
      },
      "shouldRequireClaimingFor(uint256,bool)": {
        "notice": "Allows a project to force all future mints to be claimed into the holder's wallet, or revoke the flag if it's already set."
      },
      "tokenOf(uint256)": {
        "notice": "Each project's ERC20 Token tokens. _projectId The ID of the project to which the token belongs."
      },
      "totalSupplyOf(uint256)": {
        "notice": "The total supply of tokens for each project, including claimed and unclaimed tokens."
      },
      "transferTo(address,address,uint256,uint256)": {
        "notice": "Allows an unclaimed token holder to transfer them to another account, without claiming to ERC-20s."
      },
      "unclaimedBalanceOf(address,uint256)": {
        "notice": "Each holder's balance of unclaimed Tokens for each project. _holder The holder of balance. _projectId The ID of the project to which the token belongs."
      },
      "unclaimedTotalSupplyOf(uint256)": {
        "notice": "The total supply of unclaimed tokens for each project. _projectId The ID of the project to which the token belongs."
      }
    },
    "notice": "Manage Token minting, burning, and account balances.",
    "version": 1
  },
  "storageLayout": {
    "storage": [
      {
        "astId": 11806,
        "contract": "contracts/JBTokenStore.sol:JBTokenStore",
        "label": "tokenOf",
        "offset": 0,
        "slot": "0",
        "type": "t_mapping(t_uint256,t_contract(IJBToken)14174)"
      },
      {
        "astId": 11814,
        "contract": "contracts/JBTokenStore.sol:JBTokenStore",
        "label": "unclaimedBalanceOf",
        "offset": 0,
        "slot": "1",
        "type": "t_mapping(t_address,t_mapping(t_uint256,t_uint256))"
      },
      {
        "astId": 11820,
        "contract": "contracts/JBTokenStore.sol:JBTokenStore",
        "label": "unclaimedTotalSupplyOf",
        "offset": 0,
        "slot": "2",
        "type": "t_mapping(t_uint256,t_uint256)"
      },
      {
        "astId": 11826,
        "contract": "contracts/JBTokenStore.sol:JBTokenStore",
        "label": "requireClaimFor",
        "offset": 0,
        "slot": "3",
        "type": "t_mapping(t_uint256,t_bool)"
      }
    ],
    "types": {
      "t_address": {
        "encoding": "inplace",
        "label": "address",
        "numberOfBytes": "20"
      },
      "t_bool": {
        "encoding": "inplace",
        "label": "bool",
        "numberOfBytes": "1"
      },
      "t_contract(IJBToken)14174": {
        "encoding": "inplace",
        "label": "contract IJBToken",
        "numberOfBytes": "20"
      },
      "t_mapping(t_address,t_mapping(t_uint256,t_uint256))": {
        "encoding": "mapping",
        "key": "t_address",
        "label": "mapping(address => mapping(uint256 => uint256))",
        "numberOfBytes": "32",
        "value": "t_mapping(t_uint256,t_uint256)"
      },
      "t_mapping(t_uint256,t_bool)": {
        "encoding": "mapping",
        "key": "t_uint256",
        "label": "mapping(uint256 => bool)",
        "numberOfBytes": "32",
        "value": "t_bool"
      },
      "t_mapping(t_uint256,t_contract(IJBToken)14174)": {
        "encoding": "mapping",
        "key": "t_uint256",
        "label": "mapping(uint256 => contract IJBToken)",
        "numberOfBytes": "32",
        "value": "t_contract(IJBToken)14174"
      },
      "t_mapping(t_uint256,t_uint256)": {
        "encoding": "mapping",
        "key": "t_uint256",
        "label": "mapping(uint256 => uint256)",
        "numberOfBytes": "32",
        "value": "t_uint256"
      },
      "t_uint256": {
        "encoding": "inplace",
        "label": "uint256",
        "numberOfBytes": "32"
      }
    }
  }
}