{
  "address": "0x8E1AEc30063565e597705E71Ba14Dffc4C390Ef0",
  "abi": [
    {
      "inputs": [
        {
          "internalType": "uint256",
          "name": "_duration",
          "type": "uint256"
        }
      ],
      "stateMutability": "nonpayable",
      "type": "constructor"
    },
    {
      "inputs": [],
      "name": "duration",
      "outputs": [
        {
          "internalType": "uint256",
          "name": "",
          "type": "uint256"
        }
      ],
      "stateMutability": "view",
      "type": "function"
    },
    {
      "inputs": [
        {
          "internalType": "uint256",
          "name": "_projectId",
          "type": "uint256"
        },
        {
          "internalType": "uint256",
          "name": "_configured",
          "type": "uint256"
        },
        {
          "internalType": "uint256",
          "name": "_start",
          "type": "uint256"
        }
      ],
      "name": "stateOf",
      "outputs": [
        {
          "internalType": "enum JBBallotState",
          "name": "",
          "type": "uint8"
        }
      ],
      "stateMutability": "view",
      "type": "function"
    },
    {
      "inputs": [
        {
          "internalType": "bytes4",
          "name": "_interfaceId",
          "type": "bytes4"
        }
      ],
      "name": "supportsInterface",
      "outputs": [
        {
          "internalType": "bool",
          "name": "",
          "type": "bool"
        }
      ],
      "stateMutability": "view",
      "type": "function"
    }
  ],
  "transactionHash": "0x9e45b81148a192c41eec07d6d2c24f330d42aa3ac254f9c2f27b4e0bf24196fc",
  "args": [
    604800
  ],
  "numDeployments": 1,
  "solcInputHash": "7f5ae5369c2a685c882e67f75315b841",
  "bytecode": "0x60a060405234801561001057600080fd5b5060405161030138038061030183398101604081905261002f91610037565b608052610050565b60006020828403121561004957600080fd5b5051919050565b608051610290610071600039600081816073015261017001526102906000f3fe608060405234801561001057600080fd5b50600436106100415760003560e01c806301ffc9a7146100465780630fb5a6b41461006e57806374167907146100a3575b600080fd5b6100596100543660046101ab565b6100c3565b60405190151581526020015b60405180910390f35b6100957f000000000000000000000000000000000000000000000000000000000000000081565b604051908152602001610065565b6100b66100b13660046101ed565b61015c565b6040516100659190610219565b60007fffffffff0000000000000000000000000000000000000000000000000000000082167f7ba3dfb300000000000000000000000000000000000000000000000000000000148061015657507f01ffc9a7000000000000000000000000000000000000000000000000000000007fffffffff000000000000000000000000000000000000000000000000000000008316145b92915050565b60008183111561016e575060026101a4565b7f00000000000000000000000000000000000000000000000000000000000000008383031061019e5760016101a1565b60025b90505b9392505050565b6000602082840312156101bd57600080fd5b81357fffffffff00000000000000000000000000000000000000000000000000000000811681146101a457600080fd5b60008060006060848603121561020257600080fd5b505081359360208301359350604090920135919050565b6020810160038310610254577f4e487b7100000000000000000000000000000000000000000000000000000000600052602160045260246000fd5b9190529056fea2646970667358221220c9c78308a36445d127db4aee08a503e92a453abd0dbef089eb2f3d1fe2a4157464736f6c63430008100033",
  "devdoc": {
    "details": "Adheres to - IJBFundingCycleBallot: General interface for the methods in this contract that interact with the blockchain's state according to the protocol's rules.Inherits from - ERC165: Introspection on interface adherance. ",
    "kind": "dev",
    "methods": {
      "constructor": {
        "params": {
          "_duration": "The number of seconds to wait until a reconfiguration can be either `Approved` or `Failed`."
        }
      },
      "stateOf(uint256,uint256,uint256)": {
        "params": {
          "_configured": "The configuration of the funding cycle to check the state of.",
          "_projectId": "The ID of the project to which the funding cycle being checked belongs.",
          "_start": "The start timestamp of the funding cycle to check the state of."
        },
        "returns": {
          "_0": "The state of the provided ballot. "
        }
      },
      "supportsInterface(bytes4)": {
        "details": " See {IERC165-supportsInterface}.",
        "params": {
          "_interfaceId": "The ID of the interface to check for adherance to."
        },
        "returns": {
          "_0": "A flag indicating if this contract adheres to the specified interface."
        }
      }
    },
    "version": 1
  },
  "userdoc": {
    "kind": "user",
    "methods": {
      "duration()": {
        "notice": " The number of seconds that must pass for a funding cycle reconfiguration to become either `Approved` or `Failed`."
      },
      "stateOf(uint256,uint256,uint256)": {
        "notice": " The approval state of a particular funding cycle."
      },
      "supportsInterface(bytes4)": {
        "notice": "Indicates if this contract adheres to the specified interface."
      }
    },
    "notice": " Manages approving funding cycle reconfigurations automatically after a buffer period.",
    "version": 1
  },
  "storageLayout": {
    "storage": [],
    "types": null
  }
}