{
  "address": "0x87Ee2F4b8eE8F4C79523f36fEcBb5f76B23e7d6F",
  "abi": [
    {
      "inputs": [
        {
          "internalType": "contract AggregatorV3Interface",
          "name": "_feed",
          "type": "address"
        }
      ],
      "stateMutability": "nonpayable",
      "type": "constructor"
    },
    {
      "inputs": [],
      "name": "INCOMPLETE_ROUND",
      "type": "error"
    },
    {
      "inputs": [],
      "name": "NEGATIVE_PRICE",
      "type": "error"
    },
    {
      "inputs": [],
      "name": "STALE_PRICE",
      "type": "error"
    },
    {
      "inputs": [
        {
          "internalType": "uint256",
          "name": "_decimals",
          "type": "uint256"
        }
      ],
      "name": "currentPrice",
      "outputs": [
        {
          "internalType": "uint256",
          "name": "",
          "type": "uint256"
        }
      ],
      "stateMutability": "view",
      "type": "function"
    },
    {
      "inputs": [],
      "name": "feed",
      "outputs": [
        {
          "internalType": "contract AggregatorV3Interface",
          "name": "",
          "type": "address"
        }
      ],
      "stateMutability": "view",
      "type": "function"
    }
  ],
  "transactionHash": "0x9913114deabd084fcff8c963854e408263e6a0437e5267d49131f84a2bc74f82",
  "args": [
    "0x5f4eC3Df9cbd43714FE2740f5E3616155c5b8419"
  ],
  "numDeployments": 1,
  "solcInputHash": "7f5ae5369c2a685c882e67f75315b841",
  "bytecode": "0x60a060405234801561001057600080fd5b5060405161068738038061068783398101604081905261002f91610040565b6001600160a01b0316608052610070565b60006020828403121561005257600080fd5b81516001600160a01b038116811461006957600080fd5b9392505050565b6080516105f06100976000396000818160400152818160b7015261021701526105f06000f3fe608060405234801561001057600080fd5b50600436106100365760003560e01c806337a7b7d81461003b5780637a3c4c171461008c575b600080fd5b6100627f000000000000000000000000000000000000000000000000000000000000000081565b60405173ffffffffffffffffffffffffffffffffffffffff90911681526020015b60405180910390f35b61009f61009a366004610323565b6100ad565b604051908152602001610083565b60008060008060007f000000000000000000000000000000000000000000000000000000000000000073ffffffffffffffffffffffffffffffffffffffff1663feaf968c6040518163ffffffff1660e01b815260040160a060405180830381865afa158015610120573d6000803e3d6000fd5b505050506040513d601f19601f82011682018060405250810190610144919061035b565b9450945050935093508369ffffffffffffffffffff168169ffffffffffffffffffff16101561019f576040517f9cd6c6ab00000000000000000000000000000000000000000000000000000000815260040160405180910390fd5b816000036101d8576040517e56b3a700000000000000000000000000000000000000000000000000000000815260040160405180910390fd5b6000831215610213576040517fb6cc0ca100000000000000000000000000000000000000000000000000000000815260040160405180910390fd5b60007f000000000000000000000000000000000000000000000000000000000000000073ffffffffffffffffffffffffffffffffffffffff1663313ce5676040518163ffffffff1660e01b8152600401602060405180830381865afa158015610280573d6000803e3d6000fd5b505050506040513d601f19601f820116820180604052508101906102a491906103ab565b60ff1690506102b48482896102bf565b979650505050505050565b60008282036102cf57508261031c565b828211156102fd576102e183836103fd565b6102ec90600a610536565b6102f69085610542565b905061031c565b61030782846103fd565b61031290600a610536565b6102f6908561057f565b9392505050565b60006020828403121561033557600080fd5b5035919050565b805169ffffffffffffffffffff8116811461035657600080fd5b919050565b600080600080600060a0868803121561037357600080fd5b61037c8661033c565b945060208601519350604086015192506060860151915061039f6080870161033c565b90509295509295909350565b6000602082840312156103bd57600080fd5b815160ff8116811461031c57600080fd5b7f4e487b7100000000000000000000000000000000000000000000000000000000600052601160045260246000fd5b81810381811115610410576104106103ce565b92915050565b600181815b8085111561046f57817fffffffffffffffffffffffffffffffffffffffffffffffffffffffffffffffff04821115610455576104556103ce565b8085161561046257918102915b93841c939080029061041b565b509250929050565b60008261048657506001610410565b8161049357506000610410565b81600181146104a957600281146104b3576104cf565b6001915050610410565b60ff8411156104c4576104c46103ce565b50506001821b610410565b5060208310610133831016604e8410600b84101617156104f2575081810a610410565b6104fc8383610416565b807fffffffffffffffffffffffffffffffffffffffffffffffffffffffffffffffff0482111561052e5761052e6103ce565b029392505050565b600061031c8383610477565b6000817fffffffffffffffffffffffffffffffffffffffffffffffffffffffffffffffff048311821515161561057a5761057a6103ce565b500290565b6000826105b5577f4e487b7100000000000000000000000000000000000000000000000000000000600052601260045260246000fd5b50049056fea264697066735822122012bb14f736313a13fef05d419ea613a5dc2bc02d6dbea9cabd3697f1762dccf564736f6c63430008100033",
  "devdoc": {
    "details": "Adheres to - IJBPriceFeed: General interface for the methods in this contract that interact with the blockchain's state according to the protocol's rules.",
    "kind": "dev",
    "methods": {
      "constructor": {
        "params": {
          "_feed": "The feed to report prices from."
        }
      },
      "currentPrice(uint256)": {
        "params": {
          "_decimals": "The number of decimals the returned fixed point price should include."
        },
        "returns": {
          "_0": "The current price of the feed, as a fixed point number with the specified number of decimals."
        }
      }
    },
    "version": 1
  },
  "userdoc": {
    "kind": "user",
    "methods": {
      "currentPrice(uint256)": {
        "notice": " Gets the current price from the feed, normalized to the specified number of decimals."
      },
      "feed()": {
        "notice": " The feed that prices are reported from."
      }
    },
    "notice": " A generalized price feed for the Chainlink AggregatorV3Interface.",
    "version": 1
  },
  "storageLayout": {
    "storage": [],
    "types": null
  }
}