{
  "address": "0x65572FB928b46f9aDB7cfe5A4c41226F636161ea",
  "abi": [
    {
      "inputs": [
        {
          "internalType": "contract IJBOperatorStore",
          "name": "_operatorStore",
          "type": "address"
        },
        {
          "internalType": "contract IJBProjects",
          "name": "_projects",
          "type": "address"
        },
        {
          "internalType": "contract IJBFundingCycleStore",
          "name": "_fundingCycleStore",
          "type": "address"
        },
        {
          "internalType": "address",
          "name": "_owner",
          "type": "address"
        }
      ],
      "stateMutability": "nonpayable",
      "type": "constructor"
    },
    {
      "inputs": [],
      "name": "DUPLICATE_TERMINALS",
      "type": "error"
    },
    {
      "inputs": [],
      "name": "INVALID_PROJECT_ID_IN_DIRECTORY",
      "type": "error"
    },
    {
      "inputs": [],
      "name": "SET_CONTROLLER_NOT_ALLOWED",
      "type": "error"
    },
    {
      "inputs": [],
      "name": "SET_TERMINALS_NOT_ALLOWED",
      "type": "error"
    },
    {
      "inputs": [],
      "name": "TOKEN_NOT_ACCEPTED",
      "type": "error"
    },
    {
      "inputs": [],
      "name": "UNAUTHORIZED",
      "type": "error"
    },
    {
      "anonymous": false,
      "inputs": [
        {
          "indexed": true,
          "internalType": "uint256",
          "name": "projectId",
          "type": "uint256"
        },
        {
          "indexed": true,
          "internalType": "contract IJBPaymentTerminal",
          "name": "terminal",
          "type": "address"
        },
        {
          "indexed": false,
          "internalType": "address",
          "name": "caller",
          "type": "address"
        }
      ],
      "name": "AddTerminal",
      "type": "event"
    },
    {
      "anonymous": false,
      "inputs": [
        {
          "indexed": true,
          "internalType": "address",
          "name": "previousOwner",
          "type": "address"
        },
        {
          "indexed": true,
          "internalType": "address",
          "name": "newOwner",
          "type": "address"
        }
      ],
      "name": "OwnershipTransferred",
      "type": "event"
    },
    {
      "anonymous": false,
      "inputs": [
        {
          "indexed": true,
          "internalType": "uint256",
          "name": "projectId",
          "type": "uint256"
        },
        {
          "indexed": true,
          "internalType": "address",
          "name": "controller",
          "type": "address"
        },
        {
          "indexed": false,
          "internalType": "address",
          "name": "caller",
          "type": "address"
        }
      ],
      "name": "SetController",
      "type": "event"
    },
    {
      "anonymous": false,
      "inputs": [
        {
          "indexed": true,
          "internalType": "address",
          "name": "addr",
          "type": "address"
        },
        {
          "indexed": true,
          "internalType": "bool",
          "name": "flag",
          "type": "bool"
        },
        {
          "indexed": false,
          "internalType": "address",
          "name": "caller",
          "type": "address"
        }
      ],
      "name": "SetIsAllowedToSetFirstController",
      "type": "event"
    },
    {
      "anonymous": false,
      "inputs": [
        {
          "indexed": true,
          "internalType": "uint256",
          "name": "projectId",
          "type": "uint256"
        },
        {
          "indexed": true,
          "internalType": "address",
          "name": "token",
          "type": "address"
        },
        {
          "indexed": true,
          "internalType": "contract IJBPaymentTerminal",
          "name": "terminal",
          "type": "address"
        },
        {
          "indexed": false,
          "internalType": "address",
          "name": "caller",
          "type": "address"
        }
      ],
      "name": "SetPrimaryTerminal",
      "type": "event"
    },
    {
      "anonymous": false,
      "inputs": [
        {
          "indexed": true,
          "internalType": "uint256",
          "name": "projectId",
          "type": "uint256"
        },
        {
          "indexed": false,
          "internalType": "contract IJBPaymentTerminal[]",
          "name": "terminals",
          "type": "address[]"
        },
        {
          "indexed": false,
          "internalType": "address",
          "name": "caller",
          "type": "address"
        }
      ],
      "name": "SetTerminals",
      "type": "event"
    },
    {
      "inputs": [
        {
          "internalType": "uint256",
          "name": "",
          "type": "uint256"
        }
      ],
      "name": "controllerOf",
      "outputs": [
        {
          "internalType": "address",
          "name": "",
          "type": "address"
        }
      ],
      "stateMutability": "view",
      "type": "function"
    },
    {
      "inputs": [],
      "name": "fundingCycleStore",
      "outputs": [
        {
          "internalType": "contract IJBFundingCycleStore",
          "name": "",
          "type": "address"
        }
      ],
      "stateMutability": "view",
      "type": "function"
    },
    {
      "inputs": [
        {
          "internalType": "address",
          "name": "",
          "type": "address"
        }
      ],
      "name": "isAllowedToSetFirstController",
      "outputs": [
        {
          "internalType": "bool",
          "name": "",
          "type": "bool"
        }
      ],
      "stateMutability": "view",
      "type": "function"
    },
    {
      "inputs": [
        {
          "internalType": "uint256",
          "name": "_projectId",
          "type": "uint256"
        },
        {
          "internalType": "contract IJBPaymentTerminal",
          "name": "_terminal",
          "type": "address"
        }
      ],
      "name": "isTerminalOf",
      "outputs": [
        {
          "internalType": "bool",
          "name": "",
          "type": "bool"
        }
      ],
      "stateMutability": "view",
      "type": "function"
    },
    {
      "inputs": [],
      "name": "operatorStore",
      "outputs": [
        {
          "internalType": "contract IJBOperatorStore",
          "name": "",
          "type": "address"
        }
      ],
      "stateMutability": "view",
      "type": "function"
    },
    {
      "inputs": [],
      "name": "owner",
      "outputs": [
        {
          "internalType": "address",
          "name": "",
          "type": "address"
        }
      ],
      "stateMutability": "view",
      "type": "function"
    },
    {
      "inputs": [
        {
          "internalType": "uint256",
          "name": "_projectId",
          "type": "uint256"
        },
        {
          "internalType": "address",
          "name": "_token",
          "type": "address"
        }
      ],
      "name": "primaryTerminalOf",
      "outputs": [
        {
          "internalType": "contract IJBPaymentTerminal",
          "name": "",
          "type": "address"
        }
      ],
      "stateMutability": "view",
      "type": "function"
    },
    {
      "inputs": [],
      "name": "projects",
      "outputs": [
        {
          "internalType": "contract IJBProjects",
          "name": "",
          "type": "address"
        }
      ],
      "stateMutability": "view",
      "type": "function"
    },
    {
      "inputs": [],
      "name": "renounceOwnership",
      "outputs": [],
      "stateMutability": "nonpayable",
      "type": "function"
    },
    {
      "inputs": [
        {
          "internalType": "uint256",
          "name": "_projectId",
          "type": "uint256"
        },
        {
          "internalType": "address",
          "name": "_controller",
          "type": "address"
        }
      ],
      "name": "setControllerOf",
      "outputs": [],
      "stateMutability": "nonpayable",
      "type": "function"
    },
    {
      "inputs": [
        {
          "internalType": "address",
          "name": "_address",
          "type": "address"
        },
        {
          "internalType": "bool",
          "name": "_flag",
          "type": "bool"
        }
      ],
      "name": "setIsAllowedToSetFirstController",
      "outputs": [],
      "stateMutability": "nonpayable",
      "type": "function"
    },
    {
      "inputs": [
        {
          "internalType": "uint256",
          "name": "_projectId",
          "type": "uint256"
        },
        {
          "internalType": "address",
          "name": "_token",
          "type": "address"
        },
        {
          "internalType": "contract IJBPaymentTerminal",
          "name": "_terminal",
          "type": "address"
        }
      ],
      "name": "setPrimaryTerminalOf",
      "outputs": [],
      "stateMutability": "nonpayable",
      "type": "function"
    },
    {
      "inputs": [
        {
          "internalType": "uint256",
          "name": "_projectId",
          "type": "uint256"
        },
        {
          "internalType": "contract IJBPaymentTerminal[]",
          "name": "_terminals",
          "type": "address[]"
        }
      ],
      "name": "setTerminalsOf",
      "outputs": [],
      "stateMutability": "nonpayable",
      "type": "function"
    },
    {
      "inputs": [
        {
          "internalType": "uint256",
          "name": "_projectId",
          "type": "uint256"
        }
      ],
      "name": "terminalsOf",
      "outputs": [
        {
          "internalType": "contract IJBPaymentTerminal[]",
          "name": "",
          "type": "address[]"
        }
      ],
      "stateMutability": "view",
      "type": "function"
    },
    {
      "inputs": [
        {
          "internalType": "address",
          "name": "newOwner",
          "type": "address"
        }
      ],
      "name": "transferOwnership",
      "outputs": [],
      "stateMutability": "nonpayable",
      "type": "function"
    }
  ],
  "transactionHash": "0xee6a54e7a25dfdfb5a567a8bae957e139d43a470f1f9255fdceecdbd8d5672b7",
  "args": [
    "0x6F3C5afCa0c9eDf3926eF2dDF17c8ae6391afEfb",
    "0xD8B4359143eda5B2d763E127Ed27c77addBc47d3",
    "0x6f18cF9173136c0B5A6eBF45f19D58d3ff2E17e6",
    "0xE9bE6df23C7f9CaBa3005DA2fa2d8714d340D0aF"
  ],
  "numDeployments": 1,
  "solcInputHash": "7f5ae5369c2a685c882e67f75315b841",
  "bytecode": "0x60e06040523480156200001157600080fd5b5060405162001eac38038062001eac8339810160408190526200003491620000dd565b6001600160a01b0384166080526200004c3362000074565b6001600160a01b0380841660a052821660c0526200006a8162000074565b5050505062000145565b600080546001600160a01b038381166001600160a01b0319831681178455604051919092169283917f8be0079c531659141344cd1fd0a4f28419497f9722a3daafe3b4186f6b6457e09190a35050565b6001600160a01b0381168114620000da57600080fd5b50565b60008060008060808587031215620000f457600080fd5b84516200010181620000c4565b60208601519094506200011481620000c4565b60408601519093506200012781620000c4565b60608601519092506200013a81620000c4565b939692955090935050565b60805160a05160c051611ceb620001c16000396000818160ff015281816107bf01528181610b2001526113a80152600081816101ff015281816102fe015281816105c6015281816106c80152610a36015260008181610257015281816111ed015281816112ba015281816115bb01526116880152611ceb6000f3fe608060405234801561001057600080fd5b50600436106100f55760003560e01c80638620265011610097578063ad007d6311610066578063ad007d6314610252578063c5664e2114610279578063d17541531461029c578063f2fde38b146102bc57600080fd5b806386202650146101e75780638b79543c146101fa5780638da5cb5b14610221578063a1ed31751461023f57600080fd5b80636e49181f116100d35780636e49181f14610196578063714e7f32146101b9578063715018a6146101cc578063821b9fd8146101d457600080fd5b8063557e7155146100fa5780635dd8f6aa1461014b57806363d0850a14610181575b600080fd5b6101217f000000000000000000000000000000000000000000000000000000000000000081565b60405173ffffffffffffffffffffffffffffffffffffffff90911681526020015b60405180910390f35b6101216101593660046118b8565b60036020526000908152604090205473ffffffffffffffffffffffffffffffffffffffff1681565b61019461018f3660046118f3565b6102cf565b005b6101a96101a4366004611935565b6104fe565b6040519015158152602001610142565b6101946101c7366004611935565b610597565b610194610975565b6101946101e2366004611965565b610a07565b6101216101f5366004611935565b610d66565b6101217f000000000000000000000000000000000000000000000000000000000000000081565b60005473ffffffffffffffffffffffffffffffffffffffff16610121565b61019461024d3660046119f2565b610ebc565b6101217f000000000000000000000000000000000000000000000000000000000000000081565b6101a9610287366004611a20565b60046020526000908152604090205460ff1681565b6102af6102aa3660046118b8565b610fca565b6040516101429190611a44565b6101946102ca366004611a20565b611043565b6040517f6352211e000000000000000000000000000000000000000000000000000000008152600481018490527f000000000000000000000000000000000000000000000000000000000000000073ffffffffffffffffffffffffffffffffffffffff1690636352211e90602401602060405180830381865afa15801561035a573d6000803e3d6000fd5b505050506040513d601f19601f8201168201806040525081019061037e9190611a9e565b83601061038c838383611173565b6040517fdf21a7dd00000000000000000000000000000000000000000000000000000000815273ffffffffffffffffffffffffffffffffffffffff86811660048301526024820188905285169063df21a7dd90604401602060405180830381865afa1580156103ff573d6000803e3d6000fd5b505050506040513d601f19601f820116820180604052508101906104239190611abb565b610459576040517f1f5522f600000000000000000000000000000000000000000000000000000000815260040160405180910390fd5b6104638685611363565b600086815260026020908152604080832073ffffffffffffffffffffffffffffffffffffffff8981168086529184529382902080547fffffffffffffffffffffffff00000000000000000000000000000000000000001694891694851790559051338152909189917fc670a502bbb9f8a4315f95eca901a9f99b65f89a2eb5705a58050e5c00f9d672910160405180910390a4505050505050565b600082815260016020526040812054815b8181101561058a576000858152600160205260409020805473ffffffffffffffffffffffffffffffffffffffff861691908390811061055057610550611ad8565b60009182526020909120015473ffffffffffffffffffffffffffffffffffffffff160361058257600192505050610591565b60010161050f565b5060009150505b92915050565b6040517f6352211e000000000000000000000000000000000000000000000000000000008152600481018390527f000000000000000000000000000000000000000000000000000000000000000073ffffffffffffffffffffffffffffffffffffffff1690636352211e90602401602060405180830381865afa158015610622573d6000803e3d6000fd5b505050506040513d601f19601f820116820180604052508101906106469190611a9e565b6000838152600360205260409020548390600e9073ffffffffffffffffffffffffffffffffffffffff163314806106b957503360009081526004602052604090205460ff1680156106b9575060008581526003602052604090205473ffffffffffffffffffffffffffffffffffffffff16155b6106c584848484611537565b857f000000000000000000000000000000000000000000000000000000000000000073ffffffffffffffffffffffffffffffffffffffff166306661abd6040518163ffffffff1660e01b8152600401602060405180830381865afa158015610731573d6000803e3d6000fd5b505050506040513d601f19601f820116820180604052508101906107559190611b07565b101561078d576040517f945074a600000000000000000000000000000000000000000000000000000000815260040160405180910390fd5b6040517f43a266c2000000000000000000000000000000000000000000000000000000008152600481018790526000907f000000000000000000000000000000000000000000000000000000000000000073ffffffffffffffffffffffffffffffffffffffff16906343a266c29060240161012060405180830381865afa15801561081c573d6000803e3d6000fd5b505050506040513d601f19601f820116820180604052508101906108409190611b81565b60008881526003602052604090205490915073ffffffffffffffffffffffffffffffffffffffff16331480159061089a575060008781526003602052604090205473ffffffffffffffffffffffffffffffffffffffff1615155b80156108b057506108aa81611732565b60200151155b156108e7576040517fa33db4cb00000000000000000000000000000000000000000000000000000000815260040160405180910390fd5b60008781526003602090815260409182902080547fffffffffffffffffffffffff00000000000000000000000000000000000000001673ffffffffffffffffffffffffffffffffffffffff8a16908117909155915133815289917f7f9a7dcb234c909a09de2f344661ad9e5b24067adb97c908647c2edcbb121c30910160405180910390a350505050505050565b60005473ffffffffffffffffffffffffffffffffffffffff1633146109fb576040517f08c379a000000000000000000000000000000000000000000000000000000000815260206004820181905260248201527f4f776e61626c653a2063616c6c6572206973206e6f7420746865206f776e657260448201526064015b60405180910390fd5b610a0560006117a6565b565b6040517f6352211e000000000000000000000000000000000000000000000000000000008152600481018490527f000000000000000000000000000000000000000000000000000000000000000073ffffffffffffffffffffffffffffffffffffffff1690636352211e90602401602060405180830381865afa158015610a92573d6000803e3d6000fd5b505050506040513d601f19601f82011682018060405250810190610ab69190611a9e565b6000848152600360205260409020548490600f9073ffffffffffffffffffffffffffffffffffffffff163314610aee84848484611537565b6040517f43a266c2000000000000000000000000000000000000000000000000000000008152600481018890526000907f000000000000000000000000000000000000000000000000000000000000000073ffffffffffffffffffffffffffffffffffffffff16906343a266c29060240161012060405180830381865afa158015610b7d573d6000803e3d6000fd5b505050506040513d601f19601f82011682018060405250810190610ba19190611b81565b60008981526003602052604090205490915073ffffffffffffffffffffffffffffffffffffffff163314801590610bdf5750610bdc81611732565b51155b15610c16576040517febfde6be00000000000000000000000000000000000000000000000000000000815260040160405180910390fd5b6000888152600160205260409020610c2f90888861181b565b506001861115610d205760005b86811015610d1e576000610c51826001611c01565b90505b87811015610d1557888882818110610c6e57610c6e611ad8565b9050602002016020810190610c839190611a20565b73ffffffffffffffffffffffffffffffffffffffff16898984818110610cab57610cab611ad8565b9050602002016020810190610cc09190611a20565b73ffffffffffffffffffffffffffffffffffffffff1603610d0d576040517f7c70615600000000000000000000000000000000000000000000000000000000815260040160405180910390fd5b600101610c54565b50600101610c3c565b505b877fb648241d83df6540fc10f2acc641e4bf80a1e84e7ae2f1f6b0ad204b8fee635b888833604051610d5493929190611c3b565b60405180910390a25050505050505050565b600082815260026020908152604080832073ffffffffffffffffffffffffffffffffffffffff80861685529252822054168015801590610dab5750610dab84826104fe565b15610db7579050610591565b600084815260016020526040812054905b81811015610eb0576000868152600160205260408120805483908110610df057610df0611ad8565b6000918252602090912001546040517fdf21a7dd00000000000000000000000000000000000000000000000000000000815273ffffffffffffffffffffffffffffffffffffffff8881166004830152602482018a90529091169150819063df21a7dd90604401602060405180830381865afa158015610e73573d6000803e3d6000fd5b505050506040513d601f19601f82011682018060405250810190610e979190611abb565b15610ea757935061059192505050565b50600101610dc8565b50600095945050505050565b60005473ffffffffffffffffffffffffffffffffffffffff163314610f3d576040517f08c379a000000000000000000000000000000000000000000000000000000000815260206004820181905260248201527f4f776e61626c653a2063616c6c6572206973206e6f7420746865206f776e657260448201526064016109f2565b73ffffffffffffffffffffffffffffffffffffffff821660008181526004602090815260409182902080547fffffffffffffffffffffffffffffffffffffffffffffffffffffffffffffff001685151590811790915591513381529192917f11207664cc48b0fa81c8674795f1d8f642960f38d5d2d305ad813093bed85fab910160405180910390a35050565b60008181526001602090815260409182902080548351818402810184019094528084526060939283018282801561103757602002820191906000526020600020905b815473ffffffffffffffffffffffffffffffffffffffff16815260019091019060200180831161100c575b50505050509050919050565b60005473ffffffffffffffffffffffffffffffffffffffff1633146110c4576040517f08c379a000000000000000000000000000000000000000000000000000000000815260206004820181905260248201527f4f776e61626c653a2063616c6c6572206973206e6f7420746865206f776e657260448201526064016109f2565b73ffffffffffffffffffffffffffffffffffffffff8116611167576040517f08c379a000000000000000000000000000000000000000000000000000000000815260206004820152602660248201527f4f776e61626c653a206e6577206f776e657220697320746865207a65726f206160448201527f646472657373000000000000000000000000000000000000000000000000000060648201526084016109f2565b611170816117a6565b50565b3373ffffffffffffffffffffffffffffffffffffffff84161480159061125a57506040517fc161c93f00000000000000000000000000000000000000000000000000000000815233600482015273ffffffffffffffffffffffffffffffffffffffff848116602483015260448201849052606482018390527f0000000000000000000000000000000000000000000000000000000000000000169063c161c93f90608401602060405180830381865afa158015611234573d6000803e3d6000fd5b505050506040513d601f19601f820116820180604052508101906112589190611abb565b155b801561132757506040517fc161c93f00000000000000000000000000000000000000000000000000000000815233600482015273ffffffffffffffffffffffffffffffffffffffff848116602483015260006044830152606482018390527f0000000000000000000000000000000000000000000000000000000000000000169063c161c93f90608401602060405180830381865afa158015611301573d6000803e3d6000fd5b505050506040513d601f19601f820116820180604052508101906113259190611abb565b155b1561135e576040517f075fd2b100000000000000000000000000000000000000000000000000000000815260040160405180910390fd5b505050565b61136d82826104fe565b15611376575050565b6040517f43a266c2000000000000000000000000000000000000000000000000000000008152600481018390526000907f000000000000000000000000000000000000000000000000000000000000000073ffffffffffffffffffffffffffffffffffffffff16906343a266c29060240161012060405180830381865afa158015611405573d6000803e3d6000fd5b505050506040513d601f19601f820116820180604052508101906114299190611b81565b60008481526003602052604090205490915073ffffffffffffffffffffffffffffffffffffffff163314801590611467575061146481611732565b51155b1561149e576040517febfde6be00000000000000000000000000000000000000000000000000000000815260040160405180910390fd5b60008381526001602081815260408084208054938401815584529281902090910180547fffffffffffffffffffffffff00000000000000000000000000000000000000001673ffffffffffffffffffffffffffffffffffffffff8616908117909155915133815285917f409bccc07b7cf7807930526a24318212d614c59f2dde05a017a41efee144e7c8910160405180910390a3505050565b8015801561155b57503373ffffffffffffffffffffffffffffffffffffffff851614155b801561162857506040517fc161c93f00000000000000000000000000000000000000000000000000000000815233600482015273ffffffffffffffffffffffffffffffffffffffff858116602483015260448201859052606482018490527f0000000000000000000000000000000000000000000000000000000000000000169063c161c93f90608401602060405180830381865afa158015611602573d6000803e3d6000fd5b505050506040513d601f19601f820116820180604052508101906116269190611abb565b155b80156116f557506040517fc161c93f00000000000000000000000000000000000000000000000000000000815233600482015273ffffffffffffffffffffffffffffffffffffffff858116602483015260006044830152606482018490527f0000000000000000000000000000000000000000000000000000000000000000169063c161c93f90608401602060405180830381865afa1580156116cf573d6000803e3d6000fd5b505050506040513d601f19601f820116820180604052508101906116f39190611abb565b155b1561172c576040517f075fd2b100000000000000000000000000000000000000000000000000000000815260040160405180910390fd5b50505050565b60408051606081018252600080825260208201819052918101919091526105916008836101000151901c604080516060808201835260008083526020808401829052928401528251908101835260018481168114825284811c811681149282019290925260029390931c8116149082015290565b6000805473ffffffffffffffffffffffffffffffffffffffff8381167fffffffffffffffffffffffff0000000000000000000000000000000000000000831681178455604051919092169283917f8be0079c531659141344cd1fd0a4f28419497f9722a3daafe3b4186f6b6457e09190a35050565b828054828255906000526020600020908101928215611893579160200282015b828111156118935781547fffffffffffffffffffffffff00000000000000000000000000000000000000001673ffffffffffffffffffffffffffffffffffffffff84351617825560209092019160019091019061183b565b5061189f9291506118a3565b5090565b5b8082111561189f57600081556001016118a4565b6000602082840312156118ca57600080fd5b5035919050565b73ffffffffffffffffffffffffffffffffffffffff8116811461117057600080fd5b60008060006060848603121561190857600080fd5b83359250602084013561191a816118d1565b9150604084013561192a816118d1565b809150509250925092565b6000806040838503121561194857600080fd5b82359150602083013561195a816118d1565b809150509250929050565b60008060006040848603121561197a57600080fd5b83359250602084013567ffffffffffffffff8082111561199957600080fd5b818601915086601f8301126119ad57600080fd5b8135818111156119bc57600080fd5b8760208260051b85010111156119d157600080fd5b6020830194508093505050509250925092565b801515811461117057600080fd5b60008060408385031215611a0557600080fd5b8235611a10816118d1565b9150602083013561195a816119e4565b600060208284031215611a3257600080fd5b8135611a3d816118d1565b9392505050565b6020808252825182820181905260009190848201906040850190845b81811015611a9257835173ffffffffffffffffffffffffffffffffffffffff1683529284019291840191600101611a60565b50909695505050505050565b600060208284031215611ab057600080fd5b8151611a3d816118d1565b600060208284031215611acd57600080fd5b8151611a3d816119e4565b7f4e487b7100000000000000000000000000000000000000000000000000000000600052603260045260246000fd5b600060208284031215611b1957600080fd5b5051919050565b604051610120810167ffffffffffffffff81118282101715611b6b577f4e487b7100000000000000000000000000000000000000000000000000000000600052604160045260246000fd5b60405290565b8051611b7c816118d1565b919050565b60006101208284031215611b9457600080fd5b611b9c611b20565b825181526020830151602082015260408301516040820152606083015160608201526080830151608082015260a083015160a082015260c083015160c0820152611be860e08401611b71565b60e0820152610100928301519281019290925250919050565b80820180821115610591577f4e487b7100000000000000000000000000000000000000000000000000000000600052601160045260246000fd5b6040808252810183905260008460608301825b86811015611c8b578235611c61816118d1565b73ffffffffffffffffffffffffffffffffffffffff16825260209283019290910190600101611c4e565b50809250505073ffffffffffffffffffffffffffffffffffffffff8316602083015294935050505056fea2646970667358221220a83439d78c2344a0046e0a474fee717a98c230df93d13b0c9fe2619c3092cce064736f6c63430008100033",
  "devdoc": {
    "details": "Adheres to - IJBDirectory: General interface for the methods in this contract that interact with the blockchain's state according to the protocol's rules.Inherits from - JBOperatable: Includes convenience functionality for checking a message sender's permissions before executing certain transactions. Ownable: Includes convenience functionality for checking a message sender's permissions before executing certain transactions.",
    "kind": "dev",
    "methods": {
      "constructor": {
        "params": {
          "_fundingCycleStore": "A contract storing all funding cycle configurations.",
          "_operatorStore": "A contract storing operator assignments.",
          "_owner": "The address that will own the contract.",
          "_projects": "A contract which mints ERC-721's that represent project ownership and transfers."
        }
      },
      "isTerminalOf(uint256,address)": {
        "params": {
          "_projectId": "The ID of the project to check within.",
          "_terminal": "The address of the terminal to check for."
        },
        "returns": {
          "_0": "A flag indicating whether or not the specified terminal is a terminal of the specified project."
        }
      },
      "owner()": {
        "details": "Returns the address of the current owner."
      },
      "primaryTerminalOf(uint256,address)": {
        "details": "The zero address is returned if a terminal isn't found for the specified token.",
        "params": {
          "_projectId": "The ID of the project to get a terminal for.",
          "_token": "The token the terminal accepts."
        },
        "returns": {
          "_0": "The primary terminal for the project for the specified token."
        }
      },
      "renounceOwnership()": {
        "details": "Leaves the contract without owner. It will not be possible to call `onlyOwner` functions anymore. Can only be called by the current owner. NOTE: Renouncing ownership will leave the contract without an owner, thereby removing any functionality that is only available to the owner."
      },
      "setControllerOf(uint256,address)": {
        "details": "A controller can be set if: - the message sender is the project owner or an operator having the correct authorization. - the message sender is the project's current controller. - or, an allowedlisted address is setting a controller for a project that doesn't already have a controller.",
        "params": {
          "_controller": "The new controller to set.",
          "_projectId": "The ID of the project to set a new controller for."
        }
      },
      "setIsAllowedToSetFirstController(address,bool)": {
        "details": "The owner can add addresses which are allowed to change projects' first controllers.  These addresses are known and vetted controllers as well as contracts designed to launch new projects.  A project can set its own controller without it being on the allow list.If you would like an address/contract allowlisted, please reach out to the contract owner.",
        "params": {
          "_address": "The address to allow or revoke allowance from.",
          "_flag": "Whether allowance is being added or revoked."
        }
      },
      "setPrimaryTerminalOf(uint256,address,address)": {
        "details": "The terminal will be set as the primary terminal where ecosystem contracts should route tokens.If setting a newly added terminal and the funding cycle doesn't allow new terminals, the caller must be the current controller.",
        "params": {
          "_projectId": "The ID of the project for which a primary token is being set.",
          "_terminal": "The terminal to make primary.",
          "_token": "The token to set the primary terminal of."
        }
      },
      "setTerminalsOf(uint256,address[])": {
        "details": "Only a project owner, an operator, or its controller can set its terminals.",
        "params": {
          "_projectId": "The ID of the project having terminals set.",
          "_terminals": "The terminal to set."
        }
      },
      "terminalsOf(uint256)": {
        "params": {
          "_projectId": "The ID of the project to get terminals of."
        },
        "returns": {
          "_0": "An array of terminal addresses."
        }
      },
      "transferOwnership(address)": {
        "details": "Transfers ownership of the contract to a new account (`newOwner`). Can only be called by the current owner."
      }
    },
    "version": 1
  },
  "userdoc": {
    "kind": "user",
    "methods": {
      "controllerOf(uint256)": {
        "notice": " For each project ID, the controller that manages how terminals interact with tokens and funding cycles. _projectId The ID of the project to get the controller of."
      },
      "fundingCycleStore()": {
        "notice": "The contract storing all funding cycle configurations."
      },
      "isAllowedToSetFirstController(address)": {
        "notice": "Addresses that can set a project's first controller on their behalf. These addresses/contracts have been vetted and verified by this contract's owner. _address The address that is either allowed or not."
      },
      "isTerminalOf(uint256,address)": {
        "notice": "Whether or not a specified terminal is a terminal of the specified project."
      },
      "operatorStore()": {
        "notice": " A contract storing operator assignments."
      },
      "primaryTerminalOf(uint256,address)": {
        "notice": "The primary terminal that is managing funds for a project for a specified token."
      },
      "projects()": {
        "notice": "Mints ERC-721's that represent project ownership and transfers."
      },
      "setControllerOf(uint256,address)": {
        "notice": "Update the controller that manages how terminals interact with the ecosystem."
      },
      "setIsAllowedToSetFirstController(address,bool)": {
        "notice": " Set a contract to the list of trusted addresses that can set a first controller for any project.\t"
      },
      "setPrimaryTerminalOf(uint256,address,address)": {
        "notice": "Project's can set which terminal should be their primary for a particular token. This is useful in case a project has several terminals connected for a particular token."
      },
      "setTerminalsOf(uint256,address[])": {
        "notice": " Set a project's terminals."
      },
      "terminalsOf(uint256)": {
        "notice": "For each project ID, the terminals that are currently managing its funds."
      }
    },
    "notice": "Keeps a reference of which terminal contracts each project is currently accepting funds through, and which controller contract is managing each project's tokens and funding cycles.",
    "version": 1
  },
  "storageLayout": {
    "storage": [
      {
        "astId": 53,
        "contract": "contracts/JBDirectory.sol:JBDirectory",
        "label": "_owner",
        "offset": 0,
        "slot": "0",
        "type": "t_address"
      },
      {
        "astId": 7256,
        "contract": "contracts/JBDirectory.sol:JBDirectory",
        "label": "_terminalsOf",
        "offset": 0,
        "slot": "1",
        "type": "t_mapping(t_uint256,t_array(t_contract(IJBPaymentTerminal)19374)dyn_storage)"
      },
      {
        "astId": 7264,
        "contract": "contracts/JBDirectory.sol:JBDirectory",
        "label": "_primaryTerminalOf",
        "offset": 0,
        "slot": "2",
        "type": "t_mapping(t_uint256,t_mapping(t_address,t_contract(IJBPaymentTerminal)19374))"
      },
      {
        "astId": 7280,
        "contract": "contracts/JBDirectory.sol:JBDirectory",
        "label": "controllerOf",
        "offset": 0,
        "slot": "3",
        "type": "t_mapping(t_uint256,t_address)"
      },
      {
        "astId": 7286,
        "contract": "contracts/JBDirectory.sol:JBDirectory",
        "label": "isAllowedToSetFirstController",
        "offset": 0,
        "slot": "4",
        "type": "t_mapping(t_address,t_bool)"
      }
    ],
    "types": {
      "t_address": {
        "encoding": "inplace",
        "label": "address",
        "numberOfBytes": "20"
      },
      "t_array(t_contract(IJBPaymentTerminal)19374)dyn_storage": {
        "base": "t_contract(IJBPaymentTerminal)19374",
        "encoding": "dynamic_array",
        "label": "contract IJBPaymentTerminal[]",
        "numberOfBytes": "32"
      },
      "t_bool": {
        "encoding": "inplace",
        "label": "bool",
        "numberOfBytes": "1"
      },
      "t_contract(IJBPaymentTerminal)19374": {
        "encoding": "inplace",
        "label": "contract IJBPaymentTerminal",
        "numberOfBytes": "20"
      },
      "t_mapping(t_address,t_bool)": {
        "encoding": "mapping",
        "key": "t_address",
        "label": "mapping(address => bool)",
        "numberOfBytes": "32",
        "value": "t_bool"
      },
      "t_mapping(t_address,t_contract(IJBPaymentTerminal)19374)": {
        "encoding": "mapping",
        "key": "t_address",
        "label": "mapping(address => contract IJBPaymentTerminal)",
        "numberOfBytes": "32",
        "value": "t_contract(IJBPaymentTerminal)19374"
      },
      "t_mapping(t_uint256,t_address)": {
        "encoding": "mapping",
        "key": "t_uint256",
        "label": "mapping(uint256 => address)",
        "numberOfBytes": "32",
        "value": "t_address"
      },
      "t_mapping(t_uint256,t_array(t_contract(IJBPaymentTerminal)19374)dyn_storage)": {
        "encoding": "mapping",
        "key": "t_uint256",
        "label": "mapping(uint256 => contract IJBPaymentTerminal[])",
        "numberOfBytes": "32",
        "value": "t_array(t_contract(IJBPaymentTerminal)19374)dyn_storage"
      },
      "t_mapping(t_uint256,t_mapping(t_address,t_contract(IJBPaymentTerminal)19374))": {
        "encoding": "mapping",
        "key": "t_uint256",
        "label": "mapping(uint256 => mapping(address => contract IJBPaymentTerminal))",
        "numberOfBytes": "32",
        "value": "t_mapping(t_address,t_contract(IJBPaymentTerminal)19374)"
      },
      "t_uint256": {
        "encoding": "inplace",
        "label": "uint256",
        "numberOfBytes": "32"
      }
    }
  }
}