{
  "address": "0x9f0eC91d28fFc54874e9fF11A316Ba2537aCD72C",
  "abi": [
    {
      "anonymous": false,
      "inputs": [
        {
          "indexed": true,
          "internalType": "contract IJBSplitsPayer",
          "name": "splitsPayer",
          "type": "address"
        },
        {
          "indexed": false,
          "internalType": "uint256",
          "name": "defaultSplitsProjectId",
          "type": "uint256"
        },
        {
          "indexed": false,
          "internalType": "uint256",
          "name": "defaultSplitsDomain",
          "type": "uint256"
        },
        {
          "indexed": false,
          "internalType": "uint256",
          "name": "defaultSplitsGroup",
          "type": "uint256"
        },
        {
          "indexed": false,
          "internalType": "contract IJBSplitsStore",
          "name": "splitsStore",
          "type": "address"
        },
        {
          "indexed": false,
          "internalType": "uint256",
          "name": "defaultProjectId",
          "type": "uint256"
        },
        {
          "indexed": false,
          "internalType": "address",
          "name": "defaultBeneficiary",
          "type": "address"
        },
        {
          "indexed": false,
          "internalType": "bool",
          "name": "defaultPreferClaimedTokens",
          "type": "bool"
        },
        {
          "indexed": false,
          "internalType": "string",
          "name": "defaultMemo",
          "type": "string"
        },
        {
          "indexed": false,
          "internalType": "bytes",
          "name": "defaultMetadata",
          "type": "bytes"
        },
        {
          "indexed": false,
          "internalType": "bool",
          "name": "preferAddToBalance",
          "type": "bool"
        },
        {
          "indexed": false,
          "internalType": "address",
          "name": "owner",
          "type": "address"
        },
        {
          "indexed": false,
          "internalType": "address",
          "name": "caller",
          "type": "address"
        }
      ],
      "name": "DeploySplitsPayer",
      "type": "event"
    },
    {
      "inputs": [
        {
          "internalType": "uint256",
          "name": "_defaultSplitsProjectId",
          "type": "uint256"
        },
        {
          "internalType": "uint256",
          "name": "_defaultSplitsDomain",
          "type": "uint256"
        },
        {
          "internalType": "uint256",
          "name": "_defaultSplitsGroup",
          "type": "uint256"
        },
        {
          "internalType": "contract IJBSplitsStore",
          "name": "_splitsStore",
          "type": "address"
        },
        {
          "internalType": "uint256",
          "name": "_defaultProjectId",
          "type": "uint256"
        },
        {
          "internalType": "address payable",
          "name": "_defaultBeneficiary",
          "type": "address"
        },
        {
          "internalType": "bool",
          "name": "_defaultPreferClaimedTokens",
          "type": "bool"
        },
        {
          "internalType": "string",
          "name": "_defaultMemo",
          "type": "string"
        },
        {
          "internalType": "bytes",
          "name": "_defaultMetadata",
          "type": "bytes"
        },
        {
          "internalType": "bool",
          "name": "_defaultPreferAddToBalance",
          "type": "bool"
        },
        {
          "internalType": "address",
          "name": "_owner",
          "type": "address"
        }
      ],
      "name": "deploySplitsPayer",
      "outputs": [
        {
          "internalType": "contract IJBSplitsPayer",
          "name": "splitsPayer",
          "type": "address"
        }
      ],
      "stateMutability": "nonpayable",
      "type": "function"
    }
  ],
  "transactionHash": "0x6431c3ec98eeee2ad9868cded00aa86017408b344f1fe98199ae90855ba87346",
  "args": [],
  "numDeployments": 1,
  "solcInputHash": "122fb715eefa62c2e442108fed43e375",
  "bytecode": "0x608060405234801561001057600080fd5b50613960806100206000396000f3fe60806040523480156200001157600080fd5b50600436106200002e5760003560e01c80632e113c8b1462000033575b600080fd5b6200004a6200004436600462000235565b62000073565b60405173ffffffffffffffffffffffffffffffffffffffff909116815260200160405180910390f35b60008b8b8b8b8b8b8b8b8b8b8b6040516200008e9062000139565b620000a49b9a9998979695949392919062000399565b604051809103906000f080158015620000c1573d6000803e3d6000fd5b5090508073ffffffffffffffffffffffffffffffffffffffff167f9d8d9335be0008f50a6547966dd6a854fd9df1f0be7838b8a445b562513627448d8d8d8d8d8d8d8d8d8d8d33604051620001229c9b9a9998979695949392919062000431565b60405180910390a29b9a5050505050505050505050565b6133f9806200053283390190565b803573ffffffffffffffffffffffffffffffffffffffff811681146200016c57600080fd5b919050565b803580151581146200016c57600080fd5b600082601f8301126200019457600080fd5b813567ffffffffffffffff80821115620001b257620001b262000502565b604051601f83017fffffffffffffffffffffffffffffffffffffffffffffffffffffffffffffffe0908116603f01168101908282118183101715620001fb57620001fb62000502565b816040528381528660208588010111156200021557600080fd5b836020870160208301376000602085830101528094505050505092915050565b60008060008060008060008060008060006101608c8e0312156200025857600080fd5b8b359a5060208c0135995060408c013598506200027860608d0162000147565b975060808c013596506200028f60a08d0162000147565b95506200029f60c08d0162000171565b945067ffffffffffffffff8060e08e01351115620002bc57600080fd5b620002ce8e60e08f01358f0162000182565b9450806101008e01351115620002e357600080fd5b50620002f78d6101008e01358e0162000182565b9250620003086101208d0162000171565b9150620003196101408d0162000147565b90509295989b509295989b9093969950565b6000815180845260005b81811015620003535760208185018101518683018201520162000335565b8181111562000366576000602083870101525b50601f017fffffffffffffffffffffffffffffffffffffffffffffffffffffffffffffffe0169290920160200192915050565b60006101608d83528c60208401528b604084015273ffffffffffffffffffffffffffffffffffffffff808c1660608501528a6080850152808a1660a085015288151560c08501528160e0850152620003f4828501896200032b565b91508382036101008501526200040b82886200032b565b925085151561012085015280851661014085015250509c9b505050505050505050505050565b60006101808e83528d60208401528c604084015273ffffffffffffffffffffffffffffffffffffffff808d1660608501528b6080850152808b1660a08501525088151560c08401528060e08401526200048d818401896200032b565b9050828103610100840152620004a481886200032b565b915050841515610120830152620004d461014083018573ffffffffffffffffffffffffffffffffffffffff169052565b73ffffffffffffffffffffffffffffffffffffffff83166101608301529d9c50505050505050505050505050565b7f4e487b7100000000000000000000000000000000000000000000000000000000600052604160045260246000fdfe60c06040523480156200001157600080fd5b50604051620033f9380380620033f9833981016040819052620000349162000372565b8686868686868d6001600160a01b031663c41c2f246040518163ffffffff1660e01b815260040160206040518083038186803b1580156200007457600080fd5b505afa15801562000089573d6000803e3d6000fd5b505050506040513d601f19601f82011682018060405250810190620000af91906200034b565b87620000bb336200017b565b600188905560028054871515600160a01b026001600160a81b03199091166001600160a01b038a16171790558451620000fc906003906020880190620001cb565b50835162000112906004906020870190620001cb565b506005805460ff1916841515179055606082901b6001600160601b0319166080526200013e816200017b565b5050600160065550505060079d909d555050506008989098555050506009939093555060601b6001600160601b03191660a05250620004d6915050565b600080546001600160a01b038381166001600160a01b0319831681178455604051919092169283917f8be0079c531659141344cd1fd0a4f28419497f9722a3daafe3b4186f6b6457e09190a35050565b828054620001d9906200046a565b90600052602060002090601f016020900481019282620001fd576000855562000248565b82601f106200021857805160ff191683800117855562000248565b8280016001018555821562000248579182015b82811115620002485782518255916020019190600101906200022b565b50620002569291506200025a565b5090565b5b808211156200025657600081556001016200025b565b80516200027e81620004bd565b919050565b805180151581146200027e57600080fd5b600082601f830112620002a657600080fd5b81516001600160401b0380821115620002c357620002c3620004a7565b604051601f8301601f19908116603f01168101908282118183101715620002ee57620002ee620004a7565b816040528381526020925086838588010111156200030b57600080fd5b600091505b838210156200032f578582018301518183018401529082019062000310565b83821115620003415760008385830101525b9695505050505050565b6000602082840312156200035e57600080fd5b81516200036b81620004bd565b9392505050565b60008060008060008060008060008060006101608c8e0312156200039557600080fd5b8b519a5060208c0151995060408c01519850620003b560608d0162000271565b975060808c01519650620003cc60a08d0162000271565b9550620003dc60c08d0162000283565b60e08d01519095506001600160401b03811115620003f957600080fd5b620004078e828f0162000294565b6101008e015190955090506001600160401b038111156200042757600080fd5b620004358e828f0162000294565b935050620004476101208d0162000283565b9150620004586101408d0162000271565b90509295989b509295989b9093969950565b600181811c908216806200047f57607f821691505b60208210811415620004a157634e487b7160e01b600052602260045260246000fd5b50919050565b634e487b7160e01b600052604160045260246000fd5b6001600160a01b0381168114620004d357600080fd5b50565b60805160601c60a05160601c612ee2620005176000396000818161048a015261072d01526000818161069401528181610cf101526110540152612ee26000f3fe60806040526004361061012d5760003560e01c80638293fee6116100a5578063a4919eb111610074578063b96053df11610059578063b96053df1461066d578063c41c2f2414610682578063f2fde38b146106b657600080fd5b8063a4919eb114610628578063a81b33f31461065a57600080fd5b80638293fee6146105a05780638da5cb5b146105b357806393b7f154146105de5780639ef3ae941461060857600080fd5b8063421a2fb5116100fc57806354ab58af116100e157806354ab58af1461053c578063715018a6146105695780637e6465491461057e57600080fd5b8063421a2fb5146105105780635380cf8f1461052657600080fd5b80630e45f78e146104565780632bdfe004146104785780633c212b1c146104d65780633ce9830b146104fa57600080fd5b3661045157600260065414156101a4576040517f08c379a000000000000000000000000000000000000000000000000000000000815260206004820152601f60248201527f5265656e7472616e637947756172643a207265656e7472616e742063616c6c0060448201526064015b60405180910390fd5b600260068190555060006101c560075460085460095461eeee4760126106d6565b9050806101d2575061044a565b600154156104015760055460ff16156102865761028160015461eeee836012600380546101fe90612d33565b80601f016020809104026020016040519081016040528092919081815260200182805461022a90612d33565b80156102775780601f1061024c57610100808354040283529160200191610277565b820191906000526020600020905b81548152906001019060200180831161025a57829003601f168201915b5050505050610ca2565b610448565b600154600254610281919061eeee90849060129073ffffffffffffffffffffffffffffffffffffffff166102ba57336102d4565b60025473ffffffffffffffffffffffffffffffffffffffff165b6000600260149054906101000a900460ff16600380546102f390612d33565b80601f016020809104026020016040519081016040528092919081815260200182805461031f90612d33565b801561036c5780601f106103415761010080835404028352916020019161036c565b820191906000526020600020905b81548152906001019060200180831161034f57829003601f168201915b50505050506004805461037e90612d33565b80601f01602080910402602001604051908101604052809291908181526020018280546103aa90612d33565b80156103f75780601f106103cc576101008083540402835291602001916103f7565b820191906000526020600020905b8154815290600101906020018083116103da57829003601f168201915b5050505050611005565b6002546104489073ffffffffffffffffffffffffffffffffffffffff166104285733610442565b60025473ffffffffffffffffffffffffffffffffffffffff165b826113c3565b505b6001600655005b600080fd5b34801561046257600080fd5b50610476610471366004612682565b611522565b005b34801561048457600080fd5b506104ac7f000000000000000000000000000000000000000000000000000000000000000081565b60405173ffffffffffffffffffffffffffffffffffffffff90911681526020015b60405180910390f35b3480156104e257600080fd5b506104ec60095481565b6040519081526020016104cd565b34801561050657600080fd5b506104ec60015481565b34801561051c57600080fd5b506104ec60075481565b34801561053257600080fd5b506104ec60085481565b34801561054857600080fd5b506002546104ac9073ffffffffffffffffffffffffffffffffffffffff1681565b34801561057557600080fd5b506104766117e1565b34801561058a57600080fd5b5061059361186e565b6040516104cd9190612b0c565b6104766105ae366004612728565b6118fc565b3480156105bf57600080fd5b5060005473ffffffffffffffffffffffffffffffffffffffff166104ac565b3480156105ea57600080fd5b506005546105f89060ff1681565b60405190151581526020016104cd565b34801561061457600080fd5b50610476610623366004612856565b611c8f565b34801561063457600080fd5b506002546105f89074010000000000000000000000000000000000000000900460ff1681565b6104766106683660046127e9565b611d7b565b34801561067957600080fd5b506105936120f8565b34801561068e57600080fd5b506104ac7f000000000000000000000000000000000000000000000000000000000000000081565b3480156106c257600080fd5b506104766106d13660046124ec565b612105565b6040517f69e11cc5000000000000000000000000000000000000000000000000000000008152600481018790526024810186905260448101859052600090819073ffffffffffffffffffffffffffffffffffffffff7f000000000000000000000000000000000000000000000000000000000000000016906369e11cc59060640160006040518083038186803b15801561076f57600080fd5b505afa158015610783573d6000803e3d6000fd5b505050506040513d6000823e601f3d9081017fffffffffffffffffffffffffffffffffffffffffffffffffffffffffffffffe01682016040526107c99190810190612509565b905083915060005b8151811015610c965760008282815181106107ee576107ee612e1e565b60200260200101519050600061080d878360400151633b9aca00612235565b90508015610c435760c082015173ffffffffffffffffffffffffffffffffffffffff1615610a71576040805160c08101825273ffffffffffffffffffffffffffffffffffffffff8a168082526020820184905291810188905260015460608201526000608082015260a081018490529061eeee146109355760c08301516040517f095ea7b300000000000000000000000000000000000000000000000000000000815273ffffffffffffffffffffffffffffffffffffffff918216600482015260248101849052908a169063095ea7b390604401602060405180830381600087803b1580156108fb57600080fd5b505af115801561090f573d6000803e3d6000fd5b505050506040513d601f19601f82011682018060405250810190610933919061262f565b505b600073ffffffffffffffffffffffffffffffffffffffff8a1661eeee1461095d57600061095f565b825b60c080860151604080517f9d740bfa000000000000000000000000000000000000000000000000000000008152865173ffffffffffffffffffffffffffffffffffffffff908116600483015260208089015160248401528389015160448401526060808a015160648501526080808b0151608486015260a0808c01518051151560a488015293840151151560c48701529583015160e486015290820151610104850152810151821661012484015292830151610144830152919093015181166101648401529293509190911690639d740bfa908390610184016000604051808303818588803b158015610a5157600080fd5b505af1158015610a65573d6000803e3d6000fd5b50505050505050610c36565b606082015115610b0657816020015115610aa257610a9d8260600151898389600380546101fe90612d33565b610c36565b610a9d8260600151898389600073ffffffffffffffffffffffffffffffffffffffff16876080015173ffffffffffffffffffffffffffffffffffffffff161415610aec5733610af2565b86608001515b60008860000151600380546102f390612d33565b73ffffffffffffffffffffffffffffffffffffffff881661eeee1415610b5a576080820151610a9d9073ffffffffffffffffffffffffffffffffffffffff16610b4f5733610442565b8260800151826113c3565b608082015173ffffffffffffffffffffffffffffffffffffffff808a169163a9059cbb9116610b895733610b8f565b83608001515b6040517fffffffff0000000000000000000000000000000000000000000000000000000060e084901b16815273ffffffffffffffffffffffffffffffffffffffff909116600482015260248101849052604401602060405180830381600087803b158015610bfc57600080fd5b505af1158015610c10573d6000803e3d6000fd5b505050506040513d601f19601f82011682018060405250810190610c34919061262f565b505b610c408186612cec565b94505b888a8c7f4b3ac25a47aa2ed4307939c6be651c4d77917da17eb3a60f0ba4328e8f04e797858533604051610c7993929190612b1f565b60405180910390a450508080610c8e90612d87565b9150506107d1565b50509695505050505050565b6040517f862026500000000000000000000000000000000000000000000000000000000081526004810186905273ffffffffffffffffffffffffffffffffffffffff85811660248301526000917f00000000000000000000000000000000000000000000000000000000000000009091169063862026509060440160206040518083038186803b158015610d3557600080fd5b505afa158015610d49573d6000803e3d6000fd5b505050506040513d601f19601f82011682018060405250810190610d6d919061264c565b905073ffffffffffffffffffffffffffffffffffffffff8116610dbc576040517ffba10dd600000000000000000000000000000000000000000000000000000000815260040160405180910390fd5b6040517fb7bad1b100000000000000000000000000000000000000000000000000000000815273ffffffffffffffffffffffffffffffffffffffff868116600483015284919083169063b7bad1b19060240160206040518083038186803b158015610e2657600080fd5b505afa158015610e3a573d6000803e3d6000fd5b505050506040513d601f19601f82011682018060405250810190610e5e9190612669565b14610e95576040517fb972592400000000000000000000000000000000000000000000000000000000815260040160405180910390fd5b73ffffffffffffffffffffffffffffffffffffffff851661eeee14610f5e576040517f095ea7b300000000000000000000000000000000000000000000000000000000815273ffffffffffffffffffffffffffffffffffffffff82811660048301526024820186905286169063095ea7b390604401602060405180830381600087803b158015610f2457600080fd5b505af1158015610f38573d6000803e3d6000fd5b505050506040513d601f19601f82011682018060405250810190610f5c919061262f565b505b600073ffffffffffffffffffffffffffffffffffffffff861661eeee14610f86576000610f88565b845b90508173ffffffffffffffffffffffffffffffffffffffff1663a27255cc8289888a886040518663ffffffff1660e01b8152600401610fca9493929190612c2f565b6000604051808303818588803b158015610fe357600080fd5b505af1158015610ff7573d6000803e3d6000fd5b505050505050505050505050565b6040517f86202650000000000000000000000000000000000000000000000000000000008152600481018a905273ffffffffffffffffffffffffffffffffffffffff89811660248301526000917f00000000000000000000000000000000000000000000000000000000000000009091169063862026509060440160206040518083038186803b15801561109857600080fd5b505afa1580156110ac573d6000803e3d6000fd5b505050506040513d601f19601f820116820180604052508101906110d0919061264c565b905073ffffffffffffffffffffffffffffffffffffffff811661111f576040517ffba10dd600000000000000000000000000000000000000000000000000000000815260040160405180910390fd5b6040517fb7bad1b100000000000000000000000000000000000000000000000000000000815273ffffffffffffffffffffffffffffffffffffffff8a8116600483015288919083169063b7bad1b19060240160206040518083038186803b15801561118957600080fd5b505afa15801561119d573d6000803e3d6000fd5b505050506040513d601f19601f820116820180604052508101906111c19190612669565b146111f8576040517fb972592400000000000000000000000000000000000000000000000000000000815260040160405180910390fd5b73ffffffffffffffffffffffffffffffffffffffff891661eeee146112c1576040517f095ea7b300000000000000000000000000000000000000000000000000000000815273ffffffffffffffffffffffffffffffffffffffff8281166004830152602482018a90528a169063095ea7b390604401602060405180830381600087803b15801561128757600080fd5b505af115801561129b573d6000803e3d6000fd5b505050506040513d601f19601f820116820180604052508101906112bf919061262f565b505b600073ffffffffffffffffffffffffffffffffffffffff8a1661eeee146112e95760006112eb565b885b90508173ffffffffffffffffffffffffffffffffffffffff16631ebc263f828d8c8e600073ffffffffffffffffffffffffffffffffffffffff168d73ffffffffffffffffffffffffffffffffffffffff161415611348573361134a565b8c5b8c8c8c8c6040518a63ffffffff1660e01b8152600401611371989796959493929190612bb8565b6020604051808303818588803b15801561138a57600080fd5b505af115801561139e573d6000803e3d6000fd5b50505050506040513d601f19601f82011682018060405250810190610ff79190612669565b8047101561142d576040517f08c379a000000000000000000000000000000000000000000000000000000000815260206004820152601d60248201527f416464726573733a20696e73756666696369656e742062616c616e6365000000604482015260640161019b565b60008273ffffffffffffffffffffffffffffffffffffffff168260405160006040518083038185875af1925050503d8060008114611487576040519150601f19603f3d011682016040523d82523d6000602084013e61148c565b606091505b505090508061151d576040517f08c379a000000000000000000000000000000000000000000000000000000000815260206004820152603a60248201527f416464726573733a20756e61626c6520746f2073656e642076616c75652c207260448201527f6563697069656e74206d61792068617665207265766572746564000000000000606482015260840161019b565b505050565b60005473ffffffffffffffffffffffffffffffffffffffff1633146115a3576040517f08c379a000000000000000000000000000000000000000000000000000000000815260206004820181905260248201527f4f776e61626c653a2063616c6c6572206973206e6f7420746865206f776e6572604482015260640161019b565b60015486146115b25760018690555b60025473ffffffffffffffffffffffffffffffffffffffff86811691161461161557600280547fffffffffffffffffffffffff00000000000000000000000000000000000000001673ffffffffffffffffffffffffffffffffffffffff87161790555b600260149054906101000a900460ff1615158415151461167357600280547fffffffffffffffffffffff00ffffffffffffffffffffffffffffffffffffffff1674010000000000000000000000000000000000000000861515021790555b600360405160200161168591906129b8565b60405160208183030381529060405280519060200120836040516020016116ac919061299c565b60405160208183030381529060405280519060200120146116dc5782516116da9060039060208601906123b5565b505b60046040516020016116ee91906129b8565b6040516020818303038152906040528051906020012082604051602001611715919061299c565b60405160208183030381529060405280519060200120146117455781516117439060049060208501906123b5565b505b60055460ff1615158115151461178257600580547fffffffffffffffffffffffffffffffffffffffffffffffffffffffffffffff00168215151790555b8473ffffffffffffffffffffffffffffffffffffffff16867f36b1c5cef608e320317b9ee5155756634c65fe7055b424ce57e2f6c59eec794786868686336040516117d1959493929190612aaf565b60405180910390a3505050505050565b60005473ffffffffffffffffffffffffffffffffffffffff163314611862576040517f08c379a000000000000000000000000000000000000000000000000000000000815260206004820181905260248201527f4f776e61626c653a2063616c6c6572206973206e6f7420746865206f776e6572604482015260640161019b565b61186c6000612340565b565b6004805461187b90612d33565b80601f01602080910402602001604051908101604052809291908181526020018280546118a790612d33565b80156118f45780601f106118c9576101008083540402835291602001916118f4565b820191906000526020600020905b8154815290600101906020018083116118d757829003601f168201915b505050505081565b60026006541415611969576040517f08c379a000000000000000000000000000000000000000000000000000000000815260206004820152601f60248201527f5265656e7472616e637947756172643a207265656e7472616e742063616c6c00604482015260640161019b565b600260065573ffffffffffffffffffffffffffffffffffffffff881661eeee14611a775734156119c5576040517fbcfd35be00000000000000000000000000000000000000000000000000000000815260040160405180910390fd5b6040517f23b872dd0000000000000000000000000000000000000000000000000000000081523360048201523060248201526044810188905273ffffffffffffffffffffffffffffffffffffffff8916906323b872dd90606401602060405180830381600087803b158015611a3957600080fd5b505af1158015611a4d573d6000803e3d6000fd5b505050506040513d601f19601f82011682018060405250810190611a71919061262f565b50611a7f565b349650601295505b6000611a956001546008546009548c8c8c6106d6565b90508015611bfa578915611adb57611ad68a8a838a73ffffffffffffffffffffffffffffffffffffffff8b16611acb5733611acd565b8a5b8a8a8a8a611005565b611bfa565b73ffffffffffffffffffffffffffffffffffffffff891661eeee1415611b2657611ad673ffffffffffffffffffffffffffffffffffffffff8716611b1f5733610442565b86826113c3565b73ffffffffffffffffffffffffffffffffffffffff808a169063a9059cbb908816611b515733611b53565b875b6040517fffffffff0000000000000000000000000000000000000000000000000000000060e084901b16815273ffffffffffffffffffffffffffffffffffffffff909116600482015260248101849052604401602060405180830381600087803b158015611bc057600080fd5b505af1158015611bd4573d6000803e3d6000fd5b505050506040513d601f19601f82011682018060405250810190611bf8919061262f565b505b897f72877920bfc936c0f18c54961abe3105d7d2990103eaa013cd8420fecacb0b6073ffffffffffffffffffffffffffffffffffffffff8816611c3d5733611c57565b60025473ffffffffffffffffffffffffffffffffffffffff165b8b8b8b868b8b8b8b33604051611c769a99989796959493929190612a25565b60405180910390a2505060016006555050505050505050565b60005473ffffffffffffffffffffffffffffffffffffffff163314611d10576040517f08c379a000000000000000000000000000000000000000000000000000000000815260206004820181905260248201527f4f776e61626c653a2063616c6c6572206973206e6f7420746865206f776e6572604482015260640161019b565b6007548314611d1f5760078390555b6008548214611d2e5760088290555b6009548114611d3d5760098190555b6040513381528190839085907f35d3ba05d1542dfd932c06cd4a721d4c7df968e4315425b90acca0cd7e6ec3b49060200160405180910390a4505050565b60026006541415611de8576040517f08c379a000000000000000000000000000000000000000000000000000000000815260206004820152601f60248201527f5265656e7472616e637947756172643a207265656e7472616e742063616c6c00604482015260640161019b565b600260065573ffffffffffffffffffffffffffffffffffffffff841661eeee14611ef6573415611e44576040517fbcfd35be00000000000000000000000000000000000000000000000000000000815260040160405180910390fd5b6040517f23b872dd0000000000000000000000000000000000000000000000000000000081523360048201523060248201526044810184905273ffffffffffffffffffffffffffffffffffffffff8516906323b872dd90606401602060405180830381600087803b158015611eb857600080fd5b505af1158015611ecc573d6000803e3d6000fd5b505050506040513d601f19601f82011682018060405250810190611ef0919061262f565b50611efe565b349250601291505b6000611f146001546008546009548888886106d6565b90508015612069578515611f3457611f2f8686838686610ca2565b612069565b73ffffffffffffffffffffffffffffffffffffffff851661eeee1415611f7b57600254611f2f9073ffffffffffffffffffffffffffffffffffffffff166104285733610442565b60025473ffffffffffffffffffffffffffffffffffffffff8087169163a9059cbb9116611fa85733611fc2565b60025473ffffffffffffffffffffffffffffffffffffffff165b6040517fffffffff0000000000000000000000000000000000000000000000000000000060e084901b16815273ffffffffffffffffffffffffffffffffffffffff909116600482015260248101849052604401602060405180830381600087803b15801561202f57600080fd5b505af1158015612043573d6000803e3d6000fd5b505050506040513d601f19601f82011682018060405250810190612067919061262f565b505b60025486907f1cacd368d4a904dc8ccd07397ae386cac83cd9bf151ee6c66923e6595fe397fa9073ffffffffffffffffffffffffffffffffffffffff166120b057336120ca565b60025473ffffffffffffffffffffffffffffffffffffffff165b8787878688336040516120e397969594939291906129c4565b60405180910390a25050600160065550505050565b6003805461187b90612d33565b60005473ffffffffffffffffffffffffffffffffffffffff163314612186576040517f08c379a000000000000000000000000000000000000000000000000000000000815260206004820181905260248201527f4f776e61626c653a2063616c6c6572206973206e6f7420746865206f776e6572604482015260640161019b565b73ffffffffffffffffffffffffffffffffffffffff8116612229576040517f08c379a000000000000000000000000000000000000000000000000000000000815260206004820152602660248201527f4f776e61626c653a206e6577206f776e657220697320746865207a65726f206160448201527f6464726573730000000000000000000000000000000000000000000000000000606482015260840161019b565b61223281612340565b50565b600080807fffffffffffffffffffffffffffffffffffffffffffffffffffffffffffffffff858709858702925082811083820303915050806000141561228e5783828161228457612284612def565b0492505050612339565b8381106122d1576040517f773cc18c000000000000000000000000000000000000000000000000000000008152600481018290526024810185905260440161019b565b600084868809851960019081018716968790049682860381900495909211909303600082900391909104909201919091029190911760038402600290811880860282030280860282030280860282030280860282030280860282030280860290910302029150505b9392505050565b6000805473ffffffffffffffffffffffffffffffffffffffff8381167fffffffffffffffffffffffff0000000000000000000000000000000000000000831681178455604051919092169283917f8be0079c531659141344cd1fd0a4f28419497f9722a3daafe3b4186f6b6457e09190a35050565b8280546123c190612d33565b90600052602060002090601f0160209004810192826123e35760008555612429565b82601f106123fc57805160ff1916838001178555612429565b82800160010185558215612429579182015b8281111561242957825182559160200191906001019061240e565b50612435929150612439565b5090565b5b80821115612435576000815560010161243a565b803561245981612e9e565b919050565b600082601f83011261246f57600080fd5b813567ffffffffffffffff81111561248957612489612e4d565b6124ba60207fffffffffffffffffffffffffffffffffffffffffffffffffffffffffffffffe0601f84011601612c9d565b8181528460208386010111156124cf57600080fd5b816020850160208301376000918101602001919091529392505050565b6000602082840312156124fe57600080fd5b813561233981612e7c565b6000602080838503121561251c57600080fd5b825167ffffffffffffffff8082111561253457600080fd5b818501915085601f83011261254857600080fd5b81518181111561255a5761255a612e4d565b612568848260051b01612c9d565b818152848101925083850160e0808402860187018a101561258857600080fd5b60009550855b848110156126205781838c0312156125a4578687fd5b6125ac612c74565b83516125b781612e9e565b8152838901516125c681612e9e565b818a015260408481015190820152606080850151908201526080808501516125ed81612e7c565b9082015260a0848101519082015260c08085015161260a81612e7c565b908201528652948701949181019160010161258e565b50919998505050505050505050565b60006020828403121561264157600080fd5b815161233981612e9e565b60006020828403121561265e57600080fd5b815161233981612e7c565b60006020828403121561267b57600080fd5b5051919050565b60008060008060008060c0878903121561269b57600080fd5b8635955060208701356126ad81612e7c565b945060408701356126bd81612e9e565b9350606087013567ffffffffffffffff808211156126da57600080fd5b6126e68a838b0161245e565b945060808901359150808211156126fc57600080fd5b5061270989828a0161245e565b92505060a087013561271a81612e9e565b809150509295509295509295565b60008060008060008060008060006101208a8c03121561274757600080fd5b8935985060208a013561275981612e7c565b975060408a0135965060608a0135955060808a013561277781612e7c565b945060a08a0135935061278c60c08b0161244e565b925060e08a013567ffffffffffffffff808211156127a957600080fd5b6127b58d838e0161245e565b93506101008c01359150808211156127cc57600080fd5b506127d98c828d0161245e565b9150509295985092959850929598565b600080600080600060a0868803121561280157600080fd5b85359450602086013561281381612e7c565b93506040860135925060608601359150608086013567ffffffffffffffff81111561283d57600080fd5b6128498882890161245e565b9150509295509295909350565b60008060006060848603121561286b57600080fd5b505081359360208301359350604090920135919050565b6000815180845261289a816020860160208601612d03565b601f017fffffffffffffffffffffffffffffffffffffffffffffffffffffffffffffffe0169290920160200192915050565b8054600090600181811c90808316806128e657607f831692505b6020808410821415612921577f4e487b7100000000000000000000000000000000000000000000000000000000600052602260045260246000fd5b818015612935576001811461296457612990565b7fffffffffffffffffffffffffffffffffffffffffffffffffffffffffffffff00861689528489019650612990565b876000528160002060005b868110156129885781548b82015290850190830161296f565b505084890196505b50505050505092915050565b600082516129ae818460208701612d03565b9190910192915050565b600061233982846128cc565b600073ffffffffffffffffffffffffffffffffffffffff808a168352808916602084015287604084015286606084015285608084015260e060a0840152612a0e60e0840186612882565b915080841660c08401525098975050505050505050565b600061014073ffffffffffffffffffffffffffffffffffffffff808e168452808d1660208501528b60408501528a60608501528960808501528860a085015287151560c08501528160e0850152612a7e82850188612882565b9150838203610100850152612a938287612882565b925080851661012085015250509b9a5050505050505050505050565b851515815260a060208201526000612aca60a0830187612882565b8281036040840152612adc8187612882565b9415156060840152505073ffffffffffffffffffffffffffffffffffffffff919091166080909101529392505050565b6020815260006123396020830184612882565b6101208101612b8d82868051151582526020810151151560208301526040810151604083015260608101516060830152608081015173ffffffffffffffffffffffffffffffffffffffff808216608085015260a083015160a08501528060c08401511660c085015250505050565b8360e083015273ffffffffffffffffffffffffffffffffffffffff8316610100830152949350505050565b60006101008a835289602084015273ffffffffffffffffffffffffffffffffffffffff808a16604085015280891660608501525086608084015285151560a08401528060c0840152612c0c81840186612882565b905082810360e0840152612c208185612882565b9b9a5050505050505050505050565b84815283602082015273ffffffffffffffffffffffffffffffffffffffff83166040820152608060608201526000612c6a6080830184612882565b9695505050505050565b60405160e0810167ffffffffffffffff81118282101715612c9757612c97612e4d565b60405290565b604051601f82017fffffffffffffffffffffffffffffffffffffffffffffffffffffffffffffffe016810167ffffffffffffffff81118282101715612ce457612ce4612e4d565b604052919050565b600082821015612cfe57612cfe612dc0565b500390565b60005b83811015612d1e578181015183820152602001612d06565b83811115612d2d576000848401525b50505050565b600181811c90821680612d4757607f821691505b60208210811415612d81577f4e487b7100000000000000000000000000000000000000000000000000000000600052602260045260246000fd5b50919050565b60007fffffffffffffffffffffffffffffffffffffffffffffffffffffffffffffffff821415612db957612db9612dc0565b5060010190565b7f4e487b7100000000000000000000000000000000000000000000000000000000600052601160045260246000fd5b7f4e487b7100000000000000000000000000000000000000000000000000000000600052601260045260246000fd5b7f4e487b7100000000000000000000000000000000000000000000000000000000600052603260045260246000fd5b7f4e487b7100000000000000000000000000000000000000000000000000000000600052604160045260246000fd5b73ffffffffffffffffffffffffffffffffffffffff8116811461223257600080fd5b801515811461223257600080fdfea2646970667358221220dd4a4b44b432e0035e10ca220b07a8b34056a5a48d9126c6a868f5ea29fe4d6164736f6c63430008060033a26469706673582212200ec011cf7895bf8ae36744ae27a4510f147411bc7aecaf177153feaeb27913e864736f6c63430008060033",
  "devdoc": {
    "details": "Adheres to: IJBETHERC20SplitsPayerDeployer:  General interface for the methods in this contract that interact with the blockchain's state according to the protocol's rules.",
    "kind": "dev",
    "methods": {
      "deploySplitsPayer(uint256,uint256,uint256,address,uint256,address,bool,string,bytes,bool,address)": {
        "params": {
          "_defaultBeneficiary": "The address that'll receive the project's tokens when the splits payer receives payments. ",
          "_defaultMemo": "The memo that'll be forwarded with the splits payer's received payments. ",
          "_defaultMetadata": "The metadata that'll be forwarded with the splits payer's received payments. ",
          "_defaultPreferAddToBalance": "A flag indicating if received payments should call the `pay` function or the `addToBalance` function of a project.",
          "_defaultPreferClaimedTokens": "A flag indicating whether issued tokens from the splits payer's received payments should be automatically claimed into the beneficiary's wallet. ",
          "_defaultProjectId": "The ID of the project whose treasury should be forwarded the splits payer contract's received payment leftovers after distributing to the default splits group.",
          "_defaultSplitsDomain": "The splits domain to payout when this contract receives direct payments.",
          "_defaultSplitsGroup": "The splits group to payout when this contract receives direct payments.",
          "_defaultSplitsProjectId": "The ID of project for which the default splits are stored.",
          "_owner": "The address that will own the splits payer.",
          "_splitsStore": "A contract that stores splits for each project."
        },
        "returns": {
          "splitsPayer": "The splits payer contract."
        }
      }
    },
    "version": 1
  },
  "userdoc": {
    "kind": "user",
    "methods": {
      "deploySplitsPayer(uint256,uint256,uint256,address,uint256,address,bool,string,bytes,bool,address)": {
        "notice": " Allows anyone to deploy a new splits payer contract."
      }
    },
    "notice": " Deploys splits payer contracts.",
    "version": 1
  },
  "storageLayout": {
    "storage": [],
    "types": null
  }
}