{
  "address": "0xc2faBc1bDDB9Fb7F2C59a0F05ADc0106D82B1f2f",
  "abi": [
    {
      "anonymous": false,
      "inputs": [
        {
          "indexed": true,
          "internalType": "contract IJBSplitsPayer",
          "name": "splitsPayer",
          "type": "address"
        },
        {
          "indexed": false,
          "internalType": "uint256",
          "name": "defaultSplitsProjectId",
          "type": "uint256"
        },
        {
          "indexed": false,
          "internalType": "uint256",
          "name": "defaultSplitsDomain",
          "type": "uint256"
        },
        {
          "indexed": false,
          "internalType": "uint256",
          "name": "defaultSplitsGroup",
          "type": "uint256"
        },
        {
          "indexed": false,
          "internalType": "contract IJBSplitsStore",
          "name": "splitsStore",
          "type": "address"
        },
        {
          "indexed": false,
          "internalType": "uint256",
          "name": "defaultProjectId",
          "type": "uint256"
        },
        {
          "indexed": false,
          "internalType": "address",
          "name": "defaultBeneficiary",
          "type": "address"
        },
        {
          "indexed": false,
          "internalType": "bool",
          "name": "defaultPreferClaimedTokens",
          "type": "bool"
        },
        {
          "indexed": false,
          "internalType": "string",
          "name": "defaultMemo",
          "type": "string"
        },
        {
          "indexed": false,
          "internalType": "bytes",
          "name": "defaultMetadata",
          "type": "bytes"
        },
        {
          "indexed": false,
          "internalType": "bool",
          "name": "preferAddToBalance",
          "type": "bool"
        },
        {
          "indexed": false,
          "internalType": "address",
          "name": "owner",
          "type": "address"
        },
        {
          "indexed": false,
          "internalType": "address",
          "name": "caller",
          "type": "address"
        }
      ],
      "name": "DeploySplitsPayer",
      "type": "event"
    },
    {
      "inputs": [
        {
          "internalType": "uint256",
          "name": "_defaultSplitsProjectId",
          "type": "uint256"
        },
        {
          "internalType": "uint256",
          "name": "_defaultSplitsDomain",
          "type": "uint256"
        },
        {
          "internalType": "uint256",
          "name": "_defaultSplitsGroup",
          "type": "uint256"
        },
        {
          "internalType": "contract IJBSplitsStore",
          "name": "_splitsStore",
          "type": "address"
        },
        {
          "internalType": "uint256",
          "name": "_defaultProjectId",
          "type": "uint256"
        },
        {
          "internalType": "address payable",
          "name": "_defaultBeneficiary",
          "type": "address"
        },
        {
          "internalType": "bool",
          "name": "_defaultPreferClaimedTokens",
          "type": "bool"
        },
        {
          "internalType": "string",
          "name": "_defaultMemo",
          "type": "string"
        },
        {
          "internalType": "bytes",
          "name": "_defaultMetadata",
          "type": "bytes"
        },
        {
          "internalType": "bool",
          "name": "_defaultPreferAddToBalance",
          "type": "bool"
        },
        {
          "internalType": "address",
          "name": "_owner",
          "type": "address"
        }
      ],
      "name": "deploySplitsPayer",
      "outputs": [
        {
          "internalType": "contract IJBSplitsPayer",
          "name": "splitsPayer",
          "type": "address"
        }
      ],
      "stateMutability": "nonpayable",
      "type": "function"
    },
    {
      "inputs": [
        {
          "internalType": "uint256",
          "name": "_defaultSplitsProjectId",
          "type": "uint256"
        },
        {
          "components": [
            {
              "internalType": "bool",
              "name": "preferClaimed",
              "type": "bool"
            },
            {
              "internalType": "bool",
              "name": "preferAddToBalance",
              "type": "bool"
            },
            {
              "internalType": "uint256",
              "name": "percent",
              "type": "uint256"
            },
            {
              "internalType": "uint256",
              "name": "projectId",
              "type": "uint256"
            },
            {
              "internalType": "address payable",
              "name": "beneficiary",
              "type": "address"
            },
            {
              "internalType": "uint256",
              "name": "lockedUntil",
              "type": "uint256"
            },
            {
              "internalType": "contract IJBSplitAllocator",
              "name": "allocator",
              "type": "address"
            }
          ],
          "internalType": "struct JBSplit[]",
          "name": "_defaultSplits",
          "type": "tuple[]"
        },
        {
          "internalType": "contract IJBSplitsStore",
          "name": "_splitsStore",
          "type": "address"
        },
        {
          "internalType": "uint256",
          "name": "_defaultProjectId",
          "type": "uint256"
        },
        {
          "internalType": "address payable",
          "name": "_defaultBeneficiary",
          "type": "address"
        },
        {
          "internalType": "bool",
          "name": "_defaultPreferClaimedTokens",
          "type": "bool"
        },
        {
          "internalType": "string",
          "name": "_defaultMemo",
          "type": "string"
        },
        {
          "internalType": "bytes",
          "name": "_defaultMetadata",
          "type": "bytes"
        },
        {
          "internalType": "bool",
          "name": "_defaultPreferAddToBalance",
          "type": "bool"
        },
        {
          "internalType": "address",
          "name": "_owner",
          "type": "address"
        }
      ],
      "name": "deploySplitsPayerWithSplits",
      "outputs": [
        {
          "internalType": "contract IJBSplitsPayer",
          "name": "splitsPayer",
          "type": "address"
        }
      ],
      "stateMutability": "nonpayable",
      "type": "function"
    }
  ],
  "transactionHash": "0xacca2720bf910be8b128acd0ce11aceeba311085124b2e60a1e9da41bbf79fa0",
  "args": [],
  "numDeployments": 1,
  "solcInputHash": "7f5ae5369c2a685c882e67f75315b841",
  "bytecode": "0x608060405234801561001057600080fd5b506146cd806100206000396000f3fe60806040523480156200001157600080fd5b50600436106200003a5760003560e01c80632d3fb8a3146200003f5780632e113c8b146200007f575b600080fd5b620000566200005036600462000584565b62000096565b60405173ffffffffffffffffffffffffffffffffffffffff909116815260200160405180910390f35b620000566200009036600462000689565b6200021b565b6040517fffffffffffffffffffffffffffffffffffffffff0000000000000000000000003360601b16602082015243603482015260009030908290605401604080518083037fffffffffffffffffffffffffffffffffffffffffffffffffffffffffffffffe001815282825280516020909101206001808452838301909252925060609190816020015b6040805180820190915260008152606060208201528152602001906001900390816200012057905050905060405180604001604052808381526020018e815250816000815181106200017657620001766200077f565b60200260200101819052508b73ffffffffffffffffffffffffffffffffffffffff1663f2da44b68f85846040518463ffffffff1660e01b8152600401620001c093929190620007ae565b600060405180830381600087803b158015620001db57600080fd5b505af1158015620001f0573d6000803e3d6000fd5b50505050620002098e84848f8f8f8f8f8f8f8f6200021b565b9e9d5050505050505050505050505050565b60008b8b8b8b8b8b8b8b8b8b8b6040516200023690620002e1565b6200024c9b9a999897969594939291906200093b565b604051809103906000f08015801562000269573d6000803e3d6000fd5b5090508073ffffffffffffffffffffffffffffffffffffffff167f9d8d9335be0008f50a6547966dd6a854fd9df1f0be7838b8a445b562513627448d8d8d8d8d8d8d8d8d8d8d33604051620002ca9c9b9a99989796959493929190620009d3565b60405180910390a29b9a5050505050505050505050565b613bf38062000aa583390190565b7f4e487b7100000000000000000000000000000000000000000000000000000000600052604160045260246000fd5b60405160e0810167ffffffffffffffff81118282101715620003445762000344620002ef565b60405290565b604051601f82017fffffffffffffffffffffffffffffffffffffffffffffffffffffffffffffffe016810167ffffffffffffffff81118282101715620003945762000394620002ef565b604052919050565b80358015158114620003ad57600080fd5b919050565b73ffffffffffffffffffffffffffffffffffffffff81168114620003d557600080fd5b50565b8035620003ad81620003b2565b600082601f830112620003f757600080fd5b8135602067ffffffffffffffff821115620004165762000416620002ef565b62000426818360051b016200034a565b82815260e092830285018201928282019190878511156200044657600080fd5b8387015b85811015620004e25781818a031215620004645760008081fd5b6200046e6200031e565b62000479826200039c565b8152620004888683016200039c565b818701526040828101359082015260608083013590820152608080830135620004b181620003b2565b9082015260a0828101359082015260c080830135620004d081620003b2565b9082015284529284019281016200044a565b5090979650505050505050565b600082601f8301126200050157600080fd5b813567ffffffffffffffff8111156200051e576200051e620002ef565b6200055160207fffffffffffffffffffffffffffffffffffffffffffffffffffffffffffffffe0601f840116016200034a565b8181528460208386010111156200056757600080fd5b816020850160208301376000918101602001919091529392505050565b6000806000806000806000806000806101408b8d031215620005a557600080fd5b8a35995060208b013567ffffffffffffffff80821115620005c557600080fd5b620005d38e838f01620003e5565b9a50620005e360408e01620003d8565b995060608d01359850620005fa60808e01620003d8565b97506200060a60a08e016200039c565b965060c08d01359150808211156200062157600080fd5b6200062f8e838f01620004ef565b955060e08d01359150808211156200064657600080fd5b50620006558d828e01620004ef565b935050620006676101008c016200039c565b9150620006786101208c01620003d8565b90509295989b9194979a5092959850565b60008060008060008060008060008060006101608c8e031215620006ac57600080fd5b8b359a5060208c0135995060408c01359850620006cc60608d01620003d8565b975060808c01359650620006e360a08d01620003d8565b9550620006f360c08d016200039c565b945067ffffffffffffffff8060e08e013511156200071057600080fd5b620007228e60e08f01358f01620004ef565b9450806101008e013511156200073757600080fd5b506200074b8d6101008e01358e01620004ef565b92506200075c6101208d016200039c565b91506200076d6101408d01620003d8565b90509295989b509295989b9093969950565b7f4e487b7100000000000000000000000000000000000000000000000000000000600052603260045260246000fd5b600060608083018684526020868186015260408381870152828751808552608094508488019150848160051b890101848a0160005b83811015620008c3578a83037fffffffffffffffffffffffffffffffffffffffffffffffffffffffffffffff800185528151805184528701518784018790528051878501819052908801906000908b8601905b80831015620008ad5783518051151583528b81015115158c8401528a8101518b8401528d8101518e8401528c81015173ffffffffffffffffffffffffffffffffffffffff9081168e85015260a0808301519085015260c0918201511690830152928a01926001929092019160e09091019062000836565b50968901969450505090860190600101620007e3565b50909c9b505050505050505050505050565b6000815180845260005b81811015620008fd57602081850181015186830182015201620008df565b5060006020828601015260207fffffffffffffffffffffffffffffffffffffffffffffffffffffffffffffffe0601f83011685010191505092915050565b60006101608d83528c60208401528b604084015273ffffffffffffffffffffffffffffffffffffffff808c1660608501528a6080850152808a1660a085015288151560c08501528160e08501526200099682850189620008d5565b9150838203610100850152620009ad8288620008d5565b925085151561012085015280851661014085015250509c9b505050505050505050505050565b60006101808e83528d60208401528c604084015273ffffffffffffffffffffffffffffffffffffffff808d1660608501528b6080850152808b1660a08501525088151560c08401528060e084015262000a2f81840189620008d5565b905082810361010084015262000a468188620008d5565b91505084151561012083015262000a7661014083018573ffffffffffffffffffffffffffffffffffffffff169052565b73ffffffffffffffffffffffffffffffffffffffff83166101608301529d9c5050505050505050505050505056fe60c06040523480156200001157600080fd5b5060405162003bf338038062003bf38339810160408190526200003491620002a5565b8686868686868d6001600160a01b031663c41c2f246040518163ffffffff1660e01b8152600401602060405180830381865afa15801562000079573d6000803e3d6000fd5b505050506040513d601f19601f820116820180604052508101906200009f91906200039d565b87620000ab3362000154565b600188905560028054871515600160a01b026001600160a81b03199091166001600160a01b038a16171790556003620000e5868262000453565b506004620000f4858262000453565b506005805460ff19168415151790556001600160a01b0382166080526200011b8162000154565b5050600160065550505060079d909d55505050600898909855505050600993909355506001600160a01b031660a052506200051f915050565b600080546001600160a01b038381166001600160a01b0319831681178455604051919092169283917f8be0079c531659141344cd1fd0a4f28419497f9722a3daafe3b4186f6b6457e09190a35050565b6001600160a01b0381168114620001ba57600080fd5b50565b8051620001ca81620001a4565b919050565b80518015158114620001ca57600080fd5b634e487b7160e01b600052604160045260246000fd5b600082601f8301126200020857600080fd5b81516001600160401b0380821115620002255762000225620001e0565b604051601f8301601f19908116603f01168101908282118183101715620002505762000250620001e0565b816040528381526020925086838588010111156200026d57600080fd5b600091505b8382101562000291578582018301518183018401529082019062000272565b600093810190920192909252949350505050565b60008060008060008060008060008060006101608c8e031215620002c857600080fd5b8b519a5060208c0151995060408c01519850620002e860608d01620001bd565b975060808c01519650620002ff60a08d01620001bd565b95506200030f60c08d01620001cf565b60e08d01519095506001600160401b038111156200032c57600080fd5b6200033a8e828f01620001f6565b6101008e015190955090506001600160401b038111156200035a57600080fd5b620003688e828f01620001f6565b9350506200037a6101208d01620001cf565b91506200038b6101408d01620001bd565b90509295989b509295989b9093969950565b600060208284031215620003b057600080fd5b8151620003bd81620001a4565b9392505050565b600181811c90821680620003d957607f821691505b602082108103620003fa57634e487b7160e01b600052602260045260246000fd5b50919050565b601f8211156200044e57600081815260208120601f850160051c81016020861015620004295750805b601f850160051c820191505b818110156200044a5782815560010162000435565b5050505b505050565b81516001600160401b038111156200046f576200046f620001e0565b6200048781620004808454620003c4565b8462000400565b602080601f831160018114620004bf5760008415620004a65750858301515b600019600386901b1c1916600185901b1785556200044a565b600085815260208120601f198616915b82811015620004f057888601518255948401946001909101908401620004cf565b50858210156200050f5787850151600019600388901b60f8161c191681555b5050505050600190811b01905550565b60805160a0516136926200056160003960008181610570015281816107d90152611b9e01526000818161074b015281816108da0152610b3e01526136926000f3fe6080604052600436106101635760003560e01c8063715018a6116100c0578063a4919eb111610074578063b96053df11610059578063b96053df14610724578063c41c2f2414610739578063f2fde38b1461076d57600080fd5b8063a4919eb1146106d2578063ae16f56a1461070457600080fd5b80638293fee6116100a55780638293fee6146106875780638da5cb5b1461069a57806393b7f154146106b857600080fd5b8063715018a6146106505780637e6465491461066557600080fd5b80633ce9830b116101175780635380cf8f116100fc5780635380cf8f146105fa57806354ab58af1461061057806371277d571461063057600080fd5b80633ce9830b146105ce578063421a2fb5146105e457600080fd5b80630e45f78e116101485780630e45f78e1461053e5780632bdfe0041461055e5780633c212b1c146105aa57600080fd5b806301ffc9a7146104f457806309a6b7e51461052957600080fd5b366104ef576002600654036101bf5760405162461bcd60e51b815260206004820152601f60248201527f5265656e7472616e637947756172643a207265656e7472616e742063616c6c0060448201526064015b60405180910390fd5b60026006819055600754600854600954925460009361020793929161eeee9047906012906001600160a01b03166101f6573261078d565b6002546001600160a01b031661078d565b90508060000361021757506104e6565b600154156104b75760055460ff16156103565761035160015461eeee8360126003805461024390612712565b80601f016020809104026020016040519081016040528092919081815260200182805461026f90612712565b80156102bc5780601f10610291576101008083540402835291602001916102bc565b820191906000526020600020905b81548152906001019060200180831161029f57829003601f168201915b5050505050600480546102ce90612712565b80601f01602080910402602001604051908101604052809291908181526020018280546102fa90612712565b80156103475780601f1061031c57610100808354040283529160200191610347565b820191906000526020600020905b81548152906001019060200180831161032a57829003601f168201915b5050505050610898565b6104e4565b600154600254610351919061eeee9084906012906001600160a01b031661037d573261038a565b6002546001600160a01b03165b6000600260149054906101000a900460ff16600380546103a990612712565b80601f01602080910402602001604051908101604052809291908181526020018280546103d590612712565b80156104225780601f106103f757610100808354040283529160200191610422565b820191906000526020600020905b81548152906001019060200180831161040557829003601f168201915b50505050506004805461043490612712565b80601f016020809104026020016040519081016040528092919081815260200182805461046090612712565b80156104ad5780601f10610482576101008083540402835291602001916104ad565b820191906000526020600020905b81548152906001019060200180831161049057829003601f168201915b5050505050610afc565b6002546104e4906001600160a01b03166104d157326104de565b6002546001600160a01b03165b82610dbd565b505b60016006819055005b600080fd5b34801561050057600080fd5b5061051461050f366004612765565b610edb565b60405190151581526020015b60405180910390f35b61053c610537366004612805565b610f37565b005b34801561054a57600080fd5b5061053c6105593660046129e6565b6112ca565b34801561056a57600080fd5b506105927f000000000000000000000000000000000000000000000000000000000000000081565b6040516001600160a01b039091168152602001610520565b3480156105b657600080fd5b506105c060095481565b604051908152602001610520565b3480156105da57600080fd5b506105c060015481565b3480156105f057600080fd5b506105c060075481565b34801561060657600080fd5b506105c060085481565b34801561061c57600080fd5b50600254610592906001600160a01b031681565b34801561063c57600080fd5b5061053c61064b366004612a9f565b61152d565b34801561065c57600080fd5b5061053c6115f2565b34801561067157600080fd5b5061067a611658565b6040516105209190612b1b565b61053c610695366004612b2e565b6116e6565b3480156106a657600080fd5b506000546001600160a01b0316610592565b3480156106c457600080fd5b506005546105149060ff1681565b3480156106de57600080fd5b506002546105149074010000000000000000000000000000000000000000900460ff1681565b34801561071057600080fd5b5061053c61071f366004612c2e565b611b14565b34801561073057600080fd5b5061067a611c1a565b34801561074557600080fd5b506105927f000000000000000000000000000000000000000000000000000000000000000081565b34801561077957600080fd5b5061053c610788366004612e76565b611c27565b6040517f69e11cc5000000000000000000000000000000000000000000000000000000008152600481018890526024810187905260448101869052600090610851906001600160a01b037f000000000000000000000000000000000000000000000000000000000000000016906369e11cc590606401600060405180830381865afa158015610820573d6000803e3d6000fd5b505050506040513d6000823e601f3d908101601f191682016040526108489190810190612e93565b86868686611d09565b604051338152909150869088908a907f2522c1d6a5eb94bdf38d0007aadcdd12c34a8b834b915ab71117e8c0a7e5df809060200160405180910390a4979650505050505050565b6040517f86202650000000000000000000000000000000000000000000000000000000008152600481018790526001600160a01b0386811660248301526000917f000000000000000000000000000000000000000000000000000000000000000090911690638620265090604401602060405180830381865afa158015610923573d6000803e3d6000fd5b505050506040513d601f19601f820116820180604052508101906109479190612f9d565b90506001600160a01b038116610989576040517ffba10dd600000000000000000000000000000000000000000000000000000000815260040160405180910390fd5b6040517fb7bad1b10000000000000000000000000000000000000000000000000000000081526001600160a01b03878116600483015285919083169063b7bad1b190602401602060405180830381865afa1580156109eb573d6000803e3d6000fd5b505050506040513d601f19601f82011682018060405250810190610a0f9190612fba565b14610a46576040517fb972592400000000000000000000000000000000000000000000000000000000815260040160405180910390fd5b6001600160a01b03861661eeee14610a6c57610a6c6001600160a01b0387168287612044565b60006001600160a01b03871661eeee14610a87576000610a89565b855b9050816001600160a01b0316630cf8e858828a898b89896040518763ffffffff1660e01b8152600401610ac0959493929190612fd3565b6000604051808303818588803b158015610ad957600080fd5b505af1158015610aed573d6000803e3d6000fd5b50505050505050505050505050565b6040517f86202650000000000000000000000000000000000000000000000000000000008152600481018a90526001600160a01b0389811660248301526000917f000000000000000000000000000000000000000000000000000000000000000090911690638620265090604401602060405180830381865afa158015610b87573d6000803e3d6000fd5b505050506040513d601f19601f82011682018060405250810190610bab9190612f9d565b90506001600160a01b038116610bed576040517ffba10dd600000000000000000000000000000000000000000000000000000000815260040160405180910390fd5b6040517fb7bad1b10000000000000000000000000000000000000000000000000000000081526001600160a01b038a8116600483015288919083169063b7bad1b190602401602060405180830381865afa158015610c4f573d6000803e3d6000fd5b505050506040513d601f19601f82011682018060405250810190610c739190612fba565b14610caa576040517fb972592400000000000000000000000000000000000000000000000000000000815260040160405180910390fd5b6001600160a01b03891661eeee14610cd057610cd06001600160a01b038a16828a612044565b60006001600160a01b038a1661eeee14610ceb576000610ced565b885b9050816001600160a01b0316631ebc263f828d8c8e60006001600160a01b03168d6001600160a01b031603610d43576002546001600160a01b0316610d325732610d45565b6002546001600160a01b0316610d45565b8c5b8c8c8c8c6040518a63ffffffff1660e01b8152600401610d6c98979695949392919061301f565b60206040518083038185885af1158015610d8a573d6000803e3d6000fd5b50505050506040513d601f19601f82011682018060405250810190610daf9190612fba565b505050505050505050505050565b80471015610e0d5760405162461bcd60e51b815260206004820152601d60248201527f416464726573733a20696e73756666696369656e742062616c616e636500000060448201526064016101b6565b6000826001600160a01b03168260405160006040518083038185875af1925050503d8060008114610e5a576040519150601f19603f3d011682016040523d82523d6000602084013e610e5f565b606091505b5050905080610ed65760405162461bcd60e51b815260206004820152603a60248201527f416464726573733a20756e61626c6520746f2073656e642076616c75652c207260448201527f6563697069656e74206d6179206861766520726576657274656400000000000060648201526084016101b6565b505050565b60007fffffffff0000000000000000000000000000000000000000000000000000000082167fd955a31f000000000000000000000000000000000000000000000000000000001480610f315750610f31826121f2565b92915050565b600260065403610f895760405162461bcd60e51b815260206004820152601f60248201527f5265656e7472616e637947756172643a207265656e7472616e742063616c6c0060448201526064016101b6565b60026006556001600160a01b03871661eeee14611108573415610fd8576040517fbcfd35be00000000000000000000000000000000000000000000000000000000815260040160405180910390fd5b6040517f70a082310000000000000000000000000000000000000000000000000000000081523060048201526000906001600160a01b038916906370a0823190602401602060405180830381865afa158015611038573d6000803e3d6000fd5b505050506040513d601f19601f8201168201806040525081019061105c9190612fba565b90506110736001600160a01b03891633308a612289565b6040517f70a0823100000000000000000000000000000000000000000000000000000000815230600482015281906001600160a01b038a16906370a0823190602401602060405180830381865afa1580156110d2573d6000803e3d6000fd5b505050506040513d601f19601f820116820180604052508101906110f69190612fba565b6111009190613089565b965050611110565b349550601294505b60075460085460095460025460009361114093909290918c908c908c906001600160a01b03166101f6573261078d565b9050801561124c5788156111ca576111c58989838989898080601f01602080910402602001604051908101604052809392919081815260200183838082843760009201919091525050604080516020601f8d018190048102820181019092528b815292508b91508a908190840183828082843760009201919091525061089892505050565b61124c565b7fffffffffffffffffffffffffffffffffffffffffffffffffffffffffffff11126001600160a01b03891601611214576002546111c5906001600160a01b03166104d157326104de565b60025461124c906001600160a01b031661122e573261123b565b6002546001600160a01b03165b6001600160a01b038a1690836122da565b60025489907f5f17f788c7f8d3fd7332fb1e6c42a67accbf9bb129ac8e4389fe693b506369f1906001600160a01b03166112865732611293565b6002546001600160a01b03165b8a8a8a868b8b8b8b336040516112b29a999897969594939291906130ee565b60405180910390a25050600160065550505050505050565b6000546001600160a01b031633146113245760405162461bcd60e51b815260206004820181905260248201527f4f776e61626c653a2063616c6c6572206973206e6f7420746865206f776e657260448201526064016101b6565b60015486146113335760018690555b6002546001600160a01b0386811691161461137c57600280547fffffffffffffffffffffffff0000000000000000000000000000000000000000166001600160a01b0387161790555b600260149054906101000a900460ff161515841515146113da57600280547fffffffffffffffffffffff00ffffffffffffffffffffffffffffffffffffffff1674010000000000000000000000000000000000000000861515021790555b60036040516020016113ec91906131ee565b604051602081830303815290604052805190602001208360405160200161141391906131fa565b604051602081830303815290604052805190602001201461143c57600361143a8482613264565b505b600460405160200161144e91906131ee565b604051602081830303815290604052805190602001208260405160200161147591906131fa565b604051602081830303815290604052805190602001201461149e57600461149c8382613264565b505b60055460ff161515811515146114db57600580547fffffffffffffffffffffffffffffffffffffffffffffffffffffffffffffff00168215151790555b846001600160a01b0316867f36b1c5cef608e320317b9ee5155756634c65fe7055b424ce57e2f6c59eec7947868686863360405161151d959493929190613360565b60405180910390a3505050505050565b6000546001600160a01b031633146115875760405162461bcd60e51b815260206004820181905260248201527f4f776e61626c653a2063616c6c6572206973206e6f7420746865206f776e657260448201526064016101b6565b60075483146115965760078390555b60085482146115a55760088290555b60095481146115b45760098190555b6040513381528190839085907f5ef5a6931855992f84842284a6bba50d74bfe8654238b4d6325427473a90f3a59060200160405180910390a4505050565b6000546001600160a01b0316331461164c5760405162461bcd60e51b815260206004820181905260248201527f4f776e61626c653a2063616c6c6572206973206e6f7420746865206f776e657260448201526064016101b6565b6116566000612323565b565b6004805461166590612712565b80601f016020809104026020016040519081016040528092919081815260200182805461169190612712565b80156116de5780601f106116b3576101008083540402835291602001916116de565b820191906000526020600020905b8154815290600101906020018083116116c157829003601f168201915b505050505081565b6002600654036117385760405162461bcd60e51b815260206004820152601f60248201527f5265656e7472616e637947756172643a207265656e7472616e742063616c6c0060448201526064016101b6565b60026006556001600160a01b038a1661eeee146118b7573415611787576040517fbcfd35be00000000000000000000000000000000000000000000000000000000815260040160405180910390fd5b6040517f70a082310000000000000000000000000000000000000000000000000000000081523060048201526000906001600160a01b038c16906370a0823190602401602060405180830381865afa1580156117e7573d6000803e3d6000fd5b505050506040513d601f19601f8201168201806040525081019061180b9190612fba565b90506118226001600160a01b038c1633308d612289565b6040517f70a0823100000000000000000000000000000000000000000000000000000000815230600482015281906001600160a01b038d16906370a0823190602401602060405180830381865afa158015611881573d6000803e3d6000fd5b505050506040513d601f19601f820116820180604052508101906118a59190612fba565b6118af9190613089565b9950506118bf565b349850601297505b6007546008546009546002546000936118ef93909290918f908f908f906001600160a01b03166101f6573261078d565b90508015611a7d578b156119c3576119be8c8c838c6001600160a01b038d16611939576002546001600160a01b0316611928573261193b565b6002546001600160a01b031661193b565b8c5b8c8c8c8c8080601f016020809104026020016040519081016040528093929190818152602001838380828437600081840152601f19601f820116905080830192505050505050508b8b8080601f016020809104026020016040519081016040528093929190818152602001838380828437600092019190915250610afc92505050565b611a7d565b7fffffffffffffffffffffffffffffffffffffffffffffffffffffffffffff11126001600160a01b038c1601611a32576119be6001600160a01b038916611a2b576002546001600160a01b0316611a1a57326104de565b6002546001600160a01b03166104de565b8882610dbd565b611a7d6001600160a01b038916611a6a576002546001600160a01b0316611a595732611a6c565b6002546001600160a01b0316611a6c565b885b6001600160a01b038d1690836122da565b8b7f72877920bfc936c0f18c54961abe3105d7d2990103eaa013cd8420fecacb0b606001600160a01b038a16611ad4576002546001600160a01b0316611ac35732611ad6565b6002546001600160a01b0316611ad6565b895b8d8d8d868d8d8d8d8d8d33604051611af99c9b9a999897969594939291906133b0565b60405180910390a25050600160065550505050505050505050565b6000546001600160a01b03163314611b6e5760405162461bcd60e51b815260206004820181905260248201527f4f776e61626c653a2063616c6c6572206973206e6f7420746865206f776e657260448201526064016101b6565b6040517ff2da44b60000000000000000000000000000000000000000000000000000000081526001600160a01b037f0000000000000000000000000000000000000000000000000000000000000000169063f2da44b690611bd790879087908690600401613430565b600060405180830381600087803b158015611bf157600080fd5b505af1158015611c05573d6000803e3d6000fd5b50505050611c1484848461152d565b50505050565b6003805461166590612712565b6000546001600160a01b03163314611c815760405162461bcd60e51b815260206004820181905260248201527f4f776e61626c653a2063616c6c6572206973206e6f7420746865206f776e657260448201526064016101b6565b6001600160a01b038116611cfd5760405162461bcd60e51b815260206004820152602660248201527f4f776e61626c653a206e6577206f776e657220697320746865207a65726f206160448201527f646472657373000000000000000000000000000000000000000000000000000060648201526084016101b6565b611d0681612323565b50565b8260005b865181101561203a576000878281518110611d2a57611d2a613559565b602002602001015190506000611d49878360400151633b9aca0061238b565b90508015611ff35760c08201516001600160a01b031615611ee3576040805160c0810182526001600160a01b038a168082526020820184905291810188905260015460608201526000608082015260a081018490529061eeee14611dc15760c0830151611dc1906001600160a01b038b169084612044565b60006001600160a01b038a1661eeee14611ddc576000611dde565b825b60c080860151604080517f9d740bfa00000000000000000000000000000000000000000000000000000000815286516001600160a01b03908116600483015260208089015160248401528389015160448401526060808a015160648501526080808b0151608486015260a0808c01518051151560a488015293840151151560c48701529583015160e486015290820151610104850152810151821661012484015292830151610144830152919093015181166101648401529293509190911690639d740bfa908390610184016000604051808303818588803b158015611ec357600080fd5b505af1158015611ed7573d6000803e3d6000fd5b50505050505050611fe6565b606082015115611f5d57816020015115611f1457611f0f82606001518983896003805461024390612712565b611fe6565b611f0f826060015189838960006001600160a01b031687608001516001600160a01b031603611f435789611f49565b86608001515b60008860000151600380546103a990612712565b7fffffffffffffffffffffffffffffffffffffffffffffffffffffffffffff11126001600160a01b03891601611fb4576080820151611f0f906001600160a01b0316611fa957856104de565b826080015182610dbd565b6080820151611fe6906001600160a01b0316611fd0578561123b565b82608001516001600160a01b038a1690836122da565b611ff08185613089565b93505b7ff44ffe151def7bd57d653ffdd625b5cfff3e6992ad5b8eb1f021cdaca6599544828287336040516120289493929190613588565b60405180910390a15050600101611d0d565b5095945050505050565b8015806120d757506040517fdd62ed3e0000000000000000000000000000000000000000000000000000000081523060048201526001600160a01b03838116602483015284169063dd62ed3e90604401602060405180830381865afa1580156120b1573d6000803e3d6000fd5b505050506040513d601f19601f820116820180604052508101906120d59190612fba565b155b6121495760405162461bcd60e51b815260206004820152603660248201527f5361666545524332303a20617070726f76652066726f6d206e6f6e2d7a65726f60448201527f20746f206e6f6e2d7a65726f20616c6c6f77616e63650000000000000000000060648201526084016101b6565b6040516001600160a01b038316602482015260448101829052610ed69084907f095ea7b300000000000000000000000000000000000000000000000000000000906064015b60408051601f198184030181529190526020810180517bffffffffffffffffffffffffffffffffffffffffffffffffffffffff167fffffffff0000000000000000000000000000000000000000000000000000000090931692909217909152612495565b60007fffffffff0000000000000000000000000000000000000000000000000000000082167fd90c137e000000000000000000000000000000000000000000000000000000001480610f3157507f01ffc9a7000000000000000000000000000000000000000000000000000000007fffffffff00000000000000000000000000000000000000000000000000000000831614610f31565b6040516001600160a01b0380851660248301528316604482015260648101829052611c149085907f23b872dd000000000000000000000000000000000000000000000000000000009060840161218e565b6040516001600160a01b038316602482015260448101829052610ed69084907fa9059cbb000000000000000000000000000000000000000000000000000000009060640161218e565b600080546001600160a01b038381167fffffffffffffffffffffffff0000000000000000000000000000000000000000831681178455604051919092169283917f8be0079c531659141344cd1fd0a4f28419497f9722a3daafe3b4186f6b6457e09190a35050565b600080807fffffffffffffffffffffffffffffffffffffffffffffffffffffffffffffffff858709858702925082811083820303915050806000036123e3578382816123d9576123d9613610565b049250505061248e565b838110612426576040517f773cc18c00000000000000000000000000000000000000000000000000000000815260048101829052602481018590526044016101b6565b600084868809851960019081018716968790049682860381900495909211909303600082900391909104909201919091029190911760038402600290811880860282030280860282030280860282030280860282030280860282030280860290910302029150505b9392505050565b60006124ea826040518060400160405280602081526020017f5361666545524332303a206c6f772d6c6576656c2063616c6c206661696c6564815250856001600160a01b031661257a9092919063ffffffff16565b805190915015610ed65780806020019051810190612508919061363f565b610ed65760405162461bcd60e51b815260206004820152602a60248201527f5361666545524332303a204552433230206f7065726174696f6e20646964206e60448201527f6f7420737563636565640000000000000000000000000000000000000000000060648201526084016101b6565b60606125898484600085612591565b949350505050565b6060824710156126095760405162461bcd60e51b815260206004820152602660248201527f416464726573733a20696e73756666696369656e742062616c616e636520666f60448201527f722063616c6c000000000000000000000000000000000000000000000000000060648201526084016101b6565b6001600160a01b0385163b6126605760405162461bcd60e51b815260206004820152601d60248201527f416464726573733a2063616c6c20746f206e6f6e2d636f6e747261637400000060448201526064016101b6565b600080866001600160a01b0316858760405161267c91906131fa565b60006040518083038185875af1925050503d80600081146126b9576040519150601f19603f3d011682016040523d82523d6000602084013e6126be565b606091505b50915091506126ce8282866126d9565b979650505050505050565b606083156126e857508161248e565b8251156126f85782518084602001fd5b8160405162461bcd60e51b81526004016101b69190612b1b565b600181811c9082168061272657607f821691505b60208210810361275f577f4e487b7100000000000000000000000000000000000000000000000000000000600052602260045260246000fd5b50919050565b60006020828403121561277757600080fd5b81357fffffffff000000000000000000000000000000000000000000000000000000008116811461248e57600080fd5b6001600160a01b0381168114611d0657600080fd5b60008083601f8401126127ce57600080fd5b50813567ffffffffffffffff8111156127e657600080fd5b6020830191508360208285010111156127fe57600080fd5b9250929050565b60008060008060008060008060c0898b03121561282157600080fd5b883597506020890135612833816127a7565b96506040890135955060608901359450608089013567ffffffffffffffff8082111561285e57600080fd5b61286a8c838d016127bc565b909650945060a08b013591508082111561288357600080fd5b506128908b828c016127bc565b999c989b5096995094979396929594505050565b8015158114611d0657600080fd5b80356128bd816128a4565b919050565b7f4e487b7100000000000000000000000000000000000000000000000000000000600052604160045260246000fd5b6040805190810167ffffffffffffffff81118282101715612914576129146128c2565b60405290565b60405160e0810167ffffffffffffffff81118282101715612914576129146128c2565b604051601f8201601f1916810167ffffffffffffffff81118282101715612966576129666128c2565b604052919050565b600067ffffffffffffffff831115612988576129886128c2565b61299b6020601f19601f8601160161293d565b90508281528383830111156129af57600080fd5b828260208301376000602084830101529392505050565b600082601f8301126129d757600080fd5b61248e8383356020850161296e565b60008060008060008060c087890312156129ff57600080fd5b863595506020870135612a11816127a7565b94506040870135612a21816128a4565b9350606087013567ffffffffffffffff80821115612a3e57600080fd5b818901915089601f830112612a5257600080fd5b612a618a83356020850161296e565b94506080890135915080821115612a7757600080fd5b50612a8489828a016129c6565b925050612a9360a088016128b2565b90509295509295509295565b600080600060608486031215612ab457600080fd5b505081359360208301359350604090920135919050565b60005b83811015612ae6578181015183820152602001612ace565b50506000910152565b60008151808452612b07816020860160208601612acb565b601f01601f19169290920160200192915050565b60208152600061248e6020830184612aef565b60008060008060008060008060008060006101208c8e031215612b5057600080fd5b8b359a50612b6160208d01356127a7565b60208c0135995060408c0135985060608c01359750612b8360808d01356127a7565b60808c0135965060a08c01359550612b9d60c08d016128b2565b945067ffffffffffffffff8060e08e01351115612bb957600080fd5b612bc98e60e08f01358f016127bc565b90955093506101008d0135811015612be057600080fd5b50612bf28d6101008e01358e016127bc565b81935080925050509295989b509295989b9093969950565b600067ffffffffffffffff821115612c2457612c246128c2565b5060051b60200190565b60008060008060808587031215612c4457600080fd5b84359350602085013592506040850135915067ffffffffffffffff60608601351115612c6f57600080fd5b85601f606087013587010112612c8457600080fd5b612c9c612c976060870135870135612c0a565b61293d565b6060860135860180358083526020808401939260059290921b90910101881015612cc557600080fd5b602060608801358801015b60608801358801803560051b01602001811015612e695767ffffffffffffffff81351115612cfd57600080fd5b6040601f19823560608b01358b01018b03011215612d1a57600080fd5b612d226128f1565b606089013589018235016020810135825267ffffffffffffffff6040909101351115612d4d57600080fd5b60608901358901823501604081013501603f81018b13612d6c57600080fd5b612d7c612c976020830135612c0a565b602082810135808352908201919060e00283016040018d1015612d9e57600080fd5b604083015b604060e0602086013502850101811015612e505760e0818f031215612dc757600080fd5b612dcf61291a565b612dd982356128a4565b81358152612dea60208301356128a4565b602082013560208201526040820135604082015260608201356060820152612e1560808301356127a7565b6080820135608082015260a082013560a0820152612e3660c08301356127a7565b60c08281013590820152835260209092019160e001612da3565b5060208481019190915292865250509283019201612cd0565b5094979396509194505050565b600060208284031215612e8857600080fd5b813561248e816127a7565b60006020808385031215612ea657600080fd5b825167ffffffffffffffff811115612ebd57600080fd5b8301601f81018513612ece57600080fd5b8051612edc612c9782612c0a565b81815260e09182028301840191848201919088841115612efb57600080fd5b938501935b83851015612f915780858a031215612f185760008081fd5b612f2061291a565b8551612f2b816128a4565b815285870151612f3a816128a4565b818801526040868101519082015260608087015190820152608080870151612f61816127a7565b9082015260a0868101519082015260c080870151612f7e816127a7565b9082015283529384019391850191612f00565b50979650505050505050565b600060208284031215612faf57600080fd5b815161248e816127a7565b600060208284031215612fcc57600080fd5b5051919050565b8581528460208201526001600160a01b038416604082015260a06060820152600061300160a0830185612aef565b82810360808401526130138185612aef565b98975050505050505050565b60006101008a83528960208401526001600160a01b03808a16604085015280891660608501525086608084015285151560a08401528060c084015261306681840186612aef565b905082810360e084015261307a8185612aef565b9b9a5050505050505050505050565b81810381811115610f31577f4e487b7100000000000000000000000000000000000000000000000000000000600052601160045260246000fd5b818352818160208501375060006020828401015260006020601f19601f840116840101905092915050565b60006101006001600160a01b03808e168452808d1660208501528b60408501528a60608501528960808501528160a085015261312d828501898b6130c3565b915083820360c08501526131428287896130c3565b925080851660e085015250509b9a5050505050505050505050565b6000815461316a81612712565b6001828116801561318257600181146131b5576131e4565b7fffffffffffffffffffffffffffffffffffffffffffffffffffffffffffffff00841687528215158302870194506131e4565b8560005260208060002060005b858110156131db5781548a8201529084019082016131c2565b50505082870194505b5050505092915050565b600061248e828461315d565b6000825161320c818460208701612acb565b9190910192915050565b601f821115610ed657600081815260208120601f850160051c8101602086101561323d5750805b601f850160051c820191505b8181101561325c57828155600101613249565b505050505050565b815167ffffffffffffffff81111561327e5761327e6128c2565b6132928161328c8454612712565b84613216565b602080601f8311600181146132e557600084156132af5750858301515b7fffffffffffffffffffffffffffffffffffffffffffffffffffffffffffffffff600386901b1c1916600185901b17855561325c565b600085815260208120601f198616915b82811015613314578886015182559484019460019091019084016132f5565b508582101561335057878501517fffffffffffffffffffffffffffffffffffffffffffffffffffffffffffffffff600388901b60f8161c191681555b5050505050600190811b01905550565b851515815260a06020820152600061337b60a0830187612aef565b828103604084015261338d8187612aef565b941515606084015250506001600160a01b03919091166080909101529392505050565b60006001600160a01b03808f168352808e1660208401528c60408401528b60608401528a60808401528960a084015288151560c084015261014060e08401526133fe6101408401888a6130c3565b8381036101008501526134128187896130c3565b925050808416610120840152509d9c50505050505050505050505050565b60006060808301868452602086818601526040838187015282875180855260808801915060808160051b89010194508389016000805b83811015613547578a88037fffffffffffffffffffffffffffffffffffffffffffffffffffffffffffffff800185528251805189528701518789018790528051878a018190529088019083908b8b01905b808310156135325761351c828551805115158252602081015115156020830152604081015160408301526060810151606083015260808101516001600160a01b03808216608085015260a083015160a08501528060c08401511660c085015250505050565b60e0820191508a840193506001830192506134b7565b50995050509386019391860191600101613466565b50959c9b505050505050505050505050565b7f4e487b7100000000000000000000000000000000000000000000000000000000600052603260045260246000fd5b61014081016135e98287805115158252602081015115156020830152604081015160408301526060810151606083015260808101516001600160a01b03808216608085015260a083015160a08501528060c08401511660c085015250505050565b60e08201949094526001600160a01b03928316610100820152911661012090910152919050565b7f4e487b7100000000000000000000000000000000000000000000000000000000600052601260045260246000fd5b60006020828403121561365157600080fd5b815161248e816128a456fea2646970667358221220702a8859273ef0fd96bc3946e13129c749a9db11679e923fd6c4e4a90eeaf5b964736f6c63430008100033a26469706673582212200c75050401e34f642044d89bbeec842c9db629bb98ff0bfb94814b64dabeca7d64736f6c63430008100033",
  "devdoc": {
    "details": "Adheres to - IJBETHERC20SplitsPayerDeployer:  General interface for the methods in this contract that interact with the blockchain's state according to the protocol's rules.",
    "kind": "dev",
    "methods": {
      "deploySplitsPayer(uint256,uint256,uint256,address,uint256,address,bool,string,bytes,bool,address)": {
        "params": {
          "_defaultBeneficiary": "The address that'll receive the project's tokens when the splits payer receives payments. ",
          "_defaultMemo": "The memo that'll be forwarded with the splits payer's received payments. ",
          "_defaultMetadata": "The metadata that'll be forwarded with the splits payer's received payments. ",
          "_defaultPreferAddToBalance": "A flag indicating if received payments should call the `pay` function or the `addToBalance` function of a project.",
          "_defaultPreferClaimedTokens": "A flag indicating whether issued tokens from the splits payer's received payments should be automatically claimed into the beneficiary's wallet. ",
          "_defaultProjectId": "The ID of the project whose treasury should be forwarded the splits payer contract's received payment leftovers after distributing to the default splits group.",
          "_defaultSplitsDomain": "The splits domain to payout when this contract receives direct payments.",
          "_defaultSplitsGroup": "The splits group to payout when this contract receives direct payments.",
          "_defaultSplitsProjectId": "The ID of project for which the default splits are stored.",
          "_owner": "The address that will own the splits payer.",
          "_splitsStore": "A contract that stores splits for each project."
        },
        "returns": {
          "splitsPayer": "The splits payer contract."
        }
      },
      "deploySplitsPayerWithSplits(uint256,(bool,bool,uint256,uint256,address,uint256,address)[],address,uint256,address,bool,string,bytes,bool,address)": {
        "details": "This contract must have Operator permissions over the SET_SPLITS permission of the specified `_defaultSplitsProjectId`.",
        "params": {
          "_defaultBeneficiary": "The address that'll receive the project's tokens when the splits payer receives payments. ",
          "_defaultMemo": "The memo that'll be forwarded with the splits payer's received payments. ",
          "_defaultMetadata": "The metadata that'll be forwarded with the splits payer's received payments. ",
          "_defaultPreferAddToBalance": "A flag indicating if received payments should call the `pay` function or the `addToBalance` function of a project.",
          "_defaultPreferClaimedTokens": "A flag indicating whether issued tokens from the splits payer's received payments should be automatically claimed into the beneficiary's wallet. ",
          "_defaultProjectId": "The ID of the project whose treasury should be forwarded the splits payer contract's received payment leftovers after distributing to the default splits group.",
          "_defaultSplits": "The splits to payout when this contract receives direct payments.",
          "_defaultSplitsProjectId": "The ID of project for which the default splits are stored.",
          "_owner": "The address that will own the splits payer.",
          "_splitsStore": "A contract that stores splits for each project."
        },
        "returns": {
          "splitsPayer": "The splits payer contract."
        }
      }
    },
    "version": 1
  },
  "userdoc": {
    "kind": "user",
    "methods": {
      "deploySplitsPayer(uint256,uint256,uint256,address,uint256,address,bool,string,bytes,bool,address)": {
        "notice": " Allows anyone to deploy a new splits payer contract."
      },
      "deploySplitsPayerWithSplits(uint256,(bool,bool,uint256,uint256,address,uint256,address)[],address,uint256,address,bool,string,bytes,bool,address)": {
        "notice": " Allows anyone to deploy a new splits payer contract."
      }
    },
    "notice": " Deploys splits payer contracts.",
    "version": 1
  },
  "storageLayout": {
    "storage": [],
    "types": null
  }
}