{
  "address": "0x7Cb86D43B665196BC719b6974D320bf674AFb395",
  "abi": [
    {
      "inputs": [
        {
          "internalType": "uint256",
          "name": "_duration",
          "type": "uint256"
        },
        {
          "internalType": "contract IJBFundingCycleStore",
          "name": "_fundingCycleStore",
          "type": "address"
        }
      ],
      "stateMutability": "nonpayable",
      "type": "constructor"
    },
    {
      "anonymous": false,
      "inputs": [
        {
          "indexed": true,
          "internalType": "uint256",
          "name": "projectId",
          "type": "uint256"
        },
        {
          "indexed": true,
          "internalType": "uint256",
          "name": "configuration",
          "type": "uint256"
        },
        {
          "indexed": true,
          "internalType": "enum JBBallotState",
          "name": "ballotState",
          "type": "uint8"
        },
        {
          "indexed": false,
          "internalType": "address",
          "name": "caller",
          "type": "address"
        }
      ],
      "name": "Finalize",
      "type": "event"
    },
    {
      "inputs": [],
      "name": "duration",
      "outputs": [
        {
          "internalType": "uint256",
          "name": "",
          "type": "uint256"
        }
      ],
      "stateMutability": "view",
      "type": "function"
    },
    {
      "inputs": [
        {
          "internalType": "uint256",
          "name": "",
          "type": "uint256"
        },
        {
          "internalType": "uint256",
          "name": "",
          "type": "uint256"
        }
      ],
      "name": "finalState",
      "outputs": [
        {
          "internalType": "enum JBBallotState",
          "name": "",
          "type": "uint8"
        }
      ],
      "stateMutability": "view",
      "type": "function"
    },
    {
      "inputs": [
        {
          "internalType": "uint256",
          "name": "_projectId",
          "type": "uint256"
        },
        {
          "internalType": "uint256",
          "name": "_configured",
          "type": "uint256"
        }
      ],
      "name": "finalize",
      "outputs": [
        {
          "internalType": "enum JBBallotState",
          "name": "ballotState",
          "type": "uint8"
        }
      ],
      "stateMutability": "nonpayable",
      "type": "function"
    },
    {
      "inputs": [],
      "name": "fundingCycleStore",
      "outputs": [
        {
          "internalType": "contract IJBFundingCycleStore",
          "name": "",
          "type": "address"
        }
      ],
      "stateMutability": "view",
      "type": "function"
    },
    {
      "inputs": [
        {
          "internalType": "uint256",
          "name": "_projectId",
          "type": "uint256"
        },
        {
          "internalType": "uint256",
          "name": "_configured",
          "type": "uint256"
        },
        {
          "internalType": "uint256",
          "name": "_start",
          "type": "uint256"
        }
      ],
      "name": "stateOf",
      "outputs": [
        {
          "internalType": "enum JBBallotState",
          "name": "",
          "type": "uint8"
        }
      ],
      "stateMutability": "view",
      "type": "function"
    }
  ],
  "transactionHash": "0x9f228fee0191c911e24693317551bf503549d6e658e9cdec9d5283ff07480582",
  "args": [
    259200,
    "0xce2Ce2F37fE5B2C2Dd047908B2F61c9c3f707272"
  ],
  "numDeployments": 1,
  "solcInputHash": "122fb715eefa62c2e442108fed43e375",
  "bytecode": "0x60c060405234801561001057600080fd5b506040516106b73803806106b783398101604081905261002f9161004a565b60809190915260601b6001600160601b03191660a052610087565b6000806040838503121561005d57600080fd5b825160208401519092506001600160a01b038116811461007c57600080fd5b809150509250929050565b60805160a05160601c6105fc6100bb6000396000818160ab015261024a015260008181607101526101aa01526105fc6000f3fe608060405234801561001057600080fd5b50600436106100675760003560e01c8063741679071161005057806374167907146100f2578063a994c09f14610112578063b6013cef1461013d57600080fd5b80630fb5a6b41461006c578063557e7155146100a6575b600080fd5b6100937f000000000000000000000000000000000000000000000000000000000000000081565b6040519081526020015b60405180910390f35b6100cd7f000000000000000000000000000000000000000000000000000000000000000081565b60405173ffffffffffffffffffffffffffffffffffffffff909116815260200161009d565b61010561010036600461049a565b610150565b60405161009d91906104c6565b610105610120366004610478565b600060208181529281526040808220909352908152205460ff1681565b61010561014b366004610478565b6101fa565b60008060008581526020818152604080832087845290915290205460ff16600281111561017f5761017f610597565b146101a5575060008381526020818152604080832085845290915290205460ff166101f3565b6101cf7f000000000000000000000000000000000000000000000000000000000000000084610558565b4210156101ef57814210156101e55760006101e8565b60025b90506101f3565b5060015b9392505050565b6040517f669e48aa0000000000000000000000000000000000000000000000000000000081526004810183905260248101829052600090819073ffffffffffffffffffffffffffffffffffffffff7f0000000000000000000000000000000000000000000000000000000000000000169063669e48aa906044016101206040518083038186803b15801561028d57600080fd5b505afa1580156102a1573d6000803e3d6000fd5b505050506040513d601f19601f820116820180604052508101906102c591906103f8565b60008581526020818152604080832087845290915281205460ff1693509091508260028111156102f7576102f7610597565b14156103c85761030c84848360600151610150565b9150600082600281111561032257610322610597565b146103c857600084815260208181526040808320868452909152902080548391907fffffffffffffffffffffffffffffffffffffffffffffffffffffffffffffff0016600183600281111561037957610379610597565b021790555081600281111561039057610390610597565b604051338152849086907f7e3b0e79d754a8d4c902d51b0deb131c43d7a702f465413e38db25cf786b0b349060200160405180910390a45b5092915050565b805173ffffffffffffffffffffffffffffffffffffffff811681146103f357600080fd5b919050565b6000610120828403121561040b57600080fd5b610413610507565b825181526020830151602082015260408301516040820152606083015160608201526080830151608082015260a083015160a082015260c083015160c082015261045f60e084016103cf565b60e0820152610100928301519281019290925250919050565b6000806040838503121561048b57600080fd5b50508035926020909101359150565b6000806000606084860312156104af57600080fd5b505081359360208301359350604090920135919050565b6020810160038310610501577f4e487b7100000000000000000000000000000000000000000000000000000000600052602160045260246000fd5b91905290565b604051610120810167ffffffffffffffff81118282101715610552577f4e487b7100000000000000000000000000000000000000000000000000000000600052604160045260246000fd5b60405290565b60008219821115610592577f4e487b7100000000000000000000000000000000000000000000000000000000600052601160045260246000fd5b500190565b7f4e487b7100000000000000000000000000000000000000000000000000000000600052602160045260246000fdfea26469706673582212205609316cff5da11a67bec60903c1107b9f7b4f0a5be51995725c78b1fb20f07164736f6c63430008060033",
  "devdoc": {
    "details": "Adheres to: IJBReconfigurationBufferBallot: General interface for the methods in this contract that interact with the blockchain's state according to the protocol's rules.",
    "kind": "dev",
    "methods": {
      "constructor": {
        "params": {
          "_duration": "The number of seconds to wait until a reconfiguration can be either `Approved` or `Failed`.",
          "_fundingCycleStore": "A contract storing all funding cycle configurations."
        }
      },
      "finalize(uint256,uint256)": {
        "params": {
          "_configured": "The configuration of the funding cycle to check the state of.",
          "_projectId": "The ID of the project to which the funding cycle being checked belongs."
        },
        "returns": {
          "ballotState": "The state of the finalized ballot. If `Active`, the ballot can still later be finalized when it's state resolves."
        }
      },
      "stateOf(uint256,uint256,uint256)": {
        "params": {
          "_configured": "The configuration of the funding cycle to check the state of.",
          "_projectId": "The ID of the project to which the funding cycle being checked belongs.",
          "_start": "The start timestamp of the funding cycle to check the state of."
        },
        "returns": {
          "_0": "The state of the provided ballot."
        }
      }
    },
    "stateVariables": {
      "finalState": {
        "details": "If `Active`, the ballot for the provided configuration can still be finalized whenever its state settles. _projectId The ID of the project to check the final ballot state of. _configuration The configuration of the funding cycle to check the final ballot state of."
      }
    },
    "version": 1
  },
  "userdoc": {
    "kind": "user",
    "methods": {
      "duration()": {
        "notice": " The number of seconds that must pass for a funding cycle reconfiguration to become either `Approved` or `Failed`."
      },
      "finalState(uint256,uint256)": {
        "notice": " The finalized state."
      },
      "finalize(uint256,uint256)": {
        "notice": " Finalizes a configuration state if the current state has settled."
      },
      "fundingCycleStore()": {
        "notice": "The contract storing all funding cycle configurations."
      },
      "stateOf(uint256,uint256,uint256)": {
        "notice": " The approval state of a particular funding cycle."
      }
    },
    "notice": " Manages approving funding cycle reconfigurations automatically after a buffer period.",
    "version": 1
  },
  "storageLayout": {
    "storage": [
      {
        "astId": 10544,
        "contract": "contracts/JBReconfigurationBufferBallot.sol:JBReconfigurationBufferBallot",
        "label": "finalState",
        "offset": 0,
        "slot": "0",
        "type": "t_mapping(t_uint256,t_mapping(t_uint256,t_enum(JBBallotState)16025))"
      }
    ],
    "types": {
      "t_enum(JBBallotState)16025": {
        "encoding": "inplace",
        "label": "enum JBBallotState",
        "numberOfBytes": "1"
      },
      "t_mapping(t_uint256,t_enum(JBBallotState)16025)": {
        "encoding": "mapping",
        "key": "t_uint256",
        "label": "mapping(uint256 => enum JBBallotState)",
        "numberOfBytes": "32",
        "value": "t_enum(JBBallotState)16025"
      },
      "t_mapping(t_uint256,t_mapping(t_uint256,t_enum(JBBallotState)16025))": {
        "encoding": "mapping",
        "key": "t_uint256",
        "label": "mapping(uint256 => mapping(uint256 => enum JBBallotState))",
        "numberOfBytes": "32",
        "value": "t_mapping(t_uint256,t_enum(JBBallotState)16025)"
      },
      "t_uint256": {
        "encoding": "inplace",
        "label": "uint256",
        "numberOfBytes": "32"
      }
    }
  }
}