{
  "address": "0xD5ad0bD38db22E021549EA31dFd79244c0cFe60b",
  "abi": [
    {
      "inputs": [
        {
          "internalType": "contract IJBOperatorStore",
          "name": "_operatorStore",
          "type": "address"
        },
        {
          "internalType": "contract IJBProjects",
          "name": "_projects",
          "type": "address"
        },
        {
          "internalType": "contract IJBDirectory",
          "name": "_directory",
          "type": "address"
        }
      ],
      "stateMutability": "nonpayable",
      "type": "constructor"
    },
    {
      "inputs": [],
      "name": "CANT_REMOVE_TOKEN_IF_ITS_REQUIRED",
      "type": "error"
    },
    {
      "inputs": [],
      "name": "CONTROLLER_UNAUTHORIZED",
      "type": "error"
    },
    {
      "inputs": [],
      "name": "EMPTY_NAME",
      "type": "error"
    },
    {
      "inputs": [],
      "name": "EMPTY_SYMBOL",
      "type": "error"
    },
    {
      "inputs": [],
      "name": "INSUFFICIENT_FUNDS",
      "type": "error"
    },
    {
      "inputs": [],
      "name": "INSUFFICIENT_UNCLAIMED_TOKENS",
      "type": "error"
    },
    {
      "inputs": [],
      "name": "PROJECT_ALREADY_HAS_TOKEN",
      "type": "error"
    },
    {
      "inputs": [],
      "name": "RECIPIENT_ZERO_ADDRESS",
      "type": "error"
    },
    {
      "inputs": [],
      "name": "TOKENS_MUST_HAVE_18_DECIMALS",
      "type": "error"
    },
    {
      "inputs": [],
      "name": "TOKEN_ALREADY_IN_USE",
      "type": "error"
    },
    {
      "inputs": [],
      "name": "TOKEN_NOT_FOUND",
      "type": "error"
    },
    {
      "inputs": [],
      "name": "UNAUTHORIZED",
      "type": "error"
    },
    {
      "anonymous": false,
      "inputs": [
        {
          "indexed": true,
          "internalType": "address",
          "name": "holder",
          "type": "address"
        },
        {
          "indexed": true,
          "internalType": "uint256",
          "name": "projectId",
          "type": "uint256"
        },
        {
          "indexed": false,
          "internalType": "uint256",
          "name": "amount",
          "type": "uint256"
        },
        {
          "indexed": false,
          "internalType": "uint256",
          "name": "initialUnclaimedBalance",
          "type": "uint256"
        },
        {
          "indexed": false,
          "internalType": "uint256",
          "name": "initialClaimedBalance",
          "type": "uint256"
        },
        {
          "indexed": false,
          "internalType": "bool",
          "name": "preferClaimedTokens",
          "type": "bool"
        },
        {
          "indexed": false,
          "internalType": "address",
          "name": "caller",
          "type": "address"
        }
      ],
      "name": "Burn",
      "type": "event"
    },
    {
      "anonymous": false,
      "inputs": [
        {
          "indexed": true,
          "internalType": "uint256",
          "name": "projectId",
          "type": "uint256"
        },
        {
          "indexed": true,
          "internalType": "contract IJBToken",
          "name": "newToken",
          "type": "address"
        },
        {
          "indexed": true,
          "internalType": "contract IJBToken",
          "name": "oldToken",
          "type": "address"
        },
        {
          "indexed": false,
          "internalType": "address",
          "name": "owner",
          "type": "address"
        },
        {
          "indexed": false,
          "internalType": "address",
          "name": "caller",
          "type": "address"
        }
      ],
      "name": "Change",
      "type": "event"
    },
    {
      "anonymous": false,
      "inputs": [
        {
          "indexed": true,
          "internalType": "address",
          "name": "holder",
          "type": "address"
        },
        {
          "indexed": true,
          "internalType": "uint256",
          "name": "projectId",
          "type": "uint256"
        },
        {
          "indexed": false,
          "internalType": "uint256",
          "name": "initialUnclaimedBalance",
          "type": "uint256"
        },
        {
          "indexed": false,
          "internalType": "uint256",
          "name": "amount",
          "type": "uint256"
        },
        {
          "indexed": false,
          "internalType": "address",
          "name": "caller",
          "type": "address"
        }
      ],
      "name": "Claim",
      "type": "event"
    },
    {
      "anonymous": false,
      "inputs": [
        {
          "indexed": true,
          "internalType": "uint256",
          "name": "projectId",
          "type": "uint256"
        },
        {
          "indexed": true,
          "internalType": "contract IJBToken",
          "name": "token",
          "type": "address"
        },
        {
          "indexed": false,
          "internalType": "string",
          "name": "name",
          "type": "string"
        },
        {
          "indexed": false,
          "internalType": "string",
          "name": "symbol",
          "type": "string"
        },
        {
          "indexed": false,
          "internalType": "address",
          "name": "caller",
          "type": "address"
        }
      ],
      "name": "Issue",
      "type": "event"
    },
    {
      "anonymous": false,
      "inputs": [
        {
          "indexed": true,
          "internalType": "address",
          "name": "holder",
          "type": "address"
        },
        {
          "indexed": true,
          "internalType": "uint256",
          "name": "projectId",
          "type": "uint256"
        },
        {
          "indexed": false,
          "internalType": "uint256",
          "name": "amount",
          "type": "uint256"
        },
        {
          "indexed": false,
          "internalType": "bool",
          "name": "tokensWereClaimed",
          "type": "bool"
        },
        {
          "indexed": false,
          "internalType": "bool",
          "name": "preferClaimedTokens",
          "type": "bool"
        },
        {
          "indexed": false,
          "internalType": "address",
          "name": "caller",
          "type": "address"
        }
      ],
      "name": "Mint",
      "type": "event"
    },
    {
      "anonymous": false,
      "inputs": [
        {
          "indexed": true,
          "internalType": "uint256",
          "name": "projectId",
          "type": "uint256"
        },
        {
          "indexed": true,
          "internalType": "bool",
          "name": "flag",
          "type": "bool"
        },
        {
          "indexed": false,
          "internalType": "address",
          "name": "caller",
          "type": "address"
        }
      ],
      "name": "ShouldRequireClaim",
      "type": "event"
    },
    {
      "anonymous": false,
      "inputs": [
        {
          "indexed": true,
          "internalType": "address",
          "name": "holder",
          "type": "address"
        },
        {
          "indexed": true,
          "internalType": "uint256",
          "name": "projectId",
          "type": "uint256"
        },
        {
          "indexed": true,
          "internalType": "address",
          "name": "recipient",
          "type": "address"
        },
        {
          "indexed": false,
          "internalType": "uint256",
          "name": "amount",
          "type": "uint256"
        },
        {
          "indexed": false,
          "internalType": "address",
          "name": "caller",
          "type": "address"
        }
      ],
      "name": "Transfer",
      "type": "event"
    },
    {
      "inputs": [
        {
          "internalType": "address",
          "name": "_holder",
          "type": "address"
        },
        {
          "internalType": "uint256",
          "name": "_projectId",
          "type": "uint256"
        }
      ],
      "name": "balanceOf",
      "outputs": [
        {
          "internalType": "uint256",
          "name": "balance",
          "type": "uint256"
        }
      ],
      "stateMutability": "view",
      "type": "function"
    },
    {
      "inputs": [
        {
          "internalType": "address",
          "name": "_holder",
          "type": "address"
        },
        {
          "internalType": "uint256",
          "name": "_projectId",
          "type": "uint256"
        },
        {
          "internalType": "uint256",
          "name": "_amount",
          "type": "uint256"
        },
        {
          "internalType": "bool",
          "name": "_preferClaimedTokens",
          "type": "bool"
        }
      ],
      "name": "burnFrom",
      "outputs": [],
      "stateMutability": "nonpayable",
      "type": "function"
    },
    {
      "inputs": [
        {
          "internalType": "uint256",
          "name": "_projectId",
          "type": "uint256"
        },
        {
          "internalType": "contract IJBToken",
          "name": "_token",
          "type": "address"
        },
        {
          "internalType": "address",
          "name": "_newOwner",
          "type": "address"
        }
      ],
      "name": "changeFor",
      "outputs": [
        {
          "internalType": "contract IJBToken",
          "name": "oldToken",
          "type": "address"
        }
      ],
      "stateMutability": "nonpayable",
      "type": "function"
    },
    {
      "inputs": [
        {
          "internalType": "address",
          "name": "_holder",
          "type": "address"
        },
        {
          "internalType": "uint256",
          "name": "_projectId",
          "type": "uint256"
        },
        {
          "internalType": "uint256",
          "name": "_amount",
          "type": "uint256"
        }
      ],
      "name": "claimFor",
      "outputs": [],
      "stateMutability": "nonpayable",
      "type": "function"
    },
    {
      "inputs": [],
      "name": "directory",
      "outputs": [
        {
          "internalType": "contract IJBDirectory",
          "name": "",
          "type": "address"
        }
      ],
      "stateMutability": "view",
      "type": "function"
    },
    {
      "inputs": [
        {
          "internalType": "uint256",
          "name": "_projectId",
          "type": "uint256"
        },
        {
          "internalType": "string",
          "name": "_name",
          "type": "string"
        },
        {
          "internalType": "string",
          "name": "_symbol",
          "type": "string"
        }
      ],
      "name": "issueFor",
      "outputs": [
        {
          "internalType": "contract IJBToken",
          "name": "token",
          "type": "address"
        }
      ],
      "stateMutability": "nonpayable",
      "type": "function"
    },
    {
      "inputs": [
        {
          "internalType": "address",
          "name": "_holder",
          "type": "address"
        },
        {
          "internalType": "uint256",
          "name": "_projectId",
          "type": "uint256"
        },
        {
          "internalType": "uint256",
          "name": "_amount",
          "type": "uint256"
        },
        {
          "internalType": "bool",
          "name": "_preferClaimedTokens",
          "type": "bool"
        }
      ],
      "name": "mintFor",
      "outputs": [],
      "stateMutability": "nonpayable",
      "type": "function"
    },
    {
      "inputs": [],
      "name": "operatorStore",
      "outputs": [
        {
          "internalType": "contract IJBOperatorStore",
          "name": "",
          "type": "address"
        }
      ],
      "stateMutability": "view",
      "type": "function"
    },
    {
      "inputs": [
        {
          "internalType": "contract IJBToken",
          "name": "",
          "type": "address"
        }
      ],
      "name": "projectOf",
      "outputs": [
        {
          "internalType": "uint256",
          "name": "",
          "type": "uint256"
        }
      ],
      "stateMutability": "view",
      "type": "function"
    },
    {
      "inputs": [],
      "name": "projects",
      "outputs": [
        {
          "internalType": "contract IJBProjects",
          "name": "",
          "type": "address"
        }
      ],
      "stateMutability": "view",
      "type": "function"
    },
    {
      "inputs": [
        {
          "internalType": "uint256",
          "name": "",
          "type": "uint256"
        }
      ],
      "name": "requireClaimFor",
      "outputs": [
        {
          "internalType": "bool",
          "name": "",
          "type": "bool"
        }
      ],
      "stateMutability": "view",
      "type": "function"
    },
    {
      "inputs": [
        {
          "internalType": "uint256",
          "name": "_projectId",
          "type": "uint256"
        },
        {
          "internalType": "bool",
          "name": "_flag",
          "type": "bool"
        }
      ],
      "name": "shouldRequireClaimingFor",
      "outputs": [],
      "stateMutability": "nonpayable",
      "type": "function"
    },
    {
      "inputs": [
        {
          "internalType": "uint256",
          "name": "",
          "type": "uint256"
        }
      ],
      "name": "tokenOf",
      "outputs": [
        {
          "internalType": "contract IJBToken",
          "name": "",
          "type": "address"
        }
      ],
      "stateMutability": "view",
      "type": "function"
    },
    {
      "inputs": [
        {
          "internalType": "uint256",
          "name": "_projectId",
          "type": "uint256"
        }
      ],
      "name": "totalSupplyOf",
      "outputs": [
        {
          "internalType": "uint256",
          "name": "totalSupply",
          "type": "uint256"
        }
      ],
      "stateMutability": "view",
      "type": "function"
    },
    {
      "inputs": [
        {
          "internalType": "address",
          "name": "_holder",
          "type": "address"
        },
        {
          "internalType": "uint256",
          "name": "_projectId",
          "type": "uint256"
        },
        {
          "internalType": "address",
          "name": "_recipient",
          "type": "address"
        },
        {
          "internalType": "uint256",
          "name": "_amount",
          "type": "uint256"
        }
      ],
      "name": "transferFrom",
      "outputs": [],
      "stateMutability": "nonpayable",
      "type": "function"
    },
    {
      "inputs": [
        {
          "internalType": "address",
          "name": "",
          "type": "address"
        },
        {
          "internalType": "uint256",
          "name": "",
          "type": "uint256"
        }
      ],
      "name": "unclaimedBalanceOf",
      "outputs": [
        {
          "internalType": "uint256",
          "name": "",
          "type": "uint256"
        }
      ],
      "stateMutability": "view",
      "type": "function"
    },
    {
      "inputs": [
        {
          "internalType": "uint256",
          "name": "",
          "type": "uint256"
        }
      ],
      "name": "unclaimedTotalSupplyOf",
      "outputs": [
        {
          "internalType": "uint256",
          "name": "",
          "type": "uint256"
        }
      ],
      "stateMutability": "view",
      "type": "function"
    }
  ],
  "transactionHash": "0x867ca39c36e419d6768ec05a1739b4cfacc842463e03eed6fe8e49de1f1984fe",
  "args": [
    "0xf4326041BE30a4b7fc4db9Bb6286fef458F71fe2",
    "0x9afc7156d8034A6Bbd4297D450f17cB4027BF9F5",
    "0x703d932403408d1a4Ae3Ea2921207d2f550e2e67"
  ],
  "numDeployments": 1,
  "solcInputHash": "2d6f35a58bd6d7d54eadea7a0697d07f",
  "bytecode": "0x60e06040523480156200001157600080fd5b506040516200440a3803806200440a83398101604081905262000034916200005a565b6001600160601b0319606091821b811660805292811b831660a0521b1660c052620000c7565b6000806000606084860312156200007057600080fd5b83516200007d81620000ae565b60208501519093506200009081620000ae565b6040850151909250620000a381620000ae565b809150509250925092565b6001600160a01b0381168114620000c457600080fd5b50565b60805160601c60a05160601c60c05160601c6142d9620001316000396000818161027e01526118f50152600081816102eb01528181611ae90152611bca015260008181610313015281816104e901528181610cef0152818161114e01526115fa01526142d96000f3fe60806040523480156200001157600080fd5b5060043610620001315760003560e01c80638b79543c11620000c0578063ad007d63116200008b578063ceddd3e4116200006e578063ceddd3e41462000335578063ea78803f146200034c578063ff0186c5146200038557600080fd5b8063ad007d6314620002e5578063c41c2f24146200030d57600080fd5b80638b79543c1462000278578063906ebd0f14620002a0578063a7f2a70b14620002b7578063ac689bcd14620002ce57600080fd5b806357e4c778116200010157806357e4c77814620001d45780636607955d146200021157806375b0d9cd146200022a5780637b4d8e2c146200024157600080fd5b8062fdd58e14620001365780631412884f1462000160578063176309b714620001835780635287af3714620001a6575b600080fd5b6200014d6200014736600462001d08565b6200039c565b6040519081526020015b60405180910390f35b6200014d6200017136600462001e4b565b60026020526000908152604090205481565b6200014d6200019436600462001e2b565b60016020526000908152604090205481565b6200014d620001b736600462001d08565b600360209081526000928352604080842090915290825290205481565b620001eb620001e536600462001eb2565b6200049e565b60405173ffffffffffffffffffffffffffffffffffffffff909116815260200162000157565b620002286200022236600462001d84565b62000954565b005b6200014d6200023b36600462001e4b565b62000bb9565b620002676200025236600462001e4b565b60046020526000908152604090205460ff1681565b604051901515815260200162000157565b620001eb7f000000000000000000000000000000000000000000000000000000000000000081565b62000228620002b136600462001dbc565b62000ca7565b620001eb620002c836600462001ef9565b62001103565b62000228620002df36600462001d37565b620013d6565b620001eb7f000000000000000000000000000000000000000000000000000000000000000081565b620001eb7f000000000000000000000000000000000000000000000000000000000000000081565b620002286200034636600462001dbc565b620015b2565b620001eb6200035d36600462001e4b565b60006020819052908152604090205473ffffffffffffffffffffffffffffffffffffffff1681565b620002286200039636600462001e7f565b620018c6565b73ffffffffffffffffffffffffffffffffffffffff80831660009081526003602090815260408083208584528252808320549183905290912054909116801562000497576040517efdd58e00000000000000000000000000000000000000000000000000000000815273ffffffffffffffffffffffffffffffffffffffff85811660048301526024820185905282169062fdd58e9060440160206040518083038186803b1580156200044d57600080fd5b505afa15801562000462573d6000803e3d6000fd5b505050506040513d601f19601f8201168201806040525081019062000488919062001e65565b62000494908362002072565b91505b5092915050565b6040517f5dd8f6aa000000000000000000000000000000000000000000000000000000008152600481018490526000908490339073ffffffffffffffffffffffffffffffffffffffff7f00000000000000000000000000000000000000000000000000000000000000001690635dd8f6aa9060240160206040518083038186803b1580156200052c57600080fd5b505afa15801562000541573d6000803e3d6000fd5b505050506040513d601f19601f8201168201806040525081019062000567919062001ce1565b73ffffffffffffffffffffffffffffffffffffffff1614620005b5576040517fab7f741400000000000000000000000000000000000000000000000000000000815260040160405180910390fd5b73ffffffffffffffffffffffffffffffffffffffff8416158015620005e8575060008581526004602052604090205460ff165b1562000620576040517fd4ae123800000000000000000000000000000000000000000000000000000000815260040160405180910390fd5b73ffffffffffffffffffffffffffffffffffffffff8416600090815260016020526040902054156200067e576040517f1379a84600000000000000000000000000000000000000000000000000000000815260040160405180910390fd5b73ffffffffffffffffffffffffffffffffffffffff8416158015906200072957508373ffffffffffffffffffffffffffffffffffffffff1663313ce5676040518163ffffffff1660e01b815260040160206040518083038186803b158015620006e657600080fd5b505afa158015620006fb573d6000803e3d6000fd5b505050506040513d601f19601f8201168201806040525081019062000721919062001f7a565b60ff16601214155b1562000761576040517fadc38c9400000000000000000000000000000000000000000000000000000000815260040160405180910390fd5b6000858152602081905260409020805473ffffffffffffffffffffffffffffffffffffffff8681167fffffffffffffffffffffffff00000000000000000000000000000000000000008316811790935516925015620007e35773ffffffffffffffffffffffffffffffffffffffff841660009081526001602052604090208590555b73ffffffffffffffffffffffffffffffffffffffff821615620008275773ffffffffffffffffffffffffffffffffffffffff82166000908152600160205260408120555b73ffffffffffffffffffffffffffffffffffffffff83161580159062000862575073ffffffffffffffffffffffffffffffffffffffff821615155b15620008f3576040517f29507f730000000000000000000000000000000000000000000000000000000081526004810186905273ffffffffffffffffffffffffffffffffffffffff84811660248301528316906329507f7390604401600060405180830381600087803b158015620008d957600080fd5b505af1158015620008ee573d6000803e3d6000fd5b505050505b6040805173ffffffffffffffffffffffffffffffffffffffff8581168252336020830152808516929087169188917f53b937570201bb723ab1530f41c21f62fba8df64afef862cb0a6f4eccc3094dc910160405180910390a4509392505050565b8282600b6200096583838362001a6e565b60008581526020819052604090205473ffffffffffffffffffffffffffffffffffffffff1680620009c2576040517f73c463ce00000000000000000000000000000000000000000000000000000000815260040160405180910390fd5b73ffffffffffffffffffffffffffffffffffffffff871660009081526003602090815260408083208984529091529020548581101562000a2e576040517f83fc8b2d00000000000000000000000000000000000000000000000000000000815260040160405180910390fd5b73ffffffffffffffffffffffffffffffffffffffff881660009081526003602090815260408083208a845290915290205462000a6c9087906200208d565b73ffffffffffffffffffffffffffffffffffffffff891660009081526003602090815260408083208b845282528083209390935560029052205462000ab39087906200208d565b6000888152600260205260409081902091909155517f836a10400000000000000000000000000000000000000000000000000000000081526004810188905273ffffffffffffffffffffffffffffffffffffffff89811660248301526044820188905283169063836a104090606401600060405180830381600087803b15801562000b3d57600080fd5b505af115801562000b52573d6000803e3d6000fd5b505060408051848152602081018a9052338183015290518a935073ffffffffffffffffffffffffffffffffffffffff8c1692507fe718784128df3c3d45fbd6519133fee450494f7cdb2b53830a5087cd47f980829181900360600190a35050505050505050565b600081815260026020908152604080832054918390529091205473ffffffffffffffffffffffffffffffffffffffff16801562000ca1576040517fbd85b0390000000000000000000000000000000000000000000000000000000081526004810184905273ffffffffffffffffffffffffffffffffffffffff82169063bd85b0399060240160206040518083038186803b15801562000c5757600080fd5b505afa15801562000c6c573d6000803e3d6000fd5b505050506040513d601f19601f8201168201806040525081019062000c92919062001e65565b62000c9e908362002072565b91505b50919050565b6040517f5dd8f6aa000000000000000000000000000000000000000000000000000000008152600481018490528390339073ffffffffffffffffffffffffffffffffffffffff7f00000000000000000000000000000000000000000000000000000000000000001690635dd8f6aa9060240160206040518083038186803b15801562000d3257600080fd5b505afa15801562000d47573d6000803e3d6000fd5b505050506040513d601f19601f8201168201806040525081019062000d6d919062001ce1565b73ffffffffffffffffffffffffffffffffffffffff161462000dbb576040517fab7f741400000000000000000000000000000000000000000000000000000000815260040160405180910390fd5b6000848152602081815260408083205473ffffffffffffffffffffffffffffffffffffffff89811685526003845282852089865290935290832054911691821562000eae576040517efdd58e00000000000000000000000000000000000000000000000000000000815273ffffffffffffffffffffffffffffffffffffffff89811660048301526024820189905284169062fdd58e9060440160206040518083038186803b15801562000e6d57600080fd5b505afa15801562000e82573d6000803e3d6000fd5b505050506040513d601f19601f8201168201806040525081019062000ea8919062001e65565b62000eb1565b60005b905062000ebf828262002072565b86111562000ef9576040517fe793143800000000000000000000000000000000000000000000000000000000815260040160405180910390fd5b60008162000f0a5750600062000f49565b851562000f2a5786821062000f20578662000f22565b815b905062000f49565b86831062000f3a57600062000f46565b62000f4683886200208d565b90505b600062000f5782896200208d565b9050801562000ff55773ffffffffffffffffffffffffffffffffffffffff8a1660009081526003602090815260408083208c845290915290205462000f9e9082906200208d565b73ffffffffffffffffffffffffffffffffffffffff8b1660009081526003602090815260408083208d845282528083209390935560029052205462000fe59082906200208d565b60008a8152600260205260409020555b81156200108e576040517f9eea5f66000000000000000000000000000000000000000000000000000000008152600481018a905273ffffffffffffffffffffffffffffffffffffffff8b8116602483015260448201849052861690639eea5f6690606401600060405180830381600087803b1580156200107457600080fd5b505af115801562001089573d6000803e3d6000fd5b505050505b60408051898152602081018690529081018490528715156060820152336080820152899073ffffffffffffffffffffffffffffffffffffffff8c16907fbe100da6adaa492f7ba1b0de916ae2606126ec7b044d7aa8ec74971a607ceecd9060a00160405180910390a350505050505050505050565b6040517f5dd8f6aa000000000000000000000000000000000000000000000000000000008152600481018690526000908690339073ffffffffffffffffffffffffffffffffffffffff7f00000000000000000000000000000000000000000000000000000000000000001690635dd8f6aa9060240160206040518083038186803b1580156200119157600080fd5b505afa158015620011a6573d6000803e3d6000fd5b505050506040513d601f19601f82011682018060405250810190620011cc919062001ce1565b73ffffffffffffffffffffffffffffffffffffffff16146200121a576040517fab7f741400000000000000000000000000000000000000000000000000000000815260040160405180910390fd5b8462001252576040517f92bf449d00000000000000000000000000000000000000000000000000000000815260040160405180910390fd5b826200128a576040517f571431a700000000000000000000000000000000000000000000000000000000815260040160405180910390fd5b60008781526020819052604090205473ffffffffffffffffffffffffffffffffffffffff1615620012e7576040517fa54630ac00000000000000000000000000000000000000000000000000000000815260040160405180910390fd5b85858585604051620012f99062001c87565b62001308949392919062001fe8565b604051809103906000f08015801562001325573d6000803e3d6000fd5b5060008881526020818152604080832080547fffffffffffffffffffffffff00000000000000000000000000000000000000001673ffffffffffffffffffffffffffffffffffffffff86169081179091558084526001909252918290208a905590519193509088907f1b1705bef26552c8f314c5eb80e9c84f02876c2f7f30a7f9ad5cafd17d5fa6da90620013c4908a908a908a908a9033906200201e565b60405180910390a35095945050505050565b8383600c620013e783838362001a6e565b73ffffffffffffffffffffffffffffffffffffffff851662001435576040517fc6587bab00000000000000000000000000000000000000000000000000000000815260040160405180910390fd5b73ffffffffffffffffffffffffffffffffffffffff8716600090815260036020908152604080832089845290915290205480851115620014a1576040517f83fc8b2d00000000000000000000000000000000000000000000000000000000815260040160405180910390fd5b73ffffffffffffffffffffffffffffffffffffffff881660009081526003602090815260408083208a8452909152902054620014df9086906200208d565b73ffffffffffffffffffffffffffffffffffffffff808a1660009081526003602081815260408084208d8552825280842095909555928a16825282528281208a825290915220546200153390869062002072565b73ffffffffffffffffffffffffffffffffffffffff87811660008181526003602090815260408083208d8452825291829020949094558051898152339481019490945290928a928c16917fae47e55abe3902569528abe4272b889079230a248aec0659a2939a90354982c6910160405180910390a45050505050505050565b6040517f5dd8f6aa000000000000000000000000000000000000000000000000000000008152600481018490528390339073ffffffffffffffffffffffffffffffffffffffff7f00000000000000000000000000000000000000000000000000000000000000001690635dd8f6aa9060240160206040518083038186803b1580156200163d57600080fd5b505afa15801562001652573d6000803e3d6000fd5b505050506040513d601f19601f8201168201806040525081019062001678919062001ce1565b73ffffffffffffffffffffffffffffffffffffffff1614620016c6576040517fab7f741400000000000000000000000000000000000000000000000000000000815260040160405180910390fd5b60008481526020818152604080832054600490925282205473ffffffffffffffffffffffffffffffffffffffff909116919060ff1680620017045750835b801562001726575073ffffffffffffffffffffffffffffffffffffffff821615155b90508015620017c6576040517f836a10400000000000000000000000000000000000000000000000000000000081526004810187905273ffffffffffffffffffffffffffffffffffffffff88811660248301526044820187905283169063836a104090606401600060405180830381600087803b158015620017a757600080fd5b505af1158015620017bc573d6000803e3d6000fd5b505050506200185b565b73ffffffffffffffffffffffffffffffffffffffff871660009081526003602090815260408083208984529091529020546200180490869062002072565b73ffffffffffffffffffffffffffffffffffffffff881660009081526003602090815260408083208a84528252808320939093556002905220546200184b90869062002072565b6000878152600260205260409020555b604080518681528215156020820152851515818301523360608201529051879173ffffffffffffffffffffffffffffffffffffffff8a16917f5dd3ead325af435e56bc762b40de54c96de6071938d18a26414245807591d86f9181900360800190a350505050505050565b6040517f6352211e000000000000000000000000000000000000000000000000000000008152600481018390527f000000000000000000000000000000000000000000000000000000000000000073ffffffffffffffffffffffffffffffffffffffff1690636352211e9060240160206040518083038186803b1580156200194d57600080fd5b505afa15801562001962573d6000803e3d6000fd5b505050506040513d601f19601f8201168201806040525081019062001988919062001ce1565b82600d6200199883838362001a6e565b60008581526020819052604090205473ffffffffffffffffffffffffffffffffffffffff1680620019f5576040517f73c463ce00000000000000000000000000000000000000000000000000000000815260040160405180910390fd5b60008681526004602090815260409182902080547fffffffffffffffffffffffffffffffffffffffffffffffffffffffffffffff0016881515908117909155915133815288917f91c234a3a3ebdc00c9bbd80f24661ca100d784b6d9f53923b3a693344719e08c910160405180910390a3505050505050565b3373ffffffffffffffffffffffffffffffffffffffff84161480159062001b6957506040517fc161c93f00000000000000000000000000000000000000000000000000000000815233600482015273ffffffffffffffffffffffffffffffffffffffff848116602483015260448201849052606482018390527f0000000000000000000000000000000000000000000000000000000000000000169063c161c93f9060840160206040518083038186803b15801562001b2c57600080fd5b505afa15801562001b41573d6000803e3d6000fd5b505050506040513d601f19601f8201168201806040525081019062001b67919062001e0b565b155b801562001c4a57506040517fc161c93f00000000000000000000000000000000000000000000000000000000815233600482015273ffffffffffffffffffffffffffffffffffffffff848116602483015260006044830152606482018390527f0000000000000000000000000000000000000000000000000000000000000000169063c161c93f9060840160206040518083038186803b15801562001c0d57600080fd5b505afa15801562001c22573d6000803e3d6000fd5b505050506040513d601f19601f8201168201806040525081019062001c48919062001e0b565b155b1562001c82576040517f075fd2b100000000000000000000000000000000000000000000000000000000815260040160405180910390fd5b505050565b612198806200210c83390190565b60008083601f84011262001ca857600080fd5b50813567ffffffffffffffff81111562001cc157600080fd5b60208301915083602082850101111562001cda57600080fd5b9250929050565b60006020828403121562001cf457600080fd5b815162001d0181620020d6565b9392505050565b6000806040838503121562001d1c57600080fd5b823562001d2981620020d6565b946020939093013593505050565b6000806000806080858703121562001d4e57600080fd5b843562001d5b81620020d6565b935060208501359250604085013562001d7481620020d6565b9396929550929360600135925050565b60008060006060848603121562001d9a57600080fd5b833562001da781620020d6565b95602085013595506040909401359392505050565b6000806000806080858703121562001dd357600080fd5b843562001de081620020d6565b93506020850135925060408501359150606085013562001e0081620020fc565b939692955090935050565b60006020828403121562001e1e57600080fd5b815162001d0181620020fc565b60006020828403121562001e3e57600080fd5b813562001d0181620020d6565b60006020828403121562001e5e57600080fd5b5035919050565b60006020828403121562001e7857600080fd5b5051919050565b6000806040838503121562001e9357600080fd5b82359150602083013562001ea781620020fc565b809150509250929050565b60008060006060848603121562001ec857600080fd5b83359250602084013562001edc81620020d6565b9150604084013562001eee81620020d6565b809150509250925092565b60008060008060006060868803121562001f1257600080fd5b85359450602086013567ffffffffffffffff8082111562001f3257600080fd5b62001f4089838a0162001c95565b9096509450604088013591508082111562001f5a57600080fd5b5062001f698882890162001c95565b969995985093965092949392505050565b60006020828403121562001f8d57600080fd5b815160ff8116811462001d0157600080fd5b8183528181602085013750600060208284010152600060207fffffffffffffffffffffffffffffffffffffffffffffffffffffffffffffffe0601f840116840101905092915050565b60408152600062001ffe60408301868862001f9f565b82810360208401526200201381858762001f9f565b979650505050505050565b6060815260006200203460608301878962001f9f565b82810360208401526200204981868862001f9f565b91505073ffffffffffffffffffffffffffffffffffffffff831660408301529695505050505050565b60008219821115620020885762002088620020a7565b500190565b600082821015620020a257620020a2620020a7565b500390565b7f4e487b7100000000000000000000000000000000000000000000000000000000600052601160045260246000fd5b73ffffffffffffffffffffffffffffffffffffffff81168114620020f957600080fd5b50565b8015158114620020f957600080fdfe6101606040527f6e71edae12b1b97f4d1f60370fef10105fa2faae0126114a169c64845d6126c9610140523480156200003757600080fd5b5060405162002198380380620021988339810160408190526200005a9162000310565b8180604051806040016040528060018152602001603160f81b8152508484816003908051906020019062000090929190620001b3565b508051620000a6906004906020840190620001b3565b5050825160208085019190912083518483012060e08290526101008190524660a0818152604080517f8b73c3c69bb8fe3d512ecc4cf759cc79239f7b179b0ffacaa9a75d522b39400f81880181905281830187905260608201869052608082019490945230818401528151808203909301835260c0019052805194019390932091935091906080523060601b60c05261012052506200015593506200014f9250506200015d9050565b62000161565b5050620003cd565b3390565b600680546001600160a01b038381166001600160a01b0319831681179093556040519116919082907f8be0079c531659141344cd1fd0a4f28419497f9722a3daafe3b4186f6b6457e090600090a35050565b828054620001c1906200037a565b90600052602060002090601f016020900481019282620001e5576000855562000230565b82601f106200020057805160ff191683800117855562000230565b8280016001018555821562000230579182015b828111156200023057825182559160200191906001019062000213565b506200023e92915062000242565b5090565b5b808211156200023e576000815560010162000243565b600082601f8301126200026b57600080fd5b81516001600160401b0380821115620002885762000288620003b7565b604051601f8301601f19908116603f01168101908282118183101715620002b357620002b3620003b7565b81604052838152602092508683858801011115620002d057600080fd5b600091505b83821015620002f45785820183015181830184015290820190620002d5565b83821115620003065760008385830101525b9695505050505050565b600080604083850312156200032457600080fd5b82516001600160401b03808211156200033c57600080fd5b6200034a8683870162000259565b935060208501519150808211156200036157600080fd5b50620003708582860162000259565b9150509250929050565b600181811c908216806200038f57607f821691505b60208210811415620003b157634e487b7160e01b600052602260045260246000fd5b50919050565b634e487b7160e01b600052604160045260246000fd5b60805160a05160c05160601c60e051610100516101205161014051611d6d6200042b6000396000610a140152600061119c015260006111eb015260006111c60152600061111f01526000611149015260006111730152611d6d6000f3fe608060405234801561001057600080fd5b50600436106101a25760003560e01c80637ecebe00116100ee578063a457c2d711610097578063d505accf11610071578063d505accf14610365578063dd62ed3e14610378578063f2fde38b146103be578063f8548e36146103d157600080fd5b8063a457c2d71461032c578063a9059cbb1461033f578063bd85b0391461035257600080fd5b80638da5cb5b116100c85780638da5cb5b146102e957806395d89b41146103115780639eea5f661461031957600080fd5b80637ecebe00146102b0578063836a1040146102c35780638cb0a511146102d657600080fd5b806329507f7311610150578063395093511161012a578063395093511461025f57806370a0823114610272578063715018a6146102a857600080fd5b806329507f7314610235578063313ce567146102485780633644e5151461025757600080fd5b806318160ddd1161018157806318160ddd146102055780631c0f12b61461020d57806323b872dd1461022257600080fd5b8062fdd58e146101a757806306fdde03146101cd578063095ea7b3146101e2575b600080fd5b6101ba6101b5366004611b1a565b6103e4565b6040519081526020015b60405180910390f35b6101d5610412565b6040516101c49190611be9565b6101f56101f0366004611b1a565b6104a4565b60405190151581526020016101c4565b6002546101ba565b61022061021b366004611b80565b6104ba565b005b6101f5610230366004611a6b565b6104cc565b610220610243366004611b5d565b6105dc565b604051601281526020016101c4565b6101ba61066f565b6101f561026d366004611b1a565b610679565b6101ba610280366004611a1d565b73ffffffffffffffffffffffffffffffffffffffff1660009081526020819052604090205490565b6102206106c2565b6101ba6102be366004611a1d565b61074f565b6102206102d1366004611bc4565b61077c565b6102206102e4366004611bc4565b61080c565b60065460405173ffffffffffffffffffffffffffffffffffffffff90911681526020016101c4565b6101d561081c565b610220610327366004611bc4565b61082b565b6101f561033a366004611b1a565b6108b6565b6101f561034d366004611b1a565b61098e565b6101ba610360366004611b44565b61099b565b610220610373366004611aa7565b6109a6565b6101ba610386366004611a38565b73ffffffffffffffffffffffffffffffffffffffff918216600090815260016020908152604080832093909416825291909152205490565b6102206103cc366004611a1d565b610b65565b6102206103df366004611bc4565b610c95565b73ffffffffffffffffffffffffffffffffffffffff82166000908152602081905260408120545b9392505050565b60606003805461042190611c8b565b80601f016020809104026020016040519081016040528092919081815260200182805461044d90611c8b565b801561049a5780601f1061046f5761010080835404028352916020019161049a565b820191906000526020600020905b81548152906001019060200180831161047d57829003601f168201915b5050505050905090565b60006104b1338484610c9f565b50600192915050565b6104c58383836104cc565b5050505050565b73ffffffffffffffffffffffffffffffffffffffff831660009081526001602090815260408083203384529091528120547fffffffffffffffffffffffffffffffffffffffffffffffffffffffffffffffff81146105c657828110156105b9576040517f08c379a000000000000000000000000000000000000000000000000000000000815260206004820152602860248201527f45524332303a207472616e7366657220616d6f756e742065786365656473206160448201527f6c6c6f77616e636500000000000000000000000000000000000000000000000060648201526084015b60405180910390fd5b6105c68533858403610c9f565b6105d1858585610e52565b506001949350505050565b60065473ffffffffffffffffffffffffffffffffffffffff16331461065d576040517f08c379a000000000000000000000000000000000000000000000000000000000815260206004820181905260248201527f4f776e61626c653a2063616c6c6572206973206e6f7420746865206f776e657260448201526064016105b0565b61066681610b65565b5050565b905090565b600061066a611105565b33600081815260016020908152604080832073ffffffffffffffffffffffffffffffffffffffff8716845290915281205490916104b19185906106bd908690611c5c565b610c9f565b60065473ffffffffffffffffffffffffffffffffffffffff163314610743576040517f08c379a000000000000000000000000000000000000000000000000000000000815260206004820181905260248201527f4f776e61626c653a2063616c6c6572206973206e6f7420746865206f776e657260448201526064016105b0565b61074d6000611239565b565b73ffffffffffffffffffffffffffffffffffffffff81166000908152600560205260408120545b92915050565b60065473ffffffffffffffffffffffffffffffffffffffff1633146107fd576040517f08c379a000000000000000000000000000000000000000000000000000000000815260206004820181905260248201527f4f776e61626c653a2063616c6c6572206973206e6f7420746865206f776e657260448201526064016105b0565b61080782826112b0565b505050565b61081682826104a4565b50505050565b60606004805461042190611c8b565b60065473ffffffffffffffffffffffffffffffffffffffff1633146108ac576040517f08c379a000000000000000000000000000000000000000000000000000000000815260206004820181905260248201527f4f776e61626c653a2063616c6c6572206973206e6f7420746865206f776e657260448201526064016105b0565b61080782826113d0565b33600090815260016020908152604080832073ffffffffffffffffffffffffffffffffffffffff8616845290915281205482811015610977576040517f08c379a000000000000000000000000000000000000000000000000000000000815260206004820152602560248201527f45524332303a2064656372656173656420616c6c6f77616e63652062656c6f7760448201527f207a65726f00000000000000000000000000000000000000000000000000000060648201526084016105b0565b6109843385858403610c9f565b5060019392505050565b60006104b1338484610e52565b600061077660025490565b83421115610a10576040517f08c379a000000000000000000000000000000000000000000000000000000000815260206004820152601d60248201527f45524332305065726d69743a206578706972656420646561646c696e6500000060448201526064016105b0565b60007f0000000000000000000000000000000000000000000000000000000000000000888888610a3f8c6115bd565b60408051602081019690965273ffffffffffffffffffffffffffffffffffffffff94851690860152929091166060840152608083015260a082015260c0810186905260e0016040516020818303038152906040528051906020012090506000610aa7826115f2565b90506000610ab78287878761165b565b90508973ffffffffffffffffffffffffffffffffffffffff168173ffffffffffffffffffffffffffffffffffffffff1614610b4e576040517f08c379a000000000000000000000000000000000000000000000000000000000815260206004820152601e60248201527f45524332305065726d69743a20696e76616c6964207369676e6174757265000060448201526064016105b0565b610b598a8a8a610c9f565b50505050505050505050565b60065473ffffffffffffffffffffffffffffffffffffffff163314610be6576040517f08c379a000000000000000000000000000000000000000000000000000000000815260206004820181905260248201527f4f776e61626c653a2063616c6c6572206973206e6f7420746865206f776e657260448201526064016105b0565b73ffffffffffffffffffffffffffffffffffffffff8116610c89576040517f08c379a000000000000000000000000000000000000000000000000000000000815260206004820152602660248201527f4f776e61626c653a206e6577206f776e657220697320746865207a65726f206160448201527f646472657373000000000000000000000000000000000000000000000000000060648201526084016105b0565b610c9281611239565b50565b610816828261098e565b73ffffffffffffffffffffffffffffffffffffffff8316610d41576040517f08c379a0000000000000000000000000000000000000000000000000000000008152602060048201526024808201527f45524332303a20617070726f76652066726f6d20746865207a65726f2061646460448201527f726573730000000000000000000000000000000000000000000000000000000060648201526084016105b0565b73ffffffffffffffffffffffffffffffffffffffff8216610de4576040517f08c379a000000000000000000000000000000000000000000000000000000000815260206004820152602260248201527f45524332303a20617070726f766520746f20746865207a65726f20616464726560448201527f737300000000000000000000000000000000000000000000000000000000000060648201526084016105b0565b73ffffffffffffffffffffffffffffffffffffffff83811660008181526001602090815260408083209487168084529482529182902085905590518481527f8c5be1e5ebec7d5bd14f71427d1e84f3dd0314c0f7b2291e5b200ac8c7c3b925910160405180910390a3505050565b73ffffffffffffffffffffffffffffffffffffffff8316610ef5576040517f08c379a000000000000000000000000000000000000000000000000000000000815260206004820152602560248201527f45524332303a207472616e736665722066726f6d20746865207a65726f20616460448201527f647265737300000000000000000000000000000000000000000000000000000060648201526084016105b0565b73ffffffffffffffffffffffffffffffffffffffff8216610f98576040517f08c379a000000000000000000000000000000000000000000000000000000000815260206004820152602360248201527f45524332303a207472616e7366657220746f20746865207a65726f206164647260448201527f657373000000000000000000000000000000000000000000000000000000000060648201526084016105b0565b73ffffffffffffffffffffffffffffffffffffffff83166000908152602081905260409020548181101561104e576040517f08c379a000000000000000000000000000000000000000000000000000000000815260206004820152602660248201527f45524332303a207472616e7366657220616d6f756e742065786365656473206260448201527f616c616e6365000000000000000000000000000000000000000000000000000060648201526084016105b0565b73ffffffffffffffffffffffffffffffffffffffff808516600090815260208190526040808220858503905591851681529081208054849290611092908490611c5c565b925050819055508273ffffffffffffffffffffffffffffffffffffffff168473ffffffffffffffffffffffffffffffffffffffff167fddf252ad1be2c89b69c2b068fc378daa952ba7f163c4a11628f55a4df523b3ef846040516110f891815260200190565b60405180910390a3610816565b60003073ffffffffffffffffffffffffffffffffffffffff7f00000000000000000000000000000000000000000000000000000000000000001614801561116b57507f000000000000000000000000000000000000000000000000000000000000000046145b1561119557507f000000000000000000000000000000000000000000000000000000000000000090565b50604080517f00000000000000000000000000000000000000000000000000000000000000006020808301919091527f0000000000000000000000000000000000000000000000000000000000000000828401527f000000000000000000000000000000000000000000000000000000000000000060608301524660808301523060a0808401919091528351808403909101815260c0909201909252805191012090565b6006805473ffffffffffffffffffffffffffffffffffffffff8381167fffffffffffffffffffffffff0000000000000000000000000000000000000000831681179093556040519116919082907f8be0079c531659141344cd1fd0a4f28419497f9722a3daafe3b4186f6b6457e090600090a35050565b73ffffffffffffffffffffffffffffffffffffffff821661132d576040517f08c379a000000000000000000000000000000000000000000000000000000000815260206004820152601f60248201527f45524332303a206d696e7420746f20746865207a65726f20616464726573730060448201526064016105b0565b806002600082825461133f9190611c5c565b909155505073ffffffffffffffffffffffffffffffffffffffff821660009081526020819052604081208054839290611379908490611c5c565b909155505060405181815273ffffffffffffffffffffffffffffffffffffffff8316906000907fddf252ad1be2c89b69c2b068fc378daa952ba7f163c4a11628f55a4df523b3ef9060200160405180910390a35050565b73ffffffffffffffffffffffffffffffffffffffff8216611473576040517f08c379a000000000000000000000000000000000000000000000000000000000815260206004820152602160248201527f45524332303a206275726e2066726f6d20746865207a65726f2061646472657360448201527f730000000000000000000000000000000000000000000000000000000000000060648201526084016105b0565b73ffffffffffffffffffffffffffffffffffffffff821660009081526020819052604090205481811015611529576040517f08c379a000000000000000000000000000000000000000000000000000000000815260206004820152602260248201527f45524332303a206275726e20616d6f756e7420657863656564732062616c616e60448201527f636500000000000000000000000000000000000000000000000000000000000060648201526084016105b0565b73ffffffffffffffffffffffffffffffffffffffff83166000908152602081905260408120838303905560028054849290611565908490611c74565b909155505060405182815260009073ffffffffffffffffffffffffffffffffffffffff8516907fddf252ad1be2c89b69c2b068fc378daa952ba7f163c4a11628f55a4df523b3ef9060200160405180910390a3505050565b73ffffffffffffffffffffffffffffffffffffffff811660009081526005602052604090208054600181018255905b50919050565b60006107766115ff611105565b836040517f19010000000000000000000000000000000000000000000000000000000000006020820152602281018390526042810182905260009060620160405160208183030381529060405280519060200120905092915050565b600080600061166c87878787611683565b915091506116798161179b565b5095945050505050565b6000807f7fffffffffffffffffffffffffffffff5d576e7357a4501ddfe92f46681b20a08311156116ba5750600090506003611792565b8460ff16601b141580156116d257508460ff16601c14155b156116e35750600090506004611792565b6040805160008082526020820180845289905260ff881692820192909252606081018690526080810185905260019060a0016020604051602081039080840390855afa158015611737573d6000803e3d6000fd5b50506040517fffffffffffffffffffffffffffffffffffffffffffffffffffffffffffffffe0015191505073ffffffffffffffffffffffffffffffffffffffff811661178b57600060019250925050611792565b9150600090505b94509492505050565b60008160048111156117af576117af611d08565b14156117b85750565b60018160048111156117cc576117cc611d08565b1415611834576040517f08c379a000000000000000000000000000000000000000000000000000000000815260206004820152601860248201527f45434453413a20696e76616c6964207369676e6174757265000000000000000060448201526064016105b0565b600281600481111561184857611848611d08565b14156118b0576040517f08c379a000000000000000000000000000000000000000000000000000000000815260206004820152601f60248201527f45434453413a20696e76616c6964207369676e6174757265206c656e6774680060448201526064016105b0565b60038160048111156118c4576118c4611d08565b1415611952576040517f08c379a000000000000000000000000000000000000000000000000000000000815260206004820152602260248201527f45434453413a20696e76616c6964207369676e6174757265202773272076616c60448201527f756500000000000000000000000000000000000000000000000000000000000060648201526084016105b0565b600481600481111561196657611966611d08565b1415610c92576040517f08c379a000000000000000000000000000000000000000000000000000000000815260206004820152602260248201527f45434453413a20696e76616c6964207369676e6174757265202776272076616c60448201527f756500000000000000000000000000000000000000000000000000000000000060648201526084016105b0565b803573ffffffffffffffffffffffffffffffffffffffff81168114611a1857600080fd5b919050565b600060208284031215611a2f57600080fd5b61040b826119f4565b60008060408385031215611a4b57600080fd5b611a54836119f4565b9150611a62602084016119f4565b90509250929050565b600080600060608486031215611a8057600080fd5b611a89846119f4565b9250611a97602085016119f4565b9150604084013590509250925092565b600080600080600080600060e0888a031215611ac257600080fd5b611acb886119f4565b9650611ad9602089016119f4565b95506040880135945060608801359350608088013560ff81168114611afd57600080fd5b9699959850939692959460a0840135945060c09093013592915050565b60008060408385031215611b2d57600080fd5b611b36836119f4565b946020939093013593505050565b600060208284031215611b5657600080fd5b5035919050565b60008060408385031215611b7057600080fd5b82359150611a62602084016119f4565b60008060008060808587031215611b9657600080fd5b84359350611ba6602086016119f4565b9250611bb4604086016119f4565b9396929550929360600135925050565b600080600060608486031215611bd957600080fd5b83359250611a97602085016119f4565b600060208083528351808285015260005b81811015611c1657858101830151858201604001528201611bfa565b81811115611c28576000604083870101525b50601f017fffffffffffffffffffffffffffffffffffffffffffffffffffffffffffffffe016929092016040019392505050565b60008219821115611c6f57611c6f611cd9565b500190565b600082821015611c8657611c86611cd9565b500390565b600181811c90821680611c9f57607f821691505b602082108114156115ec577f4e487b7100000000000000000000000000000000000000000000000000000000600052602260045260246000fd5b7f4e487b7100000000000000000000000000000000000000000000000000000000600052601160045260246000fd5b7f4e487b7100000000000000000000000000000000000000000000000000000000600052602160045260246000fdfea2646970667358221220390869397dff3cb63d632070f7655cacb6a2b538f26c6166a4bbdd21b277b02b64736f6c63430008060033a2646970667358221220282c0971fc4dde51b6abd0e26dfa1e0bae8c3cea74fd0dd55302033899d4513764736f6c63430008060033",
  "devdoc": {
    "details": "Token balances can be either represented internally or claimed as ERC-20s into wallets. This contract manages these two representations and allows claiming.The total supply of a project's tokens and the balance of each account are calculated in this contract.Each project can bring their own token if they prefer, and swap between tokens at any time.Adheres to - IJBTokenStore: General interface for the methods in this contract that interact with the blockchain's state according to the protocol's rules.Inherits from - JBControllerUtility: Includes convenience functionality for checking if the message sender is the current controller of the project whose data is being manipulated. JBOperatable: Includes convenience functionality for checking a message sender's permissions before executing certain transactions.",
    "kind": "dev",
    "methods": {
      "balanceOf(address,uint256)": {
        "params": {
          "_holder": "The token holder to get a balance for.",
          "_projectId": "The project to get the `_holder`s balance of."
        },
        "returns": {
          "balance": "The project token balance of the `_holder"
        }
      },
      "burnFrom(address,uint256,uint256,bool)": {
        "details": "Only a project's current controller can burn its tokens.",
        "params": {
          "_amount": "The amount of tokens to burn.",
          "_holder": "The address that owns the tokens being burned.",
          "_preferClaimedTokens": "A flag indicating whether there's a preference for tokens to burned from the `_holder`s wallet if the project currently has a token contract attached.",
          "_projectId": "The ID of the project to which the burned tokens belong."
        }
      },
      "changeFor(uint256,address,address)": {
        "details": "Only a project's current controller can change its token.This contract must have access to all of the token's `IJBToken` interface functions.Can't change to a token that's currently being used by another project.Changing to the zero address will remove the current token without adding a new one.",
        "params": {
          "_newOwner": "An address to transfer the current token's ownership to. This is optional, but it cannot be done later.",
          "_projectId": "The ID of the project to which the changed token belongs.",
          "_token": "The new token. Send an empty address to remove the project's current token without adding a new one, if claiming tokens isn't currency required by the project"
        },
        "returns": {
          "oldToken": "The token that was removed as the project's token."
        }
      },
      "claimFor(address,uint256,uint256)": {
        "details": "Only a token holder or an operator specified by the token holder can claim its unclaimed tokens.",
        "params": {
          "_amount": "The amount of tokens to claim.",
          "_holder": "The owner of the tokens being claimed.",
          "_projectId": "The ID of the project whose tokens are being claimed."
        }
      },
      "constructor": {
        "params": {
          "_directory": "A contract storing directories of terminals and controllers for each project.",
          "_operatorStore": "A contract storing operator assignments.",
          "_projects": "A contract which mints ERC-721's that represent project ownership and transfers."
        }
      },
      "issueFor(uint256,string,string)": {
        "details": "Deploys a project's ERC-20 token contract.Only a project's current controller can issue its token.",
        "params": {
          "_name": "The ERC-20's name.",
          "_projectId": "The ID of the project being issued tokens.",
          "_symbol": "The ERC-20's symbol."
        },
        "returns": {
          "token": "The token that was issued."
        }
      },
      "mintFor(address,uint256,uint256,bool)": {
        "details": "Only a project's current controller can mint its tokens.",
        "params": {
          "_amount": "The amount of tokens to mint.",
          "_holder": "The address receiving the new tokens.",
          "_preferClaimedTokens": "A flag indicating whether there's a preference for minted tokens to be claimed automatically into the `_holder`s wallet if the project currently has a token contract attached.",
          "_projectId": "The ID of the project to which the tokens belong."
        }
      },
      "shouldRequireClaimingFor(uint256,bool)": {
        "details": "Only a token holder or an operator can require claimed token.",
        "params": {
          "_flag": "A flag indicating whether or not claiming should be required.",
          "_projectId": "The ID of the project being affected."
        }
      },
      "totalSupplyOf(uint256)": {
        "params": {
          "_projectId": "The ID of the project to get the total token supply of."
        },
        "returns": {
          "totalSupply": "The total supply of the project's tokens."
        }
      },
      "transferFrom(address,uint256,address,uint256)": {
        "details": "Only a token holder or an operator can transfer its unclaimed tokens.",
        "params": {
          "_amount": "The amount of tokens to transfer.",
          "_holder": "The address to transfer tokens from.",
          "_projectId": "The ID of the project whose tokens are being transferred.",
          "_recipient": "The recipient of the tokens."
        }
      }
    },
    "version": 1
  },
  "userdoc": {
    "kind": "user",
    "methods": {
      "balanceOf(address,uint256)": {
        "notice": "The total balance of tokens a holder has for a specified project, including claimed and unclaimed tokens."
      },
      "burnFrom(address,uint256,uint256,bool)": {
        "notice": "Burns a project's tokens."
      },
      "changeFor(uint256,address,address)": {
        "notice": "Swap the current project's token for another, and transfer ownership of the current token to another address if needed."
      },
      "claimFor(address,uint256,uint256)": {
        "notice": "Claims internally accounted for tokens into a holder's wallet."
      },
      "directory()": {
        "notice": " The directory of terminals and controllers for projects."
      },
      "issueFor(uint256,string,string)": {
        "notice": "Issues a project's ERC-20 tokens that'll be used when claiming tokens."
      },
      "mintFor(address,uint256,uint256,bool)": {
        "notice": "Mint new project tokens."
      },
      "operatorStore()": {
        "notice": " A contract storing operator assignments."
      },
      "projectOf(address)": {
        "notice": "The ID of the project that each token belongs to. _token The token to check the project association of."
      },
      "projects()": {
        "notice": "Mints ERC-721's that represent project ownership and transfers."
      },
      "requireClaimFor(uint256)": {
        "notice": "A flag indicating if tokens are required to be issued as claimed for a particular project. _projectId The ID of the project to which the requirement applies."
      },
      "shouldRequireClaimingFor(uint256,bool)": {
        "notice": "Allows a project to force all future mints of its tokens to be claimed into the holder's wallet, or revoke the flag if it's already set."
      },
      "tokenOf(uint256)": {
        "notice": "Each project's attached token contract. _projectId The ID of the project to which the token belongs."
      },
      "totalSupplyOf(uint256)": {
        "notice": "The total supply of tokens for each project, including claimed and unclaimed tokens."
      },
      "transferFrom(address,uint256,address,uint256)": {
        "notice": "Allows a holder to transfer unclaimed tokens to another account."
      },
      "unclaimedBalanceOf(address,uint256)": {
        "notice": "Each holder's balance of unclaimed tokens for each project. _holder The holder of balance. _projectId The ID of the project to which the token belongs."
      },
      "unclaimedTotalSupplyOf(uint256)": {
        "notice": "The total supply of unclaimed tokens for each project. _projectId The ID of the project to which the token belongs."
      }
    },
    "notice": "Manage token minting, burning, and account balances.",
    "version": 1
  },
  "storageLayout": {
    "storage": [
      {
        "astId": 13261,
        "contract": "contracts/JBTokenStore.sol:JBTokenStore",
        "label": "tokenOf",
        "offset": 0,
        "slot": "0",
        "type": "t_mapping(t_uint256,t_contract(IJBToken)18851)"
      },
      {
        "astId": 13268,
        "contract": "contracts/JBTokenStore.sol:JBTokenStore",
        "label": "projectOf",
        "offset": 0,
        "slot": "1",
        "type": "t_mapping(t_contract(IJBToken)18851,t_uint256)"
      },
      {
        "astId": 13274,
        "contract": "contracts/JBTokenStore.sol:JBTokenStore",
        "label": "unclaimedTotalSupplyOf",
        "offset": 0,
        "slot": "2",
        "type": "t_mapping(t_uint256,t_uint256)"
      },
      {
        "astId": 13282,
        "contract": "contracts/JBTokenStore.sol:JBTokenStore",
        "label": "unclaimedBalanceOf",
        "offset": 0,
        "slot": "3",
        "type": "t_mapping(t_address,t_mapping(t_uint256,t_uint256))"
      },
      {
        "astId": 13288,
        "contract": "contracts/JBTokenStore.sol:JBTokenStore",
        "label": "requireClaimFor",
        "offset": 0,
        "slot": "4",
        "type": "t_mapping(t_uint256,t_bool)"
      }
    ],
    "types": {
      "t_address": {
        "encoding": "inplace",
        "label": "address",
        "numberOfBytes": "20"
      },
      "t_bool": {
        "encoding": "inplace",
        "label": "bool",
        "numberOfBytes": "1"
      },
      "t_contract(IJBToken)18851": {
        "encoding": "inplace",
        "label": "contract IJBToken",
        "numberOfBytes": "20"
      },
      "t_mapping(t_address,t_mapping(t_uint256,t_uint256))": {
        "encoding": "mapping",
        "key": "t_address",
        "label": "mapping(address => mapping(uint256 => uint256))",
        "numberOfBytes": "32",
        "value": "t_mapping(t_uint256,t_uint256)"
      },
      "t_mapping(t_contract(IJBToken)18851,t_uint256)": {
        "encoding": "mapping",
        "key": "t_contract(IJBToken)18851",
        "label": "mapping(contract IJBToken => uint256)",
        "numberOfBytes": "32",
        "value": "t_uint256"
      },
      "t_mapping(t_uint256,t_bool)": {
        "encoding": "mapping",
        "key": "t_uint256",
        "label": "mapping(uint256 => bool)",
        "numberOfBytes": "32",
        "value": "t_bool"
      },
      "t_mapping(t_uint256,t_contract(IJBToken)18851)": {
        "encoding": "mapping",
        "key": "t_uint256",
        "label": "mapping(uint256 => contract IJBToken)",
        "numberOfBytes": "32",
        "value": "t_contract(IJBToken)18851"
      },
      "t_mapping(t_uint256,t_uint256)": {
        "encoding": "mapping",
        "key": "t_uint256",
        "label": "mapping(uint256 => uint256)",
        "numberOfBytes": "32",
        "value": "t_uint256"
      },
      "t_uint256": {
        "encoding": "inplace",
        "label": "uint256",
        "numberOfBytes": "32"
      }
    }
  }
}