{
  "address": "0xb41f6cF59739c3D14DAb94e86EcF09c77cCE436c",
  "abi": [
    {
      "inputs": [
        {
          "internalType": "contract IJBOperatorStore",
          "name": "_operatorStore",
          "type": "address"
        },
        {
          "internalType": "contract IJBProjects",
          "name": "_projects",
          "type": "address"
        },
        {
          "internalType": "contract IJBDirectory",
          "name": "_directory",
          "type": "address"
        },
        {
          "internalType": "contract IJBFundingCycleStore",
          "name": "_fundingCycleStore",
          "type": "address"
        },
        {
          "internalType": "contract IJBTokenStore",
          "name": "_tokenStore",
          "type": "address"
        },
        {
          "internalType": "contract IJBSplitsStore",
          "name": "_splitsStore",
          "type": "address"
        }
      ],
      "stateMutability": "nonpayable",
      "type": "constructor"
    },
    {
      "inputs": [],
      "name": "BURN_PAUSED_AND_SENDER_NOT_VALID_TERMINAL_DELEGATE",
      "type": "error"
    },
    {
      "inputs": [],
      "name": "CANT_MIGRATE_TO_CURRENT_CONTROLLER",
      "type": "error"
    },
    {
      "inputs": [],
      "name": "FUNDING_CYCLE_ALREADY_LAUNCHED",
      "type": "error"
    },
    {
      "inputs": [],
      "name": "INVALID_BALLOT_REDEMPTION_RATE",
      "type": "error"
    },
    {
      "inputs": [],
      "name": "INVALID_DISTRIBUTION_LIMIT",
      "type": "error"
    },
    {
      "inputs": [],
      "name": "INVALID_DISTRIBUTION_LIMIT_CURRENCY",
      "type": "error"
    },
    {
      "inputs": [],
      "name": "INVALID_OVERFLOW_ALLOWANCE",
      "type": "error"
    },
    {
      "inputs": [],
      "name": "INVALID_OVERFLOW_ALLOWANCE_CURRENCY",
      "type": "error"
    },
    {
      "inputs": [],
      "name": "INVALID_REDEMPTION_RATE",
      "type": "error"
    },
    {
      "inputs": [],
      "name": "INVALID_RESERVED_RATE",
      "type": "error"
    },
    {
      "inputs": [],
      "name": "MIGRATION_NOT_ALLOWED",
      "type": "error"
    },
    {
      "inputs": [],
      "name": "MINT_NOT_ALLOWED_AND_NOT_TERMINAL_DELEGATE",
      "type": "error"
    },
    {
      "inputs": [],
      "name": "NOT_CURRENT_CONTROLLER",
      "type": "error"
    },
    {
      "inputs": [],
      "name": "NO_BURNABLE_TOKENS",
      "type": "error"
    },
    {
      "inputs": [],
      "name": "OVERFLOW_ALERT",
      "type": "error"
    },
    {
      "inputs": [
        {
          "internalType": "uint256",
          "name": "prod1",
          "type": "uint256"
        },
        {
          "internalType": "uint256",
          "name": "denominator",
          "type": "uint256"
        }
      ],
      "name": "PRBMath__MulDivOverflow",
      "type": "error"
    },
    {
      "inputs": [],
      "name": "UNAUTHORIZED",
      "type": "error"
    },
    {
      "inputs": [],
      "name": "ZERO_TOKENS_TO_MINT",
      "type": "error"
    },
    {
      "anonymous": false,
      "inputs": [
        {
          "indexed": true,
          "internalType": "address",
          "name": "holder",
          "type": "address"
        },
        {
          "indexed": true,
          "internalType": "uint256",
          "name": "projectId",
          "type": "uint256"
        },
        {
          "indexed": false,
          "internalType": "uint256",
          "name": "tokenCount",
          "type": "uint256"
        },
        {
          "indexed": false,
          "internalType": "string",
          "name": "memo",
          "type": "string"
        },
        {
          "indexed": false,
          "internalType": "address",
          "name": "caller",
          "type": "address"
        }
      ],
      "name": "BurnTokens",
      "type": "event"
    },
    {
      "anonymous": false,
      "inputs": [
        {
          "indexed": true,
          "internalType": "uint256",
          "name": "fundingCycleConfiguration",
          "type": "uint256"
        },
        {
          "indexed": true,
          "internalType": "uint256",
          "name": "fundingCycleNumber",
          "type": "uint256"
        },
        {
          "indexed": true,
          "internalType": "uint256",
          "name": "projectId",
          "type": "uint256"
        },
        {
          "indexed": false,
          "internalType": "address",
          "name": "beneficiary",
          "type": "address"
        },
        {
          "indexed": false,
          "internalType": "uint256",
          "name": "tokenCount",
          "type": "uint256"
        },
        {
          "indexed": false,
          "internalType": "uint256",
          "name": "beneficiaryTokenCount",
          "type": "uint256"
        },
        {
          "indexed": false,
          "internalType": "string",
          "name": "memo",
          "type": "string"
        },
        {
          "indexed": false,
          "internalType": "address",
          "name": "caller",
          "type": "address"
        }
      ],
      "name": "DistributeReservedTokens",
      "type": "event"
    },
    {
      "anonymous": false,
      "inputs": [
        {
          "indexed": true,
          "internalType": "uint256",
          "name": "projectId",
          "type": "uint256"
        },
        {
          "indexed": true,
          "internalType": "uint256",
          "name": "domain",
          "type": "uint256"
        },
        {
          "indexed": true,
          "internalType": "uint256",
          "name": "group",
          "type": "uint256"
        },
        {
          "components": [
            {
              "internalType": "bool",
              "name": "preferClaimed",
              "type": "bool"
            },
            {
              "internalType": "bool",
              "name": "preferAddToBalance",
              "type": "bool"
            },
            {
              "internalType": "uint256",
              "name": "percent",
              "type": "uint256"
            },
            {
              "internalType": "uint256",
              "name": "projectId",
              "type": "uint256"
            },
            {
              "internalType": "address payable",
              "name": "beneficiary",
              "type": "address"
            },
            {
              "internalType": "uint256",
              "name": "lockedUntil",
              "type": "uint256"
            },
            {
              "internalType": "contract IJBSplitAllocator",
              "name": "allocator",
              "type": "address"
            }
          ],
          "indexed": false,
          "internalType": "struct JBSplit",
          "name": "split",
          "type": "tuple"
        },
        {
          "indexed": false,
          "internalType": "uint256",
          "name": "tokenCount",
          "type": "uint256"
        },
        {
          "indexed": false,
          "internalType": "address",
          "name": "caller",
          "type": "address"
        }
      ],
      "name": "DistributeToReservedTokenSplit",
      "type": "event"
    },
    {
      "anonymous": false,
      "inputs": [
        {
          "indexed": false,
          "internalType": "uint256",
          "name": "configuration",
          "type": "uint256"
        },
        {
          "indexed": false,
          "internalType": "uint256",
          "name": "projectId",
          "type": "uint256"
        },
        {
          "indexed": false,
          "internalType": "string",
          "name": "memo",
          "type": "string"
        },
        {
          "indexed": false,
          "internalType": "address",
          "name": "caller",
          "type": "address"
        }
      ],
      "name": "LaunchFundingCycles",
      "type": "event"
    },
    {
      "anonymous": false,
      "inputs": [
        {
          "indexed": false,
          "internalType": "uint256",
          "name": "configuration",
          "type": "uint256"
        },
        {
          "indexed": false,
          "internalType": "uint256",
          "name": "projectId",
          "type": "uint256"
        },
        {
          "indexed": false,
          "internalType": "string",
          "name": "memo",
          "type": "string"
        },
        {
          "indexed": false,
          "internalType": "address",
          "name": "caller",
          "type": "address"
        }
      ],
      "name": "LaunchProject",
      "type": "event"
    },
    {
      "anonymous": false,
      "inputs": [
        {
          "indexed": true,
          "internalType": "uint256",
          "name": "projectId",
          "type": "uint256"
        },
        {
          "indexed": false,
          "internalType": "contract IJBMigratable",
          "name": "to",
          "type": "address"
        },
        {
          "indexed": false,
          "internalType": "address",
          "name": "caller",
          "type": "address"
        }
      ],
      "name": "Migrate",
      "type": "event"
    },
    {
      "anonymous": false,
      "inputs": [
        {
          "indexed": true,
          "internalType": "address",
          "name": "beneficiary",
          "type": "address"
        },
        {
          "indexed": true,
          "internalType": "uint256",
          "name": "projectId",
          "type": "uint256"
        },
        {
          "indexed": false,
          "internalType": "uint256",
          "name": "tokenCount",
          "type": "uint256"
        },
        {
          "indexed": false,
          "internalType": "uint256",
          "name": "beneficiaryTokenCount",
          "type": "uint256"
        },
        {
          "indexed": false,
          "internalType": "string",
          "name": "memo",
          "type": "string"
        },
        {
          "indexed": false,
          "internalType": "uint256",
          "name": "reservedRate",
          "type": "uint256"
        },
        {
          "indexed": false,
          "internalType": "address",
          "name": "caller",
          "type": "address"
        }
      ],
      "name": "MintTokens",
      "type": "event"
    },
    {
      "anonymous": false,
      "inputs": [
        {
          "indexed": true,
          "internalType": "uint256",
          "name": "projectId",
          "type": "uint256"
        },
        {
          "indexed": false,
          "internalType": "address",
          "name": "from",
          "type": "address"
        },
        {
          "indexed": false,
          "internalType": "address",
          "name": "caller",
          "type": "address"
        }
      ],
      "name": "PrepMigration",
      "type": "event"
    },
    {
      "anonymous": false,
      "inputs": [
        {
          "indexed": false,
          "internalType": "uint256",
          "name": "configuration",
          "type": "uint256"
        },
        {
          "indexed": false,
          "internalType": "uint256",
          "name": "projectId",
          "type": "uint256"
        },
        {
          "indexed": false,
          "internalType": "string",
          "name": "memo",
          "type": "string"
        },
        {
          "indexed": false,
          "internalType": "address",
          "name": "caller",
          "type": "address"
        }
      ],
      "name": "ReconfigureFundingCycles",
      "type": "event"
    },
    {
      "anonymous": false,
      "inputs": [
        {
          "indexed": true,
          "internalType": "uint256",
          "name": "fundingCycleConfiguration",
          "type": "uint256"
        },
        {
          "indexed": true,
          "internalType": "uint256",
          "name": "fundingCycleNumber",
          "type": "uint256"
        },
        {
          "indexed": true,
          "internalType": "uint256",
          "name": "projectId",
          "type": "uint256"
        },
        {
          "components": [
            {
              "internalType": "contract IJBPaymentTerminal",
              "name": "terminal",
              "type": "address"
            },
            {
              "internalType": "address",
              "name": "token",
              "type": "address"
            },
            {
              "internalType": "uint256",
              "name": "distributionLimit",
              "type": "uint256"
            },
            {
              "internalType": "uint256",
              "name": "distributionLimitCurrency",
              "type": "uint256"
            },
            {
              "internalType": "uint256",
              "name": "overflowAllowance",
              "type": "uint256"
            },
            {
              "internalType": "uint256",
              "name": "overflowAllowanceCurrency",
              "type": "uint256"
            }
          ],
          "indexed": false,
          "internalType": "struct JBFundAccessConstraints",
          "name": "constraints",
          "type": "tuple"
        },
        {
          "indexed": false,
          "internalType": "address",
          "name": "caller",
          "type": "address"
        }
      ],
      "name": "SetFundAccessConstraints",
      "type": "event"
    },
    {
      "inputs": [
        {
          "internalType": "address",
          "name": "_holder",
          "type": "address"
        },
        {
          "internalType": "uint256",
          "name": "_projectId",
          "type": "uint256"
        },
        {
          "internalType": "uint256",
          "name": "_tokenCount",
          "type": "uint256"
        },
        {
          "internalType": "string",
          "name": "_memo",
          "type": "string"
        },
        {
          "internalType": "bool",
          "name": "_preferClaimedTokens",
          "type": "bool"
        }
      ],
      "name": "burnTokensOf",
      "outputs": [],
      "stateMutability": "nonpayable",
      "type": "function"
    },
    {
      "inputs": [
        {
          "internalType": "uint256",
          "name": "_projectId",
          "type": "uint256"
        }
      ],
      "name": "currentFundingCycleOf",
      "outputs": [
        {
          "components": [
            {
              "internalType": "uint256",
              "name": "number",
              "type": "uint256"
            },
            {
              "internalType": "uint256",
              "name": "configuration",
              "type": "uint256"
            },
            {
              "internalType": "uint256",
              "name": "basedOn",
              "type": "uint256"
            },
            {
              "internalType": "uint256",
              "name": "start",
              "type": "uint256"
            },
            {
              "internalType": "uint256",
              "name": "duration",
              "type": "uint256"
            },
            {
              "internalType": "uint256",
              "name": "weight",
              "type": "uint256"
            },
            {
              "internalType": "uint256",
              "name": "discountRate",
              "type": "uint256"
            },
            {
              "internalType": "contract IJBFundingCycleBallot",
              "name": "ballot",
              "type": "address"
            },
            {
              "internalType": "uint256",
              "name": "metadata",
              "type": "uint256"
            }
          ],
          "internalType": "struct JBFundingCycle",
          "name": "fundingCycle",
          "type": "tuple"
        },
        {
          "components": [
            {
              "components": [
                {
                  "internalType": "bool",
                  "name": "allowSetTerminals",
                  "type": "bool"
                },
                {
                  "internalType": "bool",
                  "name": "allowSetController",
                  "type": "bool"
                },
                {
                  "internalType": "bool",
                  "name": "pauseTransfers",
                  "type": "bool"
                }
              ],
              "internalType": "struct JBGlobalFundingCycleMetadata",
              "name": "global",
              "type": "tuple"
            },
            {
              "internalType": "uint256",
              "name": "reservedRate",
              "type": "uint256"
            },
            {
              "internalType": "uint256",
              "name": "redemptionRate",
              "type": "uint256"
            },
            {
              "internalType": "uint256",
              "name": "ballotRedemptionRate",
              "type": "uint256"
            },
            {
              "internalType": "bool",
              "name": "pausePay",
              "type": "bool"
            },
            {
              "internalType": "bool",
              "name": "pauseDistributions",
              "type": "bool"
            },
            {
              "internalType": "bool",
              "name": "pauseRedeem",
              "type": "bool"
            },
            {
              "internalType": "bool",
              "name": "pauseBurn",
              "type": "bool"
            },
            {
              "internalType": "bool",
              "name": "allowMinting",
              "type": "bool"
            },
            {
              "internalType": "bool",
              "name": "allowTerminalMigration",
              "type": "bool"
            },
            {
              "internalType": "bool",
              "name": "allowControllerMigration",
              "type": "bool"
            },
            {
              "internalType": "bool",
              "name": "holdFees",
              "type": "bool"
            },
            {
              "internalType": "bool",
              "name": "preferClaimedTokenOverride",
              "type": "bool"
            },
            {
              "internalType": "bool",
              "name": "useTotalOverflowForRedemptions",
              "type": "bool"
            },
            {
              "internalType": "bool",
              "name": "useDataSourceForPay",
              "type": "bool"
            },
            {
              "internalType": "bool",
              "name": "useDataSourceForRedeem",
              "type": "bool"
            },
            {
              "internalType": "address",
              "name": "dataSource",
              "type": "address"
            },
            {
              "internalType": "uint256",
              "name": "metadata",
              "type": "uint256"
            }
          ],
          "internalType": "struct JBFundingCycleMetadata",
          "name": "metadata",
          "type": "tuple"
        }
      ],
      "stateMutability": "view",
      "type": "function"
    },
    {
      "inputs": [],
      "name": "directory",
      "outputs": [
        {
          "internalType": "contract IJBDirectory",
          "name": "",
          "type": "address"
        }
      ],
      "stateMutability": "view",
      "type": "function"
    },
    {
      "inputs": [
        {
          "internalType": "uint256",
          "name": "_projectId",
          "type": "uint256"
        },
        {
          "internalType": "string",
          "name": "_memo",
          "type": "string"
        }
      ],
      "name": "distributeReservedTokensOf",
      "outputs": [
        {
          "internalType": "uint256",
          "name": "",
          "type": "uint256"
        }
      ],
      "stateMutability": "nonpayable",
      "type": "function"
    },
    {
      "inputs": [
        {
          "internalType": "uint256",
          "name": "_projectId",
          "type": "uint256"
        },
        {
          "internalType": "uint256",
          "name": "_configuration",
          "type": "uint256"
        },
        {
          "internalType": "contract IJBPaymentTerminal",
          "name": "_terminal",
          "type": "address"
        },
        {
          "internalType": "address",
          "name": "_token",
          "type": "address"
        }
      ],
      "name": "distributionLimitOf",
      "outputs": [
        {
          "internalType": "uint256",
          "name": "",
          "type": "uint256"
        },
        {
          "internalType": "uint256",
          "name": "",
          "type": "uint256"
        }
      ],
      "stateMutability": "view",
      "type": "function"
    },
    {
      "inputs": [],
      "name": "fundingCycleStore",
      "outputs": [
        {
          "internalType": "contract IJBFundingCycleStore",
          "name": "",
          "type": "address"
        }
      ],
      "stateMutability": "view",
      "type": "function"
    },
    {
      "inputs": [
        {
          "internalType": "uint256",
          "name": "_projectId",
          "type": "uint256"
        },
        {
          "internalType": "uint256",
          "name": "_configuration",
          "type": "uint256"
        }
      ],
      "name": "getFundingCycleOf",
      "outputs": [
        {
          "components": [
            {
              "internalType": "uint256",
              "name": "number",
              "type": "uint256"
            },
            {
              "internalType": "uint256",
              "name": "configuration",
              "type": "uint256"
            },
            {
              "internalType": "uint256",
              "name": "basedOn",
              "type": "uint256"
            },
            {
              "internalType": "uint256",
              "name": "start",
              "type": "uint256"
            },
            {
              "internalType": "uint256",
              "name": "duration",
              "type": "uint256"
            },
            {
              "internalType": "uint256",
              "name": "weight",
              "type": "uint256"
            },
            {
              "internalType": "uint256",
              "name": "discountRate",
              "type": "uint256"
            },
            {
              "internalType": "contract IJBFundingCycleBallot",
              "name": "ballot",
              "type": "address"
            },
            {
              "internalType": "uint256",
              "name": "metadata",
              "type": "uint256"
            }
          ],
          "internalType": "struct JBFundingCycle",
          "name": "fundingCycle",
          "type": "tuple"
        },
        {
          "components": [
            {
              "components": [
                {
                  "internalType": "bool",
                  "name": "allowSetTerminals",
                  "type": "bool"
                },
                {
                  "internalType": "bool",
                  "name": "allowSetController",
                  "type": "bool"
                },
                {
                  "internalType": "bool",
                  "name": "pauseTransfers",
                  "type": "bool"
                }
              ],
              "internalType": "struct JBGlobalFundingCycleMetadata",
              "name": "global",
              "type": "tuple"
            },
            {
              "internalType": "uint256",
              "name": "reservedRate",
              "type": "uint256"
            },
            {
              "internalType": "uint256",
              "name": "redemptionRate",
              "type": "uint256"
            },
            {
              "internalType": "uint256",
              "name": "ballotRedemptionRate",
              "type": "uint256"
            },
            {
              "internalType": "bool",
              "name": "pausePay",
              "type": "bool"
            },
            {
              "internalType": "bool",
              "name": "pauseDistributions",
              "type": "bool"
            },
            {
              "internalType": "bool",
              "name": "pauseRedeem",
              "type": "bool"
            },
            {
              "internalType": "bool",
              "name": "pauseBurn",
              "type": "bool"
            },
            {
              "internalType": "bool",
              "name": "allowMinting",
              "type": "bool"
            },
            {
              "internalType": "bool",
              "name": "allowTerminalMigration",
              "type": "bool"
            },
            {
              "internalType": "bool",
              "name": "allowControllerMigration",
              "type": "bool"
            },
            {
              "internalType": "bool",
              "name": "holdFees",
              "type": "bool"
            },
            {
              "internalType": "bool",
              "name": "preferClaimedTokenOverride",
              "type": "bool"
            },
            {
              "internalType": "bool",
              "name": "useTotalOverflowForRedemptions",
              "type": "bool"
            },
            {
              "internalType": "bool",
              "name": "useDataSourceForPay",
              "type": "bool"
            },
            {
              "internalType": "bool",
              "name": "useDataSourceForRedeem",
              "type": "bool"
            },
            {
              "internalType": "address",
              "name": "dataSource",
              "type": "address"
            },
            {
              "internalType": "uint256",
              "name": "metadata",
              "type": "uint256"
            }
          ],
          "internalType": "struct JBFundingCycleMetadata",
          "name": "metadata",
          "type": "tuple"
        }
      ],
      "stateMutability": "view",
      "type": "function"
    },
    {
      "inputs": [
        {
          "internalType": "uint256",
          "name": "_projectId",
          "type": "uint256"
        }
      ],
      "name": "latestConfiguredFundingCycleOf",
      "outputs": [
        {
          "components": [
            {
              "internalType": "uint256",
              "name": "number",
              "type": "uint256"
            },
            {
              "internalType": "uint256",
              "name": "configuration",
              "type": "uint256"
            },
            {
              "internalType": "uint256",
              "name": "basedOn",
              "type": "uint256"
            },
            {
              "internalType": "uint256",
              "name": "start",
              "type": "uint256"
            },
            {
              "internalType": "uint256",
              "name": "duration",
              "type": "uint256"
            },
            {
              "internalType": "uint256",
              "name": "weight",
              "type": "uint256"
            },
            {
              "internalType": "uint256",
              "name": "discountRate",
              "type": "uint256"
            },
            {
              "internalType": "contract IJBFundingCycleBallot",
              "name": "ballot",
              "type": "address"
            },
            {
              "internalType": "uint256",
              "name": "metadata",
              "type": "uint256"
            }
          ],
          "internalType": "struct JBFundingCycle",
          "name": "fundingCycle",
          "type": "tuple"
        },
        {
          "components": [
            {
              "components": [
                {
                  "internalType": "bool",
                  "name": "allowSetTerminals",
                  "type": "bool"
                },
                {
                  "internalType": "bool",
                  "name": "allowSetController",
                  "type": "bool"
                },
                {
                  "internalType": "bool",
                  "name": "pauseTransfers",
                  "type": "bool"
                }
              ],
              "internalType": "struct JBGlobalFundingCycleMetadata",
              "name": "global",
              "type": "tuple"
            },
            {
              "internalType": "uint256",
              "name": "reservedRate",
              "type": "uint256"
            },
            {
              "internalType": "uint256",
              "name": "redemptionRate",
              "type": "uint256"
            },
            {
              "internalType": "uint256",
              "name": "ballotRedemptionRate",
              "type": "uint256"
            },
            {
              "internalType": "bool",
              "name": "pausePay",
              "type": "bool"
            },
            {
              "internalType": "bool",
              "name": "pauseDistributions",
              "type": "bool"
            },
            {
              "internalType": "bool",
              "name": "pauseRedeem",
              "type": "bool"
            },
            {
              "internalType": "bool",
              "name": "pauseBurn",
              "type": "bool"
            },
            {
              "internalType": "bool",
              "name": "allowMinting",
              "type": "bool"
            },
            {
              "internalType": "bool",
              "name": "allowTerminalMigration",
              "type": "bool"
            },
            {
              "internalType": "bool",
              "name": "allowControllerMigration",
              "type": "bool"
            },
            {
              "internalType": "bool",
              "name": "holdFees",
              "type": "bool"
            },
            {
              "internalType": "bool",
              "name": "preferClaimedTokenOverride",
              "type": "bool"
            },
            {
              "internalType": "bool",
              "name": "useTotalOverflowForRedemptions",
              "type": "bool"
            },
            {
              "internalType": "bool",
              "name": "useDataSourceForPay",
              "type": "bool"
            },
            {
              "internalType": "bool",
              "name": "useDataSourceForRedeem",
              "type": "bool"
            },
            {
              "internalType": "address",
              "name": "dataSource",
              "type": "address"
            },
            {
              "internalType": "uint256",
              "name": "metadata",
              "type": "uint256"
            }
          ],
          "internalType": "struct JBFundingCycleMetadata",
          "name": "metadata",
          "type": "tuple"
        },
        {
          "internalType": "enum JBBallotState",
          "name": "ballotState",
          "type": "uint8"
        }
      ],
      "stateMutability": "view",
      "type": "function"
    },
    {
      "inputs": [
        {
          "internalType": "uint256",
          "name": "_projectId",
          "type": "uint256"
        },
        {
          "components": [
            {
              "internalType": "uint256",
              "name": "duration",
              "type": "uint256"
            },
            {
              "internalType": "uint256",
              "name": "weight",
              "type": "uint256"
            },
            {
              "internalType": "uint256",
              "name": "discountRate",
              "type": "uint256"
            },
            {
              "internalType": "contract IJBFundingCycleBallot",
              "name": "ballot",
              "type": "address"
            }
          ],
          "internalType": "struct JBFundingCycleData",
          "name": "_data",
          "type": "tuple"
        },
        {
          "components": [
            {
              "components": [
                {
                  "internalType": "bool",
                  "name": "allowSetTerminals",
                  "type": "bool"
                },
                {
                  "internalType": "bool",
                  "name": "allowSetController",
                  "type": "bool"
                },
                {
                  "internalType": "bool",
                  "name": "pauseTransfers",
                  "type": "bool"
                }
              ],
              "internalType": "struct JBGlobalFundingCycleMetadata",
              "name": "global",
              "type": "tuple"
            },
            {
              "internalType": "uint256",
              "name": "reservedRate",
              "type": "uint256"
            },
            {
              "internalType": "uint256",
              "name": "redemptionRate",
              "type": "uint256"
            },
            {
              "internalType": "uint256",
              "name": "ballotRedemptionRate",
              "type": "uint256"
            },
            {
              "internalType": "bool",
              "name": "pausePay",
              "type": "bool"
            },
            {
              "internalType": "bool",
              "name": "pauseDistributions",
              "type": "bool"
            },
            {
              "internalType": "bool",
              "name": "pauseRedeem",
              "type": "bool"
            },
            {
              "internalType": "bool",
              "name": "pauseBurn",
              "type": "bool"
            },
            {
              "internalType": "bool",
              "name": "allowMinting",
              "type": "bool"
            },
            {
              "internalType": "bool",
              "name": "allowTerminalMigration",
              "type": "bool"
            },
            {
              "internalType": "bool",
              "name": "allowControllerMigration",
              "type": "bool"
            },
            {
              "internalType": "bool",
              "name": "holdFees",
              "type": "bool"
            },
            {
              "internalType": "bool",
              "name": "preferClaimedTokenOverride",
              "type": "bool"
            },
            {
              "internalType": "bool",
              "name": "useTotalOverflowForRedemptions",
              "type": "bool"
            },
            {
              "internalType": "bool",
              "name": "useDataSourceForPay",
              "type": "bool"
            },
            {
              "internalType": "bool",
              "name": "useDataSourceForRedeem",
              "type": "bool"
            },
            {
              "internalType": "address",
              "name": "dataSource",
              "type": "address"
            },
            {
              "internalType": "uint256",
              "name": "metadata",
              "type": "uint256"
            }
          ],
          "internalType": "struct JBFundingCycleMetadata",
          "name": "_metadata",
          "type": "tuple"
        },
        {
          "internalType": "uint256",
          "name": "_mustStartAtOrAfter",
          "type": "uint256"
        },
        {
          "components": [
            {
              "internalType": "uint256",
              "name": "group",
              "type": "uint256"
            },
            {
              "components": [
                {
                  "internalType": "bool",
                  "name": "preferClaimed",
                  "type": "bool"
                },
                {
                  "internalType": "bool",
                  "name": "preferAddToBalance",
                  "type": "bool"
                },
                {
                  "internalType": "uint256",
                  "name": "percent",
                  "type": "uint256"
                },
                {
                  "internalType": "uint256",
                  "name": "projectId",
                  "type": "uint256"
                },
                {
                  "internalType": "address payable",
                  "name": "beneficiary",
                  "type": "address"
                },
                {
                  "internalType": "uint256",
                  "name": "lockedUntil",
                  "type": "uint256"
                },
                {
                  "internalType": "contract IJBSplitAllocator",
                  "name": "allocator",
                  "type": "address"
                }
              ],
              "internalType": "struct JBSplit[]",
              "name": "splits",
              "type": "tuple[]"
            }
          ],
          "internalType": "struct JBGroupedSplits[]",
          "name": "_groupedSplits",
          "type": "tuple[]"
        },
        {
          "components": [
            {
              "internalType": "contract IJBPaymentTerminal",
              "name": "terminal",
              "type": "address"
            },
            {
              "internalType": "address",
              "name": "token",
              "type": "address"
            },
            {
              "internalType": "uint256",
              "name": "distributionLimit",
              "type": "uint256"
            },
            {
              "internalType": "uint256",
              "name": "distributionLimitCurrency",
              "type": "uint256"
            },
            {
              "internalType": "uint256",
              "name": "overflowAllowance",
              "type": "uint256"
            },
            {
              "internalType": "uint256",
              "name": "overflowAllowanceCurrency",
              "type": "uint256"
            }
          ],
          "internalType": "struct JBFundAccessConstraints[]",
          "name": "_fundAccessConstraints",
          "type": "tuple[]"
        },
        {
          "internalType": "contract IJBPaymentTerminal[]",
          "name": "_terminals",
          "type": "address[]"
        },
        {
          "internalType": "string",
          "name": "_memo",
          "type": "string"
        }
      ],
      "name": "launchFundingCyclesFor",
      "outputs": [
        {
          "internalType": "uint256",
          "name": "configuration",
          "type": "uint256"
        }
      ],
      "stateMutability": "nonpayable",
      "type": "function"
    },
    {
      "inputs": [
        {
          "internalType": "address",
          "name": "_owner",
          "type": "address"
        },
        {
          "components": [
            {
              "internalType": "string",
              "name": "content",
              "type": "string"
            },
            {
              "internalType": "uint256",
              "name": "domain",
              "type": "uint256"
            }
          ],
          "internalType": "struct JBProjectMetadata",
          "name": "_projectMetadata",
          "type": "tuple"
        },
        {
          "components": [
            {
              "internalType": "uint256",
              "name": "duration",
              "type": "uint256"
            },
            {
              "internalType": "uint256",
              "name": "weight",
              "type": "uint256"
            },
            {
              "internalType": "uint256",
              "name": "discountRate",
              "type": "uint256"
            },
            {
              "internalType": "contract IJBFundingCycleBallot",
              "name": "ballot",
              "type": "address"
            }
          ],
          "internalType": "struct JBFundingCycleData",
          "name": "_data",
          "type": "tuple"
        },
        {
          "components": [
            {
              "components": [
                {
                  "internalType": "bool",
                  "name": "allowSetTerminals",
                  "type": "bool"
                },
                {
                  "internalType": "bool",
                  "name": "allowSetController",
                  "type": "bool"
                },
                {
                  "internalType": "bool",
                  "name": "pauseTransfers",
                  "type": "bool"
                }
              ],
              "internalType": "struct JBGlobalFundingCycleMetadata",
              "name": "global",
              "type": "tuple"
            },
            {
              "internalType": "uint256",
              "name": "reservedRate",
              "type": "uint256"
            },
            {
              "internalType": "uint256",
              "name": "redemptionRate",
              "type": "uint256"
            },
            {
              "internalType": "uint256",
              "name": "ballotRedemptionRate",
              "type": "uint256"
            },
            {
              "internalType": "bool",
              "name": "pausePay",
              "type": "bool"
            },
            {
              "internalType": "bool",
              "name": "pauseDistributions",
              "type": "bool"
            },
            {
              "internalType": "bool",
              "name": "pauseRedeem",
              "type": "bool"
            },
            {
              "internalType": "bool",
              "name": "pauseBurn",
              "type": "bool"
            },
            {
              "internalType": "bool",
              "name": "allowMinting",
              "type": "bool"
            },
            {
              "internalType": "bool",
              "name": "allowTerminalMigration",
              "type": "bool"
            },
            {
              "internalType": "bool",
              "name": "allowControllerMigration",
              "type": "bool"
            },
            {
              "internalType": "bool",
              "name": "holdFees",
              "type": "bool"
            },
            {
              "internalType": "bool",
              "name": "preferClaimedTokenOverride",
              "type": "bool"
            },
            {
              "internalType": "bool",
              "name": "useTotalOverflowForRedemptions",
              "type": "bool"
            },
            {
              "internalType": "bool",
              "name": "useDataSourceForPay",
              "type": "bool"
            },
            {
              "internalType": "bool",
              "name": "useDataSourceForRedeem",
              "type": "bool"
            },
            {
              "internalType": "address",
              "name": "dataSource",
              "type": "address"
            },
            {
              "internalType": "uint256",
              "name": "metadata",
              "type": "uint256"
            }
          ],
          "internalType": "struct JBFundingCycleMetadata",
          "name": "_metadata",
          "type": "tuple"
        },
        {
          "internalType": "uint256",
          "name": "_mustStartAtOrAfter",
          "type": "uint256"
        },
        {
          "components": [
            {
              "internalType": "uint256",
              "name": "group",
              "type": "uint256"
            },
            {
              "components": [
                {
                  "internalType": "bool",
                  "name": "preferClaimed",
                  "type": "bool"
                },
                {
                  "internalType": "bool",
                  "name": "preferAddToBalance",
                  "type": "bool"
                },
                {
                  "internalType": "uint256",
                  "name": "percent",
                  "type": "uint256"
                },
                {
                  "internalType": "uint256",
                  "name": "projectId",
                  "type": "uint256"
                },
                {
                  "internalType": "address payable",
                  "name": "beneficiary",
                  "type": "address"
                },
                {
                  "internalType": "uint256",
                  "name": "lockedUntil",
                  "type": "uint256"
                },
                {
                  "internalType": "contract IJBSplitAllocator",
                  "name": "allocator",
                  "type": "address"
                }
              ],
              "internalType": "struct JBSplit[]",
              "name": "splits",
              "type": "tuple[]"
            }
          ],
          "internalType": "struct JBGroupedSplits[]",
          "name": "_groupedSplits",
          "type": "tuple[]"
        },
        {
          "components": [
            {
              "internalType": "contract IJBPaymentTerminal",
              "name": "terminal",
              "type": "address"
            },
            {
              "internalType": "address",
              "name": "token",
              "type": "address"
            },
            {
              "internalType": "uint256",
              "name": "distributionLimit",
              "type": "uint256"
            },
            {
              "internalType": "uint256",
              "name": "distributionLimitCurrency",
              "type": "uint256"
            },
            {
              "internalType": "uint256",
              "name": "overflowAllowance",
              "type": "uint256"
            },
            {
              "internalType": "uint256",
              "name": "overflowAllowanceCurrency",
              "type": "uint256"
            }
          ],
          "internalType": "struct JBFundAccessConstraints[]",
          "name": "_fundAccessConstraints",
          "type": "tuple[]"
        },
        {
          "internalType": "contract IJBPaymentTerminal[]",
          "name": "_terminals",
          "type": "address[]"
        },
        {
          "internalType": "string",
          "name": "_memo",
          "type": "string"
        }
      ],
      "name": "launchProjectFor",
      "outputs": [
        {
          "internalType": "uint256",
          "name": "projectId",
          "type": "uint256"
        }
      ],
      "stateMutability": "nonpayable",
      "type": "function"
    },
    {
      "inputs": [
        {
          "internalType": "uint256",
          "name": "_projectId",
          "type": "uint256"
        },
        {
          "internalType": "contract IJBMigratable",
          "name": "_to",
          "type": "address"
        }
      ],
      "name": "migrate",
      "outputs": [],
      "stateMutability": "nonpayable",
      "type": "function"
    },
    {
      "inputs": [
        {
          "internalType": "uint256",
          "name": "_projectId",
          "type": "uint256"
        },
        {
          "internalType": "uint256",
          "name": "_tokenCount",
          "type": "uint256"
        },
        {
          "internalType": "address",
          "name": "_beneficiary",
          "type": "address"
        },
        {
          "internalType": "string",
          "name": "_memo",
          "type": "string"
        },
        {
          "internalType": "bool",
          "name": "_preferClaimedTokens",
          "type": "bool"
        },
        {
          "internalType": "bool",
          "name": "_useReservedRate",
          "type": "bool"
        }
      ],
      "name": "mintTokensOf",
      "outputs": [
        {
          "internalType": "uint256",
          "name": "beneficiaryTokenCount",
          "type": "uint256"
        }
      ],
      "stateMutability": "nonpayable",
      "type": "function"
    },
    {
      "inputs": [],
      "name": "operatorStore",
      "outputs": [
        {
          "internalType": "contract IJBOperatorStore",
          "name": "",
          "type": "address"
        }
      ],
      "stateMutability": "view",
      "type": "function"
    },
    {
      "inputs": [
        {
          "internalType": "uint256",
          "name": "_projectId",
          "type": "uint256"
        },
        {
          "internalType": "uint256",
          "name": "_configuration",
          "type": "uint256"
        },
        {
          "internalType": "contract IJBPaymentTerminal",
          "name": "_terminal",
          "type": "address"
        },
        {
          "internalType": "address",
          "name": "_token",
          "type": "address"
        }
      ],
      "name": "overflowAllowanceOf",
      "outputs": [
        {
          "internalType": "uint256",
          "name": "",
          "type": "uint256"
        },
        {
          "internalType": "uint256",
          "name": "",
          "type": "uint256"
        }
      ],
      "stateMutability": "view",
      "type": "function"
    },
    {
      "inputs": [
        {
          "internalType": "uint256",
          "name": "_projectId",
          "type": "uint256"
        },
        {
          "internalType": "address",
          "name": "_from",
          "type": "address"
        }
      ],
      "name": "prepForMigrationOf",
      "outputs": [],
      "stateMutability": "nonpayable",
      "type": "function"
    },
    {
      "inputs": [],
      "name": "projects",
      "outputs": [
        {
          "internalType": "contract IJBProjects",
          "name": "",
          "type": "address"
        }
      ],
      "stateMutability": "view",
      "type": "function"
    },
    {
      "inputs": [
        {
          "internalType": "uint256",
          "name": "_projectId",
          "type": "uint256"
        }
      ],
      "name": "queuedFundingCycleOf",
      "outputs": [
        {
          "components": [
            {
              "internalType": "uint256",
              "name": "number",
              "type": "uint256"
            },
            {
              "internalType": "uint256",
              "name": "configuration",
              "type": "uint256"
            },
            {
              "internalType": "uint256",
              "name": "basedOn",
              "type": "uint256"
            },
            {
              "internalType": "uint256",
              "name": "start",
              "type": "uint256"
            },
            {
              "internalType": "uint256",
              "name": "duration",
              "type": "uint256"
            },
            {
              "internalType": "uint256",
              "name": "weight",
              "type": "uint256"
            },
            {
              "internalType": "uint256",
              "name": "discountRate",
              "type": "uint256"
            },
            {
              "internalType": "contract IJBFundingCycleBallot",
              "name": "ballot",
              "type": "address"
            },
            {
              "internalType": "uint256",
              "name": "metadata",
              "type": "uint256"
            }
          ],
          "internalType": "struct JBFundingCycle",
          "name": "fundingCycle",
          "type": "tuple"
        },
        {
          "components": [
            {
              "components": [
                {
                  "internalType": "bool",
                  "name": "allowSetTerminals",
                  "type": "bool"
                },
                {
                  "internalType": "bool",
                  "name": "allowSetController",
                  "type": "bool"
                },
                {
                  "internalType": "bool",
                  "name": "pauseTransfers",
                  "type": "bool"
                }
              ],
              "internalType": "struct JBGlobalFundingCycleMetadata",
              "name": "global",
              "type": "tuple"
            },
            {
              "internalType": "uint256",
              "name": "reservedRate",
              "type": "uint256"
            },
            {
              "internalType": "uint256",
              "name": "redemptionRate",
              "type": "uint256"
            },
            {
              "internalType": "uint256",
              "name": "ballotRedemptionRate",
              "type": "uint256"
            },
            {
              "internalType": "bool",
              "name": "pausePay",
              "type": "bool"
            },
            {
              "internalType": "bool",
              "name": "pauseDistributions",
              "type": "bool"
            },
            {
              "internalType": "bool",
              "name": "pauseRedeem",
              "type": "bool"
            },
            {
              "internalType": "bool",
              "name": "pauseBurn",
              "type": "bool"
            },
            {
              "internalType": "bool",
              "name": "allowMinting",
              "type": "bool"
            },
            {
              "internalType": "bool",
              "name": "allowTerminalMigration",
              "type": "bool"
            },
            {
              "internalType": "bool",
              "name": "allowControllerMigration",
              "type": "bool"
            },
            {
              "internalType": "bool",
              "name": "holdFees",
              "type": "bool"
            },
            {
              "internalType": "bool",
              "name": "preferClaimedTokenOverride",
              "type": "bool"
            },
            {
              "internalType": "bool",
              "name": "useTotalOverflowForRedemptions",
              "type": "bool"
            },
            {
              "internalType": "bool",
              "name": "useDataSourceForPay",
              "type": "bool"
            },
            {
              "internalType": "bool",
              "name": "useDataSourceForRedeem",
              "type": "bool"
            },
            {
              "internalType": "address",
              "name": "dataSource",
              "type": "address"
            },
            {
              "internalType": "uint256",
              "name": "metadata",
              "type": "uint256"
            }
          ],
          "internalType": "struct JBFundingCycleMetadata",
          "name": "metadata",
          "type": "tuple"
        }
      ],
      "stateMutability": "view",
      "type": "function"
    },
    {
      "inputs": [
        {
          "internalType": "uint256",
          "name": "_projectId",
          "type": "uint256"
        },
        {
          "components": [
            {
              "internalType": "uint256",
              "name": "duration",
              "type": "uint256"
            },
            {
              "internalType": "uint256",
              "name": "weight",
              "type": "uint256"
            },
            {
              "internalType": "uint256",
              "name": "discountRate",
              "type": "uint256"
            },
            {
              "internalType": "contract IJBFundingCycleBallot",
              "name": "ballot",
              "type": "address"
            }
          ],
          "internalType": "struct JBFundingCycleData",
          "name": "_data",
          "type": "tuple"
        },
        {
          "components": [
            {
              "components": [
                {
                  "internalType": "bool",
                  "name": "allowSetTerminals",
                  "type": "bool"
                },
                {
                  "internalType": "bool",
                  "name": "allowSetController",
                  "type": "bool"
                },
                {
                  "internalType": "bool",
                  "name": "pauseTransfers",
                  "type": "bool"
                }
              ],
              "internalType": "struct JBGlobalFundingCycleMetadata",
              "name": "global",
              "type": "tuple"
            },
            {
              "internalType": "uint256",
              "name": "reservedRate",
              "type": "uint256"
            },
            {
              "internalType": "uint256",
              "name": "redemptionRate",
              "type": "uint256"
            },
            {
              "internalType": "uint256",
              "name": "ballotRedemptionRate",
              "type": "uint256"
            },
            {
              "internalType": "bool",
              "name": "pausePay",
              "type": "bool"
            },
            {
              "internalType": "bool",
              "name": "pauseDistributions",
              "type": "bool"
            },
            {
              "internalType": "bool",
              "name": "pauseRedeem",
              "type": "bool"
            },
            {
              "internalType": "bool",
              "name": "pauseBurn",
              "type": "bool"
            },
            {
              "internalType": "bool",
              "name": "allowMinting",
              "type": "bool"
            },
            {
              "internalType": "bool",
              "name": "allowTerminalMigration",
              "type": "bool"
            },
            {
              "internalType": "bool",
              "name": "allowControllerMigration",
              "type": "bool"
            },
            {
              "internalType": "bool",
              "name": "holdFees",
              "type": "bool"
            },
            {
              "internalType": "bool",
              "name": "preferClaimedTokenOverride",
              "type": "bool"
            },
            {
              "internalType": "bool",
              "name": "useTotalOverflowForRedemptions",
              "type": "bool"
            },
            {
              "internalType": "bool",
              "name": "useDataSourceForPay",
              "type": "bool"
            },
            {
              "internalType": "bool",
              "name": "useDataSourceForRedeem",
              "type": "bool"
            },
            {
              "internalType": "address",
              "name": "dataSource",
              "type": "address"
            },
            {
              "internalType": "uint256",
              "name": "metadata",
              "type": "uint256"
            }
          ],
          "internalType": "struct JBFundingCycleMetadata",
          "name": "_metadata",
          "type": "tuple"
        },
        {
          "internalType": "uint256",
          "name": "_mustStartAtOrAfter",
          "type": "uint256"
        },
        {
          "components": [
            {
              "internalType": "uint256",
              "name": "group",
              "type": "uint256"
            },
            {
              "components": [
                {
                  "internalType": "bool",
                  "name": "preferClaimed",
                  "type": "bool"
                },
                {
                  "internalType": "bool",
                  "name": "preferAddToBalance",
                  "type": "bool"
                },
                {
                  "internalType": "uint256",
                  "name": "percent",
                  "type": "uint256"
                },
                {
                  "internalType": "uint256",
                  "name": "projectId",
                  "type": "uint256"
                },
                {
                  "internalType": "address payable",
                  "name": "beneficiary",
                  "type": "address"
                },
                {
                  "internalType": "uint256",
                  "name": "lockedUntil",
                  "type": "uint256"
                },
                {
                  "internalType": "contract IJBSplitAllocator",
                  "name": "allocator",
                  "type": "address"
                }
              ],
              "internalType": "struct JBSplit[]",
              "name": "splits",
              "type": "tuple[]"
            }
          ],
          "internalType": "struct JBGroupedSplits[]",
          "name": "_groupedSplits",
          "type": "tuple[]"
        },
        {
          "components": [
            {
              "internalType": "contract IJBPaymentTerminal",
              "name": "terminal",
              "type": "address"
            },
            {
              "internalType": "address",
              "name": "token",
              "type": "address"
            },
            {
              "internalType": "uint256",
              "name": "distributionLimit",
              "type": "uint256"
            },
            {
              "internalType": "uint256",
              "name": "distributionLimitCurrency",
              "type": "uint256"
            },
            {
              "internalType": "uint256",
              "name": "overflowAllowance",
              "type": "uint256"
            },
            {
              "internalType": "uint256",
              "name": "overflowAllowanceCurrency",
              "type": "uint256"
            }
          ],
          "internalType": "struct JBFundAccessConstraints[]",
          "name": "_fundAccessConstraints",
          "type": "tuple[]"
        },
        {
          "internalType": "string",
          "name": "_memo",
          "type": "string"
        }
      ],
      "name": "reconfigureFundingCyclesOf",
      "outputs": [
        {
          "internalType": "uint256",
          "name": "configuration",
          "type": "uint256"
        }
      ],
      "stateMutability": "nonpayable",
      "type": "function"
    },
    {
      "inputs": [
        {
          "internalType": "uint256",
          "name": "_projectId",
          "type": "uint256"
        },
        {
          "internalType": "uint256",
          "name": "_reservedRate",
          "type": "uint256"
        }
      ],
      "name": "reservedTokenBalanceOf",
      "outputs": [
        {
          "internalType": "uint256",
          "name": "",
          "type": "uint256"
        }
      ],
      "stateMutability": "view",
      "type": "function"
    },
    {
      "inputs": [],
      "name": "splitsStore",
      "outputs": [
        {
          "internalType": "contract IJBSplitsStore",
          "name": "",
          "type": "address"
        }
      ],
      "stateMutability": "view",
      "type": "function"
    },
    {
      "inputs": [
        {
          "internalType": "bytes4",
          "name": "_interfaceId",
          "type": "bytes4"
        }
      ],
      "name": "supportsInterface",
      "outputs": [
        {
          "internalType": "bool",
          "name": "",
          "type": "bool"
        }
      ],
      "stateMutability": "view",
      "type": "function"
    },
    {
      "inputs": [],
      "name": "tokenStore",
      "outputs": [
        {
          "internalType": "contract IJBTokenStore",
          "name": "",
          "type": "address"
        }
      ],
      "stateMutability": "view",
      "type": "function"
    },
    {
      "inputs": [
        {
          "internalType": "uint256",
          "name": "_projectId",
          "type": "uint256"
        },
        {
          "internalType": "uint256",
          "name": "_reservedRate",
          "type": "uint256"
        }
      ],
      "name": "totalOutstandingTokensOf",
      "outputs": [
        {
          "internalType": "uint256",
          "name": "",
          "type": "uint256"
        }
      ],
      "stateMutability": "view",
      "type": "function"
    }
  ],
  "transactionHash": "0x0be43e796845041e8ee07bc3da1a1b36686d5d4e04124a9ffa455b8d252a315a",
  "args": [
    "0xd1573e46F4548Cd243e3c21b159ae66c23dD88a3",
    "0x32834829927D872869918e5F415f9732bD7b6768",
    "0xA4425A1E5b7B28Cb689719B1428e3088C1F89E30",
    "0x97a5b9D9F0F7cD676B69f584F29048D0Ef4BB59b",
    "0x77b0A81AeB61d08C0b23c739969d22c5C9950336",
    "0xFA391De95Fcbcd3157268B91d8c7af083E607A5C"
  ],
  "numDeployments": 1,
  "solcInputHash": "3acc7b3c9b8919c9df6123eedbb6312b",
  "bytecode": "0x6101406040523480156200001257600080fd5b50604051620057b0380380620057b083398101604081905262000035916200007e565b6001600160a01b0395861660805293851660a05291841661012052831660c052821660e052166101005262000112565b6001600160a01b03811681146200007b57600080fd5b50565b60008060008060008060c087890312156200009857600080fd5b8651620000a58162000065565b6020880151909650620000b88162000065565b6040880151909550620000cb8162000065565b6060880151909450620000de8162000065565b6080880151909350620000f18162000065565b60a0880151909250620001048162000065565b809150509295509295509295565b60805160a05160c05160e05161010051610120516155366200027a6000396000818161042f015281816107e40152818161086601528181610b2801528181610ccd015281816110a20152818161133201528181611a3201528181611b120152611f7c015260008181610238015281816128a5015261386f0152600081816102c401528181610dfb015281816111800152818161151c01528181611d0401528181612226015281816124bc01528181613119015261384a01526000818161029d0152818161070401528181610a6501528181610c0b01528181610fde0152818161141b01528181611834015281816118db01528181611eef015281816127cb015261313d01526000818161039501528181610649015281816112820152818161198501528181611f9f015281816122f6015281816132b201526139cc0152600081816103cf015281816125940152818161265401528181612ec20152612f8201526155366000f3fe608060405234801561001057600080fd5b506004361061018d5760003560e01c80638776c499116100e3578063b5f1e34d1161008c578063e867c59c11610066578063e867c59c14610451578063e8db213014610464578063f033b3b4146104d357600080fd5b8063b5f1e34d14610404578063badbdf2814610417578063c41c2f241461042a57600080fd5b8063a40bb9c7116100bd578063a40bb9c7146103b7578063ad007d63146103ca578063b3c52673146103f157600080fd5b80638776c4991461036a5780638ae9c07b1461037d5780638b79543c1461039057600080fd5b80632bdfe00411610145578063557e71551161011f578063557e71551461029857806361930630146102bf5780637a81b562146102e657600080fd5b80632bdfe004146102335780633e8c615b14610272578063405b84fa1461028557600080fd5b806312b37b141161017657806312b37b14146101db5780631665bc0f146101fc5780631f5104531461021157600080fd5b806301ffc9a714610192578063111d861b146101ba575b600080fd5b6101a56101a0366004613c7b565b6104e6565b60405190151581526020015b60405180910390f35b6101cd6101c836600461408b565b610617565b6040519081526020016101b1565b6101ee6101e9366004614179565b610932565b6040516101b19291906142f7565b61020f61020a3660046143cd565b610ae4565b005b61022461021f366004614179565b610eac565b6040516101b193929190614449565b61025a7f000000000000000000000000000000000000000000000000000000000000000081565b6040516001600160a01b0390911681526020016101b1565b61020f61028036600461450a565b611069565b61020f61029336600461450a565b611253565b61025a7f000000000000000000000000000000000000000000000000000000000000000081565b61025a7f000000000000000000000000000000000000000000000000000000000000000081565b6103556102f436600461453a565b60009384526002602090815260408086209486529381528385206001600160a01b039384168652815283852091909216845290529020547cffffffffffffffffffffffffffffffffffffffffffffffffffffffffff81169160e89190911c90565b604080519283526020830191909152016101b1565b6101ee610378366004614179565b611701565b6101cd61038b366004614584565b611863565b61025a7f000000000000000000000000000000000000000000000000000000000000000081565b6101ee6103c5366004614614565b611db9565b61025a7f000000000000000000000000000000000000000000000000000000000000000081565b6101cd6103ff36600461468d565b611f77565b6101cd610412366004614614565b6121ea565b6101cd6104253660046147b7565b6122c4565b61025a7f000000000000000000000000000000000000000000000000000000000000000081565b6101cd61045f36600461488f565b61242b565b61035561047236600461453a565b60009384526001602090815260408086209486529381528385206001600160a01b039384168652815283852091909216845290529020547cffffffffffffffffffffffffffffffffffffffffffffffffffffffffff81169160e89190911c90565b6101cd6104e1366004614614565b612477565b60007fffffffff0000000000000000000000000000000000000000000000000000000082167f85e3689900000000000000000000000000000000000000000000000000000000148061057957507fffffffff0000000000000000000000000000000000000000000000000000000082167f3e8c615b00000000000000000000000000000000000000000000000000000000145b806105c557507fffffffff0000000000000000000000000000000000000000000000000000000082167fad007d6300000000000000000000000000000000000000000000000000000000145b8061061157507f01ffc9a7000000000000000000000000000000000000000000000000000000007fffffffff000000000000000000000000000000000000000000000000000000008316145b92915050565b6040517f6352211e000000000000000000000000000000000000000000000000000000008152600481018a90526000907f00000000000000000000000000000000000000000000000000000000000000006001600160a01b031690636352211e90602401602060405180830381865afa158015610698573d6000803e3d6000fd5b505050506040513d601f19601f820116820180604052508101906106bc91906148db565b8a60016106ca838383612534565b6040517f2cee6deb000000000000000000000000000000000000000000000000000000008152600481018e90526000906001600160a01b037f00000000000000000000000000000000000000000000000000000000000000001690632cee6deb90602401602060405180830381865afa15801561074b573d6000803e3d6000fd5b505050506040513d601f19601f8201168201806040525081019061076f91906148f8565b11156107a7576040517fffd0bc1200000000000000000000000000000000000000000000000000000000815260040160405180910390fd5b6040517f714e7f32000000000000000000000000000000000000000000000000000000008152600481018e90523060248201526001600160a01b037f0000000000000000000000000000000000000000000000000000000000000000169063714e7f3290604401600060405180830381600087803b15801561082857600080fd5b505af115801561083c573d6000803e3d6000fd5b5050505061085a8d8d8d8d8d8d906108549190614911565b8c6126fd565b8651909450156108e5577f00000000000000000000000000000000000000000000000000000000000000006001600160a01b031663821b9fd88e886040518363ffffffff1660e01b81526004016108b2929190614a92565b600060405180830381600087803b1580156108cc57600080fd5b505af11580156108e0573d6000803e3d6000fd5b505050505b7f8621c3692c18d8ddd4cd26457d6a3e1d916e7001c4243a6c8dfa862a7e10a823848e873360405161091a9493929190614b40565b60405180910390a15050509998505050505050505050565b61098a6040518061012001604052806000815260200160008152602001600081526020016000815260200160008152602001600081526020016000815260200160006001600160a01b03168152602001600081525090565b604080516102a0810182526000610240820181815261026083018290526102808301829052825260208201819052818301819052606082018190526080820181905260a0820181905260c0820181905260e08201819052610100820181905261012082018190526101408201819052610160820181905261018082018190526101a082018190526101c082018190526101e08201819052610200820181905261022082015290517f5c550078000000000000000000000000000000000000000000000000000000008152600481018490526001600160a01b037f00000000000000000000000000000000000000000000000000000000000000001690635c550078906024015b61012060405180830381865afa158015610aae573d6000803e3d6000fd5b505050506040513d601f19601f82011682018060405250810190610ad29190614c04565b9150610add82612bc9565b9050915091565b6040517f6e49181f0000000000000000000000000000000000000000000000000000000081526004810186905233602482015286908690600a906001600160a01b037f00000000000000000000000000000000000000000000000000000000000000001690636e49181f90604401602060405180830381865afa158015610b6f573d6000803e3d6000fd5b505050506040513d601f19601f82011682018060405250810190610b939190614c21565b610b9f84848484612e58565b87600003610bd9576040517f7b38547b00000000000000000000000000000000000000000000000000000000815260040160405180910390fd5b6040517f43a266c2000000000000000000000000000000000000000000000000000000008152600481018a90526000907f00000000000000000000000000000000000000000000000000000000000000006001600160a01b0316906343a266c29060240161012060405180830381865afa158015610c5b573d6000803e3d6000fd5b505050506040513d601f19601f82011682018060405250810190610c7f9190614c04565b610100810151909150604b1c6001908116148015610d4257506040517f6e49181f000000000000000000000000000000000000000000000000000000008152600481018b90523360248201527f00000000000000000000000000000000000000000000000000000000000000006001600160a01b031690636e49181f90604401602060405180830381865afa158015610d1c573d6000803e3d6000fd5b505050506040513d601f19601f82011682018060405250810190610d409190614c21565b155b15610d79576040517f78a4871800000000000000000000000000000000000000000000000000000000815260040160405180910390fd5b610d828961302c565b60008b815260208190526040902054610d9b9190614c6d565b60008b8152602081905260409081902091909155517f906ebd0f0000000000000000000000000000000000000000000000000000000081526001600160a01b038c81166004830152602482018c9052604482018b905287151560648301527f0000000000000000000000000000000000000000000000000000000000000000169063906ebd0f90608401600060405180830381600087803b158015610e3f57600080fd5b505af1158015610e53573d6000803e3d6000fd5b50505050898b6001600160a01b03167fdf04e13ee4fcd48a81ab2fd114757093740a3efa9b6475d86e05878b4c59d0798b8b8b33604051610e979493929190614cdd565b60405180910390a35050505050505050505050565b610f046040518061012001604052806000815260200160008152602001600081526020016000815260200160008152602001600081526020016000815260200160006001600160a01b03168152602001600081525090565b604080516102a0810182526000610240820181815261026083018290526102808301829052825260208201819052918101829052606081018290526080810182905260a0810182905260c0810182905260e08101829052610100810182905261012081018290526101408101829052610160810182905261018081018290526101a081018290526101c081018290526101e0810182905261020081018290526102208101919091526040517febc8ca1f000000000000000000000000000000000000000000000000000000008152600481018490526000907f00000000000000000000000000000000000000000000000000000000000000006001600160a01b03169063ebc8ca1f9060240161014060405180830381865afa15801561102e573d6000803e3d6000fd5b505050506040513d601f19601f820116820180604052508101906110529190614d11565b909350905061106083612bc9565b91509193909250565b6040517f5dd8f6aa0000000000000000000000000000000000000000000000000000000081526004810183905230906001600160a01b037f00000000000000000000000000000000000000000000000000000000000000001690635dd8f6aa90602401602060405180830381865afa1580156110e9573d6000803e3d6000fd5b505050506040513d601f19601f8201168201806040525081019061110d91906148db565b6001600160a01b03160361114d576040517ffc2ce25a00000000000000000000000000000000000000000000000000000000815260040160405180910390fd5b6040517f75b0d9cd000000000000000000000000000000000000000000000000000000008152600481018390526111f8907f00000000000000000000000000000000000000000000000000000000000000006001600160a01b0316906375b0d9cd90602401602060405180830381865afa1580156111cf573d6000803e3d6000fd5b505050506040513d601f19601f820116820180604052508101906111f391906148f8565b61302c565b600083815260208181526040918290209290925580516001600160a01b0384168152339281019290925283917ff389f4f5d01fe4903d6a7a63b8790b7bf80d374b6afed808c03795c3b323d4d3910160405180910390a25050565b6040517f6352211e000000000000000000000000000000000000000000000000000000008152600481018390527f00000000000000000000000000000000000000000000000000000000000000006001600160a01b031690636352211e90602401602060405180830381865afa1580156112d1573d6000803e3d6000fd5b505050506040513d601f19601f820116820180604052508101906112f591906148db565b826003611303838383612534565b6040517f5dd8f6aa000000000000000000000000000000000000000000000000000000008152600481018690527f00000000000000000000000000000000000000000000000000000000000000009030906001600160a01b03831690635dd8f6aa90602401602060405180830381865afa158015611385573d6000803e3d6000fd5b505050506040513d601f19601f820116820180604052508101906113a991906148db565b6001600160a01b0316146113e9576040517fe0a0a87d00000000000000000000000000000000000000000000000000000000815260040160405180910390fd5b6040517f43a266c2000000000000000000000000000000000000000000000000000000008152600481018790526000907f00000000000000000000000000000000000000000000000000000000000000006001600160a01b0316906343a266c29060240161012060405180830381865afa15801561146b573d6000803e3d6000fd5b505050506040513d601f19601f8201168201806040525081019061148f9190614c04565b610100810151909150604e1c6001908116146114d7576040517f46ace3f900000000000000000000000000000000000000000000000000000000815260040160405180910390fd5b60008781526020819052604081205412806115a157506040517f75b0d9cd000000000000000000000000000000000000000000000000000000008152600481018890527f00000000000000000000000000000000000000000000000000000000000000006001600160a01b0316906375b0d9cd90602401602060405180830381865afa15801561156b573d6000803e3d6000fd5b505050506040513d601f19601f8201168201806040525081019061158f91906148f8565b60008881526020819052604090205414155b156115c1576115bf87604051806020016040528060008152506130e7565b505b6040517f3e8c615b000000000000000000000000000000000000000000000000000000008152600481018890523060248201526001600160a01b03871690633e8c615b90604401600060405180830381600087803b15801561162257600080fd5b505af1158015611636573d6000803e3d6000fd5b50506040517f714e7f32000000000000000000000000000000000000000000000000000000008152600481018a90526001600160a01b0389811660248301528516925063714e7f329150604401600060405180830381600087803b15801561169d57600080fd5b505af11580156116b1573d6000803e3d6000fd5b5050604080516001600160a01b038a1681523360208201528a93507f01f954abace731a88ab86e71186040cc2be49fe517ea06bc0d24f25b82b8345692500160405180910390a250505050505050565b6117596040518061012001604052806000815260200160008152602001600081526020016000815260200160008152602001600081526020016000815260200160006001600160a01b03168152602001600081525090565b604080516102a0810182526000610240820181815261026083018290526102808301829052825260208201819052818301819052606082018190526080820181905260a0820181905260c0820181905260e08201819052610100820181905261012082018190526101408201819052610160820181905261018082018190526101a082018190526101c082018190526101e08201819052610200820181905261022082015290517f43a266c2000000000000000000000000000000000000000000000000000000008152600481018490526001600160a01b037f000000000000000000000000000000000000000000000000000000000000000016906343a266c290602401610a90565b60008660000361189f576040517f9fd13e5400000000000000000000000000000000000000000000000000000000815260040160405180910390fd5b6040517f43a266c20000000000000000000000000000000000000000000000000000000081526004810189905260009081906001600160a01b037f000000000000000000000000000000000000000000000000000000000000000016906343a266c29060240161012060405180830381865afa158015611923573d6000803e3d6000fd5b505050506040513d601f19601f820116820180604052508101906119479190614c04565b6040517f6352211e000000000000000000000000000000000000000000000000000000008152600481018c9052909150611ac6906001600160a01b037f00000000000000000000000000000000000000000000000000000000000000001690636352211e90602401602060405180830381865afa1580156119cc573d6000803e3d6000fd5b505050506040513d601f19601f820116820180604052508101906119f091906148db565b6040517f6e49181f000000000000000000000000000000000000000000000000000000008152600481018d90523360248201528c906009906001600160a01b037f00000000000000000000000000000000000000000000000000000000000000001690636e49181f90604401602060405180830381865afa158015611a79573d6000803e3d6000fd5b505050506040513d601f19601f82011682018060405250810190611a9d9190614c21565b80611ac1575061010085015160541c6001600160a01b0316336001600160a01b0316145b612e58565b610100810151604c1c600190811614158015611b8757506040517f6e49181f000000000000000000000000000000000000000000000000000000008152600481018b90523360248201527f00000000000000000000000000000000000000000000000000000000000000006001600160a01b031690636e49181f90604401602060405180830381865afa158015611b61573d6000803e3d6000fd5b505050506040513d601f19601f82011682018060405250810190611b859190614c21565b155b8015611bad575061010081015160541c6001600160a01b0316336001600160a01b031614155b15611be4576040517f9d0ca8fd00000000000000000000000000000000000000000000000000000000815260040160405180910390fd5b83611bf0576000611bfe565b61010081015160181c61ffff165b9150600185151514611c1e5761010081015160501c600190811614611c20565b845b9450506127108103611c6257611c358861302c565b60008a815260208190526040902054611c4e9190614c6d565b60008a815260208190526040902055611d61565b611c7a88611c7283612710614d44565b61271061342f565b915080600003611cb657611c8d8261302c565b60008a815260208190526040902054611ca69190614d57565b60008a8152602081905260409020555b6040517fceddd3e40000000000000000000000000000000000000000000000000000000081526001600160a01b038881166004830152602482018b90526044820184905285151560648301527f0000000000000000000000000000000000000000000000000000000000000000169063ceddd3e490608401600060405180830381600087803b158015611d4857600080fd5b505af1158015611d5c573d6000803e3d6000fd5b505050505b88876001600160a01b03167fe6fee9c572244c0c2238c3112ac12d411750a7ee00eeebd32521c3e5a666c14b8a858a8a8733604051611da596959493929190614d7f565b60405180910390a350979650505050505050565b611e116040518061012001604052806000815260200160008152602001600081526020016000815260200160008152602001600081526020016000815260200160006001600160a01b03168152602001600081525090565b604080516102a0810182526000610240820181815261026083018290526102808301829052825260208201819052918101829052606081018290526080810182905260a0810182905260c0810182905260e08101829052610100810182905261012081018290526101408101829052610160810182905261018081018290526101a081018290526101c081018290526101e0810182905261020081018290526102208101919091526040517f669e48aa00000000000000000000000000000000000000000000000000000000815260048101859052602481018490527f00000000000000000000000000000000000000000000000000000000000000006001600160a01b03169063669e48aa9060440161012060405180830381865afa158015611f3f573d6000803e3d6000fd5b505050506040513d601f19601f82011682018060405250810190611f639190614c04565b9150611f6e82612bc9565b90509250929050565b6000807f000000000000000000000000000000000000000000000000000000000000000090507f00000000000000000000000000000000000000000000000000000000000000006001600160a01b031663666d87a08e8e6040518363ffffffff1660e01b8152600401611feb929190614dc1565b6020604051808303816000875af115801561200a573d6000803e3d6000fd5b505050506040513d601f19601f8201168201806040525081019061202e91906148f8565b6040517f714e7f32000000000000000000000000000000000000000000000000000000008152600481018290523060248201529092506001600160a01b0382169063714e7f3290604401600060405180830381600087803b15801561209257600080fd5b505af11580156120a6573d6000803e3d6000fd5b505050506000612118838d8d8d8d8d906120c09190614911565b8c8c808060200260200160405190810160405280939291908181526020016000905b8282101561210e576120ff60c08302860136819003810190614e60565b815260200190600101906120e2565b50505050506126fd565b85519091501561219c576040517f821b9fd80000000000000000000000000000000000000000000000000000000081526001600160a01b0383169063821b9fd8906121699086908990600401614a92565b600060405180830381600087803b15801561218357600080fd5b505af1158015612197573d6000803e3d6000fd5b505050505b7ff3e6948ba8b32d557363ea08470121c47c0127659aed09320812174d373afef2818486336040516121d19493929190614b40565b60405180910390a150509b9a5050505050505050505050565b6040517f75b0d9cd0000000000000000000000000000000000000000000000000000000081526004810183905260009081906001600160a01b037f000000000000000000000000000000000000000000000000000000000000000016906375b0d9cd90602401602060405180830381865afa15801561226d573d6000803e3d6000fd5b505050506040513d601f19601f8201168201806040525081019061229191906148f8565b600085815260208190526040812054919250906122af908584613533565b90506122bb8183614e7c565b95945050505050565b6040517f6352211e000000000000000000000000000000000000000000000000000000008152600481018b90526000907f00000000000000000000000000000000000000000000000000000000000000006001600160a01b031690636352211e90602401602060405180830381865afa158015612345573d6000803e3d6000fd5b505050506040513d601f19601f8201168201806040525081019061236991906148db565b8b6001612377838383612534565b6123d98e8e8e8e8e8e9061238b9190614911565b8d8d808060200260200160405190810160405280939291908181526020016000905b8282101561210e576123ca60c08302860136819003810190614e60565b815260200190600101906123ad565b93507f1a08ad37c93969a586fd0605d240c17113b20a9c9ac3847595d0ab425225f6af848f888833604051612412959493929190614e8f565b60405180910390a15050509a9950505050505050505050565b600061246d8484848080601f0160208091040260200160405190810160405280939291908181526020018383808284376000920191909152506130e792505050565b90505b9392505050565b6000828152602081905260408082205490517f75b0d9cd00000000000000000000000000000000000000000000000000000000815260048101859052612470919084907f00000000000000000000000000000000000000000000000000000000000000006001600160a01b0316906375b0d9cd90602401602060405180830381865afa15801561250b573d6000803e3d6000fd5b505050506040513d601f19601f8201168201806040525081019061252f91906148f8565b613533565b336001600160a01b0384161480159061260157506040517fc161c93f0000000000000000000000000000000000000000000000000000000081523360048201526001600160a01b03848116602483015260448201849052606482018390527f0000000000000000000000000000000000000000000000000000000000000000169063c161c93f90608401602060405180830381865afa1580156125db573d6000803e3d6000fd5b505050506040513d601f19601f820116820180604052508101906125ff9190614c21565b155b80156126c157506040517fc161c93f0000000000000000000000000000000000000000000000000000000081523360048201526001600160a01b03848116602483015260006044830152606482018390527f0000000000000000000000000000000000000000000000000000000000000000169063c161c93f90608401602060405180830381865afa15801561269b573d6000803e3d6000fd5b505050506040513d601f19601f820116820180604052508101906126bf9190614c21565b155b156126f8576040517f075fd2b100000000000000000000000000000000000000000000000000000000815260040160405180910390fd5b505050565b60006127108560600135111561273f576040517f5623289500000000000000000000000000000000000000000000000000000000815260040160405180910390fd5b6127108560800135111561277f576040517f9db9ee9300000000000000000000000000000000000000000000000000000000815260040160405180910390fd5b6127108560a0013511156127bf576040517fddbf1bc600000000000000000000000000000000000000000000000000000000815260040160405180910390fd5b60006001600160a01b037f00000000000000000000000000000000000000000000000000000000000000001663a249d4258989612809612804368c90038c018c614f40565b6135a6565b896040518563ffffffff1660e01b8152600401612829949392919061508e565b610120604051808303816000875af1158015612849573d6000803e3d6000fd5b505050506040513d601f19601f8201168201806040525081019061286d9190614c04565b60208101516040517ff2da44b60000000000000000000000000000000000000000000000000000000081529192506001600160a01b037f0000000000000000000000000000000000000000000000000000000000000000169163f2da44b6916128dd918c919089906004016150e2565b600060405180830381600087803b1580156128f757600080fd5b505af115801561290b573d6000803e3d6000fd5b5050505060005b8351811015612bb957600084828151811061292f5761292f61520b565b602002602001015190507cffffffffffffffffffffffffffffffffffffffffffffffffffffffffff801681604001511115612996576040517fa9b8fbcf00000000000000000000000000000000000000000000000000000000815260040160405180910390fd5b606081015162ffffff10156129d7576040517f9583faed00000000000000000000000000000000000000000000000000000000815260040160405180910390fd5b60808101517cffffffffffffffffffffffffffffffffffffffffffffffffffffffffff1015612a32576040517f5730278300000000000000000000000000000000000000000000000000000000815260040160405180910390fd5b60a081015162ffffff1015612a73576040517fd9b93c2500000000000000000000000000000000000000000000000000000000815260040160405180910390fd5b604081015115612ad057606081015160408083015160008d815260016020908152838220888201518352815283822086516001600160a01b03908116845290825284832082880151909116835290529190912060e89290921b1790555b608081015115612b2d5760a0810151608082015160008c8152600260209081526040808320888301518452825280832086516001600160a01b039081168552908352818420838801519091168452909152902060e89290921b1790555b82516020808501516040805185516001600160a01b0390811682528685015116938101939093528085015190830152606080850151908301526080808501519083015260a080850151908301523360c08301528c92917f8a1c80ab9ab05d6bf02096dd94aa2fa05a9de212e793835a50dd5ffe8d8cbab89060e00160405180910390a450600101612912565b5060200151979650505050505050565b604080516102a0810182526000610240820181815261026083018290526102808301829052825260208201819052918101829052606081018290526080810182905260a0810182905260c0810182905260e08101829052610100810182905261012081018290526101408101829052610160810182905261018081018290526101a081018290526101c081018290526101e081018290526102008101829052610220810191909152604051806102400160405280612c868461375d565b815261010084015160209091019060181c61ffff168152602001612ca9846137d1565b8152602001612cb7846137ee565b8152602001612cd3846101000151600160489190911c81161490565b15158152602001612cf1846101000151600160499190911c81161490565b15158152602001612d0f8461010001516001604a9190911c81161490565b15158152602001612d2d8461010001516001604b9190911c81161490565b15158152602001612d4b8461010001516001604c9190911c81161490565b15158152602001612d698461010001516001604d9190911c81161490565b15158152602001612d878461010001516001604e9190911c81161490565b15158152602001612da58461010001516001604f9190911c81161490565b15158152602001612dc3846101000151600160509190911c81161490565b15158152602001612de1846101000151600160519190911c81161490565b15158152602001612dff846101000151600160529190911c81161490565b15158152602001612e1d846101000151600160539190911c81161490565b15158152602001612e3384610100015160541c90565b6001600160a01b0316815261010084015160209091019060f41c60ff16905292915050565b80158015612e6f5750336001600160a01b03851614155b8015612f2f57506040517fc161c93f0000000000000000000000000000000000000000000000000000000081523360048201526001600160a01b03858116602483015260448201859052606482018490527f0000000000000000000000000000000000000000000000000000000000000000169063c161c93f90608401602060405180830381865afa158015612f09573d6000803e3d6000fd5b505050506040513d601f19601f82011682018060405250810190612f2d9190614c21565b155b8015612fef57506040517fc161c93f0000000000000000000000000000000000000000000000000000000081523360048201526001600160a01b03858116602483015260006044830152606482018490527f0000000000000000000000000000000000000000000000000000000000000000169063c161c93f90608401602060405180830381865afa158015612fc9573d6000803e3d6000fd5b505050506040513d601f19601f82011682018060405250810190612fed9190614c21565b155b15613026576040517f075fd2b100000000000000000000000000000000000000000000000000000000815260040160405180910390fd5b50505050565b60007f7fffffffffffffffffffffffffffffffffffffffffffffffffffffffffffffff8211156130e3576040517f08c379a000000000000000000000000000000000000000000000000000000000815260206004820152602860248201527f53616665436173743a2076616c756520646f65736e27742066697420696e206160448201527f6e20696e7432353600000000000000000000000000000000000000000000000060648201526084015b60405180910390fd5b5090565b6040517f43a266c2000000000000000000000000000000000000000000000000000000008152600481018390526000907f00000000000000000000000000000000000000000000000000000000000000009082907f00000000000000000000000000000000000000000000000000000000000000006001600160a01b0316906343a266c29060240161012060405180830381865afa15801561318d573d6000803e3d6000fd5b505050506040513d601f19601f820116820180604052508101906131b19190614c04565b6040517f75b0d9cd000000000000000000000000000000000000000000000000000000008152600481018790529091506000906001600160a01b038416906375b0d9cd90602401602060405180830381865afa158015613215573d6000803e3d6000fd5b505050506040513d601f19601f8201168201806040525081019061323991906148f8565b6000878152602081905260409020546101008401519192506132629160181c61ffff1683613533565b93506132716111f38583614e7c565b6000878152602081905260408082209290925590517f6352211e000000000000000000000000000000000000000000000000000000008152600481018890527f00000000000000000000000000000000000000000000000000000000000000006001600160a01b031690636352211e90602401602060405180830381865afa158015613301573d6000803e3d6000fd5b505050506040513d601f19601f8201168201806040525081019061332591906148db565b9050600085156133455761334088856020015160028961380b565b613348565b60005b905080156133da576040517fceddd3e40000000000000000000000000000000000000000000000000000000081526001600160a01b038381166004830152602482018a9052604482018390526000606483015286169063ceddd3e490608401600060405180830381600087803b1580156133c157600080fd5b505af11580156133d5573d6000803e3d6000fd5b505050505b87846000015185602001517fb12d7a78048433f69fe6d30145bf08aad8e82985b96e4db6d5c6a7e94d57086e858a868d3360405161341c95949392919061523a565b60405180910390a4505050505092915050565b600080807fffffffffffffffffffffffffffffffffffffffffffffffffffffffffffffffff858709858702925082811083820303915050806000036134875783828161347d5761347d61527e565b0492505050612470565b8381106134ca576040517f773cc18c00000000000000000000000000000000000000000000000000000000815260048101829052602481018590526044016130da565b60008486880960026001871981018816978890046003810283188082028403028082028403028082028403028082028403028082028403029081029092039091026000889003889004909101858311909403939093029303949094049190911702949350505050565b600080600085121561355757613548856152ad565b6135529084614e7c565b613561565b6135618584614d44565b905080600003613575576000915050612470565b6127108403613585579050612470565b8061359c816127106135978882614d44565b61342f565b6122bb9190614d44565b80516001906008906135b790613c4c565b901b8117905060188260200151901b81179050602882604001516127106135de9190614d44565b901b81179050603882606001516127106135f89190614d44565b901b81179050816080015115613615576901000000000000000000175b8160a001511561362c576902000000000000000000175b8160c0015115613643576904000000000000000000175b8160e001511561365a576908000000000000000000175b81610100015115613672576910000000000000000000175b8161012001511561368a576920000000000000000000175b816101400151156136a2576940000000000000000000175b816101600151156136ba576980000000000000000000175b816101800151156136d3576a0100000000000000000000175b816101a00151156136ec576a0200000000000000000000175b816101c0015115613705576a0400000000000000000000175b816101e001511561371e576a0800000000000000000000175b6102008201516102209092015160f41b7e0ffffffffffffffffffffffffffffffffffffffff00000000000000000000060549390931b92909216171790565b60408051606081018252600080825260208201819052918101919091526106116008836101000151901c604080516060808201835260008083526020808401829052928401528251908101835260018481168114825284811c811681149282019290925260029390931c8116149082015290565b60006028826101000151901c61ffff166127106106119190614d44565b60006038826101000151901c61ffff166127106106119190614d44565b6040517f69e11cc500000000000000000000000000000000000000000000000000000000815260048101859052602481018490526044810183905281907f0000000000000000000000000000000000000000000000000000000000000000906000907f00000000000000000000000000000000000000000000000000000000000000006001600160a01b0316906369e11cc590606401600060405180830381865afa1580156138be573d6000803e3d6000fd5b505050506040513d6000823e601f3d9081017fffffffffffffffffffffffffffffffffffffffffffffffffffffffffffffffe016820160405261390491908101906152e5565b905060005b8151811015613c415760008282815181106139265761392661520b565b602002602001015190506000613945878360400151633b9aca0061342f565b90508015613bf95760c08201516001600160a01b038087169163ceddd3e49116613a445783606001516000036139975760808401516001600160a01b031661398d5733613a4a565b8360800151613a4a565b60608401516040517f6352211e00000000000000000000000000000000000000000000000000000000815260048101919091527f00000000000000000000000000000000000000000000000000000000000000006001600160a01b031690636352211e90602401602060405180830381865afa158015613a1b573d6000803e3d6000fd5b505050506040513d601f19601f82011682018060405250810190613a3f91906148db565b613a4a565b8360c001515b845160405160e084901b7fffffffff000000000000000000000000000000000000000000000000000000001681526001600160a01b039092166004830152602482018e90526044820185905215156064820152608401600060405180830381600087803b158015613aba57600080fd5b505af1158015613ace573d6000803e3d6000fd5b5050505060c08201516001600160a01b031615613bec578160c001516001600160a01b0316639d740bfa6040518060c00160405280886001600160a01b031663ea78803f8f6040518263ffffffff1660e01b8152600401613b3191815260200190565b602060405180830381865afa158015613b4e573d6000803e3d6000fd5b505050506040513d601f19601f82011682018060405250810190613b7291906148db565b6001600160a01b03168152602001848152602001601281526020018d81526020018b8152602001858152506040518263ffffffff1660e01b8152600401613bb991906153ef565b600060405180830381600087803b158015613bd357600080fd5b505af1158015613be7573d6000803e3d6000fd5b505050505b613bf68187614d44565b95505b87898b7f990c1da5d280602f972ae3c429b6dc66a66569875205cc6e67f14e0b3fc4d2ac858533604051613c2f93929190615481565b60405180910390a45050600101613909565b505050949350505050565b805160009015613c5a576001175b816020015115613c68576002175b816040015115613c76576004175b919050565b600060208284031215613c8d57600080fd5b81357fffffffff000000000000000000000000000000000000000000000000000000008116811461247057600080fd5b600060808284031215613ccf57600080fd5b50919050565b60006102808284031215613ccf57600080fd5b60008083601f840112613cfa57600080fd5b50813567ffffffffffffffff811115613d1257600080fd5b6020830191508360208260051b8501011115613d2d57600080fd5b9250929050565b7f4e487b7100000000000000000000000000000000000000000000000000000000600052604160045260246000fd5b6040805190810167ffffffffffffffff81118282101715613d8657613d86613d34565b60405290565b60405160e0810167ffffffffffffffff81118282101715613d8657613d86613d34565b604051610120810167ffffffffffffffff81118282101715613d8657613d86613d34565b604051610240810167ffffffffffffffff81118282101715613d8657613d86613d34565b604051601f82017fffffffffffffffffffffffffffffffffffffffffffffffffffffffffffffffe016810167ffffffffffffffff81118282101715613e3e57613e3e613d34565b604052919050565b600067ffffffffffffffff821115613e6057613e60613d34565b5060051b60200190565b6001600160a01b0381168114613e7f57600080fd5b50565b8035613c7681613e6a565b600060c08284031215613e9f57600080fd5b60405160c0810181811067ffffffffffffffff82111715613ec257613ec2613d34565b6040529050808235613ed381613e6a565b81526020830135613ee381613e6a565b8060208301525060408301356040820152606083013560608201526080830135608082015260a083013560a08201525092915050565b600082601f830112613f2a57600080fd5b81356020613f3f613f3a83613e46565b613df7565b82815260c09283028501820192828201919087851115613f5e57600080fd5b8387015b85811015613f8157613f748982613e8d565b8452928401928101613f62565b5090979650505050505050565b600082601f830112613f9f57600080fd5b81356020613faf613f3a83613e46565b82815260059290921b84018101918181019086841115613fce57600080fd5b8286015b84811015613ff2578035613fe581613e6a565b8352918301918301613fd2565b509695505050505050565b600082601f83011261400e57600080fd5b813567ffffffffffffffff81111561402857614028613d34565b61405960207fffffffffffffffffffffffffffffffffffffffffffffffffffffffffffffffe0601f84011601613df7565b81815284602083860101111561406e57600080fd5b816020850160208301376000918101602001919091529392505050565b60008060008060008060008060006103c08a8c0312156140aa57600080fd5b893598506140bb8b60208c01613cbd565b97506140ca8b60a08c01613cd5565b96506103208a013595506103408a013567ffffffffffffffff808211156140f057600080fd5b6140fc8d838e01613ce8565b90975095506103608c013591508082111561411657600080fd5b6141228d838e01613f19565b94506103808c013591508082111561413957600080fd5b6141458d838e01613f8e565b93506103a08c013591508082111561415c57600080fd5b506141698c828d01613ffd565b9150509295985092959850929598565b60006020828403121561418b57600080fd5b5035919050565b6141b78282518051151582526020808201511515908301526040908101511515910152565b6020810151606083015260408101516080830152606081015160a083015260808101516141e860c084018215159052565b5060a081015180151560e08401525060c081015161010061420c8185018315159052565b60e083015191506101206142238186018415159052565b9083015191506101409061423a8583018415159052565b830151915061016061424f8582018415159052565b908301519150610180906142668583018415159052565b83015191506101a061427b8582018415159052565b9083015191506101c0906142928583018415159052565b83015191506101e06142a78582018415159052565b908301519150610200906142be8583018415159052565b83015191506102206142d38582018415159052565b908301516001600160a01b0316610240850152909101516102609092019190915250565b6103a081016143648285805182526020810151602083015260408101516040830152606081015160608301526080810151608083015260a081015160a083015260c081015160c08301526001600160a01b0360e08201511660e08301526101008082015181840152505050565b612470610120830184614192565b60008083601f84011261438457600080fd5b50813567ffffffffffffffff81111561439c57600080fd5b602083019150836020828501011115613d2d57600080fd5b8015158114613e7f57600080fd5b8035613c76816143b4565b60008060008060008060a087890312156143e657600080fd5b86356143f181613e6a565b95506020870135945060408701359350606087013567ffffffffffffffff81111561441b57600080fd5b61442789828a01614372565b909450925050608087013561443b816143b4565b809150509295509295509295565b6103c081016144b68286805182526020810151602083015260408101516040830152606081015160608301526080810151608083015260a081015160a083015260c081015160c08301526001600160a01b0360e08201511660e08301526101008082015181840152505050565b6144c4610120830185614192565b600383106144fb577f4e487b7100000000000000000000000000000000000000000000000000000000600052602160045260246000fd5b826103a0830152949350505050565b6000806040838503121561451d57600080fd5b82359150602083013561452f81613e6a565b809150509250929050565b6000806000806080858703121561455057600080fd5b8435935060208501359250604085013561456981613e6a565b9150606085013561457981613e6a565b939692955090935050565b600080600080600080600060c0888a03121561459f57600080fd5b873596506020880135955060408801356145b881613e6a565b9450606088013567ffffffffffffffff8111156145d457600080fd5b6145e08a828b01614372565b90955093505060808801356145f4816143b4565b915060a0880135614604816143b4565b8091505092959891949750929550565b6000806040838503121561462757600080fd5b50508035926020909101359150565b600060408284031215613ccf57600080fd5b60008083601f84011261465a57600080fd5b50813567ffffffffffffffff81111561467257600080fd5b60208301915083602060c083028501011115613d2d57600080fd5b60008060008060008060008060008060006103e08c8e0312156146af57600080fd5b6146b88c613e82565b9a5067ffffffffffffffff8060208e013511156146d457600080fd5b6146e48e60208f01358f01614636565b9a506146f38e60408f01613cbd565b99506147028e60c08f01613cd5565b98506103408d01359750806103608e0135111561471e57600080fd5b61472f8e6103608f01358f01613ce8565b90975095506103808d013581101561474657600080fd5b6147578e6103808f01358f01614648565b90955093506103a08d013581101561476e57600080fd5b61477f8e6103a08f01358f01613f8e565b9250806103c08e0135111561479357600080fd5b506147a58d6103c08e01358e01613ffd565b90509295989b509295989b9093969950565b6000806000806000806000806000806103a08b8d0312156147d757600080fd5b8a3599506147e88c60208d01613cbd565b98506147f78c60a08d01613cd5565b97506103208b013596506103408b013567ffffffffffffffff8082111561481d57600080fd5b6148298e838f01613ce8565b90985096506103608d013591508082111561484357600080fd5b61484f8e838f01614648565b90965094506103808d013591508082111561486957600080fd5b506148768d828e01614372565b915080935050809150509295989b9194979a5092959850565b6000806000604084860312156148a457600080fd5b83359250602084013567ffffffffffffffff8111156148c257600080fd5b6148ce86828701614372565b9497909650939450505050565b6000602082840312156148ed57600080fd5b815161247081613e6a565b60006020828403121561490a57600080fd5b5051919050565b600061491f613f3a84613e46565b80848252602080830192508560051b85013681111561493d57600080fd5b855b81811015614a8657803567ffffffffffffffff808211156149605760008081fd5b818901915060408083360312156149775760008081fd5b61497f613d63565b8335815286840135838111156149955760008081fd5b939093019236601f8501126149ac57600092508283fd5b833592506149bc613f3a84613e46565b83815260e093840285018801938882019190368611156149dc5760008081fd5b958901955b85871015614a70578087360312156149f95760008081fd5b614a01613d8c565b8735614a0c816143b4565b8152878b0135614a1b816143b4565b818c0152878601358682015260608089013590820152608080890135614a4081613e6a565b9082015260a0888101359082015260c080890135614a5d81613e6a565b90820152835295860195918901916149e1565b508289015250885250505093820193820161493f565b50919695505050505050565b6000604082018483526020604081850152818551808452606086019150828701935060005b81811015613f815784516001600160a01b031683529383019391830191600101614ab7565b6000815180845260005b81811015614b0257602081850181015186830182015201614ae6565b5060006020828601015260207fffffffffffffffffffffffffffffffffffffffffffffffffffffffffffffffe0601f83011685010191505092915050565b848152836020820152608060408201526000614b5f6080830185614adc565b90506001600160a01b038316606083015295945050505050565b8051613c7681613e6a565b60006101208284031215614b9757600080fd5b614b9f613daf565b9050815181526020820151602082015260408201516040820152606082015160608201526080820151608082015260a082015160a082015260c082015160c0820152614bed60e08301614b79565b60e082015261010080830151818301525092915050565b60006101208284031215614c1757600080fd5b6124708383614b84565b600060208284031215614c3357600080fd5b8151612470816143b4565b7f4e487b7100000000000000000000000000000000000000000000000000000000600052601160045260246000fd5b8181036000831280158383131683831282161715614c8d57614c8d614c3e565b5092915050565b8183528181602085013750600060208284010152600060207fffffffffffffffffffffffffffffffffffffffffffffffffffffffffffffffe0601f840116840101905092915050565b848152606060208201526000614cf7606083018587614c94565b90506001600160a01b038316604083015295945050505050565b6000806101408385031215614d2557600080fd5b614d2f8484614b84565b91506101208301516003811061452f57600080fd5b8181038181111561061157610611614c3e565b8082018281126000831280158216821582161715614d7757614d77614c3e565b505092915050565b86815285602082015260a060408201526000614d9f60a083018688614c94565b90508360608301526001600160a01b0383166080830152979650505050505050565b6001600160a01b038316815260406020820152600082357fffffffffffffffffffffffffffffffffffffffffffffffffffffffffffffffe1843603018112614e0857600080fd5b830160208101903567ffffffffffffffff811115614e2557600080fd5b803603821315614e3457600080fd5b604080850152614e48608085018284614c94565b91505060208401356060840152809150509392505050565b600060c08284031215614e7257600080fd5b6124708383613e8d565b8082018082111561061157610611614c3e565b858152846020820152608060408201526000614eaf608083018587614c94565b90506001600160a01b03831660608301529695505050505050565b600060608284031215614edc57600080fd5b6040516060810181811067ffffffffffffffff82111715614eff57614eff613d34565b6040529050808235614f10816143b4565b81526020830135614f20816143b4565b60208201526040830135614f33816143b4565b6040919091015292915050565b60006102808284031215614f5357600080fd5b614f5b613dd3565b614f658484614eca565b8152606083013560208201526080830135604082015260a08301356060820152614f9160c084016143c2565b6080820152614fa260e084016143c2565b60a0820152610100614fb58185016143c2565b60c0830152610120614fc88186016143c2565b60e0840152610140614fdb8187016143c2565b838501526101609250614fef8387016143c2565b8285015261018091506150038287016143c2565b908401526101a06150158682016143c2565b838501526101c092506150298387016143c2565b828501526101e0915061503d8287016143c2565b9084015261020061504f8682016143c2565b8385015261022092506150638387016143c2565b828501526150746102408701613e82565b908401525061026093909301359281019290925250919050565b600060e08201905085825284356020830152602085013560408301526040850135606083015260608501356150c281613e6a565b6001600160a01b0316608083015260a082019390935260c0015292915050565b60006060808301868452602086818601526040838187015282875180855260808801915060808160051b89010194508389016000805b838110156151f9578a88037fffffffffffffffffffffffffffffffffffffffffffffffffffffffffffffff800185528251805189528701518789018790528051878a018190529088019083908b8b01905b808310156151e4576151ce828551805115158252602081015115156020830152604081015160408301526060810151606083015260808101516001600160a01b03808216608085015260a083015160a08501528060c08401511660c085015250505050565b60e0820191508a84019350600183019250615169565b50995050509386019391860191600101615118565b50959c9b505050505050505050505050565b7f4e487b7100000000000000000000000000000000000000000000000000000000600052603260045260246000fd5b60006001600160a01b03808816835286602084015285604084015260a0606084015261526960a0840186614adc565b91508084166080840152509695505050505050565b7f4e487b7100000000000000000000000000000000000000000000000000000000600052601260045260246000fd5b60007f800000000000000000000000000000000000000000000000000000000000000082036152de576152de614c3e565b5060000390565b600060208083850312156152f857600080fd5b825167ffffffffffffffff81111561530f57600080fd5b8301601f8101851361532057600080fd5b805161532e613f3a82613e46565b81815260e0918202830184019184820191908884111561534d57600080fd5b938501935b838510156153e35780858a03121561536a5760008081fd5b615372613d8c565b855161537d816143b4565b81528587015161538c816143b4565b8188015260408681015190820152606080870151908201526080808701516153b381613e6a565b9082015260a0868101519082015260c0808701516153d081613e6a565b9082015283529384019391850191615352565b50979650505050505050565b81516001600160a01b0390811682526020808401518184015260408085015181850152606080860151818601526080808701518187015260a080880151805115158289015294850151151560c0808901919091529385015160e0880152918401516101008701528301518416610120860152820151610140850152810151909116610160830152610180820190614c8d565b61012081016154e28286805115158252602081015115156020830152604081015160408301526060810151606083015260808101516001600160a01b03808216608085015260a083015160a08501528060c08401511660c085015250505050565b8360e08301526001600160a01b03831661010083015294935050505056fea2646970667358221220c813e2e669d146bdc00018d307ef793685698dbd149a5fe361dccbd5737f3d3864736f6c63430008100033",
  "devdoc": {
    "details": "Adheres to - IJBController: General interface for the generic controller methods in this contract that interacts with funding cycles and tokens according to the protocol's rules. IJBMigratable: Allows migrating to this contract, with a hook called to prepare for the migration.Inherits from - JBOperatable: Several functions in this contract can only be accessed by a project owner, or an address that has been preconfifigured to be an operator of the project. ERC165: Introspection on interface adherance. ",
    "kind": "dev",
    "methods": {
      "burnTokensOf(address,uint256,uint256,string,bool)": {
        "details": "Only a token's holder, a designated operator, or a project's terminal can burn it.",
        "params": {
          "_holder": "The account that is having its tokens burned.",
          "_memo": "A memo to pass along to the emitted event.",
          "_preferClaimedTokens": "A flag indicating whether a project's attached token contract should be burned first if they have been issued.",
          "_projectId": "The ID of the project to which the tokens being burned belong.",
          "_tokenCount": "The number of tokens to burn."
        }
      },
      "constructor": {
        "params": {
          "_directory": "A contract storing directories of terminals and controllers for each project.",
          "_fundingCycleStore": "A contract storing all funding cycle configurations.",
          "_operatorStore": "A contract storing operator assignments.",
          "_projects": "A contract which mints ERC-721's that represent project ownership and transfers.",
          "_splitsStore": "A contract that stores splits for each project.",
          "_tokenStore": "A contract that manages token minting and burning."
        }
      },
      "currentFundingCycleOf(uint256)": {
        "params": {
          "_projectId": "The ID of the project to which the funding cycle belongs."
        },
        "returns": {
          "fundingCycle": "The current funding cycle.",
          "metadata": "The current funding cycle's metadata."
        }
      },
      "distributeReservedTokensOf(uint256,string)": {
        "params": {
          "_memo": "A memo to pass along to the emitted event.",
          "_projectId": "The ID of the project to which the reserved tokens belong."
        },
        "returns": {
          "_0": "The amount of minted reserved tokens."
        }
      },
      "distributionLimitOf(uint256,uint256,address,address)": {
        "details": "The number of decimals in the returned fixed point amount is the same as that of the specified terminal. ",
        "params": {
          "_configuration": "The configuration during which the distribution limit applies.",
          "_projectId": "The ID of the project to get the distribution limit of.",
          "_terminal": "The terminal from which distributions are being limited.",
          "_token": "The token for which the distribution limit applies."
        },
        "returns": {
          "_0": "The distribution limit, as a fixed point number with the same number of decimals as the provided terminal.",
          "_1": "The currency of the distribution limit."
        }
      },
      "getFundingCycleOf(uint256,uint256)": {
        "params": {
          "_projectId": "The ID of the project to which the funding cycle belongs."
        },
        "returns": {
          "fundingCycle": "The funding cycle.",
          "metadata": "The funding cycle's metadata."
        }
      },
      "latestConfiguredFundingCycleOf(uint256)": {
        "params": {
          "_projectId": "The ID of the project to which the funding cycle belongs."
        },
        "returns": {
          "ballotState": "The state of the configuration.",
          "fundingCycle": "The latest configured funding cycle.",
          "metadata": "The latest configured funding cycle's metadata."
        }
      },
      "launchFundingCyclesFor(uint256,(uint256,uint256,uint256,address),((bool,bool,bool),uint256,uint256,uint256,bool,bool,bool,bool,bool,bool,bool,bool,bool,bool,bool,bool,address,uint256),uint256,(uint256,(bool,bool,uint256,uint256,address,uint256,address)[])[],(address,address,uint256,uint256,uint256,uint256)[],address[],string)": {
        "details": "Each operation within this transaction can be done in sequence separately.Only a project owner or operator can launch its funding cycles.",
        "params": {
          "_data": "Data that defines the project's first funding cycle. These properties will remain fixed for the duration of the funding cycle.",
          "_fundAccessConstraints": "An array containing amounts that a project can use from its treasury for each payment terminal. Amounts are fixed point numbers using the same number of decimals as the accompanying terminal. The `_distributionLimit` and `_overflowAllowance` parameters must fit in a `uint232`.",
          "_groupedSplits": "An array of splits to set for any number of groups. ",
          "_memo": "A memo to pass along to the emitted event.",
          "_metadata": "Metadata specifying the controller specific params that a funding cycle can have. These properties will remain fixed for the duration of the funding cycle.",
          "_mustStartAtOrAfter": "The time before which the configured funding cycle cannot start.",
          "_projectId": "The ID of the project to launch funding cycles for.",
          "_terminals": "Payment terminals to add for the project."
        },
        "returns": {
          "configuration": "The configuration of the funding cycle that was successfully created."
        }
      },
      "launchProjectFor(address,(string,uint256),(uint256,uint256,uint256,address),((bool,bool,bool),uint256,uint256,uint256,bool,bool,bool,bool,bool,bool,bool,bool,bool,bool,bool,bool,address,uint256),uint256,(uint256,(bool,bool,uint256,uint256,address,uint256,address)[])[],(address,address,uint256,uint256,uint256,uint256)[],address[],string)": {
        "details": "Each operation within this transaction can be done in sequence separately.Anyone can deploy a project on an owner's behalf.",
        "params": {
          "_data": "Data that defines the project's first funding cycle. These properties will remain fixed for the duration of the funding cycle.",
          "_fundAccessConstraints": "An array containing amounts that a project can use from its treasury for each payment terminal. Amounts are fixed point numbers using the same number of decimals as the accompanying terminal. The `_distributionLimit` and `_overflowAllowance` parameters must fit in a `uint232`.",
          "_groupedSplits": "An array of splits to set for any number of groups. ",
          "_memo": "A memo to pass along to the emitted event.",
          "_metadata": "Metadata specifying the controller specific params that a funding cycle can have. These properties will remain fixed for the duration of the funding cycle.",
          "_mustStartAtOrAfter": "The time before which the configured funding cycle cannot start.",
          "_owner": "The address to set as the owner of the project. The project ERC-721 will be owned by this address.",
          "_projectMetadata": "Metadata to associate with the project within a particular domain. This can be updated any time by the owner of the project.",
          "_terminals": "Payment terminals to add for the project."
        },
        "returns": {
          "projectId": "The ID of the project."
        }
      },
      "migrate(uint256,address)": {
        "details": "Only a project's owner or a designated operator can migrate it.",
        "params": {
          "_projectId": "The ID of the project that will be migrated from this controller.",
          "_to": "The controller to which the project is migrating."
        }
      },
      "mintTokensOf(uint256,uint256,address,string,bool,bool)": {
        "details": "Only a project's owner, a designated operator, one of its terminals, or the current data source can mint its tokens.",
        "params": {
          "_beneficiary": "The account that the tokens are being minted for.",
          "_memo": "A memo to pass along to the emitted event.",
          "_preferClaimedTokens": "A flag indicating whether a project's attached token contract should be minted if they have been issued.",
          "_projectId": "The ID of the project to which the tokens being minted belong.",
          "_tokenCount": "The amount of tokens to mint in total, counting however many should be reserved.",
          "_useReservedRate": "Whether to use the current funding cycle's reserved rate in the mint calculation."
        },
        "returns": {
          "beneficiaryTokenCount": "The amount of tokens minted for the beneficiary."
        }
      },
      "overflowAllowanceOf(uint256,uint256,address,address)": {
        "details": "The number of decimals in the returned fixed point amount is the same as that of the specified terminal. ",
        "params": {
          "_configuration": "The configuration of the during which the allowance applies.",
          "_projectId": "The ID of the project to get the overflow allowance of.",
          "_terminal": "The terminal managing the overflow.",
          "_token": "The token for which the overflow allowance applies."
        },
        "returns": {
          "_0": "The overflow allowance, as a fixed point number with the same number of decimals as the provided terminal.",
          "_1": "The currency of the overflow allowance."
        }
      },
      "prepForMigrationOf(uint256,address)": {
        "details": "This controller should not yet be the project's controller.",
        "params": {
          "_from": "The controller being migrated from.",
          "_projectId": "The ID of the project that will be migrated to this controller."
        }
      },
      "queuedFundingCycleOf(uint256)": {
        "params": {
          "_projectId": "The ID of the project to which the funding cycle belongs."
        },
        "returns": {
          "fundingCycle": "The queued funding cycle.",
          "metadata": "The queued funding cycle's metadata."
        }
      },
      "reconfigureFundingCyclesOf(uint256,(uint256,uint256,uint256,address),((bool,bool,bool),uint256,uint256,uint256,bool,bool,bool,bool,bool,bool,bool,bool,bool,bool,bool,bool,address,uint256),uint256,(uint256,(bool,bool,uint256,uint256,address,uint256,address)[])[],(address,address,uint256,uint256,uint256,uint256)[],string)": {
        "details": "Only a project's owner or a designated operator can configure its funding cycles.",
        "params": {
          "_data": "Data that defines the funding cycle. These properties will remain fixed for the duration of the funding cycle.",
          "_fundAccessConstraints": "An array containing amounts that a project can use from its treasury for each payment terminal. Amounts are fixed point numbers using the same number of decimals as the accompanying terminal. The `_distributionLimit` and `_overflowAllowance` parameters must fit in a `uint232`.",
          "_groupedSplits": "An array of splits to set for any number of groups. ",
          "_memo": "A memo to pass along to the emitted event.",
          "_metadata": "Metadata specifying the controller specific params that a funding cycle can have. These properties will remain fixed for the duration of the funding cycle.",
          "_mustStartAtOrAfter": "The time before which the configured funding cycle cannot start.",
          "_projectId": "The ID of the project whose funding cycles are being reconfigured."
        },
        "returns": {
          "configuration": "The configuration of the funding cycle that was successfully reconfigured."
        }
      },
      "reservedTokenBalanceOf(uint256,uint256)": {
        "params": {
          "_projectId": "The ID of the project to get a reserved token balance of.",
          "_reservedRate": "The reserved rate to use when making the calculation."
        },
        "returns": {
          "_0": "The current amount of reserved tokens."
        }
      },
      "supportsInterface(bytes4)": {
        "details": " See {IERC165-supportsInterface}.",
        "params": {
          "_interfaceId": "The ID of the interface to check for adherance to."
        }
      },
      "totalOutstandingTokensOf(uint256,uint256)": {
        "params": {
          "_projectId": "The ID of the project to get total outstanding tokens of.",
          "_reservedRate": "The reserved rate to use when making the calculation."
        },
        "returns": {
          "_0": "The current total amount of outstanding tokens for the project."
        }
      }
    },
    "stateVariables": {
      "_packedDistributionLimitDataOf": {
        "details": "bits 0-231: The amount of token that a project can distribute per funding cycle.bits 232-255: The currency of amount that a project can distribute. _projectId The ID of the project to get the packed distribution limit data of. _configuration The configuration during which the packed distribution limit data applies. _terminal The terminal from which distributions are being limited. _token The token for which distributions are being limited."
      },
      "_packedOverflowAllowanceDataOf": {
        "details": "bits 0-231: The amount of overflow that a project is allowed to tap into on-demand throughout the configuration.bits 232-255: The currency of the amount of overflow that a project is allowed to tap. _projectId The ID of the project to get the packed overflow allowance data of. _configuration The configuration during which the packed overflow allowance data applies. _terminal The terminal managing the overflow. _token The token for which overflow is being allowed."
      }
    },
    "version": 1
  },
  "userdoc": {
    "errors": {
      "PRBMath__MulDivOverflow(uint256,uint256)": [
        {
          "notice": "Emitted when the result overflows uint256."
        }
      ]
    },
    "kind": "user",
    "methods": {
      "burnTokensOf(address,uint256,uint256,string,bool)": {
        "notice": "Burns a token holder's supply."
      },
      "currentFundingCycleOf(uint256)": {
        "notice": "A project's current funding cycle along with its metadata."
      },
      "directory()": {
        "notice": "The directory of terminals and controllers for projects."
      },
      "distributeReservedTokensOf(uint256,string)": {
        "notice": "Distributes all outstanding reserved tokens for a project."
      },
      "distributionLimitOf(uint256,uint256,address,address)": {
        "notice": "The amount of token that a project can distribute per funding cycle, and the currency it's in terms of."
      },
      "fundingCycleStore()": {
        "notice": "The contract storing all funding cycle configurations."
      },
      "getFundingCycleOf(uint256,uint256)": {
        "notice": "A project's funding cycle for the specified configuration along with its metadata."
      },
      "latestConfiguredFundingCycleOf(uint256)": {
        "notice": "A project's latest configured funding cycle along with its metadata and the ballot state of the configuration."
      },
      "launchFundingCyclesFor(uint256,(uint256,uint256,uint256,address),((bool,bool,bool),uint256,uint256,uint256,bool,bool,bool,bool,bool,bool,bool,bool,bool,bool,bool,bool,address,uint256),uint256,(uint256,(bool,bool,uint256,uint256,address,uint256,address)[])[],(address,address,uint256,uint256,uint256,uint256)[],address[],string)": {
        "notice": "Creates a funding cycle for an already existing project ERC-721."
      },
      "launchProjectFor(address,(string,uint256),(uint256,uint256,uint256,address),((bool,bool,bool),uint256,uint256,uint256,bool,bool,bool,bool,bool,bool,bool,bool,bool,bool,bool,bool,address,uint256),uint256,(uint256,(bool,bool,uint256,uint256,address,uint256,address)[])[],(address,address,uint256,uint256,uint256,uint256)[],address[],string)": {
        "notice": "Creates a project. This will mint an ERC-721 into the specified owner's account, configure a first funding cycle, and set up any splits."
      },
      "migrate(uint256,address)": {
        "notice": "Allows a project to migrate from this controller to another."
      },
      "mintTokensOf(uint256,uint256,address,string,bool,bool)": {
        "notice": "Mint new token supply into an account, and optionally reserve a supply to be distributed according to the project's current funding cycle configuration."
      },
      "operatorStore()": {
        "notice": " A contract storing operator assignments."
      },
      "overflowAllowanceOf(uint256,uint256,address,address)": {
        "notice": "The amount of overflow that a project is allowed to tap into on-demand throughout a configuration, and the currency it's in terms of."
      },
      "prepForMigrationOf(uint256,address)": {
        "notice": "Allows other controllers to signal to this one that a migration is expected for the specified project."
      },
      "projects()": {
        "notice": "Mints ERC-721's that represent project ownership."
      },
      "queuedFundingCycleOf(uint256)": {
        "notice": "A project's queued funding cycle along with its metadata."
      },
      "reconfigureFundingCyclesOf(uint256,(uint256,uint256,uint256,address),((bool,bool,bool),uint256,uint256,uint256,bool,bool,bool,bool,bool,bool,bool,bool,bool,bool,bool,bool,address,uint256),uint256,(uint256,(bool,bool,uint256,uint256,address,uint256,address)[])[],(address,address,uint256,uint256,uint256,uint256)[],string)": {
        "notice": "Proposes a configuration of a subsequent funding cycle that will take effect once the current one expires if it is approved by the current funding cycle's ballot."
      },
      "reservedTokenBalanceOf(uint256,uint256)": {
        "notice": "Gets the amount of reserved tokens that a project has available to distribute."
      },
      "splitsStore()": {
        "notice": "The contract that stores splits for each project."
      },
      "supportsInterface(bytes4)": {
        "notice": "Indicates if this contract adheres to the specified interface."
      },
      "tokenStore()": {
        "notice": "The contract that manages token minting and burning."
      },
      "totalOutstandingTokensOf(uint256,uint256)": {
        "notice": "Gets the current total amount of outstanding tokens for a project, given a reserved rate."
      }
    },
    "notice": "Stitches together funding cycles and project tokens, making sure all activity is accounted for and correct.",
    "version": 1
  },
  "storageLayout": {
    "storage": [
      {
        "astId": 5613,
        "contract": "contracts/JBController.sol:JBController",
        "label": "_processedTokenTrackerOf",
        "offset": 0,
        "slot": "0",
        "type": "t_mapping(t_uint256,t_int256)"
      },
      {
        "astId": 5625,
        "contract": "contracts/JBController.sol:JBController",
        "label": "_packedDistributionLimitDataOf",
        "offset": 0,
        "slot": "1",
        "type": "t_mapping(t_uint256,t_mapping(t_uint256,t_mapping(t_contract(IJBPaymentTerminal)19165,t_mapping(t_address,t_uint256))))"
      },
      {
        "astId": 5637,
        "contract": "contracts/JBController.sol:JBController",
        "label": "_packedOverflowAllowanceDataOf",
        "offset": 0,
        "slot": "2",
        "type": "t_mapping(t_uint256,t_mapping(t_uint256,t_mapping(t_contract(IJBPaymentTerminal)19165,t_mapping(t_address,t_uint256))))"
      }
    ],
    "types": {
      "t_address": {
        "encoding": "inplace",
        "label": "address",
        "numberOfBytes": "20"
      },
      "t_contract(IJBPaymentTerminal)19165": {
        "encoding": "inplace",
        "label": "contract IJBPaymentTerminal",
        "numberOfBytes": "20"
      },
      "t_int256": {
        "encoding": "inplace",
        "label": "int256",
        "numberOfBytes": "32"
      },
      "t_mapping(t_address,t_uint256)": {
        "encoding": "mapping",
        "key": "t_address",
        "label": "mapping(address => uint256)",
        "numberOfBytes": "32",
        "value": "t_uint256"
      },
      "t_mapping(t_contract(IJBPaymentTerminal)19165,t_mapping(t_address,t_uint256))": {
        "encoding": "mapping",
        "key": "t_contract(IJBPaymentTerminal)19165",
        "label": "mapping(contract IJBPaymentTerminal => mapping(address => uint256))",
        "numberOfBytes": "32",
        "value": "t_mapping(t_address,t_uint256)"
      },
      "t_mapping(t_uint256,t_int256)": {
        "encoding": "mapping",
        "key": "t_uint256",
        "label": "mapping(uint256 => int256)",
        "numberOfBytes": "32",
        "value": "t_int256"
      },
      "t_mapping(t_uint256,t_mapping(t_contract(IJBPaymentTerminal)19165,t_mapping(t_address,t_uint256)))": {
        "encoding": "mapping",
        "key": "t_uint256",
        "label": "mapping(uint256 => mapping(contract IJBPaymentTerminal => mapping(address => uint256)))",
        "numberOfBytes": "32",
        "value": "t_mapping(t_contract(IJBPaymentTerminal)19165,t_mapping(t_address,t_uint256))"
      },
      "t_mapping(t_uint256,t_mapping(t_uint256,t_mapping(t_contract(IJBPaymentTerminal)19165,t_mapping(t_address,t_uint256))))": {
        "encoding": "mapping",
        "key": "t_uint256",
        "label": "mapping(uint256 => mapping(uint256 => mapping(contract IJBPaymentTerminal => mapping(address => uint256))))",
        "numberOfBytes": "32",
        "value": "t_mapping(t_uint256,t_mapping(t_contract(IJBPaymentTerminal)19165,t_mapping(t_address,t_uint256)))"
      },
      "t_uint256": {
        "encoding": "inplace",
        "label": "uint256",
        "numberOfBytes": "32"
      }
    }
  }
}