{
  "address": "0xA7866827381F6D595E9D71863996E9487Df10203",
  "abi": [
    {
      "anonymous": false,
      "inputs": [
        {
          "indexed": true,
          "internalType": "contract IJBProjectPayer",
          "name": "projectPayer",
          "type": "address"
        },
        {
          "indexed": false,
          "internalType": "uint256",
          "name": "defaultProjectId",
          "type": "uint256"
        },
        {
          "indexed": false,
          "internalType": "address",
          "name": "defaultBeneficiary",
          "type": "address"
        },
        {
          "indexed": false,
          "internalType": "bool",
          "name": "defaultPreferClaimedTokens",
          "type": "bool"
        },
        {
          "indexed": false,
          "internalType": "string",
          "name": "defaultMemo",
          "type": "string"
        },
        {
          "indexed": false,
          "internalType": "bytes",
          "name": "defaultMetadata",
          "type": "bytes"
        },
        {
          "indexed": false,
          "internalType": "bool",
          "name": "preferAddToBalance",
          "type": "bool"
        },
        {
          "indexed": false,
          "internalType": "contract IJBDirectory",
          "name": "directory",
          "type": "address"
        },
        {
          "indexed": false,
          "internalType": "address",
          "name": "owner",
          "type": "address"
        },
        {
          "indexed": false,
          "internalType": "address",
          "name": "caller",
          "type": "address"
        }
      ],
      "name": "DeployProjectPayer",
      "type": "event"
    },
    {
      "inputs": [
        {
          "internalType": "uint256",
          "name": "_defaultProjectId",
          "type": "uint256"
        },
        {
          "internalType": "address payable",
          "name": "_defaultBeneficiary",
          "type": "address"
        },
        {
          "internalType": "bool",
          "name": "_defaultPreferClaimedTokens",
          "type": "bool"
        },
        {
          "internalType": "string",
          "name": "_defaultMemo",
          "type": "string"
        },
        {
          "internalType": "bytes",
          "name": "_defaultMetadata",
          "type": "bytes"
        },
        {
          "internalType": "bool",
          "name": "_defaultPreferAddToBalance",
          "type": "bool"
        },
        {
          "internalType": "contract IJBDirectory",
          "name": "_directory",
          "type": "address"
        },
        {
          "internalType": "address",
          "name": "_owner",
          "type": "address"
        }
      ],
      "name": "deployProjectPayer",
      "outputs": [
        {
          "internalType": "contract IJBProjectPayer",
          "name": "projectPayer",
          "type": "address"
        }
      ],
      "stateMutability": "nonpayable",
      "type": "function"
    }
  ],
  "transactionHash": "0x580b241ea49f791c41f224c6f5c52dc5c827a3f340afb08ff784d29c17da6806",
  "args": [],
  "numDeployments": 1,
  "solcInputHash": "3acc7b3c9b8919c9df6123eedbb6312b",
  "bytecode": "0x608060405234801561001057600080fd5b50612af7806100206000396000f3fe608060405234801561001057600080fd5b506004361061002b5760003560e01c8063281a9f4414610030575b600080fd5b61004361003e36600461023e565b61006c565b60405173ffffffffffffffffffffffffffffffffffffffff909116815260200160405180910390f35b600088888888888888886040516100829061011c565b61009398979695949392919061036b565b604051809103906000f0801580156100af573d6000803e3d6000fd5b5090508073ffffffffffffffffffffffffffffffffffffffff167f727d4d4c40bee220af4fdbae0c157cb7a5e5f2ce9c3e9676e8f615cd88bc85df8a8a8a8a8a8a8a8a33604051610108999897969594939291906103e1565b60405180910390a298975050505050505050565b612660806200046283390190565b73ffffffffffffffffffffffffffffffffffffffff8116811461014c57600080fd5b50565b8035801515811461015f57600080fd5b919050565b7f4e487b7100000000000000000000000000000000000000000000000000000000600052604160045260246000fd5b600082601f8301126101a457600080fd5b813567ffffffffffffffff808211156101bf576101bf610164565b604051601f83017fffffffffffffffffffffffffffffffffffffffffffffffffffffffffffffffe0908116603f0116810190828211818310171561020557610205610164565b8160405283815286602085880101111561021e57600080fd5b836020870160208301376000602085830101528094505050505092915050565b600080600080600080600080610100898b03121561025b57600080fd5b88359750602089013561026d8161012a565b965061027b60408a0161014f565b9550606089013567ffffffffffffffff8082111561029857600080fd5b6102a48c838d01610193565b965060808b01359150808211156102ba57600080fd5b506102c78b828c01610193565b9450506102d660a08a0161014f565b925060c08901356102e68161012a565b915060e08901356102f68161012a565b809150509295985092959890939650565b6000815180845260005b8181101561032d57602081850181015186830182015201610311565b5060006020828601015260207fffffffffffffffffffffffffffffffffffffffffffffffffffffffffffffffe0601f83011685010191505092915050565b60006101008a835273ffffffffffffffffffffffffffffffffffffffff808b16602085015289151560408501528160608501526103aa8285018a610307565b915083820360808501526103be8289610307565b96151560a085015294851660c08401525050911660e09091015295945050505050565b60006101208b835273ffffffffffffffffffffffffffffffffffffffff808c1660208501528a151560408501528160608501526104208285018b610307565b91508382036080850152610434828a610307565b97151560a085015295861660c0840152505091831660e0830152909116610100909101529594505050505056fe60a06040523480156200001157600080fd5b506040516200266038038062002660833981016040819052620000349162000201565b6200003f33620000bd565b600188905560028054871515600160a01b026001600160a81b03199091166001600160a01b038a161717905560036200007986826200036b565b5060046200008885826200036b565b506005805460ff19168415151790556001600160a01b038216608052620000af81620000bd565b505050505050505062000437565b600080546001600160a01b038381166001600160a01b0319831681178455604051919092169283917f8be0079c531659141344cd1fd0a4f28419497f9722a3daafe3b4186f6b6457e09190a35050565b6001600160a01b03811681146200012357600080fd5b50565b805180151581146200013757600080fd5b919050565b634e487b7160e01b600052604160045260246000fd5b600082601f8301126200016457600080fd5b81516001600160401b03808211156200018157620001816200013c565b604051601f8301601f19908116603f01168101908282118183101715620001ac57620001ac6200013c565b81604052838152602092508683858801011115620001c957600080fd5b600091505b83821015620001ed5785820183015181830184015290820190620001ce565b600093810190920192909252949350505050565b600080600080600080600080610100898b0312156200021f57600080fd5b88519750602089015162000233816200010d565b96506200024360408a0162000126565b60608a01519096506001600160401b03808211156200026157600080fd5b6200026f8c838d0162000152565b965060808b01519150808211156200028657600080fd5b50620002958b828c0162000152565b945050620002a660a08a0162000126565b925060c0890151620002b8816200010d565b60e08a0151909250620002cb816200010d565b809150509295985092959890939650565b600181811c90821680620002f157607f821691505b6020821081036200031257634e487b7160e01b600052602260045260246000fd5b50919050565b601f8211156200036657600081815260208120601f850160051c81016020861015620003415750805b601f850160051c820191505b8181101562000362578281556001016200034d565b5050505b505050565b81516001600160401b038111156200038757620003876200013c565b6200039f81620003988454620002dc565b8462000318565b602080601f831160018114620003d75760008415620003be5750858301515b600019600386901b1c1916600185901b17855562000362565b600085815260208120601f198616915b828110156200040857888601518255948401946001909101908401620003e7565b5085821015620004275787850151600019600388901b60f8161c191681555b5050505050600190811b01905550565b6080516121ff6200046160003960008181610520015281816105a4015261080801526121ff6000f3fe6080604052600436106100e15760003560e01c80638293fee61161007f578063a4919eb111610059578063a4919eb1146104c7578063b96053df146104f9578063c41c2f241461050e578063f2fde38b1461054257600080fd5b80638293fee61461047c5780638da5cb5b1461048f57806393b7f154146104ad57600080fd5b80633ce9830b116100bb5780633ce9830b146103e957806354ab58af1461040d578063715018a6146104455780637e6465491461045a57600080fd5b806301ffc9a71461038157806309a6b7e5146103b65780630e45f78e146103c957600080fd5b3661037c5760055460ff161561021a5761021860015461eeee4760126003805461010a9061194f565b80601f01602080910402602001604051908101604052809291908181526020018280546101369061194f565b80156101835780601f1061015857610100808354040283529160200191610183565b820191906000526020600020905b81548152906001019060200180831161016657829003601f168201915b5050505050600480546101959061194f565b80601f01602080910402602001604051908101604052809291908181526020018280546101c19061194f565b801561020e5780601f106101e35761010080835404028352916020019161020e565b820191906000526020600020905b8154815290600101906020018083116101f157829003601f168201915b5050505050610562565b005b600154600254610218919061eeee9047906012906001600160a01b03161561024d576002546001600160a01b031661024f565b325b6000600260149054906101000a900460ff166003805461026e9061194f565b80601f016020809104026020016040519081016040528092919081815260200182805461029a9061194f565b80156102e75780601f106102bc576101008083540402835291602001916102e7565b820191906000526020600020905b8154815290600101906020018083116102ca57829003601f168201915b5050505050600480546102f99061194f565b80601f01602080910402602001604051908101604052809291908181526020018280546103259061194f565b80156103725780601f1061034757610100808354040283529160200191610372565b820191906000526020600020905b81548152906001019060200180831161035557829003601f168201915b50505050506107c6565b600080fd5b34801561038d57600080fd5b506103a161039c3660046119a2565b610a66565b60405190151581526020015b60405180910390f35b6102186103c4366004611a42565b610aff565b3480156103d557600080fd5b506102186103e4366004611be2565b610d02565b3480156103f557600080fd5b506103ff60015481565b6040519081526020016103ad565b34801561041957600080fd5b5060025461042d906001600160a01b031681565b6040516001600160a01b0390911681526020016103ad565b34801561045157600080fd5b50610218610f84565b34801561046657600080fd5b5061046f611004565b6040516103ad9190611d09565b61021861048a366004611d1c565b611092565b34801561049b57600080fd5b506000546001600160a01b031661042d565b3480156104b957600080fd5b506005546103a19060ff1681565b3480156104d357600080fd5b506002546103a19074010000000000000000000000000000000000000000900460ff1681565b34801561050557600080fd5b5061046f61129b565b34801561051a57600080fd5b5061042d7f000000000000000000000000000000000000000000000000000000000000000081565b34801561054e57600080fd5b5061021861055d366004611df8565b6112a8565b6040517f86202650000000000000000000000000000000000000000000000000000000008152600481018790526001600160a01b0386811660248301526000917f000000000000000000000000000000000000000000000000000000000000000090911690638620265090604401602060405180830381865afa1580156105ed573d6000803e3d6000fd5b505050506040513d601f19601f820116820180604052508101906106119190611e15565b90506001600160a01b038116610653576040517ffba10dd600000000000000000000000000000000000000000000000000000000815260040160405180910390fd5b6040517fb7bad1b10000000000000000000000000000000000000000000000000000000081526001600160a01b03878116600483015285919083169063b7bad1b190602401602060405180830381865afa1580156106b5573d6000803e3d6000fd5b505050506040513d601f19601f820116820180604052508101906106d99190611e32565b14610710576040517fb972592400000000000000000000000000000000000000000000000000000000815260040160405180910390fd5b6001600160a01b03861661eeee14610736576107366001600160a01b03871682876113be565b60006001600160a01b03871661eeee14610751576000610753565b855b9050816001600160a01b0316630cf8e858828a898b89896040518763ffffffff1660e01b815260040161078a959493929190611e4b565b6000604051808303818588803b1580156107a357600080fd5b505af11580156107b7573d6000803e3d6000fd5b50505050505050505050505050565b6040517f86202650000000000000000000000000000000000000000000000000000000008152600481018a90526001600160a01b0389811660248301526000917f000000000000000000000000000000000000000000000000000000000000000090911690638620265090604401602060405180830381865afa158015610851573d6000803e3d6000fd5b505050506040513d601f19601f820116820180604052508101906108759190611e15565b90506001600160a01b0381166108b7576040517ffba10dd600000000000000000000000000000000000000000000000000000000815260040160405180910390fd5b6040517fb7bad1b10000000000000000000000000000000000000000000000000000000081526001600160a01b038a8116600483015288919083169063b7bad1b190602401602060405180830381865afa158015610919573d6000803e3d6000fd5b505050506040513d601f19601f8201168201806040525081019061093d9190611e32565b14610974576040517fb972592400000000000000000000000000000000000000000000000000000000815260040160405180910390fd5b6001600160a01b03891661eeee1461099a5761099a6001600160a01b038a16828a6113be565b60006001600160a01b038a1661eeee146109b55760006109b7565b885b9050816001600160a01b0316631ebc263f828d8c8e60006001600160a01b03168d6001600160a01b0316036109ec57326109ee565b8c5b8c8c8c8c6040518a63ffffffff1660e01b8152600401610a15989796959493929190611e97565b60206040518083038185885af1158015610a33573d6000803e3d6000fd5b50505050506040513d601f19601f82011682018060405250810190610a589190611e32565b505050505050505050505050565b60007fffffffff0000000000000000000000000000000000000000000000000000000082167fd90c137e000000000000000000000000000000000000000000000000000000001480610af957507f01ffc9a7000000000000000000000000000000000000000000000000000000007fffffffff000000000000000000000000000000000000000000000000000000008316145b92915050565b6001600160a01b03871661eeee14610c79573415610b49576040517fbcfd35be00000000000000000000000000000000000000000000000000000000815260040160405180910390fd5b6040517f70a082310000000000000000000000000000000000000000000000000000000081523060048201526000906001600160a01b038916906370a0823190602401602060405180830381865afa158015610ba9573d6000803e3d6000fd5b505050506040513d601f19601f82011682018060405250810190610bcd9190611e32565b9050610be46001600160a01b03891633308a6115a9565b6040517f70a0823100000000000000000000000000000000000000000000000000000000815230600482015281906001600160a01b038a16906370a0823190602401602060405180830381865afa158015610c43573d6000803e3d6000fd5b505050506040513d601f19601f82011682018060405250810190610c679190611e32565b610c719190611f01565b965050610c81565b349550601294505b610cf88888888888888080601f01602080910402602001604051908101604052809392919081815260200183838082843760009201919091525050604080516020601f8c018190048102820181019092528a815292508a915089908190840183828082843760009201919091525061056292505050565b5050505050505050565b6000546001600160a01b03163314610d7b576040517f08c379a000000000000000000000000000000000000000000000000000000000815260206004820181905260248201527f4f776e61626c653a2063616c6c6572206973206e6f7420746865206f776e657260448201526064015b60405180910390fd5b6001548614610d8a5760018690555b6002546001600160a01b03868116911614610dd357600280547fffffffffffffffffffffffff0000000000000000000000000000000000000000166001600160a01b0387161790555b600260149054906101000a900460ff16151584151514610e3157600280547fffffffffffffffffffffff00ffffffffffffffffffffffffffffffffffffffff1674010000000000000000000000000000000000000000861515021790555b6003604051602001610e439190611fcc565b6040516020818303038152906040528051906020012083604051602001610e6a9190611fd8565b6040516020818303038152906040528051906020012014610e93576003610e918482612042565b505b6004604051602001610ea59190611fcc565b6040516020818303038152906040528051906020012082604051602001610ecc9190611fd8565b6040516020818303038152906040528051906020012014610ef5576004610ef38382612042565b505b60055460ff16151581151514610f3257600580547fffffffffffffffffffffffffffffffffffffffffffffffffffffffffffffff00168215151790555b846001600160a01b0316867f36b1c5cef608e320317b9ee5155756634c65fe7055b424ce57e2f6c59eec79478686868633604051610f7495949392919061215c565b60405180910390a3505050505050565b6000546001600160a01b03163314610ff8576040517f08c379a000000000000000000000000000000000000000000000000000000000815260206004820181905260248201527f4f776e61626c653a2063616c6c6572206973206e6f7420746865206f776e65726044820152606401610d72565b6110026000611600565b565b600480546110119061194f565b80601f016020809104026020016040519081016040528092919081815260200182805461103d9061194f565b801561108a5780601f1061105f5761010080835404028352916020019161108a565b820191906000526020600020905b81548152906001019060200180831161106d57829003601f168201915b505050505081565b6001600160a01b038a1661eeee1461120c5734156110dc576040517fbcfd35be00000000000000000000000000000000000000000000000000000000815260040160405180910390fd5b6040517f70a082310000000000000000000000000000000000000000000000000000000081523060048201526000906001600160a01b038c16906370a0823190602401602060405180830381865afa15801561113c573d6000803e3d6000fd5b505050506040513d601f19601f820116820180604052508101906111609190611e32565b90506111776001600160a01b038c1633308d6115a9565b6040517f70a0823100000000000000000000000000000000000000000000000000000000815230600482015281906001600160a01b038d16906370a0823190602401602060405180830381865afa1580156111d6573d6000803e3d6000fd5b505050506040513d601f19601f820116820180604052508101906111fa9190611e32565b6112049190611f01565b995050611214565b349850601297505b61128e8b8b8b8b8b8b8b8b8b8080601f01602080910402602001604051908101604052809392919081815260200183838082843760009201919091525050604080516020601f8f018190048102820181019092528d815292508d91508c90819084018382808284376000920191909152506107c692505050565b5050505050505050505050565b600380546110119061194f565b6000546001600160a01b0316331461131c576040517f08c379a000000000000000000000000000000000000000000000000000000000815260206004820181905260248201527f4f776e61626c653a2063616c6c6572206973206e6f7420746865206f776e65726044820152606401610d72565b6001600160a01b0381166113b2576040517f08c379a000000000000000000000000000000000000000000000000000000000815260206004820152602660248201527f4f776e61626c653a206e6577206f776e657220697320746865207a65726f206160448201527f64647265737300000000000000000000000000000000000000000000000000006064820152608401610d72565b6113bb81611600565b50565b80158061145157506040517fdd62ed3e0000000000000000000000000000000000000000000000000000000081523060048201526001600160a01b03838116602483015284169063dd62ed3e90604401602060405180830381865afa15801561142b573d6000803e3d6000fd5b505050506040513d601f19601f8201168201806040525081019061144f9190611e32565b155b6114dd576040517f08c379a000000000000000000000000000000000000000000000000000000000815260206004820152603660248201527f5361666545524332303a20617070726f76652066726f6d206e6f6e2d7a65726f60448201527f20746f206e6f6e2d7a65726f20616c6c6f77616e6365000000000000000000006064820152608401610d72565b6040516001600160a01b0383166024820152604481018290526115a49084907f095ea7b300000000000000000000000000000000000000000000000000000000906064015b604080517fffffffffffffffffffffffffffffffffffffffffffffffffffffffffffffffe08184030181529190526020810180517bffffffffffffffffffffffffffffffffffffffffffffffffffffffff167fffffffff0000000000000000000000000000000000000000000000000000000090931692909217909152611668565b505050565b6040516001600160a01b03808516602483015283166044820152606481018290526115fa9085907f23b872dd0000000000000000000000000000000000000000000000000000000090608401611522565b50505050565b600080546001600160a01b038381167fffffffffffffffffffffffff0000000000000000000000000000000000000000831681178455604051919092169283917f8be0079c531659141344cd1fd0a4f28419497f9722a3daafe3b4186f6b6457e09190a35050565b60006116bd826040518060400160405280602081526020017f5361666545524332303a206c6f772d6c6576656c2063616c6c206661696c6564815250856001600160a01b03166117679092919063ffffffff16565b8051909150156115a457808060200190518101906116db91906121ac565b6115a4576040517f08c379a000000000000000000000000000000000000000000000000000000000815260206004820152602a60248201527f5361666545524332303a204552433230206f7065726174696f6e20646964206e60448201527f6f742073756363656564000000000000000000000000000000000000000000006064820152608401610d72565b60606117768484600085611780565b90505b9392505050565b606082471015611812576040517f08c379a000000000000000000000000000000000000000000000000000000000815260206004820152602660248201527f416464726573733a20696e73756666696369656e742062616c616e636520666f60448201527f722063616c6c00000000000000000000000000000000000000000000000000006064820152608401610d72565b6001600160a01b0385163b611883576040517f08c379a000000000000000000000000000000000000000000000000000000000815260206004820152601d60248201527f416464726573733a2063616c6c20746f206e6f6e2d636f6e74726163740000006044820152606401610d72565b600080866001600160a01b0316858760405161189f9190611fd8565b60006040518083038185875af1925050503d80600081146118dc576040519150601f19603f3d011682016040523d82523d6000602084013e6118e1565b606091505b50915091506118f18282866118fc565b979650505050505050565b6060831561190b575081611779565b82511561191b5782518084602001fd5b816040517f08c379a0000000000000000000000000000000000000000000000000000000008152600401610d729190611d09565b600181811c9082168061196357607f821691505b60208210810361199c577f4e487b7100000000000000000000000000000000000000000000000000000000600052602260045260246000fd5b50919050565b6000602082840312156119b457600080fd5b81357fffffffff000000000000000000000000000000000000000000000000000000008116811461177957600080fd5b6001600160a01b03811681146113bb57600080fd5b60008083601f840112611a0b57600080fd5b50813567ffffffffffffffff811115611a2357600080fd5b602083019150836020828501011115611a3b57600080fd5b9250929050565b60008060008060008060008060c0898b031215611a5e57600080fd5b883597506020890135611a70816119e4565b96506040890135955060608901359450608089013567ffffffffffffffff80821115611a9b57600080fd5b611aa78c838d016119f9565b909650945060a08b0135915080821115611ac057600080fd5b50611acd8b828c016119f9565b999c989b5096995094979396929594505050565b80151581146113bb57600080fd5b8035611afa81611ae1565b919050565b7f4e487b7100000000000000000000000000000000000000000000000000000000600052604160045260246000fd5b600067ffffffffffffffff80841115611b4957611b49611aff565b604051601f85017fffffffffffffffffffffffffffffffffffffffffffffffffffffffffffffffe0908116603f01168101908282118183101715611b8f57611b8f611aff565b81604052809350858152868686011115611ba857600080fd5b858560208301376000602087830101525050509392505050565b600082601f830112611bd357600080fd5b61177983833560208501611b2e565b60008060008060008060c08789031215611bfb57600080fd5b863595506020870135611c0d816119e4565b94506040870135611c1d81611ae1565b9350606087013567ffffffffffffffff80821115611c3a57600080fd5b818901915089601f830112611c4e57600080fd5b611c5d8a833560208501611b2e565b94506080890135915080821115611c7357600080fd5b50611c8089828a01611bc2565b925050611c8f60a08801611aef565b90509295509295509295565b60005b83811015611cb6578181015183820152602001611c9e565b50506000910152565b60008151808452611cd7816020860160208601611c9b565b601f017fffffffffffffffffffffffffffffffffffffffffffffffffffffffffffffffe0169290920160200192915050565b6020815260006117796020830184611cbf565b60008060008060008060008060008060006101208c8e031215611d3e57600080fd5b8b359a50611d4f60208d01356119e4565b60208c0135995060408c0135985060608c01359750611d7160808d01356119e4565b60808c0135965060a08c01359550611d8b60c08d01611aef565b945067ffffffffffffffff8060e08e01351115611da757600080fd5b611db78e60e08f01358f016119f9565b90955093506101008d0135811015611dce57600080fd5b50611de08d6101008e01358e016119f9565b81935080925050509295989b509295989b9093969950565b600060208284031215611e0a57600080fd5b8135611779816119e4565b600060208284031215611e2757600080fd5b8151611779816119e4565b600060208284031215611e4457600080fd5b5051919050565b8581528460208201526001600160a01b038416604082015260a060608201526000611e7960a0830185611cbf565b8281036080840152611e8b8185611cbf565b98975050505050505050565b60006101008a83528960208401526001600160a01b03808a16604085015280891660608501525086608084015285151560a08401528060c0840152611ede81840186611cbf565b905082810360e0840152611ef28185611cbf565b9b9a5050505050505050505050565b81810381811115610af9577f4e487b7100000000000000000000000000000000000000000000000000000000600052601160045260246000fd5b60008154611f488161194f565b60018281168015611f605760018114611f9357611fc2565b7fffffffffffffffffffffffffffffffffffffffffffffffffffffffffffffff0084168752821515830287019450611fc2565b8560005260208060002060005b85811015611fb95781548a820152908401908201611fa0565b50505082870194505b5050505092915050565b60006117798284611f3b565b60008251611fea818460208701611c9b565b9190910192915050565b601f8211156115a457600081815260208120601f850160051c8101602086101561201b5750805b601f850160051c820191505b8181101561203a57828155600101612027565b505050505050565b815167ffffffffffffffff81111561205c5761205c611aff565b6120708161206a845461194f565b84611ff4565b602080601f8311600181146120c3576000841561208d5750858301515b7fffffffffffffffffffffffffffffffffffffffffffffffffffffffffffffffff600386901b1c1916600185901b17855561203a565b6000858152602081207fffffffffffffffffffffffffffffffffffffffffffffffffffffffffffffffe08616915b82811015612110578886015182559484019460019091019084016120f1565b508582101561214c57878501517fffffffffffffffffffffffffffffffffffffffffffffffffffffffffffffffff600388901b60f8161c191681555b5050505050600190811b01905550565b851515815260a06020820152600061217760a0830187611cbf565b82810360408401526121898187611cbf565b941515606084015250506001600160a01b03919091166080909101529392505050565b6000602082840312156121be57600080fd5b815161177981611ae156fea26469706673582212204e4505c397eb2b36cf44641a59725d66edf44c8baf891001275a0249c3b368a864736f6c63430008100033a2646970667358221220847f085a4831ed44416fc0fb47ef2a6642e375ce8b977497bcf83964442533f964736f6c63430008100033",
  "devdoc": {
    "details": "Adheres to - IJBETHERC20ProjectPayerDeployer:  General interface for the methods in this contract that interact with the blockchain's state according to the protocol's rules.",
    "kind": "dev",
    "methods": {
      "deployProjectPayer(uint256,address,bool,string,bytes,bool,address,address)": {
        "params": {
          "_defaultBeneficiary": "The address that'll receive the project's tokens when the project payer receives payments. ",
          "_defaultMemo": "The memo that'll be forwarded with the project payer's received payments. ",
          "_defaultMetadata": "The metadata that'll be forwarded with the project payer's received payments. ",
          "_defaultPreferAddToBalance": "A flag indicating if received payments should call the `pay` function or the `addToBalance` function of a project.",
          "_defaultPreferClaimedTokens": "A flag indicating whether issued tokens from the project payer's received payments should be automatically claimed into the beneficiary's wallet. ",
          "_defaultProjectId": "The ID of the project whose treasury should be forwarded the project payer contract's received payments.",
          "_directory": "A contract storing directories of terminals and controllers for each project.",
          "_owner": "The address that will own the project payer."
        },
        "returns": {
          "projectPayer": "The project payer contract."
        }
      }
    },
    "version": 1
  },
  "userdoc": {
    "kind": "user",
    "methods": {
      "deployProjectPayer(uint256,address,bool,string,bytes,bool,address,address)": {
        "notice": " Allows anyone to deploy a new project payer contract."
      }
    },
    "notice": " Deploys project payer contracts.",
    "version": 1
  },
  "storageLayout": {
    "storage": [],
    "types": null
  }
}