{
  "address": "0x55d4dfb578daA4d60380995ffF7a706471d7c719",
  "abi": [
    {
      "inputs": [
        {
          "internalType": "uint256",
          "name": "_baseWeightCurrency",
          "type": "uint256"
        },
        {
          "internalType": "contract IJBOperatorStore",
          "name": "_operatorStore",
          "type": "address"
        },
        {
          "internalType": "contract IJBProjects",
          "name": "_projects",
          "type": "address"
        },
        {
          "internalType": "contract IJBDirectory",
          "name": "_directory",
          "type": "address"
        },
        {
          "internalType": "contract IJBSplitsStore",
          "name": "_splitsStore",
          "type": "address"
        },
        {
          "internalType": "contract IJBPrices",
          "name": "_prices",
          "type": "address"
        },
        {
          "internalType": "contract IJBSingleTokenPaymentTerminalStore",
          "name": "_store",
          "type": "address"
        },
        {
          "internalType": "address",
          "name": "_owner",
          "type": "address"
        }
      ],
      "stateMutability": "nonpayable",
      "type": "constructor"
    },
    {
      "inputs": [],
      "name": "FEE_TOO_HIGH",
      "type": "error"
    },
    {
      "inputs": [],
      "name": "INADEQUATE_DISTRIBUTION_AMOUNT",
      "type": "error"
    },
    {
      "inputs": [],
      "name": "INADEQUATE_RECLAIM_AMOUNT",
      "type": "error"
    },
    {
      "inputs": [],
      "name": "INADEQUATE_TOKEN_COUNT",
      "type": "error"
    },
    {
      "inputs": [],
      "name": "NO_MSG_VALUE_ALLOWED",
      "type": "error"
    },
    {
      "inputs": [],
      "name": "PAY_TO_ZERO_ADDRESS",
      "type": "error"
    },
    {
      "inputs": [
        {
          "internalType": "uint256",
          "name": "prod1",
          "type": "uint256"
        },
        {
          "internalType": "uint256",
          "name": "denominator",
          "type": "uint256"
        }
      ],
      "name": "PRBMath__MulDivOverflow",
      "type": "error"
    },
    {
      "inputs": [],
      "name": "PROJECT_TERMINAL_MISMATCH",
      "type": "error"
    },
    {
      "inputs": [],
      "name": "REDEEM_TO_ZERO_ADDRESS",
      "type": "error"
    },
    {
      "inputs": [],
      "name": "TERMINAL_IN_SPLIT_ZERO_ADDRESS",
      "type": "error"
    },
    {
      "inputs": [],
      "name": "TERMINAL_TOKENS_INCOMPATIBLE",
      "type": "error"
    },
    {
      "inputs": [],
      "name": "UNAUTHORIZED",
      "type": "error"
    },
    {
      "anonymous": false,
      "inputs": [
        {
          "indexed": true,
          "internalType": "uint256",
          "name": "projectId",
          "type": "uint256"
        },
        {
          "indexed": false,
          "internalType": "uint256",
          "name": "amount",
          "type": "uint256"
        },
        {
          "indexed": false,
          "internalType": "uint256",
          "name": "refundedFees",
          "type": "uint256"
        },
        {
          "indexed": false,
          "internalType": "string",
          "name": "memo",
          "type": "string"
        },
        {
          "indexed": false,
          "internalType": "bytes",
          "name": "metadata",
          "type": "bytes"
        },
        {
          "indexed": false,
          "internalType": "address",
          "name": "caller",
          "type": "address"
        }
      ],
      "name": "AddToBalance",
      "type": "event"
    },
    {
      "anonymous": false,
      "inputs": [
        {
          "indexed": true,
          "internalType": "contract IJBPayDelegate",
          "name": "delegate",
          "type": "address"
        },
        {
          "components": [
            {
              "internalType": "address",
              "name": "payer",
              "type": "address"
            },
            {
              "internalType": "uint256",
              "name": "projectId",
              "type": "uint256"
            },
            {
              "internalType": "uint256",
              "name": "currentFundingCycleConfiguration",
              "type": "uint256"
            },
            {
              "components": [
                {
                  "internalType": "address",
                  "name": "token",
                  "type": "address"
                },
                {
                  "internalType": "uint256",
                  "name": "value",
                  "type": "uint256"
                },
                {
                  "internalType": "uint256",
                  "name": "decimals",
                  "type": "uint256"
                },
                {
                  "internalType": "uint256",
                  "name": "currency",
                  "type": "uint256"
                }
              ],
              "internalType": "struct JBTokenAmount",
              "name": "amount",
              "type": "tuple"
            },
            {
              "components": [
                {
                  "internalType": "address",
                  "name": "token",
                  "type": "address"
                },
                {
                  "internalType": "uint256",
                  "name": "value",
                  "type": "uint256"
                },
                {
                  "internalType": "uint256",
                  "name": "decimals",
                  "type": "uint256"
                },
                {
                  "internalType": "uint256",
                  "name": "currency",
                  "type": "uint256"
                }
              ],
              "internalType": "struct JBTokenAmount",
              "name": "forwardedAmount",
              "type": "tuple"
            },
            {
              "internalType": "uint256",
              "name": "projectTokenCount",
              "type": "uint256"
            },
            {
              "internalType": "address",
              "name": "beneficiary",
              "type": "address"
            },
            {
              "internalType": "bool",
              "name": "preferClaimedTokens",
              "type": "bool"
            },
            {
              "internalType": "string",
              "name": "memo",
              "type": "string"
            },
            {
              "internalType": "bytes",
              "name": "metadata",
              "type": "bytes"
            }
          ],
          "indexed": false,
          "internalType": "struct JBDidPayData",
          "name": "data",
          "type": "tuple"
        },
        {
          "indexed": false,
          "internalType": "uint256",
          "name": "delegatedAmount",
          "type": "uint256"
        },
        {
          "indexed": false,
          "internalType": "address",
          "name": "caller",
          "type": "address"
        }
      ],
      "name": "DelegateDidPay",
      "type": "event"
    },
    {
      "anonymous": false,
      "inputs": [
        {
          "indexed": true,
          "internalType": "contract IJBRedemptionDelegate",
          "name": "delegate",
          "type": "address"
        },
        {
          "components": [
            {
              "internalType": "address",
              "name": "holder",
              "type": "address"
            },
            {
              "internalType": "uint256",
              "name": "projectId",
              "type": "uint256"
            },
            {
              "internalType": "uint256",
              "name": "currentFundingCycleConfiguration",
              "type": "uint256"
            },
            {
              "internalType": "uint256",
              "name": "projectTokenCount",
              "type": "uint256"
            },
            {
              "components": [
                {
                  "internalType": "address",
                  "name": "token",
                  "type": "address"
                },
                {
                  "internalType": "uint256",
                  "name": "value",
                  "type": "uint256"
                },
                {
                  "internalType": "uint256",
                  "name": "decimals",
                  "type": "uint256"
                },
                {
                  "internalType": "uint256",
                  "name": "currency",
                  "type": "uint256"
                }
              ],
              "internalType": "struct JBTokenAmount",
              "name": "reclaimedAmount",
              "type": "tuple"
            },
            {
              "components": [
                {
                  "internalType": "address",
                  "name": "token",
                  "type": "address"
                },
                {
                  "internalType": "uint256",
                  "name": "value",
                  "type": "uint256"
                },
                {
                  "internalType": "uint256",
                  "name": "decimals",
                  "type": "uint256"
                },
                {
                  "internalType": "uint256",
                  "name": "currency",
                  "type": "uint256"
                }
              ],
              "internalType": "struct JBTokenAmount",
              "name": "forwardedAmount",
              "type": "tuple"
            },
            {
              "internalType": "address payable",
              "name": "beneficiary",
              "type": "address"
            },
            {
              "internalType": "string",
              "name": "memo",
              "type": "string"
            },
            {
              "internalType": "bytes",
              "name": "metadata",
              "type": "bytes"
            }
          ],
          "indexed": false,
          "internalType": "struct JBDidRedeemData",
          "name": "data",
          "type": "tuple"
        },
        {
          "indexed": false,
          "internalType": "uint256",
          "name": "delegatedAmount",
          "type": "uint256"
        },
        {
          "indexed": false,
          "internalType": "address",
          "name": "caller",
          "type": "address"
        }
      ],
      "name": "DelegateDidRedeem",
      "type": "event"
    },
    {
      "anonymous": false,
      "inputs": [
        {
          "indexed": true,
          "internalType": "uint256",
          "name": "fundingCycleConfiguration",
          "type": "uint256"
        },
        {
          "indexed": true,
          "internalType": "uint256",
          "name": "fundingCycleNumber",
          "type": "uint256"
        },
        {
          "indexed": true,
          "internalType": "uint256",
          "name": "projectId",
          "type": "uint256"
        },
        {
          "indexed": false,
          "internalType": "address",
          "name": "beneficiary",
          "type": "address"
        },
        {
          "indexed": false,
          "internalType": "uint256",
          "name": "amount",
          "type": "uint256"
        },
        {
          "indexed": false,
          "internalType": "uint256",
          "name": "distributedAmount",
          "type": "uint256"
        },
        {
          "indexed": false,
          "internalType": "uint256",
          "name": "fee",
          "type": "uint256"
        },
        {
          "indexed": false,
          "internalType": "uint256",
          "name": "beneficiaryDistributionAmount",
          "type": "uint256"
        },
        {
          "indexed": false,
          "internalType": "string",
          "name": "memo",
          "type": "string"
        },
        {
          "indexed": false,
          "internalType": "address",
          "name": "caller",
          "type": "address"
        }
      ],
      "name": "DistributePayouts",
      "type": "event"
    },
    {
      "anonymous": false,
      "inputs": [
        {
          "indexed": true,
          "internalType": "uint256",
          "name": "projectId",
          "type": "uint256"
        },
        {
          "indexed": true,
          "internalType": "uint256",
          "name": "domain",
          "type": "uint256"
        },
        {
          "indexed": true,
          "internalType": "uint256",
          "name": "group",
          "type": "uint256"
        },
        {
          "components": [
            {
              "internalType": "bool",
              "name": "preferClaimed",
              "type": "bool"
            },
            {
              "internalType": "bool",
              "name": "preferAddToBalance",
              "type": "bool"
            },
            {
              "internalType": "uint256",
              "name": "percent",
              "type": "uint256"
            },
            {
              "internalType": "uint256",
              "name": "projectId",
              "type": "uint256"
            },
            {
              "internalType": "address payable",
              "name": "beneficiary",
              "type": "address"
            },
            {
              "internalType": "uint256",
              "name": "lockedUntil",
              "type": "uint256"
            },
            {
              "internalType": "contract IJBSplitAllocator",
              "name": "allocator",
              "type": "address"
            }
          ],
          "indexed": false,
          "internalType": "struct JBSplit",
          "name": "split",
          "type": "tuple"
        },
        {
          "indexed": false,
          "internalType": "uint256",
          "name": "amount",
          "type": "uint256"
        },
        {
          "indexed": false,
          "internalType": "address",
          "name": "caller",
          "type": "address"
        }
      ],
      "name": "DistributeToPayoutSplit",
      "type": "event"
    },
    {
      "anonymous": false,
      "inputs": [
        {
          "indexed": true,
          "internalType": "uint256",
          "name": "projectId",
          "type": "uint256"
        },
        {
          "indexed": true,
          "internalType": "uint256",
          "name": "amount",
          "type": "uint256"
        },
        {
          "indexed": true,
          "internalType": "uint256",
          "name": "fee",
          "type": "uint256"
        },
        {
          "indexed": false,
          "internalType": "uint256",
          "name": "feeDiscount",
          "type": "uint256"
        },
        {
          "indexed": false,
          "internalType": "address",
          "name": "beneficiary",
          "type": "address"
        },
        {
          "indexed": false,
          "internalType": "address",
          "name": "caller",
          "type": "address"
        }
      ],
      "name": "HoldFee",
      "type": "event"
    },
    {
      "anonymous": false,
      "inputs": [
        {
          "indexed": true,
          "internalType": "uint256",
          "name": "projectId",
          "type": "uint256"
        },
        {
          "indexed": true,
          "internalType": "contract IJBPaymentTerminal",
          "name": "to",
          "type": "address"
        },
        {
          "indexed": false,
          "internalType": "uint256",
          "name": "amount",
          "type": "uint256"
        },
        {
          "indexed": false,
          "internalType": "address",
          "name": "caller",
          "type": "address"
        }
      ],
      "name": "Migrate",
      "type": "event"
    },
    {
      "anonymous": false,
      "inputs": [
        {
          "indexed": true,
          "internalType": "address",
          "name": "previousOwner",
          "type": "address"
        },
        {
          "indexed": true,
          "internalType": "address",
          "name": "newOwner",
          "type": "address"
        }
      ],
      "name": "OwnershipTransferred",
      "type": "event"
    },
    {
      "anonymous": false,
      "inputs": [
        {
          "indexed": true,
          "internalType": "uint256",
          "name": "fundingCycleConfiguration",
          "type": "uint256"
        },
        {
          "indexed": true,
          "internalType": "uint256",
          "name": "fundingCycleNumber",
          "type": "uint256"
        },
        {
          "indexed": true,
          "internalType": "uint256",
          "name": "projectId",
          "type": "uint256"
        },
        {
          "indexed": false,
          "internalType": "address",
          "name": "payer",
          "type": "address"
        },
        {
          "indexed": false,
          "internalType": "address",
          "name": "beneficiary",
          "type": "address"
        },
        {
          "indexed": false,
          "internalType": "uint256",
          "name": "amount",
          "type": "uint256"
        },
        {
          "indexed": false,
          "internalType": "uint256",
          "name": "beneficiaryTokenCount",
          "type": "uint256"
        },
        {
          "indexed": false,
          "internalType": "string",
          "name": "memo",
          "type": "string"
        },
        {
          "indexed": false,
          "internalType": "bytes",
          "name": "metadata",
          "type": "bytes"
        },
        {
          "indexed": false,
          "internalType": "address",
          "name": "caller",
          "type": "address"
        }
      ],
      "name": "Pay",
      "type": "event"
    },
    {
      "anonymous": false,
      "inputs": [
        {
          "indexed": true,
          "internalType": "uint256",
          "name": "projectId",
          "type": "uint256"
        },
        {
          "indexed": true,
          "internalType": "uint256",
          "name": "amount",
          "type": "uint256"
        },
        {
          "indexed": true,
          "internalType": "bool",
          "name": "wasHeld",
          "type": "bool"
        },
        {
          "indexed": false,
          "internalType": "address",
          "name": "beneficiary",
          "type": "address"
        },
        {
          "indexed": false,
          "internalType": "address",
          "name": "caller",
          "type": "address"
        }
      ],
      "name": "ProcessFee",
      "type": "event"
    },
    {
      "anonymous": false,
      "inputs": [
        {
          "indexed": true,
          "internalType": "uint256",
          "name": "fundingCycleConfiguration",
          "type": "uint256"
        },
        {
          "indexed": true,
          "internalType": "uint256",
          "name": "fundingCycleNumber",
          "type": "uint256"
        },
        {
          "indexed": true,
          "internalType": "uint256",
          "name": "projectId",
          "type": "uint256"
        },
        {
          "indexed": false,
          "internalType": "address",
          "name": "holder",
          "type": "address"
        },
        {
          "indexed": false,
          "internalType": "address",
          "name": "beneficiary",
          "type": "address"
        },
        {
          "indexed": false,
          "internalType": "uint256",
          "name": "tokenCount",
          "type": "uint256"
        },
        {
          "indexed": false,
          "internalType": "uint256",
          "name": "reclaimedAmount",
          "type": "uint256"
        },
        {
          "indexed": false,
          "internalType": "string",
          "name": "memo",
          "type": "string"
        },
        {
          "indexed": false,
          "internalType": "bytes",
          "name": "metadata",
          "type": "bytes"
        },
        {
          "indexed": false,
          "internalType": "address",
          "name": "caller",
          "type": "address"
        }
      ],
      "name": "RedeemTokens",
      "type": "event"
    },
    {
      "anonymous": false,
      "inputs": [
        {
          "indexed": true,
          "internalType": "uint256",
          "name": "projectId",
          "type": "uint256"
        },
        {
          "indexed": true,
          "internalType": "uint256",
          "name": "amount",
          "type": "uint256"
        },
        {
          "indexed": true,
          "internalType": "uint256",
          "name": "refundedFees",
          "type": "uint256"
        },
        {
          "indexed": false,
          "internalType": "uint256",
          "name": "leftoverAmount",
          "type": "uint256"
        },
        {
          "indexed": false,
          "internalType": "address",
          "name": "caller",
          "type": "address"
        }
      ],
      "name": "RefundHeldFees",
      "type": "event"
    },
    {
      "anonymous": false,
      "inputs": [
        {
          "indexed": false,
          "internalType": "uint256",
          "name": "fee",
          "type": "uint256"
        },
        {
          "indexed": false,
          "internalType": "address",
          "name": "caller",
          "type": "address"
        }
      ],
      "name": "SetFee",
      "type": "event"
    },
    {
      "anonymous": false,
      "inputs": [
        {
          "indexed": true,
          "internalType": "contract IJBFeeGauge",
          "name": "feeGauge",
          "type": "address"
        },
        {
          "indexed": false,
          "internalType": "address",
          "name": "caller",
          "type": "address"
        }
      ],
      "name": "SetFeeGauge",
      "type": "event"
    },
    {
      "anonymous": false,
      "inputs": [
        {
          "indexed": true,
          "internalType": "address",
          "name": "addrs",
          "type": "address"
        },
        {
          "indexed": true,
          "internalType": "bool",
          "name": "flag",
          "type": "bool"
        },
        {
          "indexed": false,
          "internalType": "address",
          "name": "caller",
          "type": "address"
        }
      ],
      "name": "SetFeelessAddress",
      "type": "event"
    },
    {
      "anonymous": false,
      "inputs": [
        {
          "indexed": true,
          "internalType": "uint256",
          "name": "fundingCycleConfiguration",
          "type": "uint256"
        },
        {
          "indexed": true,
          "internalType": "uint256",
          "name": "fundingCycleNumber",
          "type": "uint256"
        },
        {
          "indexed": true,
          "internalType": "uint256",
          "name": "projectId",
          "type": "uint256"
        },
        {
          "indexed": false,
          "internalType": "address",
          "name": "beneficiary",
          "type": "address"
        },
        {
          "indexed": false,
          "internalType": "uint256",
          "name": "amount",
          "type": "uint256"
        },
        {
          "indexed": false,
          "internalType": "uint256",
          "name": "distributedAmount",
          "type": "uint256"
        },
        {
          "indexed": false,
          "internalType": "uint256",
          "name": "netDistributedamount",
          "type": "uint256"
        },
        {
          "indexed": false,
          "internalType": "string",
          "name": "memo",
          "type": "string"
        },
        {
          "indexed": false,
          "internalType": "address",
          "name": "caller",
          "type": "address"
        }
      ],
      "name": "UseAllowance",
      "type": "event"
    },
    {
      "inputs": [
        {
          "internalType": "address",
          "name": "_token",
          "type": "address"
        },
        {
          "internalType": "uint256",
          "name": "_projectId",
          "type": "uint256"
        }
      ],
      "name": "acceptsToken",
      "outputs": [
        {
          "internalType": "bool",
          "name": "",
          "type": "bool"
        }
      ],
      "stateMutability": "view",
      "type": "function"
    },
    {
      "inputs": [
        {
          "internalType": "uint256",
          "name": "_projectId",
          "type": "uint256"
        },
        {
          "internalType": "uint256",
          "name": "_amount",
          "type": "uint256"
        },
        {
          "internalType": "address",
          "name": "_token",
          "type": "address"
        },
        {
          "internalType": "string",
          "name": "_memo",
          "type": "string"
        },
        {
          "internalType": "bytes",
          "name": "_metadata",
          "type": "bytes"
        }
      ],
      "name": "addToBalanceOf",
      "outputs": [],
      "stateMutability": "payable",
      "type": "function"
    },
    {
      "inputs": [],
      "name": "baseWeightCurrency",
      "outputs": [
        {
          "internalType": "uint256",
          "name": "",
          "type": "uint256"
        }
      ],
      "stateMutability": "view",
      "type": "function"
    },
    {
      "inputs": [],
      "name": "currency",
      "outputs": [
        {
          "internalType": "uint256",
          "name": "",
          "type": "uint256"
        }
      ],
      "stateMutability": "view",
      "type": "function"
    },
    {
      "inputs": [
        {
          "internalType": "address",
          "name": "_token",
          "type": "address"
        }
      ],
      "name": "currencyForToken",
      "outputs": [
        {
          "internalType": "uint256",
          "name": "",
          "type": "uint256"
        }
      ],
      "stateMutability": "view",
      "type": "function"
    },
    {
      "inputs": [
        {
          "internalType": "uint256",
          "name": "_projectId",
          "type": "uint256"
        }
      ],
      "name": "currentEthOverflowOf",
      "outputs": [
        {
          "internalType": "uint256",
          "name": "",
          "type": "uint256"
        }
      ],
      "stateMutability": "view",
      "type": "function"
    },
    {
      "inputs": [],
      "name": "decimals",
      "outputs": [
        {
          "internalType": "uint256",
          "name": "",
          "type": "uint256"
        }
      ],
      "stateMutability": "view",
      "type": "function"
    },
    {
      "inputs": [
        {
          "internalType": "address",
          "name": "_token",
          "type": "address"
        }
      ],
      "name": "decimalsForToken",
      "outputs": [
        {
          "internalType": "uint256",
          "name": "",
          "type": "uint256"
        }
      ],
      "stateMutability": "view",
      "type": "function"
    },
    {
      "inputs": [],
      "name": "directory",
      "outputs": [
        {
          "internalType": "contract IJBDirectory",
          "name": "",
          "type": "address"
        }
      ],
      "stateMutability": "view",
      "type": "function"
    },
    {
      "inputs": [
        {
          "internalType": "uint256",
          "name": "_projectId",
          "type": "uint256"
        },
        {
          "internalType": "uint256",
          "name": "_amount",
          "type": "uint256"
        },
        {
          "internalType": "uint256",
          "name": "_currency",
          "type": "uint256"
        },
        {
          "internalType": "address",
          "name": "_token",
          "type": "address"
        },
        {
          "internalType": "uint256",
          "name": "_minReturnedTokens",
          "type": "uint256"
        },
        {
          "internalType": "string",
          "name": "_memo",
          "type": "string"
        }
      ],
      "name": "distributePayoutsOf",
      "outputs": [
        {
          "internalType": "uint256",
          "name": "netLeftoverDistributionAmount",
          "type": "uint256"
        }
      ],
      "stateMutability": "nonpayable",
      "type": "function"
    },
    {
      "inputs": [],
      "name": "fee",
      "outputs": [
        {
          "internalType": "uint256",
          "name": "",
          "type": "uint256"
        }
      ],
      "stateMutability": "view",
      "type": "function"
    },
    {
      "inputs": [],
      "name": "feeGauge",
      "outputs": [
        {
          "internalType": "contract IJBFeeGauge",
          "name": "",
          "type": "address"
        }
      ],
      "stateMutability": "view",
      "type": "function"
    },
    {
      "inputs": [
        {
          "internalType": "uint256",
          "name": "_projectId",
          "type": "uint256"
        }
      ],
      "name": "heldFeesOf",
      "outputs": [
        {
          "components": [
            {
              "internalType": "uint256",
              "name": "amount",
              "type": "uint256"
            },
            {
              "internalType": "uint32",
              "name": "fee",
              "type": "uint32"
            },
            {
              "internalType": "uint32",
              "name": "feeDiscount",
              "type": "uint32"
            },
            {
              "internalType": "address",
              "name": "beneficiary",
              "type": "address"
            }
          ],
          "internalType": "struct JBFee[]",
          "name": "",
          "type": "tuple[]"
        }
      ],
      "stateMutability": "view",
      "type": "function"
    },
    {
      "inputs": [
        {
          "internalType": "address",
          "name": "",
          "type": "address"
        }
      ],
      "name": "isFeelessAddress",
      "outputs": [
        {
          "internalType": "bool",
          "name": "",
          "type": "bool"
        }
      ],
      "stateMutability": "view",
      "type": "function"
    },
    {
      "inputs": [
        {
          "internalType": "uint256",
          "name": "_projectId",
          "type": "uint256"
        },
        {
          "internalType": "contract IJBPaymentTerminal",
          "name": "_to",
          "type": "address"
        }
      ],
      "name": "migrate",
      "outputs": [
        {
          "internalType": "uint256",
          "name": "balance",
          "type": "uint256"
        }
      ],
      "stateMutability": "nonpayable",
      "type": "function"
    },
    {
      "inputs": [],
      "name": "operatorStore",
      "outputs": [
        {
          "internalType": "contract IJBOperatorStore",
          "name": "",
          "type": "address"
        }
      ],
      "stateMutability": "view",
      "type": "function"
    },
    {
      "inputs": [],
      "name": "owner",
      "outputs": [
        {
          "internalType": "address",
          "name": "",
          "type": "address"
        }
      ],
      "stateMutability": "view",
      "type": "function"
    },
    {
      "inputs": [
        {
          "internalType": "uint256",
          "name": "_projectId",
          "type": "uint256"
        },
        {
          "internalType": "uint256",
          "name": "_amount",
          "type": "uint256"
        },
        {
          "internalType": "address",
          "name": "_token",
          "type": "address"
        },
        {
          "internalType": "address",
          "name": "_beneficiary",
          "type": "address"
        },
        {
          "internalType": "uint256",
          "name": "_minReturnedTokens",
          "type": "uint256"
        },
        {
          "internalType": "bool",
          "name": "_preferClaimedTokens",
          "type": "bool"
        },
        {
          "internalType": "string",
          "name": "_memo",
          "type": "string"
        },
        {
          "internalType": "bytes",
          "name": "_metadata",
          "type": "bytes"
        }
      ],
      "name": "pay",
      "outputs": [
        {
          "internalType": "uint256",
          "name": "",
          "type": "uint256"
        }
      ],
      "stateMutability": "payable",
      "type": "function"
    },
    {
      "inputs": [],
      "name": "payoutSplitsGroup",
      "outputs": [
        {
          "internalType": "uint256",
          "name": "",
          "type": "uint256"
        }
      ],
      "stateMutability": "view",
      "type": "function"
    },
    {
      "inputs": [],
      "name": "prices",
      "outputs": [
        {
          "internalType": "contract IJBPrices",
          "name": "",
          "type": "address"
        }
      ],
      "stateMutability": "view",
      "type": "function"
    },
    {
      "inputs": [
        {
          "internalType": "uint256",
          "name": "_projectId",
          "type": "uint256"
        }
      ],
      "name": "processFees",
      "outputs": [],
      "stateMutability": "nonpayable",
      "type": "function"
    },
    {
      "inputs": [],
      "name": "projects",
      "outputs": [
        {
          "internalType": "contract IJBProjects",
          "name": "",
          "type": "address"
        }
      ],
      "stateMutability": "view",
      "type": "function"
    },
    {
      "inputs": [
        {
          "internalType": "address",
          "name": "_holder",
          "type": "address"
        },
        {
          "internalType": "uint256",
          "name": "_projectId",
          "type": "uint256"
        },
        {
          "internalType": "uint256",
          "name": "_tokenCount",
          "type": "uint256"
        },
        {
          "internalType": "address",
          "name": "_token",
          "type": "address"
        },
        {
          "internalType": "uint256",
          "name": "_minReturnedTokens",
          "type": "uint256"
        },
        {
          "internalType": "address payable",
          "name": "_beneficiary",
          "type": "address"
        },
        {
          "internalType": "string",
          "name": "_memo",
          "type": "string"
        },
        {
          "internalType": "bytes",
          "name": "_metadata",
          "type": "bytes"
        }
      ],
      "name": "redeemTokensOf",
      "outputs": [
        {
          "internalType": "uint256",
          "name": "reclaimAmount",
          "type": "uint256"
        }
      ],
      "stateMutability": "nonpayable",
      "type": "function"
    },
    {
      "inputs": [],
      "name": "renounceOwnership",
      "outputs": [],
      "stateMutability": "nonpayable",
      "type": "function"
    },
    {
      "inputs": [
        {
          "internalType": "uint256",
          "name": "_fee",
          "type": "uint256"
        }
      ],
      "name": "setFee",
      "outputs": [],
      "stateMutability": "nonpayable",
      "type": "function"
    },
    {
      "inputs": [
        {
          "internalType": "contract IJBFeeGauge",
          "name": "_feeGauge",
          "type": "address"
        }
      ],
      "name": "setFeeGauge",
      "outputs": [],
      "stateMutability": "nonpayable",
      "type": "function"
    },
    {
      "inputs": [
        {
          "internalType": "address",
          "name": "_address",
          "type": "address"
        },
        {
          "internalType": "bool",
          "name": "_flag",
          "type": "bool"
        }
      ],
      "name": "setFeelessAddress",
      "outputs": [],
      "stateMutability": "nonpayable",
      "type": "function"
    },
    {
      "inputs": [],
      "name": "splitsStore",
      "outputs": [
        {
          "internalType": "contract IJBSplitsStore",
          "name": "",
          "type": "address"
        }
      ],
      "stateMutability": "view",
      "type": "function"
    },
    {
      "inputs": [],
      "name": "store",
      "outputs": [
        {
          "internalType": "contract IJBSingleTokenPaymentTerminalStore",
          "name": "",
          "type": "address"
        }
      ],
      "stateMutability": "view",
      "type": "function"
    },
    {
      "inputs": [
        {
          "internalType": "bytes4",
          "name": "_interfaceId",
          "type": "bytes4"
        }
      ],
      "name": "supportsInterface",
      "outputs": [
        {
          "internalType": "bool",
          "name": "",
          "type": "bool"
        }
      ],
      "stateMutability": "view",
      "type": "function"
    },
    {
      "inputs": [],
      "name": "token",
      "outputs": [
        {
          "internalType": "address",
          "name": "",
          "type": "address"
        }
      ],
      "stateMutability": "view",
      "type": "function"
    },
    {
      "inputs": [
        {
          "internalType": "address",
          "name": "newOwner",
          "type": "address"
        }
      ],
      "name": "transferOwnership",
      "outputs": [],
      "stateMutability": "nonpayable",
      "type": "function"
    },
    {
      "inputs": [
        {
          "internalType": "uint256",
          "name": "_projectId",
          "type": "uint256"
        },
        {
          "internalType": "uint256",
          "name": "_amount",
          "type": "uint256"
        },
        {
          "internalType": "uint256",
          "name": "_currency",
          "type": "uint256"
        },
        {
          "internalType": "address",
          "name": "_token",
          "type": "address"
        },
        {
          "internalType": "uint256",
          "name": "_minReturnedTokens",
          "type": "uint256"
        },
        {
          "internalType": "address payable",
          "name": "_beneficiary",
          "type": "address"
        },
        {
          "internalType": "string",
          "name": "_memo",
          "type": "string"
        }
      ],
      "name": "useAllowanceOf",
      "outputs": [
        {
          "internalType": "uint256",
          "name": "netDistributedAmount",
          "type": "uint256"
        }
      ],
      "stateMutability": "nonpayable",
      "type": "function"
    }
  ],
  "transactionHash": "0xa9e457066ad491058a4b485b167bce8b24fd93400c0059f7c4659bee509f8c32",
  "args": [
    "1",
    "0x99dB6b517683237dE9C494bbd17861f3608F3585",
    "0x21263a042aFE4bAE34F08Bb318056C181bD96D3b",
    "0x8E05bcD2812E1449f0EC3aE24E2C395F533d9A99",
    "0xce2Ce2F37fE5B2C2Dd047908B2F61c9c3f707272",
    "0x9f0eC91d28fFc54874e9fF11A316Ba2537aCD72C",
    "0x5b62ccB7fdA139185374c8f36FAa388c20E1387F",
    "0x46D623731E179FAF971CdA04fF8c499C95461b3c"
  ],
  "numDeployments": 1,
  "solcInputHash": "7f5ae5369c2a685c882e67f75315b841",
  "bytecode": "0x6101e060405263017d78406002553480156200001a57600080fd5b5060405162006156380380620061568339810160408190526200003d916200020a565b61eeee6080819052601260a0819052600160c08190526001600160a01b038a1660e0528a818b8b8b8b8b8b8b6200007433620000cf565b6101a08990526101c08890526001600160a01b0380871661010052858116610120528481166101405283811661016052821661018052620000b5816200011f565b5050505050505050505050505050505050505050620002bf565b600080546001600160a01b038381166001600160a01b0319831681178455604051919092169283917f8be0079c531659141344cd1fd0a4f28419497f9722a3daafe3b4186f6b6457e09190a35050565b6000546001600160a01b031633146200017f5760405162461bcd60e51b815260206004820181905260248201527f4f776e61626c653a2063616c6c6572206973206e6f7420746865206f776e657260448201526064015b60405180910390fd5b6001600160a01b038116620001e65760405162461bcd60e51b815260206004820152602660248201527f4f776e61626c653a206e6577206f776e657220697320746865207a65726f206160448201526564647265737360d01b606482015260840162000176565b620001f181620000cf565b50565b6001600160a01b0381168114620001f157600080fd5b600080600080600080600080610100898b0312156200022857600080fd5b8851975060208901516200023c81620001f4565b60408a01519097506200024f81620001f4565b60608a01519096506200026281620001f4565b60808a01519095506200027581620001f4565b60a08a01519094506200028881620001f4565b60c08a01519093506200029b81620001f4565b60e08a0151909250620002ae81620001f4565b809150509295985092959890939650565b60805160a05160c05160e05161010051610120516101405161016051610180516101a0516101c051615c4262000514600039600081816103d401526125fd01526000818161032c0152611f3a0152600081816104fc01528181610f0a015281816117b401528181611cf501528181611f080152818161247901528181612eed01526131df01526000818161064801526119520152600081816102e00152613eac0152600081816106140152818161095901528181610b650152818161200401528181612b88015281816132dc01528181613d2801526142060152600081816104aa01528181610d7a0152818161143b01528181611a0b015281816125570152612fd50152600081816105500152818161274001528181612800015281816129760152612a3601526000818161026b0152818161070001528181611884015281816118ff01528181611ee2015281816121d70152818161345b015261351a015260008181610360015281816105c00152818161182501528181611851015281816118b10152818161192c01528181611ebc015281816121b101528181613435015281816134f401526140410152600081816106be0152818161075401528181610a0401528181610c0801528181610e2b01528181610f8b0152818161101701528181611e870152818161217c015281816122b401528181612b5d01528181612c3b01528181612cc9015281816133ff015281816134bf015281816135b901528181613cfb0152818161400c01528181614098015281816142330152818161442a015281816144fc01526145750152615c426000f3fe6080604052600436106101fe5760003560e01c80638b79543c1161011d578063c41c2f24116100b0578063df21a7dd1161007f578063f2fde38b11610064578063f2fde38b14610722578063fc0c546a14610742578063fe663f0f1461077657600080fd5b8063df21a7dd146106a0578063e5a6b10f146106ee57600080fd5b8063c41c2f2414610602578063d3419bf314610636578063d6dacc531461066a578063ddca3f431461068a57600080fd5b8063ad007d63116100ec578063ad007d631461053e578063b631b50014610572578063b7bad1b1146105a2578063bc8926e9146105e257600080fd5b80638b79543c146104985780638da5cb5b146104cc578063975057e7146104ea578063a32e1e961461051e57600080fd5b8063405b84fa11610195578063715018a611610164578063715018a6146104165780637258002c1461042b57806389701db51461044b5780638af560941461046b57600080fd5b8063405b84fa14610382578063637913ac146103a257806366248b86146103c257806369fe0e2d146103f657600080fd5b80632b267b4e116101d15780632b267b4e146102ae5780632bdfe004146102ce5780632d1a59031461031a578063313ce5671461034e57600080fd5b806301ffc9a7146102035780630cf8e858146102385780631982d6791461024d5780631ebc263f1461029b575b600080fd5b34801561020f57600080fd5b5061022361021e36600461492d565b610796565b60405190151581526020015b60405180910390f35b61024b6102463660046149cd565b610922565b005b34801561025957600080fd5b5061028d610268366004614a63565b507f000000000000000000000000000000000000000000000000000000000000000090565b60405190815260200161022f565b61028d6102a9366004614a8e565b610b23565b3480156102ba57600080fd5b5061028d6102c9366004614b56565b610d2c565b3480156102da57600080fd5b506103027f000000000000000000000000000000000000000000000000000000000000000081565b6040516001600160a01b03909116815260200161022f565b34801561032657600080fd5b5061028d7f000000000000000000000000000000000000000000000000000000000000000081565b34801561035a57600080fd5b5061028d7f000000000000000000000000000000000000000000000000000000000000000081565b34801561038e57600080fd5b5061028d61039d366004614bc0565b610d48565b3480156103ae57600080fd5b5061024b6103bd366004614a63565b6110c1565b3480156103ce57600080fd5b5061028d7f000000000000000000000000000000000000000000000000000000000000000081565b34801561040257600080fd5b5061024b610411366004614bf0565b6111a6565b34801561042257600080fd5b5061024b611298565b34801561043757600080fd5b5061024b610446366004614c09565b611318565b34801561045757600080fd5b5061024b610466366004614bf0565b61140c565b34801561047757600080fd5b5061048b610486366004614bf0565b6116c0565b60405161022f9190614c37565b3480156104a457600080fd5b506103027f000000000000000000000000000000000000000000000000000000000000000081565b3480156104d857600080fd5b506000546001600160a01b0316610302565b3480156104f657600080fd5b506103027f000000000000000000000000000000000000000000000000000000000000000081565b34801561052a57600080fd5b5061028d610539366004614bf0565b611772565b34801561054a57600080fd5b506103027f000000000000000000000000000000000000000000000000000000000000000081565b34801561057e57600080fd5b5061022361058d366004614a63565b60046020526000908152604090205460ff1681565b3480156105ae57600080fd5b5061028d6105bd366004614a63565b507f000000000000000000000000000000000000000000000000000000000000000090565b3480156105ee57600080fd5b5061028d6105fd366004614dfb565b6119d9565b34801561060e57600080fd5b506103027f000000000000000000000000000000000000000000000000000000000000000081565b34801561064257600080fd5b506103027f000000000000000000000000000000000000000000000000000000000000000081565b34801561067657600080fd5b50600354610302906001600160a01b031681565b34801561069657600080fd5b5061028d60025481565b3480156106ac57600080fd5b506102236106bb366004614e84565b507f00000000000000000000000000000000000000000000000000000000000000006001600160a01b0390811691161490565b3480156106fa57600080fd5b5061028d7f000000000000000000000000000000000000000000000000000000000000000081565b34801561072e57600080fd5b5061024b61073d366004614a63565b611aa9565b34801561074e57600080fd5b506103027f000000000000000000000000000000000000000000000000000000000000000081565b34801561078257600080fd5b5061028d610791366004614eb0565b611bbf565b60007fffffffff0000000000000000000000000000000000000000000000000000000082167fedb527eb00000000000000000000000000000000000000000000000000000000148061082957507fffffffff0000000000000000000000000000000000000000000000000000000082167f2b267b4e00000000000000000000000000000000000000000000000000000000145b8061087557507fffffffff0000000000000000000000000000000000000000000000000000000082167fbc8926e900000000000000000000000000000000000000000000000000000000145b806108c157507fffffffff0000000000000000000000000000000000000000000000000000000082167ffe663f0f00000000000000000000000000000000000000000000000000000000145b8061090d57507fffffffff0000000000000000000000000000000000000000000000000000000082167fad007d6300000000000000000000000000000000000000000000000000000000145b8061091c575061091c82611bdf565b92915050565b6040517f6e49181f0000000000000000000000000000000000000000000000000000000081526004810188905230602482015287907f00000000000000000000000000000000000000000000000000000000000000006001600160a01b031690636e49181f90604401602060405180830381865afa1580156109a8573d6000803e3d6000fd5b505050506040513d601f19601f820116820180604052508101906109cc9190614f69565b610a02576040517fd8ead2c800000000000000000000000000000000000000000000000000000000815260040160405180910390fd5b7f00000000000000000000000000000000000000000000000000000000000000006001600160a01b031661eeee14610a8a573415610a6c576040517fbcfd35be00000000000000000000000000000000000000000000000000000000815260040160405180910390fd5b47610a7833308a611cc2565b610a828147614fb5565b975050610a8e565b3496505b33600090815260046020908152604091829020548251601f8801839004830281018301909352868352610b19928b928b9260ff161591908a908a908190840183828082843760009201919091525050604080516020601f8c018190048102820181019092528a815292508a9150899081908401838280828437600092019190915250611cd192505050565b5050505050505050565b6040517f6e49181f000000000000000000000000000000000000000000000000000000008152600481018b90523060248201526000908b906001600160a01b037f00000000000000000000000000000000000000000000000000000000000000001690636e49181f90604401602060405180830381865afa158015610bac573d6000803e3d6000fd5b505050506040513d601f19601f82011682018060405250810190610bd09190614f69565b610c06576040517fd8ead2c800000000000000000000000000000000000000000000000000000000815260040160405180910390fd5b7f00000000000000000000000000000000000000000000000000000000000000006001600160a01b031661eeee14610c8e573415610c70576040517fbcfd35be00000000000000000000000000000000000000000000000000000000815260040160405180910390fd5b47610c7c33308e611cc2565b610c868147614fb5565b9b5050610c92565b349a505b610d1c8b338e8c8c8c8c8c8080601f016020809104026020016040519081016040528093929190818152602001838380828437600081840152601f19601f820116905080830192505050505050508b8b8080601f016020809104026020016040519081016040528093929190818152602001838380828437600092019190915250611ddb92505050565b9c9b505050505050505050505050565b6000610d3c88888887878761242d565b98975050505050505050565b6040517f6352211e000000000000000000000000000000000000000000000000000000008152600481018390526000907f00000000000000000000000000000000000000000000000000000000000000006001600160a01b031690636352211e90602401602060405180830381865afa158015610dc9573d6000803e3d6000fd5b505050506040513d601f19601f82011682018060405250810190610ded9190614fc8565b836004610dfb8383836126e0565b6040517fdf21a7dd0000000000000000000000000000000000000000000000000000000081526001600160a01b037f0000000000000000000000000000000000000000000000000000000000000000811660048301526024820188905286169063df21a7dd90604401602060405180830381865afa158015610e81573d6000803e3d6000fd5b505050506040513d601f19601f82011682018060405250810190610ea59190614f69565b610edb576040517f581010ed00000000000000000000000000000000000000000000000000000000815260040160405180910390fd5b6040517f6bb6a5ad000000000000000000000000000000000000000000000000000000008152600481018790527f00000000000000000000000000000000000000000000000000000000000000006001600160a01b031690636bb6a5ad906024016020604051808303816000875af1158015610f5b573d6000803e3d6000fd5b505050506040513d601f19601f82011682018060405250810190610f7f9190614fe5565b935083156110735760007f00000000000000000000000000000000000000000000000000000000000000006001600160a01b031661eeee14610fc2576000610fc4565b845b604080516020810182526000815290517f0cf8e8580000000000000000000000000000000000000000000000000000000081529192506001600160a01b03881691630cf8e85891849161103f918c918b917f00000000000000000000000000000000000000000000000000000000000000009160040161504e565b6000604051808303818588803b15801561105857600080fd5b505af115801561106c573d6000803e3d6000fd5b5050505050505b604080518581523360208201526001600160a01b0387169188917fa7519e5f94697b7f53e97c5eb46a0c730a296ab686ab8fd333835c5f735784eb910160405180910390a350505092915050565b6000546001600160a01b0316331461113a576040517f08c379a000000000000000000000000000000000000000000000000000000000815260206004820181905260248201527f4f776e61626c653a2063616c6c6572206973206e6f7420746865206f776e657260448201526064015b60405180910390fd5b600380547fffffffffffffffffffffffff0000000000000000000000000000000000000000166001600160a01b0383169081179091556040513381527f0a9a80fe9716605b3e52abb3d792d6a4e7816d6afc02a5a4ef023081feaf9f609060200160405180910390a250565b6000546001600160a01b0316331461121a576040517f08c379a000000000000000000000000000000000000000000000000000000000815260206004820181905260248201527f4f776e61626c653a2063616c6c6572206973206e6f7420746865206f776e65726044820152606401611131565b6302faf080811115611258576040517f45fbd9c100000000000000000000000000000000000000000000000000000000815260040160405180910390fd5b6002819055604080518281523360208201527fd7414e590e1cb532989ab2a34c8f4c2c17f7ab6f006efeeaef2e87cd5008c202910160405180910390a150565b6000546001600160a01b0316331461130c576040517f08c379a000000000000000000000000000000000000000000000000000000000815260206004820181905260248201527f4f776e61626c653a2063616c6c6572206973206e6f7420746865206f776e65726044820152606401611131565b61131660006128a4565b565b6000546001600160a01b0316331461138c576040517f08c379a000000000000000000000000000000000000000000000000000000000815260206004820181905260248201527f4f776e61626c653a2063616c6c6572206973206e6f7420746865206f776e65726044820152606401611131565b6001600160a01b03821660008181526004602090815260409182902080547fffffffffffffffffffffffffffffffffffffffffffffffffffffffffffffff001685151590811790915591513381529192917fa2653e25a502c023a5830d0de847ef6f458387865b1f4f575d7594f9f2c0d71e910160405180910390a35050565b6040517f6352211e000000000000000000000000000000000000000000000000000000008152600481018290527f00000000000000000000000000000000000000000000000000000000000000006001600160a01b031690636352211e90602401602060405180830381865afa15801561148a573d6000803e3d6000fd5b505050506040513d601f19601f820116820180604052508101906114ae9190614fc8565b8160056114c36000546001600160a01b031690565b6001600160a01b0316336001600160a01b0316146114e38484848461290c565b600085815260016020908152604080832080548251818502810185019093528083529192909190849084015b8282101561158157600084815260209081902060408051608081018252600286029092018054835260019081015463ffffffff8082168587015264010000000082041692840192909252680100000000000000009091046001600160a01b03166060830152908352909201910161150f565b50505060008881526001602052604081209293506115a09291506148ce565b805160005b81811015610b1957600061161d8483815181106115c4576115c4615094565b6020026020010151600001518584815181106115e2576115e2615094565b60200260200101516020015163ffffffff1686858151811061160657611606615094565b60200260200101516040015163ffffffff16612ae0565b90506116468185848151811061163557611635615094565b602002602001015160600151612b26565b60011515818a7fcf0c92a2c6d7c42f488326b0cb900104b99984b6b218db81cd29371364a3525187868151811061167f5761167f615094565b602002602001015160600151336040516116af9291906001600160a01b0392831681529116602082015260400190565b60405180910390a4506001016115a5565b606060016000838152602001908152602001600020805480602002602001604051908101604052809291908181526020016000905b8282101561176757600084815260209081902060408051608081018252600286029092018054835260019081015463ffffffff8082168587015264010000000082041692840192909252680100000000000000009091046001600160a01b0316606083015290835290920191016116f5565b505050509050919050565b6040517fd49031c00000000000000000000000000000000000000000000000000000000081523060048201526024810182905260009081906001600160a01b037f0000000000000000000000000000000000000000000000000000000000000000169063d49031c090604401602060405180830381865afa1580156117fb573d6000803e3d6000fd5b505050506040513d601f19601f8201168201806040525081019061181f9190614fe5565b905060007f000000000000000000000000000000000000000000000000000000000000000060121461187c57611877827f00000000000000000000000000000000000000000000000000000000000000006012612d40565b61187e565b815b905060017f0000000000000000000000000000000000000000000000000000000000000000146119cf576119ca816118d77f0000000000000000000000000000000000000000000000000000000000000000600a6151e3565b6040517fa4d0caf20000000000000000000000000000000000000000000000000000000081527f00000000000000000000000000000000000000000000000000000000000000006004820152600160248201527f000000000000000000000000000000000000000000000000000000000000000060448201527f00000000000000000000000000000000000000000000000000000000000000006001600160a01b03169063a4d0caf290606401602060405180830381865afa1580156119a1573d6000803e3d6000fd5b505050506040513d601f19601f820116820180604052508101906119c59190614fe5565b612d9d565b6119d1565b805b949350505050565b6040517f6352211e000000000000000000000000000000000000000000000000000000008152600481018890526000907f00000000000000000000000000000000000000000000000000000000000000006001600160a01b031690636352211e90602401602060405180830381865afa158015611a5a573d6000803e3d6000fd5b505050506040513d601f19601f82011682018060405250810190611a7e9190614fc8565b886011611a8c8383836126e0565b611a9a8b8b8b8a8a8a612ea1565b9b9a5050505050505050505050565b6000546001600160a01b03163314611b1d576040517f08c379a000000000000000000000000000000000000000000000000000000000815260206004820181905260248201527f4f776e61626c653a2063616c6c6572206973206e6f7420746865206f776e65726044820152606401611131565b6001600160a01b038116611bb3576040517f08c379a000000000000000000000000000000000000000000000000000000000815260206004820152602660248201527f4f776e61626c653a206e6577206f776e657220697320746865207a65726f206160448201527f64647265737300000000000000000000000000000000000000000000000000006064820152608401611131565b611bbc816128a4565b50565b600088886002611bd08383836126e0565b610d1c8c8c8c8b8b8b8b613112565b60007fffffffff0000000000000000000000000000000000000000000000000000000082167fc07370e4000000000000000000000000000000000000000000000000000000001480611c7257507fffffffff0000000000000000000000000000000000000000000000000000000082167f2896000200000000000000000000000000000000000000000000000000000000145b8061091c57507f01ffc9a7000000000000000000000000000000000000000000000000000000007fffffffff0000000000000000000000000000000000000000000000000000000083161461091c565b611ccc8282613740565b505050565b600083611cdf576000611ce9565b611ce9868661388d565b90506001600160a01b037f00000000000000000000000000000000000000000000000000000000000000001663e7c8e3e387611d2584896151ef565b6040517fffffffff0000000000000000000000000000000000000000000000000000000060e085901b16815260048101929092526024820152604401600060405180830381600087803b158015611d7b57600080fd5b505af1158015611d8f573d6000803e3d6000fd5b50505050857f9ecaf7fc3dfffd6867c175d6e684b1f1e3aef019398ba8db2c1ffab4a09db2538683868633604051611dcb959493929190615202565b60405180910390a2505050505050565b60006001600160a01b038616611e1d576040517fa762251300000000000000000000000000000000000000000000000000000000815260040160405180910390fd5b611e756040518061012001604052806000815260200160008152602001600081526020016000815260200160008152602001600081526020016000815260200160006001600160a01b03168152602001600081525090565b606060008060405180608001604052807f00000000000000000000000000000000000000000000000000000000000000006001600160a01b031681526020018e81526020017f000000000000000000000000000000000000000000000000000000000000000081526020017f000000000000000000000000000000000000000000000000000000000000000081525090507f00000000000000000000000000000000000000000000000000000000000000006001600160a01b0316632fa1b3918d838e7f00000000000000000000000000000000000000000000000000000000000000008f8d8d6040518863ffffffff1660e01b8152600401611f7e979695949392919061524f565b6000604051808303816000875af1158015611f9d573d6000803e3d6000fd5b505050506040513d6000823e601f3d908101601f19168201604052611fc591908101906153dc565b99509195509093509150811561212c576040517f5dd8f6aa000000000000000000000000000000000000000000000000000000008152600481018c90527f00000000000000000000000000000000000000000000000000000000000000006001600160a01b031690635dd8f6aa90602401602060405180830381865afa158015612053573d6000803e3d6000fd5b505050506040513d601f19601f820116820180604052508101906120779190614fc8565b6040517f8ae9c07b000000000000000000000000000000000000000000000000000000008152600481018d9052602481018490526001600160a01b038c8116604483015260c06064830152600060c48301528a15156084830152600160a48301529190911690638ae9c07b9060e4016020604051808303816000875af1158015612105573d6000803e3d6000fd5b505050506040513d601f19601f820116820180604052508101906121299190614fe5565b94505b88851015612166576040517f7b94612600000000000000000000000000000000000000000000000000000000815260040160405180910390fd5b8251156123cf57600060405180608001604052807f00000000000000000000000000000000000000000000000000000000000000006001600160a01b031681526020018f81526020017f000000000000000000000000000000000000000000000000000000000000000081526020017f0000000000000000000000000000000000000000000000000000000000000000815250905060006040518061014001604052808f6001600160a01b031681526020018e8152602001876020015181526020018481526020018381526020018881526020018d6001600160a01b031681526020018b151581526020018a815260200189815250905060008551905060005b818110156123ca57600087828151811061228257612282615094565b6020908102919091010151905060007fffffffffffffffffffffffffffffffffffffffffffffffffffffffffffff11127f00000000000000000000000000000000000000000000000000000000000000006001600160a01b0316016122e8575060208101515b60208083015160808701519091015281516040517fda9ee8b70000000000000000000000000000000000000000000000000000000081526001600160a01b039091169063da9ee8b79083906123419089906004016155d8565b6000604051808303818588803b15801561235a57600080fd5b505af115801561236e573d6000803e3d6000fd5b505050505081600001516001600160a01b03167f16112c26e14efc4be6c690149aa5a1ba75160de245f60d2273e28adb277b9e12868460200151336040516123b8939291906155eb565b60405180910390a25050600101612266565b505050505b50505087816000015182602001517f133161f1c9161488f777ab9a26aae91d47c0d9a3fafb398960f138db02c737978c8b8f888b8b33604051612418979695949392919061561d565b60405180910390a45098975050505050505050565b6040517fc6644597000000000000000000000000000000000000000000000000000000008152600481018790526024810186905260448101859052600090819081906001600160a01b037f0000000000000000000000000000000000000000000000000000000000000000169063c664459790606401610140604051808303816000875af11580156124c3573d6000803e3d6000fd5b505050506040513d601f19601f820116820180604052508101906124e7919061567e565b9150915085811015612525576040517fb01493c100000000000000000000000000000000000000000000000000000000815260040160405180910390fd5b6040517f6352211e000000000000000000000000000000000000000000000000000000008152600481018a90526000907f00000000000000000000000000000000000000000000000000000000000000006001600160a01b031690636352211e90602401602060405180830381865afa1580156125a6573d6000803e3d6000fd5b505050506040513d601f19601f820116820180604052508101906125ca9190614fc8565b90506000806002546000146125e7576125e28c613cc4565b6125ed565b633b9aca005b90506000806126238e88602001517f00000000000000000000000000000000000000000000000000000000000000008987613e62565b92509050633b9aca00831461263757908101905b81600003612646576000612653565b6126538e8884888761470f565b9350801561267f576126688160025485612ae0565b6126729082614fb5565b975061267f30868a611cc2565b5050508a846000015185602001517f24352f49df447b14e0e08a323625c663d865ce20c343c4638af12e1dc48aa760858e88878c8f8f336040516126ca9897969594939291906156ad565b60405180910390a4505050509695505050505050565b336001600160a01b038416148015906127ad57506040517fc161c93f0000000000000000000000000000000000000000000000000000000081523360048201526001600160a01b03848116602483015260448201849052606482018390527f0000000000000000000000000000000000000000000000000000000000000000169063c161c93f90608401602060405180830381865afa158015612787573d6000803e3d6000fd5b505050506040513d601f19601f820116820180604052508101906127ab9190614f69565b155b801561286d57506040517fc161c93f0000000000000000000000000000000000000000000000000000000081523360048201526001600160a01b03848116602483015260006044830152606482018390527f0000000000000000000000000000000000000000000000000000000000000000169063c161c93f90608401602060405180830381865afa158015612847573d6000803e3d6000fd5b505050506040513d601f19601f8201168201806040525081019061286b9190614f69565b155b15611ccc576040517f075fd2b100000000000000000000000000000000000000000000000000000000815260040160405180910390fd5b600080546001600160a01b038381167fffffffffffffffffffffffff0000000000000000000000000000000000000000831681178455604051919092169283917f8be0079c531659141344cd1fd0a4f28419497f9722a3daafe3b4186f6b6457e09190a35050565b801580156129235750336001600160a01b03851614155b80156129e357506040517fc161c93f0000000000000000000000000000000000000000000000000000000081523360048201526001600160a01b03858116602483015260448201859052606482018490527f0000000000000000000000000000000000000000000000000000000000000000169063c161c93f90608401602060405180830381865afa1580156129bd573d6000803e3d6000fd5b505050506040513d601f19601f820116820180604052508101906129e19190614f69565b155b8015612aa357506040517fc161c93f0000000000000000000000000000000000000000000000000000000081523360048201526001600160a01b03858116602483015260006044830152606482018490527f0000000000000000000000000000000000000000000000000000000000000000169063c161c93f90608401602060405180830381865afa158015612a7d573d6000803e3d6000fd5b505050506040513d601f19601f82011682018060405250810190612aa19190614f69565b155b15612ada576040517f075fd2b100000000000000000000000000000000000000000000000000000000815260040160405180910390fd5b50505050565b600080612af28484633b9aca00612d9d565b612afc9085614fb5565b9050612b1185633b9aca006119c581856151ef565b612b1b9086614fb5565b9150505b9392505050565b6040517f86202650000000000000000000000000000000000000000000000000000000008152600160048201526001600160a01b037f0000000000000000000000000000000000000000000000000000000000000000811660248301526000917f000000000000000000000000000000000000000000000000000000000000000090911690638620265090604401602060405180830381865afa158015612bd1573d6000803e3d6000fd5b505050506040513d601f19601f82011682018060405250810190612bf59190614fc8565b9050306001600160a01b03821603612c3757612ada83306001856000806040518060200160405280600081525060405180602001604052806000815250611ddb565b60007f00000000000000000000000000000000000000000000000000000000000000006001600160a01b031661eeee14612c72576000612c74565b835b60408051602081018252600080825291517f1ebc263f0000000000000000000000000000000000000000000000000000000081529293506001600160a01b03851692631ebc263f928592612cf6926001928b927f0000000000000000000000000000000000000000000000000000000000000000928c92918291600401615711565b60206040518083038185885af1158015612d14573d6000803e3d6000fd5b50505050506040513d601f19601f82011682018060405250810190612d399190614fe5565b5050505050565b6000828203612d50575082612b1f565b82821115612d7e57612d628383614fb5565b612d6d90600a6151e3565b612d779085615768565b9050612b1f565b612d888284614fb5565b612d9390600a6151e3565b612d7790856157d4565b600080807fffffffffffffffffffffffffffffffffffffffffffffffffffffffffffffffff85870985870292508281108382030391505080600003612df557838281612deb57612deb6157a5565b0492505050612b1f565b838110612e38576040517f773cc18c0000000000000000000000000000000000000000000000000000000081526004810182905260248101859052604401611131565b60008486880960026001871981018816978890046003810283188082028403028082028403028082028403028082028403028082028403029081029092039091026000889003889004909101858311909403939093029303949094049190911702949350505050565b6040517f25386715000000000000000000000000000000000000000000000000000000008152600481018790526024810186905260448101859052600090819081906001600160a01b037f00000000000000000000000000000000000000000000000000000000000000001690632538671590606401610140604051808303816000875af1158015612f37573d6000803e3d6000fd5b505050506040513d601f19601f82011682018060405250810190612f5b919061567e565b9150915085811015612f99576040517fb01493c100000000000000000000000000000000000000000000000000000000815260040160405180910390fd5b6040517f6352211e000000000000000000000000000000000000000000000000000000008152600481018a905260009081906001600160a01b037f00000000000000000000000000000000000000000000000000000000000000001690636352211e90602401602060405180830381865afa15801561301c573d6000803e3d6000fd5b505050506040513d601f19601f820116820180604052508101906130409190614fc8565b905060006002546000148061306457503360009081526004602052604090205460ff165b613076576130718c613cc4565b61307c565b633b9aca005b9050633b9aca00811461309b576130968c8686858561470f565b61309e565b60005b808503965092508383146130b7576130b7308988611cc2565b50505088826000015183602001517f8657a0c05a68a912c23c1bd00124afaa8c669063b046bd9bfd22b21d573c5e6d888c86898b336040516130fe9695949392919061580f565b60405180910390a450509695505050505050565b60006001600160a01b038416613154576040517ff74a1b6600000000000000000000000000000000000000000000000000000000815260040160405180910390fd5b6131ac6040518061012001604052806000815260200160008152602001600081526020016000815260200160008152602001600081526020016000815260200160006001600160a01b03168152602001600081525090565b6040517fa2df1f950000000000000000000000000000000000000000000000000000000081526060906001600160a01b037f0000000000000000000000000000000000000000000000000000000000000000169063a2df1f959061321c908d908d908d908b908b9060040161585a565b6000604051808303816000875af115801561323b573d6000803e3d6000fd5b505050506040513d6000823e601f3d908101601f19168201604052613263919081019061589a565b97509094509092509050868310156132a7576040517ff896960b00000000000000000000000000000000000000000000000000000000815260040160405180910390fd5b87156133e9576040517f5dd8f6aa000000000000000000000000000000000000000000000000000000008152600481018a90527f00000000000000000000000000000000000000000000000000000000000000006001600160a01b031690635dd8f6aa90602401602060405180830381865afa15801561332b573d6000803e3d6000fd5b505050506040513d601f19601f8201168201806040525081019061334f9190614fc8565b6040517f1665bc0f0000000000000000000000000000000000000000000000000000000081526001600160a01b038c81166004830152602482018c9052604482018b905260a06064830152600060a4830181905260848301529190911690631665bc0f9060c401600060405180830381600087803b1580156133d057600080fd5b505af11580156133e4573d6000803e3d6000fd5b505050505b8051156136d457600060405180608001604052807f00000000000000000000000000000000000000000000000000000000000000006001600160a01b03168152602001600081526020017f000000000000000000000000000000000000000000000000000000000000000081526020017f0000000000000000000000000000000000000000000000000000000000000000815250905060006040518061012001604052808d6001600160a01b031681526020018c8152602001856020015181526020018b815260200160405180608001604052807f00000000000000000000000000000000000000000000000000000000000000006001600160a01b031681526020018881526020017f000000000000000000000000000000000000000000000000000000000000000081526020017f00000000000000000000000000000000000000000000000000000000000000008152508152602001838152602001896001600160a01b0316815260200188815260200187815250905060008351905060005b818110156136cf57600085828151811061358757613587615094565b6020908102919091010151905060007fffffffffffffffffffffffffffffffffffffffffffffffffffffffffffff11127f00000000000000000000000000000000000000000000000000000000000000006001600160a01b0316016135ed575060208101515b60208083015160a08701519091015281516040517f2b13c58f0000000000000000000000000000000000000000000000000000000081526001600160a01b0390911690632b13c58f908390613646908990600401615a5d565b6000604051808303818588803b15801561365f57600080fd5b505af1158015613673573d6000803e3d6000fd5b505050505081600001516001600160a01b03167f54b3744c489f40987dd2726ca12131243334e8292f567389f761c5a432d813e4868460200151336040516136bd93929190615a70565b60405180910390a2505060010161356b565b505050505b5081156136e6576136e6308684611cc2565b87816000015182602001517f2be10f2a0203c77d0fcaa9fd6484a8a1d6904de31cd820587f60c1c8c338c8148c898c888b8b3360405161372c979695949392919061561d565b60405180910390a450979650505050505050565b804710156137aa576040517f08c379a000000000000000000000000000000000000000000000000000000000815260206004820152601d60248201527f416464726573733a20696e73756666696369656e742062616c616e63650000006044820152606401611131565b6000826001600160a01b03168260405160006040518083038185875af1925050503d80600081146137f7576040519150601f19603f3d011682016040523d82523d6000602084013e6137fc565b606091505b5050905080611ccc576040517f08c379a000000000000000000000000000000000000000000000000000000000815260206004820152603a60248201527f416464726573733a20756e61626c6520746f2073656e642076616c75652c207260448201527f6563697069656e74206d617920686176652072657665727465640000000000006064820152608401611131565b600082815260016020908152604080832080548251818502810185019093528083528493849084015b8282101561392857600084815260209081902060408051608081018252600286029092018054835260019081015463ffffffff8082168587015264010000000082041692840192909252680100000000000000009091046001600160a01b0316606083015290835290920191016138b6565b50505060008681526001602052604081209293506139479291506148ce565b8051839060005b81811015613c7c5782600003613a3e576000878152600160205260409020845185908390811061398057613980615094565b60209081029190910181015182546001818101855560009485529383902082516002909202019081559181015191909201805460408401516060909401516001600160a01b031668010000000000000000027fffffffff0000000000000000000000000000000000000000ffffffffffffffff63ffffffff958616640100000000027fffffffffffffffffffffffffffffffffffffffffffffffff000000000000000090931695909416949094171791909116919091179055613c74565b838181518110613a5057613a50615094565b6020026020010151600001518310613ae457838181518110613a7457613a74615094565b60200260200101516000015183039250613adb848281518110613a9957613a99615094565b602002602001015160000151858381518110613ab757613ab7615094565b60200260200101516020015163ffffffff1686848151811061160657611606615094565b85019450613c74565b60016000888152602001908152602001600020604051806080016040528085878581518110613b1557613b15615094565b602002602001015160000151038152602001868481518110613b3957613b39615094565b60200260200101516020015163ffffffff168152602001868481518110613b6257613b62615094565b60200260200101516040015163ffffffff168152602001868481518110613b8b57613b8b615094565b6020908102919091018101516060908101516001600160a01b039081169093528454600181810187556000968752958390208551600290920201908155918401519190940180546040850151949095015190921668010000000000000000027fffffffff0000000000000000000000000000000000000000ffffffffffffffff63ffffffff948516640100000000027fffffffffffffffffffffffffffffffffffffffffffffffff0000000000000000909616949092169390931793909317929092161790558351613c6b908490869084908110613ab757613ab7615094565b85019450600092505b60010161394e565b50604080518381523360208201528591879189917f59860d79d97c1fce2be7f987915c631471f4b08f671200463cc40a3380194ffb910160405180910390a450505092915050565b6040517f86202650000000000000000000000000000000000000000000000000000000008152600160048201526001600160a01b037f00000000000000000000000000000000000000000000000000000000000000008116602483015260009182917f00000000000000000000000000000000000000000000000000000000000000001690638620265090604401602060405180830381865afa158015613d6f573d6000803e3d6000fd5b505050506040513d601f19601f82011682018060405250810190613d939190614fc8565b6001600160a01b031603613dac5750633b9aca00919050565b6003546001600160a01b031615613e5a576003546040517f77695896000000000000000000000000000000000000000000000000000000008152600481018490526001600160a01b0390911690637769589690602401602060405180830381865afa925050508015613e3b575060408051601f3d908101601f19168201909252613e3891810190614fe5565b60015b613e4757506000919050565b633b9aca008111613e585792915050565b505b506000919050565b6040517f69e11cc50000000000000000000000000000000000000000000000000000000081526004810186905260248101859052604481018490528290600090633b9aca009082907f00000000000000000000000000000000000000000000000000000000000000006001600160a01b0316906369e11cc590606401600060405180830381865afa158015613efb573d6000803e3d6000fd5b505050506040513d6000823e601f3d908101601f19168201604052613f239190810190615a83565b905060005b8151811015614702576000828281518110613f4557613f45615094565b60200260200101519050600084826040015114613f7457613f6f898360400151633b9aca00612d9d565b613f76565b865b9050816040015185613f889190614fb5565b9450600081156146b65760c08301516001600160a01b0316156141c457633b9aca00891480613fd3575060c08301516001600160a01b031660009081526004602052604090205460ff165b15613fdf575080613ffd565b613fec826002548b612ae0565b82039050613ffa82886151ef565b96505b60006040518060c001604052807f00000000000000000000000000000000000000000000000000000000000000006001600160a01b031681526020018381526020017f000000000000000000000000000000000000000000000000000000000000000081526020018f81526020018d81526020018581525090508360c001516001600160a01b0316639d740bfa61eeee6001600160a01b03167f00000000000000000000000000000000000000000000000000000000000000006001600160a01b0316146140cc5760006140ce565b835b604080517fffffffff0000000000000000000000000000000000000000000000000000000060e085901b16815285516001600160a01b039081166004830152602080880151602484015283880151604484015260608089015160648501526080808a0151608486015260a0808b01518051151560a488015293840151151560c48701529583015160e48601529082015161010485015281015182166101248401529283015161014483015260c090920151909116610164820152610184016000604051808303818588803b1580156141a557600080fd5b505af11580156141b9573d6000803e3d6000fd5b5050505050506146b0565b60608301511561464f5760608301516040517f862026500000000000000000000000000000000000000000000000000000000081526000916001600160a01b037f0000000000000000000000000000000000000000000000000000000000000000169163862026509161426d917f0000000000000000000000000000000000000000000000000000000000000000906004019182526001600160a01b0316602082015260400190565b602060405180830381865afa15801561428a573d6000803e3d6000fd5b505050506040513d601f19601f820116820180604052508101906142ae9190614fc8565b90506001600160a01b0381166142f0576040517f6921234300000000000000000000000000000000000000000000000000000000815260040160405180910390fd5b306001600160a01b038216036143d1576040805160208082528183019092528493506000916020820181803683370190505090508e60405160200161433791815260200190565b60405160208183030381529060405290508460200151156143785761437385606001518460006040518060200160405280600081525085611cd1565b6143cb565b6143c98330876060015160006001600160a01b031689608001516001600160a01b0316036143a657336143ac565b88608001515b60008a600001516040518060200160405280600081525088611ddb565b505b50614649565b633b9aca008a14806143fb57506001600160a01b03811660009081526004602052604090205460ff165b1561440857829150614426565b614415836002548c612ae0565b8303915061442383896151ef565b97505b60007f00000000000000000000000000000000000000000000000000000000000000006001600160a01b031661eeee14614461576000614463565b825b604080516020808252818301909252919250600091906020820181803683370190505090508f60405160200161449b91815260200190565b604051602081830303815290604052905085602001511561455d5760608601516040517f0cf8e8580000000000000000000000000000000000000000000000000000000081526001600160a01b03851691630cf8e8589185916145269189907f000000000000000000000000000000000000000000000000000000000000000090889060040161504e565b6000604051808303818588803b15801561453f57600080fd5b505af1158015614553573d6000803e3d6000fd5b5050505050614646565b826001600160a01b0316631ebc263f838860600151877f000000000000000000000000000000000000000000000000000000000000000060006001600160a01b03168c608001516001600160a01b0316036145b857336145be565b8b608001515b8c516040517fffffffff0000000000000000000000000000000000000000000000000000000060e089901b16815261460195949392916000918b90600401615711565b60206040518083038185885af115801561461f573d6000803e3d6000fd5b50505050506040513d601f19601f820116820180604052508101906146449190614fe5565b505b50505b506146b0565b60808301516000906001600160a01b031661466a5733614670565b83608001515b9050633b9aca008a03614685578291506146a3565b614692836002548c612ae0565b830391506146a083896151ef565b97505b6146ae308284611cc2565b505b81880397505b8a8c8e7f2a1f2df21da49f011c6165709ae4b279f8d6d7cffe9043c582352882d8c9698b8685336040516146ec93929190615b8d565b60405180910390a4836001019350505050613f28565b5050509550959350505050565b600061471e8460025484612ae0565b610100860151909150604f1c60019081160361487257600086815260016020818152604080842081516080810183528981526002805463ffffffff9081168387019081528a82168487019081526001600160a01b03808e16606087019081528754808c018955978c5298909a209451958402909401948555519390960180549251955190971668010000000000000000027fffffffff0000000000000000000000000000000000000000ffffffffffffffff958716640100000000027fffffffffffffffffffffffffffffffffffffffffffffffff0000000000000000909316939096169290921717929092169290921790925590549051859088907f77813be0661650ddc1a5193ff2837df4162b251cb432651e2c060c3fc39756be90614865908790899033909283526001600160a01b03918216602084015216604082015260600190565b60405180910390a46148c5565b61487c8184612b26565b604080516001600160a01b0385168152336020820152600091839189917fcf0c92a2c6d7c42f488326b0cb900104b99984b6b218db81cd29371364a35251910160405180910390a45b95945050505050565b5080546000825560020290600052602060002090810190611bbc91905b8082111561492957600081556001810180547fffffffff000000000000000000000000000000000000000000000000000000001690556002016148eb565b5090565b60006020828403121561493f57600080fd5b81357fffffffff0000000000000000000000000000000000000000000000000000000081168114612b1f57600080fd5b6001600160a01b0381168114611bbc57600080fd5b60008083601f84011261499657600080fd5b50813567ffffffffffffffff8111156149ae57600080fd5b6020830191508360208285010111156149c657600080fd5b9250929050565b600080600080600080600060a0888a0312156149e857600080fd5b87359650602088013595506040880135614a018161496f565b9450606088013567ffffffffffffffff80821115614a1e57600080fd5b614a2a8b838c01614984565b909650945060808a0135915080821115614a4357600080fd5b50614a508a828b01614984565b989b979a50959850939692959293505050565b600060208284031215614a7557600080fd5b8135612b1f8161496f565b8015158114611bbc57600080fd5b6000806000806000806000806000806101008b8d031215614aae57600080fd5b8a35995060208b0135985060408b0135614ac78161496f565b975060608b0135614ad78161496f565b965060808b0135955060a08b0135614aee81614a80565b945060c08b013567ffffffffffffffff80821115614b0b57600080fd5b614b178e838f01614984565b909650945060e08d0135915080821115614b3057600080fd5b50614b3d8d828e01614984565b915080935050809150509295989b9194979a5092959850565b600080600080600080600060c0888a031215614b7157600080fd5b8735965060208801359550604088013594506060880135614b918161496f565b93506080880135925060a088013567ffffffffffffffff811115614bb457600080fd5b614a508a828b01614984565b60008060408385031215614bd357600080fd5b823591506020830135614be58161496f565b809150509250929050565b600060208284031215614c0257600080fd5b5035919050565b60008060408385031215614c1c57600080fd5b8235614c278161496f565b91506020830135614be581614a80565b602080825282518282018190526000919060409081850190868401855b82811015614ca0578151805185528681015163ffffffff908116888701528682015116868601526060908101516001600160a01b03169085015260809093019290850190600101614c54565b5091979650505050505050565b7f4e487b7100000000000000000000000000000000000000000000000000000000600052604160045260246000fd5b604051610120810167ffffffffffffffff81118282101715614d0057614d00614cad565b60405290565b6040805190810167ffffffffffffffff81118282101715614d0057614d00614cad565b60405160e0810167ffffffffffffffff81118282101715614d0057614d00614cad565b604051601f8201601f1916810167ffffffffffffffff81118282101715614d7557614d75614cad565b604052919050565b600067ffffffffffffffff821115614d9757614d97614cad565b50601f01601f191660200190565b600082601f830112614db657600080fd5b8135614dc9614dc482614d7d565b614d4c565b818152846020838601011115614dde57600080fd5b816020850160208301376000918101602001919091529392505050565b600080600080600080600060e0888a031215614e1657600080fd5b8735965060208801359550604088013594506060880135614e368161496f565b93506080880135925060a0880135614e4d8161496f565b915060c088013567ffffffffffffffff811115614e6957600080fd5b614e758a828b01614da5565b91505092959891949750929550565b60008060408385031215614e9757600080fd5b8235614ea28161496f565b946020939093013593505050565b600080600080600080600080610100898b031215614ecd57600080fd5b8835614ed88161496f565b975060208901359650604089013595506060890135614ef68161496f565b94506080890135935060a0890135614f0d8161496f565b925060c089013567ffffffffffffffff80821115614f2a57600080fd5b614f368c838d01614da5565b935060e08b0135915080821115614f4c57600080fd5b50614f598b828c01614da5565b9150509295985092959890939650565b600060208284031215614f7b57600080fd5b8151612b1f81614a80565b7f4e487b7100000000000000000000000000000000000000000000000000000000600052601160045260246000fd5b8181038181111561091c5761091c614f86565b600060208284031215614fda57600080fd5b8151612b1f8161496f565b600060208284031215614ff757600080fd5b5051919050565b60005b83811015615019578181015183820152602001615001565b50506000910152565b6000815180845261503a816020860160208601614ffe565b601f01601f19169290920160200192915050565b8481528360208201526001600160a01b038316604082015260a06060820152600060a082015260c06080820152600061508a60c0830184615022565b9695505050505050565b7f4e487b7100000000000000000000000000000000000000000000000000000000600052603260045260246000fd5b600181815b8085111561511c57817fffffffffffffffffffffffffffffffffffffffffffffffffffffffffffffffff0482111561510257615102614f86565b8085161561510f57918102915b93841c93908002906150c8565b509250929050565b6000826151335750600161091c565b816151405750600061091c565b816001811461515657600281146151605761517c565b600191505061091c565b60ff84111561517157615171614f86565b50506001821b61091c565b5060208310610133831016604e8410600b841016171561519f575081810a61091c565b6151a983836150c3565b807fffffffffffffffffffffffffffffffffffffffffffffffffffffffffffffffff048211156151db576151db614f86565b029392505050565b6000612b1f8383615124565b8082018082111561091c5761091c614f86565b85815284602082015260a06040820152600061522160a0830186615022565b82810360608401526152338186615022565b9150506001600160a01b03831660808301529695505050505050565b60006101406001600160a01b03808b168452615298602085018b6001600160a01b0381511682526020810151602083015260408101516040830152606081015160608301525050565b8860a08501528760c085015280871660e085015250806101008401526152c081840186615022565b90508281036101208401526152d58185615022565b9a9950505050505050505050565b80516152ee8161496f565b919050565b6000610120828403121561530657600080fd5b61530e614cdc565b9050815181526020820151602082015260408201516040820152606082015160608201526080820151608082015260a082015160a082015260c082015160c082015261535c60e083016152e3565b60e082015261010080830151818301525092915050565b600067ffffffffffffffff82111561538d5761538d614cad565b5060051b60200190565b600082601f8301126153a857600080fd5b81516153b6614dc482614d7d565b8181528460208386010111156153cb57600080fd5b6119d1826020830160208701614ffe565b60008060008061018085870312156153f357600080fd5b6153fd86866152f3565b9350610120850151925061014085015167ffffffffffffffff8082111561542357600080fd5b818701915087601f83011261543757600080fd5b81516020615447614dc483615373565b82815260069290921b8401810191818101908b84111561546657600080fd5b948201945b838610156154b2576040868d0312156154845760008081fd5b61548c614d06565b86516154978161496f565b8152868401518482015282526040909501949082019061546b565b6101608b01519097509450505050808211156154cd57600080fd5b506154da87828801615397565b91505092959194509250565b80516001600160a01b031682526000610200602083810151858201526040808501518187015260608086015180516001600160a01b0316828901529283015160808801529082015160a087015281015160c086015250608083015180516001600160a01b031660e08601526020810151610100860152604081015161012086015260608101516101408601525060a083015161016085015260c08301516001600160a01b0381166101808601525060e08301518015156101a086015250610100830151816101c08601526155bc82860182615022565b9150506101208301518482036101e08601526148c58282615022565b602081526000612b1f60208301846154e6565b6060815260006155fe60608301866154e6565b90508360208301526001600160a01b0383166040830152949350505050565b60006001600160a01b03808a168352808916602084015287604084015286606084015260e0608084015261565460e0840187615022565b83810360a08501526156668187615022565b92505080841660c08401525098975050505050505050565b600080610140838503121561569257600080fd5b61569c84846152f3565b915061012083015190509250929050565b60006001600160a01b03808b16835289602084015288604084015287606084015286608084015260e060a08401528460e08401526101008587828601376000848701820152931660c083015250601f909201601f1916909101019695505050505050565b60006101008983528860208401526001600160a01b03808916604085015280881660608501525085608084015284151560a08401528060c0840152600081840152506101208060e08401526152d581840185615022565b6000817fffffffffffffffffffffffffffffffffffffffffffffffffffffffffffffffff04831182151516156157a0576157a0614f86565b500290565b7f4e487b7100000000000000000000000000000000000000000000000000000000600052601260045260246000fd5b60008261580a577f4e487b7100000000000000000000000000000000000000000000000000000000600052601260045260246000fd5b500490565b60006001600160a01b03808916835287602084015286604084015285606084015260c0608084015261584460c0840186615022565b915080841660a084015250979650505050505050565b6001600160a01b038616815284602082015283604082015260a06060820152600061588860a0830185615022565b8281036080840152610d3c8185615022565b60008060008061018085870312156158b157600080fd5b6158bb86866152f3565b9350610120850151925061014085015167ffffffffffffffff808211156158e157600080fd5b818701915087601f8301126158f557600080fd5b81516020615905614dc483615373565b82815260069290921b8401810191818101908b84111561592457600080fd5b948201945b838610156154b2576040868d0312156159425760008081fd5b61594a614d06565b86516159558161496f565b81528684015184820152825260409095019490820190615929565b80516001600160a01b0316825260006101e060208301516020850152604083015160408501526060830151606085015260808301516159dc60808601826001600160a01b0381511682526020810151602083015260408101516040830152606081015160608301525050565b5060a083015180516001600160a01b03908116610100878101919091526020830151610120880152604083015161014088015260609092015161016087015260c08501511661018086015260e08401516101a0860183905290615a4183870183615022565b9250808501519150508482036101c08601526148c58282615022565b602081526000612b1f6020830184615970565b6060815260006155fe6060830186615970565b60006020808385031215615a9657600080fd5b825167ffffffffffffffff811115615aad57600080fd5b8301601f81018513615abe57600080fd5b8051615acc614dc482615373565b81815260e09182028301840191848201919088841115615aeb57600080fd5b938501935b83851015615b815780858a031215615b085760008081fd5b615b10614d29565b8551615b1b81614a80565b815285870151615b2a81614a80565b818801526040868101519082015260608087015190820152608080870151615b518161496f565b9082015260a0868101519082015260c080870151615b6e8161496f565b9082015283529384019391850191615af0565b50979650505050505050565b6101208101615bee8286805115158252602081015115156020830152604081015160408301526060810151606083015260808101516001600160a01b03808216608085015260a083015160a08501528060c08401511660c085015250505050565b8360e08301526001600160a01b03831661010083015294935050505056fea26469706673582212209a0821b8d0e0d584f8a3d44469c86fb05dc17e11fce0e25a17cf53905ee054f064736f6c63430008100033",
  "devdoc": {
    "details": "Inherits from - JBPayoutRedemptionPaymentTerminal: Generic terminal managing all inflows and outflows of funds into the protocol ecosystem.",
    "kind": "dev",
    "methods": {
      "acceptsToken(address,uint256)": {
        "params": {
          "_projectId": "The project ID to check for token acceptance.",
          "_token": "The token to check if this terminal accepts or not."
        },
        "returns": {
          "_0": "The flag."
        }
      },
      "addToBalanceOf(uint256,uint256,address,string,bytes)": {
        "params": {
          "_amount": "The amount of tokens to add, as a fixed point number with the same number of decimals as this terminal. If this is an ETH terminal, this is ignored and msg.value is used instead.",
          "_memo": "A memo to pass along to the emitted event.",
          "_metadata": "Extra data to pass along to the emitted event.",
          "_projectId": "The ID of the project to which the funds received belong.",
          "_token": "The token being paid. This terminal ignores this property since it only manages one currency. "
        }
      },
      "constructor": {
        "params": {
          "_baseWeightCurrency": "The currency to base token issuance on.",
          "_directory": "A contract storing directories of terminals and controllers for each project.",
          "_operatorStore": "A contract storing operator assignments.",
          "_owner": "The address that will own this contract.",
          "_prices": "A contract that exposes price feeds.",
          "_projects": "A contract which mints ERC-721's that represent project ownership and transfers.",
          "_splitsStore": "A contract that stores splits for each project.",
          "_store": "A contract that stores the terminal's data."
        }
      },
      "currencyForToken(address)": {
        "params": {
          "_token": "The token to check for the currency of."
        },
        "returns": {
          "_0": "The currency index."
        }
      },
      "currentEthOverflowOf(uint256)": {
        "details": "The current overflow is represented as a fixed point number with 18 decimals.",
        "params": {
          "_projectId": "The ID of the project to get overflow for."
        },
        "returns": {
          "_0": "The current amount of ETH overflow that project has in this terminal, as a fixed point number with 18 decimals."
        }
      },
      "decimalsForToken(address)": {
        "params": {
          "_token": "The token to check for the decimals of."
        },
        "returns": {
          "_0": "The number of decimals for the token."
        }
      },
      "distributePayoutsOf(uint256,uint256,uint256,address,uint256,string)": {
        "details": "Payouts are sent to the preprogrammed splits. Any leftover is sent to the project's owner.Anyone can distribute payouts on a project's behalf. The project can preconfigure a wildcard split that is used to send funds to msg.sender. This can be used to incentivize calling this function.All funds distributed outside of this contract or any feeless terminals incure the protocol fee.",
        "params": {
          "_amount": "The amount of terminal tokens to distribute, as a fixed point number with same number of decimals as this terminal.",
          "_currency": "The expected currency of the amount being distributed. Must match the project's current funding cycle's distribution limit currency.",
          "_memo": "A memo to pass along to the emitted event.",
          "_minReturnedTokens": "The minimum number of terminal tokens that the `_amount` should be valued at in terms of this terminal's currency, as a fixed point number with the same number of decimals as this terminal.",
          "_projectId": "The ID of the project having its payouts distributed.",
          "_token": "The token being distributed. This terminal ignores this property since it only manages one token. "
        },
        "returns": {
          "netLeftoverDistributionAmount": "The amount that was sent to the project owner, as a fixed point number with the same amount of decimals as this terminal."
        }
      },
      "heldFeesOf(uint256)": {
        "params": {
          "_projectId": "The ID of the project for which fees are being held."
        },
        "returns": {
          "_0": "An array of fees that are being held."
        }
      },
      "migrate(uint256,address)": {
        "details": "Only a project's owner or a designated operator can migrate it.",
        "params": {
          "_projectId": "The ID of the project being migrated.",
          "_to": "The terminal contract that will gain the project's funds."
        },
        "returns": {
          "balance": "The amount of funds that were migrated, as a fixed point number with the same amount of decimals as this terminal."
        }
      },
      "owner()": {
        "details": "Returns the address of the current owner."
      },
      "pay(uint256,uint256,address,address,uint256,bool,string,bytes)": {
        "params": {
          "_amount": "The amount of terminal tokens being received, as a fixed point number with the same amount of decimals as this terminal. If this terminal's token is ETH, this is ignored and msg.value is used in its place.",
          "_beneficiary": "The address to mint tokens for and pass along to the funding cycle's data source and delegate.",
          "_memo": "A memo to pass along to the emitted event, and passed along the the funding cycle's data source and delegate.  A data source can alter the memo before emitting in the event and forwarding to the delegate.",
          "_metadata": "Bytes to send along to the data source, delegate, and emitted event, if provided.",
          "_minReturnedTokens": "The minimum number of project tokens expected in return, as a fixed point number with the same amount of decimals as this terminal.",
          "_preferClaimedTokens": "A flag indicating whether the request prefers to mint project tokens into the beneficiaries wallet rather than leaving them unclaimed. This is only possible if the project has an attached token contract. Leaving them unclaimed saves gas.",
          "_projectId": "The ID of the project being paid.",
          "_token": "The token being paid. This terminal ignores this property since it only manages one token. "
        },
        "returns": {
          "_0": "The number of tokens minted for the beneficiary, as a fixed point number with 18 decimals."
        }
      },
      "processFees(uint256)": {
        "details": "Only a project owner, an operator, or the contract's owner can process held fees.",
        "params": {
          "_projectId": "The ID of the project whos held fees should be processed."
        }
      },
      "redeemTokensOf(address,uint256,uint256,address,uint256,address,string,bytes)": {
        "details": "Only a token holder or a designated operator can redeem its tokens.",
        "params": {
          "_beneficiary": "The address to send the terminal tokens to.",
          "_holder": "The account to redeem tokens for.",
          "_memo": "A memo to pass along to the emitted event.",
          "_metadata": "Bytes to send along to the data source, delegate, and emitted event, if provided.",
          "_minReturnedTokens": "The minimum amount of terminal tokens expected in return, as a fixed point number with the same amount of decimals as the terminal.",
          "_projectId": "The ID of the project to which the tokens being redeemed belong.",
          "_token": "The token being reclaimed. This terminal ignores this property since it only manages one token. ",
          "_tokenCount": "The number of project tokens to redeem, as a fixed point number with 18 decimals."
        },
        "returns": {
          "reclaimAmount": "The amount of terminal tokens that the project tokens were redeemed for, as a fixed point number with 18 decimals."
        }
      },
      "renounceOwnership()": {
        "details": "Leaves the contract without owner. It will not be possible to call `onlyOwner` functions anymore. Can only be called by the current owner. NOTE: Renouncing ownership will leave the contract without an owner, thereby removing any functionality that is only available to the owner."
      },
      "setFee(uint256)": {
        "details": "Only the owner of this contract can change the fee.",
        "params": {
          "_fee": "The new fee, out of MAX_FEE."
        }
      },
      "setFeeGauge(address)": {
        "details": "Only the owner of this contract can change the fee gauge.",
        "params": {
          "_feeGauge": "The new fee gauge."
        }
      },
      "setFeelessAddress(address,bool)": {
        "details": "Only the owner of this contract can set addresses as feeless.",
        "params": {
          "_address": "The address that can be paid towards while still bypassing fees.",
          "_flag": "A flag indicating whether the terminal should be feeless or not."
        }
      },
      "supportsInterface(bytes4)": {
        "details": " See {IERC165-supportsInterface}.",
        "params": {
          "_interfaceId": "The ID of the interface to check for adherance to."
        }
      },
      "transferOwnership(address)": {
        "details": "Transfers ownership of the contract to a new account (`newOwner`). Can only be called by the current owner."
      },
      "useAllowanceOf(uint256,uint256,uint256,address,uint256,address,string)": {
        "details": "Only a project's owner or a designated operator can use its allowance.Incurs the protocol fee.",
        "params": {
          "_amount": "The amount of terminal tokens to use from this project's current allowance, as a fixed point number with the same amount of decimals as this terminal.",
          "_beneficiary": "The address to send the funds to.",
          "_currency": "The expected currency of the amount being distributed. Must match the project's current funding cycle's overflow allowance currency.",
          "_memo": "A memo to pass along to the emitted event.",
          "_minReturnedTokens": "The minimum number of tokens that the `_amount` should be valued at in terms of this terminal's currency, as a fixed point number with 18 decimals.",
          "_projectId": "The ID of the project to use the allowance of.",
          "_token": "The token being distributed. This terminal ignores this property since it only manages one token. "
        },
        "returns": {
          "netDistributedAmount": "The amount of tokens that was distributed to the beneficiary, as a fixed point number with the same amount of decimals as the terminal."
        }
      }
    },
    "version": 1
  },
  "userdoc": {
    "errors": {
      "PRBMath__MulDivOverflow(uint256,uint256)": [
        {
          "notice": "Emitted when the result overflows uint256."
        }
      ]
    },
    "kind": "user",
    "methods": {
      "acceptsToken(address,uint256)": {
        "notice": "A flag indicating if this terminal accepts the specified token."
      },
      "addToBalanceOf(uint256,uint256,address,string,bytes)": {
        "notice": "Receives funds belonging to the specified project."
      },
      "baseWeightCurrency()": {
        "notice": "The currency to base token issuance on."
      },
      "currency()": {
        "notice": "The currency to use when resolving price feeds for this terminal."
      },
      "currencyForToken(address)": {
        "notice": "The currency that should be used for the specified token."
      },
      "currentEthOverflowOf(uint256)": {
        "notice": "Gets the current overflowed amount in this terminal for a specified project, in terms of ETH."
      },
      "decimals()": {
        "notice": "The number of decimals the token fixed point amounts are expected to have."
      },
      "decimalsForToken(address)": {
        "notice": "The decimals that should be used in fixed number accounting for the specified token."
      },
      "directory()": {
        "notice": "The directory of terminals and controllers for projects."
      },
      "distributePayoutsOf(uint256,uint256,uint256,address,uint256,string)": {
        "notice": "Distributes payouts for a project with the distribution limit of its current funding cycle."
      },
      "fee()": {
        "notice": "The platform fee percent."
      },
      "feeGauge()": {
        "notice": "The data source that returns a discount to apply to a project's fee."
      },
      "heldFeesOf(uint256)": {
        "notice": "The fees that are currently being held to be processed later for each project."
      },
      "isFeelessAddress(address)": {
        "notice": "Addresses that can be paid towards from this terminal without incurring a fee."
      },
      "migrate(uint256,address)": {
        "notice": "Allows a project owner to migrate its funds and operations to a new terminal that accepts the same token type."
      },
      "operatorStore()": {
        "notice": " A contract storing operator assignments."
      },
      "pay(uint256,uint256,address,address,uint256,bool,string,bytes)": {
        "notice": "Contribute tokens to a project."
      },
      "payoutSplitsGroup()": {
        "notice": "The group that payout splits coming from this terminal are identified by."
      },
      "prices()": {
        "notice": "The contract that exposes price feeds."
      },
      "processFees(uint256)": {
        "notice": "Process any fees that are being held for the project."
      },
      "projects()": {
        "notice": "Mints ERC-721's that represent project ownership and transfers."
      },
      "redeemTokensOf(address,uint256,uint256,address,uint256,address,string,bytes)": {
        "notice": "Holders can redeem their tokens to claim the project's overflowed tokens, or to trigger rules determined by the project's current funding cycle's data source."
      },
      "setFee(uint256)": {
        "notice": "Allows the fee to be updated."
      },
      "setFeeGauge(address)": {
        "notice": "Allows the fee gauge to be updated."
      },
      "setFeelessAddress(address,bool)": {
        "notice": "Sets whether projects operating on this terminal can pay towards the specified address without incurring a fee."
      },
      "splitsStore()": {
        "notice": "The contract that stores splits for each project."
      },
      "store()": {
        "notice": "The contract that stores and manages the terminal's data."
      },
      "supportsInterface(bytes4)": {
        "notice": "Indicates if this contract adheres to the specified interface."
      },
      "token()": {
        "notice": "The token that this terminal accepts."
      },
      "useAllowanceOf(uint256,uint256,uint256,address,uint256,address,string)": {
        "notice": "Allows a project to send funds from its overflow up to the preconfigured allowance."
      }
    },
    "notice": "Manages all inflows and outflows of ETH funds into the protocol ecosystem.",
    "version": 1
  },
  "storageLayout": {
    "storage": [
      {
        "astId": 53,
        "contract": "contracts/JBETHPaymentTerminal.sol:JBETHPaymentTerminal",
        "label": "_owner",
        "offset": 0,
        "slot": "0",
        "type": "t_address"
      },
      {
        "astId": 15777,
        "contract": "contracts/JBETHPaymentTerminal.sol:JBETHPaymentTerminal",
        "label": "_heldFeesOf",
        "offset": 0,
        "slot": "1",
        "type": "t_mapping(t_uint256,t_array(t_struct(JBFee)21677_storage)dyn_storage)"
      },
      {
        "astId": 15815,
        "contract": "contracts/JBETHPaymentTerminal.sol:JBETHPaymentTerminal",
        "label": "fee",
        "offset": 0,
        "slot": "2",
        "type": "t_uint256"
      },
      {
        "astId": 15820,
        "contract": "contracts/JBETHPaymentTerminal.sol:JBETHPaymentTerminal",
        "label": "feeGauge",
        "offset": 0,
        "slot": "3",
        "type": "t_contract(IJBFeeGauge)19040"
      },
      {
        "astId": 15826,
        "contract": "contracts/JBETHPaymentTerminal.sol:JBETHPaymentTerminal",
        "label": "isFeelessAddress",
        "offset": 0,
        "slot": "4",
        "type": "t_mapping(t_address,t_bool)"
      }
    ],
    "types": {
      "t_address": {
        "encoding": "inplace",
        "label": "address",
        "numberOfBytes": "20"
      },
      "t_array(t_struct(JBFee)21677_storage)dyn_storage": {
        "base": "t_struct(JBFee)21677_storage",
        "encoding": "dynamic_array",
        "label": "struct JBFee[]",
        "numberOfBytes": "32"
      },
      "t_bool": {
        "encoding": "inplace",
        "label": "bool",
        "numberOfBytes": "1"
      },
      "t_contract(IJBFeeGauge)19040": {
        "encoding": "inplace",
        "label": "contract IJBFeeGauge",
        "numberOfBytes": "20"
      },
      "t_mapping(t_address,t_bool)": {
        "encoding": "mapping",
        "key": "t_address",
        "label": "mapping(address => bool)",
        "numberOfBytes": "32",
        "value": "t_bool"
      },
      "t_mapping(t_uint256,t_array(t_struct(JBFee)21677_storage)dyn_storage)": {
        "encoding": "mapping",
        "key": "t_uint256",
        "label": "mapping(uint256 => struct JBFee[])",
        "numberOfBytes": "32",
        "value": "t_array(t_struct(JBFee)21677_storage)dyn_storage"
      },
      "t_struct(JBFee)21677_storage": {
        "encoding": "inplace",
        "label": "struct JBFee",
        "members": [
          {
            "astId": 21670,
            "contract": "contracts/JBETHPaymentTerminal.sol:JBETHPaymentTerminal",
            "label": "amount",
            "offset": 0,
            "slot": "0",
            "type": "t_uint256"
          },
          {
            "astId": 21672,
            "contract": "contracts/JBETHPaymentTerminal.sol:JBETHPaymentTerminal",
            "label": "fee",
            "offset": 0,
            "slot": "1",
            "type": "t_uint32"
          },
          {
            "astId": 21674,
            "contract": "contracts/JBETHPaymentTerminal.sol:JBETHPaymentTerminal",
            "label": "feeDiscount",
            "offset": 4,
            "slot": "1",
            "type": "t_uint32"
          },
          {
            "astId": 21676,
            "contract": "contracts/JBETHPaymentTerminal.sol:JBETHPaymentTerminal",
            "label": "beneficiary",
            "offset": 8,
            "slot": "1",
            "type": "t_address"
          }
        ],
        "numberOfBytes": "64"
      },
      "t_uint256": {
        "encoding": "inplace",
        "label": "uint256",
        "numberOfBytes": "32"
      },
      "t_uint32": {
        "encoding": "inplace",
        "label": "uint32",
        "numberOfBytes": "4"
      }
    }
  }
}