{
  "address": "0x1246a50e3aDaF684Ac566f0c40816fF738F309B3",
  "abi": [
    {
      "inputs": [
        {
          "internalType": "contract IJBOperatorStore",
          "name": "_operatorStore",
          "type": "address"
        },
        {
          "internalType": "contract IJBProjects",
          "name": "_projects",
          "type": "address"
        },
        {
          "internalType": "contract IJBDirectory",
          "name": "_directory",
          "type": "address"
        },
        {
          "internalType": "contract IJBFundingCycleStore",
          "name": "_fundingCycleStore",
          "type": "address"
        }
      ],
      "stateMutability": "nonpayable",
      "type": "constructor"
    },
    {
      "inputs": [],
      "name": "ALREADY_SET",
      "type": "error"
    },
    {
      "inputs": [],
      "name": "CONTROLLER_UNAUTHORIZED",
      "type": "error"
    },
    {
      "inputs": [],
      "name": "EMPTY_NAME",
      "type": "error"
    },
    {
      "inputs": [],
      "name": "EMPTY_SYMBOL",
      "type": "error"
    },
    {
      "inputs": [],
      "name": "EMPTY_TOKEN",
      "type": "error"
    },
    {
      "inputs": [],
      "name": "INSUFFICIENT_FUNDS",
      "type": "error"
    },
    {
      "inputs": [],
      "name": "INSUFFICIENT_UNCLAIMED_TOKENS",
      "type": "error"
    },
    {
      "inputs": [],
      "name": "OVERFLOW_ALERT",
      "type": "error"
    },
    {
      "inputs": [],
      "name": "PROJECT_ALREADY_HAS_TOKEN",
      "type": "error"
    },
    {
      "inputs": [],
      "name": "RECIPIENT_ZERO_ADDRESS",
      "type": "error"
    },
    {
      "inputs": [],
      "name": "TOKENS_MUST_HAVE_18_DECIMALS",
      "type": "error"
    },
    {
      "inputs": [],
      "name": "TOKEN_NOT_FOUND",
      "type": "error"
    },
    {
      "inputs": [],
      "name": "TRANSFERS_PAUSED",
      "type": "error"
    },
    {
      "inputs": [],
      "name": "UNAUTHORIZED",
      "type": "error"
    },
    {
      "anonymous": false,
      "inputs": [
        {
          "indexed": true,
          "internalType": "address",
          "name": "holder",
          "type": "address"
        },
        {
          "indexed": true,
          "internalType": "uint256",
          "name": "projectId",
          "type": "uint256"
        },
        {
          "indexed": false,
          "internalType": "uint256",
          "name": "amount",
          "type": "uint256"
        },
        {
          "indexed": false,
          "internalType": "uint256",
          "name": "initialUnclaimedBalance",
          "type": "uint256"
        },
        {
          "indexed": false,
          "internalType": "uint256",
          "name": "initialClaimedBalance",
          "type": "uint256"
        },
        {
          "indexed": false,
          "internalType": "bool",
          "name": "preferClaimedTokens",
          "type": "bool"
        },
        {
          "indexed": false,
          "internalType": "address",
          "name": "caller",
          "type": "address"
        }
      ],
      "name": "Burn",
      "type": "event"
    },
    {
      "anonymous": false,
      "inputs": [
        {
          "indexed": true,
          "internalType": "address",
          "name": "holder",
          "type": "address"
        },
        {
          "indexed": true,
          "internalType": "uint256",
          "name": "projectId",
          "type": "uint256"
        },
        {
          "indexed": false,
          "internalType": "uint256",
          "name": "initialUnclaimedBalance",
          "type": "uint256"
        },
        {
          "indexed": false,
          "internalType": "uint256",
          "name": "amount",
          "type": "uint256"
        },
        {
          "indexed": false,
          "internalType": "address",
          "name": "caller",
          "type": "address"
        }
      ],
      "name": "Claim",
      "type": "event"
    },
    {
      "anonymous": false,
      "inputs": [
        {
          "indexed": true,
          "internalType": "uint256",
          "name": "projectId",
          "type": "uint256"
        },
        {
          "indexed": true,
          "internalType": "contract IJBToken",
          "name": "token",
          "type": "address"
        },
        {
          "indexed": false,
          "internalType": "string",
          "name": "name",
          "type": "string"
        },
        {
          "indexed": false,
          "internalType": "string",
          "name": "symbol",
          "type": "string"
        },
        {
          "indexed": false,
          "internalType": "address",
          "name": "caller",
          "type": "address"
        }
      ],
      "name": "Issue",
      "type": "event"
    },
    {
      "anonymous": false,
      "inputs": [
        {
          "indexed": true,
          "internalType": "address",
          "name": "holder",
          "type": "address"
        },
        {
          "indexed": true,
          "internalType": "uint256",
          "name": "projectId",
          "type": "uint256"
        },
        {
          "indexed": false,
          "internalType": "uint256",
          "name": "amount",
          "type": "uint256"
        },
        {
          "indexed": false,
          "internalType": "bool",
          "name": "tokensWereClaimed",
          "type": "bool"
        },
        {
          "indexed": false,
          "internalType": "bool",
          "name": "preferClaimedTokens",
          "type": "bool"
        },
        {
          "indexed": false,
          "internalType": "address",
          "name": "caller",
          "type": "address"
        }
      ],
      "name": "Mint",
      "type": "event"
    },
    {
      "anonymous": false,
      "inputs": [
        {
          "indexed": true,
          "internalType": "uint256",
          "name": "projectId",
          "type": "uint256"
        },
        {
          "indexed": true,
          "internalType": "contract IJBToken",
          "name": "newToken",
          "type": "address"
        },
        {
          "indexed": false,
          "internalType": "address",
          "name": "caller",
          "type": "address"
        }
      ],
      "name": "Set",
      "type": "event"
    },
    {
      "anonymous": false,
      "inputs": [
        {
          "indexed": true,
          "internalType": "address",
          "name": "holder",
          "type": "address"
        },
        {
          "indexed": true,
          "internalType": "uint256",
          "name": "projectId",
          "type": "uint256"
        },
        {
          "indexed": true,
          "internalType": "address",
          "name": "recipient",
          "type": "address"
        },
        {
          "indexed": false,
          "internalType": "uint256",
          "name": "amount",
          "type": "uint256"
        },
        {
          "indexed": false,
          "internalType": "address",
          "name": "caller",
          "type": "address"
        }
      ],
      "name": "Transfer",
      "type": "event"
    },
    {
      "inputs": [
        {
          "internalType": "address",
          "name": "_holder",
          "type": "address"
        },
        {
          "internalType": "uint256",
          "name": "_projectId",
          "type": "uint256"
        }
      ],
      "name": "balanceOf",
      "outputs": [
        {
          "internalType": "uint256",
          "name": "balance",
          "type": "uint256"
        }
      ],
      "stateMutability": "view",
      "type": "function"
    },
    {
      "inputs": [
        {
          "internalType": "address",
          "name": "_holder",
          "type": "address"
        },
        {
          "internalType": "uint256",
          "name": "_projectId",
          "type": "uint256"
        },
        {
          "internalType": "uint256",
          "name": "_amount",
          "type": "uint256"
        },
        {
          "internalType": "bool",
          "name": "_preferClaimedTokens",
          "type": "bool"
        }
      ],
      "name": "burnFrom",
      "outputs": [],
      "stateMutability": "nonpayable",
      "type": "function"
    },
    {
      "inputs": [
        {
          "internalType": "address",
          "name": "_holder",
          "type": "address"
        },
        {
          "internalType": "uint256",
          "name": "_projectId",
          "type": "uint256"
        },
        {
          "internalType": "uint256",
          "name": "_amount",
          "type": "uint256"
        }
      ],
      "name": "claimFor",
      "outputs": [],
      "stateMutability": "nonpayable",
      "type": "function"
    },
    {
      "inputs": [],
      "name": "directory",
      "outputs": [
        {
          "internalType": "contract IJBDirectory",
          "name": "",
          "type": "address"
        }
      ],
      "stateMutability": "view",
      "type": "function"
    },
    {
      "inputs": [],
      "name": "fundingCycleStore",
      "outputs": [
        {
          "internalType": "contract IJBFundingCycleStore",
          "name": "",
          "type": "address"
        }
      ],
      "stateMutability": "view",
      "type": "function"
    },
    {
      "inputs": [
        {
          "internalType": "uint256",
          "name": "_projectId",
          "type": "uint256"
        },
        {
          "internalType": "string",
          "name": "_name",
          "type": "string"
        },
        {
          "internalType": "string",
          "name": "_symbol",
          "type": "string"
        }
      ],
      "name": "issueFor",
      "outputs": [
        {
          "internalType": "contract IJBToken",
          "name": "token",
          "type": "address"
        }
      ],
      "stateMutability": "nonpayable",
      "type": "function"
    },
    {
      "inputs": [
        {
          "internalType": "address",
          "name": "_holder",
          "type": "address"
        },
        {
          "internalType": "uint256",
          "name": "_projectId",
          "type": "uint256"
        },
        {
          "internalType": "uint256",
          "name": "_amount",
          "type": "uint256"
        },
        {
          "internalType": "bool",
          "name": "_preferClaimedTokens",
          "type": "bool"
        }
      ],
      "name": "mintFor",
      "outputs": [],
      "stateMutability": "nonpayable",
      "type": "function"
    },
    {
      "inputs": [],
      "name": "operatorStore",
      "outputs": [
        {
          "internalType": "contract IJBOperatorStore",
          "name": "",
          "type": "address"
        }
      ],
      "stateMutability": "view",
      "type": "function"
    },
    {
      "inputs": [],
      "name": "projects",
      "outputs": [
        {
          "internalType": "contract IJBProjects",
          "name": "",
          "type": "address"
        }
      ],
      "stateMutability": "view",
      "type": "function"
    },
    {
      "inputs": [
        {
          "internalType": "uint256",
          "name": "_projectId",
          "type": "uint256"
        },
        {
          "internalType": "contract IJBToken",
          "name": "_token",
          "type": "address"
        }
      ],
      "name": "setFor",
      "outputs": [],
      "stateMutability": "nonpayable",
      "type": "function"
    },
    {
      "inputs": [
        {
          "internalType": "uint256",
          "name": "",
          "type": "uint256"
        }
      ],
      "name": "tokenOf",
      "outputs": [
        {
          "internalType": "contract IJBToken",
          "name": "",
          "type": "address"
        }
      ],
      "stateMutability": "view",
      "type": "function"
    },
    {
      "inputs": [
        {
          "internalType": "uint256",
          "name": "_projectId",
          "type": "uint256"
        }
      ],
      "name": "totalSupplyOf",
      "outputs": [
        {
          "internalType": "uint256",
          "name": "totalSupply",
          "type": "uint256"
        }
      ],
      "stateMutability": "view",
      "type": "function"
    },
    {
      "inputs": [
        {
          "internalType": "address",
          "name": "_holder",
          "type": "address"
        },
        {
          "internalType": "uint256",
          "name": "_projectId",
          "type": "uint256"
        },
        {
          "internalType": "address",
          "name": "_recipient",
          "type": "address"
        },
        {
          "internalType": "uint256",
          "name": "_amount",
          "type": "uint256"
        }
      ],
      "name": "transferFrom",
      "outputs": [],
      "stateMutability": "nonpayable",
      "type": "function"
    },
    {
      "inputs": [
        {
          "internalType": "address",
          "name": "",
          "type": "address"
        },
        {
          "internalType": "uint256",
          "name": "",
          "type": "uint256"
        }
      ],
      "name": "unclaimedBalanceOf",
      "outputs": [
        {
          "internalType": "uint256",
          "name": "",
          "type": "uint256"
        }
      ],
      "stateMutability": "view",
      "type": "function"
    },
    {
      "inputs": [
        {
          "internalType": "uint256",
          "name": "",
          "type": "uint256"
        }
      ],
      "name": "unclaimedTotalSupplyOf",
      "outputs": [
        {
          "internalType": "uint256",
          "name": "",
          "type": "uint256"
        }
      ],
      "stateMutability": "view",
      "type": "function"
    }
  ],
  "transactionHash": "0xf73ecbaf6f9ecf4198345e52b561a84f1eb5d0af63b913819004bc71751ef9b1",
  "args": [
    "0x99dB6b517683237dE9C494bbd17861f3608F3585",
    "0x21263a042aFE4bAE34F08Bb318056C181bD96D3b",
    "0x8E05bcD2812E1449f0EC3aE24E2C395F533d9A99",
    "0xB9Ee9d8203467f6EC0eAC81163d210bd1a7d3b55"
  ],
  "numDeployments": 1,
  "solcInputHash": "7f5ae5369c2a685c882e67f75315b841",
  "bytecode": "0x6101006040523480156200001257600080fd5b5060405162004c3238038062004c32833981016040819052620000359162000072565b6001600160a01b0391821660805292811660a05290811660c0521660e052620000da565b6001600160a01b03811681146200006f57600080fd5b50565b600080600080608085870312156200008957600080fd5b8451620000968162000059565b6020860151909450620000a98162000059565b6040860151909350620000bc8162000059565b6060860151909250620000cf8162000059565b939692955090935050565b60805160a05160c05160e051614aed620001456000396000818161018e0152611080015260008181610223015281816107270152610df0015260008181610290015281816116a501526117760152600081816102b8015281816109e601526113240152614aed6000f3fe60806040523480156200001157600080fd5b5060043610620001085760003560e01c80638b79543c11620000a3578063ad007d63116200006e578063ad007d63146200028a578063c41c2f2414620002b2578063ceddd3e414620002da578063ea78803f14620002f157600080fd5b80638b79543c146200021d578063906ebd0f1462000245578063a7f2a70b146200025c578063ac689bcd146200027357600080fd5b8063557e715511620000e4578063557e715514620001885780636607955d14620001d657806375b0d9cd14620001ef578063831d7fac146200020657600080fd5b8062fdd58e146200010d5780631412884f14620001375780635287af37146200015a575b600080fd5b620001246200011e366004620018d2565b6200032a565b6040519081526020015b60405180910390f35b620001246200014836600462001901565b60016020526000908152604090205481565b620001246200016b366004620018d2565b600260209081526000928352604080842090915290825290205481565b620001b07f000000000000000000000000000000000000000000000000000000000000000081565b60405173ffffffffffffffffffffffffffffffffffffffff90911681526020016200012e565b620001ed620001e73660046200191b565b6200041c565b005b620001246200020036600462001901565b6200061a565b620001ed6200021736600462001953565b620006f8565b620001b07f000000000000000000000000000000000000000000000000000000000000000081565b620001ed6200025636600462001995565b6200099e565b620001b06200026d36600462001a30565b62000dbe565b620001ed6200028436600462001ab1565b6200103d565b620001b07f000000000000000000000000000000000000000000000000000000000000000081565b620001b07f000000000000000000000000000000000000000000000000000000000000000081565b620001ed620002eb36600462001995565b620012dc565b620001b06200030236600462001901565b60006020819052908152604090205473ffffffffffffffffffffffffffffffffffffffff1681565b73ffffffffffffffffffffffffffffffffffffffff80831660009081526002602090815260408083208584528252808320549183905290912054909116801562000415576040517efdd58e00000000000000000000000000000000000000000000000000000000815273ffffffffffffffffffffffffffffffffffffffff85811660048301526024820185905282169062fdd58e90604401602060405180830381865afa158015620003e0573d6000803e3d6000fd5b505050506040513d601f19601f8201168201806040525081019062000406919062001afe565b62000412908362001b47565b91505b5092915050565b8282600b6200042d8383836200162a565b60008581526020819052604090205473ffffffffffffffffffffffffffffffffffffffff16806200048a576040517f73c463ce00000000000000000000000000000000000000000000000000000000815260040160405180910390fd5b73ffffffffffffffffffffffffffffffffffffffff8716600090815260026020908152604080832089845290915290205485811015620004f6576040517f83fc8b2d00000000000000000000000000000000000000000000000000000000815260040160405180910390fd5b73ffffffffffffffffffffffffffffffffffffffff88811660008181526002602090815260408083208c845282528083208b8703905560019091529081902080548a90039055517f836a1040000000000000000000000000000000000000000000000000000000008152600481018a90526024810191909152604481018890529083169063836a104090606401600060405180830381600087803b1580156200059e57600080fd5b505af1158015620005b3573d6000803e3d6000fd5b505060408051848152602081018a9052338183015290518a935073ffffffffffffffffffffffffffffffffffffffff8c1692507fe718784128df3c3d45fbd6519133fee450494f7cdb2b53830a5087cd47f980829181900360600190a35050505050505050565b600081815260016020908152604080832054918390529091205473ffffffffffffffffffffffffffffffffffffffff168015620006f2576040517fbd85b0390000000000000000000000000000000000000000000000000000000081526004810184905273ffffffffffffffffffffffffffffffffffffffff82169063bd85b03990602401602060405180830381865afa158015620006bd573d6000803e3d6000fd5b505050506040513d601f19601f82011682018060405250810190620006e3919062001afe565b620006ef908362001b47565b91505b50919050565b6040517f6352211e000000000000000000000000000000000000000000000000000000008152600481018390527f000000000000000000000000000000000000000000000000000000000000000073ffffffffffffffffffffffffffffffffffffffff1690636352211e90602401602060405180830381865afa15801562000784573d6000803e3d6000fd5b505050506040513d601f19601f82011682018060405250810190620007aa919062001b5d565b826008620007ba8383836200162a565b73ffffffffffffffffffffffffffffffffffffffff841662000808576040517f24679e7b00000000000000000000000000000000000000000000000000000000815260040160405180910390fd5b60008581526020819052604090205473ffffffffffffffffffffffffffffffffffffffff161562000865576040517f97f9d95700000000000000000000000000000000000000000000000000000000815260040160405180910390fd5b8373ffffffffffffffffffffffffffffffffffffffff1663313ce5676040518163ffffffff1660e01b8152600401602060405180830381865afa158015620008b1573d6000803e3d6000fd5b505050506040513d601f19601f82011682018060405250810190620008d7919062001b84565b60ff1660121462000914576040517fadc38c9400000000000000000000000000000000000000000000000000000000815260040160405180910390fd5b6000858152602081815260409182902080547fffffffffffffffffffffffff00000000000000000000000000000000000000001673ffffffffffffffffffffffffffffffffffffffff8816908117909155915133815287917ff2b3bb02e24e3ecd8d6fbce63d308207ce06307b9f7ba575bef710e1e70ac60e910160405180910390a35050505050565b6040517f5dd8f6aa000000000000000000000000000000000000000000000000000000008152600481018490528390339073ffffffffffffffffffffffffffffffffffffffff7f00000000000000000000000000000000000000000000000000000000000000001690635dd8f6aa90602401602060405180830381865afa15801562000a2e573d6000803e3d6000fd5b505050506040513d601f19601f8201168201806040525081019062000a54919062001b5d565b73ffffffffffffffffffffffffffffffffffffffff161462000aa2576040517fab7f741400000000000000000000000000000000000000000000000000000000815260040160405180910390fd5b6000848152602081815260408083205473ffffffffffffffffffffffffffffffffffffffff89811685526002845282852089865290935290832054911691821562000b85576040517efdd58e00000000000000000000000000000000000000000000000000000000815273ffffffffffffffffffffffffffffffffffffffff89811660048301526024820189905284169062fdd58e90604401602060405180830381865afa15801562000b59573d6000803e3d6000fd5b505050506040513d601f19601f8201168201806040525081019062000b7f919062001afe565b62000b88565b60005b905062000b96828262001b47565b86111562000bd0576040517fe793143800000000000000000000000000000000000000000000000000000000815260040160405180910390fd5b6000811562000c1057851562000bf95786821062000bef578662000bf1565b815b905062000c10565b86831062000c0957600062000c0d565b8287035b90505b80870387821462000cb05773ffffffffffffffffffffffffffffffffffffffff8a1660009081526002602090815260408083208c845290915290205462000c5990829062001ba9565b73ffffffffffffffffffffffffffffffffffffffff8b1660009081526002602090815260408083208d845282528083209390935560019052205462000ca090829062001ba9565b60008a8152600160205260409020555b811562000d49576040517f9eea5f66000000000000000000000000000000000000000000000000000000008152600481018a905273ffffffffffffffffffffffffffffffffffffffff8b8116602483015260448201849052861690639eea5f6690606401600060405180830381600087803b15801562000d2f57600080fd5b505af115801562000d44573d6000803e3d6000fd5b505050505b60408051898152602081018690529081018490528715156060820152336080820152899073ffffffffffffffffffffffffffffffffffffffff8c16907fbe100da6adaa492f7ba1b0de916ae2606126ec7b044d7aa8ec74971a607ceecd9060a00160405180910390a350505050505050505050565b6040517f6352211e000000000000000000000000000000000000000000000000000000008152600481018690526000907f000000000000000000000000000000000000000000000000000000000000000073ffffffffffffffffffffffffffffffffffffffff1690636352211e90602401602060405180830381865afa15801562000e4d573d6000803e3d6000fd5b505050506040513d601f19601f8201168201806040525081019062000e73919062001b5d565b86600762000e838383836200162a565b600087900362000ebf576040517f92bf449d00000000000000000000000000000000000000000000000000000000815260040160405180910390fd5b600085900362000efb576040517f571431a700000000000000000000000000000000000000000000000000000000815260040160405180910390fd5b60008981526020819052604090205473ffffffffffffffffffffffffffffffffffffffff161562000f58576040517fa54630ac00000000000000000000000000000000000000000000000000000000815260040160405180910390fd5b878787878c60405162000f6b906200189e565b62000f7b95949392919062001c08565b604051809103906000f08015801562000f98573d6000803e3d6000fd5b5060008a8152602081905260409081902080547fffffffffffffffffffffffff00000000000000000000000000000000000000001673ffffffffffffffffffffffffffffffffffffffff84169081179091559051919550908a907f1b1705bef26552c8f314c5eb80e9c84f02876c2f7f30a7f9ad5cafd17d5fa6da9062001029908c908c908c908c90339062001c46565b60405180910390a350505095945050505050565b8383600c6200104e8383836200162a565b6040517f43a266c2000000000000000000000000000000000000000000000000000000008152600481018790526000907f000000000000000000000000000000000000000000000000000000000000000073ffffffffffffffffffffffffffffffffffffffff16906343a266c29060240161012060405180830381865afa158015620010de573d6000803e3d6000fd5b505050506040513d601f19601f8201168201806040525081019062001104919062001cfe565b9050620011118162001823565b60400151156200114d576040517f18cdaf9700000000000000000000000000000000000000000000000000000000815260040160405180910390fd5b73ffffffffffffffffffffffffffffffffffffffff86166200119b576040517fc6587bab00000000000000000000000000000000000000000000000000000000815260040160405180910390fd5b73ffffffffffffffffffffffffffffffffffffffff881660009081526002602090815260408083208a84529091529020548086111562001207576040517f83fc8b2d00000000000000000000000000000000000000000000000000000000815260040160405180910390fd5b73ffffffffffffffffffffffffffffffffffffffff808a1660009081526002602081815260408084208d855282528084208b87039055938b1683529081528282208b8352905220546200125c90879062001b47565b73ffffffffffffffffffffffffffffffffffffffff88811660008181526002602090815260408083208e84528252918290209490945580518a8152339481019490945290928b928d16917fae47e55abe3902569528abe4272b889079230a248aec0659a2939a90354982c6910160405180910390a4505050505050505050565b6040517f5dd8f6aa000000000000000000000000000000000000000000000000000000008152600481018490528390339073ffffffffffffffffffffffffffffffffffffffff7f00000000000000000000000000000000000000000000000000000000000000001690635dd8f6aa90602401602060405180830381865afa1580156200136c573d6000803e3d6000fd5b505050506040513d601f19601f8201168201806040525081019062001392919062001b5d565b73ffffffffffffffffffffffffffffffffffffffff1614620013e0576040517fab7f741400000000000000000000000000000000000000000000000000000000815260040160405180910390fd5b60008481526020819052604081205473ffffffffffffffffffffffffffffffffffffffff169083801562001429575073ffffffffffffffffffffffffffffffffffffffff821615155b90508015620014c9576040517f836a10400000000000000000000000000000000000000000000000000000000081526004810187905273ffffffffffffffffffffffffffffffffffffffff88811660248301526044820187905283169063836a104090606401600060405180830381600087803b158015620014aa57600080fd5b505af1158015620014bf573d6000803e3d6000fd5b505050506200155e565b73ffffffffffffffffffffffffffffffffffffffff871660009081526002602090815260408083208984529091529020546200150790869062001b47565b73ffffffffffffffffffffffffffffffffffffffff881660009081526002602090815260408083208a84528252808320939093556001905220546200154e90869062001b47565b6000878152600160205260409020555b7bffffffffffffffffffffffffffffffffffffffffffffffffffffffff62001586876200061a565b1115620015bf576040517f60c5e71200000000000000000000000000000000000000000000000000000000815260040160405180910390fd5b604080518681528215156020820152851515818301523360608201529051879173ffffffffffffffffffffffffffffffffffffffff8a16917f5dd3ead325af435e56bc762b40de54c96de6071938d18a26414245807591d86f9181900360800190a350505050505050565b3373ffffffffffffffffffffffffffffffffffffffff8416148015906200171557506040517fc161c93f00000000000000000000000000000000000000000000000000000000815233600482015273ffffffffffffffffffffffffffffffffffffffff848116602483015260448201849052606482018390527f0000000000000000000000000000000000000000000000000000000000000000169063c161c93f90608401602060405180830381865afa158015620016ed573d6000803e3d6000fd5b505050506040513d601f19601f8201168201806040525081019062001713919062001d83565b155b8015620017e657506040517fc161c93f00000000000000000000000000000000000000000000000000000000815233600482015273ffffffffffffffffffffffffffffffffffffffff848116602483015260006044830152606482018390527f0000000000000000000000000000000000000000000000000000000000000000169063c161c93f90608401602060405180830381865afa158015620017be573d6000803e3d6000fd5b505050506040513d601f19601f82011682018060405250810190620017e4919062001d83565b155b156200181e576040517f075fd2b100000000000000000000000000000000000000000000000000000000815260040160405180910390fd5b505050565b6040805160608101825260008082526020820181905291810191909152620018986008836101000151901c604080516060808201835260008083526020808401829052928401528251908101835260018481168114825284811c811681149282019290925260029390931c8116149082015290565b92915050565b612d148062001da483390190565b73ffffffffffffffffffffffffffffffffffffffff81168114620018cf57600080fd5b50565b60008060408385031215620018e657600080fd5b8235620018f381620018ac565b946020939093013593505050565b6000602082840312156200191457600080fd5b5035919050565b6000806000606084860312156200193157600080fd5b83356200193e81620018ac565b95602085013595506040909401359392505050565b600080604083850312156200196757600080fd5b8235915060208301356200197b81620018ac565b809150509250929050565b8015158114620018cf57600080fd5b60008060008060808587031215620019ac57600080fd5b8435620019b981620018ac565b935060208501359250604085013591506060850135620019d98162001986565b939692955090935050565b60008083601f840112620019f757600080fd5b50813567ffffffffffffffff81111562001a1057600080fd5b60208301915083602082850101111562001a2957600080fd5b9250929050565b60008060008060006060868803121562001a4957600080fd5b85359450602086013567ffffffffffffffff8082111562001a6957600080fd5b62001a7789838a01620019e4565b9096509450604088013591508082111562001a9157600080fd5b5062001aa088828901620019e4565b969995985093965092949392505050565b6000806000806080858703121562001ac857600080fd5b843562001ad581620018ac565b935060208501359250604085013562001aee81620018ac565b9396929550929360600135925050565b60006020828403121562001b1157600080fd5b5051919050565b7f4e487b7100000000000000000000000000000000000000000000000000000000600052601160045260246000fd5b8082018082111562001898576200189862001b18565b60006020828403121562001b7057600080fd5b815162001b7d81620018ac565b9392505050565b60006020828403121562001b9757600080fd5b815160ff8116811462001b7d57600080fd5b8181038181111562001898576200189862001b18565b8183528181602085013750600060208284010152600060207fffffffffffffffffffffffffffffffffffffffffffffffffffffffffffffffe0601f840116840101905092915050565b60608152600062001c1e60608301878962001bbf565b828103602084015262001c3381868862001bbf565b9150508260408301529695505050505050565b60608152600062001c5c60608301878962001bbf565b828103602084015262001c7181868862001bbf565b91505073ffffffffffffffffffffffffffffffffffffffff831660408301529695505050505050565b604051610120810167ffffffffffffffff8111828210171562001ce6577f4e487b7100000000000000000000000000000000000000000000000000000000600052604160045260246000fd5b60405290565b805162001cf981620018ac565b919050565b6000610120828403121562001d1257600080fd5b62001d1c62001c9a565b825181526020830151602082015260408301516040820152606083015160608201526080830151608082015260a083015160a082015260c083015160c082015262001d6a60e0840162001cec565b60e0820152610100928301519281019290925250919050565b60006020828403121562001d9657600080fd5b815162001b7d816200198656fe6101806040527f6e71edae12b1b97f4d1f60370fef10105fa2faae0126114a169c64845d6126c9610140523480156200003757600080fd5b5060405162002d1438038062002d148339810160408190526200005a9162000258565b6040805180820190915260018152603160f81b602082015283908190818560036200008683826200035a565b5060046200009582826200035a565b5050825160209384012082519284019290922060e08390526101008190524660a0818152604080517f8b73c3c69bb8fe3d512ecc4cf759cc79239f7b179b0ffacaa9a75d522b39400f818901819052818301979097526060810194909452608080850193909352308483018190528151808603909301835260c09485019091528151919096012090529290925261012052506200013490503362000141565b6101605250620004269050565b600980546001600160a01b038381166001600160a01b0319831681179093556040519116919082907f8be0079c531659141344cd1fd0a4f28419497f9722a3daafe3b4186f6b6457e090600090a35050565b634e487b7160e01b600052604160045260246000fd5b600082601f830112620001bb57600080fd5b81516001600160401b0380821115620001d857620001d862000193565b604051601f8301601f19908116603f0116810190828211818310171562000203576200020362000193565b816040528381526020925086838588010111156200022057600080fd5b600091505b8382101562000244578582018301518183018401529082019062000225565b600093810190920192909252949350505050565b6000806000606084860312156200026e57600080fd5b83516001600160401b03808211156200028657600080fd5b6200029487838801620001a9565b94506020860151915080821115620002ab57600080fd5b50620002ba86828701620001a9565b925050604084015190509250925092565b600181811c90821680620002e057607f821691505b6020821081036200030157634e487b7160e01b600052602260045260246000fd5b50919050565b601f8211156200035557600081815260208120601f850160051c81016020861015620003305750805b601f850160051c820191505b8181101562000351578281556001016200033c565b5050505b505050565b81516001600160401b0381111562000376576200037662000193565b6200038e81620003878454620002cb565b8462000307565b602080601f831160018114620003c65760008415620003ad5750858301515b600019600386901b1c1916600185901b17855562000351565b600085815260208120601f198616915b82811015620003f757888601518255948401946001909101908401620003d6565b5085821015620004165787850151600019600388901b60f8161c191681555b5050505050600190811b01905550565b60805160a05160c05160e05161010051610120516101405161016051612842620004d2600039600081816102df0152818161061901528181610643015281816109650152818161098f015281816109fa01528181610a2401528181610c0601528181610c3001528181611171015261119b01526000610ee7015260006115fe0152600061164d0152600061162801526000611581015260006115ab015260006115d501526128426000f3fe608060405234801561001057600080fd5b506004361061020a5760003560e01c80637ecebe001161012a578063a457c2d7116100bd578063d505accf1161008c578063f1127ed811610071578063f1127ed8146104d4578063f2fde38b14610526578063f8548e361461053957600080fd5b8063d505accf14610488578063dd62ed3e1461049b57600080fd5b8063a457c2d71461043c578063a9059cbb1461044f578063bd85b03914610462578063c3cda5201461047557600080fd5b80638e539e8c116100f95780638e539e8c146103fb57806395d89b411461040e5780639ab24eb0146104165780639eea5f661461042957600080fd5b80637ecebe00146103b1578063836a1040146103c45780638cb0a511146103d75780638da5cb5b146103ea57600080fd5b806339509351116101a25780635c19a95c116101715780635c19a95c146103455780636fcfff451461035857806370a0823114610380578063715018a6146103a957600080fd5b806339509351146102b45780633a46b1a8146102c75780633fafa127146102da578063587cde1e1461030157600080fd5b80631c0f12b6116101de5780631c0f12b61461027557806323b872dd1461028a578063313ce5671461029d5780633644e515146102ac57600080fd5b8062fdd58e1461020f57806306fdde0314610235578063095ea7b31461024a57806318160ddd1461026d575b600080fd5b61022261021d36600461241c565b61054c565b6040519081526020015b60405180910390f35b61023d61056f565b60405161022c9190612446565b61025d61025836600461241c565b610601565b604051901515815260200161022c565b600254610222565b6102886102833660046124b2565b610617565b005b61025d6102983660046124f6565b6106af565b6040516012815260200161022c565b61022261079d565b61025d6102c236600461241c565b6107a7565b6102226102d536600461241c565b6107e3565b6102227f000000000000000000000000000000000000000000000000000000000000000081565b61032d61030f366004612532565b6001600160a01b039081166000908152600660205260409020541690565b6040516001600160a01b03909116815260200161022c565b610288610353366004612532565b610856565b61036b610366366004612532565b610863565b60405163ffffffff909116815260200161022c565b61022261038e366004612532565b6001600160a01b031660009081526020819052604090205490565b610288610885565b6102226103bf366004612532565b6108eb565b6102886103d236600461254d565b610909565b6102886103e536600461254d565b6109f8565b6009546001600160a01b031661032d565b610222610409366004612572565b610a8e565b61023d610aea565b610222610424366004612532565b610af9565b61028861043736600461254d565b610baa565b61025d61044a36600461241c565b610c94565b61025d61045d36600461241c565b610d45565b610222610470366004612572565b610d52565b61028861048336600461259c565b610d5d565b6102886104963660046125f4565b610e93565b6102226104a936600461265e565b6001600160a01b03918216600090815260016020908152604080832093909416825291909152205490565b6104e76104e2366004612691565b610ff7565b60408051825163ffffffff1681526020928301517bffffffffffffffffffffffffffffffffffffffffffffffffffffffff16928101929092520161022c565b610288610534366004612532565b611090565b61028861054736600461254d565b61116f565b6001600160a01b0382166000908152602081905260408120545b90505b92915050565b60606003805461057e906126d1565b80601f01602080910402602001604051908101604052809291908181526020018280546105aa906126d1565b80156105f75780601f106105cc576101008083540402835291602001916105f7565b820191906000526020600020905b8154815290600101906020018083116105da57829003601f168201915b5050505050905090565b600061060e3384846111ff565b50600192915050565b7f00000000000000000000000000000000000000000000000000000000000000001580159061066657507f00000000000000000000000000000000000000000000000000000000000000008414155b1561069d576040517fcdceed0000000000000000000000000000000000000000000000000000000000815260040160405180910390fd5b6106a88383836106af565b5050505050565b6001600160a01b03831660009081526001602090815260408083203384529091528120547fffffffffffffffffffffffffffffffffffffffffffffffffffffffffffffffff811461078257828110156107755760405162461bcd60e51b815260206004820152602860248201527f45524332303a207472616e7366657220616d6f756e742065786365656473206160448201527f6c6c6f77616e636500000000000000000000000000000000000000000000000060648201526084015b60405180910390fd5b61078285338584036111ff565b61078d858585611357565b506001949350505050565b905090565b6000610798611574565b3360008181526001602090815260408083206001600160a01b0387168452909152812054909161060e9185906107de90869061274d565b6111ff565b60004382106108345760405162461bcd60e51b815260206004820152601f60248201527f4552433230566f7465733a20626c6f636b206e6f7420796574206d696e656400604482015260640161076c565b6001600160a01b0383166000908152600760205260409020610566908361169b565b6108603382611782565b50565b6001600160a01b03811660009081526007602052604081205461056990611813565b6009546001600160a01b031633146108df5760405162461bcd60e51b815260206004820181905260248201527f4f776e61626c653a2063616c6c6572206973206e6f7420746865206f776e6572604482015260640161076c565b6108e96000611893565b565b6001600160a01b038116600090815260056020526040812054610569565b6009546001600160a01b031633146109635760405162461bcd60e51b815260206004820181905260248201527f4f776e61626c653a2063616c6c6572206973206e6f7420746865206f776e6572604482015260640161076c565b7f0000000000000000000000000000000000000000000000000000000000000000158015906109b257507f00000000000000000000000000000000000000000000000000000000000000008314155b156109e9576040517fcdceed0000000000000000000000000000000000000000000000000000000000815260040160405180910390fd5b6109f382826118fd565b505050565b7f000000000000000000000000000000000000000000000000000000000000000015801590610a4757507f00000000000000000000000000000000000000000000000000000000000000008314155b15610a7e576040517fcdceed0000000000000000000000000000000000000000000000000000000000815260040160405180910390fd5b610a888282610601565b50505050565b6000438210610adf5760405162461bcd60e51b815260206004820152601f60248201527f4552433230566f7465733a20626c6f636b206e6f7420796574206d696e656400604482015260640161076c565b61056960088361169b565b60606004805461057e906126d1565b6001600160a01b0381166000908152600760205260408120548015610b82576001600160a01b0383166000908152600760205260409020610b3b600183612760565b81548110610b4b57610b4b612773565b60009182526020909120015464010000000090047bffffffffffffffffffffffffffffffffffffffffffffffffffffffff16610b85565b60005b7bffffffffffffffffffffffffffffffffffffffffffffffffffffffff169392505050565b6009546001600160a01b03163314610c045760405162461bcd60e51b815260206004820181905260248201527f4f776e61626c653a2063616c6c6572206973206e6f7420746865206f776e6572604482015260640161076c565b7f000000000000000000000000000000000000000000000000000000000000000015801590610c5357507f00000000000000000000000000000000000000000000000000000000000000008314155b15610c8a576040517fcdceed0000000000000000000000000000000000000000000000000000000000815260040160405180910390fd5b6109f382826119a9565b3360009081526001602090815260408083206001600160a01b038616845290915281205482811015610d2e5760405162461bcd60e51b815260206004820152602560248201527f45524332303a2064656372656173656420616c6c6f77616e63652062656c6f7760448201527f207a65726f000000000000000000000000000000000000000000000000000000606482015260840161076c565b610d3b33858584036111ff565b5060019392505050565b600061060e338484611357565b600061056960025490565b83421115610dad5760405162461bcd60e51b815260206004820152601d60248201527f4552433230566f7465733a207369676e61747572652065787069726564000000604482015260640161076c565b604080517fe48329057bfd03d55e49b547132e39cffd9c1820ad7b9d4c5307691425d15adf60208201526001600160a01b038816918101919091526060810186905260808101859052600090610e2790610e1f9060a001604051602081830303815290604052805190602001206119c1565b858585611a2a565b9050610e3281611a52565b8614610e805760405162461bcd60e51b815260206004820152601960248201527f4552433230566f7465733a20696e76616c6964206e6f6e636500000000000000604482015260640161076c565b610e8a8188611782565b50505050505050565b83421115610ee35760405162461bcd60e51b815260206004820152601d60248201527f45524332305065726d69743a206578706972656420646561646c696e65000000604482015260640161076c565b60007f0000000000000000000000000000000000000000000000000000000000000000888888610f128c611a52565b6040805160208101969096526001600160a01b0394851690860152929091166060840152608083015260a082015260c0810186905260e0016040516020818303038152906040528051906020012090506000610f6d826119c1565b90506000610f7d82878787611a2a565b9050896001600160a01b0316816001600160a01b031614610fe05760405162461bcd60e51b815260206004820152601e60248201527f45524332305065726d69743a20696e76616c6964207369676e61747572650000604482015260640161076c565b610feb8a8a8a6111ff565b50505050505050505050565b60408051808201909152600080825260208201526001600160a01b0383166000908152600760205260409020805463ffffffff841690811061103b5761103b612773565b60009182526020918290206040805180820190915291015463ffffffff8116825264010000000090047bffffffffffffffffffffffffffffffffffffffffffffffffffffffff16918101919091529392505050565b6009546001600160a01b031633146110ea5760405162461bcd60e51b815260206004820181905260248201527f4f776e61626c653a2063616c6c6572206973206e6f7420746865206f776e6572604482015260640161076c565b6001600160a01b0381166111665760405162461bcd60e51b815260206004820152602660248201527f4f776e61626c653a206e6577206f776e657220697320746865207a65726f206160448201527f6464726573730000000000000000000000000000000000000000000000000000606482015260840161076c565b61086081611893565b7f0000000000000000000000000000000000000000000000000000000000000000158015906111be57507f00000000000000000000000000000000000000000000000000000000000000008314155b156111f5576040517fcdceed0000000000000000000000000000000000000000000000000000000000815260040160405180910390fd5b610a888282610d45565b6001600160a01b03831661127a5760405162461bcd60e51b8152602060048201526024808201527f45524332303a20617070726f76652066726f6d20746865207a65726f2061646460448201527f7265737300000000000000000000000000000000000000000000000000000000606482015260840161076c565b6001600160a01b0382166112f65760405162461bcd60e51b815260206004820152602260248201527f45524332303a20617070726f766520746f20746865207a65726f20616464726560448201527f7373000000000000000000000000000000000000000000000000000000000000606482015260840161076c565b6001600160a01b0383811660008181526001602090815260408083209487168084529482529182902085905590518481527f8c5be1e5ebec7d5bd14f71427d1e84f3dd0314c0f7b2291e5b200ac8c7c3b925910160405180910390a3505050565b6001600160a01b0383166113d35760405162461bcd60e51b815260206004820152602560248201527f45524332303a207472616e736665722066726f6d20746865207a65726f20616460448201527f6472657373000000000000000000000000000000000000000000000000000000606482015260840161076c565b6001600160a01b03821661144f5760405162461bcd60e51b815260206004820152602360248201527f45524332303a207472616e7366657220746f20746865207a65726f206164647260448201527f6573730000000000000000000000000000000000000000000000000000000000606482015260840161076c565b6001600160a01b038316600090815260208190526040902054818110156114de5760405162461bcd60e51b815260206004820152602660248201527f45524332303a207472616e7366657220616d6f756e742065786365656473206260448201527f616c616e63650000000000000000000000000000000000000000000000000000606482015260840161076c565b6001600160a01b0380851660009081526020819052604080822085850390559185168152908120805484929061151590849061274d565b92505081905550826001600160a01b0316846001600160a01b03167fddf252ad1be2c89b69c2b068fc378daa952ba7f163c4a11628f55a4df523b3ef8460405161156191815260200190565b60405180910390a3610a88848484611a7a565b6000306001600160a01b037f0000000000000000000000000000000000000000000000000000000000000000161480156115cd57507f000000000000000000000000000000000000000000000000000000000000000046145b156115f757507f000000000000000000000000000000000000000000000000000000000000000090565b50604080517f00000000000000000000000000000000000000000000000000000000000000006020808301919091527f0000000000000000000000000000000000000000000000000000000000000000828401527f000000000000000000000000000000000000000000000000000000000000000060608301524660808301523060a0808401919091528351808403909101815260c0909201909252805191012090565b8154600090815b818110156116ff5760006116b68284611aac565b9050848682815481106116cb576116cb612773565b60009182526020909120015463ffffffff1611156116eb578092506116f9565b6116f681600161274d565b91505b506116a2565b81156117585784611711600184612760565b8154811061172157611721612773565b60009182526020909120015464010000000090047bffffffffffffffffffffffffffffffffffffffffffffffffffffffff1661175b565b60005b7bffffffffffffffffffffffffffffffffffffffffffffffffffffffff1695945050505050565b6001600160a01b038281166000818152600660208181526040808420805485845282862054949093528787167fffffffffffffffffffffffff00000000000000000000000000000000000000008416811790915590519190951694919391928592917f3134e8a2e6d97e929a7e54011ea5485d7d196dd5f0ba4d4ef95803e8e3fc257f9190a4610a88828483611ac7565b600063ffffffff82111561188f5760405162461bcd60e51b815260206004820152602660248201527f53616665436173743a2076616c756520646f65736e27742066697420696e203360448201527f3220626974730000000000000000000000000000000000000000000000000000606482015260840161076c565b5090565b600980546001600160a01b038381167fffffffffffffffffffffffff0000000000000000000000000000000000000000831681179093556040519116919082907f8be0079c531659141344cd1fd0a4f28419497f9722a3daafe3b4186f6b6457e090600090a35050565b6119078282611c04565b6002547bffffffffffffffffffffffffffffffffffffffffffffffffffffffff101561199b5760405162461bcd60e51b815260206004820152603060248201527f4552433230566f7465733a20746f74616c20737570706c79207269736b73206f60448201527f766572666c6f77696e6720766f74657300000000000000000000000000000000606482015260840161076c565b610a886008611cef83611cfb565b6119b38282611edd565b610a88600861206983611cfb565b60006105696119ce611574565b836040517f19010000000000000000000000000000000000000000000000000000000000006020820152602281018390526042810182905260009060620160405160208183030381529060405280519060200120905092915050565b6000806000611a3b87878787612075565b91509150611a4881612180565b5095945050505050565b6001600160a01b03811660009081526005602052604090208054600181018255905b50919050565b6001600160a01b038381166000908152600660205260408082205485841683529120546109f392918216911683611ac7565b6000611abb60028484186127a2565b6105669084841661274d565b816001600160a01b0316836001600160a01b031614158015611ae95750600081115b156109f3576001600160a01b03831615611b77576001600160a01b03831660009081526007602052604081208190611b249061206985611cfb565b91509150846001600160a01b03167fdec2bacdd2f05b59de34da9b523dff8be42e5e38e818c82fdb0bae774387a7248383604051611b6c929190918252602082015260400190565b60405180910390a250505b6001600160a01b038216156109f3576001600160a01b03821660009081526007602052604081208190611bad90611cef85611cfb565b91509150836001600160a01b03167fdec2bacdd2f05b59de34da9b523dff8be42e5e38e818c82fdb0bae774387a7248383604051611bf5929190918252602082015260400190565b60405180910390a25050505050565b6001600160a01b038216611c5a5760405162461bcd60e51b815260206004820152601f60248201527f45524332303a206d696e7420746f20746865207a65726f206164647265737300604482015260640161076c565b8060026000828254611c6c919061274d565b90915550506001600160a01b03821660009081526020819052604081208054839290611c9990849061274d565b90915550506040518181526001600160a01b038316906000907fddf252ad1be2c89b69c2b068fc378daa952ba7f163c4a11628f55a4df523b3ef9060200160405180910390a3611ceb60008383611a7a565b5050565b6000610566828461274d565b825460009081908015611d5b5785611d14600183612760565b81548110611d2457611d24612773565b60009182526020909120015464010000000090047bffffffffffffffffffffffffffffffffffffffffffffffffffffffff16611d5e565b60005b7bffffffffffffffffffffffffffffffffffffffffffffffffffffffff169250611d8c83858763ffffffff16565b9150600081118015611dca57504386611da6600184612760565b81548110611db657611db6612773565b60009182526020909120015463ffffffff16145b15611e5457611dd88261236c565b86611de4600184612760565b81548110611df457611df4612773565b9060005260206000200160000160046101000a8154817bffffffffffffffffffffffffffffffffffffffffffffffffffffffff02191690837bffffffffffffffffffffffffffffffffffffffffffffffffffffffff160217905550611ed4565b856040518060400160405280611e6943611813565b63ffffffff168152602001611e7d8561236c565b7bffffffffffffffffffffffffffffffffffffffffffffffffffffffff90811690915282546001810184556000938452602093849020835194909301519091166401000000000263ffffffff909316929092179101555b50935093915050565b6001600160a01b038216611f595760405162461bcd60e51b815260206004820152602160248201527f45524332303a206275726e2066726f6d20746865207a65726f2061646472657360448201527f7300000000000000000000000000000000000000000000000000000000000000606482015260840161076c565b6001600160a01b03821660009081526020819052604090205481811015611fe85760405162461bcd60e51b815260206004820152602260248201527f45524332303a206275726e20616d6f756e7420657863656564732062616c616e60448201527f6365000000000000000000000000000000000000000000000000000000000000606482015260840161076c565b6001600160a01b0383166000908152602081905260408120838303905560028054849290612017908490612760565b90915550506040518281526000906001600160a01b038516907fddf252ad1be2c89b69c2b068fc378daa952ba7f163c4a11628f55a4df523b3ef9060200160405180910390a36109f383600084611a7a565b60006105668284612760565b6000807f7fffffffffffffffffffffffffffffff5d576e7357a4501ddfe92f46681b20a08311156120ac5750600090506003612177565b8460ff16601b141580156120c457508460ff16601c14155b156120d55750600090506004612177565b6040805160008082526020820180845289905260ff881692820192909252606081018690526080810185905260019060a0016020604051602081039080840390855afa158015612129573d6000803e3d6000fd5b50506040517fffffffffffffffffffffffffffffffffffffffffffffffffffffffffffffffe001519150506001600160a01b03811661217057600060019250925050612177565b9150600090505b94509492505050565b6000816004811115612194576121946127dd565b0361219c5750565b60018160048111156121b0576121b06127dd565b036121fd5760405162461bcd60e51b815260206004820152601860248201527f45434453413a20696e76616c6964207369676e61747572650000000000000000604482015260640161076c565b6002816004811115612211576122116127dd565b0361225e5760405162461bcd60e51b815260206004820152601f60248201527f45434453413a20696e76616c6964207369676e6174757265206c656e67746800604482015260640161076c565b6003816004811115612272576122726127dd565b036122e55760405162461bcd60e51b815260206004820152602260248201527f45434453413a20696e76616c6964207369676e6174757265202773272076616c60448201527f7565000000000000000000000000000000000000000000000000000000000000606482015260840161076c565b60048160048111156122f9576122f96127dd565b036108605760405162461bcd60e51b815260206004820152602260248201527f45434453413a20696e76616c6964207369676e6174757265202776272076616c60448201527f7565000000000000000000000000000000000000000000000000000000000000606482015260840161076c565b60007bffffffffffffffffffffffffffffffffffffffffffffffffffffffff82111561188f5760405162461bcd60e51b815260206004820152602760248201527f53616665436173743a2076616c756520646f65736e27742066697420696e203260448201527f3234206269747300000000000000000000000000000000000000000000000000606482015260840161076c565b80356001600160a01b038116811461241757600080fd5b919050565b6000806040838503121561242f57600080fd5b61243883612400565b946020939093013593505050565b600060208083528351808285015260005b8181101561247357858101830151858201604001528201612457565b5060006040828601015260407fffffffffffffffffffffffffffffffffffffffffffffffffffffffffffffffe0601f8301168501019250505092915050565b600080600080608085870312156124c857600080fd5b843593506124d860208601612400565b92506124e660408601612400565b9396929550929360600135925050565b60008060006060848603121561250b57600080fd5b61251484612400565b925061252260208501612400565b9150604084013590509250925092565b60006020828403121561254457600080fd5b61056682612400565b60008060006060848603121561256257600080fd5b8335925061252260208501612400565b60006020828403121561258457600080fd5b5035919050565b803560ff8116811461241757600080fd5b60008060008060008060c087890312156125b557600080fd5b6125be87612400565b955060208701359450604087013593506125da6060880161258b565b92506080870135915060a087013590509295509295509295565b600080600080600080600060e0888a03121561260f57600080fd5b61261888612400565b965061262660208901612400565b955060408801359450606088013593506126426080890161258b565b925060a0880135915060c0880135905092959891949750929550565b6000806040838503121561267157600080fd5b61267a83612400565b915061268860208401612400565b90509250929050565b600080604083850312156126a457600080fd5b6126ad83612400565b9150602083013563ffffffff811681146126c657600080fd5b809150509250929050565b600181811c908216806126e557607f821691505b602082108103611a74577f4e487b7100000000000000000000000000000000000000000000000000000000600052602260045260246000fd5b7f4e487b7100000000000000000000000000000000000000000000000000000000600052601160045260246000fd5b808201808211156105695761056961271e565b818103818111156105695761056961271e565b7f4e487b7100000000000000000000000000000000000000000000000000000000600052603260045260246000fd5b6000826127d8577f4e487b7100000000000000000000000000000000000000000000000000000000600052601260045260246000fd5b500490565b7f4e487b7100000000000000000000000000000000000000000000000000000000600052602160045260246000fdfea26469706673582212205c23091a3d1f80015510377ececa8eecdc6be2b92c3468cca4f84e12ee6f03e864736f6c63430008100033a26469706673582212207672bd575e56b223b77bde4384f7a58f37d6ea2993a11c2e593756913b87706164736f6c63430008100033",
  "devdoc": {
    "details": "Token balances can be either represented internally or claimed as ERC-20s into wallets. This contract manages these two representations and allows claiming.The total supply of a project's tokens and the balance of each account are calculated in this contract.Each project can bring their own token if they prefer, and swap between tokens at any time.Adheres to - IJBTokenStore: General interface for the methods in this contract that interact with the blockchain's state according to the protocol's rules.Inherits from - JBControllerUtility: Includes convenience functionality for checking if the message sender is the current controller of the project whose data is being manipulated. JBOperatable: Includes convenience functionality for checking a message sender's permissions before executing certain transactions.",
    "kind": "dev",
    "methods": {
      "balanceOf(address,uint256)": {
        "params": {
          "_holder": "The token holder to get a balance for.",
          "_projectId": "The project to get the `_holder`s balance of."
        },
        "returns": {
          "balance": "The project token balance of the `_holder"
        }
      },
      "burnFrom(address,uint256,uint256,bool)": {
        "details": "Only a project's current controller can burn its tokens.",
        "params": {
          "_amount": "The amount of tokens to burn.",
          "_holder": "The address that owns the tokens being burned.",
          "_preferClaimedTokens": "A flag indicating whether there's a preference for tokens to burned from the `_holder`s wallet if the project currently has a token contract attached.",
          "_projectId": "The ID of the project to which the burned tokens belong."
        }
      },
      "claimFor(address,uint256,uint256)": {
        "details": "Only a token holder or an operator specified by the token holder can claim its unclaimed tokens.",
        "params": {
          "_amount": "The amount of tokens to claim.",
          "_holder": "The owner of the tokens being claimed.",
          "_projectId": "The ID of the project whose tokens are being claimed."
        }
      },
      "constructor": {
        "params": {
          "_directory": "A contract storing directories of terminals and controllers for each project.",
          "_fundingCycleStore": "A contract storing all funding cycle configurations.",
          "_operatorStore": "A contract storing operator assignments.",
          "_projects": "A contract which mints ERC-721's that represent project ownership and transfers."
        }
      },
      "issueFor(uint256,string,string)": {
        "details": "Deploys a project's ERC-20 token contract.Only a project's owner or operator can issue its token.",
        "params": {
          "_name": "The ERC-20's name.",
          "_projectId": "The ID of the project being issued tokens.",
          "_symbol": "The ERC-20's symbol."
        },
        "returns": {
          "token": "The token that was issued."
        }
      },
      "mintFor(address,uint256,uint256,bool)": {
        "details": "Only a project's current controller can mint its tokens.",
        "params": {
          "_amount": "The amount of tokens to mint.",
          "_holder": "The address receiving the new tokens.",
          "_preferClaimedTokens": "A flag indicating whether there's a preference for minted tokens to be claimed automatically into the `_holder`s wallet if the project currently has a token contract attached.",
          "_projectId": "The ID of the project to which the tokens belong."
        }
      },
      "setFor(uint256,address)": {
        "details": "Only a project's owner or operator can set its token.",
        "params": {
          "_projectId": "The ID of the project to which the set token belongs.",
          "_token": "The new token. "
        }
      },
      "totalSupplyOf(uint256)": {
        "params": {
          "_projectId": "The ID of the project to get the total token supply of."
        },
        "returns": {
          "totalSupply": "The total supply of the project's tokens."
        }
      },
      "transferFrom(address,uint256,address,uint256)": {
        "details": "Only a token holder or an operator can transfer its unclaimed tokens.",
        "params": {
          "_amount": "The amount of tokens to transfer.",
          "_holder": "The address to transfer tokens from.",
          "_projectId": "The ID of the project whose tokens are being transferred.",
          "_recipient": "The recipient of the tokens."
        }
      }
    },
    "version": 1
  },
  "userdoc": {
    "kind": "user",
    "methods": {
      "balanceOf(address,uint256)": {
        "notice": "The total balance of tokens a holder has for a specified project, including claimed and unclaimed tokens."
      },
      "burnFrom(address,uint256,uint256,bool)": {
        "notice": "Burns a project's tokens."
      },
      "claimFor(address,uint256,uint256)": {
        "notice": "Claims internally accounted for tokens into a holder's wallet."
      },
      "directory()": {
        "notice": " The directory of terminals and controllers for projects."
      },
      "fundingCycleStore()": {
        "notice": "The contract storing all funding cycle configurations."
      },
      "issueFor(uint256,string,string)": {
        "notice": "Issues a project's ERC-20 tokens that'll be used when claiming tokens."
      },
      "mintFor(address,uint256,uint256,bool)": {
        "notice": "Mint new project tokens."
      },
      "operatorStore()": {
        "notice": " A contract storing operator assignments."
      },
      "projects()": {
        "notice": "Mints ERC-721's that represent project ownership and transfers."
      },
      "setFor(uint256,address)": {
        "notice": "Set a project's token if not already set."
      },
      "tokenOf(uint256)": {
        "notice": "Each project's attached token contract. _projectId The ID of the project to which the token belongs."
      },
      "totalSupplyOf(uint256)": {
        "notice": "The total supply of tokens for each project, including claimed and unclaimed tokens."
      },
      "transferFrom(address,uint256,address,uint256)": {
        "notice": "Allows a holder to transfer unclaimed tokens to another account."
      },
      "unclaimedBalanceOf(address,uint256)": {
        "notice": "Each holder's balance of unclaimed tokens for each project. _holder The holder of balance. _projectId The ID of the project to which the token belongs."
      },
      "unclaimedTotalSupplyOf(uint256)": {
        "notice": "The total supply of unclaimed tokens for each project. _projectId The ID of the project to which the token belongs."
      }
    },
    "notice": "Manage token minting, burning, and account balances.",
    "version": 1
  },
  "storageLayout": {
    "storage": [
      {
        "astId": 14785,
        "contract": "contracts/JBTokenStore.sol:JBTokenStore",
        "label": "tokenOf",
        "offset": 0,
        "slot": "0",
        "type": "t_mapping(t_uint256,t_contract(IJBToken)20523)"
      },
      {
        "astId": 14791,
        "contract": "contracts/JBTokenStore.sol:JBTokenStore",
        "label": "unclaimedTotalSupplyOf",
        "offset": 0,
        "slot": "1",
        "type": "t_mapping(t_uint256,t_uint256)"
      },
      {
        "astId": 14799,
        "contract": "contracts/JBTokenStore.sol:JBTokenStore",
        "label": "unclaimedBalanceOf",
        "offset": 0,
        "slot": "2",
        "type": "t_mapping(t_address,t_mapping(t_uint256,t_uint256))"
      }
    ],
    "types": {
      "t_address": {
        "encoding": "inplace",
        "label": "address",
        "numberOfBytes": "20"
      },
      "t_contract(IJBToken)20523": {
        "encoding": "inplace",
        "label": "contract IJBToken",
        "numberOfBytes": "20"
      },
      "t_mapping(t_address,t_mapping(t_uint256,t_uint256))": {
        "encoding": "mapping",
        "key": "t_address",
        "label": "mapping(address => mapping(uint256 => uint256))",
        "numberOfBytes": "32",
        "value": "t_mapping(t_uint256,t_uint256)"
      },
      "t_mapping(t_uint256,t_contract(IJBToken)20523)": {
        "encoding": "mapping",
        "key": "t_uint256",
        "label": "mapping(uint256 => contract IJBToken)",
        "numberOfBytes": "32",
        "value": "t_contract(IJBToken)20523"
      },
      "t_mapping(t_uint256,t_uint256)": {
        "encoding": "mapping",
        "key": "t_uint256",
        "label": "mapping(uint256 => uint256)",
        "numberOfBytes": "32",
        "value": "t_uint256"
      },
      "t_uint256": {
        "encoding": "inplace",
        "label": "uint256",
        "numberOfBytes": "32"
      }
    }
  }
}